{
  "_format": "hh-sol-artifact-1",
  "contractName": "EulerLinearPoolRebalancer",
  "sourceName": "contracts/euler-linear-pool/EulerLinearPoolRebalancer.sol",
  "abi": [
    {
      "inputs": [
        {
          "internalType": "contract IVault",
          "name": "vault",
          "type": "address"
        },
        {
          "internalType": "contract IBalancerQueries",
          "name": "queries",
          "type": "address"
        },
        {
          "internalType": "address",
          "name": "_eulerProtocol",
          "type": "address"
        }
      ],
      "stateMutability": "nonpayable",
      "type": "constructor"
    },
    {
      "inputs": [],
      "name": "eulerProtocol",
      "outputs": [
        {
          "internalType": "address",
          "name": "",
          "type": "address"
        }
      ],
      "stateMutability": "view",
      "type": "function"
    },
    {
      "inputs": [],
      "name": "getPool",
      "outputs": [
        {
          "internalType": "contract ILinearPool",
          "name": "",
          "type": "address"
        }
      ],
      "stateMutability": "view",
      "type": "function"
    },
    {
      "inputs": [
        {
          "internalType": "address",
          "name": "recipient",
          "type": "address"
        }
      ],
      "name": "rebalance",
      "outputs": [
        {
          "internalType": "uint256",
          "name": "",
          "type": "uint256"
        }
      ],
      "stateMutability": "nonpayable",
      "type": "function"
    },
    {
      "inputs": [
        {
          "internalType": "address",
          "name": "recipient",
          "type": "address"
        },
        {
          "internalType": "uint256",
          "name": "extraMain",
          "type": "uint256"
        }
      ],
      "name": "rebalanceWithExtraMain",
      "outputs": [
        {
          "internalType": "uint256",
          "name": "",
          "type": "uint256"
        }
      ],
      "stateMutability": "nonpayable",
      "type": "function"
    }
  ],
  "bytecode": "0x6101806040523480156200001257600080fd5b5060405162001f1838038062001f18833981016040819052620000359162000470565b336001600160a01b0316635ed312826040518163ffffffff1660e01b815260040160206040518083038186803b1580156200006f57600080fd5b505afa15801562000084573d6000803e3d6000fd5b505050506040513d601f19601f82011682018060405250810190620000aa919062000386565b8383826001600160a01b0316631dd746ea6040518163ffffffff1660e01b815260040160006040518083038186803b158015620000e657600080fd5b505afa158015620000fb573d6000803e3d6000fd5b505050506040513d6000823e601f3d908101601f19168201604052620001259190810190620003ac565b836001600160a01b0316634d64cd746040518163ffffffff1660e01b815260040160206040518083038186803b1580156200015f57600080fd5b505afa15801562000174573d6000803e3d6000fd5b505050506040513d601f19601f820116820180604052508101906200019a919062000457565b81518110620001a557fe5b602090810291909101810151610100526001600160601b0319606085901b166080526040805163038fff2d60e41b815290516001600160a01b038616926338fff2d09260048082019391829003018186803b1580156200020457600080fd5b505afa15801562000219573d6000803e3d6000fd5b505050506040513d601f19601f820116820180604052508101906200023f919062000457565b60a08181525050826001600160a01b0316634de046d56040518163ffffffff1660e01b815260040160206040518083038186803b1580156200028057600080fd5b505afa15801562000295573d6000803e3d6000fd5b505050506040513d601f19601f82011682018060405250810190620002bb919062000386565b6001600160a01b031660c0816001600160a01b031660601b81525050826001600160a01b031663f174e2416040518163ffffffff1660e01b815260040160206040518083038186803b1580156200031157600080fd5b505afa15801562000326573d6000803e3d6000fd5b505050506040513d601f19601f820116820180604052508101906200034c919062000386565b6001600160601b0319606091821b811660e05292811b83166101205290811b8216610140529290921b909116610160525062000503915050565b60006020828403121562000398578081fd5b8151620003a581620004ea565b9392505050565b60006020808385031215620003bf578182fd5b82516001600160401b0380821115620003d6578384fd5b818501915085601f830112620003ea578384fd5b815181811115620003f9578485fd5b83810291506200040b848301620004c3565b8181528481019084860184860187018a101562000426578788fd5b8795505b838610156200044a5780518352600195909501949186019186016200042a565b5098975050505050505050565b60006020828403121562000469578081fd5b5051919050565b60008060006060848603121562000485578182fd5b83516200049281620004ea565b6020850151909350620004a581620004ea565b6040850151909250620004b881620004ea565b809150509250925092565b6040518181016001600160401b0381118282101715620004e257600080fd5b604052919050565b6001600160a01b03811681146200050057600080fd5b50565b60805160601c60a05160c05160601c60e05160601c610100516101205160601c6101405160601c6101605160601c611920620005f86000398060e352806111d5525080610540528061085852508061016a5280610c4b528061101052806110725250806103f65250806104a352806105d0528061077f52806109235280610cf95280610dbe528061110b528061123752508061012152806101c7528061046752806106035280610668528061070952806107bb52806108e852806111b35250806101a6528061043952806107515280610ab45280610b935280610e985280610f7752508060ac528061034052506119206000f3fe608060405234801561001057600080fd5b506004361061004c5760003560e01c8063026b1d5f1461005157806321c281911461006f5780635208fc2b1461008f578063df633d8d14610097575b600080fd5b6100596100aa565b6040516100669190611648565b60405180910390f35b61008261007d366004611506565b6100ce565b6040516100669190611889565b6100596100e1565b6100826100a5366004611522565b610105565b7f000000000000000000000000000000000000000000000000000000000000000090565b60006100d982610159565b90505b919050565b7f000000000000000000000000000000000000000000000000000000000000000081565b600061014973ffffffffffffffffffffffffffffffffffffffff7f000000000000000000000000000000000000000000000000000000000000000016333085610290565b61015283610159565b9392505050565b600080610164610339565b905060007f000000000000000000000000000000000000000000000000000000000000000073ffffffffffffffffffffffffffffffffffffffff1663b05f8e487f00000000000000000000000000000000000000000000000000000000000000007f00000000000000000000000000000000000000000000000000000000000000006040518363ffffffff1660e01b8152600401610203929190611794565b60806040518083038186803b15801561021b57600080fd5b505afa15801561022f573d6000803e3d6000fd5b505050506040513d601f19601f8201168201806040525081019061025391906115a8565b5050509050818110156102755761026c81830385610422565b925050506100dc565b818111156102895761026c8282038561073a565b5050919050565b610333846323b872dd60e01b8585856040516024016102b193929190611690565b604080517fffffffffffffffffffffffffffffffffffffffffffffffffffffffffffffffe08184030181529190526020810180517bffffffffffffffffffffffffffffffffffffffffffffffffffffffff167fffffffff0000000000000000000000000000000000000000000000000000000090931692909217909152610948565b50505050565b60008060007f000000000000000000000000000000000000000000000000000000000000000073ffffffffffffffffffffffffffffffffffffffff166363fe3b566040518163ffffffff1660e01b8152600401604080518083038186803b1580156103a357600080fd5b505afa1580156103b7573d6000803e3d6000fd5b505050506040513d601f19601f820116820180604052508101906103db9190611585565b9150915060006002828401816103ed57fe5b04905061041a817f00000000000000000000000000000000000000000000000000000000000000006109f5565b935050505090565b600061042c611453565b6040805160c081019091527f0000000000000000000000000000000000000000000000000000000000000000815260208101600081526020017f000000000000000000000000000000000000000000000000000000000000000073ffffffffffffffffffffffffffffffffffffffff1681526020017f000000000000000000000000000000000000000000000000000000000000000073ffffffffffffffffffffffffffffffffffffffff1681526020018581526020016040518060200160405280600081525081525090506105006114b6565b6040517fe969f6b300000000000000000000000000000000000000000000000000000000815260009073ffffffffffffffffffffffffffffffffffffffff7f0000000000000000000000000000000000000000000000000000000000000000169063e969f6b39061057790869086906004016117c6565b602060405180830381600087803b15801561059157600080fd5b505af11580156105a5573d6000803e3d6000fd5b505050506040513d601f19601f820116820180604052508101906105c9919061156d565b90506105f57f000000000000000000000000000000000000000000000000000000000000000082610a48565b6105fe81610cb9565b6106287f000000000000000000000000000000000000000000000000000000000000000087610e2c565b6040517f70a0823100000000000000000000000000000000000000000000000000000000815260009073ffffffffffffffffffffffffffffffffffffffff7f000000000000000000000000000000000000000000000000000000000000000016906370a082319061069d903090600401611648565b60206040518083038186803b1580156106b557600080fd5b505afa1580156106c9573d6000803e3d6000fd5b505050506040513d601f19601f820116820180604052508101906106ed919061156d565b905061073073ffffffffffffffffffffffffffffffffffffffff7f00000000000000000000000000000000000000000000000000000000000000001687836110a7565b9695505050505050565b6000610744611453565b6040805160c081019091527f0000000000000000000000000000000000000000000000000000000000000000815260208101600181526020017f000000000000000000000000000000000000000000000000000000000000000073ffffffffffffffffffffffffffffffffffffffff1681526020017f000000000000000000000000000000000000000000000000000000000000000073ffffffffffffffffffffffffffffffffffffffff1681526020018581526020016040518060200160405280600081525081525090506108186114b6565b6040517fe969f6b300000000000000000000000000000000000000000000000000000000815260009073ffffffffffffffffffffffffffffffffffffffff7f0000000000000000000000000000000000000000000000000000000000000000169063e969f6b39061088f90869086906004016117c6565b602060405180830381600087803b1580156108a957600080fd5b505af11580156108bd573d6000803e3d6000fd5b505050506040513d601f19601f820116820180604052508101906108e1919061156d565b905061090d7f000000000000000000000000000000000000000000000000000000000000000087610a48565b61091e610919826110cb565b611199565b6106287f000000000000000000000000000000000000000000000000000000000000000082610e2c565b600060608373ffffffffffffffffffffffffffffffffffffffff1683604051610971919061162c565b6000604051808303816000865af19150503d80600081146109ae576040519150601f19603f3d011682016040523d82523d6000602084013e6109b3565b606091505b509150915060008214156109cb573d6000803e3d6000fd5b6103338151600014806109ed5750818060200190518101906109ed919061154d565b6101a26112a4565b6000610a0482151560046112a4565b670de0b6b3a76400008302610a36841580610a2f5750670de0b6b3a7640000858381610a2c57fe5b04145b60056112a4565b828181610a3f57fe5b04949350505050565b6040805160028082526060828101909352816020015b610a666114dd565b815260200190600190039081610a5e579050509050600081600081518110610a8a57fe5b6020026020010151600001906002811115610aa157fe5b90816002811115610aae57fe5b815250507f000000000000000000000000000000000000000000000000000000000000000081600081518110610ae057fe5b602002602001015160200181815250508181600081518110610afe57fe5b602002602001015160600181815250508281600081518110610b1c57fe5b60200260200101516040019073ffffffffffffffffffffffffffffffffffffffff16908173ffffffffffffffffffffffffffffffffffffffff1681525050600281600181518110610b6957fe5b6020026020010151600001906002811115610b8057fe5b90816002811115610b8d57fe5b815250507f000000000000000000000000000000000000000000000000000000000000000081600181518110610bbf57fe5b60200260200101516020018181525050600081600181518110610bde57fe5b602002602001015160600181815250508281600181518110610bfc57fe5b602090810291909101015173ffffffffffffffffffffffffffffffffffffffff918216604091820152517fe6c460920000000000000000000000000000000000000000000000000000000081527f00000000000000000000000000000000000000000000000000000000000000009091169063e6c4609290610c82908490600401611710565b600060405180830381600087803b158015610c9c57600080fd5b505af1158015610cb0573d6000803e3d6000fd5b50505050505050565b6040517f010ad6d100000000000000000000000000000000000000000000000000000000815260009073ffffffffffffffffffffffffffffffffffffffff7f0000000000000000000000000000000000000000000000000000000000000000169063010ad6d190610d2e908590600401611889565b60206040518083038186803b158015610d4657600080fd5b505afa158015610d5a573d6000803e3d6000fd5b505050506040513d601f19601f82011682018060405250810190610d7e919061156d565b6040517f441a3e7000000000000000000000000000000000000000000000000000000000815290915073ffffffffffffffffffffffffffffffffffffffff7f0000000000000000000000000000000000000000000000000000000000000000169063441a3e7090610df69060009085906004016117b8565b600060405180830381600087803b158015610e1057600080fd5b505af1158015610e24573d6000803e3d6000fd5b505050505050565b6040805160028082526060828101909352816020015b610e4a6114dd565b815260200190600190039081610e42579050509050600281600081518110610e6e57fe5b6020026020010151600001906002811115610e8557fe5b90816002811115610e9257fe5b815250507f000000000000000000000000000000000000000000000000000000000000000081600081518110610ec457fe5b602002602001015160200181815250508181600081518110610ee257fe5b602002602001015160600181815250508281600081518110610f0057fe5b60200260200101516040019073ffffffffffffffffffffffffffffffffffffffff16908173ffffffffffffffffffffffffffffffffffffffff1681525050600181600181518110610f4d57fe5b6020026020010151600001906002811115610f6457fe5b90816002811115610f7157fe5b815250507f000000000000000000000000000000000000000000000000000000000000000081600181518110610fa357fe5b602002602001015160200181815250508181600181518110610fc157fe5b602002602001015160600181815250508281600181518110610fdf57fe5b602090810291909101015173ffffffffffffffffffffffffffffffffffffffff9182166040909101526110359084167f0000000000000000000000000000000000000000000000000000000000000000846112b6565b6040517fe6c4609200000000000000000000000000000000000000000000000000000000815273ffffffffffffffffffffffffffffffffffffffff7f0000000000000000000000000000000000000000000000000000000000000000169063e6c4609290610c82908490600401611710565b6110c68363a9059cbb60e01b84846040516024016102b19291906116ea565b505050565b6040517f010ad6d100000000000000000000000000000000000000000000000000000000815260009073ffffffffffffffffffffffffffffffffffffffff7f0000000000000000000000000000000000000000000000000000000000000000169063010ad6d190611140908590600401611889565b60206040518083038186803b15801561115857600080fd5b505afa15801561116c573d6000803e3d6000fd5b505050506040513d601f19601f82011682018060405250810190611190919061156d565b60010192915050565b6111fa73ffffffffffffffffffffffffffffffffffffffff7f0000000000000000000000000000000000000000000000000000000000000000167f0000000000000000000000000000000000000000000000000000000000000000836112b6565b6040517fe2bbb15800000000000000000000000000000000000000000000000000000000815273ffffffffffffffffffffffffffffffffffffffff7f0000000000000000000000000000000000000000000000000000000000000000169063e2bbb1589061126f9060009085906004016117b8565b600060405180830381600087803b15801561128957600080fd5b505af115801561129d573d6000803e3d6000fd5b5050505050565b816112b2576112b2816113ab565b5050565b801580159061136757506040517fdd62ed3e00000000000000000000000000000000000000000000000000000000815273ffffffffffffffffffffffffffffffffffffffff84169063dd62ed3e906113149030908690600401611669565b60206040518083038186803b15801561132c57600080fd5b505afa158015611340573d6000803e3d6000fd5b505050506040513d601f19601f82011682018060405250810190611364919061156d565b15155b1561138c5761138c8363095ea7b360e01b8460006040516024016102b19291906116c1565b6110c68363095ea7b360e01b84846040516024016102b19291906116ea565b6113d5817f42414c00000000000000000000000000000000000000000000000000000000006113d8565b50565b7f08c379a000000000000000000000000000000000000000000000000000000000600090815260206004526007602452600a808404818106603090810160081b958390069590950190829004918206850160101b01602363ffffff0060e086901c160160181b0190930160c81b60445260e882901c90606490fd5b6040805160c08101909152600080825260208201908152602001600073ffffffffffffffffffffffffffffffffffffffff168152602001600073ffffffffffffffffffffffffffffffffffffffff16815260200160008152602001606081525090565b60408051608081018252600080825260208201819052918101829052606081019190915290565b604080516080810190915280600081526000602082018190526040820181905260609091015290565b600060208284031215611517578081fd5b8135610152816118c8565b60008060408385031215611534578081fd5b823561153f816118c8565b946020939093013593505050565b60006020828403121561155e578081fd5b81518015158114610152578182fd5b60006020828403121561157e578081fd5b5051919050565b60008060408385031215611597578182fd5b505080516020909101519092909150565b600080600080608085870312156115bd578182fd5b84519350602085015192506040850151915060608501516115dd816118c8565b939692955090935050565b73ffffffffffffffffffffffffffffffffffffffff808251168352602082015115156020840152806040830151166040840152506060810151151560608301525050565b6000825161163e818460208701611892565b9190910192915050565b73ffffffffffffffffffffffffffffffffffffffff91909116815260200190565b73ffffffffffffffffffffffffffffffffffffffff92831681529116602082015260400190565b73ffffffffffffffffffffffffffffffffffffffff9384168152919092166020820152604081019190915260600190565b73ffffffffffffffffffffffffffffffffffffffff92909216825260ff16602082015260400190565b73ffffffffffffffffffffffffffffffffffffffff929092168252602082015260400190565b602080825282518282018190526000919060409081850190868401855b8281101561178757815180516003811061174357fe5b855280870151878601528581015173ffffffffffffffffffffffffffffffffffffffff1686860152606090810151908501526080909301929085019060010161172d565b5091979650505050505050565b91825273ffffffffffffffffffffffffffffffffffffffff16602082015260400190565b918252602082015260400190565b600060a08252835160a083015260208401516117e1816118be565b8060c084015250604084015173ffffffffffffffffffffffffffffffffffffffff80821660e0850152806060870151166101008501525050608084015161012083015260a084015160c061014084015280518061016085015261018061184d8282870160208601611892565b807fffffffffffffffffffffffffffffffffffffffffffffffffffffffffffffffe0601f840116860101935050505061015260208301846115e8565b90815260200190565b60005b838110156118ad578181015183820152602001611895565b838111156103335750506000910152565b600281106113d557fe5b73ffffffffffffffffffffffffffffffffffffffff811681146113d557600080fdfea26469706673582212201e159ab0035a167cadb43e6e3d42a37057cf3eaa63771a32ec057c13a75b2f8564736f6c63430007010033",
  "linkReferences": {},
  "deployedLinkReferences": {}
}