{
  "_format": "hh-sol-artifact-1",
  "contractName": "EulerLinearPoolFactory",
  "sourceName": "contracts/euler-linear-pool/EulerLinearPoolFactory.sol",
  "abi": [
    {
      "inputs": [
        {
          "internalType": "contract IVault",
          "name": "vault",
          "type": "address"
        },
        {
          "internalType": "contract IProtocolFeePercentagesProvider",
          "name": "protocolFeeProvider",
          "type": "address"
        },
        {
          "internalType": "contract IBalancerQueries",
          "name": "queries",
          "type": "address"
        },
        {
          "internalType": "string",
          "name": "factoryVersion",
          "type": "string"
        },
        {
          "internalType": "string",
          "name": "poolVersion",
          "type": "string"
        },
        {
          "internalType": "uint256",
          "name": "initialPauseWindowDuration",
          "type": "uint256"
        },
        {
          "internalType": "uint256",
          "name": "bufferPeriodDuration",
          "type": "uint256"
        },
        {
          "internalType": "address",
          "name": "_eulerProtocol",
          "type": "address"
        }
      ],
      "stateMutability": "nonpayable",
      "type": "constructor"
    },
    {
      "anonymous": false,
      "inputs": [
        {
          "indexed": true,
          "internalType": "address",
          "name": "pool",
          "type": "address"
        },
        {
          "indexed": true,
          "internalType": "uint256",
          "name": "protocolId",
          "type": "uint256"
        }
      ],
      "name": "EulerLinearPoolCreated",
      "type": "event"
    },
    {
      "anonymous": false,
      "inputs": [],
      "name": "FactoryDisabled",
      "type": "event"
    },
    {
      "anonymous": false,
      "inputs": [
        {
          "indexed": true,
          "internalType": "address",
          "name": "pool",
          "type": "address"
        }
      ],
      "name": "PoolCreated",
      "type": "event"
    },
    {
      "inputs": [
        {
          "internalType": "string",
          "name": "name",
          "type": "string"
        },
        {
          "internalType": "string",
          "name": "symbol",
          "type": "string"
        },
        {
          "internalType": "contract IERC20",
          "name": "mainToken",
          "type": "address"
        },
        {
          "internalType": "contract IERC20",
          "name": "wrappedToken",
          "type": "address"
        },
        {
          "internalType": "uint256",
          "name": "upperTarget",
          "type": "uint256"
        },
        {
          "internalType": "uint256",
          "name": "swapFeePercentage",
          "type": "uint256"
        },
        {
          "internalType": "address",
          "name": "owner",
          "type": "address"
        },
        {
          "internalType": "uint256",
          "name": "protocolId",
          "type": "uint256"
        }
      ],
      "name": "create",
      "outputs": [
        {
          "internalType": "contract LinearPool",
          "name": "",
          "type": "address"
        }
      ],
      "stateMutability": "nonpayable",
      "type": "function"
    },
    {
      "inputs": [],
      "name": "disable",
      "outputs": [],
      "stateMutability": "nonpayable",
      "type": "function"
    },
    {
      "inputs": [],
      "name": "eulerProtocol",
      "outputs": [
        {
          "internalType": "address",
          "name": "",
          "type": "address"
        }
      ],
      "stateMutability": "view",
      "type": "function"
    },
    {
      "inputs": [
        {
          "internalType": "bytes4",
          "name": "selector",
          "type": "bytes4"
        }
      ],
      "name": "getActionId",
      "outputs": [
        {
          "internalType": "bytes32",
          "name": "",
          "type": "bytes32"
        }
      ],
      "stateMutability": "view",
      "type": "function"
    },
    {
      "inputs": [],
      "name": "getAuthorizer",
      "outputs": [
        {
          "internalType": "contract IAuthorizer",
          "name": "",
          "type": "address"
        }
      ],
      "stateMutability": "view",
      "type": "function"
    },
    {
      "inputs": [],
      "name": "getCreationCode",
      "outputs": [
        {
          "internalType": "bytes",
          "name": "",
          "type": "bytes"
        }
      ],
      "stateMutability": "view",
      "type": "function"
    },
    {
      "inputs": [],
      "name": "getCreationCodeContracts",
      "outputs": [
        {
          "internalType": "address",
          "name": "contractA",
          "type": "address"
        },
        {
          "internalType": "address",
          "name": "contractB",
          "type": "address"
        }
      ],
      "stateMutability": "view",
      "type": "function"
    },
    {
      "inputs": [],
      "name": "getLastCreatedPool",
      "outputs": [
        {
          "internalType": "address",
          "name": "",
          "type": "address"
        }
      ],
      "stateMutability": "view",
      "type": "function"
    },
    {
      "inputs": [],
      "name": "getPauseConfiguration",
      "outputs": [
        {
          "internalType": "uint256",
          "name": "pauseWindowDuration",
          "type": "uint256"
        },
        {
          "internalType": "uint256",
          "name": "bufferPeriodDuration",
          "type": "uint256"
        }
      ],
      "stateMutability": "view",
      "type": "function"
    },
    {
      "inputs": [],
      "name": "getPoolVersion",
      "outputs": [
        {
          "internalType": "string",
          "name": "",
          "type": "string"
        }
      ],
      "stateMutability": "view",
      "type": "function"
    },
    {
      "inputs": [],
      "name": "getProtocolFeePercentagesProvider",
      "outputs": [
        {
          "internalType": "contract IProtocolFeePercentagesProvider",
          "name": "",
          "type": "address"
        }
      ],
      "stateMutability": "view",
      "type": "function"
    },
    {
      "inputs": [],
      "name": "getVault",
      "outputs": [
        {
          "internalType": "contract IVault",
          "name": "",
          "type": "address"
        }
      ],
      "stateMutability": "view",
      "type": "function"
    },
    {
      "inputs": [],
      "name": "isDisabled",
      "outputs": [
        {
          "internalType": "bool",
          "name": "",
          "type": "bool"
        }
      ],
      "stateMutability": "view",
      "type": "function"
    },
    {
      "inputs": [
        {
          "internalType": "address",
          "name": "pool",
          "type": "address"
        }
      ],
      "name": "isPoolFromFactory",
      "outputs": [
        {
          "internalType": "bool",
          "name": "",
          "type": "bool"
        }
      ],
      "stateMutability": "view",
      "type": "function"
    },
    {
      "inputs": [],
      "name": "version",
      "outputs": [
        {
          "internalType": "string",
          "name": "",
          "type": "string"
        }
      ],
      "stateMutability": "view",
      "type": "function"
    }
  ],
  "bytecode": "0x6102006040523480156200001257600080fd5b50604051620096c1380380620096c18339810160408190526200003591620003d0565b87878484604051806020016200004b906200027f565b601f1982820381018352601f909101166040528951839083908790309085908f906200007f9060009060208401906200028d565b505080516002810460a081905280820360e081905281845283620000af81620001a0602090811b62000b5617901c565b60601b6001600160601b0319166080528285018051838252620000de82620001a0602090811b62000b5617901c565b6001600160601b0319606091821b811660c0529690935290526101009590955250509290911b909116610120525062000121630163f500831115610194620001f4565b620001356276a700821115610195620001f4565b610140829052610160524201610180525050506001600160601b0319606091821b81166101a05260016003559088901b166101c052508351620001809060069060208701906200028d565b5060601b6001600160601b0319166101e05250620004b895505050505050565b80517f602038038060206000396000f3fefefefefefefefefefefefefefefefefefefe808352600091602081018484f09084529150620001ee6001600160a01b03831615156101ac620001f4565b50919050565b816200020557620002058162000209565b5050565b6200021b816210905360ea1b6200021e565b50565b62461bcd60e51b600090815260206004526007602452600a808404818106603090810160081b958390069590950190829004918206850160101b01602363ffffff0060e086901c160160181b0190930160c81b60445260e882901c90606490fd5b61598b8062003d3683390190565b828054600181600116156101000203166002900490600052602060002090601f016020900481019282601f10620002d057805160ff191683800117855562000300565b8280016001018555821562000300579182015b8281111562000300578251825591602001919060010190620002e3565b506200030e92915062000312565b5090565b5b808211156200030e576000815560010162000313565b600082601f8301126200033a578081fd5b81516001600160401b038082111562000351578283fd5b6040516020601f8401601f191682018101838111838210171562000373578586fd5b806040525081945083825286818588010111156200039057600080fd5b600092505b83831015620003b4578583018101518284018201529182019162000395565b83831115620003c65760008185840101525b5050505092915050565b600080600080600080600080610100898b031215620003ed578384fd5b8851620003fa81620004a2565b60208a01519098506200040d81620004a2565b60408a01519097506200042081620004a2565b60608a01519096506001600160401b03808211156200043d578586fd5b6200044b8c838d0162000329565b965060808b015191508082111562000461578586fd5b50620004708b828c0162000329565b94505060a0890151925060c0890151915060e08901516200049181620004a2565b809150509295985092959890939650565b6001600160a01b03811681146200021b57600080fd5b60805160601c60a05160c05160601c60e051610100516101205160601c6101405161016051610180516101a05160601c6101c05160601c6101e05160601c6137d2620005646000398061044852806106d05280610a855250806106af52508061053e5250806102a152806102cb5250806102ef525050806105b6525080610564525080610bbf5250806102785280610c3b525080610be05250806102575280610c1752506137d26000f3fe60806040523480156200001157600080fd5b50600436106200010b5760003560e01c80635ed3128211620000a5578063851c1bb3116200006f578063851c1bb314620001e35780638d928af81462000209578063aaabadc51462000213578063df8af989146200021d576200010b565b80635ed31282146200019f5780636634b75314620001a95780636c57f5a914620001cf578063739238d614620001d9576200010b565b80632f2770db11620000e75780632f2770db14620001665780633f819b6f14620001725780635208fc2b146200017c57806354fd4d501462000195576200010b565b8062c194db1462000110578063174481fa14620001325780632da47c40146200014c575b600080fd5b6200011a62000234565b6040516200012991906200159a565b60405180910390f35b6200013c62000255565b6040516200012992919062001533565b620001566200029b565b6040516200012992919062001820565b6200017062000324565b005b6200011a6200038e565b6200018662000446565b60405162000129919062001512565b6200011a6200046a565b62000186620004ec565b620001c0620001ba3660046200129c565b62000508565b6040516200012991906200155a565b620001c062000533565b620001866200053c565b620001fa620001f4366004620012fc565b62000560565b60405162000129919062001565565b62000186620005b4565b62000186620005d8565b620001866200022e3660046200133e565b62000665565b6060620002506040518060200160405280600081525062000bb7565b905090565b7f00000000000000000000000000000000000000000000000000000000000000007f00000000000000000000000000000000000000000000000000000000000000009091565b600080427f00000000000000000000000000000000000000000000000000000000000000008110156200031657807f00000000000000000000000000000000000000000000000000000000000000000392507f000000000000000000000000000000000000000000000000000000000000000091506200031f565b60009250600091505b509091565b6200032e62000c92565b6200033862000ce1565b600280547fffffffffffffffffffffffffffffffffffffffffffffffffffffffffffffff001660011790556040517f432acbfd662dbb5d8b378384a67159b47ca9d0f1b79f97cf64cf8585fa362d5090600090a1565b60068054604080516020601f60027fffffffffffffffffffffffffffffffffffffffffffffffffffffffffffffffff6101006001881615020190951694909404938401819004810282018101909252828152606093909290918301828280156200043c5780601f1062000410576101008083540402835291602001916200043c565b820191906000526020600020905b8154815290600101906020018083116200041e57829003601f168201915b5050505050905090565b7f000000000000000000000000000000000000000000000000000000000000000081565b60008054604080516020601f60027fffffffffffffffffffffffffffffffffffffffffffffffffffffffffffffffff6101006001881615020190951694909404938401819004810282018101909252828152606093909290918301828280156200043c5780601f1062000410576101008083540402835291602001916200043c565b60055473ffffffffffffffffffffffffffffffffffffffff1690565b73ffffffffffffffffffffffffffffffffffffffff1660009081526001602052604090205460ff1690565b60025460ff1690565b7f000000000000000000000000000000000000000000000000000000000000000090565b60007f00000000000000000000000000000000000000000000000000000000000000008260405160200162000597929190620014af565b604051602081830303815290604052805190602001209050919050565b7f000000000000000000000000000000000000000000000000000000000000000090565b6000620005e4620005b4565b73ffffffffffffffffffffffffffffffffffffffff1663aaabadc56040518163ffffffff1660e01b815260040160206040518083038186803b1580156200062a57600080fd5b505afa1580156200063f573d6000803e3d6000fd5b505050506040513d601f19601f82011682018060405250810190620002509190620012bb565b60006200067162000cfa565b600480546001810190915560405160609062000690602082016200113d565b601f1982820381018352601f90910116604052620006ad620005b4565b7f00000000000000000000000000000000000000000000000000000000000000007f00000000000000000000000000000000000000000000000000000000000000006040516020016200070393929190620015af565b60408051601f1981840301815290829052620007239291602001620014df565b604051602081830303815290604052905060006200074983838051906020012062000d15565b9050600080620007586200029b565b91509150620007666200114b565b62000770620005b4565b816000019073ffffffffffffffffffffffffffffffffffffffff16908173ffffffffffffffffffffffffffffffffffffffff16815250508e81602001819052508d81604001819052508c816060019073ffffffffffffffffffffffffffffffffffffffff16908173ffffffffffffffffffffffffffffffffffffffff16815250508b816080019073ffffffffffffffffffffffffffffffffffffffff16908173ffffffffffffffffffffffffffffffffffffffff1681525050838160a0019073ffffffffffffffffffffffffffffffffffffffff16908173ffffffffffffffffffffffffffffffffffffffff16815250508a8160c0018181525050898160e0018181525050828161010001818152505081816101200181815250508881610140019073ffffffffffffffffffffffffffffffffffffffff16908173ffffffffffffffffffffffffffffffffffffffff1681525050620008ce6200038e565b6101608201526040516000906200090490620008ef90849060200162001718565b60405160208183030381529060405262000d2b565b90508073ffffffffffffffffffffffffffffffffffffffff16638129fc1c6040518163ffffffff1660e01b8152600401600060405180830381600087803b1580156200094f57600080fd5b505af115801562000964573d6000803e3d6000fd5b505050506000620009786000898962000d80565b90508073ffffffffffffffffffffffffffffffffffffffff168673ffffffffffffffffffffffffffffffffffffffff1614620009eb576040517f08c379a0000000000000000000000000000000000000000000000000000000008152600401620009e290620016aa565b60405180910390fd5b8073ffffffffffffffffffffffffffffffffffffffff16635208fc2b6040518163ffffffff1660e01b815260040160206040518083038186803b15801562000a3257600080fd5b505afa15801562000a47573d6000803e3d6000fd5b505050506040513d601f19601f8201168201806040525081019062000a6d9190620012bb565b73ffffffffffffffffffffffffffffffffffffffff167f000000000000000000000000000000000000000000000000000000000000000073ffffffffffffffffffffffffffffffffffffffff161462000af4576040517f08c379a0000000000000000000000000000000000000000000000000000000008152600401620009e29062001616565b6040518a9073ffffffffffffffffffffffffffffffffffffffff8416907fde3939ceca101461fd7e389705020a1f8b1518edb75d05284b21aa270354c3dc90600090a350965050505050505062000b4a62000e5e565b98975050505050505050565b80517f602038038060206000396000f3fefefefefefefefefefefefefefefefefefefe808352600091602081018484f0908452915062000bb173ffffffffffffffffffffffffffffffffffffffff831615156101ac62000e65565b50919050565b8051604080517f00000000000000000000000000000000000000000000000000000000000000007f0000000000000000000000000000000000000000000000000000000000000000818101858101848101602090810190965280855293957f00000000000000000000000000000000000000000000000000000000000000009592947f000000000000000000000000000000000000000000000000000000000000000094938801866000828a3c846000888301883c506020898101908985010162000c8481838662000e7a565b505050505050505050919050565b600062000cc36000357fffffffff000000000000000000000000000000000000000000000000000000001662000560565b905062000cde62000cd5823362000ed8565b61019162000e65565b50565b62000cf862000cef62000533565b1560d362000e65565b565b62000d0e6002600354141561019062000e65565b6002600355565b600062000d2483833062000f76565b9392505050565b60008062000d398362000fb7565b600580547fffffffffffffffffffffffff00000000000000000000000000000000000000001673ffffffffffffffffffffffffffffffffffffffff83161790559392505050565b6000808447101562000dc0576040517f08c379a0000000000000000000000000000000000000000000000000000000008152600401620009e290620015df565b825162000dfb576040517f08c379a0000000000000000000000000000000000000000000000000000000008152600401620009e290620016e1565b8383516020850187f5905073ffffffffffffffffffffffffffffffffffffffff811662000e56576040517f08c379a0000000000000000000000000000000000000000000000000000000008152600401620009e29062001673565b949350505050565b6001600355565b8162000e765762000e768162001052565b5050565b5b6020811062000e9c578151835260209283019290910190601f190162000e7b565b905182516020929092036101000a7fffffffffffffffffffffffffffffffffffffffffffffffffffffffffffffffff0180199091169116179052565b600062000ee4620005d8565b73ffffffffffffffffffffffffffffffffffffffff16639be2a8848484306040518463ffffffff1660e01b815260040162000f22939291906200156e565b60206040518083038186803b15801562000f3b57600080fd5b505afa15801562000f50573d6000803e3d6000fd5b505050506040513d601f19601f8201168201806040525081019062000d249190620012da565b60008060ff60f81b83868660405160200162000f9694939291906200144b565b60408051808303601f19018152919052805160209091012095945050505050565b600062000fc362000ce1565b600062000fd0836200107e565b73ffffffffffffffffffffffffffffffffffffffff8116600081815260016020819052604080832080547fffffffffffffffffffffffffffffffffffffffffffffffffffffffffffffff00169092179091555192935090917f83a48fbcfc991335314e74d0496aab6a1987e992ddc85dddbcc4d6dd6ef2e9fc9190a292915050565b62000cde817f42414c0000000000000000000000000000000000000000000000000000000000620010c2565b600060606200108d8362000bb7565b905060008151602083016000f0905073ffffffffffffffffffffffffffffffffffffffff811662000d24573d6000803e3d6000fd5b7f08c379a000000000000000000000000000000000000000000000000000000000600090815260206004526007602452600a808404818106603090810160081b958390069590950190829004918206850160101b01602363ffffff0060e086901c160160181b0190930160c81b60445260e882901c90606490fd5b611f18806200188583390190565b604051806101800160405280600073ffffffffffffffffffffffffffffffffffffffff1681526020016060815260200160608152602001600073ffffffffffffffffffffffffffffffffffffffff168152602001600073ffffffffffffffffffffffffffffffffffffffff168152602001600073ffffffffffffffffffffffffffffffffffffffff16815260200160008152602001600081526020016000815260200160008152602001600073ffffffffffffffffffffffffffffffffffffffff168152602001606081525090565b600082601f8301126200122b578081fd5b813567ffffffffffffffff8082111562001243578283fd5b6040516020601f19601f850116820101818110838211171562001264578485fd5b6040528281529250828483016020018610156200128057600080fd5b8260208601602083013760006020848301015250505092915050565b600060208284031215620012ae578081fd5b813562000d248162001861565b600060208284031215620012cd578081fd5b815162000d248162001861565b600060208284031215620012ec578081fd5b8151801515811462000d24578182fd5b6000602082840312156200130e578081fd5b81357fffffffff000000000000000000000000000000000000000000000000000000008116811462000d24578182fd5b600080600080600080600080610100898b0312156200135b578384fd5b883567ffffffffffffffff8082111562001373578586fd5b620013818c838d016200121a565b995060208b013591508082111562001397578586fd5b50620013a68b828c016200121a565b9750506040890135620013b98162001861565b95506060890135620013cb8162001861565b94506080890135935060a0890135925060c0890135620013eb8162001861565b8092505060e089013590509295985092959890939650565b73ffffffffffffffffffffffffffffffffffffffff169052565b60008151808452620014378160208601602086016200182e565b601f01601f19169290920160200192915050565b7fff0000000000000000000000000000000000000000000000000000000000000094909416845260609290921b7fffffffffffffffffffffffffffffffffffffffff0000000000000000000000001660018401526015830152603582015260550190565b9182527fffffffff0000000000000000000000000000000000000000000000000000000016602082015260240190565b60008351620014f38184602088016200182e565b835190830190620015098183602088016200182e565b01949350505050565b73ffffffffffffffffffffffffffffffffffffffff91909116815260200190565b73ffffffffffffffffffffffffffffffffffffffff92831681529116602082015260400190565b901515815260200190565b90815260200190565b92835273ffffffffffffffffffffffffffffffffffffffff918216602084015216604082015260600190565b60006020825262000d2460208301846200141d565b73ffffffffffffffffffffffffffffffffffffffff93841681529183166020830152909116604082015260600190565b6020808252601c908201527f435245415445325f494e53554646494349454e545f42414c414e434500000000604082015260600190565b60208082526025908201527f526562616c616e636572206e6f74206177617265206f662065756c657250726f60408201527f746f636f6c000000000000000000000000000000000000000000000000000000606082015260800190565b60208082526015908201527f435245415445325f4445504c4f595f4641494c45440000000000000000000000604082015260600190565b6020808252601c908201527f526562616c616e636572206465706c6f796d656e74206661696c656400000000604082015260600190565b60208082526015908201527f435245415445325f42595445434f44455f5a45524f0000000000000000000000604082015260600190565b6000602082526200172e60208301845162001403565b60208301516101808060408501526200174c6101a08501836200141d565b91506040850151601f19808685030160608701526200176c84836200141d565b93506060870151915062001784608087018362001403565b608087015191506200179a60a087018362001403565b60a08701519150620017b060c087018362001403565b60c087015160e0878101919091528701516101008088019190915287015161012080880191909152870151610140808801919091528701519150610160620017fb8188018462001403565b8701518685039091018387015290506200181683826200141d565b9695505050505050565b918252602082015260400190565b60005b838110156200184b57818101518382015260200162001831565b838111156200185b576000848401525b50505050565b73ffffffffffffffffffffffffffffffffffffffff8116811462000cde57600080fdfe6101806040523480156200001257600080fd5b5060405162001f1838038062001f18833981016040819052620000359162000470565b336001600160a01b0316635ed312826040518163ffffffff1660e01b815260040160206040518083038186803b1580156200006f57600080fd5b505afa15801562000084573d6000803e3d6000fd5b505050506040513d601f19601f82011682018060405250810190620000aa919062000386565b8383826001600160a01b0316631dd746ea6040518163ffffffff1660e01b815260040160006040518083038186803b158015620000e657600080fd5b505afa158015620000fb573d6000803e3d6000fd5b505050506040513d6000823e601f3d908101601f19168201604052620001259190810190620003ac565b836001600160a01b0316634d64cd746040518163ffffffff1660e01b815260040160206040518083038186803b1580156200015f57600080fd5b505afa15801562000174573d6000803e3d6000fd5b505050506040513d601f19601f820116820180604052508101906200019a919062000457565b81518110620001a557fe5b602090810291909101810151610100526001600160601b0319606085901b166080526040805163038fff2d60e41b815290516001600160a01b038616926338fff2d09260048082019391829003018186803b1580156200020457600080fd5b505afa15801562000219573d6000803e3d6000fd5b505050506040513d601f19601f820116820180604052508101906200023f919062000457565b60a08181525050826001600160a01b0316634de046d56040518163ffffffff1660e01b815260040160206040518083038186803b1580156200028057600080fd5b505afa15801562000295573d6000803e3d6000fd5b505050506040513d601f19601f82011682018060405250810190620002bb919062000386565b6001600160a01b031660c0816001600160a01b031660601b81525050826001600160a01b031663f174e2416040518163ffffffff1660e01b815260040160206040518083038186803b1580156200031157600080fd5b505afa15801562000326573d6000803e3d6000fd5b505050506040513d601f19601f820116820180604052508101906200034c919062000386565b6001600160601b0319606091821b811660e05292811b83166101205290811b8216610140529290921b909116610160525062000503915050565b60006020828403121562000398578081fd5b8151620003a581620004ea565b9392505050565b60006020808385031215620003bf578182fd5b82516001600160401b0380821115620003d6578384fd5b818501915085601f830112620003ea578384fd5b815181811115620003f9578485fd5b83810291506200040b848301620004c3565b8181528481019084860184860187018a101562000426578788fd5b8795505b838610156200044a5780518352600195909501949186019186016200042a565b5098975050505050505050565b60006020828403121562000469578081fd5b5051919050565b60008060006060848603121562000485578182fd5b83516200049281620004ea565b6020850151909350620004a581620004ea565b6040850151909250620004b881620004ea565b809150509250925092565b6040518181016001600160401b0381118282101715620004e257600080fd5b604052919050565b6001600160a01b03811681146200050057600080fd5b50565b60805160601c60a05160c05160601c60e05160601c610100516101205160601c6101405160601c6101605160601c611920620005f86000398060e352806111d5525080610540528061085852508061016a5280610c4b528061101052806110725250806103f65250806104a352806105d0528061077f52806109235280610cf95280610dbe528061110b528061123752508061012152806101c7528061046752806106035280610668528061070952806107bb52806108e852806111b35250806101a6528061043952806107515280610ab45280610b935280610e985280610f7752508060ac528061034052506119206000f3fe608060405234801561001057600080fd5b506004361061004c5760003560e01c8063026b1d5f1461005157806321c281911461006f5780635208fc2b1461008f578063df633d8d14610097575b600080fd5b6100596100aa565b6040516100669190611648565b60405180910390f35b61008261007d366004611506565b6100ce565b6040516100669190611889565b6100596100e1565b6100826100a5366004611522565b610105565b7f000000000000000000000000000000000000000000000000000000000000000090565b60006100d982610159565b90505b919050565b7f000000000000000000000000000000000000000000000000000000000000000081565b600061014973ffffffffffffffffffffffffffffffffffffffff7f000000000000000000000000000000000000000000000000000000000000000016333085610290565b61015283610159565b9392505050565b600080610164610339565b905060007f000000000000000000000000000000000000000000000000000000000000000073ffffffffffffffffffffffffffffffffffffffff1663b05f8e487f00000000000000000000000000000000000000000000000000000000000000007f00000000000000000000000000000000000000000000000000000000000000006040518363ffffffff1660e01b8152600401610203929190611794565b60806040518083038186803b15801561021b57600080fd5b505afa15801561022f573d6000803e3d6000fd5b505050506040513d601f19601f8201168201806040525081019061025391906115a8565b5050509050818110156102755761026c81830385610422565b925050506100dc565b818111156102895761026c8282038561073a565b5050919050565b610333846323b872dd60e01b8585856040516024016102b193929190611690565b604080517fffffffffffffffffffffffffffffffffffffffffffffffffffffffffffffffe08184030181529190526020810180517bffffffffffffffffffffffffffffffffffffffffffffffffffffffff167fffffffff0000000000000000000000000000000000000000000000000000000090931692909217909152610948565b50505050565b60008060007f000000000000000000000000000000000000000000000000000000000000000073ffffffffffffffffffffffffffffffffffffffff166363fe3b566040518163ffffffff1660e01b8152600401604080518083038186803b1580156103a357600080fd5b505afa1580156103b7573d6000803e3d6000fd5b505050506040513d601f19601f820116820180604052508101906103db9190611585565b9150915060006002828401816103ed57fe5b04905061041a817f00000000000000000000000000000000000000000000000000000000000000006109f5565b935050505090565b600061042c611453565b6040805160c081019091527f0000000000000000000000000000000000000000000000000000000000000000815260208101600081526020017f000000000000000000000000000000000000000000000000000000000000000073ffffffffffffffffffffffffffffffffffffffff1681526020017f000000000000000000000000000000000000000000000000000000000000000073ffffffffffffffffffffffffffffffffffffffff1681526020018581526020016040518060200160405280600081525081525090506105006114b6565b6040517fe969f6b300000000000000000000000000000000000000000000000000000000815260009073ffffffffffffffffffffffffffffffffffffffff7f0000000000000000000000000000000000000000000000000000000000000000169063e969f6b39061057790869086906004016117c6565b602060405180830381600087803b15801561059157600080fd5b505af11580156105a5573d6000803e3d6000fd5b505050506040513d601f19601f820116820180604052508101906105c9919061156d565b90506105f57f000000000000000000000000000000000000000000000000000000000000000082610a48565b6105fe81610cb9565b6106287f000000000000000000000000000000000000000000000000000000000000000087610e2c565b6040517f70a0823100000000000000000000000000000000000000000000000000000000815260009073ffffffffffffffffffffffffffffffffffffffff7f000000000000000000000000000000000000000000000000000000000000000016906370a082319061069d903090600401611648565b60206040518083038186803b1580156106b557600080fd5b505afa1580156106c9573d6000803e3d6000fd5b505050506040513d601f19601f820116820180604052508101906106ed919061156d565b905061073073ffffffffffffffffffffffffffffffffffffffff7f00000000000000000000000000000000000000000000000000000000000000001687836110a7565b9695505050505050565b6000610744611453565b6040805160c081019091527f0000000000000000000000000000000000000000000000000000000000000000815260208101600181526020017f000000000000000000000000000000000000000000000000000000000000000073ffffffffffffffffffffffffffffffffffffffff1681526020017f000000000000000000000000000000000000000000000000000000000000000073ffffffffffffffffffffffffffffffffffffffff1681526020018581526020016040518060200160405280600081525081525090506108186114b6565b6040517fe969f6b300000000000000000000000000000000000000000000000000000000815260009073ffffffffffffffffffffffffffffffffffffffff7f0000000000000000000000000000000000000000000000000000000000000000169063e969f6b39061088f90869086906004016117c6565b602060405180830381600087803b1580156108a957600080fd5b505af11580156108bd573d6000803e3d6000fd5b505050506040513d601f19601f820116820180604052508101906108e1919061156d565b905061090d7f000000000000000000000000000000000000000000000000000000000000000087610a48565b61091e610919826110cb565b611199565b6106287f000000000000000000000000000000000000000000000000000000000000000082610e2c565b600060608373ffffffffffffffffffffffffffffffffffffffff1683604051610971919061162c565b6000604051808303816000865af19150503d80600081146109ae576040519150601f19603f3d011682016040523d82523d6000602084013e6109b3565b606091505b509150915060008214156109cb573d6000803e3d6000fd5b6103338151600014806109ed5750818060200190518101906109ed919061154d565b6101a26112a4565b6000610a0482151560046112a4565b670de0b6b3a76400008302610a36841580610a2f5750670de0b6b3a7640000858381610a2c57fe5b04145b60056112a4565b828181610a3f57fe5b04949350505050565b6040805160028082526060828101909352816020015b610a666114dd565b815260200190600190039081610a5e579050509050600081600081518110610a8a57fe5b6020026020010151600001906002811115610aa157fe5b90816002811115610aae57fe5b815250507f000000000000000000000000000000000000000000000000000000000000000081600081518110610ae057fe5b602002602001015160200181815250508181600081518110610afe57fe5b602002602001015160600181815250508281600081518110610b1c57fe5b60200260200101516040019073ffffffffffffffffffffffffffffffffffffffff16908173ffffffffffffffffffffffffffffffffffffffff1681525050600281600181518110610b6957fe5b6020026020010151600001906002811115610b8057fe5b90816002811115610b8d57fe5b815250507f000000000000000000000000000000000000000000000000000000000000000081600181518110610bbf57fe5b60200260200101516020018181525050600081600181518110610bde57fe5b602002602001015160600181815250508281600181518110610bfc57fe5b602090810291909101015173ffffffffffffffffffffffffffffffffffffffff918216604091820152517fe6c460920000000000000000000000000000000000000000000000000000000081527f00000000000000000000000000000000000000000000000000000000000000009091169063e6c4609290610c82908490600401611710565b600060405180830381600087803b158015610c9c57600080fd5b505af1158015610cb0573d6000803e3d6000fd5b50505050505050565b6040517f010ad6d100000000000000000000000000000000000000000000000000000000815260009073ffffffffffffffffffffffffffffffffffffffff7f0000000000000000000000000000000000000000000000000000000000000000169063010ad6d190610d2e908590600401611889565b60206040518083038186803b158015610d4657600080fd5b505afa158015610d5a573d6000803e3d6000fd5b505050506040513d601f19601f82011682018060405250810190610d7e919061156d565b6040517f441a3e7000000000000000000000000000000000000000000000000000000000815290915073ffffffffffffffffffffffffffffffffffffffff7f0000000000000000000000000000000000000000000000000000000000000000169063441a3e7090610df69060009085906004016117b8565b600060405180830381600087803b158015610e1057600080fd5b505af1158015610e24573d6000803e3d6000fd5b505050505050565b6040805160028082526060828101909352816020015b610e4a6114dd565b815260200190600190039081610e42579050509050600281600081518110610e6e57fe5b6020026020010151600001906002811115610e8557fe5b90816002811115610e9257fe5b815250507f000000000000000000000000000000000000000000000000000000000000000081600081518110610ec457fe5b602002602001015160200181815250508181600081518110610ee257fe5b602002602001015160600181815250508281600081518110610f0057fe5b60200260200101516040019073ffffffffffffffffffffffffffffffffffffffff16908173ffffffffffffffffffffffffffffffffffffffff1681525050600181600181518110610f4d57fe5b6020026020010151600001906002811115610f6457fe5b90816002811115610f7157fe5b815250507f000000000000000000000000000000000000000000000000000000000000000081600181518110610fa357fe5b602002602001015160200181815250508181600181518110610fc157fe5b602002602001015160600181815250508281600181518110610fdf57fe5b602090810291909101015173ffffffffffffffffffffffffffffffffffffffff9182166040909101526110359084167f0000000000000000000000000000000000000000000000000000000000000000846112b6565b6040517fe6c4609200000000000000000000000000000000000000000000000000000000815273ffffffffffffffffffffffffffffffffffffffff7f0000000000000000000000000000000000000000000000000000000000000000169063e6c4609290610c82908490600401611710565b6110c68363a9059cbb60e01b84846040516024016102b19291906116ea565b505050565b6040517f010ad6d100000000000000000000000000000000000000000000000000000000815260009073ffffffffffffffffffffffffffffffffffffffff7f0000000000000000000000000000000000000000000000000000000000000000169063010ad6d190611140908590600401611889565b60206040518083038186803b15801561115857600080fd5b505afa15801561116c573d6000803e3d6000fd5b505050506040513d601f19601f82011682018060405250810190611190919061156d565b60010192915050565b6111fa73ffffffffffffffffffffffffffffffffffffffff7f0000000000000000000000000000000000000000000000000000000000000000167f0000000000000000000000000000000000000000000000000000000000000000836112b6565b6040517fe2bbb15800000000000000000000000000000000000000000000000000000000815273ffffffffffffffffffffffffffffffffffffffff7f0000000000000000000000000000000000000000000000000000000000000000169063e2bbb1589061126f9060009085906004016117b8565b600060405180830381600087803b15801561128957600080fd5b505af115801561129d573d6000803e3d6000fd5b5050505050565b816112b2576112b2816113ab565b5050565b801580159061136757506040517fdd62ed3e00000000000000000000000000000000000000000000000000000000815273ffffffffffffffffffffffffffffffffffffffff84169063dd62ed3e906113149030908690600401611669565b60206040518083038186803b15801561132c57600080fd5b505afa158015611340573d6000803e3d6000fd5b505050506040513d601f19601f82011682018060405250810190611364919061156d565b15155b1561138c5761138c8363095ea7b360e01b8460006040516024016102b19291906116c1565b6110c68363095ea7b360e01b84846040516024016102b19291906116ea565b6113d5817f42414c00000000000000000000000000000000000000000000000000000000006113d8565b50565b7f08c379a000000000000000000000000000000000000000000000000000000000600090815260206004526007602452600a808404818106603090810160081b958390069590950190829004918206850160101b01602363ffffff0060e086901c160160181b0190930160c81b60445260e882901c90606490fd5b6040805160c08101909152600080825260208201908152602001600073ffffffffffffffffffffffffffffffffffffffff168152602001600073ffffffffffffffffffffffffffffffffffffffff16815260200160008152602001606081525090565b60408051608081018252600080825260208201819052918101829052606081019190915290565b604080516080810190915280600081526000602082018190526040820181905260609091015290565b600060208284031215611517578081fd5b8135610152816118c8565b60008060408385031215611534578081fd5b823561153f816118c8565b946020939093013593505050565b60006020828403121561155e578081fd5b81518015158114610152578182fd5b60006020828403121561157e578081fd5b5051919050565b60008060408385031215611597578182fd5b505080516020909101519092909150565b600080600080608085870312156115bd578182fd5b84519350602085015192506040850151915060608501516115dd816118c8565b939692955090935050565b73ffffffffffffffffffffffffffffffffffffffff808251168352602082015115156020840152806040830151166040840152506060810151151560608301525050565b6000825161163e818460208701611892565b9190910192915050565b73ffffffffffffffffffffffffffffffffffffffff91909116815260200190565b73ffffffffffffffffffffffffffffffffffffffff92831681529116602082015260400190565b73ffffffffffffffffffffffffffffffffffffffff9384168152919092166020820152604081019190915260600190565b73ffffffffffffffffffffffffffffffffffffffff92909216825260ff16602082015260400190565b73ffffffffffffffffffffffffffffffffffffffff929092168252602082015260400190565b602080825282518282018190526000919060409081850190868401855b8281101561178757815180516003811061174357fe5b855280870151878601528581015173ffffffffffffffffffffffffffffffffffffffff1686860152606090810151908501526080909301929085019060010161172d565b5091979650505050505050565b91825273ffffffffffffffffffffffffffffffffffffffff16602082015260400190565b918252602082015260400190565b600060a08252835160a083015260208401516117e1816118be565b8060c084015250604084015173ffffffffffffffffffffffffffffffffffffffff80821660e0850152806060870151166101008501525050608084015161012083015260a084015160c061014084015280518061016085015261018061184d8282870160208601611892565b807fffffffffffffffffffffffffffffffffffffffffffffffffffffffffffffffe0601f840116860101935050505061015260208301846115e8565b90815260200190565b60005b838110156118ad578181015183820152602001611895565b838111156103335750506000910152565b600281106113d557fe5b73ffffffffffffffffffffffffffffffffffffffff811681146113d557600080fdfea26469706673582212201e159ab0035a167cadb43e6e3d42a37057cf3eaa63771a32ec057c13a75b2f8564736f6c63430007010033a264697066735822122018472618193b41b5aaed0a3de515ac4052e765e3c00aab4be2f06bcd872dcf1464736f6c634300070100336102c06040523480156200001257600080fd5b506040516200598b3803806200598b833981016040819052620000359162000df2565b6101608101518151602083015160408401516060850151608086015160c087015162000061886200047d565b60e08901516101008a01516101208b01516101408c01518a6200009e8160006200008c8c8c62000506565b89620005b760201b620014241760201c565b8b8b86868686838387878b86336001600160a01b031660001b8480604051806040016040528060018152602001603160f81b81525087878160039080519060200190620000ed92919062000c7b565b5080516200010390600490602084019062000c7b565b50506005805460ff19166012179055508151602092830120608052805191012060a052507f8b73c3c69bb8fe3d512ecc4cf759cc79239f7b179b0ffacaa9a75d522b39400f60c05260e0526001600160601b0319606091821b81166101005291901b166101205250620001829050630163f50083111561019462000785565b620001966276a70082111561019562000785565b4291909101610140819052016101605260601b6001600160601b031916610180526101a08690526040805163d2946c2b60e01b815290516001600160a01b0389169163d2946c2b916004808301926020929190829003018186803b158015620001fe57600080fd5b505afa15801562000213573d6000803e3d6000fd5b505050506040513d601f19601f8201168201806040525081019062000239919062000db3565b6001600160a01b03166101c0816001600160a01b031660601b8152505050505050505050876001600160a01b03166101e0816001600160a01b031660601b81525050866001600160a01b0316610200816001600160a01b031660601b81525050866001600160a01b0316886001600160a01b031610620002bb576002620002be565b60015b60ff16610220526001600160a01b0380881690891610620002e1576001620002e4565b60025b60ff1661024052620002f6886200079a565b6102605262000305876200079a565b6102805260006200031889828962000846565b620003238562000940565b50508a51620003469a506009995060208c019850965062000c7b95505050505050565b5050620003ec81608001516001600160a01b0316637158da7c6040518163ffffffff1660e01b815260040160206040518083038186803b1580156200038a57600080fd5b505afa1580156200039f573d6000803e3d6000fd5b505050506040513d601f19601f82011682018060405250810190620003c5919062000db3565b6001600160a01b031682606001516001600160a01b0316146102086200078560201b60201c565b600081606001516001600160a01b031663313ce5676040518163ffffffff1660e01b815260040160206040518083038186803b1580156200042c57600080fd5b505afa15801562000441573d6000803e3d6000fd5b505050506040513d601f19601f8201168201806040525081019062000467919062000f49565b60ff16602403600a0a6102a052506200106f9050565b6040805160028082526060808301845292839291906020830190803683370190505090508260a0015181600081518110620004b457fe5b60200260200101906001600160a01b031690816001600160a01b0316815250508260a0015181600181518110620004e757fe5b6001600160a01b03909216602092830291909101909101529050919050565b60408051600280825260608281019093526001600160a01b0384811690861610918391816020016020820280368337019050509050816200054857836200054a565b845b816000815181106200055857fe5b60200260200101906001600160a01b031690816001600160a01b0316815250508162000585578462000587565b835b816001815181106200059557fe5b6001600160a01b03909216602092830291909101909101529150505b92915050565b6000620005cf83620009cf60201b620015d91760201c565b606083516001016001600160401b0381118015620005ec57600080fd5b5060405190808252806020026020018201604052801562000617578160200160208202803683370190505b50905030816000815181106200062957fe5b60200260200101906001600160a01b031690816001600160a01b03168152505060005b84518110156200069c578481815181106200066357fe5b60200260200101518282600101815181106200067b57fe5b6001600160a01b03909216602092830291909101909101526001016200064c565b50606083516001016001600160401b0381118015620006ba57600080fd5b50604051908082528060200260200182016040528015620006e5578160200160208202803683370190505b509050600081600081518110620006f857fe5b60200260200101906001600160a01b031690816001600160a01b03168152505060005b84518110156200076b578481815181106200073257fe5b60200260200101518282600101815181106200074a57fe5b6001600160a01b03909216602092830291909101909101526001016200071b565b506200077a87878484620009db565b979650505050505050565b816200079657620007968162000ad5565b5050565b600080826001600160a01b031663313ce5676040518163ffffffff1660e01b815260040160206040518083038186803b158015620007d757600080fd5b505afa158015620007ec573d6000803e3d6000fd5b505050506040513d601f19601f8201168201806040525081019062000812919062000f49565b60ff16905060006200083160128362000aea60201b620015e71760201c565b600a0a670de0b6b3a764000002949350505050565b620008578183111561014c62000785565b620008746b0de0b6b39983494c589c000082111561014d62000785565b6200088e670de0b6b3a7640000825b061561016162000785565b620008a2670de0b6b3a76400008362000883565b620008f1670de0b6b3a7640000820460406020620008db670de0b6b3a764000087600854919004602080620015fd62000b02821b17811c565b62000b0260201b620015fd17909392919060201c565b6008556040516001600160a01b038416907fd0e27a0d0c2cb09280fa5e4487315455b32afcdcf012dc35b6ef2a0e3c4d12809062000933908590859062001018565b60405180910390a2505050565b6200095564e8d4a5100082101560cb62000785565b6200096d67016345785d8a000082111560ca62000785565b6200098f8160c0603f60085462000b0260201b620015fd17909392919060201c565b6008556040517fa9ba3ffe0b6c366b81232caab38605a0699ad5398d6cce76f91ee809e322dafc90620009c49083906200100f565b60405180910390a150565b80620007968162000b27565b600080856001600160a01b03166309b2760f866040518263ffffffff1660e01b815260040162000a0c919062000ffa565b602060405180830381600087803b15801562000a2757600080fd5b505af115801562000a3c573d6000803e3d6000fd5b505050506040513d601f19601f8201168201806040525081019062000a62919062000dd9565b604051633354e3e960e11b81529091506001600160a01b038716906366a9c7d29062000a979084908890889060040162000f6c565b600060405180830381600087803b15801562000ab257600080fd5b505af115801562000ac7573d6000803e3d6000fd5b509298975050505050505050565b62000ae7816210905360ea1b62000bb3565b50565b600062000afc83831115600162000785565b50900390565b600062000b1184848462000c14565b506001901b60001901811b1992909216911b1790565b60028151101562000b385762000ae7565b60008160008151811062000b4857fe5b602002602001015190506000600190505b825181101562000bae57600083828151811062000b7257fe5b6020026020010151905062000ba3816001600160a01b0316846001600160a01b03161060656200078560201b60201c565b915060010162000b59565b505050565b62461bcd60e51b600090815260206004526007602452600a808404818106603090810160081b958390069590950190829004918206850160101b01602363ffffff0060e086901c160160181b0190930160c81b60445260e882901c90606490fd5b62000c256101008310606462000785565b62000c5e6001821015801562000c56575062000c5260ff846101000362000c6f60201b620016201760201c565b8211155b606462000785565b62000bae83821c156101b462000785565b80820390821102900390565b828054600181600116156101000203166002900490600052602060002090601f016020900481019282601f1062000cbe57805160ff191683800117855562000cee565b8280016001018555821562000cee579182015b8281111562000cee57825182559160200191906001019062000cd1565b5062000cfc92915062000d00565b5090565b5b8082111562000cfc576000815560010162000d01565b8051620005b18162001059565b600082601f83011262000d35578081fd5b81516001600160401b0381111562000d4b578182fd5b602062000d61601f8301601f1916820162001026565b9250818352848183860101111562000d7857600080fd5b60005b8281101562000d9857848101820151848201830152810162000d7b565b8281111562000daa5760008284860101525b50505092915050565b60006020828403121562000dc5578081fd5b815162000dd28162001059565b9392505050565b60006020828403121562000deb578081fd5b5051919050565b60006020828403121562000e04578081fd5b81516001600160401b038082111562000e1b578283fd5b818401915061018080838703121562000e32578384fd5b62000e3d8162001026565b905062000e4b868462000d17565b815260208301518281111562000e5f578485fd5b62000e6d8782860162000d24565b60208301525060408301518281111562000e85578485fd5b62000e938782860162000d24565b60408301525062000ea8866060850162000d17565b606082015262000ebc866080850162000d17565b608082015262000ed08660a0850162000d17565b60a082015260c083015160c082015260e083015160e082015261010080840151818301525061012080840151818301525061014062000f128782860162000d17565b90820152610160838101518381111562000f2a578586fd5b62000f388882870162000d24565b918301919091525095945050505050565b60006020828403121562000f5b578081fd5b815160ff8116811462000dd2578182fd5b60006060820185835260206060818501528186518084526080860191508288019350845b8181101562000fb85762000fa585516200104d565b8352938301939183019160010162000f90565b505084810360408601528551808252908201925081860190845b8181101562000ac75762000fe783516200104d565b8552938301939183019160010162000fd2565b60208101600383106200100957fe5b91905290565b90815260200190565b918252602082015260400190565b6040518181016001600160401b03811182821017156200104557600080fd5b604052919050565b6001600160a01b031690565b6001600160a01b038116811462000ae757600080fd5b60805160a05160c05160e0516101005160601c6101205160601c61014051610160516101805160601c6101a0516101c05160601c6101e05160601c6102005160601c610220516102405161026051610280516102a05161478562001206600039806118595250806107f45250806107905280612a8c525080610718528061081c5280610c515280612f07528061309052806131c852806132d3528061345052806135885250806107b252806109bc5280610c175280612ed35280613015528061305c52806131525280613194528061329f52806133da528061341c528061351252806135545250806113f852806126f652806127c25280612ab25280612e885280612fa1528061325552806133665250806109e052806110ee5280611abc5280611b5b52806126ad52806127795280612a515280612e495280612f4b52806130de52806132165280613317528061349e5250806111cc5250806109495250508061181d5250806117f9525080610fd1525080610fad525080610f5d5250806123ea52508061242c52508061240b52506147856000f3fe608060405234801561001057600080fd5b506004361061032b5760003560e01c80637ecebe00116101b2578063a457c2d7116100f9578063d505accf116100a2578063de82cd341161007c578063de82cd34146105e8578063ed24911d146105f0578063f174e241146105f8578063f5431aa8146106005761032b565b8063d505accf146105af578063d5c096c4146105c2578063dd62ed3e146105d55761032b565b8063b35056b8116100d3578063b35056b814610597578063b7b814fc1461059f578063d2946c2b146105a75761032b565b8063a457c2d714610569578063a9059cbb1461057c578063aaabadc51461058f5761032b565b8063893d20e81161015b57806395d89b411161013557806395d89b411461053b5780639d2c110c146105435780639f11080e146105565761032b565b8063893d20e8146105185780638d928af81461052057806390193b7c146105285761032b565b80638456cb591161018c5780638456cb59146104fd578063851c1bb31461050557806387ec6817146104675761032b565b80637ecebe00146104da5780638129fc1c146104ed57806382687a56146104f55761032b565b8063395093511161027657806355c676281161021f578063679aefce116101f9578063679aefce1461049e57806370a08231146104a657806374f3b009146104b95761032b565b806355c676281461045f5780636028bfd41461046757806363fe3b56146104885761032b565b80634de046d5116102505780634de046d51461043a57806354a844ba1461044f57806354fd4d50146104575761032b565b806339509351146104175780633f4ba83a1461042a5780634d64cd74146104325761032b565b80631dd746ea116102d85780633644e515116102b25780633644e515146103f257806338e9922e146103fa57806338fff2d01461040f5761032b565b80631dd746ea146103b557806323b872dd146103ca578063313ce567146103dd5761032b565b806316b8d6ff1161030957806316b8d6ff1461038e57806318160ddd146103965780631c0de0511461039e5761032b565b806301ec954a1461033057806306fdde0314610359578063095ea7b31461036e575b600080fd5b61034361033e3660046140b9565b610608565b604051610350919061444c565b60405180910390f35b610361610668565b6040516103509190614690565b61038161037c366004613e8b565b6106ff565b6040516103509190614429565b610343610716565b61034361073a565b6103a6610740565b60405161035093929190614434565b6103bd610769565b60405161035091906143f1565b6103816103d8366004613ddb565b610877565b6103e56108ed565b60405161035091906146ca565b6103436108f6565b61040d610408366004614176565b610905565b005b610343610947565b610381610425366004613e8b565b61096b565b61040d6109a6565b6103436109ba565b6104426109de565b6040516103509190614346565b61040d610a02565b610361610a56565b610343610ab7565b61047a610475366004613fba565b610aca565b6040516103509291906146a3565b610490610ae8565b6040516103509291906146bc565b610343610b26565b6103436104b4366004613d87565b610cbb565b6104cc6104c7366004613fba565b610cda565b604051610350929190614404565b6103436104e8366004613d87565b610d9c565b61040d610da7565b610343610f42565b61040d610f47565b61034361051336600461405d565b610f59565b610442610fab565b610442610fcf565b610343610536366004613d87565b610ff3565b61036161100e565b61034361055136600461412a565b61106f565b61040d61056436600461418e565b6110a8565b610381610577366004613e8b565b61111a565b61038161058a366004613e8b565b611158565b610442611165565b61038161116f565b61040d611180565b6104426111ca565b61040d6105bd366004613e1b565b6111ee565b6104cc6105d0366004613fba565b61126f565b6103436105e3366004613da3565b611306565b610343611343565b6103436113ec565b6104426113f6565b61034361141a565b6000846080015161063561061a610fcf565b6001600160a01b0316336001600160a01b03161460cd61162c565b61064a610640610947565b82146101f461162c565b61065261163a565b61065e8686868661164d565b9695505050505050565b60038054604080516020601f60026000196101006001881615020190951694909404938401819004810282018101909252828152606093909290918301828280156106f45780601f106106c9576101008083540402835291602001916106f4565b820191906000526020600020905b8154815290600101906020018083116106d757829003601f168201915b505050505090505b90565b600061070c338484611772565b5060015b92915050565b7f000000000000000000000000000000000000000000000000000000000000000090565b60025490565b600080600061074d6117da565b1592506107586117f7565b915061076261181b565b9050909192565b604080516003808252608082019092526060918291906020820183803683370190505090507f0000000000000000000000000000000000000000000000000000000000000000817f0000000000000000000000000000000000000000000000000000000000000000815181106107db57fe5b6020026020010181815250506108196107f261183f565b7f000000000000000000000000000000000000000000000000000000000000000090611926565b817f00000000000000000000000000000000000000000000000000000000000000008151811061084557fe5b602002602001018181525050670de0b6b3a76400008160008151811061086757fe5b6020908102919091010152905090565b6000806108848533611306565b90506108a8336001600160a01b03871614806108a05750838210155b61019e61162c565b6108b385858561195e565b336001600160a01b038616148015906108ce57506000198114155b156108e0576108e08533858403611772565b60019150505b9392505050565b60055460ff1690565b60006109006113ec565b905090565b61090d611a3e565b610915611a87565b600080610920610ae8565b915091506109396109318383611a97565b61014f61162c565b61094283611b9e565b505050565b7f000000000000000000000000000000000000000000000000000000000000000090565b3360008181526001602090815260408083206001600160a01b0387168452909152812054909161070c9185906109a19086611c16565b611772565b6109ae611a3e565b6109b86000611c28565b565b7f000000000000000000000000000000000000000000000000000000000000000090565b7f000000000000000000000000000000000000000000000000000000000000000090565b610a0a611a3e565b610a12611cb9565b610a1c6001611ccd565b7feff3d4d215b42bf0960be9c6d5e05c22cba4df6627a3a523e2acee733b5854c86001604051610a4c9190614429565b60405180910390a1565b60098054604080516020601f60026000196101006001881615020190951694909404938401819004810282018101909252828152606093909290918301828280156106f45780601f106106c9576101008083540402835291602001916106f4565b6008546000906109009060c0603f611d0f565b60006060610adc888785611d1e611d35565b97509795505050505050565b6008546000908190670de0b6b3a7640000610b0582602080611d0f565b029250670de0b6b3a7640000610b1e8260406020611d0f565b029150509091565b600080610b31610947565b90506060610b3d610fcf565b6001600160a01b031663f94d4668836040518263ffffffff1660e01b8152600401610b68919061444c565b60006040518083038186803b158015610b8057600080fd5b505afa158015610b94573d6000803e3d6000fd5b505050506040513d6000823e601f3d908101601f19168201604052610bbc9190810190613eb6565b50915050610bd181610bcc610769565b611e9c565b600080610bdc610ae8565b91509150610be8613af8565b6040518060600160405280610bfb610ab7565b81526020018481526020018381525090506000610c87610c4e867f000000000000000000000000000000000000000000000000000000000000000081518110610c4057fe5b602002602001015184611f05565b867f000000000000000000000000000000000000000000000000000000000000000081518110610c7a57fe5b6020026020010151611f66565b9050610cb0610ca986600081518110610c9c57fe5b6020026020010151611f72565b8290611f86565b965050505050505090565b6001600160a01b0381166000908152602081905260409020545b919050565b60608088610ce961061a610fcf565b610cf4610640610947565b6000610cff85611fdd565b15610d2757610d0c61200c565b610d1e88610d1861073a565b8761201f565b94509050610d3f565b610d2f61163a565b610d3a8a8987611d1e565b945090505b610d498a82612115565b835167ffffffffffffffff81118015610d6157600080fd5b50604051908082528060200260200182016040528015610d8b578160200160208202803683370190505b509250505097509795505050505050565b600061071082610ff3565b6000610db1610947565b90506060610dbd610fcf565b6001600160a01b031663f94d4668836040518263ffffffff1660e01b8152600401610de8919061444c565b60006040518083038186803b158015610e0057600080fd5b505afa158015610e14573d6000803e3d6000fd5b505050506040513d6000823e601f3d908101601f19168201604052610e3c9190810190613eb6565b505060408051600380825260808201909252919250606091906020820183803683370190505090506dffffffffffffffffffffffffffff81600081518110610e8057fe5b602002602001018181525050610e94613b19565b6040518060800160405280610ea8856106fc565b8152602001838152602001604051806020016040528060008152508152602001600015158152509050610ed9610fcf565b6001600160a01b031663b95cac28853030856040518563ffffffff1660e01b8152600401610f0a9493929190614474565b600060405180830381600087803b158015610f2457600080fd5b505af1158015610f38573d6000803e3d6000fd5b5050505050505050565b600090565b610f4f611a3e565b6109b86001611c28565b60007f000000000000000000000000000000000000000000000000000000000000000082604051602001610f8e9291906142d0565b604051602081830303815290604052805190602001209050919050565b7f000000000000000000000000000000000000000000000000000000000000000090565b7f000000000000000000000000000000000000000000000000000000000000000090565b6001600160a01b031660009081526006602052604090205490565b60048054604080516020601f60026000196101006001881615020190951694909404938401819004810282018101909252828152606093909290918301828280156106f45780601f106106c9576101008083540402835291602001916106f4565b6000836080015161108161061a610fcf565b61108c610640610947565b61109461163a565b61109f85858561211f565b95945050505050565b6110b0611a3e565b6110b8611a87565b6000806110c3610ae8565b915091506110d46109318383611a97565b6110e96110e18585611a97565b61015761162c565b6111147f0000000000000000000000000000000000000000000000000000000000000000858561212c565b50505050565b6000806111273385611306565b90508083106111415761113c33856000611772565b61114e565b61114e3385858403611772565b5060019392505050565b600061070c33848461195e565b6000610900612202565b6008546000906109009060ff61227c565b611188611a3e565b61119061200c565b61119a6000611ccd565b7feff3d4d215b42bf0960be9c6d5e05c22cba4df6627a3a523e2acee733b5854c86000604051610a4c9190614429565b7f000000000000000000000000000000000000000000000000000000000000000090565b60007f6e71edae12b1b97f4d1f60370fef10105fa2faae0126114a169c64845d6126c988888861121d8c610ff3565b8960405160200161123396959493929190614561565b604051602081830303815290604052805190602001209050611264888261125b878787612283565b886101f86122c2565b610f38888888611772565b6060808861127e61061a610fcf565b611289610640610947565b600061129361163a565b61129b61073a565b6112ed576112aa8a8a87612319565b945090506112c36112b9610f42565b82101560cc61162c565b6112d560006112d0610f42565b6123b1565b6112e8896112e1610f42565b83036123b1565b610d49565b6112f88a8987611d1e565b94509050610d4989826123b1565b6000611310610fcf565b6001600160a01b0316826001600160a01b031614156113325750600019610710565b61133c83836123bb565b9050610710565b6000806000611350610fcf565b6001600160a01b031663b05f8e48611366610947565b306040518363ffffffff1660e01b8152600401611384929190614647565b60806040518083038186803b15801561139c57600080fd5b505afa1580156113b0573d6000803e3d6000fd5b505050506040513d601f19601f820116820180604052508101906113d491906141af565b5050915091506113e5818301611f72565b9250505090565b60006109006123e6565b7f000000000000000000000000000000000000000000000000000000000000000090565b600061090061183f565b600061142f836115d9565b6060835160010167ffffffffffffffff8111801561144c57600080fd5b50604051908082528060200260200182016040528015611476578160200160208202803683370190505b509050308160008151811061148757fe5b60200260200101906001600160a01b031690816001600160a01b03168152505060005b84518110156114f6578481815181106114bf57fe5b60200260200101518282600101815181106114d657fe5b6001600160a01b03909216602092830291909101909101526001016114aa565b506060835160010167ffffffffffffffff8111801561151457600080fd5b5060405190808252806020026020018201604052801561153e578160200160208202803683370190505b50905060008160008151811061155057fe5b60200260200101906001600160a01b031690816001600160a01b03168152505060005b84518110156115bf5784818151811061158857fe5b602002602001015182826001018151811061159f57fe5b6001600160a01b0390921660209283029190910190910152600101611573565b506115cc87878484612483565b925050505b949350505050565b806115e38161258c565b5050565b60006115f783831115600161162c565b50900390565b600061160a848484612605565b506001901b60001901811b1992909216911b1790565b80820390821102900390565b816115e3576115e38161264b565b6109b86116456117da565b61019261162c565b60006116696003841080156116625750600383105b606461162c565b6060611673610769565b905061167f8582611e9c565b60008061168a610ae8565b91509150611696613af8565b60405180606001604052806116a9610ab7565b81526020810185905260400183905290506000895160018111156116c957fe5b141561172d576116f089606001518589815181106116e357fe5b6020026020010151612675565b60608a015260006117028a8a84612681565b90506117218186898151811061171457fe5b6020026020010151612748565b955050505050506115d1565b61174189606001518588815181106116e357fe5b60608a015260006117538a8a84612754565b905061172181868a8151811061176557fe5b6020026020010151612809565b6001600160a01b0380841660008181526001602090815260408083209487168084529490915290819020849055517f8c5be1e5ebec7d5bd14f71427d1e84f3dd0314c0f7b2291e5b200ac8c7c3b925906117cd90859061444c565b60405180910390a3505050565b60006117e461181b565b42118061090057505060075460ff161590565b7f000000000000000000000000000000000000000000000000000000000000000090565b7f000000000000000000000000000000000000000000000000000000000000000090565b60006118496113f6565b6001600160a01b031663010ad6d17f00000000000000000000000000000000000000000000000000000000000000006040518263ffffffff1660e01b8152600401611894919061444c565b60206040518083038186803b1580156118ac57600080fd5b505afa9250505080156118dc575060408051601f3d908101601f191682019092526118d991810190613fa2565b60015b61191f573d80801561190a576040519150601f19603f3d011682016040523d82523d6000602084013e61190f565b606091505b5061191981612815565b506106fc565b90506106fc565b600082820261194a84158061194357508385838161194057fe5b04145b600361162c565b670de0b6b3a7640000815b04949350505050565b6119756001600160a01b038416151561019861162c565b61198c6001600160a01b038316151561019961162c565b611997838383610942565b6001600160a01b0383166000908152602081905260409020546119bd90826101a061289c565b6001600160a01b0380851660009081526020819052604080822093909355908416815220546119ec9082611c16565b6001600160a01b0380841660008181526020819052604090819020939093559151908516907fddf252ad1be2c89b69c2b068fc378daa952ba7f163c4a11628f55a4df523b3ef906117cd90859061444c565b6000611a6d6000357fffffffff0000000000000000000000000000000000000000000000000000000016610f59565b9050611a84611a7c82336128b2565b61019161162c565b50565b6109b8611a92610fcf565b61299b565b6000806000611aa4610fcf565b6001600160a01b031663b05f8e48611aba610947565b7f00000000000000000000000000000000000000000000000000000000000000006040518363ffffffff1660e01b8152600401611af8929190614647565b60806040518083038186803b158015611b1057600080fd5b505afa158015611b24573d6000803e3d6000fd5b505050506040513d601f19601f82011682018060405250810190611b4891906141af565b5050915091506000611b84828401611b7f7f0000000000000000000000000000000000000000000000000000000000000000612a4d565b612675565b905085811015801561065e57509390931115949350505050565b611bb164e8d4a5100082101560cb61162c565b611bc767016345785d8a000082111560ca61162c565b600854611bd8908260c0603f6115fd565b6008556040517fa9ba3ffe0b6c366b81232caab38605a0699ad5398d6cce76f91ee809e322dafc90611c0b90839061444c565b60405180910390a150565b60008282016108e6848210158361162c565b8015611c4857611c43611c396117f7565b421061019361162c565b611c5d565b611c5d611c5361181b565b42106101a961162c565b600780547fffffffffffffffffffffffffffffffffffffffffffffffffffffffffffffff00168215151790556040517f9e3a5e37224532dea67b89face185703738a228a6e8a23dee546960180d3be6490611c0b908390614429565b6109b8611cc461116f565b156101b561162c565b600854611cdc908260ff612b27565b6008556040517feff3d4d215b42bf0960be9c6d5e05c22cba4df6627a3a523e2acee733b5854c890611c0b908390614429565b6001901b6000190191901c1690565b60006060611d2d6103e661264b565b935093915050565b333014611e24576000306001600160a01b0316600036604051611d59929190614300565b6000604051808303816000865af19150503d8060008114611d96576040519150601f19603f3d011682016040523d82523d6000602084013e611d9b565b606091505b505090508060008114611daa57fe5b60046000803e6000517fffffffff00000000000000000000000000000000000000000000000000000000167f43adbafb000000000000000000000000000000000000000000000000000000008114611e06573d6000803e3d6000fd5b506020600460003e604060205260243d03602460403e601c3d016000f35b60006060611e378686868663ffffffff16565b8051601f1982018390526343adbafb7fffffffffffffffffffffffffffffffffffffffffffffffffffffffffffffffc083015291935091506020027fffffffffffffffffffffffffffffffffffffffffffffffffffffffffffffffdc82016044820181fd5b81518151611eab908290612b36565b60005b8181101561111457611ee6848281518110611ec557fe5b6020026020010151848381518110611ed957fe5b6020026020010151611926565b848281518110611ef257fe5b6020908102919091010152600101611eae565b60008160200151831015611f3e5781516020830151600091611f2a9186900390611926565b9050611f3684826115e7565b915050610710565b81604001518311611f50575081610710565b81516040830151600091611f2a91860390611926565b60006108e68383611c16565b600061071082611f8061073a565b906115e7565b6000611f95821515600461162c565b670de0b6b3a76400008302611fc7841580611fc05750670de0b6b3a7640000858381611fbd57fe5b04145b600561162c565b6001836001830304018115150291505092915050565b6000808251118015610710575060ff80168280602001905181019061200291906141ef565b60ff161492915050565b6109b861201761116f565b6101b661162c565b60006060600061202e84612b43565b90506060865167ffffffffffffffff8111801561204a57600080fd5b50604051908082528060200260200182016040528015612074578160200160208202803683370190505b5090506000612081610f42565b90506000612094898381518110610c9c57fe5b905060006120a28583612b59565b905060005b8a5181101561210457838114156120bf5760006120e5565b6120e5828c83815181106120cf57fe5b602002602001015161192690919063ffffffff16565b8582815181106120f157fe5b60209081029190910101526001016120a7565b509399929850919650505050505050565b6115e38282612b99565b60006108e66103e661264b565b61213b8183111561014c61162c565b6121566b0de0b6b39983494c589c000082111561014d61162c565b61216e670de0b6b3a7640000825b061561016161162c565b612180670de0b6b3a764000083612164565b6121b5670de0b6b3a76400008204604060206121ad670de0b6b3a7640000876008549190046020806115fd565b9291906115fd565b6008556040516001600160a01b038416907fd0e27a0d0c2cb09280fa5e4487315455b32afcdcf012dc35b6ef2a0e3c4d1280906121f590859085906146bc565b60405180910390a2505050565b600061220c610fcf565b6001600160a01b031663aaabadc56040518163ffffffff1660e01b815260040160206040518083038186803b15801561224457600080fd5b505afa158015612258573d6000803e3d6000fd5b505050506040513d601f19601f82011682018060405250810190610900919061409d565b1c60011690565b60408051604180825260808201909252606091829190602082018180368337019050509050836020820152826040820152846060820153949350505050565b60006122cd85612c65565b90506122e36122dd878387612c81565b8361162c565b6122f2428410156101b861162c565b5050506001600160a01b039092166000908152600660205260409020805460010190555050565b600060606123346001600160a01b038616301461015661162c565b61234b6001600160a01b038516301461015661162c565b604080516003808252608082019092526dffffffffffffffffffffffffffff91606091906020820183803683370190505090506dffffffffffffffffffffffffffff8160008151811061239a57fe5b602090810291909101015290969095509350505050565b6115e38282612d30565b6001600160a01b03918216600090815260016020908152604080832093909416825291909152205490565b60007f00000000000000000000000000000000000000000000000000000000000000007f00000000000000000000000000000000000000000000000000000000000000007f0000000000000000000000000000000000000000000000000000000000000000612453612dc3565b3060405160200161246895949392919061461b565b60405160208183030381529060405280519060200120905090565b600080856001600160a01b03166309b2760f866040518263ffffffff1660e01b81526004016124b2919061467c565b602060405180830381600087803b1580156124cc57600080fd5b505af11580156124e0573d6000803e3d6000fd5b505050506040513d601f19601f820116820180604052508101906125049190613fa2565b6040517f66a9c7d20000000000000000000000000000000000000000000000000000000081529091506001600160a01b038716906366a9c7d29061255090849088908890600401614595565b600060405180830381600087803b15801561256a57600080fd5b505af115801561257e573d6000803e3d6000fd5b509298975050505050505050565b60028151101561259b57611a84565b6000816000815181106125aa57fe5b602002602001015190506000600190505b82518110156109425760008382815181106125d257fe5b602002602001015190506125fb816001600160a01b0316846001600160a01b031610606561162c565b91506001016125bb565b6126146101008310606461162c565b61263c60018210158015611662575061263260ff8461010003611620565b821115606461162c565b61094283821c156101b461162c565b611a84817f42414c0000000000000000000000000000000000000000000000000000000000612dc7565b60006108e68383611926565b60208301516000906001600160a01b03163014156126ab576126a4848484612e42565b90506108e6565b7f00000000000000000000000000000000000000000000000000000000000000006001600160a01b031684602001516001600160a01b031614156126f4576126a4848484612f9a565b7f00000000000000000000000000000000000000000000000000000000000000006001600160a01b031684602001516001600160a01b0316141561273d576126a48484846130d7565b6108e661013561264b565b60006108e68383612b59565b60408301516000906001600160a01b0316301415612777576126a484848461320f565b7f00000000000000000000000000000000000000000000000000000000000000006001600160a01b031684604001516001600160a01b031614156127c0576126a484848461335f565b7f00000000000000000000000000000000000000000000000000000000000000006001600160a01b031684604001516001600160a01b0316141561273d576126a4848484613497565b60006108e68383611f86565b805160208201517fffffffff00000000000000000000000000000000000000000000000000000000167f43adbafb0000000000000000000000000000000000000000000000000000000081147ffa61cc1200000000000000000000000000000000000000000000000000000000821417612890578160208401fd5b506115e361016561264b565b60006128ab848411158361162c565b5050900390565b600073ba1ba1ba1ba1ba1ba1ba1ba1ba1ba1ba1ba1ba1b6128d1610fab565b6001600160a01b0316141580156128ec57506128ec836135cf565b15612914576128f9610fab565b6001600160a01b0316336001600160a01b0316149050610710565b61291c612202565b6001600160a01b0316639be2a8848484306040518463ffffffff1660e01b815260040161294b93929190614455565b60206040518083038186803b15801561296357600080fd5b505afa158015612977573d6000803e3d6000fd5b505050506040513d601f19601f8201168201806040525081019061133c9190613f82565b604080516000808252602082019092526060916129ce565b6129bb613b43565b8152602001906001900390816129b35790505b506040517f0e8e3e840000000000000000000000000000000000000000000000000000000081529091506001600160a01b03831690630e8e3e8490612a1790849060040161435a565b600060405180830381600087803b158015612a3157600080fd5b505af1158015612a45573d6000803e3d6000fd5b505050505050565b60007f00000000000000000000000000000000000000000000000000000000000000006001600160a01b0316826001600160a01b03161415612ab057507f0000000000000000000000000000000000000000000000000000000000000000610cd5565b7f00000000000000000000000000000000000000000000000000000000000000006001600160a01b0316826001600160a01b03161415612afc57612af56107f261183f565b9050610cd5565b6001600160a01b038216301415612b1c5750670de0b6b3a7640000610cd5565b610cd561013561264b565b6001811b1992909216911b1790565b6115e3818314606761162c565b6000818060200190518101906108e6919061420b565b6000612b68821515600461162c565b670de0b6b3a76400008302612b90841580611fc05750670de0b6b3a7640000858381611fbd57fe5b82818161195557fe5b612bb06001600160a01b038316151561019b61162c565b612bbc82600083610942565b6001600160a01b038216600090815260208190526040902054612be290826101b261289c565b6001600160a01b038316600090815260208190526040902055612c15612c1082612c0a61073a565b90613633565b613641565b60006001600160a01b0316826001600160a01b03167fddf252ad1be2c89b69c2b068fc378daa952ba7f163c4a11628f55a4df523b3ef83604051612c59919061444c565b60405180910390a35050565b6000612c6f6123e6565b82604051602001610f8e929190614310565b6000612c9382516041146101b961162c565b60208281015160408085015160608601518251600080825295019283905292939092811a91600190612ccc90899085908890889061465e565b6020604051602081039080840390855afa158015612cee573d6000803e3d6000fd5b5050604051601f1901519150506001600160a01b03811615801590612d245750876001600160a01b0316816001600160a01b0316145b98975050505050505050565b612d3c60008383610942565b612d51612c1082612d4b61073a565b90611c16565b6001600160a01b038216600090815260208190526040902054612d749082611c16565b6001600160a01b0383166000818152602081905260408082209390935591519091907fddf252ad1be2c89b69c2b068fc378daa952ba7f163c4a11628f55a4df523b3ef90612c5990859061444c565b4690565b7f08c379a000000000000000000000000000000000000000000000000000000000600090815260206004526007602452600a808404818106603090810160081b958390069590950190829004918206850160101b01602363ffffff0060e086901c160160181b0190930160c81b60445260e882901c90606490fd5b6000612ec87f00000000000000000000000000000000000000000000000000000000000000006001600160a01b031685604001516001600160a01b03161480612ec057507f00000000000000000000000000000000000000000000000000000000000000006001600160a01b031685604001516001600160a01b0316145b61013561162c565b6115d18460600151847f000000000000000000000000000000000000000000000000000000000000000081518110612efc57fe5b6020026020010151857f000000000000000000000000000000000000000000000000000000000000000081518110612f3057fe5b6020026020010151612f4887600081518110610c9c57fe5b867f00000000000000000000000000000000000000000000000000000000000000006001600160a01b03168a604001516001600160a01b031614612f8e57613646612f92565b6136a45b63ffffffff16565b6000612ff67f00000000000000000000000000000000000000000000000000000000000000006001600160a01b031685604001516001600160a01b03161480612ec0575060408501516001600160a01b0316301461013561162c565b60408401516001600160a01b031630146130515761304c8460600151847f00000000000000000000000000000000000000000000000000000000000000008151811061303e57fe5b60200260200101518461370d565b6115d1565b6115d18460600151847f00000000000000000000000000000000000000000000000000000000000000008151811061308557fe5b6020026020010151857f0000000000000000000000000000000000000000000000000000000000000000815181106130b957fe5b60200260200101516130d187600081518110610c9c57fe5b8661373d565b60006131337f00000000000000000000000000000000000000000000000000000000000000006001600160a01b031685604001516001600160a01b03161480612ec0575060408501516001600160a01b0316301461013561162c565b60408401516001600160a01b031630146131895761304c8460600151847f00000000000000000000000000000000000000000000000000000000000000008151811061317b57fe5b6020026020010151846137a3565b6115d18460600151847f0000000000000000000000000000000000000000000000000000000000000000815181106131bd57fe5b6020026020010151857f0000000000000000000000000000000000000000000000000000000000000000815181106131f157fe5b602002602001015161320987600081518110610c9c57fe5b866137e3565b60006132947f00000000000000000000000000000000000000000000000000000000000000006001600160a01b031685602001516001600160a01b03161480612ec057507f00000000000000000000000000000000000000000000000000000000000000006001600160a01b031685602001516001600160a01b03161461013561162c565b6115d18460600151847f0000000000000000000000000000000000000000000000000000000000000000815181106132c857fe5b6020026020010151857f0000000000000000000000000000000000000000000000000000000000000000815181106132fc57fe5b602002602001015161331487600081518110610c9c57fe5b867f00000000000000000000000000000000000000000000000000000000000000006001600160a01b03168a602001516001600160a01b03161461335a5761384a612f92565b6138a1565b60006133bb7f00000000000000000000000000000000000000000000000000000000000000006001600160a01b031685602001516001600160a01b03161480612ec0575060208501516001600160a01b0316301461013561162c565b60208401516001600160a01b031630146134115761304c8460600151847f00000000000000000000000000000000000000000000000000000000000000008151811061340357fe5b60200260200101518461390b565b6115d18460600151847f00000000000000000000000000000000000000000000000000000000000000008151811061344557fe5b6020026020010151857f00000000000000000000000000000000000000000000000000000000000000008151811061347957fe5b602002602001015161349187600081518110610c9c57fe5b86613935565b60006134f37f00000000000000000000000000000000000000000000000000000000000000006001600160a01b031685602001516001600160a01b03161480612ec0575060208501516001600160a01b0316301461013561162c565b60208401516001600160a01b031630146135495761304c8460600151847f00000000000000000000000000000000000000000000000000000000000000008151811061353b57fe5b602002602001015184613984565b6115d18460600151847f00000000000000000000000000000000000000000000000000000000000000008151811061357d57fe5b6020026020010151857f0000000000000000000000000000000000000000000000000000000000000000815181106135b157fe5b60200260200101516135c987600081518110610c9c57fe5b866139b9565b60006135fa7f9f11080e00000000000000000000000000000000000000000000000000000000610f59565b821480610710575061362b7f38e9922e00000000000000000000000000000000000000000000000000000000610f59565b909114919050565b60006108e68383600161289c565b600255565b6000806136538684611f05565b905060006136618287611f66565b9050600061366f868a6115e7565b9050600061368a84611f806136848587613a0d565b8a613a27565b905061369688826115e7565b9a9950505050505050505050565b6000806136b18684611f05565b905060006136bf8287611f66565b905060006136d66136d0838b613a0d565b87613a48565b905060006136e484836115e7565b905060006136f28288613a68565b90506136fe8a826115e7565b9b9a5050505050505050505050565b60008061371a8484611f05565b9050600061373161372b8688611c16565b85611f05565b905061065e81836115e7565b6000826137555761374e8683611f05565b905061109f565b60006137618684611f05565b9050600061377261372b888a611c16565b9050600061378082846115e7565b9050600061378e8489611f66565b905061369661379d8884613a0d565b82613a48565b6000806137b08484611f05565b905060006137be82876115e7565b905060006137cc8286613a68565b90506137d886826115e7565b979650505050505050565b6000826137f157508461109f565b60006137fd8684611f05565b9050600061380b8287611f66565b90506000613819878a611c16565b905060006138278483611f66565b9050600061383e6138388984613a0d565b85613a48565b90506136fe81896115e7565b60008261385857508461109f565b60006138648684611f05565b905060006138728287611f66565b90506000613880868a611c16565b9050600061389584611f806136848587613a0d565b905061369681896115e7565b6000826138b25761374e8683613a68565b60006138be8684611f05565b905060006138cc8287611f66565b905060006138e36138dd838b613a0d565b87613a27565b905060006138f18483611c16565b905060006138ff8288613a68565b90506136fe818b6115e7565b6000806139188484611f05565b9050600061392961372b86886115e7565b905061065e82826115e7565b6000806139428684611f05565b9050600061395361372b888a6115e7565b9050600061396183836115e7565b9050600061396f8489611f66565b905061369661397e8884613a0d565b82613a27565b6000806139918484611f05565b9050600061399f8287611c16565b905060006139ad8286613a68565b90506137d881876115e7565b6000806139c68684611f05565b905060006139d48287611f66565b905060006139e2878a6115e7565b905060006139f08483611f66565b90506000613a016138388984613a0d565b90506136fe88826115e7565b60008282026108e684158061194357508385838161194057fe5b6000613a36821515600461162c565b50811515600019909201046001010290565b6000613a57821515600461162c565b818381613a6057fe5b049392505050565b60008160200151831015613ab157815161133c90613a8f90670de0b6b3a764000090611c16565b60208401518451613aab91613aa49190611926565b8690611c16565b90612b59565b81604001518311613ac3575081610710565b815161133c90613adc90670de0b6b3a7640000906115e7565b60408401518451613aab91613af19190611926565b86906115e7565b60405180606001604052806000815260200160008152602001600081525090565b60405180608001604052806060815260200160608152602001606081526020016000151581525090565b6040805160a081019091528060008152600060208201819052604082018190526060820181905260809091015290565b80356107108161472b565b600082601f830112613b8e578081fd5b8135613ba1613b9c826146ff565b6146d8565b818152915060208083019084810181840286018201871015613bc257600080fd5b60005b84811015613be157813584529282019290820190600101613bc5565b505050505092915050565b600082601f830112613bfc578081fd5b8151613c0a613b9c826146ff565b818152915060208083019084810181840286018201871015613c2b57600080fd5b60005b84811015613be157815184529282019290820190600101613c2e565b600082601f830112613c5a578081fd5b813567ffffffffffffffff811115613c70578182fd5b613c836020601f19601f840116016146d8565b9150808252836020828501011115613c9a57600080fd5b8060208401602084013760009082016020015292915050565b80356002811061071057600080fd5b6000610120808385031215613cd5578182fd5b613cde816146d8565b915050613ceb8383613cb3565b8152613cfa8360208401613b73565b6020820152613d0c8360408401613b73565b6040820152606082013560608201526080820135608082015260a082013560a0820152613d3c8360c08401613b73565b60c0820152613d4e8360e08401613b73565b60e08201526101008083013567ffffffffffffffff811115613d6f57600080fd5b613d7b85828601613c4a565b82840152505092915050565b600060208284031215613d98578081fd5b81356108e68161472b565b60008060408385031215613db5578081fd5b8235613dc08161472b565b91506020830135613dd08161472b565b809150509250929050565b600080600060608486031215613def578081fd5b8335613dfa8161472b565b92506020840135613e0a8161472b565b929592945050506040919091013590565b600080600080600080600060e0888a031215613e35578283fd5b8735613e408161472b565b96506020880135613e508161472b565b955060408801359450606088013593506080880135613e6e81614740565b9699959850939692959460a0840135945060c09093013592915050565b60008060408385031215613e9d578182fd5b8235613ea88161472b565b946020939093013593505050565b600080600060608486031215613eca578081fd5b835167ffffffffffffffff80821115613ee1578283fd5b818601915086601f830112613ef4578283fd5b8151613f02613b9c826146ff565b80828252602080830192508086018b828387028901011115613f22578788fd5b8796505b84871015613f4d578051613f398161472b565b845260019690960195928101928101613f26565b508901519097509350505080821115613f64578283fd5b50613f7186828701613bec565b925050604084015190509250925092565b600060208284031215613f93578081fd5b815180151581146108e6578182fd5b600060208284031215613fb3578081fd5b5051919050565b600080600080600080600060e0888a031215613fd4578081fd5b873596506020880135613fe68161472b565b95506040880135613ff68161472b565b9450606088013567ffffffffffffffff80821115614012578283fd5b61401e8b838c01613b7e565b955060808a0135945060a08a0135935060c08a0135915080821115614041578283fd5b5061404e8a828b01613c4a565b91505092959891949750929550565b60006020828403121561406e578081fd5b81357fffffffff00000000000000000000000000000000000000000000000000000000811681146108e6578182fd5b6000602082840312156140ae578081fd5b81516108e68161472b565b600080600080608085870312156140ce578182fd5b843567ffffffffffffffff808211156140e5578384fd5b6140f188838901613cc2565b95506020870135915080821115614106578384fd5b5061411387828801613b7e565b949794965050505060408301359260600135919050565b60008060006060848603121561413e578081fd5b833567ffffffffffffffff811115614154578182fd5b61416086828701613cc2565b9660208601359650604090950135949350505050565b600060208284031215614187578081fd5b5035919050565b600080604083850312156141a0578182fd5b50508035926020909101359150565b600080600080608085870312156141c4578182fd5b84519350602085015192506040850151915060608501516141e48161472b565b939692955090935050565b600060208284031215614200578081fd5b81516108e681614740565b6000806040838503121561421d578182fd5b825161422881614740565b6020939093015192949293505050565b6001600160a01b03169052565b6000815180845260208085019450808401835b8381101561427457815187529582019590820190600101614258565b509495945050505050565b15159052565b60008151808452815b818110156142aa5760208185018101518683018201520161428e565b818111156142bb5782602083870101525b50601f01601f19169290920160200192915050565b9182527fffffffff0000000000000000000000000000000000000000000000000000000016602082015260240190565b6000828483379101908152919050565b7f190100000000000000000000000000000000000000000000000000000000000081526002810192909252602282015260420190565b6001600160a01b0391909116815260200190565b602080825282518282018190526000919060409081850190868401855b828110156143e457815180516004811061438d57fe5b85528087015161439f88870182614238565b5085810151868601526060808201516143ba82880182614238565b5050608090810151906143cf86820183614238565b505060a0939093019290850190600101614377565b5091979650505050505050565b6000602082526108e66020830184614245565b6000604082526144176040830185614245565b828103602084015261109f8185614245565b901515815260200190565b92151583526020830191909152604082015260600190565b90815260200190565b9283526001600160a01b03918216602084015216604082015260600190565b600085825260206001600160a01b038087168285015280861660408501525060806060840152610100830184516080808601528181518084526101208701915084830193508592505b808310156144e5576144cf845161471f565b82529284019260019290920191908401906144bd565b508387015193507fffffffffffffffffffffffffffffffffffffffffffffffffffffffffffffff809250828682030160a08701526145238185614245565b935050506040850151818584030160c08601526145408382614285565b92505050606084015161455660e085018261427f565b509695505050505050565b9586526001600160a01b0394851660208701529290931660408501526060840152608083019190915260a082015260c00190565b60006060820185835260206060818501528186518084526080860191508288019350845b818110156145dd576145cb855161471f565b835293830193918301916001016145b9565b505084810360408601528551808252908201925081860190845b8181101561257e57614609835161471f565b855293830193918301916001016145f7565b9485526020850193909352604084019190915260608301526001600160a01b0316608082015260a00190565b9182526001600160a01b0316602082015260400190565b93845260ff9290921660208401526040830152606082015260800190565b602081016003831061468a57fe5b91905290565b6000602082526108e66020830184614285565b6000838252604060208301526115d16040830184614245565b918252602082015260400190565b60ff91909116815260200190565b60405181810167ffffffffffffffff811182821017156146f757600080fd5b604052919050565b600067ffffffffffffffff821115614715578081fd5b5060209081020190565b6001600160a01b031690565b6001600160a01b0381168114611a8457600080fd5b60ff81168114611a8457600080fdfea2646970667358221220b1bdac894bd3edacff647344ce0bdb1303852afae82897f0620afc1cf39183a364736f6c63430007010033",
  "linkReferences": {},
  "deployedLinkReferences": {}
}