{
  "contracts/ChainlinkRegistryRateProvider.sol": {
    "ChainlinkRegistryRateProvider": {
      "abi": [
        {
          "inputs": [
            {
              "internalType": "contract FeedRegistryInterface",
              "name": "_registry",
              "type": "address"
            },
            {
              "internalType": "address",
              "name": "_base",
              "type": "address"
            },
            {
              "internalType": "address",
              "name": "_quote",
              "type": "address"
            }
          ],
          "stateMutability": "nonpayable",
          "type": "constructor"
        },
        {
          "inputs": [],
          "name": "base",
          "outputs": [
            {
              "internalType": "address",
              "name": "",
              "type": "address"
            }
          ],
          "stateMutability": "view",
          "type": "function"
        },
        {
          "inputs": [],
          "name": "getRate",
          "outputs": [
            {
              "internalType": "uint256",
              "name": "",
              "type": "uint256"
            }
          ],
          "stateMutability": "view",
          "type": "function"
        },
        {
          "inputs": [],
          "name": "quote",
          "outputs": [
            {
              "internalType": "address",
              "name": "",
              "type": "address"
            }
          ],
          "stateMutability": "view",
          "type": "function"
        },
        {
          "inputs": [],
          "name": "registry",
          "outputs": [
            {
              "internalType": "contract FeedRegistryInterface",
              "name": "",
              "type": "address"
            }
          ],
          "stateMutability": "view",
          "type": "function"
        },
        {
          "inputs": [],
          "name": "updateCachedFeed",
          "outputs": [],
          "stateMutability": "nonpayable",
          "type": "function"
        }
      ],
      "evm": {
        "bytecode": {
          "linkReferences": {},
          "object": "60e06040523480156200001157600080fd5b5060405162000aa238038062000aa28339810160408190526200003491620001a5565b6001600160a01b03838116608081905283821660a081905291831660c081905260405163d2edb6dd60e01b8152600481019390935260248301529063d2edb6dd90604401602060405180830381865afa15801562000096573d6000803e3d6000fd5b505050506040513d601f19601f82011682018060405250810190620000bc9190620001f9565b600080546001600160a01b0319166001600160a01b039290921691821790556040805163313ce56760e01b815290516200015b92601292909163313ce567916004808201926020929091908290030181865afa15801562000121573d6000803e3d6000fd5b505050506040513d601f19601f8201168201806040525081019062000147919062000220565b60ff166200017560201b620004161760201c565b6200016890600a62000358565b6001555062000380915050565b600062000183828462000366565b90505b92915050565b6001600160a01b0381168114620001a257600080fd5b50565b600080600060608486031215620001bb57600080fd5b8351620001c8816200018c565b6020850151909350620001db816200018c565b6040850151909250620001ee816200018c565b809150509250925092565b6000602082840312156200020c57600080fd5b815162000219816200018c565b9392505050565b6000602082840312156200023357600080fd5b815160ff811681146200021957600080fd5b634e487b7160e01b600052601160045260246000fd5b600181815b808511156200029c57816000190482111562000280576200028062000245565b808516156200028e57918102915b93841c939080029062000260565b509250929050565b600082620002b55750600162000186565b81620002c45750600062000186565b8160018114620002dd5760028114620002e85762000308565b600191505062000186565b60ff841115620002fc57620002fc62000245565b50506001821b62000186565b5060208310610133831016604e8410600b84101617156200032d575081810a62000186565b6200033983836200025b565b806000190482111562000350576200035062000245565b029392505050565b6000620001838383620002a4565b6000828210156200037b576200037b62000245565b500390565b60805160a05160c0516106df620003c36000396000818161010901526102ab0152600081816071015261028301526000818160d801526102d601526106df6000f3fe608060405234801561001057600080fd5b50600436106100675760003560e01c80637b103999116100505780637b103999146100d35780637d035248146100fa578063999b93af1461010457600080fd5b80635001f3b51461006c578063679aefce146100bd575b600080fd5b6100937f000000000000000000000000000000000000000000000000000000000000000081565b60405173ffffffffffffffffffffffffffffffffffffffff90911681526020015b60405180910390f35b6100c561012b565b6040519081526020016100b4565b6100937f000000000000000000000000000000000000000000000000000000000000000081565b610102610246565b005b6100937f000000000000000000000000000000000000000000000000000000000000000081565b60008054604080517ffeaf968c0000000000000000000000000000000000000000000000000000000081529051839273ffffffffffffffffffffffffffffffffffffffff169163feaf968c9160048083019260a09291908290030181865afa15801561019b573d6000803e3d6000fd5b505050506040513d601f19601f820116820180604052508101906101bf919061044a565b50505091505060008113610233576040517f08c379a000000000000000000000000000000000000000000000000000000000815260206004820152601b60248201527f496e76616c6964207072696365207261746520726573706f6e73650000000000604482015260640160405180910390fd5b60015461024090826104c9565b91505090565b6040517fd2edb6dd00000000000000000000000000000000000000000000000000000000815273ffffffffffffffffffffffffffffffffffffffff7f0000000000000000000000000000000000000000000000000000000000000000811660048301527f0000000000000000000000000000000000000000000000000000000000000000811660248301526000917f00000000000000000000000000000000000000000000000000000000000000009091169063d2edb6dd90604401602060405180830381865afa15801561031f573d6000803e3d6000fd5b505050506040513d601f19601f820116820180604052508101906103439190610506565b90506103c160128273ffffffffffffffffffffffffffffffffffffffff1663313ce5676040518163ffffffff1660e01b8152600401602060405180830381865afa158015610395573d6000803e3d6000fd5b505050506040513d601f19601f820116820180604052508101906103b99190610543565b60ff16610416565b6103cc90600a610686565b600155600080547fffffffffffffffffffffffff00000000000000000000000000000000000000001673ffffffffffffffffffffffffffffffffffffffff92909216919091179055565b60006104228284610692565b90505b92915050565b805169ffffffffffffffffffff8116811461044557600080fd5b919050565b600080600080600060a0868803121561046257600080fd5b61046b8661042b565b945060208601519350604086015192506060860151915061048e6080870161042b565b90509295509295909350565b7f4e487b7100000000000000000000000000000000000000000000000000000000600052601160045260246000fd5b6000817fffffffffffffffffffffffffffffffffffffffffffffffffffffffffffffffff04831182151516156105015761050161049a565b500290565b60006020828403121561051857600080fd5b815173ffffffffffffffffffffffffffffffffffffffff8116811461053c57600080fd5b9392505050565b60006020828403121561055557600080fd5b815160ff8116811461053c57600080fd5b600181815b808511156105bf57817fffffffffffffffffffffffffffffffffffffffffffffffffffffffffffffffff048211156105a5576105a561049a565b808516156105b257918102915b93841c939080029061056b565b509250929050565b6000826105d657506001610425565b816105e357506000610425565b81600181146105f957600281146106035761061f565b6001915050610425565b60ff8411156106145761061461049a565b50506001821b610425565b5060208310610133831016604e8410600b8410161715610642575081810a610425565b61064c8383610566565b807fffffffffffffffffffffffffffffffffffffffffffffffffffffffffffffffff0482111561067e5761067e61049a565b029392505050565b600061042283836105c7565b6000828210156106a4576106a461049a565b50039056fea2646970667358221220ff5dec1f57a701c319a329daf027b77cf6f900646a74e9cb6d60ce595411aef164736f6c634300080b0033",
          "opcodes": "PUSH1 0xE0 PUSH1 0x40 MSTORE CALLVALUE DUP1 ISZERO PUSH3 0x11 JUMPI PUSH1 0x0 DUP1 REVERT JUMPDEST POP PUSH1 0x40 MLOAD PUSH3 0xAA2 CODESIZE SUB DUP1 PUSH3 0xAA2 DUP4 CODECOPY DUP2 ADD PUSH1 0x40 DUP2 SWAP1 MSTORE PUSH3 0x34 SWAP2 PUSH3 0x1A5 JUMP JUMPDEST PUSH1 0x1 PUSH1 0x1 PUSH1 0xA0 SHL SUB DUP4 DUP2 AND PUSH1 0x80 DUP2 SWAP1 MSTORE DUP4 DUP3 AND PUSH1 0xA0 DUP2 SWAP1 MSTORE SWAP2 DUP4 AND PUSH1 0xC0 DUP2 SWAP1 MSTORE PUSH1 0x40 MLOAD PUSH4 0xD2EDB6DD PUSH1 0xE0 SHL DUP2 MSTORE PUSH1 0x4 DUP2 ADD SWAP4 SWAP1 SWAP4 MSTORE PUSH1 0x24 DUP4 ADD MSTORE SWAP1 PUSH4 0xD2EDB6DD SWAP1 PUSH1 0x44 ADD PUSH1 0x20 PUSH1 0x40 MLOAD DUP1 DUP4 SUB DUP2 DUP7 GAS STATICCALL ISZERO DUP1 ISZERO PUSH3 0x96 JUMPI RETURNDATASIZE PUSH1 0x0 DUP1 RETURNDATACOPY RETURNDATASIZE PUSH1 0x0 REVERT JUMPDEST POP POP POP POP PUSH1 0x40 MLOAD RETURNDATASIZE PUSH1 0x1F NOT PUSH1 0x1F DUP3 ADD AND DUP3 ADD DUP1 PUSH1 0x40 MSTORE POP DUP2 ADD SWAP1 PUSH3 0xBC SWAP2 SWAP1 PUSH3 0x1F9 JUMP JUMPDEST PUSH1 0x0 DUP1 SLOAD PUSH1 0x1 PUSH1 0x1 PUSH1 0xA0 SHL SUB NOT AND PUSH1 0x1 PUSH1 0x1 PUSH1 0xA0 SHL SUB SWAP3 SWAP1 SWAP3 AND SWAP2 DUP3 OR SWAP1 SSTORE PUSH1 0x40 DUP1 MLOAD PUSH4 0x313CE567 PUSH1 0xE0 SHL DUP2 MSTORE SWAP1 MLOAD PUSH3 0x15B SWAP3 PUSH1 0x12 SWAP3 SWAP1 SWAP2 PUSH4 0x313CE567 SWAP2 PUSH1 0x4 DUP1 DUP3 ADD SWAP3 PUSH1 0x20 SWAP3 SWAP1 SWAP2 SWAP1 DUP3 SWAP1 SUB ADD DUP2 DUP7 GAS STATICCALL ISZERO DUP1 ISZERO PUSH3 0x121 JUMPI RETURNDATASIZE PUSH1 0x0 DUP1 RETURNDATACOPY RETURNDATASIZE PUSH1 0x0 REVERT JUMPDEST POP POP POP POP PUSH1 0x40 MLOAD RETURNDATASIZE PUSH1 0x1F NOT PUSH1 0x1F DUP3 ADD AND DUP3 ADD DUP1 PUSH1 0x40 MSTORE POP DUP2 ADD SWAP1 PUSH3 0x147 SWAP2 SWAP1 PUSH3 0x220 JUMP JUMPDEST PUSH1 0xFF AND PUSH3 0x175 PUSH1 0x20 SHL PUSH3 0x416 OR PUSH1 0x20 SHR JUMP JUMPDEST PUSH3 0x168 SWAP1 PUSH1 0xA PUSH3 0x358 JUMP JUMPDEST PUSH1 0x1 SSTORE POP PUSH3 0x380 SWAP2 POP POP JUMP JUMPDEST PUSH1 0x0 PUSH3 0x183 DUP3 DUP5 PUSH3 0x366 JUMP JUMPDEST SWAP1 POP JUMPDEST SWAP3 SWAP2 POP POP JUMP JUMPDEST PUSH1 0x1 PUSH1 0x1 PUSH1 0xA0 SHL SUB DUP2 AND DUP2 EQ PUSH3 0x1A2 JUMPI PUSH1 0x0 DUP1 REVERT JUMPDEST POP JUMP JUMPDEST PUSH1 0x0 DUP1 PUSH1 0x0 PUSH1 0x60 DUP5 DUP7 SUB SLT ISZERO PUSH3 0x1BB JUMPI PUSH1 0x0 DUP1 REVERT JUMPDEST DUP4 MLOAD PUSH3 0x1C8 DUP2 PUSH3 0x18C JUMP JUMPDEST PUSH1 0x20 DUP6 ADD MLOAD SWAP1 SWAP4 POP PUSH3 0x1DB DUP2 PUSH3 0x18C JUMP JUMPDEST PUSH1 0x40 DUP6 ADD MLOAD SWAP1 SWAP3 POP PUSH3 0x1EE DUP2 PUSH3 0x18C JUMP JUMPDEST DUP1 SWAP2 POP POP SWAP3 POP SWAP3 POP SWAP3 JUMP JUMPDEST PUSH1 0x0 PUSH1 0x20 DUP3 DUP5 SUB SLT ISZERO PUSH3 0x20C JUMPI PUSH1 0x0 DUP1 REVERT JUMPDEST DUP2 MLOAD PUSH3 0x219 DUP2 PUSH3 0x18C JUMP JUMPDEST SWAP4 SWAP3 POP POP POP JUMP JUMPDEST PUSH1 0x0 PUSH1 0x20 DUP3 DUP5 SUB SLT ISZERO PUSH3 0x233 JUMPI PUSH1 0x0 DUP1 REVERT JUMPDEST DUP2 MLOAD PUSH1 0xFF DUP2 AND DUP2 EQ PUSH3 0x219 JUMPI PUSH1 0x0 DUP1 REVERT JUMPDEST PUSH4 0x4E487B71 PUSH1 0xE0 SHL PUSH1 0x0 MSTORE PUSH1 0x11 PUSH1 0x4 MSTORE PUSH1 0x24 PUSH1 0x0 REVERT JUMPDEST PUSH1 0x1 DUP2 DUP2 JUMPDEST DUP1 DUP6 GT ISZERO PUSH3 0x29C JUMPI DUP2 PUSH1 0x0 NOT DIV DUP3 GT ISZERO PUSH3 0x280 JUMPI PUSH3 0x280 PUSH3 0x245 JUMP JUMPDEST DUP1 DUP6 AND ISZERO PUSH3 0x28E JUMPI SWAP2 DUP2 MUL SWAP2 JUMPDEST SWAP4 DUP5 SHR SWAP4 SWAP1 DUP1 MUL SWAP1 PUSH3 0x260 JUMP JUMPDEST POP SWAP3 POP SWAP3 SWAP1 POP JUMP JUMPDEST PUSH1 0x0 DUP3 PUSH3 0x2B5 JUMPI POP PUSH1 0x1 PUSH3 0x186 JUMP JUMPDEST DUP2 PUSH3 0x2C4 JUMPI POP PUSH1 0x0 PUSH3 0x186 JUMP JUMPDEST DUP2 PUSH1 0x1 DUP2 EQ PUSH3 0x2DD JUMPI PUSH1 0x2 DUP2 EQ PUSH3 0x2E8 JUMPI PUSH3 0x308 JUMP JUMPDEST PUSH1 0x1 SWAP2 POP POP PUSH3 0x186 JUMP JUMPDEST PUSH1 0xFF DUP5 GT ISZERO PUSH3 0x2FC JUMPI PUSH3 0x2FC PUSH3 0x245 JUMP JUMPDEST POP POP PUSH1 0x1 DUP3 SHL PUSH3 0x186 JUMP JUMPDEST POP PUSH1 0x20 DUP4 LT PUSH2 0x133 DUP4 LT AND PUSH1 0x4E DUP5 LT PUSH1 0xB DUP5 LT AND OR ISZERO PUSH3 0x32D JUMPI POP DUP2 DUP2 EXP PUSH3 0x186 JUMP JUMPDEST PUSH3 0x339 DUP4 DUP4 PUSH3 0x25B JUMP JUMPDEST DUP1 PUSH1 0x0 NOT DIV DUP3 GT ISZERO PUSH3 0x350 JUMPI PUSH3 0x350 PUSH3 0x245 JUMP JUMPDEST MUL SWAP4 SWAP3 POP POP POP JUMP JUMPDEST PUSH1 0x0 PUSH3 0x183 DUP4 DUP4 PUSH3 0x2A4 JUMP JUMPDEST PUSH1 0x0 DUP3 DUP3 LT ISZERO PUSH3 0x37B JUMPI PUSH3 0x37B PUSH3 0x245 JUMP JUMPDEST POP SUB SWAP1 JUMP JUMPDEST PUSH1 0x80 MLOAD PUSH1 0xA0 MLOAD PUSH1 0xC0 MLOAD PUSH2 0x6DF PUSH3 0x3C3 PUSH1 0x0 CODECOPY PUSH1 0x0 DUP2 DUP2 PUSH2 0x109 ADD MSTORE PUSH2 0x2AB ADD MSTORE PUSH1 0x0 DUP2 DUP2 PUSH1 0x71 ADD MSTORE PUSH2 0x283 ADD MSTORE PUSH1 0x0 DUP2 DUP2 PUSH1 0xD8 ADD MSTORE PUSH2 0x2D6 ADD MSTORE PUSH2 0x6DF PUSH1 0x0 RETURN INVALID PUSH1 0x80 PUSH1 0x40 MSTORE CALLVALUE DUP1 ISZERO PUSH2 0x10 JUMPI PUSH1 0x0 DUP1 REVERT JUMPDEST POP PUSH1 0x4 CALLDATASIZE LT PUSH2 0x67 JUMPI PUSH1 0x0 CALLDATALOAD PUSH1 0xE0 SHR DUP1 PUSH4 0x7B103999 GT PUSH2 0x50 JUMPI DUP1 PUSH4 0x7B103999 EQ PUSH2 0xD3 JUMPI DUP1 PUSH4 0x7D035248 EQ PUSH2 0xFA JUMPI DUP1 PUSH4 0x999B93AF EQ PUSH2 0x104 JUMPI PUSH1 0x0 DUP1 REVERT JUMPDEST DUP1 PUSH4 0x5001F3B5 EQ PUSH2 0x6C JUMPI DUP1 PUSH4 0x679AEFCE EQ PUSH2 0xBD JUMPI JUMPDEST PUSH1 0x0 DUP1 REVERT JUMPDEST PUSH2 0x93 PUSH32 0x0 DUP2 JUMP JUMPDEST PUSH1 0x40 MLOAD PUSH20 0xFFFFFFFFFFFFFFFFFFFFFFFFFFFFFFFFFFFFFFFF SWAP1 SWAP2 AND DUP2 MSTORE PUSH1 0x20 ADD JUMPDEST PUSH1 0x40 MLOAD DUP1 SWAP2 SUB SWAP1 RETURN JUMPDEST PUSH2 0xC5 PUSH2 0x12B JUMP JUMPDEST PUSH1 0x40 MLOAD SWAP1 DUP2 MSTORE PUSH1 0x20 ADD PUSH2 0xB4 JUMP JUMPDEST PUSH2 0x93 PUSH32 0x0 DUP2 JUMP JUMPDEST PUSH2 0x102 PUSH2 0x246 JUMP JUMPDEST STOP JUMPDEST PUSH2 0x93 PUSH32 0x0 DUP2 JUMP JUMPDEST PUSH1 0x0 DUP1 SLOAD PUSH1 0x40 DUP1 MLOAD PUSH32 0xFEAF968C00000000000000000000000000000000000000000000000000000000 DUP2 MSTORE SWAP1 MLOAD DUP4 SWAP3 PUSH20 0xFFFFFFFFFFFFFFFFFFFFFFFFFFFFFFFFFFFFFFFF AND SWAP2 PUSH4 0xFEAF968C SWAP2 PUSH1 0x4 DUP1 DUP4 ADD SWAP3 PUSH1 0xA0 SWAP3 SWAP2 SWAP1 DUP3 SWAP1 SUB ADD DUP2 DUP7 GAS STATICCALL ISZERO DUP1 ISZERO PUSH2 0x19B JUMPI RETURNDATASIZE PUSH1 0x0 DUP1 RETURNDATACOPY RETURNDATASIZE PUSH1 0x0 REVERT JUMPDEST POP POP POP POP PUSH1 0x40 MLOAD RETURNDATASIZE PUSH1 0x1F NOT PUSH1 0x1F DUP3 ADD AND DUP3 ADD DUP1 PUSH1 0x40 MSTORE POP DUP2 ADD SWAP1 PUSH2 0x1BF SWAP2 SWAP1 PUSH2 0x44A JUMP JUMPDEST POP POP POP SWAP2 POP POP PUSH1 0x0 DUP2 SGT PUSH2 0x233 JUMPI PUSH1 0x40 MLOAD PUSH32 0x8C379A000000000000000000000000000000000000000000000000000000000 DUP2 MSTORE PUSH1 0x20 PUSH1 0x4 DUP3 ADD MSTORE PUSH1 0x1B PUSH1 0x24 DUP3 ADD MSTORE PUSH32 0x496E76616C6964207072696365207261746520726573706F6E73650000000000 PUSH1 0x44 DUP3 ADD MSTORE PUSH1 0x64 ADD PUSH1 0x40 MLOAD DUP1 SWAP2 SUB SWAP1 REVERT JUMPDEST PUSH1 0x1 SLOAD PUSH2 0x240 SWAP1 DUP3 PUSH2 0x4C9 JUMP JUMPDEST SWAP2 POP POP SWAP1 JUMP JUMPDEST PUSH1 0x40 MLOAD PUSH32 0xD2EDB6DD00000000000000000000000000000000000000000000000000000000 DUP2 MSTORE PUSH20 0xFFFFFFFFFFFFFFFFFFFFFFFFFFFFFFFFFFFFFFFF PUSH32 0x0 DUP2 AND PUSH1 0x4 DUP4 ADD MSTORE PUSH32 0x0 DUP2 AND PUSH1 0x24 DUP4 ADD MSTORE PUSH1 0x0 SWAP2 PUSH32 0x0 SWAP1 SWAP2 AND SWAP1 PUSH4 0xD2EDB6DD SWAP1 PUSH1 0x44 ADD PUSH1 0x20 PUSH1 0x40 MLOAD DUP1 DUP4 SUB DUP2 DUP7 GAS STATICCALL ISZERO DUP1 ISZERO PUSH2 0x31F JUMPI RETURNDATASIZE PUSH1 0x0 DUP1 RETURNDATACOPY RETURNDATASIZE PUSH1 0x0 REVERT JUMPDEST POP POP POP POP PUSH1 0x40 MLOAD RETURNDATASIZE PUSH1 0x1F NOT PUSH1 0x1F DUP3 ADD AND DUP3 ADD DUP1 PUSH1 0x40 MSTORE POP DUP2 ADD SWAP1 PUSH2 0x343 SWAP2 SWAP1 PUSH2 0x506 JUMP JUMPDEST SWAP1 POP PUSH2 0x3C1 PUSH1 0x12 DUP3 PUSH20 0xFFFFFFFFFFFFFFFFFFFFFFFFFFFFFFFFFFFFFFFF AND PUSH4 0x313CE567 PUSH1 0x40 MLOAD DUP2 PUSH4 0xFFFFFFFF AND PUSH1 0xE0 SHL DUP2 MSTORE PUSH1 0x4 ADD PUSH1 0x20 PUSH1 0x40 MLOAD DUP1 DUP4 SUB DUP2 DUP7 GAS STATICCALL ISZERO DUP1 ISZERO PUSH2 0x395 JUMPI RETURNDATASIZE PUSH1 0x0 DUP1 RETURNDATACOPY RETURNDATASIZE PUSH1 0x0 REVERT JUMPDEST POP POP POP POP PUSH1 0x40 MLOAD RETURNDATASIZE PUSH1 0x1F NOT PUSH1 0x1F DUP3 ADD AND DUP3 ADD DUP1 PUSH1 0x40 MSTORE POP DUP2 ADD SWAP1 PUSH2 0x3B9 SWAP2 SWAP1 PUSH2 0x543 JUMP JUMPDEST PUSH1 0xFF AND PUSH2 0x416 JUMP JUMPDEST PUSH2 0x3CC SWAP1 PUSH1 0xA PUSH2 0x686 JUMP JUMPDEST PUSH1 0x1 SSTORE PUSH1 0x0 DUP1 SLOAD PUSH32 0xFFFFFFFFFFFFFFFFFFFFFFFF0000000000000000000000000000000000000000 AND PUSH20 0xFFFFFFFFFFFFFFFFFFFFFFFFFFFFFFFFFFFFFFFF SWAP3 SWAP1 SWAP3 AND SWAP2 SWAP1 SWAP2 OR SWAP1 SSTORE JUMP JUMPDEST PUSH1 0x0 PUSH2 0x422 DUP3 DUP5 PUSH2 0x692 JUMP JUMPDEST SWAP1 POP JUMPDEST SWAP3 SWAP2 POP POP JUMP JUMPDEST DUP1 MLOAD PUSH10 0xFFFFFFFFFFFFFFFFFFFF DUP2 AND DUP2 EQ PUSH2 0x445 JUMPI PUSH1 0x0 DUP1 REVERT JUMPDEST SWAP2 SWAP1 POP JUMP JUMPDEST PUSH1 0x0 DUP1 PUSH1 0x0 DUP1 PUSH1 0x0 PUSH1 0xA0 DUP7 DUP9 SUB SLT ISZERO PUSH2 0x462 JUMPI PUSH1 0x0 DUP1 REVERT JUMPDEST PUSH2 0x46B DUP7 PUSH2 0x42B JUMP JUMPDEST SWAP5 POP PUSH1 0x20 DUP7 ADD MLOAD SWAP4 POP PUSH1 0x40 DUP7 ADD MLOAD SWAP3 POP PUSH1 0x60 DUP7 ADD MLOAD SWAP2 POP PUSH2 0x48E PUSH1 0x80 DUP8 ADD PUSH2 0x42B JUMP JUMPDEST SWAP1 POP SWAP3 SWAP6 POP SWAP3 SWAP6 SWAP1 SWAP4 POP JUMP JUMPDEST PUSH32 0x4E487B7100000000000000000000000000000000000000000000000000000000 PUSH1 0x0 MSTORE PUSH1 0x11 PUSH1 0x4 MSTORE PUSH1 0x24 PUSH1 0x0 REVERT JUMPDEST PUSH1 0x0 DUP2 PUSH32 0xFFFFFFFFFFFFFFFFFFFFFFFFFFFFFFFFFFFFFFFFFFFFFFFFFFFFFFFFFFFFFFFF DIV DUP4 GT DUP3 ISZERO ISZERO AND ISZERO PUSH2 0x501 JUMPI PUSH2 0x501 PUSH2 0x49A JUMP JUMPDEST POP MUL SWAP1 JUMP JUMPDEST PUSH1 0x0 PUSH1 0x20 DUP3 DUP5 SUB SLT ISZERO PUSH2 0x518 JUMPI PUSH1 0x0 DUP1 REVERT JUMPDEST DUP2 MLOAD PUSH20 0xFFFFFFFFFFFFFFFFFFFFFFFFFFFFFFFFFFFFFFFF DUP2 AND DUP2 EQ PUSH2 0x53C JUMPI PUSH1 0x0 DUP1 REVERT JUMPDEST SWAP4 SWAP3 POP POP POP JUMP JUMPDEST PUSH1 0x0 PUSH1 0x20 DUP3 DUP5 SUB SLT ISZERO PUSH2 0x555 JUMPI PUSH1 0x0 DUP1 REVERT JUMPDEST DUP2 MLOAD PUSH1 0xFF DUP2 AND DUP2 EQ PUSH2 0x53C JUMPI PUSH1 0x0 DUP1 REVERT JUMPDEST PUSH1 0x1 DUP2 DUP2 JUMPDEST DUP1 DUP6 GT ISZERO PUSH2 0x5BF JUMPI DUP2 PUSH32 0xFFFFFFFFFFFFFFFFFFFFFFFFFFFFFFFFFFFFFFFFFFFFFFFFFFFFFFFFFFFFFFFF DIV DUP3 GT ISZERO PUSH2 0x5A5 JUMPI PUSH2 0x5A5 PUSH2 0x49A JUMP JUMPDEST DUP1 DUP6 AND ISZERO PUSH2 0x5B2 JUMPI SWAP2 DUP2 MUL SWAP2 JUMPDEST SWAP4 DUP5 SHR SWAP4 SWAP1 DUP1 MUL SWAP1 PUSH2 0x56B JUMP JUMPDEST POP SWAP3 POP SWAP3 SWAP1 POP JUMP JUMPDEST PUSH1 0x0 DUP3 PUSH2 0x5D6 JUMPI POP PUSH1 0x1 PUSH2 0x425 JUMP JUMPDEST DUP2 PUSH2 0x5E3 JUMPI POP PUSH1 0x0 PUSH2 0x425 JUMP JUMPDEST DUP2 PUSH1 0x1 DUP2 EQ PUSH2 0x5F9 JUMPI PUSH1 0x2 DUP2 EQ PUSH2 0x603 JUMPI PUSH2 0x61F JUMP JUMPDEST PUSH1 0x1 SWAP2 POP POP PUSH2 0x425 JUMP JUMPDEST PUSH1 0xFF DUP5 GT ISZERO PUSH2 0x614 JUMPI PUSH2 0x614 PUSH2 0x49A JUMP JUMPDEST POP POP PUSH1 0x1 DUP3 SHL PUSH2 0x425 JUMP JUMPDEST POP PUSH1 0x20 DUP4 LT PUSH2 0x133 DUP4 LT AND PUSH1 0x4E DUP5 LT PUSH1 0xB DUP5 LT AND OR ISZERO PUSH2 0x642 JUMPI POP DUP2 DUP2 EXP PUSH2 0x425 JUMP JUMPDEST PUSH2 0x64C DUP4 DUP4 PUSH2 0x566 JUMP JUMPDEST DUP1 PUSH32 0xFFFFFFFFFFFFFFFFFFFFFFFFFFFFFFFFFFFFFFFFFFFFFFFFFFFFFFFFFFFFFFFF DIV DUP3 GT ISZERO PUSH2 0x67E JUMPI PUSH2 0x67E PUSH2 0x49A JUMP JUMPDEST MUL SWAP4 SWAP3 POP POP POP JUMP JUMPDEST PUSH1 0x0 PUSH2 0x422 DUP4 DUP4 PUSH2 0x5C7 JUMP JUMPDEST PUSH1 0x0 DUP3 DUP3 LT ISZERO PUSH2 0x6A4 JUMPI PUSH2 0x6A4 PUSH2 0x49A JUMP JUMPDEST POP SUB SWAP1 JUMP INVALID LOG2 PUSH5 0x6970667358 0x22 SLT KECCAK256 SELFDESTRUCT 0x5D 0xEC 0x1F JUMPI 0xA7 ADD 0xC3 NOT LOG3 0x29 0xDA CREATE 0x27 0xB7 PUSH29 0xF6F900646A74E9CB6D60CE595411AEF164736F6C634300080B00330000 "
        },
        "methodIdentifiers": {
          "base()": "5001f3b5",
          "getRate()": "679aefce",
          "quote()": "999b93af",
          "registry()": "7b103999",
          "updateCachedFeed()": "7d035248"
        }
      }
    }
  }
}