{
  "contracts/20220418-veBAL-fix/veBALGaugeFixCoordinator.sol": {
    "veBALGaugeFixCoordinator": {
      "abi": [
        {
          "inputs": [
            {
              "internalType": "contract IAuthorizerAdaptor",
              "name": "authorizerAdaptor",
              "type": "address"
            },
            {
              "internalType": "contract IBalancerTokenAdmin",
              "name": "balancerTokenAdmin",
              "type": "address"
            },
            {
              "internalType": "contract IGaugeController",
              "name": "gaugeController",
              "type": "address"
            }
          ],
          "stateMutability": "nonpayable",
          "type": "constructor"
        },
        {
          "inputs": [],
          "name": "ARBITRUM_BAL_MINT_AMOUNT",
          "outputs": [
            {
              "internalType": "uint256",
              "name": "",
              "type": "uint256"
            }
          ],
          "stateMutability": "view",
          "type": "function"
        },
        {
          "inputs": [],
          "name": "POLYGON_BAL_MINT_AMOUNT",
          "outputs": [
            {
              "internalType": "uint256",
              "name": "",
              "type": "uint256"
            }
          ],
          "stateMutability": "view",
          "type": "function"
        },
        {
          "inputs": [],
          "name": "VEBAL_BAL_MINT_AMOUNT",
          "outputs": [
            {
              "internalType": "uint256",
              "name": "",
              "type": "uint256"
            }
          ],
          "stateMutability": "view",
          "type": "function"
        },
        {
          "inputs": [],
          "name": "getAuthorizer",
          "outputs": [
            {
              "internalType": "contract ICurrentAuthorizer",
              "name": "",
              "type": "address"
            }
          ],
          "stateMutability": "view",
          "type": "function"
        },
        {
          "inputs": [],
          "name": "getAuthorizerAdaptor",
          "outputs": [
            {
              "internalType": "contract IAuthorizerAdaptor",
              "name": "",
              "type": "address"
            }
          ],
          "stateMutability": "view",
          "type": "function"
        },
        {
          "inputs": [],
          "name": "getCurrentDeploymentStage",
          "outputs": [
            {
              "internalType": "enum veBALGaugeFixCoordinator.DeploymentStage",
              "name": "",
              "type": "uint8"
            }
          ],
          "stateMutability": "view",
          "type": "function"
        },
        {
          "inputs": [],
          "name": "getVault",
          "outputs": [
            {
              "internalType": "contract IVault",
              "name": "",
              "type": "address"
            }
          ],
          "stateMutability": "view",
          "type": "function"
        },
        {
          "inputs": [],
          "name": "performFirstStage",
          "outputs": [],
          "stateMutability": "nonpayable",
          "type": "function"
        }
      ],
      "evm": {
        "bytecode": {
          "linkReferences": {},
          "object": "61010060405234801561001157600080fd5b50604051611e95380380611e958339818101604052606081101561003457600080fd5b508051602082015160409092015160016000818155815493949390919060ff1916818302179055506000836001600160a01b0316638d928af86040518163ffffffff1660e01b815260040160206040518083038186803b15801561009757600080fd5b505afa1580156100ab573d6000803e3d6000fd5b505050506040513d60208110156100c157600080fd5b50516001600160601b0319606091821b811660805294811b851660a05292831b841660e05250901b1660c05260805160601c60a05160601c60c05160601c60e05160601c611d4961014c60003980611368528061146d528061152052806115d35250806117555250806104835280610534528061099e5280610bb25250806103d65250611d496000f3fe608060405234801561001057600080fd5b50600436106100885760003560e01c80638d928af81161005b5780638d928af8146100c1578063aaabadc5146100f2578063b77984e9146100fa578063e758d36b1461012357610088565b80632bd465661461008d578063311023531461009757806337daf0f5146100b157806362f3aac1146100b9575b600080fd5b61009561012b565b005b61009f6103aa565b60408051918252519081900360200190f35b61009f6103b8565b61009f6103c6565b6100c96103d4565b6040805173ffffffffffffffffffffffffffffffffffffffff9092168252519081900360200190f35b6100c96103f8565b610102610478565b6040518082600181111561011257fe5b815260200191505060405180910390f35b6100c9610481565b6101336104a5565b60006001805460ff169081111561014657fe5b146101b257604080517f08c379a000000000000000000000000000000000000000000000000000000000815260206004820152601c60248201527f4669727374207374657020616c726561647920706572666f726d656400000000604482015290519081900360640190fd5b60006101bc6103f8565b604080517f9be2a8840000000000000000000000000000000000000000000000000000000081526000600482018190523060248301526044820152905191925073ffffffffffffffffffffffffffffffffffffffff831691639be2a88491606480820192602092909190829003018186803b15801561023a57600080fd5b505afa15801561024e573d6000803e3d6000fd5b505050506040513d602081101561026457600080fd5b50516102d157604080517f08c379a000000000000000000000000000000000000000000000000000000000815260206004820152601460248201527f4e6f7420417574686f72697a65722061646d696e000000000000000000000000604482015290519081900360640190fd5b6102d96104be565b6102e1610b3c565b6102e9610d77565b604080517fd547741f000000000000000000000000000000000000000000000000000000008152600060048201819052306024830152915173ffffffffffffffffffffffffffffffffffffffff84169263d547741f926044808201939182900301818387803b15801561035b57600080fd5b505af115801561036f573d6000803e3d6000fd5b5050600180547fffffffffffffffffffffffffffffffffffffffffffffffffffffffffffffff001681179055506103a891506117179050565b565b69062417d8af6a3820000081565b69044c7717adfd8db0000081565b690a708ef05d67c5d0000081565b7f000000000000000000000000000000000000000000000000000000000000000090565b60006104026103d4565b73ffffffffffffffffffffffffffffffffffffffff1663aaabadc56040518163ffffffff1660e01b815260040160206040518083038186803b15801561044757600080fd5b505afa15801561045b573d6000803e3d6000fd5b505050506040513d602081101561047157600080fd5b5051905090565b60015460ff1690565b7f000000000000000000000000000000000000000000000000000000000000000090565b6104b76002600054141561019061171e565b6002600055565b60006104c86103f8565b604080517f851c1bb30000000000000000000000000000000000000000000000000000000081527fdb1ca260000000000000000000000000000000000000000000000000000000006004820152905191925060009173ffffffffffffffffffffffffffffffffffffffff7f0000000000000000000000000000000000000000000000000000000000000000169163851c1bb3916024808301926020929190829003018186803b15801561057a57600080fd5b505afa15801561058e573d6000803e3d6000fd5b505050506040513d60208110156105a457600080fd5b5051604080517f2f2ff15d00000000000000000000000000000000000000000000000000000000815260048101839052306024820152905191925073ffffffffffffffffffffffffffffffffffffffff841691632f2ff15d9160448082019260009290919082900301818387803b15801561061e57600080fd5b505af1158015610632573d6000803e3d6000fd5b50505050610641600080611730565b604080517fd547741f00000000000000000000000000000000000000000000000000000000815260048101839052306024820152905173ffffffffffffffffffffffffffffffffffffffff84169163d547741f91604480830192600092919082900301818387803b1580156106b557600080fd5b505af11580156106c9573d6000803e3d6000fd5b505050506000737aa5475b2ea29a9f4a1b9cf1cb72512d1b4ab75e90506108ca8173ffffffffffffffffffffffffffffffffffffffff16631b88094d6040518163ffffffff1660e01b815260040160206040518083038186803b15801561072f57600080fd5b505afa158015610743573d6000803e3d6000fd5b505050506040513d602081101561075957600080fd5b5051604080517f17d7de7c000000000000000000000000000000000000000000000000000000008152905173ffffffffffffffffffffffffffffffffffffffff909216916317d7de7c91600480820192600092909190829003018186803b1580156107c357600080fd5b505afa1580156107d7573d6000803e3d6000fd5b505050506040513d6000823e601f3d908101601f19168201604052602081101561080057600080fd5b810190808051604051939291908464010000000082111561082057600080fd5b90830190602082018581111561083557600080fd5b825164010000000081118282018810171561084f57600080fd5b82525081516020918201929091019080838360005b8381101561087c578181015183820152602001610864565b50505050905090810190601f1680156108a95780820380516001836020036101000a031916815260200191505b506060810160405260258082529093509150611c69905060208301396119c0565b61093557604080517f08c379a000000000000000000000000000000000000000000000000000000000815260206004820152600f60248201527f496e636f72726563742067617567650000000000000000000000000000000000604482015290519081900360640190fd5b604080517f851c1bb30000000000000000000000000000000000000000000000000000000081527fab8f0945000000000000000000000000000000000000000000000000000000006004820152905160009173ffffffffffffffffffffffffffffffffffffffff7f0000000000000000000000000000000000000000000000000000000000000000169163851c1bb391602480820192602092909190829003018186803b1580156109e557600080fd5b505afa1580156109f9573d6000803e3d6000fd5b505050506040513d6020811015610a0f57600080fd5b5051604080517f2f2ff15d00000000000000000000000000000000000000000000000000000000815260048101839052306024820152905191925073ffffffffffffffffffffffffffffffffffffffff861691632f2ff15d9160448082019260009290919082900301818387803b158015610a8957600080fd5b505af1158015610a9d573d6000803e3d6000fd5b50505050610aaa826119d6565b604080517fd547741f00000000000000000000000000000000000000000000000000000000815260048101839052306024820152905173ffffffffffffffffffffffffffffffffffffffff86169163d547741f91604480830192600092919082900301818387803b158015610b1e57600080fd5b505af1158015610b32573d6000803e3d6000fd5b5050505050505050565b6000610b466103f8565b604080517f851c1bb30000000000000000000000000000000000000000000000000000000081527fdb1ca260000000000000000000000000000000000000000000000000000000006004820152905191925060009173ffffffffffffffffffffffffffffffffffffffff7f0000000000000000000000000000000000000000000000000000000000000000169163851c1bb3916024808301926020929190829003018186803b158015610bf857600080fd5b505afa158015610c0c573d6000803e3d6000fd5b505050506040513d6020811015610c2257600080fd5b5051604080517f2f2ff15d00000000000000000000000000000000000000000000000000000000815260048101839052306024820152905191925073ffffffffffffffffffffffffffffffffffffffff841691632f2ff15d9160448082019260009290919082900301818387803b158015610c9c57600080fd5b505af1158015610cb0573d6000803e3d6000fd5b50505050600060019050610cc5600182611730565b610cd0600282611730565b610cdb600382611730565b610ce6600482611730565b604080517fd547741f00000000000000000000000000000000000000000000000000000000815260048101849052306024820152905173ffffffffffffffffffffffffffffffffffffffff85169163d547741f91604480830192600092919082900301818387803b158015610d5a57600080fd5b505af1158015610d6e573d6000803e3d6000fd5b50505050505050565b6000610d816103f8565b90506000733c1d00181ff86fbac0c3c52991fbfd11f6491d709050610eec8173ffffffffffffffffffffffffffffffffffffffff166317d7de7c6040518163ffffffff1660e01b815260040160006040518083038186803b158015610de557600080fd5b505afa158015610df9573d6000803e3d6000fd5b505050506040513d6000823e601f3d908101601f191682016040526020811015610e2257600080fd5b8101908080516040519392919084640100000000821115610e4257600080fd5b908301906020820185811115610e5757600080fd5b8251640100000000811182820188101715610e7157600080fd5b82525081516020918201929091019080838360005b83811015610e9e578181015183820152602001610e86565b50505050905090810190601f168015610ecb5780820380516001836020036101000a031916815260200191505b5060608101604052602b8082529093509150611c8e905060208301396119c0565b610f5757604080517f08c379a000000000000000000000000000000000000000000000000000000000815260206004820152601060248201527f496e636f727265637420686f6c64657200000000000000000000000000000000604482015290519081900360640190fd5b6000730c925fce89a22e36ebd9b3c6e0262234e853d2f690506110c08173ffffffffffffffffffffffffffffffffffffffff166317d7de7c6040518163ffffffff1660e01b815260040160006040518083038186803b158015610fb957600080fd5b505afa158015610fcd573d6000803e3d6000fd5b505050506040513d6000823e601f3d908101601f191682016040526020811015610ff657600080fd5b810190808051604051939291908464010000000082111561101657600080fd5b90830190602082018581111561102b57600080fd5b825164010000000081118282018810171561104557600080fd5b82525081516020918201929091019080838360005b8381101561107257818101518382015260200161105a565b50505050905090810190601f16801561109f5780820380516001836020036101000a031916815260200191505b5060608101604052602e8082529093509150611ce6905060208301396119c0565b61112b57604080517f08c379a000000000000000000000000000000000000000000000000000000000815260206004820152601060248201527f496e636f727265637420686f6c64657200000000000000000000000000000000604482015290519081900360640190fd5b60007398087bf6a5ca828a6e09391ace674dbabb6a4c5690506112948173ffffffffffffffffffffffffffffffffffffffff166317d7de7c6040518163ffffffff1660e01b815260040160006040518083038186803b15801561118d57600080fd5b505afa1580156111a1573d6000803e3d6000fd5b505050506040513d6000823e601f3d908101601f1916820160405260208110156111ca57600080fd5b81019080805160405193929190846401000000008211156111ea57600080fd5b9083019060208201858111156111ff57600080fd5b825164010000000081118282018810171561121957600080fd5b82525081516020918201929091019080838360005b8381101561124657818101518382015260200161122e565b50505050905090810190601f1680156112735780820380516001836020036101000a031916815260200191505b5060608101604052602d8082529093509150611cb9905060208301396119c0565b6112ff57604080517f08c379a000000000000000000000000000000000000000000000000000000000815260206004820152601060248201527f496e636f727265637420686f6c64657200000000000000000000000000000000604482015290519081900360640190fd5b604080517f851c1bb30000000000000000000000000000000000000000000000000000000081527f40c10f19000000000000000000000000000000000000000000000000000000006004820152905160009173ffffffffffffffffffffffffffffffffffffffff7f0000000000000000000000000000000000000000000000000000000000000000169163851c1bb391602480820192602092909190829003018186803b1580156113af57600080fd5b505afa1580156113c3573d6000803e3d6000fd5b505050506040513d60208110156113d957600080fd5b5051604080517f2f2ff15d00000000000000000000000000000000000000000000000000000000815260048101839052306024820152905191925073ffffffffffffffffffffffffffffffffffffffff871691632f2ff15d9160448082019260009290919082900301818387803b15801561145357600080fd5b505af1158015611467573d6000803e3d6000fd5b505050507f000000000000000000000000000000000000000000000000000000000000000073ffffffffffffffffffffffffffffffffffffffff166340c10f198569062417d8af6a382000006040518363ffffffff1660e01b8152600401808373ffffffffffffffffffffffffffffffffffffffff16815260200182815260200192505050600060405180830381600087803b15801561150657600080fd5b505af115801561151a573d6000803e3d6000fd5b505050507f000000000000000000000000000000000000000000000000000000000000000073ffffffffffffffffffffffffffffffffffffffff166340c10f198469044c7717adfd8db000006040518363ffffffff1660e01b8152600401808373ffffffffffffffffffffffffffffffffffffffff16815260200182815260200192505050600060405180830381600087803b1580156115b957600080fd5b505af11580156115cd573d6000803e3d6000fd5b505050507f000000000000000000000000000000000000000000000000000000000000000073ffffffffffffffffffffffffffffffffffffffff166340c10f1983690a708ef05d67c5d000006040518363ffffffff1660e01b8152600401808373ffffffffffffffffffffffffffffffffffffffff16815260200182815260200192505050600060405180830381600087803b15801561166c57600080fd5b505af1158015611680573d6000803e3d6000fd5b5050604080517fd547741f00000000000000000000000000000000000000000000000000000000815260048101859052306024820152905173ffffffffffffffffffffffffffffffffffffffff8916935063d547741f9250604480830192600092919082900301818387803b1580156116f857600080fd5b505af115801561170c573d6000803e3d6000fd5b505050505050505050565b6001600055565b8161172c5761172c81611bfb565b5050565b611738610481565b73ffffffffffffffffffffffffffffffffffffffff16634036176a7f00000000000000000000000000000000000000000000000000000000000000007fdb1ca260000000000000000000000000000000000000000000000000000000008560048111156117a157fe5b856040516024018083600f0b815260200182815260200192505050604051602081830303815290604052907bffffffffffffffffffffffffffffffffffffffffffffffffffffffff19166020820180517bffffffffffffffffffffffffffffffffffffffffffffffffffffffff83818316178352505050506040518363ffffffff1660e01b8152600401808373ffffffffffffffffffffffffffffffffffffffff16815260200180602001828103825283818151815260200191508051906020019080838360005b83811015611881578181015183820152602001611869565b50505050905090810190601f1680156118ae5780820380516001836020036101000a031916815260200191505b509350505050600060405180830381600087803b1580156118ce57600080fd5b505af11580156118e2573d6000803e3d6000fd5b505050506040513d6000823e601f3d908101601f19168201604052602081101561190b57600080fd5b810190808051604051939291908464010000000082111561192b57600080fd5b90830190602082018581111561194057600080fd5b825164010000000081118282018810171561195a57600080fd5b82525081516020918201929091019080838360005b8381101561198757818101518382015260200161196f565b50505050905090810190601f1680156119b45780820380516001836020036101000a031916815260200191505b50604052505050505050565b8051602091820120825192909101919091201490565b6119de610481565b604080516004808252602480830184526020830180517bffffffffffffffffffffffffffffffffffffffffffffffffffffffff167fab8f09450000000000000000000000000000000000000000000000000000000017815284517f4036176a00000000000000000000000000000000000000000000000000000000815273ffffffffffffffffffffffffffffffffffffffff8881169482019485529281019586528451604482015284519690921695634036176a9588959493909260649091019180838360005b83811015611abd578181015183820152602001611aa5565b50505050905090810190601f168015611aea5780820380516001836020036101000a031916815260200191505b509350505050600060405180830381600087803b158015611b0a57600080fd5b505af1158015611b1e573d6000803e3d6000fd5b505050506040513d6000823e601f3d908101601f191682016040526020811015611b4757600080fd5b8101908080516040519392919084640100000000821115611b6757600080fd5b908301906020820185811115611b7c57600080fd5b8251640100000000811182820188101715611b9657600080fd5b82525081516020918201929091019080838360005b83811015611bc3578181015183820152602001611bab565b50505050905090810190601f168015611bf05780820380516001836020036101000a031916815260200191505b506040525050505050565b7f08c379a0000000000000000000000000000000000000000000000000000000006000908152602060045260076024526642414c23000030600a808404818106603090810160081b95839006959095019082900491820690940160101b939093010160c81b604452606490fdfe4c6971756964697479204d696e696e6720436f6d6d69747465652042414c20486f6c64657254656d706f7261727920766542414c204c6971756964697479204d696e696e672042414c20486f6c64657254656d706f7261727920506f6c79676f6e204c6971756964697479204d696e696e672042414c20486f6c64657254656d706f7261727920417262697472756d204c6971756964697479204d696e696e672042414c20486f6c646572a26469706673582212206eca6fc7ff3f70601f5e391c419ff1aa3c3bbd61f120a7efba8272db84446c9564736f6c63430007010033",
          "opcodes": "PUSH2 0x100 PUSH1 0x40 MSTORE CALLVALUE DUP1 ISZERO PUSH2 0x11 JUMPI PUSH1 0x0 DUP1 REVERT JUMPDEST POP PUSH1 0x40 MLOAD PUSH2 0x1E95 CODESIZE SUB DUP1 PUSH2 0x1E95 DUP4 CODECOPY DUP2 DUP2 ADD PUSH1 0x40 MSTORE PUSH1 0x60 DUP2 LT ISZERO PUSH2 0x34 JUMPI PUSH1 0x0 DUP1 REVERT JUMPDEST POP DUP1 MLOAD PUSH1 0x20 DUP3 ADD MLOAD PUSH1 0x40 SWAP1 SWAP3 ADD MLOAD PUSH1 0x1 PUSH1 0x0 DUP2 DUP2 SSTORE DUP2 SLOAD SWAP4 SWAP5 SWAP4 SWAP1 SWAP2 SWAP1 PUSH1 0xFF NOT AND DUP2 DUP4 MUL OR SWAP1 SSTORE POP PUSH1 0x0 DUP4 PUSH1 0x1 PUSH1 0x1 PUSH1 0xA0 SHL SUB AND PUSH4 0x8D928AF8 PUSH1 0x40 MLOAD DUP2 PUSH4 0xFFFFFFFF AND PUSH1 0xE0 SHL DUP2 MSTORE PUSH1 0x4 ADD PUSH1 0x20 PUSH1 0x40 MLOAD DUP1 DUP4 SUB DUP2 DUP7 DUP1 EXTCODESIZE ISZERO DUP1 ISZERO PUSH2 0x97 JUMPI PUSH1 0x0 DUP1 REVERT JUMPDEST POP GAS STATICCALL ISZERO DUP1 ISZERO PUSH2 0xAB JUMPI RETURNDATASIZE PUSH1 0x0 DUP1 RETURNDATACOPY RETURNDATASIZE PUSH1 0x0 REVERT JUMPDEST POP POP POP POP PUSH1 0x40 MLOAD RETURNDATASIZE PUSH1 0x20 DUP2 LT ISZERO PUSH2 0xC1 JUMPI PUSH1 0x0 DUP1 REVERT JUMPDEST POP MLOAD PUSH1 0x1 PUSH1 0x1 PUSH1 0x60 SHL SUB NOT PUSH1 0x60 SWAP2 DUP3 SHL DUP2 AND PUSH1 0x80 MSTORE SWAP5 DUP2 SHL DUP6 AND PUSH1 0xA0 MSTORE SWAP3 DUP4 SHL DUP5 AND PUSH1 0xE0 MSTORE POP SWAP1 SHL AND PUSH1 0xC0 MSTORE PUSH1 0x80 MLOAD PUSH1 0x60 SHR PUSH1 0xA0 MLOAD PUSH1 0x60 SHR PUSH1 0xC0 MLOAD PUSH1 0x60 SHR PUSH1 0xE0 MLOAD PUSH1 0x60 SHR PUSH2 0x1D49 PUSH2 0x14C PUSH1 0x0 CODECOPY DUP1 PUSH2 0x1368 MSTORE DUP1 PUSH2 0x146D MSTORE DUP1 PUSH2 0x1520 MSTORE DUP1 PUSH2 0x15D3 MSTORE POP DUP1 PUSH2 0x1755 MSTORE POP DUP1 PUSH2 0x483 MSTORE DUP1 PUSH2 0x534 MSTORE DUP1 PUSH2 0x99E MSTORE DUP1 PUSH2 0xBB2 MSTORE POP DUP1 PUSH2 0x3D6 MSTORE POP PUSH2 0x1D49 PUSH1 0x0 RETURN INVALID PUSH1 0x80 PUSH1 0x40 MSTORE CALLVALUE DUP1 ISZERO PUSH2 0x10 JUMPI PUSH1 0x0 DUP1 REVERT JUMPDEST POP PUSH1 0x4 CALLDATASIZE LT PUSH2 0x88 JUMPI PUSH1 0x0 CALLDATALOAD PUSH1 0xE0 SHR DUP1 PUSH4 0x8D928AF8 GT PUSH2 0x5B JUMPI DUP1 PUSH4 0x8D928AF8 EQ PUSH2 0xC1 JUMPI DUP1 PUSH4 0xAAABADC5 EQ PUSH2 0xF2 JUMPI DUP1 PUSH4 0xB77984E9 EQ PUSH2 0xFA JUMPI DUP1 PUSH4 0xE758D36B EQ PUSH2 0x123 JUMPI PUSH2 0x88 JUMP JUMPDEST DUP1 PUSH4 0x2BD46566 EQ PUSH2 0x8D JUMPI DUP1 PUSH4 0x31102353 EQ PUSH2 0x97 JUMPI DUP1 PUSH4 0x37DAF0F5 EQ PUSH2 0xB1 JUMPI DUP1 PUSH4 0x62F3AAC1 EQ PUSH2 0xB9 JUMPI JUMPDEST PUSH1 0x0 DUP1 REVERT JUMPDEST PUSH2 0x95 PUSH2 0x12B JUMP JUMPDEST STOP JUMPDEST PUSH2 0x9F PUSH2 0x3AA JUMP JUMPDEST PUSH1 0x40 DUP1 MLOAD SWAP2 DUP3 MSTORE MLOAD SWAP1 DUP2 SWAP1 SUB PUSH1 0x20 ADD SWAP1 RETURN JUMPDEST PUSH2 0x9F PUSH2 0x3B8 JUMP JUMPDEST PUSH2 0x9F PUSH2 0x3C6 JUMP JUMPDEST PUSH2 0xC9 PUSH2 0x3D4 JUMP JUMPDEST PUSH1 0x40 DUP1 MLOAD PUSH20 0xFFFFFFFFFFFFFFFFFFFFFFFFFFFFFFFFFFFFFFFF SWAP1 SWAP3 AND DUP3 MSTORE MLOAD SWAP1 DUP2 SWAP1 SUB PUSH1 0x20 ADD SWAP1 RETURN JUMPDEST PUSH2 0xC9 PUSH2 0x3F8 JUMP JUMPDEST PUSH2 0x102 PUSH2 0x478 JUMP JUMPDEST PUSH1 0x40 MLOAD DUP1 DUP3 PUSH1 0x1 DUP2 GT ISZERO PUSH2 0x112 JUMPI INVALID JUMPDEST DUP2 MSTORE PUSH1 0x20 ADD SWAP2 POP POP PUSH1 0x40 MLOAD DUP1 SWAP2 SUB SWAP1 RETURN JUMPDEST PUSH2 0xC9 PUSH2 0x481 JUMP JUMPDEST PUSH2 0x133 PUSH2 0x4A5 JUMP JUMPDEST PUSH1 0x0 PUSH1 0x1 DUP1 SLOAD PUSH1 0xFF AND SWAP1 DUP2 GT ISZERO PUSH2 0x146 JUMPI INVALID JUMPDEST EQ PUSH2 0x1B2 JUMPI PUSH1 0x40 DUP1 MLOAD PUSH32 0x8C379A000000000000000000000000000000000000000000000000000000000 DUP2 MSTORE PUSH1 0x20 PUSH1 0x4 DUP3 ADD MSTORE PUSH1 0x1C PUSH1 0x24 DUP3 ADD MSTORE PUSH32 0x4669727374207374657020616C726561647920706572666F726D656400000000 PUSH1 0x44 DUP3 ADD MSTORE SWAP1 MLOAD SWAP1 DUP2 SWAP1 SUB PUSH1 0x64 ADD SWAP1 REVERT JUMPDEST PUSH1 0x0 PUSH2 0x1BC PUSH2 0x3F8 JUMP JUMPDEST PUSH1 0x40 DUP1 MLOAD PUSH32 0x9BE2A88400000000000000000000000000000000000000000000000000000000 DUP2 MSTORE PUSH1 0x0 PUSH1 0x4 DUP3 ADD DUP2 SWAP1 MSTORE ADDRESS PUSH1 0x24 DUP4 ADD MSTORE PUSH1 0x44 DUP3 ADD MSTORE SWAP1 MLOAD SWAP2 SWAP3 POP PUSH20 0xFFFFFFFFFFFFFFFFFFFFFFFFFFFFFFFFFFFFFFFF DUP4 AND SWAP2 PUSH4 0x9BE2A884 SWAP2 PUSH1 0x64 DUP1 DUP3 ADD SWAP3 PUSH1 0x20 SWAP3 SWAP1 SWAP2 SWAP1 DUP3 SWAP1 SUB ADD DUP2 DUP7 DUP1 EXTCODESIZE ISZERO DUP1 ISZERO PUSH2 0x23A JUMPI PUSH1 0x0 DUP1 REVERT JUMPDEST POP GAS STATICCALL ISZERO DUP1 ISZERO PUSH2 0x24E JUMPI RETURNDATASIZE PUSH1 0x0 DUP1 RETURNDATACOPY RETURNDATASIZE PUSH1 0x0 REVERT JUMPDEST POP POP POP POP PUSH1 0x40 MLOAD RETURNDATASIZE PUSH1 0x20 DUP2 LT ISZERO PUSH2 0x264 JUMPI PUSH1 0x0 DUP1 REVERT JUMPDEST POP MLOAD PUSH2 0x2D1 JUMPI PUSH1 0x40 DUP1 MLOAD PUSH32 0x8C379A000000000000000000000000000000000000000000000000000000000 DUP2 MSTORE PUSH1 0x20 PUSH1 0x4 DUP3 ADD MSTORE PUSH1 0x14 PUSH1 0x24 DUP3 ADD MSTORE PUSH32 0x4E6F7420417574686F72697A65722061646D696E000000000000000000000000 PUSH1 0x44 DUP3 ADD MSTORE SWAP1 MLOAD SWAP1 DUP2 SWAP1 SUB PUSH1 0x64 ADD SWAP1 REVERT JUMPDEST PUSH2 0x2D9 PUSH2 0x4BE JUMP JUMPDEST PUSH2 0x2E1 PUSH2 0xB3C JUMP JUMPDEST PUSH2 0x2E9 PUSH2 0xD77 JUMP JUMPDEST PUSH1 0x40 DUP1 MLOAD PUSH32 0xD547741F00000000000000000000000000000000000000000000000000000000 DUP2 MSTORE PUSH1 0x0 PUSH1 0x4 DUP3 ADD DUP2 SWAP1 MSTORE ADDRESS PUSH1 0x24 DUP4 ADD MSTORE SWAP2 MLOAD PUSH20 0xFFFFFFFFFFFFFFFFFFFFFFFFFFFFFFFFFFFFFFFF DUP5 AND SWAP3 PUSH4 0xD547741F SWAP3 PUSH1 0x44 DUP1 DUP3 ADD SWAP4 SWAP2 DUP3 SWAP1 SUB ADD DUP2 DUP4 DUP8 DUP1 EXTCODESIZE ISZERO DUP1 ISZERO PUSH2 0x35B JUMPI PUSH1 0x0 DUP1 REVERT JUMPDEST POP GAS CALL ISZERO DUP1 ISZERO PUSH2 0x36F JUMPI RETURNDATASIZE PUSH1 0x0 DUP1 RETURNDATACOPY RETURNDATASIZE PUSH1 0x0 REVERT JUMPDEST POP POP PUSH1 0x1 DUP1 SLOAD PUSH32 0xFFFFFFFFFFFFFFFFFFFFFFFFFFFFFFFFFFFFFFFFFFFFFFFFFFFFFFFFFFFFFF00 AND DUP2 OR SWAP1 SSTORE POP PUSH2 0x3A8 SWAP2 POP PUSH2 0x1717 SWAP1 POP JUMP JUMPDEST JUMP JUMPDEST PUSH10 0x62417D8AF6A38200000 DUP2 JUMP JUMPDEST PUSH10 0x44C7717ADFD8DB00000 DUP2 JUMP JUMPDEST PUSH10 0xA708EF05D67C5D00000 DUP2 JUMP JUMPDEST PUSH32 0x0 SWAP1 JUMP JUMPDEST PUSH1 0x0 PUSH2 0x402 PUSH2 0x3D4 JUMP JUMPDEST PUSH20 0xFFFFFFFFFFFFFFFFFFFFFFFFFFFFFFFFFFFFFFFF AND PUSH4 0xAAABADC5 PUSH1 0x40 MLOAD DUP2 PUSH4 0xFFFFFFFF AND PUSH1 0xE0 SHL DUP2 MSTORE PUSH1 0x4 ADD PUSH1 0x20 PUSH1 0x40 MLOAD DUP1 DUP4 SUB DUP2 DUP7 DUP1 EXTCODESIZE ISZERO DUP1 ISZERO PUSH2 0x447 JUMPI PUSH1 0x0 DUP1 REVERT JUMPDEST POP GAS STATICCALL ISZERO DUP1 ISZERO PUSH2 0x45B JUMPI RETURNDATASIZE PUSH1 0x0 DUP1 RETURNDATACOPY RETURNDATASIZE PUSH1 0x0 REVERT JUMPDEST POP POP POP POP PUSH1 0x40 MLOAD RETURNDATASIZE PUSH1 0x20 DUP2 LT ISZERO PUSH2 0x471 JUMPI PUSH1 0x0 DUP1 REVERT JUMPDEST POP MLOAD SWAP1 POP SWAP1 JUMP JUMPDEST PUSH1 0x1 SLOAD PUSH1 0xFF AND SWAP1 JUMP JUMPDEST PUSH32 0x0 SWAP1 JUMP JUMPDEST PUSH2 0x4B7 PUSH1 0x2 PUSH1 0x0 SLOAD EQ ISZERO PUSH2 0x190 PUSH2 0x171E JUMP JUMPDEST PUSH1 0x2 PUSH1 0x0 SSTORE JUMP JUMPDEST PUSH1 0x0 PUSH2 0x4C8 PUSH2 0x3F8 JUMP JUMPDEST PUSH1 0x40 DUP1 MLOAD PUSH32 0x851C1BB300000000000000000000000000000000000000000000000000000000 DUP2 MSTORE PUSH32 0xDB1CA26000000000000000000000000000000000000000000000000000000000 PUSH1 0x4 DUP3 ADD MSTORE SWAP1 MLOAD SWAP2 SWAP3 POP PUSH1 0x0 SWAP2 PUSH20 0xFFFFFFFFFFFFFFFFFFFFFFFFFFFFFFFFFFFFFFFF PUSH32 0x0 AND SWAP2 PUSH4 0x851C1BB3 SWAP2 PUSH1 0x24 DUP1 DUP4 ADD SWAP3 PUSH1 0x20 SWAP3 SWAP2 SWAP1 DUP3 SWAP1 SUB ADD DUP2 DUP7 DUP1 EXTCODESIZE ISZERO DUP1 ISZERO PUSH2 0x57A JUMPI PUSH1 0x0 DUP1 REVERT JUMPDEST POP GAS STATICCALL ISZERO DUP1 ISZERO PUSH2 0x58E JUMPI RETURNDATASIZE PUSH1 0x0 DUP1 RETURNDATACOPY RETURNDATASIZE PUSH1 0x0 REVERT JUMPDEST POP POP POP POP PUSH1 0x40 MLOAD RETURNDATASIZE PUSH1 0x20 DUP2 LT ISZERO PUSH2 0x5A4 JUMPI PUSH1 0x0 DUP1 REVERT JUMPDEST POP MLOAD PUSH1 0x40 DUP1 MLOAD PUSH32 0x2F2FF15D00000000000000000000000000000000000000000000000000000000 DUP2 MSTORE PUSH1 0x4 DUP2 ADD DUP4 SWAP1 MSTORE ADDRESS PUSH1 0x24 DUP3 ADD MSTORE SWAP1 MLOAD SWAP2 SWAP3 POP PUSH20 0xFFFFFFFFFFFFFFFFFFFFFFFFFFFFFFFFFFFFFFFF DUP5 AND SWAP2 PUSH4 0x2F2FF15D SWAP2 PUSH1 0x44 DUP1 DUP3 ADD SWAP3 PUSH1 0x0 SWAP3 SWAP1 SWAP2 SWAP1 DUP3 SWAP1 SUB ADD DUP2 DUP4 DUP8 DUP1 EXTCODESIZE ISZERO DUP1 ISZERO PUSH2 0x61E JUMPI PUSH1 0x0 DUP1 REVERT JUMPDEST POP GAS CALL ISZERO DUP1 ISZERO PUSH2 0x632 JUMPI RETURNDATASIZE PUSH1 0x0 DUP1 RETURNDATACOPY RETURNDATASIZE PUSH1 0x0 REVERT JUMPDEST POP POP POP POP PUSH2 0x641 PUSH1 0x0 DUP1 PUSH2 0x1730 JUMP JUMPDEST PUSH1 0x40 DUP1 MLOAD PUSH32 0xD547741F00000000000000000000000000000000000000000000000000000000 DUP2 MSTORE PUSH1 0x4 DUP2 ADD DUP4 SWAP1 MSTORE ADDRESS PUSH1 0x24 DUP3 ADD MSTORE SWAP1 MLOAD PUSH20 0xFFFFFFFFFFFFFFFFFFFFFFFFFFFFFFFFFFFFFFFF DUP5 AND SWAP2 PUSH4 0xD547741F SWAP2 PUSH1 0x44 DUP1 DUP4 ADD SWAP3 PUSH1 0x0 SWAP3 SWAP2 SWAP1 DUP3 SWAP1 SUB ADD DUP2 DUP4 DUP8 DUP1 EXTCODESIZE ISZERO DUP1 ISZERO PUSH2 0x6B5 JUMPI PUSH1 0x0 DUP1 REVERT JUMPDEST POP GAS CALL ISZERO DUP1 ISZERO PUSH2 0x6C9 JUMPI RETURNDATASIZE PUSH1 0x0 DUP1 RETURNDATACOPY RETURNDATASIZE PUSH1 0x0 REVERT JUMPDEST POP POP POP POP PUSH1 0x0 PUSH20 0x7AA5475B2EA29A9F4A1B9CF1CB72512D1B4AB75E SWAP1 POP PUSH2 0x8CA DUP2 PUSH20 0xFFFFFFFFFFFFFFFFFFFFFFFFFFFFFFFFFFFFFFFF AND PUSH4 0x1B88094D PUSH1 0x40 MLOAD DUP2 PUSH4 0xFFFFFFFF AND PUSH1 0xE0 SHL DUP2 MSTORE PUSH1 0x4 ADD PUSH1 0x20 PUSH1 0x40 MLOAD DUP1 DUP4 SUB DUP2 DUP7 DUP1 EXTCODESIZE ISZERO DUP1 ISZERO PUSH2 0x72F JUMPI PUSH1 0x0 DUP1 REVERT JUMPDEST POP GAS STATICCALL ISZERO DUP1 ISZERO PUSH2 0x743 JUMPI RETURNDATASIZE PUSH1 0x0 DUP1 RETURNDATACOPY RETURNDATASIZE PUSH1 0x0 REVERT JUMPDEST POP POP POP POP PUSH1 0x40 MLOAD RETURNDATASIZE PUSH1 0x20 DUP2 LT ISZERO PUSH2 0x759 JUMPI PUSH1 0x0 DUP1 REVERT JUMPDEST POP MLOAD PUSH1 0x40 DUP1 MLOAD PUSH32 0x17D7DE7C00000000000000000000000000000000000000000000000000000000 DUP2 MSTORE SWAP1 MLOAD PUSH20 0xFFFFFFFFFFFFFFFFFFFFFFFFFFFFFFFFFFFFFFFF SWAP1 SWAP3 AND SWAP2 PUSH4 0x17D7DE7C SWAP2 PUSH1 0x4 DUP1 DUP3 ADD SWAP3 PUSH1 0x0 SWAP3 SWAP1 SWAP2 SWAP1 DUP3 SWAP1 SUB ADD DUP2 DUP7 DUP1 EXTCODESIZE ISZERO DUP1 ISZERO PUSH2 0x7C3 JUMPI PUSH1 0x0 DUP1 REVERT JUMPDEST POP GAS STATICCALL ISZERO DUP1 ISZERO PUSH2 0x7D7 JUMPI RETURNDATASIZE PUSH1 0x0 DUP1 RETURNDATACOPY RETURNDATASIZE PUSH1 0x0 REVERT JUMPDEST POP POP POP POP PUSH1 0x40 MLOAD RETURNDATASIZE PUSH1 0x0 DUP3 RETURNDATACOPY PUSH1 0x1F RETURNDATASIZE SWAP1 DUP2 ADD PUSH1 0x1F NOT AND DUP3 ADD PUSH1 0x40 MSTORE PUSH1 0x20 DUP2 LT ISZERO PUSH2 0x800 JUMPI PUSH1 0x0 DUP1 REVERT JUMPDEST DUP2 ADD SWAP1 DUP1 DUP1 MLOAD PUSH1 0x40 MLOAD SWAP4 SWAP3 SWAP2 SWAP1 DUP5 PUSH5 0x100000000 DUP3 GT ISZERO PUSH2 0x820 JUMPI PUSH1 0x0 DUP1 REVERT JUMPDEST SWAP1 DUP4 ADD SWAP1 PUSH1 0x20 DUP3 ADD DUP6 DUP2 GT ISZERO PUSH2 0x835 JUMPI PUSH1 0x0 DUP1 REVERT JUMPDEST DUP3 MLOAD PUSH5 0x100000000 DUP2 GT DUP3 DUP3 ADD DUP9 LT OR ISZERO PUSH2 0x84F JUMPI PUSH1 0x0 DUP1 REVERT JUMPDEST DUP3 MSTORE POP DUP2 MLOAD PUSH1 0x20 SWAP2 DUP3 ADD SWAP3 SWAP1 SWAP2 ADD SWAP1 DUP1 DUP4 DUP4 PUSH1 0x0 JUMPDEST DUP4 DUP2 LT ISZERO PUSH2 0x87C JUMPI DUP2 DUP2 ADD MLOAD DUP4 DUP3 ADD MSTORE PUSH1 0x20 ADD PUSH2 0x864 JUMP JUMPDEST POP POP POP POP SWAP1 POP SWAP1 DUP2 ADD SWAP1 PUSH1 0x1F AND DUP1 ISZERO PUSH2 0x8A9 JUMPI DUP1 DUP3 SUB DUP1 MLOAD PUSH1 0x1 DUP4 PUSH1 0x20 SUB PUSH2 0x100 EXP SUB NOT AND DUP2 MSTORE PUSH1 0x20 ADD SWAP2 POP JUMPDEST POP PUSH1 0x60 DUP2 ADD PUSH1 0x40 MSTORE PUSH1 0x25 DUP1 DUP3 MSTORE SWAP1 SWAP4 POP SWAP2 POP PUSH2 0x1C69 SWAP1 POP PUSH1 0x20 DUP4 ADD CODECOPY PUSH2 0x19C0 JUMP JUMPDEST PUSH2 0x935 JUMPI PUSH1 0x40 DUP1 MLOAD PUSH32 0x8C379A000000000000000000000000000000000000000000000000000000000 DUP2 MSTORE PUSH1 0x20 PUSH1 0x4 DUP3 ADD MSTORE PUSH1 0xF PUSH1 0x24 DUP3 ADD MSTORE PUSH32 0x496E636F72726563742067617567650000000000000000000000000000000000 PUSH1 0x44 DUP3 ADD MSTORE SWAP1 MLOAD SWAP1 DUP2 SWAP1 SUB PUSH1 0x64 ADD SWAP1 REVERT JUMPDEST PUSH1 0x40 DUP1 MLOAD PUSH32 0x851C1BB300000000000000000000000000000000000000000000000000000000 DUP2 MSTORE PUSH32 0xAB8F094500000000000000000000000000000000000000000000000000000000 PUSH1 0x4 DUP3 ADD MSTORE SWAP1 MLOAD PUSH1 0x0 SWAP2 PUSH20 0xFFFFFFFFFFFFFFFFFFFFFFFFFFFFFFFFFFFFFFFF PUSH32 0x0 AND SWAP2 PUSH4 0x851C1BB3 SWAP2 PUSH1 0x24 DUP1 DUP3 ADD SWAP3 PUSH1 0x20 SWAP3 SWAP1 SWAP2 SWAP1 DUP3 SWAP1 SUB ADD DUP2 DUP7 DUP1 EXTCODESIZE ISZERO DUP1 ISZERO PUSH2 0x9E5 JUMPI PUSH1 0x0 DUP1 REVERT JUMPDEST POP GAS STATICCALL ISZERO DUP1 ISZERO PUSH2 0x9F9 JUMPI RETURNDATASIZE PUSH1 0x0 DUP1 RETURNDATACOPY RETURNDATASIZE PUSH1 0x0 REVERT JUMPDEST POP POP POP POP PUSH1 0x40 MLOAD RETURNDATASIZE PUSH1 0x20 DUP2 LT ISZERO PUSH2 0xA0F JUMPI PUSH1 0x0 DUP1 REVERT JUMPDEST POP MLOAD PUSH1 0x40 DUP1 MLOAD PUSH32 0x2F2FF15D00000000000000000000000000000000000000000000000000000000 DUP2 MSTORE PUSH1 0x4 DUP2 ADD DUP4 SWAP1 MSTORE ADDRESS PUSH1 0x24 DUP3 ADD MSTORE SWAP1 MLOAD SWAP2 SWAP3 POP PUSH20 0xFFFFFFFFFFFFFFFFFFFFFFFFFFFFFFFFFFFFFFFF DUP7 AND SWAP2 PUSH4 0x2F2FF15D SWAP2 PUSH1 0x44 DUP1 DUP3 ADD SWAP3 PUSH1 0x0 SWAP3 SWAP1 SWAP2 SWAP1 DUP3 SWAP1 SUB ADD DUP2 DUP4 DUP8 DUP1 EXTCODESIZE ISZERO DUP1 ISZERO PUSH2 0xA89 JUMPI PUSH1 0x0 DUP1 REVERT JUMPDEST POP GAS CALL ISZERO DUP1 ISZERO PUSH2 0xA9D JUMPI RETURNDATASIZE PUSH1 0x0 DUP1 RETURNDATACOPY RETURNDATASIZE PUSH1 0x0 REVERT JUMPDEST POP POP POP POP PUSH2 0xAAA DUP3 PUSH2 0x19D6 JUMP JUMPDEST PUSH1 0x40 DUP1 MLOAD PUSH32 0xD547741F00000000000000000000000000000000000000000000000000000000 DUP2 MSTORE PUSH1 0x4 DUP2 ADD DUP4 SWAP1 MSTORE ADDRESS PUSH1 0x24 DUP3 ADD MSTORE SWAP1 MLOAD PUSH20 0xFFFFFFFFFFFFFFFFFFFFFFFFFFFFFFFFFFFFFFFF DUP7 AND SWAP2 PUSH4 0xD547741F SWAP2 PUSH1 0x44 DUP1 DUP4 ADD SWAP3 PUSH1 0x0 SWAP3 SWAP2 SWAP1 DUP3 SWAP1 SUB ADD DUP2 DUP4 DUP8 DUP1 EXTCODESIZE ISZERO DUP1 ISZERO PUSH2 0xB1E JUMPI PUSH1 0x0 DUP1 REVERT JUMPDEST POP GAS CALL ISZERO DUP1 ISZERO PUSH2 0xB32 JUMPI RETURNDATASIZE PUSH1 0x0 DUP1 RETURNDATACOPY RETURNDATASIZE PUSH1 0x0 REVERT JUMPDEST POP POP POP POP POP POP POP POP JUMP JUMPDEST PUSH1 0x0 PUSH2 0xB46 PUSH2 0x3F8 JUMP JUMPDEST PUSH1 0x40 DUP1 MLOAD PUSH32 0x851C1BB300000000000000000000000000000000000000000000000000000000 DUP2 MSTORE PUSH32 0xDB1CA26000000000000000000000000000000000000000000000000000000000 PUSH1 0x4 DUP3 ADD MSTORE SWAP1 MLOAD SWAP2 SWAP3 POP PUSH1 0x0 SWAP2 PUSH20 0xFFFFFFFFFFFFFFFFFFFFFFFFFFFFFFFFFFFFFFFF PUSH32 0x0 AND SWAP2 PUSH4 0x851C1BB3 SWAP2 PUSH1 0x24 DUP1 DUP4 ADD SWAP3 PUSH1 0x20 SWAP3 SWAP2 SWAP1 DUP3 SWAP1 SUB ADD DUP2 DUP7 DUP1 EXTCODESIZE ISZERO DUP1 ISZERO PUSH2 0xBF8 JUMPI PUSH1 0x0 DUP1 REVERT JUMPDEST POP GAS STATICCALL ISZERO DUP1 ISZERO PUSH2 0xC0C JUMPI RETURNDATASIZE PUSH1 0x0 DUP1 RETURNDATACOPY RETURNDATASIZE PUSH1 0x0 REVERT JUMPDEST POP POP POP POP PUSH1 0x40 MLOAD RETURNDATASIZE PUSH1 0x20 DUP2 LT ISZERO PUSH2 0xC22 JUMPI PUSH1 0x0 DUP1 REVERT JUMPDEST POP MLOAD PUSH1 0x40 DUP1 MLOAD PUSH32 0x2F2FF15D00000000000000000000000000000000000000000000000000000000 DUP2 MSTORE PUSH1 0x4 DUP2 ADD DUP4 SWAP1 MSTORE ADDRESS PUSH1 0x24 DUP3 ADD MSTORE SWAP1 MLOAD SWAP2 SWAP3 POP PUSH20 0xFFFFFFFFFFFFFFFFFFFFFFFFFFFFFFFFFFFFFFFF DUP5 AND SWAP2 PUSH4 0x2F2FF15D SWAP2 PUSH1 0x44 DUP1 DUP3 ADD SWAP3 PUSH1 0x0 SWAP3 SWAP1 SWAP2 SWAP1 DUP3 SWAP1 SUB ADD DUP2 DUP4 DUP8 DUP1 EXTCODESIZE ISZERO DUP1 ISZERO PUSH2 0xC9C JUMPI PUSH1 0x0 DUP1 REVERT JUMPDEST POP GAS CALL ISZERO DUP1 ISZERO PUSH2 0xCB0 JUMPI RETURNDATASIZE PUSH1 0x0 DUP1 RETURNDATACOPY RETURNDATASIZE PUSH1 0x0 REVERT JUMPDEST POP POP POP POP PUSH1 0x0 PUSH1 0x1 SWAP1 POP PUSH2 0xCC5 PUSH1 0x1 DUP3 PUSH2 0x1730 JUMP JUMPDEST PUSH2 0xCD0 PUSH1 0x2 DUP3 PUSH2 0x1730 JUMP JUMPDEST PUSH2 0xCDB PUSH1 0x3 DUP3 PUSH2 0x1730 JUMP JUMPDEST PUSH2 0xCE6 PUSH1 0x4 DUP3 PUSH2 0x1730 JUMP JUMPDEST PUSH1 0x40 DUP1 MLOAD PUSH32 0xD547741F00000000000000000000000000000000000000000000000000000000 DUP2 MSTORE PUSH1 0x4 DUP2 ADD DUP5 SWAP1 MSTORE ADDRESS PUSH1 0x24 DUP3 ADD MSTORE SWAP1 MLOAD PUSH20 0xFFFFFFFFFFFFFFFFFFFFFFFFFFFFFFFFFFFFFFFF DUP6 AND SWAP2 PUSH4 0xD547741F SWAP2 PUSH1 0x44 DUP1 DUP4 ADD SWAP3 PUSH1 0x0 SWAP3 SWAP2 SWAP1 DUP3 SWAP1 SUB ADD DUP2 DUP4 DUP8 DUP1 EXTCODESIZE ISZERO DUP1 ISZERO PUSH2 0xD5A JUMPI PUSH1 0x0 DUP1 REVERT JUMPDEST POP GAS CALL ISZERO DUP1 ISZERO PUSH2 0xD6E JUMPI RETURNDATASIZE PUSH1 0x0 DUP1 RETURNDATACOPY RETURNDATASIZE PUSH1 0x0 REVERT JUMPDEST POP POP POP POP POP POP POP JUMP JUMPDEST PUSH1 0x0 PUSH2 0xD81 PUSH2 0x3F8 JUMP JUMPDEST SWAP1 POP PUSH1 0x0 PUSH20 0x3C1D00181FF86FBAC0C3C52991FBFD11F6491D70 SWAP1 POP PUSH2 0xEEC DUP2 PUSH20 0xFFFFFFFFFFFFFFFFFFFFFFFFFFFFFFFFFFFFFFFF AND PUSH4 0x17D7DE7C PUSH1 0x40 MLOAD DUP2 PUSH4 0xFFFFFFFF AND PUSH1 0xE0 SHL DUP2 MSTORE PUSH1 0x4 ADD PUSH1 0x0 PUSH1 0x40 MLOAD DUP1 DUP4 SUB DUP2 DUP7 DUP1 EXTCODESIZE ISZERO DUP1 ISZERO PUSH2 0xDE5 JUMPI PUSH1 0x0 DUP1 REVERT JUMPDEST POP GAS STATICCALL ISZERO DUP1 ISZERO PUSH2 0xDF9 JUMPI RETURNDATASIZE PUSH1 0x0 DUP1 RETURNDATACOPY RETURNDATASIZE PUSH1 0x0 REVERT JUMPDEST POP POP POP POP PUSH1 0x40 MLOAD RETURNDATASIZE PUSH1 0x0 DUP3 RETURNDATACOPY PUSH1 0x1F RETURNDATASIZE SWAP1 DUP2 ADD PUSH1 0x1F NOT AND DUP3 ADD PUSH1 0x40 MSTORE PUSH1 0x20 DUP2 LT ISZERO PUSH2 0xE22 JUMPI PUSH1 0x0 DUP1 REVERT JUMPDEST DUP2 ADD SWAP1 DUP1 DUP1 MLOAD PUSH1 0x40 MLOAD SWAP4 SWAP3 SWAP2 SWAP1 DUP5 PUSH5 0x100000000 DUP3 GT ISZERO PUSH2 0xE42 JUMPI PUSH1 0x0 DUP1 REVERT JUMPDEST SWAP1 DUP4 ADD SWAP1 PUSH1 0x20 DUP3 ADD DUP6 DUP2 GT ISZERO PUSH2 0xE57 JUMPI PUSH1 0x0 DUP1 REVERT JUMPDEST DUP3 MLOAD PUSH5 0x100000000 DUP2 GT DUP3 DUP3 ADD DUP9 LT OR ISZERO PUSH2 0xE71 JUMPI PUSH1 0x0 DUP1 REVERT JUMPDEST DUP3 MSTORE POP DUP2 MLOAD PUSH1 0x20 SWAP2 DUP3 ADD SWAP3 SWAP1 SWAP2 ADD SWAP1 DUP1 DUP4 DUP4 PUSH1 0x0 JUMPDEST DUP4 DUP2 LT ISZERO PUSH2 0xE9E JUMPI DUP2 DUP2 ADD MLOAD DUP4 DUP3 ADD MSTORE PUSH1 0x20 ADD PUSH2 0xE86 JUMP JUMPDEST POP POP POP POP SWAP1 POP SWAP1 DUP2 ADD SWAP1 PUSH1 0x1F AND DUP1 ISZERO PUSH2 0xECB JUMPI DUP1 DUP3 SUB DUP1 MLOAD PUSH1 0x1 DUP4 PUSH1 0x20 SUB PUSH2 0x100 EXP SUB NOT AND DUP2 MSTORE PUSH1 0x20 ADD SWAP2 POP JUMPDEST POP PUSH1 0x60 DUP2 ADD PUSH1 0x40 MSTORE PUSH1 0x2B DUP1 DUP3 MSTORE SWAP1 SWAP4 POP SWAP2 POP PUSH2 0x1C8E SWAP1 POP PUSH1 0x20 DUP4 ADD CODECOPY PUSH2 0x19C0 JUMP JUMPDEST PUSH2 0xF57 JUMPI PUSH1 0x40 DUP1 MLOAD PUSH32 0x8C379A000000000000000000000000000000000000000000000000000000000 DUP2 MSTORE PUSH1 0x20 PUSH1 0x4 DUP3 ADD MSTORE PUSH1 0x10 PUSH1 0x24 DUP3 ADD MSTORE PUSH32 0x496E636F727265637420686F6C64657200000000000000000000000000000000 PUSH1 0x44 DUP3 ADD MSTORE SWAP1 MLOAD SWAP1 DUP2 SWAP1 SUB PUSH1 0x64 ADD SWAP1 REVERT JUMPDEST PUSH1 0x0 PUSH20 0xC925FCE89A22E36EBD9B3C6E0262234E853D2F6 SWAP1 POP PUSH2 0x10C0 DUP2 PUSH20 0xFFFFFFFFFFFFFFFFFFFFFFFFFFFFFFFFFFFFFFFF AND PUSH4 0x17D7DE7C PUSH1 0x40 MLOAD DUP2 PUSH4 0xFFFFFFFF AND PUSH1 0xE0 SHL DUP2 MSTORE PUSH1 0x4 ADD PUSH1 0x0 PUSH1 0x40 MLOAD DUP1 DUP4 SUB DUP2 DUP7 DUP1 EXTCODESIZE ISZERO DUP1 ISZERO PUSH2 0xFB9 JUMPI PUSH1 0x0 DUP1 REVERT JUMPDEST POP GAS STATICCALL ISZERO DUP1 ISZERO PUSH2 0xFCD JUMPI RETURNDATASIZE PUSH1 0x0 DUP1 RETURNDATACOPY RETURNDATASIZE PUSH1 0x0 REVERT JUMPDEST POP POP POP POP PUSH1 0x40 MLOAD RETURNDATASIZE PUSH1 0x0 DUP3 RETURNDATACOPY PUSH1 0x1F RETURNDATASIZE SWAP1 DUP2 ADD PUSH1 0x1F NOT AND DUP3 ADD PUSH1 0x40 MSTORE PUSH1 0x20 DUP2 LT ISZERO PUSH2 0xFF6 JUMPI PUSH1 0x0 DUP1 REVERT JUMPDEST DUP2 ADD SWAP1 DUP1 DUP1 MLOAD PUSH1 0x40 MLOAD SWAP4 SWAP3 SWAP2 SWAP1 DUP5 PUSH5 0x100000000 DUP3 GT ISZERO PUSH2 0x1016 JUMPI PUSH1 0x0 DUP1 REVERT JUMPDEST SWAP1 DUP4 ADD SWAP1 PUSH1 0x20 DUP3 ADD DUP6 DUP2 GT ISZERO PUSH2 0x102B JUMPI PUSH1 0x0 DUP1 REVERT JUMPDEST DUP3 MLOAD PUSH5 0x100000000 DUP2 GT DUP3 DUP3 ADD DUP9 LT OR ISZERO PUSH2 0x1045 JUMPI PUSH1 0x0 DUP1 REVERT JUMPDEST DUP3 MSTORE POP DUP2 MLOAD PUSH1 0x20 SWAP2 DUP3 ADD SWAP3 SWAP1 SWAP2 ADD SWAP1 DUP1 DUP4 DUP4 PUSH1 0x0 JUMPDEST DUP4 DUP2 LT ISZERO PUSH2 0x1072 JUMPI DUP2 DUP2 ADD MLOAD DUP4 DUP3 ADD MSTORE PUSH1 0x20 ADD PUSH2 0x105A JUMP JUMPDEST POP POP POP POP SWAP1 POP SWAP1 DUP2 ADD SWAP1 PUSH1 0x1F AND DUP1 ISZERO PUSH2 0x109F JUMPI DUP1 DUP3 SUB DUP1 MLOAD PUSH1 0x1 DUP4 PUSH1 0x20 SUB PUSH2 0x100 EXP SUB NOT AND DUP2 MSTORE PUSH1 0x20 ADD SWAP2 POP JUMPDEST POP PUSH1 0x60 DUP2 ADD PUSH1 0x40 MSTORE PUSH1 0x2E DUP1 DUP3 MSTORE SWAP1 SWAP4 POP SWAP2 POP PUSH2 0x1CE6 SWAP1 POP PUSH1 0x20 DUP4 ADD CODECOPY PUSH2 0x19C0 JUMP JUMPDEST PUSH2 0x112B JUMPI PUSH1 0x40 DUP1 MLOAD PUSH32 0x8C379A000000000000000000000000000000000000000000000000000000000 DUP2 MSTORE PUSH1 0x20 PUSH1 0x4 DUP3 ADD MSTORE PUSH1 0x10 PUSH1 0x24 DUP3 ADD MSTORE PUSH32 0x496E636F727265637420686F6C64657200000000000000000000000000000000 PUSH1 0x44 DUP3 ADD MSTORE SWAP1 MLOAD SWAP1 DUP2 SWAP1 SUB PUSH1 0x64 ADD SWAP1 REVERT JUMPDEST PUSH1 0x0 PUSH20 0x98087BF6A5CA828A6E09391ACE674DBABB6A4C56 SWAP1 POP PUSH2 0x1294 DUP2 PUSH20 0xFFFFFFFFFFFFFFFFFFFFFFFFFFFFFFFFFFFFFFFF AND PUSH4 0x17D7DE7C PUSH1 0x40 MLOAD DUP2 PUSH4 0xFFFFFFFF AND PUSH1 0xE0 SHL DUP2 MSTORE PUSH1 0x4 ADD PUSH1 0x0 PUSH1 0x40 MLOAD DUP1 DUP4 SUB DUP2 DUP7 DUP1 EXTCODESIZE ISZERO DUP1 ISZERO PUSH2 0x118D JUMPI PUSH1 0x0 DUP1 REVERT JUMPDEST POP GAS STATICCALL ISZERO DUP1 ISZERO PUSH2 0x11A1 JUMPI RETURNDATASIZE PUSH1 0x0 DUP1 RETURNDATACOPY RETURNDATASIZE PUSH1 0x0 REVERT JUMPDEST POP POP POP POP PUSH1 0x40 MLOAD RETURNDATASIZE PUSH1 0x0 DUP3 RETURNDATACOPY PUSH1 0x1F RETURNDATASIZE SWAP1 DUP2 ADD PUSH1 0x1F NOT AND DUP3 ADD PUSH1 0x40 MSTORE PUSH1 0x20 DUP2 LT ISZERO PUSH2 0x11CA JUMPI PUSH1 0x0 DUP1 REVERT JUMPDEST DUP2 ADD SWAP1 DUP1 DUP1 MLOAD PUSH1 0x40 MLOAD SWAP4 SWAP3 SWAP2 SWAP1 DUP5 PUSH5 0x100000000 DUP3 GT ISZERO PUSH2 0x11EA JUMPI PUSH1 0x0 DUP1 REVERT JUMPDEST SWAP1 DUP4 ADD SWAP1 PUSH1 0x20 DUP3 ADD DUP6 DUP2 GT ISZERO PUSH2 0x11FF JUMPI PUSH1 0x0 DUP1 REVERT JUMPDEST DUP3 MLOAD PUSH5 0x100000000 DUP2 GT DUP3 DUP3 ADD DUP9 LT OR ISZERO PUSH2 0x1219 JUMPI PUSH1 0x0 DUP1 REVERT JUMPDEST DUP3 MSTORE POP DUP2 MLOAD PUSH1 0x20 SWAP2 DUP3 ADD SWAP3 SWAP1 SWAP2 ADD SWAP1 DUP1 DUP4 DUP4 PUSH1 0x0 JUMPDEST DUP4 DUP2 LT ISZERO PUSH2 0x1246 JUMPI DUP2 DUP2 ADD MLOAD DUP4 DUP3 ADD MSTORE PUSH1 0x20 ADD PUSH2 0x122E JUMP JUMPDEST POP POP POP POP SWAP1 POP SWAP1 DUP2 ADD SWAP1 PUSH1 0x1F AND DUP1 ISZERO PUSH2 0x1273 JUMPI DUP1 DUP3 SUB DUP1 MLOAD PUSH1 0x1 DUP4 PUSH1 0x20 SUB PUSH2 0x100 EXP SUB NOT AND DUP2 MSTORE PUSH1 0x20 ADD SWAP2 POP JUMPDEST POP PUSH1 0x60 DUP2 ADD PUSH1 0x40 MSTORE PUSH1 0x2D DUP1 DUP3 MSTORE SWAP1 SWAP4 POP SWAP2 POP PUSH2 0x1CB9 SWAP1 POP PUSH1 0x20 DUP4 ADD CODECOPY PUSH2 0x19C0 JUMP JUMPDEST PUSH2 0x12FF JUMPI PUSH1 0x40 DUP1 MLOAD PUSH32 0x8C379A000000000000000000000000000000000000000000000000000000000 DUP2 MSTORE PUSH1 0x20 PUSH1 0x4 DUP3 ADD MSTORE PUSH1 0x10 PUSH1 0x24 DUP3 ADD MSTORE PUSH32 0x496E636F727265637420686F6C64657200000000000000000000000000000000 PUSH1 0x44 DUP3 ADD MSTORE SWAP1 MLOAD SWAP1 DUP2 SWAP1 SUB PUSH1 0x64 ADD SWAP1 REVERT JUMPDEST PUSH1 0x40 DUP1 MLOAD PUSH32 0x851C1BB300000000000000000000000000000000000000000000000000000000 DUP2 MSTORE PUSH32 0x40C10F1900000000000000000000000000000000000000000000000000000000 PUSH1 0x4 DUP3 ADD MSTORE SWAP1 MLOAD PUSH1 0x0 SWAP2 PUSH20 0xFFFFFFFFFFFFFFFFFFFFFFFFFFFFFFFFFFFFFFFF PUSH32 0x0 AND SWAP2 PUSH4 0x851C1BB3 SWAP2 PUSH1 0x24 DUP1 DUP3 ADD SWAP3 PUSH1 0x20 SWAP3 SWAP1 SWAP2 SWAP1 DUP3 SWAP1 SUB ADD DUP2 DUP7 DUP1 EXTCODESIZE ISZERO DUP1 ISZERO PUSH2 0x13AF JUMPI PUSH1 0x0 DUP1 REVERT JUMPDEST POP GAS STATICCALL ISZERO DUP1 ISZERO PUSH2 0x13C3 JUMPI RETURNDATASIZE PUSH1 0x0 DUP1 RETURNDATACOPY RETURNDATASIZE PUSH1 0x0 REVERT JUMPDEST POP POP POP POP PUSH1 0x40 MLOAD RETURNDATASIZE PUSH1 0x20 DUP2 LT ISZERO PUSH2 0x13D9 JUMPI PUSH1 0x0 DUP1 REVERT JUMPDEST POP MLOAD PUSH1 0x40 DUP1 MLOAD PUSH32 0x2F2FF15D00000000000000000000000000000000000000000000000000000000 DUP2 MSTORE PUSH1 0x4 DUP2 ADD DUP4 SWAP1 MSTORE ADDRESS PUSH1 0x24 DUP3 ADD MSTORE SWAP1 MLOAD SWAP2 SWAP3 POP PUSH20 0xFFFFFFFFFFFFFFFFFFFFFFFFFFFFFFFFFFFFFFFF DUP8 AND SWAP2 PUSH4 0x2F2FF15D SWAP2 PUSH1 0x44 DUP1 DUP3 ADD SWAP3 PUSH1 0x0 SWAP3 SWAP1 SWAP2 SWAP1 DUP3 SWAP1 SUB ADD DUP2 DUP4 DUP8 DUP1 EXTCODESIZE ISZERO DUP1 ISZERO PUSH2 0x1453 JUMPI PUSH1 0x0 DUP1 REVERT JUMPDEST POP GAS CALL ISZERO DUP1 ISZERO PUSH2 0x1467 JUMPI RETURNDATASIZE PUSH1 0x0 DUP1 RETURNDATACOPY RETURNDATASIZE PUSH1 0x0 REVERT JUMPDEST POP POP POP POP PUSH32 0x0 PUSH20 0xFFFFFFFFFFFFFFFFFFFFFFFFFFFFFFFFFFFFFFFF AND PUSH4 0x40C10F19 DUP6 PUSH10 0x62417D8AF6A38200000 PUSH1 0x40 MLOAD DUP4 PUSH4 0xFFFFFFFF AND PUSH1 0xE0 SHL DUP2 MSTORE PUSH1 0x4 ADD DUP1 DUP4 PUSH20 0xFFFFFFFFFFFFFFFFFFFFFFFFFFFFFFFFFFFFFFFF AND DUP2 MSTORE PUSH1 0x20 ADD DUP3 DUP2 MSTORE PUSH1 0x20 ADD SWAP3 POP POP POP PUSH1 0x0 PUSH1 0x40 MLOAD DUP1 DUP4 SUB DUP2 PUSH1 0x0 DUP8 DUP1 EXTCODESIZE ISZERO DUP1 ISZERO PUSH2 0x1506 JUMPI PUSH1 0x0 DUP1 REVERT JUMPDEST POP GAS CALL ISZERO DUP1 ISZERO PUSH2 0x151A JUMPI RETURNDATASIZE PUSH1 0x0 DUP1 RETURNDATACOPY RETURNDATASIZE PUSH1 0x0 REVERT JUMPDEST POP POP POP POP PUSH32 0x0 PUSH20 0xFFFFFFFFFFFFFFFFFFFFFFFFFFFFFFFFFFFFFFFF AND PUSH4 0x40C10F19 DUP5 PUSH10 0x44C7717ADFD8DB00000 PUSH1 0x40 MLOAD DUP4 PUSH4 0xFFFFFFFF AND PUSH1 0xE0 SHL DUP2 MSTORE PUSH1 0x4 ADD DUP1 DUP4 PUSH20 0xFFFFFFFFFFFFFFFFFFFFFFFFFFFFFFFFFFFFFFFF AND DUP2 MSTORE PUSH1 0x20 ADD DUP3 DUP2 MSTORE PUSH1 0x20 ADD SWAP3 POP POP POP PUSH1 0x0 PUSH1 0x40 MLOAD DUP1 DUP4 SUB DUP2 PUSH1 0x0 DUP8 DUP1 EXTCODESIZE ISZERO DUP1 ISZERO PUSH2 0x15B9 JUMPI PUSH1 0x0 DUP1 REVERT JUMPDEST POP GAS CALL ISZERO DUP1 ISZERO PUSH2 0x15CD JUMPI RETURNDATASIZE PUSH1 0x0 DUP1 RETURNDATACOPY RETURNDATASIZE PUSH1 0x0 REVERT JUMPDEST POP POP POP POP PUSH32 0x0 PUSH20 0xFFFFFFFFFFFFFFFFFFFFFFFFFFFFFFFFFFFFFFFF AND PUSH4 0x40C10F19 DUP4 PUSH10 0xA708EF05D67C5D00000 PUSH1 0x40 MLOAD DUP4 PUSH4 0xFFFFFFFF AND PUSH1 0xE0 SHL DUP2 MSTORE PUSH1 0x4 ADD DUP1 DUP4 PUSH20 0xFFFFFFFFFFFFFFFFFFFFFFFFFFFFFFFFFFFFFFFF AND DUP2 MSTORE PUSH1 0x20 ADD DUP3 DUP2 MSTORE PUSH1 0x20 ADD SWAP3 POP POP POP PUSH1 0x0 PUSH1 0x40 MLOAD DUP1 DUP4 SUB DUP2 PUSH1 0x0 DUP8 DUP1 EXTCODESIZE ISZERO DUP1 ISZERO PUSH2 0x166C JUMPI PUSH1 0x0 DUP1 REVERT JUMPDEST POP GAS CALL ISZERO DUP1 ISZERO PUSH2 0x1680 JUMPI RETURNDATASIZE PUSH1 0x0 DUP1 RETURNDATACOPY RETURNDATASIZE PUSH1 0x0 REVERT JUMPDEST POP POP PUSH1 0x40 DUP1 MLOAD PUSH32 0xD547741F00000000000000000000000000000000000000000000000000000000 DUP2 MSTORE PUSH1 0x4 DUP2 ADD DUP6 SWAP1 MSTORE ADDRESS PUSH1 0x24 DUP3 ADD MSTORE SWAP1 MLOAD PUSH20 0xFFFFFFFFFFFFFFFFFFFFFFFFFFFFFFFFFFFFFFFF DUP10 AND SWAP4 POP PUSH4 0xD547741F SWAP3 POP PUSH1 0x44 DUP1 DUP4 ADD SWAP3 PUSH1 0x0 SWAP3 SWAP2 SWAP1 DUP3 SWAP1 SUB ADD DUP2 DUP4 DUP8 DUP1 EXTCODESIZE ISZERO DUP1 ISZERO PUSH2 0x16F8 JUMPI PUSH1 0x0 DUP1 REVERT JUMPDEST POP GAS CALL ISZERO DUP1 ISZERO PUSH2 0x170C JUMPI RETURNDATASIZE PUSH1 0x0 DUP1 RETURNDATACOPY RETURNDATASIZE PUSH1 0x0 REVERT JUMPDEST POP POP POP POP POP POP POP POP POP JUMP JUMPDEST PUSH1 0x1 PUSH1 0x0 SSTORE JUMP JUMPDEST DUP2 PUSH2 0x172C JUMPI PUSH2 0x172C DUP2 PUSH2 0x1BFB JUMP JUMPDEST POP POP JUMP JUMPDEST PUSH2 0x1738 PUSH2 0x481 JUMP JUMPDEST PUSH20 0xFFFFFFFFFFFFFFFFFFFFFFFFFFFFFFFFFFFFFFFF AND PUSH4 0x4036176A PUSH32 0x0 PUSH32 0xDB1CA26000000000000000000000000000000000000000000000000000000000 DUP6 PUSH1 0x4 DUP2 GT ISZERO PUSH2 0x17A1 JUMPI INVALID JUMPDEST DUP6 PUSH1 0x40 MLOAD PUSH1 0x24 ADD DUP1 DUP4 PUSH1 0xF SIGNEXTEND DUP2 MSTORE PUSH1 0x20 ADD DUP3 DUP2 MSTORE PUSH1 0x20 ADD SWAP3 POP POP POP PUSH1 0x40 MLOAD PUSH1 0x20 DUP2 DUP4 SUB SUB DUP2 MSTORE SWAP1 PUSH1 0x40 MSTORE SWAP1 PUSH28 0xFFFFFFFFFFFFFFFFFFFFFFFFFFFFFFFFFFFFFFFFFFFFFFFFFFFFFFFF NOT AND PUSH1 0x20 DUP3 ADD DUP1 MLOAD PUSH28 0xFFFFFFFFFFFFFFFFFFFFFFFFFFFFFFFFFFFFFFFFFFFFFFFFFFFFFFFF DUP4 DUP2 DUP4 AND OR DUP4 MSTORE POP POP POP POP PUSH1 0x40 MLOAD DUP4 PUSH4 0xFFFFFFFF AND PUSH1 0xE0 SHL DUP2 MSTORE PUSH1 0x4 ADD DUP1 DUP4 PUSH20 0xFFFFFFFFFFFFFFFFFFFFFFFFFFFFFFFFFFFFFFFF AND DUP2 MSTORE PUSH1 0x20 ADD DUP1 PUSH1 0x20 ADD DUP3 DUP2 SUB DUP3 MSTORE DUP4 DUP2 DUP2 MLOAD DUP2 MSTORE PUSH1 0x20 ADD SWAP2 POP DUP1 MLOAD SWAP1 PUSH1 0x20 ADD SWAP1 DUP1 DUP4 DUP4 PUSH1 0x0 JUMPDEST DUP4 DUP2 LT ISZERO PUSH2 0x1881 JUMPI DUP2 DUP2 ADD MLOAD DUP4 DUP3 ADD MSTORE PUSH1 0x20 ADD PUSH2 0x1869 JUMP JUMPDEST POP POP POP POP SWAP1 POP SWAP1 DUP2 ADD SWAP1 PUSH1 0x1F AND DUP1 ISZERO PUSH2 0x18AE JUMPI DUP1 DUP3 SUB DUP1 MLOAD PUSH1 0x1 DUP4 PUSH1 0x20 SUB PUSH2 0x100 EXP SUB NOT AND DUP2 MSTORE PUSH1 0x20 ADD SWAP2 POP JUMPDEST POP SWAP4 POP POP POP POP PUSH1 0x0 PUSH1 0x40 MLOAD DUP1 DUP4 SUB DUP2 PUSH1 0x0 DUP8 DUP1 EXTCODESIZE ISZERO DUP1 ISZERO PUSH2 0x18CE JUMPI PUSH1 0x0 DUP1 REVERT JUMPDEST POP GAS CALL ISZERO DUP1 ISZERO PUSH2 0x18E2 JUMPI RETURNDATASIZE PUSH1 0x0 DUP1 RETURNDATACOPY RETURNDATASIZE PUSH1 0x0 REVERT JUMPDEST POP POP POP POP PUSH1 0x40 MLOAD RETURNDATASIZE PUSH1 0x0 DUP3 RETURNDATACOPY PUSH1 0x1F RETURNDATASIZE SWAP1 DUP2 ADD PUSH1 0x1F NOT AND DUP3 ADD PUSH1 0x40 MSTORE PUSH1 0x20 DUP2 LT ISZERO PUSH2 0x190B JUMPI PUSH1 0x0 DUP1 REVERT JUMPDEST DUP2 ADD SWAP1 DUP1 DUP1 MLOAD PUSH1 0x40 MLOAD SWAP4 SWAP3 SWAP2 SWAP1 DUP5 PUSH5 0x100000000 DUP3 GT ISZERO PUSH2 0x192B JUMPI PUSH1 0x0 DUP1 REVERT JUMPDEST SWAP1 DUP4 ADD SWAP1 PUSH1 0x20 DUP3 ADD DUP6 DUP2 GT ISZERO PUSH2 0x1940 JUMPI PUSH1 0x0 DUP1 REVERT JUMPDEST DUP3 MLOAD PUSH5 0x100000000 DUP2 GT DUP3 DUP3 ADD DUP9 LT OR ISZERO PUSH2 0x195A JUMPI PUSH1 0x0 DUP1 REVERT JUMPDEST DUP3 MSTORE POP DUP2 MLOAD PUSH1 0x20 SWAP2 DUP3 ADD SWAP3 SWAP1 SWAP2 ADD SWAP1 DUP1 DUP4 DUP4 PUSH1 0x0 JUMPDEST DUP4 DUP2 LT ISZERO PUSH2 0x1987 JUMPI DUP2 DUP2 ADD MLOAD DUP4 DUP3 ADD MSTORE PUSH1 0x20 ADD PUSH2 0x196F JUMP JUMPDEST POP POP POP POP SWAP1 POP SWAP1 DUP2 ADD SWAP1 PUSH1 0x1F AND DUP1 ISZERO PUSH2 0x19B4 JUMPI DUP1 DUP3 SUB DUP1 MLOAD PUSH1 0x1 DUP4 PUSH1 0x20 SUB PUSH2 0x100 EXP SUB NOT AND DUP2 MSTORE PUSH1 0x20 ADD SWAP2 POP JUMPDEST POP PUSH1 0x40 MSTORE POP POP POP POP POP POP JUMP JUMPDEST DUP1 MLOAD PUSH1 0x20 SWAP2 DUP3 ADD KECCAK256 DUP3 MLOAD SWAP3 SWAP1 SWAP2 ADD SWAP2 SWAP1 SWAP2 KECCAK256 EQ SWAP1 JUMP JUMPDEST PUSH2 0x19DE PUSH2 0x481 JUMP JUMPDEST PUSH1 0x40 DUP1 MLOAD PUSH1 0x4 DUP1 DUP3 MSTORE PUSH1 0x24 DUP1 DUP4 ADD DUP5 MSTORE PUSH1 0x20 DUP4 ADD DUP1 MLOAD PUSH28 0xFFFFFFFFFFFFFFFFFFFFFFFFFFFFFFFFFFFFFFFFFFFFFFFFFFFFFFFF AND PUSH32 0xAB8F094500000000000000000000000000000000000000000000000000000000 OR DUP2 MSTORE DUP5 MLOAD PUSH32 0x4036176A00000000000000000000000000000000000000000000000000000000 DUP2 MSTORE PUSH20 0xFFFFFFFFFFFFFFFFFFFFFFFFFFFFFFFFFFFFFFFF DUP9 DUP2 AND SWAP5 DUP3 ADD SWAP5 DUP6 MSTORE SWAP3 DUP2 ADD SWAP6 DUP7 MSTORE DUP5 MLOAD PUSH1 0x44 DUP3 ADD MSTORE DUP5 MLOAD SWAP7 SWAP1 SWAP3 AND SWAP6 PUSH4 0x4036176A SWAP6 DUP9 SWAP6 SWAP5 SWAP4 SWAP1 SWAP3 PUSH1 0x64 SWAP1 SWAP2 ADD SWAP2 DUP1 DUP4 DUP4 PUSH1 0x0 JUMPDEST DUP4 DUP2 LT ISZERO PUSH2 0x1ABD JUMPI DUP2 DUP2 ADD MLOAD DUP4 DUP3 ADD MSTORE PUSH1 0x20 ADD PUSH2 0x1AA5 JUMP JUMPDEST POP POP POP POP SWAP1 POP SWAP1 DUP2 ADD SWAP1 PUSH1 0x1F AND DUP1 ISZERO PUSH2 0x1AEA JUMPI DUP1 DUP3 SUB DUP1 MLOAD PUSH1 0x1 DUP4 PUSH1 0x20 SUB PUSH2 0x100 EXP SUB NOT AND DUP2 MSTORE PUSH1 0x20 ADD SWAP2 POP JUMPDEST POP SWAP4 POP POP POP POP PUSH1 0x0 PUSH1 0x40 MLOAD DUP1 DUP4 SUB DUP2 PUSH1 0x0 DUP8 DUP1 EXTCODESIZE ISZERO DUP1 ISZERO PUSH2 0x1B0A JUMPI PUSH1 0x0 DUP1 REVERT JUMPDEST POP GAS CALL ISZERO DUP1 ISZERO PUSH2 0x1B1E JUMPI RETURNDATASIZE PUSH1 0x0 DUP1 RETURNDATACOPY RETURNDATASIZE PUSH1 0x0 REVERT JUMPDEST POP POP POP POP PUSH1 0x40 MLOAD RETURNDATASIZE PUSH1 0x0 DUP3 RETURNDATACOPY PUSH1 0x1F RETURNDATASIZE SWAP1 DUP2 ADD PUSH1 0x1F NOT AND DUP3 ADD PUSH1 0x40 MSTORE PUSH1 0x20 DUP2 LT ISZERO PUSH2 0x1B47 JUMPI PUSH1 0x0 DUP1 REVERT JUMPDEST DUP2 ADD SWAP1 DUP1 DUP1 MLOAD PUSH1 0x40 MLOAD SWAP4 SWAP3 SWAP2 SWAP1 DUP5 PUSH5 0x100000000 DUP3 GT ISZERO PUSH2 0x1B67 JUMPI PUSH1 0x0 DUP1 REVERT JUMPDEST SWAP1 DUP4 ADD SWAP1 PUSH1 0x20 DUP3 ADD DUP6 DUP2 GT ISZERO PUSH2 0x1B7C JUMPI PUSH1 0x0 DUP1 REVERT JUMPDEST DUP3 MLOAD PUSH5 0x100000000 DUP2 GT DUP3 DUP3 ADD DUP9 LT OR ISZERO PUSH2 0x1B96 JUMPI PUSH1 0x0 DUP1 REVERT JUMPDEST DUP3 MSTORE POP DUP2 MLOAD PUSH1 0x20 SWAP2 DUP3 ADD SWAP3 SWAP1 SWAP2 ADD SWAP1 DUP1 DUP4 DUP4 PUSH1 0x0 JUMPDEST DUP4 DUP2 LT ISZERO PUSH2 0x1BC3 JUMPI DUP2 DUP2 ADD MLOAD DUP4 DUP3 ADD MSTORE PUSH1 0x20 ADD PUSH2 0x1BAB JUMP JUMPDEST POP POP POP POP SWAP1 POP SWAP1 DUP2 ADD SWAP1 PUSH1 0x1F AND DUP1 ISZERO PUSH2 0x1BF0 JUMPI DUP1 DUP3 SUB DUP1 MLOAD PUSH1 0x1 DUP4 PUSH1 0x20 SUB PUSH2 0x100 EXP SUB NOT AND DUP2 MSTORE PUSH1 0x20 ADD SWAP2 POP JUMPDEST POP PUSH1 0x40 MSTORE POP POP POP POP POP JUMP JUMPDEST PUSH32 0x8C379A000000000000000000000000000000000000000000000000000000000 PUSH1 0x0 SWAP1 DUP2 MSTORE PUSH1 0x20 PUSH1 0x4 MSTORE PUSH1 0x7 PUSH1 0x24 MSTORE PUSH7 0x42414C23000030 PUSH1 0xA DUP1 DUP5 DIV DUP2 DUP2 MOD PUSH1 0x30 SWAP1 DUP2 ADD PUSH1 0x8 SHL SWAP6 DUP4 SWAP1 MOD SWAP6 SWAP1 SWAP6 ADD SWAP1 DUP3 SWAP1 DIV SWAP2 DUP3 MOD SWAP1 SWAP5 ADD PUSH1 0x10 SHL SWAP4 SWAP1 SWAP4 ADD ADD PUSH1 0xC8 SHL PUSH1 0x44 MSTORE PUSH1 0x64 SWAP1 REVERT INVALID 0x4C PUSH10 0x71756964697479204D69 PUSH15 0x696E6720436F6D6D69747465652042 COINBASE 0x4C KECCAK256 0x48 PUSH16 0x6C64657254656D706F72617279207665 TIMESTAMP COINBASE 0x4C KECCAK256 0x4C PUSH10 0x71756964697479204D69 PUSH15 0x696E672042414C20486F6C64657254 PUSH6 0x6D706F726172 PUSH26 0x20506F6C79676F6E204C6971756964697479204D696E696E6720 TIMESTAMP COINBASE 0x4C KECCAK256 0x48 PUSH16 0x6C64657254656D706F72617279204172 PUSH3 0x697472 PUSH22 0x6D204C6971756964697479204D696E696E672042414C KECCAK256 0x48 PUSH16 0x6C646572A26469706673582212206ECA PUSH16 0xC7FF3F70601F5E391C419FF1AA3C3BBD PUSH2 0xF120 0xA7 0xEF 0xBA DUP3 PUSH19 0xDB84446C9564736F6C63430007010033000000 "
        },
        "methodIdentifiers": {
          "ARBITRUM_BAL_MINT_AMOUNT()": "37daf0f5",
          "POLYGON_BAL_MINT_AMOUNT()": "62f3aac1",
          "VEBAL_BAL_MINT_AMOUNT()": "31102353",
          "getAuthorizer()": "aaabadc5",
          "getAuthorizerAdaptor()": "e758d36b",
          "getCurrentDeploymentStage()": "b77984e9",
          "getVault()": "8d928af8",
          "performFirstStage()": "2bd46566"
        }
      }
    }
  }
}