{
  "_format": "hh-sol-artifact-1",
  "contractName": "ComposableStablePoolFactory",
  "sourceName": "contracts/ComposableStablePoolFactory.sol",
  "abi": [
    {
      "inputs": [
        {
          "internalType": "contract IVault",
          "name": "vault",
          "type": "address"
        },
        {
          "internalType": "contract IProtocolFeePercentagesProvider",
          "name": "protocolFeeProvider",
          "type": "address"
        },
        {
          "internalType": "string",
          "name": "factoryVersion",
          "type": "string"
        },
        {
          "internalType": "string",
          "name": "poolVersion",
          "type": "string"
        }
      ],
      "stateMutability": "nonpayable",
      "type": "constructor"
    },
    {
      "anonymous": false,
      "inputs": [],
      "name": "FactoryDisabled",
      "type": "event"
    },
    {
      "anonymous": false,
      "inputs": [
        {
          "indexed": true,
          "internalType": "address",
          "name": "pool",
          "type": "address"
        }
      ],
      "name": "PoolCreated",
      "type": "event"
    },
    {
      "inputs": [
        {
          "internalType": "string",
          "name": "name",
          "type": "string"
        },
        {
          "internalType": "string",
          "name": "symbol",
          "type": "string"
        },
        {
          "internalType": "contract IERC20[]",
          "name": "tokens",
          "type": "address[]"
        },
        {
          "internalType": "uint256",
          "name": "amplificationParameter",
          "type": "uint256"
        },
        {
          "internalType": "contract IRateProvider[]",
          "name": "rateProviders",
          "type": "address[]"
        },
        {
          "internalType": "uint256[]",
          "name": "tokenRateCacheDurations",
          "type": "uint256[]"
        },
        {
          "internalType": "bool[]",
          "name": "exemptFromYieldProtocolFeeFlags",
          "type": "bool[]"
        },
        {
          "internalType": "uint256",
          "name": "swapFeePercentage",
          "type": "uint256"
        },
        {
          "internalType": "address",
          "name": "owner",
          "type": "address"
        }
      ],
      "name": "create",
      "outputs": [
        {
          "internalType": "contract ComposableStablePool",
          "name": "",
          "type": "address"
        }
      ],
      "stateMutability": "nonpayable",
      "type": "function"
    },
    {
      "inputs": [],
      "name": "disable",
      "outputs": [],
      "stateMutability": "nonpayable",
      "type": "function"
    },
    {
      "inputs": [
        {
          "internalType": "bytes4",
          "name": "selector",
          "type": "bytes4"
        }
      ],
      "name": "getActionId",
      "outputs": [
        {
          "internalType": "bytes32",
          "name": "",
          "type": "bytes32"
        }
      ],
      "stateMutability": "view",
      "type": "function"
    },
    {
      "inputs": [],
      "name": "getAuthorizer",
      "outputs": [
        {
          "internalType": "contract IAuthorizer",
          "name": "",
          "type": "address"
        }
      ],
      "stateMutability": "view",
      "type": "function"
    },
    {
      "inputs": [],
      "name": "getCreationCode",
      "outputs": [
        {
          "internalType": "bytes",
          "name": "",
          "type": "bytes"
        }
      ],
      "stateMutability": "view",
      "type": "function"
    },
    {
      "inputs": [],
      "name": "getCreationCodeContracts",
      "outputs": [
        {
          "internalType": "address",
          "name": "contractA",
          "type": "address"
        },
        {
          "internalType": "address",
          "name": "contractB",
          "type": "address"
        }
      ],
      "stateMutability": "view",
      "type": "function"
    },
    {
      "inputs": [],
      "name": "getPauseConfiguration",
      "outputs": [
        {
          "internalType": "uint256",
          "name": "pauseWindowDuration",
          "type": "uint256"
        },
        {
          "internalType": "uint256",
          "name": "bufferPeriodDuration",
          "type": "uint256"
        }
      ],
      "stateMutability": "view",
      "type": "function"
    },
    {
      "inputs": [],
      "name": "getPoolVersion",
      "outputs": [
        {
          "internalType": "string",
          "name": "",
          "type": "string"
        }
      ],
      "stateMutability": "view",
      "type": "function"
    },
    {
      "inputs": [],
      "name": "getProtocolFeePercentagesProvider",
      "outputs": [
        {
          "internalType": "contract IProtocolFeePercentagesProvider",
          "name": "",
          "type": "address"
        }
      ],
      "stateMutability": "view",
      "type": "function"
    },
    {
      "inputs": [],
      "name": "getVault",
      "outputs": [
        {
          "internalType": "contract IVault",
          "name": "",
          "type": "address"
        }
      ],
      "stateMutability": "view",
      "type": "function"
    },
    {
      "inputs": [],
      "name": "isDisabled",
      "outputs": [
        {
          "internalType": "bool",
          "name": "",
          "type": "bool"
        }
      ],
      "stateMutability": "view",
      "type": "function"
    },
    {
      "inputs": [
        {
          "internalType": "address",
          "name": "pool",
          "type": "address"
        }
      ],
      "name": "isPoolFromFactory",
      "outputs": [
        {
          "internalType": "bool",
          "name": "",
          "type": "bool"
        }
      ],
      "stateMutability": "view",
      "type": "function"
    },
    {
      "inputs": [],
      "name": "version",
      "outputs": [
        {
          "internalType": "string",
          "name": "",
          "type": "string"
        }
      ],
      "stateMutability": "view",
      "type": "function"
    }
  ],
  "bytecode": "0x6101806040523480156200001257600080fd5b50604051620097243803806200972483398101604081905262000035916200036d565b83836040518060200162000049906200021c565b601f1982820381018352601f90910116604052805183903090839060006002820460a081905280830360e08190528185529091508362000095816200013d602090811b6200067c17901c565b60601b6001600160601b0319166080528285018051838252620000c4826200013d602090811b6200067c17901c565b6001600160601b0319606091821b811660c05296909352905261010095909552505092821b831661012052509290921b909116610140525050426276a700016101605281516200011c9060029060208501906200022a565b508051620001329060039060208401906200022a565b505050505062000415565b80517f602038038060206000396000f3fefefefefefefefefefefefefefefefefefefe808352600091602081018484f090845291506200018b6001600160a01b03831615156101ac62000191565b50919050565b81620001a257620001a281620001a6565b5050565b620001b8816210905360ea1b620001bb565b50565b62461bcd60e51b600090815260206004526007602452600a808404818106603090810160081b958390069590950190829004918206850160101b01602363ffffff0060e086901c160160181b0190930160c81b60445260e882901c90606490fd5b617ff3806200173183390190565b828054600181600116156101000203166002900490600052602060002090601f016020900481019282601f106200026d57805160ff19168380011785556200029d565b828001600101855582156200029d579182015b828111156200029d57825182559160200191906001019062000280565b50620002ab929150620002af565b5090565b5b80821115620002ab5760008155600101620002b0565b600082601f830112620002d7578081fd5b81516001600160401b0380821115620002ee578283fd5b6040516020601f8401601f191682018101838111838210171562000310578586fd5b806040525081945083825286818588010111156200032d57600080fd5b600092505b8383101562000351578583018101518284018201529182019162000332565b83831115620003635760008185840101525b5050505092915050565b6000806000806080858703121562000383578384fd5b84516200039081620003ff565b6020860151909450620003a381620003ff565b60408601519093506001600160401b0380821115620003c0578384fd5b620003ce88838901620002c6565b93506060870151915080821115620003e4578283fd5b50620003f387828801620002c6565b91505092959194509250565b6001600160a01b0381168114620001b857600080fd5b60805160601c60a05160c05160601c60e051610100516101205160601c6101405160601c610160516112a36200048e60003980610232528061025b52508061055d5250806105d35250806105835250806106e3525080610209528061075f5250806107045250806101e8528061073b52506112a36000f3fe608060405234801561001057600080fd5b50600436106100de5760003560e01c80636634b7531161008c578063739238d611610066578063739238d61461018f578063851c1bb3146101975780638d928af8146101b7578063aaabadc5146101bf576100de565b80636634b7531461014757806366b59f6c146101675780636c57f5a914610187576100de565b80632f2770db116100bd5780632f2770db1461012d5780633f819b6f1461013757806354fd4d501461013f576100de565b8062c194db146100e3578063174481fa146101015780632da47c4014610117575b600080fd5b6100eb6101c7565b6040516100f89190611050565b60405180910390f35b6101096101e6565b6040516100f8929190610fe9565b61011f61022c565b6040516100f89291906111e8565b610135610296565b005b6100eb6102fb565b6100eb6103af565b61015a610155366004610cdd565b61042b565b6040516100f89190611010565b61017a610175366004610d71565b610456565b6040516100f89190611063565b61015a610552565b61017a61055b565b6101aa6101a5366004610d15565b61057f565b6040516100f8919061101b565b61017a6105d1565b61017a6105f5565b60606101e1604051806020016040528060008152506106db565b905090565b7f00000000000000000000000000000000000000000000000000000000000000007f00000000000000000000000000000000000000000000000000000000000000009091565b600080427f000000000000000000000000000000000000000000000000000000000000000081101561028857807f000000000000000000000000000000000000000000000000000000000000000003925062278d009150610291565b60009250600091505b509091565b61029e6107b4565b6102a66107fd565b600180547fffffffffffffffffffffffffffffffffffffffffffffffffffffffffffffff0016811790556040517f432acbfd662dbb5d8b378384a67159b47ca9d0f1b79f97cf64cf8585fa362d5090600090a1565b60038054604080516020601f60027fffffffffffffffffffffffffffffffffffffffffffffffffffffffffffffffff6101006001881615020190951694909404938401819004810282018101909252828152606093909290918301828280156103a55780601f1061037a576101008083540402835291602001916103a5565b820191906000526020600020905b81548152906001019060200180831161038857829003601f168201915b5050505050905090565b60028054604080516020601f7fffffffffffffffffffffffffffffffffffffffffffffffffffffffffffffffff61010060018716150201909416859004938401819004810282018101909252828152606093909290918301828280156103a55780601f1061037a576101008083540402835291602001916103a5565b73ffffffffffffffffffffffffffffffffffffffff1660009081526020819052604090205460ff1690565b600080600061046361022c565b91509150610542604051806101c0016040528061047e6105d1565b73ffffffffffffffffffffffffffffffffffffffff1681526020016104a161055b565b73ffffffffffffffffffffffffffffffffffffffff1681526020018e81526020018d81526020018c81526020018a81526020018981526020018881526020018b81526020018781526020018481526020018381526020018673ffffffffffffffffffffffffffffffffffffffff16815260200161051c6102fb565b905260405161052e9190602001611084565b604051602081830303815290604052610812565b9c9b505050505050505050505050565b60015460ff1690565b7f000000000000000000000000000000000000000000000000000000000000000090565b60007f0000000000000000000000000000000000000000000000000000000000000000826040516020016105b4929190610fb9565b604051602081830303815290604052805190602001209050919050565b7f000000000000000000000000000000000000000000000000000000000000000090565b60006105ff6105d1565b73ffffffffffffffffffffffffffffffffffffffff1663aaabadc56040518163ffffffff1660e01b815260040160206040518083038186803b15801561064457600080fd5b505afa158015610658573d6000803e3d6000fd5b505050506040513d601f19601f820116820180604052508101906101e19190610d55565b80517f602038038060206000396000f3fefefefefefefefefefefefefefefefefefefe808352600091602081018484f090845291506106d573ffffffffffffffffffffffffffffffffffffffff831615156101ac6108a6565b50919050565b8051604080517f00000000000000000000000000000000000000000000000000000000000000007f0000000000000000000000000000000000000000000000000000000000000000818101858101848101602090810190965280855293957f00000000000000000000000000000000000000000000000000000000000000009592947f000000000000000000000000000000000000000000000000000000000000000094938801866000828a3c846000888301883c50602089810190898501016107a68183866108b8565b505050505050505050919050565b60006107e36000357fffffffff000000000000000000000000000000000000000000000000000000001661057f565b90506107fa6107f28233610932565b6101916108a6565b50565b610810610808610552565b1560d36108a6565b565b600061081c6107fd565b6000610827836109d1565b73ffffffffffffffffffffffffffffffffffffffff811660008181526020819052604080822080547fffffffffffffffffffffffffffffffffffffffffffffffffffffffffffffff001660011790555192935090917f83a48fbcfc991335314e74d0496aab6a1987e992ddc85dddbcc4d6dd6ef2e9fc9190a292915050565b816108b4576108b481610a19565b5050565b5b602081106108f65781518352602092830192909101907fffffffffffffffffffffffffffffffffffffffffffffffffffffffffffffffe0016108b9565b905182516020929092036101000a7fffffffffffffffffffffffffffffffffffffffffffffffffffffffffffffffff0180199091169116179052565b600061093c6105f5565b73ffffffffffffffffffffffffffffffffffffffff16639be2a8848484306040518463ffffffff1660e01b815260040161097893929190611024565b60206040518083038186803b15801561099057600080fd5b505afa1580156109a4573d6000803e3d6000fd5b505050506040513d601f19601f820116820180604052508101906109c89190610cf9565b90505b92915050565b600060606109de836106db565b905060008151602083016000f0905073ffffffffffffffffffffffffffffffffffffffff8116610a12573d6000803e3d6000fd5b9392505050565b7f08c379a000000000000000000000000000000000000000000000000000000000600090815260206004526007602452600a808304818106603090810160081b83860601918390049283060160101b016642414c230000300160c81b6044526107fa917f42414c0000000000000000000000000000000000000000000000000000000000906242414c90606490fd5b80356109cb8161123d565b600082601f830112610ac3578081fd5b8135610ad6610ad18261121d565b6111f6565b818152915060208083019084810181840286018201871015610af757600080fd5b60005b84811015610b1f578135610b0d8161125f565b84529282019290820190600101610afa565b505050505092915050565b600082601f830112610b3a578081fd5b8135610b48610ad18261121d565b818152915060208083019084810181840286018201871015610b6957600080fd5b60005b84811015610b1f578135610b7f8161123d565b84529282019290820190600101610b6c565b600082601f830112610ba1578081fd5b8135610baf610ad18261121d565b818152915060208083019084810181840286018201871015610bd057600080fd5b60005b84811015610b1f578135610be68161123d565b84529282019290820190600101610bd3565b600082601f830112610c08578081fd5b8135610c16610ad18261121d565b818152915060208083019084810181840286018201871015610c3757600080fd5b60005b84811015610b1f57813584529282019290820190600101610c3a565b600082601f830112610c66578081fd5b813567ffffffffffffffff811115610c7c578182fd5b610cad60207fffffffffffffffffffffffffffffffffffffffffffffffffffffffffffffffe0601f840116016111f6565b9150808252836020828501011115610cc457600080fd5b8060208401602084013760009082016020015292915050565b600060208284031215610cee578081fd5b8135610a128161123d565b600060208284031215610d0a578081fd5b8151610a128161125f565b600060208284031215610d26578081fd5b81357fffffffff0000000000000000000000000000000000000000000000000000000081168114610a12578182fd5b600060208284031215610d66578081fd5b8151610a128161123d565b60008060008060008060008060006101208a8c031215610d8f578485fd5b893567ffffffffffffffff80821115610da6578687fd5b610db28d838e01610c56565b9a5060208c0135915080821115610dc7578687fd5b610dd38d838e01610c56565b995060408c0135915080821115610de8578687fd5b610df48d838e01610b2a565b985060608c0135975060808c0135915080821115610e10578687fd5b610e1c8d838e01610b91565b965060a08c0135915080821115610e31578586fd5b610e3d8d838e01610bf8565b955060c08c0135915080821115610e52578485fd5b50610e5f8c828d01610ab3565b93505060e08a01359150610e778b6101008c01610aa8565b90509295985092959850929598565b73ffffffffffffffffffffffffffffffffffffffff169052565b6000815180845260208085019450808401835b83811015610ed1578151151587529582019590820190600101610eb3565b509495945050505050565b6000815180845260208085019450808401835b83811015610ed157815173ffffffffffffffffffffffffffffffffffffffff1687529582019590820190600101610eef565b6000815180845260208085019450808401835b83811015610ed157815187529582019590820190600101610f34565b60008151808452815b81811015610f7557602081850181015186830182015201610f59565b81811115610f865782602083870101525b50601f017fffffffffffffffffffffffffffffffffffffffffffffffffffffffffffffffe0169290920160200192915050565b9182527fffffffff0000000000000000000000000000000000000000000000000000000016602082015260240190565b73ffffffffffffffffffffffffffffffffffffffff92831681529116602082015260400190565b901515815260200190565b90815260200190565b92835273ffffffffffffffffffffffffffffffffffffffff918216602084015216604082015260600190565b6000602082526109c86020830184610f50565b73ffffffffffffffffffffffffffffffffffffffff91909116815260200190565b600060208252611098602083018451610e86565b60208301516110aa6040840182610e86565b5060408301516101c08060608501526110c76101e0850183610f50565b915060608501517fffffffffffffffffffffffffffffffffffffffffffffffffffffffffffffffe0808685030160808701526111038483610f50565b935060808701519150808685030160a08701526111208483610edc565b935060a08701519150808685030160c087015261113d8483610edc565b935060c08701519150808685030160e087015261115a8483610f21565b935060e087015191506101008187860301818801526111798584610ea0565b908801516101208881019190915288015161014080890191909152880151610160808901919091528801516101808089019190915288015190945091506101a06111c581880184610e86565b8701518685039091018387015290506111de8382610f50565b9695505050505050565b918252602082015260400190565b60405181810167ffffffffffffffff8111828210171561121557600080fd5b604052919050565b600067ffffffffffffffff821115611233578081fd5b5060209081020190565b73ffffffffffffffffffffffffffffffffffffffff811681146107fa57600080fd5b80151581146107fa57600080fdfea2646970667358221220139c11f5919330a49b431e9ec65da6abcaecfa2895b17cea9c855010670ff62c64736f6c634300070100336105006040523480156200001257600080fd5b5060405162007ff338038062007ff3833981016040819052620000359162001b55565b6020810151600019620000488362000d93565b620000538462000dcc565b8461010001518560000151600087604001518860600151620000808a608001513062000e1560201b60201c565b8a60800151516001016001600160401b03811180156200009f57600080fd5b50604051908082528060200260200182016040528015620000ca578160200160208202803683370190505b508b61012001518c61014001518d61016001518e6101800151828289898d85336001600160a01b031660001b8480604051806040016040528060018152602001603160f81b815250878781600390805190602001906200012c929190620017f2565b50805162000142906004906020840190620017f2565b50506005805460ff19166012179055508151602092830120608052805191012060a052507f8b73c3c69bb8fe3d512ecc4cf759cc79239f7b179b0ffacaa9a75d522b39400f60c05260e0526001600160601b0319606091821b81166101005291901b166101205250620001c090506276a70083111561019462000faf565b620001d462278d0082111561019562000faf565b4290910161014081905201610160528551620001f6906002111560c862000faf565b620002106200020462000fc4565b8751111560c962000faf565b620002268662000fc960201b6200154e1760201c565b620002318462000fd5565b6040516309b2760f60e01b81526000906001600160a01b038c16906309b2760f9062000262908d9060040162001ddb565b602060405180830381600087803b1580156200027d57600080fd5b505af115801562000292573d6000803e3d6000fd5b505050506040513d601f19601f82011682018060405250810190620002b8919062001b1d565b604051633354e3e960e11b81529091506001600160a01b038c16906366a9c7d290620002ed9084908b908b9060040162001d3f565b600060405180830381600087803b1580156200030857600080fd5b505af11580156200031d573d6000803e3d6000fd5b505050508061018081815250508a6001600160a01b031663d2946c2b6040518163ffffffff1660e01b815260040160206040518083038186803b1580156200036457600080fd5b505afa15801562000379573d6000803e3d6000fd5b505050506040513d601f19601f820116820180604052508101906200039f919062001b36565b60601b6001600160601b0319166101a05250620003d1995050506001891015965061012c955062000faf945050505050565b620003e461138882111561012d62000faf565b6000620003ff826103e86200106960201b620015581760201c565b90506200040c8162001098565b5050805151620004216002821160c862000faf565b6200044660018203836020015151846040015151620010d760201b620015831760201c565b6101c0819052815180516000906200045a57fe5b60200260200101516001600160a01b0316610200816001600160a01b031660601b8152505081600001516001815181106200049157fe5b60200260200101516001600160a01b0316610220816001600160a01b031660601b815250508160000151600281518110620004c857fe5b60200260200101516001600160a01b0316610240816001600160a01b031660601b8152505060038111620004fe57600062000517565b8151805160039081106200050e57fe5b60200260200101515b60601b6001600160601b03191661026052600481116200053957600062000552565b8151805160049081106200054957fe5b60200260200101515b60601b6001600160601b0319166102805260058111620005745760006200058d565b8151805160059081106200058457fe5b60200260200101515b60601b6001600160601b0319166102a05281518051620005c69190600090620005b257fe5b6020026020010151620010f760201b60201c565b6102c05281518051620005e091906001908110620005b257fe5b6102e05281518051620005fa91906002908110620005b257fe5b61030052600381116200060f57600062000625565b620006258260000151600381518110620005b257fe5b61032052600481116200063a57600062000650565b620006508260000151600481518110620005b257fe5b6103405260058111620006655760006200067b565b6200067b8260000151600581518110620005b257fe5b61036052815151600019015b600081118015620006b857508251805130919083908110620006a557fe5b60200260200101516001600160a01b0316115b15620006c8576000190162000687565b6101e08190528251516060906001600160401b0381118015620006ea57600080fd5b5060405190808252806020026020018201604052801562000715578160200160208202803683370190505b50905060008080805b8751518110156200093857858110156200085457876020015181815181106200074357fe5b60200260200101518582815181106200075857fe5b60200260200101906001600160a01b031690816001600160a01b031681525050620007c160006001600160a01b03168683815181106200079457fe5b60200260200101516001600160a01b031614158260060186620011c660201b620015a0179092919060201c565b935087604001518181518110620007d457fe5b60200260200101511562000849576200082060006001600160a01b0316868381518110620007fe57fe5b60200260200101516001600160a01b0316141561015562000faf60201b60201c565b6200083d60018286620011c660201b620015a0179092919060201c565b9350600192506200084e565b600191505b6200092f565b8581146200092f57876020015160018203815181106200087057fe5b60200260200101518582815181106200088557fe5b60200260200101906001600160a01b031690816001600160a01b031681525050620008c160006001600160a01b03168683815181106200079457fe5b935087604001516001820381518110620008d757fe5b6020026020010151156200092a576200090160006001600160a01b0316868381518110620007fe57fe5b6200091e60018286620011c660201b620015a0179092919060201c565b9350600192506200092f565b600191505b6001016200071e565b50811560f890811b610460528115901b61048052835184906000906200095a57fe5b60200260200101516001600160a01b0316610380816001600160a01b031660601b81525050836001815181106200098d57fe5b60200260200101516001600160a01b03166103a0816001600160a01b031660601b8152505083600281518110620009c057fe5b60200260200101516001600160a01b03166103c0816001600160a01b031660601b815250506003845111620009f757600062000a0e565b8360038151811062000a0557fe5b60200260200101515b60601b6001600160601b0319166103e052835160041062000a3157600062000a48565b8360048151811062000a3f57fe5b60200260200101515b60601b6001600160601b03191661040052835160051062000a6b57600062000a82565b8360058151811062000a7957fe5b60200260200101515b60601b6001600160601b0319166104205250506104405250508251516020808501515160408601515162000ac595509293509190620010d7811b6200158317901c565b805160609062000ad6903062000e15565b8051909150600019015b60008111801562000b165750306001600160a01b031682828151811062000b0357fe5b60200260200101516001600160a01b0316115b1562000b26576000190162000ae0565b6000805b84515181101562000c3f578281141562000b4357600191505b60208501518051828401916000918490811062000b5c57fe5b60200260200101516001600160a01b03161462000c355762000bb6818760200151848151811062000b8957fe5b60200260200101518860400151858151811062000ba257fe5b6020026020010151620011ef60201b60201c565b8560200151828151811062000bc757fe5b60200260200101516001600160a01b0316817fdd6d1c9badb346de6925b358a472c937b41698d2632696759e43fd6527feeec48860400151858151811062000c0b57fe5b602002602001015160405162000c22919062001df0565b60405180910390a362000c3581620012ea565b5060010162000b2a565b5050505050600019811460f881901b6104c0526001600160601b0319606084901b166104a05262000c7283600262001329565b62000c7f83600362001329565b801562000c995762000c9383600062001329565b62000d58565b60405163178b2b9360e21b815262000d2d906001600160a01b03851690635e2cae4c9062000ccd9060009060040162001df0565b60206040518083038186803b15801562000ce657600080fd5b505afa15801562000cfb573d6000803e3d6000fd5b505050506040513d601f19601f8201168201806040525081019062000d21919062001b1d565b83111561025862000faf565b600060008051602062007fd38339815191528360405162000d4f919062001df0565b60405180910390a25b8062000d65578162000d68565b60005b6104e0525050506101a0810151805162000d8b91600d91602090910190620017f2565b505062001e62565b62000d9d62001873565b6040518060600160405280836080015181526020018360a0015181526020018360c0015181525090505b919050565b62000dd662001873565b604051806060016040528062000df784608001513062000e1560201b60201c565b81526020018360a0015181526020018360e001518152509050919050565b606082516001016001600160401b038111801562000e3257600080fd5b5060405190808252806020026020018201604052801562000e5d578160200160208202803683370190505b50905082516000141562000ea057818160008151811062000e7a57fe5b60200260200101906001600160a01b031690816001600160a01b03168152505062000fa9565b82515b60008111801562000edc5750826001600160a01b031684600183038151811062000ec957fe5b60200260200101516001600160a01b0316115b1562000f295783600182038151811062000ef257fe5b602002602001015182828151811062000f0757fe5b6001600160a01b03909216602092830291909101909101526000190162000ea3565b60005b8181101562000f785784818151811062000f4257fe5b602002602001015183828151811062000f5757fe5b6001600160a01b039092166020928302919091019091015260010162000f2c565b508282828151811062000f8757fe5b60200260200101906001600160a01b031690816001600160a01b031681525050505b92915050565b8162000fc05762000fc081620014d4565b5050565b600690565b8062000fc081620014e9565b62000fee62000fe362001570565b82101560cb62000faf565b6200100762000ffc62001579565b82111560ca62000faf565b620010298160c0603f6008546200158560201b620015c717909392919060201c565b6008556040517fa9ba3ffe0b6c366b81232caab38605a0699ad5398d6cce76f91ee809e322dafc906200105e90839062001df0565b60405180910390a150565b600082820262001091841580620010895750838583816200108657fe5b04145b600362000faf565b9392505050565b620010a681804280620015aa565b7fa0d01593e47e69d07e0ccd87bece09411e07dd1ed40ca8f2e7af2976542a0233816040516200105e919062001df0565b620010f28284148015620010ea57508183145b606762000faf565b505050565b60006001600160a01b0382163014156200111b5750670de0b6b3a764000062000dc7565b6000826001600160a01b031663313ce5676040518163ffffffff1660e01b815260040160206040518083038186803b1580156200115757600080fd5b505afa1580156200116c573d6000803e3d6000fd5b505050506040513d601f19601f8201168201806040525081019062001192919062001d1c565b60ff1690506000620011b16012836200161d60201b620015ef1760201c565b600a0a670de0b6b3a764000002949350505050565b60006001821b1984168284620011de576000620011e1565b60015b60ff16901b17949350505050565b6000826001600160a01b031663679aefce6040518163ffffffff1660e01b815260040160206040518083038186803b1580156200122b57600080fd5b505afa15801562001240573d6000803e3d6000fd5b505050506040513d601f19601f8201168201806040525081019062001266919062001b1d565b6000858152600a602090815260409091205491925062001295908290849086906200160562001635821b17901c565b6000868152600a602052604090819020919091555185907fb77a83204ca282e08dc3a65b0a1ca32ea4e6875c38ef0bf5bf75e52a67354fac90620012db90859062001df0565b60405180910390a25050505050565b6000818152600a602090815260409091205490620013139082906200163d62001691821b17901c565b6000928352600a60205260409092209190915550565b604051631a7c326360e01b81526000906001600160a01b03841690631a7c3263906200135a90859060040162001df0565b60206040518083038186803b1580156200137357600080fd5b505afa15801562001388573d6000803e3d6000fd5b505050506040513d601f19601f82011682018060405250810190620013ae919062001b1d565b905081620013f257620013cc81620016bc60201b620016551760201c565b600b80546001600160401b0319166001600160401b0392909216919091179055620014a6565b600282141562001448576200141281620016bc60201b620016551760201c565b600b80546001600160401b03929092166801000000000000000002600160401b600160801b0319909216919091179055620014a6565b600382141562001499576200146881620016bc60201b620016551760201c565b600b80546001600160401b0392909216600160801b02600160801b600160c01b0319909216919091179055620014a6565b620014a66101bb620014d4565b8160008051602062007fd383398151915282604051620014c7919062001df0565b60405180910390a2505050565b620014e6816210905360ea1b620016da565b50565b600281511015620014fa57620014e6565b6000816000815181106200150a57fe5b602002602001015190506000600190505b8251811015620010f25760008382815181106200153457fe5b6020026020010151905062001565816001600160a01b0316846001600160a01b031610606562000faf60201b60201c565b91506001016200151b565b64e8d4a5100090565b67016345785d8a000090565b6000620015948484846200173b565b506001901b60001901811b1992909216911b1790565b620015c48160c060406200179660201b620016721760201c565b620015de83608060406200179660201b620016721760201c565b620015f7856040806200179660201b620016721760201c565b6200161187600060406200179660201b620016721760201c565b17171760095550505050565b60006200162f83831115600162000faf565b50900390565b60006200164a606084901c1561014962000faf565b6200168942830160e06020620016738660c083838c8c60006060620015c762001585871b17861c565b6200158560201b620015c717909392919060201c565b949350505050565b600062000fa9620016a283620017ab565b606080856200158560201b620015c717909392919060201c565b6000620016d66001600160401b038311156101ba62000faf565b5090565b62461bcd60e51b600090815260206004526007602452600a808404818106603090810160081b958390069590950190829004918206850160101b01602363ffffff0060e086901c160160181b0190930160c81b60445260e882901c90606490fd5b6200174c6101008310606462000faf565b62001785600182101580156200177d57506200177960ff8461010003620017cb60201b620016851760201c565b8211155b606462000faf565b620010f283821c156101b462000faf565b6000620017a58484846200173b565b50501b90565b600062000fa96000606084620017e360201b6200169b179092919060201c565b6000818310620017dc578162001091565b5090919050565b6001901b6000190191901c1690565b828054600181600116156101000203166002900490600052602060002090601f016020900481019282601f106200183557805160ff191683800117855562001865565b8280016001018555821562001865579182015b828111156200186557825182559160200191906001019062001848565b50620016d692915062001894565b60405180606001604052806060815260200160608152602001606081525090565b5b80821115620016d6576000815560010162001895565b805162000fa98162001e4c565b600082601f830112620018c9578081fd5b8151620018e0620018da8262001e20565b62001df9565b8181529150602080830190848101818402860182018710156200190257600080fd5b6000805b858110156200193257825180151581146200191f578283fd5b8552938301939183019160010162001906565b50505050505092915050565b600082601f8301126200194f578081fd5b815162001960620018da8262001e20565b8181529150602080830190848101818402860182018710156200198257600080fd5b60005b84811015620019ae5781516200199b8162001e4c565b8452928201929082019060010162001985565b505050505092915050565b600082601f830112620019ca578081fd5b8151620019db620018da8262001e20565b818152915060208083019084810181840286018201871015620019fd57600080fd5b60005b84811015620019ae57815162001a168162001e4c565b8452928201929082019060010162001a00565b600082601f83011262001a3a578081fd5b815162001a4b620018da8262001e20565b81815291506020808301908481018184028601820187101562001a6d57600080fd5b60005b84811015620019ae5781518452928201929082019060010162001a70565b600082601f83011262001a9f578081fd5b81516001600160401b0381111562001ab5578182fd5b602062001acb601f8301601f1916820162001df9565b9250818352848183860101111562001ae257600080fd5b60005b8281101562001b0257848101820151848201830152810162001ae5565b8281111562001b145760008284860101525b50505092915050565b60006020828403121562001b2f578081fd5b5051919050565b60006020828403121562001b48578081fd5b8151620010918162001e4c565b60006020828403121562001b67578081fd5b81516001600160401b038082111562001b7e578283fd5b81840191506101c080838703121562001b95578384fd5b62001ba08162001df9565b905062001bae8684620018ab565b815262001bbf8660208501620018ab565b602082015260408301518281111562001bd6578485fd5b62001be48782860162001a8e565b60408301525060608301518281111562001bfc578485fd5b62001c0a8782860162001a8e565b60608301525060808301518281111562001c22578485fd5b62001c30878286016200193e565b60808301525060a08301518281111562001c48578485fd5b62001c5687828601620019b9565b60a08301525060c08301518281111562001c6e578485fd5b62001c7c8782860162001a29565b60c08301525060e08301518281111562001c94578485fd5b62001ca287828601620018b8565b60e083015250610100838101519082015261012080840151908201526101408084015190820152610160808401519082015261018062001ce587828601620018ab565b908201526101a0838101518381111562001cfd578586fd5b62001d0b8882870162001a8e565b918301919091525095945050505050565b60006020828403121562001d2e578081fd5b815160ff8116811462001091578182fd5b60006060820185835260206060818501528186518084526080860191508288019350845b8181101562001d8b5762001d78855162001e40565b8352938301939183019160010162001d63565b505084810360408601528551808252908201925081860190845b8181101562001dcd5762001dba835162001e40565b8552938301939183019160010162001da5565b509298975050505050505050565b602081016003831062001dea57fe5b91905290565b90815260200190565b6040518181016001600160401b038111828210171562001e1857600080fd5b604052919050565b60006001600160401b0382111562001e36578081fd5b5060209081020190565b6001600160a01b031690565b6001600160a01b0381168114620014e657600080fd5b60805160a05160c05160e0516101005160601c6101205160601c6101405161016051610180516101a05160601c6101c0516101e0516102005160601c6102205160601c6102405160601c6102605160601c6102805160601c6102a05160601c6102c0516102e051610300516103205161034051610360516103805160601c6103a05160601c6103c05160601c6103e05160601c6104005160601c6104205160601c610440516104605160f81c6104805160f81c6104a05160601c6104c05160f81c6104e051615fb36200202060003980610e2552508061090a52508061088a52806108b552806108e05250806147a9525080614785525080612b3c52806143fe525080611c5c525080611c2c525080611bfc525080611bcc525080611b9c525080611b6c525080612fcc525080612f9c525080612f6c525080612f3c525080612f0c525080612edc525080611eb9525080611e77525080611e35525080611df3525080611db1525080611d6f52508061104e5250806116ca525080611279525080610be4525080611b40525080611b1c52508061114e52508061112a525080611086525080612d4a525080612d8c525080612d6b5250615fb36000f3fe608060405234801561001057600080fd5b50600436106103785760003560e01c806370464016116101d3578063a457c2d711610104578063d505accf116100a2578063ddf4627b1161007c578063ddf4627b146106e3578063eb0f24d6146106eb578063ed24911d146106f3578063f4b7964d146106fb57610378565b8063d505accf146106aa578063d5c096c4146106bd578063dd62ed3e146106d057610378565b8063ab7759f1116100de578063ab7759f11461067f578063b35056b814610692578063b7b814fc1461069a578063d2946c2b146106a257610378565b8063a457c2d714610651578063a9059cbb14610664578063aaabadc51461067757610378565b8063851c1bb311610171578063893d20e81161014b578063893d20e8146106195780638d928af81461062e57806390193b7c1461063657806395d89b411461064957610378565b8063851c1bb3146105eb578063876f303b146105fe57806387ec68171461060657610378565b80637ecebe00116101ad5780637ecebe00146105a55780637f1260d1146105b857806382687a56146105db5780638456cb59146105e357610378565b8063704640161461055e57806370a082311461057157806374f3b0091461058457610378565b80633644e515116102ad57806354a844ba1161024b57806355c676281161022557806355c67628146105165780636028bfd41461051e578063679aefce1461053f5780636daccffa1461054757610378565b806354a844ba146104f357806354dea00a146104fb57806354fd4d501461050e57610378565b8063395093511161028757806339509351146104af5780633c975d51146104c25780633f4ba83a146104d857806350dd6ed9146104e057610378565b80633644e5151461048c57806338e9922e1461049457806338fff2d0146104a757610378565b80631c0de0511161031a57806323b872dd116102f457806323b872dd1461043e5780632df2c7c0146104515780632f1a0bc914610464578063313ce5671461047757610378565b80631c0de051146103fd5780631dd746ea14610414578063238a2d591461042957610378565b8063095ea7b311610356578063095ea7b3146103c35780630da0669c146103e357806315b0015b146103ed57806318160ddd146103f557610378565b806301ec954a1461037d57806304842d4c146103a657806306fdde03146103ae575b600080fd5b61039061038b366004615a13565b61070e565b60405161039d9190615dc3565b60405180910390f35b6103906107b4565b6103b66107c3565b60405161039d9190615e99565b6103d66103d1366004615638565b610859565b60405161039d9190615da0565b6103eb610870565b005b6103d6610908565b61039061092c565b610405610932565b60405161039d93929190615dab565b61041c61095b565b60405161039d9190615d68565b610431610965565b60405161039d9190615d1b565b6103d661044c366004615588565b610a00565b6103eb61045f366004615534565b610a74565b6103eb610472366004615b62565b610ad0565b61047f610bb3565b60405161039d9190615f04565b610390610bbc565b6103eb6104a2366004615b32565b610bc6565b610390610be2565b6103d66104bd366004615638565b610c06565b6104ca610c41565b60405161039d929190615edb565b6103eb610c6c565b6103eb6104ee36600461584e565b610c7e565b6103eb610c9c565b610390610509366004615534565b610cae565b6103b6610cc9565b610390610d2a565b61053161052c36600461574f565b610d3d565b60405161039d929190615eac565b610390610d74565b61054f610de0565b60405161039d93929190615ec5565b61039061056c366004615b32565b610dfb565b61039061057f366004615534565b610ec1565b61059761059236600461574f565b610edc565b60405161039d929190615d7b565b6103906105b3366004615534565b610fdf565b6105cb6105c6366004615534565b610fea565b60405161039d9493929190615ee9565b61039061104c565b6103eb611070565b6103906105f93660046157f2565b611082565b6103906110d4565b61053161061436600461574f565b611102565b610621611128565b60405161039d9190615d07565b61062161114c565b610390610644366004615534565b611170565b6103b661118b565b6103d661065f366004615638565b6111ec565b6103d6610672366004615638565b61122a565b610621611237565b6103d661068d366004615534565b611241565b6103d6611254565b6103eb611265565b610621611277565b6103eb6106b83660046155c8565b61129b565b6105976106cb36600461574f565b611326565b6103906106de366004615550565b611449565b610390611486565b6103eb61148c565b6103906114b8565b6103eb610709366004615638565b6114c2565b6000846080015161073b61072061114c565b6001600160a01b0316336001600160a01b03161460cd6116aa565b610750610746610be2565b82146101f46116aa565b6107586116b8565b61076a84846107656116c8565b6116ec565b6060610774611704565b905060008751600181111561078557fe5b1461079c57610797878787878561179d565b6107a9565b6107a987878787856117f6565b979650505050505050565b60006107be611831565b905090565b60038054604080516020601f600260001961010060018816150201909516949094049384018190048102820181019092528281526060939092909183018282801561084f5780601f106108245761010080835404028352916020019161084f565b820191906000526020600020905b81548152906001019060200180831161083257829003601f168201915b5050505050905090565b6000610866338484611838565b5060015b92915050565b6108786118a0565b610880610908565b156108b0576108b07f0000000000000000000000000000000000000000000000000000000000000000600061190d565b6108db7f0000000000000000000000000000000000000000000000000000000000000000600261190d565b6109067f0000000000000000000000000000000000000000000000000000000000000000600361190d565b565b7f000000000000000000000000000000000000000000000000000000000000000090565b60025490565b600080600061093f611afd565b15925061094a611b1a565b9150610954611b3e565b9050909192565b60606107be611704565b606060006109716116c8565b905060608167ffffffffffffffff8111801561098c57600080fd5b506040519080825280602002602001820160405280156109b6578160200160208202803683370190505b50905060005b828110156109f9576109cd81611b62565b8282815181106109d957fe5b6001600160a01b03909216602092830291909101909101526001016109bc565b5091505090565b600080610a0d8533611449565b9050610a31336001600160a01b0387161480610a295750838210155b61019e6116aa565b610a3c858585611c8b565b336001600160a01b03861614801590610a5757506000198114155b15610a6957610a698533858403611838565b506001949350505050565b6000610a7f82611d6b565b90506000610a8c82611b62565b9050610aa56001600160a01b03821615156101556116aa565b6000828152600a6020526040812054610abd90611ef9565b9050610aca838383611f08565b50505050565b610ad8611feb565b610ae8600183101561012c6116aa565b610af961138883111561012d6116aa565b6000610b0582426115ef565b9050610b196201518082101561013d6116aa565b600080610b24612031565b91509150610b35811561013e6116aa565b6000610b43866103e8611558565b90506000838211610b7257610b6d610b5e6201518086611558565b610b688488611558565b6120a5565b610b8c565b610b8c610b826201518084611558565b610b688688611558565b9050610b9e600282111561013f6116aa565b610baa848342896120d8565b50505050505050565b60055460ff1690565b60006107be6114b8565b610bce611feb565b610bd6612127565b610bdf8161213a565b50565b7f000000000000000000000000000000000000000000000000000000000000000090565b3360008181526001602090815260408083206001600160a01b03871684529091528120549091610866918590610c3c90866121b3565b611838565b600c546000908190610c568160e9601761169b565b9250610c6581600060e961169b565b9150509091565b610c74611feb565b61090660006121c5565b610c86611feb565b610c8e612127565b610c988282612256565b5050565b610ca4611feb565b6109066001612364565b6000610cc1610cbc83611d6b565b6123bb565b90505b919050565b600d8054604080516020601f600260001961010060018816150201909516949094049384018190048102820181019092528281526060939092909183018282801561084f5780601f106108245761010080835404028352916020019161084f565b6008546000906107be9060c0603f61169b565b60006060610d538651610d4e6116c8565b61240e565b610d688989898989898961241b61243d6124a6565b97509795505050505050565b60006060600080600080610d8661263d565b9398509196509450925090506000610d9e85856121b3565b90506000610daa612031565b5090506000848214610dc557610dc0828961272d565b610dc7565b835b9050610dd3818461288f565b9850505050505050505090565b6000806000610ded612031565b90949093506103e892509050565b6000610e05611254565b15610e1257506000610cc4565b81610e5e57610e1f610908565b610e49577f0000000000000000000000000000000000000000000000000000000000000000610e57565b600b5467ffffffffffffffff165b9050610cc4565b6002821415610e865750600b5468010000000000000000900467ffffffffffffffff16610cc4565b6003821415610eb65750600b54700100000000000000000000000000000000900467ffffffffffffffff16610cc4565b610cc46101bb6128e0565b6001600160a01b031660009081526020819052604090205490565b60608088610eeb61072061114c565b610ef6610746610be2565b60606000610f038661290a565b15610f2b57610f10612939565b610f2289610f1c61092c565b8861294c565b92509050610f7d565b610f336116b8565b6060610f3d611704565b9050610f498a82612990565b610f6d8d8d8d8d8d610f59611254565b610f63578d610f66565b60005b878e61241b565b93509150610f7b838261243d565b505b610f878b826129f9565b81895167ffffffffffffffff81118015610fa057600080fd5b50604051908082528060200260200182016040528015610fca578160200160208202803683370190505b509450945050505b5097509795505050505050565b6000610cc182611170565b6000806000806000600a6000610fff88611d6b565b815260208101919091526040016000205490506110208115156101556116aa565b61102981612a03565b945061103481612a11565b935061103f81612a1f565b9597949650949392505050565b7f000000000000000000000000000000000000000000000000000000000000000090565b611078611feb565b61090660016121c5565b60007f0000000000000000000000000000000000000000000000000000000000000000826040516020016110b7929190615c91565b604051602081830303815290604052805190602001209050919050565b60008060006110e161263d565b505092509250506110fb81836121b390919063ffffffff16565b9250505090565b600060606111138651610d4e6116c8565b610d6889898989898989612a41612a526124a6565b7f000000000000000000000000000000000000000000000000000000000000000090565b7f000000000000000000000000000000000000000000000000000000000000000090565b6001600160a01b031660009081526006602052604090205490565b60048054604080516020601f600260001961010060018816150201909516949094049384018190048102820181019092528281526060939092909183018282801561084f5780601f106108245761010080835404028352916020019161084f565b6000806111f93385611449565b90508083106112135761120e33856000611838565b611220565b6112203385858403611838565b5060019392505050565b6000610866338484611c8b565b60006107be612abb565b6000610cc161124f83611d6b565b612b35565b6008546000906107be9060ff612b5d565b61126d611feb565b6109066000612364565b7f000000000000000000000000000000000000000000000000000000000000000090565b60007f6e71edae12b1b97f4d1f60370fef10105fa2faae0126114a169c64845d6126c98888886112ca8c611170565b896040516020016112e096959493929190615deb565b6040516020818303038152906040528051906020012090506113118882611308878787612b67565b886101f8612ba6565b61131c888888611838565b5050505050505050565b6060808861133561072061114c565b611340610746610be2565b6113486116b8565b6060611352611704565b905061135c61092c565b61140957600060606113718d8d8d868b612bfd565b9150915061138a611380611831565b83101560cc6116aa565b61139c6000611397611831565b612cd6565b6113af8b6113a8611831565b8403612cd6565b6113b98184612a52565b808a5167ffffffffffffffff811180156113d257600080fd5b506040519080825280602002602001820160405280156113fc578160200160208202803683370190505b5095509550505050610fd2565b6114138882612990565b6000606061143b8d8d8d8d8d611427611254565b611431578d611434565b60005b898e612a41565b915091506113af8b83612cd6565b600061145361114c565b6001600160a01b0316826001600160a01b03161415611475575060001961086a565b61147f8383612ce0565b905061086a565b60001981565b611494611feb565b60008061149f612031565b915091506114af816101406116aa565b610c9882612d0b565b60006107be612d46565b6114ca611feb565b60006114d583611d6b565b905060006114e282611b62565b90506114fb6001600160a01b03821615156101556116aa565b611506828285611f08565b806001600160a01b0316827fdd6d1c9badb346de6925b358a472c937b41698d2632696759e43fd6527feeec4856040516115409190615dc3565b60405180910390a350505050565b80610c9881612de3565b600082820261157c84158061157557508385838161157257fe5b04145b60036116aa565b9392505050565b61159b828414801561159457508183145b60676116aa565b505050565b60006001821b19841682846115b65760006115b9565b60015b60ff16901b17949350505050565b60006115d4848484612e5c565b5082821b6000196001831b01831b198516175b949350505050565b60006115ff8383111560016116aa565b50900390565b6000611618606084901c156101496116aa565b6115e742830160e060206116358660c083838c8c600060606115c7565b9291906115c7565b6000610cc161164b83612a03565b83906060806115c7565b600061166e67ffffffffffffffff8311156101ba6116aa565b5090565b600061167f848484612e5c565b50501b90565b6000818310611694578161157c565b5090919050565b6001901b6000190191901c1690565b81610c9857610c98816128e0565b6116c0612ea2565b610906612eaa565b7f000000000000000000000000000000000000000000000000000000000000000090565b61159b81841080156116fd57508183105b60646116aa565b606060006117106116c8565b905060608167ffffffffffffffff8111801561172b57600080fd5b50604051908082528060200260200182016040528015611755578160200160208202803683370190505b50905060005b828110156109f95761177e61176f826123bb565b61177883612ed2565b90612ff0565b82828151811061178a57fe5b602090810291909101015260010161175b565b60208501516000906001600160a01b03163014806117c7575060408601516001600160a01b031630145b6117dd576117d8868686868661301c565b6117ea565b6117ea8686868686613086565b90505b95945050505050565b60208501516000906001600160a01b0316301480611820575060408601516001600160a01b031630145b6117dd576117d8868686868661318a565b620f424090565b6001600160a01b0380841660008181526001602090815260408083209487168084529490915290819020849055517f8c5be1e5ebec7d5bd14f71427d1e84f3dd0314c0f7b2291e5b200ac8c7c3b92590611893908590615dc3565b60405180910390a3505050565b6118a8612127565b606060008060006118b761263d565b94509450945050935060008311156118d2576118d2836131e1565b60006118dc612031565b50905060008382146118f7576118f2828761272d565b6118f9565b825b905061190582826131f2565b505050505050565b6040517f1a7c32630000000000000000000000000000000000000000000000000000000081526000906001600160a01b03841690631a7c326390611955908590600401615dc3565b60206040518083038186803b15801561196d57600080fd5b505afa158015611981573d6000803e3d6000fd5b505050506040513d601f19601f820116820180604052508101906119a59190615b4a565b9050816119f3576119b581611655565b600b80547fffffffffffffffffffffffffffffffffffffffffffffffff00000000000000001667ffffffffffffffff92909216919091179055611ac0565b6002821415611a5057611a0581611655565b600b805467ffffffffffffffff9290921668010000000000000000027fffffffffffffffffffffffffffffffff0000000000000000ffffffffffffffff909216919091179055611ac0565b6003821415611ab557611a6281611655565b600b805467ffffffffffffffff92909216700100000000000000000000000000000000027fffffffffffffffff0000000000000000ffffffffffffffffffffffffffffffff909216919091179055611ac0565b611ac06101bb6128e0565b817f6bfb689528fa96ec1ad670ad6d6064be1ae96bfd5d2ee35c837fd0fe0c11959a82604051611af09190615dc3565b60405180910390a2505050565b6000611b07611b3e565b4211806107be57505060075460ff161590565b7f000000000000000000000000000000000000000000000000000000000000000090565b7f000000000000000000000000000000000000000000000000000000000000000090565b600081611b9057507f0000000000000000000000000000000000000000000000000000000000000000610cc4565b8160011415611bc057507f0000000000000000000000000000000000000000000000000000000000000000610cc4565b8160021415611bf057507f0000000000000000000000000000000000000000000000000000000000000000610cc4565b8160031415611c2057507f0000000000000000000000000000000000000000000000000000000000000000610cc4565b8160041415611c5057507f0000000000000000000000000000000000000000000000000000000000000000610cc4565b8160051415611c8057507f0000000000000000000000000000000000000000000000000000000000000000610cc4565b610cc46101356128e0565b611ca26001600160a01b03841615156101986116aa565b611cb96001600160a01b03831615156101996116aa565b611cc483838361159b565b6001600160a01b038316600090815260208190526040902054611cea90826101a0613218565b6001600160a01b038085166000908152602081905260408082209390935590841681522054611d1990826121b3565b6001600160a01b0380841660008181526020819052604090819020939093559151908516907fddf252ad1be2c89b69c2b068fc378daa952ba7f163c4a11628f55a4df523b3ef90611893908590615dc3565b60007f00000000000000000000000000000000000000000000000000000000000000006001600160a01b0316826001600160a01b03161415611daf57506000610cc4565b7f00000000000000000000000000000000000000000000000000000000000000006001600160a01b0316826001600160a01b03161415611df157506001610cc4565b7f00000000000000000000000000000000000000000000000000000000000000006001600160a01b0316826001600160a01b03161415611e3357506002610cc4565b7f00000000000000000000000000000000000000000000000000000000000000006001600160a01b0316826001600160a01b03161415611e7557506003610cc4565b7f00000000000000000000000000000000000000000000000000000000000000006001600160a01b0316826001600160a01b03161415611eb757506004610cc4565b7f00000000000000000000000000000000000000000000000000000000000000006001600160a01b0316826001600160a01b03161415611c8057506005610cc4565b6000610cc18260c0602061169b565b6000826001600160a01b031663679aefce6040518163ffffffff1660e01b815260040160206040518083038186803b158015611f4357600080fd5b505afa158015611f57573d6000803e3d6000fd5b505050506040513d601f19601f82011682018060405250810190611f7b9190615b4a565b6000858152600a6020526040902054909150611f98818385611605565b6000868152600a602052604090819020919091555185907fb77a83204ca282e08dc3a65b0a1ca32ea4e6875c38ef0bf5bf75e52a67354fac90611fdc908590615dc3565b60405180910390a25050505050565b600061201a6000357fffffffff0000000000000000000000000000000000000000000000000000000016611082565b9050610bdf612029823361322e565b6101916116aa565b600080600080600080612042613317565b93509350935093508042101561209557600194508383111561207957818103824203858503028161206f57fe5b0484019550612090565b818103824203848603028161208a57fe5b04840395505b61209d565b600094508295505b505050509091565b60006120b482151560046116aa565b826120c15750600061086a565b8160018403816120cd57fe5b04600101905061086a565b6120e484848484613376565b7f1835882ee7a34ac194f717a35e09bb1d24c82a3b9d854ab6c9749525b714cdf2848484846040516121199493929190615ee9565b60405180910390a150505050565b610906612132611afd565b6101926116aa565b61214f6121456133b5565b82101560cb6116aa565b61216461215a6133be565b82111560ca6116aa565b600854612175908260c0603f6115c7565b6008556040517fa9ba3ffe0b6c366b81232caab38605a0699ad5398d6cce76f91ee809e322dafc906121a8908390615dc3565b60405180910390a150565b600082820161157c84821015836116aa565b80156121e5576121e06121d6611b1a565b42106101936116aa565b6121fa565b6121fa6121f0611b3e565b42106101a96116aa565b600780547fffffffffffffffffffffffffffffffffffffffffffffffffffffffffffffff00168215151790556040517f9e3a5e37224532dea67b89face185703738a228a6e8a23dee546960180d3be64906121a8908390615da0565b6000612260610be2565b9050600061226c61114c565b6001600160a01b031663b05f8e4883866040518363ffffffff1660e01b8152600401612299929190615e64565b60806040518083038186803b1580156122b157600080fd5b505afa1580156122c5573d6000803e3d6000fd5b505050506040513d601f19601f820116820180604052508101906122e99190615b83565b6040517f18e736d40000000000000000000000000000000000000000000000000000000081529094506001600160a01b03851693506318e736d49250612336915085908790600401615e4b565b600060405180830381600087803b15801561235057600080fd5b505af115801561131c573d6000803e3d6000fd5b600854612373908260ff6115a0565b6008556040517feff3d4d215b42bf0960be9c6d5e05c22cba4df6627a3a523e2acee733b5854c8906123a6908390615da0565b60405180910390a180610bdf57610bdf6133ca565b60006123c561104c565b8214156123db5750670de0b6b3a7640000610cc4565b6000828152600a602052604090205480156123fe576123f981612a03565b61157c565b670de0b6b3a76400009392505050565b610c9881831460676116aa565b6000606061242c600088868661349c565b915091509850989650505050505050565b8151815161244c90829061240e565b60005b81811015610aca5761248784828151811061246657fe5b602002602001015184838151811061247a57fe5b602002602001015161288f565b84828151811061249357fe5b602090810291909101015260010161244f565b333014612595576000306001600160a01b03166000366040516124ca929190615cc1565b6000604051808303816000865af19150503d8060008114612507576040519150601f19603f3d011682016040523d82523d6000602084013e61250c565b606091505b50509050806000811461251b57fe5b60046000803e6000517fffffffff00000000000000000000000000000000000000000000000000000000167f43adbafb000000000000000000000000000000000000000000000000000000008114612577573d6000803e3d6000fd5b506020600460003e604060205260243d03602460403e601c3d016000f35b61259d6116b8565b60606125a7611704565b90506125b38782612990565b600060606125cb8c8c8c8c8c8c898d8d63ffffffff16565b915091506125dd81848663ffffffff16565b8051601f1982018390526343adbafb7fffffffffffffffffffffffffffffffffffffffffffffffffffffffffffffffc08301526020027fffffffffffffffffffffffffffffffffffffffffffffffffffffffffffffffdc82016044820181fd5b6060600080600080606061264f61114c565b6001600160a01b031663f94d4668612665610be2565b6040518263ffffffff1660e01b81526004016126819190615dc3565b60006040518083038186803b15801561269957600080fd5b505afa1580156126ad573d6000803e3d6000fd5b505050506040513d6000823e601f3d908101601f191682016040526126d59190810190615663565b509150506126ea816126e5611704565b612990565b6126f38161354a565b965094506000612701610c41565b90945090506000612713888684613583565b945090506127218782613610565b95505050509091929394565b80516000908190815b8181101561276e5761276485828151811061274d57fe5b6020026020010151846121b390919063ffffffff16565b9250600101612736565b508161277f5760009250505061086a565b600082868302825b60ff811015612878578260005b868110156127d5576127cb6127a98387611558565b6127c68c84815181106127b857fe5b60200260200101518a611558565b613628565b9150600101612794565b5083945061282e61280d6128076127ec848a611558565b6128016127f9888d611558565b6103e8613628565b906121b3565b86611558565b6127c661281d8960010185611558565b6128016127f96103e889038a611558565b93508484111561285657600185850311612851578397505050505050505061086a565b61286f565b60018486031161286f578397505050505050505061086a565b50600101612787565b506128846101416128e0565b505050505092915050565b600061289e82151560046116aa565b826128ab5750600061086a565b670de0b6b3a7640000838102906128ce908583816128c557fe5b041460056116aa565b8281816128d757fe5b0491505061086a565b610bdf817f42414c0000000000000000000000000000000000000000000000000000000000613648565b6000808251118015610cc1575060ff80168280602001905181019061292f9190615bc3565b60ff161492915050565b610906612944611254565b6101b66116aa565b600060606000606061295d8761354a565b91509150600060606129708385896136c3565b91509150816129808260006136ef565b9550955050505050935093915050565b8151815161299f90829061240e565b60005b81811015610aca576129da8482815181106129b957fe5b60200260200101518483815181106129cd57fe5b6020026020010151612ff0565b8482815181106129e657fe5b60209081029190910101526001016129a2565b610c9882826137ac565b6000610cc18282606061169b565b6000610cc18260608061169b565b600080612a2b83611ef9565b9150612a3a8360e0602061169b565b9050915091565b6000606061242c600188868661349c565b81518151612a6190829061240e565b60005b81811015610aca57612a9c848281518110612a7b57fe5b6020026020010151848381518110612a8f57fe5b6020026020010151613878565b848281518110612aa857fe5b6020908102919091010152600101612a64565b6000612ac561114c565b6001600160a01b031663aaabadc56040518163ffffffff1660e01b815260040160206040518083038186803b158015612afd57600080fd5b505afa158015612b11573d6000803e3d6000fd5b505050506040513d601f19601f820116820180604052508101906107be9190615832565b6000610cc17f0000000000000000000000000000000000000000000000000000000000000000835b1c60019081161490565b60408051604180825260808201909252606091829190602082018180368337019050509050836020820152826040820152846060820153949350505050565b6000612bb1856138c6565b9050612bc7612bc18783876138e2565b836116aa565b612bd6428410156101b86116aa565b5050506001600160a01b039092166000908152600660205260409020805460010190555050565b600060606000612c0c84613991565b9050612c276000826003811115612c1f57fe5b1460ce6116aa565b6060612c32856139a7565b9050612c408151875161240e565b612c4a8187612990565b6000612c54612031565b5090506060612c62836139bd565b90506000612c70838361272d565b9050806000612c8d6d8000000000000000000000000000836115ef565b9050612c998d82612cd6565b8086612ca361104c565b81518110612cad57fe5b602002602001018181525050612cc385846131f2565b509c939b50929950505050505050505050565b610c988282613a5f565b6001600160a01b03918216600090815260016020908152604080832093909416825291909152205490565b612d1781824242613376565b7fa0d01593e47e69d07e0ccd87bece09411e07dd1ed40ca8f2e7af2976542a0233816040516121a89190615dc3565b60007f00000000000000000000000000000000000000000000000000000000000000007f00000000000000000000000000000000000000000000000000000000000000007f0000000000000000000000000000000000000000000000000000000000000000612db3613aec565b30604051602001612dc8959493929190615e1f565b60405160208183030381529060405280519060200120905090565b600281511015612df257610bdf565b600081600081518110612e0157fe5b602002602001015190506000600190505b825181101561159b576000838281518110612e2957fe5b60200260200101519050612e52816001600160a01b0316846001600160a01b03161060656116aa565b9150600101612e12565b612e6b610100831060646116aa565b612e93600182101580156116fd5750612e8960ff8461010003611685565b82111560646116aa565b61159b83821c156101b46116aa565b610906612127565b6000612eb46116c8565b905060005b81811015610c9857612eca81613af0565b600101612eb9565b600081612f0057507f0000000000000000000000000000000000000000000000000000000000000000610cc4565b8160011415612f3057507f0000000000000000000000000000000000000000000000000000000000000000610cc4565b8160021415612f6057507f0000000000000000000000000000000000000000000000000000000000000000610cc4565b8160031415612f9057507f0000000000000000000000000000000000000000000000000000000000000000610cc4565b8160041415612fc057507f0000000000000000000000000000000000000000000000000000000000000000610cc4565b8160051415611c8057507f0000000000000000000000000000000000000000000000000000000000000000610cc4565b600082820261300a84158061157557508385838161157257fe5b670de0b6b3a764000090049392505050565b60006130288583612990565b613049866060015183858151811061303c57fe5b6020026020010151613b44565b6060870152600061305c87878787613b50565b905061307b8184878151811061306e57fe5b6020026020010151613b64565b90506107a981613b70565b600080808751600181111561309757fe5b1490506130a48684612990565b6130c4876060015184836130b857866130ba565b875b8151811061303c57fe5b876060018181525050600060606000806130dd8a613b8c565b93509350935093506000806130f061104c565b8a1461311657613111878e60600151876131098e613bf5565b888b89613c2a565b613131565b613131878e60600151876131298f613bf5565b888b89613c63565b915091506131428486858985613c87565b8661315c57613157828a8d8151811061306e57fe5b613179565b613179828a8c8151811061316c57fe5b6020026020010151613d07565b9d9c50505050505050505050505050565b60006131998660600151613d13565b60608701526131a88583612990565b6131bc866060015183868151811061303c57fe5b606087015260006131cf87878787613d34565b90506107a98184868151811061316c57fe5b610bdf6131ec611277565b82612cd6565b6131ff81600060e9611672565b61320c8360e96017611672565b17600c55610c98613d48565b600061322784841115836116aa565b5050900390565b600073ba1ba1ba1ba1ba1ba1ba1ba1ba1ba1ba1ba1ba1b61324d611128565b6001600160a01b031614158015613268575061326883613d7e565b1561329057613275611128565b6001600160a01b0316336001600160a01b031614905061086a565b613298612abb565b6001600160a01b0316639be2a8848484306040518463ffffffff1660e01b81526004016132c793929190615dcc565b60206040518083038186803b1580156132df57600080fd5b505afa1580156132f3573d6000803e3d6000fd5b505050506040513d601f19601f8201168201806040525081019061147f919061572f565b6000806000806133366000604060095461169b9092919063ffffffff16565b6009549094506133489060408061169b565b60095490935061335b906080604061169b565b60095490925061336e9060c0604061169b565b905090919293565b6133838160c06040611672565b6133908360806040611672565b61339c85604080611672565b6133a98760006040611672565b17171760095550505050565b64e8d4a5100090565b67016345785d8a000090565b60606133d461114c565b6001600160a01b031663f94d46686133ea610be2565b6040518263ffffffff1660e01b81526004016134069190615dc3565b60006040518083038186803b15801561341e57600080fd5b505afa158015613432573d6000803e3d6000fd5b505050506040513d6000823e601f3d908101601f1916820160405261345a9190810190615663565b5091505061346a816126e5611704565b6060613475826139bd565b90506000613481612031565b5090506000613490828461272d565b9050610aca82826131f2565b60006060600060606000806134b089613b8c565b93509350935093506153d08a6134c857613d896134cc565b613e1e5b9050600060606134e4868689878f8f8963ffffffff16565b915091506153d08d6134f8576115ef6134fc565b6121b35b9050613509878383613e9c565b600061351989858463ffffffff16565b90506135288789888c85613c87565b836135348460006136ef565b9a509a5050505050505050505094509492505050565b600060606135718361355a61104c565b8151811061356457fe5b6020026020010151613f10565b61357a846139bd565b91509150915091565b60008060008060006135958888613f24565b92509250925060008684116135ab5760006135af565b8684035b905060008484116135c15760006135c5565b8484035b905060006135e06135d66000610dfb565b611778858761288f565b905060006135fb6135f16002610dfb565b611778858861288f565b919091019b939a509298505050505050505050565b600061157c61361f8484611558565b6127c684613fa6565b600061363782151560046116aa565b81838161364057fe5b049392505050565b7f08c379a000000000000000000000000000000000000000000000000000000000600090815260206004526007602452600a808404818106603090810160081b958390069590950190829004918206850160101b01602363ffffff0060e086901c160160181b0190930160c81b60445260e882901c90606490fd5b6000606060006136d284613fcc565b905060606136e1878784613fe2565b919791965090945050505050565b6060825160010167ffffffffffffffff8111801561370c57600080fd5b50604051908082528060200260200182016040528015613736578160200160208202803683370190505b50905060005b81518110156137a55761374d61104c565b8114613784578361375c61104c565b821061376b576001820361376d565b815b8151811061377757fe5b6020026020010151613786565b825b82828151811061379257fe5b602090810291909101015260010161373c565b5092915050565b6137c36001600160a01b038316151561019b6116aa565b6137cf8260008361159b565b6001600160a01b0382166000908152602081905260409020546137f590826101b2613218565b6001600160a01b0383166000908152602081905260409020556138286138238261381d61092c565b90614091565b61409f565b60006001600160a01b0316826001600160a01b03167fddf252ad1be2c89b69c2b068fc378daa952ba7f163c4a11628f55a4df523b3ef8360405161386c9190615dc3565b60405180910390a35050565b600061388782151560046116aa565b826138945750600061086a565b670de0b6b3a7640000838102906138ae908583816128c557fe5b8260018203816138ba57fe5b0460010191505061086a565b60006138d0612d46565b826040516020016110b7929190615cd1565b60006138f482516041146101b96116aa565b60208281015160408085015160608601518251600080825295019283905292939092811a9160019061392d908990859088908890615e7b565b6020604051602081039080840390855afa15801561394f573d6000803e3d6000fd5b5050604051601f1901519150506001600160a01b038116158015906139855750876001600160a01b0316816001600160a01b0316145b98975050505050505050565b600081806020019051810190610cc1919061595d565b60608180602001905181019061157c9190615978565b606080600183510367ffffffffffffffff811180156139db57600080fd5b50604051908082528060200260200182016040528015613a05578160200160208202803683370190505b50905060005b81518110156137a55783613a1d61104c565b8210613a2c5781600101613a2e565b815b81518110613a3857fe5b6020026020010151828281518110613a4c57fe5b6020908102919091010152600101613a0b565b613a6b6000838361159b565b613a7a6138238261280161092c565b6001600160a01b038216600090815260208190526040902054613a9d90826121b3565b6001600160a01b0383166000818152602081905260408082209390935591519091907fddf252ad1be2c89b69c2b068fc378daa952ba7f163c4a11628f55a4df523b3ef9061386c908590615dc3565b4690565b613af861104c565b811415613b0457610bdf565b6000818152600a60205260409020548015610c9857600080613b2583612a1f565b9150915080421115610aca57610aca84613b3e86611b62565b84611f08565b600061157c8383612ff0565b60006117ed600086606001518686866140a4565b600061157c8383613878565b6000610cc1613b85613b80610d2a565b613fa6565b8390613878565b60006060600080600080613b9e610c41565b91509150600060606000613bb38a8686614116565b9250925092506000613bc3612031565b5090506000868214613bde57613bd9828561272d565b613be0565b825b949c939b509099509297509095505050505050565b6000613c0c613c0261104c565b83141560646116aa565b613c1461104c565b821061166e57613c258260016115ef565b610cc1565b60008088613c4557613c4088888888888861416e565b613c53565b613c53888888888888614245565b9150915097509795505050505050565b60008088613c7957613c408888888888886142a6565b613c5388888888888861430c565b6000613c93868661272d565b90506000613ca1838561288f565b90506000613caf8683612ff0565b905080831115613cfd578083036000613cd9613cd383613cce84610dfb565b611558565b86613628565b90508015613cfa576000613ced8783613610565b9050613cf8816131e1565b505b50505b61131c88846131f2565b600061157c838361288f565b600080613d28613d21610d2a565b84906143bb565b905061157c83826115ef565b60006117ed600186606001518686866140a4565b6000613d526116c8565b905060005b81811015610c9857613d68816143f7565b15613d7657613d7681614426565b600101613d57565b6000610cc182614454565b600060606000613d988461445f565b90506001816002811115613da857fe5b1415613dc657613dbc87878a8c8989614475565b9250925050613e13565b6002816002811115613dd457fe5b1415613de557613dbc878a866144d4565b6000816002811115613df357fe5b1415613e0657613dbc87878a8c886144f2565b613e116101506128e0565b505b965096945050505050565b600060606000613e2d84613991565b90506001816003811115613e3d57fe5b1415613e5157613dbc87878a8c8989614593565b6003816003811115613e5f57fe5b1415613e7057613dbc878a866145e2565b6002816003811115613e7e57fe5b1415613e9157613dbc87878a8c88614600565b613e116101366128e0565b82518251613eab90829061240e565b60005b81811015613f0957613eea858281518110613ec557fe5b6020026020010151858381518110613ed957fe5b60200260200101518563ffffffff16565b858281518110613ef657fe5b6020908102919091010152600101613eae565b5050505050565b6000610cc182613f1e61092c565b906115ef565b6000806000613f3d84613f3887600161467a565b61272d565b9250613f47614783565b15613f6057613f56848661272d565b9150819050613f9f565b613f686147a7565b15613f8157829150613f7a848661272d565b9050613f9f565b613f9084613f3887600061467a565b9150613f9c848661272d565b90505b9250925092565b6000670de0b6b3a76400008210613fbe576000610cc1565b50670de0b6b3a76400000390565b60008180602001905181019061157c9190615bdf565b60606000613ff0838561288f565b9050845167ffffffffffffffff8111801561400a57600080fd5b50604051908082528060200260200182016040528015614034578160200160208202803683370190505b50915060005b8551811015614088576140698287838151811061405357fe5b6020026020010151612ff090919063ffffffff16565b83828151811061407557fe5b602090810291909101015260010161403a565b50509392505050565b600061157c83836001613218565b600255565b600060606140b1856139bd565b905060006140be85613bf5565b905060006140cb85613bf5565b905060006140d7612031565b50905060006140e6828661272d565b90508a15614108576140fc828686868e866147cb565b955050505050506117ed565b6140fc828686868e86614856565b6000606060008060606141288861354a565b9150915060008061413a838a8a613583565b91509150600061414a8584613610565b9050801561415b5761415b816131e1565b9390930199919850919650945050505050565b6000806060875167ffffffffffffffff8111801561418b57600080fd5b506040519080825280602002602001820160405280156141b5578160200160208202803683370190505b509050888188815181106141c557fe5b60200260200101818152505060006141e8878a8489896141e3610d2a565b6148e9565b90506142108a8a8a815181106141fa57fe5b60200260200101516115ef90919063ffffffff16565b89898151811061421c57fe5b6020908102919091010152600061423387836115ef565b919b919a509098505050505050505050565b60008060006142608689898c898961425b610d2a565b614b79565b9050614272818989815181106141fa57fe5b88888151811061427e57fe5b60209081029190910101526000614295868b6115ef565b919a91995090975050505050505050565b60008060006142c18689898c89896142bc610d2a565b614c68565b90506142e9818989815181106142d357fe5b60200260200101516121b390919063ffffffff16565b8888815181106142f557fe5b60209081029190910101526000614295868b6121b3565b6000806060875167ffffffffffffffff8111801561432957600080fd5b50604051908082528060200260200182016040528015614353578160200160208202803683370190505b5090508881888151811061436357fe5b6020026020010181815250506000614386878a848989614381610d2a565b614d35565b90506143988a8a8a815181106142d357fe5b8989815181106143a457fe5b6020908102919091010152600061423387836121b3565b60008282026143d584158061157557508385838161157257fe5b806143e457600091505061086a565b670de0b6b3a764000060001982016138ba565b6000610cc17f000000000000000000000000000000000000000000000000000000000000000060068401612b5d565b6000818152600a602052604090205461443e8161163d565b6000928352600a60205260409092209190915550565b6000610cc182614fb6565b600081806020019051810190610cc1919061589c565b6000606080600061448585614ff2565b915091506144958251885161240e565b6144a2826126e5886139bd565b60006144b48989858e8e6141e3610d2a565b90506144c48282111560cf6116aa565b9a91995090975050505050505050565b6000606060006144e384615015565b905060606136e1868884613fe2565b600060606000806145028561502b565b915091506145148651821060646116aa565b6060865167ffffffffffffffff8111801561452e57600080fd5b50604051908082528060200260200182016040528015614558578160200160208202803683370190505b50905061456c888884868e8e61425b610d2a565b81838151811061457857fe5b60209081029190910101529199919850909650505050505050565b600060608060006145a385615042565b915091506145b38751835161240e565b6145c0826126e5886139bd565b60006145d28989858e8e614381610d2a565b90506144c48282101560d06116aa565b6000606060006145f18461505a565b905060606136e1868389615070565b600060606000806146108561510c565b915091506146228651821060646116aa565b6060865167ffffffffffffffff8111801561463c57600080fd5b50604051908082528060200260200182016040528015614666578160200160208202803683370190505b50905061456c888884868e8e6142bc610d2a565b8151606090818167ffffffffffffffff8111801561469757600080fd5b506040519080825280602002602001820160405280156146c1578160200160208202803683370190505b50905060005b8281101561477a5760006146d961104c565b8210156146e657816146eb565b816001015b90506146f681612b35565b8061470d575085801561470d575061470d816143f7565b61472a5786828151811061471d57fe5b602002602001015161475a565b61475a87838151811061473957fe5b6020026020010151600a600084815260200190815260200160002054615123565b83838151811061476657fe5b6020908102919091010152506001016146c7565b50949350505050565b7f000000000000000000000000000000000000000000000000000000000000000090565b7f000000000000000000000000000000000000000000000000000000000000000090565b60006147dd838787815181106142d357fe5b8686815181106147e957fe5b60200260200101818152505060006148038888858861513e565b90508387878151811061481257fe5b60200260200101510387878151811061482757fe5b6020026020010181815250506148486001613f1e838a89815181106141fa57fe5b9150505b9695505050505050565b6000614868838786815181106141fa57fe5b86858151811061487457fe5b602002602001018181525050600061488e8888858961513e565b90508387868151811061489d57fe5b6020026020010151018786815181106148b257fe5b60200260200101818152505061484860016128018989815181106148d257fe5b6020026020010151846115ef90919063ffffffff16565b600080805b87518110156149275761491d88828151811061490657fe5b6020026020010151836121b390919063ffffffff16565b91506001016148ee565b506060865167ffffffffffffffff8111801561494257600080fd5b5060405190808252806020026020018201604052801561496c578160200160208202803683370190505b5090506000805b8951811015614a395760006149a4858c848151811061498e57fe5b602002602001015161387890919063ffffffff16565b90506149e68b83815181106149b557fe5b60200260200101516149e08c85815181106149cc57fe5b60200260200101518e86815181106141fa57fe5b90613878565b8483815181106149f257fe5b602002602001018181525050614a2e614a2782868581518110614a1157fe5b60200260200101516143bb90919063ffffffff16565b84906121b3565b925050600101614973565b506060895167ffffffffffffffff81118015614a5457600080fd5b50604051908082528060200260200182016040528015614a7e578160200160208202803683370190505b50905060005b8a51811015614b49576000848281518110614a9b57fe5b6020026020010151841115614b02576000614ac4614ab886613fa6565b8e858151811061405357fe5b90506000614ad8828e86815181106141fa57fe5b9050614af9614af282670de0b6b3a76400008d9003613878565b83906121b3565b92505050614b19565b8a8281518110614b0e57fe5b602002602001015190505b614b29818d84815181106141fa57fe5b838381518110614b3557fe5b602090810291909101015250600101614a84565b506000614b568c8361272d565b90506000614b64828a61288f565b9050613179614b7282613fa6565b8b906143bb565b600080614b9484614b8e876149e0818b6115ef565b906143bb565b90506000614ba48a8a848b61513e565b90506000614bb8828b8b815181106141fa57fe5b90506000805b8b51811015614be057614bd68c828151811061490657fe5b9150600101614bbe565b506000614c09828d8d81518110614bf357fe5b602002602001015161288f90919063ffffffff16565b90506000614c1682613fa6565b90506000614c2485836143bb565b90506000614c3286836115ef565b9050614c53614c4c83670de0b6b3a76400008d9003612ff0565b82906121b3565b98505050505050505050979650505050505050565b600080614c7d84614b8e876149e0818b6121b3565b90506000614c8d8a8a848b61513e565b90506000614cb78a8a81518110614ca057fe5b6020026020010151836115ef90919063ffffffff16565b90506000805b8b51811015614cdf57614cd58c828151811061490657fe5b9150600101614cbd565b506000614cf2828d8d81518110614bf357fe5b90506000614cff82613fa6565b90506000614d0d85836143bb565b90506000614d1b86836115ef565b9050614c53614c4c83670de0b6b3a76400008d9003613878565b600080805b8751811015614d5c57614d5288828151811061490657fe5b9150600101614d3a565b506060865167ffffffffffffffff81118015614d7757600080fd5b50604051908082528060200260200182016040528015614da1578160200160208202803683370190505b5090506000805b8951811015614e3b576000614dc3858c8481518110614bf357fe5b9050614e058b8381518110614dd457fe5b6020026020010151614dff8c8581518110614deb57fe5b60200260200101518e86815181106142d357fe5b9061288f565b848381518110614e1157fe5b602002602001018181525050614e30614a278286858151811061405357fe5b925050600101614da8565b506060895167ffffffffffffffff81118015614e5657600080fd5b50604051908082528060200260200182016040528015614e80578160200160208202803683370190505b50905060005b8a51811015614f4157600083858381518110614e9e57fe5b60200260200101511115614efa576000614ec3614ab886670de0b6b3a76400006115ef565b90506000614ed7828e86815181106141fa57fe5b9050614ef1614af282670de0b6b3a76400008d9003612ff0565b92505050614f11565b8a8281518110614f0657fe5b602002602001015190505b614f21818d84815181106142d357fe5b838381518110614f2d57fe5b602090810291909101015250600101614e86565b506000614f4e8c8361272d565b90506000614f5c828a61288f565b9050670de0b6b3a7640000811115614fa757614f9a8a7ffffffffffffffffffffffffffffffffffffffffffffffffff21f494c589c00008301612ff0565b965050505050505061484c565b6000965050505050505061484c565b6000614fe17ff4b7964d00000000000000000000000000000000000000000000000000000000611082565b821480610cc15750610cc1826152fb565b606060008280602001905181019061500a91906158b7565b909590945092505050565b60008180602001905181019061157c91906158fc565b6000808280602001905181019061500a9190615928565b606060008280602001905181019061500a91906159bb565b60008180602001905181019061157c91906159d9565b6060600061507e8484613878565b90506060855167ffffffffffffffff8111801561509a57600080fd5b506040519080825280602002602001820160405280156150c4578160200160208202803683370190505b50905060005b8651811015615102576150e383888381518110614a1157fe5b8282815181106150ef57fe5b60209081029190910101526001016150ca565b5095945050505050565b6000808280602001905181019061500a91906159f5565b600061157c61513584613cce85612a11565b6127c684612a03565b60008084518602905060008560008151811061515657fe5b60200260200101519050600086518760008151811061517157fe5b60200260200101510290506000600190505b87518110156151d7576151bc6151b66151af848b85815181106151a257fe5b6020026020010151611558565b8a51611558565b88613628565b91506151cd88828151811061274d57fe5b9250600101615183565b508685815181106151e457fe5b60200260200101518203915060006151fc8788611558565b9050600061522861521c61521484610b688988611558565b6103e8611558565b8a89815181106151a257fe5b9050600061524361523c6152148b89613628565b86906121b3565b905060008061525f61525586866121b3565b610b688d866121b3565b905060005b60ff8110156152df57819250615294615281866128018586611558565b610b688e613f1e88612801886002611558565b9150828211156152bd576001838303116152b8575097506115e79650505050505050565b6152d7565b6001828403116152d7575097506115e79650505050505050565b600101615264565b506152eb6101426128e0565b5050505050505050949350505050565b60006153267f2f1a0bc900000000000000000000000000000000000000000000000000000000611082565b82148061535a57506153577feb0f24d600000000000000000000000000000000000000000000000000000000611082565b82145b80610cc15750610cc182600061538f7f38e9922e00000000000000000000000000000000000000000000000000000000611082565b8214806153c357506153c07f50dd6ed900000000000000000000000000000000000000000000000000000000611082565b82145b80610cc157506000610cc1565bfe5b803561086a81615f59565b600082601f8301126153ed578081fd5b81356154006153fb82615f39565b615f12565b81815291506020808301908481018184028601820187101561542157600080fd5b60005b8481101561288457813584529282019290820190600101615424565b600082601f830112615450578081fd5b815161545e6153fb82615f39565b81815291506020808301908481018184028601820187101561547f57600080fd5b60005b8481101561288457815184529282019290820190600101615482565b600082601f8301126154ae578081fd5b813567ffffffffffffffff8111156154c4578182fd5b6154d76020601f19601f84011601615f12565b91508082528360208285010111156154ee57600080fd5b8060208401602084013760009082016020015292915050565b80516003811061086a57600080fd5b80516004811061086a57600080fd5b80356002811061086a57600080fd5b600060208284031215615545578081fd5b813561157c81615f59565b60008060408385031215615562578081fd5b823561556d81615f59565b9150602083013561557d81615f59565b809150509250929050565b60008060006060848603121561559c578081fd5b83356155a781615f59565b925060208401356155b781615f59565b929592945050506040919091013590565b600080600080600080600060e0888a0312156155e2578283fd5b87356155ed81615f59565b965060208801356155fd81615f59565b95506040880135945060608801359350608088013561561b81615f6e565b9699959850939692959460a0840135945060c09093013592915050565b6000806040838503121561564a578182fd5b823561565581615f59565b946020939093013593505050565b600080600060608486031215615677578081fd5b835167ffffffffffffffff8082111561568e578283fd5b818601915086601f8301126156a1578283fd5b81516156af6153fb82615f39565b80828252602080830192508086018b8283870289010111156156cf578788fd5b8796505b848710156156fa5780516156e681615f59565b8452600196909601959281019281016156d3565b508901519097509350505080821115615711578283fd5b5061571e86828701615440565b925050604084015190509250925092565b600060208284031215615740578081fd5b8151801515811461157c578182fd5b600080600080600080600060e0888a031215615769578081fd5b87359650602088013561577b81615f59565b9550604088013561578b81615f59565b9450606088013567ffffffffffffffff808211156157a7578283fd5b6157b38b838c016153dd565b955060808a0135945060a08a0135935060c08a01359150808211156157d6578283fd5b506157e38a828b0161549e565b91505092959891949750929550565b600060208284031215615803578081fd5b81357fffffffff000000000000000000000000000000000000000000000000000000008116811461157c578182fd5b600060208284031215615843578081fd5b815161157c81615f59565b60008060408385031215615860578182fd5b823561586b81615f59565b9150602083013567ffffffffffffffff811115615886578182fd5b6158928582860161549e565b9150509250929050565b6000602082840312156158ad578081fd5b61157c8383615507565b6000806000606084860312156158cb578081fd5b6158d58585615507565b9250602084015167ffffffffffffffff8111156158f0578182fd5b61571e86828701615440565b6000806040838503121561590e578182fd5b6159188484615507565b9150602083015190509250929050565b60008060006060848603121561593c578081fd5b6159468585615507565b925060208401519150604084015190509250925092565b60006020828403121561596e578081fd5b61157c8383615516565b6000806040838503121561598a578182fd5b6159948484615516565b9150602083015167ffffffffffffffff8111156159af578182fd5b61589285828601615440565b6000806000606084860312156159cf578081fd5b6158d58585615516565b600080604083850312156159eb578182fd5b6159188484615516565b600080600060608486031215615a09578081fd5b6159468585615516565b60008060008060808587031215615a28578182fd5b843567ffffffffffffffff80821115615a3f578384fd5b818701915061012080838a031215615a55578485fd5b615a5e81615f12565b9050615a6a8984615525565b8152615a7989602085016153d2565b6020820152615a8b89604085016153d2565b6040820152606083013560608201526080830135608082015260a083013560a0820152615abb8960c085016153d2565b60c0820152615acd8960e085016153d2565b60e08201526101008084013583811115615ae5578687fd5b615af18b82870161549e565b828401525050809650506020870135915080821115615b0e578384fd5b50615b1b878288016153dd565b949794965050505060408301359260600135919050565b600060208284031215615b43578081fd5b5035919050565b600060208284031215615b5b578081fd5b5051919050565b60008060408385031215615b74578182fd5b50508035926020909101359150565b60008060008060808587031215615b98578182fd5b8451935060208501519250604085015191506060850151615bb881615f59565b939692955090935050565b600060208284031215615bd4578081fd5b815161157c81615f6e565b60008060408385031215615bf1578182fd5b8251615bfc81615f6e565b6020939093015192949293505050565b6000815180845260208085019450808401835b83811015615c3b57815187529582019590820190600101615c1f565b509495945050505050565b60008151808452815b81811015615c6b57602081850181015186830182015201615c4f565b81811115615c7c5782602083870101525b50601f01601f19169290920160200192915050565b9182527fffffffff0000000000000000000000000000000000000000000000000000000016602082015260240190565b6000828483379101908152919050565b7f190100000000000000000000000000000000000000000000000000000000000081526002810192909252602282015260420190565b6001600160a01b0391909116815260200190565b6020808252825182820181905260009190848201906040850190845b81811015615d5c5783516001600160a01b031683529284019291840191600101615d37565b50909695505050505050565b60006020825261157c6020830184615c0c565b600060408252615d8e6040830185615c0c565b82810360208401526117ed8185615c0c565b901515815260200190565b92151583526020830191909152604082015260600190565b90815260200190565b9283526001600160a01b03918216602084015216604082015260600190565b9586526001600160a01b0394851660208701529290931660408501526060840152608083019190915260a082015260c00190565b9485526020850193909352604084019190915260608301526001600160a01b0316608082015260a00190565b6000838252604060208301526115e76040830184615c46565b9182526001600160a01b0316602082015260400190565b93845260ff9290921660208401526040830152606082015260800190565b60006020825261157c6020830184615c46565b6000838252604060208301526115e76040830184615c0c565b9283529015156020830152604082015260600190565b918252602082015260400190565b93845260208401929092526040830152606082015260800190565b60ff91909116815260200190565b60405181810167ffffffffffffffff81118282101715615f3157600080fd5b604052919050565b600067ffffffffffffffff821115615f4f578081fd5b5060209081020190565b6001600160a01b0381168114610bdf57600080fd5b60ff81168114610bdf57600080fdfea2646970667358221220dcc30bf1aa1b16ae6ad0c83c0807514f1e6fdbe66d9e246a013ce46ba54d53bf64736f6c634300070100336bfb689528fa96ec1ad670ad6d6064be1ae96bfd5d2ee35c837fd0fe0c11959a",
  "linkReferences": {},
  "deployedLinkReferences": {}
}