{
  "_format": "hh-sol-artifact-1",
  "contractName": "TetuLinearPoolFactory",
  "sourceName": "contracts/tetu/TetuLinearPoolFactory.sol",
  "abi": [
    {
      "inputs": [
        {
          "internalType": "contract IVault",
          "name": "vault",
          "type": "address"
        },
        {
          "internalType": "contract IProtocolFeePercentagesProvider",
          "name": "protocolFeeProvider",
          "type": "address"
        },
        {
          "internalType": "contract IBalancerQueries",
          "name": "queries",
          "type": "address"
        }
      ],
      "stateMutability": "nonpayable",
      "type": "constructor"
    },
    {
      "anonymous": false,
      "inputs": [],
      "name": "FactoryDisabled",
      "type": "event"
    },
    {
      "anonymous": false,
      "inputs": [
        {
          "indexed": true,
          "internalType": "address",
          "name": "pool",
          "type": "address"
        }
      ],
      "name": "PoolCreated",
      "type": "event"
    },
    {
      "inputs": [
        {
          "internalType": "string",
          "name": "name",
          "type": "string"
        },
        {
          "internalType": "string",
          "name": "symbol",
          "type": "string"
        },
        {
          "internalType": "contract IERC20",
          "name": "mainToken",
          "type": "address"
        },
        {
          "internalType": "contract IERC20",
          "name": "wrappedToken",
          "type": "address"
        },
        {
          "internalType": "uint256",
          "name": "upperTarget",
          "type": "uint256"
        },
        {
          "internalType": "uint256",
          "name": "swapFeePercentage",
          "type": "uint256"
        },
        {
          "internalType": "address",
          "name": "owner",
          "type": "address"
        }
      ],
      "name": "create",
      "outputs": [
        {
          "internalType": "contract LinearPool",
          "name": "",
          "type": "address"
        }
      ],
      "stateMutability": "nonpayable",
      "type": "function"
    },
    {
      "inputs": [],
      "name": "disable",
      "outputs": [],
      "stateMutability": "nonpayable",
      "type": "function"
    },
    {
      "inputs": [
        {
          "internalType": "bytes4",
          "name": "selector",
          "type": "bytes4"
        }
      ],
      "name": "getActionId",
      "outputs": [
        {
          "internalType": "bytes32",
          "name": "",
          "type": "bytes32"
        }
      ],
      "stateMutability": "view",
      "type": "function"
    },
    {
      "inputs": [],
      "name": "getAuthorizer",
      "outputs": [
        {
          "internalType": "contract IAuthorizer",
          "name": "",
          "type": "address"
        }
      ],
      "stateMutability": "view",
      "type": "function"
    },
    {
      "inputs": [],
      "name": "getCreationCode",
      "outputs": [
        {
          "internalType": "bytes",
          "name": "",
          "type": "bytes"
        }
      ],
      "stateMutability": "view",
      "type": "function"
    },
    {
      "inputs": [],
      "name": "getCreationCodeContracts",
      "outputs": [
        {
          "internalType": "address",
          "name": "contractA",
          "type": "address"
        },
        {
          "internalType": "address",
          "name": "contractB",
          "type": "address"
        }
      ],
      "stateMutability": "view",
      "type": "function"
    },
    {
      "inputs": [],
      "name": "getLastCreatedPool",
      "outputs": [
        {
          "internalType": "address",
          "name": "",
          "type": "address"
        }
      ],
      "stateMutability": "view",
      "type": "function"
    },
    {
      "inputs": [],
      "name": "getPauseConfiguration",
      "outputs": [
        {
          "internalType": "uint256",
          "name": "pauseWindowDuration",
          "type": "uint256"
        },
        {
          "internalType": "uint256",
          "name": "bufferPeriodDuration",
          "type": "uint256"
        }
      ],
      "stateMutability": "view",
      "type": "function"
    },
    {
      "inputs": [],
      "name": "getProtocolFeePercentagesProvider",
      "outputs": [
        {
          "internalType": "contract IProtocolFeePercentagesProvider",
          "name": "",
          "type": "address"
        }
      ],
      "stateMutability": "view",
      "type": "function"
    },
    {
      "inputs": [],
      "name": "getVault",
      "outputs": [
        {
          "internalType": "contract IVault",
          "name": "",
          "type": "address"
        }
      ],
      "stateMutability": "view",
      "type": "function"
    },
    {
      "inputs": [],
      "name": "isDisabled",
      "outputs": [
        {
          "internalType": "bool",
          "name": "",
          "type": "bool"
        }
      ],
      "stateMutability": "view",
      "type": "function"
    },
    {
      "inputs": [
        {
          "internalType": "address",
          "name": "pool",
          "type": "address"
        }
      ],
      "name": "isPoolFromFactory",
      "outputs": [
        {
          "internalType": "bool",
          "name": "",
          "type": "bool"
        }
      ],
      "stateMutability": "view",
      "type": "function"
    }
  ],
  "bytecode": "0x6101a06040523480156200001257600080fd5b50604051620091353803806200913583398101604081905262000035916200020b565b8282604051806020016200004990620001fd565b601f1982820381018352601f90910116604052805183903090839060006002820460a081905280830360e08190528185529091508362000095816200011e602090811b6200077e17901c565b60601b6001600160601b0319166080528285018051838252620000c4826200011e602090811b6200077e17901c565b6001600160601b0319606091821b811660c05296909352905261010095909552505092821b8316610120525092831b8116610140526001600255426276a70001610160529390911b90921661018052506200027492505050565b80517f602038038060206000396000f3fefefefefefefefefefefefefefefefefefefe808352600091602081018484f090845291506200016c6001600160a01b03831615156101ac62000172565b50919050565b816200018357620001838162000187565b5050565b62000199816210905360ea1b6200019c565b50565b62461bcd60e51b600090815260206004526007602452600a808404818106603090810160081b958390069590950190829004918206850160101b01602363ffffff0060e086901c160160181b0190930160c81b60445260e882901c90606490fd5b6157fb806200393a83390190565b60008060006060848603121562000220578283fd5b83516200022d816200025e565b602085015190935062000240816200025e565b604085015190925062000253816200025e565b809150509250925092565b6001600160a01b03811681146200019957600080fd5b60805160601c60a05160c05160601c60e051610100516101205160601c6101405160601c610160516101805160601c613640620002fa600039806102a352508061053652806105605250806106575250806106cf52508061067d5250806107e75250806102365280610863525080610808525080610215528061083f52506136406000f3fe60806040523480156200001157600080fd5b5060043610620000e75760003560e01c80636634b753116200008d578063851c1bb31162000063578063851c1bb314620001b85780638d928af814620001de578063aaabadc514620001e857620000e7565b80636634b753146200017e5780636c57f5a914620001a4578063739238d614620001ae57620000e7565b80632da47c4011620000c35780632da47c40146200014e5780632f2770db14620001685780635ed31282146200017457620000e7565b8062c194db14620000ec578063174481fa146200010e5780632ccb254a1462000128575b600080fd5b620000f6620001f2565b604051620001059190620011ac565b60405180910390f35b6200011862000213565b6040516200010592919062001145565b6200013f6200013936600462000f5a565b62000259565b60405162000105919062001124565b6200015862000530565b6040516200010592919062001382565b620001726200059c565b005b6200013f62000605565b620001956200018f36600462000eb8565b62000621565b6040516200010591906200116c565b620001956200064c565b6200013f62000655565b620001cf620001c936600462000ef9565b62000679565b60405162000105919062001177565b6200013f620006cd565b6200013f620006f1565b60606200020e60405180602001604052806000815250620007df565b905090565b7f00000000000000000000000000000000000000000000000000000000000000007f00000000000000000000000000000000000000000000000000000000000000009091565b600062000265620008ba565b6003805460018101909155604051606090620002846020820162000d60565b601f1982820381018352601f90910116604052620002a1620006cd565b7f0000000000000000000000000000000000000000000000000000000000000000604051602001620002d592919062001145565b60408051601f1981840301815290829052620002f59291602001620010f1565b604051602081830303815290604052905060006200031b838380519060200120620008d3565b90506000806200032a62000530565b915091506200033862000d6e565b6040518061016001604052806200034e620006cd565b73ffffffffffffffffffffffffffffffffffffffff1681526020018f81526020018e81526020018d73ffffffffffffffffffffffffffffffffffffffff1681526020018c73ffffffffffffffffffffffffffffffffffffffff1681526020018573ffffffffffffffffffffffffffffffffffffffff1681526020018b81526020018a81526020018481526020018381526020018973ffffffffffffffffffffffffffffffffffffffff16815250905060006200042b826040516020016200041691906200129d565b604051602081830303815290604052620008e9565b90508073ffffffffffffffffffffffffffffffffffffffff16638129fc1c6040518163ffffffff1660e01b8152600401600060405180830381600087803b1580156200047657600080fd5b505af11580156200048b573d6000803e3d6000fd5b5050505060006200049f600089896200093e565b90508073ffffffffffffffffffffffffffffffffffffffff168673ffffffffffffffffffffffffffffffffffffffff161462000512576040517f08c379a000000000000000000000000000000000000000000000000000000000815260040162000509906200122f565b60405180910390fd5b5096505050505050506200052562000a1c565b979650505050505050565b600080427f00000000000000000000000000000000000000000000000000000000000000008110156200058e57807f000000000000000000000000000000000000000000000000000000000000000003925062278d00915062000597565b60009250600091505b509091565b620005a662000a23565b620005b062000a72565b600180547fffffffffffffffffffffffffffffffffffffffffffffffffffffffffffffff0016811790556040517f432acbfd662dbb5d8b378384a67159b47ca9d0f1b79f97cf64cf8585fa362d5090600090a1565b60045473ffffffffffffffffffffffffffffffffffffffff1690565b73ffffffffffffffffffffffffffffffffffffffff1660009081526020819052604090205460ff1690565b60015460ff1690565b7f000000000000000000000000000000000000000000000000000000000000000090565b60007f000000000000000000000000000000000000000000000000000000000000000082604051602001620006b0929190620010c1565b604051602081830303815290604052805190602001209050919050565b7f000000000000000000000000000000000000000000000000000000000000000090565b6000620006fd620006cd565b73ffffffffffffffffffffffffffffffffffffffff1663aaabadc56040518163ffffffff1660e01b815260040160206040518083038186803b1580156200074357600080fd5b505afa15801562000758573d6000803e3d6000fd5b505050506040513d601f19601f820116820180604052508101906200020e919062000f3b565b80517f602038038060206000396000f3fefefefefefefefefefefefefefefefefefefe808352600091602081018484f09084529150620007d973ffffffffffffffffffffffffffffffffffffffff831615156101ac62000a8b565b50919050565b8051604080517f00000000000000000000000000000000000000000000000000000000000000007f0000000000000000000000000000000000000000000000000000000000000000818101858101848101602090810190965280855293957f00000000000000000000000000000000000000000000000000000000000000009592947f000000000000000000000000000000000000000000000000000000000000000094938801866000828a3c846000888301883c5060208981019089850101620008ac81838662000aa0565b505050505050505050919050565b620008cd60028054141561019062000a8b565b60028055565b6000620008e283833062000afe565b9392505050565b600080620008f78362000b3f565b600480547fffffffffffffffffffffffff00000000000000000000000000000000000000001673ffffffffffffffffffffffffffffffffffffffff83161790559392505050565b600080844710156200097e576040517f08c379a00000000000000000000000000000000000000000000000000000000081526004016200050990620011c1565b8251620009b9576040517f08c379a0000000000000000000000000000000000000000000000000000000008152600401620005099062001266565b8383516020850187f5905073ffffffffffffffffffffffffffffffffffffffff811662000a14576040517f08c379a00000000000000000000000000000000000000000000000000000000081526004016200050990620011f8565b949350505050565b6001600255565b600062000a546000357fffffffff000000000000000000000000000000000000000000000000000000001662000679565b905062000a6f62000a66823362000bd7565b61019162000a8b565b50565b62000a8962000a806200064c565b1560d362000a8b565b565b8162000a9c5762000a9c8162000c75565b5050565b5b6020811062000ac2578151835260209283019290910190601f190162000aa1565b905182516020929092036101000a7fffffffffffffffffffffffffffffffffffffffffffffffffffffffffffffffff0180199091169116179052565b60008060ff60f81b83868660405160200162000b1e94939291906200105d565b60408051808303601f19018152919052805160209091012095945050505050565b600062000b4b62000a72565b600062000b588362000ca1565b73ffffffffffffffffffffffffffffffffffffffff811660008181526020819052604080822080547fffffffffffffffffffffffffffffffffffffffffffffffffffffffffffffff001660011790555192935090917f83a48fbcfc991335314e74d0496aab6a1987e992ddc85dddbcc4d6dd6ef2e9fc9190a292915050565b600062000be3620006f1565b73ffffffffffffffffffffffffffffffffffffffff16639be2a8848484306040518463ffffffff1660e01b815260040162000c219392919062001180565b60206040518083038186803b15801562000c3a57600080fd5b505afa15801562000c4f573d6000803e3d6000fd5b505050506040513d601f19601f82011682018060405250810190620008e2919062000ed7565b62000a6f817f42414c000000000000000000000000000000000000000000000000000000000062000ce5565b6000606062000cb083620007df565b905060008151602083016000f0905073ffffffffffffffffffffffffffffffffffffffff8116620008e2573d6000803e3d6000fd5b7f08c379a000000000000000000000000000000000000000000000000000000000600090815260206004526007602452600a808404818106603090810160081b958390069590950190829004918206850160101b01602363ffffff0060e086901c160160181b0190930160c81b60445260e882901c90606490fd5b61222480620013e783390190565b604051806101600160405280600073ffffffffffffffffffffffffffffffffffffffff1681526020016060815260200160608152602001600073ffffffffffffffffffffffffffffffffffffffff168152602001600073ffffffffffffffffffffffffffffffffffffffff168152602001600073ffffffffffffffffffffffffffffffffffffffff16815260200160008152602001600081526020016000815260200160008152602001600073ffffffffffffffffffffffffffffffffffffffff1681525090565b600082601f83011262000e47578081fd5b813567ffffffffffffffff8082111562000e5f578283fd5b6040516020601f19601f850116820101818110838211171562000e80578485fd5b60405282815292508284830160200186101562000e9c57600080fd5b8260208601602083013760006020848301015250505092915050565b60006020828403121562000eca578081fd5b8135620008e281620013c3565b60006020828403121562000ee9578081fd5b81518015158114620008e2578182fd5b60006020828403121562000f0b578081fd5b81357fffffffff0000000000000000000000000000000000000000000000000000000081168114620008e2578182fd5b60006020828403121562000f4d578081fd5b8151620008e281620013c3565b600080600080600080600060e0888a03121562000f75578283fd5b873567ffffffffffffffff8082111562000f8d578485fd5b62000f9b8b838c0162000e36565b985060208a013591508082111562000fb1578485fd5b5062000fc08a828b0162000e36565b965050604088013562000fd381620013c3565b9450606088013562000fe581620013c3565b93506080880135925060a0880135915060c08801356200100581620013c3565b8091505092959891949750929550565b73ffffffffffffffffffffffffffffffffffffffff169052565b600081518084526200104981602086016020860162001390565b601f01601f19169290920160200192915050565b7fff0000000000000000000000000000000000000000000000000000000000000094909416845260609290921b7fffffffffffffffffffffffffffffffffffffffff0000000000000000000000001660018401526015830152603582015260550190565b9182527fffffffff0000000000000000000000000000000000000000000000000000000016602082015260240190565b600083516200110581846020880162001390565b8351908301906200111b81836020880162001390565b01949350505050565b73ffffffffffffffffffffffffffffffffffffffff91909116815260200190565b73ffffffffffffffffffffffffffffffffffffffff92831681529116602082015260400190565b901515815260200190565b90815260200190565b92835273ffffffffffffffffffffffffffffffffffffffff918216602084015216604082015260600190565b600060208252620008e260208301846200102f565b6020808252601c908201527f435245415445325f494e53554646494349454e545f42414c414e434500000000604082015260600190565b60208082526015908201527f435245415445325f4445504c4f595f4641494c45440000000000000000000000604082015260600190565b6020808252601c908201527f526562616c616e636572206465706c6f796d656e74206661696c656400000000604082015260600190565b60208082526015908201527f435245415445325f42595445434f44455f5a45524f0000000000000000000000604082015260600190565b600060208252620012b360208301845162001015565b6020830151610160806040850152620012d16101808501836200102f565b91506040850151601f19858403016060860152620012f083826200102f565b925050606085015162001307608086018262001015565b5060808501516200131c60a086018262001015565b5060a08501516200133160c086018262001015565b5060c085015160e085810191909152850151610100808601919091528501516101208086019190915285015161014080860191909152850151620013788286018262001015565b5090949350505050565b918252602082015260400190565b60005b83811015620013ad57818101518382015260200162001393565b83811115620013bd576000848401525b50505050565b73ffffffffffffffffffffffffffffffffffffffff8116811462000a6f57600080fdfe6101806040523480156200001257600080fd5b5060405162002224380380620022248339810160408190526200003591620005cf565b336001600160a01b0316635ed312826040518163ffffffff1660e01b815260040160206040518083038186803b1580156200006f57600080fd5b505afa15801562000084573d6000803e3d6000fd5b505050506040513d601f19601f82011682018060405250810190620000aa9190620004e5565b8282826001600160a01b0316631dd746ea6040518163ffffffff1660e01b815260040160006040518083038186803b158015620000e657600080fd5b505afa158015620000fb573d6000803e3d6000fd5b505050506040513d6000823e601f3d908101601f191682016040526200012591908101906200050b565b836001600160a01b0316634d64cd746040518163ffffffff1660e01b815260040160206040518083038186803b1580156200015f57600080fd5b505afa15801562000174573d6000803e3d6000fd5b505050506040513d601f19601f820116820180604052508101906200019a9190620005b6565b81518110620001a557fe5b602090810291909101810151610100526001600160601b0319606085901b166080526040805163038fff2d60e41b815290516001600160a01b038616926338fff2d09260048082019391829003018186803b1580156200020457600080fd5b505afa15801562000219573d6000803e3d6000fd5b505050506040513d601f19601f820116820180604052508101906200023f9190620005b6565b60a08181525050826001600160a01b0316634de046d56040518163ffffffff1660e01b815260040160206040518083038186803b1580156200028057600080fd5b505afa15801562000295573d6000803e3d6000fd5b505050506040513d601f19601f82011682018060405250810190620002bb9190620004e5565b6001600160a01b031660c0816001600160a01b031660601b81525050826001600160a01b031663f174e2416040518163ffffffff1660e01b815260040160206040518083038186803b1580156200031157600080fd5b505afa15801562000326573d6000803e3d6000fd5b505050506040513d601f19601f820116820180604052508101906200034c9190620004e5565b6001600160601b0319606091821b811660e05292811b8316610120521b16610140525060408051632f69894160e11b815290516000913391635ed3128291600480820192602092909190829003018186803b158015620003ab57600080fd5b505afa158015620003c0573d6000803e3d6000fd5b505050506040513d601f19601f82011682018060405250810190620003e69190620004e5565b6001600160a01b031663f174e2416040518163ffffffff1660e01b815260040160206040518083038186803b1580156200041f57600080fd5b505afa15801562000434573d6000803e3d6000fd5b505050506040513d601f19601f820116820180604052508101906200045a9190620004e5565b9050806001600160a01b031663313ce5676040518163ffffffff1660e01b815260040160206040518083038186803b1580156200049657600080fd5b505afa158015620004ab573d6000803e3d6000fd5b505050506040513d601f19601f82011682018060405250810190620004d191906200060d565b60ff16600a0a610160525062000670915050565b600060208284031215620004f7578081fd5b8151620005048162000657565b9392505050565b600060208083850312156200051e578182fd5b82516001600160401b038082111562000535578384fd5b818501915085601f83011262000549578384fd5b81518181111562000558578485fd5b83810291506200056a84830162000630565b8181528481019084860184860187018a101562000585578788fd5b8795505b83861015620005a957805183526001959095019491860191860162000589565b5098975050505050505050565b600060208284031215620005c8578081fd5b5051919050565b60008060408385031215620005e2578081fd5b8251620005ef8162000657565b6020840151909250620006028162000657565b809150509250929050565b6000602082840312156200061f578081fd5b815160ff8116811462000504578182fd5b6040518181016001600160401b03811182821017156200064f57600080fd5b604052919050565b6001600160a01b03811681146200066d57600080fd5b50565b60805160601c60a05160c05160601c60e05160601c610100516101205160601c6101405160601c61016051611ab86200076c600039508061050952806108215250806101335280610c145280610f0d5280610f6f5250806103bf52508061046c5280610599528061074852806108ec5280610cbf5280610fcc52806110e1528061115f52806112a5528061139752806113f952508060ea5280610190528061043052806105cc528061063152806106d2528061078452806108b152806110b4528061137552508061016f5280610402528061071a5280610a7d5280610b5c5280610d955280610e74525080609952806103095250611ab86000f3fe608060405234801561001057600080fd5b50600436106100415760003560e01c8063026b1d5f1461004657806321c2819114610064578063df633d8d14610084575b600080fd5b61004e610097565b60405161005b91906117ee565b60405180910390f35b610077610072366004611690565b6100bb565b60405161005b9190611a21565b6100776100923660046116c8565b6100ce565b7f000000000000000000000000000000000000000000000000000000000000000090565b60006100c682610122565b90505b919050565b600061011273ffffffffffffffffffffffffffffffffffffffff7f000000000000000000000000000000000000000000000000000000000000000016333085610259565b61011b83610122565b9392505050565b60008061012d610302565b905060007f000000000000000000000000000000000000000000000000000000000000000073ffffffffffffffffffffffffffffffffffffffff1663b05f8e487f00000000000000000000000000000000000000000000000000000000000000007f00000000000000000000000000000000000000000000000000000000000000006040518363ffffffff1660e01b81526004016101cc92919061193a565b60806040518083038186803b1580156101e457600080fd5b505afa1580156101f8573d6000803e3d6000fd5b505050506040513d601f19601f8201168201806040525081019061021c919061174e565b50505090508181101561023e57610235818303856103eb565b925050506100c9565b818111156102525761023582820385610703565b5050919050565b6102fc846323b872dd60e01b85858560405160240161027a93929190611836565b604080517fffffffffffffffffffffffffffffffffffffffffffffffffffffffffffffffe08184030181529190526020810180517bffffffffffffffffffffffffffffffffffffffffffffffffffffffff167fffffffff0000000000000000000000000000000000000000000000000000000090931692909217909152610911565b50505050565b60008060007f000000000000000000000000000000000000000000000000000000000000000073ffffffffffffffffffffffffffffffffffffffff166363fe3b566040518163ffffffff1660e01b8152600401604080518083038186803b15801561036c57600080fd5b505afa158015610380573d6000803e3d6000fd5b505050506040513d601f19601f820116820180604052508101906103a4919061172b565b9150915060006002828401816103b657fe5b0490506103e3817f00000000000000000000000000000000000000000000000000000000000000006109be565b935050505090565b60006103f56115dd565b6040805160c081019091527f0000000000000000000000000000000000000000000000000000000000000000815260208101600081526020017f000000000000000000000000000000000000000000000000000000000000000073ffffffffffffffffffffffffffffffffffffffff1681526020017f000000000000000000000000000000000000000000000000000000000000000073ffffffffffffffffffffffffffffffffffffffff1681526020018581526020016040518060200160405280600081525081525090506104c9611640565b6040517fe969f6b300000000000000000000000000000000000000000000000000000000815260009073ffffffffffffffffffffffffffffffffffffffff7f0000000000000000000000000000000000000000000000000000000000000000169063e969f6b390610540908690869060040161195e565b602060405180830381600087803b15801561055a57600080fd5b505af115801561056e573d6000803e3d6000fd5b505050506040513d601f19601f820116820180604052508101906105929190611713565b90506105be7f000000000000000000000000000000000000000000000000000000000000000082610a11565b6105c781610c82565b6105f17f000000000000000000000000000000000000000000000000000000000000000087610d29565b6040517f70a0823100000000000000000000000000000000000000000000000000000000815260009073ffffffffffffffffffffffffffffffffffffffff7f000000000000000000000000000000000000000000000000000000000000000016906370a08231906106669030906004016117ee565b60206040518083038186803b15801561067e57600080fd5b505afa158015610692573d6000803e3d6000fd5b505050506040513d601f19601f820116820180604052508101906106b69190611713565b90506106f973ffffffffffffffffffffffffffffffffffffffff7f0000000000000000000000000000000000000000000000000000000000000000168783610fa4565b9695505050505050565b600061070d6115dd565b6040805160c081019091527f0000000000000000000000000000000000000000000000000000000000000000815260208101600181526020017f000000000000000000000000000000000000000000000000000000000000000073ffffffffffffffffffffffffffffffffffffffff1681526020017f000000000000000000000000000000000000000000000000000000000000000073ffffffffffffffffffffffffffffffffffffffff1681526020018581526020016040518060200160405280600081525081525090506107e1611640565b6040517fe969f6b300000000000000000000000000000000000000000000000000000000815260009073ffffffffffffffffffffffffffffffffffffffff7f0000000000000000000000000000000000000000000000000000000000000000169063e969f6b390610858908690869060040161195e565b602060405180830381600087803b15801561087257600080fd5b505af1158015610886573d6000803e3d6000fd5b505050506040513d601f19601f820116820180604052508101906108aa9190611713565b90506108d67f000000000000000000000000000000000000000000000000000000000000000087610a11565b6108e76108e282610fc8565b61135b565b6105f17f000000000000000000000000000000000000000000000000000000000000000082610d29565b600060608373ffffffffffffffffffffffffffffffffffffffff168360405161093a91906117d2565b6000604051808303816000865af19150503d8060008114610977576040519150601f19603f3d011682016040523d82523d6000602084013e61097c565b606091505b50915091506000821415610994573d6000803e3d6000fd5b6102fc8151600014806109b65750818060200190518101906109b691906116f3565b6101a261142e565b60006109cd821515600461142e565b670de0b6b3a764000083026109ff8415806109f85750670de0b6b3a76400008583816109f557fe5b04145b600561142e565b828181610a0857fe5b04949350505050565b6040805160028082526060828101909352816020015b610a2f611667565b815260200190600190039081610a27579050509050600081600081518110610a5357fe5b6020026020010151600001906002811115610a6a57fe5b90816002811115610a7757fe5b815250507f000000000000000000000000000000000000000000000000000000000000000081600081518110610aa957fe5b602002602001015160200181815250508181600081518110610ac757fe5b602002602001015160600181815250508281600081518110610ae557fe5b60200260200101516040019073ffffffffffffffffffffffffffffffffffffffff16908173ffffffffffffffffffffffffffffffffffffffff1681525050600281600181518110610b3257fe5b6020026020010151600001906002811115610b4957fe5b90816002811115610b5657fe5b815250507f000000000000000000000000000000000000000000000000000000000000000081600181518110610b8857fe5b60200260200101516020018181525050600081600181518110610ba757fe5b602002602001015160600181815250508281600181518110610bc557fe5b602090810291909101015173ffffffffffffffffffffffffffffffffffffffff918216604091820152517fe6c460920000000000000000000000000000000000000000000000000000000081527f00000000000000000000000000000000000000000000000000000000000000009091169063e6c4609290610c4b9084906004016118b6565b600060405180830381600087803b158015610c6557600080fd5b505af1158015610c79573d6000803e3d6000fd5b50505050505050565b6040517f2e1a7d4d00000000000000000000000000000000000000000000000000000000815273ffffffffffffffffffffffffffffffffffffffff7f00000000000000000000000000000000000000000000000000000000000000001690632e1a7d4d90610cf4908490600401611a21565b600060405180830381600087803b158015610d0e57600080fd5b505af1158015610d22573d6000803e3d6000fd5b5050505050565b6040805160028082526060828101909352816020015b610d47611667565b815260200190600190039081610d3f579050509050600281600081518110610d6b57fe5b6020026020010151600001906002811115610d8257fe5b90816002811115610d8f57fe5b815250507f000000000000000000000000000000000000000000000000000000000000000081600081518110610dc157fe5b602002602001015160200181815250508181600081518110610ddf57fe5b602002602001015160600181815250508281600081518110610dfd57fe5b60200260200101516040019073ffffffffffffffffffffffffffffffffffffffff16908173ffffffffffffffffffffffffffffffffffffffff1681525050600181600181518110610e4a57fe5b6020026020010151600001906002811115610e6157fe5b90816002811115610e6e57fe5b815250507f000000000000000000000000000000000000000000000000000000000000000081600181518110610ea057fe5b602002602001015160200181815250508181600181518110610ebe57fe5b602002602001015160600181815250508281600181518110610edc57fe5b602090810291909101015173ffffffffffffffffffffffffffffffffffffffff918216604090910152610f329084167f000000000000000000000000000000000000000000000000000000000000000084611440565b6040517fe6c4609200000000000000000000000000000000000000000000000000000000815273ffffffffffffffffffffffffffffffffffffffff7f0000000000000000000000000000000000000000000000000000000000000000169063e6c4609290610c4b9084906004016118b6565b610fc38363a9059cbb60e01b848460405160240161027a929190611890565b505050565b60007f000000000000000000000000000000000000000000000000000000000000000073ffffffffffffffffffffffffffffffffffffffff166318160ddd6040518163ffffffff1660e01b815260040160206040518083038186803b15801561103057600080fd5b505afa158015611044573d6000803e3d6000fd5b505050506040513d601f19601f820116820180604052508101906110689190611713565b611074575060006100c9565b6040517f70a0823100000000000000000000000000000000000000000000000000000000815260009073ffffffffffffffffffffffffffffffffffffffff7f000000000000000000000000000000000000000000000000000000000000000016906370a0823190611109907f0000000000000000000000000000000000000000000000000000000000000000906004016117ee565b60206040518083038186803b15801561112157600080fd5b505afa158015611135573d6000803e3d6000fd5b505050506040513d601f19601f820116820180604052508101906111599190611713565b905060007f000000000000000000000000000000000000000000000000000000000000000073ffffffffffffffffffffffffffffffffffffffff1663a8c62e766040518163ffffffff1660e01b815260040160206040518083038186803b1580156111c357600080fd5b505afa1580156111d7573d6000803e3d6000fd5b505050506040513d601f19601f820116820180604052508101906111fb91906116ac565b9050600073ffffffffffffffffffffffffffffffffffffffff82161561129e578173ffffffffffffffffffffffffffffffffffffffff166345d01e4a6040518163ffffffff1660e01b815260040160206040518083038186803b15801561126157600080fd5b505afa158015611275573d6000803e3d6000fd5b505050506040513d601f19601f820116820180604052508101906112999190611713565b6112a1565b60005b90507f000000000000000000000000000000000000000000000000000000000000000073ffffffffffffffffffffffffffffffffffffffff166318160ddd6040518163ffffffff1660e01b815260040160206040518083038186803b15801561130957600080fd5b505afa15801561131d573d6000803e3d6000fd5b505050506040513d601f19601f820116820180604052508101906113419190611713565b81840186028161134d57fe5b046001019350505050919050565b6113bc73ffffffffffffffffffffffffffffffffffffffff7f0000000000000000000000000000000000000000000000000000000000000000167f000000000000000000000000000000000000000000000000000000000000000083611440565b6040517fb6b55f2500000000000000000000000000000000000000000000000000000000815273ffffffffffffffffffffffffffffffffffffffff7f0000000000000000000000000000000000000000000000000000000000000000169063b6b55f2590610cf4908490600401611a21565b8161143c5761143c81611535565b5050565b80158015906114f157506040517fdd62ed3e00000000000000000000000000000000000000000000000000000000815273ffffffffffffffffffffffffffffffffffffffff84169063dd62ed3e9061149e903090869060040161180f565b60206040518083038186803b1580156114b657600080fd5b505afa1580156114ca573d6000803e3d6000fd5b505050506040513d601f19601f820116820180604052508101906114ee9190611713565b15155b15611516576115168363095ea7b360e01b84600060405160240161027a929190611867565b610fc38363095ea7b360e01b848460405160240161027a929190611890565b61155f817f42414c0000000000000000000000000000000000000000000000000000000000611562565b50565b7f08c379a000000000000000000000000000000000000000000000000000000000600090815260206004526007602452600a808404818106603090810160081b958390069590950190829004918206850160101b01602363ffffff0060e086901c160160181b0190930160c81b60445260e882901c90606490fd5b6040805160c08101909152600080825260208201908152602001600073ffffffffffffffffffffffffffffffffffffffff168152602001600073ffffffffffffffffffffffffffffffffffffffff16815260200160008152602001606081525090565b60408051608081018252600080825260208201819052918101829052606081019190915290565b604080516080810190915280600081526000602082018190526040820181905260609091015290565b6000602082840312156116a1578081fd5b813561011b81611a60565b6000602082840312156116bd578081fd5b815161011b81611a60565b600080604083850312156116da578081fd5b82356116e581611a60565b946020939093013593505050565b600060208284031215611704578081fd5b8151801515811461011b578182fd5b600060208284031215611724578081fd5b5051919050565b6000806040838503121561173d578182fd5b505080516020909101519092909150565b60008060008060808587031215611763578182fd5b845193506020850151925060408501519150606085015161178381611a60565b939692955090935050565b73ffffffffffffffffffffffffffffffffffffffff808251168352602082015115156020840152806040830151166040840152506060810151151560608301525050565b600082516117e4818460208701611a2a565b9190910192915050565b73ffffffffffffffffffffffffffffffffffffffff91909116815260200190565b73ffffffffffffffffffffffffffffffffffffffff92831681529116602082015260400190565b73ffffffffffffffffffffffffffffffffffffffff9384168152919092166020820152604081019190915260600190565b73ffffffffffffffffffffffffffffffffffffffff92909216825260ff16602082015260400190565b73ffffffffffffffffffffffffffffffffffffffff929092168252602082015260400190565b602080825282518282018190526000919060409081850190868401855b8281101561192d5781518051600381106118e957fe5b855280870151878601528581015173ffffffffffffffffffffffffffffffffffffffff168686015260609081015190850152608090930192908501906001016118d3565b5091979650505050505050565b91825273ffffffffffffffffffffffffffffffffffffffff16602082015260400190565b600060a08252835160a0830152602084015161197981611a56565b8060c084015250604084015173ffffffffffffffffffffffffffffffffffffffff80821660e0850152806060870151166101008501525050608084015161012083015260a084015160c06101408401528051806101608501526101806119e58282870160208601611a2a565b807fffffffffffffffffffffffffffffffffffffffffffffffffffffffffffffffe0601f840116860101935050505061011b602083018461178e565b90815260200190565b60005b83811015611a45578181015183820152602001611a2d565b838111156102fc5750506000910152565b6002811061155f57fe5b73ffffffffffffffffffffffffffffffffffffffff8116811461155f57600080fdfea2646970667358221220cc45ccb47fc0ac39cafa384a0d831595ddd5854cbce12179b42712ef3fdabf8d64736f6c63430007010033a2646970667358221220f3a4ad2d844eaffa8d65042d1faee869d3aa8e38038bc7b61f7c2e0d62a7282c64736f6c634300070100336102c06040523480156200001257600080fd5b50604051620057fb380380620057fb833981016040819052620000359162000e8f565b8051602082015160408301516060840151608085015160c08601516200005b87620004f2565b60e08801516101008901516101208a01516101408b01518a62000098816000620000868c8c6200057b565b896200062c60201b620013a01760201c565b8b8b868686828286868a85336001600160a01b031660001b8480604051806040016040528060018152602001603160f81b81525087878160039080519060200190620000e692919062000d1f565b508051620000fc90600490602084019062000d1f565b50506005805460ff19166012179055508151602092830120608052805191012060a052507f8b73c3c69bb8fe3d512ecc4cf759cc79239f7b179b0ffacaa9a75d522b39400f60c05260e0526001600160601b0319606091821b81166101005291901b1661012052506200017a90506276a700831115610194620007fa565b6200018e62278d00821115610195620007fa565b4290910161014081905201610160526101808690526040805163d2946c2b60e01b815290516001600160a01b0389169163d2946c2b916004808301926020929190829003018186803b158015620001e457600080fd5b505afa158015620001f9573d6000803e3d6000fd5b505050506040513d601f19601f820116820180604052508101906200021f919062000e57565b6001600160a01b03166101a0816001600160a01b031660601b8152505050505050505050876001600160a01b03166101c0816001600160a01b031660601b81525050866001600160a01b03166101e0816001600160a01b031660601b81525050866001600160a01b0316886001600160a01b031610620002a1576002620002a4565b60015b60ff16610200526001600160a01b0380881690891610620002c7576001620002ca565b60025b60ff1661022052620002dc886200080f565b61024052620002eb876200080f565b610260526000620002fe898289620008bb565b6200030985620009b5565b505050505050505050505050600081608001519050806001600160a01b0316610280816001600160a01b031660601b815250506200043f6012826001600160a01b0316636f307dc36040518163ffffffff1660e01b815260040160206040518083038186803b1580156200037c57600080fd5b505afa15801562000391573d6000803e3d6000fd5b505050506040513d601f19601f82011682018060405250810190620003b7919062000e57565b6001600160a01b031663313ce5676040518163ffffffff1660e01b815260040160206040518083038186803b158015620003f057600080fd5b505afa15801562000405573d6000803e3d6000fd5b505050506040513d601f19601f820116820180604052508101906200042b919062000fbe565b60ff1662000a4460201b620015551760201c565b600a0a6102a08181525050620004ea816001600160a01b0316636f307dc36040518163ffffffff1660e01b815260040160206040518083038186803b1580156200048857600080fd5b505afa1580156200049d573d6000803e3d6000fd5b505050506040513d601f19601f82011682018060405250810190620004c3919062000e57565b6001600160a01b031683606001516001600160a01b031614610208620007fa60201b60201c565b5050620010e4565b6040805160028082526060808301845292839291906020830190803683370190505090508260a00151816000815181106200052957fe5b60200260200101906001600160a01b031690816001600160a01b0316815250508260a00151816001815181106200055c57fe5b6001600160a01b03909216602092830291909101909101529050919050565b60408051600280825260608281019093526001600160a01b038481169086161091839181602001602082028036833701905050905081620005bd5783620005bf565b845b81600081518110620005cd57fe5b60200260200101906001600160a01b031690816001600160a01b03168152505081620005fa5784620005fc565b835b816001815181106200060a57fe5b6001600160a01b03909216602092830291909101909101529150505b92915050565b6000620006448362000a5b60201b620015631760201c565b606083516001016001600160401b03811180156200066157600080fd5b506040519080825280602002602001820160405280156200068c578160200160208202803683370190505b50905030816000815181106200069e57fe5b60200260200101906001600160a01b031690816001600160a01b03168152505060005b84518110156200071157848181518110620006d857fe5b6020026020010151828260010181518110620006f057fe5b6001600160a01b0390921660209283029190910190910152600101620006c1565b50606083516001016001600160401b03811180156200072f57600080fd5b506040519080825280602002602001820160405280156200075a578160200160208202803683370190505b5090506000816000815181106200076d57fe5b60200260200101906001600160a01b031690816001600160a01b03168152505060005b8451811015620007e057848181518110620007a757fe5b6020026020010151828260010181518110620007bf57fe5b6001600160a01b039092166020928302919091019091015260010162000790565b50620007ef8787848462000a67565b979650505050505050565b816200080b576200080b8162000b61565b5050565b600080826001600160a01b031663313ce5676040518163ffffffff1660e01b815260040160206040518083038186803b1580156200084c57600080fd5b505afa15801562000861573d6000803e3d6000fd5b505050506040513d601f19601f8201168201806040525081019062000887919062000fbe565b60ff1690506000620008a660128362000b7660201b620015711760201c565b600a0a670de0b6b3a764000002949350505050565b620008cc8183111561014c620007fa565b620008e96b0de0b6b39983494c589c000082111561014d620007fa565b62000903670de0b6b3a7640000825b0615610161620007fa565b62000917670de0b6b3a764000083620008f8565b62000966670de0b6b3a764000082046040602062000950670de0b6b3a7640000876008549190046020806200158762000b8e821b17811c565b62000b8e60201b6200158717909392919060201c565b6008556040516001600160a01b038416907fd0e27a0d0c2cb09280fa5e4487315455b32afcdcf012dc35b6ef2a0e3c4d128090620009a890859085906200108d565b60405180910390a2505050565b620009ca64e8d4a5100082101560cb620007fa565b620009e267016345785d8a000082111560ca620007fa565b62000a048160c0603f60085462000b8e60201b6200158717909392919060201c565b6008556040517fa9ba3ffe0b6c366b81232caab38605a0699ad5398d6cce76f91ee809e322dafc9062000a3990839062001084565b60405180910390a150565b600062000a548383600162000bb3565b9392505050565b806200080b8162000bcb565b600080856001600160a01b03166309b2760f866040518263ffffffff1660e01b815260040162000a9891906200106f565b602060405180830381600087803b15801562000ab357600080fd5b505af115801562000ac8573d6000803e3d6000fd5b505050506040513d601f19601f8201168201806040525081019062000aee919062000e76565b604051633354e3e960e11b81529091506001600160a01b038716906366a9c7d29062000b239084908890889060040162000fe1565b600060405180830381600087803b15801562000b3e57600080fd5b505af115801562000b53573d6000803e3d6000fd5b509298975050505050505050565b62000b73816210905360ea1b62000c57565b50565b600062000b88838311156001620007fa565b50900390565b600062000b9d84848462000cb8565b506001901b60001901811b1992909216911b1790565b600062000bc48484111583620007fa565b5050900390565b60028151101562000bdc5762000b73565b60008160008151811062000bec57fe5b602002602001015190506000600190505b825181101562000c5257600083828151811062000c1657fe5b6020026020010151905062000c47816001600160a01b0316846001600160a01b0316106065620007fa60201b60201c565b915060010162000bfd565b505050565b62461bcd60e51b600090815260206004526007602452600a808404818106603090810160081b958390069590950190829004918206850160101b01602363ffffff0060e086901c160160181b0190930160c81b60445260e882901c90606490fd5b62000cc961010083106064620007fa565b62000d026001821015801562000cfa575062000cf660ff846101000362000d1360201b620015aa1760201c565b8211155b6064620007fa565b62000c5283821c156101b4620007fa565b80820390821102900390565b828054600181600116156101000203166002900490600052602060002090601f016020900481019282601f1062000d6257805160ff191683800117855562000d92565b8280016001018555821562000d92579182015b8281111562000d9257825182559160200191906001019062000d75565b5062000da092915062000da4565b5090565b5b8082111562000da0576000815560010162000da5565b80516200062681620010ce565b600082601f83011262000dd9578081fd5b81516001600160401b0381111562000def578182fd5b602062000e05601f8301601f191682016200109b565b9250818352848183860101111562000e1c57600080fd5b60005b8281101562000e3c57848101820151848201830152810162000e1f565b8281111562000e4e5760008284860101525b50505092915050565b60006020828403121562000e69578081fd5b815162000a5481620010ce565b60006020828403121562000e88578081fd5b5051919050565b60006020828403121562000ea1578081fd5b81516001600160401b038082111562000eb8578283fd5b818401915061016080838703121562000ecf578384fd5b62000eda816200109b565b905062000ee8868462000dbb565b815260208301518281111562000efc578485fd5b62000f0a8782860162000dc8565b60208301525060408301518281111562000f22578485fd5b62000f308782860162000dc8565b60408301525062000f45866060850162000dbb565b606082015262000f59866080850162000dbb565b608082015262000f6d8660a0850162000dbb565b60a082015260c0838101519082015260e0808401519082015261010080840151908201526101208084015190820152610140915062000faf8683850162000dbb565b91810191909152949350505050565b60006020828403121562000fd0578081fd5b815160ff8116811462000a54578182fd5b60006060820185835260206060818501528186518084526080860191508288019350845b818110156200102d576200101a8551620010c2565b8352938301939183019160010162001005565b505084810360408601528551808252908201925081860190845b8181101562000b53576200105c8351620010c2565b8552938301939183019160010162001047565b60208101600383106200107e57fe5b91905290565b90815260200190565b918252602082015260400190565b6040518181016001600160401b0381118282101715620010ba57600080fd5b604052919050565b6001600160a01b031690565b6001600160a01b038116811462000b7357600080fd5b60805160a05160c05160e0516101005160601c6101205160601c6101405161016051610180516101a05160601c6101c05160601c6101e05160601c610200516102205161024051610260516102805160601c6102a05161457b62001280600039806118995250806117cd5250806107e152508061077d528061296452508061070552806108095280610bd55280612ddf5280612f6852806130a052806131ab5280613328528061346052508061079f52806109a15280610b9b5280612dab5280612eed5280612f34528061302a528061306c528061317752806132b252806132f452806133ea528061342c52508061137452806126965280612762528061298a5280612d605280612e79528061312d528061323e5250806109c5528061106a5280611a465280611ae5528061264d528061271952806129295280612d215280612e235280612fb652806130ee52806131ef528061337652508061114852508061092e5250806117a7525080611783525080610f55525080610f31525080610ee15250806123745250806123b6525080612395525061457b6000f3fe608060405234801561001057600080fd5b50600436106103205760003560e01c80638129fc1c116101a7578063a9059cbb116100ee578063d5c096c411610097578063ed24911d11610071578063ed24911d146105dd578063f174e241146105e5578063f5431aa8146105ed57610320565b8063d5c096c4146105af578063dd62ed3e146105c2578063de82cd34146105d557610320565b8063b7b814fc116100c8578063b7b814fc1461058c578063d2946c2b14610594578063d505accf1461059c57610320565b8063a9059cbb14610569578063aaabadc51461057c578063b35056b81461058457610320565b80638d928af8116101505780639d2c110c1161012a5780639d2c110c146105305780639f11080e14610543578063a457c2d71461055657610320565b80638d928af81461050d57806390193b7c1461051557806395d89b411461052857610320565b8063851c1bb311610181578063851c1bb3146104f257806387ec681714610454578063893d20e81461050557610320565b80638129fc1c146104da57806382687a56146104e25780638456cb59146104ea57610320565b8063395093511161026b5780636028bfd41161021457806370a08231116101ee57806370a082311461049357806374f3b009146104a65780637ecebe00146104c757610320565b80636028bfd41461045457806363fe3b5614610475578063679aefce1461048b57610320565b80634de046d5116102455780634de046d51461042f57806354a844ba1461044457806355c676281461044c57610320565b8063395093511461040c5780633f4ba83a1461041f5780634d64cd741461042757610320565b80631dd746ea116102cd5780633644e515116102a75780633644e515146103e757806338e9922e146103ef57806338fff2d01461040457610320565b80631dd746ea146103aa57806323b872dd146103bf578063313ce567146103d257610320565b806316b8d6ff116102fe57806316b8d6ff1461038357806318160ddd1461038b5780631c0de0511461039357610320565b806301ec954a1461032557806306fdde031461034e578063095ea7b314610363575b600080fd5b610338610333366004613f53565b6105f5565b6040516103459190614242565b60405180910390f35b610356610655565b6040516103459190614486565b610376610371366004613d25565b6106ec565b604051610345919061421f565b610338610703565b610338610727565b61039b61072d565b6040516103459392919061422a565b6103b2610756565b60405161034591906141e7565b6103766103cd366004613c75565b610864565b6103da6108da565b60405161034591906144c0565b6103386108e3565b6104026103fd366004614010565b6108f2565b005b61033861092c565b61037661041a366004613d25565b610950565b61040261098b565b61033861099f565b6104376109c3565b60405161034591906141d3565b6104026109e7565b610338610a3b565b610467610462366004613e54565b610a4e565b604051610345929190614499565b61047d610a6c565b6040516103459291906144b2565b610338610aaa565b6103386104a1366004613c21565b610c3f565b6104b96104b4366004613e54565b610c5e565b6040516103459291906141fa565b6103386104d5366004613c21565b610d20565b610402610d2b565b610338610ec6565b610402610ecb565b610338610500366004613ef7565b610edd565b610437610f2f565b610437610f53565b610338610523366004613c21565b610f77565b610356610f92565b61033861053e366004613fc4565b610ff3565b610402610551366004614028565b61102c565b610376610564366004613d25565b611096565b610376610577366004613d25565b6110d4565b6104376110e1565b6103766110eb565b6104026110fc565b610437611146565b6104026105aa366004613cb5565b61116a565b6104b96105bd366004613e54565b6111eb565b6103386105d0366004613c3d565b611282565b6103386112bf565b610338611368565b610437611372565b610338611396565b60008460800151610622610607610f53565b6001600160a01b0316336001600160a01b03161460cd6115b6565b61063761062d61092c565b82146101f46115b6565b61063f6115c4565b61064b868686866115d7565b9695505050505050565b60038054604080516020601f60026000196101006001881615020190951694909404938401819004810282018101909252828152606093909290918301828280156106e15780601f106106b6576101008083540402835291602001916106e1565b820191906000526020600020905b8154815290600101906020018083116106c457829003601f168201915b505050505090505b90565b60006106f93384846116fc565b5060015b92915050565b7f000000000000000000000000000000000000000000000000000000000000000090565b60025490565b600080600061073a611764565b159250610745611781565b915061074f6117a5565b9050909192565b604080516003808252608082019092526060918291906020820183803683370190505090507f0000000000000000000000000000000000000000000000000000000000000000817f0000000000000000000000000000000000000000000000000000000000000000815181106107c857fe5b6020026020010181815250506108066107df6117c9565b7f0000000000000000000000000000000000000000000000000000000000000000906118c0565b817f00000000000000000000000000000000000000000000000000000000000000008151811061083257fe5b602002602001018181525050670de0b6b3a76400008160008151811061085457fe5b6020908102919091010152905090565b6000806108718533611282565b9050610895336001600160a01b038716148061088d5750838210155b61019e6115b6565b6108a08585856118f8565b336001600160a01b038616148015906108bb57506000198114155b156108cd576108cd85338584036116fc565b60019150505b9392505050565b60055460ff1690565b60006108ed611368565b905090565b6108fa6119d8565b600080610905610a6c565b9150915061091e6109168383611a21565b61014f6115b6565b61092783611b28565b505050565b7f000000000000000000000000000000000000000000000000000000000000000090565b3360008181526001602090815260408083206001600160a01b038716845290915281205490916106f99185906109869086611ba0565b6116fc565b6109936119d8565b61099d6000611bb2565b565b7f000000000000000000000000000000000000000000000000000000000000000090565b7f000000000000000000000000000000000000000000000000000000000000000090565b6109ef6119d8565b6109f7611c43565b610a016001611c57565b7feff3d4d215b42bf0960be9c6d5e05c22cba4df6627a3a523e2acee733b5854c86001604051610a31919061421f565b60405180910390a1565b6008546000906108ed9060c0603f611c99565b60006060610a60888785611ca8611cbf565b97509795505050505050565b6008546000908190670de0b6b3a7640000610a8982602080611c99565b029250670de0b6b3a7640000610aa28260406020611c99565b029150509091565b600080610ab561092c565b90506060610ac1610f53565b6001600160a01b031663f94d4668836040518263ffffffff1660e01b8152600401610aec9190614242565b60006040518083038186803b158015610b0457600080fd5b505afa158015610b18573d6000803e3d6000fd5b505050506040513d6000823e601f3d908101601f19168201604052610b409190810190613d50565b50915050610b5581610b50610756565b611e26565b600080610b60610a6c565b91509150610b6c6139c2565b6040518060600160405280610b7f610a3b565b81526020018481526020018381525090506000610c0b610bd2867f000000000000000000000000000000000000000000000000000000000000000081518110610bc457fe5b602002602001015184611e8f565b867f000000000000000000000000000000000000000000000000000000000000000081518110610bfe57fe5b6020026020010151611ef0565b9050610c34610c2d86600081518110610c2057fe5b6020026020010151611efc565b8290611f10565b965050505050505090565b6001600160a01b0381166000908152602081905260409020545b919050565b60608088610c6d610607610f53565b610c7861062d61092c565b6000610c8385611f67565b15610cab57610c90611f96565b610ca288610c9c610727565b87611fa9565b94509050610cc3565b610cb36115c4565b610cbe8a8987611ca8565b945090505b610ccd8a8261209f565b835167ffffffffffffffff81118015610ce557600080fd5b50604051908082528060200260200182016040528015610d0f578160200160208202803683370190505b509250505097509795505050505050565b60006106fd82610f77565b6000610d3561092c565b90506060610d41610f53565b6001600160a01b031663f94d4668836040518263ffffffff1660e01b8152600401610d6c9190614242565b60006040518083038186803b158015610d8457600080fd5b505afa158015610d98573d6000803e3d6000fd5b505050506040513d6000823e601f3d908101601f19168201604052610dc09190810190613d50565b505060408051600380825260808201909252919250606091906020820183803683370190505090506dffffffffffffffffffffffffffff81600081518110610e0457fe5b602002602001018181525050610e186139e3565b6040518060800160405280610e2c856106e9565b8152602001838152602001604051806020016040528060008152508152602001600015158152509050610e5d610f53565b6001600160a01b031663b95cac28853030856040518563ffffffff1660e01b8152600401610e8e949392919061426a565b600060405180830381600087803b158015610ea857600080fd5b505af1158015610ebc573d6000803e3d6000fd5b5050505050505050565b600090565b610ed36119d8565b61099d6001611bb2565b60007f000000000000000000000000000000000000000000000000000000000000000082604051602001610f1292919061415d565b604051602081830303815290604052805190602001209050919050565b7f000000000000000000000000000000000000000000000000000000000000000090565b7f000000000000000000000000000000000000000000000000000000000000000090565b6001600160a01b031660009081526006602052604090205490565b60048054604080516020601f60026000196101006001881615020190951694909404938401819004810282018101909252828152606093909290918301828280156106e15780601f106106b6576101008083540402835291602001916106e1565b60008360800151611005610607610f53565b61101061062d61092c565b6110186115c4565b6110238585856120a9565b95945050505050565b6110346119d8565b60008061103f610a6c565b915091506110506109168383611a21565b61106561105d8585611a21565b6101576115b6565b6110907f000000000000000000000000000000000000000000000000000000000000000085856120b6565b50505050565b6000806110a33385611282565b90508083106110bd576110b8338560006116fc565b6110ca565b6110ca33858584036116fc565b5060019392505050565b60006106f93384846118f8565b60006108ed61218c565b6008546000906108ed9060ff612206565b6111046119d8565b61110c611f96565b6111166000611c57565b7feff3d4d215b42bf0960be9c6d5e05c22cba4df6627a3a523e2acee733b5854c86000604051610a31919061421f565b7f000000000000000000000000000000000000000000000000000000000000000090565b60007f6e71edae12b1b97f4d1f60370fef10105fa2faae0126114a169c64845d6126c98888886111998c610f77565b896040516020016111af96959493929190614357565b6040516020818303038152906040528051906020012090506111e088826111d787878761220d565b886101f861224c565b610ebc8888886116fc565b606080886111fa610607610f53565b61120561062d61092c565b600061120f6115c4565b611217610727565b611269576112268a8a876122a3565b9450905061123f611235610ec6565b82101560cc6115b6565b611251600061124c610ec6565b61233b565b6112648961125d610ec6565b830361233b565b610ccd565b6112748a8987611ca8565b94509050610ccd898261233b565b600061128c610f53565b6001600160a01b0316826001600160a01b031614156112ae57506000196106fd565b6112b88383612345565b90506106fd565b60008060006112cc610f53565b6001600160a01b031663b05f8e486112e261092c565b306040518363ffffffff1660e01b815260040161130092919061443d565b60806040518083038186803b15801561131857600080fd5b505afa15801561132c573d6000803e3d6000fd5b505050506040513d601f19601f820116820180604052508101906113509190614049565b505091509150611361818301611efc565b9250505090565b60006108ed612370565b7f000000000000000000000000000000000000000000000000000000000000000090565b60006108ed6117c9565b60006113ab83611563565b6060835160010167ffffffffffffffff811180156113c857600080fd5b506040519080825280602002602001820160405280156113f2578160200160208202803683370190505b509050308160008151811061140357fe5b60200260200101906001600160a01b031690816001600160a01b03168152505060005b84518110156114725784818151811061143b57fe5b602002602001015182826001018151811061145257fe5b6001600160a01b0390921660209283029190910190910152600101611426565b506060835160010167ffffffffffffffff8111801561149057600080fd5b506040519080825280602002602001820160405280156114ba578160200160208202803683370190505b5090506000816000815181106114cc57fe5b60200260200101906001600160a01b031690816001600160a01b03168152505060005b845181101561153b5784818151811061150457fe5b602002602001015182826001018151811061151b57fe5b6001600160a01b03909216602092830291909101909101526001016114ef565b506115488787848461240d565b925050505b949350505050565b60006108d383836001612516565b8061156d8161252c565b5050565b60006115818383111560016115b6565b50900390565b60006115948484846125a5565b506001901b60001901811b1992909216911b1790565b80820390821102900390565b8161156d5761156d816125eb565b61099d6115cf611764565b6101926115b6565b60006115f36003841080156115ec5750600383105b60646115b6565b60606115fd610756565b90506116098582611e26565b600080611614610a6c565b915091506116206139c2565b6040518060600160405280611633610a3b565b815260208101859052604001839052905060008951600181111561165357fe5b14156116b75761167a896060015185898151811061166d57fe5b6020026020010151612615565b60608a0152600061168c8a8a84612621565b90506116ab8186898151811061169e57fe5b60200260200101516126e8565b9550505050505061154d565b6116cb896060015185888151811061166d57fe5b60608a015260006116dd8a8a846126f4565b90506116ab81868a815181106116ef57fe5b60200260200101516127a9565b6001600160a01b0380841660008181526001602090815260408083209487168084529490915290819020849055517f8c5be1e5ebec7d5bd14f71427d1e84f3dd0314c0f7b2291e5b200ac8c7c3b92590611757908590614242565b60405180910390a3505050565b600061176e6117a5565b4211806108ed57505060075460ff161590565b7f000000000000000000000000000000000000000000000000000000000000000090565b7f000000000000000000000000000000000000000000000000000000000000000090565b60007f00000000000000000000000000000000000000000000000000000000000000006001600160a01b03166377c7b8fc6040518163ffffffff1660e01b815260040160206040518083038186803b15801561182457600080fd5b505afa925050508015611854575060408051601f3d908101601f1916820190925261185191810190613e3c565b60015b611897573d808015611882576040519150601f19603f3d011682016040523d82523d6000602084013e611887565b606091505b50611891816127b5565b506106e9565b7f00000000000000000000000000000000000000000000000000000000000000000290506106e9565b60008282026118e48415806118dd5750838583816118da57fe5b04145b60036115b6565b670de0b6b3a7640000815b04949350505050565b61190f6001600160a01b03841615156101986115b6565b6119266001600160a01b03831615156101996115b6565b611931838383610927565b6001600160a01b03831660009081526020819052604090205461195790826101a0612516565b6001600160a01b0380851660009081526020819052604080822093909355908416815220546119869082611ba0565b6001600160a01b0380841660008181526020819052604090819020939093559151908516907fddf252ad1be2c89b69c2b068fc378daa952ba7f163c4a11628f55a4df523b3ef90611757908590614242565b6000611a076000357fffffffff0000000000000000000000000000000000000000000000000000000016610edd565b9050611a1e611a16823361283c565b6101916115b6565b50565b6000806000611a2e610f53565b6001600160a01b031663b05f8e48611a4461092c565b7f00000000000000000000000000000000000000000000000000000000000000006040518363ffffffff1660e01b8152600401611a8292919061443d565b60806040518083038186803b158015611a9a57600080fd5b505afa158015611aae573d6000803e3d6000fd5b505050506040513d601f19601f82011682018060405250810190611ad29190614049565b5050915091506000611b0e828401611b097f0000000000000000000000000000000000000000000000000000000000000000612925565b612615565b905085811015801561064b57509390931115949350505050565b611b3b64e8d4a5100082101560cb6115b6565b611b5167016345785d8a000082111560ca6115b6565b600854611b62908260c0603f611587565b6008556040517fa9ba3ffe0b6c366b81232caab38605a0699ad5398d6cce76f91ee809e322dafc90611b95908390614242565b60405180910390a150565b60008282016108d384821015836115b6565b8015611bd257611bcd611bc3611781565b42106101936115b6565b611be7565b611be7611bdd6117a5565b42106101a96115b6565b600780547fffffffffffffffffffffffffffffffffffffffffffffffffffffffffffffff00168215151790556040517f9e3a5e37224532dea67b89face185703738a228a6e8a23dee546960180d3be6490611b9590839061421f565b61099d611c4e6110eb565b156101b56115b6565b600854611c66908260ff6129ff565b6008556040517feff3d4d215b42bf0960be9c6d5e05c22cba4df6627a3a523e2acee733b5854c890611b9590839061421f565b6001901b6000190191901c1690565b60006060611cb76103e66125eb565b935093915050565b333014611dae576000306001600160a01b0316600036604051611ce392919061418d565b6000604051808303816000865af19150503d8060008114611d20576040519150601f19603f3d011682016040523d82523d6000602084013e611d25565b606091505b505090508060008114611d3457fe5b60046000803e6000517fffffffff00000000000000000000000000000000000000000000000000000000167f43adbafb000000000000000000000000000000000000000000000000000000008114611d90573d6000803e3d6000fd5b506020600460003e604060205260243d03602460403e601c3d016000f35b60006060611dc18686868663ffffffff16565b8051601f1982018390526343adbafb7fffffffffffffffffffffffffffffffffffffffffffffffffffffffffffffffc083015291935091506020027fffffffffffffffffffffffffffffffffffffffffffffffffffffffffffffffdc82016044820181fd5b81518151611e35908290612a0e565b60005b8181101561109057611e70848281518110611e4f57fe5b6020026020010151848381518110611e6357fe5b60200260200101516118c0565b848281518110611e7c57fe5b6020908102919091010152600101611e38565b60008160200151831015611ec85781516020830151600091611eb491869003906118c0565b9050611ec08482611571565b9150506106fd565b81604001518311611eda5750816106fd565b81516040830151600091611eb4918603906118c0565b60006108d38383611ba0565b60006106fd82611f0a610727565b90611571565b6000611f1f82151560046115b6565b670de0b6b3a76400008302611f51841580611f4a5750670de0b6b3a7640000858381611f4757fe5b04145b60056115b6565b6001836001830304018115150291505092915050565b60008082511180156106fd575060ff801682806020019051810190611f8c9190614089565b60ff161492915050565b61099d611fa16110eb565b6101b66115b6565b600060606000611fb884612a1b565b90506060865167ffffffffffffffff81118015611fd457600080fd5b50604051908082528060200260200182016040528015611ffe578160200160208202803683370190505b509050600061200b610ec6565b9050600061201e898381518110610c2057fe5b9050600061202c8583612a31565b905060005b8a5181101561208e578381141561204957600061206f565b61206f828c838151811061205957fe5b60200260200101516118c090919063ffffffff16565b85828151811061207b57fe5b6020908102919091010152600101612031565b509399929850919650505050505050565b61156d8282612a71565b60006108d36103e66125eb565b6120c58183111561014c6115b6565b6120e06b0de0b6b39983494c589c000082111561014d6115b6565b6120f8670de0b6b3a7640000825b06156101616115b6565b61210a670de0b6b3a7640000836120ee565b61213f670de0b6b3a7640000820460406020612137670de0b6b3a764000087600854919004602080611587565b929190611587565b6008556040516001600160a01b038416907fd0e27a0d0c2cb09280fa5e4487315455b32afcdcf012dc35b6ef2a0e3c4d12809061217f90859085906144b2565b60405180910390a2505050565b6000612196610f53565b6001600160a01b031663aaabadc56040518163ffffffff1660e01b815260040160206040518083038186803b1580156121ce57600080fd5b505afa1580156121e2573d6000803e3d6000fd5b505050506040513d601f19601f820116820180604052508101906108ed9190613f37565b1c60011690565b60408051604180825260808201909252606091829190602082018180368337019050509050836020820152826040820152846060820153949350505050565b600061225785612b3d565b905061226d612267878387612b59565b836115b6565b61227c428410156101b86115b6565b5050506001600160a01b039092166000908152600660205260409020805460010190555050565b600060606122be6001600160a01b03861630146101566115b6565b6122d56001600160a01b03851630146101566115b6565b604080516003808252608082019092526dffffffffffffffffffffffffffff91606091906020820183803683370190505090506dffffffffffffffffffffffffffff8160008151811061232457fe5b602090810291909101015290969095509350505050565b61156d8282612c08565b6001600160a01b03918216600090815260016020908152604080832093909416825291909152205490565b60007f00000000000000000000000000000000000000000000000000000000000000007f00000000000000000000000000000000000000000000000000000000000000007f00000000000000000000000000000000000000000000000000000000000000006123dd612c9b565b306040516020016123f2959493929190614411565b60405160208183030381529060405280519060200120905090565b600080856001600160a01b03166309b2760f866040518263ffffffff1660e01b815260040161243c9190614472565b602060405180830381600087803b15801561245657600080fd5b505af115801561246a573d6000803e3d6000fd5b505050506040513d601f19601f8201168201806040525081019061248e9190613e3c565b6040517f66a9c7d20000000000000000000000000000000000000000000000000000000081529091506001600160a01b038716906366a9c7d2906124da9084908890889060040161438b565b600060405180830381600087803b1580156124f457600080fd5b505af1158015612508573d6000803e3d6000fd5b509298975050505050505050565b600061252584841115836115b6565b5050900390565b60028151101561253b57611a1e565b60008160008151811061254a57fe5b602002602001015190506000600190505b825181101561092757600083828151811061257257fe5b6020026020010151905061259b816001600160a01b0316846001600160a01b03161060656115b6565b915060010161255b565b6125b4610100831060646115b6565b6125dc600182101580156115ec57506125d260ff84610100036115aa565b82111560646115b6565b61092783821c156101b46115b6565b611a1e817f42414c0000000000000000000000000000000000000000000000000000000000612c9f565b60006108d383836118c0565b60208301516000906001600160a01b031630141561264b57612644848484612d1a565b90506108d3565b7f00000000000000000000000000000000000000000000000000000000000000006001600160a01b031684602001516001600160a01b0316141561269457612644848484612e72565b7f00000000000000000000000000000000000000000000000000000000000000006001600160a01b031684602001516001600160a01b031614156126dd57612644848484612faf565b6108d36101356125eb565b60006108d38383612a31565b60408301516000906001600160a01b0316301415612717576126448484846130e7565b7f00000000000000000000000000000000000000000000000000000000000000006001600160a01b031684604001516001600160a01b0316141561276057612644848484613237565b7f00000000000000000000000000000000000000000000000000000000000000006001600160a01b031684604001516001600160a01b031614156126dd5761264484848461336f565b60006108d38383611f10565b805160208201517fffffffff00000000000000000000000000000000000000000000000000000000167f43adbafb0000000000000000000000000000000000000000000000000000000081147ffa61cc1200000000000000000000000000000000000000000000000000000000821417612830578160208401fd5b5061156d6101656125eb565b600073ba1ba1ba1ba1ba1ba1ba1ba1ba1ba1ba1ba1ba1b61285b610f2f565b6001600160a01b0316141580156128765750612876836134a7565b1561289e57612883610f2f565b6001600160a01b0316336001600160a01b03161490506106fd565b6128a661218c565b6001600160a01b0316639be2a8848484306040518463ffffffff1660e01b81526004016128d59392919061424b565b60206040518083038186803b1580156128ed57600080fd5b505afa158015612901573d6000803e3d6000fd5b505050506040513d601f19601f820116820180604052508101906112b89190613e1c565b60007f00000000000000000000000000000000000000000000000000000000000000006001600160a01b0316826001600160a01b0316141561298857507f0000000000000000000000000000000000000000000000000000000000000000610c59565b7f00000000000000000000000000000000000000000000000000000000000000006001600160a01b0316826001600160a01b031614156129d4576129cd6107df6117c9565b9050610c59565b6001600160a01b0382163014156129f45750670de0b6b3a7640000610c59565b610c596101356125eb565b6001811b1992909216911b1790565b61156d81831460676115b6565b6000818060200190518101906108d391906140a5565b6000612a4082151560046115b6565b670de0b6b3a76400008302612a68841580611f4a5750670de0b6b3a7640000858381611f4757fe5b8281816118ef57fe5b612a886001600160a01b038316151561019b6115b6565b612a9482600083610927565b6001600160a01b038216600090815260208190526040902054612aba90826101b2612516565b6001600160a01b038316600090815260208190526040902055612aed612ae882612ae2610727565b90611555565b61350b565b60006001600160a01b0316826001600160a01b03167fddf252ad1be2c89b69c2b068fc378daa952ba7f163c4a11628f55a4df523b3ef83604051612b319190614242565b60405180910390a35050565b6000612b47612370565b82604051602001610f1292919061419d565b6000612b6b82516041146101b96115b6565b60208281015160408085015160608601518251600080825295019283905292939092811a91600190612ba4908990859088908890614454565b6020604051602081039080840390855afa158015612bc6573d6000803e3d6000fd5b5050604051601f1901519150506001600160a01b03811615801590612bfc5750876001600160a01b0316816001600160a01b0316145b98975050505050505050565b612c1460008383610927565b612c29612ae882612c23610727565b90611ba0565b6001600160a01b038216600090815260208190526040902054612c4c9082611ba0565b6001600160a01b0383166000818152602081905260408082209390935591519091907fddf252ad1be2c89b69c2b068fc378daa952ba7f163c4a11628f55a4df523b3ef90612b31908590614242565b4690565b7f08c379a000000000000000000000000000000000000000000000000000000000600090815260206004526007602452600a808404818106603090810160081b958390069590950190829004918206850160101b01602363ffffff0060e086901c160160181b0190930160c81b60445260e882901c90606490fd5b6000612da07f00000000000000000000000000000000000000000000000000000000000000006001600160a01b031685604001516001600160a01b03161480612d9857507f00000000000000000000000000000000000000000000000000000000000000006001600160a01b031685604001516001600160a01b0316145b6101356115b6565b61154d8460600151847f000000000000000000000000000000000000000000000000000000000000000081518110612dd457fe5b6020026020010151857f000000000000000000000000000000000000000000000000000000000000000081518110612e0857fe5b6020026020010151612e2087600081518110610c2057fe5b867f00000000000000000000000000000000000000000000000000000000000000006001600160a01b03168a604001516001600160a01b031614612e6657613510612e6a565b61356e5b63ffffffff16565b6000612ece7f00000000000000000000000000000000000000000000000000000000000000006001600160a01b031685604001516001600160a01b03161480612d98575060408501516001600160a01b031630146101356115b6565b60408401516001600160a01b03163014612f2957612f248460600151847f000000000000000000000000000000000000000000000000000000000000000081518110612f1657fe5b6020026020010151846135d7565b61154d565b61154d8460600151847f000000000000000000000000000000000000000000000000000000000000000081518110612f5d57fe5b6020026020010151857f000000000000000000000000000000000000000000000000000000000000000081518110612f9157fe5b6020026020010151612fa987600081518110610c2057fe5b86613607565b600061300b7f00000000000000000000000000000000000000000000000000000000000000006001600160a01b031685604001516001600160a01b03161480612d98575060408501516001600160a01b031630146101356115b6565b60408401516001600160a01b0316301461306157612f248460600151847f00000000000000000000000000000000000000000000000000000000000000008151811061305357fe5b60200260200101518461366d565b61154d8460600151847f00000000000000000000000000000000000000000000000000000000000000008151811061309557fe5b6020026020010151857f0000000000000000000000000000000000000000000000000000000000000000815181106130c957fe5b60200260200101516130e187600081518110610c2057fe5b866136ad565b600061316c7f00000000000000000000000000000000000000000000000000000000000000006001600160a01b031685602001516001600160a01b03161480612d9857507f00000000000000000000000000000000000000000000000000000000000000006001600160a01b031685602001516001600160a01b0316146101356115b6565b61154d8460600151847f0000000000000000000000000000000000000000000000000000000000000000815181106131a057fe5b6020026020010151857f0000000000000000000000000000000000000000000000000000000000000000815181106131d457fe5b60200260200101516131ec87600081518110610c2057fe5b867f00000000000000000000000000000000000000000000000000000000000000006001600160a01b03168a602001516001600160a01b03161461323257613714612e6a565b61376b565b60006132937f00000000000000000000000000000000000000000000000000000000000000006001600160a01b031685602001516001600160a01b03161480612d98575060208501516001600160a01b031630146101356115b6565b60208401516001600160a01b031630146132e957612f248460600151847f0000000000000000000000000000000000000000000000000000000000000000815181106132db57fe5b6020026020010151846137d5565b61154d8460600151847f00000000000000000000000000000000000000000000000000000000000000008151811061331d57fe5b6020026020010151857f00000000000000000000000000000000000000000000000000000000000000008151811061335157fe5b602002602001015161336987600081518110610c2057fe5b866137ff565b60006133cb7f00000000000000000000000000000000000000000000000000000000000000006001600160a01b031685602001516001600160a01b03161480612d98575060208501516001600160a01b031630146101356115b6565b60208401516001600160a01b0316301461342157612f248460600151847f00000000000000000000000000000000000000000000000000000000000000008151811061341357fe5b60200260200101518461384e565b61154d8460600151847f00000000000000000000000000000000000000000000000000000000000000008151811061345557fe5b6020026020010151857f00000000000000000000000000000000000000000000000000000000000000008151811061348957fe5b60200260200101516134a187600081518110610c2057fe5b86613883565b60006134d27f9f11080e00000000000000000000000000000000000000000000000000000000610edd565b8214806106fd57506135037f38e9922e00000000000000000000000000000000000000000000000000000000610edd565b909114919050565b600255565b60008061351d8684611e8f565b9050600061352b8287611ef0565b90506000613539868a611571565b9050600061355484611f0a61354e85876138d7565b8a6138f1565b90506135608882611571565b9a9950505050505050505050565b60008061357b8684611e8f565b905060006135898287611ef0565b905060006135a061359a838b6138d7565b87613912565b905060006135ae8483611571565b905060006135bc8288613932565b90506135c88a82611571565b9b9a5050505050505050505050565b6000806135e48484611e8f565b905060006135fb6135f58688611ba0565b85611e8f565b905061064b8183611571565b60008261361f576136188683611e8f565b9050611023565b600061362b8684611e8f565b9050600061363c6135f5888a611ba0565b9050600061364a8284611571565b905060006136588489611ef0565b905061356061366788846138d7565b82613912565b60008061367a8484611e8f565b905060006136888287611571565b905060006136968286613932565b90506136a28682611571565b979650505050505050565b6000826136bb575084611023565b60006136c78684611e8f565b905060006136d58287611ef0565b905060006136e3878a611ba0565b905060006136f18483611ef0565b9050600061370861370289846138d7565b85613912565b90506135c88189611571565b600082613722575084611023565b600061372e8684611e8f565b9050600061373c8287611ef0565b9050600061374a868a611ba0565b9050600061375f84611f0a61354e85876138d7565b90506135608189611571565b60008261377c576136188683613932565b60006137888684611e8f565b905060006137968287611ef0565b905060006137ad6137a7838b6138d7565b876138f1565b905060006137bb8483611ba0565b905060006137c98288613932565b90506135c8818b611571565b6000806137e28484611e8f565b905060006137f36135f58688611571565b905061064b8282611571565b60008061380c8684611e8f565b9050600061381d6135f5888a611571565b9050600061382b8383611571565b905060006138398489611ef0565b905061356061384888846138d7565b826138f1565b60008061385b8484611e8f565b905060006138698287611ba0565b905060006138778286613932565b90506136a28187611571565b6000806138908684611e8f565b9050600061389e8287611ef0565b905060006138ac878a611571565b905060006138ba8483611ef0565b905060006138cb61370289846138d7565b90506135c88882611571565b60008282026108d38415806118dd5750838583816118da57fe5b600061390082151560046115b6565b50811515600019909201046001010290565b600061392182151560046115b6565b81838161392a57fe5b049392505050565b6000816020015183101561397b5781516112b89061395990670de0b6b3a764000090611ba0565b602084015184516139759161396e91906118c0565b8690611ba0565b90612a31565b8160400151831161398d5750816106fd565b81516112b8906139a690670de0b6b3a764000090611571565b60408401518451613975916139bb91906118c0565b8690611571565b60405180606001604052806000815260200160008152602001600081525090565b60405180608001604052806060815260200160608152602001606081526020016000151581525090565b80356106fd81614521565b600082601f830112613a28578081fd5b8135613a3b613a36826144f5565b6144ce565b818152915060208083019084810181840286018201871015613a5c57600080fd5b60005b84811015613a7b57813584529282019290820190600101613a5f565b505050505092915050565b600082601f830112613a96578081fd5b8151613aa4613a36826144f5565b818152915060208083019084810181840286018201871015613ac557600080fd5b60005b84811015613a7b57815184529282019290820190600101613ac8565b600082601f830112613af4578081fd5b813567ffffffffffffffff811115613b0a578182fd5b613b1d6020601f19601f840116016144ce565b9150808252836020828501011115613b3457600080fd5b8060208401602084013760009082016020015292915050565b8035600281106106fd57600080fd5b6000610120808385031215613b6f578182fd5b613b78816144ce565b915050613b858383613b4d565b8152613b948360208401613a0d565b6020820152613ba68360408401613a0d565b6040820152606082013560608201526080820135608082015260a082013560a0820152613bd68360c08401613a0d565b60c0820152613be88360e08401613a0d565b60e08201526101008083013567ffffffffffffffff811115613c0957600080fd5b613c1585828601613ae4565b82840152505092915050565b600060208284031215613c32578081fd5b81356108d381614521565b60008060408385031215613c4f578081fd5b8235613c5a81614521565b91506020830135613c6a81614521565b809150509250929050565b600080600060608486031215613c89578081fd5b8335613c9481614521565b92506020840135613ca481614521565b929592945050506040919091013590565b600080600080600080600060e0888a031215613ccf578283fd5b8735613cda81614521565b96506020880135613cea81614521565b955060408801359450606088013593506080880135613d0881614536565b9699959850939692959460a0840135945060c09093013592915050565b60008060408385031215613d37578182fd5b8235613d4281614521565b946020939093013593505050565b600080600060608486031215613d64578081fd5b835167ffffffffffffffff80821115613d7b578283fd5b818601915086601f830112613d8e578283fd5b8151613d9c613a36826144f5565b80828252602080830192508086018b828387028901011115613dbc578788fd5b8796505b84871015613de7578051613dd381614521565b845260019690960195928101928101613dc0565b508901519097509350505080821115613dfe578283fd5b50613e0b86828701613a86565b925050604084015190509250925092565b600060208284031215613e2d578081fd5b815180151581146108d3578182fd5b600060208284031215613e4d578081fd5b5051919050565b600080600080600080600060e0888a031215613e6e578081fd5b873596506020880135613e8081614521565b95506040880135613e9081614521565b9450606088013567ffffffffffffffff80821115613eac578283fd5b613eb88b838c01613a18565b955060808a0135945060a08a0135935060c08a0135915080821115613edb578283fd5b50613ee88a828b01613ae4565b91505092959891949750929550565b600060208284031215613f08578081fd5b81357fffffffff00000000000000000000000000000000000000000000000000000000811681146108d3578182fd5b600060208284031215613f48578081fd5b81516108d381614521565b60008060008060808587031215613f68578182fd5b843567ffffffffffffffff80821115613f7f578384fd5b613f8b88838901613b5c565b95506020870135915080821115613fa0578384fd5b50613fad87828801613a18565b949794965050505060408301359260600135919050565b600080600060608486031215613fd8578081fd5b833567ffffffffffffffff811115613fee578182fd5b613ffa86828701613b5c565b9660208601359650604090950135949350505050565b600060208284031215614021578081fd5b5035919050565b6000806040838503121561403a578182fd5b50508035926020909101359150565b6000806000806080858703121561405e578182fd5b845193506020850151925060408501519150606085015161407e81614521565b939692955090935050565b60006020828403121561409a578081fd5b81516108d381614536565b600080604083850312156140b7578182fd5b82516140c281614536565b6020939093015192949293505050565b6000815180845260208085019450808401835b83811015614101578151875295820195908201906001016140e5565b509495945050505050565b15159052565b60008151808452815b818110156141375760208185018101518683018201520161411b565b818111156141485782602083870101525b50601f01601f19169290920160200192915050565b9182527fffffffff0000000000000000000000000000000000000000000000000000000016602082015260240190565b6000828483379101908152919050565b7f190100000000000000000000000000000000000000000000000000000000000081526002810192909252602282015260420190565b6001600160a01b0391909116815260200190565b6000602082526108d360208301846140d2565b60006040825261420d60408301856140d2565b828103602084015261102381856140d2565b901515815260200190565b92151583526020830191909152604082015260600190565b90815260200190565b9283526001600160a01b03918216602084015216604082015260600190565b600085825260206001600160a01b038087168285015280861660408501525060806060840152610100830184516080808601528181518084526101208701915084830193508592505b808310156142db576142c58451614515565b82529284019260019290920191908401906142b3565b508387015193507fffffffffffffffffffffffffffffffffffffffffffffffffffffffffffffff809250828682030160a087015261431981856140d2565b935050506040850151818584030160c08601526143368382614112565b92505050606084015161434c60e085018261410c565b509695505050505050565b9586526001600160a01b0394851660208701529290931660408501526060840152608083019190915260a082015260c00190565b60006060820185835260206060818501528186518084526080860191508288019350845b818110156143d3576143c18551614515565b835293830193918301916001016143af565b505084810360408601528551808252908201925081860190845b81811015612508576143ff8351614515565b855293830193918301916001016143ed565b9485526020850193909352604084019190915260608301526001600160a01b0316608082015260a00190565b9182526001600160a01b0316602082015260400190565b93845260ff9290921660208401526040830152606082015260800190565b602081016003831061448057fe5b91905290565b6000602082526108d36020830184614112565b60008382526040602083015261154d60408301846140d2565b918252602082015260400190565b60ff91909116815260200190565b60405181810167ffffffffffffffff811182821017156144ed57600080fd5b604052919050565b600067ffffffffffffffff82111561450b578081fd5b5060209081020190565b6001600160a01b031690565b6001600160a01b0381168114611a1e57600080fd5b60ff81168114611a1e57600080fdfea26469706673582212209e6e917cf3a322e7d3159ea18bec33d953001412dee49599d8e0c6114094138964736f6c63430007010033",
  "linkReferences": {},
  "deployedLinkReferences": {}
}