{
  "_format": "hh-sol-artifact-1",
  "contractName": "VotingEscrowRemapper",
  "sourceName": "contracts/VotingEscrowRemapper.sol",
  "abi": [
    {
      "inputs": [
        {
          "internalType": "contract IVotingEscrow",
          "name": "votingEscrow",
          "type": "address"
        },
        {
          "internalType": "contract IVault",
          "name": "vault",
          "type": "address"
        }
      ],
      "stateMutability": "nonpayable",
      "type": "constructor"
    },
    {
      "anonymous": false,
      "inputs": [
        {
          "indexed": true,
          "internalType": "address",
          "name": "localUser",
          "type": "address"
        },
        {
          "indexed": true,
          "internalType": "address",
          "name": "delegate",
          "type": "address"
        }
      ],
      "name": "AddressDelegateUpdated",
      "type": "event"
    },
    {
      "anonymous": false,
      "inputs": [
        {
          "indexed": true,
          "internalType": "address",
          "name": "localUser",
          "type": "address"
        },
        {
          "indexed": true,
          "internalType": "address",
          "name": "remoteUser",
          "type": "address"
        },
        {
          "indexed": true,
          "internalType": "uint256",
          "name": "chainId",
          "type": "uint256"
        }
      ],
      "name": "AddressMappingUpdated",
      "type": "event"
    },
    {
      "anonymous": false,
      "inputs": [
        {
          "indexed": true,
          "internalType": "contract IOmniVotingEscrow",
          "name": "newOmniVotingEscrow",
          "type": "address"
        }
      ],
      "name": "OmniVotingEscrowUpdated",
      "type": "event"
    },
    {
      "anonymous": false,
      "inputs": [
        {
          "indexed": true,
          "internalType": "address",
          "name": "remoteUser",
          "type": "address"
        },
        {
          "indexed": true,
          "internalType": "uint256",
          "name": "chainId",
          "type": "uint256"
        }
      ],
      "name": "RemoteAddressMappingCleared",
      "type": "event"
    },
    {
      "inputs": [
        {
          "internalType": "address",
          "name": "localUser",
          "type": "address"
        },
        {
          "internalType": "uint256",
          "name": "chainId",
          "type": "uint256"
        }
      ],
      "name": "clearNetworkRemapping",
      "outputs": [],
      "stateMutability": "payable",
      "type": "function"
    },
    {
      "inputs": [
        {
          "internalType": "bytes4",
          "name": "selector",
          "type": "bytes4"
        }
      ],
      "name": "getActionId",
      "outputs": [
        {
          "internalType": "bytes32",
          "name": "",
          "type": "bytes32"
        }
      ],
      "stateMutability": "view",
      "type": "function"
    },
    {
      "inputs": [],
      "name": "getAuthorizer",
      "outputs": [
        {
          "internalType": "contract IAuthorizer",
          "name": "",
          "type": "address"
        }
      ],
      "stateMutability": "view",
      "type": "function"
    },
    {
      "inputs": [
        {
          "internalType": "address",
          "name": "remoteUser",
          "type": "address"
        },
        {
          "internalType": "uint256",
          "name": "chainId",
          "type": "uint256"
        }
      ],
      "name": "getLocalUser",
      "outputs": [
        {
          "internalType": "address",
          "name": "",
          "type": "address"
        }
      ],
      "stateMutability": "view",
      "type": "function"
    },
    {
      "inputs": [
        {
          "internalType": "address",
          "name": "user",
          "type": "address"
        }
      ],
      "name": "getLockedEnd",
      "outputs": [
        {
          "internalType": "uint256",
          "name": "",
          "type": "uint256"
        }
      ],
      "stateMutability": "view",
      "type": "function"
    },
    {
      "inputs": [],
      "name": "getOmniVotingEscrow",
      "outputs": [
        {
          "internalType": "contract IOmniVotingEscrow",
          "name": "",
          "type": "address"
        }
      ],
      "stateMutability": "view",
      "type": "function"
    },
    {
      "inputs": [
        {
          "internalType": "address",
          "name": "localUser",
          "type": "address"
        }
      ],
      "name": "getRemappingManager",
      "outputs": [
        {
          "internalType": "address",
          "name": "",
          "type": "address"
        }
      ],
      "stateMutability": "view",
      "type": "function"
    },
    {
      "inputs": [
        {
          "internalType": "address",
          "name": "localUser",
          "type": "address"
        },
        {
          "internalType": "uint256",
          "name": "chainId",
          "type": "uint256"
        }
      ],
      "name": "getRemoteUser",
      "outputs": [
        {
          "internalType": "address",
          "name": "",
          "type": "address"
        }
      ],
      "stateMutability": "view",
      "type": "function"
    },
    {
      "inputs": [],
      "name": "getTotalSupplyPoint",
      "outputs": [
        {
          "components": [
            {
              "internalType": "int128",
              "name": "bias",
              "type": "int128"
            },
            {
              "internalType": "int128",
              "name": "slope",
              "type": "int128"
            },
            {
              "internalType": "uint256",
              "name": "ts",
              "type": "uint256"
            },
            {
              "internalType": "uint256",
              "name": "blk",
              "type": "uint256"
            }
          ],
          "internalType": "struct IVotingEscrow.Point",
          "name": "",
          "type": "tuple"
        }
      ],
      "stateMutability": "view",
      "type": "function"
    },
    {
      "inputs": [],
      "name": "getVault",
      "outputs": [
        {
          "internalType": "contract IVault",
          "name": "",
          "type": "address"
        }
      ],
      "stateMutability": "view",
      "type": "function"
    },
    {
      "inputs": [],
      "name": "getVotingEscrow",
      "outputs": [
        {
          "internalType": "contract IVotingEscrow",
          "name": "",
          "type": "address"
        }
      ],
      "stateMutability": "view",
      "type": "function"
    },
    {
      "inputs": [
        {
          "internalType": "address",
          "name": "localUser",
          "type": "address"
        },
        {
          "internalType": "address",
          "name": "remoteUser",
          "type": "address"
        },
        {
          "internalType": "uint256",
          "name": "chainId",
          "type": "uint256"
        }
      ],
      "name": "setNetworkRemapping",
      "outputs": [],
      "stateMutability": "payable",
      "type": "function"
    },
    {
      "inputs": [
        {
          "internalType": "address",
          "name": "localUser",
          "type": "address"
        },
        {
          "internalType": "address",
          "name": "delegate",
          "type": "address"
        }
      ],
      "name": "setNetworkRemappingManager",
      "outputs": [],
      "stateMutability": "nonpayable",
      "type": "function"
    },
    {
      "inputs": [
        {
          "internalType": "contract IOmniVotingEscrow",
          "name": "omniVotingEscrow",
          "type": "address"
        }
      ],
      "name": "setOmniVotingEscrow",
      "outputs": [],
      "stateMutability": "nonpayable",
      "type": "function"
    }
  ],
  "bytecode": "0x60e06040523480156200001157600080fd5b5060405162001d6338038062001d6383398101604081905262000034916200005d565b306080526001600160601b0319606091821b811660a052600160005591901b1660c052620000b4565b6000806040838503121562000070578182fd5b82516200007d816200009b565b602084015190925062000090816200009b565b809150509250929050565b6001600160a01b0381168114620000b157600080fd5b50565b60805160a05160601c60c05160601c611c77620000ec600039806102855280610c275250806108a65250806108565250611c776000f3fe6080604052600436106100dd5760003560e01c8063851c1bb31161007f578063aaabadc511610059578063aaabadc514610219578063dc0038601461022e578063ee98b1e714610241578063f6f4a33214610261576100dd565b8063851c1bb3146101c45780638d928af8146101e4578063a9f3f44e146101f9576100dd565b8063362f52fe116100bb578063362f52fe1461014f5780633e7df7c814610162578063550f2f7f1461018f57806363d48380146101a4576100dd565b806308b0308a146100e257806309d401f91461010d57806327442de31461012f575b600080fd5b3480156100ee57600080fd5b506100f7610283565b6040516101049190611715565b60405180910390f35b34801561011957600080fd5b5061012d6101283660046114fd565b6102a7565b005b34801561013b57600080fd5b506100f761014a366004611591565b61032e565b61012d61015d366004611591565b610367565b34801561016e57600080fd5b5061018261017d3660046114fd565b61076f565b6040516101049190611781565b34801561019b57600080fd5b506100f7610801565b3480156101b057600080fd5b506100f76101bf366004611591565b61081d565b3480156101d057600080fd5b506101826101df3660046115dc565b610852565b3480156101f057600080fd5b506100f76108a4565b34801561020557600080fd5b5061012d610214366004611519565b6108c8565b34801561022557600080fd5b506100f761097d565b61012d61023c366004611551565b610a09565b34801561024d57600080fd5b506100f761025c3660046114fd565b611074565b34801561026d57600080fd5b5061027661109f565b6040516101049190611bc4565b7f000000000000000000000000000000000000000000000000000000000000000090565b6102af6111df565b6102b761121d565b600180547fffffffffffffffffffffffff00000000000000000000000000000000000000001673ffffffffffffffffffffffffffffffffffffffff83169081179091556040517fe8bb344458d00606347f5b2f5b6f6de2a6f0beeb7aa331c6b90549adc7c093c090600090a261032b611236565b50565b600081815260026020908152604080832073ffffffffffffffffffffffffffffffffffffffff8087168552925290912054165b92915050565b61036f61121d565b73ffffffffffffffffffffffffffffffffffffffff82166103ab5760405162461bcd60e51b81526004016103a2906118a7565b60405180910390fd5b6103b48261123d565b15806103d5575073ffffffffffffffffffffffffffffffffffffffff821633145b6103f15760405162461bcd60e51b81526004016103a2906117b6565b60006103fb610801565b905073ffffffffffffffffffffffffffffffffffffffff81166104305760405162461bcd60e51b81526004016103a290611813565b600082815260026020908152604080832073ffffffffffffffffffffffffffffffffffffffff8088168552925290912054168061047f5760405162461bcd60e51b81526004016103a2906119f3565b600083815260036020908152604080832073ffffffffffffffffffffffffffffffffffffffff808616855290835281842080547fffffffffffffffffffffffff00000000000000000000000000000000000000009081169091558785526002845282852091891680865291909352818420805490931690925551859291907fd3cdbf519f8689d8bc4df9cce24669a1f1f8050d63449d99e2e1e81c4a8bb69c908390a4604051839073ffffffffffffffffffffffffffffffffffffffff8316907f045722ad3859a901ccdcced21b1b026c2d418346384bda43b028164b0f8ef5ea90600090a36040517f65d092d000000000000000000000000000000000000000000000000000000000815260009073ffffffffffffffffffffffffffffffffffffffff8416906365d092d0906105bc9087908590600401611bfa565b604080518083038186803b1580156105d357600080fd5b505afa1580156105e7573d6000803e3d6000fd5b505050506040513d601f19601f8201168201806040525081019061060b91906116bf565b509050806002023410156106315760405162461bcd60e51b81526004016103a2906118dc565b6040517f4a75948900000000000000000000000000000000000000000000000000000000815273ffffffffffffffffffffffffffffffffffffffff841690634a75948990839061068c90899089903390600090600401611736565b6000604051808303818588803b1580156106a557600080fd5b505af11580156106b9573d6000803e3d6000fd5b50506040517f4a75948900000000000000000000000000000000000000000000000000000000815273ffffffffffffffffffffffffffffffffffffffff87169350634a759489925084915061071990869089903390600090600401611736565b6000604051808303818588803b15801561073257600080fd5b505af1158015610746573d6000803e3d6000fd5b50479350508215915061075f90505761075f3382611371565b5050505061076b611236565b5050565b6000610779610283565b73ffffffffffffffffffffffffffffffffffffffff1663adc63589836040518263ffffffff1660e01b81526004016107b19190611715565b60206040518083038186803b1580156107c957600080fd5b505afa1580156107dd573d6000803e3d6000fd5b505050506040513d601f19601f8201168201806040525081019061036191906116a7565b60015473ffffffffffffffffffffffffffffffffffffffff1690565b600090815260036020908152604080832073ffffffffffffffffffffffffffffffffffffffff94851684529091529020541690565b60007f0000000000000000000000000000000000000000000000000000000000000000826040516020016108879291906116e2565b604051602081830303815290604052805190602001209050919050565b7f000000000000000000000000000000000000000000000000000000000000000090565b6108d06111df565b6108d861121d565b6108e18261123d565b6108fd5760405162461bcd60e51b81526004016103a290611b0a565b73ffffffffffffffffffffffffffffffffffffffff82811660008181526004602052604080822080547fffffffffffffffffffffffff0000000000000000000000000000000000000000169486169485179055517f72cff3a94768f9930e59d7a01948e45bea689391918693c8d164c16f271c46d99190a361076b611236565b60006109876108a4565b73ffffffffffffffffffffffffffffffffffffffff1663aaabadc56040518163ffffffff1660e01b815260040160206040518083038186803b1580156109cc57600080fd5b505afa1580156109e0573d6000803e3d6000fd5b505050506040513d601f19601f82011682018060405250810190610a04919061161c565b905090565b610a1161121d565b610a663373ffffffffffffffffffffffffffffffffffffffff85161480610a5e575073ffffffffffffffffffffffffffffffffffffffff8481166000908152600460205260409020541633145b6101916113f4565b610a6f8361123d565b610a8b5760405162461bcd60e51b81526004016103a290611a50565b73ffffffffffffffffffffffffffffffffffffffff8216610abe5760405162461bcd60e51b81526004016103a290611aad565b6000610ac8610801565b905073ffffffffffffffffffffffffffffffffffffffff8116610afd5760405162461bcd60e51b81526004016103a290611813565b600082815260036020908152604080832073ffffffffffffffffffffffffffffffffffffffff87811685529252909120541615610b4c5760405162461bcd60e51b81526004016103a290611b67565b600082815260026020908152604080832073ffffffffffffffffffffffffffffffffffffffff87811685529252909120541615610b9b5760405162461bcd60e51b81526004016103a290611939565b600082815260036020908152604080832073ffffffffffffffffffffffffffffffffffffffff88811685529252909120541615610bea5760405162461bcd60e51b81526004016103a290611996565b6040517f70a0823100000000000000000000000000000000000000000000000000000000815273ffffffffffffffffffffffffffffffffffffffff7f000000000000000000000000000000000000000000000000000000000000000016906370a0823190610c5c908690600401611715565b60206040518083038186803b158015610c7457600080fd5b505afa158015610c88573d6000803e3d6000fd5b505050506040513d601f19601f82011682018060405250810190610cac91906116a7565b15610cc95760405162461bcd60e51b81526004016103a29061184a565b600082815260026020908152604080832073ffffffffffffffffffffffffffffffffffffffff8089168552925290912054168015610d7e57600083815260036020908152604080832073ffffffffffffffffffffffffffffffffffffffff8516808552925280832080547fffffffffffffffffffffffff00000000000000000000000000000000000000001690555185927f045722ad3859a901ccdcced21b1b026c2d418346384bda43b028164b0f8ef5ea91a35b600083815260036020908152604080832073ffffffffffffffffffffffffffffffffffffffff8089168086529184528285208054918b167fffffffffffffffffffffffff0000000000000000000000000000000000000000928316811790915588865260028552838620818752909452828520805490911682179055905161ffff8716939192917fd3cdbf519f8689d8bc4df9cce24669a1f1f8050d63449d99e2e1e81c4a8bb69c91a46040517f65d092d000000000000000000000000000000000000000000000000000000000815260009073ffffffffffffffffffffffffffffffffffffffff8416906365d092d090610e7f9087908590600401611bfa565b604080518083038186803b158015610e9657600080fd5b505afa158015610eaa573d6000803e3d6000fd5b505050506040513d601f19601f82011682018060405250810190610ece91906116bf565b50905073ffffffffffffffffffffffffffffffffffffffff821615610fa25780600202341015610f105760405162461bcd60e51b81526004016103a2906118dc565b6040517f4a75948900000000000000000000000000000000000000000000000000000000815273ffffffffffffffffffffffffffffffffffffffff841690634a759489908390610f6b90869089903390600090600401611736565b6000604051808303818588803b158015610f8457600080fd5b505af1158015610f98573d6000803e3d6000fd5b5050505050610fc2565b80341015610fc25760405162461bcd60e51b81526004016103a2906118dc565b6040517f4a75948900000000000000000000000000000000000000000000000000000000815273ffffffffffffffffffffffffffffffffffffffff841690634a75948990839061101d908a9089903390600090600401611736565b6000604051808303818588803b15801561103657600080fd5b505af115801561104a573d6000803e3d6000fd5b5047935050821591506110639050576110633382611371565b5050505061106f611236565b505050565b73ffffffffffffffffffffffffffffffffffffffff9081166000908152600460205260409020541690565b6110a76114bd565b60006110b1610283565b905060008173ffffffffffffffffffffffffffffffffffffffff1663900cf0cf6040518163ffffffff1660e01b815260040160206040518083038186803b1580156110fb57600080fd5b505afa15801561110f573d6000803e3d6000fd5b505050506040513d601f19601f8201168201806040525081019061113391906116a7565b6040517fd1febfb900000000000000000000000000000000000000000000000000000000815290915073ffffffffffffffffffffffffffffffffffffffff83169063d1febfb990611188908490600401611781565b60806040518083038186803b1580156111a057600080fd5b505afa1580156111b4573d6000803e3d6000fd5b505050506040513d601f19601f820116820180604052508101906111d89190611638565b9250505090565b600061120e6000357fffffffff0000000000000000000000000000000000000000000000000000000016610852565b905061032b610a5e8233611402565b61122f600260005414156101906113f4565b6002600055565b6001600055565b600080611248610283565b73ffffffffffffffffffffffffffffffffffffffff16637175d4f76040518163ffffffff1660e01b815260040160206040518083038186803b15801561128d57600080fd5b505afa1580156112a1573d6000803e3d6000fd5b505050506040513d601f19601f820116820180604052508101906112c5919061161c565b6040517fc23697a800000000000000000000000000000000000000000000000000000000815290915073ffffffffffffffffffffffffffffffffffffffff82169063c23697a89061131a908690600401611715565b60206040518083038186803b15801561133257600080fd5b505afa158015611346573d6000803e3d6000fd5b505050506040513d601f19601f8201168201806040525081019061136a91906115bc565b9392505050565b611380814710156101a36113f4565b60008273ffffffffffffffffffffffffffffffffffffffff16826040516113a690611712565b60006040518083038185875af1925050503d80600081146113e3576040519150601f19603f3d011682016040523d82523d6000602084013e6113e8565b606091505b5050905061106f816101a45b8161076b5761076b81611448565b600061140c61097d565b73ffffffffffffffffffffffffffffffffffffffff16639be2a8848484306040518463ffffffff1660e01b815260040161131a9392919061178a565b62461bcd60e51b600090815260206004526007602452600a808304818106603090810160081b83860601918390049283060160101b016642414c230000300160c81b60445261032b917f42414c0000000000000000000000000000000000000000000000000000000000906242414c90606490fd5b60405180608001604052806000600f0b81526020016000600f0b815260200160008152602001600081525090565b8051600f81900b811461036157600080fd5b60006020828403121561150e578081fd5b813561136a81611c1f565b6000806040838503121561152b578081fd5b823561153681611c1f565b9150602083013561154681611c1f565b809150509250929050565b600080600060608486031215611565578081fd5b833561157081611c1f565b9250602084013561158081611c1f565b929592945050506040919091013590565b600080604083850312156115a3578182fd5b82356115ae81611c1f565b946020939093013593505050565b6000602082840312156115cd578081fd5b8151801515811461136a578182fd5b6000602082840312156115ed578081fd5b81357fffffffff000000000000000000000000000000000000000000000000000000008116811461136a578182fd5b60006020828403121561162d578081fd5b815161136a81611c1f565b600060808284031215611649578081fd5b6040516080810181811067ffffffffffffffff82111715611668578283fd5b60405261167584846114eb565b815261168484602085016114eb565b602082015260408301516040820152606083015160608201528091505092915050565b6000602082840312156116b8578081fd5b5051919050565b600080604083850312156116d1578182fd5b505080516020909101519092909150565b9182527fffffffff0000000000000000000000000000000000000000000000000000000016602082015260240190565b90565b73ffffffffffffffffffffffffffffffffffffffff91909116815260200190565b73ffffffffffffffffffffffffffffffffffffffff948516815261ffff9390931660208401529083166040830152909116606082015260a06080820181905260009082015260c00190565b90815260200190565b92835273ffffffffffffffffffffffffffffffffffffffff918216602084015216604082015260600190565b60208082526023908201527f6c6f63616c55736572206973207374696c6c20696e20676f6f64207374616e6460408201527f696e670000000000000000000000000000000000000000000000000000000000606082015260800190565b6020808252601a908201527f4f6d6e6920766f74696e6720657363726f77206e6f7420736574000000000000604082015260600190565b60208082526030908201527f5461726765742072656d6f7465206164647265737320686173206e6f6e2d7a6560408201527f726f20766542414c2062616c616e636500000000000000000000000000000000606082015260800190565b6020808252818101527f6c6f63616c557365722063616e6e6f74206265207a65726f2061646472657373604082015260600190565b60208082526027908201527f496e73756666696369656e742045544820746f2062726964676520757365722060408201527f62616c616e636500000000000000000000000000000000000000000000000000606082015260800190565b60208082526031908201527f43616e6e6f742072656d617020746f20616e206164647265737320746861742060408201527f697320696e20757365206c6f63616c6c79000000000000000000000000000000606082015260800190565b60208082526032908201527f43616e6e6f742072656d617020746f20616e206164647265737320746861742060408201527f697320696e207573652072656d6f74656c790000000000000000000000000000606082015260800190565b60208082526021908201527f52656d617070696e6720746f20636c65617220646f6573206e6f74206578697360408201527f7400000000000000000000000000000000000000000000000000000000000000606082015260800190565b60208082526038908201527f4f6e6c7920636f6e7472616374732077686963682063616e20686f6c6420766560408201527f42414c2063616e207365742075702061206d617070696e670000000000000000606082015260800190565b6020808252602a908201527f5a65726f20616464726573732063616e6e6f742062652075736564206173207260408201527f656d6f7465207573657200000000000000000000000000000000000000000000606082015260800190565b60208082526037908201527f4f6e6c7920636f6e7472616374732077686963682063616e20686f6c6420766560408201527f42414c206d6179206861766520612064656c6567617465000000000000000000606082015260800190565b60208082526034908201527f43616e6e6f74206f766572777269746520616e206578697374696e67206d617060408201527f70696e6720627920616e6f746865722075736572000000000000000000000000606082015260800190565b60006080820190508251600f0b82526020830151600f0b6020830152604083015160408301526060830151606083015292915050565b61ffff9290921682521515602082015260606040820181905260009082015260800190565b73ffffffffffffffffffffffffffffffffffffffff8116811461032b57600080fdfea264697066735822122008534df34e94cc78133a84729d3aac77bdab9984915c7660bf40fdbf065e869064736f6c63430007010033",
  "linkReferences": {},
  "deployedLinkReferences": {}
}