{
  "_format": "hh-sol-artifact-1",
  "contractName": "SingleRecipientGaugeFactory",
  "sourceName": "contracts/gauges/ethereum/SingleRecipientGaugeFactory.sol",
  "abi": [
    {
      "inputs": [
        {
          "internalType": "contract IBalancerMinter",
          "name": "minter",
          "type": "address"
        }
      ],
      "stateMutability": "nonpayable",
      "type": "constructor"
    },
    {
      "anonymous": false,
      "inputs": [
        {
          "indexed": true,
          "internalType": "address",
          "name": "gauge",
          "type": "address"
        }
      ],
      "name": "GaugeCreated",
      "type": "event"
    },
    {
      "inputs": [
        {
          "internalType": "address",
          "name": "recipient",
          "type": "address"
        },
        {
          "internalType": "uint256",
          "name": "relativeWeightCap",
          "type": "uint256"
        },
        {
          "internalType": "bool",
          "name": "feeDistributorRecipient",
          "type": "bool"
        }
      ],
      "name": "create",
      "outputs": [
        {
          "internalType": "address",
          "name": "",
          "type": "address"
        }
      ],
      "stateMutability": "nonpayable",
      "type": "function"
    },
    {
      "inputs": [],
      "name": "getGaugeImplementation",
      "outputs": [
        {
          "internalType": "contract ILiquidityGauge",
          "name": "",
          "type": "address"
        }
      ],
      "stateMutability": "view",
      "type": "function"
    },
    {
      "inputs": [
        {
          "internalType": "address",
          "name": "gauge",
          "type": "address"
        }
      ],
      "name": "isGaugeFromFactory",
      "outputs": [
        {
          "internalType": "bool",
          "name": "",
          "type": "bool"
        }
      ],
      "stateMutability": "view",
      "type": "function"
    }
  ],
  "bytecode": "0x608060405234801561001057600080fd5b50604051611dde380380611dde83398101604081905261002f91610096565b8060405161003c90610089565b61004691906100c4565b604051809103906000f080158015610062573d6000803e3d6000fd5b50600080546001600160a01b0319166001600160a01b0392909216919091179055506100d8565b6118c18061051d83390190565b6000602082840312156100a7578081fd5b81516001600160a01b03811681146100bd578182fd5b9392505050565b6001600160a01b0391909116815260200190565b610436806100e76000396000f3fe608060405234801561001057600080fd5b50600436106100415760003560e01c806339312dee1461004657806358e4e2d714610064578063ce3cc8bd14610077575b600080fd5b61004e610097565b60405161005b919061036d565b60405180910390f35b61004e610072366004610329565b6100b3565b61008a610085366004610307565b610152565b60405161005b91906103be565b60005473ffffffffffffffffffffffffffffffffffffffff1690565b6000806100be610181565b6040517f30da53c200000000000000000000000000000000000000000000000000000000815290915073ffffffffffffffffffffffffffffffffffffffff8216906330da53c2906101179088908890889060040161038e565b600060405180830381600087803b15801561013157600080fd5b505af1158015610145573d6000803e3d6000fd5b5092979650505050505050565b73ffffffffffffffffffffffffffffffffffffffff811660009081526001602052604090205460ff165b919050565b6000805481906101a69073ffffffffffffffffffffffffffffffffffffffff16610227565b73ffffffffffffffffffffffffffffffffffffffff8116600081815260016020819052604080832080547fffffffffffffffffffffffffffffffffffffffffffffffffffffffffffffff00169092179091555192935090917faa98436d09d130af48de49867af8b723bbbebb0d737638b5fe8f1bf31bbb71c09190a2905090565b60006040517f3d602d80600a3d3981f3363d3d373d3d3d363d7300000000000000000000000081528260601b60148201527f5af43d82803e903d91602b57fd5bf3000000000000000000000000000000000060288201526037816000f091505073ffffffffffffffffffffffffffffffffffffffff811661017c576040517f08c379a00000000000000000000000000000000000000000000000000000000081526004016102d4906103c9565b60405180910390fd5b803573ffffffffffffffffffffffffffffffffffffffff8116811461030157600080fd5b92915050565b600060208284031215610318578081fd5b61032283836102dd565b9392505050565b60008060006060848603121561033d578182fd5b61034785856102dd565b92506020840135915060408401358015158114610362578182fd5b809150509250925092565b73ffffffffffffffffffffffffffffffffffffffff91909116815260200190565b73ffffffffffffffffffffffffffffffffffffffff93909316835260208301919091521515604082015260600190565b901515815260200190565b60208082526016908201527f455243313136373a20637265617465206661696c65640000000000000000000060408201526060019056fea264697066735822122054900136729c3d2311d132f9ef575c19f1dd933237c3cc2dfe6864db5ef30ebc64736f6c634300070100336101806040523480156200001257600080fd5b50604051620018c1380380620018c1833981810160405260208110156200003857600080fd5b5051600160009081556040805163e6dec36f60e01b815290518392916001600160a01b0384169163e6dec36f91600480820192602092909190829003018186803b1580156200008657600080fd5b505afa1580156200009b573d6000803e3d6000fd5b505050506040513d6020811015620000b257600080fd5b50516040805163c003969960e01b815290519192506000916001600160a01b0384169163c0039699916004808301926020929190829003018186803b158015620000fb57600080fd5b505afa15801562000110573d6000803e3d6000fd5b505050506040513d60208110156200012757600080fd5b505160408051632c6f4d6f60e11b815290519192506000916001600160a01b038616916358de9ade916004808301926020929190829003018186803b1580156200017057600080fd5b505afa15801562000185573d6000803e3d6000fd5b505050506040513d60208110156200019c57600080fd5b50516001600160601b0319606084811b821660805285811b821660a05286811b821660c05282901b1660e052604080516303e1469160e61b815290519192506001600160a01b0383169163f851a44091600480820192602092909190829003018186803b1580156200020d57600080fd5b505afa15801562000222573d6000803e3d6000fd5b505050506040513d60208110156200023957600080fd5b505160601b6001600160601b0319166101005260408051635c3dab0b60e11b815290516001600160a01b0385169163b87b5616916004808301926020929190829003018186803b1580156200028d57600080fd5b505afa158015620002a2573d6000803e3d6000fd5b505050506040513d6020811015620002b957600080fd5b505161012052604080516321609bbf60e01b815290516001600160a01b038516916321609bbf916004808301926020929190829003018186803b1580156200030057600080fd5b505afa15801562000315573d6000803e3d6000fd5b505050506040513d60208110156200032c57600080fd5b505161014052604080516303f7d6c760e51b815290516001600160a01b03851691637efad8e0916004808301926020929190829003018186803b1580156200037357600080fd5b505afa15801562000388573d6000803e3d6000fd5b505050506040513d60208110156200039f57600080fd5b505161016052505060001960025550505060805160601c60a05160601c60c05160601c60e05160601c6101005160601c61012051610140516101605161147c62000445600039806108ce5250806108ad525080610830528061091a52508061038b52806105fa52806106d55280610ab852508061042a52806107be525080610a10525080610c895280610d86525080610e9f5280610ee45280610f8e525061147c6000f3fe6080604052600436106100d25760003560e01c806383f5c39b1161007f5780639f867671116100595780639f8676711461029e578063ab8f0945146102b3578063c2c4c5c1146102c8578063d34fb267146102d0576100d2565b806383f5c39b1461025f57806395d666c8146102745780639c868ac014610289576100d2565b80631b88094d116100b05780631b88094d1461017f57806330da53c2146101bd5780634b8200931461020b576100d2565b806309400707146100d757806310d3eb041461012957806314e956f514610155575b600080fd5b3480156100e357600080fd5b50610117600480360360208110156100fa57600080fd5b503573ffffffffffffffffffffffffffffffffffffffff166102e5565b60408051918252519081900360200190f35b34801561013557600080fd5b506101536004803603602081101561014c57600080fd5b5035610373565b005b34801561016157600080fd5b506101176004803603602081101561017857600080fd5b5035610423565b34801561018b57600080fd5b506101946104f1565b6040805173ffffffffffffffffffffffffffffffffffffffff9092168252519081900360200190f35b3480156101c957600080fd5b50610153600480360360608110156101e057600080fd5b5073ffffffffffffffffffffffffffffffffffffffff8135169060208101359060400135151561050e565b34801561021757600080fd5b5061024b6004803603602081101561022e57600080fd5b503573ffffffffffffffffffffffffffffffffffffffff166105a0565b604080519115158252519081900360200190f35b34801561026b57600080fd5b506101176105a6565b34801561028057600080fd5b5061024b6105ac565b34801561029557600080fd5b5061024b6105cd565b3480156102aa57600080fd5b506101176105d6565b3480156102bf57600080fd5b506101536105e2565b61024b6106b3565b3480156102dc57600080fd5b50610153610aa0565b600073ffffffffffffffffffffffffffffffffffffffff8216301461036b57604080517f08c379a000000000000000000000000000000000000000000000000000000000815260206004820152601e60248201527f47617567652063616e206f6e6c79206d696e7420666f7220697473656c660000604482015290519081900360640190fd5b505060045490565b3373ffffffffffffffffffffffffffffffffffffffff7f0000000000000000000000000000000000000000000000000000000000000000161461041757604080517f08c379a000000000000000000000000000000000000000000000000000000000815260206004820152601260248201527f53454e4445525f4e4f545f414c4c4f5745440000000000000000000000000000604482015290519081900360640190fd5b61042081610b6e565b50565b60006104eb7f000000000000000000000000000000000000000000000000000000000000000073ffffffffffffffffffffffffffffffffffffffff1663d3078c9430856040518363ffffffff1660e01b8152600401808373ffffffffffffffffffffffffffffffffffffffff1681526020018281526020019250505060206040518083038186803b1580156104b757600080fd5b505afa1580156104cb573d6000803e3d6000fd5b505050506040513d60208110156104e157600080fd5b5051600654610c0a565b92915050565b60075473ffffffffffffffffffffffffffffffffffffffff165b90565b61051782610c16565b600780547fffffffffffffffffffffffff00000000000000000000000000000000000000001673ffffffffffffffffffffffffffffffffffffffff94909416939093177fffffffffffffffffffffff00ffffffffffffffffffffffffffffffffffffffff1674010000000000000000000000000000000000000000911515919091021790915550565b50600190565b60065490565b60075474010000000000000000000000000000000000000000900460ff1690565b60055460ff1690565b670de0b6b3a764000081565b3373ffffffffffffffffffffffffffffffffffffffff7f0000000000000000000000000000000000000000000000000000000000000000161461068657604080517f08c379a000000000000000000000000000000000000000000000000000000000815260206004820152601260248201527f53454e4445525f4e4f545f414c4c4f5745440000000000000000000000000000604482015290519081900360640190fd5b600580547fffffffffffffffffffffffffffffffffffffffffffffffffffffffffffffff00166001179055565b60006106bd610e28565b3373ffffffffffffffffffffffffffffffffffffffff7f0000000000000000000000000000000000000000000000000000000000000000161461076157604080517f08c379a000000000000000000000000000000000000000000000000000000000815260206004820152601260248201527f53454e4445525f4e4f545f414c4c4f5745440000000000000000000000000000604482015290519081900360640190fd5b600254600061076e610e41565b905080821015610a9257604080517f615e5237000000000000000000000000000000000000000000000000000000008152306004820152905173ffffffffffffffffffffffffffffffffffffffff7f0000000000000000000000000000000000000000000000000000000000000000169163615e523791602480830192600092919082900301818387803b15801561080557600080fd5b505af1158015610819573d6000803e3d6000fd5b5050600180546003549590910194909250600091507f000000000000000000000000000000000000000000000000000000000000000001845b8560ff018110156109a5578481111561086a576109a5565b62093a80810260008061087c83610423565b905082851015801561089257508262093a800185105b1561094b57828503670de0b6b3a764000082890282020492507f00000000000000000000000000000000000000000000000000000000000000007f00000000000000000000000000000000000000000000000000000000000000008902816108f657fe5b04975062093a80819003670de0b6b3a7640000838a02820260018b905560038990557f000000000000000000000000000000000000000000000000000000000000000090980197049390930192506109609050565b670de0b6b3a764000062093a80828902020491505b60408051838152905184917f21d81d5d656869e8ce3ba8d65526a2f0dbbcd3d36f5f9999eb7c84360e45eced919081900360200190a250939093019250600101610852565b506002849055600480548301905581158015906109c5575060055460ff16155b15610a8e57604080517f6a627842000000000000000000000000000000000000000000000000000000008152306004820152905173ffffffffffffffffffffffffffffffffffffffff7f00000000000000000000000000000000000000000000000000000000000000001691636a6278429160248083019260209291908290030181600087803b158015610a5857600080fd5b505af1158015610a6c573d6000803e3d6000fd5b505050506040513d6020811015610a8257600080fd5b50610a8e905082610e6c565b5050505b60019250505061050b610fb5565b3373ffffffffffffffffffffffffffffffffffffffff7f00000000000000000000000000000000000000000000000000000000000000001614610b4457604080517f08c379a000000000000000000000000000000000000000000000000000000000815260206004820152601260248201527f53454e4445525f4e4f545f414c4c4f5745440000000000000000000000000000604482015290519081900360640190fd5b600580547fffffffffffffffffffffffffffffffffffffffffffffffffffffffffffffff00169055565b670de0b6b3a7640000811115610bcf576040517f08c379a00000000000000000000000000000000000000000000000000000000081526004018080602001828103825260348152602001806113ef6034913960400191505060405180910390fd5b60068190556040805182815290517f13e45870490f54cea50d245930d12102c72b502641ef6850d0b15a8c92decfb29181900360200190a150565b80820390821102900390565b60025415610c8557604080517f08c379a000000000000000000000000000000000000000000000000000000000815260206004820152601360248201527f416c726561647920696e697469616c697a656400000000000000000000000000604482015290519081900360640190fd5b60007f000000000000000000000000000000000000000000000000000000000000000073ffffffffffffffffffffffffffffffffffffffff16632c4e722e6040518163ffffffff1660e01b815260040160206040518083038186803b158015610ced57600080fd5b505afa158015610d01573d6000803e3d6000fd5b505050506040513d6020811015610d1757600080fd5b5051905080610d71576040517f08c379a00000000000000000000000000000000000000000000000000000000081526004018080602001828103825260248152602001806114236024913960400191505060405180910390fd5b6001819055610d7e610e41565b6002819055507f000000000000000000000000000000000000000000000000000000000000000073ffffffffffffffffffffffffffffffffffffffff1663a228bced6040518163ffffffff1660e01b8152600401602060405180830381600087803b158015610dec57600080fd5b505af1158015610e00573d6000803e3d6000fd5b505050506040513d6020811015610e1657600080fd5b5051600355610e2482610b6e565b5050565b610e3a60026000541415610190610fbc565b6002600055565b7fffffffffffffffffffffffffffffffffffffffffffffffffffffffffffffffff62093a8042040190565b6000610e766104f1565b9050610e806105ac565b15610f7457610ec673ffffffffffffffffffffffffffffffffffffffff7f0000000000000000000000000000000000000000000000000000000000000000168284610fca565b8073ffffffffffffffffffffffffffffffffffffffff1663338b5dea7f0000000000000000000000000000000000000000000000000000000000000000846040518363ffffffff1660e01b8152600401808373ffffffffffffffffffffffffffffffffffffffff16815260200182815260200192505050600060405180830381600087803b158015610f5757600080fd5b505af1158015610f6b573d6000803e3d6000fd5b50505050610e24565b610e2473ffffffffffffffffffffffffffffffffffffffff7f00000000000000000000000000000000000000000000000000000000000000001682846111a0565b6001600055565b81610e2457610e248161122d565b80158015906110795750604080517fdd62ed3e00000000000000000000000000000000000000000000000000000000815230600482015273ffffffffffffffffffffffffffffffffffffffff848116602483015291519185169163dd62ed3e91604480820192602092909190829003018186803b15801561104a57600080fd5b505afa15801561105e573d6000803e3d6000fd5b505050506040513d602081101561107457600080fd5b505115155b1561110e576040805173ffffffffffffffffffffffffffffffffffffffff8416602482015260006044808301919091528251808303909101815260649091019091526020810180517bffffffffffffffffffffffffffffffffffffffffffffffffffffffff167f095ea7b30000000000000000000000000000000000000000000000000000000017905261110e908490611257565b6040805173ffffffffffffffffffffffffffffffffffffffff8416602482015260448082018490528251808303909101815260649091019091526020810180517bffffffffffffffffffffffffffffffffffffffffffffffffffffffff167f095ea7b30000000000000000000000000000000000000000000000000000000017905261119b908490611257565b505050565b6040805173ffffffffffffffffffffffffffffffffffffffff8416602482015260448082018490528251808303909101815260649091019091526020810180517bffffffffffffffffffffffffffffffffffffffffffffffffffffffff167fa9059cbb0000000000000000000000000000000000000000000000000000000017905261119b908490611257565b610420817f42414c0000000000000000000000000000000000000000000000000000000000611373565b600060608373ffffffffffffffffffffffffffffffffffffffff16836040518082805190602001908083835b602083106112c057805182527fffffffffffffffffffffffffffffffffffffffffffffffffffffffffffffffe09092019160209182019101611283565b6001836020036101000a0380198251168184511680821785525050505050509050019150506000604051808303816000865af19150503d8060008114611322576040519150601f19603f3d011682016040523d82523d6000602084013e611327565b606091505b5091509150600082141561133f573d6000803e3d6000fd5b61136d815160001480611365575081806020019051602081101561136257600080fd5b50515b6101a2610fbc565b50505050565b7f08c379a000000000000000000000000000000000000000000000000000000000600090815260206004526007602452600a808404818106603090810160081b958390069590950190829004918206850160101b01602363ffffff0060e086901c160160181b0190930160c81b60445260e882901c90606490fdfe52656c61746976652077656967687420636170206578636565647320616c6c6f776564206162736f6c757465206d6178696d756d42616c616e636572546f6b656e41646d696e206e6f742079657420616374697661746564a26469706673582212205c451dca3cf593874074cd0a46e9dc64f7c859c3788a491d726763de0fe56d1164736f6c63430007010033",
  "linkReferences": {},
  "deployedLinkReferences": {}
}