{
  "_format": "hh-sol-artifact-1",
  "contractName": "YearnLinearPoolRebalancer",
  "sourceName": "contracts/yearn-linear-pool/YearnLinearPoolRebalancer.sol",
  "abi": [
    {
      "inputs": [
        {
          "internalType": "contract IVault",
          "name": "vault",
          "type": "address"
        },
        {
          "internalType": "contract IBalancerQueries",
          "name": "queries",
          "type": "address"
        }
      ],
      "stateMutability": "nonpayable",
      "type": "constructor"
    },
    {
      "inputs": [],
      "name": "getPool",
      "outputs": [
        {
          "internalType": "contract ILinearPool",
          "name": "",
          "type": "address"
        }
      ],
      "stateMutability": "view",
      "type": "function"
    },
    {
      "inputs": [
        {
          "internalType": "address",
          "name": "recipient",
          "type": "address"
        }
      ],
      "name": "rebalance",
      "outputs": [
        {
          "internalType": "uint256",
          "name": "",
          "type": "uint256"
        }
      ],
      "stateMutability": "nonpayable",
      "type": "function"
    },
    {
      "inputs": [
        {
          "internalType": "address",
          "name": "recipient",
          "type": "address"
        },
        {
          "internalType": "uint256",
          "name": "extraMain",
          "type": "uint256"
        }
      ],
      "name": "rebalanceWithExtraMain",
      "outputs": [
        {
          "internalType": "uint256",
          "name": "",
          "type": "uint256"
        }
      ],
      "stateMutability": "nonpayable",
      "type": "function"
    }
  ],
  "bytecode": "0x6101606040523480156200001257600080fd5b50604051620020ff380380620020ff833981016040819052620000359162000462565b336001600160a01b0316635ed312826040518163ffffffff1660e01b815260040160206040518083038186803b1580156200006f57600080fd5b505afa15801562000084573d6000803e3d6000fd5b505050506040513d601f19601f82011682018060405250810190620000aa919062000378565b8282826001600160a01b0316631dd746ea6040518163ffffffff1660e01b815260040160006040518083038186803b158015620000e657600080fd5b505afa158015620000fb573d6000803e3d6000fd5b505050506040513d6000823e601f3d908101601f191682016040526200012591908101906200039e565b836001600160a01b0316634d64cd746040518163ffffffff1660e01b815260040160206040518083038186803b1580156200015f57600080fd5b505afa15801562000174573d6000803e3d6000fd5b505050506040513d601f19601f820116820180604052508101906200019a919062000449565b81518110620001a557fe5b602090810291909101810151610100526001600160601b0319606085901b166080526040805163038fff2d60e41b815290516001600160a01b038616926338fff2d09260048082019391829003018186803b1580156200020457600080fd5b505afa15801562000219573d6000803e3d6000fd5b505050506040513d601f19601f820116820180604052508101906200023f919062000449565b60a08181525050826001600160a01b0316634de046d56040518163ffffffff1660e01b815260040160206040518083038186803b1580156200028057600080fd5b505afa15801562000295573d6000803e3d6000fd5b505050506040513d601f19601f82011682018060405250810190620002bb919062000378565b6001600160a01b031660c0816001600160a01b031660601b81525050826001600160a01b031663f174e2416040518163ffffffff1660e01b815260040160206040518083038186803b1580156200031157600080fd5b505afa15801562000326573d6000803e3d6000fd5b505050506040513d601f19601f820116820180604052508101906200034c919062000378565b6001600160601b0319606091821b811660e05292811b8316610120521b166101405250620004e0915050565b6000602082840312156200038a578081fd5b81516200039781620004c7565b9392505050565b60006020808385031215620003b1578182fd5b82516001600160401b0380821115620003c8578384fd5b818501915085601f830112620003dc578384fd5b815181811115620003eb578485fd5b8381029150620003fd848301620004a0565b8181528481019084860184860187018a101562000418578788fd5b8795505b838610156200043c5780518352600195909501949186019186016200041c565b5098975050505050505050565b6000602082840312156200045b578081fd5b5051919050565b6000806040838503121562000475578081fd5b82516200048281620004c7565b60208401519092506200049581620004c7565b809150509250929050565b6040518181016001600160401b0381118282101715620004bf57600080fd5b604052919050565b6001600160a01b0381168114620004dd57600080fd5b50565b60805160601c60a05160c05160601c60e05160601c610100516101205160601c6101405160601c611b3c620005c36000398061050b52806108235250806101355280610c165280610f305280610f925250806103c152508061046e528061059b528061074a52806108ee5280610cc05280610ff2528061105c52806110be52508060ea5280610192528061043252806105ce528061063352806106d4528061078652806108b3528061103a5250806101715280610404528061071c5280610a7f5280610b5e5280610db85280610e975250806099528061030b5250611b3c6000f3fe608060405234801561001057600080fd5b50600436106100415760003560e01c8063026b1d5f1461004657806321c2819114610064578063df633d8d14610084575b600080fd5b61004e610097565b60405161005b919061186b565b60405180910390f35b610077610072366004611729565b6100bb565b60405161005b9190611aa5565b610077610092366004611745565b6100ce565b7f000000000000000000000000000000000000000000000000000000000000000090565b60006100c682610124565b90505b919050565b600061011273ffffffffffffffffffffffffffffffffffffffff7f00000000000000000000000000000000000000000000000000000000000000001633308561025b565b61011b83610124565b90505b92915050565b60008061012f610304565b905060007f000000000000000000000000000000000000000000000000000000000000000073ffffffffffffffffffffffffffffffffffffffff1663b05f8e487f00000000000000000000000000000000000000000000000000000000000000007f00000000000000000000000000000000000000000000000000000000000000006040518363ffffffff1660e01b81526004016101ce9291906119b7565b60806040518083038186803b1580156101e657600080fd5b505afa1580156101fa573d6000803e3d6000fd5b505050506040513d601f19601f8201168201806040525081019061021e91906117cb565b50505090508181101561024057610237818303856103ed565b925050506100c9565b818111156102545761023782820385610705565b5050919050565b6102fe846323b872dd60e01b85858560405160240161027c939291906118b3565b604080517fffffffffffffffffffffffffffffffffffffffffffffffffffffffffffffffe08184030181529190526020810180517bffffffffffffffffffffffffffffffffffffffffffffffffffffffff167fffffffff0000000000000000000000000000000000000000000000000000000090931692909217909152610913565b50505050565b60008060007f000000000000000000000000000000000000000000000000000000000000000073ffffffffffffffffffffffffffffffffffffffff166363fe3b566040518163ffffffff1660e01b8152600401604080518083038186803b15801561036e57600080fd5b505afa158015610382573d6000803e3d6000fd5b505050506040513d601f19601f820116820180604052508101906103a691906117a8565b9150915060006002828401816103b857fe5b0490506103e5817f00000000000000000000000000000000000000000000000000000000000000006109c0565b935050505090565b60006103f7611676565b6040805160c081019091527f0000000000000000000000000000000000000000000000000000000000000000815260208101600081526020017f000000000000000000000000000000000000000000000000000000000000000073ffffffffffffffffffffffffffffffffffffffff1681526020017f000000000000000000000000000000000000000000000000000000000000000073ffffffffffffffffffffffffffffffffffffffff1681526020018581526020016040518060200160405280600081525081525090506104cb6116d9565b6040517fe969f6b300000000000000000000000000000000000000000000000000000000815260009073ffffffffffffffffffffffffffffffffffffffff7f0000000000000000000000000000000000000000000000000000000000000000169063e969f6b39061054290869086906004016119db565b602060405180830381600087803b15801561055c57600080fd5b505af1158015610570573d6000803e3d6000fd5b505050506040513d601f19601f820116820180604052508101906105949190611790565b90506105c07f000000000000000000000000000000000000000000000000000000000000000082610a13565b6105c981610c84565b6105f37f000000000000000000000000000000000000000000000000000000000000000087610d4c565b6040517f70a0823100000000000000000000000000000000000000000000000000000000815260009073ffffffffffffffffffffffffffffffffffffffff7f000000000000000000000000000000000000000000000000000000000000000016906370a082319061066890309060040161186b565b60206040518083038186803b15801561068057600080fd5b505afa158015610694573d6000803e3d6000fd5b505050506040513d601f19601f820116820180604052508101906106b89190611790565b90506106fb73ffffffffffffffffffffffffffffffffffffffff7f0000000000000000000000000000000000000000000000000000000000000000168783610fc7565b9695505050505050565b600061070f611676565b6040805160c081019091527f0000000000000000000000000000000000000000000000000000000000000000815260208101600181526020017f000000000000000000000000000000000000000000000000000000000000000073ffffffffffffffffffffffffffffffffffffffff1681526020017f000000000000000000000000000000000000000000000000000000000000000073ffffffffffffffffffffffffffffffffffffffff1681526020018581526020016040518060200160405280600081525081525090506107e36116d9565b6040517fe969f6b300000000000000000000000000000000000000000000000000000000815260009073ffffffffffffffffffffffffffffffffffffffff7f0000000000000000000000000000000000000000000000000000000000000000169063e969f6b39061085a90869086906004016119db565b602060405180830381600087803b15801561087457600080fd5b505af1158015610888573d6000803e3d6000fd5b505050506040513d601f19601f820116820180604052508101906108ac9190611790565b90506108d87f000000000000000000000000000000000000000000000000000000000000000087610a13565b6108e96108e482610feb565b611020565b6105f37f000000000000000000000000000000000000000000000000000000000000000082610d4c565b600060608373ffffffffffffffffffffffffffffffffffffffff168360405161093c919061184f565b6000604051808303816000865af19150503d8060008114610979576040519150601f19603f3d011682016040523d82523d6000602084013e61097e565b606091505b50915091506000821415610996573d6000803e3d6000fd5b6102fe8151600014806109b85750818060200190518101906109b89190611770565b6101a26110f5565b60006109cf82151560046110f5565b670de0b6b3a76400008302610a018415806109fa5750670de0b6b3a76400008583816109f757fe5b04145b60056110f5565b828181610a0a57fe5b04949350505050565b6040805160028082526060828101909352816020015b610a31611700565b815260200190600190039081610a29579050509050600081600081518110610a5557fe5b6020026020010151600001906002811115610a6c57fe5b90816002811115610a7957fe5b815250507f000000000000000000000000000000000000000000000000000000000000000081600081518110610aab57fe5b602002602001015160200181815250508181600081518110610ac957fe5b602002602001015160600181815250508281600081518110610ae757fe5b60200260200101516040019073ffffffffffffffffffffffffffffffffffffffff16908173ffffffffffffffffffffffffffffffffffffffff1681525050600281600181518110610b3457fe5b6020026020010151600001906002811115610b4b57fe5b90816002811115610b5857fe5b815250507f000000000000000000000000000000000000000000000000000000000000000081600181518110610b8a57fe5b60200260200101516020018181525050600081600181518110610ba957fe5b602002602001015160600181815250508281600181518110610bc757fe5b602090810291909101015173ffffffffffffffffffffffffffffffffffffffff918216604091820152517fe6c460920000000000000000000000000000000000000000000000000000000081527f00000000000000000000000000000000000000000000000000000000000000009091169063e6c4609290610c4d908490600401611933565b600060405180830381600087803b158015610c6757600080fd5b505af1158015610c7b573d6000803e3d6000fd5b50505050505050565b6040517ef714ce00000000000000000000000000000000000000000000000000000000815273ffffffffffffffffffffffffffffffffffffffff7f0000000000000000000000000000000000000000000000000000000000000000169062f714ce90610cf690849030906004016119b7565b602060405180830381600087803b158015610d1057600080fd5b505af1158015610d24573d6000803e3d6000fd5b505050506040513d601f19601f82011682018060405250810190610d489190611790565b5050565b6040805160028082526060828101909352816020015b610d6a611700565b815260200190600190039081610d62579050509050600281600081518110610d8e57fe5b6020026020010151600001906002811115610da557fe5b90816002811115610db257fe5b815250507f000000000000000000000000000000000000000000000000000000000000000081600081518110610de457fe5b602002602001015160200181815250508181600081518110610e0257fe5b602002602001015160600181815250508281600081518110610e2057fe5b60200260200101516040019073ffffffffffffffffffffffffffffffffffffffff16908173ffffffffffffffffffffffffffffffffffffffff1681525050600181600181518110610e6d57fe5b6020026020010151600001906002811115610e8457fe5b90816002811115610e9157fe5b815250507f000000000000000000000000000000000000000000000000000000000000000081600181518110610ec357fe5b602002602001015160200181815250508181600181518110610ee157fe5b602002602001015160600181815250508281600181518110610eff57fe5b602090810291909101015173ffffffffffffffffffffffffffffffffffffffff918216604090910152610f559084167f000000000000000000000000000000000000000000000000000000000000000084611103565b6040517fe6c4609200000000000000000000000000000000000000000000000000000000815273ffffffffffffffffffffffffffffffffffffffff7f0000000000000000000000000000000000000000000000000000000000000000169063e6c4609290610c4d908490600401611933565b610fe68363a9059cbb60e01b848460405160240161027c92919061190d565b505050565b60006110177f0000000000000000000000000000000000000000000000000000000000000000836111f8565b60010192915050565b61108173ffffffffffffffffffffffffffffffffffffffff7f0000000000000000000000000000000000000000000000000000000000000000167f000000000000000000000000000000000000000000000000000000000000000083611103565b6040517f6e553f6500000000000000000000000000000000000000000000000000000000815273ffffffffffffffffffffffffffffffffffffffff7f00000000000000000000000000000000000000000000000000000000000000001690636e553f6590610cf690849030906004016119b7565b81610d4857610d488161123e565b80158015906111b457506040517fdd62ed3e00000000000000000000000000000000000000000000000000000000815273ffffffffffffffffffffffffffffffffffffffff84169063dd62ed3e90611161903090869060040161188c565b60206040518083038186803b15801561117957600080fd5b505afa15801561118d573d6000803e3d6000fd5b505050506040513d601f19601f820116820180604052508101906111b19190611790565b15155b156111d9576111d98363095ea7b360e01b84600060405160240161027c9291906118e4565b610fe68363095ea7b360e01b848460405160240161027c92919061190d565b6000806112048461126b565b905080611214578291505061011e565b600061121f8561134b565b90506112358261122f86846113bf565b906113e3565b9250505061011e565b611268817f42414c0000000000000000000000000000000000000000000000000000000000611403565b50565b60008173ffffffffffffffffffffffffffffffffffffffff166318160ddd6040518163ffffffff1660e01b815260040160206040518083038186803b1580156112b357600080fd5b505afa925050508015611301575060408051601f3d9081017fffffffffffffffffffffffffffffffffffffffffffffffffffffffffffffffe01682019092526112fe91810190611790565b60015b611344573d80801561132f576040519150601f19603f3d011682016040523d82523d6000602084013e611334565b606091505b5061133e8161147e565b506100c9565b90506100c9565b60008061135783611505565b905060006113648461154d565b9050600061137b61137486611595565b42906115dd565b9050600061139261138b876115f3565b83906113bf565b905060006113a8846113a38461163b565b61164d565b90506113b485826115dd565b979650505050505050565b600082820261011b8415806113dc5750838583816113d957fe5b04145b60036110f5565b60006113f282151560046110f5565b8183816113fb57fe5b049392505050565b7f08c379a000000000000000000000000000000000000000000000000000000000600090815260206004526007602452600a808404818106603090810160081b958390069590950190829004918206850160101b01602363ffffff0060e086901c160160181b0190930160c81b60445260e882901c90606490fd5b805160208201517fffffffff00000000000000000000000000000000000000000000000000000000167f43adbafb0000000000000000000000000000000000000000000000000000000081147ffa61cc12000000000000000000000000000000000000000000000000000000008214176114f9578160208401fd5b50610d4861016561123e565b60008173ffffffffffffffffffffffffffffffffffffffff166301e1d1146040518163ffffffff1660e01b815260040160206040518083038186803b1580156112b357600080fd5b60008173ffffffffffffffffffffffffffffffffffffffff166344b813966040518163ffffffff1660e01b815260040160206040518083038186803b1580156112b357600080fd5b60008173ffffffffffffffffffffffffffffffffffffffff1663c3535b526040518163ffffffff1660e01b815260040160206040518083038186803b1580156112b357600080fd5b60006115ed8383111560016110f5565b50900390565b60008173ffffffffffffffffffffffffffffffffffffffff1663422327166040518163ffffffff1660e01b815260040160206040518083038186803b1580156112b357600080fd5b670de0b6b3a764000081810391100290565b60008282026116678415806113dc5750838583816113d957fe5b670de0b6b3a764000081610a0a565b6040805160c08101909152600080825260208201908152602001600073ffffffffffffffffffffffffffffffffffffffff168152602001600073ffffffffffffffffffffffffffffffffffffffff16815260200160008152602001606081525090565b60408051608081018252600080825260208201819052918101829052606081019190915290565b604080516080810190915280600081526000602082018190526040820181905260609091015290565b60006020828403121561173a578081fd5b813561011b81611ae4565b60008060408385031215611757578081fd5b823561176281611ae4565b946020939093013593505050565b600060208284031215611781578081fd5b8151801515811461011b578182fd5b6000602082840312156117a1578081fd5b5051919050565b600080604083850312156117ba578182fd5b505080516020909101519092909150565b600080600080608085870312156117e0578182fd5b845193506020850151925060408501519150606085015161180081611ae4565b939692955090935050565b73ffffffffffffffffffffffffffffffffffffffff808251168352602082015115156020840152806040830151166040840152506060810151151560608301525050565b60008251611861818460208701611aae565b9190910192915050565b73ffffffffffffffffffffffffffffffffffffffff91909116815260200190565b73ffffffffffffffffffffffffffffffffffffffff92831681529116602082015260400190565b73ffffffffffffffffffffffffffffffffffffffff9384168152919092166020820152604081019190915260600190565b73ffffffffffffffffffffffffffffffffffffffff92909216825260ff16602082015260400190565b73ffffffffffffffffffffffffffffffffffffffff929092168252602082015260400190565b602080825282518282018190526000919060409081850190868401855b828110156119aa57815180516003811061196657fe5b855280870151878601528581015173ffffffffffffffffffffffffffffffffffffffff16868601526060908101519085015260809093019290850190600101611950565b5091979650505050505050565b91825273ffffffffffffffffffffffffffffffffffffffff16602082015260400190565b600060a08252835160a083015260208401516119f681611ada565b8060c084015250604084015173ffffffffffffffffffffffffffffffffffffffff80821660e0850152806060870151166101008501525050608084015161012083015260a084015160c0610140840152805180610160850152610180611a628282870160208601611aae565b807fffffffffffffffffffffffffffffffffffffffffffffffffffffffffffffffe0601f8401168601019350505050611a9e602083018461180b565b9392505050565b90815260200190565b60005b83811015611ac9578181015183820152602001611ab1565b838111156102fe5750506000910152565b6002811061126857fe5b73ffffffffffffffffffffffffffffffffffffffff8116811461126857600080fdfea26469706673582212208beb7817193b118865b9e09fbe3db18b401c8700b7d556fbd4b00fcb8b5d27ea64736f6c63430007010033",
  "linkReferences": {},
  "deployedLinkReferences": {}
}