{"contracts/20230109-gauge-adder-migration-v2-to-v3/GaugeAdderMigrationCoordinator.sol":{"GaugeAdderMigrationCoordinator":{"abi":[{"inputs":[{"internalType":"contract IAuthorizerAdaptor","name":"authorizerAdaptor","type":"address"},{"internalType":"contract IGaugeAdder","name":"_newGaugeAdder","type":"address"},{"internalType":"contract IGaugeAdder","name":"_oldGaugeAdder","type":"address"},{"internalType":"contract ILiquidityGaugeFactory","name":"_ethereumGaugeFactory","type":"address"},{"internalType":"contract ILiquidityGaugeFactory","name":"_polygonRootGaugeFactory","type":"address"},{"internalType":"contract ILiquidityGaugeFactory","name":"_arbitrumRootGaugeFactory","type":"address"},{"internalType":"contract ILiquidityGaugeFactory","name":"_optimismRootGaugeFactory","type":"address"},{"internalType":"address","name":"_liquidityMiningCommitteeMultisig","type":"address"},{"internalType":"address","name":"_gaugeCheckpointingMultisig","type":"address"}],"stateMutability":"nonpayable","type":"constructor"},{"inputs":[],"name":"arbitrumRootGaugeFactory","outputs":[{"internalType":"contract ILiquidityGaugeFactory","name":"","type":"address"}],"stateMutability":"view","type":"function"},{"inputs":[],"name":"ethereumGaugeFactory","outputs":[{"internalType":"contract ILiquidityGaugeFactory","name":"","type":"address"}],"stateMutability":"view","type":"function"},{"inputs":[],"name":"gaugeCheckpointingMultisig","outputs":[{"internalType":"address","name":"","type":"address"}],"stateMutability":"view","type":"function"},{"inputs":[],"name":"gaugeController","outputs":[{"internalType":"contract IGaugeController","name":"","type":"address"}],"stateMutability":"view","type":"function"},{"inputs":[{"internalType":"bytes4","name":"selector","type":"bytes4"}],"name":"getActionId","outputs":[{"internalType":"bytes32","name":"","type":"bytes32"}],"stateMutability":"view","type":"function"},{"inputs":[],"name":"getAuthorizer","outputs":[{"internalType":"contract IAuthorizer","name":"","type":"address"}],"stateMutability":"view","type":"function"},{"inputs":[],"name":"getAuthorizerAdaptor","outputs":[{"internalType":"contract IAuthorizerAdaptor","name":"","type":"address"}],"stateMutability":"view","type":"function"},{"inputs":[],"name":"getCurrentStage","outputs":[{"internalType":"uint256","name":"","type":"uint256"}],"stateMutability":"view","type":"function"},{"inputs":[{"internalType":"uint256","name":"stage","type":"uint256"}],"name":"getStageActivationTime","outputs":[{"internalType":"uint256","name":"","type":"uint256"}],"stateMutability":"view","type":"function"},{"inputs":[],"name":"getStagesLength","outputs":[{"internalType":"uint256","name":"","type":"uint256"}],"stateMutability":"view","type":"function"},{"inputs":[],"name":"getVault","outputs":[{"internalType":"contract IVault","name":"","type":"address"}],"stateMutability":"view","type":"function"},{"inputs":[],"name":"isComplete","outputs":[{"internalType":"bool","name":"","type":"bool"}],"stateMutability":"view","type":"function"},{"inputs":[],"name":"liquidityMiningCommitteeMultisig","outputs":[{"internalType":"address","name":"","type":"address"}],"stateMutability":"view","type":"function"},{"inputs":[],"name":"newGaugeAdder","outputs":[{"internalType":"contract IGaugeAdder","name":"","type":"address"}],"stateMutability":"view","type":"function"},{"inputs":[],"name":"oldGaugeAdder","outputs":[{"internalType":"contract IGaugeAdder","name":"","type":"address"}],"stateMutability":"view","type":"function"},{"inputs":[],"name":"optimismRootGaugeFactory","outputs":[{"internalType":"contract ILiquidityGaugeFactory","name":"","type":"address"}],"stateMutability":"view","type":"function"},{"inputs":[],"name":"performNextStage","outputs":[],"stateMutability":"nonpayable","type":"function"},{"inputs":[],"name":"polygonRootGaugeFactory","outputs":[{"internalType":"contract ILiquidityGaugeFactory","name":"","type":"address"}],"stateMutability":"view","type":"function"},{"inputs":[],"name":"registerStages","outputs":[],"stateMutability":"nonpayable","type":"function"}],"evm":{"bytecode":{"linkReferences":{},"object":"6102006040523480156200001257600080fd5b5060405162001bce38038062001bce83398181016040526101208110156200003957600080fd5b5080516020808301516040808501516060860151608087015160a088015160c089015160e08a0151610100909a015186516311b2515f60e31b81529651999a97999598949793969295919490928b926001600160a01b03841692638d928af89260048082019391829003018186803b158015620000b557600080fd5b505afa158015620000ca573d6000803e3d6000fd5b505050506040513d6020811015620000e157600080fd5b5051306080526001600160601b0319606091821b811660a0526001600090815592821b811660c0528a821b811660e05289821b81166101005288821b81166101405287821b81166101605286821b81166101805285821b81166101a05284821b81166101c0529083901b166101e05260408051632c6f4d6f60e11b815290516001600160a01b038b16916358de9ade916004808301926020929190829003018186803b1580156200019157600080fd5b505afa158015620001a6573d6000803e3d6000fd5b505050506040513d6020811015620001bd57600080fd5b505160408051632c6f4d6f60e11b815290519192506001600160a01b038a16916358de9ade91600480820192602092909190829003018186803b1580156200020457600080fd5b505afa15801562000219573d6000803e3d6000fd5b505050506040513d60208110156200023057600080fd5b50516001600160a01b038281169116146200027d5760405162461bcd60e51b815260040180806020018281038252602881526020018062001ba66028913960400191505060405180910390fd5b6001600160601b031960609190911b166101205250505050505050505060805160a05160601c60c05160601c60e05160601c6101005160601c6101205160601c6101405160601c6101605160601c6101805160601c6101a05160601c6101c05160601c6101e05160601c611806620003a0600039806103c45250806103e8528061120b5280611298528061134152806113ea5250806105b15280610d2d52508061058d5280610c5852508061069d5280610b835250806104305280610aae5250806104e952508061040c52806116d852508061028d528061096e5280610a725280610b475280610c1c5280610cf15280610eb85280610f985280611076528061115452806115695250806106735250806104c552508061045852506118066000f3fe608060405234801561001057600080fd5b50600436106101515760003560e01c806399eecb3b116100cd578063d6076a6c11610081578063e758d36b11610066578063e758d36b14610273578063eedbe31d1461027b578063fd74e4351461028357610151565b8063d6076a6c14610263578063da28cef71461026b57610151565b8063adcce535116100b2578063adcce53514610237578063b07c0cdc1461023f578063b2fa1c9e1461024757610151565b806399eecb3b14610227578063aaabadc51461022f57610151565b8063483bc2331161012457806363be9df91161010957806363be9df9146101d8578063851c1bb3146101e05780638d928af81461021f57610151565b8063483bc233146101c857806359ff345c146101d057610151565b80630f42a2c1146101565780631f24cfc7146101875780632b11617214610191578063321abfae146101c0575b600080fd5b61015e61028b565b6040805173ffffffffffffffffffffffffffffffffffffffff9092168252519081900360200190f35b61018f6102af565b005b6101ae600480360360208110156101a757600080fd5b50356103a1565b60408051918252519081900360200190f35b61015e6103c2565b61015e6103e6565b61015e61040a565b61015e61042e565b6101ae600480360360208110156101f657600080fd5b50357fffffffff0000000000000000000000000000000000000000000000000000000016610452565b61015e6104c3565b61015e6104e7565b61015e61050b565b61015e61058b565b61015e6105af565b61024f6105d3565b604080519115158252519081900360200190f35b61018f6105fd565b6101ae61066b565b61015e610671565b6101ae610695565b61015e61069b565b7f000000000000000000000000000000000000000000000000000000000000000081565b6102b76106bf565b6102bf61066b565b6102cb576102cb6106d8565b6102d36105d3565b1561033f57604080517f08c379a000000000000000000000000000000000000000000000000000000000815260206004820152601460248201527f416c6c2073746167657320636f6d706c65746564000000000000000000000000604482015290519081900360640190fd5b61038f600161034c610695565b8154811061035657fe5b90600052602060002090600491828204019190066008029054906101000a900480156117a9021767ffffffffffffffff1663ffffffff16565b6103976106e3565b61039f61072e565b565b6000600282815481106103b057fe5b90600052602060002001549050919050565b7f000000000000000000000000000000000000000000000000000000000000000081565b7f000000000000000000000000000000000000000000000000000000000000000081565b7f000000000000000000000000000000000000000000000000000000000000000081565b7f000000000000000000000000000000000000000000000000000000000000000081565b604080517f00000000000000000000000000000000000000000000000000000000000000006020808301919091527fffffffff000000000000000000000000000000000000000000000000000000008416828401528251602481840301815260449092019092528051910120919050565b7f000000000000000000000000000000000000000000000000000000000000000090565b7f000000000000000000000000000000000000000000000000000000000000000081565b60006105156104c3565b73ffffffffffffffffffffffffffffffffffffffff1663aaabadc56040518163ffffffff1660e01b815260040160206040518083038186803b15801561055a57600080fd5b505afa15801561056e573d6000803e3d6000fd5b505050506040513d602081101561058457600080fd5b5051905090565b7f000000000000000000000000000000000000000000000000000000000000000081565b7f000000000000000000000000000000000000000000000000000000000000000081565b6000806105de610695565b90506000811180156105f757506105f361066b565b8110155b91505090565b6106056106bf565b61060d61066b565b15610663576040517f08c379a00000000000000000000000000000000000000000000000000000000081526004018080602001828103825260258152602001806117ac6025913960400191505060405180910390fd5b6103976106d8565b60015490565b7f000000000000000000000000000000000000000000000000000000000000000090565b60025490565b7f000000000000000000000000000000000000000000000000000000000000000081565b6106d160026000541415610190610735565b6002600055565b61039f610747610757565b60028054600181018255600091909152427f405787fa12a823e0f2b7631cc41b3ba8828b3321ca811111fa75cd3aa3bb5ace909101556107216105d3565b1561039f5761039f6107ba565b6001600055565b8161074357610743816108cb565b5050565b61074f6108f8565b61039f6115db565b6001805480820182556000919091527fb10e2d527612073b26eecdfd717e6a320cf44b4afac2b0732d9fcbe2b7fa0cf66004820401805460039092166008026101000a67ffffffffffffffff818102199093169390921691909102919091179055565b60006107c461050b565b90508073ffffffffffffffffffffffffffffffffffffffff166336568abe8273ffffffffffffffffffffffffffffffffffffffff1663a217fddf6040518163ffffffff1660e01b815260040160206040518083038186803b15801561082857600080fd5b505afa15801561083c573d6000803e3d6000fd5b505050506040513d602081101561085257600080fd5b5051604080517fffffffff0000000000000000000000000000000000000000000000000000000060e085901b168152600481019290925230602483015251604480830192600092919082900301818387803b1580156108b057600080fd5b505af11580156108c4573d6000803e3d6000fd5b5050505050565b6108f5817f42414c000000000000000000000000000000000000000000000000000000000061172e565b50565b600061090261050b565b604080517f851c1bb30000000000000000000000000000000000000000000000000000000081527f6440e973000000000000000000000000000000000000000000000000000000006004820152905191925060009173ffffffffffffffffffffffffffffffffffffffff7f0000000000000000000000000000000000000000000000000000000000000000169163851c1bb3916024808301926020929190829003018186803b1580156109b457600080fd5b505afa1580156109c8573d6000803e3d6000fd5b505050506040513d60208110156109de57600080fd5b5051604080517f2f2ff15d00000000000000000000000000000000000000000000000000000000815260048101839052306024820152905191925073ffffffffffffffffffffffffffffffffffffffff841691632f2ff15d9160448082019260009290919082900301818387803b158015610a5857600080fd5b505af1158015610a6c573d6000803e3d6000fd5b505050507f000000000000000000000000000000000000000000000000000000000000000073ffffffffffffffffffffffffffffffffffffffff16636440e9737f000000000000000000000000000000000000000000000000000000000000000060026040518363ffffffff1660e01b8152600401808373ffffffffffffffffffffffffffffffffffffffff168152602001826007811115610b0a57fe5b815260200192505050600060405180830381600087803b158015610b2d57600080fd5b505af1158015610b41573d6000803e3d6000fd5b505050507f000000000000000000000000000000000000000000000000000000000000000073ffffffffffffffffffffffffffffffffffffffff16636440e9737f000000000000000000000000000000000000000000000000000000000000000060036040518363ffffffff1660e01b8152600401808373ffffffffffffffffffffffffffffffffffffffff168152602001826007811115610bdf57fe5b815260200192505050600060405180830381600087803b158015610c0257600080fd5b505af1158015610c16573d6000803e3d6000fd5b505050507f000000000000000000000000000000000000000000000000000000000000000073ffffffffffffffffffffffffffffffffffffffff16636440e9737f000000000000000000000000000000000000000000000000000000000000000060046040518363ffffffff1660e01b8152600401808373ffffffffffffffffffffffffffffffffffffffff168152602001826007811115610cb457fe5b815260200192505050600060405180830381600087803b158015610cd757600080fd5b505af1158015610ceb573d6000803e3d6000fd5b505050507f000000000000000000000000000000000000000000000000000000000000000073ffffffffffffffffffffffffffffffffffffffff16636440e9737f000000000000000000000000000000000000000000000000000000000000000060056040518363ffffffff1660e01b8152600401808373ffffffffffffffffffffffffffffffffffffffff168152602001826007811115610d8957fe5b815260200192505050600060405180830381600087803b158015610dac57600080fd5b505af1158015610dc0573d6000803e3d6000fd5b5050604080517f36568abe00000000000000000000000000000000000000000000000000000000815260048101859052306024820152905173ffffffffffffffffffffffffffffffffffffffff861693506336568abe9250604480830192600092919082900301818387803b158015610e3857600080fd5b505af1158015610e4c573d6000803e3d6000fd5b5050604080517f851c1bb30000000000000000000000000000000000000000000000000000000081527f5e45a27300000000000000000000000000000000000000000000000000000000600482015290516000945073ffffffffffffffffffffffffffffffffffffffff7f000000000000000000000000000000000000000000000000000000000000000016935063851c1bb392506024808301926020929190829003018186803b158015610f0057600080fd5b505afa158015610f14573d6000803e3d6000fd5b505050506040513d6020811015610f2a57600080fd5b5051604080517f851c1bb30000000000000000000000000000000000000000000000000000000081527ff87fcfa2000000000000000000000000000000000000000000000000000000006004820152905191925060009173ffffffffffffffffffffffffffffffffffffffff7f0000000000000000000000000000000000000000000000000000000000000000169163851c1bb3916024808301926020929190829003018186803b158015610fde57600080fd5b505afa158015610ff2573d6000803e3d6000fd5b505050506040513d602081101561100857600080fd5b5051604080517f851c1bb30000000000000000000000000000000000000000000000000000000081527fbf2972d5000000000000000000000000000000000000000000000000000000006004820152905191925060009173ffffffffffffffffffffffffffffffffffffffff7f0000000000000000000000000000000000000000000000000000000000000000169163851c1bb3916024808301926020929190829003018186803b1580156110bc57600080fd5b505afa1580156110d0573d6000803e3d6000fd5b505050506040513d60208110156110e657600080fd5b5051604080517f851c1bb30000000000000000000000000000000000000000000000000000000081527f8171bad9000000000000000000000000000000000000000000000000000000006004820152905191925060009173ffffffffffffffffffffffffffffffffffffffff7f0000000000000000000000000000000000000000000000000000000000000000169163851c1bb3916024808301926020929190829003018186803b15801561119a57600080fd5b505afa1580156111ae573d6000803e3d6000fd5b505050506040513d60208110156111c457600080fd5b5051604080517f2f2ff15d0000000000000000000000000000000000000000000000000000000081526004810187905273ffffffffffffffffffffffffffffffffffffffff7f000000000000000000000000000000000000000000000000000000000000000081166024830152915192935090871691632f2ff15d9160448082019260009290919082900301818387803b15801561126157600080fd5b505af1158015611275573d6000803e3d6000fd5b505050508473ffffffffffffffffffffffffffffffffffffffff16632f2ff15d847f00000000000000000000000000000000000000000000000000000000000000006040518363ffffffff1660e01b8152600401808381526020018273ffffffffffffffffffffffffffffffffffffffff16815260200192505050600060405180830381600087803b15801561130a57600080fd5b505af115801561131e573d6000803e3d6000fd5b505050508473ffffffffffffffffffffffffffffffffffffffff16632f2ff15d837f00000000000000000000000000000000000000000000000000000000000000006040518363ffffffff1660e01b8152600401808381526020018273ffffffffffffffffffffffffffffffffffffffff16815260200192505050600060405180830381600087803b1580156113b357600080fd5b505af11580156113c7573d6000803e3d6000fd5b505050508473ffffffffffffffffffffffffffffffffffffffff16632f2ff15d827f00000000000000000000000000000000000000000000000000000000000000006040518363ffffffff1660e01b8152600401808381526020018273ffffffffffffffffffffffffffffffffffffffff16815260200192505050600060405180830381600087803b15801561145c57600080fd5b505af1158015611470573d6000803e3d6000fd5b50505050505050506000611482610671565b73ffffffffffffffffffffffffffffffffffffffff1663851c1bb3633a04f90060e01b6040518263ffffffff1660e01b815260040180827bffffffffffffffffffffffffffffffffffffffffffffffffffffffff1916815260200191505060206040518083038186803b1580156114f857600080fd5b505afa15801561150c573d6000803e3d6000fd5b505050506040513d602081101561152257600080fd5b5051604080517f2f2ff15d0000000000000000000000000000000000000000000000000000000081526004810183905273ffffffffffffffffffffffffffffffffffffffff7f000000000000000000000000000000000000000000000000000000000000000081166024830152915192935090841691632f2ff15d9160448082019260009290919082900301818387803b1580156115bf57600080fd5b505af11580156115d3573d6000803e3d6000fd5b505050505050565b60006115e561050b565b905060006115f1610671565b73ffffffffffffffffffffffffffffffffffffffff1663851c1bb3633a04f90060e01b6040518263ffffffff1660e01b815260040180827bffffffffffffffffffffffffffffffffffffffffffffffffffffffff1916815260200191505060206040518083038186803b15801561166757600080fd5b505afa15801561167b573d6000803e3d6000fd5b505050506040513d602081101561169157600080fd5b5051604080517fd547741f0000000000000000000000000000000000000000000000000000000081526004810183905273ffffffffffffffffffffffffffffffffffffffff7f00000000000000000000000000000000000000000000000000000000000000008116602483015291519293509084169163d547741f9160448082019260009290919082900301818387803b1580156115bf57600080fd5b7f08c379a000000000000000000000000000000000000000000000000000000000600090815260206004526007602452600a808404818106603090810160081b958390069590950190829004918206850160101b01602363ffffff0060e086901c160160181b0190930160c81b60445260e882901c90606490fd5bfefe436f6f7264696e61746f722073746167657320616c72656164792072656769737465726564a2646970667358221220e3682fad4032ad5606948412ced84022146e9d40bdd16a85ea8fc4f0ba40b86c64736f6c63430007010033476175676520636f6e74726f6c6c657220646f65736e2774206d61746368206f6e20616464657273","opcodes":"PUSH2 0x200 PUSH1 0x40 MSTORE CALLVALUE DUP1 ISZERO PUSH3 0x12 JUMPI PUSH1 0x0 DUP1 REVERT JUMPDEST POP PUSH1 0x40 MLOAD PUSH3 0x1BCE CODESIZE SUB DUP1 PUSH3 0x1BCE DUP4 CODECOPY DUP2 DUP2 ADD PUSH1 0x40 MSTORE PUSH2 0x120 DUP2 LT ISZERO PUSH3 0x39 JUMPI PUSH1 0x0 DUP1 REVERT JUMPDEST POP DUP1 MLOAD PUSH1 0x20 DUP1 DUP4 ADD MLOAD PUSH1 0x40 DUP1 DUP6 ADD MLOAD PUSH1 0x60 DUP7 ADD MLOAD PUSH1 0x80 DUP8 ADD MLOAD PUSH1 0xA0 DUP9 ADD MLOAD PUSH1 0xC0 DUP10 ADD MLOAD PUSH1 0xE0 DUP11 ADD MLOAD PUSH2 0x100 SWAP1 SWAP11 ADD MLOAD DUP7 MLOAD PUSH4 0x11B2515F PUSH1 0xE3 SHL DUP2 MSTORE SWAP7 MLOAD SWAP10 SWAP11 SWAP8 SWAP10 SWAP6 SWAP9 SWAP5 SWAP8 SWAP4 SWAP7 SWAP3 SWAP6 SWAP2 SWAP5 SWAP1 SWAP3 DUP12 SWAP3 PUSH1 0x1 PUSH1 0x1 PUSH1 0xA0 SHL SUB DUP5 AND SWAP3 PUSH4 0x8D928AF8 SWAP3 PUSH1 0x4 DUP1 DUP3 ADD SWAP4 SWAP2 DUP3 SWAP1 SUB ADD DUP2 DUP7 DUP1 EXTCODESIZE ISZERO DUP1 ISZERO PUSH3 0xB5 JUMPI PUSH1 0x0 DUP1 REVERT JUMPDEST POP GAS STATICCALL ISZERO DUP1 ISZERO PUSH3 0xCA JUMPI RETURNDATASIZE PUSH1 0x0 DUP1 RETURNDATACOPY RETURNDATASIZE PUSH1 0x0 REVERT JUMPDEST POP POP POP POP PUSH1 0x40 MLOAD RETURNDATASIZE PUSH1 0x20 DUP2 LT ISZERO PUSH3 0xE1 JUMPI PUSH1 0x0 DUP1 REVERT JUMPDEST POP MLOAD ADDRESS PUSH1 0x80 MSTORE PUSH1 0x1 PUSH1 0x1 PUSH1 0x60 SHL SUB NOT PUSH1 0x60 SWAP2 DUP3 SHL DUP2 AND PUSH1 0xA0 MSTORE PUSH1 0x1 PUSH1 0x0 SWAP1 DUP2 SSTORE SWAP3 DUP3 SHL DUP2 AND PUSH1 0xC0 MSTORE DUP11 DUP3 SHL DUP2 AND PUSH1 0xE0 MSTORE DUP10 DUP3 SHL DUP2 AND PUSH2 0x100 MSTORE DUP9 DUP3 SHL DUP2 AND PUSH2 0x140 MSTORE DUP8 DUP3 SHL DUP2 AND PUSH2 0x160 MSTORE DUP7 DUP3 SHL DUP2 AND PUSH2 0x180 MSTORE DUP6 DUP3 SHL DUP2 AND PUSH2 0x1A0 MSTORE DUP5 DUP3 SHL DUP2 AND PUSH2 0x1C0 MSTORE SWAP1 DUP4 SWAP1 SHL AND PUSH2 0x1E0 MSTORE PUSH1 0x40 DUP1 MLOAD PUSH4 0x2C6F4D6F PUSH1 0xE1 SHL DUP2 MSTORE SWAP1 MLOAD PUSH1 0x1 PUSH1 0x1 PUSH1 0xA0 SHL SUB DUP12 AND SWAP2 PUSH4 0x58DE9ADE SWAP2 PUSH1 0x4 DUP1 DUP4 ADD SWAP3 PUSH1 0x20 SWAP3 SWAP2 SWAP1 DUP3 SWAP1 SUB ADD DUP2 DUP7 DUP1 EXTCODESIZE ISZERO DUP1 ISZERO PUSH3 0x191 JUMPI PUSH1 0x0 DUP1 REVERT JUMPDEST POP GAS STATICCALL ISZERO DUP1 ISZERO PUSH3 0x1A6 JUMPI RETURNDATASIZE PUSH1 0x0 DUP1 RETURNDATACOPY RETURNDATASIZE PUSH1 0x0 REVERT JUMPDEST POP POP POP POP PUSH1 0x40 MLOAD RETURNDATASIZE PUSH1 0x20 DUP2 LT ISZERO PUSH3 0x1BD JUMPI PUSH1 0x0 DUP1 REVERT JUMPDEST POP MLOAD PUSH1 0x40 DUP1 MLOAD PUSH4 0x2C6F4D6F PUSH1 0xE1 SHL DUP2 MSTORE SWAP1 MLOAD SWAP2 SWAP3 POP PUSH1 0x1 PUSH1 0x1 PUSH1 0xA0 SHL SUB DUP11 AND SWAP2 PUSH4 0x58DE9ADE SWAP2 PUSH1 0x4 DUP1 DUP3 ADD SWAP3 PUSH1 0x20 SWAP3 SWAP1 SWAP2 SWAP1 DUP3 SWAP1 SUB ADD DUP2 DUP7 DUP1 EXTCODESIZE ISZERO DUP1 ISZERO PUSH3 0x204 JUMPI PUSH1 0x0 DUP1 REVERT JUMPDEST POP GAS STATICCALL ISZERO DUP1 ISZERO PUSH3 0x219 JUMPI RETURNDATASIZE PUSH1 0x0 DUP1 RETURNDATACOPY RETURNDATASIZE PUSH1 0x0 REVERT JUMPDEST POP POP POP POP PUSH1 0x40 MLOAD RETURNDATASIZE PUSH1 0x20 DUP2 LT ISZERO PUSH3 0x230 JUMPI PUSH1 0x0 DUP1 REVERT JUMPDEST POP MLOAD PUSH1 0x1 PUSH1 0x1 PUSH1 0xA0 SHL SUB DUP3 DUP2 AND SWAP2 AND EQ PUSH3 0x27D JUMPI PUSH1 0x40 MLOAD PUSH3 0x461BCD PUSH1 0xE5 SHL DUP2 MSTORE PUSH1 0x4 ADD DUP1 DUP1 PUSH1 0x20 ADD DUP3 DUP2 SUB DUP3 MSTORE PUSH1 0x28 DUP2 MSTORE PUSH1 0x20 ADD DUP1 PUSH3 0x1BA6 PUSH1 0x28 SWAP2 CODECOPY PUSH1 0x40 ADD SWAP2 POP POP PUSH1 0x40 MLOAD DUP1 SWAP2 SUB SWAP1 REVERT JUMPDEST PUSH1 0x1 PUSH1 0x1 PUSH1 0x60 SHL SUB NOT PUSH1 0x60 SWAP2 SWAP1 SWAP2 SHL AND PUSH2 0x120 MSTORE POP POP POP POP POP POP POP POP POP PUSH1 0x80 MLOAD PUSH1 0xA0 MLOAD PUSH1 0x60 SHR PUSH1 0xC0 MLOAD PUSH1 0x60 SHR PUSH1 0xE0 MLOAD PUSH1 0x60 SHR PUSH2 0x100 MLOAD PUSH1 0x60 SHR PUSH2 0x120 MLOAD PUSH1 0x60 SHR PUSH2 0x140 MLOAD PUSH1 0x60 SHR PUSH2 0x160 MLOAD PUSH1 0x60 SHR PUSH2 0x180 MLOAD PUSH1 0x60 SHR PUSH2 0x1A0 MLOAD PUSH1 0x60 SHR PUSH2 0x1C0 MLOAD PUSH1 0x60 SHR PUSH2 0x1E0 MLOAD PUSH1 0x60 SHR PUSH2 0x1806 PUSH3 0x3A0 PUSH1 0x0 CODECOPY DUP1 PUSH2 0x3C4 MSTORE POP DUP1 PUSH2 0x3E8 MSTORE DUP1 PUSH2 0x120B MSTORE DUP1 PUSH2 0x1298 MSTORE DUP1 PUSH2 0x1341 MSTORE DUP1 PUSH2 0x13EA MSTORE POP DUP1 PUSH2 0x5B1 MSTORE DUP1 PUSH2 0xD2D MSTORE POP DUP1 PUSH2 0x58D MSTORE DUP1 PUSH2 0xC58 MSTORE POP DUP1 PUSH2 0x69D MSTORE DUP1 PUSH2 0xB83 MSTORE POP DUP1 PUSH2 0x430 MSTORE DUP1 PUSH2 0xAAE MSTORE POP DUP1 PUSH2 0x4E9 MSTORE POP DUP1 PUSH2 0x40C MSTORE DUP1 PUSH2 0x16D8 MSTORE POP DUP1 PUSH2 0x28D MSTORE DUP1 PUSH2 0x96E MSTORE DUP1 PUSH2 0xA72 MSTORE DUP1 PUSH2 0xB47 MSTORE DUP1 PUSH2 0xC1C MSTORE DUP1 PUSH2 0xCF1 MSTORE DUP1 PUSH2 0xEB8 MSTORE DUP1 PUSH2 0xF98 MSTORE DUP1 PUSH2 0x1076 MSTORE DUP1 PUSH2 0x1154 MSTORE DUP1 PUSH2 0x1569 MSTORE POP DUP1 PUSH2 0x673 MSTORE POP DUP1 PUSH2 0x4C5 MSTORE POP DUP1 PUSH2 0x458 MSTORE POP PUSH2 0x1806 PUSH1 0x0 RETURN INVALID PUSH1 0x80 PUSH1 0x40 MSTORE CALLVALUE DUP1 ISZERO PUSH2 0x10 JUMPI PUSH1 0x0 DUP1 REVERT JUMPDEST POP PUSH1 0x4 CALLDATASIZE LT PUSH2 0x151 JUMPI PUSH1 0x0 CALLDATALOAD PUSH1 0xE0 SHR DUP1 PUSH4 0x99EECB3B GT PUSH2 0xCD JUMPI DUP1 PUSH4 0xD6076A6C GT PUSH2 0x81 JUMPI DUP1 PUSH4 0xE758D36B GT PUSH2 0x66 JUMPI DUP1 PUSH4 0xE758D36B EQ PUSH2 0x273 JUMPI DUP1 PUSH4 0xEEDBE31D EQ PUSH2 0x27B JUMPI DUP1 PUSH4 0xFD74E435 EQ PUSH2 0x283 JUMPI PUSH2 0x151 JUMP JUMPDEST DUP1 PUSH4 0xD6076A6C EQ PUSH2 0x263 JUMPI DUP1 PUSH4 0xDA28CEF7 EQ PUSH2 0x26B JUMPI PUSH2 0x151 JUMP JUMPDEST DUP1 PUSH4 0xADCCE535 GT PUSH2 0xB2 JUMPI DUP1 PUSH4 0xADCCE535 EQ PUSH2 0x237 JUMPI DUP1 PUSH4 0xB07C0CDC EQ PUSH2 0x23F JUMPI DUP1 PUSH4 0xB2FA1C9E EQ PUSH2 0x247 JUMPI PUSH2 0x151 JUMP JUMPDEST DUP1 PUSH4 0x99EECB3B EQ PUSH2 0x227 JUMPI DUP1 PUSH4 0xAAABADC5 EQ PUSH2 0x22F JUMPI PUSH2 0x151 JUMP JUMPDEST DUP1 PUSH4 0x483BC233 GT PUSH2 0x124 JUMPI DUP1 PUSH4 0x63BE9DF9 GT PUSH2 0x109 JUMPI DUP1 PUSH4 0x63BE9DF9 EQ PUSH2 0x1D8 JUMPI DUP1 PUSH4 0x851C1BB3 EQ PUSH2 0x1E0 JUMPI DUP1 PUSH4 0x8D928AF8 EQ PUSH2 0x21F JUMPI PUSH2 0x151 JUMP JUMPDEST DUP1 PUSH4 0x483BC233 EQ PUSH2 0x1C8 JUMPI DUP1 PUSH4 0x59FF345C EQ PUSH2 0x1D0 JUMPI PUSH2 0x151 JUMP JUMPDEST DUP1 PUSH4 0xF42A2C1 EQ PUSH2 0x156 JUMPI DUP1 PUSH4 0x1F24CFC7 EQ PUSH2 0x187 JUMPI DUP1 PUSH4 0x2B116172 EQ PUSH2 0x191 JUMPI DUP1 PUSH4 0x321ABFAE EQ PUSH2 0x1C0 JUMPI JUMPDEST PUSH1 0x0 DUP1 REVERT JUMPDEST PUSH2 0x15E PUSH2 0x28B JUMP JUMPDEST PUSH1 0x40 DUP1 MLOAD PUSH20 0xFFFFFFFFFFFFFFFFFFFFFFFFFFFFFFFFFFFFFFFF SWAP1 SWAP3 AND DUP3 MSTORE MLOAD SWAP1 DUP2 SWAP1 SUB PUSH1 0x20 ADD SWAP1 RETURN JUMPDEST PUSH2 0x18F PUSH2 0x2AF JUMP JUMPDEST STOP JUMPDEST PUSH2 0x1AE PUSH1 0x4 DUP1 CALLDATASIZE SUB PUSH1 0x20 DUP2 LT ISZERO PUSH2 0x1A7 JUMPI PUSH1 0x0 DUP1 REVERT JUMPDEST POP CALLDATALOAD PUSH2 0x3A1 JUMP JUMPDEST PUSH1 0x40 DUP1 MLOAD SWAP2 DUP3 MSTORE MLOAD SWAP1 DUP2 SWAP1 SUB PUSH1 0x20 ADD SWAP1 RETURN JUMPDEST PUSH2 0x15E PUSH2 0x3C2 JUMP JUMPDEST PUSH2 0x15E PUSH2 0x3E6 JUMP JUMPDEST PUSH2 0x15E PUSH2 0x40A JUMP JUMPDEST PUSH2 0x15E PUSH2 0x42E JUMP JUMPDEST PUSH2 0x1AE PUSH1 0x4 DUP1 CALLDATASIZE SUB PUSH1 0x20 DUP2 LT ISZERO PUSH2 0x1F6 JUMPI PUSH1 0x0 DUP1 REVERT JUMPDEST POP CALLDATALOAD PUSH32 0xFFFFFFFF00000000000000000000000000000000000000000000000000000000 AND PUSH2 0x452 JUMP JUMPDEST PUSH2 0x15E PUSH2 0x4C3 JUMP JUMPDEST PUSH2 0x15E PUSH2 0x4E7 JUMP JUMPDEST PUSH2 0x15E PUSH2 0x50B JUMP JUMPDEST PUSH2 0x15E PUSH2 0x58B JUMP JUMPDEST PUSH2 0x15E PUSH2 0x5AF JUMP JUMPDEST PUSH2 0x24F PUSH2 0x5D3 JUMP JUMPDEST PUSH1 0x40 DUP1 MLOAD SWAP2 ISZERO ISZERO DUP3 MSTORE MLOAD SWAP1 DUP2 SWAP1 SUB PUSH1 0x20 ADD SWAP1 RETURN JUMPDEST PUSH2 0x18F PUSH2 0x5FD JUMP JUMPDEST PUSH2 0x1AE PUSH2 0x66B JUMP JUMPDEST PUSH2 0x15E PUSH2 0x671 JUMP JUMPDEST PUSH2 0x1AE PUSH2 0x695 JUMP JUMPDEST PUSH2 0x15E PUSH2 0x69B JUMP JUMPDEST PUSH32 0x0 DUP2 JUMP JUMPDEST PUSH2 0x2B7 PUSH2 0x6BF JUMP JUMPDEST PUSH2 0x2BF PUSH2 0x66B JUMP JUMPDEST PUSH2 0x2CB JUMPI PUSH2 0x2CB PUSH2 0x6D8 JUMP JUMPDEST PUSH2 0x2D3 PUSH2 0x5D3 JUMP JUMPDEST ISZERO PUSH2 0x33F JUMPI PUSH1 0x40 DUP1 MLOAD PUSH32 0x8C379A000000000000000000000000000000000000000000000000000000000 DUP2 MSTORE PUSH1 0x20 PUSH1 0x4 DUP3 ADD MSTORE PUSH1 0x14 PUSH1 0x24 DUP3 ADD MSTORE PUSH32 0x416C6C2073746167657320636F6D706C65746564000000000000000000000000 PUSH1 0x44 DUP3 ADD MSTORE SWAP1 MLOAD SWAP1 DUP2 SWAP1 SUB PUSH1 0x64 ADD SWAP1 REVERT JUMPDEST PUSH2 0x38F PUSH1 0x1 PUSH2 0x34C PUSH2 0x695 JUMP JUMPDEST DUP2 SLOAD DUP2 LT PUSH2 0x356 JUMPI INVALID JUMPDEST SWAP1 PUSH1 0x0 MSTORE PUSH1 0x20 PUSH1 0x0 KECCAK256 SWAP1 PUSH1 0x4 SWAP2 DUP3 DUP3 DIV ADD SWAP2 SWAP1 MOD PUSH1 0x8 MUL SWAP1 SLOAD SWAP1 PUSH2 0x100 EXP SWAP1 DIV DUP1 ISZERO PUSH2 0x17A9 MUL OR PUSH8 0xFFFFFFFFFFFFFFFF AND PUSH4 0xFFFFFFFF AND JUMP JUMPDEST PUSH2 0x397 PUSH2 0x6E3 JUMP JUMPDEST PUSH2 0x39F PUSH2 0x72E JUMP JUMPDEST JUMP JUMPDEST PUSH1 0x0 PUSH1 0x2 DUP3 DUP2 SLOAD DUP2 LT PUSH2 0x3B0 JUMPI INVALID JUMPDEST SWAP1 PUSH1 0x0 MSTORE PUSH1 0x20 PUSH1 0x0 KECCAK256 ADD SLOAD SWAP1 POP SWAP2 SWAP1 POP JUMP JUMPDEST PUSH32 0x0 DUP2 JUMP JUMPDEST PUSH32 0x0 DUP2 JUMP JUMPDEST PUSH32 0x0 DUP2 JUMP JUMPDEST PUSH32 0x0 DUP2 JUMP JUMPDEST PUSH1 0x40 DUP1 MLOAD PUSH32 0x0 PUSH1 0x20 DUP1 DUP4 ADD SWAP2 SWAP1 SWAP2 MSTORE PUSH32 0xFFFFFFFF00000000000000000000000000000000000000000000000000000000 DUP5 AND DUP3 DUP5 ADD MSTORE DUP3 MLOAD PUSH1 0x24 DUP2 DUP5 SUB ADD DUP2 MSTORE PUSH1 0x44 SWAP1 SWAP3 ADD SWAP1 SWAP3 MSTORE DUP1 MLOAD SWAP2 ADD KECCAK256 SWAP2 SWAP1 POP JUMP JUMPDEST PUSH32 0x0 SWAP1 JUMP JUMPDEST PUSH32 0x0 DUP2 JUMP JUMPDEST PUSH1 0x0 PUSH2 0x515 PUSH2 0x4C3 JUMP JUMPDEST PUSH20 0xFFFFFFFFFFFFFFFFFFFFFFFFFFFFFFFFFFFFFFFF AND PUSH4 0xAAABADC5 PUSH1 0x40 MLOAD DUP2 PUSH4 0xFFFFFFFF AND PUSH1 0xE0 SHL DUP2 MSTORE PUSH1 0x4 ADD PUSH1 0x20 PUSH1 0x40 MLOAD DUP1 DUP4 SUB DUP2 DUP7 DUP1 EXTCODESIZE ISZERO DUP1 ISZERO PUSH2 0x55A JUMPI PUSH1 0x0 DUP1 REVERT JUMPDEST POP GAS STATICCALL ISZERO DUP1 ISZERO PUSH2 0x56E JUMPI RETURNDATASIZE PUSH1 0x0 DUP1 RETURNDATACOPY RETURNDATASIZE PUSH1 0x0 REVERT JUMPDEST POP POP POP POP PUSH1 0x40 MLOAD RETURNDATASIZE PUSH1 0x20 DUP2 LT ISZERO PUSH2 0x584 JUMPI PUSH1 0x0 DUP1 REVERT JUMPDEST POP MLOAD SWAP1 POP SWAP1 JUMP JUMPDEST PUSH32 0x0 DUP2 JUMP JUMPDEST PUSH32 0x0 DUP2 JUMP JUMPDEST PUSH1 0x0 DUP1 PUSH2 0x5DE PUSH2 0x695 JUMP JUMPDEST SWAP1 POP PUSH1 0x0 DUP2 GT DUP1 ISZERO PUSH2 0x5F7 JUMPI POP PUSH2 0x5F3 PUSH2 0x66B JUMP JUMPDEST DUP2 LT ISZERO JUMPDEST SWAP2 POP POP SWAP1 JUMP JUMPDEST PUSH2 0x605 PUSH2 0x6BF JUMP JUMPDEST PUSH2 0x60D PUSH2 0x66B JUMP JUMPDEST ISZERO PUSH2 0x663 JUMPI PUSH1 0x40 MLOAD PUSH32 0x8C379A000000000000000000000000000000000000000000000000000000000 DUP2 MSTORE PUSH1 0x4 ADD DUP1 DUP1 PUSH1 0x20 ADD DUP3 DUP2 SUB DUP3 MSTORE PUSH1 0x25 DUP2 MSTORE PUSH1 0x20 ADD DUP1 PUSH2 0x17AC PUSH1 0x25 SWAP2 CODECOPY PUSH1 0x40 ADD SWAP2 POP POP PUSH1 0x40 MLOAD DUP1 SWAP2 SUB SWAP1 REVERT JUMPDEST PUSH2 0x397 PUSH2 0x6D8 JUMP JUMPDEST PUSH1 0x1 SLOAD SWAP1 JUMP JUMPDEST PUSH32 0x0 SWAP1 JUMP JUMPDEST PUSH1 0x2 SLOAD SWAP1 JUMP JUMPDEST PUSH32 0x0 DUP2 JUMP JUMPDEST PUSH2 0x6D1 PUSH1 0x2 PUSH1 0x0 SLOAD EQ ISZERO PUSH2 0x190 PUSH2 0x735 JUMP JUMPDEST PUSH1 0x2 PUSH1 0x0 SSTORE JUMP JUMPDEST PUSH2 0x39F PUSH2 0x747 PUSH2 0x757 JUMP JUMPDEST PUSH1 0x2 DUP1 SLOAD PUSH1 0x1 DUP2 ADD DUP3 SSTORE PUSH1 0x0 SWAP2 SWAP1 SWAP2 MSTORE TIMESTAMP PUSH32 0x405787FA12A823E0F2B7631CC41B3BA8828B3321CA811111FA75CD3AA3BB5ACE SWAP1 SWAP2 ADD SSTORE PUSH2 0x721 PUSH2 0x5D3 JUMP JUMPDEST ISZERO PUSH2 0x39F JUMPI PUSH2 0x39F PUSH2 0x7BA JUMP JUMPDEST PUSH1 0x1 PUSH1 0x0 SSTORE JUMP JUMPDEST DUP2 PUSH2 0x743 JUMPI PUSH2 0x743 DUP2 PUSH2 0x8CB JUMP JUMPDEST POP POP JUMP JUMPDEST PUSH2 0x74F PUSH2 0x8F8 JUMP JUMPDEST PUSH2 0x39F PUSH2 0x15DB JUMP JUMPDEST PUSH1 0x1 DUP1 SLOAD DUP1 DUP3 ADD DUP3 SSTORE PUSH1 0x0 SWAP2 SWAP1 SWAP2 MSTORE PUSH32 0xB10E2D527612073B26EECDFD717E6A320CF44B4AFAC2B0732D9FCBE2B7FA0CF6 PUSH1 0x4 DUP3 DIV ADD DUP1 SLOAD PUSH1 0x3 SWAP1 SWAP3 AND PUSH1 0x8 MUL PUSH2 0x100 EXP PUSH8 0xFFFFFFFFFFFFFFFF DUP2 DUP2 MUL NOT SWAP1 SWAP4 AND SWAP4 SWAP1 SWAP3 AND SWAP2 SWAP1 SWAP2 MUL SWAP2 SWAP1 SWAP2 OR SWAP1 SSTORE JUMP JUMPDEST PUSH1 0x0 PUSH2 0x7C4 PUSH2 0x50B JUMP JUMPDEST SWAP1 POP DUP1 PUSH20 0xFFFFFFFFFFFFFFFFFFFFFFFFFFFFFFFFFFFFFFFF AND PUSH4 0x36568ABE DUP3 PUSH20 0xFFFFFFFFFFFFFFFFFFFFFFFFFFFFFFFFFFFFFFFF AND PUSH4 0xA217FDDF PUSH1 0x40 MLOAD DUP2 PUSH4 0xFFFFFFFF AND PUSH1 0xE0 SHL DUP2 MSTORE PUSH1 0x4 ADD PUSH1 0x20 PUSH1 0x40 MLOAD DUP1 DUP4 SUB DUP2 DUP7 DUP1 EXTCODESIZE ISZERO DUP1 ISZERO PUSH2 0x828 JUMPI PUSH1 0x0 DUP1 REVERT JUMPDEST POP GAS STATICCALL ISZERO DUP1 ISZERO PUSH2 0x83C JUMPI RETURNDATASIZE PUSH1 0x0 DUP1 RETURNDATACOPY RETURNDATASIZE PUSH1 0x0 REVERT JUMPDEST POP POP POP POP PUSH1 0x40 MLOAD RETURNDATASIZE PUSH1 0x20 DUP2 LT ISZERO PUSH2 0x852 JUMPI PUSH1 0x0 DUP1 REVERT JUMPDEST POP MLOAD PUSH1 0x40 DUP1 MLOAD PUSH32 0xFFFFFFFF00000000000000000000000000000000000000000000000000000000 PUSH1 0xE0 DUP6 SWAP1 SHL AND DUP2 MSTORE PUSH1 0x4 DUP2 ADD SWAP3 SWAP1 SWAP3 MSTORE ADDRESS PUSH1 0x24 DUP4 ADD MSTORE MLOAD PUSH1 0x44 DUP1 DUP4 ADD SWAP3 PUSH1 0x0 SWAP3 SWAP2 SWAP1 DUP3 SWAP1 SUB ADD DUP2 DUP4 DUP8 DUP1 EXTCODESIZE ISZERO DUP1 ISZERO PUSH2 0x8B0 JUMPI PUSH1 0x0 DUP1 REVERT JUMPDEST POP GAS CALL ISZERO DUP1 ISZERO PUSH2 0x8C4 JUMPI RETURNDATASIZE PUSH1 0x0 DUP1 RETURNDATACOPY RETURNDATASIZE PUSH1 0x0 REVERT JUMPDEST POP POP POP POP POP JUMP JUMPDEST PUSH2 0x8F5 DUP2 PUSH32 0x42414C0000000000000000000000000000000000000000000000000000000000 PUSH2 0x172E JUMP JUMPDEST POP JUMP JUMPDEST PUSH1 0x0 PUSH2 0x902 PUSH2 0x50B JUMP JUMPDEST PUSH1 0x40 DUP1 MLOAD PUSH32 0x851C1BB300000000000000000000000000000000000000000000000000000000 DUP2 MSTORE PUSH32 0x6440E97300000000000000000000000000000000000000000000000000000000 PUSH1 0x4 DUP3 ADD MSTORE SWAP1 MLOAD SWAP2 SWAP3 POP PUSH1 0x0 SWAP2 PUSH20 0xFFFFFFFFFFFFFFFFFFFFFFFFFFFFFFFFFFFFFFFF PUSH32 0x0 AND SWAP2 PUSH4 0x851C1BB3 SWAP2 PUSH1 0x24 DUP1 DUP4 ADD SWAP3 PUSH1 0x20 SWAP3 SWAP2 SWAP1 DUP3 SWAP1 SUB ADD DUP2 DUP7 DUP1 EXTCODESIZE ISZERO DUP1 ISZERO PUSH2 0x9B4 JUMPI PUSH1 0x0 DUP1 REVERT JUMPDEST POP GAS STATICCALL ISZERO DUP1 ISZERO PUSH2 0x9C8 JUMPI RETURNDATASIZE PUSH1 0x0 DUP1 RETURNDATACOPY RETURNDATASIZE PUSH1 0x0 REVERT JUMPDEST POP POP POP POP PUSH1 0x40 MLOAD RETURNDATASIZE PUSH1 0x20 DUP2 LT ISZERO PUSH2 0x9DE JUMPI PUSH1 0x0 DUP1 REVERT JUMPDEST POP MLOAD PUSH1 0x40 DUP1 MLOAD PUSH32 0x2F2FF15D00000000000000000000000000000000000000000000000000000000 DUP2 MSTORE PUSH1 0x4 DUP2 ADD DUP4 SWAP1 MSTORE ADDRESS PUSH1 0x24 DUP3 ADD MSTORE SWAP1 MLOAD SWAP2 SWAP3 POP PUSH20 0xFFFFFFFFFFFFFFFFFFFFFFFFFFFFFFFFFFFFFFFF DUP5 AND SWAP2 PUSH4 0x2F2FF15D SWAP2 PUSH1 0x44 DUP1 DUP3 ADD SWAP3 PUSH1 0x0 SWAP3 SWAP1 SWAP2 SWAP1 DUP3 SWAP1 SUB ADD DUP2 DUP4 DUP8 DUP1 EXTCODESIZE ISZERO DUP1 ISZERO PUSH2 0xA58 JUMPI PUSH1 0x0 DUP1 REVERT JUMPDEST POP GAS CALL ISZERO DUP1 ISZERO PUSH2 0xA6C JUMPI RETURNDATASIZE PUSH1 0x0 DUP1 RETURNDATACOPY RETURNDATASIZE PUSH1 0x0 REVERT JUMPDEST POP POP POP POP PUSH32 0x0 PUSH20 0xFFFFFFFFFFFFFFFFFFFFFFFFFFFFFFFFFFFFFFFF AND PUSH4 0x6440E973 PUSH32 0x0 PUSH1 0x2 PUSH1 0x40 MLOAD DUP4 PUSH4 0xFFFFFFFF AND PUSH1 0xE0 SHL DUP2 MSTORE PUSH1 0x4 ADD DUP1 DUP4 PUSH20 0xFFFFFFFFFFFFFFFFFFFFFFFFFFFFFFFFFFFFFFFF AND DUP2 MSTORE PUSH1 0x20 ADD DUP3 PUSH1 0x7 DUP2 GT ISZERO PUSH2 0xB0A JUMPI INVALID JUMPDEST DUP2 MSTORE PUSH1 0x20 ADD SWAP3 POP POP POP PUSH1 0x0 PUSH1 0x40 MLOAD DUP1 DUP4 SUB DUP2 PUSH1 0x0 DUP8 DUP1 EXTCODESIZE ISZERO DUP1 ISZERO PUSH2 0xB2D JUMPI PUSH1 0x0 DUP1 REVERT JUMPDEST POP GAS CALL ISZERO DUP1 ISZERO PUSH2 0xB41 JUMPI RETURNDATASIZE PUSH1 0x0 DUP1 RETURNDATACOPY RETURNDATASIZE PUSH1 0x0 REVERT JUMPDEST POP POP POP POP PUSH32 0x0 PUSH20 0xFFFFFFFFFFFFFFFFFFFFFFFFFFFFFFFFFFFFFFFF AND PUSH4 0x6440E973 PUSH32 0x0 PUSH1 0x3 PUSH1 0x40 MLOAD DUP4 PUSH4 0xFFFFFFFF AND PUSH1 0xE0 SHL DUP2 MSTORE PUSH1 0x4 ADD DUP1 DUP4 PUSH20 0xFFFFFFFFFFFFFFFFFFFFFFFFFFFFFFFFFFFFFFFF AND DUP2 MSTORE PUSH1 0x20 ADD DUP3 PUSH1 0x7 DUP2 GT ISZERO PUSH2 0xBDF JUMPI INVALID JUMPDEST DUP2 MSTORE PUSH1 0x20 ADD SWAP3 POP POP POP PUSH1 0x0 PUSH1 0x40 MLOAD DUP1 DUP4 SUB DUP2 PUSH1 0x0 DUP8 DUP1 EXTCODESIZE ISZERO DUP1 ISZERO PUSH2 0xC02 JUMPI PUSH1 0x0 DUP1 REVERT JUMPDEST POP GAS CALL ISZERO DUP1 ISZERO PUSH2 0xC16 JUMPI RETURNDATASIZE PUSH1 0x0 DUP1 RETURNDATACOPY RETURNDATASIZE PUSH1 0x0 REVERT JUMPDEST POP POP POP POP PUSH32 0x0 PUSH20 0xFFFFFFFFFFFFFFFFFFFFFFFFFFFFFFFFFFFFFFFF AND PUSH4 0x6440E973 PUSH32 0x0 PUSH1 0x4 PUSH1 0x40 MLOAD DUP4 PUSH4 0xFFFFFFFF AND PUSH1 0xE0 SHL DUP2 MSTORE PUSH1 0x4 ADD DUP1 DUP4 PUSH20 0xFFFFFFFFFFFFFFFFFFFFFFFFFFFFFFFFFFFFFFFF AND DUP2 MSTORE PUSH1 0x20 ADD DUP3 PUSH1 0x7 DUP2 GT ISZERO PUSH2 0xCB4 JUMPI INVALID JUMPDEST DUP2 MSTORE PUSH1 0x20 ADD SWAP3 POP POP POP PUSH1 0x0 PUSH1 0x40 MLOAD DUP1 DUP4 SUB DUP2 PUSH1 0x0 DUP8 DUP1 EXTCODESIZE ISZERO DUP1 ISZERO PUSH2 0xCD7 JUMPI PUSH1 0x0 DUP1 REVERT JUMPDEST POP GAS CALL ISZERO DUP1 ISZERO PUSH2 0xCEB JUMPI RETURNDATASIZE PUSH1 0x0 DUP1 RETURNDATACOPY RETURNDATASIZE PUSH1 0x0 REVERT JUMPDEST POP POP POP POP PUSH32 0x0 PUSH20 0xFFFFFFFFFFFFFFFFFFFFFFFFFFFFFFFFFFFFFFFF AND PUSH4 0x6440E973 PUSH32 0x0 PUSH1 0x5 PUSH1 0x40 MLOAD DUP4 PUSH4 0xFFFFFFFF AND PUSH1 0xE0 SHL DUP2 MSTORE PUSH1 0x4 ADD DUP1 DUP4 PUSH20 0xFFFFFFFFFFFFFFFFFFFFFFFFFFFFFFFFFFFFFFFF AND DUP2 MSTORE PUSH1 0x20 ADD DUP3 PUSH1 0x7 DUP2 GT ISZERO PUSH2 0xD89 JUMPI INVALID JUMPDEST DUP2 MSTORE PUSH1 0x20 ADD SWAP3 POP POP POP PUSH1 0x0 PUSH1 0x40 MLOAD DUP1 DUP4 SUB DUP2 PUSH1 0x0 DUP8 DUP1 EXTCODESIZE ISZERO DUP1 ISZERO PUSH2 0xDAC JUMPI PUSH1 0x0 DUP1 REVERT JUMPDEST POP GAS CALL ISZERO DUP1 ISZERO PUSH2 0xDC0 JUMPI RETURNDATASIZE PUSH1 0x0 DUP1 RETURNDATACOPY RETURNDATASIZE PUSH1 0x0 REVERT JUMPDEST POP POP PUSH1 0x40 DUP1 MLOAD PUSH32 0x36568ABE00000000000000000000000000000000000000000000000000000000 DUP2 MSTORE PUSH1 0x4 DUP2 ADD DUP6 SWAP1 MSTORE ADDRESS PUSH1 0x24 DUP3 ADD MSTORE SWAP1 MLOAD PUSH20 0xFFFFFFFFFFFFFFFFFFFFFFFFFFFFFFFFFFFFFFFF DUP7 AND SWAP4 POP PUSH4 0x36568ABE SWAP3 POP PUSH1 0x44 DUP1 DUP4 ADD SWAP3 PUSH1 0x0 SWAP3 SWAP2 SWAP1 DUP3 SWAP1 SUB ADD DUP2 DUP4 DUP8 DUP1 EXTCODESIZE ISZERO DUP1 ISZERO PUSH2 0xE38 JUMPI PUSH1 0x0 DUP1 REVERT JUMPDEST POP GAS CALL ISZERO DUP1 ISZERO PUSH2 0xE4C JUMPI RETURNDATASIZE PUSH1 0x0 DUP1 RETURNDATACOPY RETURNDATASIZE PUSH1 0x0 REVERT JUMPDEST POP POP PUSH1 0x40 DUP1 MLOAD PUSH32 0x851C1BB300000000000000000000000000000000000000000000000000000000 DUP2 MSTORE PUSH32 0x5E45A27300000000000000000000000000000000000000000000000000000000 PUSH1 0x4 DUP3 ADD MSTORE SWAP1 MLOAD PUSH1 0x0 SWAP5 POP PUSH20 0xFFFFFFFFFFFFFFFFFFFFFFFFFFFFFFFFFFFFFFFF PUSH32 0x0 AND SWAP4 POP PUSH4 0x851C1BB3 SWAP3 POP PUSH1 0x24 DUP1 DUP4 ADD SWAP3 PUSH1 0x20 SWAP3 SWAP2 SWAP1 DUP3 SWAP1 SUB ADD DUP2 DUP7 DUP1 EXTCODESIZE ISZERO DUP1 ISZERO PUSH2 0xF00 JUMPI PUSH1 0x0 DUP1 REVERT JUMPDEST POP GAS STATICCALL ISZERO DUP1 ISZERO PUSH2 0xF14 JUMPI RETURNDATASIZE PUSH1 0x0 DUP1 RETURNDATACOPY RETURNDATASIZE PUSH1 0x0 REVERT JUMPDEST POP POP POP POP PUSH1 0x40 MLOAD RETURNDATASIZE PUSH1 0x20 DUP2 LT ISZERO PUSH2 0xF2A JUMPI PUSH1 0x0 DUP1 REVERT JUMPDEST POP MLOAD PUSH1 0x40 DUP1 MLOAD PUSH32 0x851C1BB300000000000000000000000000000000000000000000000000000000 DUP2 MSTORE PUSH32 0xF87FCFA200000000000000000000000000000000000000000000000000000000 PUSH1 0x4 DUP3 ADD MSTORE SWAP1 MLOAD SWAP2 SWAP3 POP PUSH1 0x0 SWAP2 PUSH20 0xFFFFFFFFFFFFFFFFFFFFFFFFFFFFFFFFFFFFFFFF PUSH32 0x0 AND SWAP2 PUSH4 0x851C1BB3 SWAP2 PUSH1 0x24 DUP1 DUP4 ADD SWAP3 PUSH1 0x20 SWAP3 SWAP2 SWAP1 DUP3 SWAP1 SUB ADD DUP2 DUP7 DUP1 EXTCODESIZE ISZERO DUP1 ISZERO PUSH2 0xFDE JUMPI PUSH1 0x0 DUP1 REVERT JUMPDEST POP GAS STATICCALL ISZERO DUP1 ISZERO PUSH2 0xFF2 JUMPI RETURNDATASIZE PUSH1 0x0 DUP1 RETURNDATACOPY RETURNDATASIZE PUSH1 0x0 REVERT JUMPDEST POP POP POP POP PUSH1 0x40 MLOAD RETURNDATASIZE PUSH1 0x20 DUP2 LT ISZERO PUSH2 0x1008 JUMPI PUSH1 0x0 DUP1 REVERT JUMPDEST POP MLOAD PUSH1 0x40 DUP1 MLOAD PUSH32 0x851C1BB300000000000000000000000000000000000000000000000000000000 DUP2 MSTORE PUSH32 0xBF2972D500000000000000000000000000000000000000000000000000000000 PUSH1 0x4 DUP3 ADD MSTORE SWAP1 MLOAD SWAP2 SWAP3 POP PUSH1 0x0 SWAP2 PUSH20 0xFFFFFFFFFFFFFFFFFFFFFFFFFFFFFFFFFFFFFFFF PUSH32 0x0 AND SWAP2 PUSH4 0x851C1BB3 SWAP2 PUSH1 0x24 DUP1 DUP4 ADD SWAP3 PUSH1 0x20 SWAP3 SWAP2 SWAP1 DUP3 SWAP1 SUB ADD DUP2 DUP7 DUP1 EXTCODESIZE ISZERO DUP1 ISZERO PUSH2 0x10BC JUMPI PUSH1 0x0 DUP1 REVERT JUMPDEST POP GAS STATICCALL ISZERO DUP1 ISZERO PUSH2 0x10D0 JUMPI RETURNDATASIZE PUSH1 0x0 DUP1 RETURNDATACOPY RETURNDATASIZE PUSH1 0x0 REVERT JUMPDEST POP POP POP POP PUSH1 0x40 MLOAD RETURNDATASIZE PUSH1 0x20 DUP2 LT ISZERO PUSH2 0x10E6 JUMPI PUSH1 0x0 DUP1 REVERT JUMPDEST POP MLOAD PUSH1 0x40 DUP1 MLOAD PUSH32 0x851C1BB300000000000000000000000000000000000000000000000000000000 DUP2 MSTORE PUSH32 0x8171BAD900000000000000000000000000000000000000000000000000000000 PUSH1 0x4 DUP3 ADD MSTORE SWAP1 MLOAD SWAP2 SWAP3 POP PUSH1 0x0 SWAP2 PUSH20 0xFFFFFFFFFFFFFFFFFFFFFFFFFFFFFFFFFFFFFFFF PUSH32 0x0 AND SWAP2 PUSH4 0x851C1BB3 SWAP2 PUSH1 0x24 DUP1 DUP4 ADD SWAP3 PUSH1 0x20 SWAP3 SWAP2 SWAP1 DUP3 SWAP1 SUB ADD DUP2 DUP7 DUP1 EXTCODESIZE ISZERO DUP1 ISZERO PUSH2 0x119A JUMPI PUSH1 0x0 DUP1 REVERT JUMPDEST POP GAS STATICCALL ISZERO DUP1 ISZERO PUSH2 0x11AE JUMPI RETURNDATASIZE PUSH1 0x0 DUP1 RETURNDATACOPY RETURNDATASIZE PUSH1 0x0 REVERT JUMPDEST POP POP POP POP PUSH1 0x40 MLOAD RETURNDATASIZE PUSH1 0x20 DUP2 LT ISZERO PUSH2 0x11C4 JUMPI PUSH1 0x0 DUP1 REVERT JUMPDEST POP MLOAD PUSH1 0x40 DUP1 MLOAD PUSH32 0x2F2FF15D00000000000000000000000000000000000000000000000000000000 DUP2 MSTORE PUSH1 0x4 DUP2 ADD DUP8 SWAP1 MSTORE PUSH20 0xFFFFFFFFFFFFFFFFFFFFFFFFFFFFFFFFFFFFFFFF PUSH32 0x0 DUP2 AND PUSH1 0x24 DUP4 ADD MSTORE SWAP2 MLOAD SWAP3 SWAP4 POP SWAP1 DUP8 AND SWAP2 PUSH4 0x2F2FF15D SWAP2 PUSH1 0x44 DUP1 DUP3 ADD SWAP3 PUSH1 0x0 SWAP3 SWAP1 SWAP2 SWAP1 DUP3 SWAP1 SUB ADD DUP2 DUP4 DUP8 DUP1 EXTCODESIZE ISZERO DUP1 ISZERO PUSH2 0x1261 JUMPI PUSH1 0x0 DUP1 REVERT JUMPDEST POP GAS CALL ISZERO DUP1 ISZERO PUSH2 0x1275 JUMPI RETURNDATASIZE PUSH1 0x0 DUP1 RETURNDATACOPY RETURNDATASIZE PUSH1 0x0 REVERT JUMPDEST POP POP POP POP DUP5 PUSH20 0xFFFFFFFFFFFFFFFFFFFFFFFFFFFFFFFFFFFFFFFF AND PUSH4 0x2F2FF15D DUP5 PUSH32 0x0 PUSH1 0x40 MLOAD DUP4 PUSH4 0xFFFFFFFF AND PUSH1 0xE0 SHL DUP2 MSTORE PUSH1 0x4 ADD DUP1 DUP4 DUP2 MSTORE PUSH1 0x20 ADD DUP3 PUSH20 0xFFFFFFFFFFFFFFFFFFFFFFFFFFFFFFFFFFFFFFFF AND DUP2 MSTORE PUSH1 0x20 ADD SWAP3 POP POP POP PUSH1 0x0 PUSH1 0x40 MLOAD DUP1 DUP4 SUB DUP2 PUSH1 0x0 DUP8 DUP1 EXTCODESIZE ISZERO DUP1 ISZERO PUSH2 0x130A JUMPI PUSH1 0x0 DUP1 REVERT JUMPDEST POP GAS CALL ISZERO DUP1 ISZERO PUSH2 0x131E JUMPI RETURNDATASIZE PUSH1 0x0 DUP1 RETURNDATACOPY RETURNDATASIZE PUSH1 0x0 REVERT JUMPDEST POP POP POP POP DUP5 PUSH20 0xFFFFFFFFFFFFFFFFFFFFFFFFFFFFFFFFFFFFFFFF AND PUSH4 0x2F2FF15D DUP4 PUSH32 0x0 PUSH1 0x40 MLOAD DUP4 PUSH4 0xFFFFFFFF AND PUSH1 0xE0 SHL DUP2 MSTORE PUSH1 0x4 ADD DUP1 DUP4 DUP2 MSTORE PUSH1 0x20 ADD DUP3 PUSH20 0xFFFFFFFFFFFFFFFFFFFFFFFFFFFFFFFFFFFFFFFF AND DUP2 MSTORE PUSH1 0x20 ADD SWAP3 POP POP POP PUSH1 0x0 PUSH1 0x40 MLOAD DUP1 DUP4 SUB DUP2 PUSH1 0x0 DUP8 DUP1 EXTCODESIZE ISZERO DUP1 ISZERO PUSH2 0x13B3 JUMPI PUSH1 0x0 DUP1 REVERT JUMPDEST POP GAS CALL ISZERO DUP1 ISZERO PUSH2 0x13C7 JUMPI RETURNDATASIZE PUSH1 0x0 DUP1 RETURNDATACOPY RETURNDATASIZE PUSH1 0x0 REVERT JUMPDEST POP POP POP POP DUP5 PUSH20 0xFFFFFFFFFFFFFFFFFFFFFFFFFFFFFFFFFFFFFFFF AND PUSH4 0x2F2FF15D DUP3 PUSH32 0x0 PUSH1 0x40 MLOAD DUP4 PUSH4 0xFFFFFFFF AND PUSH1 0xE0 SHL DUP2 MSTORE PUSH1 0x4 ADD DUP1 DUP4 DUP2 MSTORE PUSH1 0x20 ADD DUP3 PUSH20 0xFFFFFFFFFFFFFFFFFFFFFFFFFFFFFFFFFFFFFFFF AND DUP2 MSTORE PUSH1 0x20 ADD SWAP3 POP POP POP PUSH1 0x0 PUSH1 0x40 MLOAD DUP1 DUP4 SUB DUP2 PUSH1 0x0 DUP8 DUP1 EXTCODESIZE ISZERO DUP1 ISZERO PUSH2 0x145C JUMPI PUSH1 0x0 DUP1 REVERT JUMPDEST POP GAS CALL ISZERO DUP1 ISZERO PUSH2 0x1470 JUMPI RETURNDATASIZE PUSH1 0x0 DUP1 RETURNDATACOPY RETURNDATASIZE PUSH1 0x0 REVERT JUMPDEST POP POP POP POP POP POP POP POP PUSH1 0x0 PUSH2 0x1482 PUSH2 0x671 JUMP JUMPDEST PUSH20 0xFFFFFFFFFFFFFFFFFFFFFFFFFFFFFFFFFFFFFFFF AND PUSH4 0x851C1BB3 PUSH4 0x3A04F900 PUSH1 0xE0 SHL PUSH1 0x40 MLOAD DUP3 PUSH4 0xFFFFFFFF AND PUSH1 0xE0 SHL DUP2 MSTORE PUSH1 0x4 ADD DUP1 DUP3 PUSH28 0xFFFFFFFFFFFFFFFFFFFFFFFFFFFFFFFFFFFFFFFFFFFFFFFFFFFFFFFF NOT AND DUP2 MSTORE PUSH1 0x20 ADD SWAP2 POP POP PUSH1 0x20 PUSH1 0x40 MLOAD DUP1 DUP4 SUB DUP2 DUP7 DUP1 EXTCODESIZE ISZERO DUP1 ISZERO PUSH2 0x14F8 JUMPI PUSH1 0x0 DUP1 REVERT JUMPDEST POP GAS STATICCALL ISZERO DUP1 ISZERO PUSH2 0x150C JUMPI RETURNDATASIZE PUSH1 0x0 DUP1 RETURNDATACOPY RETURNDATASIZE PUSH1 0x0 REVERT JUMPDEST POP POP POP POP PUSH1 0x40 MLOAD RETURNDATASIZE PUSH1 0x20 DUP2 LT ISZERO PUSH2 0x1522 JUMPI PUSH1 0x0 DUP1 REVERT JUMPDEST POP MLOAD PUSH1 0x40 DUP1 MLOAD PUSH32 0x2F2FF15D00000000000000000000000000000000000000000000000000000000 DUP2 MSTORE PUSH1 0x4 DUP2 ADD DUP4 SWAP1 MSTORE PUSH20 0xFFFFFFFFFFFFFFFFFFFFFFFFFFFFFFFFFFFFFFFF PUSH32 0x0 DUP2 AND PUSH1 0x24 DUP4 ADD MSTORE SWAP2 MLOAD SWAP3 SWAP4 POP SWAP1 DUP5 AND SWAP2 PUSH4 0x2F2FF15D SWAP2 PUSH1 0x44 DUP1 DUP3 ADD SWAP3 PUSH1 0x0 SWAP3 SWAP1 SWAP2 SWAP1 DUP3 SWAP1 SUB ADD DUP2 DUP4 DUP8 DUP1 EXTCODESIZE ISZERO DUP1 ISZERO PUSH2 0x15BF JUMPI PUSH1 0x0 DUP1 REVERT JUMPDEST POP GAS CALL ISZERO DUP1 ISZERO PUSH2 0x15D3 JUMPI RETURNDATASIZE PUSH1 0x0 DUP1 RETURNDATACOPY RETURNDATASIZE PUSH1 0x0 REVERT JUMPDEST POP POP POP POP POP POP JUMP JUMPDEST PUSH1 0x0 PUSH2 0x15E5 PUSH2 0x50B JUMP JUMPDEST SWAP1 POP PUSH1 0x0 PUSH2 0x15F1 PUSH2 0x671 JUMP JUMPDEST PUSH20 0xFFFFFFFFFFFFFFFFFFFFFFFFFFFFFFFFFFFFFFFF AND PUSH4 0x851C1BB3 PUSH4 0x3A04F900 PUSH1 0xE0 SHL PUSH1 0x40 MLOAD DUP3 PUSH4 0xFFFFFFFF AND PUSH1 0xE0 SHL DUP2 MSTORE PUSH1 0x4 ADD DUP1 DUP3 PUSH28 0xFFFFFFFFFFFFFFFFFFFFFFFFFFFFFFFFFFFFFFFFFFFFFFFFFFFFFFFF NOT AND DUP2 MSTORE PUSH1 0x20 ADD SWAP2 POP POP PUSH1 0x20 PUSH1 0x40 MLOAD DUP1 DUP4 SUB DUP2 DUP7 DUP1 EXTCODESIZE ISZERO DUP1 ISZERO PUSH2 0x1667 JUMPI PUSH1 0x0 DUP1 REVERT JUMPDEST POP GAS STATICCALL ISZERO DUP1 ISZERO PUSH2 0x167B JUMPI RETURNDATASIZE PUSH1 0x0 DUP1 RETURNDATACOPY RETURNDATASIZE PUSH1 0x0 REVERT JUMPDEST POP POP POP POP PUSH1 0x40 MLOAD RETURNDATASIZE PUSH1 0x20 DUP2 LT ISZERO PUSH2 0x1691 JUMPI PUSH1 0x0 DUP1 REVERT JUMPDEST POP MLOAD PUSH1 0x40 DUP1 MLOAD PUSH32 0xD547741F00000000000000000000000000000000000000000000000000000000 DUP2 MSTORE PUSH1 0x4 DUP2 ADD DUP4 SWAP1 MSTORE PUSH20 0xFFFFFFFFFFFFFFFFFFFFFFFFFFFFFFFFFFFFFFFF PUSH32 0x0 DUP2 AND PUSH1 0x24 DUP4 ADD MSTORE SWAP2 MLOAD SWAP3 SWAP4 POP SWAP1 DUP5 AND SWAP2 PUSH4 0xD547741F SWAP2 PUSH1 0x44 DUP1 DUP3 ADD SWAP3 PUSH1 0x0 SWAP3 SWAP1 SWAP2 SWAP1 DUP3 SWAP1 SUB ADD DUP2 DUP4 DUP8 DUP1 EXTCODESIZE ISZERO DUP1 ISZERO PUSH2 0x15BF JUMPI PUSH1 0x0 DUP1 REVERT JUMPDEST PUSH32 0x8C379A000000000000000000000000000000000000000000000000000000000 PUSH1 0x0 SWAP1 DUP2 MSTORE PUSH1 0x20 PUSH1 0x4 MSTORE PUSH1 0x7 PUSH1 0x24 MSTORE PUSH1 0xA DUP1 DUP5 DIV DUP2 DUP2 MOD PUSH1 0x30 SWAP1 DUP2 ADD PUSH1 0x8 SHL SWAP6 DUP4 SWAP1 MOD SWAP6 SWAP1 SWAP6 ADD SWAP1 DUP3 SWAP1 DIV SWAP2 DUP3 MOD DUP6 ADD PUSH1 0x10 SHL ADD PUSH1 0x23 PUSH4 0xFFFFFF00 PUSH1 0xE0 DUP7 SWAP1 SHR AND ADD PUSH1 0x18 SHL ADD SWAP1 SWAP4 ADD PUSH1 0xC8 SHL PUSH1 0x44 MSTORE PUSH1 0xE8 DUP3 SWAP1 SHR SWAP1 PUSH1 0x64 SWAP1 REVERT JUMPDEST INVALID INVALID NUMBER PUSH16 0x6F7264696E61746F7220737461676573 KECCAK256 PUSH2 0x6C72 PUSH6 0x616479207265 PUSH8 0x69737465726564A2 PUSH5 0x6970667358 0x22 SLT KECCAK256 0xE3 PUSH9 0x2FAD4032AD56069484 SLT 0xCE 0xD8 BLOCKHASH 0x22 EQ PUSH15 0x9D40BDD16A85EA8FC4F0BA40B86C64 PUSH20 0x6F6C63430007010033476175676520636F6E7472 PUSH16 0x6C6C657220646F65736E2774206D6174 PUSH4 0x68206F6E KECCAK256 PUSH2 0x6464 PUSH6 0x727300000000 "},"methodIdentifiers":{"arbitrumRootGaugeFactory()":"adcce535","ethereumGaugeFactory()":"63be9df9","gaugeCheckpointingMultisig()":"321abfae","gaugeController()":"99eecb3b","getActionId(bytes4)":"851c1bb3","getAuthorizer()":"aaabadc5","getAuthorizerAdaptor()":"e758d36b","getCurrentStage()":"eedbe31d","getStageActivationTime(uint256)":"2b116172","getStagesLength()":"da28cef7","getVault()":"8d928af8","isComplete()":"b2fa1c9e","liquidityMiningCommitteeMultisig()":"483bc233","newGaugeAdder()":"0f42a2c1","oldGaugeAdder()":"59ff345c","optimismRootGaugeFactory()":"b07c0cdc","performNextStage()":"1f24cfc7","polygonRootGaugeFactory()":"fd74e435","registerStages()":"d6076a6c"}}}}}