{"@balancer-labs/v2-vault/contracts/authorizer/TimelockAuthorizer.sol":{"TimelockAuthorizer":{"abi":[{"inputs":[{"internalType":"address","name":"initialRoot","type":"address"},{"internalType":"address","name":"nextRoot","type":"address"},{"internalType":"contract IAuthorizerAdaptorEntrypoint","name":"authorizerAdaptorEntrypoint","type":"address"},{"internalType":"uint256","name":"rootTransferDelay","type":"uint256"}],"stateMutability":"nonpayable","type":"constructor"},{"anonymous":false,"inputs":[{"indexed":true,"internalType":"bytes32","name":"actionId","type":"bytes32"},{"indexed":false,"internalType":"uint256","name":"delay","type":"uint256"}],"name":"ActionDelaySet","type":"event"},{"anonymous":false,"inputs":[{"indexed":true,"internalType":"uint256","name":"scheduledExecutionId","type":"uint256"},{"indexed":true,"internalType":"address","name":"canceler","type":"address"}],"name":"CancelerAdded","type":"event"},{"anonymous":false,"inputs":[{"indexed":true,"internalType":"uint256","name":"scheduledExecutionId","type":"uint256"},{"indexed":true,"internalType":"address","name":"canceler","type":"address"}],"name":"CancelerRemoved","type":"event"},{"anonymous":false,"inputs":[{"indexed":true,"internalType":"bytes32","name":"actionId","type":"bytes32"},{"indexed":true,"internalType":"uint256","name":"newDelay","type":"uint256"},{"indexed":true,"internalType":"uint256","name":"scheduledExecutionId","type":"uint256"}],"name":"DelayChangeScheduled","type":"event"},{"anonymous":false,"inputs":[{"indexed":true,"internalType":"uint256","name":"scheduledExecutionId","type":"uint256"}],"name":"ExecutionCancelled","type":"event"},{"anonymous":false,"inputs":[{"indexed":true,"internalType":"uint256","name":"scheduledExecutionId","type":"uint256"}],"name":"ExecutionExecuted","type":"event"},{"anonymous":false,"inputs":[{"indexed":true,"internalType":"bytes32","name":"actionId","type":"bytes32"},{"indexed":true,"internalType":"uint256","name":"scheduledExecutionId","type":"uint256"}],"name":"ExecutionScheduled","type":"event"},{"anonymous":false,"inputs":[{"indexed":true,"internalType":"uint256","name":"scheduledExecutionId","type":"uint256"},{"indexed":true,"internalType":"address","name":"executor","type":"address"}],"name":"ExecutorAdded","type":"event"},{"anonymous":false,"inputs":[{"indexed":true,"internalType":"bytes32","name":"actionId","type":"bytes32"},{"indexed":true,"internalType":"uint256","name":"newDelay","type":"uint256"},{"indexed":true,"internalType":"uint256","name":"scheduledExecutionId","type":"uint256"}],"name":"GrantDelayChangeScheduled","type":"event"},{"anonymous":false,"inputs":[{"indexed":true,"internalType":"bytes32","name":"actionId","type":"bytes32"},{"indexed":false,"internalType":"uint256","name":"delay","type":"uint256"}],"name":"GrantDelaySet","type":"event"},{"anonymous":false,"inputs":[{"indexed":true,"internalType":"bytes32","name":"actionId","type":"bytes32"},{"indexed":true,"internalType":"address","name":"account","type":"address"},{"indexed":true,"internalType":"address","name":"where","type":"address"},{"indexed":false,"internalType":"uint256","name":"scheduledExecutionId","type":"uint256"}],"name":"GrantPermissionScheduled","type":"event"},{"anonymous":false,"inputs":[{"indexed":true,"internalType":"bytes32","name":"actionId","type":"bytes32"},{"indexed":true,"internalType":"address","name":"account","type":"address"},{"indexed":true,"internalType":"address","name":"where","type":"address"}],"name":"GranterAdded","type":"event"},{"anonymous":false,"inputs":[{"indexed":true,"internalType":"bytes32","name":"actionId","type":"bytes32"},{"indexed":true,"internalType":"address","name":"account","type":"address"},{"indexed":true,"internalType":"address","name":"where","type":"address"}],"name":"GranterRemoved","type":"event"},{"anonymous":false,"inputs":[{"indexed":true,"internalType":"address","name":"pendingRoot","type":"address"}],"name":"PendingRootSet","type":"event"},{"anonymous":false,"inputs":[{"indexed":true,"internalType":"bytes32","name":"actionId","type":"bytes32"},{"indexed":true,"internalType":"address","name":"account","type":"address"},{"indexed":true,"internalType":"address","name":"where","type":"address"}],"name":"PermissionGranted","type":"event"},{"anonymous":false,"inputs":[{"indexed":true,"internalType":"bytes32","name":"actionId","type":"bytes32"},{"indexed":true,"internalType":"address","name":"account","type":"address"},{"indexed":true,"internalType":"address","name":"where","type":"address"}],"name":"PermissionRevoked","type":"event"},{"anonymous":false,"inputs":[{"indexed":true,"internalType":"bytes32","name":"actionId","type":"bytes32"},{"indexed":true,"internalType":"uint256","name":"newDelay","type":"uint256"},{"indexed":true,"internalType":"uint256","name":"scheduledExecutionId","type":"uint256"}],"name":"RevokeDelayChangeScheduled","type":"event"},{"anonymous":false,"inputs":[{"indexed":true,"internalType":"bytes32","name":"actionId","type":"bytes32"},{"indexed":false,"internalType":"uint256","name":"delay","type":"uint256"}],"name":"RevokeDelaySet","type":"event"},{"anonymous":false,"inputs":[{"indexed":true,"internalType":"bytes32","name":"actionId","type":"bytes32"},{"indexed":true,"internalType":"address","name":"account","type":"address"},{"indexed":true,"internalType":"address","name":"where","type":"address"},{"indexed":false,"internalType":"uint256","name":"scheduledExecutionId","type":"uint256"}],"name":"RevokePermissionScheduled","type":"event"},{"anonymous":false,"inputs":[{"indexed":true,"internalType":"address","name":"account","type":"address"},{"indexed":true,"internalType":"address","name":"where","type":"address"}],"name":"RevokerAdded","type":"event"},{"anonymous":false,"inputs":[{"indexed":true,"internalType":"address","name":"account","type":"address"},{"indexed":true,"internalType":"address","name":"where","type":"address"}],"name":"RevokerRemoved","type":"event"},{"anonymous":false,"inputs":[{"indexed":true,"internalType":"address","name":"newRoot","type":"address"},{"indexed":true,"internalType":"uint256","name":"scheduledExecutionId","type":"uint256"}],"name":"RootChangeScheduled","type":"event"},{"anonymous":false,"inputs":[{"indexed":true,"internalType":"address","name":"root","type":"address"}],"name":"RootSet","type":"event"},{"inputs":[],"name":"EVERYWHERE","outputs":[{"internalType":"address","name":"","type":"address"}],"stateMutability":"pure","type":"function"},{"inputs":[],"name":"GLOBAL_CANCELER_SCHEDULED_EXECUTION_ID","outputs":[{"internalType":"uint256","name":"","type":"uint256"}],"stateMutability":"pure","type":"function"},{"inputs":[],"name":"MAX_DELAY","outputs":[{"internalType":"uint256","name":"","type":"uint256"}],"stateMutability":"pure","type":"function"},{"inputs":[],"name":"MINIMUM_CHANGE_DELAY_EXECUTION_DELAY","outputs":[{"internalType":"uint256","name":"","type":"uint256"}],"stateMutability":"pure","type":"function"},{"inputs":[{"internalType":"uint256","name":"scheduledExecutionId","type":"uint256"},{"internalType":"address","name":"account","type":"address"}],"name":"addCanceler","outputs":[],"stateMutability":"nonpayable","type":"function"},{"inputs":[{"internalType":"bytes32","name":"actionId","type":"bytes32"},{"internalType":"address","name":"account","type":"address"},{"internalType":"address","name":"where","type":"address"}],"name":"addGranter","outputs":[],"stateMutability":"nonpayable","type":"function"},{"inputs":[{"internalType":"address","name":"account","type":"address"},{"internalType":"address","name":"where","type":"address"}],"name":"addRevoker","outputs":[],"stateMutability":"nonpayable","type":"function"},{"inputs":[{"internalType":"uint256","name":"scheduledExecutionId","type":"uint256"}],"name":"canExecute","outputs":[{"internalType":"bool","name":"","type":"bool"}],"stateMutability":"view","type":"function"},{"inputs":[{"internalType":"bytes32","name":"actionId","type":"bytes32"},{"internalType":"address","name":"account","type":"address"},{"internalType":"address","name":"where","type":"address"}],"name":"canPerform","outputs":[{"internalType":"bool","name":"","type":"bool"}],"stateMutability":"view","type":"function"},{"inputs":[{"internalType":"uint256","name":"scheduledExecutionId","type":"uint256"}],"name":"cancel","outputs":[],"stateMutability":"nonpayable","type":"function"},{"inputs":[],"name":"claimRoot","outputs":[],"stateMutability":"nonpayable","type":"function"},{"inputs":[{"internalType":"uint256","name":"scheduledExecutionId","type":"uint256"}],"name":"execute","outputs":[{"internalType":"bytes","name":"result","type":"bytes"}],"stateMutability":"nonpayable","type":"function"},{"inputs":[{"internalType":"bytes32","name":"actionId","type":"bytes32"}],"name":"getActionIdDelay","outputs":[{"internalType":"uint256","name":"","type":"uint256"}],"stateMutability":"view","type":"function"},{"inputs":[{"internalType":"bytes32","name":"actionId","type":"bytes32"}],"name":"getActionIdGrantDelay","outputs":[{"internalType":"uint256","name":"","type":"uint256"}],"stateMutability":"view","type":"function"},{"inputs":[{"internalType":"bytes32","name":"actionId","type":"bytes32"}],"name":"getActionIdRevokeDelay","outputs":[{"internalType":"uint256","name":"","type":"uint256"}],"stateMutability":"view","type":"function"},{"inputs":[],"name":"getPendingRoot","outputs":[{"internalType":"address","name":"","type":"address"}],"stateMutability":"view","type":"function"},{"inputs":[{"internalType":"bytes32","name":"actionId","type":"bytes32"},{"internalType":"address","name":"account","type":"address"},{"internalType":"address","name":"where","type":"address"}],"name":"getPermissionId","outputs":[{"internalType":"bytes32","name":"","type":"bytes32"}],"stateMutability":"pure","type":"function"},{"inputs":[],"name":"getRoot","outputs":[{"internalType":"address","name":"","type":"address"}],"stateMutability":"view","type":"function"},{"inputs":[],"name":"getRootTransferDelay","outputs":[{"internalType":"uint256","name":"","type":"uint256"}],"stateMutability":"view","type":"function"},{"inputs":[{"internalType":"uint256","name":"scheduledExecutionId","type":"uint256"}],"name":"getScheduledExecution","outputs":[{"components":[{"internalType":"address","name":"where","type":"address"},{"internalType":"bytes","name":"data","type":"bytes"},{"internalType":"bool","name":"executed","type":"bool"},{"internalType":"bool","name":"cancelled","type":"bool"},{"internalType":"bool","name":"protected","type":"bool"},{"internalType":"uint256","name":"executableAt","type":"uint256"}],"internalType":"struct ITimelockAuthorizer.ScheduledExecution","name":"","type":"tuple"}],"stateMutability":"view","type":"function"},{"inputs":[],"name":"getTimelockExecutionHelper","outputs":[{"internalType":"address","name":"","type":"address"}],"stateMutability":"view","type":"function"},{"inputs":[],"name":"getVault","outputs":[{"internalType":"address","name":"","type":"address"}],"stateMutability":"view","type":"function"},{"inputs":[{"internalType":"bytes32","name":"actionId","type":"bytes32"},{"internalType":"address","name":"account","type":"address"},{"internalType":"address","name":"where","type":"address"}],"name":"grantPermission","outputs":[],"stateMutability":"nonpayable","type":"function"},{"inputs":[{"internalType":"bytes32","name":"actionId","type":"bytes32"},{"internalType":"address","name":"account","type":"address"},{"internalType":"address","name":"where","type":"address"}],"name":"hasPermission","outputs":[{"internalType":"bool","name":"","type":"bool"}],"stateMutability":"view","type":"function"},{"inputs":[{"internalType":"uint256","name":"scheduledExecutionId","type":"uint256"},{"internalType":"address","name":"account","type":"address"}],"name":"isCanceler","outputs":[{"internalType":"bool","name":"","type":"bool"}],"stateMutability":"view","type":"function"},{"inputs":[{"internalType":"uint256","name":"scheduledExecutionId","type":"uint256"},{"internalType":"address","name":"account","type":"address"}],"name":"isExecutor","outputs":[{"internalType":"bool","name":"","type":"bool"}],"stateMutability":"view","type":"function"},{"inputs":[{"internalType":"bytes32","name":"actionId","type":"bytes32"},{"internalType":"address","name":"account","type":"address"},{"internalType":"address","name":"where","type":"address"}],"name":"isGranter","outputs":[{"internalType":"bool","name":"","type":"bool"}],"stateMutability":"view","type":"function"},{"inputs":[{"internalType":"address","name":"account","type":"address"}],"name":"isPendingRoot","outputs":[{"internalType":"bool","name":"","type":"bool"}],"stateMutability":"view","type":"function"},{"inputs":[{"internalType":"bytes32","name":"actionId","type":"bytes32"},{"internalType":"address","name":"account","type":"address"},{"internalType":"address","name":"where","type":"address"}],"name":"isPermissionGrantedOnTarget","outputs":[{"internalType":"bool","name":"","type":"bool"}],"stateMutability":"view","type":"function"},{"inputs":[{"internalType":"address","name":"account","type":"address"},{"internalType":"address","name":"where","type":"address"}],"name":"isRevoker","outputs":[{"internalType":"bool","name":"","type":"bool"}],"stateMutability":"view","type":"function"},{"inputs":[{"internalType":"address","name":"account","type":"address"}],"name":"isRoot","outputs":[{"internalType":"bool","name":"","type":"bool"}],"stateMutability":"view","type":"function"},{"inputs":[{"internalType":"uint256","name":"scheduledExecutionId","type":"uint256"},{"internalType":"address","name":"account","type":"address"}],"name":"removeCanceler","outputs":[],"stateMutability":"nonpayable","type":"function"},{"inputs":[{"internalType":"bytes32","name":"actionId","type":"bytes32"},{"internalType":"address","name":"account","type":"address"},{"internalType":"address","name":"where","type":"address"}],"name":"removeGranter","outputs":[],"stateMutability":"nonpayable","type":"function"},{"inputs":[{"internalType":"address","name":"account","type":"address"},{"internalType":"address","name":"where","type":"address"}],"name":"removeRevoker","outputs":[],"stateMutability":"nonpayable","type":"function"},{"inputs":[{"internalType":"bytes32","name":"actionId","type":"bytes32"},{"internalType":"address","name":"where","type":"address"}],"name":"renouncePermission","outputs":[],"stateMutability":"nonpayable","type":"function"},{"inputs":[{"internalType":"bytes32","name":"actionId","type":"bytes32"},{"internalType":"address","name":"account","type":"address"},{"internalType":"address","name":"where","type":"address"}],"name":"revokePermission","outputs":[],"stateMutability":"nonpayable","type":"function"},{"inputs":[{"internalType":"address","name":"where","type":"address"},{"internalType":"bytes","name":"data","type":"bytes"},{"internalType":"address[]","name":"executors","type":"address[]"}],"name":"schedule","outputs":[{"internalType":"uint256","name":"","type":"uint256"}],"stateMutability":"nonpayable","type":"function"},{"inputs":[{"internalType":"bytes32","name":"actionId","type":"bytes32"},{"internalType":"uint256","name":"newDelay","type":"uint256"},{"internalType":"address[]","name":"executors","type":"address[]"}],"name":"scheduleDelayChange","outputs":[{"internalType":"uint256","name":"","type":"uint256"}],"stateMutability":"nonpayable","type":"function"},{"inputs":[{"internalType":"bytes32","name":"actionId","type":"bytes32"},{"internalType":"uint256","name":"newDelay","type":"uint256"},{"internalType":"address[]","name":"executors","type":"address[]"}],"name":"scheduleGrantDelayChange","outputs":[{"internalType":"uint256","name":"","type":"uint256"}],"stateMutability":"nonpayable","type":"function"},{"inputs":[{"internalType":"bytes32","name":"actionId","type":"bytes32"},{"internalType":"address","name":"account","type":"address"},{"internalType":"address","name":"where","type":"address"},{"internalType":"address[]","name":"executors","type":"address[]"}],"name":"scheduleGrantPermission","outputs":[{"internalType":"uint256","name":"","type":"uint256"}],"stateMutability":"nonpayable","type":"function"},{"inputs":[{"internalType":"bytes32","name":"actionId","type":"bytes32"},{"internalType":"uint256","name":"newDelay","type":"uint256"},{"internalType":"address[]","name":"executors","type":"address[]"}],"name":"scheduleRevokeDelayChange","outputs":[{"internalType":"uint256","name":"","type":"uint256"}],"stateMutability":"nonpayable","type":"function"},{"inputs":[{"internalType":"bytes32","name":"actionId","type":"bytes32"},{"internalType":"address","name":"account","type":"address"},{"internalType":"address","name":"where","type":"address"},{"internalType":"address[]","name":"executors","type":"address[]"}],"name":"scheduleRevokePermission","outputs":[{"internalType":"uint256","name":"","type":"uint256"}],"stateMutability":"nonpayable","type":"function"},{"inputs":[{"internalType":"address","name":"newRoot","type":"address"},{"internalType":"address[]","name":"executors","type":"address[]"}],"name":"scheduleRootChange","outputs":[{"internalType":"uint256","name":"","type":"uint256"}],"stateMutability":"nonpayable","type":"function"},{"inputs":[{"internalType":"bytes32","name":"actionId","type":"bytes32"},{"internalType":"uint256","name":"delay","type":"uint256"}],"name":"setDelay","outputs":[],"stateMutability":"nonpayable","type":"function"},{"inputs":[{"internalType":"bytes32","name":"actionId","type":"bytes32"},{"internalType":"uint256","name":"delay","type":"uint256"}],"name":"setGrantDelay","outputs":[],"stateMutability":"nonpayable","type":"function"},{"inputs":[{"internalType":"address","name":"pendingRoot","type":"address"}],"name":"setPendingRoot","outputs":[],"stateMutability":"nonpayable","type":"function"},{"inputs":[{"internalType":"bytes32","name":"actionId","type":"bytes32"},{"internalType":"uint256","name":"delay","type":"uint256"}],"name":"setRevokeDelay","outputs":[],"stateMutability":"nonpayable","type":"function"}],"evm":{"bytecode":{"linkReferences":{},"object":"6101206040523480156200001257600080fd5b50604051620041003803806200410083398101604081905262000035916200025b565b8383836001600160a01b0316638d928af86040518163ffffffff1660e01b815260040160206040518083038186803b1580156200007157600080fd5b505afa15801562000086573d6000803e3d6000fd5b505050506040513d601f19601f82011682018060405250810190620000ac9190620002b4565b83620000b884620001bb565b620000c38362000203565b6001600160601b0319606083901b1660a052604051620000e3906200024d565b604051809103906000f08015801562000100573d6000803e3d6000fd5b5060601b6001600160601b03191660805260c05250506040805163e758d36b60e01b815290516001600160a01b038516925063e758d36b91600480820192602092909190829003018186803b1580156200015957600080fd5b505afa1580156200016e573d6000803e3d6000fd5b505050506040513d601f19601f82011682018060405250810190620001949190620002b4565b6001600160601b0319606091821b81166101005292901b90911660e05250620002f3915050565b600080546001600160a01b0319166001600160a01b038316908117825560405190917f39510b933a9d010f906528d6019d3f4e2450a10dc33b10887503b31ed82f111191a250565b600180546001600160a01b0319166001600160a01b0383169081179091556040517f566fe119ff450afc2580186c62762b6c1258245c8b1b6bb095e7276eb5a75b5590600090a250565b6104ef8062003c1183390190565b6000806000806080858703121562000271578384fd5b84516200027e81620002da565b60208601519094506200029181620002da565b6040860151909350620002a481620002da565b6060959095015193969295505050565b600060208284031215620002c6578081fd5b8151620002d381620002da565b9392505050565b6001600160a01b0381168114620002f057600080fd5b50565b60805160601c60a05160601c60c05160e05160601c6101005160601c6138b9620003586000398061196d525080611995525080611cca5250806117e95250806106c15280610a755280610aa25280611d76528061201a52806122e952506138b96000f3fe608060405234801561001057600080fd5b50600436106103155760003560e01c8063863bac6b116101a7578063b3eb281d116100ee578063d00bef4d11610097578063f0bb940611610071578063f0bb94061461062f578063f6ebcbaf14610642578063fe0d94c11461065557610315565b8063d00bef4d14610601578063e2b4146b14610609578063f08455221461061c57610315565b8063c6192ee3116100c8578063c6192ee3146105c8578063c80c23e1146105db578063cc63604a146105ee57610315565b8063b3eb281d1461059a578063b99db526146105ad578063c284b6b9146105c057610315565b80639299942e11610150578063a44495d11161012a578063a44495d11461056c578063a8eae12d1461057f578063b1e31aa01461059257610315565b80639299942e1461053e57806399a7f6e2146105465780639be2a8841461055957610315565b80638cc3d072116101815780638cc3d072146105105780638d928af814610523578063902168121461052b57610315565b8063863bac6b146104d757806386ff254b146104ea5780638bd6bbc9146104fd57610315565b80633bf467971161026b5780635ca1e1651161021457806363cdbf36116101ee57806363cdbf36146104915780636badd2ab146104a457806372efb120146104c457610315565b80635ca1e1651461046e578063608dd7e41461047657806362cde1ba1461048957610315565b80634125ff90116102455780634125ff9014610440578063557a6403146104485780635b78b7801461045b57610315565b80633bf46797146104075780633e1df46d1461041a57806340e58ee51461042d57610315565b806318ef871a116102cd5780632362716d116102a75780632362716d146103ce5780632e3ed05b146103e15780633ac5d439146103f457610315565b806318ef871a146103935780631b3c85eb146103a85780632229edb4146103bb57610315565b806310d3ab2c116102fe57806310d3ab2c1461035657806314ea35e71461036b578063169f14681461037357610315565b8063044346061461031a5780630df322a614610343575b600080fd5b61032d610328366004612c1a565b610675565b60405161033a9190612ed3565b60405180910390f35b61032d610351366004612a9b565b6106a2565b610369610364366004612ce2565b6106b6565b005b61036961077b565b610386610381366004612b37565b6107bc565b60405161033a9190612ede565b61039b610a73565b60405161033a9190612e24565b6103696103b6366004612a9b565b610a97565b6103696103c9366004612c3d565b610ae8565b6103866103dc366004612c3d565b610ba0565b6103866103ef366004612aea565b610bd6565b610369610402366004612c3d565b610ccf565b610386610415366004612bea565b610d55565b61032d610428366004612c1a565b610d67565b61036961043b366004612bea565b610dd9565b610386610eee565b61032d610456366004612a9b565b610ef6565b610386610469366004612c7a565b610f0a565b61039b61105d565b610386610484366004612d03565b61106c565b61039b61119c565b61038661049f366004612d03565b6111c0565b6104b76104b2366004612bea565b6112f0565b60405161033a9190613793565b6103696104d2366004612c1a565b611428565b6103866104e5366004612c7a565b611573565b61032d6104f8366004612c3d565b61169c565b61038661050b366004612bea565b6116c9565b61036961051e366004612c3d565b6116db565b61039b6117e7565b610369610539366004612ab6565b61180b565b61038661119c565b610369610554366004612c1a565b611951565b61032d610567366004612c3d565b611960565b61036961057a366004612ab6565b611a17565b61036961058d366004612c3d565b611ac0565b610386611c1f565b61032d6105a8366004612c3d565b611c26565b6103866105bb366004612bea565b611cb6565b610386611cc8565b61032d6105d6366004612ab6565b611cec565b6103696105e9366004612ce2565b611d6b565b61032d6105fc366004612bea565b611e1b565b61039b611e94565b61032d610617366004612c3d565b611ea3565b61038661062a366004612d03565b611edf565b61036961063d366004612ce2565b61200f565b610369610650366004612c1a565b612184565b610668610663366004612bea565b6121b3565b60405161033a9190612f41565b60008281526002602090815260408083206001600160a01b038516845290915290205460ff165b92915050565b6001546001600160a01b0390811691161490565b336001600160a01b037f000000000000000000000000000000000000000000000000000000000000000016146107075760405162461bcd60e51b81526004016106fe90613536565b60405180910390fd5b610710816123ae565b61072c5760405162461bcd60e51b81526004016106fe90613121565b600082815260076020526040908190208290555182907f6922a4f4deeb55fdca50df28a72475aa87f9f1377ed93a95842ce8bc69dc01e89061076f908490612ede565b60405180910390a25050565b6001546001600160a01b03163381146107a65760405162461bcd60e51b81526004016106fe906133ec565b6107af81612489565b6107b960006124e9565b50565b60006001600160a01b0384163014156107e75760405162461bcd60e51b81526004016106fe90613056565b6107ef610a73565b6001600160a01b0316846001600160a01b031614156108205760405162461bcd60e51b81526004016106fe90612f54565b6004835110156108425760405162461bcd60e51b81526004016106fe90613234565b600060188460038151811061085357fe5b016020015185517fff0000000000000000000000000000000000000000000000000000000000000090911690911c906010908690600290811061089257fe5b016020015186517fff0000000000000000000000000000000000000000000000000000000000000090911690911c90600890879060019081106108d157fe5b016020015187517fff0000000000000000000000000000000000000000000000000000000000000090911690911c90879060009061090b57fe5b602001015160f81c60f81b7effffffffffffffffffffffffffffffffffffffffffffffffffffffffffffff191617171790506000856001600160a01b031663851c1bb3836040518263ffffffff1660e01b815260040161096b9190612f14565b60206040518083038186803b15801561098357600080fd5b505afa158015610997573d6000803e3d6000fd5b505050506040513d601f19601f820116820180604052508101906109bb9190612c02565b90506109c8813388611ea3565b6109e45760405162461bcd60e51b81526004016106fe9061326b565b6000818152600a602052604090205480610a105760405162461bcd60e51b81526004016106fe906132a2565b6000610a1e8888848961254b565b905080837f26ce5ffb7ab1ce72d9ca4a3e4f906d2b99194d6c53dd9832fd7a59d0b2fc6bed60405160405180910390a3610a588133610d67565b610a6657610a6681336127f0565b93505050505b9392505050565b7f000000000000000000000000000000000000000000000000000000000000000090565b336001600160a01b037f00000000000000000000000000000000000000000000000000000000000000001614610adf5760405162461bcd60e51b81526004016106fe90613536565b6107b9816124e9565b610af133610ef6565b610b0d5760405162461bcd60e51b81526004016106fe90613347565b610b18838383611c26565b15610b355760405162461bcd60e51b81526004016106fe90613158565b60008381526003602090815260408083206001600160a01b038087168086529184528285209086168086529352818420805460ff1916600117905590519192909186917f2d106cf4379aad979c25af765e6f7169b732d4c4660e41aa733a150c7fc0a6f791a4505050565b6000838383604051602001610bb793929190612de6565b6040516020818303038152906040528051906020012090509392505050565b6000610be133610ef6565b610bfd5760405162461bcd60e51b81526004016106fe90613347565b6060631b3c85eb60e01b84604051602401610c189190612e24565b60408051601f198184030181529190526020810180517bffffffffffffffffffffffffffffffffffffffffffffffffffffffff167fffffffff000000000000000000000000000000000000000000000000000000009093169290921790915290506000610c8e3083610c88611cc8565b8761254b565b905080856001600160a01b03167f7de09ff5f925ca34a396df31b30cdbdd0cd10b88833b4f7334cecc02454c1be760405160405180910390a3949350505050565b600083815260086020526040902054610d0d57610cec3382611cec565b610d085760405162461bcd60e51b81526004016106fe90613310565b610d45565b610d15610a73565b6001600160a01b0316336001600160a01b031614610d455760405162461bcd60e51b81526004016106fe906133b5565b610d50838383612872565b505050565b6000908152600a602052604090205490565b60008281526005602090815260408083206001600160a01b038516845290915281205460ff1680610dca575060056000610d9f61119c565b8152602080820192909252604090810160009081206001600160a01b038616825290925290205460ff165b80610a6c5750610a6c82610ef6565b6006548110610dfa5760405162461bcd60e51b81526004016106fe90613612565b600060068281548110610e0957fe5b60009182526020909120600490910201600281015490915060ff1615610e415760405162461bcd60e51b81526004016106fe90613649565b6002810154610100900460ff1615610e6b5760405162461bcd60e51b81526004016106fe906134ff565b610e758233610d67565b610e915760405162461bcd60e51b81526004016106fe9061375c565b6002810180547fffffffffffffffffffffffffffffffffffffffffffffffffffffffffffff00ff1661010017905560405182907f2a6bef66de603fc0ec07223576486bd905cd9bb6e05364286d9a5cd1be046ae690600090a25050565b6303c2670090565b6000546001600160a01b0390811691161490565b6000610f163384611cec565b610f325760405162461bcd60e51b81526004016106fe90613310565b60008581526008602052604090205480610f5e5760405162461bcd60e51b81526004016106fe9061345a565b6060633ac5d43960e01b878787604051602401610f7d93929190612ee7565b60408051601f198184030181529190526020810180517bffffffffffffffffffffffffffffffffffffffffffffffffffffffff167fffffffff000000000000000000000000000000000000000000000000000000009093169290921790915290506000610fec3083858861254b565b9050856001600160a01b0316876001600160a01b0316897f645fdc5699106b1dffda57f54fdcca22ad57d87f0afd651edf857af3bfbd8784846040516110329190612ede565b60405180910390a46110448133610d67565b6110525761105281336127f0565b979650505050505050565b6000546001600160a01b031690565b600061107733610ef6565b6110935760405162461bcd60e51b81526004016106fe90613347565b61109b610eee565b8311156110ba5760405162461bcd60e51b81526004016106fe90613423565b6000848152600860205260408120546110d39085612903565b9050606063c80c23e160e01b86866040516024016110f2929190612f06565b60408051601f198184030181529190526020810180517bffffffffffffffffffffffffffffffffffffffffffffffffffffffff167fffffffff0000000000000000000000000000000000000000000000000000000090931692909217909152905060006111613083858861254b565b90508086887f2f330faf5e23fc7ff1c46f2b1a3299d86249055a5bf74a8b747ab7fb66f6dc9f60405160405180910390a49695505050505050565b7fffffffffffffffffffffffffffffffffffffffffffffffffffffffffffffffff90565b60006111cb33610ef6565b6111e75760405162461bcd60e51b81526004016106fe90613347565b6111ef610eee565b83111561120e5760405162461bcd60e51b81526004016106fe90613423565b6000848152600760205260408120546112279085612903565b905060606310d3ab2c60e01b8686604051602401611246929190612f06565b60408051601f198184030181529190526020810180517bffffffffffffffffffffffffffffffffffffffffffffffffffffffff167fffffffff0000000000000000000000000000000000000000000000000000000090931692909217909152905060006112b53083858861254b565b90508086887f3d8c3ad02346a1ddf099dd26578662fb8cf85903168ebfeb1f14473fed8ee48860405160405180910390a49695505050505050565b6112f8612933565b6006828154811061130557fe5b60009182526020918290206040805160c081018252600490930290910180546001600160a01b03168352600180820180548451601f60027fffffffffffffffffffffffffffffffffffffffffffffffffffffffffffffffff95841615610100029590950190921693909304908101879004870283018701909452838252939491938583019391929091908301828280156113e05780601f106113b5576101008083540402835291602001916113e0565b820191906000526020600020905b8154815290600101906020018083116113c357829003601f168201915b5050509183525050600282015460ff80821615156020840152610100820481161515604084015262010000909104161515606082015260039091015460809091015292915050565b61143133610ef6565b61144d5760405162461bcd60e51b81526004016106fe90613347565b61145681610ef6565b156114735760405162461bcd60e51b81526004016106fe90612fb1565b6005600061147f61119c565b8152602080820192909252604090810160009081206001600160a01b038516825290925290205460ff16156114d9576114b661119c565b82146114d45760405162461bcd60e51b81526004016106fe9061356d565b61151b565b60008281526005602090815260408083206001600160a01b038516845290915290205460ff1661151b5760405162461bcd60e51b81526004016106fe906135a4565b60008281526005602090815260408083206001600160a01b0385168085529252808320805460ff1916905551909184917fd6b522eb4b505a0843020e304ba27d827b52c89347e6176b2f2737e6e4015c2d9190a35050565b6000611580853385611c26565b61159c5760405162461bcd60e51b81526004016106fe906130b3565b600085815260076020526040902054806115c85760405162461bcd60e51b81526004016106fe906131fd565b6060638cc3d07260e01b8787876040516024016115e793929190612ee7565b60408051601f198184030181529190526020810180517bffffffffffffffffffffffffffffffffffffffffffffffffffffffff167fffffffff0000000000000000000000000000000000000000000000000000000090931692909217909152905060006116563083858861254b565b9050856001600160a01b0316876001600160a01b0316897f185f04ff33c89687859342776c7fdcf04d9eb9444d65192bfebab5a5ac9874a8846040516110329190612ede565b6000600960006116ad868686610ba0565b815260208101919091526040016000205460ff16949350505050565b60009081526007602052604090205490565b60008381526007602052604090205461171a576116f9833383611c26565b6117155760405162461bcd60e51b81526004016106fe906130b3565b611752565b611722610a73565b6001600160a01b0316336001600160a01b0316146117525760405162461bcd60e51b81526004016106fe906135db565b600061175f848484610ba0565b60008181526009602052604090205490915060ff16156117915760405162461bcd60e51b81526004016106fe9061301f565b600081815260096020526040808220805460ff19166001179055516001600160a01b03808516929086169187917fef6ee312a0062a24a46be2eba5284183a87ff848110e8d4df979bd690d9e9f6891a450505050565b7f000000000000000000000000000000000000000000000000000000000000000090565b61181433610ef6565b6118305760405162461bcd60e51b81526004016106fe90613347565b61183a8282611cec565b6118565760405162461bcd60e51b81526004016106fe90613680565b61185f82610ef6565b1561187c5760405162461bcd60e51b81526004016106fe9061337e565b6001600160a01b03821660009081526004602052604081209061189d61119c565b6001600160a01b0316815260208101919091526040016000205460ff16156118f7576118c761119c565b6001600160a01b0316816001600160a01b0316146118f75760405162461bcd60e51b81526004016106fe906132d9565b6001600160a01b03808316600081815260046020908152604080832094861680845294909152808220805460ff19169055517fb6fe3ab11eb9ab1d9f1d41c8f42a5d72d10122099ba1548e4a6d1a4d8cefec4b9190a35050565b61195c823383612872565b5050565b6000336001600160a01b037f00000000000000000000000000000000000000000000000000000000000000001614156119cf577f00000000000000000000000000000000000000000000000000000000000000006001600160a01b0316836001600160a01b0316149050610a6c565b6000848152600a602052604090205415611a04576119eb610a73565b6001600160a01b0316836001600160a01b031614611a0f565b611a0f848484611ea3565b949350505050565b611a2033610ef6565b611a3c5760405162461bcd60e51b81526004016106fe90613347565b611a468282611cec565b15611a635760405162461bcd60e51b81526004016106fe90613725565b6001600160a01b03808316600081815260046020908152604080832094861680845294909152808220805460ff19166001179055517f2b5f18afd9a7b21f41bf023b012b3d4c8a22a21b79fa425cd4494ecbe29701969190a35050565b611ac933610ef6565b611ae55760405162461bcd60e51b81526004016106fe90613347565b611af0838383611c26565b611b0c5760405162461bcd60e51b81526004016106fe90613491565b611b1582610ef6565b15611b325760405162461bcd60e51b81526004016106fe906136ee565b60008381526003602090815260408083206001600160a01b0386168452909152812090611b5d61119c565b6001600160a01b0316815260208101919091526040016000205460ff1615611bb757611b8761119c565b6001600160a01b0316816001600160a01b031614611bb75760405162461bcd60e51b81526004016106fe90612fe8565b60008381526003602090815260408083206001600160a01b038087168086529184528285209086168086529352818420805460ff1916905590519192909186917ff8034293d5b4ed16b867ded8f122c475bc0d1b6bd9309a606609a754e5f3adc391a4505050565b6206978090565b60008381526003602090815260408083206001600160a01b038087168552908352818420908516845290915281205460ff1680611ca7575060008481526003602090815260408083206001600160a01b0387168452909152812090611c8961119c565b6001600160a01b0316815260208101919091526040016000205460ff165b80611a0f5750611a0f83610ef6565b60009081526008602052604090205490565b7f000000000000000000000000000000000000000000000000000000000000000090565b6001600160a01b03808316600090815260046020908152604080832093851683529290529081205460ff1680611d5c57506001600160a01b038316600090815260046020526040812090611d3e61119c565b6001600160a01b0316815260208101919091526040016000205460ff165b80610a6c5750610a6c83610ef6565b336001600160a01b037f00000000000000000000000000000000000000000000000000000000000000001614611db35760405162461bcd60e51b81526004016106fe90613536565b611dbc816123ae565b611dd85760405162461bcd60e51b81526004016106fe90613121565b600082815260086020526040908190208290555182907f6aeebd84e31437f28a17927609991676c31c2b84875c601373da2c194e9d23419061076f908490612ede565b6006546000908210611e3f5760405162461bcd60e51b81526004016106fe90613612565b600060068381548110611e4e57fe5b60009182526020909120600490910201600281015490915060ff16158015611e8057506002810154610100900460ff16155b8015610a6c57506003015442101592915050565b6001546001600160a01b031690565b600060096000611eb4868686610ba0565b815260208101919091526040016000205460ff1680611a0f5750600960006116ad86866103dc61119c565b6000611eea33610ef6565b611f065760405162461bcd60e51b81526004016106fe90613347565b611f0e610eee565b831115611f2d5760405162461bcd60e51b81526004016106fe90613423565b6000848152600a6020526040812054611f469085612903565b9050606063f0bb940660e01b8686604051602401611f65929190612f06565b60408051601f198184030181529190526020810180517bffffffffffffffffffffffffffffffffffffffffffffffffffffffff167fffffffff000000000000000000000000000000000000000000000000000000009093169290921790915290506000611fd43083858861254b565b90508086887fbc72942fa810fe8985041bb36295502eddf2c163774be55e25d205958956072860405160405180910390a49695505050505050565b336001600160a01b037f000000000000000000000000000000000000000000000000000000000000000016146120575760405162461bcd60e51b81526004016106fe90613536565b61205f6117e7565b6040517f851c1bb30000000000000000000000000000000000000000000000000000000081526001600160a01b03919091169063851c1bb3906120c6907f058a628f0000000000000000000000000000000000000000000000000000000090600401612f14565b60206040518083038186803b1580156120de57600080fd5b505afa1580156120f2573d6000803e3d6000fd5b505050506040513d601f19601f820116820180604052508101906121169190612c02565b821461214157612125816123ae565b6121415760405162461bcd60e51b81526004016106fe90613121565b6000828152600a6020526040908190208290555182907f0e182617f9e5f9ce5f761c791ec15ad52176d97f9706b5c2707ffda7b6bdf7909061076f908490612ede565b61218d33610ef6565b6121a95760405162461bcd60e51b81526004016106fe90613347565b61195c82826127f0565b60065460609082106121d75760405162461bcd60e51b81526004016106fe90613612565b6000600683815481106121e657fe5b60009182526020909120600490910201600281015490915060ff161561221e5760405162461bcd60e51b81526004016106fe90613649565b6002810154610100900460ff16156122485760405162461bcd60e51b81526004016106fe906134ff565b806003015442101561226c5760405162461bcd60e51b81526004016106fe906134c8565b600281015462010000900460ff16156122a5576122898333610675565b6122a55760405162461bcd60e51b81526004016106fe906130ea565b60028101805460ff1916600190811790915581546040517f1cff79cd0000000000000000000000000000000000000000000000000000000081526001600160a01b037f0000000000000000000000000000000000000000000000000000000000000000811693631cff79cd936123249392169190860190600401612e38565b600060405180830381600087803b15801561233e57600080fd5b505af1158015612352573d6000803e3d6000fd5b505050506040513d6000823e601f3d908101601f1916820160405261237a9190810190612d47565b60405190925083907f4fa5548c15e2d4a0b806eee962935acea143d79644d2340af39f4edf13b335a990600090a250919050565b6000806123b96117e7565b6040517f851c1bb30000000000000000000000000000000000000000000000000000000081526001600160a01b03919091169063851c1bb390612420907f058a628f0000000000000000000000000000000000000000000000000000000090600401612f14565b60206040518083038186803b15801561243857600080fd5b505afa15801561244c573d6000803e3d6000fd5b505050506040513d601f19601f820116820180604052508101906124709190612c02565b6000908152600a60205260409020549092111592915050565b600080547fffffffffffffffffffffffff0000000000000000000000000000000000000000166001600160a01b038316908117825560405190917f39510b933a9d010f906528d6019d3f4e2450a10dc33b10887503b31ed82f111191a250565b600180547fffffffffffffffffffffffff0000000000000000000000000000000000000000166001600160a01b0383169081179091556040517f566fe119ff450afc2580186c62762b6c1258245c8b1b6bb095e7276eb5a75b5590600090a250565b6006805482516040805160c0810182526001600160a01b03898116825260208083018a815260009484018590526060840185905294151560808401819052428a0160a085018190526001880189559790945282517ff652222313e28459528d920b65115c16c04f3efc82aaedc97be59f3f377c0d3f6004880290810180547fffffffffffffffffffffffff0000000000000000000000000000000000000000169290941691909117835594518051969796949593949293612635937ff652222313e28459528d920b65115c16c04f3efc82aaedc97be59f3f377c0d40909101929190910190612969565b50604082015160028201805460608501516080860151151562010000027fffffffffffffffffffffffffffffffffffffffffffffffffffffffffff00ffff911515610100027fffffffffffffffffffffffffffffffffffffffffffffffffffffffffffff00ff95151560ff199094169390931794909416919091171691909117905560a09091015160039091015560005b84518110156127e5576002600085815260200190815260200160002060008683815181106126f057fe5b6020908102919091018101516001600160a01b031682528101919091526040016000205460ff16156127345760405162461bcd60e51b81526004016106fe906131c6565b600084815260026020526040812086516001929088908590811061275457fe5b60200260200101516001600160a01b03166001600160a01b0316815260200190815260200160002060006101000a81548160ff02191690831515021790555084818151811061279f57fe5b60200260200101516001600160a01b0316847f2d0aa562da96ca6dd124fee5588e6f8545b0aa0b15cfd87cc231eff1ae7000e460405160405180910390a36001016126c6565b505050949350505050565b6127fa8282610d67565b156128175760405162461bcd60e51b81526004016106fe906136b7565b60008281526005602090815260408083206001600160a01b0385168085529252808320805460ff1916600117905551909184917f1b55562f9a67454174f758170aba47751c0af4c1f3b7d4e0b70667f1e82066069190a35050565b600061287f848484610ba0565b60008181526009602052604090205490915060ff166128b05760405162461bcd60e51b81526004016106fe9061318f565b600081815260096020526040808220805460ff19169055516001600160a01b03808516929086169187917f7b42e026d3b17cf41399915c285780d0f724b3464b269297aff73c0de0fe417f91a450505050565b600082821061291957612914611c1f565b610a6c565b610a6c828403612927611c1f565b80820390821002900390565b6040805160c08101825260008082526060602083018190529282018190529181018290526080810182905260a081019190915290565b828054600181600116156101000203166002900490600052602060002090601f016020900481019282601f106129aa57805160ff19168380011785556129d7565b828001600101855582156129d7579182015b828111156129d75782518255916020019190600101906129bc565b506129e39291506129e7565b5090565b5b808211156129e357600081556001016129e8565b80356001600160a01b038116811461069c57600080fd5b600082601f830112612a23578081fd5b813567ffffffffffffffff811115612a39578182fd5b6020808202612a498282016137fc565b83815293508184018583018287018401881015612a6557600080fd5b600092505b84831015612a9057612a7c88826129fc565b825260019290920191908301908301612a6a565b505050505092915050565b600060208284031215612aac578081fd5b610a6c83836129fc565b60008060408385031215612ac8578081fd5b612ad284846129fc565b9150612ae184602085016129fc565b90509250929050565b60008060408385031215612afc578182fd5b612b0684846129fc565b9150602083013567ffffffffffffffff811115612b21578182fd5b612b2d85828601612a13565b9150509250929050565b600080600060608486031215612b4b578081fd5b612b5585856129fc565b9250602084013567ffffffffffffffff80821115612b71578283fd5b818601915086601f830112612b84578283fd5b8135612b97612b9282613823565b6137fc565b818152886020838601011115612bab578485fd5b8160208501602083013790810160200184905293506040860135915080821115612bd3578283fd5b50612be086828701612a13565b9150509250925092565b600060208284031215612bfb578081fd5b5035919050565b600060208284031215612c13578081fd5b5051919050565b60008060408385031215612c2c578182fd5b82359150612ae184602085016129fc565b600080600060608486031215612c51578283fd5b83359250612c6285602086016129fc565b9150612c7185604086016129fc565b90509250925092565b60008060008060808587031215612c8f578081fd5b84359350612ca086602087016129fc565b9250612caf86604087016129fc565b9150606085013567ffffffffffffffff811115612cca578182fd5b612cd687828801612a13565b91505092959194509250565b60008060408385031215612cf4578182fd5b50508035926020909101359150565b600080600060608486031215612d17578283fd5b8335925060208401359150604084013567ffffffffffffffff811115612d3b578182fd5b612be086828701612a13565b600060208284031215612d58578081fd5b815167ffffffffffffffff811115612d6e578182fd5b8201601f81018413612d7e578182fd5b8051612d8c612b9282613823565b818152856020838501011115612da0578384fd5b612db1826020830160208601613853565b95945050505050565b60008151808452612dd2816020860160208601613853565b601f01601f19169290920160200192915050565b9283527fffffffffffffffffffffffffffffffffffffffff000000000000000000000000606092831b81166020850152911b16603482015260480190565b6001600160a01b0391909116815260200190565b6000604082016001600160a01b03851683526020604081850152828554600180821660008114612e6f5760018114612e8d57612ec5565b607f6002840416865260ff1983166060890152608088019350612ec5565b60028304808752612e9d8a613847565b885b82811015612ebb5781548b820160600152908401908701612e9f565b8a01606001955050505b509198975050505050505050565b901515815260200190565b90815260200190565b9283526001600160a01b03918216602084015216604082015260600190565b918252602082015260400190565b7fffffffff0000000000000000000000000000000000000000000000000000000091909116815260200190565b600060208252610a6c6020830184612dba565b60208082526026908201527f415454454d5054494e475f455845435554494f4e5f48454c5045525f5245454e60408201527f5452414e43590000000000000000000000000000000000000000000000000000606082015260800190565b6020808252601b908201527f43414e4e4f545f52454d4f56455f524f4f545f43414e43454c45520000000000604082015260600190565b60208082526011908201527f4752414e5445525f49535f474c4f42414c000000000000000000000000000000604082015260600190565b6020808252601a908201527f5045524d495353494f4e5f414c52454144595f4752414e544544000000000000604082015260600190565b60208082526022908201527f43414e4e4f545f5343484544554c455f415554484f52495a45525f414354494f60408201527f4e53000000000000000000000000000000000000000000000000000000000000606082015260800190565b60208082526015908201527f53454e4445525f49535f4e4f545f4752414e5445520000000000000000000000604082015260600190565b60208082526016908201527f53454e4445525f49535f4e4f545f4558454355544f5200000000000000000000604082015260600190565b6020808252601c908201527f44454c41595f455843454544535f5345545f415554484f52495a455200000000604082015260600190565b6020808252601a908201527f4143434f554e545f49535f414c52454144595f4752414e544552000000000000604082015260600190565b60208082526016908201527f5045524d495353494f4e5f4e4f545f4752414e54454400000000000000000000604082015260600190565b60208082526013908201527f4455504c49434154455f4558454355544f525300000000000000000000000000604082015260600190565b60208082526019908201527f414354494f4e5f4841535f4e4f5f4752414e545f44454c415900000000000000604082015260600190565b6020808252600e908201527f444154415f544f4f5f53484f5254000000000000000000000000000000000000604082015260600190565b6020808252601f908201527f53454e4445525f444f45535f4e4f545f484156455f5045524d495353494f4e00604082015260600190565b60208082526010908201527f44454c41595f49535f4e4f545f53455400000000000000000000000000000000604082015260600190565b60208082526011908201527f5245564f4b45525f49535f474c4f42414c000000000000000000000000000000604082015260600190565b60208082526015908201527f53454e4445525f49535f4e4f545f5245564f4b45520000000000000000000000604082015260600190565b60208082526012908201527f53454e4445525f49535f4e4f545f524f4f540000000000000000000000000000604082015260600190565b6020808252601a908201527f43414e4e4f545f52454d4f56455f524f4f545f5245564f4b4552000000000000604082015260600190565b60208082526018908201527f5245564f4b455f4d5553545f42455f5343484544554c45440000000000000000604082015260600190565b6020808252601a908201527f53454e4445525f49535f4e4f545f50454e44494e475f524f4f54000000000000604082015260600190565b6020808252600f908201527f44454c41595f544f4f5f4c415247450000000000000000000000000000000000604082015260600190565b6020808252601a908201527f414354494f4e5f4841535f4e4f5f5245564f4b455f44454c4159000000000000604082015260600190565b60208082526016908201527f4143434f554e545f49535f4e4f545f4752414e54455200000000000000000000604082015260600190565b60208082526019908201527f414354494f4e5f4e4f545f5945545f45584543555441424c4500000000000000604082015260600190565b60208082526018908201527f414354494f4e5f414c52454144595f43414e43454c4c45440000000000000000604082015260600190565b60208082526015908201527f43414e5f4f4e4c595f42455f5343484544554c45440000000000000000000000604082015260600190565b6020808252601a908201527f4143434f554e545f49535f474c4f42414c5f43414e43454c4552000000000000604082015260600190565b60208082526017908201527f4143434f554e545f49535f4e4f545f43414e43454c4552000000000000000000604082015260600190565b60208082526017908201527f4752414e545f4d5553545f42455f5343484544554c4544000000000000000000604082015260600190565b60208082526015908201527f414354494f4e5f444f45535f4e4f545f45584953540000000000000000000000604082015260600190565b60208082526017908201527f414354494f4e5f414c52454144595f4558454355544544000000000000000000604082015260600190565b60208082526016908201527f4143434f554e545f49535f4e4f545f5245564f4b455200000000000000000000604082015260600190565b6020808252601b908201527f4143434f554e545f49535f414c52454144595f43414e43454c45520000000000604082015260600190565b6020808252601a908201527f43414e4e4f545f52454d4f56455f524f4f545f4752414e544552000000000000604082015260600190565b6020808252601a908201527f4143434f554e545f49535f414c52454144595f5245564f4b4552000000000000604082015260600190565b60208082526016908201527f53454e4445525f49535f4e4f545f43414e43454c455200000000000000000000604082015260600190565b6000602082526001600160a01b038351166020830152602083015160c060408401526137c260e0840182612dba565b90506040840151151560608401526060840151151560808401526080840151151560a084015260a084015160c08401528091505092915050565b60405181810167ffffffffffffffff8111828210171561381b57600080fd5b604052919050565b600067ffffffffffffffff821115613839578081fd5b50601f01601f191660200190565b60009081526020902090565b60005b8381101561386e578181015183820152602001613856565b8381111561387d576000848401525b5050505056fea26469706673582212208d7cf5271a2340c4097f709c9c56f4aac4ee31529cd374a5c06ca7b2983456bd64736f6c6343000701003360a060405234801561001057600080fd5b5060016000553360601b60805260805160601c6104b061003f600039806101c6528061026e52506104b06000f3fe608060405234801561001057600080fd5b50600436106100365760003560e01c80631cff79cd1461003b578063aaabadc514610173575b600080fd5b6100fe6004803603604081101561005157600080fd5b73ffffffffffffffffffffffffffffffffffffffff823516919081019060408101602082013564010000000081111561008957600080fd5b82018360208201111561009b57600080fd5b803590602001918460018302840111640100000000831117156100bd57600080fd5b91908080601f0160208091040260200160405190810160405280939291908181526020018383808284376000920191909152509295506101a4945050505050565b6040805160208082528351818301528351919283929083019185019080838360005b83811015610138578181015183820152602001610120565b50505050905090810190601f1680156101655780820380516001836020036101000a031916815260200191505b509250505060405180910390f35b61017b61026c565b6040805173ffffffffffffffffffffffffffffffffffffffff9092168252519081900360200190f35b60606101ae610290565b3373ffffffffffffffffffffffffffffffffffffffff7f0000000000000000000000000000000000000000000000000000000000000000161461025257604080517f08c379a000000000000000000000000000000000000000000000000000000000815260206004820152601860248201527f53454e4445525f49535f4e4f545f415554484f52495a45520000000000000000604482015290519081900360640190fd5b61025c83836102a9565b9050610266610393565b92915050565b7f000000000000000000000000000000000000000000000000000000000000000090565b6102a26002600054141561019061039a565b6002600055565b6060600060608473ffffffffffffffffffffffffffffffffffffffff16846040518082805190602001908083835b6020831061031457805182527fffffffffffffffffffffffffffffffffffffffffffffffffffffffffffffffe090920191602091820191016102d7565b6001836020036101000a0380198251168184511680821785525050505050509050019150506000604051808303816000865af19150503d8060008114610376576040519150601f19603f3d011682016040523d82523d6000602084013e61037b565b606091505b509150915061038a82826103ac565b95945050505050565b6001600055565b816103a8576103a8816103d2565b5050565b606082156103bb575080610266565b8151156103cb5781518083602001fd5b6102666101ae5b6103fc817f42414c00000000000000000000000000000000000000000000000000000000006103ff565b50565b7f08c379a000000000000000000000000000000000000000000000000000000000600090815260206004526007602452600a808404818106603090810160081b958390069590950190829004918206850160101b01602363ffffff0060e086901c160160181b0190930160c81b60445260e882901c90606490fdfea264697066735822122019fe15a667b5b8bd076c540f7a82c575bd7f2ef37c72e08de029d8974ba1b99864736f6c63430007010033","opcodes":"PUSH2 0x120 PUSH1 0x40 MSTORE CALLVALUE DUP1 ISZERO PUSH3 0x12 JUMPI PUSH1 0x0 DUP1 REVERT JUMPDEST POP PUSH1 0x40 MLOAD PUSH3 0x4100 CODESIZE SUB DUP1 PUSH3 0x4100 DUP4 CODECOPY DUP2 ADD PUSH1 0x40 DUP2 SWAP1 MSTORE PUSH3 0x35 SWAP2 PUSH3 0x25B JUMP JUMPDEST DUP4 DUP4 DUP4 PUSH1 0x1 PUSH1 0x1 PUSH1 0xA0 SHL SUB AND PUSH4 0x8D928AF8 PUSH1 0x40 MLOAD DUP2 PUSH4 0xFFFFFFFF AND PUSH1 0xE0 SHL DUP2 MSTORE PUSH1 0x4 ADD PUSH1 0x20 PUSH1 0x40 MLOAD DUP1 DUP4 SUB DUP2 DUP7 DUP1 EXTCODESIZE ISZERO DUP1 ISZERO PUSH3 0x71 JUMPI PUSH1 0x0 DUP1 REVERT JUMPDEST POP GAS STATICCALL ISZERO DUP1 ISZERO PUSH3 0x86 JUMPI RETURNDATASIZE PUSH1 0x0 DUP1 RETURNDATACOPY RETURNDATASIZE PUSH1 0x0 REVERT JUMPDEST POP POP POP POP PUSH1 0x40 MLOAD RETURNDATASIZE PUSH1 0x1F NOT PUSH1 0x1F DUP3 ADD AND DUP3 ADD DUP1 PUSH1 0x40 MSTORE POP DUP2 ADD SWAP1 PUSH3 0xAC SWAP2 SWAP1 PUSH3 0x2B4 JUMP JUMPDEST DUP4 PUSH3 0xB8 DUP5 PUSH3 0x1BB JUMP JUMPDEST PUSH3 0xC3 DUP4 PUSH3 0x203 JUMP JUMPDEST PUSH1 0x1 PUSH1 0x1 PUSH1 0x60 SHL SUB NOT PUSH1 0x60 DUP4 SWAP1 SHL AND PUSH1 0xA0 MSTORE PUSH1 0x40 MLOAD PUSH3 0xE3 SWAP1 PUSH3 0x24D JUMP JUMPDEST PUSH1 0x40 MLOAD DUP1 SWAP2 SUB SWAP1 PUSH1 0x0 CREATE DUP1 ISZERO DUP1 ISZERO PUSH3 0x100 JUMPI RETURNDATASIZE PUSH1 0x0 DUP1 RETURNDATACOPY RETURNDATASIZE PUSH1 0x0 REVERT JUMPDEST POP PUSH1 0x60 SHL PUSH1 0x1 PUSH1 0x1 PUSH1 0x60 SHL SUB NOT AND PUSH1 0x80 MSTORE PUSH1 0xC0 MSTORE POP POP PUSH1 0x40 DUP1 MLOAD PUSH4 0xE758D36B PUSH1 0xE0 SHL DUP2 MSTORE SWAP1 MLOAD PUSH1 0x1 PUSH1 0x1 PUSH1 0xA0 SHL SUB DUP6 AND SWAP3 POP PUSH4 0xE758D36B SWAP2 PUSH1 0x4 DUP1 DUP3 ADD SWAP3 PUSH1 0x20 SWAP3 SWAP1 SWAP2 SWAP1 DUP3 SWAP1 SUB ADD DUP2 DUP7 DUP1 EXTCODESIZE ISZERO DUP1 ISZERO PUSH3 0x159 JUMPI PUSH1 0x0 DUP1 REVERT JUMPDEST POP GAS STATICCALL ISZERO DUP1 ISZERO PUSH3 0x16E JUMPI RETURNDATASIZE PUSH1 0x0 DUP1 RETURNDATACOPY RETURNDATASIZE PUSH1 0x0 REVERT JUMPDEST POP POP POP POP PUSH1 0x40 MLOAD RETURNDATASIZE PUSH1 0x1F NOT PUSH1 0x1F DUP3 ADD AND DUP3 ADD DUP1 PUSH1 0x40 MSTORE POP DUP2 ADD SWAP1 PUSH3 0x194 SWAP2 SWAP1 PUSH3 0x2B4 JUMP JUMPDEST PUSH1 0x1 PUSH1 0x1 PUSH1 0x60 SHL SUB NOT PUSH1 0x60 SWAP2 DUP3 SHL DUP2 AND PUSH2 0x100 MSTORE SWAP3 SWAP1 SHL SWAP1 SWAP2 AND PUSH1 0xE0 MSTORE POP PUSH3 0x2F3 SWAP2 POP POP JUMP JUMPDEST PUSH1 0x0 DUP1 SLOAD PUSH1 0x1 PUSH1 0x1 PUSH1 0xA0 SHL SUB NOT AND PUSH1 0x1 PUSH1 0x1 PUSH1 0xA0 SHL SUB DUP4 AND SWAP1 DUP2 OR DUP3 SSTORE PUSH1 0x40 MLOAD SWAP1 SWAP2 PUSH32 0x39510B933A9D010F906528D6019D3F4E2450A10DC33B10887503B31ED82F1111 SWAP2 LOG2 POP JUMP JUMPDEST PUSH1 0x1 DUP1 SLOAD PUSH1 0x1 PUSH1 0x1 PUSH1 0xA0 SHL SUB NOT AND PUSH1 0x1 PUSH1 0x1 PUSH1 0xA0 SHL SUB DUP4 AND SWAP1 DUP2 OR SWAP1 SWAP2 SSTORE PUSH1 0x40 MLOAD PUSH32 0x566FE119FF450AFC2580186C62762B6C1258245C8B1B6BB095E7276EB5A75B55 SWAP1 PUSH1 0x0 SWAP1 LOG2 POP JUMP JUMPDEST PUSH2 0x4EF DUP1 PUSH3 0x3C11 DUP4 CODECOPY ADD SWAP1 JUMP JUMPDEST PUSH1 0x0 DUP1 PUSH1 0x0 DUP1 PUSH1 0x80 DUP6 DUP8 SUB SLT ISZERO PUSH3 0x271 JUMPI DUP4 DUP5 REVERT JUMPDEST DUP5 MLOAD PUSH3 0x27E DUP2 PUSH3 0x2DA JUMP JUMPDEST PUSH1 0x20 DUP7 ADD MLOAD SWAP1 SWAP5 POP PUSH3 0x291 DUP2 PUSH3 0x2DA JUMP JUMPDEST PUSH1 0x40 DUP7 ADD MLOAD SWAP1 SWAP4 POP PUSH3 0x2A4 DUP2 PUSH3 0x2DA JUMP JUMPDEST PUSH1 0x60 SWAP6 SWAP1 SWAP6 ADD MLOAD SWAP4 SWAP7 SWAP3 SWAP6 POP POP POP JUMP JUMPDEST PUSH1 0x0 PUSH1 0x20 DUP3 DUP5 SUB SLT ISZERO PUSH3 0x2C6 JUMPI DUP1 DUP2 REVERT JUMPDEST DUP2 MLOAD PUSH3 0x2D3 DUP2 PUSH3 0x2DA JUMP JUMPDEST SWAP4 SWAP3 POP POP POP JUMP JUMPDEST PUSH1 0x1 PUSH1 0x1 PUSH1 0xA0 SHL SUB DUP2 AND DUP2 EQ PUSH3 0x2F0 JUMPI PUSH1 0x0 DUP1 REVERT JUMPDEST POP JUMP JUMPDEST PUSH1 0x80 MLOAD PUSH1 0x60 SHR PUSH1 0xA0 MLOAD PUSH1 0x60 SHR PUSH1 0xC0 MLOAD PUSH1 0xE0 MLOAD PUSH1 0x60 SHR PUSH2 0x100 MLOAD PUSH1 0x60 SHR PUSH2 0x38B9 PUSH3 0x358 PUSH1 0x0 CODECOPY DUP1 PUSH2 0x196D MSTORE POP DUP1 PUSH2 0x1995 MSTORE POP DUP1 PUSH2 0x1CCA MSTORE POP DUP1 PUSH2 0x17E9 MSTORE POP DUP1 PUSH2 0x6C1 MSTORE DUP1 PUSH2 0xA75 MSTORE DUP1 PUSH2 0xAA2 MSTORE DUP1 PUSH2 0x1D76 MSTORE DUP1 PUSH2 0x201A MSTORE DUP1 PUSH2 0x22E9 MSTORE POP PUSH2 0x38B9 PUSH1 0x0 RETURN INVALID PUSH1 0x80 PUSH1 0x40 MSTORE CALLVALUE DUP1 ISZERO PUSH2 0x10 JUMPI PUSH1 0x0 DUP1 REVERT JUMPDEST POP PUSH1 0x4 CALLDATASIZE LT PUSH2 0x315 JUMPI PUSH1 0x0 CALLDATALOAD PUSH1 0xE0 SHR DUP1 PUSH4 0x863BAC6B GT PUSH2 0x1A7 JUMPI DUP1 PUSH4 0xB3EB281D GT PUSH2 0xEE JUMPI DUP1 PUSH4 0xD00BEF4D GT PUSH2 0x97 JUMPI DUP1 PUSH4 0xF0BB9406 GT PUSH2 0x71 JUMPI DUP1 PUSH4 0xF0BB9406 EQ PUSH2 0x62F JUMPI DUP1 PUSH4 0xF6EBCBAF EQ PUSH2 0x642 JUMPI DUP1 PUSH4 0xFE0D94C1 EQ PUSH2 0x655 JUMPI PUSH2 0x315 JUMP JUMPDEST DUP1 PUSH4 0xD00BEF4D EQ PUSH2 0x601 JUMPI DUP1 PUSH4 0xE2B4146B EQ PUSH2 0x609 JUMPI DUP1 PUSH4 0xF0845522 EQ PUSH2 0x61C JUMPI PUSH2 0x315 JUMP JUMPDEST DUP1 PUSH4 0xC6192EE3 GT PUSH2 0xC8 JUMPI DUP1 PUSH4 0xC6192EE3 EQ PUSH2 0x5C8 JUMPI DUP1 PUSH4 0xC80C23E1 EQ PUSH2 0x5DB JUMPI DUP1 PUSH4 0xCC63604A EQ PUSH2 0x5EE JUMPI PUSH2 0x315 JUMP JUMPDEST DUP1 PUSH4 0xB3EB281D EQ PUSH2 0x59A JUMPI DUP1 PUSH4 0xB99DB526 EQ PUSH2 0x5AD JUMPI DUP1 PUSH4 0xC284B6B9 EQ PUSH2 0x5C0 JUMPI PUSH2 0x315 JUMP JUMPDEST DUP1 PUSH4 0x9299942E GT PUSH2 0x150 JUMPI DUP1 PUSH4 0xA44495D1 GT PUSH2 0x12A JUMPI DUP1 PUSH4 0xA44495D1 EQ PUSH2 0x56C JUMPI DUP1 PUSH4 0xA8EAE12D EQ PUSH2 0x57F JUMPI DUP1 PUSH4 0xB1E31AA0 EQ PUSH2 0x592 JUMPI PUSH2 0x315 JUMP JUMPDEST DUP1 PUSH4 0x9299942E EQ PUSH2 0x53E JUMPI DUP1 PUSH4 0x99A7F6E2 EQ PUSH2 0x546 JUMPI DUP1 PUSH4 0x9BE2A884 EQ PUSH2 0x559 JUMPI PUSH2 0x315 JUMP JUMPDEST DUP1 PUSH4 0x8CC3D072 GT PUSH2 0x181 JUMPI DUP1 PUSH4 0x8CC3D072 EQ PUSH2 0x510 JUMPI DUP1 PUSH4 0x8D928AF8 EQ PUSH2 0x523 JUMPI DUP1 PUSH4 0x90216812 EQ PUSH2 0x52B JUMPI PUSH2 0x315 JUMP JUMPDEST DUP1 PUSH4 0x863BAC6B EQ PUSH2 0x4D7 JUMPI DUP1 PUSH4 0x86FF254B EQ PUSH2 0x4EA JUMPI DUP1 PUSH4 0x8BD6BBC9 EQ PUSH2 0x4FD JUMPI PUSH2 0x315 JUMP JUMPDEST DUP1 PUSH4 0x3BF46797 GT PUSH2 0x26B JUMPI DUP1 PUSH4 0x5CA1E165 GT PUSH2 0x214 JUMPI DUP1 PUSH4 0x63CDBF36 GT PUSH2 0x1EE JUMPI DUP1 PUSH4 0x63CDBF36 EQ PUSH2 0x491 JUMPI DUP1 PUSH4 0x6BADD2AB EQ PUSH2 0x4A4 JUMPI DUP1 PUSH4 0x72EFB120 EQ PUSH2 0x4C4 JUMPI PUSH2 0x315 JUMP JUMPDEST DUP1 PUSH4 0x5CA1E165 EQ PUSH2 0x46E JUMPI DUP1 PUSH4 0x608DD7E4 EQ PUSH2 0x476 JUMPI DUP1 PUSH4 0x62CDE1BA EQ PUSH2 0x489 JUMPI PUSH2 0x315 JUMP JUMPDEST DUP1 PUSH4 0x4125FF90 GT PUSH2 0x245 JUMPI DUP1 PUSH4 0x4125FF90 EQ PUSH2 0x440 JUMPI DUP1 PUSH4 0x557A6403 EQ PUSH2 0x448 JUMPI DUP1 PUSH4 0x5B78B780 EQ PUSH2 0x45B JUMPI PUSH2 0x315 JUMP JUMPDEST DUP1 PUSH4 0x3BF46797 EQ PUSH2 0x407 JUMPI DUP1 PUSH4 0x3E1DF46D EQ PUSH2 0x41A JUMPI DUP1 PUSH4 0x40E58EE5 EQ PUSH2 0x42D JUMPI PUSH2 0x315 JUMP JUMPDEST DUP1 PUSH4 0x18EF871A GT PUSH2 0x2CD JUMPI DUP1 PUSH4 0x2362716D GT PUSH2 0x2A7 JUMPI DUP1 PUSH4 0x2362716D EQ PUSH2 0x3CE JUMPI DUP1 PUSH4 0x2E3ED05B EQ PUSH2 0x3E1 JUMPI DUP1 PUSH4 0x3AC5D439 EQ PUSH2 0x3F4 JUMPI PUSH2 0x315 JUMP JUMPDEST DUP1 PUSH4 0x18EF871A EQ PUSH2 0x393 JUMPI DUP1 PUSH4 0x1B3C85EB EQ PUSH2 0x3A8 JUMPI DUP1 PUSH4 0x2229EDB4 EQ PUSH2 0x3BB JUMPI PUSH2 0x315 JUMP JUMPDEST DUP1 PUSH4 0x10D3AB2C GT PUSH2 0x2FE JUMPI DUP1 PUSH4 0x10D3AB2C EQ PUSH2 0x356 JUMPI DUP1 PUSH4 0x14EA35E7 EQ PUSH2 0x36B JUMPI DUP1 PUSH4 0x169F1468 EQ PUSH2 0x373 JUMPI PUSH2 0x315 JUMP JUMPDEST DUP1 PUSH4 0x4434606 EQ PUSH2 0x31A JUMPI DUP1 PUSH4 0xDF322A6 EQ PUSH2 0x343 JUMPI JUMPDEST PUSH1 0x0 DUP1 REVERT JUMPDEST PUSH2 0x32D PUSH2 0x328 CALLDATASIZE PUSH1 0x4 PUSH2 0x2C1A JUMP JUMPDEST PUSH2 0x675 JUMP JUMPDEST PUSH1 0x40 MLOAD PUSH2 0x33A SWAP2 SWAP1 PUSH2 0x2ED3 JUMP JUMPDEST PUSH1 0x40 MLOAD DUP1 SWAP2 SUB SWAP1 RETURN JUMPDEST PUSH2 0x32D PUSH2 0x351 CALLDATASIZE PUSH1 0x4 PUSH2 0x2A9B JUMP JUMPDEST PUSH2 0x6A2 JUMP JUMPDEST PUSH2 0x369 PUSH2 0x364 CALLDATASIZE PUSH1 0x4 PUSH2 0x2CE2 JUMP JUMPDEST PUSH2 0x6B6 JUMP JUMPDEST STOP JUMPDEST PUSH2 0x369 PUSH2 0x77B JUMP JUMPDEST PUSH2 0x386 PUSH2 0x381 CALLDATASIZE PUSH1 0x4 PUSH2 0x2B37 JUMP JUMPDEST PUSH2 0x7BC JUMP JUMPDEST PUSH1 0x40 MLOAD PUSH2 0x33A SWAP2 SWAP1 PUSH2 0x2EDE JUMP JUMPDEST PUSH2 0x39B PUSH2 0xA73 JUMP JUMPDEST PUSH1 0x40 MLOAD PUSH2 0x33A SWAP2 SWAP1 PUSH2 0x2E24 JUMP JUMPDEST PUSH2 0x369 PUSH2 0x3B6 CALLDATASIZE PUSH1 0x4 PUSH2 0x2A9B JUMP JUMPDEST PUSH2 0xA97 JUMP JUMPDEST PUSH2 0x369 PUSH2 0x3C9 CALLDATASIZE PUSH1 0x4 PUSH2 0x2C3D JUMP JUMPDEST PUSH2 0xAE8 JUMP JUMPDEST PUSH2 0x386 PUSH2 0x3DC CALLDATASIZE PUSH1 0x4 PUSH2 0x2C3D JUMP JUMPDEST PUSH2 0xBA0 JUMP JUMPDEST PUSH2 0x386 PUSH2 0x3EF CALLDATASIZE PUSH1 0x4 PUSH2 0x2AEA JUMP JUMPDEST PUSH2 0xBD6 JUMP JUMPDEST PUSH2 0x369 PUSH2 0x402 CALLDATASIZE PUSH1 0x4 PUSH2 0x2C3D JUMP JUMPDEST PUSH2 0xCCF JUMP JUMPDEST PUSH2 0x386 PUSH2 0x415 CALLDATASIZE PUSH1 0x4 PUSH2 0x2BEA JUMP JUMPDEST PUSH2 0xD55 JUMP JUMPDEST PUSH2 0x32D PUSH2 0x428 CALLDATASIZE PUSH1 0x4 PUSH2 0x2C1A JUMP JUMPDEST PUSH2 0xD67 JUMP JUMPDEST PUSH2 0x369 PUSH2 0x43B CALLDATASIZE PUSH1 0x4 PUSH2 0x2BEA JUMP JUMPDEST PUSH2 0xDD9 JUMP JUMPDEST PUSH2 0x386 PUSH2 0xEEE JUMP JUMPDEST PUSH2 0x32D PUSH2 0x456 CALLDATASIZE PUSH1 0x4 PUSH2 0x2A9B JUMP JUMPDEST PUSH2 0xEF6 JUMP JUMPDEST PUSH2 0x386 PUSH2 0x469 CALLDATASIZE PUSH1 0x4 PUSH2 0x2C7A JUMP JUMPDEST PUSH2 0xF0A JUMP JUMPDEST PUSH2 0x39B PUSH2 0x105D JUMP JUMPDEST PUSH2 0x386 PUSH2 0x484 CALLDATASIZE PUSH1 0x4 PUSH2 0x2D03 JUMP JUMPDEST PUSH2 0x106C JUMP JUMPDEST PUSH2 0x39B PUSH2 0x119C JUMP JUMPDEST PUSH2 0x386 PUSH2 0x49F CALLDATASIZE PUSH1 0x4 PUSH2 0x2D03 JUMP JUMPDEST PUSH2 0x11C0 JUMP JUMPDEST PUSH2 0x4B7 PUSH2 0x4B2 CALLDATASIZE PUSH1 0x4 PUSH2 0x2BEA JUMP JUMPDEST PUSH2 0x12F0 JUMP JUMPDEST PUSH1 0x40 MLOAD PUSH2 0x33A SWAP2 SWAP1 PUSH2 0x3793 JUMP JUMPDEST PUSH2 0x369 PUSH2 0x4D2 CALLDATASIZE PUSH1 0x4 PUSH2 0x2C1A JUMP JUMPDEST PUSH2 0x1428 JUMP JUMPDEST PUSH2 0x386 PUSH2 0x4E5 CALLDATASIZE PUSH1 0x4 PUSH2 0x2C7A JUMP JUMPDEST PUSH2 0x1573 JUMP JUMPDEST PUSH2 0x32D PUSH2 0x4F8 CALLDATASIZE PUSH1 0x4 PUSH2 0x2C3D JUMP JUMPDEST PUSH2 0x169C JUMP JUMPDEST PUSH2 0x386 PUSH2 0x50B CALLDATASIZE PUSH1 0x4 PUSH2 0x2BEA JUMP JUMPDEST PUSH2 0x16C9 JUMP JUMPDEST PUSH2 0x369 PUSH2 0x51E CALLDATASIZE PUSH1 0x4 PUSH2 0x2C3D JUMP JUMPDEST PUSH2 0x16DB JUMP JUMPDEST PUSH2 0x39B PUSH2 0x17E7 JUMP JUMPDEST PUSH2 0x369 PUSH2 0x539 CALLDATASIZE PUSH1 0x4 PUSH2 0x2AB6 JUMP JUMPDEST PUSH2 0x180B JUMP JUMPDEST PUSH2 0x386 PUSH2 0x119C JUMP JUMPDEST PUSH2 0x369 PUSH2 0x554 CALLDATASIZE PUSH1 0x4 PUSH2 0x2C1A JUMP JUMPDEST PUSH2 0x1951 JUMP JUMPDEST PUSH2 0x32D PUSH2 0x567 CALLDATASIZE PUSH1 0x4 PUSH2 0x2C3D JUMP JUMPDEST PUSH2 0x1960 JUMP JUMPDEST PUSH2 0x369 PUSH2 0x57A CALLDATASIZE PUSH1 0x4 PUSH2 0x2AB6 JUMP JUMPDEST PUSH2 0x1A17 JUMP JUMPDEST PUSH2 0x369 PUSH2 0x58D CALLDATASIZE PUSH1 0x4 PUSH2 0x2C3D JUMP JUMPDEST PUSH2 0x1AC0 JUMP JUMPDEST PUSH2 0x386 PUSH2 0x1C1F JUMP JUMPDEST PUSH2 0x32D PUSH2 0x5A8 CALLDATASIZE PUSH1 0x4 PUSH2 0x2C3D JUMP JUMPDEST PUSH2 0x1C26 JUMP JUMPDEST PUSH2 0x386 PUSH2 0x5BB CALLDATASIZE PUSH1 0x4 PUSH2 0x2BEA JUMP JUMPDEST PUSH2 0x1CB6 JUMP JUMPDEST PUSH2 0x386 PUSH2 0x1CC8 JUMP JUMPDEST PUSH2 0x32D PUSH2 0x5D6 CALLDATASIZE PUSH1 0x4 PUSH2 0x2AB6 JUMP JUMPDEST PUSH2 0x1CEC JUMP JUMPDEST PUSH2 0x369 PUSH2 0x5E9 CALLDATASIZE PUSH1 0x4 PUSH2 0x2CE2 JUMP JUMPDEST PUSH2 0x1D6B JUMP JUMPDEST PUSH2 0x32D PUSH2 0x5FC CALLDATASIZE PUSH1 0x4 PUSH2 0x2BEA JUMP JUMPDEST PUSH2 0x1E1B JUMP JUMPDEST PUSH2 0x39B PUSH2 0x1E94 JUMP JUMPDEST PUSH2 0x32D PUSH2 0x617 CALLDATASIZE PUSH1 0x4 PUSH2 0x2C3D JUMP JUMPDEST PUSH2 0x1EA3 JUMP JUMPDEST PUSH2 0x386 PUSH2 0x62A CALLDATASIZE PUSH1 0x4 PUSH2 0x2D03 JUMP JUMPDEST PUSH2 0x1EDF JUMP JUMPDEST PUSH2 0x369 PUSH2 0x63D CALLDATASIZE PUSH1 0x4 PUSH2 0x2CE2 JUMP JUMPDEST PUSH2 0x200F JUMP JUMPDEST PUSH2 0x369 PUSH2 0x650 CALLDATASIZE PUSH1 0x4 PUSH2 0x2C1A JUMP JUMPDEST PUSH2 0x2184 JUMP JUMPDEST PUSH2 0x668 PUSH2 0x663 CALLDATASIZE PUSH1 0x4 PUSH2 0x2BEA JUMP JUMPDEST PUSH2 0x21B3 JUMP JUMPDEST PUSH1 0x40 MLOAD PUSH2 0x33A SWAP2 SWAP1 PUSH2 0x2F41 JUMP JUMPDEST PUSH1 0x0 DUP3 DUP2 MSTORE PUSH1 0x2 PUSH1 0x20 SWAP1 DUP2 MSTORE PUSH1 0x40 DUP1 DUP4 KECCAK256 PUSH1 0x1 PUSH1 0x1 PUSH1 0xA0 SHL SUB DUP6 AND DUP5 MSTORE SWAP1 SWAP2 MSTORE SWAP1 KECCAK256 SLOAD PUSH1 0xFF AND JUMPDEST SWAP3 SWAP2 POP POP JUMP JUMPDEST PUSH1 0x1 SLOAD PUSH1 0x1 PUSH1 0x1 PUSH1 0xA0 SHL SUB SWAP1 DUP2 AND SWAP2 AND EQ SWAP1 JUMP JUMPDEST CALLER PUSH1 0x1 PUSH1 0x1 PUSH1 0xA0 SHL SUB PUSH32 0x0 AND EQ PUSH2 0x707 JUMPI PUSH1 0x40 MLOAD PUSH3 0x461BCD PUSH1 0xE5 SHL DUP2 MSTORE PUSH1 0x4 ADD PUSH2 0x6FE SWAP1 PUSH2 0x3536 JUMP JUMPDEST PUSH1 0x40 MLOAD DUP1 SWAP2 SUB SWAP1 REVERT JUMPDEST PUSH2 0x710 DUP2 PUSH2 0x23AE JUMP JUMPDEST PUSH2 0x72C JUMPI PUSH1 0x40 MLOAD PUSH3 0x461BCD PUSH1 0xE5 SHL DUP2 MSTORE PUSH1 0x4 ADD PUSH2 0x6FE SWAP1 PUSH2 0x3121 JUMP JUMPDEST PUSH1 0x0 DUP3 DUP2 MSTORE PUSH1 0x7 PUSH1 0x20 MSTORE PUSH1 0x40 SWAP1 DUP2 SWAP1 KECCAK256 DUP3 SWAP1 SSTORE MLOAD DUP3 SWAP1 PUSH32 0x6922A4F4DEEB55FDCA50DF28A72475AA87F9F1377ED93A95842CE8BC69DC01E8 SWAP1 PUSH2 0x76F SWAP1 DUP5 SWAP1 PUSH2 0x2EDE JUMP JUMPDEST PUSH1 0x40 MLOAD DUP1 SWAP2 SUB SWAP1 LOG2 POP POP JUMP JUMPDEST PUSH1 0x1 SLOAD PUSH1 0x1 PUSH1 0x1 PUSH1 0xA0 SHL SUB AND CALLER DUP2 EQ PUSH2 0x7A6 JUMPI PUSH1 0x40 MLOAD PUSH3 0x461BCD PUSH1 0xE5 SHL DUP2 MSTORE PUSH1 0x4 ADD PUSH2 0x6FE SWAP1 PUSH2 0x33EC JUMP JUMPDEST PUSH2 0x7AF DUP2 PUSH2 0x2489 JUMP JUMPDEST PUSH2 0x7B9 PUSH1 0x0 PUSH2 0x24E9 JUMP JUMPDEST POP JUMP JUMPDEST PUSH1 0x0 PUSH1 0x1 PUSH1 0x1 PUSH1 0xA0 SHL SUB DUP5 AND ADDRESS EQ ISZERO PUSH2 0x7E7 JUMPI PUSH1 0x40 MLOAD PUSH3 0x461BCD PUSH1 0xE5 SHL DUP2 MSTORE PUSH1 0x4 ADD PUSH2 0x6FE SWAP1 PUSH2 0x3056 JUMP JUMPDEST PUSH2 0x7EF PUSH2 0xA73 JUMP JUMPDEST PUSH1 0x1 PUSH1 0x1 PUSH1 0xA0 SHL SUB AND DUP5 PUSH1 0x1 PUSH1 0x1 PUSH1 0xA0 SHL SUB AND EQ ISZERO PUSH2 0x820 JUMPI PUSH1 0x40 MLOAD PUSH3 0x461BCD PUSH1 0xE5 SHL DUP2 MSTORE PUSH1 0x4 ADD PUSH2 0x6FE SWAP1 PUSH2 0x2F54 JUMP JUMPDEST PUSH1 0x4 DUP4 MLOAD LT ISZERO PUSH2 0x842 JUMPI PUSH1 0x40 MLOAD PUSH3 0x461BCD PUSH1 0xE5 SHL DUP2 MSTORE PUSH1 0x4 ADD PUSH2 0x6FE SWAP1 PUSH2 0x3234 JUMP JUMPDEST PUSH1 0x0 PUSH1 0x18 DUP5 PUSH1 0x3 DUP2 MLOAD DUP2 LT PUSH2 0x853 JUMPI INVALID JUMPDEST ADD PUSH1 0x20 ADD MLOAD DUP6 MLOAD PUSH32 0xFF00000000000000000000000000000000000000000000000000000000000000 SWAP1 SWAP2 AND SWAP1 SWAP2 SHR SWAP1 PUSH1 0x10 SWAP1 DUP7 SWAP1 PUSH1 0x2 SWAP1 DUP2 LT PUSH2 0x892 JUMPI INVALID JUMPDEST ADD PUSH1 0x20 ADD MLOAD DUP7 MLOAD PUSH32 0xFF00000000000000000000000000000000000000000000000000000000000000 SWAP1 SWAP2 AND SWAP1 SWAP2 SHR SWAP1 PUSH1 0x8 SWAP1 DUP8 SWAP1 PUSH1 0x1 SWAP1 DUP2 LT PUSH2 0x8D1 JUMPI INVALID JUMPDEST ADD PUSH1 0x20 ADD MLOAD DUP8 MLOAD PUSH32 0xFF00000000000000000000000000000000000000000000000000000000000000 SWAP1 SWAP2 AND SWAP1 SWAP2 SHR SWAP1 DUP8 SWAP1 PUSH1 0x0 SWAP1 PUSH2 0x90B JUMPI INVALID JUMPDEST PUSH1 0x20 ADD ADD MLOAD PUSH1 0xF8 SHR PUSH1 0xF8 SHL PUSH31 0xFFFFFFFFFFFFFFFFFFFFFFFFFFFFFFFFFFFFFFFFFFFFFFFFFFFFFFFFFFFFFF NOT AND OR OR OR SWAP1 POP PUSH1 0x0 DUP6 PUSH1 0x1 PUSH1 0x1 PUSH1 0xA0 SHL SUB AND PUSH4 0x851C1BB3 DUP4 PUSH1 0x40 MLOAD DUP3 PUSH4 0xFFFFFFFF AND PUSH1 0xE0 SHL DUP2 MSTORE PUSH1 0x4 ADD PUSH2 0x96B SWAP2 SWAP1 PUSH2 0x2F14 JUMP JUMPDEST PUSH1 0x20 PUSH1 0x40 MLOAD DUP1 DUP4 SUB DUP2 DUP7 DUP1 EXTCODESIZE ISZERO DUP1 ISZERO PUSH2 0x983 JUMPI PUSH1 0x0 DUP1 REVERT JUMPDEST POP GAS STATICCALL ISZERO DUP1 ISZERO PUSH2 0x997 JUMPI RETURNDATASIZE PUSH1 0x0 DUP1 RETURNDATACOPY RETURNDATASIZE PUSH1 0x0 REVERT JUMPDEST POP POP POP POP PUSH1 0x40 MLOAD RETURNDATASIZE PUSH1 0x1F NOT PUSH1 0x1F DUP3 ADD AND DUP3 ADD DUP1 PUSH1 0x40 MSTORE POP DUP2 ADD SWAP1 PUSH2 0x9BB SWAP2 SWAP1 PUSH2 0x2C02 JUMP JUMPDEST SWAP1 POP PUSH2 0x9C8 DUP2 CALLER DUP9 PUSH2 0x1EA3 JUMP JUMPDEST PUSH2 0x9E4 JUMPI PUSH1 0x40 MLOAD PUSH3 0x461BCD PUSH1 0xE5 SHL DUP2 MSTORE PUSH1 0x4 ADD PUSH2 0x6FE SWAP1 PUSH2 0x326B JUMP JUMPDEST PUSH1 0x0 DUP2 DUP2 MSTORE PUSH1 0xA PUSH1 0x20 MSTORE PUSH1 0x40 SWAP1 KECCAK256 SLOAD DUP1 PUSH2 0xA10 JUMPI PUSH1 0x40 MLOAD PUSH3 0x461BCD PUSH1 0xE5 SHL DUP2 MSTORE PUSH1 0x4 ADD PUSH2 0x6FE SWAP1 PUSH2 0x32A2 JUMP JUMPDEST PUSH1 0x0 PUSH2 0xA1E DUP9 DUP9 DUP5 DUP10 PUSH2 0x254B JUMP JUMPDEST SWAP1 POP DUP1 DUP4 PUSH32 0x26CE5FFB7AB1CE72D9CA4A3E4F906D2B99194D6C53DD9832FD7A59D0B2FC6BED PUSH1 0x40 MLOAD PUSH1 0x40 MLOAD DUP1 SWAP2 SUB SWAP1 LOG3 PUSH2 0xA58 DUP2 CALLER PUSH2 0xD67 JUMP JUMPDEST PUSH2 0xA66 JUMPI PUSH2 0xA66 DUP2 CALLER PUSH2 0x27F0 JUMP JUMPDEST SWAP4 POP POP POP POP JUMPDEST SWAP4 SWAP3 POP POP POP JUMP JUMPDEST PUSH32 0x0 SWAP1 JUMP JUMPDEST CALLER PUSH1 0x1 PUSH1 0x1 PUSH1 0xA0 SHL SUB PUSH32 0x0 AND EQ PUSH2 0xADF JUMPI PUSH1 0x40 MLOAD PUSH3 0x461BCD PUSH1 0xE5 SHL DUP2 MSTORE PUSH1 0x4 ADD PUSH2 0x6FE SWAP1 PUSH2 0x3536 JUMP JUMPDEST PUSH2 0x7B9 DUP2 PUSH2 0x24E9 JUMP JUMPDEST PUSH2 0xAF1 CALLER PUSH2 0xEF6 JUMP JUMPDEST PUSH2 0xB0D JUMPI PUSH1 0x40 MLOAD PUSH3 0x461BCD PUSH1 0xE5 SHL DUP2 MSTORE PUSH1 0x4 ADD PUSH2 0x6FE SWAP1 PUSH2 0x3347 JUMP JUMPDEST PUSH2 0xB18 DUP4 DUP4 DUP4 PUSH2 0x1C26 JUMP JUMPDEST ISZERO PUSH2 0xB35 JUMPI PUSH1 0x40 MLOAD PUSH3 0x461BCD PUSH1 0xE5 SHL DUP2 MSTORE PUSH1 0x4 ADD PUSH2 0x6FE SWAP1 PUSH2 0x3158 JUMP JUMPDEST PUSH1 0x0 DUP4 DUP2 MSTORE PUSH1 0x3 PUSH1 0x20 SWAP1 DUP2 MSTORE PUSH1 0x40 DUP1 DUP4 KECCAK256 PUSH1 0x1 PUSH1 0x1 PUSH1 0xA0 SHL SUB DUP1 DUP8 AND DUP1 DUP7 MSTORE SWAP2 DUP5 MSTORE DUP3 DUP6 KECCAK256 SWAP1 DUP7 AND DUP1 DUP7 MSTORE SWAP4 MSTORE DUP2 DUP5 KECCAK256 DUP1 SLOAD PUSH1 0xFF NOT AND PUSH1 0x1 OR SWAP1 SSTORE SWAP1 MLOAD SWAP2 SWAP3 SWAP1 SWAP2 DUP7 SWAP2 PUSH32 0x2D106CF4379AAD979C25AF765E6F7169B732D4C4660E41AA733A150C7FC0A6F7 SWAP2 LOG4 POP POP POP JUMP JUMPDEST PUSH1 0x0 DUP4 DUP4 DUP4 PUSH1 0x40 MLOAD PUSH1 0x20 ADD PUSH2 0xBB7 SWAP4 SWAP3 SWAP2 SWAP1 PUSH2 0x2DE6 JUMP JUMPDEST PUSH1 0x40 MLOAD PUSH1 0x20 DUP2 DUP4 SUB SUB DUP2 MSTORE SWAP1 PUSH1 0x40 MSTORE DUP1 MLOAD SWAP1 PUSH1 0x20 ADD KECCAK256 SWAP1 POP SWAP4 SWAP3 POP POP POP JUMP JUMPDEST PUSH1 0x0 PUSH2 0xBE1 CALLER PUSH2 0xEF6 JUMP JUMPDEST PUSH2 0xBFD JUMPI PUSH1 0x40 MLOAD PUSH3 0x461BCD PUSH1 0xE5 SHL DUP2 MSTORE PUSH1 0x4 ADD PUSH2 0x6FE SWAP1 PUSH2 0x3347 JUMP JUMPDEST PUSH1 0x60 PUSH4 0x1B3C85EB PUSH1 0xE0 SHL DUP5 PUSH1 0x40 MLOAD PUSH1 0x24 ADD PUSH2 0xC18 SWAP2 SWAP1 PUSH2 0x2E24 JUMP JUMPDEST PUSH1 0x40 DUP1 MLOAD PUSH1 0x1F NOT DUP2 DUP5 SUB ADD DUP2 MSTORE SWAP2 SWAP1 MSTORE PUSH1 0x20 DUP2 ADD DUP1 MLOAD PUSH28 0xFFFFFFFFFFFFFFFFFFFFFFFFFFFFFFFFFFFFFFFFFFFFFFFFFFFFFFFF AND PUSH32 0xFFFFFFFF00000000000000000000000000000000000000000000000000000000 SWAP1 SWAP4 AND SWAP3 SWAP1 SWAP3 OR SWAP1 SWAP2 MSTORE SWAP1 POP PUSH1 0x0 PUSH2 0xC8E ADDRESS DUP4 PUSH2 0xC88 PUSH2 0x1CC8 JUMP JUMPDEST DUP8 PUSH2 0x254B JUMP JUMPDEST SWAP1 POP DUP1 DUP6 PUSH1 0x1 PUSH1 0x1 PUSH1 0xA0 SHL SUB AND PUSH32 0x7DE09FF5F925CA34A396DF31B30CDBDD0CD10B88833B4F7334CECC02454C1BE7 PUSH1 0x40 MLOAD PUSH1 0x40 MLOAD DUP1 SWAP2 SUB SWAP1 LOG3 SWAP5 SWAP4 POP POP POP POP JUMP JUMPDEST PUSH1 0x0 DUP4 DUP2 MSTORE PUSH1 0x8 PUSH1 0x20 MSTORE PUSH1 0x40 SWAP1 KECCAK256 SLOAD PUSH2 0xD0D JUMPI PUSH2 0xCEC CALLER DUP3 PUSH2 0x1CEC JUMP JUMPDEST PUSH2 0xD08 JUMPI PUSH1 0x40 MLOAD PUSH3 0x461BCD PUSH1 0xE5 SHL DUP2 MSTORE PUSH1 0x4 ADD PUSH2 0x6FE SWAP1 PUSH2 0x3310 JUMP JUMPDEST PUSH2 0xD45 JUMP JUMPDEST PUSH2 0xD15 PUSH2 0xA73 JUMP JUMPDEST PUSH1 0x1 PUSH1 0x1 PUSH1 0xA0 SHL SUB AND CALLER PUSH1 0x1 PUSH1 0x1 PUSH1 0xA0 SHL SUB AND EQ PUSH2 0xD45 JUMPI PUSH1 0x40 MLOAD PUSH3 0x461BCD PUSH1 0xE5 SHL DUP2 MSTORE PUSH1 0x4 ADD PUSH2 0x6FE SWAP1 PUSH2 0x33B5 JUMP JUMPDEST PUSH2 0xD50 DUP4 DUP4 DUP4 PUSH2 0x2872 JUMP JUMPDEST POP POP POP JUMP JUMPDEST PUSH1 0x0 SWAP1 DUP2 MSTORE PUSH1 0xA PUSH1 0x20 MSTORE PUSH1 0x40 SWAP1 KECCAK256 SLOAD SWAP1 JUMP JUMPDEST PUSH1 0x0 DUP3 DUP2 MSTORE PUSH1 0x5 PUSH1 0x20 SWAP1 DUP2 MSTORE PUSH1 0x40 DUP1 DUP4 KECCAK256 PUSH1 0x1 PUSH1 0x1 PUSH1 0xA0 SHL SUB DUP6 AND DUP5 MSTORE SWAP1 SWAP2 MSTORE DUP2 KECCAK256 SLOAD PUSH1 0xFF AND DUP1 PUSH2 0xDCA JUMPI POP PUSH1 0x5 PUSH1 0x0 PUSH2 0xD9F PUSH2 0x119C JUMP JUMPDEST DUP2 MSTORE PUSH1 0x20 DUP1 DUP3 ADD SWAP3 SWAP1 SWAP3 MSTORE PUSH1 0x40 SWAP1 DUP2 ADD PUSH1 0x0 SWAP1 DUP2 KECCAK256 PUSH1 0x1 PUSH1 0x1 PUSH1 0xA0 SHL SUB DUP7 AND DUP3 MSTORE SWAP1 SWAP3 MSTORE SWAP1 KECCAK256 SLOAD PUSH1 0xFF AND JUMPDEST DUP1 PUSH2 0xA6C JUMPI POP PUSH2 0xA6C DUP3 PUSH2 0xEF6 JUMP JUMPDEST PUSH1 0x6 SLOAD DUP2 LT PUSH2 0xDFA JUMPI PUSH1 0x40 MLOAD PUSH3 0x461BCD PUSH1 0xE5 SHL DUP2 MSTORE PUSH1 0x4 ADD PUSH2 0x6FE SWAP1 PUSH2 0x3612 JUMP JUMPDEST PUSH1 0x0 PUSH1 0x6 DUP3 DUP2 SLOAD DUP2 LT PUSH2 0xE09 JUMPI INVALID JUMPDEST PUSH1 0x0 SWAP2 DUP3 MSTORE PUSH1 0x20 SWAP1 SWAP2 KECCAK256 PUSH1 0x4 SWAP1 SWAP2 MUL ADD PUSH1 0x2 DUP2 ADD SLOAD SWAP1 SWAP2 POP PUSH1 0xFF AND ISZERO PUSH2 0xE41 JUMPI PUSH1 0x40 MLOAD PUSH3 0x461BCD PUSH1 0xE5 SHL DUP2 MSTORE PUSH1 0x4 ADD PUSH2 0x6FE SWAP1 PUSH2 0x3649 JUMP JUMPDEST PUSH1 0x2 DUP2 ADD SLOAD PUSH2 0x100 SWAP1 DIV PUSH1 0xFF AND ISZERO PUSH2 0xE6B JUMPI PUSH1 0x40 MLOAD PUSH3 0x461BCD PUSH1 0xE5 SHL DUP2 MSTORE PUSH1 0x4 ADD PUSH2 0x6FE SWAP1 PUSH2 0x34FF JUMP JUMPDEST PUSH2 0xE75 DUP3 CALLER PUSH2 0xD67 JUMP JUMPDEST PUSH2 0xE91 JUMPI PUSH1 0x40 MLOAD PUSH3 0x461BCD PUSH1 0xE5 SHL DUP2 MSTORE PUSH1 0x4 ADD PUSH2 0x6FE SWAP1 PUSH2 0x375C JUMP JUMPDEST PUSH1 0x2 DUP2 ADD DUP1 SLOAD PUSH32 0xFFFFFFFFFFFFFFFFFFFFFFFFFFFFFFFFFFFFFFFFFFFFFFFFFFFFFFFFFFFF00FF AND PUSH2 0x100 OR SWAP1 SSTORE PUSH1 0x40 MLOAD DUP3 SWAP1 PUSH32 0x2A6BEF66DE603FC0EC07223576486BD905CD9BB6E05364286D9A5CD1BE046AE6 SWAP1 PUSH1 0x0 SWAP1 LOG2 POP POP JUMP JUMPDEST PUSH4 0x3C26700 SWAP1 JUMP JUMPDEST PUSH1 0x0 SLOAD PUSH1 0x1 PUSH1 0x1 PUSH1 0xA0 SHL SUB SWAP1 DUP2 AND SWAP2 AND EQ SWAP1 JUMP JUMPDEST PUSH1 0x0 PUSH2 0xF16 CALLER DUP5 PUSH2 0x1CEC JUMP JUMPDEST PUSH2 0xF32 JUMPI PUSH1 0x40 MLOAD PUSH3 0x461BCD PUSH1 0xE5 SHL DUP2 MSTORE PUSH1 0x4 ADD PUSH2 0x6FE SWAP1 PUSH2 0x3310 JUMP JUMPDEST PUSH1 0x0 DUP6 DUP2 MSTORE PUSH1 0x8 PUSH1 0x20 MSTORE PUSH1 0x40 SWAP1 KECCAK256 SLOAD DUP1 PUSH2 0xF5E JUMPI PUSH1 0x40 MLOAD PUSH3 0x461BCD PUSH1 0xE5 SHL DUP2 MSTORE PUSH1 0x4 ADD PUSH2 0x6FE SWAP1 PUSH2 0x345A JUMP JUMPDEST PUSH1 0x60 PUSH4 0x3AC5D439 PUSH1 0xE0 SHL DUP8 DUP8 DUP8 PUSH1 0x40 MLOAD PUSH1 0x24 ADD PUSH2 0xF7D SWAP4 SWAP3 SWAP2 SWAP1 PUSH2 0x2EE7 JUMP JUMPDEST PUSH1 0x40 DUP1 MLOAD PUSH1 0x1F NOT DUP2 DUP5 SUB ADD DUP2 MSTORE SWAP2 SWAP1 MSTORE PUSH1 0x20 DUP2 ADD DUP1 MLOAD PUSH28 0xFFFFFFFFFFFFFFFFFFFFFFFFFFFFFFFFFFFFFFFFFFFFFFFFFFFFFFFF AND PUSH32 0xFFFFFFFF00000000000000000000000000000000000000000000000000000000 SWAP1 SWAP4 AND SWAP3 SWAP1 SWAP3 OR SWAP1 SWAP2 MSTORE SWAP1 POP PUSH1 0x0 PUSH2 0xFEC ADDRESS DUP4 DUP6 DUP9 PUSH2 0x254B JUMP JUMPDEST SWAP1 POP DUP6 PUSH1 0x1 PUSH1 0x1 PUSH1 0xA0 SHL SUB AND DUP8 PUSH1 0x1 PUSH1 0x1 PUSH1 0xA0 SHL SUB AND DUP10 PUSH32 0x645FDC5699106B1DFFDA57F54FDCCA22AD57D87F0AFD651EDF857AF3BFBD8784 DUP5 PUSH1 0x40 MLOAD PUSH2 0x1032 SWAP2 SWAP1 PUSH2 0x2EDE JUMP JUMPDEST PUSH1 0x40 MLOAD DUP1 SWAP2 SUB SWAP1 LOG4 PUSH2 0x1044 DUP2 CALLER PUSH2 0xD67 JUMP JUMPDEST PUSH2 0x1052 JUMPI PUSH2 0x1052 DUP2 CALLER PUSH2 0x27F0 JUMP JUMPDEST SWAP8 SWAP7 POP POP POP POP POP POP POP JUMP JUMPDEST PUSH1 0x0 SLOAD PUSH1 0x1 PUSH1 0x1 PUSH1 0xA0 SHL SUB AND SWAP1 JUMP JUMPDEST PUSH1 0x0 PUSH2 0x1077 CALLER PUSH2 0xEF6 JUMP JUMPDEST PUSH2 0x1093 JUMPI PUSH1 0x40 MLOAD PUSH3 0x461BCD PUSH1 0xE5 SHL DUP2 MSTORE PUSH1 0x4 ADD PUSH2 0x6FE SWAP1 PUSH2 0x3347 JUMP JUMPDEST PUSH2 0x109B PUSH2 0xEEE JUMP JUMPDEST DUP4 GT ISZERO PUSH2 0x10BA JUMPI PUSH1 0x40 MLOAD PUSH3 0x461BCD PUSH1 0xE5 SHL DUP2 MSTORE PUSH1 0x4 ADD PUSH2 0x6FE SWAP1 PUSH2 0x3423 JUMP JUMPDEST PUSH1 0x0 DUP5 DUP2 MSTORE PUSH1 0x8 PUSH1 0x20 MSTORE PUSH1 0x40 DUP2 KECCAK256 SLOAD PUSH2 0x10D3 SWAP1 DUP6 PUSH2 0x2903 JUMP JUMPDEST SWAP1 POP PUSH1 0x60 PUSH4 0xC80C23E1 PUSH1 0xE0 SHL DUP7 DUP7 PUSH1 0x40 MLOAD PUSH1 0x24 ADD PUSH2 0x10F2 SWAP3 SWAP2 SWAP1 PUSH2 0x2F06 JUMP JUMPDEST PUSH1 0x40 DUP1 MLOAD PUSH1 0x1F NOT DUP2 DUP5 SUB ADD DUP2 MSTORE SWAP2 SWAP1 MSTORE PUSH1 0x20 DUP2 ADD DUP1 MLOAD PUSH28 0xFFFFFFFFFFFFFFFFFFFFFFFFFFFFFFFFFFFFFFFFFFFFFFFFFFFFFFFF AND PUSH32 0xFFFFFFFF00000000000000000000000000000000000000000000000000000000 SWAP1 SWAP4 AND SWAP3 SWAP1 SWAP3 OR SWAP1 SWAP2 MSTORE SWAP1 POP PUSH1 0x0 PUSH2 0x1161 ADDRESS DUP4 DUP6 DUP9 PUSH2 0x254B JUMP JUMPDEST SWAP1 POP DUP1 DUP7 DUP9 PUSH32 0x2F330FAF5E23FC7FF1C46F2B1A3299D86249055A5BF74A8B747AB7FB66F6DC9F PUSH1 0x40 MLOAD PUSH1 0x40 MLOAD DUP1 SWAP2 SUB SWAP1 LOG4 SWAP7 SWAP6 POP POP POP POP POP POP JUMP JUMPDEST PUSH32 0xFFFFFFFFFFFFFFFFFFFFFFFFFFFFFFFFFFFFFFFFFFFFFFFFFFFFFFFFFFFFFFFF SWAP1 JUMP JUMPDEST PUSH1 0x0 PUSH2 0x11CB CALLER PUSH2 0xEF6 JUMP JUMPDEST PUSH2 0x11E7 JUMPI PUSH1 0x40 MLOAD PUSH3 0x461BCD PUSH1 0xE5 SHL DUP2 MSTORE PUSH1 0x4 ADD PUSH2 0x6FE SWAP1 PUSH2 0x3347 JUMP JUMPDEST PUSH2 0x11EF PUSH2 0xEEE JUMP JUMPDEST DUP4 GT ISZERO PUSH2 0x120E JUMPI PUSH1 0x40 MLOAD PUSH3 0x461BCD PUSH1 0xE5 SHL DUP2 MSTORE PUSH1 0x4 ADD PUSH2 0x6FE SWAP1 PUSH2 0x3423 JUMP JUMPDEST PUSH1 0x0 DUP5 DUP2 MSTORE PUSH1 0x7 PUSH1 0x20 MSTORE PUSH1 0x40 DUP2 KECCAK256 SLOAD PUSH2 0x1227 SWAP1 DUP6 PUSH2 0x2903 JUMP JUMPDEST SWAP1 POP PUSH1 0x60 PUSH4 0x10D3AB2C PUSH1 0xE0 SHL DUP7 DUP7 PUSH1 0x40 MLOAD PUSH1 0x24 ADD PUSH2 0x1246 SWAP3 SWAP2 SWAP1 PUSH2 0x2F06 JUMP JUMPDEST PUSH1 0x40 DUP1 MLOAD PUSH1 0x1F NOT DUP2 DUP5 SUB ADD DUP2 MSTORE SWAP2 SWAP1 MSTORE PUSH1 0x20 DUP2 ADD DUP1 MLOAD PUSH28 0xFFFFFFFFFFFFFFFFFFFFFFFFFFFFFFFFFFFFFFFFFFFFFFFFFFFFFFFF AND PUSH32 0xFFFFFFFF00000000000000000000000000000000000000000000000000000000 SWAP1 SWAP4 AND SWAP3 SWAP1 SWAP3 OR SWAP1 SWAP2 MSTORE SWAP1 POP PUSH1 0x0 PUSH2 0x12B5 ADDRESS DUP4 DUP6 DUP9 PUSH2 0x254B JUMP JUMPDEST SWAP1 POP DUP1 DUP7 DUP9 PUSH32 0x3D8C3AD02346A1DDF099DD26578662FB8CF85903168EBFEB1F14473FED8EE488 PUSH1 0x40 MLOAD PUSH1 0x40 MLOAD DUP1 SWAP2 SUB SWAP1 LOG4 SWAP7 SWAP6 POP POP POP POP POP POP JUMP JUMPDEST PUSH2 0x12F8 PUSH2 0x2933 JUMP JUMPDEST PUSH1 0x6 DUP3 DUP2 SLOAD DUP2 LT PUSH2 0x1305 JUMPI INVALID JUMPDEST PUSH1 0x0 SWAP2 DUP3 MSTORE PUSH1 0x20 SWAP2 DUP3 SWAP1 KECCAK256 PUSH1 0x40 DUP1 MLOAD PUSH1 0xC0 DUP2 ADD DUP3 MSTORE PUSH1 0x4 SWAP1 SWAP4 MUL SWAP1 SWAP2 ADD DUP1 SLOAD PUSH1 0x1 PUSH1 0x1 PUSH1 0xA0 SHL SUB AND DUP4 MSTORE PUSH1 0x1 DUP1 DUP3 ADD DUP1 SLOAD DUP5 MLOAD PUSH1 0x1F PUSH1 0x2 PUSH32 0xFFFFFFFFFFFFFFFFFFFFFFFFFFFFFFFFFFFFFFFFFFFFFFFFFFFFFFFFFFFFFFFF SWAP6 DUP5 AND ISZERO PUSH2 0x100 MUL SWAP6 SWAP1 SWAP6 ADD SWAP1 SWAP3 AND SWAP4 SWAP1 SWAP4 DIV SWAP1 DUP2 ADD DUP8 SWAP1 DIV DUP8 MUL DUP4 ADD DUP8 ADD SWAP1 SWAP5 MSTORE DUP4 DUP3 MSTORE SWAP4 SWAP5 SWAP2 SWAP4 DUP6 DUP4 ADD SWAP4 SWAP2 SWAP3 SWAP1 SWAP2 SWAP1 DUP4 ADD DUP3 DUP3 DUP1 ISZERO PUSH2 0x13E0 JUMPI DUP1 PUSH1 0x1F LT PUSH2 0x13B5 JUMPI PUSH2 0x100 DUP1 DUP4 SLOAD DIV MUL DUP4 MSTORE SWAP2 PUSH1 0x20 ADD SWAP2 PUSH2 0x13E0 JUMP JUMPDEST DUP3 ADD SWAP2 SWAP1 PUSH1 0x0 MSTORE PUSH1 0x20 PUSH1 0x0 KECCAK256 SWAP1 JUMPDEST DUP2 SLOAD DUP2 MSTORE SWAP1 PUSH1 0x1 ADD SWAP1 PUSH1 0x20 ADD DUP1 DUP4 GT PUSH2 0x13C3 JUMPI DUP3 SWAP1 SUB PUSH1 0x1F AND DUP3 ADD SWAP2 JUMPDEST POP POP POP SWAP2 DUP4 MSTORE POP POP PUSH1 0x2 DUP3 ADD SLOAD PUSH1 0xFF DUP1 DUP3 AND ISZERO ISZERO PUSH1 0x20 DUP5 ADD MSTORE PUSH2 0x100 DUP3 DIV DUP2 AND ISZERO ISZERO PUSH1 0x40 DUP5 ADD MSTORE PUSH3 0x10000 SWAP1 SWAP2 DIV AND ISZERO ISZERO PUSH1 0x60 DUP3 ADD MSTORE PUSH1 0x3 SWAP1 SWAP2 ADD SLOAD PUSH1 0x80 SWAP1 SWAP2 ADD MSTORE SWAP3 SWAP2 POP POP JUMP JUMPDEST PUSH2 0x1431 CALLER PUSH2 0xEF6 JUMP JUMPDEST PUSH2 0x144D JUMPI PUSH1 0x40 MLOAD PUSH3 0x461BCD PUSH1 0xE5 SHL DUP2 MSTORE PUSH1 0x4 ADD PUSH2 0x6FE SWAP1 PUSH2 0x3347 JUMP JUMPDEST PUSH2 0x1456 DUP2 PUSH2 0xEF6 JUMP JUMPDEST ISZERO PUSH2 0x1473 JUMPI PUSH1 0x40 MLOAD PUSH3 0x461BCD PUSH1 0xE5 SHL DUP2 MSTORE PUSH1 0x4 ADD PUSH2 0x6FE SWAP1 PUSH2 0x2FB1 JUMP JUMPDEST PUSH1 0x5 PUSH1 0x0 PUSH2 0x147F PUSH2 0x119C JUMP JUMPDEST DUP2 MSTORE PUSH1 0x20 DUP1 DUP3 ADD SWAP3 SWAP1 SWAP3 MSTORE PUSH1 0x40 SWAP1 DUP2 ADD PUSH1 0x0 SWAP1 DUP2 KECCAK256 PUSH1 0x1 PUSH1 0x1 PUSH1 0xA0 SHL SUB DUP6 AND DUP3 MSTORE SWAP1 SWAP3 MSTORE SWAP1 KECCAK256 SLOAD PUSH1 0xFF AND ISZERO PUSH2 0x14D9 JUMPI PUSH2 0x14B6 PUSH2 0x119C JUMP JUMPDEST DUP3 EQ PUSH2 0x14D4 JUMPI PUSH1 0x40 MLOAD PUSH3 0x461BCD PUSH1 0xE5 SHL DUP2 MSTORE PUSH1 0x4 ADD PUSH2 0x6FE SWAP1 PUSH2 0x356D JUMP JUMPDEST PUSH2 0x151B JUMP JUMPDEST PUSH1 0x0 DUP3 DUP2 MSTORE PUSH1 0x5 PUSH1 0x20 SWAP1 DUP2 MSTORE PUSH1 0x40 DUP1 DUP4 KECCAK256 PUSH1 0x1 PUSH1 0x1 PUSH1 0xA0 SHL SUB DUP6 AND DUP5 MSTORE SWAP1 SWAP2 MSTORE SWAP1 KECCAK256 SLOAD PUSH1 0xFF AND PUSH2 0x151B JUMPI PUSH1 0x40 MLOAD PUSH3 0x461BCD PUSH1 0xE5 SHL DUP2 MSTORE PUSH1 0x4 ADD PUSH2 0x6FE SWAP1 PUSH2 0x35A4 JUMP JUMPDEST PUSH1 0x0 DUP3 DUP2 MSTORE PUSH1 0x5 PUSH1 0x20 SWAP1 DUP2 MSTORE PUSH1 0x40 DUP1 DUP4 KECCAK256 PUSH1 0x1 PUSH1 0x1 PUSH1 0xA0 SHL SUB DUP6 AND DUP1 DUP6 MSTORE SWAP3 MSTORE DUP1 DUP4 KECCAK256 DUP1 SLOAD PUSH1 0xFF NOT AND SWAP1 SSTORE MLOAD SWAP1 SWAP2 DUP5 SWAP2 PUSH32 0xD6B522EB4B505A0843020E304BA27D827B52C89347E6176B2F2737E6E4015C2D SWAP2 SWAP1 LOG3 POP POP JUMP JUMPDEST PUSH1 0x0 PUSH2 0x1580 DUP6 CALLER DUP6 PUSH2 0x1C26 JUMP JUMPDEST PUSH2 0x159C JUMPI PUSH1 0x40 MLOAD PUSH3 0x461BCD PUSH1 0xE5 SHL DUP2 MSTORE PUSH1 0x4 ADD PUSH2 0x6FE SWAP1 PUSH2 0x30B3 JUMP JUMPDEST PUSH1 0x0 DUP6 DUP2 MSTORE PUSH1 0x7 PUSH1 0x20 MSTORE PUSH1 0x40 SWAP1 KECCAK256 SLOAD DUP1 PUSH2 0x15C8 JUMPI PUSH1 0x40 MLOAD PUSH3 0x461BCD PUSH1 0xE5 SHL DUP2 MSTORE PUSH1 0x4 ADD PUSH2 0x6FE SWAP1 PUSH2 0x31FD JUMP JUMPDEST PUSH1 0x60 PUSH4 0x8CC3D072 PUSH1 0xE0 SHL DUP8 DUP8 DUP8 PUSH1 0x40 MLOAD PUSH1 0x24 ADD PUSH2 0x15E7 SWAP4 SWAP3 SWAP2 SWAP1 PUSH2 0x2EE7 JUMP JUMPDEST PUSH1 0x40 DUP1 MLOAD PUSH1 0x1F NOT DUP2 DUP5 SUB ADD DUP2 MSTORE SWAP2 SWAP1 MSTORE PUSH1 0x20 DUP2 ADD DUP1 MLOAD PUSH28 0xFFFFFFFFFFFFFFFFFFFFFFFFFFFFFFFFFFFFFFFFFFFFFFFFFFFFFFFF AND PUSH32 0xFFFFFFFF00000000000000000000000000000000000000000000000000000000 SWAP1 SWAP4 AND SWAP3 SWAP1 SWAP3 OR SWAP1 SWAP2 MSTORE SWAP1 POP PUSH1 0x0 PUSH2 0x1656 ADDRESS DUP4 DUP6 DUP9 PUSH2 0x254B JUMP JUMPDEST SWAP1 POP DUP6 PUSH1 0x1 PUSH1 0x1 PUSH1 0xA0 SHL SUB AND DUP8 PUSH1 0x1 PUSH1 0x1 PUSH1 0xA0 SHL SUB AND DUP10 PUSH32 0x185F04FF33C89687859342776C7FDCF04D9EB9444D65192BFEBAB5A5AC9874A8 DUP5 PUSH1 0x40 MLOAD PUSH2 0x1032 SWAP2 SWAP1 PUSH2 0x2EDE JUMP JUMPDEST PUSH1 0x0 PUSH1 0x9 PUSH1 0x0 PUSH2 0x16AD DUP7 DUP7 DUP7 PUSH2 0xBA0 JUMP JUMPDEST DUP2 MSTORE PUSH1 0x20 DUP2 ADD SWAP2 SWAP1 SWAP2 MSTORE PUSH1 0x40 ADD PUSH1 0x0 KECCAK256 SLOAD PUSH1 0xFF AND SWAP5 SWAP4 POP POP POP POP JUMP JUMPDEST PUSH1 0x0 SWAP1 DUP2 MSTORE PUSH1 0x7 PUSH1 0x20 MSTORE PUSH1 0x40 SWAP1 KECCAK256 SLOAD SWAP1 JUMP JUMPDEST PUSH1 0x0 DUP4 DUP2 MSTORE PUSH1 0x7 PUSH1 0x20 MSTORE PUSH1 0x40 SWAP1 KECCAK256 SLOAD PUSH2 0x171A JUMPI PUSH2 0x16F9 DUP4 CALLER DUP4 PUSH2 0x1C26 JUMP JUMPDEST PUSH2 0x1715 JUMPI PUSH1 0x40 MLOAD PUSH3 0x461BCD PUSH1 0xE5 SHL DUP2 MSTORE PUSH1 0x4 ADD PUSH2 0x6FE SWAP1 PUSH2 0x30B3 JUMP JUMPDEST PUSH2 0x1752 JUMP JUMPDEST PUSH2 0x1722 PUSH2 0xA73 JUMP JUMPDEST PUSH1 0x1 PUSH1 0x1 PUSH1 0xA0 SHL SUB AND CALLER PUSH1 0x1 PUSH1 0x1 PUSH1 0xA0 SHL SUB AND EQ PUSH2 0x1752 JUMPI PUSH1 0x40 MLOAD PUSH3 0x461BCD PUSH1 0xE5 SHL DUP2 MSTORE PUSH1 0x4 ADD PUSH2 0x6FE SWAP1 PUSH2 0x35DB JUMP JUMPDEST PUSH1 0x0 PUSH2 0x175F DUP5 DUP5 DUP5 PUSH2 0xBA0 JUMP JUMPDEST PUSH1 0x0 DUP2 DUP2 MSTORE PUSH1 0x9 PUSH1 0x20 MSTORE PUSH1 0x40 SWAP1 KECCAK256 SLOAD SWAP1 SWAP2 POP PUSH1 0xFF AND ISZERO PUSH2 0x1791 JUMPI PUSH1 0x40 MLOAD PUSH3 0x461BCD PUSH1 0xE5 SHL DUP2 MSTORE PUSH1 0x4 ADD PUSH2 0x6FE SWAP1 PUSH2 0x301F JUMP JUMPDEST PUSH1 0x0 DUP2 DUP2 MSTORE PUSH1 0x9 PUSH1 0x20 MSTORE PUSH1 0x40 DUP1 DUP3 KECCAK256 DUP1 SLOAD PUSH1 0xFF NOT AND PUSH1 0x1 OR SWAP1 SSTORE MLOAD PUSH1 0x1 PUSH1 0x1 PUSH1 0xA0 SHL SUB DUP1 DUP6 AND SWAP3 SWAP1 DUP7 AND SWAP2 DUP8 SWAP2 PUSH32 0xEF6EE312A0062A24A46BE2EBA5284183A87FF848110E8D4DF979BD690D9E9F68 SWAP2 LOG4 POP POP POP POP JUMP JUMPDEST PUSH32 0x0 SWAP1 JUMP JUMPDEST PUSH2 0x1814 CALLER PUSH2 0xEF6 JUMP JUMPDEST PUSH2 0x1830 JUMPI PUSH1 0x40 MLOAD PUSH3 0x461BCD PUSH1 0xE5 SHL DUP2 MSTORE PUSH1 0x4 ADD PUSH2 0x6FE SWAP1 PUSH2 0x3347 JUMP JUMPDEST PUSH2 0x183A DUP3 DUP3 PUSH2 0x1CEC JUMP JUMPDEST PUSH2 0x1856 JUMPI PUSH1 0x40 MLOAD PUSH3 0x461BCD PUSH1 0xE5 SHL DUP2 MSTORE PUSH1 0x4 ADD PUSH2 0x6FE SWAP1 PUSH2 0x3680 JUMP JUMPDEST PUSH2 0x185F DUP3 PUSH2 0xEF6 JUMP JUMPDEST ISZERO PUSH2 0x187C JUMPI PUSH1 0x40 MLOAD PUSH3 0x461BCD PUSH1 0xE5 SHL DUP2 MSTORE PUSH1 0x4 ADD PUSH2 0x6FE SWAP1 PUSH2 0x337E JUMP JUMPDEST PUSH1 0x1 PUSH1 0x1 PUSH1 0xA0 SHL SUB DUP3 AND PUSH1 0x0 SWAP1 DUP2 MSTORE PUSH1 0x4 PUSH1 0x20 MSTORE PUSH1 0x40 DUP2 KECCAK256 SWAP1 PUSH2 0x189D PUSH2 0x119C JUMP JUMPDEST PUSH1 0x1 PUSH1 0x1 PUSH1 0xA0 SHL SUB AND DUP2 MSTORE PUSH1 0x20 DUP2 ADD SWAP2 SWAP1 SWAP2 MSTORE PUSH1 0x40 ADD PUSH1 0x0 KECCAK256 SLOAD PUSH1 0xFF AND ISZERO PUSH2 0x18F7 JUMPI PUSH2 0x18C7 PUSH2 0x119C JUMP JUMPDEST PUSH1 0x1 PUSH1 0x1 PUSH1 0xA0 SHL SUB AND DUP2 PUSH1 0x1 PUSH1 0x1 PUSH1 0xA0 SHL SUB AND EQ PUSH2 0x18F7 JUMPI PUSH1 0x40 MLOAD PUSH3 0x461BCD PUSH1 0xE5 SHL DUP2 MSTORE PUSH1 0x4 ADD PUSH2 0x6FE SWAP1 PUSH2 0x32D9 JUMP JUMPDEST PUSH1 0x1 PUSH1 0x1 PUSH1 0xA0 SHL SUB DUP1 DUP4 AND PUSH1 0x0 DUP2 DUP2 MSTORE PUSH1 0x4 PUSH1 0x20 SWAP1 DUP2 MSTORE PUSH1 0x40 DUP1 DUP4 KECCAK256 SWAP5 DUP7 AND DUP1 DUP5 MSTORE SWAP5 SWAP1 SWAP2 MSTORE DUP1 DUP3 KECCAK256 DUP1 SLOAD PUSH1 0xFF NOT AND SWAP1 SSTORE MLOAD PUSH32 0xB6FE3AB11EB9AB1D9F1D41C8F42A5D72D10122099BA1548E4A6D1A4D8CEFEC4B SWAP2 SWAP1 LOG3 POP POP JUMP JUMPDEST PUSH2 0x195C DUP3 CALLER DUP4 PUSH2 0x2872 JUMP JUMPDEST POP POP JUMP JUMPDEST PUSH1 0x0 CALLER PUSH1 0x1 PUSH1 0x1 PUSH1 0xA0 SHL SUB PUSH32 0x0 AND EQ ISZERO PUSH2 0x19CF JUMPI PUSH32 0x0 PUSH1 0x1 PUSH1 0x1 PUSH1 0xA0 SHL SUB AND DUP4 PUSH1 0x1 PUSH1 0x1 PUSH1 0xA0 SHL SUB AND EQ SWAP1 POP PUSH2 0xA6C JUMP JUMPDEST PUSH1 0x0 DUP5 DUP2 MSTORE PUSH1 0xA PUSH1 0x20 MSTORE PUSH1 0x40 SWAP1 KECCAK256 SLOAD ISZERO PUSH2 0x1A04 JUMPI PUSH2 0x19EB PUSH2 0xA73 JUMP JUMPDEST PUSH1 0x1 PUSH1 0x1 PUSH1 0xA0 SHL SUB AND DUP4 PUSH1 0x1 PUSH1 0x1 PUSH1 0xA0 SHL SUB AND EQ PUSH2 0x1A0F JUMP JUMPDEST PUSH2 0x1A0F DUP5 DUP5 DUP5 PUSH2 0x1EA3 JUMP JUMPDEST SWAP5 SWAP4 POP POP POP POP JUMP JUMPDEST PUSH2 0x1A20 CALLER PUSH2 0xEF6 JUMP JUMPDEST PUSH2 0x1A3C JUMPI PUSH1 0x40 MLOAD PUSH3 0x461BCD PUSH1 0xE5 SHL DUP2 MSTORE PUSH1 0x4 ADD PUSH2 0x6FE SWAP1 PUSH2 0x3347 JUMP JUMPDEST PUSH2 0x1A46 DUP3 DUP3 PUSH2 0x1CEC JUMP JUMPDEST ISZERO PUSH2 0x1A63 JUMPI PUSH1 0x40 MLOAD PUSH3 0x461BCD PUSH1 0xE5 SHL DUP2 MSTORE PUSH1 0x4 ADD PUSH2 0x6FE SWAP1 PUSH2 0x3725 JUMP JUMPDEST PUSH1 0x1 PUSH1 0x1 PUSH1 0xA0 SHL SUB DUP1 DUP4 AND PUSH1 0x0 DUP2 DUP2 MSTORE PUSH1 0x4 PUSH1 0x20 SWAP1 DUP2 MSTORE PUSH1 0x40 DUP1 DUP4 KECCAK256 SWAP5 DUP7 AND DUP1 DUP5 MSTORE SWAP5 SWAP1 SWAP2 MSTORE DUP1 DUP3 KECCAK256 DUP1 SLOAD PUSH1 0xFF NOT AND PUSH1 0x1 OR SWAP1 SSTORE MLOAD PUSH32 0x2B5F18AFD9A7B21F41BF023B012B3D4C8A22A21B79FA425CD4494ECBE2970196 SWAP2 SWAP1 LOG3 POP POP JUMP JUMPDEST PUSH2 0x1AC9 CALLER PUSH2 0xEF6 JUMP JUMPDEST PUSH2 0x1AE5 JUMPI PUSH1 0x40 MLOAD PUSH3 0x461BCD PUSH1 0xE5 SHL DUP2 MSTORE PUSH1 0x4 ADD PUSH2 0x6FE SWAP1 PUSH2 0x3347 JUMP JUMPDEST PUSH2 0x1AF0 DUP4 DUP4 DUP4 PUSH2 0x1C26 JUMP JUMPDEST PUSH2 0x1B0C JUMPI PUSH1 0x40 MLOAD PUSH3 0x461BCD PUSH1 0xE5 SHL DUP2 MSTORE PUSH1 0x4 ADD PUSH2 0x6FE SWAP1 PUSH2 0x3491 JUMP JUMPDEST PUSH2 0x1B15 DUP3 PUSH2 0xEF6 JUMP JUMPDEST ISZERO PUSH2 0x1B32 JUMPI PUSH1 0x40 MLOAD PUSH3 0x461BCD PUSH1 0xE5 SHL DUP2 MSTORE PUSH1 0x4 ADD PUSH2 0x6FE SWAP1 PUSH2 0x36EE JUMP JUMPDEST PUSH1 0x0 DUP4 DUP2 MSTORE PUSH1 0x3 PUSH1 0x20 SWAP1 DUP2 MSTORE PUSH1 0x40 DUP1 DUP4 KECCAK256 PUSH1 0x1 PUSH1 0x1 PUSH1 0xA0 SHL SUB DUP7 AND DUP5 MSTORE SWAP1 SWAP2 MSTORE DUP2 KECCAK256 SWAP1 PUSH2 0x1B5D PUSH2 0x119C JUMP JUMPDEST PUSH1 0x1 PUSH1 0x1 PUSH1 0xA0 SHL SUB AND DUP2 MSTORE PUSH1 0x20 DUP2 ADD SWAP2 SWAP1 SWAP2 MSTORE PUSH1 0x40 ADD PUSH1 0x0 KECCAK256 SLOAD PUSH1 0xFF AND ISZERO PUSH2 0x1BB7 JUMPI PUSH2 0x1B87 PUSH2 0x119C JUMP JUMPDEST PUSH1 0x1 PUSH1 0x1 PUSH1 0xA0 SHL SUB AND DUP2 PUSH1 0x1 PUSH1 0x1 PUSH1 0xA0 SHL SUB AND EQ PUSH2 0x1BB7 JUMPI PUSH1 0x40 MLOAD PUSH3 0x461BCD PUSH1 0xE5 SHL DUP2 MSTORE PUSH1 0x4 ADD PUSH2 0x6FE SWAP1 PUSH2 0x2FE8 JUMP JUMPDEST PUSH1 0x0 DUP4 DUP2 MSTORE PUSH1 0x3 PUSH1 0x20 SWAP1 DUP2 MSTORE PUSH1 0x40 DUP1 DUP4 KECCAK256 PUSH1 0x1 PUSH1 0x1 PUSH1 0xA0 SHL SUB DUP1 DUP8 AND DUP1 DUP7 MSTORE SWAP2 DUP5 MSTORE DUP3 DUP6 KECCAK256 SWAP1 DUP7 AND DUP1 DUP7 MSTORE SWAP4 MSTORE DUP2 DUP5 KECCAK256 DUP1 SLOAD PUSH1 0xFF NOT AND SWAP1 SSTORE SWAP1 MLOAD SWAP2 SWAP3 SWAP1 SWAP2 DUP7 SWAP2 PUSH32 0xF8034293D5B4ED16B867DED8F122C475BC0D1B6BD9309A606609A754E5F3ADC3 SWAP2 LOG4 POP POP POP JUMP JUMPDEST PUSH3 0x69780 SWAP1 JUMP JUMPDEST PUSH1 0x0 DUP4 DUP2 MSTORE PUSH1 0x3 PUSH1 0x20 SWAP1 DUP2 MSTORE PUSH1 0x40 DUP1 DUP4 KECCAK256 PUSH1 0x1 PUSH1 0x1 PUSH1 0xA0 SHL SUB DUP1 DUP8 AND DUP6 MSTORE SWAP1 DUP4 MSTORE DUP2 DUP5 KECCAK256 SWAP1 DUP6 AND DUP5 MSTORE SWAP1 SWAP2 MSTORE DUP2 KECCAK256 SLOAD PUSH1 0xFF AND DUP1 PUSH2 0x1CA7 JUMPI POP PUSH1 0x0 DUP5 DUP2 MSTORE PUSH1 0x3 PUSH1 0x20 SWAP1 DUP2 MSTORE PUSH1 0x40 DUP1 DUP4 KECCAK256 PUSH1 0x1 PUSH1 0x1 PUSH1 0xA0 SHL SUB DUP8 AND DUP5 MSTORE SWAP1 SWAP2 MSTORE DUP2 KECCAK256 SWAP1 PUSH2 0x1C89 PUSH2 0x119C JUMP JUMPDEST PUSH1 0x1 PUSH1 0x1 PUSH1 0xA0 SHL SUB AND DUP2 MSTORE PUSH1 0x20 DUP2 ADD SWAP2 SWAP1 SWAP2 MSTORE PUSH1 0x40 ADD PUSH1 0x0 KECCAK256 SLOAD PUSH1 0xFF AND JUMPDEST DUP1 PUSH2 0x1A0F JUMPI POP PUSH2 0x1A0F DUP4 PUSH2 0xEF6 JUMP JUMPDEST PUSH1 0x0 SWAP1 DUP2 MSTORE PUSH1 0x8 PUSH1 0x20 MSTORE PUSH1 0x40 SWAP1 KECCAK256 SLOAD SWAP1 JUMP JUMPDEST PUSH32 0x0 SWAP1 JUMP JUMPDEST PUSH1 0x1 PUSH1 0x1 PUSH1 0xA0 SHL SUB DUP1 DUP4 AND PUSH1 0x0 SWAP1 DUP2 MSTORE PUSH1 0x4 PUSH1 0x20 SWAP1 DUP2 MSTORE PUSH1 0x40 DUP1 DUP4 KECCAK256 SWAP4 DUP6 AND DUP4 MSTORE SWAP3 SWAP1 MSTORE SWAP1 DUP2 KECCAK256 SLOAD PUSH1 0xFF AND DUP1 PUSH2 0x1D5C JUMPI POP PUSH1 0x1 PUSH1 0x1 PUSH1 0xA0 SHL SUB DUP4 AND PUSH1 0x0 SWAP1 DUP2 MSTORE PUSH1 0x4 PUSH1 0x20 MSTORE PUSH1 0x40 DUP2 KECCAK256 SWAP1 PUSH2 0x1D3E PUSH2 0x119C JUMP JUMPDEST PUSH1 0x1 PUSH1 0x1 PUSH1 0xA0 SHL SUB AND DUP2 MSTORE PUSH1 0x20 DUP2 ADD SWAP2 SWAP1 SWAP2 MSTORE PUSH1 0x40 ADD PUSH1 0x0 KECCAK256 SLOAD PUSH1 0xFF AND JUMPDEST DUP1 PUSH2 0xA6C JUMPI POP PUSH2 0xA6C DUP4 PUSH2 0xEF6 JUMP JUMPDEST CALLER PUSH1 0x1 PUSH1 0x1 PUSH1 0xA0 SHL SUB PUSH32 0x0 AND EQ PUSH2 0x1DB3 JUMPI PUSH1 0x40 MLOAD PUSH3 0x461BCD PUSH1 0xE5 SHL DUP2 MSTORE PUSH1 0x4 ADD PUSH2 0x6FE SWAP1 PUSH2 0x3536 JUMP JUMPDEST PUSH2 0x1DBC DUP2 PUSH2 0x23AE JUMP JUMPDEST PUSH2 0x1DD8 JUMPI PUSH1 0x40 MLOAD PUSH3 0x461BCD PUSH1 0xE5 SHL DUP2 MSTORE PUSH1 0x4 ADD PUSH2 0x6FE SWAP1 PUSH2 0x3121 JUMP JUMPDEST PUSH1 0x0 DUP3 DUP2 MSTORE PUSH1 0x8 PUSH1 0x20 MSTORE PUSH1 0x40 SWAP1 DUP2 SWAP1 KECCAK256 DUP3 SWAP1 SSTORE MLOAD DUP3 SWAP1 PUSH32 0x6AEEBD84E31437F28A17927609991676C31C2B84875C601373DA2C194E9D2341 SWAP1 PUSH2 0x76F SWAP1 DUP5 SWAP1 PUSH2 0x2EDE JUMP JUMPDEST PUSH1 0x6 SLOAD PUSH1 0x0 SWAP1 DUP3 LT PUSH2 0x1E3F JUMPI PUSH1 0x40 MLOAD PUSH3 0x461BCD PUSH1 0xE5 SHL DUP2 MSTORE PUSH1 0x4 ADD PUSH2 0x6FE SWAP1 PUSH2 0x3612 JUMP JUMPDEST PUSH1 0x0 PUSH1 0x6 DUP4 DUP2 SLOAD DUP2 LT PUSH2 0x1E4E JUMPI INVALID JUMPDEST PUSH1 0x0 SWAP2 DUP3 MSTORE PUSH1 0x20 SWAP1 SWAP2 KECCAK256 PUSH1 0x4 SWAP1 SWAP2 MUL ADD PUSH1 0x2 DUP2 ADD SLOAD SWAP1 SWAP2 POP PUSH1 0xFF AND ISZERO DUP1 ISZERO PUSH2 0x1E80 JUMPI POP PUSH1 0x2 DUP2 ADD SLOAD PUSH2 0x100 SWAP1 DIV PUSH1 0xFF AND ISZERO JUMPDEST DUP1 ISZERO PUSH2 0xA6C JUMPI POP PUSH1 0x3 ADD SLOAD TIMESTAMP LT ISZERO SWAP3 SWAP2 POP POP JUMP JUMPDEST PUSH1 0x1 SLOAD PUSH1 0x1 PUSH1 0x1 PUSH1 0xA0 SHL SUB AND SWAP1 JUMP JUMPDEST PUSH1 0x0 PUSH1 0x9 PUSH1 0x0 PUSH2 0x1EB4 DUP7 DUP7 DUP7 PUSH2 0xBA0 JUMP JUMPDEST DUP2 MSTORE PUSH1 0x20 DUP2 ADD SWAP2 SWAP1 SWAP2 MSTORE PUSH1 0x40 ADD PUSH1 0x0 KECCAK256 SLOAD PUSH1 0xFF AND DUP1 PUSH2 0x1A0F JUMPI POP PUSH1 0x9 PUSH1 0x0 PUSH2 0x16AD DUP7 DUP7 PUSH2 0x3DC PUSH2 0x119C JUMP JUMPDEST PUSH1 0x0 PUSH2 0x1EEA CALLER PUSH2 0xEF6 JUMP JUMPDEST PUSH2 0x1F06 JUMPI PUSH1 0x40 MLOAD PUSH3 0x461BCD PUSH1 0xE5 SHL DUP2 MSTORE PUSH1 0x4 ADD PUSH2 0x6FE SWAP1 PUSH2 0x3347 JUMP JUMPDEST PUSH2 0x1F0E PUSH2 0xEEE JUMP JUMPDEST DUP4 GT ISZERO PUSH2 0x1F2D JUMPI PUSH1 0x40 MLOAD PUSH3 0x461BCD PUSH1 0xE5 SHL DUP2 MSTORE PUSH1 0x4 ADD PUSH2 0x6FE SWAP1 PUSH2 0x3423 JUMP JUMPDEST PUSH1 0x0 DUP5 DUP2 MSTORE PUSH1 0xA PUSH1 0x20 MSTORE PUSH1 0x40 DUP2 KECCAK256 SLOAD PUSH2 0x1F46 SWAP1 DUP6 PUSH2 0x2903 JUMP JUMPDEST SWAP1 POP PUSH1 0x60 PUSH4 0xF0BB9406 PUSH1 0xE0 SHL DUP7 DUP7 PUSH1 0x40 MLOAD PUSH1 0x24 ADD PUSH2 0x1F65 SWAP3 SWAP2 SWAP1 PUSH2 0x2F06 JUMP JUMPDEST PUSH1 0x40 DUP1 MLOAD PUSH1 0x1F NOT DUP2 DUP5 SUB ADD DUP2 MSTORE SWAP2 SWAP1 MSTORE PUSH1 0x20 DUP2 ADD DUP1 MLOAD PUSH28 0xFFFFFFFFFFFFFFFFFFFFFFFFFFFFFFFFFFFFFFFFFFFFFFFFFFFFFFFF AND PUSH32 0xFFFFFFFF00000000000000000000000000000000000000000000000000000000 SWAP1 SWAP4 AND SWAP3 SWAP1 SWAP3 OR SWAP1 SWAP2 MSTORE SWAP1 POP PUSH1 0x0 PUSH2 0x1FD4 ADDRESS DUP4 DUP6 DUP9 PUSH2 0x254B JUMP JUMPDEST SWAP1 POP DUP1 DUP7 DUP9 PUSH32 0xBC72942FA810FE8985041BB36295502EDDF2C163774BE55E25D2059589560728 PUSH1 0x40 MLOAD PUSH1 0x40 MLOAD DUP1 SWAP2 SUB SWAP1 LOG4 SWAP7 SWAP6 POP POP POP POP POP POP JUMP JUMPDEST CALLER PUSH1 0x1 PUSH1 0x1 PUSH1 0xA0 SHL SUB PUSH32 0x0 AND EQ PUSH2 0x2057 JUMPI PUSH1 0x40 MLOAD PUSH3 0x461BCD PUSH1 0xE5 SHL DUP2 MSTORE PUSH1 0x4 ADD PUSH2 0x6FE SWAP1 PUSH2 0x3536 JUMP JUMPDEST PUSH2 0x205F PUSH2 0x17E7 JUMP JUMPDEST PUSH1 0x40 MLOAD PUSH32 0x851C1BB300000000000000000000000000000000000000000000000000000000 DUP2 MSTORE PUSH1 0x1 PUSH1 0x1 PUSH1 0xA0 SHL SUB SWAP2 SWAP1 SWAP2 AND SWAP1 PUSH4 0x851C1BB3 SWAP1 PUSH2 0x20C6 SWAP1 PUSH32 0x58A628F00000000000000000000000000000000000000000000000000000000 SWAP1 PUSH1 0x4 ADD PUSH2 0x2F14 JUMP JUMPDEST PUSH1 0x20 PUSH1 0x40 MLOAD DUP1 DUP4 SUB DUP2 DUP7 DUP1 EXTCODESIZE ISZERO DUP1 ISZERO PUSH2 0x20DE JUMPI PUSH1 0x0 DUP1 REVERT JUMPDEST POP GAS STATICCALL ISZERO DUP1 ISZERO PUSH2 0x20F2 JUMPI RETURNDATASIZE PUSH1 0x0 DUP1 RETURNDATACOPY RETURNDATASIZE PUSH1 0x0 REVERT JUMPDEST POP POP POP POP PUSH1 0x40 MLOAD RETURNDATASIZE PUSH1 0x1F NOT PUSH1 0x1F DUP3 ADD AND DUP3 ADD DUP1 PUSH1 0x40 MSTORE POP DUP2 ADD SWAP1 PUSH2 0x2116 SWAP2 SWAP1 PUSH2 0x2C02 JUMP JUMPDEST DUP3 EQ PUSH2 0x2141 JUMPI PUSH2 0x2125 DUP2 PUSH2 0x23AE JUMP JUMPDEST PUSH2 0x2141 JUMPI PUSH1 0x40 MLOAD PUSH3 0x461BCD PUSH1 0xE5 SHL DUP2 MSTORE PUSH1 0x4 ADD PUSH2 0x6FE SWAP1 PUSH2 0x3121 JUMP JUMPDEST PUSH1 0x0 DUP3 DUP2 MSTORE PUSH1 0xA PUSH1 0x20 MSTORE PUSH1 0x40 SWAP1 DUP2 SWAP1 KECCAK256 DUP3 SWAP1 SSTORE MLOAD DUP3 SWAP1 PUSH32 0xE182617F9E5F9CE5F761C791EC15AD52176D97F9706B5C2707FFDA7B6BDF790 SWAP1 PUSH2 0x76F SWAP1 DUP5 SWAP1 PUSH2 0x2EDE JUMP JUMPDEST PUSH2 0x218D CALLER PUSH2 0xEF6 JUMP JUMPDEST PUSH2 0x21A9 JUMPI PUSH1 0x40 MLOAD PUSH3 0x461BCD PUSH1 0xE5 SHL DUP2 MSTORE PUSH1 0x4 ADD PUSH2 0x6FE SWAP1 PUSH2 0x3347 JUMP JUMPDEST PUSH2 0x195C DUP3 DUP3 PUSH2 0x27F0 JUMP JUMPDEST PUSH1 0x6 SLOAD PUSH1 0x60 SWAP1 DUP3 LT PUSH2 0x21D7 JUMPI PUSH1 0x40 MLOAD PUSH3 0x461BCD PUSH1 0xE5 SHL DUP2 MSTORE PUSH1 0x4 ADD PUSH2 0x6FE SWAP1 PUSH2 0x3612 JUMP JUMPDEST PUSH1 0x0 PUSH1 0x6 DUP4 DUP2 SLOAD DUP2 LT PUSH2 0x21E6 JUMPI INVALID JUMPDEST PUSH1 0x0 SWAP2 DUP3 MSTORE PUSH1 0x20 SWAP1 SWAP2 KECCAK256 PUSH1 0x4 SWAP1 SWAP2 MUL ADD PUSH1 0x2 DUP2 ADD SLOAD SWAP1 SWAP2 POP PUSH1 0xFF AND ISZERO PUSH2 0x221E JUMPI PUSH1 0x40 MLOAD PUSH3 0x461BCD PUSH1 0xE5 SHL DUP2 MSTORE PUSH1 0x4 ADD PUSH2 0x6FE SWAP1 PUSH2 0x3649 JUMP JUMPDEST PUSH1 0x2 DUP2 ADD SLOAD PUSH2 0x100 SWAP1 DIV PUSH1 0xFF AND ISZERO PUSH2 0x2248 JUMPI PUSH1 0x40 MLOAD PUSH3 0x461BCD PUSH1 0xE5 SHL DUP2 MSTORE PUSH1 0x4 ADD PUSH2 0x6FE SWAP1 PUSH2 0x34FF JUMP JUMPDEST DUP1 PUSH1 0x3 ADD SLOAD TIMESTAMP LT ISZERO PUSH2 0x226C JUMPI PUSH1 0x40 MLOAD PUSH3 0x461BCD PUSH1 0xE5 SHL DUP2 MSTORE PUSH1 0x4 ADD PUSH2 0x6FE SWAP1 PUSH2 0x34C8 JUMP JUMPDEST PUSH1 0x2 DUP2 ADD SLOAD PUSH3 0x10000 SWAP1 DIV PUSH1 0xFF AND ISZERO PUSH2 0x22A5 JUMPI PUSH2 0x2289 DUP4 CALLER PUSH2 0x675 JUMP JUMPDEST PUSH2 0x22A5 JUMPI PUSH1 0x40 MLOAD PUSH3 0x461BCD PUSH1 0xE5 SHL DUP2 MSTORE PUSH1 0x4 ADD PUSH2 0x6FE SWAP1 PUSH2 0x30EA JUMP JUMPDEST PUSH1 0x2 DUP2 ADD DUP1 SLOAD PUSH1 0xFF NOT AND PUSH1 0x1 SWAP1 DUP2 OR SWAP1 SWAP2 SSTORE DUP2 SLOAD PUSH1 0x40 MLOAD PUSH32 0x1CFF79CD00000000000000000000000000000000000000000000000000000000 DUP2 MSTORE PUSH1 0x1 PUSH1 0x1 PUSH1 0xA0 SHL SUB PUSH32 0x0 DUP2 AND SWAP4 PUSH4 0x1CFF79CD SWAP4 PUSH2 0x2324 SWAP4 SWAP3 AND SWAP2 SWAP1 DUP7 ADD SWAP1 PUSH1 0x4 ADD PUSH2 0x2E38 JUMP JUMPDEST PUSH1 0x0 PUSH1 0x40 MLOAD DUP1 DUP4 SUB DUP2 PUSH1 0x0 DUP8 DUP1 EXTCODESIZE ISZERO DUP1 ISZERO PUSH2 0x233E JUMPI PUSH1 0x0 DUP1 REVERT JUMPDEST POP GAS CALL ISZERO DUP1 ISZERO PUSH2 0x2352 JUMPI RETURNDATASIZE PUSH1 0x0 DUP1 RETURNDATACOPY RETURNDATASIZE PUSH1 0x0 REVERT JUMPDEST POP POP POP POP PUSH1 0x40 MLOAD RETURNDATASIZE PUSH1 0x0 DUP3 RETURNDATACOPY PUSH1 0x1F RETURNDATASIZE SWAP1 DUP2 ADD PUSH1 0x1F NOT AND DUP3 ADD PUSH1 0x40 MSTORE PUSH2 0x237A SWAP2 SWAP1 DUP2 ADD SWAP1 PUSH2 0x2D47 JUMP JUMPDEST PUSH1 0x40 MLOAD SWAP1 SWAP3 POP DUP4 SWAP1 PUSH32 0x4FA5548C15E2D4A0B806EEE962935ACEA143D79644D2340AF39F4EDF13B335A9 SWAP1 PUSH1 0x0 SWAP1 LOG2 POP SWAP2 SWAP1 POP JUMP JUMPDEST PUSH1 0x0 DUP1 PUSH2 0x23B9 PUSH2 0x17E7 JUMP JUMPDEST PUSH1 0x40 MLOAD PUSH32 0x851C1BB300000000000000000000000000000000000000000000000000000000 DUP2 MSTORE PUSH1 0x1 PUSH1 0x1 PUSH1 0xA0 SHL SUB SWAP2 SWAP1 SWAP2 AND SWAP1 PUSH4 0x851C1BB3 SWAP1 PUSH2 0x2420 SWAP1 PUSH32 0x58A628F00000000000000000000000000000000000000000000000000000000 SWAP1 PUSH1 0x4 ADD PUSH2 0x2F14 JUMP JUMPDEST PUSH1 0x20 PUSH1 0x40 MLOAD DUP1 DUP4 SUB DUP2 DUP7 DUP1 EXTCODESIZE ISZERO DUP1 ISZERO PUSH2 0x2438 JUMPI PUSH1 0x0 DUP1 REVERT JUMPDEST POP GAS STATICCALL ISZERO DUP1 ISZERO PUSH2 0x244C JUMPI RETURNDATASIZE PUSH1 0x0 DUP1 RETURNDATACOPY RETURNDATASIZE PUSH1 0x0 REVERT JUMPDEST POP POP POP POP PUSH1 0x40 MLOAD RETURNDATASIZE PUSH1 0x1F NOT PUSH1 0x1F DUP3 ADD AND DUP3 ADD DUP1 PUSH1 0x40 MSTORE POP DUP2 ADD SWAP1 PUSH2 0x2470 SWAP2 SWAP1 PUSH2 0x2C02 JUMP JUMPDEST PUSH1 0x0 SWAP1 DUP2 MSTORE PUSH1 0xA PUSH1 0x20 MSTORE PUSH1 0x40 SWAP1 KECCAK256 SLOAD SWAP1 SWAP3 GT ISZERO SWAP3 SWAP2 POP POP JUMP JUMPDEST PUSH1 0x0 DUP1 SLOAD PUSH32 0xFFFFFFFFFFFFFFFFFFFFFFFF0000000000000000000000000000000000000000 AND PUSH1 0x1 PUSH1 0x1 PUSH1 0xA0 SHL SUB DUP4 AND SWAP1 DUP2 OR DUP3 SSTORE PUSH1 0x40 MLOAD SWAP1 SWAP2 PUSH32 0x39510B933A9D010F906528D6019D3F4E2450A10DC33B10887503B31ED82F1111 SWAP2 LOG2 POP JUMP JUMPDEST PUSH1 0x1 DUP1 SLOAD PUSH32 0xFFFFFFFFFFFFFFFFFFFFFFFF0000000000000000000000000000000000000000 AND PUSH1 0x1 PUSH1 0x1 PUSH1 0xA0 SHL SUB DUP4 AND SWAP1 DUP2 OR SWAP1 SWAP2 SSTORE PUSH1 0x40 MLOAD PUSH32 0x566FE119FF450AFC2580186C62762B6C1258245C8B1B6BB095E7276EB5A75B55 SWAP1 PUSH1 0x0 SWAP1 LOG2 POP JUMP JUMPDEST PUSH1 0x6 DUP1 SLOAD DUP3 MLOAD PUSH1 0x40 DUP1 MLOAD PUSH1 0xC0 DUP2 ADD DUP3 MSTORE PUSH1 0x1 PUSH1 0x1 PUSH1 0xA0 SHL SUB DUP10 DUP2 AND DUP3 MSTORE PUSH1 0x20 DUP1 DUP4 ADD DUP11 DUP2 MSTORE PUSH1 0x0 SWAP5 DUP5 ADD DUP6 SWAP1 MSTORE PUSH1 0x60 DUP5 ADD DUP6 SWAP1 MSTORE SWAP5 ISZERO ISZERO PUSH1 0x80 DUP5 ADD DUP2 SWAP1 MSTORE TIMESTAMP DUP11 ADD PUSH1 0xA0 DUP6 ADD DUP2 SWAP1 MSTORE PUSH1 0x1 DUP9 ADD DUP10 SSTORE SWAP8 SWAP1 SWAP5 MSTORE DUP3 MLOAD PUSH32 0xF652222313E28459528D920B65115C16C04F3EFC82AAEDC97BE59F3F377C0D3F PUSH1 0x4 DUP9 MUL SWAP1 DUP2 ADD DUP1 SLOAD PUSH32 0xFFFFFFFFFFFFFFFFFFFFFFFF0000000000000000000000000000000000000000 AND SWAP3 SWAP1 SWAP5 AND SWAP2 SWAP1 SWAP2 OR DUP4 SSTORE SWAP5 MLOAD DUP1 MLOAD SWAP7 SWAP8 SWAP7 SWAP5 SWAP6 SWAP4 SWAP5 SWAP3 SWAP4 PUSH2 0x2635 SWAP4 PUSH32 0xF652222313E28459528D920B65115C16C04F3EFC82AAEDC97BE59F3F377C0D40 SWAP1 SWAP2 ADD SWAP3 SWAP2 SWAP1 SWAP2 ADD SWAP1 PUSH2 0x2969 JUMP JUMPDEST POP PUSH1 0x40 DUP3 ADD MLOAD PUSH1 0x2 DUP3 ADD DUP1 SLOAD PUSH1 0x60 DUP6 ADD MLOAD PUSH1 0x80 DUP7 ADD MLOAD ISZERO ISZERO PUSH3 0x10000 MUL PUSH32 0xFFFFFFFFFFFFFFFFFFFFFFFFFFFFFFFFFFFFFFFFFFFFFFFFFFFFFFFFFF00FFFF SWAP2 ISZERO ISZERO PUSH2 0x100 MUL PUSH32 0xFFFFFFFFFFFFFFFFFFFFFFFFFFFFFFFFFFFFFFFFFFFFFFFFFFFFFFFFFFFF00FF SWAP6 ISZERO ISZERO PUSH1 0xFF NOT SWAP1 SWAP5 AND SWAP4 SWAP1 SWAP4 OR SWAP5 SWAP1 SWAP5 AND SWAP2 SWAP1 SWAP2 OR AND SWAP2 SWAP1 SWAP2 OR SWAP1 SSTORE PUSH1 0xA0 SWAP1 SWAP2 ADD MLOAD PUSH1 0x3 SWAP1 SWAP2 ADD SSTORE PUSH1 0x0 JUMPDEST DUP5 MLOAD DUP2 LT ISZERO PUSH2 0x27E5 JUMPI PUSH1 0x2 PUSH1 0x0 DUP6 DUP2 MSTORE PUSH1 0x20 ADD SWAP1 DUP2 MSTORE PUSH1 0x20 ADD PUSH1 0x0 KECCAK256 PUSH1 0x0 DUP7 DUP4 DUP2 MLOAD DUP2 LT PUSH2 0x26F0 JUMPI INVALID JUMPDEST PUSH1 0x20 SWAP1 DUP2 MUL SWAP2 SWAP1 SWAP2 ADD DUP2 ADD MLOAD PUSH1 0x1 PUSH1 0x1 PUSH1 0xA0 SHL SUB AND DUP3 MSTORE DUP2 ADD SWAP2 SWAP1 SWAP2 MSTORE PUSH1 0x40 ADD PUSH1 0x0 KECCAK256 SLOAD PUSH1 0xFF AND ISZERO PUSH2 0x2734 JUMPI PUSH1 0x40 MLOAD PUSH3 0x461BCD PUSH1 0xE5 SHL DUP2 MSTORE PUSH1 0x4 ADD PUSH2 0x6FE SWAP1 PUSH2 0x31C6 JUMP JUMPDEST PUSH1 0x0 DUP5 DUP2 MSTORE PUSH1 0x2 PUSH1 0x20 MSTORE PUSH1 0x40 DUP2 KECCAK256 DUP7 MLOAD PUSH1 0x1 SWAP3 SWAP1 DUP9 SWAP1 DUP6 SWAP1 DUP2 LT PUSH2 0x2754 JUMPI INVALID JUMPDEST PUSH1 0x20 MUL PUSH1 0x20 ADD ADD MLOAD PUSH1 0x1 PUSH1 0x1 PUSH1 0xA0 SHL SUB AND PUSH1 0x1 PUSH1 0x1 PUSH1 0xA0 SHL SUB AND DUP2 MSTORE PUSH1 0x20 ADD SWAP1 DUP2 MSTORE PUSH1 0x20 ADD PUSH1 0x0 KECCAK256 PUSH1 0x0 PUSH2 0x100 EXP DUP2 SLOAD DUP2 PUSH1 0xFF MUL NOT AND SWAP1 DUP4 ISZERO ISZERO MUL OR SWAP1 SSTORE POP DUP5 DUP2 DUP2 MLOAD DUP2 LT PUSH2 0x279F JUMPI INVALID JUMPDEST PUSH1 0x20 MUL PUSH1 0x20 ADD ADD MLOAD PUSH1 0x1 PUSH1 0x1 PUSH1 0xA0 SHL SUB AND DUP5 PUSH32 0x2D0AA562DA96CA6DD124FEE5588E6F8545B0AA0B15CFD87CC231EFF1AE7000E4 PUSH1 0x40 MLOAD PUSH1 0x40 MLOAD DUP1 SWAP2 SUB SWAP1 LOG3 PUSH1 0x1 ADD PUSH2 0x26C6 JUMP JUMPDEST POP POP POP SWAP5 SWAP4 POP POP POP POP JUMP JUMPDEST PUSH2 0x27FA DUP3 DUP3 PUSH2 0xD67 JUMP JUMPDEST ISZERO PUSH2 0x2817 JUMPI PUSH1 0x40 MLOAD PUSH3 0x461BCD PUSH1 0xE5 SHL DUP2 MSTORE PUSH1 0x4 ADD PUSH2 0x6FE SWAP1 PUSH2 0x36B7 JUMP JUMPDEST PUSH1 0x0 DUP3 DUP2 MSTORE PUSH1 0x5 PUSH1 0x20 SWAP1 DUP2 MSTORE PUSH1 0x40 DUP1 DUP4 KECCAK256 PUSH1 0x1 PUSH1 0x1 PUSH1 0xA0 SHL SUB DUP6 AND DUP1 DUP6 MSTORE SWAP3 MSTORE DUP1 DUP4 KECCAK256 DUP1 SLOAD PUSH1 0xFF NOT AND PUSH1 0x1 OR SWAP1 SSTORE MLOAD SWAP1 SWAP2 DUP5 SWAP2 PUSH32 0x1B55562F9A67454174F758170ABA47751C0AF4C1F3B7D4E0B70667F1E8206606 SWAP2 SWAP1 LOG3 POP POP JUMP JUMPDEST PUSH1 0x0 PUSH2 0x287F DUP5 DUP5 DUP5 PUSH2 0xBA0 JUMP JUMPDEST PUSH1 0x0 DUP2 DUP2 MSTORE PUSH1 0x9 PUSH1 0x20 MSTORE PUSH1 0x40 SWAP1 KECCAK256 SLOAD SWAP1 SWAP2 POP PUSH1 0xFF AND PUSH2 0x28B0 JUMPI PUSH1 0x40 MLOAD PUSH3 0x461BCD PUSH1 0xE5 SHL DUP2 MSTORE PUSH1 0x4 ADD PUSH2 0x6FE SWAP1 PUSH2 0x318F JUMP JUMPDEST PUSH1 0x0 DUP2 DUP2 MSTORE PUSH1 0x9 PUSH1 0x20 MSTORE PUSH1 0x40 DUP1 DUP3 KECCAK256 DUP1 SLOAD PUSH1 0xFF NOT AND SWAP1 SSTORE MLOAD PUSH1 0x1 PUSH1 0x1 PUSH1 0xA0 SHL SUB DUP1 DUP6 AND SWAP3 SWAP1 DUP7 AND SWAP2 DUP8 SWAP2 PUSH32 0x7B42E026D3B17CF41399915C285780D0F724B3464B269297AFF73C0DE0FE417F SWAP2 LOG4 POP POP POP POP JUMP JUMPDEST PUSH1 0x0 DUP3 DUP3 LT PUSH2 0x2919 JUMPI PUSH2 0x2914 PUSH2 0x1C1F JUMP JUMPDEST PUSH2 0xA6C JUMP JUMPDEST PUSH2 0xA6C DUP3 DUP5 SUB PUSH2 0x2927 PUSH2 0x1C1F JUMP JUMPDEST DUP1 DUP3 SUB SWAP1 DUP3 LT MUL SWAP1 SUB SWAP1 JUMP JUMPDEST PUSH1 0x40 DUP1 MLOAD PUSH1 0xC0 DUP2 ADD DUP3 MSTORE PUSH1 0x0 DUP1 DUP3 MSTORE PUSH1 0x60 PUSH1 0x20 DUP4 ADD DUP2 SWAP1 MSTORE SWAP3 DUP3 ADD DUP2 SWAP1 MSTORE SWAP2 DUP2 ADD DUP3 SWAP1 MSTORE PUSH1 0x80 DUP2 ADD DUP3 SWAP1 MSTORE PUSH1 0xA0 DUP2 ADD SWAP2 SWAP1 SWAP2 MSTORE SWAP1 JUMP JUMPDEST DUP3 DUP1 SLOAD PUSH1 0x1 DUP2 PUSH1 0x1 AND ISZERO PUSH2 0x100 MUL SUB AND PUSH1 0x2 SWAP1 DIV SWAP1 PUSH1 0x0 MSTORE PUSH1 0x20 PUSH1 0x0 KECCAK256 SWAP1 PUSH1 0x1F ADD PUSH1 0x20 SWAP1 DIV DUP2 ADD SWAP3 DUP3 PUSH1 0x1F LT PUSH2 0x29AA JUMPI DUP1 MLOAD PUSH1 0xFF NOT AND DUP4 DUP1 ADD OR DUP6 SSTORE PUSH2 0x29D7 JUMP JUMPDEST DUP3 DUP1 ADD PUSH1 0x1 ADD DUP6 SSTORE DUP3 ISZERO PUSH2 0x29D7 JUMPI SWAP2 DUP3 ADD JUMPDEST DUP3 DUP2 GT ISZERO PUSH2 0x29D7 JUMPI DUP3 MLOAD DUP3 SSTORE SWAP2 PUSH1 0x20 ADD SWAP2 SWAP1 PUSH1 0x1 ADD SWAP1 PUSH2 0x29BC JUMP JUMPDEST POP PUSH2 0x29E3 SWAP3 SWAP2 POP PUSH2 0x29E7 JUMP JUMPDEST POP SWAP1 JUMP JUMPDEST JUMPDEST DUP1 DUP3 GT ISZERO PUSH2 0x29E3 JUMPI PUSH1 0x0 DUP2 SSTORE PUSH1 0x1 ADD PUSH2 0x29E8 JUMP JUMPDEST DUP1 CALLDATALOAD PUSH1 0x1 PUSH1 0x1 PUSH1 0xA0 SHL SUB DUP2 AND DUP2 EQ PUSH2 0x69C JUMPI PUSH1 0x0 DUP1 REVERT JUMPDEST PUSH1 0x0 DUP3 PUSH1 0x1F DUP4 ADD SLT PUSH2 0x2A23 JUMPI DUP1 DUP2 REVERT JUMPDEST DUP2 CALLDATALOAD PUSH8 0xFFFFFFFFFFFFFFFF DUP2 GT ISZERO PUSH2 0x2A39 JUMPI DUP2 DUP3 REVERT JUMPDEST PUSH1 0x20 DUP1 DUP3 MUL PUSH2 0x2A49 DUP3 DUP3 ADD PUSH2 0x37FC JUMP JUMPDEST DUP4 DUP2 MSTORE SWAP4 POP DUP2 DUP5 ADD DUP6 DUP4 ADD DUP3 DUP8 ADD DUP5 ADD DUP9 LT ISZERO PUSH2 0x2A65 JUMPI PUSH1 0x0 DUP1 REVERT JUMPDEST PUSH1 0x0 SWAP3 POP JUMPDEST DUP5 DUP4 LT ISZERO PUSH2 0x2A90 JUMPI PUSH2 0x2A7C DUP9 DUP3 PUSH2 0x29FC JUMP JUMPDEST DUP3 MSTORE PUSH1 0x1 SWAP3 SWAP1 SWAP3 ADD SWAP2 SWAP1 DUP4 ADD SWAP1 DUP4 ADD PUSH2 0x2A6A JUMP JUMPDEST POP POP POP POP POP SWAP3 SWAP2 POP POP JUMP JUMPDEST PUSH1 0x0 PUSH1 0x20 DUP3 DUP5 SUB SLT ISZERO PUSH2 0x2AAC JUMPI DUP1 DUP2 REVERT JUMPDEST PUSH2 0xA6C DUP4 DUP4 PUSH2 0x29FC JUMP JUMPDEST PUSH1 0x0 DUP1 PUSH1 0x40 DUP4 DUP6 SUB SLT ISZERO PUSH2 0x2AC8 JUMPI DUP1 DUP2 REVERT JUMPDEST PUSH2 0x2AD2 DUP5 DUP5 PUSH2 0x29FC JUMP JUMPDEST SWAP2 POP PUSH2 0x2AE1 DUP5 PUSH1 0x20 DUP6 ADD PUSH2 0x29FC JUMP JUMPDEST SWAP1 POP SWAP3 POP SWAP3 SWAP1 POP JUMP JUMPDEST PUSH1 0x0 DUP1 PUSH1 0x40 DUP4 DUP6 SUB SLT ISZERO PUSH2 0x2AFC JUMPI DUP2 DUP3 REVERT JUMPDEST PUSH2 0x2B06 DUP5 DUP5 PUSH2 0x29FC JUMP JUMPDEST SWAP2 POP PUSH1 0x20 DUP4 ADD CALLDATALOAD PUSH8 0xFFFFFFFFFFFFFFFF DUP2 GT ISZERO PUSH2 0x2B21 JUMPI DUP2 DUP3 REVERT JUMPDEST PUSH2 0x2B2D DUP6 DUP3 DUP7 ADD PUSH2 0x2A13 JUMP JUMPDEST SWAP2 POP POP SWAP3 POP SWAP3 SWAP1 POP JUMP JUMPDEST PUSH1 0x0 DUP1 PUSH1 0x0 PUSH1 0x60 DUP5 DUP7 SUB SLT ISZERO PUSH2 0x2B4B JUMPI DUP1 DUP2 REVERT JUMPDEST PUSH2 0x2B55 DUP6 DUP6 PUSH2 0x29FC JUMP JUMPDEST SWAP3 POP PUSH1 0x20 DUP5 ADD CALLDATALOAD PUSH8 0xFFFFFFFFFFFFFFFF DUP1 DUP3 GT ISZERO PUSH2 0x2B71 JUMPI DUP3 DUP4 REVERT JUMPDEST DUP2 DUP7 ADD SWAP2 POP DUP7 PUSH1 0x1F DUP4 ADD SLT PUSH2 0x2B84 JUMPI DUP3 DUP4 REVERT JUMPDEST DUP2 CALLDATALOAD PUSH2 0x2B97 PUSH2 0x2B92 DUP3 PUSH2 0x3823 JUMP JUMPDEST PUSH2 0x37FC JUMP JUMPDEST DUP2 DUP2 MSTORE DUP9 PUSH1 0x20 DUP4 DUP7 ADD ADD GT ISZERO PUSH2 0x2BAB JUMPI DUP5 DUP6 REVERT JUMPDEST DUP2 PUSH1 0x20 DUP6 ADD PUSH1 0x20 DUP4 ADD CALLDATACOPY SWAP1 DUP2 ADD PUSH1 0x20 ADD DUP5 SWAP1 MSTORE SWAP4 POP PUSH1 0x40 DUP7 ADD CALLDATALOAD SWAP2 POP DUP1 DUP3 GT ISZERO PUSH2 0x2BD3 JUMPI DUP3 DUP4 REVERT JUMPDEST POP PUSH2 0x2BE0 DUP7 DUP3 DUP8 ADD PUSH2 0x2A13 JUMP JUMPDEST SWAP2 POP POP SWAP3 POP SWAP3 POP SWAP3 JUMP JUMPDEST PUSH1 0x0 PUSH1 0x20 DUP3 DUP5 SUB SLT ISZERO PUSH2 0x2BFB JUMPI DUP1 DUP2 REVERT JUMPDEST POP CALLDATALOAD SWAP2 SWAP1 POP JUMP JUMPDEST PUSH1 0x0 PUSH1 0x20 DUP3 DUP5 SUB SLT ISZERO PUSH2 0x2C13 JUMPI DUP1 DUP2 REVERT JUMPDEST POP MLOAD SWAP2 SWAP1 POP JUMP JUMPDEST PUSH1 0x0 DUP1 PUSH1 0x40 DUP4 DUP6 SUB SLT ISZERO PUSH2 0x2C2C JUMPI DUP2 DUP3 REVERT JUMPDEST DUP3 CALLDATALOAD SWAP2 POP PUSH2 0x2AE1 DUP5 PUSH1 0x20 DUP6 ADD PUSH2 0x29FC JUMP JUMPDEST PUSH1 0x0 DUP1 PUSH1 0x0 PUSH1 0x60 DUP5 DUP7 SUB SLT ISZERO PUSH2 0x2C51 JUMPI DUP3 DUP4 REVERT JUMPDEST DUP4 CALLDATALOAD SWAP3 POP PUSH2 0x2C62 DUP6 PUSH1 0x20 DUP7 ADD PUSH2 0x29FC JUMP JUMPDEST SWAP2 POP PUSH2 0x2C71 DUP6 PUSH1 0x40 DUP7 ADD PUSH2 0x29FC JUMP JUMPDEST SWAP1 POP SWAP3 POP SWAP3 POP SWAP3 JUMP JUMPDEST PUSH1 0x0 DUP1 PUSH1 0x0 DUP1 PUSH1 0x80 DUP6 DUP8 SUB SLT ISZERO PUSH2 0x2C8F JUMPI DUP1 DUP2 REVERT JUMPDEST DUP5 CALLDATALOAD SWAP4 POP PUSH2 0x2CA0 DUP7 PUSH1 0x20 DUP8 ADD PUSH2 0x29FC JUMP JUMPDEST SWAP3 POP PUSH2 0x2CAF DUP7 PUSH1 0x40 DUP8 ADD PUSH2 0x29FC JUMP JUMPDEST SWAP2 POP PUSH1 0x60 DUP6 ADD CALLDATALOAD PUSH8 0xFFFFFFFFFFFFFFFF DUP2 GT ISZERO PUSH2 0x2CCA JUMPI DUP2 DUP3 REVERT JUMPDEST PUSH2 0x2CD6 DUP8 DUP3 DUP9 ADD PUSH2 0x2A13 JUMP JUMPDEST SWAP2 POP POP SWAP3 SWAP6 SWAP2 SWAP5 POP SWAP3 POP JUMP JUMPDEST PUSH1 0x0 DUP1 PUSH1 0x40 DUP4 DUP6 SUB SLT ISZERO PUSH2 0x2CF4 JUMPI DUP2 DUP3 REVERT JUMPDEST POP POP DUP1 CALLDATALOAD SWAP3 PUSH1 0x20 SWAP1 SWAP2 ADD CALLDATALOAD SWAP2 POP JUMP JUMPDEST PUSH1 0x0 DUP1 PUSH1 0x0 PUSH1 0x60 DUP5 DUP7 SUB SLT ISZERO PUSH2 0x2D17 JUMPI DUP3 DUP4 REVERT JUMPDEST DUP4 CALLDATALOAD SWAP3 POP PUSH1 0x20 DUP5 ADD CALLDATALOAD SWAP2 POP PUSH1 0x40 DUP5 ADD CALLDATALOAD PUSH8 0xFFFFFFFFFFFFFFFF DUP2 GT ISZERO PUSH2 0x2D3B JUMPI DUP2 DUP3 REVERT JUMPDEST PUSH2 0x2BE0 DUP7 DUP3 DUP8 ADD PUSH2 0x2A13 JUMP JUMPDEST PUSH1 0x0 PUSH1 0x20 DUP3 DUP5 SUB SLT ISZERO PUSH2 0x2D58 JUMPI DUP1 DUP2 REVERT JUMPDEST DUP2 MLOAD PUSH8 0xFFFFFFFFFFFFFFFF DUP2 GT ISZERO PUSH2 0x2D6E JUMPI DUP2 DUP3 REVERT JUMPDEST DUP3 ADD PUSH1 0x1F DUP2 ADD DUP5 SGT PUSH2 0x2D7E JUMPI DUP2 DUP3 REVERT JUMPDEST DUP1 MLOAD PUSH2 0x2D8C PUSH2 0x2B92 DUP3 PUSH2 0x3823 JUMP JUMPDEST DUP2 DUP2 MSTORE DUP6 PUSH1 0x20 DUP4 DUP6 ADD ADD GT ISZERO PUSH2 0x2DA0 JUMPI DUP4 DUP5 REVERT JUMPDEST PUSH2 0x2DB1 DUP3 PUSH1 0x20 DUP4 ADD PUSH1 0x20 DUP7 ADD PUSH2 0x3853 JUMP JUMPDEST SWAP6 SWAP5 POP POP POP POP POP JUMP JUMPDEST PUSH1 0x0 DUP2 MLOAD DUP1 DUP5 MSTORE PUSH2 0x2DD2 DUP2 PUSH1 0x20 DUP7 ADD PUSH1 0x20 DUP7 ADD PUSH2 0x3853 JUMP JUMPDEST PUSH1 0x1F ADD PUSH1 0x1F NOT AND SWAP3 SWAP1 SWAP3 ADD PUSH1 0x20 ADD SWAP3 SWAP2 POP POP JUMP JUMPDEST SWAP3 DUP4 MSTORE PUSH32 0xFFFFFFFFFFFFFFFFFFFFFFFFFFFFFFFFFFFFFFFF000000000000000000000000 PUSH1 0x60 SWAP3 DUP4 SHL DUP2 AND PUSH1 0x20 DUP6 ADD MSTORE SWAP2 SHL AND PUSH1 0x34 DUP3 ADD MSTORE PUSH1 0x48 ADD SWAP1 JUMP JUMPDEST PUSH1 0x1 PUSH1 0x1 PUSH1 0xA0 SHL SUB SWAP2 SWAP1 SWAP2 AND DUP2 MSTORE PUSH1 0x20 ADD SWAP1 JUMP JUMPDEST PUSH1 0x0 PUSH1 0x40 DUP3 ADD PUSH1 0x1 PUSH1 0x1 PUSH1 0xA0 SHL SUB DUP6 AND DUP4 MSTORE PUSH1 0x20 PUSH1 0x40 DUP2 DUP6 ADD MSTORE DUP3 DUP6 SLOAD PUSH1 0x1 DUP1 DUP3 AND PUSH1 0x0 DUP2 EQ PUSH2 0x2E6F JUMPI PUSH1 0x1 DUP2 EQ PUSH2 0x2E8D JUMPI PUSH2 0x2EC5 JUMP JUMPDEST PUSH1 0x7F PUSH1 0x2 DUP5 DIV AND DUP7 MSTORE PUSH1 0xFF NOT DUP4 AND PUSH1 0x60 DUP10 ADD MSTORE PUSH1 0x80 DUP9 ADD SWAP4 POP PUSH2 0x2EC5 JUMP JUMPDEST PUSH1 0x2 DUP4 DIV DUP1 DUP8 MSTORE PUSH2 0x2E9D DUP11 PUSH2 0x3847 JUMP JUMPDEST DUP9 JUMPDEST DUP3 DUP2 LT ISZERO PUSH2 0x2EBB JUMPI DUP2 SLOAD DUP12 DUP3 ADD PUSH1 0x60 ADD MSTORE SWAP1 DUP5 ADD SWAP1 DUP8 ADD PUSH2 0x2E9F JUMP JUMPDEST DUP11 ADD PUSH1 0x60 ADD SWAP6 POP POP POP JUMPDEST POP SWAP2 SWAP9 SWAP8 POP POP POP POP POP POP POP POP JUMP JUMPDEST SWAP1 ISZERO ISZERO DUP2 MSTORE PUSH1 0x20 ADD SWAP1 JUMP JUMPDEST SWAP1 DUP2 MSTORE PUSH1 0x20 ADD SWAP1 JUMP JUMPDEST SWAP3 DUP4 MSTORE PUSH1 0x1 PUSH1 0x1 PUSH1 0xA0 SHL SUB SWAP2 DUP3 AND PUSH1 0x20 DUP5 ADD MSTORE AND PUSH1 0x40 DUP3 ADD MSTORE PUSH1 0x60 ADD SWAP1 JUMP JUMPDEST SWAP2 DUP3 MSTORE PUSH1 0x20 DUP3 ADD MSTORE PUSH1 0x40 ADD SWAP1 JUMP JUMPDEST PUSH32 0xFFFFFFFF00000000000000000000000000000000000000000000000000000000 SWAP2 SWAP1 SWAP2 AND DUP2 MSTORE PUSH1 0x20 ADD SWAP1 JUMP JUMPDEST PUSH1 0x0 PUSH1 0x20 DUP3 MSTORE PUSH2 0xA6C PUSH1 0x20 DUP4 ADD DUP5 PUSH2 0x2DBA JUMP JUMPDEST PUSH1 0x20 DUP1 DUP3 MSTORE PUSH1 0x26 SWAP1 DUP3 ADD MSTORE PUSH32 0x415454454D5054494E475F455845435554494F4E5F48454C5045525F5245454E PUSH1 0x40 DUP3 ADD MSTORE PUSH32 0x5452414E43590000000000000000000000000000000000000000000000000000 PUSH1 0x60 DUP3 ADD MSTORE PUSH1 0x80 ADD SWAP1 JUMP JUMPDEST PUSH1 0x20 DUP1 DUP3 MSTORE PUSH1 0x1B SWAP1 DUP3 ADD MSTORE PUSH32 0x43414E4E4F545F52454D4F56455F524F4F545F43414E43454C45520000000000 PUSH1 0x40 DUP3 ADD MSTORE PUSH1 0x60 ADD SWAP1 JUMP JUMPDEST PUSH1 0x20 DUP1 DUP3 MSTORE PUSH1 0x11 SWAP1 DUP3 ADD MSTORE PUSH32 0x4752414E5445525F49535F474C4F42414C000000000000000000000000000000 PUSH1 0x40 DUP3 ADD MSTORE PUSH1 0x60 ADD SWAP1 JUMP JUMPDEST PUSH1 0x20 DUP1 DUP3 MSTORE PUSH1 0x1A SWAP1 DUP3 ADD MSTORE PUSH32 0x5045524D495353494F4E5F414C52454144595F4752414E544544000000000000 PUSH1 0x40 DUP3 ADD MSTORE PUSH1 0x60 ADD SWAP1 JUMP JUMPDEST PUSH1 0x20 DUP1 DUP3 MSTORE PUSH1 0x22 SWAP1 DUP3 ADD MSTORE PUSH32 0x43414E4E4F545F5343484544554C455F415554484F52495A45525F414354494F PUSH1 0x40 DUP3 ADD MSTORE PUSH32 0x4E53000000000000000000000000000000000000000000000000000000000000 PUSH1 0x60 DUP3 ADD MSTORE PUSH1 0x80 ADD SWAP1 JUMP JUMPDEST PUSH1 0x20 DUP1 DUP3 MSTORE PUSH1 0x15 SWAP1 DUP3 ADD MSTORE PUSH32 0x53454E4445525F49535F4E4F545F4752414E5445520000000000000000000000 PUSH1 0x40 DUP3 ADD MSTORE PUSH1 0x60 ADD SWAP1 JUMP JUMPDEST PUSH1 0x20 DUP1 DUP3 MSTORE PUSH1 0x16 SWAP1 DUP3 ADD MSTORE PUSH32 0x53454E4445525F49535F4E4F545F4558454355544F5200000000000000000000 PUSH1 0x40 DUP3 ADD MSTORE PUSH1 0x60 ADD SWAP1 JUMP JUMPDEST PUSH1 0x20 DUP1 DUP3 MSTORE PUSH1 0x1C SWAP1 DUP3 ADD MSTORE PUSH32 0x44454C41595F455843454544535F5345545F415554484F52495A455200000000 PUSH1 0x40 DUP3 ADD MSTORE PUSH1 0x60 ADD SWAP1 JUMP JUMPDEST PUSH1 0x20 DUP1 DUP3 MSTORE PUSH1 0x1A SWAP1 DUP3 ADD MSTORE PUSH32 0x4143434F554E545F49535F414C52454144595F4752414E544552000000000000 PUSH1 0x40 DUP3 ADD MSTORE PUSH1 0x60 ADD SWAP1 JUMP JUMPDEST PUSH1 0x20 DUP1 DUP3 MSTORE PUSH1 0x16 SWAP1 DUP3 ADD MSTORE PUSH32 0x5045524D495353494F4E5F4E4F545F4752414E54454400000000000000000000 PUSH1 0x40 DUP3 ADD MSTORE PUSH1 0x60 ADD SWAP1 JUMP JUMPDEST PUSH1 0x20 DUP1 DUP3 MSTORE PUSH1 0x13 SWAP1 DUP3 ADD MSTORE PUSH32 0x4455504C49434154455F4558454355544F525300000000000000000000000000 PUSH1 0x40 DUP3 ADD MSTORE PUSH1 0x60 ADD SWAP1 JUMP JUMPDEST PUSH1 0x20 DUP1 DUP3 MSTORE PUSH1 0x19 SWAP1 DUP3 ADD MSTORE PUSH32 0x414354494F4E5F4841535F4E4F5F4752414E545F44454C415900000000000000 PUSH1 0x40 DUP3 ADD MSTORE PUSH1 0x60 ADD SWAP1 JUMP JUMPDEST PUSH1 0x20 DUP1 DUP3 MSTORE PUSH1 0xE SWAP1 DUP3 ADD MSTORE PUSH32 0x444154415F544F4F5F53484F5254000000000000000000000000000000000000 PUSH1 0x40 DUP3 ADD MSTORE PUSH1 0x60 ADD SWAP1 JUMP JUMPDEST PUSH1 0x20 DUP1 DUP3 MSTORE PUSH1 0x1F SWAP1 DUP3 ADD MSTORE PUSH32 0x53454E4445525F444F45535F4E4F545F484156455F5045524D495353494F4E00 PUSH1 0x40 DUP3 ADD MSTORE PUSH1 0x60 ADD SWAP1 JUMP JUMPDEST PUSH1 0x20 DUP1 DUP3 MSTORE PUSH1 0x10 SWAP1 DUP3 ADD MSTORE PUSH32 0x44454C41595F49535F4E4F545F53455400000000000000000000000000000000 PUSH1 0x40 DUP3 ADD MSTORE PUSH1 0x60 ADD SWAP1 JUMP JUMPDEST PUSH1 0x20 DUP1 DUP3 MSTORE PUSH1 0x11 SWAP1 DUP3 ADD MSTORE PUSH32 0x5245564F4B45525F49535F474C4F42414C000000000000000000000000000000 PUSH1 0x40 DUP3 ADD MSTORE PUSH1 0x60 ADD SWAP1 JUMP JUMPDEST PUSH1 0x20 DUP1 DUP3 MSTORE PUSH1 0x15 SWAP1 DUP3 ADD MSTORE PUSH32 0x53454E4445525F49535F4E4F545F5245564F4B45520000000000000000000000 PUSH1 0x40 DUP3 ADD MSTORE PUSH1 0x60 ADD SWAP1 JUMP JUMPDEST PUSH1 0x20 DUP1 DUP3 MSTORE PUSH1 0x12 SWAP1 DUP3 ADD MSTORE PUSH32 0x53454E4445525F49535F4E4F545F524F4F540000000000000000000000000000 PUSH1 0x40 DUP3 ADD MSTORE PUSH1 0x60 ADD SWAP1 JUMP JUMPDEST PUSH1 0x20 DUP1 DUP3 MSTORE PUSH1 0x1A SWAP1 DUP3 ADD MSTORE PUSH32 0x43414E4E4F545F52454D4F56455F524F4F545F5245564F4B4552000000000000 PUSH1 0x40 DUP3 ADD MSTORE PUSH1 0x60 ADD SWAP1 JUMP JUMPDEST PUSH1 0x20 DUP1 DUP3 MSTORE PUSH1 0x18 SWAP1 DUP3 ADD MSTORE PUSH32 0x5245564F4B455F4D5553545F42455F5343484544554C45440000000000000000 PUSH1 0x40 DUP3 ADD MSTORE PUSH1 0x60 ADD SWAP1 JUMP JUMPDEST PUSH1 0x20 DUP1 DUP3 MSTORE PUSH1 0x1A SWAP1 DUP3 ADD MSTORE PUSH32 0x53454E4445525F49535F4E4F545F50454E44494E475F524F4F54000000000000 PUSH1 0x40 DUP3 ADD MSTORE PUSH1 0x60 ADD SWAP1 JUMP JUMPDEST PUSH1 0x20 DUP1 DUP3 MSTORE PUSH1 0xF SWAP1 DUP3 ADD MSTORE PUSH32 0x44454C41595F544F4F5F4C415247450000000000000000000000000000000000 PUSH1 0x40 DUP3 ADD MSTORE PUSH1 0x60 ADD SWAP1 JUMP JUMPDEST PUSH1 0x20 DUP1 DUP3 MSTORE PUSH1 0x1A SWAP1 DUP3 ADD MSTORE PUSH32 0x414354494F4E5F4841535F4E4F5F5245564F4B455F44454C4159000000000000 PUSH1 0x40 DUP3 ADD MSTORE PUSH1 0x60 ADD SWAP1 JUMP JUMPDEST PUSH1 0x20 DUP1 DUP3 MSTORE PUSH1 0x16 SWAP1 DUP3 ADD MSTORE PUSH32 0x4143434F554E545F49535F4E4F545F4752414E54455200000000000000000000 PUSH1 0x40 DUP3 ADD MSTORE PUSH1 0x60 ADD SWAP1 JUMP JUMPDEST PUSH1 0x20 DUP1 DUP3 MSTORE PUSH1 0x19 SWAP1 DUP3 ADD MSTORE PUSH32 0x414354494F4E5F4E4F545F5945545F45584543555441424C4500000000000000 PUSH1 0x40 DUP3 ADD MSTORE PUSH1 0x60 ADD SWAP1 JUMP JUMPDEST PUSH1 0x20 DUP1 DUP3 MSTORE PUSH1 0x18 SWAP1 DUP3 ADD MSTORE PUSH32 0x414354494F4E5F414C52454144595F43414E43454C4C45440000000000000000 PUSH1 0x40 DUP3 ADD MSTORE PUSH1 0x60 ADD SWAP1 JUMP JUMPDEST PUSH1 0x20 DUP1 DUP3 MSTORE PUSH1 0x15 SWAP1 DUP3 ADD MSTORE PUSH32 0x43414E5F4F4E4C595F42455F5343484544554C45440000000000000000000000 PUSH1 0x40 DUP3 ADD MSTORE PUSH1 0x60 ADD SWAP1 JUMP JUMPDEST PUSH1 0x20 DUP1 DUP3 MSTORE PUSH1 0x1A SWAP1 DUP3 ADD MSTORE PUSH32 0x4143434F554E545F49535F474C4F42414C5F43414E43454C4552000000000000 PUSH1 0x40 DUP3 ADD MSTORE PUSH1 0x60 ADD SWAP1 JUMP JUMPDEST PUSH1 0x20 DUP1 DUP3 MSTORE PUSH1 0x17 SWAP1 DUP3 ADD MSTORE PUSH32 0x4143434F554E545F49535F4E4F545F43414E43454C4552000000000000000000 PUSH1 0x40 DUP3 ADD MSTORE PUSH1 0x60 ADD SWAP1 JUMP JUMPDEST PUSH1 0x20 DUP1 DUP3 MSTORE PUSH1 0x17 SWAP1 DUP3 ADD MSTORE PUSH32 0x4752414E545F4D5553545F42455F5343484544554C4544000000000000000000 PUSH1 0x40 DUP3 ADD MSTORE PUSH1 0x60 ADD SWAP1 JUMP JUMPDEST PUSH1 0x20 DUP1 DUP3 MSTORE PUSH1 0x15 SWAP1 DUP3 ADD MSTORE PUSH32 0x414354494F4E5F444F45535F4E4F545F45584953540000000000000000000000 PUSH1 0x40 DUP3 ADD MSTORE PUSH1 0x60 ADD SWAP1 JUMP JUMPDEST PUSH1 0x20 DUP1 DUP3 MSTORE PUSH1 0x17 SWAP1 DUP3 ADD MSTORE PUSH32 0x414354494F4E5F414C52454144595F4558454355544544000000000000000000 PUSH1 0x40 DUP3 ADD MSTORE PUSH1 0x60 ADD SWAP1 JUMP JUMPDEST PUSH1 0x20 DUP1 DUP3 MSTORE PUSH1 0x16 SWAP1 DUP3 ADD MSTORE PUSH32 0x4143434F554E545F49535F4E4F545F5245564F4B455200000000000000000000 PUSH1 0x40 DUP3 ADD MSTORE PUSH1 0x60 ADD SWAP1 JUMP JUMPDEST PUSH1 0x20 DUP1 DUP3 MSTORE PUSH1 0x1B SWAP1 DUP3 ADD MSTORE PUSH32 0x4143434F554E545F49535F414C52454144595F43414E43454C45520000000000 PUSH1 0x40 DUP3 ADD MSTORE PUSH1 0x60 ADD SWAP1 JUMP JUMPDEST PUSH1 0x20 DUP1 DUP3 MSTORE PUSH1 0x1A SWAP1 DUP3 ADD MSTORE PUSH32 0x43414E4E4F545F52454D4F56455F524F4F545F4752414E544552000000000000 PUSH1 0x40 DUP3 ADD MSTORE PUSH1 0x60 ADD SWAP1 JUMP JUMPDEST PUSH1 0x20 DUP1 DUP3 MSTORE PUSH1 0x1A SWAP1 DUP3 ADD MSTORE PUSH32 0x4143434F554E545F49535F414C52454144595F5245564F4B4552000000000000 PUSH1 0x40 DUP3 ADD MSTORE PUSH1 0x60 ADD SWAP1 JUMP JUMPDEST PUSH1 0x20 DUP1 DUP3 MSTORE PUSH1 0x16 SWAP1 DUP3 ADD MSTORE PUSH32 0x53454E4445525F49535F4E4F545F43414E43454C455200000000000000000000 PUSH1 0x40 DUP3 ADD MSTORE PUSH1 0x60 ADD SWAP1 JUMP JUMPDEST PUSH1 0x0 PUSH1 0x20 DUP3 MSTORE PUSH1 0x1 PUSH1 0x1 PUSH1 0xA0 SHL SUB DUP4 MLOAD AND PUSH1 0x20 DUP4 ADD MSTORE PUSH1 0x20 DUP4 ADD MLOAD PUSH1 0xC0 PUSH1 0x40 DUP5 ADD MSTORE PUSH2 0x37C2 PUSH1 0xE0 DUP5 ADD DUP3 PUSH2 0x2DBA JUMP JUMPDEST SWAP1 POP PUSH1 0x40 DUP5 ADD MLOAD ISZERO ISZERO PUSH1 0x60 DUP5 ADD MSTORE PUSH1 0x60 DUP5 ADD MLOAD ISZERO ISZERO PUSH1 0x80 DUP5 ADD MSTORE PUSH1 0x80 DUP5 ADD MLOAD ISZERO ISZERO PUSH1 0xA0 DUP5 ADD MSTORE PUSH1 0xA0 DUP5 ADD MLOAD PUSH1 0xC0 DUP5 ADD MSTORE DUP1 SWAP2 POP POP SWAP3 SWAP2 POP POP JUMP JUMPDEST PUSH1 0x40 MLOAD DUP2 DUP2 ADD PUSH8 0xFFFFFFFFFFFFFFFF DUP2 GT DUP3 DUP3 LT OR ISZERO PUSH2 0x381B JUMPI PUSH1 0x0 DUP1 REVERT JUMPDEST PUSH1 0x40 MSTORE SWAP2 SWAP1 POP JUMP JUMPDEST PUSH1 0x0 PUSH8 0xFFFFFFFFFFFFFFFF DUP3 GT ISZERO PUSH2 0x3839 JUMPI DUP1 DUP2 REVERT JUMPDEST POP PUSH1 0x1F ADD PUSH1 0x1F NOT AND PUSH1 0x20 ADD SWAP1 JUMP JUMPDEST PUSH1 0x0 SWAP1 DUP2 MSTORE PUSH1 0x20 SWAP1 KECCAK256 SWAP1 JUMP JUMPDEST PUSH1 0x0 JUMPDEST DUP4 DUP2 LT ISZERO PUSH2 0x386E JUMPI DUP2 DUP2 ADD MLOAD DUP4 DUP3 ADD MSTORE PUSH1 0x20 ADD PUSH2 0x3856 JUMP JUMPDEST DUP4 DUP2 GT ISZERO PUSH2 0x387D JUMPI PUSH1 0x0 DUP5 DUP5 ADD MSTORE JUMPDEST POP POP POP POP JUMP INVALID LOG2 PUSH5 0x6970667358 0x22 SLT KECCAK256 DUP14 PUSH29 0xF5271A2340C4097F709C9C56F4AAC4EE31529CD374A5C06CA7B2983456 0xBD PUSH5 0x736F6C6343 STOP SMOD ADD STOP CALLER PUSH1 0xA0 PUSH1 0x40 MSTORE CALLVALUE DUP1 ISZERO PUSH2 0x10 JUMPI PUSH1 0x0 DUP1 REVERT JUMPDEST POP PUSH1 0x1 PUSH1 0x0 SSTORE CALLER PUSH1 0x60 SHL PUSH1 0x80 MSTORE PUSH1 0x80 MLOAD PUSH1 0x60 SHR PUSH2 0x4B0 PUSH2 0x3F PUSH1 0x0 CODECOPY DUP1 PUSH2 0x1C6 MSTORE DUP1 PUSH2 0x26E MSTORE POP PUSH2 0x4B0 PUSH1 0x0 RETURN INVALID PUSH1 0x80 PUSH1 0x40 MSTORE CALLVALUE DUP1 ISZERO PUSH2 0x10 JUMPI PUSH1 0x0 DUP1 REVERT JUMPDEST POP PUSH1 0x4 CALLDATASIZE LT PUSH2 0x36 JUMPI PUSH1 0x0 CALLDATALOAD PUSH1 0xE0 SHR DUP1 PUSH4 0x1CFF79CD EQ PUSH2 0x3B JUMPI DUP1 PUSH4 0xAAABADC5 EQ PUSH2 0x173 JUMPI JUMPDEST PUSH1 0x0 DUP1 REVERT JUMPDEST PUSH2 0xFE PUSH1 0x4 DUP1 CALLDATASIZE SUB PUSH1 0x40 DUP2 LT ISZERO PUSH2 0x51 JUMPI PUSH1 0x0 DUP1 REVERT JUMPDEST PUSH20 0xFFFFFFFFFFFFFFFFFFFFFFFFFFFFFFFFFFFFFFFF DUP3 CALLDATALOAD AND SWAP2 SWAP1 DUP2 ADD SWAP1 PUSH1 0x40 DUP2 ADD PUSH1 0x20 DUP3 ADD CALLDATALOAD PUSH5 0x100000000 DUP2 GT ISZERO PUSH2 0x89 JUMPI PUSH1 0x0 DUP1 REVERT JUMPDEST DUP3 ADD DUP4 PUSH1 0x20 DUP3 ADD GT ISZERO PUSH2 0x9B JUMPI PUSH1 0x0 DUP1 REVERT JUMPDEST DUP1 CALLDATALOAD SWAP1 PUSH1 0x20 ADD SWAP2 DUP5 PUSH1 0x1 DUP4 MUL DUP5 ADD GT PUSH5 0x100000000 DUP4 GT OR ISZERO PUSH2 0xBD JUMPI PUSH1 0x0 DUP1 REVERT JUMPDEST SWAP2 SWAP1 DUP1 DUP1 PUSH1 0x1F ADD PUSH1 0x20 DUP1 SWAP2 DIV MUL PUSH1 0x20 ADD PUSH1 0x40 MLOAD SWAP1 DUP2 ADD PUSH1 0x40 MSTORE DUP1 SWAP4 SWAP3 SWAP2 SWAP1 DUP2 DUP2 MSTORE PUSH1 0x20 ADD DUP4 DUP4 DUP1 DUP3 DUP5 CALLDATACOPY PUSH1 0x0 SWAP3 ADD SWAP2 SWAP1 SWAP2 MSTORE POP SWAP3 SWAP6 POP PUSH2 0x1A4 SWAP5 POP POP POP POP POP JUMP JUMPDEST PUSH1 0x40 DUP1 MLOAD PUSH1 0x20 DUP1 DUP3 MSTORE DUP4 MLOAD DUP2 DUP4 ADD MSTORE DUP4 MLOAD SWAP2 SWAP3 DUP4 SWAP3 SWAP1 DUP4 ADD SWAP2 DUP6 ADD SWAP1 DUP1 DUP4 DUP4 PUSH1 0x0 JUMPDEST DUP4 DUP2 LT ISZERO PUSH2 0x138 JUMPI DUP2 DUP2 ADD MLOAD DUP4 DUP3 ADD MSTORE PUSH1 0x20 ADD PUSH2 0x120 JUMP JUMPDEST POP POP POP POP SWAP1 POP SWAP1 DUP2 ADD SWAP1 PUSH1 0x1F AND DUP1 ISZERO PUSH2 0x165 JUMPI DUP1 DUP3 SUB DUP1 MLOAD PUSH1 0x1 DUP4 PUSH1 0x20 SUB PUSH2 0x100 EXP SUB NOT AND DUP2 MSTORE PUSH1 0x20 ADD SWAP2 POP JUMPDEST POP SWAP3 POP POP POP PUSH1 0x40 MLOAD DUP1 SWAP2 SUB SWAP1 RETURN JUMPDEST PUSH2 0x17B PUSH2 0x26C JUMP JUMPDEST PUSH1 0x40 DUP1 MLOAD PUSH20 0xFFFFFFFFFFFFFFFFFFFFFFFFFFFFFFFFFFFFFFFF SWAP1 SWAP3 AND DUP3 MSTORE MLOAD SWAP1 DUP2 SWAP1 SUB PUSH1 0x20 ADD SWAP1 RETURN JUMPDEST PUSH1 0x60 PUSH2 0x1AE PUSH2 0x290 JUMP JUMPDEST CALLER PUSH20 0xFFFFFFFFFFFFFFFFFFFFFFFFFFFFFFFFFFFFFFFF PUSH32 0x0 AND EQ PUSH2 0x252 JUMPI PUSH1 0x40 DUP1 MLOAD PUSH32 0x8C379A000000000000000000000000000000000000000000000000000000000 DUP2 MSTORE PUSH1 0x20 PUSH1 0x4 DUP3 ADD MSTORE PUSH1 0x18 PUSH1 0x24 DUP3 ADD MSTORE PUSH32 0x53454E4445525F49535F4E4F545F415554484F52495A45520000000000000000 PUSH1 0x44 DUP3 ADD MSTORE SWAP1 MLOAD SWAP1 DUP2 SWAP1 SUB PUSH1 0x64 ADD SWAP1 REVERT JUMPDEST PUSH2 0x25C DUP4 DUP4 PUSH2 0x2A9 JUMP JUMPDEST SWAP1 POP PUSH2 0x266 PUSH2 0x393 JUMP JUMPDEST SWAP3 SWAP2 POP POP JUMP JUMPDEST PUSH32 0x0 SWAP1 JUMP JUMPDEST PUSH2 0x2A2 PUSH1 0x2 PUSH1 0x0 SLOAD EQ ISZERO PUSH2 0x190 PUSH2 0x39A JUMP JUMPDEST PUSH1 0x2 PUSH1 0x0 SSTORE JUMP JUMPDEST PUSH1 0x60 PUSH1 0x0 PUSH1 0x60 DUP5 PUSH20 0xFFFFFFFFFFFFFFFFFFFFFFFFFFFFFFFFFFFFFFFF AND DUP5 PUSH1 0x40 MLOAD DUP1 DUP3 DUP1 MLOAD SWAP1 PUSH1 0x20 ADD SWAP1 DUP1 DUP4 DUP4 JUMPDEST PUSH1 0x20 DUP4 LT PUSH2 0x314 JUMPI DUP1 MLOAD DUP3 MSTORE PUSH32 0xFFFFFFFFFFFFFFFFFFFFFFFFFFFFFFFFFFFFFFFFFFFFFFFFFFFFFFFFFFFFFFE0 SWAP1 SWAP3 ADD SWAP2 PUSH1 0x20 SWAP2 DUP3 ADD SWAP2 ADD PUSH2 0x2D7 JUMP JUMPDEST PUSH1 0x1 DUP4 PUSH1 0x20 SUB PUSH2 0x100 EXP SUB DUP1 NOT DUP3 MLOAD AND DUP2 DUP5 MLOAD AND DUP1 DUP3 OR DUP6 MSTORE POP POP POP POP POP POP SWAP1 POP ADD SWAP2 POP POP PUSH1 0x0 PUSH1 0x40 MLOAD DUP1 DUP4 SUB DUP2 PUSH1 0x0 DUP7 GAS CALL SWAP2 POP POP RETURNDATASIZE DUP1 PUSH1 0x0 DUP2 EQ PUSH2 0x376 JUMPI PUSH1 0x40 MLOAD SWAP2 POP PUSH1 0x1F NOT PUSH1 0x3F RETURNDATASIZE ADD AND DUP3 ADD PUSH1 0x40 MSTORE RETURNDATASIZE DUP3 MSTORE RETURNDATASIZE PUSH1 0x0 PUSH1 0x20 DUP5 ADD RETURNDATACOPY PUSH2 0x37B JUMP JUMPDEST PUSH1 0x60 SWAP2 POP JUMPDEST POP SWAP2 POP SWAP2 POP PUSH2 0x38A DUP3 DUP3 PUSH2 0x3AC JUMP JUMPDEST SWAP6 SWAP5 POP POP POP POP POP JUMP JUMPDEST PUSH1 0x1 PUSH1 0x0 SSTORE JUMP JUMPDEST DUP2 PUSH2 0x3A8 JUMPI PUSH2 0x3A8 DUP2 PUSH2 0x3D2 JUMP JUMPDEST POP POP JUMP JUMPDEST PUSH1 0x60 DUP3 ISZERO PUSH2 0x3BB JUMPI POP DUP1 PUSH2 0x266 JUMP JUMPDEST DUP2 MLOAD ISZERO PUSH2 0x3CB JUMPI DUP2 MLOAD DUP1 DUP4 PUSH1 0x20 ADD REVERT JUMPDEST PUSH2 0x266 PUSH2 0x1AE JUMPDEST PUSH2 0x3FC DUP2 PUSH32 0x42414C0000000000000000000000000000000000000000000000000000000000 PUSH2 0x3FF JUMP JUMPDEST POP JUMP JUMPDEST PUSH32 0x8C379A000000000000000000000000000000000000000000000000000000000 PUSH1 0x0 SWAP1 DUP2 MSTORE PUSH1 0x20 PUSH1 0x4 MSTORE PUSH1 0x7 PUSH1 0x24 MSTORE PUSH1 0xA DUP1 DUP5 DIV DUP2 DUP2 MOD PUSH1 0x30 SWAP1 DUP2 ADD PUSH1 0x8 SHL SWAP6 DUP4 SWAP1 MOD SWAP6 SWAP1 SWAP6 ADD SWAP1 DUP3 SWAP1 DIV SWAP2 DUP3 MOD DUP6 ADD PUSH1 0x10 SHL ADD PUSH1 0x23 PUSH4 0xFFFFFF00 PUSH1 0xE0 DUP7 SWAP1 SHR AND ADD PUSH1 0x18 SHL ADD SWAP1 SWAP4 ADD PUSH1 0xC8 SHL PUSH1 0x44 MSTORE PUSH1 0xE8 DUP3 SWAP1 SHR SWAP1 PUSH1 0x64 SWAP1 REVERT INVALID LOG2 PUSH5 0x6970667358 0x22 SLT KECCAK256 NOT INVALID ISZERO 0xA6 PUSH8 0xB5B8BD076C540F7A DUP3 0xC5 PUSH22 0xBD7F2EF37C72E08DE029D8974BA1B99864736F6C6343 STOP SMOD ADD STOP CALLER "},"methodIdentifiers":{"EVERYWHERE()":"62cde1ba","GLOBAL_CANCELER_SCHEDULED_EXECUTION_ID()":"9299942e","MAX_DELAY()":"4125ff90","MINIMUM_CHANGE_DELAY_EXECUTION_DELAY()":"b1e31aa0","addCanceler(uint256,address)":"f6ebcbaf","addGranter(bytes32,address,address)":"2229edb4","addRevoker(address,address)":"a44495d1","canExecute(uint256)":"cc63604a","canPerform(bytes32,address,address)":"9be2a884","cancel(uint256)":"40e58ee5","claimRoot()":"14ea35e7","execute(uint256)":"fe0d94c1","getActionIdDelay(bytes32)":"3bf46797","getActionIdGrantDelay(bytes32)":"8bd6bbc9","getActionIdRevokeDelay(bytes32)":"b99db526","getPendingRoot()":"d00bef4d","getPermissionId(bytes32,address,address)":"2362716d","getRoot()":"5ca1e165","getRootTransferDelay()":"c284b6b9","getScheduledExecution(uint256)":"6badd2ab","getTimelockExecutionHelper()":"18ef871a","getVault()":"8d928af8","grantPermission(bytes32,address,address)":"8cc3d072","hasPermission(bytes32,address,address)":"e2b4146b","isCanceler(uint256,address)":"3e1df46d","isExecutor(uint256,address)":"04434606","isGranter(bytes32,address,address)":"b3eb281d","isPendingRoot(address)":"0df322a6","isPermissionGrantedOnTarget(bytes32,address,address)":"86ff254b","isRevoker(address,address)":"c6192ee3","isRoot(address)":"557a6403","removeCanceler(uint256,address)":"72efb120","removeGranter(bytes32,address,address)":"a8eae12d","removeRevoker(address,address)":"90216812","renouncePermission(bytes32,address)":"99a7f6e2","revokePermission(bytes32,address,address)":"3ac5d439","schedule(address,bytes,address[])":"169f1468","scheduleDelayChange(bytes32,uint256,address[])":"f0845522","scheduleGrantDelayChange(bytes32,uint256,address[])":"63cdbf36","scheduleGrantPermission(bytes32,address,address,address[])":"863bac6b","scheduleRevokeDelayChange(bytes32,uint256,address[])":"608dd7e4","scheduleRevokePermission(bytes32,address,address,address[])":"5b78b780","scheduleRootChange(address,address[])":"2e3ed05b","setDelay(bytes32,uint256)":"f0bb9406","setGrantDelay(bytes32,uint256)":"10d3ab2c","setPendingRoot(address)":"1b3c85eb","setRevokeDelay(bytes32,uint256)":"c80c23e1"}}}}}