{
  "_format": "hh-sol-artifact-1",
  "contractName": "WeightedPool",
  "sourceName": "contracts/WeightedPool.sol",
  "abi": [
    {
      "inputs": [
        {
          "components": [
            {
              "internalType": "string",
              "name": "name",
              "type": "string"
            },
            {
              "internalType": "string",
              "name": "symbol",
              "type": "string"
            },
            {
              "internalType": "contract IERC20[]",
              "name": "tokens",
              "type": "address[]"
            },
            {
              "internalType": "uint256[]",
              "name": "normalizedWeights",
              "type": "uint256[]"
            },
            {
              "internalType": "contract IRateProvider[]",
              "name": "rateProviders",
              "type": "address[]"
            },
            {
              "internalType": "address[]",
              "name": "assetManagers",
              "type": "address[]"
            },
            {
              "internalType": "uint256",
              "name": "swapFeePercentage",
              "type": "uint256"
            }
          ],
          "internalType": "struct WeightedPool.NewPoolParams",
          "name": "params",
          "type": "tuple"
        },
        {
          "internalType": "contract IVault",
          "name": "vault",
          "type": "address"
        },
        {
          "internalType": "contract IProtocolFeePercentagesProvider",
          "name": "protocolFeeProvider",
          "type": "address"
        },
        {
          "internalType": "uint256",
          "name": "pauseWindowDuration",
          "type": "uint256"
        },
        {
          "internalType": "uint256",
          "name": "bufferPeriodDuration",
          "type": "uint256"
        },
        {
          "internalType": "address",
          "name": "owner",
          "type": "address"
        },
        {
          "internalType": "string",
          "name": "version",
          "type": "string"
        }
      ],
      "stateMutability": "nonpayable",
      "type": "constructor"
    },
    {
      "anonymous": false,
      "inputs": [
        {
          "indexed": true,
          "internalType": "address",
          "name": "owner",
          "type": "address"
        },
        {
          "indexed": true,
          "internalType": "address",
          "name": "spender",
          "type": "address"
        },
        {
          "indexed": false,
          "internalType": "uint256",
          "name": "value",
          "type": "uint256"
        }
      ],
      "name": "Approval",
      "type": "event"
    },
    {
      "anonymous": false,
      "inputs": [
        {
          "indexed": false,
          "internalType": "bool",
          "name": "paused",
          "type": "bool"
        }
      ],
      "name": "PausedStateChanged",
      "type": "event"
    },
    {
      "anonymous": false,
      "inputs": [
        {
          "indexed": true,
          "internalType": "uint256",
          "name": "feeType",
          "type": "uint256"
        },
        {
          "indexed": false,
          "internalType": "uint256",
          "name": "protocolFeePercentage",
          "type": "uint256"
        }
      ],
      "name": "ProtocolFeePercentageCacheUpdated",
      "type": "event"
    },
    {
      "anonymous": false,
      "inputs": [
        {
          "indexed": false,
          "internalType": "bool",
          "name": "enabled",
          "type": "bool"
        }
      ],
      "name": "RecoveryModeStateChanged",
      "type": "event"
    },
    {
      "anonymous": false,
      "inputs": [
        {
          "indexed": false,
          "internalType": "uint256",
          "name": "swapFeePercentage",
          "type": "uint256"
        }
      ],
      "name": "SwapFeePercentageChanged",
      "type": "event"
    },
    {
      "anonymous": false,
      "inputs": [
        {
          "indexed": true,
          "internalType": "address",
          "name": "from",
          "type": "address"
        },
        {
          "indexed": true,
          "internalType": "address",
          "name": "to",
          "type": "address"
        },
        {
          "indexed": false,
          "internalType": "uint256",
          "name": "value",
          "type": "uint256"
        }
      ],
      "name": "Transfer",
      "type": "event"
    },
    {
      "inputs": [],
      "name": "DELEGATE_PROTOCOL_SWAP_FEES_SENTINEL",
      "outputs": [
        {
          "internalType": "uint256",
          "name": "",
          "type": "uint256"
        }
      ],
      "stateMutability": "view",
      "type": "function"
    },
    {
      "inputs": [],
      "name": "DOMAIN_SEPARATOR",
      "outputs": [
        {
          "internalType": "bytes32",
          "name": "",
          "type": "bytes32"
        }
      ],
      "stateMutability": "view",
      "type": "function"
    },
    {
      "inputs": [
        {
          "internalType": "address",
          "name": "owner",
          "type": "address"
        },
        {
          "internalType": "address",
          "name": "spender",
          "type": "address"
        }
      ],
      "name": "allowance",
      "outputs": [
        {
          "internalType": "uint256",
          "name": "",
          "type": "uint256"
        }
      ],
      "stateMutability": "view",
      "type": "function"
    },
    {
      "inputs": [
        {
          "internalType": "address",
          "name": "spender",
          "type": "address"
        },
        {
          "internalType": "uint256",
          "name": "amount",
          "type": "uint256"
        }
      ],
      "name": "approve",
      "outputs": [
        {
          "internalType": "bool",
          "name": "",
          "type": "bool"
        }
      ],
      "stateMutability": "nonpayable",
      "type": "function"
    },
    {
      "inputs": [
        {
          "internalType": "address",
          "name": "account",
          "type": "address"
        }
      ],
      "name": "balanceOf",
      "outputs": [
        {
          "internalType": "uint256",
          "name": "",
          "type": "uint256"
        }
      ],
      "stateMutability": "view",
      "type": "function"
    },
    {
      "inputs": [],
      "name": "decimals",
      "outputs": [
        {
          "internalType": "uint8",
          "name": "",
          "type": "uint8"
        }
      ],
      "stateMutability": "view",
      "type": "function"
    },
    {
      "inputs": [
        {
          "internalType": "address",
          "name": "spender",
          "type": "address"
        },
        {
          "internalType": "uint256",
          "name": "amount",
          "type": "uint256"
        }
      ],
      "name": "decreaseAllowance",
      "outputs": [
        {
          "internalType": "bool",
          "name": "",
          "type": "bool"
        }
      ],
      "stateMutability": "nonpayable",
      "type": "function"
    },
    {
      "inputs": [],
      "name": "disableRecoveryMode",
      "outputs": [],
      "stateMutability": "nonpayable",
      "type": "function"
    },
    {
      "inputs": [],
      "name": "enableRecoveryMode",
      "outputs": [],
      "stateMutability": "nonpayable",
      "type": "function"
    },
    {
      "inputs": [],
      "name": "getATHRateProduct",
      "outputs": [
        {
          "internalType": "uint256",
          "name": "",
          "type": "uint256"
        }
      ],
      "stateMutability": "view",
      "type": "function"
    },
    {
      "inputs": [
        {
          "internalType": "bytes4",
          "name": "selector",
          "type": "bytes4"
        }
      ],
      "name": "getActionId",
      "outputs": [
        {
          "internalType": "bytes32",
          "name": "",
          "type": "bytes32"
        }
      ],
      "stateMutability": "view",
      "type": "function"
    },
    {
      "inputs": [],
      "name": "getActualSupply",
      "outputs": [
        {
          "internalType": "uint256",
          "name": "",
          "type": "uint256"
        }
      ],
      "stateMutability": "view",
      "type": "function"
    },
    {
      "inputs": [],
      "name": "getAuthorizer",
      "outputs": [
        {
          "internalType": "contract IAuthorizer",
          "name": "",
          "type": "address"
        }
      ],
      "stateMutability": "view",
      "type": "function"
    },
    {
      "inputs": [],
      "name": "getDomainSeparator",
      "outputs": [
        {
          "internalType": "bytes32",
          "name": "",
          "type": "bytes32"
        }
      ],
      "stateMutability": "view",
      "type": "function"
    },
    {
      "inputs": [],
      "name": "getInvariant",
      "outputs": [
        {
          "internalType": "uint256",
          "name": "",
          "type": "uint256"
        }
      ],
      "stateMutability": "view",
      "type": "function"
    },
    {
      "inputs": [],
      "name": "getLastPostJoinExitInvariant",
      "outputs": [
        {
          "internalType": "uint256",
          "name": "",
          "type": "uint256"
        }
      ],
      "stateMutability": "view",
      "type": "function"
    },
    {
      "inputs": [
        {
          "internalType": "address",
          "name": "account",
          "type": "address"
        }
      ],
      "name": "getNextNonce",
      "outputs": [
        {
          "internalType": "uint256",
          "name": "",
          "type": "uint256"
        }
      ],
      "stateMutability": "view",
      "type": "function"
    },
    {
      "inputs": [],
      "name": "getNormalizedWeights",
      "outputs": [
        {
          "internalType": "uint256[]",
          "name": "",
          "type": "uint256[]"
        }
      ],
      "stateMutability": "view",
      "type": "function"
    },
    {
      "inputs": [],
      "name": "getOwner",
      "outputs": [
        {
          "internalType": "address",
          "name": "",
          "type": "address"
        }
      ],
      "stateMutability": "view",
      "type": "function"
    },
    {
      "inputs": [],
      "name": "getPausedState",
      "outputs": [
        {
          "internalType": "bool",
          "name": "paused",
          "type": "bool"
        },
        {
          "internalType": "uint256",
          "name": "pauseWindowEndTime",
          "type": "uint256"
        },
        {
          "internalType": "uint256",
          "name": "bufferPeriodEndTime",
          "type": "uint256"
        }
      ],
      "stateMutability": "view",
      "type": "function"
    },
    {
      "inputs": [],
      "name": "getPoolId",
      "outputs": [
        {
          "internalType": "bytes32",
          "name": "",
          "type": "bytes32"
        }
      ],
      "stateMutability": "view",
      "type": "function"
    },
    {
      "inputs": [
        {
          "internalType": "uint256",
          "name": "feeType",
          "type": "uint256"
        }
      ],
      "name": "getProtocolFeePercentageCache",
      "outputs": [
        {
          "internalType": "uint256",
          "name": "",
          "type": "uint256"
        }
      ],
      "stateMutability": "view",
      "type": "function"
    },
    {
      "inputs": [],
      "name": "getProtocolFeesCollector",
      "outputs": [
        {
          "internalType": "contract IProtocolFeesCollector",
          "name": "",
          "type": "address"
        }
      ],
      "stateMutability": "view",
      "type": "function"
    },
    {
      "inputs": [],
      "name": "getProtocolSwapFeeDelegation",
      "outputs": [
        {
          "internalType": "bool",
          "name": "",
          "type": "bool"
        }
      ],
      "stateMutability": "view",
      "type": "function"
    },
    {
      "inputs": [],
      "name": "getRateProviders",
      "outputs": [
        {
          "internalType": "contract IRateProvider[]",
          "name": "",
          "type": "address[]"
        }
      ],
      "stateMutability": "view",
      "type": "function"
    },
    {
      "inputs": [],
      "name": "getScalingFactors",
      "outputs": [
        {
          "internalType": "uint256[]",
          "name": "",
          "type": "uint256[]"
        }
      ],
      "stateMutability": "view",
      "type": "function"
    },
    {
      "inputs": [],
      "name": "getSwapFeePercentage",
      "outputs": [
        {
          "internalType": "uint256",
          "name": "",
          "type": "uint256"
        }
      ],
      "stateMutability": "view",
      "type": "function"
    },
    {
      "inputs": [],
      "name": "getVault",
      "outputs": [
        {
          "internalType": "contract IVault",
          "name": "",
          "type": "address"
        }
      ],
      "stateMutability": "view",
      "type": "function"
    },
    {
      "inputs": [],
      "name": "inRecoveryMode",
      "outputs": [
        {
          "internalType": "bool",
          "name": "",
          "type": "bool"
        }
      ],
      "stateMutability": "view",
      "type": "function"
    },
    {
      "inputs": [
        {
          "internalType": "address",
          "name": "spender",
          "type": "address"
        },
        {
          "internalType": "uint256",
          "name": "addedValue",
          "type": "uint256"
        }
      ],
      "name": "increaseAllowance",
      "outputs": [
        {
          "internalType": "bool",
          "name": "",
          "type": "bool"
        }
      ],
      "stateMutability": "nonpayable",
      "type": "function"
    },
    {
      "inputs": [],
      "name": "name",
      "outputs": [
        {
          "internalType": "string",
          "name": "",
          "type": "string"
        }
      ],
      "stateMutability": "view",
      "type": "function"
    },
    {
      "inputs": [
        {
          "internalType": "address",
          "name": "owner",
          "type": "address"
        }
      ],
      "name": "nonces",
      "outputs": [
        {
          "internalType": "uint256",
          "name": "",
          "type": "uint256"
        }
      ],
      "stateMutability": "view",
      "type": "function"
    },
    {
      "inputs": [
        {
          "internalType": "bytes32",
          "name": "poolId",
          "type": "bytes32"
        },
        {
          "internalType": "address",
          "name": "sender",
          "type": "address"
        },
        {
          "internalType": "address",
          "name": "recipient",
          "type": "address"
        },
        {
          "internalType": "uint256[]",
          "name": "balances",
          "type": "uint256[]"
        },
        {
          "internalType": "uint256",
          "name": "lastChangeBlock",
          "type": "uint256"
        },
        {
          "internalType": "uint256",
          "name": "protocolSwapFeePercentage",
          "type": "uint256"
        },
        {
          "internalType": "bytes",
          "name": "userData",
          "type": "bytes"
        }
      ],
      "name": "onExitPool",
      "outputs": [
        {
          "internalType": "uint256[]",
          "name": "",
          "type": "uint256[]"
        },
        {
          "internalType": "uint256[]",
          "name": "",
          "type": "uint256[]"
        }
      ],
      "stateMutability": "nonpayable",
      "type": "function"
    },
    {
      "inputs": [
        {
          "internalType": "bytes32",
          "name": "poolId",
          "type": "bytes32"
        },
        {
          "internalType": "address",
          "name": "sender",
          "type": "address"
        },
        {
          "internalType": "address",
          "name": "recipient",
          "type": "address"
        },
        {
          "internalType": "uint256[]",
          "name": "balances",
          "type": "uint256[]"
        },
        {
          "internalType": "uint256",
          "name": "lastChangeBlock",
          "type": "uint256"
        },
        {
          "internalType": "uint256",
          "name": "protocolSwapFeePercentage",
          "type": "uint256"
        },
        {
          "internalType": "bytes",
          "name": "userData",
          "type": "bytes"
        }
      ],
      "name": "onJoinPool",
      "outputs": [
        {
          "internalType": "uint256[]",
          "name": "",
          "type": "uint256[]"
        },
        {
          "internalType": "uint256[]",
          "name": "",
          "type": "uint256[]"
        }
      ],
      "stateMutability": "nonpayable",
      "type": "function"
    },
    {
      "inputs": [
        {
          "components": [
            {
              "internalType": "enum IVault.SwapKind",
              "name": "kind",
              "type": "uint8"
            },
            {
              "internalType": "contract IERC20",
              "name": "tokenIn",
              "type": "address"
            },
            {
              "internalType": "contract IERC20",
              "name": "tokenOut",
              "type": "address"
            },
            {
              "internalType": "uint256",
              "name": "amount",
              "type": "uint256"
            },
            {
              "internalType": "bytes32",
              "name": "poolId",
              "type": "bytes32"
            },
            {
              "internalType": "uint256",
              "name": "lastChangeBlock",
              "type": "uint256"
            },
            {
              "internalType": "address",
              "name": "from",
              "type": "address"
            },
            {
              "internalType": "address",
              "name": "to",
              "type": "address"
            },
            {
              "internalType": "bytes",
              "name": "userData",
              "type": "bytes"
            }
          ],
          "internalType": "struct IPoolSwapStructs.SwapRequest",
          "name": "request",
          "type": "tuple"
        },
        {
          "internalType": "uint256",
          "name": "balanceTokenIn",
          "type": "uint256"
        },
        {
          "internalType": "uint256",
          "name": "balanceTokenOut",
          "type": "uint256"
        }
      ],
      "name": "onSwap",
      "outputs": [
        {
          "internalType": "uint256",
          "name": "",
          "type": "uint256"
        }
      ],
      "stateMutability": "nonpayable",
      "type": "function"
    },
    {
      "inputs": [],
      "name": "pause",
      "outputs": [],
      "stateMutability": "nonpayable",
      "type": "function"
    },
    {
      "inputs": [
        {
          "internalType": "address",
          "name": "owner",
          "type": "address"
        },
        {
          "internalType": "address",
          "name": "spender",
          "type": "address"
        },
        {
          "internalType": "uint256",
          "name": "value",
          "type": "uint256"
        },
        {
          "internalType": "uint256",
          "name": "deadline",
          "type": "uint256"
        },
        {
          "internalType": "uint8",
          "name": "v",
          "type": "uint8"
        },
        {
          "internalType": "bytes32",
          "name": "r",
          "type": "bytes32"
        },
        {
          "internalType": "bytes32",
          "name": "s",
          "type": "bytes32"
        }
      ],
      "name": "permit",
      "outputs": [],
      "stateMutability": "nonpayable",
      "type": "function"
    },
    {
      "inputs": [
        {
          "internalType": "bytes32",
          "name": "poolId",
          "type": "bytes32"
        },
        {
          "internalType": "address",
          "name": "sender",
          "type": "address"
        },
        {
          "internalType": "address",
          "name": "recipient",
          "type": "address"
        },
        {
          "internalType": "uint256[]",
          "name": "balances",
          "type": "uint256[]"
        },
        {
          "internalType": "uint256",
          "name": "lastChangeBlock",
          "type": "uint256"
        },
        {
          "internalType": "uint256",
          "name": "protocolSwapFeePercentage",
          "type": "uint256"
        },
        {
          "internalType": "bytes",
          "name": "userData",
          "type": "bytes"
        }
      ],
      "name": "queryExit",
      "outputs": [
        {
          "internalType": "uint256",
          "name": "bptIn",
          "type": "uint256"
        },
        {
          "internalType": "uint256[]",
          "name": "amountsOut",
          "type": "uint256[]"
        }
      ],
      "stateMutability": "nonpayable",
      "type": "function"
    },
    {
      "inputs": [
        {
          "internalType": "bytes32",
          "name": "poolId",
          "type": "bytes32"
        },
        {
          "internalType": "address",
          "name": "sender",
          "type": "address"
        },
        {
          "internalType": "address",
          "name": "recipient",
          "type": "address"
        },
        {
          "internalType": "uint256[]",
          "name": "balances",
          "type": "uint256[]"
        },
        {
          "internalType": "uint256",
          "name": "lastChangeBlock",
          "type": "uint256"
        },
        {
          "internalType": "uint256",
          "name": "protocolSwapFeePercentage",
          "type": "uint256"
        },
        {
          "internalType": "bytes",
          "name": "userData",
          "type": "bytes"
        }
      ],
      "name": "queryJoin",
      "outputs": [
        {
          "internalType": "uint256",
          "name": "bptOut",
          "type": "uint256"
        },
        {
          "internalType": "uint256[]",
          "name": "amountsIn",
          "type": "uint256[]"
        }
      ],
      "stateMutability": "nonpayable",
      "type": "function"
    },
    {
      "inputs": [
        {
          "internalType": "contract IERC20",
          "name": "token",
          "type": "address"
        },
        {
          "internalType": "bytes",
          "name": "poolConfig",
          "type": "bytes"
        }
      ],
      "name": "setAssetManagerPoolConfig",
      "outputs": [],
      "stateMutability": "nonpayable",
      "type": "function"
    },
    {
      "inputs": [
        {
          "internalType": "uint256",
          "name": "swapFeePercentage",
          "type": "uint256"
        }
      ],
      "name": "setSwapFeePercentage",
      "outputs": [],
      "stateMutability": "nonpayable",
      "type": "function"
    },
    {
      "inputs": [],
      "name": "symbol",
      "outputs": [
        {
          "internalType": "string",
          "name": "",
          "type": "string"
        }
      ],
      "stateMutability": "view",
      "type": "function"
    },
    {
      "inputs": [],
      "name": "totalSupply",
      "outputs": [
        {
          "internalType": "uint256",
          "name": "",
          "type": "uint256"
        }
      ],
      "stateMutability": "view",
      "type": "function"
    },
    {
      "inputs": [
        {
          "internalType": "address",
          "name": "recipient",
          "type": "address"
        },
        {
          "internalType": "uint256",
          "name": "amount",
          "type": "uint256"
        }
      ],
      "name": "transfer",
      "outputs": [
        {
          "internalType": "bool",
          "name": "",
          "type": "bool"
        }
      ],
      "stateMutability": "nonpayable",
      "type": "function"
    },
    {
      "inputs": [
        {
          "internalType": "address",
          "name": "sender",
          "type": "address"
        },
        {
          "internalType": "address",
          "name": "recipient",
          "type": "address"
        },
        {
          "internalType": "uint256",
          "name": "amount",
          "type": "uint256"
        }
      ],
      "name": "transferFrom",
      "outputs": [
        {
          "internalType": "bool",
          "name": "",
          "type": "bool"
        }
      ],
      "stateMutability": "nonpayable",
      "type": "function"
    },
    {
      "inputs": [],
      "name": "unpause",
      "outputs": [],
      "stateMutability": "nonpayable",
      "type": "function"
    },
    {
      "inputs": [],
      "name": "updateProtocolFeePercentageCache",
      "outputs": [],
      "stateMutability": "nonpayable",
      "type": "function"
    },
    {
      "inputs": [],
      "name": "version",
      "outputs": [
        {
          "internalType": "string",
          "name": "",
          "type": "string"
        }
      ],
      "stateMutability": "view",
      "type": "function"
    }
  ],
  "bytecode": "0x6106606040523480156200001257600080fd5b50604051620079863803806200798683398101604081905262000035916200150d565b866040015151876080015186600019898b600001518c602001518d604001518e60a001518f60c001518d8d8d6000898751600214801562000074575081155b6200008157600162000084565b60025b8a8a8a8a8a8a8a8a828289898d85336001600160a01b031660001b8480604051806040016040528060018152602001603160f81b81525087878160039080519060200190620000d5929190620011e1565b508051620000eb906004906020840190620011e1565b50506005805460ff19166012179055508151602092830120608052805191012060a052507f8b73c3c69bb8fe3d512ecc4cf759cc79239f7b179b0ffacaa9a75d522b39400f60c05260e0526001600160601b0319606091821b81166101005291901b1661012052506200016990506276a70083111561019462000c40565b6200017d62278d0082111561019562000c40565b42909101610140819052016101605285516200019f906002111560c862000c40565b620001b9620001ad62000c55565b8751111560c962000c40565b620001cf8662000c5a60201b620014ba1760201c565b620001da8462000c66565b6040516309b2760f60e01b81526000906001600160a01b038c16906309b2760f906200020b908d906004016200177b565b602060405180830381600087803b1580156200022657600080fd5b505af11580156200023b573d6000803e3d6000fd5b505050506040513d601f19601f82011682018060405250810190620002619190620014d5565b604051633354e3e960e11b81529091506001600160a01b038c16906366a9c7d290620002969084908b908b90600401620016df565b600060405180830381600087803b158015620002b157600080fd5b505af1158015620002c6573d6000803e3d6000fd5b505050508061018081815250508a6001600160a01b031663d2946c2b6040518163ffffffff1660e01b815260040160206040518083038186803b1580156200030d57600080fd5b505afa15801562000322573d6000803e3d6000fd5b505050506040513d601f19601f82011682018060405250810190620003489190620014ee565b6001600160a01b03166101a0816001600160a01b031660601b815250505050505050505050505050505050505050505050506000600019821490508015156101e081151560f81b81525050826001600160a01b03166101c0816001600160a01b031660601b81525050620003c483600262000cfa60201b60201c565b620003d183600362000cfa565b8015620003eb57620003e583600062000cfa565b620004aa565b60405163178b2b9360e21b81526200047f906001600160a01b03851690635e2cae4c906200041f9060009060040162001790565b60206040518083038186803b1580156200043857600080fd5b505afa1580156200044d573d6000803e3d6000fd5b505050506040513d601f19601f82011682018060405250810190620004739190620014d5565b83111561025862000c40565b60006000805160206200796683398151915283604051620004a1919062001790565b60405180910390a25b80620004b75781620004ba565b60005b6102005250620004d3915050600883111560c962000c40565b620004eb82825162000ea560201b620014c41760201c565b620004f68162000eb4565b151560f81b61032052805181906000906200050d57fe5b60200260200101516001600160a01b0316610220816001600160a01b031660601b81525050806001815181106200054057fe5b60200260200101516001600160a01b0316610240816001600160a01b031660601b8152505060028211620005765760006200058d565b806002815181106200058457fe5b60200260200101515b60601b6001600160601b0319166102605260038211620005af576000620005c6565b80600381518110620005bd57fe5b60200260200101515b60601b6001600160601b0319166102805260048211620005e8576000620005ff565b80600481518110620005f657fe5b60200260200101515b60601b6001600160601b0319166102a052600582116200062157600062000638565b806005815181106200062f57fe5b60200260200101515b60601b6001600160601b0319166102c052600682116200065a57600062000671565b806006815181106200066857fe5b60200260200101515b60601b6001600160601b0319166102e0526007821162000693576000620006aa565b80600781518110620006a157fe5b60200260200101515b6001600160a01b0316610300816001600160a01b031660601b81525050505060008760400151519050620006ef8189606001515162000ea560201b620014c41760201c565b61034081905281516200070a90600b906020850190620011e1565b506000805b828160ff1610156200077f5760008a606001518260ff16815181106200073157fe5b6020026020010151905062000759662386f26fc1000082101561012e62000c4060201b60201c565b62000773818462000f1060201b620014d11790919060201c565b9250506001016200070f565b5062000798670de0b6b3a7640000821461013462000c40565b8860400151600081518110620007aa57fe5b60200260200101516001600160a01b0316610360816001600160a01b031660601b815250508860400151600181518110620007e157fe5b60200260200101516001600160a01b0316610380816001600160a01b031660601b81525050600282116200081757600062000832565b88604001516002815181106200082957fe5b60200260200101515b60601b6001600160601b0319166103a05260038211620008545760006200086f565b88604001516003815181106200086657fe5b60200260200101515b60601b6001600160601b0319166103c0526004821162000891576000620008ac565b8860400151600481518110620008a357fe5b60200260200101515b60601b6001600160601b0319166103e05260058211620008ce576000620008e9565b8860400151600581518110620008e057fe5b60200260200101515b60601b6001600160601b03191661040052600682116200090b57600062000926565b88604001516006815181106200091d57fe5b60200260200101515b60601b6001600160601b03191661042052600782116200094857600062000963565b88604001516007815181106200095a57fe5b60200260200101515b6001600160a01b0316610440816001600160a01b031660601b81525050620009aa89604001516000815181106200099657fe5b602002602001015162000f2d60201b60201c565b6104605260408901518051620009c7919060019081106200099657fe5b6104805260028211620009dc576000620009f2565b620009f289604001516002815181106200099657fe5b6104a0526003821162000a0757600062000a1d565b62000a1d89604001516003815181106200099657fe5b6104c0526004821162000a3257600062000a48565b62000a4889604001516004815181106200099657fe5b6104e0526005821162000a5d57600062000a73565b62000a7389604001516005815181106200099657fe5b610500526006821162000a8857600062000a9e565b62000a9e89604001516006815181106200099657fe5b610520526007821162000ab357600062000ac9565b62000ac989604001516007815181106200099657fe5b610540526060890151805160009062000ade57fe5b60200260200101516105608181525050886060015160018151811062000b0057fe5b602002602001015161058081815250506002821162000b2157600062000b3c565b886060015160028151811062000b3357fe5b60200260200101515b6105a0526003821162000b5157600062000b6c565b886060015160038151811062000b6357fe5b60200260200101515b6105c0526004821162000b8157600062000b9c565b886060015160048151811062000b9357fe5b60200260200101515b6105e0526005821162000bb157600062000bcc565b886060015160058151811062000bc357fe5b60200260200101515b610600526006821162000be157600062000bfc565b886060015160068151811062000bf357fe5b60200260200101515b610620526007821162000c1157600062000c2c565b886060015160078151811062000c2357fe5b60200260200101515b610640525062001802975050505050505050565b8162000c515762000c518162000ffc565b5050565b600890565b8062000c518162001011565b62000c7f62000c746200109d565b82101560cb62000c40565b62000c9862000c8d620010a6565b82111560ca62000c40565b62000cba8160c0603f600854620010b260201b620014e317909392919060201c565b6008556040517fa9ba3ffe0b6c366b81232caab38605a0699ad5398d6cce76f91ee809e322dafc9062000cef90839062001790565b60405180910390a150565b604051631a7c326360e01b81526000906001600160a01b03841690631a7c32639062000d2b90859060040162001790565b60206040518083038186803b15801562000d4457600080fd5b505afa15801562000d59573d6000803e3d6000fd5b505050506040513d601f19601f8201168201806040525081019062000d7f9190620014d5565b90508162000dc35762000d9d81620010d760201b620015061760201c565b600980546001600160401b0319166001600160401b039290921691909117905562000e77565b600282141562000e195762000de381620010d760201b620015061760201c565b600980546001600160401b03929092166801000000000000000002600160401b600160801b031990921691909117905562000e77565b600382141562000e6a5762000e3981620010d760201b620015061760201c565b600980546001600160401b0392909216600160801b02600160801b600160c01b031990921691909117905562000e77565b62000e776101bb62000ffc565b81600080516020620079668339815191528260405162000e98919062001790565b60405180910390a2505050565b62000c51828214606762000c40565b6000805b825181101562000f055760006001600160a01b031683828151811062000eda57fe5b60200260200101516001600160a01b03161462000efc57600091505062000f0b565b60010162000eb8565b50600190505b919050565b600082820162000f24848210158362000c40565b90505b92915050565b60006001600160a01b03821630141562000f515750670de0b6b3a764000062000f0b565b6000826001600160a01b031663313ce5676040518163ffffffff1660e01b815260040160206040518083038186803b15801562000f8d57600080fd5b505afa15801562000fa2573d6000803e3d6000fd5b505050506040513d601f19601f8201168201806040525081019062000fc89190620016bc565b60ff169050600062000fe7601283620010f560201b620015231760201c565b600a0a670de0b6b3a764000002949350505050565b6200100e816210905360ea1b6200110d565b50565b60028151101562001022576200100e565b6000816000815181106200103257fe5b602002602001015190506000600190505b8251811015620010985760008382815181106200105c57fe5b602002602001015190506200108d816001600160a01b0316846001600160a01b031610606562000c4060201b60201c565b915060010162001043565b505050565b64e8d4a5100090565b67016345785d8a000090565b6000620010c18484846200116e565b506001901b60001901811b1992909216911b1790565b6000620010f16001600160401b038311156101ba62000c40565b5090565b60006200110783831115600162000c40565b50900390565b62461bcd60e51b600090815260206004526007602452600a808404818106603090810160081b958390069590950190829004918206850160101b01602363ffffff0060e086901c160160181b0190930160c81b60445260e882901c90606490fd5b6200117f6101008310606462000c40565b620011b860018210158015620011b05750620011ac60ff8461010003620011c960201b620015391760201c565b8211155b606462000c40565b6200109883821c156101b462000c40565b6000818310620011da578162000f24565b5090919050565b828054600181600116156101000203166002900490600052602060002090601f016020900481019282601f106200122457805160ff191683800117855562001254565b8280016001018555821562001254579182015b828111156200125457825182559160200191906001019062001237565b50620010f19291505b80821115620010f157600081556001016200125d565b805162000f2781620017ec565b600082601f83011262001291578081fd5b8151620012a8620012a282620017c0565b62001799565b818152915060208083019084810181840286018201871015620012ca57600080fd5b60005b84811015620012f6578151620012e381620017ec565b84529282019290820190600101620012cd565b505050505092915050565b600082601f83011262001312578081fd5b815162001323620012a282620017c0565b8181529150602080830190848101818402860182018710156200134557600080fd5b60005b84811015620012f65781516200135e81620017ec565b8452928201929082019060010162001348565b600082601f83011262001382578081fd5b815162001393620012a282620017c0565b818152915060208083019084810181840286018201871015620013b557600080fd5b60005b84811015620012f6578151620013ce81620017ec565b84529282019290820190600101620013b8565b600082601f830112620013f2578081fd5b815162001403620012a282620017c0565b8181529150602080830190848101818402860182018710156200142557600080fd5b60005b84811015620012f65781518452928201929082019060010162001428565b600082601f83011262001457578081fd5b81516001600160401b038111156200146d578182fd5b602062001483601f8301601f1916820162001799565b925081835284818386010111156200149a57600080fd5b60005b82811015620014ba5784810182015184820183015281016200149d565b82811115620014cc5760008284860101525b50505092915050565b600060208284031215620014e7578081fd5b5051919050565b60006020828403121562001500578081fd5b815162000f2481620017ec565b600080600080600080600060e0888a03121562001528578283fd5b87516001600160401b03808211156200153f578485fd5b9089019060e0828c03121562001553578485fd5b6200155f60e062001799565b8251828111156200156e578687fd5b6200157c8d82860162001446565b82525060208301518281111562001591578687fd5b6200159f8d82860162001446565b602083015250604083015182811115620015b7578687fd5b620015c58d82860162001301565b604083015250606083015182811115620015dd578687fd5b620015eb8d828601620013e1565b60608301525060808301518281111562001603578687fd5b620016118d82860162001371565b60808301525060a08301518281111562001629578687fd5b620016378d82860162001280565b60a08301525060c083810151908201529850620016588b60208c0162001273565b9750620016698b60408c0162001273565b965060608a0151955060808a01519450620016888b60a08c0162001273565b935060c08a01519150808211156200169e578283fd5b50620016ad8a828b0162001446565b91505092959891949750929550565b600060208284031215620016ce578081fd5b815160ff8116811462000f24578182fd5b60006060820185835260206060818501528186518084526080860191508288019350845b818110156200172b57620017188551620017e0565b8352938301939183019160010162001703565b505084810360408601528551808252908201925081860190845b818110156200176d576200175a8351620017e0565b8552938301939183019160010162001745565b509298975050505050505050565b60208101600383106200178a57fe5b91905290565b90815260200190565b6040518181016001600160401b0381118282101715620017b857600080fd5b604052919050565b60006001600160401b03821115620017d6578081fd5b5060209081020190565b6001600160a01b031690565b6001600160a01b03811681146200100e57600080fd5b60805160a05160c05160e0516101005160601c6101205160601c6101405161016051610180516101a05160601c6101c05160601c6101e05160f81c610200516102205160601c6102405160601c6102605160601c6102805160601c6102a05160601c6102c05160601c6102e05160601c6103005160601c6103205160f81c610340516103605160601c6103805160601c6103a05160601c6103c05160601c6103e05160601c6104005160601c6104205160601c6104405160601c61046051610480516104a0516104c0516104e05161050051610520516105405161056051610580516105a0516105c0516105e051610600516106205161064051615ebc62001aaa60003980612270528061357e52508061222d528061351d5250806121ea52806134bc5250806121a7528061345b52508061216452806133fa52508061212152806133995250806120de52806133385250806120a452806132d7525080612b96525080612b72525080612b4e525080612b2a525080612b06525080612ae2525080612abe525080612a9a525080612563528061354352508061252152806134e25250806124df528061348152508061249d528061342052508061245b52806133bf525080612419528061335e5250806123d752806132fd525080612395528061329c5250806119c2525080613837525080610a6b5280613a98525080610a145280613a4c5250806109bd5280613a0052508061096652806139b452508061090f52806139685250806108aa528061390752508061085352806138b65250806108055280613878525080610cdf52508061074f5250806106cf52806106fa5280610725525080611293525080610b6b5250806118075250806117e3525080610fad525080610f89525080610ed75250806128825250806128c45250806128a35250615ebc6000f3fe608060405234801561001057600080fd5b50600436106103205760003560e01c80637ecebe00116101a7578063aaabadc5116100ee578063d505accf11610097578063ddf4627b11610071578063ddf4627b146105ef578063ed24911d146105f7578063f89f27ed146105ff57610320565b8063d505accf146105b6578063d5c096c4146105c9578063dd62ed3e146105dc57610320565b8063b7b814fc116100c8578063b7b814fc1461059e578063c0ff1a15146105a6578063d2946c2b146105ae57610320565b8063aaabadc514610586578063b10962781461058e578063b35056b81461059657610320565b80638d928af8116101505780639d2c110c1161012a5780639d2c110c1461054d578063a457c2d714610560578063a9059cbb1461057357610320565b80638d928af81461052a57806390193b7c1461053257806395d89b411461054557610320565b8063876f303b11610181578063876f303b146104fa57806387ec681714610502578063893d20e81461051557610320565b80637ecebe00146104cc5780638456cb59146104df578063851c1bb3146104e757610320565b806338e9922e1161026b57806354fd4d501161021457806370464016116101ee578063704640161461048557806370a082311461049857806374f3b009146104ab57610320565b806354fd4d501461045457806355c676281461045c5780636028bfd41461046457610320565b80633f4ba83a116102455780633f4ba83a1461043157806350dd6ed91461043957806354a844ba1461044c57610320565b806338e9922e1461040357806338fff2d014610416578063395093511461041e57610320565b80631dd746ea116102cd57806323ef89ed116102a757806323ef89ed146103de578063313ce567146103e65780633644e515146103fb57610320565b80631dd746ea146103a1578063238a2d59146103b657806323b872dd146103cb57610320565b806315b0015b116102fe57806315b0015b1461036d57806318160ddd146103755780631c0de0511461038a57610320565b806306fdde0314610325578063095ea7b3146103435780630da0669c14610363575b600080fd5b61032d610607565b60405161033a9190615de1565b60405180910390f35b610356610351366004615511565b61069e565b60405161033a9190615ce8565b61036b6106b5565b005b61035661074d565b61037d610771565b60405161033a9190615d0b565b610392610777565b60405161033a93929190615cf3565b6103a96107a0565b60405161033a9190615cb0565b6103be6107af565b60405161033a9190615bcc565b6103566103d9366004615461565b610abe565b61037d610b34565b6103ee610b3a565b60405161033a9190615e0d565b61037d610b43565b61036b610411366004615a2a565b610b4d565b61037d610b69565b61035661042c366004615511565b610b8d565b61036b610bc8565b61036b610447366004615769565b610bda565b61036b610bf8565b61032d610c0a565b61037d610c6b565b610477610472366004615628565b610c7e565b60405161033a929190615df4565b61037d610493366004615a2a565b610cb5565b61037d6104a636600461540d565b610d73565b6104be6104b9366004615628565b610d8e565b60405161033a929190615cc3565b61037d6104da36600461540d565b610eb6565b61036b610ec1565b61037d6104f5366004615725565b610ed3565b61037d610f25565b610477610510366004615628565b610f61565b61051d610f87565b60405161033a9190615bb8565b61051d610fab565b61037d61054036600461540d565b610fcf565b61032d610fea565b61037d61055b36600461592e565b61104b565b61035661056e366004615511565b611144565b610356610581366004615511565b611182565b61051d61118f565b61037d611199565b6103566111b1565b61036b6111c2565b61037d6111d4565b61051d611291565b61036b6105c43660046154a1565b6112b5565b6104be6105d7366004615628565b611340565b61037d6105ea366004615429565b611463565b61037d6114a0565b61037d6114a6565b6103a96114b0565b60038054604080516020601f60026000196101006001881615020190951694909404938401819004810282018101909252828152606093909290918301828280156106935780601f1061066857610100808354040283529160200191610693565b820191906000526020600020905b81548152906001019060200180831161067657829003601f168201915b505050505090505b90565b60006106ab33848461154f565b5060015b92915050565b6106bd6115b7565b6106c561074d565b156106f5576106f57f00000000000000000000000000000000000000000000000000000000000000006000611620565b6107207f00000000000000000000000000000000000000000000000000000000000000006002611620565b61074b7f00000000000000000000000000000000000000000000000000000000000000006003611620565b565b7f000000000000000000000000000000000000000000000000000000000000000090565b60025490565b60008060006107846117c4565b15925061078f6117e1565b9150610799611805565b9050909192565b60606107aa611829565b905090565b606060006107bb6119c0565b905060608167ffffffffffffffff811180156107d657600080fd5b50604051908082528060200260200182016040528015610800578160200160208202803683370190505b5090507f00000000000000000000000000000000000000000000000000000000000000008160008151811061083157fe5b60200260200101906001600160a01b031690816001600160a01b0316815250507f00000000000000000000000000000000000000000000000000000000000000008160018151811061087f57fe5b60200260200101906001600160a01b031690816001600160a01b03168152505060028211156108fb577f0000000000000000000000000000000000000000000000000000000000000000816002815181106108d657fe5b60200260200101906001600160a01b031690816001600160a01b031681525050610904565b915061069b9050565b60038211156108fb577f00000000000000000000000000000000000000000000000000000000000000008160038151811061093b57fe5b60200260200101906001600160a01b031690816001600160a01b03168152505060048211156108fb577f00000000000000000000000000000000000000000000000000000000000000008160048151811061099257fe5b60200260200101906001600160a01b031690816001600160a01b03168152505060058211156108fb577f0000000000000000000000000000000000000000000000000000000000000000816005815181106109e957fe5b60200260200101906001600160a01b031690816001600160a01b03168152505060068211156108fb577f000000000000000000000000000000000000000000000000000000000000000081600681518110610a4057fe5b60200260200101906001600160a01b031690816001600160a01b03168152505060078211156108fb577f000000000000000000000000000000000000000000000000000000000000000081600781518110610a9757fe5b60200260200101906001600160a01b031690816001600160a01b0316815250505b91505090565b600080610acb8533611463565b9050610aef336001600160a01b0387161480610ae75750838210155b61019e6119e4565b610afa8585856119f2565b336001600160a01b03861614801590610b1557506000198114155b15610b2757610b27853385840361154f565b60019150505b9392505050565b600a5490565b60055460ff1690565b60006107aa6114a6565b610b55611ad2565b610b5d611b00565b610b6681611b13565b50565b7f000000000000000000000000000000000000000000000000000000000000000090565b3360008181526001602090815260408083206001600160a01b038716845290915281205490916106ab918590610bc390866114d1565b61154f565b610bd0611ad2565b61074b6000611b8c565b610be2611ad2565b610bea611b00565b610bf48282611bff565b5050565b610c00611ad2565b61074b6001611cf4565b600b8054604080516020601f60026000196101006001881615020190951694909404938401819004810282018101909252828152606093909290918301828280156106935780601f1061066857610100808354040283529160200191610693565b6008546000906107aa9060c0603f611d4b565b60006060610c948651610c8f6119c0565b6114c4565b610ca989898989898989611d5a611dbc611e2b565b97509795505050505050565b6000610cbf6111b1565b15610ccc57506000610d6e565b81610d1857610cd961074d565b610d03577f0000000000000000000000000000000000000000000000000000000000000000610d11565b60095467ffffffffffffffff165b9050610d6e565b6002821415610d40575060095468010000000000000000900467ffffffffffffffff16610d6e565b6003821415610d635750600954600160801b900467ffffffffffffffff16610d6e565b610d6e6101bb611f55565b919050565b6001600160a01b031660009081526020819052604090205490565b60608088610db8610d9d610fab565b6001600160a01b0316336001600160a01b03161460cd6119e4565b610dcd610dc3610b69565b82146101f46119e4565b60606000610dda86611f65565b15610e0257610de7611f94565b610df989610df3610771565b88611fa7565b92509050610e54565b610e0a611fd3565b6060610e14611829565b9050610e208a82611fdb565b610e448d8d8d8d8d610e306111b1565b610e3a578d610e3d565b60005b878e611d5a565b93509150610e528382611dbc565b505b610e5e8b82612044565b81895167ffffffffffffffff81118015610e7757600080fd5b50604051908082528060200260200182016040528015610ea1578160200160208202803683370190505b509450945050505b5097509795505050505050565b60006106af82610fcf565b610ec9611ad2565b61074b6001611b8c565b60007f000000000000000000000000000000000000000000000000000000000000000082604051602001610f08929190615b75565b604051602081830303815290604052805190602001209050919050565b600080610f30610771565b90506000610f4d610f3f6111d4565b610f4761204e565b8461229c565b509050610f5a82826114d1565b9250505090565b60006060610f728651610c8f6119c0565b610ca9898989898989896122df612328611e2b565b7f000000000000000000000000000000000000000000000000000000000000000090565b7f000000000000000000000000000000000000000000000000000000000000000090565b6001600160a01b031660009081526006602052604090205490565b60048054604080516020601f60026000196101006001881615020190951694909404938401819004810282018101909252828152606093909290918301828280156106935780601f1061066857610100808354040283529160200191610693565b6000836080015161105d610d9d610fab565b611068610dc3610b69565b611070611fd3565b600061107f8660200151612391565b905060006110908760400151612391565b905061109c86836125ae565b95506110a885826125ae565b94506000875160018111156110b957fe5b1415611105576110cc87606001516125ba565b606088018190526110dd90836125ae565b606088015260006110ef8888886125db565b90506110fb818361260e565b945050505061113c565b6111138760600151826125ae565b6060880152600061112588888861261a565b90506111318184612645565b90506110fb81612651565b509392505050565b6000806111513385611463565b905080831061116b576111663385600061154f565b611178565b611178338585840361154f565b5060019392505050565b60006106ab3384846119f2565b60006107aa61266d565b60006107aa600060c06111aa6126e7565b9190611d4b565b6008546000906107aa9060ff6126ed565b6111ca611ad2565b61074b6000611cf4565b600060606111e0610fab565b6001600160a01b031663f94d46686111f6610b69565b6040518263ffffffff1660e01b81526004016112129190615d0b565b60006040518083038186803b15801561122a57600080fd5b505afa15801561123e573d6000803e3d6000fd5b505050506040513d6000823e601f3d908101601f19168201604052611266919081019061553c565b5091505061127b81611276611829565b611fdb565b606061128561204e565b9050610f5a81836126f7565b7f000000000000000000000000000000000000000000000000000000000000000090565b60007f6e71edae12b1b97f4d1f60370fef10105fa2faae0126114a169c64845d6126c98888886112e48c610fcf565b896040516020016112fa96959493929190615d33565b60405160208183030381529060405280519060200120905061132b8882611322878787612769565b886101f86127a8565b61133688888861154f565b5050505050505050565b6060808861134f610d9d610fab565b61135a610dc3610b69565b611362611fd3565b606061136c611829565b9050611376610771565b611423576000606061138b8d8d8d868b6127ff565b915091506113a461139a612842565b83101560cc6119e4565b6113b660006113b1612842565b612849565b6113c98b6113c2612842565b8403612849565b6113d38184612328565b808a5167ffffffffffffffff811180156113ec57600080fd5b50604051908082528060200260200182016040528015611416578160200160208202803683370190505b5095509550505050610ea9565b61142d8882611fdb565b600060606114558d8d8d8d8d6114416111b1565b61144b578d61144e565b60005b898e6122df565b915091506113c98b83612849565b600061146d610fab565b6001600160a01b0316826001600160a01b0316141561148f57506000196106af565b6114998383612853565b90506106af565b60001981565b60006107aa61287e565b60606107aa61204e565b80610bf48161291b565b610bf481831460676119e4565b6000828201610b2d84821015836119e4565b60006114f0848484612994565b506001901b60001901811b1992909216911b1790565b600061151f67ffffffffffffffff8311156101ba6119e4565b5090565b60006115338383111560016119e4565b50900390565b60008183106115485781610b2d565b5090919050565b6001600160a01b0380841660008181526001602090815260408083209487168084529490915290819020849055517f8c5be1e5ebec7d5bd14f71427d1e84f3dd0314c0f7b2291e5b200ac8c7c3b925906115aa908590615d0b565b60405180910390a3505050565b6115bf6129db565b6115c7611b00565b60006115d16111d4565b90506000806115ef836115e261204e565b6115ea610771565b61229c565b909250905081156116035761160382612a79565b61160c83612a8a565b801561161b5761161b81612a93565b505050565b604051631a7c326360e01b81526000906001600160a01b03841690631a7c32639061164f908590600401615d0b565b60206040518083038186803b15801561166757600080fd5b505afa15801561167b573d6000803e3d6000fd5b505050506040513d601f19601f8201168201806040525081019061169f9190615a42565b9050816116d6576116af81611506565b6009805467ffffffffffffffff191667ffffffffffffffff92909216919091179055611787565b6002821415611724576116e881611506565b6009805467ffffffffffffffff9290921668010000000000000000026fffffffffffffffff000000000000000019909216919091179055611787565b600382141561177c5761173681611506565b6009805467ffffffffffffffff92909216600160801b027fffffffffffffffff0000000000000000ffffffffffffffffffffffffffffffff909216919091179055611787565b6117876101bb611f55565b817f6bfb689528fa96ec1ad670ad6d6064be1ae96bfd5d2ee35c837fd0fe0c11959a826040516117b79190615d0b565b60405180910390a2505050565b60006117ce611805565b4211806107aa57505060075460ff161590565b7f000000000000000000000000000000000000000000000000000000000000000090565b7f000000000000000000000000000000000000000000000000000000000000000090565b606060006118356119c0565b905060608167ffffffffffffffff8111801561185057600080fd5b5060405190808252806020026020018201604052801561187a578160200160208202803683370190505b509050611885612a98565b8160008151811061189257fe5b6020026020010181815250506118a6612abc565b816001815181106118b357fe5b60200260200101818152505060028211156108fb576118d0612ae0565b816002815181106118dd57fe5b60200260200101818152505060038211156108fb576118fa612b04565b8160038151811061190757fe5b60200260200101818152505060048211156108fb57611924612b28565b8160048151811061193157fe5b60200260200101818152505060058211156108fb5761194e612b4c565b8160058151811061195b57fe5b60200260200101818152505060068211156108fb57611978612b70565b8160068151811061198557fe5b60200260200101818152505060078211156108fb576119a2612b94565b816007815181106119af57fe5b602002602001018181525050610ab8565b7f000000000000000000000000000000000000000000000000000000000000000090565b81610bf457610bf481611f55565b611a096001600160a01b03841615156101986119e4565b611a206001600160a01b03831615156101996119e4565b611a2b83838361161b565b6001600160a01b038316600090815260208190526040902054611a5190826101a0612bb8565b6001600160a01b038085166000908152602081905260408082209390935590841681522054611a8090826114d1565b6001600160a01b0380841660008181526020819052604090819020939093559151908516907fddf252ad1be2c89b69c2b068fc378daa952ba7f163c4a11628f55a4df523b3ef906115aa908590615d0b565b6000611ae96000356001600160e01b031916610ed3565b9050610b66611af88233612bce565b6101916119e4565b61074b611b0b6117c4565b6101926119e4565b611b28611b1e612cb7565b82101560cb6119e4565b611b3d611b33612cc0565b82111560ca6119e4565b600854611b4e908260c0603f6114e3565b6008556040517fa9ba3ffe0b6c366b81232caab38605a0699ad5398d6cce76f91ee809e322dafc90611b81908390615d0b565b60405180910390a150565b8015611bac57611ba7611b9d6117e1565b42106101936119e4565b611bc1565b611bc1611bb7611805565b42106101a96119e4565b6007805460ff19168215151790556040517f9e3a5e37224532dea67b89face185703738a228a6e8a23dee546960180d3be6490611b81908390615ce8565b6000611c09610b69565b90506000611c15610fab565b6001600160a01b031663b05f8e4883866040518363ffffffff1660e01b8152600401611c42929190615dac565b60806040518083038186803b158015611c5a57600080fd5b505afa158015611c6e573d6000803e3d6000fd5b505050506040513d601f19601f82011682018060405250810190611c929190615a5a565b604051630639cdb560e21b81529094506001600160a01b03851693506318e736d49250611cc6915085908790600401615d93565b600060405180830381600087803b158015611ce057600080fd5b505af1158015611336573d6000803e3d6000fd5b600854611d03908260ff612ccc565b6008556040517feff3d4d215b42bf0960be9c6d5e05c22cba4df6627a3a523e2acee733b5854c890611d36908390615ce8565b60405180910390a180610b6657610b66612cf3565b6001901b6000190191901c1690565b6000606080611d6761204e565b9050600080611d768a84612d43565b9150915060006060611d8c8e8d878c888d612da9565b9092509050611da8838d838888611da38189611523565b612e3c565b909e909d509b505050505050505050505050565b81518151611dcb9082906114c4565b60005b81811015611e2557611e06848281518110611de557fe5b6020026020010151848381518110611df957fe5b6020026020010151612e66565b848281518110611e1257fe5b6020908102919091010152600101611dce565b50505050565b333014611ee9576000306001600160a01b0316600036604051611e4f929190615b8d565b6000604051808303816000865af19150503d8060008114611e8c576040519150601f19603f3d011682016040523d82523d6000602084013e611e91565b606091505b505090508060008114611ea057fe5b60046000803e6000516001600160e01b0319166343adbafb60e01b8114611ecb573d6000803e3d6000fd5b506020600460003e604060205260243d03602460403e601c3d016000f35b611ef1611fd3565b6060611efb611829565b9050611f078782611fdb565b60006060611f1f8c8c8c8c8c8c898d8d63ffffffff16565b91509150611f3181848663ffffffff16565b8051601f1982018390526343adbafb603f1983015260200260231982016044820181fd5b610b66816210905360ea1b612eb7565b60008082511180156106af575060ff801682806020019051810190611f8a9190615a9a565b60ff161492915050565b61074b611f9f6111b1565b6101b66119e4565b600060606000611fb684612f18565b90506060611fc5878784612f2e565b919791965090945050505050565b61074b611b00565b81518151611fea9082906114c4565b60005b81811015611e255761202584828151811061200457fe5b602002602001015184838151811061201857fe5b6020026020010151612fdd565b84828151811061203157fe5b6020908102919091010152600101611fed565b610bf48282613013565b6060600061205a6119c0565b905060608167ffffffffffffffff8111801561207557600080fd5b5060405190808252806020026020018201604052801561209f578160200160208202803683370190505b5090507f0000000000000000000000000000000000000000000000000000000000000000816000815181106120d057fe5b6020026020010181815250507f00000000000000000000000000000000000000000000000000000000000000008160018151811061210a57fe5b60200260200101818152505060028211156108fb577f00000000000000000000000000000000000000000000000000000000000000008160028151811061214d57fe5b60200260200101818152505060038211156108fb577f00000000000000000000000000000000000000000000000000000000000000008160038151811061219057fe5b60200260200101818152505060048211156108fb577f0000000000000000000000000000000000000000000000000000000000000000816004815181106121d357fe5b60200260200101818152505060058211156108fb577f00000000000000000000000000000000000000000000000000000000000000008160058151811061221657fe5b60200260200101818152505060068211156108fb577f00000000000000000000000000000000000000000000000000000000000000008160068151811061225957fe5b60200260200101818152505060078211156108fb577f0000000000000000000000000000000000000000000000000000000000000000816007815181106119af57fe5b60008060006122b4866122af6000610cb5565b6130df565b90506000806122c287613105565b915091506122d286838501613175565b9890975095505050505050565b60006060806122ec61204e565b90506000806122fb8a84612d43565b91509150600060606123118e8d878c888d613192565b9092509050611da8838d838888611da381896114d1565b815181516123379082906114c4565b60005b81811015611e255761237284828151811061235157fe5b602002602001015184838151811061236557fe5b602002602001015161320e565b84828151811061237e57fe5b602090810291909101015260010161233a565b60007f00000000000000000000000000000000000000000000000000000000000000006001600160a01b0316826001600160a01b031614156123d557610d11612a98565b7f00000000000000000000000000000000000000000000000000000000000000006001600160a01b0316826001600160a01b0316141561241757610d11612abc565b7f00000000000000000000000000000000000000000000000000000000000000006001600160a01b0316826001600160a01b0316141561245957610d11612ae0565b7f00000000000000000000000000000000000000000000000000000000000000006001600160a01b0316826001600160a01b0316141561249b57610d11612b04565b7f00000000000000000000000000000000000000000000000000000000000000006001600160a01b0316826001600160a01b031614156124dd57610d11612b28565b7f00000000000000000000000000000000000000000000000000000000000000006001600160a01b0316826001600160a01b0316141561251f57610d11612b4c565b7f00000000000000000000000000000000000000000000000000000000000000006001600160a01b0316826001600160a01b0316141561256157610d11612b70565b7f00000000000000000000000000000000000000000000000000000000000000006001600160a01b0316826001600160a01b031614156125a357610d11612b94565b610d6e610135611f55565b6000610b2d8383612fdd565b6000806125cf6125c8610c6b565b849061325c565b9050610b2d8382611523565b6000612606836125ee8660200151613298565b846125fc8860400151613298565b88606001516135a2565b949350505050565b6000610b2d8383612e66565b60006126068361262d8660200151613298565b8461263b8860400151613298565b886060015161361d565b6000610b2d838361320e565b60006106af612666612661610c6b565b613693565b839061320e565b6000612677610fab565b6001600160a01b031663aaabadc56040518163ffffffff1660e01b815260040160206040518083038186803b1580156126af57600080fd5b505afa1580156126c3573d6000803e3d6000fd5b505050506040513d601f19601f820116820180604052508101906107aa919061574d565b60085490565b1c60019081161490565b670de0b6b3a764000060005b83518110156127595761274f61274885838151811061271e57fe5b602002602001015185848151811061273257fe5b60200260200101516136b990919063ffffffff16565b8390612fdd565b9150600101612703565b506106af600082116101376119e4565b60408051604180825260808201909252606091829190602082018180368337019050509050836020820152826040820152846060820153949350505050565b60006127b38561376a565b90506127c96127c3878387613786565b836119e4565b6127d8428410156101b86119e4565b5050506001600160a01b039092166000908152600660205260409020805460010190555050565b6000606061280b613835565b6128275761282761282261281d61204e565b613859565b612a93565b6128348787878787613abc565b915091509550959350505050565b620f424090565b610bf48282613b4c565b6001600160a01b03918216600090815260016020908152604080832093909416825291909152205490565b60007f00000000000000000000000000000000000000000000000000000000000000007f00000000000000000000000000000000000000000000000000000000000000007f00000000000000000000000000000000000000000000000000000000000000006128eb613bdf565b30604051602001612900959493929190615d67565b60405160208183030381529060405280519060200120905090565b60028151101561292a57610b66565b60008160008151811061293957fe5b602002602001015190506000600190505b825181101561161b57600083828151811061296157fe5b6020026020010151905061298a816001600160a01b0316846001600160a01b03161060656119e4565b915060010161294a565b6129a3610100831060646119e4565b6129cc600182101580156129c557506129c160ff8461010003611539565b8211155b60646119e4565b61161b83821c156101b46119e4565b60408051600080825260208201909252606091612a0e565b6129fb6152ce565b8152602001906001900390816129f35790505b509050612a19610fab565b6001600160a01b0316630e8e3e84826040518263ffffffff1660e01b8152600401612a449190615c19565b600060405180830381600087803b158015612a5e57600080fd5b505af1158015612a72573d6000803e3d6000fd5b5050505050565b610b66612a84611291565b82612849565b610b6681613be3565b600a55565b7f000000000000000000000000000000000000000000000000000000000000000090565b7f000000000000000000000000000000000000000000000000000000000000000090565b7f000000000000000000000000000000000000000000000000000000000000000090565b7f000000000000000000000000000000000000000000000000000000000000000090565b7f000000000000000000000000000000000000000000000000000000000000000090565b7f000000000000000000000000000000000000000000000000000000000000000090565b7f000000000000000000000000000000000000000000000000000000000000000090565b7f000000000000000000000000000000000000000000000000000000000000000090565b6000612bc784841115836119e4565b5050900390565b600073ba1ba1ba1ba1ba1ba1ba1ba1ba1ba1ba1ba1ba1b612bed610f87565b6001600160a01b031614158015612c085750612c0883613c03565b15612c3057612c15610f87565b6001600160a01b0316336001600160a01b03161490506106af565b612c3861266d565b6001600160a01b0316639be2a8848484306040518463ffffffff1660e01b8152600401612c6793929190615d14565b60206040518083038186803b158015612c7f57600080fd5b505afa158015612c93573d6000803e3d6000fd5b505050506040513d601f19601f820116820180604052508101906114999190615608565b64e8d4a5100090565b67016345785d8a000090565b60006001821b1984168284612ce2576000612ce5565b60015b60ff16901b17949350505050565b612cfb6129db565b612d0b612d066111d4565b612a8a565b612d13613835565b61074b576000612d21610b34565b90506000612d3061281d61204e565b905081811115610bf457610bf481612a93565b6000806000612d50610771565b90506000612d5e85876126f7565b9050600080612d6e83888661229c565b90925090508015612d8257612d8281612a93565b8115612d9157612d9182612a79565b612d9b84836114d1565b989297509195505050505050565b600060606000612db884613c35565b90506000816003811115612dc857fe5b1415612de457612dda88888787613c4b565b9250925050612e31565b6001816003811115612df257fe5b1415612e0357612dda888686613d1a565b6002816003811115612e1157fe5b1415612e2457612dda8888888888613d38565b612e2f610150611f55565b505b965096945050505050565b6000612e4c878787878787613d97565b90508015612e5d57612e5d81612a79565b50505050505050565b6000612e7582151560046119e4565b82612e82575060006106af565b670de0b6b3a764000083810290612ea590858381612e9c57fe5b041460056119e4565b828181612eae57fe5b049150506106af565b62461bcd60e51b600090815260206004526007602452600a808404818106603090810160081b958390069590950190829004918206850160101b01602363ffffff0060e086901c160160181b0190930160c81b60445260e882901c90606490fd5b600081806020019051810190610b2d9190615ab6565b60606000612f3c8385612e66565b9050845167ffffffffffffffff81118015612f5657600080fd5b50604051908082528060200260200182016040528015612f80578160200160208202803683370190505b50915060005b8551811015612fd457612fb582878381518110612f9f57fe5b6020026020010151612fdd90919063ffffffff16565b838281518110612fc157fe5b6020908102919091010152600101612f86565b50509392505050565b6000828202613001841580612ffa575083858381612ff757fe5b04145b60036119e4565b670de0b6b3a764000090049392505050565b61302a6001600160a01b038316151561019b6119e4565b6130368260008361161b565b6001600160a01b03821660009081526020819052604090205461305c90826101b2612bb8565b6001600160a01b03831660009081526020819052604090205561308f61308a82613084610771565b90613e90565b613e9e565b60006001600160a01b0316826001600160a01b03167fddf252ad1be2c89b69c2b068fc378daa952ba7f163c4a11628f55a4df523b3ef836040516130d39190615d0b565b60405180910390a35050565b6000610b2d6130f66130ef611199565b8590612e66565b670de0b6b3a764000084613ea3565b600080613110613835565b1561312057506000905080613170565b600a54600061312e85613859565b905081811161314557600080935093505050613170565b61316a6131528284612e66565b670de0b6b3a76400006131656002610cb5565b613ea3565b93509150505b915091565b6000610b2d6131848484613eea565b61318d84613693565b613f04565b6000606060006131a184613f24565b905060018160048111156131b157fe5b14156131c457612dda8888888888613f3a565b60028160048111156131d257fe5b14156131e457612dda88888787613f8a565b60038160048111156131f257fe5b141561320357612dda888686613fe8565b612e2f610136611f55565b600061321d82151560046119e4565b8261322a575060006106af565b670de0b6b3a76400008381029061324490858381612e9c57fe5b82600182038161325057fe5b046001019150506106af565b6000828202613276841580612ffa575083858381612ff757fe5b806132855760009150506106af565b670de0b6b3a76400006000198201613250565b60007f00000000000000000000000000000000000000000000000000000000000000006001600160a01b0316826001600160a01b031614156132fb57507f0000000000000000000000000000000000000000000000000000000000000000610d6e565b7f00000000000000000000000000000000000000000000000000000000000000006001600160a01b0316826001600160a01b0316141561335c57507f0000000000000000000000000000000000000000000000000000000000000000610d6e565b7f00000000000000000000000000000000000000000000000000000000000000006001600160a01b0316826001600160a01b031614156133bd57507f0000000000000000000000000000000000000000000000000000000000000000610d6e565b7f00000000000000000000000000000000000000000000000000000000000000006001600160a01b0316826001600160a01b0316141561341e57507f0000000000000000000000000000000000000000000000000000000000000000610d6e565b7f00000000000000000000000000000000000000000000000000000000000000006001600160a01b0316826001600160a01b0316141561347f57507f0000000000000000000000000000000000000000000000000000000000000000610d6e565b7f00000000000000000000000000000000000000000000000000000000000000006001600160a01b0316826001600160a01b031614156134e057507f0000000000000000000000000000000000000000000000000000000000000000610d6e565b7f00000000000000000000000000000000000000000000000000000000000000006001600160a01b0316826001600160a01b0316141561354157507f0000000000000000000000000000000000000000000000000000000000000000610d6e565b7f00000000000000000000000000000000000000000000000000000000000000006001600160a01b0316826001600160a01b031614156125a357507f0000000000000000000000000000000000000000000000000000000000000000610d6e565b60006135c46135b987670429d069189e0000612fdd565b8311156101306119e4565b60006135d087846114d1565b905060006135de888361320e565b905060006135ec8887612e66565b905060006135fa8383614006565b905061360f61360882613693565b8990612fdd565b9a9950505050505050505050565b600061363f61363485670429d069189e0000612fdd565b8311156101316119e4565b600061365561364e8685611523565b869061320e565b90506000613663858861320e565b905060006136718383614006565b9050600061368782670de0b6b3a7640000611523565b905061360f8a8261325c565b6000670de0b6b3a764000082106136ab5760006106af565b50670de0b6b3a76400000390565b6000670de0b6b3a76400008214156136d25750816106af565b671bc16d674ec800008214156136ec576114998384612fdd565b673782dace9d90000082141561371c5760006137088485612fdd565b90506137148182612fdd565b9150506106af565b6000613728848461408c565b9050600061374261373b8361271061325c565b60016114d1565b905080821015613757576000925050506106af565b6137618282611523565b925050506106af565b600061377461287e565b82604051602001610f08929190615b9d565b600061379882516041146101b96119e4565b60208281015160408085015160608601518251600080825295019283905292939092811a916001906137d1908990859088908890615dc3565b6020604051602081039080840390855afa1580156137f3573d6000803e3d6000fd5b5050604051601f1901519150506001600160a01b038116158015906138295750876001600160a01b0316816001600160a01b0316145b98975050505050505050565b7f000000000000000000000000000000000000000000000000000000000000000090565b8051600090816138df61389c85838561386e57fe5b60200260200101517f000000000000000000000000000000000000000000000000000000000000000061418c565b6138da866001815181106138ac57fe5b60200260200101517f000000000000000000000000000000000000000000000000000000000000000061418c565b612fdd565b905060028211156139395761393261392b856002815181106138fd57fe5b60200260200101517f000000000000000000000000000000000000000000000000000000000000000061418c565b8290612fdd565b9050613942565b9150610d6e9050565b60038211156139395761398c61392b8560038151811061395e57fe5b60200260200101517f000000000000000000000000000000000000000000000000000000000000000061418c565b90506004821115613939576139d861392b856004815181106139aa57fe5b60200260200101517f000000000000000000000000000000000000000000000000000000000000000061418c565b9050600582111561393957613a2461392b856005815181106139f657fe5b60200260200101517f000000000000000000000000000000000000000000000000000000000000000061418c565b9050600682111561393957613a7061392b85600681518110613a4257fe5b60200260200101517f000000000000000000000000000000000000000000000000000000000000000061418c565b90506007821115610b2d5761260661392b85600781518110613a8e57fe5b60200260200101517f000000000000000000000000000000000000000000000000000000000000000061418c565b600060606000613acb84613f24565b9050613ae66000826004811115613ade57fe5b1460ce6119e4565b6060613af18561422d565b9050613aff815187516114c4565b613b098187611fdb565b6060613b1361204e565b90506000613b2182846126f7565b90506000613b30828551613eea565b9050613b3b82612a8a565b9b929a509198505050505050505050565b613b586000838361161b565b613b6d61308a82613b67610771565b906114d1565b6001600160a01b038216600090815260208190526040902054613b9090826114d1565b6001600160a01b0383166000818152602081905260408082209390935591519091907fddf252ad1be2c89b69c2b068fc378daa952ba7f163c4a11628f55a4df523b3ef906130d3908590615d0b565b4690565b610b66613bfe82600060c0613bf66126e7565b9291906114e3565b614243565b6000613c15631c74c91760e11b610ed3565b8214806106af5750613c2d6350dd6ed960e01b610ed3565b909114919050565b6000818060200190518101906106af91906157b7565b60006060600080613c5b85614258565b91509150613c6d8851821060646119e4565b6000613ca9898381518110613c7e57fe5b6020026020010151898481518110613c9257fe5b6020026020010151858a613ca4610c6b565b61427a565b90506060895167ffffffffffffffff81118015613cc557600080fd5b50604051908082528060200260200182016040528015613cef578160200160208202803683370190505b50905081818481518110613cff57fe5b60209081029190910101529299929850919650505050505050565b600060606000613d2984614330565b90506060611fc5878388614346565b60006060806000613d48856143e2565b91509150613d5882518a516114c4565b613d628288611fdb565b6000613d788a8a858a613d73610c6b565b6143fa565b9050613d888282111560cf6119e4565b99919850909650505050505050565b600082821015815b8751811015613e315781613de257613ddd888281518110613dbc57fe5b6020026020010151888381518110613dd057fe5b6020026020010151613e90565b613e12565b613e12888281518110613df157fe5b6020026020010151888381518110613e0557fe5b60200260200101516114d1565b888281518110613e1e57fe5b6020908102919091010152600101613d9f565b506000613e3e86896126f7565b90506000613e4c6000610cb5565b9050613e5782612a8a565b80613e685760009350505050613e86565b6000613e7f613e77848d612e66565b888885614538565b9450505050505b9695505050505050565b6000610b2d83836001612bb8565b600255565b60008383101580613eb2575081155b15613ebf57506000610b2d565b6000613ecb8486612e66565b670de0b6b3a7640000039050613ee18184612fdd565b95945050505050565b6000828202610b2d841580612ffa575083858381612ff757fe5b6000613f1382151560046119e4565b818381613f1c57fe5b049392505050565b6000818060200190518101906106af9190615878565b60006060806000613f4a8561455b565b91509150613f5a895183516114c4565b613f648288611fdb565b6000613f7a8a8a858a613f75610c6b565b614573565b9050613d888282101560d06119e4565b60006060600080613f9a856146ae565b91509150613fac8851821060646119e4565b6000613ca9898381518110613fbd57fe5b6020026020010151898481518110613fd157fe5b6020026020010151858a613fe3610c6b565b6146c5565b600060606000613ff78461475b565b90506060611fc5878388614771565b6000670de0b6b3a764000082141561401f5750816106af565b671bc16d674ec8000082141561403957611499838461325c565b673782dace9d900000821415614061576000614055848561325c565b9050613714818261325c565b600061406d848461408c565b9050600061408061373b8361271061325c565b905061376182826114d1565b6000816140a25750670de0b6b3a76400006106af565b826140af575060006106af565b6140bf60ff84901c1560066119e4565b826140e5770bce5086492111aea88f4bb1ca6bcf584181ea8059f76532841060076119e4565b826000670c7d713b49da0000831380156141065750670f43fc2c04ee000083125b1561413d57600061411684614803565b9050670de0b6b3a764000080820784020583670de0b6b3a76400008305020191505061414b565b816141478461492a565b0290505b670de0b6b3a76400009005614183680238fd42c5cf03ffff19821280159061417c575068070c1cc73b00c800008213155b60086119e4565b613e8681614cca565b60006001600160a01b0382161561421d5761421883836001600160a01b031663679aefce6040518163ffffffff1660e01b815260040160206040518083038186803b1580156141da57600080fd5b505afa1580156141ee573d6000803e3d6000fd5b505050506040513d601f19601f820116820180604052508101906142129190615a42565b906136b9565b610b2d565b50670de0b6b3a764000092915050565b606081806020019051810190610b2d9190615893565b600854614252908260006150a8565b60085550565b6000808280602001905181019061426f9190615843565b909590945092505050565b6000806142918461428b8188611523565b9061320e565b90506142aa6709b6e64a8ec600008210156101326119e4565b60006142c86142c1670de0b6b3a764000089612e66565b8390614006565b905060006142df6142d883613693565b8a90612fdd565b905060006142f66142ef8a613693565b839061325c565b905060006143048383611523565b905060006143146125c889613693565b905061432082826114d1565b9c9b505050505050505050505050565b600081806020019051810190610b2d9190615817565b606060006143548484612e66565b90506060855167ffffffffffffffff8111801561437057600080fd5b5060405190808252806020026020018201604052801561439a578160200160208202803683370190505b50905060005b86518110156143d8576143b983888381518110612f9f57fe5b8282815181106143c557fe5b60209081029190910101526001016143a0565b5095945050505050565b606060008280602001905181019061426f91906157d2565b60006060845167ffffffffffffffff8111801561441657600080fd5b50604051908082528060200260200182016040528015614440578160200160208202803683370190505b5090506000805b8851811015614505576144a089828151811061445f57fe5b602002602001015161428b89848151811061447657fe5b60200260200101518c858151811061448a57fe5b602002602001015161152390919063ffffffff16565b8382815181106144ac57fe5b6020026020010181815250506144fb6144f48983815181106144ca57fe5b60200260200101518584815181106144de57fe5b602002602001015161325c90919063ffffffff16565b83906114d1565b9150600101614447565b50600061451689898986868a6150d4565b905061452b61452482613693565b879061325c565b9998505050505050505050565b60008061454f866145498688612e66565b85613ea3565b9050613e868482613175565b606060008280602001905181019061426f91906158d6565b60006060845167ffffffffffffffff8111801561458f57600080fd5b506040519080825280602002602001820160405280156145b9578160200160208202803683370190505b5090506000805b88518110156146675761461f8982815181106145d857fe5b60200260200101516146198984815181106145ef57fe5b60200260200101518c858151811061460357fe5b60200260200101516114d190919063ffffffff16565b90612e66565b83828151811061462b57fe5b60200260200101818152505061465d6144f489838151811061464957fe5b6020026020010151858481518110612f9f57fe5b91506001016145c0565b50600061467889898986868a6151e3565b90506000670de0b6b3a7640000821161469257600061360f565b61360f6146a783670de0b6b3a7640000611523565b8890612fdd565b6000808280602001905181019061426f9190615910565b6000806146d68461428b81886114d1565b90506146ef6729a2241af62c00008211156101336119e4565b60006147066142c1670de0b6b3a76400008961320e565b9050600061472661471f83670de0b6b3a7640000611523565b8a9061325c565b905060006147366142ef8a613693565b905060006147448383611523565b9050600061431461475489613693565b849061320e565b600081806020019051810190610b2d91906158f4565b6060600061477f848461320e565b90506060855167ffffffffffffffff8111801561479b57600080fd5b506040519080825280602002602001820160405280156147c5578160200160208202803683370190505b50905060005b86518110156143d8576147e4838883815181106144de57fe5b8282815181106147f057fe5b60209081029190910101526001016147cb565b670de0b6b3a7640000026000806ec097ce7bc90715b34b9f1000000000808401906ec097ce7bc90715b34b9f0fffffffff198501028161483f57fe5b05905060006ec097ce7bc90715b34b9f100000000082800205905081806ec097ce7bc90715b34b9f100000000081840205915060038205016ec097ce7bc90715b34b9f100000000082840205915060058205016ec097ce7bc90715b34b9f100000000082840205915060078205016ec097ce7bc90715b34b9f100000000082840205915060098205016ec097ce7bc90715b34b9f1000000000828402059150600b8205016ec097ce7bc90715b34b9f1000000000828402059150600d8205016ec097ce7bc90715b34b9f1000000000828402059150600f826002919005919091010295945050505050565b6000670de0b6b3a76400008212156149675761495d826ec097ce7bc90715b34b9f10000000008161495757fe5b0561492a565b6000039050610d6e565b60007e1600ef3172e58d2e933ec884fde10064c63b5372d805e203c000000000000083126149b857770195e54c5dd42177f53a27172fa9ec630262827000000000830592506806f05b59d3b2000000015b73011798004d755d3c8bc8e03204cf44619e00000083126149f0576b1425982cf597cd205cef7380830592506803782dace9d9000000015b606492830292026e01855144814a7ff805980ff00840008312614a38576e01855144814a7ff805980ff008400068056bc75e2d63100000840205925068ad78ebc5ac62000000015b6b02df0ab5a80a22c61ab5a7008312614a73576b02df0ab5a80a22c61ab5a70068056bc75e2d6310000084020592506856bc75e2d631000000015b693f1fce3da636ea5cf8508312614aaa57693f1fce3da636ea5cf85068056bc75e2d631000008402059250682b5e3af16b18800000015b690127fa27722cc06cc5e28312614ae157690127fa27722cc06cc5e268056bc75e2d6310000084020592506815af1d78b58c400000015b68280e60114edb805d038312614b165768280e60114edb805d0368056bc75e2d631000008402059250680ad78ebc5ac6200000015b680ebc5fb417461211108312614b4157680ebc5fb4174612111068056bc75e2d631000009384020592015b6808f00f760a4b2db55d8312614b76576808f00f760a4b2db55d68056bc75e2d6310000084020592506802b5e3af16b1880000015b6806f5f17757889379378312614bab576806f5f177578893793768056bc75e2d63100000840205925068015af1d78b58c40000015b6806248f33704b2866038312614bdf576806248f33704b28660368056bc75e2d63100000840205925067ad78ebc5ac620000015b6805c548670b9510e7ac8312614c13576805c548670b9510e7ac68056bc75e2d6310000084020592506756bc75e2d6310000015b600068056bc75e2d63100000840168056bc75e2d631000008086030281614c3657fe5b059050600068056bc75e2d63100000828002059050818068056bc75e2d63100000818402059150600382050168056bc75e2d63100000828402059150600582050168056bc75e2d63100000828402059150600782050168056bc75e2d63100000828402059150600982050168056bc75e2d63100000828402059150600b820501600202606485820105979650505050505050565b6000614cf9680238fd42c5cf03ffff198312158015614cf2575068070c1cc73b00c800008313155b60096119e4565b6000821215614d2d57614d0e82600003614cca565b6ec097ce7bc90715b34b9f100000000081614d2557fe5b059050610d6e565b60006806f05b59d3b20000008312614d6d57506806f05b59d3b1ffffff1990910190770195e54c5dd42177f53a27172fa9ec630262827000000000614da3565b6803782dace9d90000008312614d9f57506803782dace9d8ffffff19909101906b1425982cf597cd205cef7380614da3565b5060015b6064929092029168056bc75e2d6310000068ad78ebc5ac620000008412614df35768ad78ebc5ac61ffffff199093019268056bc75e2d631000006e01855144814a7ff805980ff008400082020590505b6856bc75e2d6310000008412614e2f576856bc75e2d630ffffff199093019268056bc75e2d631000006b02df0ab5a80a22c61ab5a70082020590505b682b5e3af16b188000008412614e6957682b5e3af16b187fffff199093019268056bc75e2d63100000693f1fce3da636ea5cf85082020590505b6815af1d78b58c4000008412614ea3576815af1d78b58c3fffff199093019268056bc75e2d63100000690127fa27722cc06cc5e282020590505b680ad78ebc5ac62000008412614edc57680ad78ebc5ac61fffff199093019268056bc75e2d6310000068280e60114edb805d0382020590505b68056bc75e2d631000008412614f155768056bc75e2d630fffff199093019268056bc75e2d63100000680ebc5fb4174612111082020590505b6802b5e3af16b18800008412614f4e576802b5e3af16b187ffff199093019268056bc75e2d631000006808f00f760a4b2db55d82020590505b68015af1d78b58c400008412614f875768015af1d78b58c3ffff199093019268056bc75e2d631000006806f5f177578893793782020590505b68056bc75e2d631000008481019085906002908280020505918201919050600368056bc75e2d631000008783020505918201919050600468056bc75e2d631000008783020505918201919050600568056bc75e2d631000008783020505918201919050600668056bc75e2d631000008783020505918201919050600768056bc75e2d631000008783020505918201919050600868056bc75e2d631000008783020505918201919050600968056bc75e2d631000008783020505918201919050600a68056bc75e2d631000008783020505918201919050600b68056bc75e2d631000008783020505918201919050600c68056bc75e2d631000008783020505918201919050606468056bc75e2d63100000848402058502059695505050505050565b77ffffffffffffffffffffffffffffffffffffffffffffffff828116821b90821b198416179392505050565b670de0b6b3a764000060005b87518110156151d85760008582815181106150f757fe5b602002602001015185111561515a57600061512061511487613693565b8b8581518110612f9f57fe5b90506000615134828a868151811061448a57fe5b9050600061514461266688613693565b905061515083826114d1565b9350505050615171565b86828151811061516657fe5b602002602001015190505b600061519a8a848151811061518257fe5b6020026020010151614619848d878151811061448a57fe5b90506151cc6151c58a85815181106151ae57fe5b6020026020010151836136b990919063ffffffff16565b8590612fdd565b935050506001016150e0565b509695505050505050565b670de0b6b3a764000060005b87518110156151d85760008486838151811061520757fe5b6020026020010151111561526e57600061522c61511487670de0b6b3a7640000611523565b90506000615240828a868151811061448a57fe5b9050600061524e828861325c565b905061526461525d8383611523565b84906114d1565b9350505050615285565b86828151811061527a57fe5b602002602001015190505b60006152ae8a848151811061529657fe5b6020026020010151614619848d878151811061460357fe5b90506152c26151c58a85815181106151ae57fe5b935050506001016151ef565b6040805160a081019091528060008152600060208201819052604082018190526060820181905260809091015290565b80356106af81615e62565b600082601f830112615319578081fd5b815161532c61532782615e42565b615e1b565b81815291506020808301908481018184028601820187101561534d57600080fd5b60005b8481101561536c57815184529282019290820190600101615350565b505050505092915050565b600082601f830112615387578081fd5b813567ffffffffffffffff81111561539d578182fd5b6153b0601f8201601f1916602001615e1b565b91508082528360208285010111156153c757600080fd5b8060208401602084013760009082016020015292915050565b8051600481106106af57600080fd5b8051600581106106af57600080fd5b8035600281106106af57600080fd5b60006020828403121561541e578081fd5b8135610b2d81615e62565b6000806040838503121561543b578081fd5b823561544681615e62565b9150602083013561545681615e62565b809150509250929050565b600080600060608486031215615475578081fd5b833561548081615e62565b9250602084013561549081615e62565b929592945050506040919091013590565b600080600080600080600060e0888a0312156154bb578283fd5b87356154c681615e62565b965060208801356154d681615e62565b9550604088013594506060880135935060808801356154f481615e77565b9699959850939692959460a0840135945060c09093013592915050565b60008060408385031215615523578182fd5b823561552e81615e62565b946020939093013593505050565b600080600060608486031215615550578081fd5b835167ffffffffffffffff80821115615567578283fd5b818601915086601f83011261557a578283fd5b815161558861532782615e42565b80828252602080830192508086018b8283870289010111156155a8578788fd5b8796505b848710156155d35780516155bf81615e62565b8452600196909601959281019281016155ac565b5089015190975093505050808211156155ea578283fd5b506155f786828701615309565b925050604084015190509250925092565b600060208284031215615619578081fd5b81518015158114610b2d578182fd5b600080600080600080600060e0888a031215615642578081fd5b8735965060208089013561565581615e62565b9650604089013561566581615e62565b9550606089013567ffffffffffffffff80821115615681578384fd5b818b0191508b601f830112615694578384fd5b81356156a261532782615e42565b8082825285820191508585018f8788860288010111156156c0578788fd5b8795505b838610156156e25780358352600195909501949186019186016156c4565b509850505060808b0135955060a08b0135945060c08b0135925080831115615708578384fd5b50506157168a828b01615377565b91505092959891949750929550565b600060208284031215615736578081fd5b81356001600160e01b031981168114610b2d578182fd5b60006020828403121561575e578081fd5b8151610b2d81615e62565b6000806040838503121561577b578182fd5b823561578681615e62565b9150602083013567ffffffffffffffff8111156157a1578182fd5b6157ad85828601615377565b9150509250929050565b6000602082840312156157c8578081fd5b610b2d83836153e0565b6000806000606084860312156157e6578081fd5b6157f085856153e0565b9250602084015167ffffffffffffffff81111561580b578182fd5b6155f786828701615309565b60008060408385031215615829578182fd5b61583384846153e0565b9150602083015190509250929050565b600080600060608486031215615857578081fd5b61586185856153e0565b925060208401519150604084015190509250925092565b600060208284031215615889578081fd5b610b2d83836153ef565b600080604083850312156158a5578182fd5b6158af84846153ef565b9150602083015167ffffffffffffffff8111156158ca578182fd5b6157ad85828601615309565b6000806000606084860312156158ea578081fd5b6157f085856153ef565b60008060408385031215615906578182fd5b61583384846153ef565b600080600060608486031215615924578081fd5b61586185856153ef565b600080600060608486031215615942578081fd5b833567ffffffffffffffff80821115615959578283fd5b818601915061012080838903121561596f578384fd5b61597881615e1b565b905061598488846153fe565b815261599388602085016152fe565b60208201526159a588604085016152fe565b6040820152606083013560608201526080830135608082015260a083013560a08201526159d58860c085016152fe565b60c08201526159e78860e085016152fe565b60e082015261010080840135838111156159ff578586fd5b615a0b8a828701615377565b9183019190915250976020870135975060409096013595945050505050565b600060208284031215615a3b578081fd5b5035919050565b600060208284031215615a53578081fd5b5051919050565b60008060008060808587031215615a6f578182fd5b8451935060208501519250604085015191506060850151615a8f81615e62565b939692955090935050565b600060208284031215615aab578081fd5b8151610b2d81615e77565b60008060408385031215615ac8578182fd5b8251615ad381615e77565b6020939093015192949293505050565b6001600160a01b03169052565b6000815180845260208085019450808401835b83811015615b1f57815187529582019590820190600101615b03565b509495945050505050565b60008151808452815b81811015615b4f57602081850181015186830182015201615b33565b81811115615b605782602083870101525b50601f01601f19169290920160200192915050565b9182526001600160e01b031916602082015260240190565b6000828483379101908152919050565b61190160f01b81526002810192909252602282015260420190565b6001600160a01b0391909116815260200190565b6020808252825182820181905260009190848201906040850190845b81811015615c0d5783516001600160a01b031683529284019291840191600101615be8565b50909695505050505050565b602080825282518282018190526000919060409081850190868401855b82811015615ca3578151805160048110615c4c57fe5b855280870151615c5e88870182615ae3565b508581015186860152606080820151615c7982880182615ae3565b505060809081015190615c8e86820183615ae3565b505060a0939093019290850190600101615c36565b5091979650505050505050565b600060208252610b2d6020830184615af0565b600060408252615cd66040830185615af0565b8281036020840152613ee18185615af0565b901515815260200190565b92151583526020830191909152604082015260600190565b90815260200190565b9283526001600160a01b03918216602084015216604082015260600190565b9586526001600160a01b0394851660208701529290931660408501526060840152608083019190915260a082015260c00190565b9485526020850193909352604084019190915260608301526001600160a01b0316608082015260a00190565b6000838252604060208301526126066040830184615b2a565b9182526001600160a01b0316602082015260400190565b93845260ff9290921660208401526040830152606082015260800190565b600060208252610b2d6020830184615b2a565b6000838252604060208301526126066040830184615af0565b60ff91909116815260200190565b60405181810167ffffffffffffffff81118282101715615e3a57600080fd5b604052919050565b600067ffffffffffffffff821115615e58578081fd5b5060209081020190565b6001600160a01b0381168114610b6657600080fd5b60ff81168114610b6657600080fdfea26469706673582212208e9a1a26b64de4f87bb963cb83363cb8bc872f588f58e43e43715bf71d5b477264736f6c634300070100336bfb689528fa96ec1ad670ad6d6064be1ae96bfd5d2ee35c837fd0fe0c11959a",
  "linkReferences": {},
  "deployedLinkReferences": {}
}