{
  "_format": "hh-sol-artifact-1",
  "contractName": "PolygonZkEVMRootGaugeFactory",
  "sourceName": "contracts/gauges/zkevm/PolygonZkEVMRootGaugeFactory.sol",
  "abi": [
    {
      "inputs": [
        {
          "internalType": "contract IMainnetBalancerMinter",
          "name": "minter",
          "type": "address"
        },
        {
          "internalType": "contract IPolygonZkEVMBridge",
          "name": "zkEVMBridge",
          "type": "address"
        }
      ],
      "stateMutability": "nonpayable",
      "type": "constructor"
    },
    {
      "anonymous": false,
      "inputs": [
        {
          "indexed": true,
          "internalType": "address",
          "name": "gauge",
          "type": "address"
        }
      ],
      "name": "GaugeCreated",
      "type": "event"
    },
    {
      "inputs": [
        {
          "internalType": "address",
          "name": "recipient",
          "type": "address"
        },
        {
          "internalType": "uint256",
          "name": "relativeWeightCap",
          "type": "uint256"
        }
      ],
      "name": "create",
      "outputs": [
        {
          "internalType": "address",
          "name": "",
          "type": "address"
        }
      ],
      "stateMutability": "nonpayable",
      "type": "function"
    },
    {
      "inputs": [],
      "name": "getGaugeImplementation",
      "outputs": [
        {
          "internalType": "address",
          "name": "",
          "type": "address"
        }
      ],
      "stateMutability": "view",
      "type": "function"
    },
    {
      "inputs": [
        {
          "internalType": "address",
          "name": "gauge",
          "type": "address"
        }
      ],
      "name": "isGaugeFromFactory",
      "outputs": [
        {
          "internalType": "bool",
          "name": "",
          "type": "bool"
        }
      ],
      "stateMutability": "view",
      "type": "function"
    }
  ],
  "bytecode": "0x608060405234801561001057600080fd5b50604051611d4b380380611d4b83398101604081905261002f9161009a565b818160405161003d9061008d565b6100489291906100d3565b604051809103906000f080158015610064573d6000803e3d6000fd5b50600080546001600160a01b0319166001600160a01b0392909216919091179055506101059050565b61182c8061051f83390190565b600080604083850312156100ac578182fd5b82516100b7816100ed565b60208401519092506100c8816100ed565b809150509250929050565b6001600160a01b0392831681529116602082015260400190565b6001600160a01b038116811461010257600080fd5b50565b61040b806101146000396000f3fe608060405234801561001057600080fd5b50600436106100415760003560e01c80630ecaea731461004657806339312dee1461006f578063ce3cc8bd14610077575b600080fd5b610059610054366004610322565b610097565b604051610066919061034c565b60405180910390f35b610059610135565b61008a610085366004610300565b610151565b6040516100669190610393565b6000806100a2610180565b6040517fcd6dc68700000000000000000000000000000000000000000000000000000000815290915073ffffffffffffffffffffffffffffffffffffffff82169063cd6dc687906100f9908790879060040161036d565b600060405180830381600087803b15801561011357600080fd5b505af1158015610127573d6000803e3d6000fd5b509293505050505b92915050565b60005473ffffffffffffffffffffffffffffffffffffffff1690565b73ffffffffffffffffffffffffffffffffffffffff811660009081526001602052604090205460ff165b919050565b6000805481906101a59073ffffffffffffffffffffffffffffffffffffffff16610226565b73ffffffffffffffffffffffffffffffffffffffff8116600081815260016020819052604080832080547fffffffffffffffffffffffffffffffffffffffffffffffffffffffffffffff00169092179091555192935090917faa98436d09d130af48de49867af8b723bbbebb0d737638b5fe8f1bf31bbb71c09190a2905090565b60006040517f3d602d80600a3d3981f3363d3d373d3d3d363d7300000000000000000000000081528260601b60148201527f5af43d82803e903d91602b57fd5bf3000000000000000000000000000000000060288201526037816000f091505073ffffffffffffffffffffffffffffffffffffffff811661017b576040517f08c379a00000000000000000000000000000000000000000000000000000000081526004016102d39061039e565b60405180910390fd5b803573ffffffffffffffffffffffffffffffffffffffff8116811461012f57600080fd5b600060208284031215610311578081fd5b61031b83836102dc565b9392505050565b60008060408385031215610334578081fd5b61033e84846102dc565b946020939093013593505050565b73ffffffffffffffffffffffffffffffffffffffff91909116815260200190565b73ffffffffffffffffffffffffffffffffffffffff929092168252602082015260400190565b901515815260200190565b60208082526016908201527f455243313136373a20637265617465206661696c65640000000000000000000060408201526060019056fea26469706673582212206d28cb93712f916bae7423a12b5a44e46e98762ec554d8e16a12c449c58ea48964736f6c634300070100336101a06040523480156200001257600080fd5b506040516200182c3803806200182c833981810160405260408110156200003857600080fd5b508051602091820151600160009081556040805163e6dec36f60e01b815290519394929385936001600160a01b0385169263e6dec36f9260048083019392829003018186803b1580156200008b57600080fd5b505afa158015620000a0573d6000803e3d6000fd5b505050506040513d6020811015620000b757600080fd5b50516040805163c003969960e01b815290519192506000916001600160a01b0384169163c0039699916004808301926020929190829003018186803b1580156200010057600080fd5b505afa15801562000115573d6000803e3d6000fd5b505050506040513d60208110156200012c57600080fd5b505160408051632c6f4d6f60e11b815290519192506000916001600160a01b038616916358de9ade916004808301926020929190829003018186803b1580156200017557600080fd5b505afa1580156200018a573d6000803e3d6000fd5b505050506040513d6020811015620001a157600080fd5b50516001600160601b0319606084811b821660805285811b821660a05286811b821660c05282901b1660e052604080516303e1469160e61b815290519192506001600160a01b0383169163f851a44091600480820192602092909190829003018186803b1580156200021257600080fd5b505afa15801562000227573d6000803e3d6000fd5b505050506040513d60208110156200023e57600080fd5b505160601b6001600160601b0319166101005260408051635c3dab0b60e11b815290516001600160a01b0385169163b87b5616916004808301926020929190829003018186803b1580156200029257600080fd5b505afa158015620002a7573d6000803e3d6000fd5b505050506040513d6020811015620002be57600080fd5b505161012052604080516321609bbf60e01b815290516001600160a01b038516916321609bbf916004808301926020929190829003018186803b1580156200030557600080fd5b505afa1580156200031a573d6000803e3d6000fd5b505050506040513d60208110156200033157600080fd5b505161014052604080516303f7d6c760e51b815290516001600160a01b03851691637efad8e0916004808301926020929190829003018186803b1580156200037857600080fd5b505afa1580156200038d573d6000803e3d6000fd5b505050506040513d6020811015620003a457600080fd5b505161016052505060001960025550506001600160601b031960609190911b16610180525060805160601c60a05160601c60c05160601c60e05160601c6101005160601c6101205161014051610160516101805160601c6113bc62000470600039806102df5280610c505280610d0d52508061083752508061081652508061079952806108835250806103a85280610563528061063e5280610a725250806104475280610727525080610979525080610dea5280610ee7525080610c2e5280610cce52506113bc6000f3fe6080604052600436106100d25760003560e01c806383f5c39b1161007f578063ab8f094511610059578063ab8f094514610265578063c2c4c5c11461027a578063cd6dc68714610282578063d34fb267146102c8576100d2565b806383f5c39b146102265780639c868ac01461023b5780639f86767114610250576100d2565b806314e956f5116100b057806314e956f5146101935780631b88094d146101bd5780634b820093146101d2576100d2565b806304ceb300146100d7578063094007071461011557806310d3eb0414610167575b600080fd5b3480156100e357600080fd5b506100ec6102dd565b6040805173ffffffffffffffffffffffffffffffffffffffff9092168252519081900360200190f35b34801561012157600080fd5b506101556004803603602081101561013857600080fd5b503573ffffffffffffffffffffffffffffffffffffffff16610302565b60408051918252519081900360200190f35b34801561017357600080fd5b506101916004803603602081101561018a57600080fd5b5035610390565b005b34801561019f57600080fd5b50610155600480360360208110156101b657600080fd5b5035610440565b3480156101c957600080fd5b506100ec61050e565b3480156101de57600080fd5b50610212600480360360208110156101f557600080fd5b503573ffffffffffffffffffffffffffffffffffffffff1661052a565b604080519115158252519081900360200190f35b34801561023257600080fd5b50610155610530565b34801561024757600080fd5b50610212610536565b34801561025c57600080fd5b5061015561053f565b34801561027157600080fd5b5061019161054b565b61021261061c565b34801561028e57600080fd5b50610191600480360360408110156102a557600080fd5b5073ffffffffffffffffffffffffffffffffffffffff8135169060200135610a09565b3480156102d457600080fd5b50610191610a5a565b7f00000000000000000000000000000000000000000000000000000000000000005b90565b600073ffffffffffffffffffffffffffffffffffffffff8216301461038857604080517f08c379a000000000000000000000000000000000000000000000000000000000815260206004820152601e60248201527f47617567652063616e206f6e6c79206d696e7420666f7220697473656c660000604482015290519081900360640190fd5b505060045490565b3373ffffffffffffffffffffffffffffffffffffffff7f0000000000000000000000000000000000000000000000000000000000000000161461043457604080517f08c379a000000000000000000000000000000000000000000000000000000000815260206004820152601260248201527f53454e4445525f4e4f545f414c4c4f5745440000000000000000000000000000604482015290519081900360640190fd5b61043d81610b28565b50565b60006105087f000000000000000000000000000000000000000000000000000000000000000073ffffffffffffffffffffffffffffffffffffffff1663d3078c9430856040518363ffffffff1660e01b8152600401808373ffffffffffffffffffffffffffffffffffffffff1681526020018281526020019250505060206040518083038186803b1580156104d457600080fd5b505afa1580156104e8573d6000803e3d6000fd5b505050506040513d60208110156104fe57600080fd5b5051600654610bc4565b92915050565b60075473ffffffffffffffffffffffffffffffffffffffff1690565b50600190565b60065490565b60055460ff1690565b670de0b6b3a764000081565b3373ffffffffffffffffffffffffffffffffffffffff7f000000000000000000000000000000000000000000000000000000000000000016146105ef57604080517f08c379a000000000000000000000000000000000000000000000000000000000815260206004820152601260248201527f53454e4445525f4e4f545f414c4c4f5745440000000000000000000000000000604482015290519081900360640190fd5b600580547fffffffffffffffffffffffffffffffffffffffffffffffffffffffffffffff00166001179055565b6000610626610bd0565b3373ffffffffffffffffffffffffffffffffffffffff7f000000000000000000000000000000000000000000000000000000000000000016146106ca57604080517f08c379a000000000000000000000000000000000000000000000000000000000815260206004820152601260248201527f53454e4445525f4e4f545f414c4c4f5745440000000000000000000000000000604482015290519081900360640190fd5b60025460006106d7610be9565b9050808210156109fb57604080517f615e5237000000000000000000000000000000000000000000000000000000008152306004820152905173ffffffffffffffffffffffffffffffffffffffff7f0000000000000000000000000000000000000000000000000000000000000000169163615e523791602480830192600092919082900301818387803b15801561076e57600080fd5b505af1158015610782573d6000803e3d6000fd5b5050600180546003549590910194909250600091507f000000000000000000000000000000000000000000000000000000000000000001845b8560ff0181101561090e57848111156107d35761090e565b62093a8081026000806107e583610440565b90508285101580156107fb57508262093a800185105b156108b457828503670de0b6b3a764000082890282020492507f00000000000000000000000000000000000000000000000000000000000000007f000000000000000000000000000000000000000000000000000000000000000089028161085f57fe5b04975062093a80819003670de0b6b3a7640000838a02820260018b905560038990557f000000000000000000000000000000000000000000000000000000000000000090980197049390930192506108c99050565b670de0b6b3a764000062093a80828902020491505b60408051838152905184917f21d81d5d656869e8ce3ba8d65526a2f0dbbcd3d36f5f9999eb7c84360e45eced919081900360200190a2509390930192506001016107bb565b5060028490556004805483019055811580159061092e575060055460ff16155b156109f757604080517f6a627842000000000000000000000000000000000000000000000000000000008152306004820152905173ffffffffffffffffffffffffffffffffffffffff7f00000000000000000000000000000000000000000000000000000000000000001691636a6278429160248083019260209291908290030181600087803b1580156109c157600080fd5b505af11580156109d5573d6000803e3d6000fd5b505050506040513d60208110156109eb57600080fd5b506109f7905082610c14565b5050505b6001925050506102ff610d70565b610a1281610d77565b50600780547fffffffffffffffffffffffff00000000000000000000000000000000000000001673ffffffffffffffffffffffffffffffffffffffff92909216919091179055565b3373ffffffffffffffffffffffffffffffffffffffff7f00000000000000000000000000000000000000000000000000000000000000001614610afe57604080517f08c379a000000000000000000000000000000000000000000000000000000000815260206004820152601260248201527f53454e4445525f4e4f545f414c4c4f5745440000000000000000000000000000604482015290519081900360640190fd5b600580547fffffffffffffffffffffffffffffffffffffffffffffffffffffffffffffff00169055565b670de0b6b3a7640000811115610b89576040517f08c379a000000000000000000000000000000000000000000000000000000000815260040180806020018281038252603481526020018061132f6034913960400191505060405180910390fd5b60068190556040805182815290517f13e45870490f54cea50d245930d12102c72b502641ef6850d0b15a8c92decfb29181900360200190a150565b80820390821102900390565b610be260026000541415610190610f89565b6002600055565b7fffffffffffffffffffffffffffffffffffffffffffffffffffffffffffffffff62093a8042040190565b610c7573ffffffffffffffffffffffffffffffffffffffff7f0000000000000000000000000000000000000000000000000000000000000000167f000000000000000000000000000000000000000000000000000000000000000083610f97565b600754604080517fcd58657900000000000000000000000000000000000000000000000000000000815260016004820181905273ffffffffffffffffffffffffffffffffffffffff9384166024830152604482018590527f000000000000000000000000000000000000000000000000000000000000000084166064830152608482015260c060a4820152600060c4820181905291517f00000000000000000000000000000000000000000000000000000000000000009093169263cd586579926101048084019391929182900301818387803b158015610d5557600080fd5b505af1158015610d69573d6000803e3d6000fd5b5050505050565b6001600055565b60025415610de657604080517f08c379a000000000000000000000000000000000000000000000000000000000815260206004820152601360248201527f416c726561647920696e697469616c697a656400000000000000000000000000604482015290519081900360640190fd5b60007f000000000000000000000000000000000000000000000000000000000000000073ffffffffffffffffffffffffffffffffffffffff16632c4e722e6040518163ffffffff1660e01b815260040160206040518083038186803b158015610e4e57600080fd5b505afa158015610e62573d6000803e3d6000fd5b505050506040513d6020811015610e7857600080fd5b5051905080610ed2576040517f08c379a00000000000000000000000000000000000000000000000000000000081526004018080602001828103825260248152602001806113636024913960400191505060405180910390fd5b6001819055610edf610be9565b6002819055507f000000000000000000000000000000000000000000000000000000000000000073ffffffffffffffffffffffffffffffffffffffff1663a228bced6040518163ffffffff1660e01b8152600401602060405180830381600087803b158015610f4d57600080fd5b505af1158015610f61573d6000803e3d6000fd5b505050506040513d6020811015610f7757600080fd5b5051600355610f8582610b28565b5050565b81610f8557610f858161116d565b80158015906110465750604080517fdd62ed3e00000000000000000000000000000000000000000000000000000000815230600482015273ffffffffffffffffffffffffffffffffffffffff848116602483015291519185169163dd62ed3e91604480820192602092909190829003018186803b15801561101757600080fd5b505afa15801561102b573d6000803e3d6000fd5b505050506040513d602081101561104157600080fd5b505115155b156110db576040805173ffffffffffffffffffffffffffffffffffffffff8416602482015260006044808301919091528251808303909101815260649091019091526020810180517bffffffffffffffffffffffffffffffffffffffffffffffffffffffff167f095ea7b3000000000000000000000000000000000000000000000000000000001790526110db908490611197565b6040805173ffffffffffffffffffffffffffffffffffffffff8416602482015260448082018490528251808303909101815260649091019091526020810180517bffffffffffffffffffffffffffffffffffffffffffffffffffffffff167f095ea7b300000000000000000000000000000000000000000000000000000000179052611168908490611197565b505050565b61043d817f42414c00000000000000000000000000000000000000000000000000000000006112b3565b600060608373ffffffffffffffffffffffffffffffffffffffff16836040518082805190602001908083835b6020831061120057805182527fffffffffffffffffffffffffffffffffffffffffffffffffffffffffffffffe090920191602091820191016111c3565b6001836020036101000a0380198251168184511680821785525050505050509050019150506000604051808303816000865af19150503d8060008114611262576040519150601f19603f3d011682016040523d82523d6000602084013e611267565b606091505b5091509150600082141561127f573d6000803e3d6000fd5b6112ad8151600014806112a557508180602001905160208110156112a257600080fd5b50515b6101a2610f89565b50505050565b7f08c379a000000000000000000000000000000000000000000000000000000000600090815260206004526007602452600a808404818106603090810160081b958390069590950190829004918206850160101b01602363ffffff0060e086901c160160181b0190930160c81b60445260e882901c90606490fdfe52656c61746976652077656967687420636170206578636565647320616c6c6f776564206162736f6c757465206d6178696d756d42616c616e636572546f6b656e41646d696e206e6f742079657420616374697661746564a2646970667358221220ff87d3f6529e214ae10e74f09edca6d55e7e97e0f7b3ba32db1de4587a3df7f064736f6c63430007010033",
  "linkReferences": {},
  "deployedLinkReferences": {}
}