{
  "_format": "hh-sol-artifact-1",
  "contractName": "ComposableStablePoolFactory",
  "sourceName": "contracts/ComposableStablePoolFactory.sol",
  "abi": [
    {
      "inputs": [
        {
          "internalType": "contract IVault",
          "name": "vault",
          "type": "address"
        },
        {
          "internalType": "contract IProtocolFeePercentagesProvider",
          "name": "protocolFeeProvider",
          "type": "address"
        }
      ],
      "stateMutability": "nonpayable",
      "type": "constructor"
    },
    {
      "anonymous": false,
      "inputs": [],
      "name": "FactoryDisabled",
      "type": "event"
    },
    {
      "anonymous": false,
      "inputs": [
        {
          "indexed": true,
          "internalType": "address",
          "name": "pool",
          "type": "address"
        }
      ],
      "name": "PoolCreated",
      "type": "event"
    },
    {
      "inputs": [
        {
          "internalType": "string",
          "name": "name",
          "type": "string"
        },
        {
          "internalType": "string",
          "name": "symbol",
          "type": "string"
        },
        {
          "internalType": "contract IERC20[]",
          "name": "tokens",
          "type": "address[]"
        },
        {
          "internalType": "uint256",
          "name": "amplificationParameter",
          "type": "uint256"
        },
        {
          "internalType": "contract IRateProvider[]",
          "name": "rateProviders",
          "type": "address[]"
        },
        {
          "internalType": "uint256[]",
          "name": "tokenRateCacheDurations",
          "type": "uint256[]"
        },
        {
          "internalType": "bool[]",
          "name": "exemptFromYieldProtocolFeeFlags",
          "type": "bool[]"
        },
        {
          "internalType": "uint256",
          "name": "swapFeePercentage",
          "type": "uint256"
        },
        {
          "internalType": "address",
          "name": "owner",
          "type": "address"
        }
      ],
      "name": "create",
      "outputs": [
        {
          "internalType": "contract ComposableStablePool",
          "name": "",
          "type": "address"
        }
      ],
      "stateMutability": "nonpayable",
      "type": "function"
    },
    {
      "inputs": [],
      "name": "disable",
      "outputs": [],
      "stateMutability": "nonpayable",
      "type": "function"
    },
    {
      "inputs": [
        {
          "internalType": "bytes4",
          "name": "selector",
          "type": "bytes4"
        }
      ],
      "name": "getActionId",
      "outputs": [
        {
          "internalType": "bytes32",
          "name": "",
          "type": "bytes32"
        }
      ],
      "stateMutability": "view",
      "type": "function"
    },
    {
      "inputs": [],
      "name": "getAuthorizer",
      "outputs": [
        {
          "internalType": "contract IAuthorizer",
          "name": "",
          "type": "address"
        }
      ],
      "stateMutability": "view",
      "type": "function"
    },
    {
      "inputs": [],
      "name": "getCreationCode",
      "outputs": [
        {
          "internalType": "bytes",
          "name": "",
          "type": "bytes"
        }
      ],
      "stateMutability": "view",
      "type": "function"
    },
    {
      "inputs": [],
      "name": "getCreationCodeContracts",
      "outputs": [
        {
          "internalType": "address",
          "name": "contractA",
          "type": "address"
        },
        {
          "internalType": "address",
          "name": "contractB",
          "type": "address"
        }
      ],
      "stateMutability": "view",
      "type": "function"
    },
    {
      "inputs": [],
      "name": "getPauseConfiguration",
      "outputs": [
        {
          "internalType": "uint256",
          "name": "pauseWindowDuration",
          "type": "uint256"
        },
        {
          "internalType": "uint256",
          "name": "bufferPeriodDuration",
          "type": "uint256"
        }
      ],
      "stateMutability": "view",
      "type": "function"
    },
    {
      "inputs": [],
      "name": "getVault",
      "outputs": [
        {
          "internalType": "contract IVault",
          "name": "",
          "type": "address"
        }
      ],
      "stateMutability": "view",
      "type": "function"
    },
    {
      "inputs": [],
      "name": "isDisabled",
      "outputs": [
        {
          "internalType": "bool",
          "name": "",
          "type": "bool"
        }
      ],
      "stateMutability": "view",
      "type": "function"
    },
    {
      "inputs": [
        {
          "internalType": "address",
          "name": "pool",
          "type": "address"
        }
      ],
      "name": "isPoolFromFactory",
      "outputs": [
        {
          "internalType": "bool",
          "name": "",
          "type": "bool"
        }
      ],
      "stateMutability": "view",
      "type": "function"
    }
  ],
  "bytecode": "0x6101606040523480156200001257600080fd5b50604051620091c3380380620091c3833981016040819052620000359162000217565b8160405180602001620000489062000209565b601f1982820381018352601f90910116604052805182903090839060006002820460a081905280830360e08190528185529091508362000094816200012a602090811b620004fc17901c565b60601b6001600160601b0319166080528285018051838252620000c3826200012a602090811b620004fc17901c565b606090811b6001600160601b031990811660c0529690935290526101009586529590951b9091166101205250506276a70042016101405260018054610100600160a81b0319166001600160a01b039690961690910294909417909355506200026b92505050565b80517f602038038060206000396000f3fefefefefefefefefefefefefefefefefefefe808352600091602081018484f09084529150620001786001600160a01b03831615156101ac6200017e565b50919050565b816200018f576200018f8162000193565b5050565b620001a5816210905360ea1b620001a8565b50565b62461bcd60e51b600090815260206004526007602452600a808404818106603090810160081b958390069590950190829004918206850160101b01602363ffffff0060e086901c160160181b0190930160c81b60445260e882901c90606490fd5b617de380620013e083390190565b600080604083850312156200022a578182fd5b8251620002378162000255565b60208401519092506200024a8162000255565b809150509250929050565b6001600160a01b0381168114620001a557600080fd5b60805160601c60a05160c05160601c60e051610100516101205160601c61014051611109620002d7600039806101f952806102225250806104535250806104035250806105635250806101d052806105df5250806105845250806101af52806105bb52506111096000f3fe608060405234801561001057600080fd5b50600436106100bd5760003560e01c806366b59f6c11610076578063851c1bb31161005b578063851c1bb31461015e5780638d928af81461017e578063aaabadc514610186576100bd565b806366b59f6c146101365780636c57f5a914610156576100bd565b80632da47c40116100a75780632da47c40146100f65780632f2770db1461010c5780636634b75314610116576100bd565b8062c194db146100c2578063174481fa146100e0575b600080fd5b6100ca61018e565b6040516100d79190610ed0565b60405180910390f35b6100e86101ad565b6040516100d7929190610e69565b6100fe6101f3565b6040516100d792919061104e565b61011461025d565b005b610129610124366004610b5d565b6102c2565b6040516100d79190610e90565b610149610144366004610bf1565b6102ed565b6040516100d79190610ee3565b6101296103f6565b61017161016c366004610b95565b6103ff565b6040516100d79190610e9b565b610149610451565b610149610475565b60606101a86040518060200160405280600081525061055b565b905090565b7f00000000000000000000000000000000000000000000000000000000000000007f00000000000000000000000000000000000000000000000000000000000000009091565b600080427f000000000000000000000000000000000000000000000000000000000000000081101561024f57807f000000000000000000000000000000000000000000000000000000000000000003925062278d009150610258565b60009250600091505b509091565b610265610634565b61026d61067d565b600180547fffffffffffffffffffffffffffffffffffffffffffffffffffffffffffffff0016811790556040517f432acbfd662dbb5d8b378384a67159b47ca9d0f1b79f97cf64cf8585fa362d5090600090a1565b73ffffffffffffffffffffffffffffffffffffffff1660009081526020819052604090205460ff1690565b60008060006102fa6101f3565b915091506103e6604051806101a00160405280610315610451565b73ffffffffffffffffffffffffffffffffffffffff16815260200160018054906101000a900473ffffffffffffffffffffffffffffffffffffffff1673ffffffffffffffffffffffffffffffffffffffff1681526020018e81526020018d81526020018c81526020018a81526020018981526020018881526020018b81526020018781526020018481526020018381526020018673ffffffffffffffffffffffffffffffffffffffff168152506040516020016103d29190610f04565b604051602081830303815290604052610692565b9c9b505050505050505050505050565b60015460ff1690565b60007f000000000000000000000000000000000000000000000000000000000000000082604051602001610434929190610e39565b604051602081830303815290604052805190602001209050919050565b7f000000000000000000000000000000000000000000000000000000000000000090565b600061047f610451565b73ffffffffffffffffffffffffffffffffffffffff1663aaabadc56040518163ffffffff1660e01b815260040160206040518083038186803b1580156104c457600080fd5b505afa1580156104d8573d6000803e3d6000fd5b505050506040513d601f19601f820116820180604052508101906101a89190610bd5565b80517f602038038060206000396000f3fefefefefefefefefefefefefefefefefefefe808352600091602081018484f0908452915061055573ffffffffffffffffffffffffffffffffffffffff831615156101ac610726565b50919050565b8051604080517f00000000000000000000000000000000000000000000000000000000000000007f0000000000000000000000000000000000000000000000000000000000000000818101858101848101602090810190965280855293957f00000000000000000000000000000000000000000000000000000000000000009592947f000000000000000000000000000000000000000000000000000000000000000094938801866000828a3c846000888301883c5060208981019089850101610626818386610738565b505050505050505050919050565b60006106636000357fffffffff00000000000000000000000000000000000000000000000000000000166103ff565b905061067a61067282336107b2565b610191610726565b50565b6106906106886103f6565b1560d3610726565b565b600061069c61067d565b60006106a783610851565b73ffffffffffffffffffffffffffffffffffffffff811660008181526020819052604080822080547fffffffffffffffffffffffffffffffffffffffffffffffffffffffffffffff001660011790555192935090917f83a48fbcfc991335314e74d0496aab6a1987e992ddc85dddbcc4d6dd6ef2e9fc9190a292915050565b816107345761073481610899565b5050565b5b602081106107765781518352602092830192909101907fffffffffffffffffffffffffffffffffffffffffffffffffffffffffffffffe001610739565b905182516020929092036101000a7fffffffffffffffffffffffffffffffffffffffffffffffffffffffffffffffff0180199091169116179052565b60006107bc610475565b73ffffffffffffffffffffffffffffffffffffffff16639be2a8848484306040518463ffffffff1660e01b81526004016107f893929190610ea4565b60206040518083038186803b15801561081057600080fd5b505afa158015610824573d6000803e3d6000fd5b505050506040513d601f19601f820116820180604052508101906108489190610b79565b90505b92915050565b6000606061085e8361055b565b905060008151602083016000f0905073ffffffffffffffffffffffffffffffffffffffff8116610892573d6000803e3d6000fd5b9392505050565b7f08c379a000000000000000000000000000000000000000000000000000000000600090815260206004526007602452600a808304818106603090810160081b83860601918390049283060160101b016642414c230000300160c81b60445261067a917f42414c0000000000000000000000000000000000000000000000000000000000906242414c90606490fd5b803561084b816110a3565b600082601f830112610943578081fd5b813561095661095182611083565b61105c565b81815291506020808301908481018184028601820187101561097757600080fd5b60005b8481101561099f57813561098d816110c5565b8452928201929082019060010161097a565b505050505092915050565b600082601f8301126109ba578081fd5b81356109c861095182611083565b8181529150602080830190848101818402860182018710156109e957600080fd5b60005b8481101561099f5781356109ff816110a3565b845292820192908201906001016109ec565b600082601f830112610a21578081fd5b8135610a2f61095182611083565b818152915060208083019084810181840286018201871015610a5057600080fd5b60005b8481101561099f578135610a66816110a3565b84529282019290820190600101610a53565b600082601f830112610a88578081fd5b8135610a9661095182611083565b818152915060208083019084810181840286018201871015610ab757600080fd5b60005b8481101561099f57813584529282019290820190600101610aba565b600082601f830112610ae6578081fd5b813567ffffffffffffffff811115610afc578182fd5b610b2d60207fffffffffffffffffffffffffffffffffffffffffffffffffffffffffffffffe0601f8401160161105c565b9150808252836020828501011115610b4457600080fd5b8060208401602084013760009082016020015292915050565b600060208284031215610b6e578081fd5b8135610892816110a3565b600060208284031215610b8a578081fd5b8151610892816110c5565b600060208284031215610ba6578081fd5b81357fffffffff0000000000000000000000000000000000000000000000000000000081168114610892578182fd5b600060208284031215610be6578081fd5b8151610892816110a3565b60008060008060008060008060006101208a8c031215610c0f578485fd5b893567ffffffffffffffff80821115610c26578687fd5b610c328d838e01610ad6565b9a5060208c0135915080821115610c47578687fd5b610c538d838e01610ad6565b995060408c0135915080821115610c68578687fd5b610c748d838e016109aa565b985060608c0135975060808c0135915080821115610c90578687fd5b610c9c8d838e01610a11565b965060a08c0135915080821115610cb1578586fd5b610cbd8d838e01610a78565b955060c08c0135915080821115610cd2578485fd5b50610cdf8c828d01610933565b93505060e08a01359150610cf78b6101008c01610928565b90509295985092959850929598565b73ffffffffffffffffffffffffffffffffffffffff169052565b6000815180845260208085019450808401835b83811015610d51578151151587529582019590820190600101610d33565b509495945050505050565b6000815180845260208085019450808401835b83811015610d5157815173ffffffffffffffffffffffffffffffffffffffff1687529582019590820190600101610d6f565b6000815180845260208085019450808401835b83811015610d5157815187529582019590820190600101610db4565b60008151808452815b81811015610df557602081850181015186830182015201610dd9565b81811115610e065782602083870101525b50601f017fffffffffffffffffffffffffffffffffffffffffffffffffffffffffffffffe0169290920160200192915050565b9182527fffffffff0000000000000000000000000000000000000000000000000000000016602082015260240190565b73ffffffffffffffffffffffffffffffffffffffff92831681529116602082015260400190565b901515815260200190565b90815260200190565b92835273ffffffffffffffffffffffffffffffffffffffff918216602084015216604082015260600190565b6000602082526108486020830184610dd0565b73ffffffffffffffffffffffffffffffffffffffff91909116815260200190565b600060208252610f18602083018451610d06565b6020830151610f2a6040840182610d06565b5060408301516101a0806060850152610f476101c0850183610dd0565b915060608501517fffffffffffffffffffffffffffffffffffffffffffffffffffffffffffffffe080868503016080870152610f838483610dd0565b935060808701519150808685030160a0870152610fa08483610d5c565b935060a08701519150808685030160c0870152610fbd8483610d5c565b935060c08701519150808685030160e0870152610fda8483610da1565b935060e08701519150610100818786030181880152610ff98584610d20565b90880151610120888101919091528801516101408089019190915288015161016080890191909152880151610180808901919091528801519094509150611044905082860182610d06565b5090949350505050565b918252602082015260400190565b60405181810167ffffffffffffffff8111828210171561107b57600080fd5b604052919050565b600067ffffffffffffffff821115611099578081fd5b5060209081020190565b73ffffffffffffffffffffffffffffffffffffffff8116811461067a57600080fd5b801515811461067a57600080fdfea2646970667358221220cf4938a5f02093a10c020552684e4823d287dae5816d66627b84ee93e485cd3864736f6c634300070100336105006040523480156200001257600080fd5b5060405162007de338038062007de3833981016040819052620000359162001b39565b6020810151600019620000488362000d77565b620000538462000db0565b8461010001518560000151600087604001518860600151620000808a608001513062000df960201b60201c565b8a60800151516001016001600160401b03811180156200009f57600080fd5b50604051908082528060200260200182016040528015620000ca578160200160208202803683370190505b508b61012001518c61014001518d61016001518e6101800151828289898d85336001600160a01b031660001b8480604051806040016040528060018152602001603160f81b815250878781600390805190602001906200012c929190620017d6565b50805162000142906004906020840190620017d6565b50506005805460ff19166012179055508151602092830120608052805191012060a052507f8b73c3c69bb8fe3d512ecc4cf759cc79239f7b179b0ffacaa9a75d522b39400f60c05260e0526001600160601b0319606091821b81166101005291901b166101205250620001c090506276a70083111561019462000f93565b620001d462278d0082111561019562000f93565b4290910161014081905201610160528551620001f6906002111560c862000f93565b620002106200020462000fa8565b8751111560c962000f93565b620002268662000fad60201b620014da1760201c565b620002318462000fb9565b6040516309b2760f60e01b81526000906001600160a01b038c16906309b2760f9062000262908d9060040162001d99565b602060405180830381600087803b1580156200027d57600080fd5b505af115801562000292573d6000803e3d6000fd5b505050506040513d601f19601f82011682018060405250810190620002b8919062001b01565b604051633354e3e960e11b81529091506001600160a01b038c16906366a9c7d290620002ed9084908b908b9060040162001cfd565b600060405180830381600087803b1580156200030857600080fd5b505af11580156200031d573d6000803e3d6000fd5b505050508061018081815250508a6001600160a01b031663d2946c2b6040518163ffffffff1660e01b815260040160206040518083038186803b1580156200036457600080fd5b505afa15801562000379573d6000803e3d6000fd5b505050506040513d601f19601f820116820180604052508101906200039f919062001b1a565b60601b6001600160601b0319166101a05250620003d1995050506001891015965061012c955062000f93945050505050565b620003e461138882111561012d62000f93565b6000620003ff826103e86200104d60201b620014e41760201c565b90506200040c816200107c565b5050805151620004216002821160c862000f93565b6200044660018203836020015151846040015151620010bb60201b6200150f1760201c565b6101c0819052815180516000906200045a57fe5b60200260200101516001600160a01b0316610200816001600160a01b031660601b8152505081600001516001815181106200049157fe5b60200260200101516001600160a01b0316610220816001600160a01b031660601b815250508160000151600281518110620004c857fe5b60200260200101516001600160a01b0316610240816001600160a01b031660601b8152505060038111620004fe57600062000517565b8151805160039081106200050e57fe5b60200260200101515b60601b6001600160601b03191661026052600481116200053957600062000552565b8151805160049081106200054957fe5b60200260200101515b60601b6001600160601b0319166102805260058111620005745760006200058d565b8151805160059081106200058457fe5b60200260200101515b60601b6001600160601b0319166102a05281518051620005c69190600090620005b257fe5b6020026020010151620010db60201b60201c565b6102c05281518051620005e091906001908110620005b257fe5b6102e05281518051620005fa91906002908110620005b257fe5b61030052600381116200060f57600062000625565b620006258260000151600381518110620005b257fe5b61032052600481116200063a57600062000650565b620006508260000151600481518110620005b257fe5b6103405260058111620006655760006200067b565b6200067b8260000151600581518110620005b257fe5b61036052815151600019015b600081118015620006b857508251805130919083908110620006a557fe5b60200260200101516001600160a01b0316115b15620006c8576000190162000687565b6101e08190528251516060906001600160401b0381118015620006ea57600080fd5b5060405190808252806020026020018201604052801562000715578160200160208202803683370190505b50905060008080805b8751518110156200093857858110156200085457876020015181815181106200074357fe5b60200260200101518582815181106200075857fe5b60200260200101906001600160a01b031690816001600160a01b031681525050620007c160006001600160a01b03168683815181106200079457fe5b60200260200101516001600160a01b031614158260060186620011aa60201b6200152c179092919060201c565b935087604001518181518110620007d457fe5b60200260200101511562000849576200082060006001600160a01b0316868381518110620007fe57fe5b60200260200101516001600160a01b0316141561015562000f9360201b60201c565b6200083d60018286620011aa60201b6200152c179092919060201c565b9350600192506200084e565b600191505b6200092f565b8581146200092f57876020015160018203815181106200087057fe5b60200260200101518582815181106200088557fe5b60200260200101906001600160a01b031690816001600160a01b031681525050620008c160006001600160a01b03168683815181106200079457fe5b935087604001516001820381518110620008d757fe5b6020026020010151156200092a576200090160006001600160a01b0316868381518110620007fe57fe5b6200091e60018286620011aa60201b6200152c179092919060201c565b9350600192506200092f565b600191505b6001016200071e565b50811560f890811b610460528115901b61048052835184906000906200095a57fe5b60200260200101516001600160a01b0316610380816001600160a01b031660601b81525050836001815181106200098d57fe5b60200260200101516001600160a01b03166103a0816001600160a01b031660601b8152505083600281518110620009c057fe5b60200260200101516001600160a01b03166103c0816001600160a01b031660601b815250506003845111620009f757600062000a0e565b8360038151811062000a0557fe5b60200260200101515b60601b6001600160601b0319166103e052835160041062000a3157600062000a48565b8360048151811062000a3f57fe5b60200260200101515b60601b6001600160601b03191661040052835160051062000a6b57600062000a82565b8360058151811062000a7957fe5b60200260200101515b60601b6001600160601b0319166104205250506104405250508251516020808501515160408601515162000ac595509293509190620010bb811b6200150f17901c565b805160609062000ad6903062000df9565b8051909150600019015b60008111801562000b165750306001600160a01b031682828151811062000b0357fe5b60200260200101516001600160a01b0316115b1562000b26576000190162000ae0565b6000805b84515181101562000c3f578281141562000b4357600191505b60208501518051828401916000918490811062000b5c57fe5b60200260200101516001600160a01b03161462000c355762000bb6818760200151848151811062000b8957fe5b60200260200101518860400151858151811062000ba257fe5b6020026020010151620011d360201b60201c565b8560200151828151811062000bc757fe5b60200260200101516001600160a01b0316817fdd6d1c9badb346de6925b358a472c937b41698d2632696759e43fd6527feeec48860400151858151811062000c0b57fe5b602002602001015160405162000c22919062001dae565b60405180910390a362000c3581620012ce565b5060010162000b2a565b5050505050600019811460f881901b6104c0526001600160601b0319606084901b166104a05262000c728360026200130d565b62000c7f8360036200130d565b801562000c995762000c938360006200130d565b62000d58565b60405163178b2b9360e21b815262000d2d906001600160a01b03851690635e2cae4c9062000ccd9060009060040162001dae565b60206040518083038186803b15801562000ce657600080fd5b505afa15801562000cfb573d6000803e3d6000fd5b505050506040513d601f19601f8201168201806040525081019062000d21919062001b01565b83111561025862000f93565b600060008051602062007dc38339815191528360405162000d4f919062001dae565b60405180910390a25b8062000d65578162000d68565b60005b6104e0525062001e2092505050565b62000d8162001857565b6040518060600160405280836080015181526020018360a0015181526020018360c0015181525090505b919050565b62000dba62001857565b604051806060016040528062000ddb84608001513062000df960201b60201c565b81526020018360a0015181526020018360e001518152509050919050565b606082516001016001600160401b038111801562000e1657600080fd5b5060405190808252806020026020018201604052801562000e41578160200160208202803683370190505b50905082516000141562000e8457818160008151811062000e5e57fe5b60200260200101906001600160a01b031690816001600160a01b03168152505062000f8d565b82515b60008111801562000ec05750826001600160a01b031684600183038151811062000ead57fe5b60200260200101516001600160a01b0316115b1562000f0d5783600182038151811062000ed657fe5b602002602001015182828151811062000eeb57fe5b6001600160a01b03909216602092830291909101909101526000190162000e87565b60005b8181101562000f5c5784818151811062000f2657fe5b602002602001015183828151811062000f3b57fe5b6001600160a01b039092166020928302919091019091015260010162000f10565b508282828151811062000f6b57fe5b60200260200101906001600160a01b031690816001600160a01b031681525050505b92915050565b8162000fa45762000fa481620014b8565b5050565b600690565b8062000fa481620014cd565b62000fd262000fc762001554565b82101560cb62000f93565b62000feb62000fe06200155d565b82111560ca62000f93565b6200100d8160c0603f6008546200156960201b6200155317909392919060201c565b6008556040517fa9ba3ffe0b6c366b81232caab38605a0699ad5398d6cce76f91ee809e322dafc906200104290839062001dae565b60405180910390a150565b6000828202620010758415806200106d5750838583816200106a57fe5b04145b600362000f93565b9392505050565b6200108a818042806200158e565b7fa0d01593e47e69d07e0ccd87bece09411e07dd1ed40ca8f2e7af2976542a02338160405162001042919062001dae565b620010d68284148015620010ce57508183145b606762000f93565b505050565b60006001600160a01b038216301415620010ff5750670de0b6b3a764000062000dab565b6000826001600160a01b031663313ce5676040518163ffffffff1660e01b815260040160206040518083038186803b1580156200113b57600080fd5b505afa15801562001150573d6000803e3d6000fd5b505050506040513d601f19601f8201168201806040525081019062001176919062001cda565b60ff1690506000620011956012836200160160201b6200157b1760201c565b600a0a670de0b6b3a764000002949350505050565b60006001821b1984168284620011c2576000620011c5565b60015b60ff16901b17949350505050565b6000826001600160a01b031663679aefce6040518163ffffffff1660e01b815260040160206040518083038186803b1580156200120f57600080fd5b505afa15801562001224573d6000803e3d6000fd5b505050506040513d601f19601f820116820180604052508101906200124a919062001b01565b6000858152600a602090815260409091205491925062001279908290849086906200159162001619821b17901c565b6000868152600a602052604090819020919091555185907fb77a83204ca282e08dc3a65b0a1ca32ea4e6875c38ef0bf5bf75e52a67354fac90620012bf90859062001dae565b60405180910390a25050505050565b6000818152600a602090815260409091205490620012f7908290620015c962001675821b17901c565b6000928352600a60205260409092209190915550565b604051631a7c326360e01b81526000906001600160a01b03841690631a7c3263906200133e90859060040162001dae565b60206040518083038186803b1580156200135757600080fd5b505afa1580156200136c573d6000803e3d6000fd5b505050506040513d601f19601f8201168201806040525081019062001392919062001b01565b905081620013d657620013b081620016a060201b620015e11760201c565b600b80546001600160401b0319166001600160401b03929092169190911790556200148a565b60028214156200142c57620013f681620016a060201b620015e11760201c565b600b80546001600160401b03929092166801000000000000000002600160401b600160801b03199092169190911790556200148a565b60038214156200147d576200144c81620016a060201b620015e11760201c565b600b80546001600160401b0392909216600160801b02600160801b600160c01b03199092169190911790556200148a565b6200148a6101bb620014b8565b8160008051602062007dc383398151915282604051620014ab919062001dae565b60405180910390a2505050565b620014ca816210905360ea1b620016be565b50565b600281511015620014de57620014ca565b600081600081518110620014ee57fe5b602002602001015190506000600190505b8251811015620010d65760008382815181106200151857fe5b6020026020010151905062001549816001600160a01b0316846001600160a01b031610606562000f9360201b60201c565b9150600101620014ff565b64e8d4a5100090565b67016345785d8a000090565b6000620015788484846200171f565b506001901b60001901811b1992909216911b1790565b620015a88160c060406200177a60201b620015fe1760201c565b620015c283608060406200177a60201b620015fe1760201c565b620015db856040806200177a60201b620015fe1760201c565b620015f587600060406200177a60201b620015fe1760201c565b17171760095550505050565b60006200161383831115600162000f93565b50900390565b60006200162e606084901c1561014962000f93565b6200166d42830160e06020620016578660c083838c8c600060606200155362001569871b17861c565b6200156960201b6200155317909392919060201c565b949350505050565b600062000f8d62001686836200178f565b606080856200156960201b6200155317909392919060201c565b6000620016ba6001600160401b038311156101ba62000f93565b5090565b62461bcd60e51b600090815260206004526007602452600a808404818106603090810160081b958390069590950190829004918206850160101b01602363ffffff0060e086901c160160181b0190930160c81b60445260e882901c90606490fd5b620017306101008310606462000f93565b62001769600182101580156200176157506200175d60ff8461010003620017af60201b620016111760201c565b8211155b606462000f93565b620010d683821c156101b462000f93565b6000620017898484846200171f565b50501b90565b600062000f8d6000606084620017c760201b62001627179092919060201c565b6000818310620017c0578162001075565b5090919050565b6001901b6000190191901c1690565b828054600181600116156101000203166002900490600052602060002090601f016020900481019282601f106200181957805160ff191683800117855562001849565b8280016001018555821562001849579182015b82811115620018495782518255916020019190600101906200182c565b50620016ba92915062001878565b60405180606001604052806060815260200160608152602001606081525090565b5b80821115620016ba576000815560010162001879565b805162000f8d8162001e0a565b600082601f830112620018ad578081fd5b8151620018c4620018be8262001dde565b62001db7565b818152915060208083019084810181840286018201871015620018e657600080fd5b6000805b8581101562001916578251801515811462001903578283fd5b85529383019391830191600101620018ea565b50505050505092915050565b600082601f83011262001933578081fd5b815162001944620018be8262001dde565b8181529150602080830190848101818402860182018710156200196657600080fd5b60005b84811015620019925781516200197f8162001e0a565b8452928201929082019060010162001969565b505050505092915050565b600082601f830112620019ae578081fd5b8151620019bf620018be8262001dde565b818152915060208083019084810181840286018201871015620019e157600080fd5b60005b8481101562001992578151620019fa8162001e0a565b84529282019290820190600101620019e4565b600082601f83011262001a1e578081fd5b815162001a2f620018be8262001dde565b81815291506020808301908481018184028601820187101562001a5157600080fd5b60005b84811015620019925781518452928201929082019060010162001a54565b600082601f83011262001a83578081fd5b81516001600160401b0381111562001a99578182fd5b602062001aaf601f8301601f1916820162001db7565b9250818352848183860101111562001ac657600080fd5b60005b8281101562001ae657848101820151848201830152810162001ac9565b8281111562001af85760008284860101525b50505092915050565b60006020828403121562001b13578081fd5b5051919050565b60006020828403121562001b2c578081fd5b8151620010758162001e0a565b60006020828403121562001b4b578081fd5b81516001600160401b038082111562001b62578283fd5b81840191506101a080838703121562001b79578384fd5b62001b848162001db7565b905062001b9286846200188f565b815262001ba386602085016200188f565b602082015260408301518281111562001bba578485fd5b62001bc88782860162001a72565b60408301525060608301518281111562001be0578485fd5b62001bee8782860162001a72565b60608301525060808301518281111562001c06578485fd5b62001c148782860162001922565b60808301525060a08301518281111562001c2c578485fd5b62001c3a878286016200199d565b60a08301525060c08301518281111562001c52578485fd5b62001c608782860162001a0d565b60c08301525060e08301518281111562001c78578485fd5b62001c86878286016200189c565b60e0830152506101008381015190820152610120808401519082015261014080840151908201526101608084015190820152610180915062001ccb868385016200188f565b91810191909152949350505050565b60006020828403121562001cec578081fd5b815160ff8116811462001075578182fd5b60006060820185835260206060818501528186518084526080860191508288019350845b8181101562001d495762001d36855162001dfe565b8352938301939183019160010162001d21565b505084810360408601528551808252908201925081860190845b8181101562001d8b5762001d78835162001dfe565b8552938301939183019160010162001d63565b509298975050505050505050565b602081016003831062001da857fe5b91905290565b90815260200190565b6040518181016001600160401b038111828210171562001dd657600080fd5b604052919050565b60006001600160401b0382111562001df4578081fd5b5060209081020190565b6001600160a01b031690565b6001600160a01b0381168114620014ca57600080fd5b60805160a05160c05160e0516101005160601c6101205160601c6101405161016051610180516101a05160601c6101c0516101e0516102005160601c6102205160601c6102405160601c6102605160601c6102805160601c6102a05160601c6102c0516102e051610300516103205161034051610360516103805160601c6103a05160601c6103c05160601c6103e05160601c6104005160601c6104205160601c610440516104605160f81c6104805160f81c6104a05160601c6104c05160f81c6104e051615de562001fde60003980610db15250806108f752508061087752806108a252806108cd5250806146c152508061469d525080612ac85280614352525080611be8525080611bb8525080611b88525080611b58525080611b28525080611af8525080612f58525080612f28525080612ef8525080612ec8525080612e98525080612e68525080611e45525080611e03525080611dc1525080611d7f525080611d3d525080611cfb525080610fda525080611656525080611205525080610bd1525080611acc525080611aa85250806110da5250806110b6525080611012525080612cd6525080612d18525080612cf75250615de56000f3fe608060405234801561001057600080fd5b506004361061036d5760003560e01c806370464016116101d3578063a457c2d711610104578063d505accf116100a2578063ddf4627b1161007c578063ddf4627b146106d0578063eb0f24d6146106d8578063ed24911d146106e0578063f4b7964d146106e85761036d565b8063d505accf14610697578063d5c096c4146106aa578063dd62ed3e146106bd5761036d565b8063ab7759f1116100de578063ab7759f11461066c578063b35056b81461067f578063b7b814fc14610687578063d2946c2b1461068f5761036d565b8063a457c2d71461063e578063a9059cbb14610651578063aaabadc5146106645761036d565b8063851c1bb311610171578063893d20e81161014b578063893d20e8146106065780638d928af81461061b57806390193b7c1461062357806395d89b41146106365761036d565b8063851c1bb3146105d8578063876f303b146105eb57806387ec6817146105f35761036d565b80637ecebe00116101ad5780637ecebe00146105925780637f1260d1146105a557806382687a56146105c85780638456cb59146105d05761036d565b8063704640161461054b57806370a082311461055e57806374f3b009146105715761036d565b8063313ce567116102ad57806350dd6ed91161024b57806355c676281161022557806355c67628146105035780636028bfd41461050b578063679aefce1461052c5780636daccffa146105345761036d565b806350dd6ed9146104d557806354a844ba146104e857806354dea00a146104f05761036d565b806338fff2d01161028757806338fff2d01461049c57806339509351146104a45780633c975d51146104b75780633f4ba83a146104cd5761036d565b8063313ce5671461046c5780633644e5151461048157806338e9922e146104895761036d565b806318160ddd1161031a578063238a2d59116102f4578063238a2d591461041e57806323b872dd146104335780632df2c7c0146104465780632f1a0bc9146104595761036d565b806318160ddd146103ea5780631c0de051146103f25780631dd746ea146104095761036d565b8063095ea7b31161034b578063095ea7b3146103b85780630da0669c146103d857806315b0015b146103e25761036d565b806301ec954a1461037257806304842d4c1461039b57806306fdde03146103a3575b600080fd5b610385610380366004615838565b6106fb565b6040516103929190615be8565b60405180910390f35b6103856107a1565b6103ab6107b0565b6040516103929190615cbe565b6103cb6103c636600461546f565b610846565b6040516103929190615bc5565b6103e061085d565b005b6103cb6108f5565b610385610919565b6103fa61091f565b60405161039293929190615bd0565b610411610948565b6040516103929190615b8d565b610426610952565b6040516103929190615b40565b6103cb6104413660046153bf565b6109ed565b6103e061045436600461536b565b610a61565b6103e0610467366004615987565b610abd565b610474610ba0565b6040516103929190615d29565b610385610ba9565b6103e0610497366004615957565b610bb3565b610385610bcf565b6103cb6104b236600461546f565b610bf3565b6104bf610c2e565b604051610392929190615d00565b6103e0610c59565b6103e06104e3366004615685565b610c6b565b6103e0610c89565b6103856104fe36600461536b565b610c9b565b610385610cb6565b61051e610519366004615586565b610cc9565b604051610392929190615cd1565b610385610d00565b61053c610d6c565b60405161039293929190615cea565b610385610559366004615957565b610d87565b61038561056c36600461536b565b610e4d565b61058461057f366004615586565b610e68565b604051610392929190615ba0565b6103856105a036600461536b565b610f6b565b6105b86105b336600461536b565b610f76565b6040516103929493929190615d0e565b610385610fd8565b6103e0610ffc565b6103856105e6366004615629565b61100e565b610385611060565b61051e610601366004615586565b61108e565b61060e6110b4565b6040516103929190615b2c565b61060e6110d8565b61038561063136600461536b565b6110fc565b6103ab611117565b6103cb61064c36600461546f565b611178565b6103cb61065f36600461546f565b6111b6565b61060e6111c3565b6103cb61067a36600461536b565b6111cd565b6103cb6111e0565b6103e06111f1565b61060e611203565b6103e06106a53660046153ff565b611227565b6105846106b8366004615586565b6112b2565b6103856106cb366004615387565b6113d5565b610385611412565b6103e0611418565b610385611444565b6103e06106f636600461546f565b61144e565b6000846080015161072861070d6110d8565b6001600160a01b0316336001600160a01b03161460cd611636565b61073d610733610bcf565b82146101f4611636565b610745611644565b6107578484610752611654565b611678565b6060610761611690565b905060008751600181111561077257fe5b14610789576107848787878785611729565b610796565b6107968787878785611782565b979650505050505050565b60006107ab6117bd565b905090565b60038054604080516020601f600260001961010060018816150201909516949094049384018190048102820181019092528281526060939092909183018282801561083c5780601f106108115761010080835404028352916020019161083c565b820191906000526020600020905b81548152906001019060200180831161081f57829003601f168201915b5050505050905090565b60006108533384846117c4565b5060015b92915050565b61086561182c565b61086d6108f5565b1561089d5761089d7f00000000000000000000000000000000000000000000000000000000000000006000611899565b6108c87f00000000000000000000000000000000000000000000000000000000000000006002611899565b6108f37f00000000000000000000000000000000000000000000000000000000000000006003611899565b565b7f000000000000000000000000000000000000000000000000000000000000000090565b60025490565b600080600061092c611a89565b159250610937611aa6565b9150610941611aca565b9050909192565b60606107ab611690565b6060600061095e611654565b905060608167ffffffffffffffff8111801561097957600080fd5b506040519080825280602002602001820160405280156109a3578160200160208202803683370190505b50905060005b828110156109e6576109ba81611aee565b8282815181106109c657fe5b6001600160a01b03909216602092830291909101909101526001016109a9565b5091505090565b6000806109fa85336113d5565b9050610a1e336001600160a01b0387161480610a165750838210155b61019e611636565b610a29858585611c17565b336001600160a01b03861614801590610a4457506000198114155b15610a5657610a5685338584036117c4565b506001949350505050565b6000610a6c82611cf7565b90506000610a7982611aee565b9050610a926001600160a01b0382161515610155611636565b6000828152600a6020526040812054610aaa90611e85565b9050610ab7838383611e94565b50505050565b610ac5611f77565b610ad5600183101561012c611636565b610ae661138883111561012d611636565b6000610af2824261157b565b9050610b066201518082101561013d611636565b600080610b11611fbd565b91509150610b22811561013e611636565b6000610b30866103e86114e4565b90506000838211610b5f57610b5a610b4b62015180866114e4565b610b5584886114e4565b612031565b610b79565b610b79610b6f62015180846114e4565b610b5586886114e4565b9050610b8b600282111561013f611636565b610b9784834289612064565b50505050505050565b60055460ff1690565b60006107ab611444565b610bbb611f77565b610bc36120b3565b610bcc816120c6565b50565b7f000000000000000000000000000000000000000000000000000000000000000090565b3360008181526001602090815260408083206001600160a01b03871684529091528120549091610853918590610c29908661213f565b6117c4565b600c546000908190610c438160e96017611627565b9250610c5281600060e9611627565b9150509091565b610c61611f77565b6108f36000612151565b610c73611f77565b610c7b6120b3565b610c8582826121e2565b5050565b610c91611f77565b6108f360016122f0565b6000610cae610ca983611cf7565b612347565b90505b919050565b6008546000906107ab9060c0603f611627565b60006060610cdf8651610cda611654565b61239a565b610cf4898989898989896123a76123c9612432565b97509795505050505050565b60006060600080600080610d126125c9565b9398509196509450925090506000610d2a858561213f565b90506000610d36611fbd565b5090506000848214610d5157610d4c82896126b9565b610d53565b835b9050610d5f818461281b565b9850505050505050505090565b6000806000610d79611fbd565b90949093506103e892509050565b6000610d916111e0565b15610d9e57506000610cb1565b81610dea57610dab6108f5565b610dd5577f0000000000000000000000000000000000000000000000000000000000000000610de3565b600b5467ffffffffffffffff165b9050610cb1565b6002821415610e125750600b5468010000000000000000900467ffffffffffffffff16610cb1565b6003821415610e425750600b54700100000000000000000000000000000000900467ffffffffffffffff16610cb1565b610cb16101bb61286c565b6001600160a01b031660009081526020819052604090205490565b60608088610e7761070d6110d8565b610e82610733610bcf565b60606000610e8f86612896565b15610eb757610e9c6128c5565b610eae89610ea8610919565b886128d8565b92509050610f09565b610ebf611644565b6060610ec9611690565b9050610ed58a8261291c565b610ef98d8d8d8d8d610ee56111e0565b610eef578d610ef2565b60005b878e6123a7565b93509150610f0783826123c9565b505b610f138b82612985565b81895167ffffffffffffffff81118015610f2c57600080fd5b50604051908082528060200260200182016040528015610f56578160200160208202803683370190505b509450945050505b5097509795505050505050565b6000610cae826110fc565b6000806000806000600a6000610f8b88611cf7565b81526020810191909152604001600020549050610fac811515610155611636565b610fb58161298f565b9450610fc08161299d565b9350610fcb816129ab565b9597949650949392505050565b7f000000000000000000000000000000000000000000000000000000000000000090565b611004611f77565b6108f36001612151565b60007f000000000000000000000000000000000000000000000000000000000000000082604051602001611043929190615ab6565b604051602081830303815290604052805190602001209050919050565b600080600061106d6125c9565b50509250925050611087818361213f90919063ffffffff16565b9250505090565b6000606061109f8651610cda611654565b610cf4898989898989896129cd6129de612432565b7f000000000000000000000000000000000000000000000000000000000000000090565b7f000000000000000000000000000000000000000000000000000000000000000090565b6001600160a01b031660009081526006602052604090205490565b60048054604080516020601f600260001961010060018816150201909516949094049384018190048102820181019092528281526060939092909183018282801561083c5780601f106108115761010080835404028352916020019161083c565b60008061118533856113d5565b905080831061119f5761119a338560006117c4565b6111ac565b6111ac33858584036117c4565b5060019392505050565b6000610853338484611c17565b60006107ab612a47565b6000610cae6111db83611cf7565b612ac1565b6008546000906107ab9060ff612ae9565b6111f9611f77565b6108f360006122f0565b7f000000000000000000000000000000000000000000000000000000000000000090565b60007f6e71edae12b1b97f4d1f60370fef10105fa2faae0126114a169c64845d6126c98888886112568c6110fc565b8960405160200161126c96959493929190615c10565b60405160208183030381529060405280519060200120905061129d8882611294878787612af3565b886101f8612b32565b6112a88888886117c4565b5050505050505050565b606080886112c161070d6110d8565b6112cc610733610bcf565b6112d4611644565b60606112de611690565b90506112e8610919565b61139557600060606112fd8d8d8d868b612b89565b9150915061131661130c6117bd565b83101560cc611636565b61132860006113236117bd565b612c62565b61133b8b6113346117bd565b8403612c62565b61134581846129de565b808a5167ffffffffffffffff8111801561135e57600080fd5b50604051908082528060200260200182016040528015611388578160200160208202803683370190505b5095509550505050610f5e565b61139f888261291c565b600060606113c78d8d8d8d8d6113b36111e0565b6113bd578d6113c0565b60005b898e6129cd565b9150915061133b8b83612c62565b60006113df6110d8565b6001600160a01b0316826001600160a01b031614156114015750600019610857565b61140b8383612c6c565b9050610857565b60001981565b611420611f77565b60008061142b611fbd565b9150915061143b81610140611636565b610c8582612c97565b60006107ab612cd2565b611456611f77565b600061146183611cf7565b9050600061146e82611aee565b90506114876001600160a01b0382161515610155611636565b611492828285611e94565b806001600160a01b0316827fdd6d1c9badb346de6925b358a472c937b41698d2632696759e43fd6527feeec4856040516114cc9190615be8565b60405180910390a350505050565b80610c8581612d6f565b60008282026115088415806115015750838583816114fe57fe5b04145b6003611636565b9392505050565b611527828414801561152057508183145b6067611636565b505050565b60006001821b1984168284611542576000611545565b60015b60ff16901b17949350505050565b6000611560848484612de8565b5082821b6000196001831b01831b198516175b949350505050565b600061158b838311156001611636565b50900390565b60006115a4606084901c15610149611636565b61157342830160e060206115c18660c083838c8c60006060611553565b929190611553565b6000610cae6115d78361298f565b8390606080611553565b60006115fa67ffffffffffffffff8311156101ba611636565b5090565b600061160b848484612de8565b50501b90565b60008183106116205781611508565b5090919050565b6001901b6000190191901c1690565b81610c8557610c858161286c565b61164c612e2e565b6108f3612e36565b7f000000000000000000000000000000000000000000000000000000000000000090565b611527818410801561168957508183105b6064611636565b6060600061169c611654565b905060608167ffffffffffffffff811180156116b757600080fd5b506040519080825280602002602001820160405280156116e1578160200160208202803683370190505b50905060005b828110156109e65761170a6116fb82612347565b61170483612e5e565b90612f7c565b82828151811061171657fe5b60209081029190910101526001016116e7565b60208501516000906001600160a01b0316301480611753575060408601516001600160a01b031630145b611769576117648686868686612fa8565b611776565b6117768686868686613012565b90505b95945050505050565b60208501516000906001600160a01b03163014806117ac575060408601516001600160a01b031630145b611769576117648686868686613116565b620f424090565b6001600160a01b0380841660008181526001602090815260408083209487168084529490915290819020849055517f8c5be1e5ebec7d5bd14f71427d1e84f3dd0314c0f7b2291e5b200ac8c7c3b9259061181f908590615be8565b60405180910390a3505050565b6118346120b3565b606060008060006118436125c9565b945094509450509350600083111561185e5761185e8361316d565b6000611868611fbd565b50905060008382146118835761187e82876126b9565b611885565b825b9050611891828261317e565b505050505050565b6040517f1a7c32630000000000000000000000000000000000000000000000000000000081526000906001600160a01b03841690631a7c3263906118e1908590600401615be8565b60206040518083038186803b1580156118f957600080fd5b505afa15801561190d573d6000803e3d6000fd5b505050506040513d601f19601f82011682018060405250810190611931919061596f565b90508161197f57611941816115e1565b600b80547fffffffffffffffffffffffffffffffffffffffffffffffff00000000000000001667ffffffffffffffff92909216919091179055611a4c565b60028214156119dc57611991816115e1565b600b805467ffffffffffffffff9290921668010000000000000000027fffffffffffffffffffffffffffffffff0000000000000000ffffffffffffffff909216919091179055611a4c565b6003821415611a41576119ee816115e1565b600b805467ffffffffffffffff92909216700100000000000000000000000000000000027fffffffffffffffff0000000000000000ffffffffffffffffffffffffffffffff909216919091179055611a4c565b611a4c6101bb61286c565b817f6bfb689528fa96ec1ad670ad6d6064be1ae96bfd5d2ee35c837fd0fe0c11959a82604051611a7c9190615be8565b60405180910390a2505050565b6000611a93611aca565b4211806107ab57505060075460ff161590565b7f000000000000000000000000000000000000000000000000000000000000000090565b7f000000000000000000000000000000000000000000000000000000000000000090565b600081611b1c57507f0000000000000000000000000000000000000000000000000000000000000000610cb1565b8160011415611b4c57507f0000000000000000000000000000000000000000000000000000000000000000610cb1565b8160021415611b7c57507f0000000000000000000000000000000000000000000000000000000000000000610cb1565b8160031415611bac57507f0000000000000000000000000000000000000000000000000000000000000000610cb1565b8160041415611bdc57507f0000000000000000000000000000000000000000000000000000000000000000610cb1565b8160051415611c0c57507f0000000000000000000000000000000000000000000000000000000000000000610cb1565b610cb161013561286c565b611c2e6001600160a01b0384161515610198611636565b611c456001600160a01b0383161515610199611636565b611c50838383611527565b6001600160a01b038316600090815260208190526040902054611c7690826101a06131a4565b6001600160a01b038085166000908152602081905260408082209390935590841681522054611ca5908261213f565b6001600160a01b0380841660008181526020819052604090819020939093559151908516907fddf252ad1be2c89b69c2b068fc378daa952ba7f163c4a11628f55a4df523b3ef9061181f908590615be8565b60007f00000000000000000000000000000000000000000000000000000000000000006001600160a01b0316826001600160a01b03161415611d3b57506000610cb1565b7f00000000000000000000000000000000000000000000000000000000000000006001600160a01b0316826001600160a01b03161415611d7d57506001610cb1565b7f00000000000000000000000000000000000000000000000000000000000000006001600160a01b0316826001600160a01b03161415611dbf57506002610cb1565b7f00000000000000000000000000000000000000000000000000000000000000006001600160a01b0316826001600160a01b03161415611e0157506003610cb1565b7f00000000000000000000000000000000000000000000000000000000000000006001600160a01b0316826001600160a01b03161415611e4357506004610cb1565b7f00000000000000000000000000000000000000000000000000000000000000006001600160a01b0316826001600160a01b03161415611c0c57506005610cb1565b6000610cae8260c06020611627565b6000826001600160a01b031663679aefce6040518163ffffffff1660e01b815260040160206040518083038186803b158015611ecf57600080fd5b505afa158015611ee3573d6000803e3d6000fd5b505050506040513d601f19601f82011682018060405250810190611f07919061596f565b6000858152600a6020526040902054909150611f24818385611591565b6000868152600a602052604090819020919091555185907fb77a83204ca282e08dc3a65b0a1ca32ea4e6875c38ef0bf5bf75e52a67354fac90611f68908590615be8565b60405180910390a25050505050565b6000611fa66000357fffffffff000000000000000000000000000000000000000000000000000000001661100e565b9050610bcc611fb582336131ba565b610191611636565b600080600080600080611fce6132a3565b935093509350935080421015612021576001945083831115612005578181038242038585030281611ffb57fe5b048401955061201c565b818103824203848603028161201657fe5b04840395505b612029565b600094508295505b505050509091565b60006120408215156004611636565b8261204d57506000610857565b81600184038161205957fe5b046001019050610857565b61207084848484613302565b7f1835882ee7a34ac194f717a35e09bb1d24c82a3b9d854ab6c9749525b714cdf2848484846040516120a59493929190615d0e565b60405180910390a150505050565b6108f36120be611a89565b610192611636565b6120db6120d1613341565b82101560cb611636565b6120f06120e661334a565b82111560ca611636565b600854612101908260c0603f611553565b6008556040517fa9ba3ffe0b6c366b81232caab38605a0699ad5398d6cce76f91ee809e322dafc90612134908390615be8565b60405180910390a150565b60008282016115088482101583611636565b80156121715761216c612162611aa6565b4210610193611636565b612186565b61218661217c611aca565b42106101a9611636565b600780547fffffffffffffffffffffffffffffffffffffffffffffffffffffffffffffff00168215151790556040517f9e3a5e37224532dea67b89face185703738a228a6e8a23dee546960180d3be6490612134908390615bc5565b60006121ec610bcf565b905060006121f86110d8565b6001600160a01b031663b05f8e4883866040518363ffffffff1660e01b8152600401612225929190615c89565b60806040518083038186803b15801561223d57600080fd5b505afa158015612251573d6000803e3d6000fd5b505050506040513d601f19601f8201168201806040525081019061227591906159a8565b6040517f18e736d40000000000000000000000000000000000000000000000000000000081529094506001600160a01b03851693506318e736d492506122c2915085908790600401615c70565b600060405180830381600087803b1580156122dc57600080fd5b505af11580156112a8573d6000803e3d6000fd5b6008546122ff908260ff61152c565b6008556040517feff3d4d215b42bf0960be9c6d5e05c22cba4df6627a3a523e2acee733b5854c890612332908390615bc5565b60405180910390a180610bcc57610bcc613356565b6000612351610fd8565b8214156123675750670de0b6b3a7640000610cb1565b6000828152600a6020526040902054801561238a576123858161298f565b611508565b670de0b6b3a76400009392505050565b610c858183146067611636565b600060606123b86000888686613428565b915091509850989650505050505050565b815181516123d890829061239a565b60005b81811015610ab7576124138482815181106123f257fe5b602002602001015184838151811061240657fe5b602002602001015161281b565b84828151811061241f57fe5b60209081029190910101526001016123db565b333014612521576000306001600160a01b0316600036604051612456929190615ae6565b6000604051808303816000865af19150503d8060008114612493576040519150601f19603f3d011682016040523d82523d6000602084013e612498565b606091505b5050905080600081146124a757fe5b60046000803e6000517fffffffff00000000000000000000000000000000000000000000000000000000167f43adbafb000000000000000000000000000000000000000000000000000000008114612503573d6000803e3d6000fd5b506020600460003e604060205260243d03602460403e601c3d016000f35b612529611644565b6060612533611690565b905061253f878261291c565b600060606125578c8c8c8c8c8c898d8d63ffffffff16565b9150915061256981848663ffffffff16565b8051601f1982018390526343adbafb7fffffffffffffffffffffffffffffffffffffffffffffffffffffffffffffffc08301526020027fffffffffffffffffffffffffffffffffffffffffffffffffffffffffffffffdc82016044820181fd5b606060008060008060606125db6110d8565b6001600160a01b031663f94d46686125f1610bcf565b6040518263ffffffff1660e01b815260040161260d9190615be8565b60006040518083038186803b15801561262557600080fd5b505afa158015612639573d6000803e3d6000fd5b505050506040513d6000823e601f3d908101601f19168201604052612661919081019061549a565b5091505061267681612671611690565b61291c565b61267f816134d6565b96509450600061268d610c2e565b9094509050600061269f88868461350f565b945090506126ad878261359c565b95505050509091929394565b80516000908190815b818110156126fa576126f08582815181106126d957fe5b60200260200101518461213f90919063ffffffff16565b92506001016126c2565b508161270b57600092505050610857565b600082868302825b60ff811015612804578260005b868110156127615761275761273583876114e4565b6127528c848151811061274457fe5b60200260200101518a6114e4565b6135ba565b9150600101612720565b508394506127ba612799612793612778848a6114e4565b61278d612785888d6114e4565b6103e86135ba565b9061213f565b866114e4565b6127526127a989600101856114e4565b61278d6127856103e889038a6114e4565b9350848411156127e2576001858503116127dd5783975050505050505050610857565b6127fb565b6001848603116127fb5783975050505050505050610857565b50600101612713565b5061281061014161286c565b505050505092915050565b600061282a8215156004611636565b8261283757506000610857565b670de0b6b3a76400008381029061285a9085838161285157fe5b04146005611636565b82818161286357fe5b04915050610857565b610bcc817f42414c00000000000000000000000000000000000000000000000000000000006135da565b6000808251118015610cae575060ff8016828060200190518101906128bb91906159e8565b60ff161492915050565b6108f36128d06111e0565b6101b6611636565b60006060600060606128e9876134d6565b91509150600060606128fc838589613655565b915091508161290c826000613681565b9550955050505050935093915050565b8151815161292b90829061239a565b60005b81811015610ab75761296684828151811061294557fe5b602002602001015184838151811061295957fe5b6020026020010151612f7c565b84828151811061297257fe5b602090810291909101015260010161292e565b610c85828261373e565b6000610cae82826060611627565b6000610cae82606080611627565b6000806129b783611e85565b91506129c68360e06020611627565b9050915091565b600060606123b86001888686613428565b815181516129ed90829061239a565b60005b81811015610ab757612a28848281518110612a0757fe5b6020026020010151848381518110612a1b57fe5b602002602001015161380a565b848281518110612a3457fe5b60209081029190910101526001016129f0565b6000612a516110d8565b6001600160a01b031663aaabadc56040518163ffffffff1660e01b815260040160206040518083038186803b158015612a8957600080fd5b505afa158015612a9d573d6000803e3d6000fd5b505050506040513d601f19601f820116820180604052508101906107ab9190615669565b6000610cae7f0000000000000000000000000000000000000000000000000000000000000000835b1c60019081161490565b60408051604180825260808201909252606091829190602082018180368337019050509050836020820152826040820152846060820153949350505050565b6000612b3d85613858565b9050612b53612b4d878387613874565b83611636565b612b62428410156101b8611636565b5050506001600160a01b039092166000908152600660205260409020805460010190555050565b600060606000612b9884613923565b9050612bb36000826002811115612bab57fe5b1460ce611636565b6060612bbe85613939565b9050612bcc8151875161239a565b612bd6818761291c565b6000612be0611fbd565b5090506060612bee8361394f565b90506000612bfc83836126b9565b9050806000612c196d80000000000000000000000000008361157b565b9050612c258d82612c62565b8086612c2f610fd8565b81518110612c3957fe5b602002602001018181525050612c4f858461317e565b509c939b50929950505050505050505050565b610c8582826139f1565b6001600160a01b03918216600090815260016020908152604080832093909416825291909152205490565b612ca381824242613302565b7fa0d01593e47e69d07e0ccd87bece09411e07dd1ed40ca8f2e7af2976542a0233816040516121349190615be8565b60007f00000000000000000000000000000000000000000000000000000000000000007f00000000000000000000000000000000000000000000000000000000000000007f0000000000000000000000000000000000000000000000000000000000000000612d3f613a7e565b30604051602001612d54959493929190615c44565b60405160208183030381529060405280519060200120905090565b600281511015612d7e57610bcc565b600081600081518110612d8d57fe5b602002602001015190506000600190505b8251811015611527576000838281518110612db557fe5b60200260200101519050612dde816001600160a01b0316846001600160a01b0316106065611636565b9150600101612d9e565b612df761010083106064611636565b612e1f600182101580156116895750612e1560ff8461010003611611565b8211156064611636565b61152783821c156101b4611636565b6108f36120b3565b6000612e40611654565b905060005b81811015610c8557612e5681613a82565b600101612e45565b600081612e8c57507f0000000000000000000000000000000000000000000000000000000000000000610cb1565b8160011415612ebc57507f0000000000000000000000000000000000000000000000000000000000000000610cb1565b8160021415612eec57507f0000000000000000000000000000000000000000000000000000000000000000610cb1565b8160031415612f1c57507f0000000000000000000000000000000000000000000000000000000000000000610cb1565b8160041415612f4c57507f0000000000000000000000000000000000000000000000000000000000000000610cb1565b8160051415611c0c57507f0000000000000000000000000000000000000000000000000000000000000000610cb1565b6000828202612f968415806115015750838583816114fe57fe5b670de0b6b3a764000090049392505050565b6000612fb4858361291c565b612fd58660600151838581518110612fc857fe5b6020026020010151613ad6565b60608701526000612fe887878787613ae2565b905061300781848781518110612ffa57fe5b6020026020010151613af6565b905061079681613b02565b600080808751600181111561302357fe5b149050613030868461291c565b613050876060015184836130445786613046565b875b81518110612fc857fe5b876060018181525050600060606000806130698a613b1e565b935093509350935060008061307c610fd8565b8a146130a25761309d878e60600151876130958e613b87565b888b89613bbc565b6130bd565b6130bd878e60600151876130b58f613b87565b888b89613bf5565b915091506130ce8486858985613c19565b866130e8576130e3828a8d81518110612ffa57fe5b613105565b613105828a8c815181106130f857fe5b6020026020010151613c99565b9d9c50505050505050505050505050565b60006131258660600151613ca5565b6060870152613134858361291c565b6131488660600151838681518110612fc857fe5b6060870152600061315b87878787613cc6565b9050610796818486815181106130f857fe5b610bcc613178611203565b82612c62565b61318b81600060e96115fe565b6131988360e960176115fe565b17600c55610c85613cda565b60006131b38484111583611636565b5050900390565b600073ba1ba1ba1ba1ba1ba1ba1ba1ba1ba1ba1ba1ba1b6131d96110b4565b6001600160a01b0316141580156131f457506131f483613d10565b1561321c576132016110b4565b6001600160a01b0316336001600160a01b0316149050610857565b613224612a47565b6001600160a01b0316639be2a8848484306040518463ffffffff1660e01b815260040161325393929190615bf1565b60206040518083038186803b15801561326b57600080fd5b505afa15801561327f573d6000803e3d6000fd5b505050506040513d601f19601f8201168201806040525081019061140b9190615566565b6000806000806132c2600060406009546116279092919063ffffffff16565b6009549094506132d490604080611627565b6009549093506132e79060806040611627565b6009549092506132fa9060c06040611627565b905090919293565b61330f8160c060406115fe565b61331c83608060406115fe565b613328856040806115fe565b61333587600060406115fe565b17171760095550505050565b64e8d4a5100090565b67016345785d8a000090565b60606133606110d8565b6001600160a01b031663f94d4668613376610bcf565b6040518263ffffffff1660e01b81526004016133929190615be8565b60006040518083038186803b1580156133aa57600080fd5b505afa1580156133be573d6000803e3d6000fd5b505050506040513d6000823e601f3d908101601f191682016040526133e6919081019061549a565b509150506133f681612671611690565b60606134018261394f565b9050600061340d611fbd565b509050600061341c82846126b9565b9050610ab7828261317e565b600060606000606060008061343c89613b1e565b935093509350935061521a8a61345457613d1b613458565b613d915b905060006060613470868689878f8f8963ffffffff16565b9150915061521a8d6134845761157b613488565b61213f5b9050613495878383613df0565b60006134a589858463ffffffff16565b90506134b48789888c85613c19565b836134c0846000613681565b9a509a5050505050505050505094509492505050565b600060606134fd836134e6610fd8565b815181106134f057fe5b6020026020010151613e64565b6135068461394f565b91509150915091565b60008060008060006135218888613e78565b925092509250600086841161353757600061353b565b8684035b9050600084841161354d576000613551565b8484035b9050600061356c6135626000610d87565b611704858761281b565b9050600061358761357d6002610d87565b611704858861281b565b919091019b939a509298505050505050505050565b60006115086135aa83613efa565b6135b48585612f7c565b9061281b565b60006135c98215156004611636565b8183816135d257fe5b049392505050565b7f08c379a000000000000000000000000000000000000000000000000000000000600090815260206004526007602452600a808404818106603090810160081b958390069590950190829004918206850160101b01602363ffffff0060e086901c160160181b0190930160c81b60445260e882901c90606490fd5b60006060600061366484613f20565b90506060613673878784613f36565b919791965090945050505050565b6060825160010167ffffffffffffffff8111801561369e57600080fd5b506040519080825280602002602001820160405280156136c8578160200160208202803683370190505b50905060005b8151811015613737576136df610fd8565b811461371657836136ee610fd8565b82106136fd57600182036136ff565b815b8151811061370957fe5b6020026020010151613718565b825b82828151811061372457fe5b60209081029190910101526001016136ce565b5092915050565b6137556001600160a01b038316151561019b611636565b61376182600083611527565b6001600160a01b03821660009081526020819052604090205461378790826101b26131a4565b6001600160a01b0383166000908152602081905260409020556137ba6137b5826137af610919565b90613fe5565b613ff3565b60006001600160a01b0316826001600160a01b03167fddf252ad1be2c89b69c2b068fc378daa952ba7f163c4a11628f55a4df523b3ef836040516137fe9190615be8565b60405180910390a35050565b60006138198215156004611636565b8261382657506000610857565b670de0b6b3a7640000838102906138409085838161285157fe5b82600182038161384c57fe5b04600101915050610857565b6000613862612cd2565b82604051602001611043929190615af6565b600061388682516041146101b9611636565b60208281015160408085015160608601518251600080825295019283905292939092811a916001906138bf908990859088908890615ca0565b6020604051602081039080840390855afa1580156138e1573d6000803e3d6000fd5b5050604051601f1901519150506001600160a01b038116158015906139175750876001600160a01b0316816001600160a01b0316145b98975050505050505050565b600081806020019051810190610cae919061576c565b6060818060200190518101906115089190615787565b606080600183510367ffffffffffffffff8111801561396d57600080fd5b50604051908082528060200260200182016040528015613997578160200160208202803683370190505b50905060005b815181101561373757836139af610fd8565b82106139be57816001016139c0565b815b815181106139ca57fe5b60200260200101518282815181106139de57fe5b602090810291909101015260010161399d565b6139fd60008383611527565b613a0c6137b58261278d610919565b6001600160a01b038216600090815260208190526040902054613a2f908261213f565b6001600160a01b0383166000818152602081905260408082209390935591519091907fddf252ad1be2c89b69c2b068fc378daa952ba7f163c4a11628f55a4df523b3ef906137fe908590615be8565b4690565b613a8a610fd8565b811415613a9657610bcc565b6000818152600a60205260409020548015610c8557600080613ab7836129ab565b9150915080421115610ab757610ab784613ad086611aee565b84611e94565b60006115088383612f7c565b600061177960008660600151868686613ff8565b6000611508838361380a565b6000610cae613b17613b12610cb6565b613efa565b839061380a565b60006060600080600080613b30610c2e565b91509150600060606000613b458a868661406a565b9250925092506000613b55611fbd565b5090506000868214613b7057613b6b82856126b9565b613b72565b825b949c939b509099509297509095505050505050565b6000613b9e613b94610fd8565b8314156064611636565b613ba6610fd8565b82106115fa57613bb782600161157b565b610cae565b60008088613bd757613bd28888888888886140c2565b613be5565b613be5888888888888614199565b9150915097509795505050505050565b60008088613c0b57613bd28888888888886141fa565b613be5888888888888614260565b6000613c2586866126b9565b90506000613c33838561281b565b90506000613c418683612f7c565b905080831115613c8f578083036000613c6b613c6583613c6084610d87565b6114e4565b866135ba565b90508015613c8c576000613c7f878361359c565b9050613c8a8161316d565b505b50505b6112a8888461317e565b6000611508838361281b565b600080613cba613cb3610cb6565b849061430f565b9050611508838261157b565b600061177960018660600151868686613ff8565b6000613ce4611654565b905060005b81811015610c8557613cfa8161434b565b15613d0857613d088161437a565b600101613ce9565b6000610cae826143a8565b600060606000613d2a846143b3565b90506001816001811115613d3a57fe5b1415613d5857613d4e87878a8c89896143c9565b9250925050613d86565b6000816001811115613d6657fe5b1415613d7957613d4e87878a8c88614428565b613d8461015061286c565b505b965096945050505050565b600060606000613da084613923565b90506001816002811115613db057fe5b1415613dc457613d4e87878a8c89896144c9565b6002816002811115613dd257fe5b1415613de557613d4e87878a8c88614518565b613d8461013661286c565b82518251613dff90829061239a565b60005b81811015613e5d57613e3e858281518110613e1957fe5b6020026020010151858381518110613e2d57fe5b60200260200101518563ffffffff16565b858281518110613e4a57fe5b6020908102919091010152600101613e02565b5050505050565b6000610cae82613e72610919565b9061157b565b6000806000613e9184613e8c876001614592565b6126b9565b9250613e9b61469b565b15613eb457613eaa84866126b9565b9150819050613ef3565b613ebc6146bf565b15613ed557829150613ece84866126b9565b9050613ef3565b613ee484613e8c876000614592565b9150613ef084866126b9565b90505b9250925092565b6000670de0b6b3a76400008210613f12576000610cae565b50670de0b6b3a76400000390565b6000818060200190518101906115089190615a04565b60606000613f44838561281b565b9050845167ffffffffffffffff81118015613f5e57600080fd5b50604051908082528060200260200182016040528015613f88578160200160208202803683370190505b50915060005b8551811015613fdc57613fbd82878381518110613fa757fe5b6020026020010151612f7c90919063ffffffff16565b838281518110613fc957fe5b6020908102919091010152600101613f8e565b50509392505050565b6000611508838360016131a4565b600255565b600060606140058561394f565b9050600061401285613b87565b9050600061401f85613b87565b9050600061402b611fbd565b509050600061403a82866126b9565b90508a1561405c57614050828686868e866146e3565b95505050505050611779565b614050828686868e8661476e565b60006060600080606061407c886134d6565b9150915060008061408e838a8a61350f565b91509150600061409e858461359c565b905080156140af576140af8161316d565b9390930199919850919650945050505050565b6000806060875167ffffffffffffffff811180156140df57600080fd5b50604051908082528060200260200182016040528015614109578160200160208202803683370190505b5090508881888151811061411957fe5b602002602001018181525050600061413c878a848989614137610cb6565b614801565b90506141648a8a8a8151811061414e57fe5b602002602001015161157b90919063ffffffff16565b89898151811061417057fe5b60209081029190910101526000614187878361157b565b919b919a509098505050505050505050565b60008060006141b48689898c89896141af610cb6565b614a91565b90506141c68189898151811061414e57fe5b8888815181106141d257fe5b602090810291909101015260006141e9868b61157b565b919a91995090975050505050505050565b60008060006142158689898c8989614210610cb6565b614b80565b905061423d8189898151811061422757fe5b602002602001015161213f90919063ffffffff16565b88888151811061424957fe5b602090810291909101015260006141e9868b61213f565b6000806060875167ffffffffffffffff8111801561427d57600080fd5b506040519080825280602002602001820160405280156142a7578160200160208202803683370190505b509050888188815181106142b757fe5b60200260200101818152505060006142da878a8489896142d5610cb6565b614c4d565b90506142ec8a8a8a8151811061422757fe5b8989815181106142f857fe5b60209081029190910101526000614187878361213f565b60008282026143298415806115015750838583816114fe57fe5b80614338576000915050610857565b670de0b6b3a7640000600019820161384c565b6000610cae7f000000000000000000000000000000000000000000000000000000000000000060068401612ae9565b6000818152600a6020526040902054614392816115c9565b6000928352600a60205260409092209190915550565b6000610cae82614ec8565b600081806020019051810190610cae91906156d3565b600060608060006143d985614f04565b915091506143e98251885161239a565b6143f6826126718861394f565b60006144088989858e8e614137610cb6565b90506144188282111560cf611636565b9a91995090975050505050505050565b6000606060008061443885614f27565b9150915061444a865182106064611636565b6060865167ffffffffffffffff8111801561446457600080fd5b5060405190808252806020026020018201604052801561448e578160200160208202803683370190505b5090506144a2888884868e8e6141af610cb6565b8183815181106144ae57fe5b60209081029190910101529199919850909650505050505050565b600060608060006144d985614f3e565b915091506144e98751835161239a565b6144f6826126718861394f565b60006145088989858e8e6142d5610cb6565b90506144188282101560d0611636565b6000606060008061452885614f56565b9150915061453a865182106064611636565b6060865167ffffffffffffffff8111801561455457600080fd5b5060405190808252806020026020018201604052801561457e578160200160208202803683370190505b5090506144a2888884868e8e614210610cb6565b8151606090818167ffffffffffffffff811180156145af57600080fd5b506040519080825280602002602001820160405280156145d9578160200160208202803683370190505b50905060005b828110156146925760006145f1610fd8565b8210156145fe5781614603565b816001015b905061460e81612ac1565b80614625575085801561462557506146258161434b565b6146425786828151811061463557fe5b6020026020010151614672565b61467287838151811061465157fe5b6020026020010151600a600084815260200190815260200160002054614f6d565b83838151811061467e57fe5b6020908102919091010152506001016145df565b50949350505050565b7f000000000000000000000000000000000000000000000000000000000000000090565b7f000000000000000000000000000000000000000000000000000000000000000090565b60006146f58387878151811061422757fe5b86868151811061470157fe5b602002602001018181525050600061471b88888588614f88565b90508387878151811061472a57fe5b60200260200101510387878151811061473f57fe5b6020026020010181815250506147606001613e72838a898151811061414e57fe5b9150505b9695505050505050565b60006147808387868151811061414e57fe5b86858151811061478c57fe5b60200260200101818152505060006147a688888589614f88565b9050838786815181106147b557fe5b6020026020010151018786815181106147ca57fe5b602002602001018181525050614760600161278d8989815181106147ea57fe5b60200260200101518461157b90919063ffffffff16565b600080805b875181101561483f5761483588828151811061481e57fe5b60200260200101518361213f90919063ffffffff16565b9150600101614806565b506060865167ffffffffffffffff8111801561485a57600080fd5b50604051908082528060200260200182016040528015614884578160200160208202803683370190505b5090506000805b89518110156149515760006148bc858c84815181106148a657fe5b602002602001015161380a90919063ffffffff16565b90506148fe8b83815181106148cd57fe5b60200260200101516148f88c85815181106148e457fe5b60200260200101518e868151811061414e57fe5b9061380a565b84838151811061490a57fe5b60200260200101818152505061494661493f8286858151811061492957fe5b602002602001015161430f90919063ffffffff16565b849061213f565b92505060010161488b565b506060895167ffffffffffffffff8111801561496c57600080fd5b50604051908082528060200260200182016040528015614996578160200160208202803683370190505b50905060005b8a51811015614a615760008482815181106149b357fe5b6020026020010151841115614a1a5760006149dc6149d086613efa565b8e8581518110613fa757fe5b905060006149f0828e868151811061414e57fe5b9050614a11614a0a82670de0b6b3a76400008d900361380a565b839061213f565b92505050614a31565b8a8281518110614a2657fe5b602002602001015190505b614a41818d848151811061414e57fe5b838381518110614a4d57fe5b60209081029190910101525060010161499c565b506000614a6e8c836126b9565b90506000614a7c828a61281b565b9050613105614a8a82613efa565b8b9061430f565b600080614aac84614aa6876148f8818b61157b565b9061430f565b90506000614abc8a8a848b614f88565b90506000614ad0828b8b8151811061414e57fe5b90506000805b8b51811015614af857614aee8c828151811061481e57fe5b9150600101614ad6565b506000614b21828d8d81518110614b0b57fe5b602002602001015161281b90919063ffffffff16565b90506000614b2e82613efa565b90506000614b3c858361430f565b90506000614b4a868361157b565b9050614b6b614b6483670de0b6b3a76400008d9003612f7c565b829061213f565b98505050505050505050979650505050505050565b600080614b9584614aa6876148f8818b61213f565b90506000614ba58a8a848b614f88565b90506000614bcf8a8a81518110614bb857fe5b60200260200101518361157b90919063ffffffff16565b90506000805b8b51811015614bf757614bed8c828151811061481e57fe5b9150600101614bd5565b506000614c0a828d8d81518110614b0b57fe5b90506000614c1782613efa565b90506000614c25858361430f565b90506000614c33868361157b565b9050614b6b614b6483670de0b6b3a76400008d900361380a565b600080805b8751811015614c7457614c6a88828151811061481e57fe5b9150600101614c52565b506060865167ffffffffffffffff81118015614c8f57600080fd5b50604051908082528060200260200182016040528015614cb9578160200160208202803683370190505b5090506000805b8951811015614d4d576000614cdb858c8481518110614b0b57fe5b9050614d178b8381518110614cec57fe5b60200260200101516135b48c8581518110614d0357fe5b60200260200101518e868151811061422757fe5b848381518110614d2357fe5b602002602001018181525050614d4261493f82868581518110613fa757fe5b925050600101614cc0565b506060895167ffffffffffffffff81118015614d6857600080fd5b50604051908082528060200260200182016040528015614d92578160200160208202803683370190505b50905060005b8a51811015614e5357600083858381518110614db057fe5b60200260200101511115614e0c576000614dd56149d086670de0b6b3a764000061157b565b90506000614de9828e868151811061414e57fe5b9050614e03614a0a82670de0b6b3a76400008d9003612f7c565b92505050614e23565b8a8281518110614e1857fe5b602002602001015190505b614e33818d848151811061422757fe5b838381518110614e3f57fe5b602090810291909101015250600101614d98565b506000614e608c836126b9565b90506000614e6e828a61281b565b9050670de0b6b3a7640000811115614eb957614eac8a7ffffffffffffffffffffffffffffffffffffffffffffffffff21f494c589c00008301612f7c565b9650505050505050614764565b60009650505050505050614764565b6000614ef37ff4b7964d0000000000000000000000000000000000000000000000000000000061100e565b821480610cae5750610cae82615145565b6060600082806020019051810190614f1c91906156ef565b909590945092505050565b60008082806020019051810190614f1c9190615736565b6060600082806020019051810190614f1c91906157ca565b60008082806020019051810190614f1c9190615803565b6000611508614f7f84613c608561299d565b6127528461298f565b600080845186029050600085600081518110614fa057fe5b602002602001015190506000865187600081518110614fbb57fe5b60200260200101510290506000600190505b875181101561502157615006615000614ff9848b8581518110614fec57fe5b60200260200101516114e4565b8a516114e4565b886135ba565b91506150178882815181106126d957fe5b9250600101614fcd565b5086858151811061502e57fe5b602002602001015182039150600061504687886114e4565b9050600061507261506661505e84610b5589886114e4565b6103e86114e4565b8a8981518110614fec57fe5b9050600061508d61508661505e8b896135ba565b869061213f565b90506000806150a961509f868661213f565b610b558d8661213f565b905060005b60ff811015615129578192506150de6150cb8661278d85866114e4565b610b558e613e728861278d8860026114e4565b91508282111561510757600183830311615102575097506115739650505050505050565b615121565b600182840311615121575097506115739650505050505050565b6001016150ae565b5061513561014261286c565b5050505050505050949350505050565b60006151707f2f1a0bc90000000000000000000000000000000000000000000000000000000061100e565b8214806151a457506151a17feb0f24d60000000000000000000000000000000000000000000000000000000061100e565b82145b80610cae5750610cae8260006151d97f38e9922e0000000000000000000000000000000000000000000000000000000061100e565b82148061520d575061520a7f50dd6ed90000000000000000000000000000000000000000000000000000000061100e565b82145b80610cae57506000610cae565bfe5b803561085781615d7e565b600082601f830112615237578081fd5b813561524a61524582615d5e565b615d37565b81815291506020808301908481018184028601820187101561526b57600080fd5b60005b848110156128105781358452928201929082019060010161526e565b600082601f83011261529a578081fd5b81516152a861524582615d5e565b8181529150602080830190848101818402860182018710156152c957600080fd5b60005b84811015612810578151845292820192908201906001016152cc565b600082601f8301126152f8578081fd5b813567ffffffffffffffff81111561530e578182fd5b6153216020601f19601f84011601615d37565b915080825283602082850101111561533857600080fd5b8060208401602084013760009082016020015292915050565b80516003811061085757600080fd5b803561085781615d93565b60006020828403121561537c578081fd5b813561150881615d7e565b60008060408385031215615399578081fd5b82356153a481615d7e565b915060208301356153b481615d7e565b809150509250929050565b6000806000606084860312156153d3578081fd5b83356153de81615d7e565b925060208401356153ee81615d7e565b929592945050506040919091013590565b600080600080600080600060e0888a031215615419578283fd5b873561542481615d7e565b9650602088013561543481615d7e565b95506040880135945060608801359350608088013561545281615da0565b9699959850939692959460a0840135945060c09093013592915050565b60008060408385031215615481578182fd5b823561548c81615d7e565b946020939093013593505050565b6000806000606084860312156154ae578081fd5b835167ffffffffffffffff808211156154c5578283fd5b818601915086601f8301126154d8578283fd5b81516154e661524582615d5e565b80828252602080830192508086018b828387028901011115615506578788fd5b8796505b8487101561553157805161551d81615d7e565b84526001969096019592810192810161550a565b508901519097509350505080821115615548578283fd5b506155558682870161528a565b925050604084015190509250925092565b600060208284031215615577578081fd5b81518015158114611508578182fd5b600080600080600080600060e0888a0312156155a0578081fd5b8735965060208801356155b281615d7e565b955060408801356155c281615d7e565b9450606088013567ffffffffffffffff808211156155de578283fd5b6155ea8b838c01615227565b955060808a0135945060a08a0135935060c08a013591508082111561560d578283fd5b5061561a8a828b016152e8565b91505092959891949750929550565b60006020828403121561563a578081fd5b81357fffffffff0000000000000000000000000000000000000000000000000000000081168114611508578182fd5b60006020828403121561567a578081fd5b815161150881615d7e565b60008060408385031215615697578182fd5b82356156a281615d7e565b9150602083013567ffffffffffffffff8111156156bd578182fd5b6156c9858286016152e8565b9150509250929050565b6000602082840312156156e4578081fd5b815161150881615d93565b600080600060608486031215615703578081fd5b835161570e81615d93565b602085015190935067ffffffffffffffff81111561572a578182fd5b6155558682870161528a565b60008060006060848603121561574a578081fd5b835161575581615d93565b602085015160409095015190969495509392505050565b60006020828403121561577d578081fd5b6115088383615351565b60008060408385031215615799578182fd5b6157a38484615351565b9150602083015167ffffffffffffffff8111156157be578182fd5b6156c98582860161528a565b6000806000606084860312156157de578081fd5b6157e88585615351565b9250602084015167ffffffffffffffff81111561572a578182fd5b600080600060608486031215615817578081fd5b6158218585615351565b925060208401519150604084015190509250925092565b6000806000806080858703121561584d578182fd5b843567ffffffffffffffff80821115615864578384fd5b818701915061012080838a03121561587a578485fd5b61588381615d37565b905061588f8984615360565b815261589e896020850161521c565b60208201526158b0896040850161521c565b6040820152606083013560608201526080830135608082015260a083013560a08201526158e08960c0850161521c565b60c08201526158f28960e0850161521c565b60e0820152610100808401358381111561590a578687fd5b6159168b8287016152e8565b828401525050809650506020870135915080821115615933578384fd5b5061594087828801615227565b949794965050505060408301359260600135919050565b600060208284031215615968578081fd5b5035919050565b600060208284031215615980578081fd5b5051919050565b60008060408385031215615999578182fd5b50508035926020909101359150565b600080600080608085870312156159bd578182fd5b84519350602085015192506040850151915060608501516159dd81615d7e565b939692955090935050565b6000602082840312156159f9578081fd5b815161150881615da0565b60008060408385031215615a16578182fd5b8251615a2181615da0565b6020939093015192949293505050565b6000815180845260208085019450808401835b83811015615a6057815187529582019590820190600101615a44565b509495945050505050565b60008151808452815b81811015615a9057602081850181015186830182015201615a74565b81811115615aa15782602083870101525b50601f01601f19169290920160200192915050565b9182527fffffffff0000000000000000000000000000000000000000000000000000000016602082015260240190565b6000828483379101908152919050565b7f190100000000000000000000000000000000000000000000000000000000000081526002810192909252602282015260420190565b6001600160a01b0391909116815260200190565b6020808252825182820181905260009190848201906040850190845b81811015615b815783516001600160a01b031683529284019291840191600101615b5c565b50909695505050505050565b6000602082526115086020830184615a31565b600060408252615bb36040830185615a31565b82810360208401526117798185615a31565b901515815260200190565b92151583526020830191909152604082015260600190565b90815260200190565b9283526001600160a01b03918216602084015216604082015260600190565b9586526001600160a01b0394851660208701529290931660408501526060840152608083019190915260a082015260c00190565b9485526020850193909352604084019190915260608301526001600160a01b0316608082015260a00190565b6000838252604060208301526115736040830184615a6b565b9182526001600160a01b0316602082015260400190565b93845260ff9290921660208401526040830152606082015260800190565b6000602082526115086020830184615a6b565b6000838252604060208301526115736040830184615a31565b9283529015156020830152604082015260600190565b918252602082015260400190565b93845260208401929092526040830152606082015260800190565b60ff91909116815260200190565b60405181810167ffffffffffffffff81118282101715615d5657600080fd5b604052919050565b600067ffffffffffffffff821115615d74578081fd5b5060209081020190565b6001600160a01b0381168114610bcc57600080fd5b60028110610bcc57600080fd5b60ff81168114610bcc57600080fdfea2646970667358221220ce8725614f9b4df2ebaf6bb6ccba00eb16100f9cd9efe29dbebda5b8dfca78f864736f6c634300070100336bfb689528fa96ec1ad670ad6d6064be1ae96bfd5d2ee35c837fd0fe0c11959a",
  "linkReferences": {},
  "deployedLinkReferences": {}
}