{
  "_format": "hh-sol-artifact-1",
  "contractName": "L2GaugeCheckpointer",
  "sourceName": "contracts/gauges/L2GaugeCheckpointer.sol",
  "abi": [
    {
      "inputs": [
        {
          "internalType": "contract IGaugeController",
          "name": "gaugeController",
          "type": "address"
        },
        {
          "internalType": "contract IAuthorizerAdaptorEntrypoint",
          "name": "authorizerAdaptorEntrypoint",
          "type": "address"
        }
      ],
      "stateMutability": "nonpayable",
      "type": "constructor"
    },
    {
      "anonymous": false,
      "inputs": [
        {
          "indexed": true,
          "internalType": "enum IGaugeAdder.GaugeType",
          "name": "gaugeType",
          "type": "uint8"
        },
        {
          "indexed": true,
          "internalType": "contract IStakelessGauge",
          "name": "gauge",
          "type": "address"
        }
      ],
      "name": "GaugeAdded",
      "type": "event"
    },
    {
      "anonymous": false,
      "inputs": [
        {
          "indexed": true,
          "internalType": "enum IGaugeAdder.GaugeType",
          "name": "gaugeType",
          "type": "uint8"
        },
        {
          "indexed": true,
          "internalType": "contract IStakelessGauge",
          "name": "gauge",
          "type": "address"
        }
      ],
      "name": "GaugeRemoved",
      "type": "event"
    },
    {
      "inputs": [
        {
          "internalType": "enum IGaugeAdder.GaugeType",
          "name": "gaugeType",
          "type": "uint8"
        },
        {
          "internalType": "contract IStakelessGauge[]",
          "name": "gauges",
          "type": "address[]"
        }
      ],
      "name": "addGauges",
      "outputs": [],
      "stateMutability": "nonpayable",
      "type": "function"
    },
    {
      "inputs": [
        {
          "internalType": "uint256",
          "name": "minRelativeWeight",
          "type": "uint256"
        }
      ],
      "name": "checkpointGaugesAboveRelativeWeight",
      "outputs": [],
      "stateMutability": "payable",
      "type": "function"
    },
    {
      "inputs": [
        {
          "internalType": "enum IGaugeAdder.GaugeType",
          "name": "gaugeType",
          "type": "uint8"
        },
        {
          "internalType": "uint256",
          "name": "minRelativeWeight",
          "type": "uint256"
        }
      ],
      "name": "checkpointGaugesOfTypeAboveRelativeWeight",
      "outputs": [],
      "stateMutability": "payable",
      "type": "function"
    },
    {
      "inputs": [
        {
          "internalType": "enum IGaugeAdder.GaugeType",
          "name": "gaugeType",
          "type": "uint8"
        },
        {
          "internalType": "uint256",
          "name": "index",
          "type": "uint256"
        }
      ],
      "name": "getGaugeAtIndex",
      "outputs": [
        {
          "internalType": "contract IStakelessGauge",
          "name": "",
          "type": "address"
        }
      ],
      "stateMutability": "view",
      "type": "function"
    },
    {
      "inputs": [
        {
          "internalType": "uint256",
          "name": "minRelativeWeight",
          "type": "uint256"
        }
      ],
      "name": "getTotalBridgeCost",
      "outputs": [
        {
          "internalType": "uint256",
          "name": "",
          "type": "uint256"
        }
      ],
      "stateMutability": "view",
      "type": "function"
    },
    {
      "inputs": [
        {
          "internalType": "enum IGaugeAdder.GaugeType",
          "name": "gaugeType",
          "type": "uint8"
        }
      ],
      "name": "getTotalGauges",
      "outputs": [
        {
          "internalType": "uint256",
          "name": "",
          "type": "uint256"
        }
      ],
      "stateMutability": "view",
      "type": "function"
    },
    {
      "inputs": [
        {
          "internalType": "enum IGaugeAdder.GaugeType",
          "name": "gaugeType",
          "type": "uint8"
        },
        {
          "internalType": "contract IStakelessGauge",
          "name": "gauge",
          "type": "address"
        }
      ],
      "name": "hasGauge",
      "outputs": [
        {
          "internalType": "bool",
          "name": "",
          "type": "bool"
        }
      ],
      "stateMutability": "view",
      "type": "function"
    },
    {
      "inputs": [
        {
          "internalType": "enum IGaugeAdder.GaugeType",
          "name": "gaugeType",
          "type": "uint8"
        }
      ],
      "name": "isSupportedGaugeType",
      "outputs": [
        {
          "internalType": "bool",
          "name": "",
          "type": "bool"
        }
      ],
      "stateMutability": "pure",
      "type": "function"
    },
    {
      "inputs": [
        {
          "internalType": "enum IGaugeAdder.GaugeType",
          "name": "gaugeType",
          "type": "uint8"
        },
        {
          "internalType": "contract IStakelessGauge[]",
          "name": "gauges",
          "type": "address[]"
        }
      ],
      "name": "removeGauges",
      "outputs": [],
      "stateMutability": "nonpayable",
      "type": "function"
    }
  ],
  "bytecode": "0x60c060405234801561001057600080fd5b506040516119413803806119418339818101604052604081101561003357600080fd5b50805160209091015160016000556001600160601b0319606092831b811660a052911b1660805260805160601c60a05160601c6118af610092600039806103c052806106e95280610f2c52508061130052806115d452506118af6000f3fe6080604052600436106100965760003560e01c8063868a855411610069578063d14cfe3b1161004e578063d14cfe3b14610273578063d7dd024614610290578063dfeec67a146102b657610096565b8063868a8554146101ea57806397f22e681461021757610096565b806327f791071461009b5780633ccd109a146100d75780634cbc19eb146101045780635651e57b14610161575b600080fd5b3480156100a757600080fd5b506100c5600480360360208110156100be57600080fd5b503561033d565b60408051918252519081900360200190f35b3480156100e357600080fd5b506100c5600480360360208110156100fa57600080fd5b503560ff16610510565b34801561011057600080fd5b5061014d6004803603604081101561012757600080fd5b50803560ff16906020013573ffffffffffffffffffffffffffffffffffffffff16610587565b604080519115158252519081900360200190f35b34801561016d57600080fd5b506101e86004803603604081101561018457600080fd5b60ff82351691908101906040810160208201356401000000008111156101a957600080fd5b8201836020820111156101bb57600080fd5b803590602001918460208302840111640100000000831117156101dd57600080fd5b509092509050610627565b005b3480156101f657600080fd5b5061014d6004803603602081101561020d57600080fd5b503560ff1661093b565b34801561022357600080fd5b5061024a6004803603604081101561023a57600080fd5b5060ff813516906020013561094c565b6040805173ffffffffffffffffffffffffffffffffffffffff9092168252519081900360200190f35b6101e86004803603602081101561028957600080fd5b50356109e4565b6101e8600480360360408110156102a657600080fd5b5060ff8135169060200135610a4b565b3480156102c257600080fd5b506101e8600480360360408110156102d957600080fd5b60ff82351691908101906040810160208201356401000000008111156102fe57600080fd5b82018360208201111561031057600080fd5b8035906020019184602083028401116401000000008311171561033257600080fd5b509092509050610ae6565b60008061034942610d03565b9050600061037460018260045b600781111561036157fe5b8152602001908152602001600020610d0f565b6004600090815260016020529091507fedc95719e9a3b28dd8e80877cb5880a9be7de1a13fc8b05e7999683b6b56764390805b838110156105065760006103bb8483610d13565b9050877f000000000000000000000000000000000000000000000000000000000000000073ffffffffffffffffffffffffffffffffffffffff1663d3078c9483896040518363ffffffff1660e01b8152600401808373ffffffffffffffffffffffffffffffffffffffff1681526020018281526020019250505060206040518083038186803b15801561044d57600080fd5b505afa158015610461573d6000803e3d6000fd5b505050506040513d602081101561047757600080fd5b5051101561048557506104fe565b8073ffffffffffffffffffffffffffffffffffffffff1663b02452256040518163ffffffff1660e01b815260040160206040518083038186803b1580156104cb57600080fd5b505afa1580156104df573d6000803e3d6000fd5b505050506040513d60208110156104f557600080fd5b50519290920191505b6001016103a7565b5095945050505050565b60008161051c81610d4d565b61056d576040805162461bcd60e51b815260206004820152601660248201527f556e737570706f72746564206761756765207479706500000000000000000000604482015290519081900360640190fd5b6105806001600085600781111561035657fe5b9392505050565b60008261059381610d4d565b6105e4576040805162461bcd60e51b815260206004820152601660248201527f556e737570706f72746564206761756765207479706500000000000000000000604482015290519081900360640190fd5b61061f83600160008760078111156105f857fe5b600781111561060357fe5b8152602001908152602001600020610dbb90919063ffffffff16565b949350505050565b8261063181610d4d565b610682576040805162461bcd60e51b815260206004820152601660248201527f556e737570706f72746564206761756765207479706500000000000000000000604482015290519081900360640190fd5b60006001600086600781111561069457fe5b600781111561069f57fe5b8152602001908152602001600020905060005b838110156109335760008585838181106106c857fe5b9050602002013573ffffffffffffffffffffffffffffffffffffffff1690507f000000000000000000000000000000000000000000000000000000000000000073ffffffffffffffffffffffffffffffffffffffff166361df1bf9826040518263ffffffff1660e01b8152600401808273ffffffffffffffffffffffffffffffffffffffff16815260200191505060206040518083038186803b15801561076e57600080fd5b505afa158015610782573d6000803e3d6000fd5b505050506040513d602081101561079857600080fd5b50516107d55760405162461bcd60e51b815260040180806020018281038252602a815260200180611802602a913960400191505060405180910390fd5b8073ffffffffffffffffffffffffffffffffffffffff16639c868ac06040518163ffffffff1660e01b815260040160206040518083038186803b15801561081b57600080fd5b505afa15801561082f573d6000803e3d6000fd5b505050506040513d602081101561084557600080fd5b505115610899576040805162461bcd60e51b815260206004820152601060248201527f476175676520776173206b696c6c656400000000000000000000000000000000604482015290519081900360640190fd5b6108a38382610de9565b6108de5760405162461bcd60e51b81526004018080602001828103825260278152602001806118536027913960400191505060405180910390fd5b8073ffffffffffffffffffffffffffffffffffffffff1687600781111561090157fe5b6040517ffedfef14f8635df68d7e77896def7fd9d97f59e4ce9f3ab4bf36dd675d5bb18a90600090a3506001016106b2565b505050505050565b600061094682610d4d565b92915050565b60008261095881610d4d565b6109a9576040805162461bcd60e51b815260206004820152601660248201527f556e737570706f72746564206761756765207479706500000000000000000000604482015290519081900360640190fd5b61061f83600160008760078111156109bd57fe5b60078111156109c857fe5b8152602001908152602001600020610e7190919063ffffffff16565b6109ec610e8d565b60006109f742610d03565b9050610a0560038383610ea6565b610a1160048383610ea6565b610a1d60058383610ea6565b610a2960068383610ea6565b610a3560078383610ea6565b610a3f3347611011565b50610a4861108d565b50565b81610a5581610d4d565b610aa6576040805162461bcd60e51b815260206004820152601660248201527f556e737570706f72746564206761756765207479706500000000000000000000604482015290519081900360640190fd5b610aae610e8d565b6000610ab942610d03565b9050610ac6848483610ea6565b478015610ad757610ad73382611011565b5050610ae161108d565b505050565b82610af081610d4d565b610b41576040805162461bcd60e51b815260206004820152601660248201527f556e737570706f72746564206761756765207479706500000000000000000000604482015290519081900360640190fd5b600060016000866007811115610b5357fe5b6007811115610b5e57fe5b8152602001908152602001600020905060005b83811015610933576000858583818110610b8757fe5b9050602002013573ffffffffffffffffffffffffffffffffffffffff1690508073ffffffffffffffffffffffffffffffffffffffff16639c868ac06040518163ffffffff1660e01b815260040160206040518083038186803b158015610bec57600080fd5b505afa158015610c00573d6000803e3d6000fd5b505050506040513d6020811015610c1657600080fd5b5051610c69576040805162461bcd60e51b815260206004820152601460248201527f476175676520776173206e6f74206b696c6c6564000000000000000000000000604482015290519081900360640190fd5b610c738382611094565b610cae5760405162461bcd60e51b815260040180806020018281038252602781526020018061182c6027913960400191505060405180910390fd5b8073ffffffffffffffffffffffffffffffffffffffff16876007811115610cd157fe5b6040517f943ca3b99ef2afb6719e95a54c381dffb151e06a19731bbfaa5664f562ccab7990600090a350600101610b71565b62093a80908190040290565b5490565b6000826000018281548110610d2457fe5b60009182526020909120015473ffffffffffffffffffffffffffffffffffffffff169392505050565b60006003826007811115610d5d57fe5b1480610d7457506004826007811115610d7257fe5b145b80610d8a57506005826007811115610d8857fe5b145b80610da057506006826007811115610d9e57fe5b145b8061094657506007826007811115610db457fe5b1492915050565b73ffffffffffffffffffffffffffffffffffffffff1660009081526001919091016020526040902054151590565b6000610df58383610dbb565b610e6957508154600180820184556000848152602080822090930180547fffffffffffffffffffffffff00000000000000000000000000000000000000001673ffffffffffffffffffffffffffffffffffffffff861690811790915585549082528286019093526040902091909155610946565b506000610946565b8154600090610e839083106064611242565b6105808383610d13565b610e9f60026000541415610190611242565b6002600055565b600060016000856007811115610eb857fe5b6007811115610ec357fe5b815260200190815260200160002090506000610ede82610d0f565b905080610eec575050610ae1565b6117ff6004866007811115610efd57fe5b14610f0a57611254610f0e565b6114b15b905060005b82811015611008576000610f278583610d13565b9050867f000000000000000000000000000000000000000000000000000000000000000073ffffffffffffffffffffffffffffffffffffffff1663d3078c9483896040518363ffffffff1660e01b8152600401808373ffffffffffffffffffffffffffffffffffffffff1681526020018281526020019250505060206040518083038186803b158015610fb957600080fd5b505afa158015610fcd573d6000803e3d6000fd5b505050506040513d6020811015610fe357600080fd5b50511015610ff15750611000565b610ffe818463ffffffff16565b505b600101610f13565b50505050505050565b611020814710156101a3611242565b60405160009073ffffffffffffffffffffffffffffffffffffffff84169083908381818185875af1925050503d8060008114611078576040519150601f19603f3d011682016040523d82523d6000602084013e61107d565b606091505b50509050610ae1816101a4611242565b6001600055565b73ffffffffffffffffffffffffffffffffffffffff8116600090815260018301602052604081205480156112385783547fffffffffffffffffffffffffffffffffffffffffffffffffffffffffffffffff808301910180821461119d57600086600001828154811061110257fe5b600091825260209091200154875473ffffffffffffffffffffffffffffffffffffffff9091169150819088908590811061113857fe5b600091825260208083209190910180547fffffffffffffffffffffffff00000000000000000000000000000000000000001673ffffffffffffffffffffffffffffffffffffffff94851617905592909116815260018881019092526040902090830190555b85548690806111a857fe5b6000828152602080822083017fffffffffffffffffffffffffffffffffffffffffffffffffffffffffffffffff90810180547fffffffffffffffffffffffff000000000000000000000000000000000000000016905590920190925573ffffffffffffffffffffffffffffffffffffffff8716825260018881019091526040822091909155935061094692505050565b6000915050610946565b81611250576112508161178a565b5050565b604080516004808252602480830184526020830180517bffffffffffffffffffffffffffffffffffffffffffffffffffffffff167fc2c4c5c10000000000000000000000000000000000000000000000000000000017815284517f4036176a00000000000000000000000000000000000000000000000000000000815273ffffffffffffffffffffffffffffffffffffffff8781169482019485529281019586528451604482015284517f00000000000000000000000000000000000000000000000000000000000000009390931695634036176a958895909490939192606401919080838360005b8381101561135557818101518382015260200161133d565b50505050905090810190601f1680156113825780820380516001836020036101000a031916815260200191505b509350505050600060405180830381600087803b1580156113a257600080fd5b505af11580156113b6573d6000803e3d6000fd5b505050506040513d6000823e601f3d9081017fffffffffffffffffffffffffffffffffffffffffffffffffffffffffffffffe016820160405260208110156113fd57600080fd5b810190808051604051939291908464010000000082111561141d57600080fd5b90830190602082018581111561143257600080fd5b825164010000000081118282018810171561144c57600080fd5b82525081516020918201929091019080838360005b83811015611479578181015183820152602001611461565b50505050905090810190601f1680156114a65780820380516001836020036101000a031916815260200191505b506040525050505050565b60008173ffffffffffffffffffffffffffffffffffffffff1663b02452256040518163ffffffff1660e01b815260040160206040518083038186803b1580156114f957600080fd5b505afa15801561150d573d6000803e3d6000fd5b505050506040513d602081101561152357600080fd5b5051604080516004808252602480830184526020830180517bffffffffffffffffffffffffffffffffffffffffffffffffffffffff167fc2c4c5c10000000000000000000000000000000000000000000000000000000017815284517f4036176a00000000000000000000000000000000000000000000000000000000815273ffffffffffffffffffffffffffffffffffffffff8981169482019485529281019586528451604482015284519697507f00000000000000000000000000000000000000000000000000000000000000009290921695634036176a9588958a959094909391926064909101919080838360005b8381101561162d578181015183820152602001611615565b50505050905090810190601f16801561165a5780820380516001836020036101000a031916815260200191505b5093505050506000604051808303818588803b15801561167957600080fd5b505af115801561168d573d6000803e3d6000fd5b50505050506040513d6000823e601f3d9081017fffffffffffffffffffffffffffffffffffffffffffffffffffffffffffffffe016820160405260208110156116d557600080fd5b81019080805160405193929190846401000000008211156116f557600080fd5b90830190602082018581111561170a57600080fd5b825164010000000081118282018810171561172457600080fd5b82525081516020918201929091019080838360005b83811015611751578181015183820152602001611739565b50505050905090810190601f16801561177e5780820380516001836020036101000a031916815260200191505b50604052505050505050565b62461bcd60e51b600090815260206004526007602452600a808304818106603090810160081b83860601918390049283060160101b016642414c230000300160c81b604452610a48917f42414c0000000000000000000000000000000000000000000000000000000000906242414c90606490fd5bfefe476175676520776173206e6f7420616464656420746f20746865204761756765436f6e74726f6c6c6572476175676520776173206e6f7420616464656420746f2074686520636865636b706f696e746572476175676520616c726561647920616464656420746f2074686520636865636b706f696e746572a2646970667358221220135b7a73e144f6ea5ac95747b7119b6271b58026eb897b631a7e2d44032eaeef64736f6c63430007010033",
  "linkReferences": {},
  "deployedLinkReferences": {}
}