{
  "_format": "hh-sol-artifact-1",
  "contractName": "GaugeAdderMigrationCoordinator",
  "sourceName": "contracts/20230109-gauge-adder-migration-v2-to-v3/GaugeAdderMigrationCoordinator.sol",
  "abi": [
    {
      "inputs": [
        {
          "internalType": "contract IAuthorizerAdaptorEntrypoint",
          "name": "authorizerAdaptorEntrypoint",
          "type": "address"
        },
        {
          "internalType": "contract IGaugeAdder",
          "name": "_newGaugeAdder",
          "type": "address"
        },
        {
          "internalType": "contract IGaugeAdder",
          "name": "_oldGaugeAdder",
          "type": "address"
        },
        {
          "internalType": "contract ILiquidityGaugeFactory",
          "name": "_arbitrumRootGaugeFactory",
          "type": "address"
        },
        {
          "internalType": "contract ILiquidityGaugeFactory",
          "name": "_optimismRootGaugeFactory",
          "type": "address"
        },
        {
          "internalType": "address",
          "name": "_liquidityMiningCommitteeMultisig",
          "type": "address"
        },
        {
          "internalType": "address",
          "name": "_gaugeCheckpointingMultisig",
          "type": "address"
        }
      ],
      "stateMutability": "nonpayable",
      "type": "constructor"
    },
    {
      "inputs": [],
      "name": "arbitrumRootGaugeFactory",
      "outputs": [
        {
          "internalType": "contract ILiquidityGaugeFactory",
          "name": "",
          "type": "address"
        }
      ],
      "stateMutability": "view",
      "type": "function"
    },
    {
      "inputs": [],
      "name": "authorizerAdaptor",
      "outputs": [
        {
          "internalType": "contract IAuthorizerAdaptor",
          "name": "",
          "type": "address"
        }
      ],
      "stateMutability": "view",
      "type": "function"
    },
    {
      "inputs": [],
      "name": "gaugeCheckpointingMultisig",
      "outputs": [
        {
          "internalType": "address",
          "name": "",
          "type": "address"
        }
      ],
      "stateMutability": "view",
      "type": "function"
    },
    {
      "inputs": [],
      "name": "gaugeController",
      "outputs": [
        {
          "internalType": "contract IGaugeController",
          "name": "",
          "type": "address"
        }
      ],
      "stateMutability": "view",
      "type": "function"
    },
    {
      "inputs": [
        {
          "internalType": "bytes4",
          "name": "selector",
          "type": "bytes4"
        }
      ],
      "name": "getActionId",
      "outputs": [
        {
          "internalType": "bytes32",
          "name": "",
          "type": "bytes32"
        }
      ],
      "stateMutability": "view",
      "type": "function"
    },
    {
      "inputs": [],
      "name": "getAuthorizer",
      "outputs": [
        {
          "internalType": "contract IAuthorizer",
          "name": "",
          "type": "address"
        }
      ],
      "stateMutability": "view",
      "type": "function"
    },
    {
      "inputs": [],
      "name": "getAuthorizerAdaptorEntrypoint",
      "outputs": [
        {
          "internalType": "contract IAuthorizerAdaptor",
          "name": "",
          "type": "address"
        }
      ],
      "stateMutability": "view",
      "type": "function"
    },
    {
      "inputs": [],
      "name": "getCurrentStage",
      "outputs": [
        {
          "internalType": "uint256",
          "name": "",
          "type": "uint256"
        }
      ],
      "stateMutability": "view",
      "type": "function"
    },
    {
      "inputs": [
        {
          "internalType": "uint256",
          "name": "stage",
          "type": "uint256"
        }
      ],
      "name": "getStageActivationTime",
      "outputs": [
        {
          "internalType": "uint256",
          "name": "",
          "type": "uint256"
        }
      ],
      "stateMutability": "view",
      "type": "function"
    },
    {
      "inputs": [],
      "name": "getStagesLength",
      "outputs": [
        {
          "internalType": "uint256",
          "name": "",
          "type": "uint256"
        }
      ],
      "stateMutability": "view",
      "type": "function"
    },
    {
      "inputs": [],
      "name": "getVault",
      "outputs": [
        {
          "internalType": "contract IVault",
          "name": "",
          "type": "address"
        }
      ],
      "stateMutability": "view",
      "type": "function"
    },
    {
      "inputs": [],
      "name": "isComplete",
      "outputs": [
        {
          "internalType": "bool",
          "name": "",
          "type": "bool"
        }
      ],
      "stateMutability": "view",
      "type": "function"
    },
    {
      "inputs": [],
      "name": "liquidityMiningCommitteeMultisig",
      "outputs": [
        {
          "internalType": "address",
          "name": "",
          "type": "address"
        }
      ],
      "stateMutability": "view",
      "type": "function"
    },
    {
      "inputs": [],
      "name": "newGaugeAdder",
      "outputs": [
        {
          "internalType": "contract IGaugeAdder",
          "name": "",
          "type": "address"
        }
      ],
      "stateMutability": "view",
      "type": "function"
    },
    {
      "inputs": [],
      "name": "oldGaugeAdder",
      "outputs": [
        {
          "internalType": "contract IGaugeAdder",
          "name": "",
          "type": "address"
        }
      ],
      "stateMutability": "view",
      "type": "function"
    },
    {
      "inputs": [],
      "name": "optimismRootGaugeFactory",
      "outputs": [
        {
          "internalType": "contract ILiquidityGaugeFactory",
          "name": "",
          "type": "address"
        }
      ],
      "stateMutability": "view",
      "type": "function"
    },
    {
      "inputs": [],
      "name": "performNextStage",
      "outputs": [],
      "stateMutability": "nonpayable",
      "type": "function"
    },
    {
      "inputs": [],
      "name": "registerStages",
      "outputs": [],
      "stateMutability": "nonpayable",
      "type": "function"
    }
  ],
  "bytecode": "0x6101e06040523480156200001257600080fd5b506040516200210a3803806200210a833981810160405260e08110156200003857600080fd5b5080516020808301516040808501516060860151608087015160a088015160c09098015184516311b2515f60e31b81529451979895979396929591949193909289926001600160a01b03841692638d928af892600480840193919291829003018186803b158015620000a957600080fd5b505afa158015620000be573d6000803e3d6000fd5b505050506040513d6020811015620000d557600080fd5b5051306080526001600160601b0319606091821b811660a052600160005591811b821660c05287811b821660e05286811b82166101005285811b82166101605284811b82166101805283811b82166101a05282901b166101c05260408051632c6f4d6f60e11b815290516001600160a01b038816916358de9ade916004808301926020929190829003018186803b1580156200017057600080fd5b505afa15801562000185573d6000803e3d6000fd5b505050506040513d60208110156200019c57600080fd5b505160601b6001600160601b031916610120526040805163e758d36b60e01b815290516001600160a01b0389169163e758d36b916004808301926020929190829003018186803b158015620001f057600080fd5b505afa15801562000205573d6000803e3d6000fd5b505050506040513d60208110156200021c57600080fd5b50516001600160601b031960609190911b16610140525050505050505060805160a05160601c60c05160601c60e05160601c6101005160601c6101205160601c6101405160601c6101605160601c6101805160601c6101a05160601c6101c05160601c611dba62000350600039806103a152806109f05280610b7c5250806103c5528061175f52806117ec5280611895528061193e5250806105b25280610abe52508061058e52806108e35250806103e95280611a305280611bd55250806104ea52508061040d5280610da15280610f19528061109152806112075280611c8c52508061026a5280610c385280610d755280610eed528061106552806111db528061140c52806114ec52806115ca52806116a85280611aed5250806104315250806104c65250806104595250611dba6000f3fe608060405234801561001057600080fd5b50600436106101365760003560e01c80638d928af8116100b2578063b07c0cdc11610081578063d6076a6c11610066578063d6076a6c14610250578063da28cef714610258578063eedbe31d1461026057610136565b8063b07c0cdc1461022c578063b2fa1c9e1461023457610136565b80638d928af81461020c57806399eecb3b14610214578063aaabadc51461021c578063adcce5351461022457610136565b8063483bc2331161010957806359ff345c116100ee57806359ff345c146101bd5780637afcf0e6146101c5578063851c1bb3146101cd57610136565b8063483bc233146101ad5780634b683fee146101b557610136565b80630f42a2c11461013b5780631f24cfc71461016c5780632b11617214610176578063321abfae146101a5575b600080fd5b610143610268565b6040805173ffffffffffffffffffffffffffffffffffffffff9092168252519081900360200190f35b61017461028c565b005b6101936004803603602081101561018c57600080fd5b503561037e565b60408051918252519081900360200190f35b61014361039f565b6101436103c3565b6101436103e7565b61014361040b565b61014361042f565b610193600480360360208110156101e357600080fd5b50357fffffffff0000000000000000000000000000000000000000000000000000000016610453565b6101436104c4565b6101436104e8565b61014361050c565b61014361058c565b6101436105b0565b61023c6105d4565b604080519115158252519081900360200190f35b6101746105fe565b61019361066c565b610193610672565b7f000000000000000000000000000000000000000000000000000000000000000081565b610294610678565b61029c61066c565b6102a8576102a8610691565b6102b06105d4565b1561031c57604080517f08c379a000000000000000000000000000000000000000000000000000000000815260206004820152601460248201527f416c6c2073746167657320636f6d706c65746564000000000000000000000000604482015290519081900360640190fd5b61036c6001610329610672565b8154811061033357fe5b90600052602060002090600491828204019190066008029054906101000a90048015611d5d021767ffffffffffffffff1663ffffffff16565b61037461069c565b61037c6106e7565b565b60006002828154811061038d57fe5b90600052602060002001549050919050565b7f000000000000000000000000000000000000000000000000000000000000000081565b7f000000000000000000000000000000000000000000000000000000000000000081565b7f000000000000000000000000000000000000000000000000000000000000000081565b7f000000000000000000000000000000000000000000000000000000000000000081565b7f000000000000000000000000000000000000000000000000000000000000000090565b604080517f00000000000000000000000000000000000000000000000000000000000000006020808301919091527fffffffff000000000000000000000000000000000000000000000000000000008416828401528251602481840301815260449092019092528051910120919050565b7f000000000000000000000000000000000000000000000000000000000000000090565b7f000000000000000000000000000000000000000000000000000000000000000081565b60006105166104c4565b73ffffffffffffffffffffffffffffffffffffffff1663aaabadc56040518163ffffffff1660e01b815260040160206040518083038186803b15801561055b57600080fd5b505afa15801561056f573d6000803e3d6000fd5b505050506040513d602081101561058557600080fd5b5051905090565b7f000000000000000000000000000000000000000000000000000000000000000081565b7f000000000000000000000000000000000000000000000000000000000000000081565b6000806105df610672565b90506000811180156105f857506105f461066c565b8110155b91505090565b610606610678565b61060e61066c565b15610664576040517f08c379a0000000000000000000000000000000000000000000000000000000008152600401808060200182810382526025815260200180611d606025913960400191505060405180910390fd5b610374610691565b60015490565b60025490565b61068a600260005414156101906106ee565b6002600055565b61037c610700610718565b60028054600181018255600091909152427f405787fa12a823e0f2b7631cc41b3ba8828b3321ca811111fa75cd3aa3bb5ace909101556106da6105d4565b1561037c5761037c61077b565b6001600055565b816106fc576106fc8161088c565b5050565b6107086108b9565b610710610bc2565b61037c611b5f565b6001805480820182556000919091527fb10e2d527612073b26eecdfd717e6a320cf44b4afac2b0732d9fcbe2b7fa0cf66004820401805460039092166008026101000a67ffffffffffffffff818102199093169390921691909102919091179055565b600061078561050c565b90508073ffffffffffffffffffffffffffffffffffffffff166336568abe8273ffffffffffffffffffffffffffffffffffffffff1663a217fddf6040518163ffffffff1660e01b815260040160206040518083038186803b1580156107e957600080fd5b505afa1580156107fd573d6000803e3d6000fd5b505050506040513d602081101561081357600080fd5b5051604080517fffffffff0000000000000000000000000000000000000000000000000000000060e085901b168152600481019290925230602483015251604480830192600092919082900301818387803b15801561087157600080fd5b505af1158015610885573d6000803e3d6000fd5b5050505050565b6108b6817f42414c0000000000000000000000000000000000000000000000000000000000611ce2565b50565b60006108c361050c565b90508073ffffffffffffffffffffffffffffffffffffffff16632f2ff15d7f000000000000000000000000000000000000000000000000000000000000000073ffffffffffffffffffffffffffffffffffffffff1663851c1bb363e9bde60460e01b6040518263ffffffff1660e01b815260040180827bffffffffffffffffffffffffffffffffffffffffffffffffffffffff1916815260200191505060206040518083038186803b15801561097857600080fd5b505afa15801561098c573d6000803e3d6000fd5b505050506040513d60208110156109a257600080fd5b5051604080517fffffffff0000000000000000000000000000000000000000000000000000000060e085901b168152600481019290925273ffffffffffffffffffffffffffffffffffffffff7f000000000000000000000000000000000000000000000000000000000000000016602483015251604480830192600092919082900301818387803b158015610a3657600080fd5b505af1158015610a4a573d6000803e3d6000fd5b5050604080517f851c1bb30000000000000000000000000000000000000000000000000000000081527fbf5fa772000000000000000000000000000000000000000000000000000000006004820152905173ffffffffffffffffffffffffffffffffffffffff8086169450632f2ff15d93507f0000000000000000000000000000000000000000000000000000000000000000169163851c1bb3916024808301926020929190829003018186803b158015610b0457600080fd5b505afa158015610b18573d6000803e3d6000fd5b505050506040513d6020811015610b2e57600080fd5b5051604080517fffffffff0000000000000000000000000000000000000000000000000000000060e085901b168152600481019290925273ffffffffffffffffffffffffffffffffffffffff7f000000000000000000000000000000000000000000000000000000000000000016602483015251604480830192600092919082900301818387803b15801561087157600080fd5b6000610bcc61050c565b604080517f851c1bb30000000000000000000000000000000000000000000000000000000081527f6440e973000000000000000000000000000000000000000000000000000000006004820152905191925060009173ffffffffffffffffffffffffffffffffffffffff7f0000000000000000000000000000000000000000000000000000000000000000169163851c1bb3916024808301926020929190829003018186803b158015610c7e57600080fd5b505afa158015610c92573d6000803e3d6000fd5b505050506040513d6020811015610ca857600080fd5b5051604080517f2f2ff15d00000000000000000000000000000000000000000000000000000000815260048101839052306024820152905191925073ffffffffffffffffffffffffffffffffffffffff841691632f2ff15d9160448082019260009290919082900301818387803b158015610d2257600080fd5b505af1158015610d36573d6000803e3d6000fd5b50506040517f52854ed700000000000000000000000000000000000000000000000000000000815273ffffffffffffffffffffffffffffffffffffffff7f000000000000000000000000000000000000000000000000000000000000000081169350636440e97392507f000000000000000000000000000000000000000000000000000000000000000016906352854ed790600290600090600401808381526020018281526020019250505060206040518083038186803b158015610dfa57600080fd5b505afa158015610e0e573d6000803e3d6000fd5b505050506040513d6020811015610e2457600080fd5b50516040517fffffffff0000000000000000000000000000000000000000000000000000000060e084901b16815273ffffffffffffffffffffffffffffffffffffffff82166004820190815260029160240182815260200192505050600060405180830381600087803b158015610e9a57600080fd5b505af1158015610eae573d6000803e3d6000fd5b50506040517f52854ed700000000000000000000000000000000000000000000000000000000815273ffffffffffffffffffffffffffffffffffffffff7f000000000000000000000000000000000000000000000000000000000000000081169350636440e97392507f000000000000000000000000000000000000000000000000000000000000000016906352854ed790600390600090600401808381526020018281526020019250505060206040518083038186803b158015610f7257600080fd5b505afa158015610f86573d6000803e3d6000fd5b505050506040513d6020811015610f9c57600080fd5b50516040517fffffffff0000000000000000000000000000000000000000000000000000000060e084901b16815273ffffffffffffffffffffffffffffffffffffffff82166004820190815260039160240182815260200192505050600060405180830381600087803b15801561101257600080fd5b505af1158015611026573d6000803e3d6000fd5b50506040517f52854ed700000000000000000000000000000000000000000000000000000000815273ffffffffffffffffffffffffffffffffffffffff7f000000000000000000000000000000000000000000000000000000000000000081169350636440e97392507f000000000000000000000000000000000000000000000000000000000000000016906352854ed7906004906000908201808381526020018281526020019250505060206040518083038186803b1580156110e957600080fd5b505afa1580156110fd573d6000803e3d6000fd5b505050506040513d602081101561111357600080fd5b50516040517fffffffff0000000000000000000000000000000000000000000000000000000060e084901b16815273ffffffffffffffffffffffffffffffffffffffff821660048281019182529160240182815260200192505050600060405180830381600087803b15801561118857600080fd5b505af115801561119c573d6000803e3d6000fd5b50506040517f52854ed700000000000000000000000000000000000000000000000000000000815273ffffffffffffffffffffffffffffffffffffffff7f000000000000000000000000000000000000000000000000000000000000000081169350636440e97392507f000000000000000000000000000000000000000000000000000000000000000016906352854ed790600590600090600401808381526020018281526020019250505060206040518083038186803b15801561126057600080fd5b505afa158015611274573d6000803e3d6000fd5b505050506040513d602081101561128a57600080fd5b50516040517fffffffff0000000000000000000000000000000000000000000000000000000060e084901b16815273ffffffffffffffffffffffffffffffffffffffff82166004820190815260059160240182815260200192505050600060405180830381600087803b15801561130057600080fd5b505af1158015611314573d6000803e3d6000fd5b5050604080517f36568abe00000000000000000000000000000000000000000000000000000000815260048101859052306024820152905173ffffffffffffffffffffffffffffffffffffffff861693506336568abe9250604480830192600092919082900301818387803b15801561138c57600080fd5b505af11580156113a0573d6000803e3d6000fd5b5050604080517f851c1bb30000000000000000000000000000000000000000000000000000000081527f5e45a27300000000000000000000000000000000000000000000000000000000600482015290516000945073ffffffffffffffffffffffffffffffffffffffff7f000000000000000000000000000000000000000000000000000000000000000016935063851c1bb392506024808301926020929190829003018186803b15801561145457600080fd5b505afa158015611468573d6000803e3d6000fd5b505050506040513d602081101561147e57600080fd5b5051604080517f851c1bb30000000000000000000000000000000000000000000000000000000081527ff87fcfa2000000000000000000000000000000000000000000000000000000006004820152905191925060009173ffffffffffffffffffffffffffffffffffffffff7f0000000000000000000000000000000000000000000000000000000000000000169163851c1bb3916024808301926020929190829003018186803b15801561153257600080fd5b505afa158015611546573d6000803e3d6000fd5b505050506040513d602081101561155c57600080fd5b5051604080517f851c1bb30000000000000000000000000000000000000000000000000000000081527fbf2972d5000000000000000000000000000000000000000000000000000000006004820152905191925060009173ffffffffffffffffffffffffffffffffffffffff7f0000000000000000000000000000000000000000000000000000000000000000169163851c1bb3916024808301926020929190829003018186803b15801561161057600080fd5b505afa158015611624573d6000803e3d6000fd5b505050506040513d602081101561163a57600080fd5b5051604080517f851c1bb30000000000000000000000000000000000000000000000000000000081527f8171bad9000000000000000000000000000000000000000000000000000000006004820152905191925060009173ffffffffffffffffffffffffffffffffffffffff7f0000000000000000000000000000000000000000000000000000000000000000169163851c1bb3916024808301926020929190829003018186803b1580156116ee57600080fd5b505afa158015611702573d6000803e3d6000fd5b505050506040513d602081101561171857600080fd5b5051604080517f2f2ff15d0000000000000000000000000000000000000000000000000000000081526004810187905273ffffffffffffffffffffffffffffffffffffffff7f000000000000000000000000000000000000000000000000000000000000000081166024830152915192935090871691632f2ff15d9160448082019260009290919082900301818387803b1580156117b557600080fd5b505af11580156117c9573d6000803e3d6000fd5b505050508473ffffffffffffffffffffffffffffffffffffffff16632f2ff15d847f00000000000000000000000000000000000000000000000000000000000000006040518363ffffffff1660e01b8152600401808381526020018273ffffffffffffffffffffffffffffffffffffffff16815260200192505050600060405180830381600087803b15801561185e57600080fd5b505af1158015611872573d6000803e3d6000fd5b505050508473ffffffffffffffffffffffffffffffffffffffff16632f2ff15d837f00000000000000000000000000000000000000000000000000000000000000006040518363ffffffff1660e01b8152600401808381526020018273ffffffffffffffffffffffffffffffffffffffff16815260200192505050600060405180830381600087803b15801561190757600080fd5b505af115801561191b573d6000803e3d6000fd5b505050508473ffffffffffffffffffffffffffffffffffffffff16632f2ff15d827f00000000000000000000000000000000000000000000000000000000000000006040518363ffffffff1660e01b8152600401808381526020018273ffffffffffffffffffffffffffffffffffffffff16815260200192505050600060405180830381600087803b1580156119b057600080fd5b505af11580156119c4573d6000803e3d6000fd5b5050604080517f851c1bb30000000000000000000000000000000000000000000000000000000081527f3a04f90000000000000000000000000000000000000000000000000000000000600482015290516000975073ffffffffffffffffffffffffffffffffffffffff7f000000000000000000000000000000000000000000000000000000000000000016965063851c1bb39550602480830195506020945090925090829003018186803b158015611a7c57600080fd5b505afa158015611a90573d6000803e3d6000fd5b505050506040513d6020811015611aa657600080fd5b5051604080517f2f2ff15d0000000000000000000000000000000000000000000000000000000081526004810183905273ffffffffffffffffffffffffffffffffffffffff7f000000000000000000000000000000000000000000000000000000000000000081166024830152915192935090841691632f2ff15d9160448082019260009290919082900301818387803b158015611b4357600080fd5b505af1158015611b57573d6000803e3d6000fd5b505050505050565b6000611b6961050c565b604080517f851c1bb30000000000000000000000000000000000000000000000000000000081527f3a04f900000000000000000000000000000000000000000000000000000000006004820152905191925060009173ffffffffffffffffffffffffffffffffffffffff7f0000000000000000000000000000000000000000000000000000000000000000169163851c1bb3916024808301926020929190829003018186803b158015611c1b57600080fd5b505afa158015611c2f573d6000803e3d6000fd5b505050506040513d6020811015611c4557600080fd5b5051604080517fd547741f0000000000000000000000000000000000000000000000000000000081526004810183905273ffffffffffffffffffffffffffffffffffffffff7f00000000000000000000000000000000000000000000000000000000000000008116602483015291519293509084169163d547741f9160448082019260009290919082900301818387803b158015611b4357600080fd5b7f08c379a000000000000000000000000000000000000000000000000000000000600090815260206004526007602452600a808404818106603090810160081b958390069590950190829004918206850160101b01602363ffffff0060e086901c160160181b0190930160c81b60445260e882901c90606490fd5bfefe436f6f7264696e61746f722073746167657320616c72656164792072656769737465726564a2646970667358221220ce7e2280401228a9798071754eb4502463d4531c87b9ddda0235111f7c6ca46664736f6c63430007010033",
  "linkReferences": {},
  "deployedLinkReferences": {}
}