{
  "_format": "hh-sol-artifact-1",
  "contractName": "L2LayerZeroBridgeForwarder",
  "sourceName": "contracts/L2LayerZeroBridgeForwarder.sol",
  "abi": [
    {
      "inputs": [
        {
          "internalType": "contract IVault",
          "name": "vault",
          "type": "address"
        }
      ],
      "stateMutability": "nonpayable",
      "type": "constructor"
    },
    {
      "anonymous": false,
      "inputs": [
        {
          "indexed": true,
          "internalType": "contract IL2LayerZeroDelegation",
          "name": "newImplementation",
          "type": "address"
        }
      ],
      "name": "DelegationImplementationUpdated",
      "type": "event"
    },
    {
      "inputs": [
        {
          "internalType": "bytes4",
          "name": "selector",
          "type": "bytes4"
        }
      ],
      "name": "getActionId",
      "outputs": [
        {
          "internalType": "bytes32",
          "name": "",
          "type": "bytes32"
        }
      ],
      "stateMutability": "view",
      "type": "function"
    },
    {
      "inputs": [],
      "name": "getAuthorizer",
      "outputs": [
        {
          "internalType": "contract IAuthorizer",
          "name": "",
          "type": "address"
        }
      ],
      "stateMutability": "view",
      "type": "function"
    },
    {
      "inputs": [],
      "name": "getDelegationImplementation",
      "outputs": [
        {
          "internalType": "contract IL2LayerZeroDelegation",
          "name": "",
          "type": "address"
        }
      ],
      "stateMutability": "view",
      "type": "function"
    },
    {
      "inputs": [],
      "name": "getVault",
      "outputs": [
        {
          "internalType": "contract IVault",
          "name": "",
          "type": "address"
        }
      ],
      "stateMutability": "view",
      "type": "function"
    },
    {
      "inputs": [
        {
          "internalType": "address",
          "name": "user",
          "type": "address"
        }
      ],
      "name": "onVeBalBridged",
      "outputs": [],
      "stateMutability": "nonpayable",
      "type": "function"
    },
    {
      "inputs": [
        {
          "internalType": "contract IL2LayerZeroDelegation",
          "name": "delegation",
          "type": "address"
        }
      ],
      "name": "setDelegation",
      "outputs": [],
      "stateMutability": "nonpayable",
      "type": "function"
    }
  ],
  "bytecode": "0x60c060405234801561001057600080fd5b5060405161061c38038061061c8339818101604052602081101561003357600080fd5b5051306080819052606082901b6001600160601b03191660a052906001600160a01b03166105a86100746000398061020052508061019352506105a86000f3fe608060405234801561001057600080fd5b50600436106100725760003560e01c8063aaabadc511610050578063aaabadc514610101578063df130bfe14610109578063e6b3e7041461013e57610072565b806363408a9014610077578063851c1bb3146100a85780638d928af8146100f9575b600080fd5b61007f610171565b6040805173ffffffffffffffffffffffffffffffffffffffff9092168252519081900360200190f35b6100e7600480360360208110156100be57600080fd5b50357fffffffff000000000000000000000000000000000000000000000000000000001661018d565b60408051918252519081900360200190f35b61007f6101fe565b61007f610222565b61013c6004803603602081101561011f57600080fd5b503573ffffffffffffffffffffffffffffffffffffffff166102a2565b005b61013c6004803603602081101561015457600080fd5b503573ffffffffffffffffffffffffffffffffffffffff1661034d565b60005473ffffffffffffffffffffffffffffffffffffffff1690565b604080517f00000000000000000000000000000000000000000000000000000000000000006020808301919091527fffffffff000000000000000000000000000000000000000000000000000000008416828401528251602481840301815260449092019092528051910120919050565b7f000000000000000000000000000000000000000000000000000000000000000090565b600061022c6101fe565b73ffffffffffffffffffffffffffffffffffffffff1663aaabadc56040518163ffffffff1660e01b815260040160206040518083038186803b15801561027157600080fd5b505afa158015610285573d6000803e3d6000fd5b505050506040513d602081101561029b57600080fd5b5051905090565b60005473ffffffffffffffffffffffffffffffffffffffff161561034a5760008054604080517fdf130bfe00000000000000000000000000000000000000000000000000000000815273ffffffffffffffffffffffffffffffffffffffff85811660048301529151919092169263df130bfe926024808201939182900301818387803b15801561033157600080fd5b505af1158015610345573d6000803e3d6000fd5b505050505b50565b6103556103c2565b600080547fffffffffffffffffffffffff00000000000000000000000000000000000000001673ffffffffffffffffffffffffffffffffffffffff8316908117825560405190917fb2f6d9cc189e4fc02519ab5ba6d9455bedc32091e375e8a6383ed45f40653e7491a250565b60006103f16000357fffffffff000000000000000000000000000000000000000000000000000000001661018d565b905061034a6104008233610408565b6101916104d1565b6000610412610222565b73ffffffffffffffffffffffffffffffffffffffff16639be2a8848484306040518463ffffffff1660e01b8152600401808481526020018373ffffffffffffffffffffffffffffffffffffffff1681526020018273ffffffffffffffffffffffffffffffffffffffff168152602001935050505060206040518083038186803b15801561049e57600080fd5b505afa1580156104b2573d6000803e3d6000fd5b505050506040513d60208110156104c857600080fd5b50519392505050565b816104df576104df816104e3565b5050565b7f08c379a000000000000000000000000000000000000000000000000000000000600090815260206004526007602452600a808304818106603090810160081b83860601918390049283060160101b016642414c230000300160c81b60445261034a917f42414c0000000000000000000000000000000000000000000000000000000000906242414c90606490fdfea2646970667358221220b904ffaae0da8c83cb1c90dcb8459781296476bcf6c305bde277cbdffb5cd54b64736f6c63430007010033",
  "linkReferences": {},
  "deployedLinkReferences": {}
}