{
  "_format": "hh-sol-artifact-1",
  "contractName": "VotingEscrowRemapper",
  "sourceName": "contracts/VotingEscrowRemapper.sol",
  "abi": [
    {
      "inputs": [
        {
          "internalType": "contract IVotingEscrow",
          "name": "votingEscrow",
          "type": "address"
        },
        {
          "internalType": "contract IVault",
          "name": "vault",
          "type": "address"
        }
      ],
      "stateMutability": "nonpayable",
      "type": "constructor"
    },
    {
      "anonymous": false,
      "inputs": [
        {
          "indexed": true,
          "internalType": "address",
          "name": "localUser",
          "type": "address"
        },
        {
          "indexed": true,
          "internalType": "address",
          "name": "delegate",
          "type": "address"
        }
      ],
      "name": "AddressDelegateUpdated",
      "type": "event"
    },
    {
      "anonymous": false,
      "inputs": [
        {
          "indexed": true,
          "internalType": "address",
          "name": "localUser",
          "type": "address"
        },
        {
          "indexed": true,
          "internalType": "address",
          "name": "remoteUser",
          "type": "address"
        },
        {
          "indexed": true,
          "internalType": "uint16",
          "name": "chainId",
          "type": "uint16"
        }
      ],
      "name": "AddressMappingUpdated",
      "type": "event"
    },
    {
      "anonymous": false,
      "inputs": [
        {
          "indexed": true,
          "internalType": "contract IOmniVotingEscrow",
          "name": "newOmniVotingEscrow",
          "type": "address"
        }
      ],
      "name": "OmniVotingEscrowUpdated",
      "type": "event"
    },
    {
      "anonymous": false,
      "inputs": [
        {
          "indexed": true,
          "internalType": "address",
          "name": "remoteUser",
          "type": "address"
        },
        {
          "indexed": true,
          "internalType": "uint16",
          "name": "chainId",
          "type": "uint16"
        }
      ],
      "name": "RemoteAddressMappingCleared",
      "type": "event"
    },
    {
      "inputs": [
        {
          "internalType": "address",
          "name": "localUser",
          "type": "address"
        },
        {
          "internalType": "uint16",
          "name": "chainId",
          "type": "uint16"
        }
      ],
      "name": "clearNetworkRemapping",
      "outputs": [],
      "stateMutability": "payable",
      "type": "function"
    },
    {
      "inputs": [
        {
          "internalType": "bytes4",
          "name": "selector",
          "type": "bytes4"
        }
      ],
      "name": "getActionId",
      "outputs": [
        {
          "internalType": "bytes32",
          "name": "",
          "type": "bytes32"
        }
      ],
      "stateMutability": "view",
      "type": "function"
    },
    {
      "inputs": [],
      "name": "getAuthorizer",
      "outputs": [
        {
          "internalType": "contract IAuthorizer",
          "name": "",
          "type": "address"
        }
      ],
      "stateMutability": "view",
      "type": "function"
    },
    {
      "inputs": [
        {
          "internalType": "address",
          "name": "remoteUser",
          "type": "address"
        },
        {
          "internalType": "uint16",
          "name": "chainId",
          "type": "uint16"
        }
      ],
      "name": "getLocalUser",
      "outputs": [
        {
          "internalType": "address",
          "name": "",
          "type": "address"
        }
      ],
      "stateMutability": "view",
      "type": "function"
    },
    {
      "inputs": [
        {
          "internalType": "address",
          "name": "user",
          "type": "address"
        }
      ],
      "name": "getLockedEnd",
      "outputs": [
        {
          "internalType": "uint256",
          "name": "",
          "type": "uint256"
        }
      ],
      "stateMutability": "view",
      "type": "function"
    },
    {
      "inputs": [],
      "name": "getOmniVotingEscrow",
      "outputs": [
        {
          "internalType": "contract IOmniVotingEscrow",
          "name": "",
          "type": "address"
        }
      ],
      "stateMutability": "view",
      "type": "function"
    },
    {
      "inputs": [
        {
          "internalType": "address",
          "name": "localUser",
          "type": "address"
        }
      ],
      "name": "getRemappingManager",
      "outputs": [
        {
          "internalType": "address",
          "name": "",
          "type": "address"
        }
      ],
      "stateMutability": "view",
      "type": "function"
    },
    {
      "inputs": [
        {
          "internalType": "address",
          "name": "localUser",
          "type": "address"
        },
        {
          "internalType": "uint16",
          "name": "chainId",
          "type": "uint16"
        }
      ],
      "name": "getRemoteUser",
      "outputs": [
        {
          "internalType": "address",
          "name": "",
          "type": "address"
        }
      ],
      "stateMutability": "view",
      "type": "function"
    },
    {
      "inputs": [],
      "name": "getTotalSupplyPoint",
      "outputs": [
        {
          "components": [
            {
              "internalType": "int128",
              "name": "bias",
              "type": "int128"
            },
            {
              "internalType": "int128",
              "name": "slope",
              "type": "int128"
            },
            {
              "internalType": "uint256",
              "name": "ts",
              "type": "uint256"
            },
            {
              "internalType": "uint256",
              "name": "blk",
              "type": "uint256"
            }
          ],
          "internalType": "struct IVotingEscrow.Point",
          "name": "",
          "type": "tuple"
        }
      ],
      "stateMutability": "view",
      "type": "function"
    },
    {
      "inputs": [
        {
          "internalType": "address",
          "name": "user",
          "type": "address"
        }
      ],
      "name": "getUserPoint",
      "outputs": [
        {
          "components": [
            {
              "internalType": "int128",
              "name": "bias",
              "type": "int128"
            },
            {
              "internalType": "int128",
              "name": "slope",
              "type": "int128"
            },
            {
              "internalType": "uint256",
              "name": "ts",
              "type": "uint256"
            },
            {
              "internalType": "uint256",
              "name": "blk",
              "type": "uint256"
            }
          ],
          "internalType": "struct IVotingEscrow.Point",
          "name": "",
          "type": "tuple"
        }
      ],
      "stateMutability": "view",
      "type": "function"
    },
    {
      "inputs": [],
      "name": "getVault",
      "outputs": [
        {
          "internalType": "contract IVault",
          "name": "",
          "type": "address"
        }
      ],
      "stateMutability": "view",
      "type": "function"
    },
    {
      "inputs": [],
      "name": "getVotingEscrow",
      "outputs": [
        {
          "internalType": "contract IVotingEscrow",
          "name": "",
          "type": "address"
        }
      ],
      "stateMutability": "view",
      "type": "function"
    },
    {
      "inputs": [
        {
          "internalType": "address",
          "name": "localUser",
          "type": "address"
        },
        {
          "internalType": "address",
          "name": "remoteUser",
          "type": "address"
        },
        {
          "internalType": "uint16",
          "name": "chainId",
          "type": "uint16"
        }
      ],
      "name": "setNetworkRemapping",
      "outputs": [],
      "stateMutability": "payable",
      "type": "function"
    },
    {
      "inputs": [
        {
          "internalType": "address",
          "name": "localUser",
          "type": "address"
        },
        {
          "internalType": "address",
          "name": "delegate",
          "type": "address"
        }
      ],
      "name": "setNetworkRemappingManager",
      "outputs": [],
      "stateMutability": "nonpayable",
      "type": "function"
    },
    {
      "inputs": [
        {
          "internalType": "contract IOmniVotingEscrow",
          "name": "omniVotingEscrow",
          "type": "address"
        }
      ],
      "name": "setOmniVotingEscrow",
      "outputs": [],
      "stateMutability": "nonpayable",
      "type": "function"
    }
  ],
  "bytecode": "0x60e06040523480156200001157600080fd5b5060405162001f5438038062001f5483398101604081905262000034916200005d565b306080526001600160601b0319606091821b811660a052600160005591901b1660c052620000b4565b6000806040838503121562000070578182fd5b82516200007d816200009b565b602084015190925062000090816200009b565b809150509250929050565b6001600160a01b0381168114620000b157600080fd5b50565b60805160a05160601c60c05160601c611e68620000ec600039806102b0528061058f52508061107c52508061102c5250611e686000f3fe6080604052600436106100e85760003560e01c806376601a181161008a578063aaabadc511610059578063aaabadc514610244578063bda75c3814610259578063ee98b1e714610279578063f6f4a33214610299576100e8565b806376601a18146101dc578063851c1bb3146101ef5780638d928af81461020f578063a9f3f44e14610224576100e8565b80633e7df7c8116100c65780633e7df7c81461014d578063550f2f7f1461017a57806370d1bd171461018f57806371628bfd146101af576100e8565b806308b0308a146100ed57806309d401f91461011857806321861fde1461013a575b600080fd5b3480156100f957600080fd5b506101026102ae565b60405161010f91906118e0565b60405180910390f35b34801561012457600080fd5b506101386101333660046116b7565b6102d2565b005b61013861014836600461170b565b610359565b34801561015957600080fd5b5061016d6101683660046116b7565b6109e4565b60405161010f9190611972565b34801561018657600080fd5b50610102610a7c565b34801561019b57600080fd5b506101026101aa366004611752565b610a98565b3480156101bb57600080fd5b506101cf6101ca3660046116b7565b610ad1565b60405161010f9190611db5565b6101386101ea366004611752565b610c1f565b3480156101fb57600080fd5b5061016d61020a3660046117a7565b611028565b34801561021b57600080fd5b5061010261107a565b34801561023057600080fd5b5061013861023f3660046116d3565b61109e565b34801561025057600080fd5b50610102611153565b34801561026557600080fd5b50610102610274366004611752565b6111df565b34801561028557600080fd5b506101026102943660046116b7565b611218565b3480156102a557600080fd5b506101cf611243565b7f000000000000000000000000000000000000000000000000000000000000000090565b6102da611383565b6102e26113c1565b600180547fffffffffffffffffffffffff00000000000000000000000000000000000000001673ffffffffffffffffffffffffffffffffffffffff83169081179091556040517fe8bb344458d00606347f5b2f5b6f6de2a6f0beeb7aa331c6b90549adc7c093c090600090a26103566113da565b50565b6103616113c1565b6103b63373ffffffffffffffffffffffffffffffffffffffff851614806103ae575073ffffffffffffffffffffffffffffffffffffffff8481166000908152600460205260409020541633145b6101916113e1565b6103bf836113ef565b6103e45760405162461bcd60e51b81526004016103db90611c41565b60405180910390fd5b73ffffffffffffffffffffffffffffffffffffffff82166104175760405162461bcd60e51b81526004016103db90611c9e565b6000610421610a7c565b905073ffffffffffffffffffffffffffffffffffffffff81166104565760405162461bcd60e51b81526004016103db90611a04565b61ffff8216600090815260036020908152604080832073ffffffffffffffffffffffffffffffffffffffff878116855292529091205416156104aa5760405162461bcd60e51b81526004016103db90611d58565b61ffff8216600090815260026020908152604080832073ffffffffffffffffffffffffffffffffffffffff878116855292529091205416156104fe5760405162461bcd60e51b81526004016103db90611b2a565b61ffff8216600090815260036020908152604080832073ffffffffffffffffffffffffffffffffffffffff888116855292529091205416156105525760405162461bcd60e51b81526004016103db90611b87565b6040517f70a0823100000000000000000000000000000000000000000000000000000000815273ffffffffffffffffffffffffffffffffffffffff7f000000000000000000000000000000000000000000000000000000000000000016906370a08231906105c49086906004016118e0565b60206040518083038186803b1580156105dc57600080fd5b505afa1580156105f0573d6000803e3d6000fd5b505050506040513d601f19601f820116820180604052508101906106149190611872565b156106315760405162461bcd60e51b81526004016103db90611a3b565b61ffff8216600090815260026020908152604080832073ffffffffffffffffffffffffffffffffffffffff80891685529252909120541680156106f05761ffff8316600081815260036020908152604080832073ffffffffffffffffffffffffffffffffffffffff8616808552925280832080547fffffffffffffffffffffffff00000000000000000000000000000000000000001690555190917f8bbec57d3a3f4c2e45c921fd17cbddb674ae1a51e01ca960b8251463c5907f6391a35b61ffff8316600081815260036020908152604080832073ffffffffffffffffffffffffffffffffffffffff808a168086529184528285208054918c167fffffffffffffffffffffffff0000000000000000000000000000000000000000928316811790915586865260028552838620818752909452828520805490911682179055905190927f632b3b16accd727b982fb08251e873b41265cc9976166f1111fd6ddd49c8b9d391a46040517f65d092d000000000000000000000000000000000000000000000000000000000815260009073ffffffffffffffffffffffffffffffffffffffff8416906365d092d0906107ef9087908590600401611deb565b604080518083038186803b15801561080657600080fd5b505afa15801561081a573d6000803e3d6000fd5b505050506040513d601f19601f8201168201806040525081019061083e919061188a565b50905073ffffffffffffffffffffffffffffffffffffffff82161561091257806002023410156108805760405162461bcd60e51b81526004016103db90611acd565b6040517f4a75948900000000000000000000000000000000000000000000000000000000815273ffffffffffffffffffffffffffffffffffffffff841690634a7594899083906108db90869089903390600090600401611901565b6000604051808303818588803b1580156108f457600080fd5b505af1158015610908573d6000803e3d6000fd5b5050505050610932565b803410156109325760405162461bcd60e51b81526004016103db90611acd565b6040517f4a75948900000000000000000000000000000000000000000000000000000000815273ffffffffffffffffffffffffffffffffffffffff841690634a75948990839061098d908a9089903390600090600401611901565b6000604051808303818588803b1580156109a657600080fd5b505af11580156109ba573d6000803e3d6000fd5b5047935050821591506109d39050576109d33382611523565b505050506109df6113da565b505050565b60006109ee6102ae565b73ffffffffffffffffffffffffffffffffffffffff1663adc63589836040518263ffffffff1660e01b8152600401610a2691906118e0565b60206040518083038186803b158015610a3e57600080fd5b505afa158015610a52573d6000803e3d6000fd5b505050506040513d601f19601f82011682018060405250810190610a769190611872565b92915050565b60015473ffffffffffffffffffffffffffffffffffffffff1690565b61ffff16600090815260036020908152604080832073ffffffffffffffffffffffffffffffffffffffff94851684529091529020541690565b610ad9611665565b6000610ae36102ae565b905060008173ffffffffffffffffffffffffffffffffffffffff1663010ae757856040518263ffffffff1660e01b8152600401610b2091906118e0565b60206040518083038186803b158015610b3857600080fd5b505afa158015610b4c573d6000803e3d6000fd5b505050506040513d601f19601f82011682018060405250810190610b709190611872565b6040517f28d09d4700000000000000000000000000000000000000000000000000000000815290915073ffffffffffffffffffffffffffffffffffffffff8316906328d09d4790610bc7908790859060040161194c565b60806040518083038186803b158015610bdf57600080fd5b505afa158015610bf3573d6000803e3d6000fd5b505050506040513d601f19601f82011682018060405250810190610c179190611803565b949350505050565b610c276113c1565b73ffffffffffffffffffffffffffffffffffffffff8216610c5a5760405162461bcd60e51b81526004016103db90611a98565b610c63826113ef565b1580610c84575073ffffffffffffffffffffffffffffffffffffffff821633145b610ca05760405162461bcd60e51b81526004016103db906119a7565b6000610caa610a7c565b905073ffffffffffffffffffffffffffffffffffffffff8116610cdf5760405162461bcd60e51b81526004016103db90611a04565b61ffff8216600090815260026020908152604080832073ffffffffffffffffffffffffffffffffffffffff80881685529252909120541680610d335760405162461bcd60e51b81526004016103db90611be4565b61ffff8316600081815260036020908152604080832073ffffffffffffffffffffffffffffffffffffffff808716855290835281842080547fffffffffffffffffffffffff000000000000000000000000000000000000000090811690915585855260028452828520918a16808652919093528184208054909316909255517f632b3b16accd727b982fb08251e873b41265cc9976166f1111fd6ddd49c8b9d3908390a460405161ffff84169073ffffffffffffffffffffffffffffffffffffffff8316907f8bbec57d3a3f4c2e45c921fd17cbddb674ae1a51e01ca960b8251463c5907f6390600090a36040517f65d092d000000000000000000000000000000000000000000000000000000000815260009073ffffffffffffffffffffffffffffffffffffffff8416906365d092d090610e759087908590600401611deb565b604080518083038186803b158015610e8c57600080fd5b505afa158015610ea0573d6000803e3d6000fd5b505050506040513d601f19601f82011682018060405250810190610ec4919061188a565b50905080600202341015610eea5760405162461bcd60e51b81526004016103db90611acd565b6040517f4a75948900000000000000000000000000000000000000000000000000000000815273ffffffffffffffffffffffffffffffffffffffff841690634a759489908390610f4590899089903390600090600401611901565b6000604051808303818588803b158015610f5e57600080fd5b505af1158015610f72573d6000803e3d6000fd5b50506040517f4a75948900000000000000000000000000000000000000000000000000000000815273ffffffffffffffffffffffffffffffffffffffff87169350634a7594899250849150610fd290869089903390600090600401611901565b6000604051808303818588803b158015610feb57600080fd5b505af1158015610fff573d6000803e3d6000fd5b5047935050821591506110189050576110183382611523565b505050506110246113da565b5050565b60007f00000000000000000000000000000000000000000000000000000000000000008260405160200161105d9291906118ad565b604051602081830303815290604052805190602001209050919050565b7f000000000000000000000000000000000000000000000000000000000000000090565b6110a6611383565b6110ae6113c1565b6110b7826113ef565b6110d35760405162461bcd60e51b81526004016103db90611cfb565b73ffffffffffffffffffffffffffffffffffffffff82811660008181526004602052604080822080547fffffffffffffffffffffffff0000000000000000000000000000000000000000169486169485179055517f72cff3a94768f9930e59d7a01948e45bea689391918693c8d164c16f271c46d99190a36110246113da565b600061115d61107a565b73ffffffffffffffffffffffffffffffffffffffff1663aaabadc56040518163ffffffff1660e01b815260040160206040518083038186803b1580156111a257600080fd5b505afa1580156111b6573d6000803e3d6000fd5b505050506040513d601f19601f820116820180604052508101906111da91906117e7565b905090565b61ffff16600090815260026020908152604080832073ffffffffffffffffffffffffffffffffffffffff94851684529091529020541690565b73ffffffffffffffffffffffffffffffffffffffff9081166000908152600460205260409020541690565b61124b611665565b60006112556102ae565b905060008173ffffffffffffffffffffffffffffffffffffffff1663900cf0cf6040518163ffffffff1660e01b815260040160206040518083038186803b15801561129f57600080fd5b505afa1580156112b3573d6000803e3d6000fd5b505050506040513d601f19601f820116820180604052508101906112d79190611872565b6040517fd1febfb900000000000000000000000000000000000000000000000000000000815290915073ffffffffffffffffffffffffffffffffffffffff83169063d1febfb99061132c908490600401611972565b60806040518083038186803b15801561134457600080fd5b505afa158015611358573d6000803e3d6000fd5b505050506040513d601f19601f8201168201806040525081019061137c9190611803565b9250505090565b60006113b26000357fffffffff0000000000000000000000000000000000000000000000000000000016611028565b90506103566103ae82336115aa565b6113d3600260005414156101906113e1565b6002600055565b6001600055565b8161102457611024816115f0565b6000806113fa6102ae565b73ffffffffffffffffffffffffffffffffffffffff16637175d4f76040518163ffffffff1660e01b815260040160206040518083038186803b15801561143f57600080fd5b505afa158015611453573d6000803e3d6000fd5b505050506040513d601f19601f8201168201806040525081019061147791906117e7565b6040517fc23697a800000000000000000000000000000000000000000000000000000000815290915073ffffffffffffffffffffffffffffffffffffffff82169063c23697a8906114cc9086906004016118e0565b60206040518083038186803b1580156114e457600080fd5b505afa1580156114f8573d6000803e3d6000fd5b505050506040513d601f19601f8201168201806040525081019061151c9190611787565b9392505050565b611532814710156101a36113e1565b60008273ffffffffffffffffffffffffffffffffffffffff1682604051611558906118dd565b60006040518083038185875af1925050503d8060008114611595576040519150601f19603f3d011682016040523d82523d6000602084013e61159a565b606091505b505090506109df816101a46113e1565b60006115b4611153565b73ffffffffffffffffffffffffffffffffffffffff16639be2a8848484306040518463ffffffff1660e01b81526004016114cc9392919061197b565b62461bcd60e51b600090815260206004526007602452600a808304818106603090810160081b83860601918390049283060160101b016642414c230000300160c81b604452610356917f42414c0000000000000000000000000000000000000000000000000000000000906242414c90606490fd5b60405180608001604052806000600f0b81526020016000600f0b815260200160008152602001600081525090565b8051600f81900b8114610a7657600080fd5b803561ffff81168114610a7657600080fd5b6000602082840312156116c8578081fd5b813561151c81611e10565b600080604083850312156116e5578081fd5b82356116f081611e10565b9150602083013561170081611e10565b809150509250929050565b60008060006060848603121561171f578081fd5b833561172a81611e10565b9250602084013561173a81611e10565b915061174985604086016116a5565b90509250925092565b60008060408385031215611764578182fd5b823561176f81611e10565b915061177e84602085016116a5565b90509250929050565b600060208284031215611798578081fd5b8151801515811461151c578182fd5b6000602082840312156117b8578081fd5b81357fffffffff000000000000000000000000000000000000000000000000000000008116811461151c578182fd5b6000602082840312156117f8578081fd5b815161151c81611e10565b600060808284031215611814578081fd5b6040516080810181811067ffffffffffffffff82111715611833578283fd5b6040526118408484611693565b815261184f8460208501611693565b602082015260408301516040820152606083015160608201528091505092915050565b600060208284031215611883578081fd5b5051919050565b6000806040838503121561189c578182fd5b505080516020909101519092909150565b9182527fffffffff0000000000000000000000000000000000000000000000000000000016602082015260240190565b90565b73ffffffffffffffffffffffffffffffffffffffff91909116815260200190565b73ffffffffffffffffffffffffffffffffffffffff948516815261ffff9390931660208401529083166040830152909116606082015260a06080820181905260009082015260c00190565b73ffffffffffffffffffffffffffffffffffffffff929092168252602082015260400190565b90815260200190565b92835273ffffffffffffffffffffffffffffffffffffffff918216602084015216604082015260600190565b60208082526023908201527f6c6f63616c55736572206973207374696c6c20696e20676f6f64207374616e6460408201527f696e670000000000000000000000000000000000000000000000000000000000606082015260800190565b6020808252601a908201527f4f6d6e6920766f74696e6720657363726f77206e6f7420736574000000000000604082015260600190565b60208082526030908201527f5461726765742072656d6f7465206164647265737320686173206e6f6e2d7a6560408201527f726f20766542414c2062616c616e636500000000000000000000000000000000606082015260800190565b6020808252818101527f6c6f63616c557365722063616e6e6f74206265207a65726f2061646472657373604082015260600190565b60208082526027908201527f496e73756666696369656e742045544820746f2062726964676520757365722060408201527f62616c616e636500000000000000000000000000000000000000000000000000606082015260800190565b60208082526031908201527f43616e6e6f742072656d617020746f20616e206164647265737320746861742060408201527f697320696e20757365206c6f63616c6c79000000000000000000000000000000606082015260800190565b60208082526032908201527f43616e6e6f742072656d617020746f20616e206164647265737320746861742060408201527f697320696e207573652072656d6f74656c790000000000000000000000000000606082015260800190565b60208082526021908201527f52656d617070696e6720746f20636c65617220646f6573206e6f74206578697360408201527f7400000000000000000000000000000000000000000000000000000000000000606082015260800190565b60208082526038908201527f4f6e6c7920636f6e7472616374732077686963682063616e20686f6c6420766560408201527f42414c2063616e207365742075702061206d617070696e670000000000000000606082015260800190565b6020808252602a908201527f5a65726f20616464726573732063616e6e6f742062652075736564206173207260408201527f656d6f7465207573657200000000000000000000000000000000000000000000606082015260800190565b60208082526037908201527f4f6e6c7920636f6e7472616374732077686963682063616e20686f6c6420766560408201527f42414c206d6179206861766520612064656c6567617465000000000000000000606082015260800190565b60208082526034908201527f43616e6e6f74206f766572777269746520616e206578697374696e67206d617060408201527f70696e6720627920616e6f746865722075736572000000000000000000000000606082015260800190565b60006080820190508251600f0b82526020830151600f0b6020830152604083015160408301526060830151606083015292915050565b61ffff9290921682521515602082015260606040820181905260009082015260800190565b73ffffffffffffffffffffffffffffffffffffffff8116811461035657600080fdfea264697066735822122042910cf93890b766e7ad783f55298024fefd19f0d2b8f3c0879504b093ffab8764736f6c63430007010033",
  "linkReferences": {},
  "deployedLinkReferences": {}
}