{
  "_format": "hh-sol-artifact-1",
  "contractName": "ManagedPoolFactory",
  "sourceName": "contracts/managed/ManagedPoolFactory.sol",
  "abi": [
    {
      "inputs": [
        {
          "internalType": "contract IVault",
          "name": "vault",
          "type": "address"
        },
        {
          "internalType": "contract IProtocolFeePercentagesProvider",
          "name": "protocolFeeProvider",
          "type": "address"
        }
      ],
      "stateMutability": "nonpayable",
      "type": "constructor"
    },
    {
      "anonymous": false,
      "inputs": [],
      "name": "FactoryDisabled",
      "type": "event"
    },
    {
      "anonymous": false,
      "inputs": [
        {
          "indexed": true,
          "internalType": "address",
          "name": "pool",
          "type": "address"
        }
      ],
      "name": "PoolCreated",
      "type": "event"
    },
    {
      "inputs": [
        {
          "components": [
            {
              "internalType": "string",
              "name": "name",
              "type": "string"
            },
            {
              "internalType": "string",
              "name": "symbol",
              "type": "string"
            },
            {
              "internalType": "contract IERC20[]",
              "name": "tokens",
              "type": "address[]"
            },
            {
              "internalType": "uint256[]",
              "name": "normalizedWeights",
              "type": "uint256[]"
            },
            {
              "internalType": "address[]",
              "name": "assetManagers",
              "type": "address[]"
            },
            {
              "internalType": "uint256",
              "name": "swapFeePercentage",
              "type": "uint256"
            },
            {
              "internalType": "bool",
              "name": "swapEnabledOnStart",
              "type": "bool"
            },
            {
              "internalType": "bool",
              "name": "mustAllowlistLPs",
              "type": "bool"
            },
            {
              "internalType": "uint256",
              "name": "managementAumFeePercentage",
              "type": "uint256"
            },
            {
              "internalType": "uint256",
              "name": "aumFeeId",
              "type": "uint256"
            }
          ],
          "internalType": "struct ManagedPoolSettings.NewPoolParams",
          "name": "poolParams",
          "type": "tuple"
        },
        {
          "internalType": "address",
          "name": "owner",
          "type": "address"
        }
      ],
      "name": "create",
      "outputs": [
        {
          "internalType": "address",
          "name": "pool",
          "type": "address"
        }
      ],
      "stateMutability": "nonpayable",
      "type": "function"
    },
    {
      "inputs": [],
      "name": "disable",
      "outputs": [],
      "stateMutability": "nonpayable",
      "type": "function"
    },
    {
      "inputs": [
        {
          "internalType": "bytes4",
          "name": "selector",
          "type": "bytes4"
        }
      ],
      "name": "getActionId",
      "outputs": [
        {
          "internalType": "bytes32",
          "name": "",
          "type": "bytes32"
        }
      ],
      "stateMutability": "view",
      "type": "function"
    },
    {
      "inputs": [],
      "name": "getAuthorizer",
      "outputs": [
        {
          "internalType": "contract IAuthorizer",
          "name": "",
          "type": "address"
        }
      ],
      "stateMutability": "view",
      "type": "function"
    },
    {
      "inputs": [],
      "name": "getCreationCode",
      "outputs": [
        {
          "internalType": "bytes",
          "name": "",
          "type": "bytes"
        }
      ],
      "stateMutability": "view",
      "type": "function"
    },
    {
      "inputs": [],
      "name": "getCreationCodeContracts",
      "outputs": [
        {
          "internalType": "address",
          "name": "contractA",
          "type": "address"
        },
        {
          "internalType": "address",
          "name": "contractB",
          "type": "address"
        }
      ],
      "stateMutability": "view",
      "type": "function"
    },
    {
      "inputs": [],
      "name": "getPauseConfiguration",
      "outputs": [
        {
          "internalType": "uint256",
          "name": "pauseWindowDuration",
          "type": "uint256"
        },
        {
          "internalType": "uint256",
          "name": "bufferPeriodDuration",
          "type": "uint256"
        }
      ],
      "stateMutability": "view",
      "type": "function"
    },
    {
      "inputs": [],
      "name": "getProtocolFeePercentagesProvider",
      "outputs": [
        {
          "internalType": "contract IProtocolFeePercentagesProvider",
          "name": "",
          "type": "address"
        }
      ],
      "stateMutability": "view",
      "type": "function"
    },
    {
      "inputs": [],
      "name": "getVault",
      "outputs": [
        {
          "internalType": "contract IVault",
          "name": "",
          "type": "address"
        }
      ],
      "stateMutability": "view",
      "type": "function"
    },
    {
      "inputs": [],
      "name": "getWeightedMath",
      "outputs": [
        {
          "internalType": "contract IExternalWeightedMath",
          "name": "",
          "type": "address"
        }
      ],
      "stateMutability": "view",
      "type": "function"
    },
    {
      "inputs": [],
      "name": "isDisabled",
      "outputs": [
        {
          "internalType": "bool",
          "name": "",
          "type": "bool"
        }
      ],
      "stateMutability": "view",
      "type": "function"
    },
    {
      "inputs": [
        {
          "internalType": "address",
          "name": "pool",
          "type": "address"
        }
      ],
      "name": "isPoolFromFactory",
      "outputs": [
        {
          "internalType": "bool",
          "name": "",
          "type": "bool"
        }
      ],
      "stateMutability": "view",
      "type": "function"
    }
  ],
  "bytecode": "0x6101a06040523480156200001257600080fd5b506040516200b8ad3803806200b8ad833981016040819052620000359162000248565b81816040518060200162000049906200022c565b601f1982820381018352601f90910116604052805183903090839060006002820460a081905280830360e08190528185529091508362000095816200014d602090811b6200048717901c565b60601b6001600160601b0319166080528285018051838252620000c4826200014d602090811b6200048717901c565b6001600160601b0319606091821b811660c05296909352905261010095909552505092821b831661012052509290921b909116610140525050426276a700016101605260405162000115906200023a565b604051809103906000f08015801562000132573d6000803e3d6000fd5b5060601b6001600160601b03191661018052506200029c9050565b80517f602038038060206000396000f3fefefefefefefefefefefefefefefefefefefe808352600091602081018484f090845291506200019b6001600160a01b03831615156101ac620001a1565b50919050565b81620001b257620001b281620001b6565b5050565b620001c8816210905360ea1b620001cb565b50565b62461bcd60e51b600090815260206004526007602452600a808404818106603090810160081b958390069590950190829004918206850160101b01602363ffffff0060e086901c160160181b0190930160c81b60445260e882901c90606490fd5b61775e80620011bd83390190565b612f92806200891b83390190565b600080604083850312156200025b578182fd5b8251620002688162000286565b60208401519092506200027b8162000286565b809150509250929050565b6001600160a01b0381168114620001c857600080fd5b60805160601c60a05160c05160601c60e051610100516101205160601c6101405160601c610160516101805160601c610e9662000327600039806102d1528061032a5250806101ff52806102285250806103755250806103eb52508061039b5250806104e15250806101d6528061055d5250806105025250806101b552806105395250610e966000f3fe608060405234801561001057600080fd5b50600436106100b35760003560e01c80636634b753116100715780636634b753146101345780636c57f5a914610154578063739238d61461015c578063851c1bb3146101645780638d928af814610184578063aaabadc51461018c576100b3565b8062c194db146100b8578063174481fa146100d65780632da47c40146100ec5780632f2770db1461010257806344da655f1461010c578063508f0eae1461012c575b600080fd5b6100c0610194565b6040516100cd9190610ca3565b60405180910390f35b6100de6101b3565b6040516100cd929190610c56565b6100f46101f9565b6040516100cd929190610de8565b61010a610263565b005b61011f61011a366004610a07565b6102aa565b6040516100cd9190610c42565b61011f610328565b61014761014236600461098b565b61034c565b6040516100cd9190610c70565b61014761036a565b61011f610373565b6101776101723660046109c3565b610397565b6040516100cd9190610c7b565b61011f6103e9565b61011f61040d565b60606101ae604051806020016040528060008152506104d9565b905090565b7f00000000000000000000000000000000000000000000000000000000000000007f00000000000000000000000000000000000000000000000000000000000000009091565b600080427f000000000000000000000000000000000000000000000000000000000000000081101561025557807f000000000000000000000000000000000000000000000000000000000000000003925062278d00915061025e565b60009250600091505b509091565b61026b6105b2565b6102736105e3565b6001805460ff1916811790556040517f432acbfd662dbb5d8b378384a67159b47ca9d0f1b79f97cf64cf8585fa362d5090600090a1565b60008060006102b76101f9565b9150915061031d856102c76103e9565b6102cf610373565b7f00000000000000000000000000000000000000000000000000000000000000008887876040516020016103099796959493929190610cb6565b6040516020818303038152906040526105f8565b925050505b92915050565b7f000000000000000000000000000000000000000000000000000000000000000090565b6001600160a01b031660009081526020819052604090205460ff1690565b60015460ff1690565b7f000000000000000000000000000000000000000000000000000000000000000090565b60007f0000000000000000000000000000000000000000000000000000000000000000826040516020016103cc929190610c2a565b604051602081830303815290604052805190602001209050919050565b7f000000000000000000000000000000000000000000000000000000000000000090565b60006104176103e9565b6001600160a01b031663aaabadc56040518163ffffffff1660e01b815260040160206040518083038186803b15801561044f57600080fd5b505afa158015610463573d6000803e3d6000fd5b505050506040513d601f19601f820116820180604052508101906101ae91906109eb565b80517f602038038060206000396000f3fefefefefefefefefefefefefefefefefefefe808352600091602081018484f090845291506104d36001600160a01b03831615156101ac610661565b50919050565b8051604080517f00000000000000000000000000000000000000000000000000000000000000007f0000000000000000000000000000000000000000000000000000000000000000818101858101848101602090810190965280855293957f00000000000000000000000000000000000000000000000000000000000000009592947f000000000000000000000000000000000000000000000000000000000000000094938801866000828a3c846000888301883c50602089810190898501016105a4818386610673565b505050505050505050919050565b60006105c96000356001600160e01b031916610397565b90506105e06105d882336106b1565b610191610661565b50565b6105f66105ee61036a565b1560d3610661565b565b60006106026105e3565b600061060d83610741565b6001600160a01b038116600081815260208190526040808220805460ff191660011790555192935090917f83a48fbcfc991335314e74d0496aab6a1987e992ddc85dddbcc4d6dd6ef2e9fc9190a292915050565b8161066f5761066f81610775565b5050565b5b60208110610693578151835260209283019290910190601f1901610674565b905182516020929092036101000a6000190180199091169116179052565b60006106bb61040d565b6001600160a01b0316639be2a8848484306040518463ffffffff1660e01b81526004016106ea93929190610c84565b60206040518083038186803b15801561070257600080fd5b505afa158015610716573d6000803e3d6000fd5b505050506040513d601f19601f8201168201806040525081019061073a91906109a7565b9392505050565b6000606061074e836104d9565b905060008151602083016000f090506001600160a01b03811661073a573d6000803e3d6000fd5b62461bcd60e51b600090815260206004526007602452600a808304818106603090810160081b83860601918390049283060160101b016642414c230000300160c81b6044526105e0916210905360ea1b906242414c90606490fd5b803561032281610e3d565b600082601f8301126107eb578081fd5b81356107fe6107f982610e1d565b610df6565b81815291506020808301908481018184028601820187101561081f57600080fd5b60005b8481101561084757813561083581610e3d565b84529282019290820190600101610822565b505050505092915050565b600082601f830112610862578081fd5b81356108706107f982610e1d565b81815291506020808301908481018184028601820187101561089157600080fd5b60005b848110156108475781356108a781610e3d565b84529282019290820190600101610894565b600082601f8301126108c9578081fd5b81356108d76107f982610e1d565b8181529150602080830190848101818402860182018710156108f857600080fd5b60005b84811015610847578135845292820192908201906001016108fb565b803561032281610e52565b600082601f830112610932578081fd5b813567ffffffffffffffff811115610948578182fd5b61095b601f8201601f1916602001610df6565b915080825283602082850101111561097257600080fd5b8060208401602084013760009082016020015292915050565b60006020828403121561099c578081fd5b813561073a81610e3d565b6000602082840312156109b8578081fd5b815161073a81610e52565b6000602082840312156109d4578081fd5b81356001600160e01b03198116811461073a578182fd5b6000602082840312156109fc578081fd5b815161073a81610e3d565b60008060408385031215610a19578081fd5b823567ffffffffffffffff80821115610a30578283fd5b8185019150610140808388031215610a46578384fd5b610a4f81610df6565b9050823582811115610a5f578485fd5b610a6b88828601610922565b825250602083013582811115610a7f578485fd5b610a8b88828601610922565b602083015250604083013582811115610aa2578485fd5b610aae88828601610852565b604083015250606083013582811115610ac5578485fd5b610ad1888286016108b9565b606083015250608083013582811115610ae8578485fd5b610af4888286016107db565b60808301525060a083013560a0820152610b118760c08501610917565b60c0820152610b238760e08501610917565b60e082015261010083810135908201526101209283013592810192909252509150610b5184602085016107d0565b90509250929050565b6001600160a01b03169052565b6000815180845260208085019450808401835b83811015610b9f5781516001600160a01b031687529582019590820190600101610b7a565b509495945050505050565b6000815180845260208085019450808401835b83811015610b9f57815187529582019590820190600101610bbd565b15159052565b60008151808452815b81811015610c0457602081850181015186830182015201610be8565b81811115610c155782602083870101525b50601f01601f19169290920160200192915050565b9182526001600160e01b031916602082015260240190565b6001600160a01b0391909116815260200190565b6001600160a01b0392831681529116602082015260400190565b901515815260200190565b90815260200190565b9283526001600160a01b03918216602084015216604082015260600190565b60006020825261073a6020830184610bdf565b600060e0825288516101408060e0850152610cd5610220850183610bdf565b915060208b015160df19610100818786030181880152610cf58584610bdf565b945060408e01519250610120828887030181890152610d148685610b67565b955060608f01519350828887030185890152610d308685610baa565b955060808f015194508288870301610160890152610d4e8686610b67565b955060a08f015161018089015260c08f01519450610d706101a0890186610bd9565b60e08f01519450610d856101c0890186610bd9565b908e01516101e08801528d015161020087015250919250610dac9150506020830189610b5a565b610db96040830188610b5a565b610dc66060830187610b5a565b610dd36080830186610b5a565b60a082019390935260c0015295945050505050565b918252602082015260400190565b60405181810167ffffffffffffffff81118282101715610e1557600080fd5b604052919050565b600067ffffffffffffffff821115610e33578081fd5b5060209081020190565b6001600160a01b03811681146105e057600080fd5b80151581146105e057600080fdfea2646970667358221220817481454a3462d9ac07f7e0bcdb05ce950192e04218fb8a3e403c9dadfb1be064736f6c634300070100336102206040523480156200001257600080fd5b506040516200775e3803806200775e833981016040819052620000359162001385565b86858060405180606001604052806000815260200160028152602001846101200151815250896200007d8b60018e604001518f60800151620003fe60201b620018e61760201c565b8c600001518d6020015189898c828286868a85336001600160a01b031660001b8480604051806040016040528060018152602001603160f81b81525087878160039080519060200190620000d3929190620010ae565b508051620000e9906004906020840190620010ae565b50506005805460ff19166012179055508151602092830120608052805191012060a052507f8b73c3c69bb8fe3d512ecc4cf759cc79239f7b179b0ffacaa9a75d522b39400f60c05260e0526001600160601b0319606091821b81166101005291901b1661012052506200016790506276a700831115610194620005cc565b6200017b62278d00821115610195620005cc565b4290910161014081905201610160526101808690526040805163d2946c2b60e01b815290516001600160a01b0389169163d2946c2b916004808301926020929190829003018186803b158015620001d157600080fd5b505afa158015620001e6573d6000803e3d6000fd5b505050506040513d601f19601f820116820180604052508101906200020c919062001366565b606090811b6001600160601b03199081166101a052908a901b166101c05250505050604084015160009350620002559250905060106008620005e1602090811b62001a9917901c565b62000276836020015160086000016008620005e160201b62001a991760201c565b62000294846000015160006008620005e160201b62001a991760201c565b17176101e08190529050620002aa8382620005f6565b505050604082015151620002c4600282101560c8620005cc565b620002d5603282111560c9620005cc565b620002f7818460600151518560800151516200087c60201b62001aac1760201c565b61010083015162000308906200089c565b60005b8181101562000383576000846040015182815181106200032757fe5b602002602001015190506200036081866060015184815181106200034757fe5b60200260200101516200090e60201b62001ac91760201c565b6001600160a01b039091166000908152600b60205260409020556001016200030b565b50620003a542428560600151866060015187604001516200093260201b60201c565b60a0830151620003ba90429081908062000a8f565b60c0830151620003ca9062000b0a565b60e0830151620003da9062000b58565b505050505060609190911b6001600160601b03191661020052506200170e92505050565b6000620004168362000ba660201b62001ae21760201c565b606083516001016001600160401b03811180156200043357600080fd5b506040519080825280602002602001820160405280156200045e578160200160208202803683370190505b50905030816000815181106200047057fe5b60200260200101906001600160a01b031690816001600160a01b03168152505060005b8451811015620004e357848181518110620004aa57fe5b6020026020010151828260010181518110620004c257fe5b6001600160a01b039092166020928302919091019091015260010162000493565b50606083516001016001600160401b03811180156200050157600080fd5b506040519080825280602002602001820160405280156200052c578160200160208202803683370190505b5090506000816000815181106200053f57fe5b60200260200101906001600160a01b031690816001600160a01b03168152505060005b8451811015620005b2578481815181106200057957fe5b60200260200101518282600101815181106200059157fe5b6001600160a01b039092166020928302919091019091015260010162000562565b50620005c18787848462000bb2565b979650505050505050565b81620005dd57620005dd8162000cac565b5050565b6000620005f084848462000cc1565b50501b90565b6000826001600160a01b0316631a7c326362000625600060088662000d1c60201b62001af0179092919060201c565b6040518263ffffffff1660e01b8152600401620006439190620015a9565b60206040518083038186803b1580156200065c57600080fd5b505afa15801562000671573d6000803e3d6000fd5b505050506040513d601f19601f820116820180604052508101906200069791906200134d565b905060006001600160a01b038416631a7c3263620006c48560088062000d1c602090811b62001af017901c565b6040518263ffffffff1660e01b8152600401620006e29190620015a9565b60206040518083038186803b158015620006fb57600080fd5b505afa15801562000710573d6000803e3d6000fd5b505050506040513d601f19601f820116820180604052508101906200073691906200134d565b905060006001600160a01b038516631a7c326362000764866010600862000d1c602090811b62001af017901c565b6040518263ffffffff1660e01b8152600401620007829190620015a9565b60206040518083038186803b1580156200079b57600080fd5b505afa158015620007b0573d6000803e3d6000fd5b505050506040513d601f19601f82011682018060405250810190620007d691906200134d565b90506000620007f982604080600001016040620005e160201b62001a991760201c565b620008168460406000016040620005e160201b62001a991760201c565b620008308660006040620005e160201b62001a991760201c565b17179050806008819055507fc3f0acc358200d8e08ac6ce20bc2f9f27893a344f813bf682b7859b3e521502e816040516200086c9190620015a9565b60405180910390a1505050505050565b6200089782841480156200088f57508183145b6067620005cc565b505050565b620008b5670d2f13f7789f0000821115610160620005cc565b620008ce600a548262000d2b60201b62001aff1760201c565b600a556040517f556cdf4052d939f8acbe593d83668d2e18500b032bcf51cbbf82b181c6094dd79062000903908390620015a9565b60405180910390a150565b60006200091c818462000d53565b90506200092b81838062000e03565b9392505050565b6000805b835181101562000a215760008482815181106200094f57fe5b6020026020010151905062000977662386f26fc1000082101561012e620005cc60201b60201c565b62000991818462000e4560201b62001b0e1790919060201c565b92506000848381518110620009a257fe5b60200260200101519050620009fd600b6000836001600160a01b03166001600160a01b0316815260200190815260200160002054888581518110620009e357fe5b60200260200101518462000e0360201b62001b201760201c565b6001600160a01b039091166000908152600b60205260409020555060010162000936565b5062000a3a670de0b6b3a76400008214610134620005cc565b62000a54600954878762000e5960201b62001b3d1760201c565b6009556040517f0f3631f9dab08169d1db21c6dc5f32536fb2b0a6b9bb5330d71c52132f968be0906200086c90889088908890889062001655565b62000a9a8262000e8d565b62000aa58162000e8d565b62000ac16009548585858562000eba60201b62001b5b1760201c565b6009556040517fc42eae0298d32208994ed5d58e525fa31c2911e95451d98f8df3355259c4a13d9062000afc9086908690869086906200168a565b60405180910390a150505050565b62000b236009548262000f3660201b62001b9b1760201c565b6009556040517f5a9e84f78f7957cb4ed7478eb0fcad35ee4ecbe2e0f298420b28a3955392573f90620009039083906200159e565b62000b716009548262000f5260201b62001ba91760201c565b6009556040517f5353e2cb47d505ba9b628610daec53fc41f3a4259dab35a757b0f1d5a58bc1c390620009039083906200159e565b80620005dd8162000f6e565b600080856001600160a01b03166309b2760f866040518263ffffffff1660e01b815260040162000be3919062001640565b602060405180830381600087803b15801562000bfe57600080fd5b505af115801562000c13573d6000803e3d6000fd5b505050506040513d601f19601f8201168201806040525081019062000c3991906200134d565b604051633354e3e960e11b81529091506001600160a01b038716906366a9c7d29062000c6e90849088908890600401620015b2565b600060405180830381600087803b15801562000c8957600080fd5b505af115801562000c9e573d6000803e3d6000fd5b509298975050505050505050565b62000cbe816210905360ea1b62000ff5565b50565b62000cd261010083106064620005cc565b62000d0b6001821015801562000d03575062000cff60ff84610100036200105660201b62001bb71760201c565b8211155b6064620005cc565b6200089783821c156101b4620005cc565b6001901b6000190191901c1690565b60006200092b826000603c866200106260201b62001bc317909392919060201c565b92915050565b60006200092b62000deb836001600160a01b031663313ce5676040518163ffffffff1660e01b815260040160206040518083038186803b15801562000d9757600080fd5b505afa15801562000dac573d6000803e3d6000fd5b505050506040513d601f19601f8201168201806040525081019062000dd291906200153f565b60ff1660126200108760201b62001be61790919060201c565b84906080600562001062602090811b62001bc317901c565b600062000e3d8260408062000e278888878462001062602090811b62001bc317901c565b6200106260201b62001bc317909392919060201c565b949350505050565b60008282016200092b8482101583620005cc565b600062000e73848483602062001bc362001062821b17811c565b935062000e3d848360208062001bc362001062821b17811c565b62000ea264e8d4a5100082101560cb620005cc565b62000cbe670d2f13f7789f000082111560ca620005cc565b600062000ed586866040602062001bc362001062821b17811c565b955062000ef086856060602062001bc362001062821b17811c565b955062000f0e86846080603e62001062602090811b62001bc317901c565b955062000f2c868360be603e62001062602090811b62001bc317901c565b9695505050505050565b60006200092b838360fc6200109f602090811b62001bfc17901c565b60006200092b838360fd6200109f602090811b62001bfc17901c565b60028151101562000f7f5762000cbe565b60008160008151811062000f8f57fe5b602002602001015190506000600190505b82518110156200089757600083828151811062000fb957fe5b6020026020010151905062000fea816001600160a01b0316846001600160a01b0316106065620005cc60201b60201c565b915060010162000fa0565b62461bcd60e51b600090815260206004526007602452600a808404818106603090810160081b958390069590950190829004918206850160101b01602363ffffff0060e086901c160160181b0190930160c81b60445260e882901c90606490fd5b80820390821102900390565b60006200107184848462000cc1565b506001901b60001901811b1992909216911b1790565b600062001099838311156001620005cc565b50900390565b6001811b1992909216911b1790565b828054600181600116156101000203166002900490600052602060002090601f016020900481019282601f10620010f157805160ff191683800117855562001121565b8280016001018555821562001121579182015b828111156200112157825182559160200191906001019062001104565b506200112f92915062001133565b5090565b5b808211156200112f576000815560010162001134565b805162000d4d81620016f8565b600082601f83011262001168578081fd5b81516200117f6200117982620016cc565b620016a5565b818152915060208083019084810181840286018201871015620011a157600080fd5b60005b84811015620011cd578151620011ba81620016f8565b84529282019290820190600101620011a4565b505050505092915050565b600082601f830112620011e9578081fd5b8151620011fa6200117982620016cc565b8181529150602080830190848101818402860182018710156200121c57600080fd5b60005b84811015620011cd5781516200123581620016f8565b845292820192908201906001016200121f565b600082601f83011262001259578081fd5b81516200126a6200117982620016cc565b8181529150602080830190848101818402860182018710156200128c57600080fd5b60005b84811015620011cd578151845292820192908201906001016200128f565b8051801515811462000d4d57600080fd5b600082601f830112620012cf578081fd5b81516001600160401b03811115620012e5578182fd5b6020620012fb601f8301601f19168201620016a5565b925081835284818386010111156200131257600080fd5b60005b828110156200133257848101820151848201830152810162001315565b82811115620013445760008284860101525b50505092915050565b6000602082840312156200135f578081fd5b5051919050565b60006020828403121562001378578081fd5b81516200092b81620016f8565b600080600080600080600060e0888a031215620013a0578283fd5b87516001600160401b0380821115620013b7578485fd5b818a01915061014080838d031215620013ce578586fd5b620013d981620016a5565b9050825182811115620013ea578687fd5b620013f88d828601620012be565b8252506020830151828111156200140d578687fd5b6200141b8d828601620012be565b60208301525060408301518281111562001433578687fd5b620014418d828601620011d8565b60408301525060608301518281111562001459578687fd5b620014678d82860162001248565b6060830152506080830151828111156200147f578687fd5b6200148d8d82860162001157565b60808301525060a083015160a0820152620014ac8c60c08501620012ad565b60c0820152620014c08c60e08501620012ad565b60e082015261010083810151908201526101209283015192810192909252509650620014f08960208a016200114a565b9550620015018960408a016200114a565b9450620015128960608a016200114a565b9350620015238960808a016200114a565b925060a0880151915060c0880151905092959891949750929550565b60006020828403121562001551578081fd5b815160ff811681146200092b578182fd5b6000815180845260208085019450808401835b83811015620015935781518752958201959082019060010162001575565b509495945050505050565b901515815260200190565b90815260200190565b60006060820185835260206060818501528186518084526080860191508288019350845b81811015620015fe57620015eb8551620016ec565b83529383019391830191600101620015d6565b505084810360408601528551808252908201925081860190845b8181101562000c9e576200162d8351620016ec565b8552938301939183019160010162001618565b60208101600383106200164f57fe5b91905290565b60008582528460208301526080604083015262001676608083018562001562565b8281036060840152620005c1818562001562565b93845260208401929092526040830152606082015260800190565b6040518181016001600160401b0381118282101715620016c457600080fd5b604052919050565b60006001600160401b03821115620016e2578081fd5b5060209081020190565b6001600160a01b031690565b6001600160a01b038116811462000cbe57600080fd5b60805160a05160c05160e0516101005160601c6101205160601c6101405161016051610180516101a05160601c6101c05160601c6101e0516102005160601c615fac620017b2600039806145ca5250806108ca5280610cee5250806108a95250806115f2525080610bc3525080611f1b525080611ef752508061127f52508061124e5250806111da5250806130c45250806131065250806130e55250615fac6000f3fe608060405234801561001057600080fd5b50600436106103995760003560e01c80637beed220116101e9578063a457c2d71161010f578063d505accf116100ad578063ebf1b7421161007c578063ebf1b74214610747578063ed24911d1461076c578063f885a4bb14610774578063f89f27ed1461078757610399565b8063d505accf146106fb578063d5c096c41461070e578063dd62ed3e14610721578063e01af92c1461073457610399565b8063b35056b8116100e9578063b35056b8146106d0578063b62c1f06146106d8578063b7b814fc146106eb578063d2946c2b146106f357610399565b8063a457c2d7146106a2578063a9059cbb146106b5578063aaabadc5146106c857610399565b806387ec68171161018757806390193b7c1161015657806390193b7c1461066157806395d89b411461067457806397bb15c91461067c5780639d2c110c1461068f57610399565b806387ec681714610629578063893d20e81461063c5780638d027466146106515780638d928af81461065957610399565b8063819c70f3116101c3578063819c70f3146105f35780638456cb5914610606578063851c1bb31461060e578063876f303b1461062157610399565b80637beed220146105b55780637ecebe00146105cd57806381788e2b146105e057610399565b806339509351116102ce5780636028bfd41161026c57806370a082311161023b57806370a082311461056657806373656f891461057957806374f3b009146105815780637b749c45146105a257610399565b80636028bfd4146105045780636a2efb2c146105255780636b47273b1461053d578063704640161461055357610399565b806347bc4d92116102a857806347bc4d92146104d95780634df77ce0146104e157806354a844ba146104f457806355c67628146104fc57610399565b806339509351146104ab5780633c9d93b8146104be5780633f4ba83a146104d157610399565b806323b872dd1161033b57806334a36df81161031557806334a36df8146104755780633644e5151461048857806336eb097b1461049057806338fff2d0146104a357610399565b806323b872dd1461043a5780632a9a03231461044d578063313ce5671461046057610399565b80630da0669c116103775780630da0669c146103fc57806318160ddd146104065780631c0de0511461040e5780631dd746ea1461042557610399565b806301ec954a1461039e57806306fdde03146103c7578063095ea7b3146103dc575b600080fd5b6103b16103ac36600461578f565b61078f565b6040516103be9190615bd4565b60405180910390f35b6103cf6107ef565b6040516103be9190615de6565b6103ef6103ea366004615344565b610885565b6040516103be9190615bb1565b61040461089c565b005b6103b16108f0565b6104166108f6565b6040516103be93929190615bbc565b61042d61091f565b6040516103be9190615aa3565b6103ef610448366004615294565b61093c565b6103b161045b36600461584a565b6109b2565b6104686109f1565b6040516103be9190615ee5565b610404610483366004615674565b6109fa565b6103b1610b90565b6103ef61049e366004615240565b610b9f565b6103b1610bc1565b6103ef6104b9366004615344565b610be5565b6104046104cc366004615240565b610c20565b610404610c8d565b6103ef610c9f565b6103b16104ef36600461584a565b610cac565b610404610d15565b6103b1610d69565b610517610512366004615525565b610d76565b6040516103be929190615df9565b61052d610d94565b6040516103be9493929190615e7f565b610545610db3565b6040516103be929190615e12565b6103b161056136600461584a565b610de0565b6103b1610574366004615240565b610e42565b6103b1610e5d565b61059461058f366004615525565b610e8a565b6040516103be929190615ab6565b6104046105b03660046154d5565b610f4b565b6105bd610f67565b6040516103be9493929190615e20565b6103b16105db366004615240565b61109d565b6104046105ee366004615240565b6110a8565b610404610601366004615890565b611119565b6104046111c4565b6103b161061c366004615630565b6111d6565b6103b1611228565b610517610637366004615525565b61123a565b61064461124c565b6040516103be9190615a8f565b6103ef611270565b61064461127d565b6103b161066f366004615240565b6112a1565b6103cf6112bc565b61040461068a3660046156d2565b61131d565b6103b161069d3660046157ff565b6114e0565b6103ef6106b0366004615344565b611519565b6103ef6106c3366004615344565b611557565b610644611564565b6103ef61156e565b6104046106e6366004615915565b61157b565b6104046115a6565b6106446115f0565b6104046107093660046152d4565b611614565b61059461071c366004615525565b61169f565b6103b161072f36600461525c565b611735565b6104046107423660046154d5565b611772565b61075a610755366004615240565b61178b565b6040516103be96959493929190615ebd565b6103b161182f565b6104046107823660046153c5565b611839565b61042d6118cf565b600084608001516107bc6107a161127d565b6001600160a01b0316336001600160a01b03161460cd611c0b565b6107d16107c7610bc1565b82146101f4611c0b565b6107d9611c19565b6107e586868686611c2c565b9695505050505050565b60038054604080516020601f600260001961010060018816150201909516949094049384018190048102820181019092528281526060939092909183018282801561087b5780601f106108505761010080835404028352916020019161087b565b820191906000526020600020905b81548152906001019060200180831161085e57829003601f168201915b5050505050905090565b6000610892338484611c39565b5060015b92915050565b6108a4611ca1565b6108ee7f00000000000000000000000000000000000000000000000000000000000000007f0000000000000000000000000000000000000000000000000000000000000000611cc4565b565b60025490565b6000806000610903611ed8565b15925061090e611ef5565b9150610918611f19565b9050909192565b60608061092a611f3d565b50905061093681611fea565b91505090565b6000806109498533611735565b905061096d336001600160a01b03871614806109655750838210155b61019e611c0b565b6109788585856120a4565b336001600160a01b0386161480159061099357506000198114155b156109a5576109a58533858403611c39565b60019150505b9392505050565b60006109bc612184565b6109c4611c19565b60006109ce6121b2565b905080156109e2576109df8161225c565b91505b6109eb83612318565b50919050565b60055460ff1690565b610a02612184565b610a0a611c19565b6000610a146121b2565b9050610a246000821160ce611c0b565b610a2d8161225c565b50506060610a39611f3d565b509050610a4f60328251600101111560c9611c0b565b600060608073__$6d134cfc25e59b25943ff4bfa0c28ca096$__631face20a610a7661127d565b610a7e610bc1565b60095488610a8b8a612379565b8f8f8f6040518963ffffffff1660e01b8152600401610ab1989796959493929190615d17565b60006040518083038186803b158015610ac957600080fd5b505af4158015610add573d6000803e3d6000fd5b505050506040513d6000823e601f3d908101601f19168201604052610b0591908101906155c7565b6001600160a01b038c166000908152600b6020526040902083905591945092509050610b344280838086612444565b8515610b4457610b448587612566565b886001600160a01b03167ff4c563a3ea86ff1f4275e8c207df0375a51963f2b831b7bf4da8be938d92876c88604051610b7d9190615bd4565b60405180910390a2505050505050505050565b6000610b9a61182f565b905090565b6001600160a01b0381166000908152600d602052604090205460ff165b919050565b7f000000000000000000000000000000000000000000000000000000000000000090565b3360008181526001602090815260408083206001600160a01b03871684529091528120549091610892918590610c1b9086611b0e565b611c39565b610c28612184565b610c30611c19565b610c44610c3c82610b9f565b6101b1611c0b565b6001600160a01b0381166000818152600d6020526040808220805460ff19169055517f89aa0423af0b4cf311bfb79f61549f2b82b335f041e4f7ae674618059b51a4cb9190a250565b610c95612184565b6108ee6000612570565b6000610b9a6009546125e3565b60008082610cbc57506000610ce9565b6002831415610ccd57506008610ce9565b6003831415610cde57506010610ce9565b610ce96101bb6125f0565b6109ab7f0000000000000000000000000000000000000000000000000000000000000000826008611af0565b610d1d612184565b610d25612600565b610d2f6001612614565b7feff3d4d215b42bf0960be9c6d5e05c22cba4df6627a3a523e2acee733b5854c86001604051610d5f9190615bb1565b60405180910390a1565b6000610b9a600954612630565b60006060610d88888785612655612718565b97509795505050505050565b600080600080610da5600954612812565b935093509350935090919293565b600080610dc1600a5461285a565b6009549193509150610dd29061287f565b15610ddc57600091505b9091565b6000610dea61156e565b15610df757506000610bbc565b600082610e0657506000610e33565b6002831415610e1757506040610e33565b6003831415610e2857506080610e33565b610e336101bb6125f0565b6008546109ab90826040611af0565b6001600160a01b031660009081526020819052604090205490565b6000610e67611c19565b6000610e716121b2565b9050610e816000821160ce611c0b565b6109368161225c565b60608088610e996107a161127d565b610ea46107c7610bc1565b6000610eaf8561288c565b15610ed757610ebc6128bb565b610ece88610ec86108f0565b876128ce565b94509050610eef565b610edf611c19565b610eea8a8987612655565b945090505b610ef98a8261290e565b83516001600160401b0381118015610f1057600080fd5b50604051908082528060200260200182016040528015610f3a578160200160208202803683370190505b509250505097509795505050505050565b610f53612184565b610f5b611c19565b610f6481612918565b50565b600080606080610f78600954612957565b90945092506060610f87611f3d565b50905080516001600160401b0381118015610fa157600080fd5b50604051908082528060200260200182016040528015610fcb578160200160208202803683370190505b50925080516001600160401b0381118015610fe557600080fd5b5060405190808252806020026020018201604052801561100f578160200160208202803683370190505b50915060005b81518110156110955761105f600b600084848151811061103157fe5b60200260200101516001600160a01b03166001600160a01b0316815260200190815260200160002054612974565b85838151811061106b57fe5b6020026020010185848151811061107e57fe5b602090810291909101019190915252600101611015565b505090919293565b6000610896826112a1565b6110b0612184565b6110b8611c19565b6110cd6110c482610b9f565b156101b0611c0b565b6001600160a01b0381166000818152600d6020526040808220805460ff19166001179055517fbf5840c727acdcaceea5154edc82998fa82a490aa3dc7aeb66849c8bbea1f5799190a250565b611121612184565b611129611c19565b6060611133611f3d565b509050611144835182518451611aac565b60005b815181101561119e5761119684828151811061115f57fe5b60200260200101516001600160a01b031683838151811061117c57fe5b60200260200101516001600160a01b031614610208611c0b565b600101611147565b506111bd6111ac8686612991565b856111b686612379565b8587612444565b5050505050565b6111cc612184565b6108ee6001612570565b60007f00000000000000000000000000000000000000000000000000000000000000008260405160200161120b929190615a4c565b604051602081830303815290604052805190602001209050919050565b6000610b9a6112356121b2565b6129ae565b60006060610d888887856129d9612718565b7f000000000000000000000000000000000000000000000000000000000000000090565b6000610b9a600954612a63565b7f000000000000000000000000000000000000000000000000000000000000000090565b6001600160a01b031660009081526006602052604090205490565b60048054604080516020601f600260001961010060018816150201909516949094049384018190048102820181019092528281526060939092909183018282801561087b5780601f106108505761010080835404028352916020019161087b565b611325612184565b61132d611c19565b60006113376121b2565b90506113476000821160ce611c0b565b6113508161225c565b5050606061135c611f3d565b50905061137260026001835103101560c8611c0b565b6001600160a01b0384166000908152600b602052604081205461139d90670de0b6b3a7640000612a70565b905060608073__$6d134cfc25e59b25943ff4bfa0c28ca096$__63a20d2e4d6113c461127d565b6113cc610bc1565b600954886113d98a612379565b8d8a6040518863ffffffff1660e01b81526004016113fd9796959493929190615d7a565b60006040518083038186803b15801561141557600080fd5b505af4158015611429573d6000803e3d6000fd5b505050506040513d6000823e601f3d908101601f19168201604052611451919081019061536f565b6001600160a01b0389166000908152600b6020526040812055909250905061147c4280838086612444565b85156114a3576114996001600160a01b03861615156101bc611c0b565b6114a3858761290e565b6040516001600160a01b038816907f4c910b69fe65a61f7531b9c5042b2329ca7179c77290aa7e2eb3afa3c8511fd390600090a250505050505050565b600083608001516114f26107a161127d565b6114fd6107c7610bc1565b611505611c19565b611510858585612a93565b95945050505050565b6000806115263385611735565b90508083106115405761153b33856000611c39565b61154d565b61154d3385858403611c39565b5060019392505050565b60006108923384846120a4565b6000610b9a612b5f565b6000610b9a60095461287f565b611583612184565b61158b611c19565b6115a06115988585612991565b848484612bd9565b50505050565b6115ae612184565b6115b66128bb565b6115c06000612614565b7feff3d4d215b42bf0960be9c6d5e05c22cba4df6627a3a523e2acee733b5854c86000604051610d5f9190615bb1565b7f000000000000000000000000000000000000000000000000000000000000000090565b60007f6e71edae12b1b97f4d1f60370fef10105fa2faae0126114a169c64845d6126c98888886116438c6112a1565b8960405160200161165996959493929190615bfc565b60405160208183030381529060405280519060200120905061168a8882611681878787612c41565b886101f8612c80565b611695888888611c39565b5050505050505050565b606080886116ae6107a161127d565b6116b96107c7610bc1565b60006116c3611c19565b6116cb6108f0565b61171c576116d98a86612cd7565b945090506116f26116e8612e4d565b82101560cc611c0b565b61170460006116ff612e4d565b612566565b61171789611710612e4d565b8303612566565b610ef9565b6117278a89876129d9565b94509050610ef98982612566565b600061173f61127d565b6001600160a01b0316826001600160a01b031614156117615750600019610896565b61176b8383612e54565b9050610896565b61177a612184565b611782611c19565b610f6481612e7f565b6001600160a01b0381166000908152600c6020526040812054819081908190819081906117b781612ebe565b9299509097509550935060006117cc89612f0c565b90506117da82826001612f3b565b93506117e882826000612f3b565b925060006117fd6117f88b613075565b613090565b905061180989826130b4565b985061181585826130b4565b945061182184826130b4565b935050505091939550919395565b6000610b9a6130c0565b611841612184565b611849611c19565b611857845183518351611aac565b6118638451845161315d565b60005b84518110156111bd576118c785828151811061187e57fe5b602002602001015185838151811061189257fe5b60200260200101518584815181106118a657fe5b60200260200101518585815181106118ba57fe5b602002602001015161316a565b600101611866565b6060806118da611f3d565b50905061093681612379565b60006118f183611ae2565b606083516001016001600160401b038111801561190d57600080fd5b50604051908082528060200260200182016040528015611937578160200160208202803683370190505b509050308160008151811061194857fe5b60200260200101906001600160a01b031690816001600160a01b03168152505060005b84518110156119b75784818151811061198057fe5b602002602001015182826001018151811061199757fe5b6001600160a01b039092166020928302919091019091015260010161196b565b50606083516001016001600160401b03811180156119d457600080fd5b506040519080825280602002602001820160405280156119fe578160200160208202803683370190505b509050600081600081518110611a1057fe5b60200260200101906001600160a01b031690816001600160a01b03168152505060005b8451811015611a7f57848181518110611a4857fe5b6020026020010151828260010181518110611a5f57fe5b6001600160a01b0390921660209283029190910190910152600101611a33565b50611a8c8787848461320b565b925050505b949350505050565b6000611aa68484846132fb565b50501b90565b611ac48284148015611abd57508183145b6067611c0b565b505050565b6000611ad58184613342565b90506109ab818384611b20565b80611aec816133d1565b5050565b6001901b6000190191901c1690565b60006109ab838383603c611bc3565b60008282016109ab8482101583611c0b565b6000611a9182604080611b3588888784611bc3565b929190611bc3565b6000611b4c8484836020611bc3565b9350611a918483602080611bc3565b6000611b6b868660406020611bc3565b9550611b7b868560606020611bc3565b9550611b8b86846080603e611bc3565b95506107e5868360be603e611bc3565b60006109ab838360fc611bfc565b60006109ab838360fd611bfc565b80820390821102900390565b6000611bd08484846132fb565b506001901b60001901811b1992909216911b1790565b6000611bf6838311156001611c0b565b50900390565b6001811b1992909216911b1790565b81611aec57611aec816125f0565b6108ee611c24611ed8565b610192611c0b565b6000611a916103e66125f0565b6001600160a01b0380841660008181526001602090815260408083209487168084529490915290819020849055517f8c5be1e5ebec7d5bd14f71427d1e84f3dd0314c0f7b2291e5b200ac8c7c3b92590611c94908590615bd4565b60405180910390a3505050565b611ca9611c19565b6000611cb36121b2565b90508015610f6457611aec8161225c565b60006001600160a01b038316631a7c3263611ce184846008611af0565b6040518263ffffffff1660e01b8152600401611cfd9190615bd4565b60206040518083038186803b158015611d1557600080fd5b505afa158015611d29573d6000803e3d6000fd5b505050506040513d601f19601f82011682018060405250810190611d4d919061550d565b905060006001600160a01b038416631a7c3263611d6c85600880611af0565b6040518263ffffffff1660e01b8152600401611d889190615bd4565b60206040518083038186803b158015611da057600080fd5b505afa158015611db4573d6000803e3d6000fd5b505050506040513d601f19601f82011682018060405250810190611dd8919061550d565b905060006001600160a01b038516631a7c3263611df88660106008611af0565b6040518263ffffffff1660e01b8152600401611e149190615bd4565b60206040518083038186803b158015611e2c57600080fd5b505afa158015611e40573d6000803e3d6000fd5b505050506040513d601f19601f82011682018060405250810190611e64919061550d565b90506000611e758260806040611a99565b611e8184604080611a99565b611e8e8660006040611a99565b17179050806008819055507fc3f0acc358200d8e08ac6ce20bc2f9f27893a344f813bf682b7859b3e521502e81604051611ec89190615bd4565b60405180910390a1505050505050565b6000611ee2611f19565b421180610b9a57505060075460ff161590565b7f000000000000000000000000000000000000000000000000000000000000000090565b7f000000000000000000000000000000000000000000000000000000000000000090565b606080606080611f4b61127d565b6001600160a01b031663f94d4668611f61610bc1565b6040518263ffffffff1660e01b8152600401611f7d9190615bd4565b60006040518083038186803b158015611f9557600080fd5b505afa158015611fa9573d6000803e3d6000fd5b505050506040513d6000823e601f3d908101601f19168201604052611fd1919081019061546c565b5091509150611fe0828261344a565b9350935050509091565b8051606090806001600160401b038111801561200557600080fd5b5060405190808252806020026020018201604052801561202f578160200160208202803683370190505b50915060005b8181101561209d5761207e600b600086848151811061205057fe5b60200260200101516001600160a01b03166001600160a01b0316815260200190815260200160002054613090565b83828151811061208a57fe5b6020908102919091010152600101612035565b5050919050565b6120bb6001600160a01b0384161515610198611c0b565b6120d26001600160a01b0383161515610199611c0b565b6120dd838383611ac4565b6001600160a01b03831660009081526020819052604090205461210390826101a061346a565b6001600160a01b0380851660009081526020819052604080822093909355908416815220546121329082611b0e565b6001600160a01b0380841660008181526020819052604090819020939093559151908516907fddf252ad1be2c89b69c2b068fc378daa952ba7f163c4a11628f55a4df523b3ef90611c94908590615bd4565b600061219b6000356001600160e01b0319166111d6565b9050610f646121aa8233613480565b610191611c0b565b60008060006121bf61127d565b6001600160a01b031663b05f8e486121d5610bc1565b306040518363ffffffff1660e01b81526004016121f3929190615ce2565b60806040518083038186803b15801561220b57600080fd5b505afa15801561221f573d6000803e3d6000fd5b505050506040513d601f19601f8201168201806040525081019061224391906158d5565b5050915091508082016122546108f0565b039250505090565b6000806000612269610db3565b91509150600061227b85428486613569565b90506122856135ad565b806122965760009350505050610bbc565b60006122ac6122a56003610de0565b83906135be565b905060006122ba8383611be6565b90506122c582613600565b7f0666d5a83bb8143573350414d5a13dbdcac60a706160576416096ad6a41c0ea5816040516122f49190615bd4565b60405180910390a161230d61230761124c565b82612566565b509095945050505050565b61232f670d2f13f7789f0000821115610160611c0b565b61233b600a5482611aff565b600a556040517f556cdf4052d939f8acbe593d83668d2e18500b032bcf51cbbf82b181c6094dd79061236e908390615bd4565b60405180910390a150565b60606000612388600954613611565b8351909150806001600160401b03811180156123a357600080fd5b506040519080825280602002602001820160405280156123cd578160200160208202803683370190505b50925060005b8181101561243c5761241d600b60008784815181106123ee57fe5b60200260200101516001600160a01b03166001600160a01b031681526020019081526020016000205484612a70565b84828151811061242957fe5b60209081029190910101526001016123d3565b505050919050565b6000805b835181101561250957600084828151811061245f57fe5b6020026020010151905061247f662386f26fc1000082101561012e611c0b565b6124898382611b0e565b9250600084838151811061249957fe5b602002602001015190506124e6600b6000836001600160a01b03166001600160a01b03168152602001908152602001600020548885815181106124d857fe5b602002602001015184611b20565b6001600160a01b039091166000908152600b602052604090205550600101612448565b50612520670de0b6b3a76400008214610134611c0b565b61252d6009548787611b3d565b6009556040517f0f3631f9dab08169d1db21c6dc5f32536fb2b0a6b9bb5330d71c52132f968be090611ec8908890889088908890615e20565b611aec828261362d565b80156125905761258b612581611ef5565b4210610193611c0b565b6125a5565b6125a561259b611f19565b42106101a9611c0b565b6007805460ff19168215151790556040517f9e3a5e37224532dea67b89face185703738a228a6e8a23dee546960180d3be649061236e908390615bb1565b60006108968260fc6136d1565b610f64816210905360ea1b6136d8565b6108ee61260b61156e565b156101b5611c0b565b61262060095482613739565b60095580610f6457610f646135ad565b600080600080600061264186612812565b93509350935093506107e582828686613747565b60006060600061266c6126666108f0565b86613761565b95509050606061267a611f3d565b509050606061268882611fea565b905061269487826137a2565b600061269f8461225c565b8401905060606126ae84612379565b90506126be8a8a8386868d61380b565b909750955060016126ce896139c5565b60028111156126d957fe5b146126f6576126f66126eb8389611be6565b858b898560006139db565b6127008684613a75565b61270986613ade565b95505050505050935093915050565b3330146127d6576000306001600160a01b031660003660405161273c929190615a64565b6000604051808303816000865af19150503d8060008114612779576040519150601f19603f3d011682016040523d82523d6000602084013e61277e565b606091505b50509050806000811461278d57fe5b60046000803e6000516001600160e01b0319166343adbafb60e01b81146127b8573d6000803e3d6000fd5b506020600460003e604060205260243d03602460403e601c3d016000f35b600060606127e98686868663ffffffff16565b8051601f1982018390526343adbafb603f19830152919350915060200260231982016044820181fd5b60008080806128248560406020611af0565b93506128338560606020611af0565b9250612842856080603e611af0565b91506128518560be603e611af0565b90509193509193565b6000806128698382603c611af0565b915061287883603c6020611af0565b9050915091565b60006108968260fe6136d1565b6000808251118015610896575060ff8016828060200190518101906128b19190615946565b60ff161492915050565b6108ee6128c661156e565b6101b6611c0b565b6000606060006128de8587613761565b965090506128eb84613b69565b92506128f8868483613b7f565b915061290382613ade565b915050935093915050565b611aec8282613c30565b61292460095482611ba9565b6009556040517f5353e2cb47d505ba9b628610daec53fc41f3a4259dab35a757b0f1d5a58bc1c39061236e908390615bb1565b60008061296683826020611af0565b915061287883602080611af0565b60008061298383826040611af0565b915061287883604080611af0565b600061299d4284613ceb565b905061089682821115610146611c0b565b60008060006129bb610db3565b9150915060006129cd85428486613569565b90506115108582611b0e565b6000606060006129ea6126666108f0565b9550905060606129f8611f3d565b5090506060612a0682611fea565b9050612a1287826137a2565b6000612a1d8461225c565b840190506060612a2c84612379565b9050612a3c8a8a8386868d613cf7565b9097509550612a59612a4e8389611b0e565b858b898560016139db565b6127008684613e04565b60006108968260fd6136d1565b60006109ab612a8184836040611af0565b612a8d85604080611af0565b84613e6d565b600080612a9e613ed7565b9050612ab4612aac826125e3565b610147611c0b565b60408501516001600160a01b0316301415612b0d57612ada610c3c828760c00151613edd565b600083612ae56108f0565b0390506000612af38261225c565b82019050612b0387878386613ef8565b93505050506109ab565b60208501516001600160a01b0316301415612b4b57600084612b2d6108f0565b0390506000612b3b8261225c565b82019050612b03878683866140c3565b612b578585858461427e565b9150506109ab565b6000612b6961127d565b6001600160a01b031663aaabadc56040518163ffffffff1660e01b815260040160206040518083038186803b158015612ba157600080fd5b505afa158015612bb5573d6000803e3d6000fd5b505050506040513d601f19601f82011682018060405250810190610b9a9190615658565b612be2826144a8565b612beb816144a8565b612bfa60095485858585611b5b565b6009556040517fc42eae0298d32208994ed5d58e525fa31c2911e95451d98f8df3355259c4a13d90612c33908690869086908690615e7f565b60405180910390a150505050565b60408051604180825260808201909252606091829190602082018180368337019050509050836020820152826040820152846060820153949350505050565b6000612c8b856144d1565b9050612ca1612c9b8783876144ed565b83611c0b565b612cb0428410156101b8611c0b565b5050506001600160a01b039092166000908152600660205260409020805460010190555050565b60006060612cef610c3c612ce9613ed7565b86613edd565b6000612cfa8461459c565b9050612d156000826003811115612d0d57fe5b1460ce611c0b565b6060612d1f611f3d565b509050612d2b856145b2565b9250612d398351825161315d565b6060612d4482611fea565b9050612d5084826137a2565b6000612d5a6145c8565b6001600160a01b03166390043a58612d7185612379565b876040518363ffffffff1660e01b8152600401612d8f929190615ab6565b60206040518083038186803b158015612da757600080fd5b505afa158015612dbb573d6000803e3d6000fd5b505050506040513d601f19601f82011682018060405250810190612ddf919061550d565b9050612dec8186516145ec565b9550612df88583613e04565b6000612e086001606f1b88611be6565b9050612e148982612566565b612e1d86613ade565b95508086600081518110612e2d57fe5b602002602001018181525050612e416135ad565b50505050509250929050565b620f424090565b6001600160a01b03918216600090815260016020908152604080832093909416825291909152205490565b612e8b60095482611b9b565b6009556040517f5a9e84f78f7957cb4ed7478eb0fcad35ee4ecbe2e0f298420b28a3955392573f9061236e908390615bb1565b6000808080612ecf85606080611af0565b9350612ede8560206040611af0565b92506030612eef8660006010611af0565b901b91506030612f0186601080611af0565b901b90509193509193565b6001600160a01b0381166000908152600b60205260408120546009546108969190612f3690613611565b612a70565b6000806030612f5b84612f4f576010612f52565b60005b87906010611af0565b901b905080612f6e5760009150506109ab565b6000612f7c86606080611af0565b90506000612f8d8760206040611af0565b9050600081871415612fd057612fc96020678ac7230489e80000612fc289612fb65760e0612fb9565b60c05b8c906020611af0565b9190614606565b905061305e565b604051633d3632df60e21b815273__$6670886e635fd86503a30ff6f4e4ebb80f$__9063f4d8cb7c9061300b9087908b908b90600401615e51565b60206040518083038186803b15801561302357600080fd5b505af4158015613037573d6000803e3d6000fd5b505050506040513d601f19601f8201168201806040525081019061305b919061550d565b90505b61306981848861464c565b98975050505050505050565b6001600160a01b03166000908152600b602052604090205490565b6000806130a08360806005611af0565b600a0a670de0b6b3a7640000029392505050565b60006109ab8383614665565b60007f00000000000000000000000000000000000000000000000000000000000000007f00000000000000000000000000000000000000000000000000000000000000007f000000000000000000000000000000000000000000000000000000000000000061312d614693565b30604051602001613142959493929190615cb6565b60405160208183030381529060405280519060200120905090565b611aec8183146067611c0b565b600061317585612f0c565b9050613185811515610135611c0b565b600061319c856131976117f889613075565b614697565b90506131aa818386866146a3565b6001600160a01b0387166000818152600c6020526040908190209290925590517fcad1fdf49cd36960e377075cfe18dcc3aa113e526fbe184544cca2e7115c54f3906131fb90889088908890615e69565b60405180910390a2505050505050565b600080856001600160a01b03166309b2760f866040518263ffffffff1660e01b815260040161323a9190615dd2565b602060405180830381600087803b15801561325457600080fd5b505af1158015613268573d6000803e3d6000fd5b505050506040513d601f19601f8201168201806040525081019061328c919061550d565b604051633354e3e960e11b81529091506001600160a01b038716906366a9c7d2906132bf90849088908890600401615c30565b600060405180830381600087803b1580156132d957600080fd5b505af11580156132ed573d6000803e3d6000fd5b509298975050505050505050565b61330a61010083106064611c0b565b6133336001821015801561332c575061332860ff8461010003611bb7565b8211155b6064611c0b565b611ac483821c156101b4611c0b565b60006109ab6133c6836001600160a01b031663313ce5676040518163ffffffff1660e01b815260040160206040518083038186803b15801561338357600080fd5b505afa158015613397573d6000803e3d6000fd5b505050506040513d601f19601f820116820180604052508101906133bb9190615946565b60129060ff16611be6565b849060806005611bc3565b6002815110156133e057610f64565b6000816000815181106133ef57fe5b602002602001015190506000600190505b8251811015611ac457600083828151811061341757fe5b60200260200101519050613440816001600160a01b0316846001600160a01b0316106065611c0b565b9150600101613400565b815160001990810160209384019081528251909101919092019081529091565b60006134798484111583611c0b565b5050900390565b600073ba1ba1ba1ba1ba1ba1ba1ba1ba1ba1ba1ba1ba1b61349f61124c565b6001600160a01b0316141580156134ba57506134ba8361489c565b156134e2576134c761124c565b6001600160a01b0316336001600160a01b0316149050610896565b6134ea612b5f565b6001600160a01b0316639be2a8848484306040518463ffffffff1660e01b815260040161351993929190615bdd565b60206040518083038186803b15801561353157600080fd5b505afa158015613545573d6000803e3d6000fd5b505050506040513d601f19601f8201168201806040525081019061176b91906154f1565b60008284111580613578575081155b1561358557506000611a91565b60006135918684614996565b9050838503611a8c6135a383836145ec565b6301e133806149ae565b6135b9600a54426149ce565b600a55565b60008282026135e28415806135db5750838583816135d857fe5b04145b6003611c0b565b6001670de0b6b3a76400006001830304018115150291505092915050565b8015610f6457610f646123076115f0565b600080600061361f84612957565b91509150611a9182826149de565b61363960008383611ac4565b61365361364e826136486108f0565b90611b0e565b614a16565b6001600160a01b0382166000908152602081905260409020546136769082611b0e565b6001600160a01b0383166000818152602081905260408082209390935591519091907fddf252ad1be2c89b69c2b068fc378daa952ba7f163c4a11628f55a4df523b3ef906136c5908590615bd4565b60405180910390a35050565b1c60011690565b62461bcd60e51b600090815260206004526007602452600a808404818106603090810160081b958390069590950190829004918206850160101b01602363ffffff0060e086901c160160181b0190930160c81b60445260e882901c90606490fd5b60006109ab838360fe611bfc565b60008061375484846149de565b90506107e5868683613e6d565b6000606061378c8360008151811061377557fe5b602002602001015185611be690919063ffffffff16565b8351600019016020909401938452949293505050565b815181516137b190829061315d565b60005b818110156115a0576137ec8482815181106137cb57fe5b60200260200101518483815181106137df57fe5b6020026020010151614665565b8482815181106137f857fe5b60209081029190910101526001016137b4565b600060606000613819613ed7565b90506000613826856139c5565b9050613852613834836125e3565b8061384a5750600182600281111561384857fe5b145b61014a611c0b565b600081600281111561386057fe5b14156139085761386e6145c8565b6001600160a01b0316633d0b05e98a8a8961388887612630565b8a6040518663ffffffff1660e01b81526004016138a9959493929190615b41565b60006040518083038186803b1580156138c157600080fd5b505afa1580156138d5573d6000803e3d6000fd5b505050506040513d6000823e601f3d908101601f191682016040526138fd9190810190615862565b9350935050506139ba565b600181600281111561391657fe5b1415613953576139246145c8565b6001600160a01b0316631b2db0ea8a88886040518463ffffffff1660e01b81526004016138a993929190615b86565b600281600281111561396157fe5b14156139ac5761396f6145c8565b6001600160a01b0316632ac71a3e8a8a8a8a61398a88612630565b8b6040518763ffffffff1660e01b81526004016138a996959493929190615adb565b6139b76101506125f0565b50505b965096945050505050565b6000818060200190518101906108969190615713565b60005b8451811015613a6c576000613a2d8683815181106139f857fe5b6020026020010151868481518110613a0c57fe5b602002602001015185613a2157611be6613a25565b611b0e5b63ffffffff16565b9050613a636002888481518110613a4057fe5b60200260200101518a84888781518110613a5657fe5b6020026020010151614a1b565b506001016139de565b50505050505050565b81518151613a8490829061315d565b60005b818110156115a057613abf848281518110613a9e57fe5b6020026020010151848381518110613ab257fe5b6020026020010151614aa0565b848281518110613acb57fe5b6020908102919091010152600101613a87565b606081516001016001600160401b0381118015613afa57600080fd5b50604051908082528060200260200182016040528015613b24578160200160208202803683370190505b50905060005b82518110156109eb57828181518110613b3f57fe5b6020026020010151828260010181518110613b5657fe5b6020908102919091010152600101613b2a565b6000818060200190518101906109ab9190615962565b60606000613b8d8484614aa0565b9050606085516001600160401b0381118015613ba857600080fd5b50604051908082528060200260200182016040528015613bd2578160200160208202803683370190505b50905060005b8651811015613c2657613c0783888381518110613bf157fe5b602002602001015161466590919063ffffffff16565b828281518110613c1357fe5b6020908102919091010152600101613bd8565b5095945050505050565b613c476001600160a01b038316151561019b611c0b565b613c5382600083611ac4565b6001600160a01b038216600090815260208190526040902054613c7990826101b261346a565b6001600160a01b038316600090815260208190526040902055613ca761364e82613ca16108f0565b90614aea565b60006001600160a01b0316826001600160a01b03167fddf252ad1be2c89b69c2b068fc378daa952ba7f163c4a11628f55a4df523b3ef836040516136c59190615bd4565b80820390821002900390565b600060606000613d05613ed7565b90506000613d128561459c565b9050613d34613d20836125e3565b8061384a5750600382600381111561384857fe5b613d41610c3c838c613edd565b6001816003811115613d4f57fe5b1415613d7857613d5d6145c8565b6001600160a01b031663120c0c638a8a8a8a61398a88612630565b6002816003811115613d8657fe5b1415613dae57613d946145c8565b6001600160a01b031663098e01898a8a8961388887612630565b6003816003811115613dbc57fe5b1415613df957613dca6145c8565b6001600160a01b03166303a5b64b8a88886040518463ffffffff1660e01b81526004016138a993929190615b86565b6139b76101366125f0565b81518151613e1390829061315d565b60005b818110156115a057613e4e848281518110613e2d57fe5b6020026020010151848381518110613e4157fe5b6020026020010151614af8565b848281518110613e5a57fe5b6020908102919091010152600101613e16565b6000670de0b6b3a764000082101580613e8557508284145b15613e915750816109ab565b81613e9d5750826109ab565b82841115613ebe576000613eb383858703614665565b850391506109ab9050565b6000613ecc83868603614665565b850191506109ab9050565b60095490565b6000613ee883612a63565b15806109ab57506109ab82610b9f565b6000806000613f138760200151613f0e86613611565b614b45565b915091506000613f2285612630565b9050613f2e87836130b4565b965060008089516001811115613f4057fe5b1415613fef57613f548960600151846130b4565b60608a0152613f616145c8565b6001600160a01b031663afc4d0db89868c606001518b876040518663ffffffff1660e01b8152600401613f98959493929190615e9a565b60206040518083038186803b158015613fb057600080fd5b505afa158015613fc4573d6000803e3d6000fd5b505050506040513d601f19601f82011682018060405250810190613fe8919061550d565b9050614081565b613ff76145c8565b6001600160a01b0316637f1ae8a989868c606001518b876040518663ffffffff1660e01b815260040161402e959493929190615e9a565b60206040518083038186803b15801561404657600080fd5b505afa15801561405a573d6000803e3d6000fd5b505050506040513d601f19601f8201168201806040525081019061407e919061550d565b90505b61408e8988836001614b74565b60008951600181111561409d57fe5b14156140ae579350611a9192505050565b6140b88184614d09565b945050505050611a91565b60008060006140d98760400151613f0e86613611565b9150915060006140e885612630565b90506140f487836130b4565b96506000808951600181111561410657fe5b14156141a2576141146145c8565b6001600160a01b0316630ccd894189868c606001518b876040518663ffffffff1660e01b815260040161414b959493929190615e9a565b60206040518083038186803b15801561416357600080fd5b505afa158015614177573d6000803e3d6000fd5b505050506040513d601f19601f8201168201806040525081019061419b919061550d565b9050614247565b6141b08960600151846130b4565b60608a01526141bd6145c8565b6001600160a01b031663ef2aca7689868c606001518b876040518663ffffffff1660e01b81526004016141f4959493929190615e9a565b60206040518083038186803b15801561420c57600080fd5b505afa158015614220573d6000803e3d6000fd5b505050506040513d601f19601f82011682018060405250810190614244919061550d565b90505b6142548988836000614b74565b60008951600181111561426357fe5b1415614273576140b88184614697565b9350611a9192505050565b6000614288614f29565b6142928684614d15565b905060006142a76142a285612630565b614d8d565b90506142b78683604001516130b4565b95506142c78583606001516130b4565b9450600080885160018111156142d957fe5b14156143a1576142f1886060015184604001516130b4565b606089018190526000906143059084614665565b905061430f6145c8565b8451602086015160405163063c5da760e11b81526001600160a01b039390931692630c78bb4e92614349928d928d91908890600401615e9a565b60206040518083038186803b15801561436157600080fd5b505afa158015614375573d6000803e3d6000fd5b505050506040513d601f19601f82011682018060405250810190614399919061550d565b915050614460565b6143b3886060015184606001516130b4565b606089015260006143c26145c8565b8451602086015160608c015160405162d5905160e81b81526001600160a01b03949094169363d590510093614400938e9391928e9290600401615e9a565b60206040518083038186803b15801561441857600080fd5b505afa15801561442c573d6000803e3d6000fd5b505050506040513d601f19601f82011682018060405250810190614450919061550d565b905061445c8184614af8565b9150505b61446d8884898985614d9f565b60008851600181111561447c57fe5b141561449a57614490818460600151614697565b9350505050611a91565b614490818460400151614d09565b6144bb64e8d4a5100082101560cb611c0b565b610f64670d2f13f7789f000082111560ca611c0b565b60006144db6130c0565b8260405160200161120b929190615a74565b60006144ff82516041146101b9611c0b565b60208281015160408085015160608601518251600080825295019283905292939092811a91600190614538908990859088908890615cf9565b6020604051602081039080840390855afa15801561455a573d6000803e3d6000fd5b5050604051601f1901519150506001600160a01b038116158015906130695750876001600160a01b0316816001600160a01b0316149450505050509392505050565b6000818060200190518101906108969190615732565b6060818060200190518101906109ab919061574d565b7f000000000000000000000000000000000000000000000000000000000000000090565b60008282026109ab8415806135db5750838583816135d857fe5b60006146236002841015801561332c575060ff8411156064611c0b565b6000196001841b01614639818611156064611c0b565b61151061464686856145ec565b826149ae565b6000611a9183858461466057614665613a25565b6135be565b600082820261467f8415806135db5750838583816135d857fe5b670de0b6b3a7640000815b04949350505050565b4690565b60006109ab8383614aa0565b60006146d88315806146d0575067016345785d8a000084101580156146d05750670de0b6b3a76400008411155b610163611c0b565b6146ef678ac7230489e80000831115610163611c0b565b6147068215806146d0575083831015610163611c0b565b600061471d8560206040611b35858b606080611bc3565b905061473e603084811c906010908190611b359086908a901c600084611bc3565b9050600073__$6670886e635fd86503a30ff6f4e4ebb80f$__63f4d8cb7c868860016040518463ffffffff1660e01b815260040161477e93929190615e51565b60206040518083038186803b15801561479657600080fd5b505af41580156147aa573d6000803e3d6000fd5b505050506040513d601f19601f820116820180604052508101906147ce919061550d565b9050600073__$6670886e635fd86503a30ff6f4e4ebb80f$__63f4d8cb7c868960006040518463ffffffff1660e01b815260040161480e93929190615e51565b60206040518083038186803b15801561482657600080fd5b505af415801561483a573d6000803e3d6000fd5b505050506040513d601f19601f8201168201806040525081019061485e919061550d565b9050613069614877826020678ac7230489e80000614e20565b60e06020611b356148918783678ac7230489e80000614e20565b889060c06020611bc3565b60006148ae63819c70f360e01b6111d6565b8214806148c957506148c6635b160f8360e11b6111d6565b82145b806148e257506148df633806be4b60e21b6111d6565b82145b806148fb57506148f86381788e2b60e01b6111d6565b82145b806149145750614911630793b27760e31b6111d6565b82145b8061492d575061492a637b749c4560e01b6111d6565b82145b8061494657506149436306946dbf60e31b6111d6565b82145b8061495f575061495c6397bb15c960e01b6111d6565b82145b806149785750614975632a9a032360e01b6111d6565b82145b80610896575061498e63f885a4bb60e01b6111d6565b909114919050565b60006109ab6149a584846145ec565b6149ae84614d8d565b60006149bd8215156004611c0b565b8183816149c657fe5b049392505050565b60006109ab8383603c6020611bc3565b60008142106149f65750670de0b6b3a7640000610896565b824211614a0557506000610896565b828203428490036115108183614aa0565b600255565b6000614a2685614e66565b90506000866002811115614a3657fe5b1480614a4d57506002866002811115614a4b57fe5b145b15614a6057614a60818585856001614e81565b6001866002811115614a6e57fe5b1480614a8557506002866002811115614a8357fe5b145b15614a9857614a98818585856000614e81565b505050505050565b6000614aaf8215156004611c0b565b670de0b6b3a76400008302614ae1841580614ada5750670de0b6b3a7640000858381614ad757fe5b04145b6005611c0b565b82818161468a57fe5b60006109ab8383600161346a565b6000614b078215156004611c0b565b670de0b6b3a76400008302614b2f841580614ada5750670de0b6b3a7640000858381614ad757fe5b6001836001830304018115150291505092915050565b6000806000614b5385613075565b9050614b5f8185612a70565b9250614b6a81613090565b9150509250929050565b6000808215614bc157600086516001811115614b8c57fe5b14614ba7576060860151614ba1908690611b0e565b84614bb7565b614bb18585611b0e565b86606001515b9092509050614c01565b600086516001811115614bd057fe5b14614be957614bdf8585611be6565b8660600151614bfb565b6060860151614bf9908690611be6565b845b90925090505b606080614c0c611f3d565b915091506060614c1b83612379565b9050614c2f82614c2a85611fea565b6137a2565b606083516001600160401b0381118015614c4857600080fd5b50604051908082528060200260200182016040528015614c72578160200160208202803683370190505b509050600087614c86578a60400151614c8c565b8a602001515b905060005b8551811015614ced57816001600160a01b0316868281518110614cb057fe5b60200260200101516001600160a01b03161415614ce55786838281518110614cd457fe5b602002602001018181525050614ced565b600101614c91565b50614cfc87868685878d6139db565b5050505050505050505050565b60006109ab8383614af8565b614d1d614f29565b6000614d2c8460200151613075565b90506000614d3d8560400151613075565b90506000614d4a85613611565b9050614d568382612a70565b8452614d628282612a70565b6020850152614d7083613090565b6040850152614d7e82613090565b60608501525091949350505050565b670de0b6b3a764000081810391100290565b6000614dac6112356121b2565b90506000808088516001811115614dbf57fe5b14614dcf57838860600151614dd6565b8760600151845b91509150614dff6000896020015185614df8868b611b0e90919063ffffffff16565b8b51614a1b565b60408801516116959060019085614e168986611be6565b8b60200151614a1b565b6000614e3d6002841015801561332c575060ff8411156064611c0b565b614e4b828511156064611c0b565b6000196001841b01611510614e6086836145ec565b846149ae565b6001600160a01b03166000908152600c602052604090205490565b6000614e8e868484612f3b565b9050614a98614ea08685878587614ea9565b15610164611c0b565b600082614eb857506000611510565b6000614ecf614ec788886145ec565b868515614eed565b905082614ede57838111614ee2565b8381105b979650505050505050565b600081614f0357614efe84846149ae565b611a91565b611a9184846000614f178215156004611c0b565b50811515600019909201046001010290565b6040518060800160405280600081526020016000815260200160008152602001600081525090565b803561089681615f44565b600082601f830112614f6c578081fd5b8135614f7f614f7a82615f19565b615ef3565b818152915060208083019084810181840286018201871015614fa057600080fd5b60005b84811015614fc8578135614fb681615f44565b84529282019290820190600101614fa3565b505050505092915050565b600082601f830112614fe3578081fd5b8151614ff1614f7a82615f19565b81815291506020808301908481018184028601820187101561501257600080fd5b60005b84811015614fc857815161502881615f44565b84529282019290820190600101615015565b600082601f83011261504a578081fd5b8135615058614f7a82615f19565b81815291506020808301908481018184028601820187101561507957600080fd5b60005b84811015614fc85781358452928201929082019060010161507c565b600082601f8301126150a8578081fd5b81516150b6614f7a82615f19565b8181529150602080830190848101818402860182018710156150d757600080fd5b60005b84811015614fc8578151845292820192908201906001016150da565b600082601f830112615106578081fd5b81356001600160401b0381111561511b578182fd5b61512e601f8201601f1916602001615ef3565b915080825283602082850101111561514557600080fd5b8060208401602084013760009082016020015292915050565b80516004811061089657600080fd5b80356002811061089657600080fd5b600061012080838503121561518f578182fd5b61519881615ef3565b9150506151a5838361516d565b81526151b48360208401614f51565b60208201526151c68360408401614f51565b6040820152606082013560608201526080820135608082015260a082013560a08201526151f68360c08401614f51565b60c08201526152088360e08401614f51565b60e0820152610100808301356001600160401b0381111561522857600080fd5b615234858286016150f6565b82840152505092915050565b600060208284031215615251578081fd5b81356109ab81615f44565b6000806040838503121561526e578081fd5b823561527981615f44565b9150602083013561528981615f44565b809150509250929050565b6000806000606084860312156152a8578081fd5b83356152b381615f44565b925060208401356152c381615f44565b929592945050506040919091013590565b600080600080600080600060e0888a0312156152ee578485fd5b87356152f981615f44565b9650602088013561530981615f44565b95506040880135945060608801359350608088013561532781615f67565b9699959850939692959460a0840135945060c09093013592915050565b60008060408385031215615356578182fd5b823561536181615f44565b946020939093013593505050565b60008060408385031215615381578182fd5b82516001600160401b0380821115615397578384fd5b6153a386838701614fd3565b935060208501519150808211156153b8578283fd5b50614b6a85828601615098565b600080600080608085870312156153da578182fd5b84356001600160401b03808211156153f0578384fd5b6153fc88838901614f5c565b95506020870135915080821115615411578384fd5b61541d8883890161503a565b94506040870135915080821115615432578384fd5b61543e8883890161503a565b93506060870135915080821115615453578283fd5b506154608782880161503a565b91505092959194509250565b600080600060608486031215615480578081fd5b83516001600160401b0380821115615496578283fd5b6154a287838801614fd3565b945060208601519150808211156154b7578283fd5b506154c486828701615098565b925050604084015190509250925092565b6000602082840312156154e6578081fd5b81356109ab81615f59565b600060208284031215615502578081fd5b81516109ab81615f59565b60006020828403121561551e578081fd5b5051919050565b600080600080600080600060e0888a03121561553f578081fd5b87359650602088013561555181615f44565b9550604088013561556181615f44565b945060608801356001600160401b038082111561557c578283fd5b6155888b838c0161503a565b955060808a0135945060a08a0135935060c08a01359150808211156155ab578283fd5b506155b88a828b016150f6565b91505092959891949750929550565b6000806000606084860312156155db578081fd5b8351925060208401516001600160401b03808211156155f8578283fd5b61560487838801614fd3565b93506040860151915080821115615619578283fd5b5061562686828701615098565b9150509250925092565b600060208284031215615641578081fd5b81356001600160e01b0319811681146109ab578182fd5b600060208284031215615669578081fd5b81516109ab81615f44565b600080600080600060a0868803121561568b578283fd5b853561569681615f44565b945060208601356156a681615f44565b9350604086013592506060860135915060808601356156c481615f44565b809150509295509295909350565b6000806000606084860312156156e6578081fd5b83356156f181615f44565b925060208401359150604084013561570881615f44565b809150509250925092565b600060208284031215615724578081fd5b8151600381106109ab578182fd5b600060208284031215615743578081fd5b6109ab838361515e565b6000806040838503121561575f578182fd5b615769848461515e565b915060208301516001600160401b03811115615783578182fd5b614b6a85828601615098565b600080600080608085870312156157a4578182fd5b84356001600160401b03808211156157ba578384fd5b6157c68883890161517c565b955060208701359150808211156157db578384fd5b506157e88782880161503a565b949794965050505060408301359260600135919050565b600080600060608486031215615813578081fd5b83356001600160401b03811115615828578182fd5b6158348682870161517c565b9660208601359650604090950135949350505050565b60006020828403121561585b578081fd5b5035919050565b60008060408385031215615874578182fd5b8251915060208301516001600160401b03811115615783578182fd5b600080600080608085870312156158a5578182fd5b843593506020850135925060408501356001600160401b03808211156158c9578384fd5b61543e88838901614f5c565b600080600080608085870312156158ea578182fd5b845193506020850151925060408501519150606085015161590a81615f44565b939692955090935050565b6000806000806080858703121561592a578182fd5b5050823594602084013594506040840135936060013592509050565b600060208284031215615957578081fd5b81516109ab81615f67565b60008060408385031215615974578182fd5b825161597f81615f67565b6020939093015192949293505050565b6000815180845260208085019450808401835b838110156159c75781516001600160a01b0316875295820195908201906001016159a2565b509495945050505050565b6000815180845260208085019450808401835b838110156159c7578151875295820195908201906001016159e5565b60008151808452815b81811015615a2657602081850181015186830182015201615a0a565b81811115615a375782602083870101525b50601f01601f19169290920160200192915050565b9182526001600160e01b031916602082015260240190565b6000828483379101908152919050565b61190160f01b81526002810192909252602282015260420190565b6001600160a01b0391909116815260200190565b6000602082526109ab60208301846159d2565b600060408252615ac960408301856159d2565b828103602084015261151081856159d2565b600060c08252615aee60c08301896159d2565b8281036020840152615b0081896159d2565b90508281036040840152615b1481886159d2565b905085606084015284608084015282810360a0840152615b348185615a01565b9998505050505050505050565b600060a08252615b5460a08301886159d2565b8281036020840152615b6681886159d2565b905085604084015284606084015282810360808401526130698185615a01565b600060608252615b9960608301866159d2565b84602084015282810360408401526107e58185615a01565b901515815260200190565b92151583526020830191909152604082015260600190565b90815260200190565b9283526001600160a01b03918216602084015216604082015260600190565b9586526001600160a01b0394851660208701529290931660408501526060840152608083019190915260a082015260c00190565b60006060820185835260206060818501528186518084526080860191508288019350845b81811015615c7857615c668551615f38565b83529383019391830191600101615c54565b505084810360408601528551808252908201925081860190845b818110156132ed57615ca48351615f38565b85529383019391830191600101615c92565b9485526020850193909352604084019190915260608301526001600160a01b0316608082015260a00190565b9182526001600160a01b0316602082015260400190565b93845260ff9290921660208401526040830152606082015260800190565b600061010060018060a01b03808c1684528a6020850152896040850152816060850152615d468285018a61598f565b91508382036080850152615d5a82896159d2565b96811660a08501529490941660c08301525060e001525095945050505050565b600060018060a01b03808a16835288602084015287604084015260e06060840152615da860e084018861598f565b8381036080850152615dba81886159d2565b9590911660a0840152505060c0015295945050505050565b6020810160038310615de057fe5b91905290565b6000602082526109ab6020830184615a01565b600083825260406020830152611a9160408301846159d2565b918252602082015260400190565b600085825284602083015260806040830152615e3f60808301856159d2565b8281036060840152614ee281856159d2565b92835260208301919091521515604082015260600190565b9283526020830191909152604082015260600190565b93845260208401929092526040830152606082015260800190565b948552602085019390935260408401919091526060830152608082015260a00190565b958652602086019490945260408501929092526060840152608083015260a082015260c00190565b60ff91909116815260200190565b6040518181016001600160401b0381118282101715615f1157600080fd5b604052919050565b60006001600160401b03821115615f2e578081fd5b5060209081020190565b6001600160a01b031690565b6001600160a01b0381168114610f6457600080fd5b8015158114610f6457600080fd5b60ff81168114610f6457600080fdfea26469706673582212201cb6c7fd8d57d507c6afc2e6fda8942949b2e6d3b6f14b521f6a636e19d86bcb64736f6c63430007010033608060405234801561001057600080fd5b50612f72806100206000396000f3fe608060405234801561001057600080fd5b50600436106101165760003560e01c8063588e1b44116100a2578063afc4d0db11610071578063afc4d0db1461103d578063b540624d14611072578063d59051001461121c578063ef2aca7614611251578063f442dbc41461128657610116565b8063588e1b4414610c455780637351a78614610def5780637f1ae8a914610ee557806390043a5814610f1a57610116565b8063120c0c63116100e9578063120c0c63146104d45780631b2db0ea1461070a5780632ac71a3e146108385780633d0b05e914610a6e5780634c888cbb14610c2257610116565b806303a5b64b1461011b578063098e0189146102a45780630c78bb4e146104585780630ccd89411461049f575b600080fd5b6102496004803603606081101561013157600080fd5b810190602081018135600160201b81111561014b57600080fd5b82018360208201111561015d57600080fd5b803590602001918460208302840111600160201b8311171561017e57600080fd5b91908080602002602001604051908101604052809392919081815260200183836020028082843760009201919091525092958435959094909350604081019250602001359050600160201b8111156101d557600080fd5b8201836020820111156101e757600080fd5b803590602001918460018302840111600160201b8311171561020857600080fd5b91908080601f01602080910402602001604051908101604052809392919081815260200183838082843760009201919091525092955061132c945050505050565b6040518083815260200180602001828103825283818151815260200191508051906020019060200280838360005b8381101561028f578181015183820152602001610277565b50505050905001935050505060405180910390f35b610249600480360360a08110156102ba57600080fd5b810190602081018135600160201b8111156102d457600080fd5b8201836020820111156102e657600080fd5b803590602001918460208302840111600160201b8311171561030757600080fd5b9190808060200260200160405190810160405280939291908181526020018383602002808284376000920191909152509295949360208101935035915050600160201b81111561035657600080fd5b82018360208201111561036857600080fd5b803590602001918460208302840111600160201b8311171561038957600080fd5b9190808060200260200160405190810160405280939291908181526020018383602002808284376000920191909152509295843595602086013595919450925060608101915060400135600160201b8111156103e457600080fd5b8201836020820111156103f657600080fd5b803590602001918460018302840111600160201b8311171561041757600080fd5b91908080601f016020809104026020016040519081016040528093929190818152602001838380828437600092019190915250929550611347945050505050565b61048d600480360360a081101561046e57600080fd5b5080359060208101359060408101359060608101359060800135611366565b60408051918252519081900360200190f35b61048d600480360360a08110156104b557600080fd5b5080359060208101359060408101359060608101359060800135611381565b610249600480360360c08110156104ea57600080fd5b810190602081018135600160201b81111561050457600080fd5b82018360208201111561051657600080fd5b803590602001918460208302840111600160201b8311171561053757600080fd5b9190808060200260200160405190810160405280939291908181526020018383602002808284376000920191909152509295949360208101935035915050600160201b81111561058657600080fd5b82018360208201111561059857600080fd5b803590602001918460208302840111600160201b831117156105b957600080fd5b9190808060200260200160405190810160405280939291908181526020018383602002808284376000920191909152509295949360208101935035915050600160201b81111561060857600080fd5b82018360208201111561061a57600080fd5b803590602001918460208302840111600160201b8311171561063b57600080fd5b9190808060200260200160405190810160405280939291908181526020018383602002808284376000920191909152509295843595602086013595919450925060608101915060400135600160201b81111561069657600080fd5b8201836020820111156106a857600080fd5b803590602001918460018302840111600160201b831117156106c957600080fd5b91908080601f016020809104026020016040519081016040528093929190818152602001838380828437600092019190915250929550611390945050505050565b6102496004803603606081101561072057600080fd5b810190602081018135600160201b81111561073a57600080fd5b82018360208201111561074c57600080fd5b803590602001918460208302840111600160201b8311171561076d57600080fd5b91908080602002602001604051908101604052809392919081815260200183836020028082843760009201919091525092958435959094909350604081019250602001359050600160201b8111156107c457600080fd5b8201836020820111156107d657600080fd5b803590602001918460018302840111600160201b831117156107f757600080fd5b91908080601f0160208091040260200160405190810160405280939291908181526020018383808284376000920191909152509295506113b1945050505050565b610249600480360360c081101561084e57600080fd5b810190602081018135600160201b81111561086857600080fd5b82018360208201111561087a57600080fd5b803590602001918460208302840111600160201b8311171561089b57600080fd5b9190808060200260200160405190810160405280939291908181526020018383602002808284376000920191909152509295949360208101935035915050600160201b8111156108ea57600080fd5b8201836020820111156108fc57600080fd5b803590602001918460208302840111600160201b8311171561091d57600080fd5b9190808060200260200160405190810160405280939291908181526020018383602002808284376000920191909152509295949360208101935035915050600160201b81111561096c57600080fd5b82018360208201111561097e57600080fd5b803590602001918460208302840111600160201b8311171561099f57600080fd5b9190808060200260200160405190810160405280939291908181526020018383602002808284376000920191909152509295843595602086013595919450925060608101915060400135600160201b8111156109fa57600080fd5b820183602082011115610a0c57600080fd5b803590602001918460018302840111600160201b83111715610a2d57600080fd5b91908080601f0160208091040260200160405190810160405280939291908181526020018383808284376000920191909152509295506113c0945050505050565b610249600480360360a0811015610a8457600080fd5b810190602081018135600160201b811115610a9e57600080fd5b820183602082011115610ab057600080fd5b803590602001918460208302840111600160201b83111715610ad157600080fd5b9190808060200260200160405190810160405280939291908181526020018383602002808284376000920191909152509295949360208101935035915050600160201b811115610b2057600080fd5b820183602082011115610b3257600080fd5b803590602001918460208302840111600160201b83111715610b5357600080fd5b9190808060200260200160405190810160405280939291908181526020018383602002808284376000920191909152509295843595602086013595919450925060608101915060400135600160201b811115610bae57600080fd5b820183602082011115610bc057600080fd5b803590602001918460018302840111600160201b83111715610be157600080fd5b91908080601f0160208091040260200160405190810160405280939291908181526020018383808284376000920191909152509295506113d2945050505050565b61048d60048036036040811015610c3857600080fd5b50803590602001356113e3565b61048d600480360360a0811015610c5b57600080fd5b810190602081018135600160201b811115610c7557600080fd5b820183602082011115610c8757600080fd5b803590602001918460208302840111600160201b83111715610ca857600080fd5b9190808060200260200160405190810160405280939291908181526020018383602002808284376000920191909152509295949360208101935035915050600160201b811115610cf757600080fd5b820183602082011115610d0957600080fd5b803590602001918460208302840111600160201b83111715610d2a57600080fd5b9190808060200260200160405190810160405280939291908181526020018383602002808284376000920191909152509295949360208101935035915050600160201b811115610d7957600080fd5b820183602082011115610d8b57600080fd5b803590602001918460208302840111600160201b83111715610dac57600080fd5b91908080602002602001604051908101604052809392919081815260200183836020028082843760009201919091525092955050823593505050602001356113f8565b610e9560048036036060811015610e0557600080fd5b810190602081018135600160201b811115610e1f57600080fd5b820183602082011115610e3157600080fd5b803590602001918460208302840111600160201b83111715610e5257600080fd5b9190808060200260200160405190810160405280939291908181526020018383602002808284376000920191909152509295505082359350505060200135611407565b60408051602080825283518183015283519192839290830191858101910280838360005b83811015610ed1578181015183820152602001610eb9565b505050509050019250505060405180910390f35b61048d600480360360a0811015610efb57600080fd5b508035906020810135906040810135906060810135906080013561141c565b61048d60048036036040811015610f3057600080fd5b810190602081018135600160201b811115610f4a57600080fd5b820183602082011115610f5c57600080fd5b803590602001918460208302840111600160201b83111715610f7d57600080fd5b9190808060200260200160405190810160405280939291908181526020018383602002808284376000920191909152509295949360208101935035915050600160201b811115610fcc57600080fd5b820183602082011115610fde57600080fd5b803590602001918460208302840111600160201b83111715610fff57600080fd5b91908080602002602001604051908101604052809392919081815260200183836020028082843760009201919091525092955061142b945050505050565b61048d600480360360a081101561105357600080fd5b5080359060208101359060408101359060608101359060800135611437565b61048d600480360360a081101561108857600080fd5b810190602081018135600160201b8111156110a257600080fd5b8201836020820111156110b457600080fd5b803590602001918460208302840111600160201b831117156110d557600080fd5b9190808060200260200160405190810160405280939291908181526020018383602002808284376000920191909152509295949360208101935035915050600160201b81111561112457600080fd5b82018360208201111561113657600080fd5b803590602001918460208302840111600160201b8311171561115757600080fd5b9190808060200260200160405190810160405280939291908181526020018383602002808284376000920191909152509295949360208101935035915050600160201b8111156111a657600080fd5b8201836020820111156111b857600080fd5b803590602001918460208302840111600160201b831117156111d957600080fd5b9190808060200260200160405190810160405280939291908181526020018383602002808284376000920191909152509295505082359350505060200135611446565b61048d600480360360a081101561123257600080fd5b5080359060208101359060408101359060608101359060800135611455565b61048d600480360360a081101561126757600080fd5b5080359060208101359060408101359060608101359060800135611464565b610e956004803603606081101561129c57600080fd5b810190602081018135600160201b8111156112b657600080fd5b8201836020820111156112c857600080fd5b803590602001918460208302840111600160201b831117156112e957600080fd5b9190808060200260200160405190810160405280939291908181526020018383602002808284376000920191909152509295505082359350505060200135611473565b6000606061133b858585611480565b91509150935093915050565b6000606061135887878787876114a4565b915091509550959350505050565b6000611375868686868661156d565b90505b95945050505050565b600061137586868686866115e8565b600060606113a28888888888886116a5565b91509150965096945050505050565b6000606061133b8585856116fe565b600060606113a2888888888888611718565b600060606113588787878787611761565b60006113ef83836117b8565b90505b92915050565b600061137586868686866117fd565b606061141484848461193b565b949350505050565b600061137586868686866119d7565b60006113ef8383611a6d565b60006113758686868686611adf565b60006113758686868686611bee565b60006113758686868686611d03565b60006113758686868686611d79565b6060611414848484611e55565b6000606061148d83611ee7565b915061149a85838661193b565b9050935093915050565b600060606000806114b485611f09565b915091506114c6895182106064611f37565b60006114fb8a83815181106114d757fe5b60200260200101518a84815181106114eb57fe5b6020026020010151858b8b6119d7565b905060608a5167ffffffffffffffff8111801561151757600080fd5b50604051908082528060200260200182016040528015611541578160200160208202803683370190505b5090508181848151811061155157fe5b6020908102919091010152929a92995091975050505050505050565b600061158f61158487670429d069189e0000611f49565b831115610130611f37565b600061159b8784611f81565b905060006115a98883611f93565b905060006115b78887611fea565b905060006115c5838361202a565b90506115da6115d3826120cf565b8990611f49565b9a9950505050505050505050565b6000806115ff846115f981886120e1565b90611f93565b90506116186709b6e64a8ec60000821015610132611f37565b600061163661162f670de0b6b3a764000089611fea565b839061202a565b9050600061164d611646836120cf565b8a90611f49565b9050600061166461165d8a6120cf565b83906120f7565b9050600061167283836120e1565b90506000611689611682896120cf565b84906120f7565b90506116958282611f81565b9c9b505050505050505050505050565b600060608060006116b58561212f565b915091506116c58a5183516121ea565b6116cf82896121f7565b60006116de8b8b858b8b611bee565b90506116ee8282101560d0611f37565b9a91995090975050505050505050565b6000606061170b83611ee7565b915061149a858386611e55565b600060608060006117288561212f565b9150915061173882518b516121ea565b61174282896121f7565b60006117518b8b858b8b6117fd565b90506116ee8282111560cf611f37565b6000606060008061177185611f09565b91509150611783895182106064611f37565b60006114fb8a838151811061179457fe5b60200260200101518a84815181106117a857fe5b6020026020010151858b8b6115e8565b6000806117df6117d0670de0b6b3a7640000856120e1565b670de0b6b3a764000090611fea565b90506114146117f682670de0b6b3a76400006120e1565b8590611f49565b60006060845167ffffffffffffffff8111801561181957600080fd5b50604051908082528060200260200182016040528015611843578160200160208202803683370190505b5090506000805b8851811015611908576118a389828151811061186257fe5b60200260200101516115f989848151811061187957fe5b60200260200101518c858151811061188d57fe5b60200260200101516120e190919063ffffffff16565b8382815181106118af57fe5b6020026020010181815250506118fe6118f78983815181106118cd57fe5b60200260200101518584815181106118e157fe5b60200260200101516120f790919063ffffffff16565b8390611f81565b915060010161184a565b50600061191989898986868a612266565b905061192e611927826120cf565b87906120f7565b9998505050505050505050565b606060006119498484611f93565b90506060855167ffffffffffffffff8111801561196557600080fd5b5060405190808252806020026020018201604052801561198f578160200160208202803683370190505b50905060005b86518110156119cd576119ae838883815181106118e157fe5b8282815181106119ba57fe5b6020908102919091010152600101611995565b5095945050505050565b6000806119e8846115f98188611f81565b9050611a016729a2241af62c0000821115610133611f37565b6000611a1861162f670de0b6b3a764000089611f93565b90506000611a38611a3183670de0b6b3a76400006120e1565b8a906120f7565b90506000611a4861165d8a6120cf565b90506000611a5683836120e1565b90506000611689611a66896120cf565b8490611f93565b670de0b6b3a764000060005b8351811015611acf57611ac5611abe858381518110611a9457fe5b6020026020010151858481518110611aa857fe5b602002602001015161237d90919063ffffffff16565b8390611f49565b9150600101611a79565b506113f260008211610137611f37565b60008080611af788611af18189611f81565b90611fea565b90506000611b17611b07896120cf565b611b11848b611f49565b90611f81565b905080821115611b8a576000670de0b6b3a76400008211611b39576000611b4e565b611b4e8a670de0b6b3a763ffff198401611f49565b90506000611b5c89836120e1565b90506000611b6a82896120f7565b9050611b80611b7983836120e1565b8490611f81565b9550505050611b9e565b86925082611b9e5760009350505050611378565b5060009050611bb188611af18185611f81565b90506000611bbf828961237d565b90506000670de0b6b3a76400008211611bd95760006115da565b6115da87670de0b6b3a763ffff198401611f49565b60006060845167ffffffffffffffff81118015611c0a57600080fd5b50604051908082528060200260200182016040528015611c34578160200160208202803683370190505b5090506000805b8851811015611cf257611c94898281518110611c5357fe5b6020026020010151611af1898481518110611c6a57fe5b60200260200101518c8581518110611c7e57fe5b6020026020010151611f8190919063ffffffff16565b838281518110611ca057fe5b602002602001018181525050611ce86118f7898381518110611cbe57fe5b6020026020010151858481518110611cd257fe5b6020026020010151611f4990919063ffffffff16565b9150600101611c3b565b506000611bbf89898986868a612416565b6000611d25611d1a85670429d069189e0000611f49565b831115610131611f37565b6000611d3b611d3486856120e1565b8690611f93565b90506000611d498588611f93565b90506000611d57838361202a565b90506000611d6d82670de0b6b3a76400006120e1565b90506115da8a826120f7565b600080611d8a876115f981886120e1565b90506000611da4611d9a886120cf565b611b11848a6120f7565b9050600082821115611e00576000611dc5611dbe846120cf565b8b90611f49565b90506000611dd389836120e1565b90506000611dea611de3896120cf565b8390611f93565b9050611df68382611f81565b9350505050611e13565b508580611e135760009350505050611378565b6000611e238a611af181856120e1565b90506000611e31828b61237d565b9050611e46611e3f826120cf565b89906120f7565b9b9a5050505050505050505050565b60606000611e638484611fea565b90506060855167ffffffffffffffff81118015611e7f57600080fd5b50604051908082528060200260200182016040528015611ea9578160200160208202803683370190505b50905060005b86518110156119cd57611ec883888381518110611cd257fe5b828281518110611ed457fe5b6020908102919091010152600101611eaf565b6000818060200190516040811015611efe57600080fd5b506020015192915050565b600080828060200190516060811015611f2157600080fd5b5060208101516040909101519094909350915050565b81611f4557611f4581612522565b5050565b6000828202611f6d841580611f66575083858381611f6357fe5b04145b6003611f37565b670de0b6b3a7640000815b04949350505050565b60008282016113ef8482101583611f37565b6000611fa28215156004611f37565b670de0b6b3a76400008302611fd4841580611fcd5750670de0b6b3a7640000858381611fca57fe5b04145b6005611f37565b6001836001830304018115150291505092915050565b6000611ff98215156004611f37565b670de0b6b3a76400008302612021841580611fcd5750670de0b6b3a7640000858381611fca57fe5b828181611f7857fe5b6000670de0b6b3a76400008214156120435750816113f2565b671bc16d674ec800008214156120645761205d83846120f7565b90506113f2565b673782dace9d90000082141561209457600061208084856120f7565b905061208c81826120f7565b9150506113f2565b60006120a08484612535565b905060006120ba6120b3836127106120f7565b6001611f81565b90506120c68282611f81565b925050506113f2565b670de0b6b3a764000081810391100290565b60006120f1838311156001611f37565b50900390565b6000828202612111841580611f66575083858381611f6357fe5b6001670de0b6b3a76400006001830304018115150291505092915050565b6060600082806020019051606081101561214857600080fd5b815160208301805160405192949293830192919084600160201b82111561216e57600080fd5b90830190602082018581111561218357600080fd5b82518660208202830111600160201b8211171561219f57600080fd5b82525081516020918201928201910280838360005b838110156121cc5781810151838201526020016121b4565b50505050919091016040525060200151929792965091945050505050565b611f458183146067611f37565b815181516122069082906121ea565b60005b818110156122605761224184828151811061222057fe5b602002602001015184838151811061223457fe5b6020026020010151611f49565b84828151811061224d57fe5b6020908102919091010152600101612209565b50505050565b670de0b6b3a764000060005b875181101561237257600085828151811061228957fe5b60200260200101518511156122ec5760006122b26122a6876120cf565b8b8581518110611cd257fe5b905060006122c6828a868151811061188d57fe5b905060006122d6611de3886120cf565b90506122e28382611f81565b9350505050612311565b8682815181106122f857fe5b602002602001015190508060001415612311575061236a565b600061233a8a848151811061232257fe5b6020026020010151611af1848d878151811061188d57fe5b90506123656117f68a858151811061234e57fe5b60200260200101518361237d90919063ffffffff16565b935050505b600101612272565b509695505050505050565b6000670de0b6b3a76400008214156123965750816113f2565b671bc16d674ec800008214156123b05761205d8384611f49565b673782dace9d9000008214156123d85760006123cc8485611f49565b905061208c8182611f49565b60006123e48484612535565b905060006123f76120b3836127106120f7565b90508082101561240c576000925050506113f2565b6120c682826120e1565b670de0b6b3a764000060005b87518110156123725760008486838151811061243a57fe5b602002602001015111156124b3576000670de0b6b3a7640000861161246057600061247a565b61247a670de0b6b3a764000087038b8581518110611cd257fe5b9050600061249886612492848c888151811061188d57fe5b906120f7565b90506124aa818a868151811061188d57fe5b925050506124d8565b8682815181106124bf57fe5b6020026020010151905080600014156124d8575061251a565b60006125018a84815181106124e957fe5b6020026020010151611af1848d8781518110611c7e57fe5b90506125156117f68a858151811061234e57fe5b935050505b600101612422565b612532816210905360ea1b61263f565b50565b60008161254b5750670de0b6b3a76400006113f2565b82612558575060006113f2565b61256860ff84901c156006611f37565b8261258e770bce5086492111aea88f4bb1ca6bcf584181ea8059f7653284106007611f37565b826000670c7d713b49da0000831380156125af5750670f43fc2c04ee000083125b156125e65760006125bf846126a0565b9050670de0b6b3a764000080820784020583670de0b6b3a7640000830502019150506125f4565b816125f0846127c0565b0290505b670de0b6b3a7640000900561262c680238fd42c5cf03ffff198212801590612625575068070c1cc73b00c800008213155b6008611f37565b61263581612b5f565b9695505050505050565b62461bcd60e51b600090815260206004526007602452600a808404818106603090810160081b958390069590950190829004918206850160101b01602363ffffff0060e086901c160160181b0190930160c81b60445260e882901c90606490fd5b670de0b6b3a7640000026000806a0c097ce7bc90715b34b9f160241b808401906ec097ce7bc90715b34b9f0fffffffff19850102816126db57fe5b05905060006a0c097ce7bc90715b34b9f160241b82800205905081806a0c097ce7bc90715b34b9f160241b81840205915060038205016a0c097ce7bc90715b34b9f160241b82840205915060058205016a0c097ce7bc90715b34b9f160241b82840205915060078205016a0c097ce7bc90715b34b9f160241b82840205915060098205016a0c097ce7bc90715b34b9f160241b828402059150600b8205016a0c097ce7bc90715b34b9f160241b828402059150600d8205016a0c097ce7bc90715b34b9f160241b828402059150600f820581019050806002029450505050505b919050565b6000670de0b6b3a76400008212156127fc576127f2826a0c097ce7bc90715b34b9f160241b816127ec57fe5b056127c0565b60000390506127bb565b60007e1600ef3172e58d2e933ec884fde10064c63b5372d805e203c0000000000000831261284d57770195e54c5dd42177f53a27172fa9ec630262827000000000830592506806f05b59d3b2000000015b73011798004d755d3c8bc8e03204cf44619e0000008312612885576b1425982cf597cd205cef7380830592506803782dace9d9000000015b606492830292026e01855144814a7ff805980ff008400083126128cd576e01855144814a7ff805980ff008400068056bc75e2d63100000840205925068ad78ebc5ac62000000015b6b02df0ab5a80a22c61ab5a7008312612908576b02df0ab5a80a22c61ab5a70068056bc75e2d6310000084020592506856bc75e2d631000000015b693f1fce3da636ea5cf850831261293f57693f1fce3da636ea5cf85068056bc75e2d631000008402059250682b5e3af16b18800000015b690127fa27722cc06cc5e2831261297657690127fa27722cc06cc5e268056bc75e2d6310000084020592506815af1d78b58c400000015b68280e60114edb805d0383126129ab5768280e60114edb805d0368056bc75e2d631000008402059250680ad78ebc5ac6200000015b680ebc5fb4174612111083126129d657680ebc5fb4174612111068056bc75e2d631000009384020592015b6808f00f760a4b2db55d8312612a0b576808f00f760a4b2db55d68056bc75e2d6310000084020592506802b5e3af16b1880000015b6806f5f17757889379378312612a40576806f5f177578893793768056bc75e2d63100000840205925068015af1d78b58c40000015b6806248f33704b2866038312612a74576806248f33704b28660368056bc75e2d63100000840205925067ad78ebc5ac620000015b6805c548670b9510e7ac8312612aa8576805c548670b9510e7ac68056bc75e2d6310000084020592506756bc75e2d6310000015b600068056bc75e2d63100000840168056bc75e2d631000008086030281612acb57fe5b059050600068056bc75e2d63100000828002059050818068056bc75e2d63100000818402059150600382050168056bc75e2d63100000828402059150600582050168056bc75e2d63100000828402059150600782050168056bc75e2d63100000828402059150600982050168056bc75e2d63100000828402059150600b820501600202606485820105979650505050505050565b6000612b8e680238fd42c5cf03ffff198312158015612b87575068070c1cc73b00c800008313155b6009611f37565b6000821215612bc157612ba382600003612b5f565b6a0c097ce7bc90715b34b9f160241b81612bb957fe5b0590506127bb565b60006806f05b59d3b20000008312612c0157506806f05b59d3b1ffffff1990910190770195e54c5dd42177f53a27172fa9ec630262827000000000612c37565b6803782dace9d90000008312612c3357506803782dace9d8ffffff19909101906b1425982cf597cd205cef7380612c37565b5060015b6064929092029168056bc75e2d6310000068ad78ebc5ac620000008412612c875768ad78ebc5ac61ffffff199093019268056bc75e2d631000006e01855144814a7ff805980ff008400082020590505b6856bc75e2d6310000008412612cc3576856bc75e2d630ffffff199093019268056bc75e2d631000006b02df0ab5a80a22c61ab5a70082020590505b682b5e3af16b188000008412612cfd57682b5e3af16b187fffff199093019268056bc75e2d63100000693f1fce3da636ea5cf85082020590505b6815af1d78b58c4000008412612d37576815af1d78b58c3fffff199093019268056bc75e2d63100000690127fa27722cc06cc5e282020590505b680ad78ebc5ac62000008412612d7057680ad78ebc5ac61fffff199093019268056bc75e2d6310000068280e60114edb805d0382020590505b68056bc75e2d631000008412612da95768056bc75e2d630fffff199093019268056bc75e2d63100000680ebc5fb4174612111082020590505b6802b5e3af16b18800008412612de2576802b5e3af16b187ffff199093019268056bc75e2d631000006808f00f760a4b2db55d82020590505b68015af1d78b58c400008412612e1b5768015af1d78b58c3ffff199093019268056bc75e2d631000006806f5f177578893793782020590505b68056bc75e2d631000008481019085906002908280020505918201919050600368056bc75e2d631000008783020505918201919050600468056bc75e2d631000008783020505918201919050600568056bc75e2d631000008783020505918201919050600668056bc75e2d631000008783020505918201919050600768056bc75e2d631000008783020505918201919050600868056bc75e2d631000008783020505918201919050600968056bc75e2d631000008783020505918201919050600a68056bc75e2d631000008783020505918201919050600b68056bc75e2d631000008783020505918201919050600c68056bc75e2d631000008783020505918201919050606468056bc75e2d6310000084840205850205969550505050505056fea2646970667358221220e964e79f8388e78339f52224a91c178f73f7b39286a8588eb3d3e7ef29670f3264736f6c63430007010033",
  "linkReferences": {
    "contracts/lib/CircuitBreakerLib.sol": {
      "CircuitBreakerLib": [
        {
          "length": 20,
          "start": 22862
        },
        {
          "length": 20,
          "start": 28851
        },
        {
          "length": 20,
          "start": 28995
        }
      ]
    },
    "contracts/managed/ManagedPoolAddRemoveTokenLib.sol": {
      "ManagedPoolAddRemoveTokenLib": [
        {
          "length": 20,
          "start": 13253
        },
        {
          "length": 20,
          "start": 15635
        }
      ]
    }
  },
  "deployedLinkReferences": {}
}