{
  "_format": "hh-sol-artifact-1",
  "contractName": "BalancerSorQueries",
  "sourceName": "contracts/BalancerSorQueries.sol",
  "abi": [
    {
      "inputs": [
        {
          "internalType": "contract IVault",
          "name": "_vault",
          "type": "address"
        }
      ],
      "stateMutability": "nonpayable",
      "type": "constructor"
    },
    {
      "inputs": [
        {
          "internalType": "address[]",
          "name": "poolAddresses",
          "type": "address[]"
        }
      ],
      "name": "getAmpForPools",
      "outputs": [
        {
          "internalType": "uint256[]",
          "name": "",
          "type": "uint256[]"
        }
      ],
      "stateMutability": "view",
      "type": "function"
    },
    {
      "inputs": [
        {
          "internalType": "address[]",
          "name": "poolAddresses",
          "type": "address[]"
        }
      ],
      "name": "getNormalizedWeightsForPools",
      "outputs": [
        {
          "internalType": "uint256[][]",
          "name": "",
          "type": "uint256[][]"
        }
      ],
      "stateMutability": "view",
      "type": "function"
    },
    {
      "inputs": [
        {
          "internalType": "bytes32[]",
          "name": "poolIds",
          "type": "bytes32[]"
        },
        {
          "components": [
            {
              "internalType": "bool",
              "name": "loadTokenBalanceUpdatesAfterBlock",
              "type": "bool"
            },
            {
              "internalType": "bool",
              "name": "loadTotalSupply",
              "type": "bool"
            },
            {
              "internalType": "bool",
              "name": "loadSwapFees",
              "type": "bool"
            },
            {
              "internalType": "bool",
              "name": "loadLinearWrappedTokenRates",
              "type": "bool"
            },
            {
              "internalType": "bool",
              "name": "loadNormalizedWeights",
              "type": "bool"
            },
            {
              "internalType": "bool",
              "name": "loadTokenRates",
              "type": "bool"
            },
            {
              "internalType": "bool",
              "name": "loadAmps",
              "type": "bool"
            },
            {
              "internalType": "uint256",
              "name": "blockNumber",
              "type": "uint256"
            },
            {
              "internalType": "enum TotalSupplyType[]",
              "name": "totalSupplyTypes",
              "type": "uint8[]"
            },
            {
              "internalType": "enum SwapFeeType[]",
              "name": "swapFeeTypes",
              "type": "uint8[]"
            },
            {
              "internalType": "uint256[]",
              "name": "linearPoolIdxs",
              "type": "uint256[]"
            },
            {
              "internalType": "uint256[]",
              "name": "weightedPoolIdxs",
              "type": "uint256[]"
            },
            {
              "internalType": "uint256[]",
              "name": "tokenRatePoolIdxs",
              "type": "uint256[]"
            },
            {
              "internalType": "uint256[]",
              "name": "ampPoolIdxs",
              "type": "uint256[]"
            }
          ],
          "internalType": "struct SorPoolDataQueryConfig",
          "name": "config",
          "type": "tuple"
        }
      ],
      "name": "getPoolData",
      "outputs": [
        {
          "internalType": "uint256[][]",
          "name": "balances",
          "type": "uint256[][]"
        },
        {
          "internalType": "uint256[]",
          "name": "totalSupplies",
          "type": "uint256[]"
        },
        {
          "internalType": "uint256[]",
          "name": "swapFees",
          "type": "uint256[]"
        },
        {
          "internalType": "uint256[]",
          "name": "linearWrappedTokenRates",
          "type": "uint256[]"
        },
        {
          "internalType": "uint256[][]",
          "name": "weights",
          "type": "uint256[][]"
        },
        {
          "internalType": "uint256[][]",
          "name": "tokenRates",
          "type": "uint256[][]"
        },
        {
          "internalType": "uint256[]",
          "name": "amps",
          "type": "uint256[]"
        }
      ],
      "stateMutability": "view",
      "type": "function"
    },
    {
      "inputs": [
        {
          "internalType": "bytes32[]",
          "name": "poolIds",
          "type": "bytes32[]"
        },
        {
          "internalType": "uint256",
          "name": "blockNumber",
          "type": "uint256"
        }
      ],
      "name": "getPoolTokenBalancesWithUpdatesAfterBlock",
      "outputs": [
        {
          "internalType": "uint256[][]",
          "name": "",
          "type": "uint256[][]"
        }
      ],
      "stateMutability": "view",
      "type": "function"
    },
    {
      "inputs": [
        {
          "internalType": "address[]",
          "name": "poolAddresses",
          "type": "address[]"
        },
        {
          "internalType": "enum SwapFeeType[]",
          "name": "swapFeeTypes",
          "type": "uint8[]"
        }
      ],
      "name": "getSwapFeePercentageForPools",
      "outputs": [
        {
          "internalType": "uint256[]",
          "name": "",
          "type": "uint256[]"
        }
      ],
      "stateMutability": "view",
      "type": "function"
    },
    {
      "inputs": [
        {
          "internalType": "bytes32[]",
          "name": "poolIds",
          "type": "bytes32[]"
        },
        {
          "internalType": "address[]",
          "name": "poolAddresses",
          "type": "address[]"
        }
      ],
      "name": "getTokenRatesForPools",
      "outputs": [
        {
          "internalType": "uint256[][]",
          "name": "",
          "type": "uint256[][]"
        }
      ],
      "stateMutability": "view",
      "type": "function"
    },
    {
      "inputs": [
        {
          "internalType": "address[]",
          "name": "poolAddresses",
          "type": "address[]"
        },
        {
          "internalType": "enum TotalSupplyType[]",
          "name": "totalSupplyTypes",
          "type": "uint8[]"
        }
      ],
      "name": "getTotalSupplyForPools",
      "outputs": [
        {
          "internalType": "uint256[]",
          "name": "",
          "type": "uint256[]"
        }
      ],
      "stateMutability": "view",
      "type": "function"
    },
    {
      "inputs": [
        {
          "internalType": "address[]",
          "name": "poolAddresses",
          "type": "address[]"
        }
      ],
      "name": "getWrappedTokenRateForLinearPools",
      "outputs": [
        {
          "internalType": "uint256[]",
          "name": "",
          "type": "uint256[]"
        }
      ],
      "stateMutability": "view",
      "type": "function"
    },
    {
      "inputs": [],
      "name": "vault",
      "outputs": [
        {
          "internalType": "contract IVault",
          "name": "",
          "type": "address"
        }
      ],
      "stateMutability": "view",
      "type": "function"
    }
  ],
  "bytecode": "0x60a060405234801561001057600080fd5b50604051611cca380380611cca83398101604081905261002f91610044565b60601b6001600160601b031916608052610072565b600060208284031215610055578081fd5b81516001600160a01b038116811461006b578182fd5b9392505050565b60805160601c611c2c61009e6000398061046a528061066c5280610b8952806110fe5250611c2c6000f3fe608060405234801561001057600080fd5b50600436106100a35760003560e01c80637b2de53311610076578063b4a9f0c81161005b578063b4a9f0c81461013d578063b5d8e60214610150578063fbfa77cf14610176576100a3565b80637b2de53314610117578063b3a460011461012a576100a3565b806304013a7d146100a857806317615f32146100d15780633cafc95a146100e4578063716bb27a14610104575b600080fd5b6100bb6100b636600461157b565b61018b565b6040516100c89190611b32565b60405180910390f35b6100bb6100df366004611540565b610370565b6100f76100f2366004611633565b610408565b6040516100c89190611a81565b6100f7610112366004611862565b610608565b6100bb610125366004611540565b610763565b6100f7610138366004611540565b61086a565b6100bb61014b3660046115dc565b61097c565b61016361015e36600461168a565b610b25565b6040516100c89796959493929190611a9b565b61017e6110fc565b6040516100c89190611b4e565b606080835167ffffffffffffffff811180156101a657600080fd5b506040519080825280602002602001820160405280156101d0578160200160208202803683370190505b50905060005b84518110156103665760018482815181106101ed57fe5b6020026020010151600181111561020057fe5b14156102b45784818151811061021257fe5b602002602001015173ffffffffffffffffffffffffffffffffffffffff16634c1a41156040518163ffffffff1660e01b815260040160206040518083038186803b15801561025f57600080fd5b505afa158015610273573d6000803e3d6000fd5b505050506040513d601f19601f8201168201806040525081019061029791906119a4565b8282815181106102a357fe5b60200260200101818152505061035e565b8481815181106102c057fe5b602002602001015173ffffffffffffffffffffffffffffffffffffffff166355c676286040518163ffffffff1660e01b815260040160206040518083038186803b15801561030d57600080fd5b505afa158015610321573d6000803e3d6000fd5b505050506040513d601f19601f8201168201806040525081019061034591906119a4565b82828151811061035157fe5b6020026020010181815250505b6001016101d6565b5090505b92915050565b606080825167ffffffffffffffff8111801561038b57600080fd5b506040519080825280602002602001820160405280156103b5578160200160208202803683370190505b50905060005b83518110156103ff576103e08482815181106103d357fe5b6020026020010151611120565b8282815181106103ec57fe5b60209081029190910101526001016103bb565b5090505b919050565b606080835167ffffffffffffffff8111801561042357600080fd5b5060405190808252806020026020018201604052801561045757816020015b60608152602001906001900390816104425790505b509050606060005b85518110156105fe577f000000000000000000000000000000000000000000000000000000000000000073ffffffffffffffffffffffffffffffffffffffff1663f94d46688783815181106104b057fe5b60200260200101516040518263ffffffff1660e01b81526004016104d49190611b45565b60006040518083038186803b1580156104ec57600080fd5b505afa158015610500573d6000803e3d6000fd5b505050506040513d6000823e601f3d908101601f1916820160405261052891908101906118a5565b5050805190925067ffffffffffffffff8111801561054557600080fd5b5060405190808252806020026020018201604052801561056f578160200160208202803683370190505b5083828151811061057c57fe5b602002602001018190525060005b82518110156105f5576105c38683815181106105a257fe5b60200260200101518483815181106105b657fe5b60200260200101516111ab565b8483815181106105cf57fe5b602002602001015182815181106105e257fe5b602090810291909101015260010161058a565b5060010161045f565b5090949350505050565b60608060006060855167ffffffffffffffff8111801561062757600080fd5b5060405190808252806020026020018201604052801561065b57816020015b60608152602001906001900390816106465790505b50905060005b8651811015610759577f000000000000000000000000000000000000000000000000000000000000000073ffffffffffffffffffffffffffffffffffffffff1663f94d46688883815181106106b257fe5b60200260200101516040518263ffffffff1660e01b81526004016106d69190611b45565b60006040518083038186803b1580156106ee57600080fd5b505afa158015610702573d6000803e3d6000fd5b505050506040513d6000823e601f3d908101601f1916820160405261072a91908101906118a5565b90955093505085831115610751578382828151811061074557fe5b60200260200101819052505b600101610661565b5095945050505050565b606080825167ffffffffffffffff8111801561077e57600080fd5b506040519080825280602002602001820160405280156107a8578160200160208202803683370190505b50905060005b83518110156103ff578381815181106107c357fe5b602002602001015173ffffffffffffffffffffffffffffffffffffffff16636daccffa6040518163ffffffff1660e01b815260040160606040518083038186803b15801561081057600080fd5b505afa158015610824573d6000803e3d6000fd5b505050506040513d601f19601f8201168201806040525081019061084891906119bc565b90505082828151811061085757fe5b60209081029190910101526001016107ae565b606080825167ffffffffffffffff8111801561088557600080fd5b506040519080825280602002602001820160405280156108b957816020015b60608152602001906001900390816108a45790505b50905060005b83518110156103ff578381815181106108d457fe5b602002602001015173ffffffffffffffffffffffffffffffffffffffff1663f89f27ed6040518163ffffffff1660e01b815260040160006040518083038186803b15801561092157600080fd5b505afa158015610935573d6000803e3d6000fd5b505050506040513d6000823e601f3d908101601f1916820160405261095d9190810190611971565b82828151811061096957fe5b60209081029190910101526001016108bf565b606080835167ffffffffffffffff8111801561099757600080fd5b506040519080825280602002602001820160405280156109c1578160200160208202803683370190505b50905060005b84518110156103665760018482815181106109de57fe5b602002602001015160028111156109f157fe5b1415610a3057610a13858281518110610a0657fe5b602002602001015161125b565b828281518110610a1f57fe5b602002602001018181525050610b1d565b6002848281518110610a3e57fe5b60200260200101516002811115610a5157fe5b1415610a7357610a13858281518110610a6657fe5b60200260200101516112a3565b848181518110610a7f57fe5b602002602001015173ffffffffffffffffffffffffffffffffffffffff166318160ddd6040518163ffffffff1660e01b815260040160206040518083038186803b158015610acc57600080fd5b505afa158015610ae0573d6000803e3d6000fd5b505050506040513d601f19601f82011682018060405250810190610b0491906119a4565b828281518110610b1057fe5b6020026020010181815250505b6001016109c7565b6060806060806060806060600060608a5167ffffffffffffffff81118015610b4c57600080fd5b50604051908082528060200260200182016040528015610b76578160200160208202803683370190505b509050600091505b8a51821015610c94577f000000000000000000000000000000000000000000000000000000000000000073ffffffffffffffffffffffffffffffffffffffff1663f6c009278c8481518110610bcf57fe5b60200260200101516040518263ffffffff1660e01b8152600401610bf39190611b45565b604080518083038186803b158015610c0a57600080fd5b505afa158015610c1e573d6000803e3d6000fd5b505050506040513d601f19601f82011682018060405250810190610c429190611507565b50818381518110610c4f57fe5b602002602001018173ffffffffffffffffffffffffffffffffffffffff1673ffffffffffffffffffffffffffffffffffffffff16815250508180600101925050610b7e565b895115610cac57610ca98b8b60e00151610608565b98505b896020015115610cc857610cc5818b610100015161097c565b97505b896040015115610ce457610ce1818b610120015161018b565b96505b896060015115610dc25760608a61014001515167ffffffffffffffff81118015610d0d57600080fd5b50604051908082528060200260200182016040528015610d37578160200160208202803683370190505b509050600092505b8a610140015151831015610db557818b61014001518481518110610d5f57fe5b602002602001015181518110610d7157fe5b6020026020010151818481518110610d8557fe5b73ffffffffffffffffffffffffffffffffffffffff90921660209283029190910190910152600190920191610d3f565b610dbe81610370565b9650505b896080015115610ea05760608a61016001515167ffffffffffffffff81118015610deb57600080fd5b50604051908082528060200260200182016040528015610e15578160200160208202803683370190505b509050600092505b8a610160015151831015610e9357818b61016001518481518110610e3d57fe5b602002602001015181518110610e4f57fe5b6020026020010151818481518110610e6357fe5b73ffffffffffffffffffffffffffffffffffffffff90921660209283029190910190910152600190920191610e1d565b610e9c8161086a565b9550505b8960a00151156110105760608a61018001515167ffffffffffffffff81118015610ec957600080fd5b50604051908082528060200260200182016040528015610ef3578160200160208202803683370190505b50905060608b61018001515167ffffffffffffffff81118015610f1557600080fd5b50604051908082528060200260200182016040528015610f3f578160200160208202803683370190505b509050600093505b8b610180015151841015611001578c8c61018001518581518110610f6757fe5b602002602001015181518110610f7957fe5b6020026020010151828581518110610f8d57fe5b602002602001018181525050828c61018001518581518110610fab57fe5b602002602001015181518110610fbd57fe5b6020026020010151818581518110610fd157fe5b73ffffffffffffffffffffffffffffffffffffffff90921660209283029190910190910152600190930192610f47565b61100b8282610408565b955050505b8960c00151156110ee5760608a6101a001515167ffffffffffffffff8111801561103957600080fd5b50604051908082528060200260200182016040528015611063578160200160208202803683370190505b509050600092505b8a6101a00151518310156110e157818b6101a00151848151811061108b57fe5b60200260200101518151811061109d57fe5b60200260200101518184815181106110b157fe5b73ffffffffffffffffffffffffffffffffffffffff9092166020928302919091019091015260019092019161106b565b6110ea81610763565b9350505b505092959891949750929550565b7f000000000000000000000000000000000000000000000000000000000000000081565b60008173ffffffffffffffffffffffffffffffffffffffff1663f5431aa86040518163ffffffff1660e01b815260040160206040518083038186803b15801561116857600080fd5b505afa925050508015611198575060408051601f3d908101601f19168201909252611195918101906119a4565b60015b6111a457506000610403565b9050610403565b6040517f54dea00a00000000000000000000000000000000000000000000000000000000815260009073ffffffffffffffffffffffffffffffffffffffff8416906354dea00a90611200908590600401611b4e565b60206040518083038186803b15801561121857600080fd5b505afa925050508015611248575060408051601f3d908101601f19168201909252611245918101906119a4565b60015b6112545750600061036a565b905061036a565b60008173ffffffffffffffffffffffffffffffffffffffff1663de82cd346040518163ffffffff1660e01b815260040160206040518083038186803b15801561116857600080fd5b60008173ffffffffffffffffffffffffffffffffffffffff1663876f303b6040518163ffffffff1660e01b815260040160206040518083038186803b15801561116857600080fd5b600082601f8301126112fb578081fd5b813561130e61130982611b96565b611b6f565b81815291506020808301908481018184028601820187101561132f57600080fd5b60005b8481101561135757813561134581611bb6565b84529282019290820190600101611332565b505050505092915050565b600082601f830112611372578081fd5b813561138061130982611b96565b8181529150602080830190848101818402860182018710156113a157600080fd5b60005b84811015611357578135845292820192908201906001016113a4565b600082601f8301126113d0578081fd5b81356113de61130982611b96565b8181529150602080830190848101818402860182018710156113ff57600080fd5b6000805b8581101561142b57823560028110611419578283fd5b85529383019391830191600101611403565b50505050505092915050565b600082601f830112611447578081fd5b813561145561130982611b96565b81815291506020808301908481018184028601820187101561147657600080fd5b60005b8481101561135757813561148c81611be9565b84529282019290820190600101611479565b600082601f8301126114ae578081fd5b81516114bc61130982611b96565b8181529150602080830190848101818402860182018710156114dd57600080fd5b60005b84811015611357578151845292820192908201906001016114e0565b803561036a81611bdb565b60008060408385031215611519578182fd5b825161152481611bb6565b602084015190925061153581611be9565b809150509250929050565b600060208284031215611551578081fd5b813567ffffffffffffffff811115611567578182fd5b611573848285016112eb565b949350505050565b6000806040838503121561158d578182fd5b823567ffffffffffffffff808211156115a4578384fd5b6115b0868387016112eb565b935060208501359150808211156115c5578283fd5b506115d2858286016113c0565b9150509250929050565b600080604083850312156115ee578182fd5b823567ffffffffffffffff80821115611605578384fd5b611611868387016112eb565b93506020850135915080821115611626578283fd5b506115d285828601611437565b60008060408385031215611645578182fd5b823567ffffffffffffffff8082111561165c578384fd5b61166886838701611362565b9350602085013591508082111561167d578283fd5b506115d2858286016112eb565b6000806040838503121561169c578182fd5b823567ffffffffffffffff808211156116b3578384fd5b6116bf86838701611362565b935060208501359150808211156116d4578283fd5b81850191506101c08083880312156116ea578384fd5b6116f381611b6f565b90506116ff87846114fc565b815261170e87602085016114fc565b602082015261172087604085016114fc565b604082015261173287606085016114fc565b606082015261174487608085016114fc565b60808201526117568760a085016114fc565b60a08201526117688760c085016114fc565b60c082015260e083013560e0820152610100808401358381111561178a578586fd5b61179689828701611437565b82840152505061012080840135838111156117af578586fd5b6117bb898287016113c0565b82840152505061014080840135838111156117d4578586fd5b6117e089828701611362565b82840152505061016080840135838111156117f9578586fd5b61180589828701611362565b828401525050610180808401358381111561181e578586fd5b61182a89828701611362565b8284015250506101a08084013583811115611843578586fd5b61184f89828701611362565b8284015250508093505050509250929050565b60008060408385031215611874578182fd5b823567ffffffffffffffff81111561188a578283fd5b61189685828601611362565b95602094909401359450505050565b6000806000606084860312156118b9578081fd5b835167ffffffffffffffff808211156118d0578283fd5b818601915086601f8301126118e3578283fd5b81516118f161130982611b96565b80828252602080830192508086018b828387028901011115611911578788fd5b8796505b8487101561193c57805161192881611bb6565b845260019690960195928101928101611915565b508901519097509350505080821115611953578283fd5b506119608682870161149e565b925050604084015190509250925092565b600060208284031215611982578081fd5b815167ffffffffffffffff811115611998578182fd5b6115738482850161149e565b6000602082840312156119b5578081fd5b5051919050565b6000806000606084860312156119d0578081fd5b8351925060208401516119e281611bdb565b80925050604084015190509250925092565b6000815180845260208085018081965082840281019150828601855b85811015611a3a578284038952611a28848351611a47565b98850198935090840190600101611a10565b5091979650505050505050565b6000815180845260208085019450808401835b83811015611a7657815187529582019590820190600101611a5a565b509495945050505050565b600060208252611a9460208301846119f4565b9392505050565b600060e08252611aae60e083018a6119f4565b8281036020840152611ac0818a611a47565b90508281036040840152611ad48189611a47565b90508281036060840152611ae88188611a47565b90508281036080840152611afc81876119f4565b905082810360a0840152611b1081866119f4565b905082810360c0840152611b248185611a47565b9a9950505050505050505050565b600060208252611a946020830184611a47565b90815260200190565b73ffffffffffffffffffffffffffffffffffffffff91909116815260200190565b60405181810167ffffffffffffffff81118282101715611b8e57600080fd5b604052919050565b600067ffffffffffffffff821115611bac578081fd5b5060209081020190565b73ffffffffffffffffffffffffffffffffffffffff81168114611bd857600080fd5b50565b8015158114611bd857600080fd5b60038110611bd857600080fdfea26469706673582212204471332729fb04a4760449b24a532145d6ea9e848d0003957c4670d8117be84664736f6c63430007010033",
  "linkReferences": {},
  "deployedLinkReferences": {}
}