{
  "_format": "hh-sol-artifact-1",
  "contractName": "BalancerSorQueries",
  "sourceName": "contracts/BalancerSorQueries.sol",
  "abi": [
    {
      "inputs": [
        {
          "internalType": "contract IVault",
          "name": "_vault",
          "type": "address"
        }
      ],
      "stateMutability": "nonpayable",
      "type": "constructor"
    },
    {
      "inputs": [
        {
          "internalType": "address[]",
          "name": "poolAddresses",
          "type": "address[]"
        }
      ],
      "name": "getAmpForPools",
      "outputs": [
        {
          "internalType": "uint256[]",
          "name": "",
          "type": "uint256[]"
        }
      ],
      "stateMutability": "view",
      "type": "function"
    },
    {
      "inputs": [
        {
          "internalType": "address[]",
          "name": "poolAddresses",
          "type": "address[]"
        }
      ],
      "name": "getNormalizedWeightsForPools",
      "outputs": [
        {
          "internalType": "uint256[][]",
          "name": "",
          "type": "uint256[][]"
        }
      ],
      "stateMutability": "view",
      "type": "function"
    },
    {
      "inputs": [
        {
          "internalType": "bytes32[]",
          "name": "poolIds",
          "type": "bytes32[]"
        },
        {
          "components": [
            {
              "internalType": "bool",
              "name": "loadTokenBalanceUpdatesAfterBlock",
              "type": "bool"
            },
            {
              "internalType": "bool",
              "name": "loadTotalSupply",
              "type": "bool"
            },
            {
              "internalType": "bool",
              "name": "loadSwapFees",
              "type": "bool"
            },
            {
              "internalType": "bool",
              "name": "loadLinearWrappedTokenRates",
              "type": "bool"
            },
            {
              "internalType": "bool",
              "name": "loadNormalizedWeights",
              "type": "bool"
            },
            {
              "internalType": "bool",
              "name": "loadScalingFactors",
              "type": "bool"
            },
            {
              "internalType": "bool",
              "name": "loadAmps",
              "type": "bool"
            },
            {
              "internalType": "uint256",
              "name": "blockNumber",
              "type": "uint256"
            },
            {
              "internalType": "enum TotalSupplyType[]",
              "name": "totalSupplyTypes",
              "type": "uint8[]"
            },
            {
              "internalType": "enum SwapFeeType[]",
              "name": "swapFeeTypes",
              "type": "uint8[]"
            },
            {
              "internalType": "uint256[]",
              "name": "linearPoolIdxs",
              "type": "uint256[]"
            },
            {
              "internalType": "uint256[]",
              "name": "weightedPoolIdxs",
              "type": "uint256[]"
            },
            {
              "internalType": "uint256[]",
              "name": "scalingFactorPoolIdxs",
              "type": "uint256[]"
            },
            {
              "internalType": "uint256[]",
              "name": "ampPoolIdxs",
              "type": "uint256[]"
            }
          ],
          "internalType": "struct SorPoolDataQueryConfig",
          "name": "config",
          "type": "tuple"
        }
      ],
      "name": "getPoolData",
      "outputs": [
        {
          "internalType": "uint256[][]",
          "name": "balances",
          "type": "uint256[][]"
        },
        {
          "internalType": "uint256[]",
          "name": "totalSupplies",
          "type": "uint256[]"
        },
        {
          "internalType": "uint256[]",
          "name": "swapFees",
          "type": "uint256[]"
        },
        {
          "internalType": "uint256[]",
          "name": "linearWrappedTokenRates",
          "type": "uint256[]"
        },
        {
          "internalType": "uint256[][]",
          "name": "weights",
          "type": "uint256[][]"
        },
        {
          "internalType": "uint256[][]",
          "name": "scalingFactors",
          "type": "uint256[][]"
        },
        {
          "internalType": "uint256[]",
          "name": "amps",
          "type": "uint256[]"
        }
      ],
      "stateMutability": "view",
      "type": "function"
    },
    {
      "inputs": [
        {
          "internalType": "bytes32[]",
          "name": "poolIds",
          "type": "bytes32[]"
        },
        {
          "internalType": "uint256",
          "name": "blockNumber",
          "type": "uint256"
        }
      ],
      "name": "getPoolTokenBalancesWithUpdatesAfterBlock",
      "outputs": [
        {
          "internalType": "uint256[][]",
          "name": "",
          "type": "uint256[][]"
        }
      ],
      "stateMutability": "view",
      "type": "function"
    },
    {
      "inputs": [
        {
          "internalType": "address[]",
          "name": "poolAddresses",
          "type": "address[]"
        }
      ],
      "name": "getScalingFactorsForPools",
      "outputs": [
        {
          "internalType": "uint256[][]",
          "name": "",
          "type": "uint256[][]"
        }
      ],
      "stateMutability": "view",
      "type": "function"
    },
    {
      "inputs": [
        {
          "internalType": "address[]",
          "name": "poolAddresses",
          "type": "address[]"
        },
        {
          "internalType": "enum SwapFeeType[]",
          "name": "swapFeeTypes",
          "type": "uint8[]"
        }
      ],
      "name": "getSwapFeePercentageForPools",
      "outputs": [
        {
          "internalType": "uint256[]",
          "name": "",
          "type": "uint256[]"
        }
      ],
      "stateMutability": "view",
      "type": "function"
    },
    {
      "inputs": [
        {
          "internalType": "address[]",
          "name": "poolAddresses",
          "type": "address[]"
        },
        {
          "internalType": "enum TotalSupplyType[]",
          "name": "totalSupplyTypes",
          "type": "uint8[]"
        }
      ],
      "name": "getTotalSupplyForPools",
      "outputs": [
        {
          "internalType": "uint256[]",
          "name": "",
          "type": "uint256[]"
        }
      ],
      "stateMutability": "view",
      "type": "function"
    },
    {
      "inputs": [
        {
          "internalType": "address[]",
          "name": "poolAddresses",
          "type": "address[]"
        }
      ],
      "name": "getWrappedTokenRateForLinearPools",
      "outputs": [
        {
          "internalType": "uint256[]",
          "name": "",
          "type": "uint256[]"
        }
      ],
      "stateMutability": "view",
      "type": "function"
    },
    {
      "inputs": [],
      "name": "vault",
      "outputs": [
        {
          "internalType": "contract IVault",
          "name": "",
          "type": "address"
        }
      ],
      "stateMutability": "view",
      "type": "function"
    }
  ],
  "bytecode": "0x60a060405234801561001057600080fd5b50604051611a4a380380611a4a83398101604081905261002f91610044565b60601b6001600160601b031916608052610072565b600060208284031215610055578081fd5b81516001600160a01b038116811461006b578182fd5b9392505050565b60805160601c6119b1610099600039806104785280610aa75280610f8a52506119b16000f3fe608060405234801561001057600080fd5b50600436106100a35760003560e01c8063828f7c7d11610076578063b4a9f0c81161005b578063b4a9f0c81461013d578063b5d8e60214610150578063fbfa77cf14610176576100a3565b8063828f7c7d14610117578063b3a460011461012a576100a3565b806304013a7d146100a857806317615f32146100d1578063716bb27a146100e45780637b2de53314610104575b600080fd5b6100bb6100b6366004611357565b61018b565b6040516100c891906118b7565b60405180910390f35b6100bb6100df36600461131c565b61037c565b6100f76100f23660046115e7565b610414565b6040516100c89190611806565b6100bb61011236600461131c565b61056f565b6100f761012536600461131c565b610676565b6100f761013836600461131c565b610788565b6100bb61014b3660046113b8565b61089a565b61016361015e36600461140f565b610a43565b6040516100c89796959493929190611820565b61017e610f88565b6040516100c891906118d3565b606080835167ffffffffffffffff811180156101a657600080fd5b506040519080825280602002602001820160405280156101d0578160200160208202803683370190505b50905060005b84518110156103725760018482815181106101ed57fe5b6020026020010151600181111561020057fe5b14156102b45784818151811061021257fe5b602002602001015173ffffffffffffffffffffffffffffffffffffffff16634c1a41156040518163ffffffff1660e01b815260040160206040518083038186803b15801561025f57600080fd5b505afa158015610273573d6000803e3d6000fd5b505050506040513d601f19601f820116820180604052508101906102979190611729565b8282815181106102a357fe5b60200260200101818152505061036a565b8481815181106102c057fe5b602002602001015173ffffffffffffffffffffffffffffffffffffffff166355c676286040518163ffffffff1660e01b815260040160206040518083038186803b15801561030d57600080fd5b505afa92505050801561033d575060408051601f3d908101601f1916820190925261033a91810190611729565b60015b61034f5760008282815181106102a357fe5b8083838151811061035c57fe5b602002602001018181525050505b6001016101d6565b5090505b92915050565b606080825167ffffffffffffffff8111801561039757600080fd5b506040519080825280602002602001820160405280156103c1578160200160208202803683370190505b50905060005b835181101561040b576103ec8482815181106103df57fe5b6020026020010151610fac565b8282815181106103f857fe5b60209081029190910101526001016103c7565b5090505b919050565b60608060006060855167ffffffffffffffff8111801561043357600080fd5b5060405190808252806020026020018201604052801561046757816020015b60608152602001906001900390816104525790505b50905060005b8651811015610565577f000000000000000000000000000000000000000000000000000000000000000073ffffffffffffffffffffffffffffffffffffffff1663f94d46688883815181106104be57fe5b60200260200101516040518263ffffffff1660e01b81526004016104e291906118ca565b60006040518083038186803b1580156104fa57600080fd5b505afa15801561050e573d6000803e3d6000fd5b505050506040513d6000823e601f3d908101601f19168201604052610536919081019061162a565b9095509350508583111561055d578382828151811061055157fe5b60200260200101819052505b60010161046d565b5095945050505050565b606080825167ffffffffffffffff8111801561058a57600080fd5b506040519080825280602002602001820160405280156105b4578160200160208202803683370190505b50905060005b835181101561040b578381815181106105cf57fe5b602002602001015173ffffffffffffffffffffffffffffffffffffffff16636daccffa6040518163ffffffff1660e01b815260040160606040518083038186803b15801561061c57600080fd5b505afa158015610630573d6000803e3d6000fd5b505050506040513d601f19601f820116820180604052508101906106549190611741565b90505082828151811061066357fe5b60209081029190910101526001016105ba565b606080825167ffffffffffffffff8111801561069157600080fd5b506040519080825280602002602001820160405280156106c557816020015b60608152602001906001900390816106b05790505b50905060005b835181101561040b578381815181106106e057fe5b602002602001015173ffffffffffffffffffffffffffffffffffffffff16631dd746ea6040518163ffffffff1660e01b815260040160006040518083038186803b15801561072d57600080fd5b505afa158015610741573d6000803e3d6000fd5b505050506040513d6000823e601f3d908101601f1916820160405261076991908101906116f6565b82828151811061077557fe5b60209081029190910101526001016106cb565b606080825167ffffffffffffffff811180156107a357600080fd5b506040519080825280602002602001820160405280156107d757816020015b60608152602001906001900390816107c25790505b50905060005b835181101561040b578381815181106107f257fe5b602002602001015173ffffffffffffffffffffffffffffffffffffffff1663f89f27ed6040518163ffffffff1660e01b815260040160006040518083038186803b15801561083f57600080fd5b505afa158015610853573d6000803e3d6000fd5b505050506040513d6000823e601f3d908101601f1916820160405261087b91908101906116f6565b82828151811061088757fe5b60209081029190910101526001016107dd565b606080835167ffffffffffffffff811180156108b557600080fd5b506040519080825280602002602001820160405280156108df578160200160208202803683370190505b50905060005b84518110156103725760018482815181106108fc57fe5b6020026020010151600281111561090f57fe5b141561094e5761093185828151811061092457fe5b6020026020010151611037565b82828151811061093d57fe5b602002602001018181525050610a3b565b600284828151811061095c57fe5b6020026020010151600281111561096f57fe5b14156109915761093185828151811061098457fe5b602002602001015161107f565b84818151811061099d57fe5b602002602001015173ffffffffffffffffffffffffffffffffffffffff166318160ddd6040518163ffffffff1660e01b815260040160206040518083038186803b1580156109ea57600080fd5b505afa1580156109fe573d6000803e3d6000fd5b505050506040513d601f19601f82011682018060405250810190610a229190611729565b828281518110610a2e57fe5b6020026020010181815250505b6001016108e5565b6060806060806060806060600060608a5167ffffffffffffffff81118015610a6a57600080fd5b50604051908082528060200260200182016040528015610a94578160200160208202803683370190505b509050600091505b8a51821015610bb2577f000000000000000000000000000000000000000000000000000000000000000073ffffffffffffffffffffffffffffffffffffffff1663f6c009278c8481518110610aed57fe5b60200260200101516040518263ffffffff1660e01b8152600401610b1191906118ca565b604080518083038186803b158015610b2857600080fd5b505afa158015610b3c573d6000803e3d6000fd5b505050506040513d601f19601f82011682018060405250810190610b6091906112e3565b50818381518110610b6d57fe5b602002602001018173ffffffffffffffffffffffffffffffffffffffff1673ffffffffffffffffffffffffffffffffffffffff16815250508180600101925050610a9c565b895115610bca57610bc78b8b60e00151610414565b98505b896020015115610be657610be3818b610100015161089a565b97505b896040015115610c0257610bff818b610120015161018b565b96505b896060015115610ce05760608a61014001515167ffffffffffffffff81118015610c2b57600080fd5b50604051908082528060200260200182016040528015610c55578160200160208202803683370190505b509050600092505b8a610140015151831015610cd357818b61014001518481518110610c7d57fe5b602002602001015181518110610c8f57fe5b6020026020010151818481518110610ca357fe5b73ffffffffffffffffffffffffffffffffffffffff90921660209283029190910190910152600190920191610c5d565b610cdc8161037c565b9650505b896080015115610dbe5760608a61016001515167ffffffffffffffff81118015610d0957600080fd5b50604051908082528060200260200182016040528015610d33578160200160208202803683370190505b509050600092505b8a610160015151831015610db157818b61016001518481518110610d5b57fe5b602002602001015181518110610d6d57fe5b6020026020010151818481518110610d8157fe5b73ffffffffffffffffffffffffffffffffffffffff90921660209283029190910190910152600190920191610d3b565b610dba81610788565b9550505b8960a0015115610e9c5760608a61018001515167ffffffffffffffff81118015610de757600080fd5b50604051908082528060200260200182016040528015610e11578160200160208202803683370190505b509050600092505b8a610180015151831015610e8f57818b61018001518481518110610e3957fe5b602002602001015181518110610e4b57fe5b6020026020010151818481518110610e5f57fe5b73ffffffffffffffffffffffffffffffffffffffff90921660209283029190910190910152600190920191610e19565b610e9881610676565b9450505b8960c0015115610f7a5760608a6101a001515167ffffffffffffffff81118015610ec557600080fd5b50604051908082528060200260200182016040528015610eef578160200160208202803683370190505b509050600092505b8a6101a0015151831015610f6d57818b6101a001518481518110610f1757fe5b602002602001015181518110610f2957fe5b6020026020010151818481518110610f3d57fe5b73ffffffffffffffffffffffffffffffffffffffff90921660209283029190910190910152600190920191610ef7565b610f768161056f565b9350505b505092959891949750929550565b7f000000000000000000000000000000000000000000000000000000000000000081565b60008173ffffffffffffffffffffffffffffffffffffffff1663f5431aa86040518163ffffffff1660e01b815260040160206040518083038186803b158015610ff457600080fd5b505afa925050508015611024575060408051601f3d908101601f1916820190925261102191810190611729565b60015b6110305750600061040f565b905061040f565b60008173ffffffffffffffffffffffffffffffffffffffff1663de82cd346040518163ffffffff1660e01b815260040160206040518083038186803b158015610ff457600080fd5b60008173ffffffffffffffffffffffffffffffffffffffff1663876f303b6040518163ffffffff1660e01b815260040160206040518083038186803b158015610ff457600080fd5b600082601f8301126110d7578081fd5b81356110ea6110e58261191b565b6118f4565b81815291506020808301908481018184028601820187101561110b57600080fd5b60005b848110156111335781356111218161193b565b8452928201929082019060010161110e565b505050505092915050565b600082601f83011261114e578081fd5b813561115c6110e58261191b565b81815291506020808301908481018184028601820187101561117d57600080fd5b60005b8481101561113357813584529282019290820190600101611180565b600082601f8301126111ac578081fd5b81356111ba6110e58261191b565b8181529150602080830190848101818402860182018710156111db57600080fd5b6000805b85811015611207578235600281106111f5578283fd5b855293830193918301916001016111df565b50505050505092915050565b600082601f830112611223578081fd5b81356112316110e58261191b565b81815291506020808301908481018184028601820187101561125257600080fd5b60005b848110156111335781356112688161196e565b84529282019290820190600101611255565b600082601f83011261128a578081fd5b81516112986110e58261191b565b8181529150602080830190848101818402860182018710156112b957600080fd5b60005b84811015611133578151845292820192908201906001016112bc565b803561037681611960565b600080604083850312156112f5578182fd5b82516113008161193b565b60208401519092506113118161196e565b809150509250929050565b60006020828403121561132d578081fd5b813567ffffffffffffffff811115611343578182fd5b61134f848285016110c7565b949350505050565b60008060408385031215611369578182fd5b823567ffffffffffffffff80821115611380578384fd5b61138c868387016110c7565b935060208501359150808211156113a1578283fd5b506113ae8582860161119c565b9150509250929050565b600080604083850312156113ca578182fd5b823567ffffffffffffffff808211156113e1578384fd5b6113ed868387016110c7565b93506020850135915080821115611402578283fd5b506113ae85828601611213565b60008060408385031215611421578182fd5b823567ffffffffffffffff80821115611438578384fd5b6114448683870161113e565b93506020850135915080821115611459578283fd5b81850191506101c080838803121561146f578384fd5b611478816118f4565b905061148487846112d8565b815261149387602085016112d8565b60208201526114a587604085016112d8565b60408201526114b787606085016112d8565b60608201526114c987608085016112d8565b60808201526114db8760a085016112d8565b60a08201526114ed8760c085016112d8565b60c082015260e083013560e0820152610100808401358381111561150f578586fd5b61151b89828701611213565b8284015250506101208084013583811115611534578586fd5b6115408982870161119c565b8284015250506101408084013583811115611559578586fd5b6115658982870161113e565b828401525050610160808401358381111561157e578586fd5b61158a8982870161113e565b82840152505061018080840135838111156115a3578586fd5b6115af8982870161113e565b8284015250506101a080840135838111156115c8578586fd5b6115d48982870161113e565b8284015250508093505050509250929050565b600080604083850312156115f9578182fd5b823567ffffffffffffffff81111561160f578283fd5b61161b8582860161113e565b95602094909401359450505050565b60008060006060848603121561163e578081fd5b835167ffffffffffffffff80821115611655578283fd5b818601915086601f830112611668578283fd5b81516116766110e58261191b565b80828252602080830192508086018b828387028901011115611696578788fd5b8796505b848710156116c15780516116ad8161193b565b84526001969096019592810192810161169a565b5089015190975093505050808211156116d8578283fd5b506116e58682870161127a565b925050604084015190509250925092565b600060208284031215611707578081fd5b815167ffffffffffffffff81111561171d578182fd5b61134f8482850161127a565b60006020828403121561173a578081fd5b5051919050565b600080600060608486031215611755578081fd5b83519250602084015161176781611960565b80925050604084015190509250925092565b6000815180845260208085018081965082840281019150828601855b858110156117bf5782840389526117ad8483516117cc565b98850198935090840190600101611795565b5091979650505050505050565b6000815180845260208085019450808401835b838110156117fb578151875295820195908201906001016117df565b509495945050505050565b6000602082526118196020830184611779565b9392505050565b600060e0825261183360e083018a611779565b8281036020840152611845818a6117cc565b9050828103604084015261185981896117cc565b9050828103606084015261186d81886117cc565b905082810360808401526118818187611779565b905082810360a08401526118958186611779565b905082810360c08401526118a981856117cc565b9a9950505050505050505050565b60006020825261181960208301846117cc565b90815260200190565b73ffffffffffffffffffffffffffffffffffffffff91909116815260200190565b60405181810167ffffffffffffffff8111828210171561191357600080fd5b604052919050565b600067ffffffffffffffff821115611931578081fd5b5060209081020190565b73ffffffffffffffffffffffffffffffffffffffff8116811461195d57600080fd5b50565b801515811461195d57600080fd5b6003811061195d57600080fdfea2646970667358221220343f4a6431bb505ec7457ea39115d3da886df98f5ff48423a341755c8dbb41e564736f6c63430007010033",
  "linkReferences": {},
  "deployedLinkReferences": {}
}