{
  "_format": "hh-sol-artifact-1",
  "contractName": "BalancerSorQueries",
  "sourceName": "contracts/BalancerSorQueries.sol",
  "abi": [
    {
      "inputs": [
        {
          "internalType": "contract IVault",
          "name": "_vault",
          "type": "address"
        }
      ],
      "stateMutability": "nonpayable",
      "type": "constructor"
    },
    {
      "inputs": [
        {
          "internalType": "address[]",
          "name": "poolAddresses",
          "type": "address[]"
        }
      ],
      "name": "getAmpForPools",
      "outputs": [
        {
          "internalType": "uint256[]",
          "name": "",
          "type": "uint256[]"
        }
      ],
      "stateMutability": "view",
      "type": "function"
    },
    {
      "inputs": [
        {
          "internalType": "address[]",
          "name": "poolAddresses",
          "type": "address[]"
        }
      ],
      "name": "getNormalizedWeightsForPools",
      "outputs": [
        {
          "internalType": "uint256[][]",
          "name": "",
          "type": "uint256[][]"
        }
      ],
      "stateMutability": "view",
      "type": "function"
    },
    {
      "inputs": [
        {
          "internalType": "bytes32[]",
          "name": "poolIds",
          "type": "bytes32[]"
        },
        {
          "components": [
            {
              "internalType": "bool",
              "name": "loadTokenBalanceUpdatesAfterBlock",
              "type": "bool"
            },
            {
              "internalType": "bool",
              "name": "loadTotalSupply",
              "type": "bool"
            },
            {
              "internalType": "bool",
              "name": "loadSwapFees",
              "type": "bool"
            },
            {
              "internalType": "bool",
              "name": "loadLinearWrappedTokenRates",
              "type": "bool"
            },
            {
              "internalType": "bool",
              "name": "loadNormalizedWeights",
              "type": "bool"
            },
            {
              "internalType": "bool",
              "name": "loadScalingFactors",
              "type": "bool"
            },
            {
              "internalType": "bool",
              "name": "loadAmps",
              "type": "bool"
            },
            {
              "internalType": "uint256",
              "name": "blockNumber",
              "type": "uint256"
            },
            {
              "internalType": "enum TotalSupplyType[]",
              "name": "totalSupplyTypes",
              "type": "uint8[]"
            },
            {
              "internalType": "enum SwapFeeType[]",
              "name": "swapFeeTypes",
              "type": "uint8[]"
            },
            {
              "internalType": "uint256[]",
              "name": "linearPoolIdxs",
              "type": "uint256[]"
            },
            {
              "internalType": "uint256[]",
              "name": "weightedPoolIdxs",
              "type": "uint256[]"
            },
            {
              "internalType": "uint256[]",
              "name": "scalingFactorPoolIdxs",
              "type": "uint256[]"
            },
            {
              "internalType": "uint256[]",
              "name": "ampPoolIdxs",
              "type": "uint256[]"
            }
          ],
          "internalType": "struct SorPoolDataQueryConfig",
          "name": "config",
          "type": "tuple"
        }
      ],
      "name": "getPoolData",
      "outputs": [
        {
          "internalType": "uint256[][]",
          "name": "balances",
          "type": "uint256[][]"
        },
        {
          "internalType": "uint256[]",
          "name": "totalSupplies",
          "type": "uint256[]"
        },
        {
          "internalType": "uint256[]",
          "name": "swapFees",
          "type": "uint256[]"
        },
        {
          "internalType": "uint256[]",
          "name": "linearWrappedTokenRates",
          "type": "uint256[]"
        },
        {
          "internalType": "uint256[][]",
          "name": "weights",
          "type": "uint256[][]"
        },
        {
          "internalType": "uint256[][]",
          "name": "scalingFactors",
          "type": "uint256[][]"
        },
        {
          "internalType": "uint256[]",
          "name": "amps",
          "type": "uint256[]"
        }
      ],
      "stateMutability": "view",
      "type": "function"
    },
    {
      "inputs": [
        {
          "internalType": "bytes32[]",
          "name": "poolIds",
          "type": "bytes32[]"
        },
        {
          "internalType": "uint256",
          "name": "blockNumber",
          "type": "uint256"
        }
      ],
      "name": "getPoolTokenBalancesWithUpdatesAfterBlock",
      "outputs": [
        {
          "internalType": "uint256[][]",
          "name": "",
          "type": "uint256[][]"
        }
      ],
      "stateMutability": "view",
      "type": "function"
    },
    {
      "inputs": [
        {
          "internalType": "address[]",
          "name": "poolAddresses",
          "type": "address[]"
        }
      ],
      "name": "getScalingFactorsForPools",
      "outputs": [
        {
          "internalType": "uint256[][]",
          "name": "",
          "type": "uint256[][]"
        }
      ],
      "stateMutability": "view",
      "type": "function"
    },
    {
      "inputs": [
        {
          "internalType": "address[]",
          "name": "poolAddresses",
          "type": "address[]"
        },
        {
          "internalType": "enum SwapFeeType[]",
          "name": "swapFeeTypes",
          "type": "uint8[]"
        }
      ],
      "name": "getSwapFeePercentageForPools",
      "outputs": [
        {
          "internalType": "uint256[]",
          "name": "",
          "type": "uint256[]"
        }
      ],
      "stateMutability": "view",
      "type": "function"
    },
    {
      "inputs": [
        {
          "internalType": "address[]",
          "name": "poolAddresses",
          "type": "address[]"
        },
        {
          "internalType": "enum TotalSupplyType[]",
          "name": "totalSupplyTypes",
          "type": "uint8[]"
        }
      ],
      "name": "getTotalSupplyForPools",
      "outputs": [
        {
          "internalType": "uint256[]",
          "name": "",
          "type": "uint256[]"
        }
      ],
      "stateMutability": "view",
      "type": "function"
    },
    {
      "inputs": [
        {
          "internalType": "address[]",
          "name": "poolAddresses",
          "type": "address[]"
        }
      ],
      "name": "getWrappedTokenRateForLinearPools",
      "outputs": [
        {
          "internalType": "uint256[]",
          "name": "",
          "type": "uint256[]"
        }
      ],
      "stateMutability": "view",
      "type": "function"
    },
    {
      "inputs": [],
      "name": "vault",
      "outputs": [
        {
          "internalType": "contract IVault",
          "name": "",
          "type": "address"
        }
      ],
      "stateMutability": "view",
      "type": "function"
    }
  ],
  "bytecode": "0x60a060405234801561001057600080fd5b50604051611ab6380380611ab683398101604081905261002f91610044565b60601b6001600160601b031916608052610072565b600060208284031215610055578081fd5b81516001600160a01b038116811461006b578182fd5b9392505050565b60805160601c611a1d6100996000398061046c5280610af55280610fd85250611a1d6000f3fe608060405234801561001057600080fd5b50600436106100a35760003560e01c8063828f7c7d11610076578063b4a9f0c81161005b578063b4a9f0c81461013d578063b5d8e60214610150578063fbfa77cf14610176576100a3565b8063828f7c7d14610117578063b3a460011461012a576100a3565b806304013a7d146100a857806317615f32146100d1578063716bb27a146100e45780637b2de53314610104575b600080fd5b6100bb6100b63660046113c3565b61018b565b6040516100c89190611923565b60405180910390f35b6100bb6100df366004611388565b610370565b6100f76100f2366004611653565b610408565b6040516100c89190611872565b6100bb610112366004611388565b610581565b6100f7610125366004611388565b610688565b6100f7610138366004611388565b6107b8565b6100bb61014b366004611424565b6108e8565b61016361015e36600461147b565b610a91565b6040516100c8979695949392919061188c565b61017e610fd6565b6040516100c8919061193f565b606080835167ffffffffffffffff811180156101a657600080fd5b506040519080825280602002602001820160405280156101d0578160200160208202803683370190505b50905060005b84518110156103665760018482815181106101ed57fe5b6020026020010151600181111561020057fe5b14156102b45784818151811061021257fe5b602002602001015173ffffffffffffffffffffffffffffffffffffffff16634c1a41156040518163ffffffff1660e01b815260040160206040518083038186803b15801561025f57600080fd5b505afa158015610273573d6000803e3d6000fd5b505050506040513d601f19601f820116820180604052508101906102979190611795565b8282815181106102a357fe5b60200260200101818152505061035e565b8481815181106102c057fe5b602002602001015173ffffffffffffffffffffffffffffffffffffffff166355c676286040518163ffffffff1660e01b815260040160206040518083038186803b15801561030d57600080fd5b505afa158015610321573d6000803e3d6000fd5b505050506040513d601f19601f820116820180604052508101906103459190611795565b82828151811061035157fe5b6020026020010181815250505b6001016101d6565b5090505b92915050565b606080825167ffffffffffffffff8111801561038b57600080fd5b506040519080825280602002602001820160405280156103b5578160200160208202803683370190505b50905060005b83518110156103ff576103e08482815181106103d357fe5b6020026020010151610ffa565b8282815181106103ec57fe5b60209081029190910101526001016103bb565b5090505b919050565b60608060006060855167ffffffffffffffff8111801561042757600080fd5b5060405190808252806020026020018201604052801561045b57816020015b60608152602001906001900390816104465790505b50905060005b8651811015610577577f000000000000000000000000000000000000000000000000000000000000000073ffffffffffffffffffffffffffffffffffffffff1663f94d46688883815181106104b257fe5b60200260200101516040518263ffffffff1660e01b81526004016104d69190611936565b60006040518083038186803b1580156104ee57600080fd5b505afa158015610502573d6000803e3d6000fd5b505050506040513d6000823e601f3d9081017fffffffffffffffffffffffffffffffffffffffffffffffffffffffffffffffe01682016040526105489190810190611696565b9095509350508583111561056f578382828151811061056357fe5b60200260200101819052505b600101610461565b5095945050505050565b606080825167ffffffffffffffff8111801561059c57600080fd5b506040519080825280602002602001820160405280156105c6578160200160208202803683370190505b50905060005b83518110156103ff578381815181106105e157fe5b602002602001015173ffffffffffffffffffffffffffffffffffffffff16636daccffa6040518163ffffffff1660e01b815260040160606040518083038186803b15801561062e57600080fd5b505afa158015610642573d6000803e3d6000fd5b505050506040513d601f19601f8201168201806040525081019061066691906117ad565b90505082828151811061067557fe5b60209081029190910101526001016105cc565b606080825167ffffffffffffffff811180156106a357600080fd5b506040519080825280602002602001820160405280156106d757816020015b60608152602001906001900390816106c25790505b50905060005b83518110156103ff578381815181106106f257fe5b602002602001015173ffffffffffffffffffffffffffffffffffffffff16631dd746ea6040518163ffffffff1660e01b815260040160006040518083038186803b15801561073f57600080fd5b505afa158015610753573d6000803e3d6000fd5b505050506040513d6000823e601f3d9081017fffffffffffffffffffffffffffffffffffffffffffffffffffffffffffffffe01682016040526107999190810190611762565b8282815181106107a557fe5b60209081029190910101526001016106dd565b606080825167ffffffffffffffff811180156107d357600080fd5b5060405190808252806020026020018201604052801561080757816020015b60608152602001906001900390816107f25790505b50905060005b83518110156103ff5783818151811061082257fe5b602002602001015173ffffffffffffffffffffffffffffffffffffffff1663f89f27ed6040518163ffffffff1660e01b815260040160006040518083038186803b15801561086f57600080fd5b505afa158015610883573d6000803e3d6000fd5b505050506040513d6000823e601f3d9081017fffffffffffffffffffffffffffffffffffffffffffffffffffffffffffffffe01682016040526108c99190810190611762565b8282815181106108d557fe5b602090810291909101015260010161080d565b606080835167ffffffffffffffff8111801561090357600080fd5b5060405190808252806020026020018201604052801561092d578160200160208202803683370190505b50905060005b845181101561036657600184828151811061094a57fe5b6020026020010151600281111561095d57fe5b141561099c5761097f85828151811061097257fe5b60200260200101516110a3565b82828151811061098b57fe5b602002602001018181525050610a89565b60028482815181106109aa57fe5b602002602001015160028111156109bd57fe5b14156109df5761097f8582815181106109d257fe5b60200260200101516110eb565b8481815181106109eb57fe5b602002602001015173ffffffffffffffffffffffffffffffffffffffff166318160ddd6040518163ffffffff1660e01b815260040160206040518083038186803b158015610a3857600080fd5b505afa158015610a4c573d6000803e3d6000fd5b505050506040513d601f19601f82011682018060405250810190610a709190611795565b828281518110610a7c57fe5b6020026020010181815250505b600101610933565b6060806060806060806060600060608a5167ffffffffffffffff81118015610ab857600080fd5b50604051908082528060200260200182016040528015610ae2578160200160208202803683370190505b509050600091505b8a51821015610c00577f000000000000000000000000000000000000000000000000000000000000000073ffffffffffffffffffffffffffffffffffffffff1663f6c009278c8481518110610b3b57fe5b60200260200101516040518263ffffffff1660e01b8152600401610b5f9190611936565b604080518083038186803b158015610b7657600080fd5b505afa158015610b8a573d6000803e3d6000fd5b505050506040513d601f19601f82011682018060405250810190610bae919061134f565b50818381518110610bbb57fe5b602002602001018173ffffffffffffffffffffffffffffffffffffffff1673ffffffffffffffffffffffffffffffffffffffff16815250508180600101925050610aea565b895115610c1857610c158b8b60e00151610408565b98505b896020015115610c3457610c31818b61010001516108e8565b97505b896040015115610c5057610c4d818b610120015161018b565b96505b896060015115610d2e5760608a61014001515167ffffffffffffffff81118015610c7957600080fd5b50604051908082528060200260200182016040528015610ca3578160200160208202803683370190505b509050600092505b8a610140015151831015610d2157818b61014001518481518110610ccb57fe5b602002602001015181518110610cdd57fe5b6020026020010151818481518110610cf157fe5b73ffffffffffffffffffffffffffffffffffffffff90921660209283029190910190910152600190920191610cab565b610d2a81610370565b9650505b896080015115610e0c5760608a61016001515167ffffffffffffffff81118015610d5757600080fd5b50604051908082528060200260200182016040528015610d81578160200160208202803683370190505b509050600092505b8a610160015151831015610dff57818b61016001518481518110610da957fe5b602002602001015181518110610dbb57fe5b6020026020010151818481518110610dcf57fe5b73ffffffffffffffffffffffffffffffffffffffff90921660209283029190910190910152600190920191610d89565b610e08816107b8565b9550505b8960a0015115610eea5760608a61018001515167ffffffffffffffff81118015610e3557600080fd5b50604051908082528060200260200182016040528015610e5f578160200160208202803683370190505b509050600092505b8a610180015151831015610edd57818b61018001518481518110610e8757fe5b602002602001015181518110610e9957fe5b6020026020010151818481518110610ead57fe5b73ffffffffffffffffffffffffffffffffffffffff90921660209283029190910190910152600190920191610e67565b610ee681610688565b9450505b8960c0015115610fc85760608a6101a001515167ffffffffffffffff81118015610f1357600080fd5b50604051908082528060200260200182016040528015610f3d578160200160208202803683370190505b509050600092505b8a6101a0015151831015610fbb57818b6101a001518481518110610f6557fe5b602002602001015181518110610f7757fe5b6020026020010151818481518110610f8b57fe5b73ffffffffffffffffffffffffffffffffffffffff90921660209283029190910190910152600190920191610f45565b610fc481610581565b9350505b505092959891949750929550565b7f000000000000000000000000000000000000000000000000000000000000000081565b60008173ffffffffffffffffffffffffffffffffffffffff1663f5431aa86040518163ffffffff1660e01b815260040160206040518083038186803b15801561104257600080fd5b505afa925050508015611090575060408051601f3d9081017fffffffffffffffffffffffffffffffffffffffffffffffffffffffffffffffe016820190925261108d91810190611795565b60015b61109c57506000610403565b9050610403565b60008173ffffffffffffffffffffffffffffffffffffffff1663de82cd346040518163ffffffff1660e01b815260040160206040518083038186803b15801561104257600080fd5b60008173ffffffffffffffffffffffffffffffffffffffff1663876f303b6040518163ffffffff1660e01b815260040160206040518083038186803b15801561104257600080fd5b600082601f830112611143578081fd5b813561115661115182611987565b611960565b81815291506020808301908481018184028601820187101561117757600080fd5b60005b8481101561119f57813561118d816119a7565b8452928201929082019060010161117a565b505050505092915050565b600082601f8301126111ba578081fd5b81356111c861115182611987565b8181529150602080830190848101818402860182018710156111e957600080fd5b60005b8481101561119f578135845292820192908201906001016111ec565b600082601f830112611218578081fd5b813561122661115182611987565b81815291506020808301908481018184028601820187101561124757600080fd5b6000805b8581101561127357823560028110611261578283fd5b8552938301939183019160010161124b565b50505050505092915050565b600082601f83011261128f578081fd5b813561129d61115182611987565b8181529150602080830190848101818402860182018710156112be57600080fd5b60005b8481101561119f5781356112d4816119da565b845292820192908201906001016112c1565b600082601f8301126112f6578081fd5b815161130461115182611987565b81815291506020808301908481018184028601820187101561132557600080fd5b60005b8481101561119f57815184529282019290820190600101611328565b803561036a816119cc565b60008060408385031215611361578182fd5b825161136c816119a7565b602084015190925061137d816119da565b809150509250929050565b600060208284031215611399578081fd5b813567ffffffffffffffff8111156113af578182fd5b6113bb84828501611133565b949350505050565b600080604083850312156113d5578182fd5b823567ffffffffffffffff808211156113ec578384fd5b6113f886838701611133565b9350602085013591508082111561140d578283fd5b5061141a85828601611208565b9150509250929050565b60008060408385031215611436578182fd5b823567ffffffffffffffff8082111561144d578384fd5b61145986838701611133565b9350602085013591508082111561146e578283fd5b5061141a8582860161127f565b6000806040838503121561148d578182fd5b823567ffffffffffffffff808211156114a4578384fd5b6114b0868387016111aa565b935060208501359150808211156114c5578283fd5b81850191506101c08083880312156114db578384fd5b6114e481611960565b90506114f08784611344565b81526114ff8760208501611344565b60208201526115118760408501611344565b60408201526115238760608501611344565b60608201526115358760808501611344565b60808201526115478760a08501611344565b60a08201526115598760c08501611344565b60c082015260e083013560e0820152610100808401358381111561157b578586fd5b6115878982870161127f565b82840152505061012080840135838111156115a0578586fd5b6115ac89828701611208565b82840152505061014080840135838111156115c5578586fd5b6115d1898287016111aa565b82840152505061016080840135838111156115ea578586fd5b6115f6898287016111aa565b828401525050610180808401358381111561160f578586fd5b61161b898287016111aa565b8284015250506101a08084013583811115611634578586fd5b611640898287016111aa565b8284015250508093505050509250929050565b60008060408385031215611665578182fd5b823567ffffffffffffffff81111561167b578283fd5b611687858286016111aa565b95602094909401359450505050565b6000806000606084860312156116aa578081fd5b835167ffffffffffffffff808211156116c1578283fd5b818601915086601f8301126116d4578283fd5b81516116e261115182611987565b80828252602080830192508086018b828387028901011115611702578788fd5b8796505b8487101561172d578051611719816119a7565b845260019690960195928101928101611706565b508901519097509350505080821115611744578283fd5b50611751868287016112e6565b925050604084015190509250925092565b600060208284031215611773578081fd5b815167ffffffffffffffff811115611789578182fd5b6113bb848285016112e6565b6000602082840312156117a6578081fd5b5051919050565b6000806000606084860312156117c1578081fd5b8351925060208401516117d3816119cc565b80925050604084015190509250925092565b6000815180845260208085018081965082840281019150828601855b8581101561182b578284038952611819848351611838565b98850198935090840190600101611801565b5091979650505050505050565b6000815180845260208085019450808401835b838110156118675781518752958201959082019060010161184b565b509495945050505050565b60006020825261188560208301846117e5565b9392505050565b600060e0825261189f60e083018a6117e5565b82810360208401526118b1818a611838565b905082810360408401526118c58189611838565b905082810360608401526118d98188611838565b905082810360808401526118ed81876117e5565b905082810360a084015261190181866117e5565b905082810360c08401526119158185611838565b9a9950505050505050505050565b6000602082526118856020830184611838565b90815260200190565b73ffffffffffffffffffffffffffffffffffffffff91909116815260200190565b60405181810167ffffffffffffffff8111828210171561197f57600080fd5b604052919050565b600067ffffffffffffffff82111561199d578081fd5b5060209081020190565b73ffffffffffffffffffffffffffffffffffffffff811681146119c957600080fd5b50565b80151581146119c957600080fd5b600381106119c957600080fdfea2646970667358221220b649dbc4fe38218d8dbac1a1090d7b01cf747c9c80b5fb0451658521dfc99e0164736f6c63430007010033",
  "linkReferences": {},
  "deployedLinkReferences": {}
}