{
  "_format": "hh-sol-artifact-1",
  "contractName": "BalancerSorQueries",
  "sourceName": "contracts/BalancerSorQueries.sol",
  "abi": [
    {
      "inputs": [
        {
          "internalType": "contract IVault",
          "name": "_vault",
          "type": "address"
        }
      ],
      "stateMutability": "nonpayable",
      "type": "constructor"
    },
    {
      "inputs": [
        {
          "internalType": "address[]",
          "name": "poolAddresses",
          "type": "address[]"
        }
      ],
      "name": "getNormalizedWeightsForPools",
      "outputs": [
        {
          "internalType": "uint256[][]",
          "name": "",
          "type": "uint256[][]"
        }
      ],
      "stateMutability": "view",
      "type": "function"
    },
    {
      "inputs": [
        {
          "internalType": "bytes32[]",
          "name": "poolIds",
          "type": "bytes32[]"
        },
        {
          "internalType": "uint256",
          "name": "blockNumber",
          "type": "uint256"
        }
      ],
      "name": "getPoolTokenBalancesWithUpdatesAfterBlock",
      "outputs": [
        {
          "internalType": "uint256[][]",
          "name": "",
          "type": "uint256[][]"
        }
      ],
      "stateMutability": "view",
      "type": "function"
    },
    {
      "inputs": [
        {
          "internalType": "address[]",
          "name": "poolAddresses",
          "type": "address[]"
        },
        {
          "internalType": "enum SwapFeeType[]",
          "name": "swapFeeTypes",
          "type": "uint8[]"
        }
      ],
      "name": "getSwapFeePercentageForPools",
      "outputs": [
        {
          "internalType": "uint256[]",
          "name": "",
          "type": "uint256[]"
        }
      ],
      "stateMutability": "view",
      "type": "function"
    },
    {
      "inputs": [
        {
          "internalType": "bytes32[]",
          "name": "poolIds",
          "type": "bytes32[]"
        }
      ],
      "name": "getTokenRatesForPools",
      "outputs": [
        {
          "internalType": "uint256[][]",
          "name": "",
          "type": "uint256[][]"
        }
      ],
      "stateMutability": "view",
      "type": "function"
    },
    {
      "inputs": [
        {
          "internalType": "address[]",
          "name": "poolAddresses",
          "type": "address[]"
        },
        {
          "internalType": "enum TotalSupplyType[]",
          "name": "totalSupplyTypes",
          "type": "uint8[]"
        }
      ],
      "name": "getTotalSupplyForPools",
      "outputs": [
        {
          "internalType": "uint256[]",
          "name": "",
          "type": "uint256[]"
        }
      ],
      "stateMutability": "view",
      "type": "function"
    },
    {
      "inputs": [
        {
          "internalType": "address[]",
          "name": "poolAddresses",
          "type": "address[]"
        }
      ],
      "name": "getWrappedTokenRateForLinearPools",
      "outputs": [
        {
          "internalType": "uint256[]",
          "name": "",
          "type": "uint256[]"
        }
      ],
      "stateMutability": "view",
      "type": "function"
    },
    {
      "inputs": [],
      "name": "vault",
      "outputs": [
        {
          "internalType": "contract IVault",
          "name": "",
          "type": "address"
        }
      ],
      "stateMutability": "view",
      "type": "function"
    }
  ],
  "bytecode": "0x60a060405234801561001057600080fd5b506040516113a03803806113a083398101604081905261002f91610044565b60601b6001600160601b031916608052610072565b600060208284031215610055578081fd5b81516001600160a01b038116811461006b578182fd5b9392505050565b60805160601c61130261009e6000398061040b52806104cb52806107575280610b4752506113026000f3fe608060405234801561001057600080fd5b506004361061007d5760003560e01c8063716bb27a1161005b578063716bb27a146100de578063b3a46001146100f1578063b4a9f0c814610104578063fbfa77cf146101175761007d565b806304013a7d1461008257806317615f32146100ab5780635ae7f0f2146100be575b600080fd5b610095610090366004610e49565b61012c565b6040516100a29190611202565b60405180910390f35b6100956100b9366004610e0e565b61030f565b6100d16100cc366004610fbd565b6103a7565b6040516100a29190611184565b6100d16100ec366004610ff0565b6106f3565b6100d16100ff366004610e0e565b61086c565b610095610112366004610f0b565b61099c565b61011f610b45565b6040516100a29190611225565b606080835167ffffffffffffffff8111801561014757600080fd5b50604051908082528060200260200182016040528015610171578160200160208202803683370190505b50905060005b845181101561030757600184828151811061018e57fe5b602002602001015160018111156101a157fe5b1415610255578481815181106101b357fe5b602002602001015173ffffffffffffffffffffffffffffffffffffffff16634c1a41156040518163ffffffff1660e01b815260040160206040518083038186803b15801561020057600080fd5b505afa158015610214573d6000803e3d6000fd5b505050506040513d601f19601f820116820180604052508101906102389190611132565b82828151811061024457fe5b6020026020010181815250506102ff565b84818151811061026157fe5b602002602001015173ffffffffffffffffffffffffffffffffffffffff166355c676286040518163ffffffff1660e01b815260040160206040518083038186803b1580156102ae57600080fd5b505afa1580156102c2573d6000803e3d6000fd5b505050506040513d601f19601f820116820180604052508101906102e69190611132565b8282815181106102f257fe5b6020026020010181815250505b600101610177565b509392505050565b606080825167ffffffffffffffff8111801561032a57600080fd5b50604051908082528060200260200182016040528015610354578160200160208202803683370190505b50905060005b835181101561039e5761037f84828151811061037257fe5b6020026020010151610b69565b82828151811061038b57fe5b602090810291909101015260010161035a565b5090505b919050565b606080825167ffffffffffffffff811180156103c257600080fd5b506040519080825280602002602001820160405280156103f657816020015b60608152602001906001900390816103e15790505b5090506000606060005b85518110156106e9577f000000000000000000000000000000000000000000000000000000000000000073ffffffffffffffffffffffffffffffffffffffff1663f6c0092787838151811061045157fe5b60200260200101516040518263ffffffff1660e01b8152600401610475919061121c565b604080518083038186803b15801561048c57600080fd5b505afa1580156104a0573d6000803e3d6000fd5b505050506040513d601f19601f820116820180604052508101906104c49190610dd5565b50809350507f000000000000000000000000000000000000000000000000000000000000000073ffffffffffffffffffffffffffffffffffffffff1663f94d466887838151811061051157fe5b60200260200101516040518263ffffffff1660e01b8152600401610535919061121c565b60006040518083038186803b15801561054d57600080fd5b505afa158015610561573d6000803e3d6000fd5b505050506040513d6000823e601f3d9081017fffffffffffffffffffffffffffffffffffffffffffffffffffffffffffffffe01682016040526105a79190810190611033565b5050805190925067ffffffffffffffff811180156105c457600080fd5b506040519080825280602002602001820160405280156105ee578160200160208202803683370190505b508482815181106105fb57fe5b602002602001018190525060005b82518110156106e0578373ffffffffffffffffffffffffffffffffffffffff166354dea00a84838151811061063a57fe5b60200260200101516040518263ffffffff1660e01b815260040161065e9190611225565b60206040518083038186803b15801561067657600080fd5b505afa15801561068a573d6000803e3d6000fd5b505050506040513d601f19601f820116820180604052508101906106ae9190611132565b8583815181106106ba57fe5b602002602001015182815181106106cd57fe5b6020908102919091010152600101610609565b50600101610400565b5091949350505050565b60608060006060855167ffffffffffffffff8111801561071257600080fd5b5060405190808252806020026020018201604052801561074657816020015b60608152602001906001900390816107315790505b50905060005b8651811015610862577f000000000000000000000000000000000000000000000000000000000000000073ffffffffffffffffffffffffffffffffffffffff1663f94d466888838151811061079d57fe5b60200260200101516040518263ffffffff1660e01b81526004016107c1919061121c565b60006040518083038186803b1580156107d957600080fd5b505afa1580156107ed573d6000803e3d6000fd5b505050506040513d6000823e601f3d9081017fffffffffffffffffffffffffffffffffffffffffffffffffffffffffffffffe01682016040526108339190810190611033565b9095509350508583111561085a578382828151811061084e57fe5b60200260200101819052505b60010161074c565b5095945050505050565b606080825167ffffffffffffffff8111801561088757600080fd5b506040519080825280602002602001820160405280156108bb57816020015b60608152602001906001900390816108a65790505b50905060005b835181101561039e578381815181106108d657fe5b602002602001015173ffffffffffffffffffffffffffffffffffffffff1663f89f27ed6040518163ffffffff1660e01b815260040160006040518083038186803b15801561092357600080fd5b505afa158015610937573d6000803e3d6000fd5b505050506040513d6000823e601f3d9081017fffffffffffffffffffffffffffffffffffffffffffffffffffffffffffffffe016820160405261097d91908101906110ff565b82828151811061098957fe5b60209081029190910101526001016108c1565b606080835167ffffffffffffffff811180156109b757600080fd5b506040519080825280602002602001820160405280156109e1578160200160208202803683370190505b50905060005b84518110156103075760018482815181106109fe57fe5b60200260200101516002811115610a1157fe5b1415610a5057610a33858281518110610a2657fe5b6020026020010151610c12565b828281518110610a3f57fe5b602002602001018181525050610b3d565b6002848281518110610a5e57fe5b60200260200101516002811115610a7157fe5b1415610a9357610a33858281518110610a8657fe5b6020026020010151610c5a565b848181518110610a9f57fe5b602002602001015173ffffffffffffffffffffffffffffffffffffffff166318160ddd6040518163ffffffff1660e01b815260040160206040518083038186803b158015610aec57600080fd5b505afa158015610b00573d6000803e3d6000fd5b505050506040513d601f19601f82011682018060405250810190610b249190611132565b828281518110610b3057fe5b6020026020010181815250505b6001016109e7565b7f000000000000000000000000000000000000000000000000000000000000000081565b60008173ffffffffffffffffffffffffffffffffffffffff1663f5431aa86040518163ffffffff1660e01b815260040160206040518083038186803b158015610bb157600080fd5b505afa925050508015610bff575060408051601f3d9081017fffffffffffffffffffffffffffffffffffffffffffffffffffffffffffffffe0168201909252610bfc91810190611132565b60015b610c0b575060006103a2565b90506103a2565b60008173ffffffffffffffffffffffffffffffffffffffff1663de82cd346040518163ffffffff1660e01b815260040160206040518083038186803b158015610bb157600080fd5b60008173ffffffffffffffffffffffffffffffffffffffff1663876f303b6040518163ffffffff1660e01b815260040160206040518083038186803b158015610bb157600080fd5b600082601f830112610cb2578081fd5b8135610cc5610cc08261126d565b611246565b818152915060208083019084810181840286018201871015610ce657600080fd5b60005b84811015610d0e578135610cfc8161128d565b84529282019290820190600101610ce9565b505050505092915050565b600082601f830112610d29578081fd5b8135610d37610cc08261126d565b818152915060208083019084810181840286018201871015610d5857600080fd5b60005b84811015610d0e57813584529282019290820190600101610d5b565b600082601f830112610d87578081fd5b8151610d95610cc08261126d565b818152915060208083019084810181840286018201871015610db657600080fd5b60005b84811015610d0e57815184529282019290820190600101610db9565b60008060408385031215610de7578182fd5b8251610df28161128d565b6020840151909250610e03816112b2565b809150509250929050565b600060208284031215610e1f578081fd5b813567ffffffffffffffff811115610e35578182fd5b610e4184828501610ca2565b949350505050565b60008060408385031215610e5b578182fd5b823567ffffffffffffffff80821115610e72578384fd5b610e7e86838701610ca2565b9350602091508185013581811115610e94578384fd5b85019050601f81018613610ea6578283fd5b8035610eb4610cc08261126d565b81815283810190838501858402850186018a1015610ed0578687fd5b8694505b83851015610efb578035610ee7816112bf565b835260019490940193918501918501610ed4565b5080955050505050509250929050565b60008060408385031215610f1d578182fd5b823567ffffffffffffffff80821115610f34578384fd5b610f4086838701610ca2565b9350602091508185013581811115610f56578384fd5b85019050601f81018613610f68578283fd5b8035610f76610cc08261126d565b81815283810190838501858402850186018a1015610f92578687fd5b8694505b83851015610efb578035610fa9816112b2565b835260019490940193918501918501610f96565b600060208284031215610fce578081fd5b813567ffffffffffffffff811115610fe4578182fd5b610e4184828501610d19565b60008060408385031215611002578182fd5b823567ffffffffffffffff811115611018578283fd5b61102485828601610d19565b95602094909401359450505050565b600080600060608486031215611047578081fd5b835167ffffffffffffffff8082111561105e578283fd5b818601915086601f830112611071578283fd5b815161107f610cc08261126d565b80828252602080830192508086018b82838702890101111561109f578788fd5b8796505b848710156110ca5780516110b68161128d565b8452600196909601959281019281016110a3565b5089015190975093505050808211156110e1578283fd5b506110ee86828701610d77565b925050604084015190509250925092565b600060208284031215611110578081fd5b815167ffffffffffffffff811115611126578182fd5b610e4184828501610d77565b600060208284031215611143578081fd5b5051919050565b6000815180845260208085019450808401835b838110156111795781518752958201959082019060010161115d565b509495945050505050565b6000602080830181845280855180835260408601915060408482028701019250838701855b828110156111f5577fffffffffffffffffffffffffffffffffffffffffffffffffffffffffffffffc08886030184526111e385835161114a565b945092850192908501906001016111a9565b5092979650505050505050565b600060208252611215602083018461114a565b9392505050565b90815260200190565b73ffffffffffffffffffffffffffffffffffffffff91909116815260200190565b60405181810167ffffffffffffffff8111828210171561126557600080fd5b604052919050565b600067ffffffffffffffff821115611283578081fd5b5060209081020190565b73ffffffffffffffffffffffffffffffffffffffff811681146112af57600080fd5b50565b600381106112af57600080fd5b600281106112af57600080fdfea264697066735822122082c3af67ddabf0f1bd7bdaa204359444a11954232d8f67443dff57e891f3387a64736f6c63430007010033",
  "linkReferences": {},
  "deployedLinkReferences": {}
}