{
  "_format": "hh-sol-artifact-1",
  "contractName": "BalancerSorQueries",
  "sourceName": "contracts/BalancerSorQueries.sol",
  "abi": [
    {
      "inputs": [
        {
          "internalType": "contract IVault",
          "name": "_vault",
          "type": "address"
        }
      ],
      "stateMutability": "nonpayable",
      "type": "constructor"
    },
    {
      "inputs": [
        {
          "internalType": "address[]",
          "name": "poolAddresses",
          "type": "address[]"
        }
      ],
      "name": "getNormalizedWeightsForPools",
      "outputs": [
        {
          "internalType": "uint256[][]",
          "name": "",
          "type": "uint256[][]"
        }
      ],
      "stateMutability": "view",
      "type": "function"
    },
    {
      "inputs": [
        {
          "internalType": "bytes32[]",
          "name": "poolIds",
          "type": "bytes32[]"
        },
        {
          "components": [
            {
              "internalType": "bool",
              "name": "loadTokenBalanceUpdatesAfterBlock",
              "type": "bool"
            },
            {
              "internalType": "bool",
              "name": "loadTotalSupply",
              "type": "bool"
            },
            {
              "internalType": "bool",
              "name": "loadSwapFees",
              "type": "bool"
            },
            {
              "internalType": "bool",
              "name": "loadLinearWrappedTokenRates",
              "type": "bool"
            },
            {
              "internalType": "bool",
              "name": "loadNormalizedWeights",
              "type": "bool"
            },
            {
              "internalType": "bool",
              "name": "loadTokenRates",
              "type": "bool"
            },
            {
              "internalType": "uint256",
              "name": "blockNumber",
              "type": "uint256"
            },
            {
              "internalType": "enum TotalSupplyType[]",
              "name": "totalSupplyTypes",
              "type": "uint8[]"
            },
            {
              "internalType": "enum SwapFeeType[]",
              "name": "swapFeeTypes",
              "type": "uint8[]"
            },
            {
              "internalType": "uint256[]",
              "name": "linearPoolIdxs",
              "type": "uint256[]"
            },
            {
              "internalType": "uint256[]",
              "name": "weightedPoolIdxs",
              "type": "uint256[]"
            },
            {
              "internalType": "uint256[]",
              "name": "tokenRatePoolIdxs",
              "type": "uint256[]"
            }
          ],
          "internalType": "struct SorPoolDataQueryConfig",
          "name": "config",
          "type": "tuple"
        }
      ],
      "name": "getPoolData",
      "outputs": [
        {
          "internalType": "uint256[][]",
          "name": "balances",
          "type": "uint256[][]"
        },
        {
          "internalType": "uint256[]",
          "name": "totalSupplies",
          "type": "uint256[]"
        },
        {
          "internalType": "uint256[]",
          "name": "swapFees",
          "type": "uint256[]"
        },
        {
          "internalType": "uint256[]",
          "name": "linearWrappedTokenRates",
          "type": "uint256[]"
        },
        {
          "internalType": "uint256[][]",
          "name": "weights",
          "type": "uint256[][]"
        },
        {
          "internalType": "uint256[][]",
          "name": "tokenRates",
          "type": "uint256[][]"
        }
      ],
      "stateMutability": "view",
      "type": "function"
    },
    {
      "inputs": [
        {
          "internalType": "bytes32[]",
          "name": "poolIds",
          "type": "bytes32[]"
        },
        {
          "internalType": "uint256",
          "name": "blockNumber",
          "type": "uint256"
        }
      ],
      "name": "getPoolTokenBalancesWithUpdatesAfterBlock",
      "outputs": [
        {
          "internalType": "uint256[][]",
          "name": "",
          "type": "uint256[][]"
        }
      ],
      "stateMutability": "view",
      "type": "function"
    },
    {
      "inputs": [
        {
          "internalType": "address[]",
          "name": "poolAddresses",
          "type": "address[]"
        },
        {
          "internalType": "enum SwapFeeType[]",
          "name": "swapFeeTypes",
          "type": "uint8[]"
        }
      ],
      "name": "getSwapFeePercentageForPools",
      "outputs": [
        {
          "internalType": "uint256[]",
          "name": "",
          "type": "uint256[]"
        }
      ],
      "stateMutability": "view",
      "type": "function"
    },
    {
      "inputs": [
        {
          "internalType": "bytes32[]",
          "name": "poolIds",
          "type": "bytes32[]"
        },
        {
          "internalType": "address[]",
          "name": "poolAddresses",
          "type": "address[]"
        }
      ],
      "name": "getTokenRatesForPools",
      "outputs": [
        {
          "internalType": "uint256[][]",
          "name": "",
          "type": "uint256[][]"
        }
      ],
      "stateMutability": "view",
      "type": "function"
    },
    {
      "inputs": [
        {
          "internalType": "address[]",
          "name": "poolAddresses",
          "type": "address[]"
        },
        {
          "internalType": "enum TotalSupplyType[]",
          "name": "totalSupplyTypes",
          "type": "uint8[]"
        }
      ],
      "name": "getTotalSupplyForPools",
      "outputs": [
        {
          "internalType": "uint256[]",
          "name": "",
          "type": "uint256[]"
        }
      ],
      "stateMutability": "view",
      "type": "function"
    },
    {
      "inputs": [
        {
          "internalType": "address[]",
          "name": "poolAddresses",
          "type": "address[]"
        }
      ],
      "name": "getWrappedTokenRateForLinearPools",
      "outputs": [
        {
          "internalType": "uint256[]",
          "name": "",
          "type": "uint256[]"
        }
      ],
      "stateMutability": "view",
      "type": "function"
    },
    {
      "inputs": [],
      "name": "vault",
      "outputs": [
        {
          "internalType": "contract IVault",
          "name": "",
          "type": "address"
        }
      ],
      "stateMutability": "view",
      "type": "function"
    }
  ],
  "bytecode": "0x60a060405234801561001057600080fd5b50604051611a1f380380611a1f83398101604081905261002f91610044565b60601b6001600160601b031916608052610072565b600060208284031215610055578081fd5b81516001600160a01b038116811461006b578182fd5b9392505050565b60805160601c61198161009e600039806101be528061092f5280610b315280610ee552506119816000f3fe608060405234801561001057600080fd5b50600436106100885760003560e01c8063716bb27a1161005b578063716bb27a1461010e578063b3a4600114610121578063b4a9f0c814610134578063fbfa77cf1461014757610088565b806301119d821461008d57806304013a7d146100bb57806317615f32146100db5780633cafc95a146100ee575b600080fd5b6100a061009b366004611476565b61015c565b6040516100b296959493929190611813565b60405180910390f35b6100ce6100c9366004611367565b610650565b6040516100b29190611895565b6100ce6100e936600461132c565b610835565b6101016100fc36600461141f565b6108cd565b6040516100b291906117f9565b61010161011c366004611615565b610acd565b61010161012f36600461132c565b610c28565b6100ce6101423660046113c8565b610d3a565b61014f610ee3565b6040516100b291906118b1565b60608060608060608060006060895167ffffffffffffffff8111801561018157600080fd5b506040519080825280602002602001820160405280156101ab578160200160208202803683370190505b509050600091505b89518210156102c9577f000000000000000000000000000000000000000000000000000000000000000073ffffffffffffffffffffffffffffffffffffffff1663f6c009278b848151811061020457fe5b60200260200101516040518263ffffffff1660e01b815260040161022891906118a8565b604080518083038186803b15801561023f57600080fd5b505afa158015610253573d6000803e3d6000fd5b505050506040513d601f19601f8201168201806040525081019061027791906112f3565b5081838151811061028457fe5b602002602001018173ffffffffffffffffffffffffffffffffffffffff1673ffffffffffffffffffffffffffffffffffffffff168152505081806001019250506101b3565b8851156102e1576102de8a8a60c00151610acd565b97505b8860200151156102fc576102f9818a60e00151610d3a565b96505b88604001511561031857610315818a6101000151610650565b95505b8860600151156103f65760608961012001515167ffffffffffffffff8111801561034157600080fd5b5060405190808252806020026020018201604052801561036b578160200160208202803683370190505b509050600092505b896101200151518310156103e957818a6101200151848151811061039357fe5b6020026020010151815181106103a557fe5b60200260200101518184815181106103b957fe5b73ffffffffffffffffffffffffffffffffffffffff90921660209283029190910190910152600190920191610373565b6103f281610835565b9550505b8860800151156104d45760608961014001515167ffffffffffffffff8111801561041f57600080fd5b50604051908082528060200260200182016040528015610449578160200160208202803683370190505b509050600092505b896101400151518310156104c757818a6101400151848151811061047157fe5b60200260200101518151811061048357fe5b602002602001015181848151811061049757fe5b73ffffffffffffffffffffffffffffffffffffffff90921660209283029190910190910152600190920191610451565b6104d081610c28565b9450505b8860a00151156106445760608961016001515167ffffffffffffffff811180156104fd57600080fd5b50604051908082528060200260200182016040528015610527578160200160208202803683370190505b50905060608a61016001515167ffffffffffffffff8111801561054957600080fd5b50604051908082528060200260200182016040528015610573578160200160208202803683370190505b509050600093505b8a610160015151841015610635578b8b6101600151858151811061059b57fe5b6020026020010151815181106105ad57fe5b60200260200101518285815181106105c157fe5b602002602001018181525050828b610160015185815181106105df57fe5b6020026020010151815181106105f157fe5b602002602001015181858151811061060557fe5b73ffffffffffffffffffffffffffffffffffffffff9092166020928302919091019091015260019093019261057b565b61063f82826108cd565b945050505b50509295509295509295565b606080835167ffffffffffffffff8111801561066b57600080fd5b50604051908082528060200260200182016040528015610695578160200160208202803683370190505b50905060005b845181101561082b5760018482815181106106b257fe5b602002602001015160018111156106c557fe5b1415610779578481815181106106d757fe5b602002602001015173ffffffffffffffffffffffffffffffffffffffff16634c1a41156040518163ffffffff1660e01b815260040160206040518083038186803b15801561072457600080fd5b505afa158015610738573d6000803e3d6000fd5b505050506040513d601f19601f8201168201806040525081019061075c9190611757565b82828151811061076857fe5b602002602001018181525050610823565b84818151811061078557fe5b602002602001015173ffffffffffffffffffffffffffffffffffffffff166355c676286040518163ffffffff1660e01b815260040160206040518083038186803b1580156107d257600080fd5b505afa1580156107e6573d6000803e3d6000fd5b505050506040513d601f19601f8201168201806040525081019061080a9190611757565b82828151811061081657fe5b6020026020010181815250505b60010161069b565b5090505b92915050565b606080825167ffffffffffffffff8111801561085057600080fd5b5060405190808252806020026020018201604052801561087a578160200160208202803683370190505b50905060005b83518110156108c4576108a584828151811061089857fe5b6020026020010151610f07565b8282815181106108b157fe5b6020908102919091010152600101610880565b5090505b919050565b606080835167ffffffffffffffff811180156108e857600080fd5b5060405190808252806020026020018201604052801561091c57816020015b60608152602001906001900390816109075790505b509050606060005b8551811015610ac3577f000000000000000000000000000000000000000000000000000000000000000073ffffffffffffffffffffffffffffffffffffffff1663f94d466887838151811061097557fe5b60200260200101516040518263ffffffff1660e01b815260040161099991906118a8565b60006040518083038186803b1580156109b157600080fd5b505afa1580156109c5573d6000803e3d6000fd5b505050506040513d6000823e601f3d908101601f191682016040526109ed9190810190611658565b5050805190925067ffffffffffffffff81118015610a0a57600080fd5b50604051908082528060200260200182016040528015610a34578160200160208202803683370190505b50838281518110610a4157fe5b602002602001018190525060005b8251811015610aba57610a88868381518110610a6757fe5b6020026020010151848381518110610a7b57fe5b6020026020010151610f92565b848381518110610a9457fe5b60200260200101518281518110610aa757fe5b6020908102919091010152600101610a4f565b50600101610924565b5090949350505050565b60608060006060855167ffffffffffffffff81118015610aec57600080fd5b50604051908082528060200260200182016040528015610b2057816020015b6060815260200190600190039081610b0b5790505b50905060005b8651811015610c1e577f000000000000000000000000000000000000000000000000000000000000000073ffffffffffffffffffffffffffffffffffffffff1663f94d4668888381518110610b7757fe5b60200260200101516040518263ffffffff1660e01b8152600401610b9b91906118a8565b60006040518083038186803b158015610bb357600080fd5b505afa158015610bc7573d6000803e3d6000fd5b505050506040513d6000823e601f3d908101601f19168201604052610bef9190810190611658565b90955093505085831115610c165783828281518110610c0a57fe5b60200260200101819052505b600101610b26565b5095945050505050565b606080825167ffffffffffffffff81118015610c4357600080fd5b50604051908082528060200260200182016040528015610c7757816020015b6060815260200190600190039081610c625790505b50905060005b83518110156108c457838181518110610c9257fe5b602002602001015173ffffffffffffffffffffffffffffffffffffffff1663f89f27ed6040518163ffffffff1660e01b815260040160006040518083038186803b158015610cdf57600080fd5b505afa158015610cf3573d6000803e3d6000fd5b505050506040513d6000823e601f3d908101601f19168201604052610d1b9190810190611724565b828281518110610d2757fe5b6020908102919091010152600101610c7d565b606080835167ffffffffffffffff81118015610d5557600080fd5b50604051908082528060200260200182016040528015610d7f578160200160208202803683370190505b50905060005b845181101561082b576001848281518110610d9c57fe5b60200260200101516002811115610daf57fe5b1415610dee57610dd1858281518110610dc457fe5b6020026020010151611042565b828281518110610ddd57fe5b602002602001018181525050610edb565b6002848281518110610dfc57fe5b60200260200101516002811115610e0f57fe5b1415610e3157610dd1858281518110610e2457fe5b602002602001015161108a565b848181518110610e3d57fe5b602002602001015173ffffffffffffffffffffffffffffffffffffffff166318160ddd6040518163ffffffff1660e01b815260040160206040518083038186803b158015610e8a57600080fd5b505afa158015610e9e573d6000803e3d6000fd5b505050506040513d601f19601f82011682018060405250810190610ec29190611757565b828281518110610ece57fe5b6020026020010181815250505b600101610d85565b7f000000000000000000000000000000000000000000000000000000000000000081565b60008173ffffffffffffffffffffffffffffffffffffffff1663f5431aa86040518163ffffffff1660e01b815260040160206040518083038186803b158015610f4f57600080fd5b505afa925050508015610f7f575060408051601f3d908101601f19168201909252610f7c91810190611757565b60015b610f8b575060006108c8565b90506108c8565b6040517f54dea00a00000000000000000000000000000000000000000000000000000000815260009073ffffffffffffffffffffffffffffffffffffffff8416906354dea00a90610fe79085906004016118b1565b60206040518083038186803b158015610fff57600080fd5b505afa92505050801561102f575060408051601f3d908101601f1916820190925261102c91810190611757565b60015b61103b5750600061082f565b905061082f565b60008173ffffffffffffffffffffffffffffffffffffffff1663de82cd346040518163ffffffff1660e01b815260040160206040518083038186803b158015610f4f57600080fd5b60008173ffffffffffffffffffffffffffffffffffffffff1663876f303b6040518163ffffffff1660e01b815260040160206040518083038186803b158015610f4f57600080fd5b600082601f8301126110e2578081fd5b81356110f56110f0826118f9565b6118d2565b81815291506020808301908481018184028601820187101561111657600080fd5b60005b8481101561113e57813561112c81611919565b84529282019290820190600101611119565b505050505092915050565b600082601f830112611159578081fd5b81356111676110f0826118f9565b81815291506020808301908481018184028601820187101561118857600080fd5b60005b8481101561113e5781358452928201929082019060010161118b565b600082601f8301126111b7578081fd5b81356111c56110f0826118f9565b8181529150602080830190848101818402860182018710156111e657600080fd5b6000805b8581101561121257823560028110611200578283fd5b855293830193918301916001016111ea565b50505050505092915050565b600082601f83011261122e578081fd5b813561123c6110f0826118f9565b81815291506020808301908481018184028601820187101561125d57600080fd5b60005b8481101561113e5781356112738161193e565b84529282019290820190600101611260565b600082601f830112611295578081fd5b81516112a36110f0826118f9565b8181529150602080830190848101818402860182018710156112c457600080fd5b60005b8481101561113e578151845292820192908201906001016112c7565b8035801515811461082f57600080fd5b60008060408385031215611305578182fd5b825161131081611919565b60208401519092506113218161193e565b809150509250929050565b60006020828403121561133d578081fd5b813567ffffffffffffffff811115611353578182fd5b61135f848285016110d2565b949350505050565b60008060408385031215611379578182fd5b823567ffffffffffffffff80821115611390578384fd5b61139c868387016110d2565b935060208501359150808211156113b1578283fd5b506113be858286016111a7565b9150509250929050565b600080604083850312156113da578182fd5b823567ffffffffffffffff808211156113f1578384fd5b6113fd868387016110d2565b93506020850135915080821115611412578283fd5b506113be8582860161121e565b60008060408385031215611431578182fd5b823567ffffffffffffffff80821115611448578384fd5b61145486838701611149565b93506020850135915080821115611469578283fd5b506113be858286016110d2565b60008060408385031215611488578182fd5b823567ffffffffffffffff8082111561149f578384fd5b6114ab86838701611149565b935060208501359150808211156114c0578283fd5b81850191506101808083880312156114d6578384fd5b6114df816118d2565b90506114eb87846112e3565b81526114fa87602085016112e3565b602082015261150c87604085016112e3565b604082015261151e87606085016112e3565b606082015261153087608085016112e3565b60808201526115428760a085016112e3565b60a082015260c083013560c082015260e083013582811115611562578485fd5b61156e8882860161121e565b60e0830152506101008084013583811115611587578586fd5b611593898287016111a7565b82840152505061012080840135838111156115ac578586fd5b6115b889828701611149565b82840152505061014080840135838111156115d1578586fd5b6115dd89828701611149565b82840152505061016080840135838111156115f6578586fd5b61160289828701611149565b8284015250508093505050509250929050565b60008060408385031215611627578182fd5b823567ffffffffffffffff81111561163d578283fd5b61164985828601611149565b95602094909401359450505050565b60008060006060848603121561166c578081fd5b835167ffffffffffffffff80821115611683578283fd5b818601915086601f830112611696578283fd5b81516116a46110f0826118f9565b80828252602080830192508086018b8283870289010111156116c4578788fd5b8796505b848710156116ef5780516116db81611919565b8452600196909601959281019281016116c8565b508901519097509350505080821115611706578283fd5b5061171386828701611285565b925050604084015190509250925092565b600060208284031215611735578081fd5b815167ffffffffffffffff81111561174b578182fd5b61135f84828501611285565b600060208284031215611768578081fd5b5051919050565b6000815180845260208085019450848183028601828601855b858110156117b25783830389526117a08383516117bf565b98850198925090840190600101611788565b5090979650505050505050565b6000815180845260208085019450808401835b838110156117ee578151875295820195908201906001016117d2565b509495945050505050565b60006020825261180c602083018461176f565b9392505050565b600060c0825261182660c083018961176f565b828103602084015261183881896117bf565b9050828103604084015261184c81886117bf565b9050828103606084015261186081876117bf565b90508281036080840152611874818661176f565b905082810360a0840152611888818561176f565b9998505050505050505050565b60006020825261180c60208301846117bf565b90815260200190565b73ffffffffffffffffffffffffffffffffffffffff91909116815260200190565b60405181810167ffffffffffffffff811182821017156118f157600080fd5b604052919050565b600067ffffffffffffffff82111561190f578081fd5b5060209081020190565b73ffffffffffffffffffffffffffffffffffffffff8116811461193b57600080fd5b50565b6003811061193b57600080fdfea2646970667358221220742e0b74c3f9e3e53a596bc21e92ad64a4ef398e282fc3bb5bae9f5f9c5f3d1064736f6c63430007010033",
  "linkReferences": {},
  "deployedLinkReferences": {}
}