{
  "address": "0xF32dcd39F3f8be5c141df34f7b2A539eea9F9ff3",
  "abi": [
    {
      "inputs": [
        {
          "internalType": "contract IVault",
          "name": "_vault",
          "type": "address"
        }
      ],
      "stateMutability": "nonpayable",
      "type": "constructor"
    },
    {
      "inputs": [
        {
          "internalType": "bytes32",
          "name": "poolId",
          "type": "bytes32"
        },
        {
          "internalType": "address",
          "name": "sender",
          "type": "address"
        },
        {
          "internalType": "address",
          "name": "recipient",
          "type": "address"
        },
        {
          "components": [
            {
              "internalType": "contract IAsset[]",
              "name": "assets",
              "type": "address[]"
            },
            {
              "internalType": "uint256[]",
              "name": "minAmountsOut",
              "type": "uint256[]"
            },
            {
              "internalType": "bytes",
              "name": "userData",
              "type": "bytes"
            },
            {
              "internalType": "bool",
              "name": "toInternalBalance",
              "type": "bool"
            }
          ],
          "internalType": "struct IVault.ExitPoolRequest",
          "name": "request",
          "type": "tuple"
        }
      ],
      "name": "queryExit",
      "outputs": [
        {
          "internalType": "uint256",
          "name": "bptIn",
          "type": "uint256"
        },
        {
          "internalType": "uint256[]",
          "name": "amountsOut",
          "type": "uint256[]"
        }
      ],
      "stateMutability": "view",
      "type": "function"
    },
    {
      "inputs": [
        {
          "internalType": "bytes32",
          "name": "poolId",
          "type": "bytes32"
        },
        {
          "internalType": "address",
          "name": "sender",
          "type": "address"
        },
        {
          "internalType": "address",
          "name": "recipient",
          "type": "address"
        },
        {
          "components": [
            {
              "internalType": "contract IAsset[]",
              "name": "assets",
              "type": "address[]"
            },
            {
              "internalType": "uint256[]",
              "name": "maxAmountsIn",
              "type": "uint256[]"
            },
            {
              "internalType": "bytes",
              "name": "userData",
              "type": "bytes"
            },
            {
              "internalType": "bool",
              "name": "fromInternalBalance",
              "type": "bool"
            }
          ],
          "internalType": "struct IVault.JoinPoolRequest",
          "name": "request",
          "type": "tuple"
        }
      ],
      "name": "queryJoin",
      "outputs": [
        {
          "internalType": "uint256",
          "name": "bptOut",
          "type": "uint256"
        },
        {
          "internalType": "uint256[]",
          "name": "amountsIn",
          "type": "uint256[]"
        }
      ],
      "stateMutability": "view",
      "type": "function"
    },
    {
      "inputs": [],
      "name": "vault",
      "outputs": [
        {
          "internalType": "contract IVault",
          "name": "",
          "type": "address"
        }
      ],
      "stateMutability": "view",
      "type": "function"
    }
  ],
  "transactionHash": "0x21f6454b0b1351984f4dc86bda2ba8599ba90fe9264f16625d5ed4cceae78543",
  "args": [
    "0xba1222227c37746aDA22d10Da6265E02E44400DD"
  ],
  "solcInputHash": "74b30510f56cfc64a70ac36466ef55b0",
  "bytecode": "0x60c060405234801561001057600080fd5b5060405161100d38038061100d83398101604081905261002f916100bf565b806001600160a01b031663ad5c46486040518163ffffffff1660e01b815260040160206040518083038186803b15801561006857600080fd5b505afa15801561007c573d6000803e3d6000fd5b505050506040513d601f19601f820116820180604052508101906100a091906100bf565b6001600160601b0319606091821b811660805291901b1660a0526100fa565b6000602082840312156100d0578081fd5b81516100db816100e2565b9392505050565b6001600160a01b03811681146100f757600080fd5b50565b60805160601c60a05160601c610ed261013b6000398060a0528061016352806103545280610417528061051e52806105905250806108565250610ed26000f3fe608060405234801561001057600080fd5b50600436106100415760003560e01c80639ebbf05d14610046578063c7b2c52c14610070578063fbfa77cf14610083575b600080fd5b610059610054366004610c5b565b610098565b604051610067929190610e0f565b60405180910390f35b61005961007e366004610bf1565b61034c565b61008b61051c565b6040516100679190610dee565b6000606060007f000000000000000000000000000000000000000000000000000000000000000073ffffffffffffffffffffffffffffffffffffffff1663f6c00927886040518263ffffffff1660e01b81526004016100f79190610d2a565b604080518083038186803b15801561010e57600080fd5b505afa158015610122573d6000803e3d6000fd5b505050506040513d601f19601f820116820180604052508101906101469190610ae9565b5090506060600061015b898760000151610540565b9150915060007f000000000000000000000000000000000000000000000000000000000000000073ffffffffffffffffffffffffffffffffffffffff1663d2946c2b6040518163ffffffff1660e01b815260040160206040518083038186803b1580156101c757600080fd5b505afa1580156101db573d6000803e3d6000fd5b505050506040513d601f19601f820116820180604052508101906101ff9190610c70565b90508373ffffffffffffffffffffffffffffffffffffffff166387ec68178b8b8b87878773ffffffffffffffffffffffffffffffffffffffff1663d4cadf686040518163ffffffff1660e01b815260040160206040518083038186803b15801561026857600080fd5b505afa15801561027c573d6000803e3d6000fd5b505050506040513d601f19601f820116820180604052508101906102a09190610c93565b8e604001516040518863ffffffff1660e01b81526004016102c79796959493929190610d33565b600060405180830381600087803b1580156102e157600080fd5b505af11580156102f5573d6000803e3d6000fd5b505050506040513d6000823e601f3d9081017fffffffffffffffffffffffffffffffffffffffffffffffffffffffffffffffe016820160405261033b9190810190610cab565b909b909a5098505050505050505050565b6000606060007f000000000000000000000000000000000000000000000000000000000000000073ffffffffffffffffffffffffffffffffffffffff1663f6c00927886040518263ffffffff1660e01b81526004016103ab9190610d2a565b604080518083038186803b1580156103c257600080fd5b505afa1580156103d6573d6000803e3d6000fd5b505050506040513d601f19601f820116820180604052508101906103fa9190610ae9565b5090506060600061040f898760000151610540565b9150915060007f000000000000000000000000000000000000000000000000000000000000000073ffffffffffffffffffffffffffffffffffffffff1663d2946c2b6040518163ffffffff1660e01b815260040160206040518083038186803b15801561047b57600080fd5b505afa15801561048f573d6000803e3d6000fd5b505050506040513d601f19601f820116820180604052508101906104b39190610c70565b90508373ffffffffffffffffffffffffffffffffffffffff16636028bfd48b8b8b87878773ffffffffffffffffffffffffffffffffffffffff1663d4cadf686040518163ffffffff1660e01b815260040160206040518083038186803b15801561026857600080fd5b7f000000000000000000000000000000000000000000000000000000000000000081565b60606000606080610550856106d2565b6040517ff94d466800000000000000000000000000000000000000000000000000000000815290915073ffffffffffffffffffffffffffffffffffffffff7f0000000000000000000000000000000000000000000000000000000000000000169063f94d4668906105c5908990600401610d2a565b60006040518083038186803b1580156105dd57600080fd5b505afa1580156105f1573d6000803e3d6000fd5b505050506040513d6000823e601f3d9081017fffffffffffffffffffffffffffffffffffffffffffffffffffffffffffffffe01682016040526106379190810190610b25565b8251845192975090955091935061064e9190610780565b60005b82518110156106c857600083828151811061066857fe5b602002602001015190506106bf83838151811061068157fe5b602002602001015173ffffffffffffffffffffffffffffffffffffffff168273ffffffffffffffffffffffffffffffffffffffff161461026b610791565b50600101610651565b5050509250929050565b6060815167ffffffffffffffff811180156106ec57600080fd5b50604051908082528060200260200182016040528015610716578160200160208202803683370190505b50905060005b825181101561077a5761074183828151811061073457fe5b602002602001015161079f565b82828151811061074d57fe5b73ffffffffffffffffffffffffffffffffffffffff9092166020928302919091019091015260010161071c565b50919050565b61078d8183146067610791565b5050565b8161078d5761078d816107ca565b60006107aa82610837565b6107bc576107b782610851565b6107c4565b6107c4610854565b92915050565b7f08c379a0000000000000000000000000000000000000000000000000000000006000908152602060045260076024526642414c23000030600a808404818106603090810160081b95839006959095019082900491820690940160101b939093010160c81b604452606490fd5b73ffffffffffffffffffffffffffffffffffffffff161590565b90565b7f000000000000000000000000000000000000000000000000000000000000000090565b600082601f830112610888578081fd5b813561089b61089682610e57565b610e30565b8181529150602080830190848101818402860182018710156108bc57600080fd5b60005b848110156108e45781356108d281610e77565b845292820192908201906001016108bf565b505050505092915050565b600082601f8301126108ff578081fd5b813561090d61089682610e57565b81815291506020808301908481018184028601820187101561092e57600080fd5b60005b848110156108e457813584529282019290820190600101610931565b600082601f83011261095d578081fd5b815161096b61089682610e57565b81815291506020808301908481018184028601820187101561098c57600080fd5b60005b848110156108e45781518452928201929082019060010161098f565b803580151581146107c457600080fd5b600082601f8301126109cb578081fd5b813567ffffffffffffffff8111156109e1578182fd5b610a1260207fffffffffffffffffffffffffffffffffffffffffffffffffffffffffffffffe0601f84011601610e30565b9150808252836020828501011115610a2957600080fd5b8060208401602084013760009082016020015292915050565b600060808284031215610a53578081fd5b610a5d6080610e30565b9050813567ffffffffffffffff80821115610a7757600080fd5b610a8385838601610878565b83526020840135915080821115610a9957600080fd5b610aa5858386016108ef565b60208401526040840135915080821115610abe57600080fd5b50610acb848285016109bb565b604083015250610ade83606084016109ab565b606082015292915050565b60008060408385031215610afb578182fd5b8251610b0681610e77565b602084015190925060038110610b1a578182fd5b809150509250929050565b600080600060608486031215610b39578081fd5b835167ffffffffffffffff80821115610b50578283fd5b818601915086601f830112610b63578283fd5b8151610b7161089682610e57565b80828252602080830192508086018b828387028901011115610b91578788fd5b8796505b84871015610bbc578051610ba881610e77565b845260019690960195928101928101610b95565b508901519097509350505080821115610bd3578283fd5b50610be08682870161094d565b925050604084015190509250925092565b60008060008060808587031215610c06578081fd5b843593506020850135610c1881610e77565b92506040850135610c2881610e77565b9150606085013567ffffffffffffffff811115610c43578182fd5b610c4f87828801610a42565b91505092959194509250565b60008060008060808587031215610c06578384fd5b600060208284031215610c81578081fd5b8151610c8c81610e77565b9392505050565b600060208284031215610ca4578081fd5b5051919050565b60008060408385031215610cbd578182fd5b82519150602083015167ffffffffffffffff811115610cda578182fd5b610ce68582860161094d565b9150509250929050565b6000815180845260208085019450808401835b83811015610d1f57815187529582019590820190600101610d03565b509495945050505050565b90815260200190565b6000888252602073ffffffffffffffffffffffffffffffffffffffff808a168285015280891660408501525060e06060840152610d7360e0840188610cf0565b8660808501528560a085015283810360c08501528451808252835b81811015610da9578681018401518382018501528301610d8e565b81811115610db957848483850101525b50601f017fffffffffffffffffffffffffffffffffffffffffffffffffffffffffffffffe01601019998505050505050505050565b73ffffffffffffffffffffffffffffffffffffffff91909116815260200190565b600083825260406020830152610e286040830184610cf0565b949350505050565b60405181810167ffffffffffffffff81118282101715610e4f57600080fd5b604052919050565b600067ffffffffffffffff821115610e6d578081fd5b5060209081020190565b73ffffffffffffffffffffffffffffffffffffffff81168114610e9957600080fd5b5056fea2646970667358221220e30ea831c02243ca742fff3f863be3dd921ffc76df13a2d3ae4e44c1b347d35564736f6c63430007010033",
  "devdoc": {
    "details": "This contract simply builds on top of the Balancer V2 architecture to provide useful helpers to users. It connects different functionalities of the protocol components to allow accessing information that would have required a more cumbersome setup if we wanted to provide these already built-in.",
    "kind": "dev",
    "methods": {},
    "version": 1
  },
  "userdoc": {
    "kind": "user",
    "methods": {},
    "version": 1
  },
  "storageLayout": {
    "storage": [],
    "types": null
  }
}