{
  "address": "0x634B9F70a6C4f5b2281dD75Ca8c2C78051374267",
  "abi": [
    {
      "inputs": [],
      "stateMutability": "nonpayable",
      "type": "constructor"
    },
    {
      "anonymous": false,
      "inputs": [
        {
          "indexed": true,
          "internalType": "address",
          "name": "strategy",
          "type": "address"
        }
      ],
      "name": "StrategyCreated",
      "type": "event"
    },
    {
      "inputs": [
        {
          "internalType": "uint128",
          "name": "amp",
          "type": "uint128"
        },
        {
          "internalType": "uint256",
          "name": "swapFee",
          "type": "uint256"
        }
      ],
      "name": "create",
      "outputs": [
        {
          "internalType": "address",
          "name": "",
          "type": "address"
        }
      ],
      "stateMutability": "nonpayable",
      "type": "function"
    },
    {
      "inputs": [
        {
          "internalType": "uint256",
          "name": "start",
          "type": "uint256"
        },
        {
          "internalType": "uint256",
          "name": "end",
          "type": "uint256"
        }
      ],
      "name": "getStrategies",
      "outputs": [
        {
          "internalType": "address[]",
          "name": "",
          "type": "address[]"
        }
      ],
      "stateMutability": "view",
      "type": "function"
    },
    {
      "inputs": [],
      "name": "getTotalStrategies",
      "outputs": [
        {
          "internalType": "uint256",
          "name": "",
          "type": "uint256"
        }
      ],
      "stateMutability": "view",
      "type": "function"
    }
  ],
  "transactionHash": "0xcc4db64db37396a5bc6c5b296a3029a0fcc9e8f01a5234efd7e40e11fedff97e",
  "args": [],
  "solcInputHash": "504bf543ad5b721944fd65074dc0f29f",
  "bytecode": "0x608060405234801561001057600080fd5b506115d1806100206000396000f3fe608060405234801561001057600080fd5b50600436106100415760003560e01c806399fe739614610046578063ac893d9014610064578063c1d3c9af14610084575b600080fd5b61004e6100a4565b60405161005b91906106df565b60405180910390f35b6100776100723660046104bc565b6100b5565b60405161005b9190610573565b610097610092366004610486565b61018d565b60405161005b919061055f565b60006100b060006102a1565b905090565b60608282101580156100d257506100cc60006102a1565b83830311155b6100f75760405162461bcd60e51b81526004016100ee9061066a565b60405180910390fd5b60608383036001600160401b038111801561011157600080fd5b5060405190808252806020026020018201604052801561013b578160200160208202803683370190505b50905060005b81518110156101835761015760008287016102ac565b82828151811061016357fe5b6001600160a01b0390921660209283029190910190910152600101610141565b5090505b92915050565b60006060604051806020016101a190610479565b601f1982820381018352601f9091011660408190526101c690869086906020016106c6565b60408051601f19818403018152908290526101e4929160200161054a565b6040516020818303038152906040529050600061020b6000801b83805190602001206102bf565b905061021f816001600160a01b03166102cc565b1561022d5791506101879050565b600061023a818085610308565b9050816001600160a01b0316816001600160a01b03161461025757fe5b61026260008261037a565b506040516001600160a01b038216907fbe69a8909bf54ab6b33b6090045cf72cb4832fe592c189d7cb21504b38ec2d1590600090a29250610187915050565b60006101878261038f565b60006102b88383610393565b9392505050565b60006102b88383306103d8565b6000813f7fc5d2460186f7233c927e7db2dcc703c0e500b653ca82273b7bfad8045d85a47081811480159061030057508115155b949350505050565b6000808447101561032b5760405162461bcd60e51b81526004016100ee9061068f565b82516103495760405162461bcd60e51b81526004016100ee90610602565b8383516020850187f590506001600160a01b0381166103005760405162461bcd60e51b81526004016100ee90610637565b60006102b8836001600160a01b038416610417565b5490565b815460009082106103b65760405162461bcd60e51b81526004016100ee906105c0565b8260000182815481106103c557fe5b9060005260206000200154905092915050565b60008060ff60f81b8386866040516020016103f69493929190610516565b60408051808303601f19018152919052805160209091012095945050505050565b60006104238383610461565b61045957508154600181810184556000848152602080822090930184905584548482528286019093526040902091909155610187565b506000610187565b60009081526001919091016020526040902054151590565b610eb3806106e983390190565b60008060408385031215610498578182fd5b82356001600160801b03811681146104ae578283fd5b946020939093013593505050565b600080604083850312156104ce578182fd5b50508035926020909101359150565b60008151815b818110156104fd57602081850181015186830152016104e3565b8181111561050b5782828601525b509290920192915050565b6001600160f81b031994909416845260609290921b6001600160601b03191660018401526015830152603582015260550190565b600061030061055983866104dd565b846104dd565b6001600160a01b0391909116815260200190565b6020808252825182820181905260009190848201906040850190845b818110156105b45783516001600160a01b03168352928401929184019160010161058f565b50909695505050505050565b60208082526022908201527f456e756d657261626c655365743a20696e646578206f7574206f6620626f756e604082015261647360f01b606082015260800190565b6020808252818101527f437265617465323a2062797465636f6465206c656e677468206973207a65726f604082015260600190565b602080825260199082015278437265617465323a204661696c6564206f6e206465706c6f7960381b604082015260600190565b6020808252600b908201526a42616420696e646963657360a81b604082015260600190565b6020808252601d908201527f437265617465323a20696e73756666696369656e742062616c616e6365000000604082015260600190565b6001600160801b03929092168252602082015260400190565b9081526020019056fe60c060405234801561001057600080fd5b50604051610eb3380380610eb383398101604081905261002f9161007e565b61003d565b60405180910390fd5b67016345785d8a00008111156100655760405162461bcd60e51b8152600401610034906100b6565b60a0526001600160801b0319608091821b1690526100db565b60008060408385031215610090578182fd5b82516001600160801b03811681146100a6578283fd5b6020939093015192949293505050565b6020808252600b908201526a4552525f4d41585f46454560a81b604082015260600190565b60805160801c60a051610d9f6101146000398060ea528061022a528061029652508061015d528061019f52806101e35250610d9f6000f3fe608060405234801561001057600080fd5b50600436106100625760003560e01c8063100f37e71461006757806341c374031461009157806376c7a3c7146100a6578063bc063e1a146100bb578063befd70e0146100c3578063d4cadf68146100d6575b600080fd5b61007a610075366004610bb4565b6100de565b604051610088929190610d46565b60405180910390f35b61009961019d565b6040516100889190610d32565b6100ae6101c1565b6040516100889190610d60565b6100ae6101c6565b61007a6100d1366004610bb4565b6101d2565b6100ae610294565b6000808061012d6101287f000000000000000000000000000000000000000000000000000000000000000061011960608b0160408c01610c24565b6001600160801b0316906102b8565b61033c565b905060006101548261014560608b0160408c01610c24565b6001600160801b031690610365565b9050600061018e7f00000000000000000000000000000000000000000000000000000000000000006001600160801b03168989898661039e565b99929850919650505050505050565b7f000000000000000000000000000000000000000000000000000000000000000090565b600081565b67016345785d8a000081565b6000808061021b6001600160801b037f00000000000000000000000000000000000000000000000000000000000000001687878761021660608d0160408e01610c24565b6103fd565b9050600061026d61025d61024e7f000000000000000000000000000000000000000000000000000000000000000061033c565b670de0b6b3a764000090610365565b6001600160801b0384169061045b565b905060006102846001600160801b03831684610365565b9199919850909650505050505050565b7f000000000000000000000000000000000000000000000000000000000000000090565b60008282028315806102d25750828482816102cf57fe5b04145b6102f75760405162461bcd60e51b81526004016102ee90610cb7565b60405180910390fd5b6706f05b59d3b200008101818110156103225760405162461bcd60e51b81526004016102ee90610cb7565b6000670de0b6b3a7640000825b0493505050505b92915050565b6000600160801b82106103615760405162461bcd60e51b81526004016102ee90610c46565b5090565b60008060006103748585610547565b9150915080156103965760405162461bcd60e51b81526004016102ee90610d07565b509392505050565b60006103a8610abd565b6103b5878787878761057e565b90506000838786815181106103c657fe5b60200260200101510390506103db82826106cb565b8786815181106103e757fe5b6020026020010151039250505095945050505050565b6000610407610abd565b61041487878787876107e3565b905060008387878151811061042557fe5b602002602001015101905086868151811061043c57fe5b602002602001015161044e83836106cb565b0398975050505050505050565b60006001600160801b0382166104835760405162461bcd60e51b81526004016102ee90610ce1565b670de0b6b3a764000083026001600160801b03841615806104c95750670de0b6b3a76400006001600160801b03858116908316816104bd57fe5b046001600160801b0316145b6104e55760405162461bcd60e51b81526004016102ee90610c8d565b600060026001600160801b0385160482019050816001600160801b0316816001600160801b0316101561052a5760405162461bcd60e51b81526004016102ee90610c8d565b6000846001600160801b0316826001600160801b03168161032f57fe5b600080826001600160801b0316846001600160801b03161061056f5750508082036000610577565b505081810360015b9250929050565b610586610abd565b600061059287876108fb565b8651909150600090670de0b6b3a7640000906001835b828110156106965788811461068a578981141561062d57876001600160801b03168b82815181106105d557fe5b60200260200101516001600160801b03168601019450670de0b6b3a76400006001600160801b0316888c838151811061060a57fe5b6020026020010151016001600160801b031685028161062557fe5b05935061068a565b8a818151811061063957fe5b60200260200101516001600160801b031685019450670de0b6b3a76400006001600160801b03168b828151811061066c57fe5b60200260200101516001600160801b031685028161068657fe5b0593505b908202906001016105a8565b506040805160a0810182528c815260208101969096528501939093525060608301919091526080820152905095945050505050565b60208201518251606084015160009283928392670de0b6b3a7640000816106ee57fe5b05030285604001518660000151020190506000856080015186606001518760600151020286602001518760200151886020015102028161072a57fe5b05905060005b60ff8112156107d8578651670de0b6b3a764000083026001600160801b038816918202808302928602929092010390600202840180828161076d57fe5b056001600160801b03808a169182039750871611156107aa57655af3107a40008887036001600160801b0316136107a55750506107d8565b6107c9565b655af3107a40008887036001600160801b0316136107c95750506107d8565b50939550859350600101610730565b509195945050505050565b6107eb610abd565b60006107f787876108fb565b8651909150600090670de0b6b3a7640000906001835b82811015610696578981146108ef578881141561089257876001600160801b03168b828151811061083a57fe5b60200260200101516001600160801b03168601039450670de0b6b3a76400006001600160801b0316888c838151811061086f57fe5b6020026020010151036001600160801b031685028161088a57fe5b0593506108ef565b8a818151811061089e57fe5b60200260200101516001600160801b031685019450670de0b6b3a76400006001600160801b03168b82815181106108d157fe5b60200260200101516001600160801b03168502816108eb57fe5b0593505b9082029060010161080d565b80516000908190670de0b6b3a7640000906001835b828110156109805786818151811061092457fe5b60200260200101516001600160801b031685019450670de0b6b3a76400006001600160801b031687828151811061095757fe5b60200260200101516001600160801b031685028161097157fe5b05935090820290600101610910565b508360008083670de0b6b3a76400008161099657fe5b058a039050838002860260005b60ff811215610aad576000670de0b6b3a76400008d8b028785818002816109c657fe5b05028887020103816109d457fe5b0590506000670de0b6b3a76400008785818302816109ee57fe5b0560030202670de0b6b3a76400006001600160801b031687020181610a0f57fe5b05905083670de0b6b3a7640000880281610a2557fe5b828002600202919005830260060201671bc16d674ec800008284020281610a4857fe5b058703955086861315610a7c57655af3107a400087870313610a7757859b505050505050505050505050610336565b610a9e565b655af3107a400086880313610a9e57859b505050505050505050505050610336565b509394508493506001016109a3565b50919a9950505050505050505050565b6040518060a0016040528060008152602001600081526020016000815260200160008152602001600081525090565b600082601f830112610afc578081fd5b81356001600160401b0380821115610b12578283fd5b602080830260405182828201018181108582111715610b2f578687fd5b604052848152945081850192508582018187018301881015610b5057600080fd5b600091505b84821015610b7b57610b678882610b9d565b845292820192600191909101908201610b55565b505050505092915050565b600060e08284031215610b97578081fd5b50919050565b80356001600160801b038116811461033657600080fd5b60008060008060808587031215610bc9578384fd5b84356001600160401b0380821115610bdf578586fd5b610beb88838901610b86565b95506020870135915080821115610c00578485fd5b50610c0d87828801610aec565b949794965050505060408301359260600135919050565b600060208284031215610c35578081fd5b610c3f8383610b9d565b9392505050565b60208082526027908201527f53616665436173743a2076616c756520646f65736e27742066697420696e20316040820152663238206269747360c81b606082015260800190565b60208082526010908201526f11549497d1125597d25395115493905360821b604082015260600190565b60208082526010908201526f4552525f4d554c5f4f564552464c4f5760801b604082015260600190565b6020808252600c908201526b4552525f4449565f5a45524f60a01b604082015260600190565b6020808252601190820152704552525f5355425f554e444552464c4f5760781b604082015260600190565b6001600160801b0391909116815260200190565b6001600160801b0392831681529116602082015260400190565b9081526020019056fea2646970667358221220d3449cf7a4503a4202682e60b2fc0b06354054fed71541890fb9a191a029c3b764736f6c63430007010033a2646970667358221220ee6d96f08811280f5067b7524735820a596338439f5bdd152de9797a1744da2264736f6c63430007010033",
  "devdoc": {
    "kind": "dev",
    "methods": {},
    "version": 1
  },
  "userdoc": {
    "kind": "user",
    "methods": {},
    "version": 1
  },
  "storageLayout": {
    "storage": [
      {
        "astId": 6466,
        "contract": "contracts/strategies/factories/FlattenedFactory.sol:FlattenedFactory",
        "label": "_flattenedStrategies",
        "offset": 0,
        "slot": "0",
        "type": "t_struct(AddressSet)12542_storage"
      }
    ],
    "types": {
      "t_array(t_bytes32)dyn_storage": {
        "base": "t_bytes32",
        "encoding": "dynamic_array",
        "label": "bytes32[]",
        "numberOfBytes": "32"
      },
      "t_bytes32": {
        "encoding": "inplace",
        "label": "bytes32",
        "numberOfBytes": "32"
      },
      "t_mapping(t_bytes32,t_uint256)": {
        "encoding": "mapping",
        "key": "t_bytes32",
        "label": "mapping(bytes32 => uint256)",
        "numberOfBytes": "32",
        "value": "t_uint256"
      },
      "t_struct(AddressSet)12542_storage": {
        "encoding": "inplace",
        "label": "struct EnumerableSet.AddressSet",
        "members": [
          {
            "astId": 12541,
            "contract": "contracts/strategies/factories/FlattenedFactory.sol:FlattenedFactory",
            "label": "_inner",
            "offset": 0,
            "slot": "0",
            "type": "t_struct(Set)12277_storage"
          }
        ],
        "numberOfBytes": "64"
      },
      "t_struct(Set)12277_storage": {
        "encoding": "inplace",
        "label": "struct EnumerableSet.Set",
        "members": [
          {
            "astId": 12272,
            "contract": "contracts/strategies/factories/FlattenedFactory.sol:FlattenedFactory",
            "label": "_values",
            "offset": 0,
            "slot": "0",
            "type": "t_array(t_bytes32)dyn_storage"
          },
          {
            "astId": 12276,
            "contract": "contracts/strategies/factories/FlattenedFactory.sol:FlattenedFactory",
            "label": "_indexes",
            "offset": 0,
            "slot": "1",
            "type": "t_mapping(t_bytes32,t_uint256)"
          }
        ],
        "numberOfBytes": "64"
      },
      "t_uint256": {
        "encoding": "inplace",
        "label": "uint256",
        "numberOfBytes": "32"
      }
    }
  }
}