{
  "address": "0xFCd30272C0d1555e7721c5B8dbdf7AeEBB80Edb8",
  "abi": [
    {
      "inputs": [
        {
          "internalType": "contract IVault",
          "name": "vault",
          "type": "address"
        }
      ],
      "stateMutability": "nonpayable",
      "type": "constructor"
    },
    {
      "inputs": [
        {
          "components": [
            {
              "internalType": "contract IERC20",
              "name": "overallTokenIn",
              "type": "address"
            },
            {
              "internalType": "contract IERC20",
              "name": "overallTokenOut",
              "type": "address"
            },
            {
              "internalType": "uint128",
              "name": "maxAmountIn",
              "type": "uint128"
            },
            {
              "internalType": "uint128",
              "name": "minAmountOut",
              "type": "uint128"
            }
          ],
          "internalType": "struct ITradeScript.OverallInfoIn",
          "name": "info",
          "type": "tuple"
        },
        {
          "components": [
            {
              "internalType": "bytes32",
              "name": "poolId",
              "type": "bytes32"
            },
            {
              "internalType": "uint128",
              "name": "tokenInIndex",
              "type": "uint128"
            },
            {
              "internalType": "uint128",
              "name": "tokenOutIndex",
              "type": "uint128"
            },
            {
              "internalType": "uint128",
              "name": "amountIn",
              "type": "uint128"
            },
            {
              "internalType": "bytes",
              "name": "userData",
              "type": "bytes"
            }
          ],
          "internalType": "struct IVault.SwapIn[]",
          "name": "swaps",
          "type": "tuple[]"
        },
        {
          "internalType": "contract IERC20[]",
          "name": "tokens",
          "type": "address[]"
        },
        {
          "internalType": "bool",
          "name": "withdrawTokens",
          "type": "bool"
        }
      ],
      "name": "swapExactAmountIn",
      "outputs": [],
      "stateMutability": "nonpayable",
      "type": "function"
    }
  ],
  "transactionHash": "0xd63bd389d8b352b271d4222b4d85a83b9104eedc65dfeb452b649f9c176623e1",
  "args": [
    "0x001b6571f9CB4143b448918a9BFEaA52c6E438C3"
  ],
  "solcInputHash": "3e804a6ebb2a0687601f7f7a7d02e133",
  "bytecode": "0x60a060405234801561001057600080fd5b5060405161094038038061094083398101604081905261002f91610044565b60601b6001600160601b031916608052610072565b600060208284031215610055578081fd5b81516001600160a01b038116811461006b578182fd5b9392505050565b60805160601c6108b261008e60003980607f52506108b26000f3fe608060405234801561001057600080fd5b506004361061002b5760003560e01c8063fc1ed39c14610030575b600080fd5b61004361003e366004610513565b610045565b005b604080516080810182523380825260208201526000818301528215606082810191909152915163d4782a5160e01b81526001600160a01b037f0000000000000000000000000000000000000000000000000000000000000000169163d4782a51916100b79188918891906004016106b9565b600060405180830381600087803b1580156100d157600080fd5b505af11580156100e5573d6000803e3d6000fd5b505050506040513d6000823e601f3d908101601f1916820160405261010d9190810190610484565b905060005b835181101561024e5785600001516001600160a01b031684828151811061013557fe5b60200260200101516001600160a01b0316141561019a5785604001516001600160801b031682828151811061016657fe5b602002602001015113156101955760405162461bcd60e51b815260040161018c906107bb565b60405180910390fd5b610246565b85602001516001600160a01b03168482815181106101b457fe5b60200260200101516001600160a01b031614156102135785606001516001600160801b03166101f58383815181106101e857fe5b6020026020010151610256565b10156101955760405162461bcd60e51b815260040161018c9061078c565b81818151811061021f57fe5b60200260200101516000146102465760405162461bcd60e51b815260040161018c906107e8565b600101610112565b505050505050565b60008082131561026757508061026e565b8160000390505b919050565b600082601f830112610283578081fd5b813561029661029182610845565b61081f565b8181529150602080830190848101818402860182018710156102b757600080fd5b6000805b858110156102eb5782356001600160a01b03811681146102d9578283fd5b855293830193918301916001016102bb565b50505050505092915050565b600082601f830112610307578081fd5b813561031561029182610845565b818152915060208083019084810160005b848110156103cd578135870160a080601f19838c0301121561034757600080fd5b6103508161081f565b85830135815260406103648c82860161046d565b8783015260606103768d82870161046d565b828401526080915061038a8d83870161046d565b9083015291830135916001600160401b038311156103a757600080fd5b6103b58c88858701016103ee565b90820152865250509282019290820190600101610326565b505050505092915050565b803580151581146103e857600080fd5b92915050565b600082601f8301126103fe578081fd5b81356001600160401b03811115610413578182fd5b610426601f8201601f191660200161081f565b915080825283602082850101111561043d57600080fd5b8060208401602084013760009082016020015292915050565b80356001600160a01b03811681146103e857600080fd5b80356001600160801b03811681146103e857600080fd5b60006020808385031215610496578182fd5b82516001600160401b038111156104ab578283fd5b8301601f810185136104bb578283fd5b80516104c961029182610845565b81815283810190838501858402850186018910156104e5578687fd5b8694505b838510156105075780518352600194909401939185019185016104e9565b50979650505050505050565b60008060008084860360e0811215610529578384fd5b6080811215610536578384fd5b50610541608061081f565b61054b8787610456565b815261055a8760208801610456565b6020820152604086013561056d81610864565b6040820152606086013561058081610864565b6060820152935060808501356001600160401b03808211156105a0578485fd5b6105ac888389016102f7565b945060a08701359150808211156105c1578384fd5b506105ce87828801610273565b9250506105de8660c087016103d8565b905092959194509250565b6000815180845260208085019450808401835b838110156106215781516001600160a01b0316875295820195908201906001016105fc565b509495945050505050565b60008151808452815b8181101561065157602081850181015186830182015201610635565b818111156106625782602083870101525b50601f01601f19169290920160200192915050565b80516001600160a01b039081168352602080830151909116908301526040808201511515908301526060908101511515910152565b6001600160801b03169052565b600060c0820160c0835280865180835260e0850191506020925060e0838202860101838901855b8381101561075e5760df19888403018552815160a08151855287820151610709898701826106ac565b5060408083015161071c828801826106ac565b5050606080830151610730828801826106ac565b505060809182015191850181905261074a8582018361062c565b9688019694505050908501906001016106e0565b50508581038487015261077181896105e9565b9450505050506107846040830184610677565b949350505050565b602080825260159082015274139bdd08195b9bdd59da081d1bdad95b9cc81bdd5d605a1b604082015260600190565b60208082526013908201527222bc31b2b9b9b4bb329030b6b7bab73a1034b760691b604082015260600190565b6020808252601d908201527f496e7465726d656469617465206e6f6e2d7a65726f2062616c616e6365000000604082015260600190565b6040518181016001600160401b038111828210171561083d57600080fd5b604052919050565b60006001600160401b0382111561085a578081fd5b5060209081020190565b6001600160801b038116811461087957600080fd5b5056fea2646970667358221220af09f80aac4eff5d924d58026d251dbb1d59b3005676e46d6da2932ac54a6b7164736f6c63430007010033",
  "devdoc": {
    "kind": "dev",
    "methods": {},
    "version": 1
  },
  "userdoc": {
    "kind": "user",
    "methods": {},
    "version": 1
  },
  "storageLayout": {
    "storage": [],
    "types": null
  }
}