{
  "address": "0xba1222227c37746aDA22d10Da6265E02E44400DD",
  "abi": [
    {
      "inputs": [
        {
          "internalType": "contract IAuthorizer",
          "name": "authorizer",
          "type": "address"
        },
        {
          "internalType": "contract IWETH",
          "name": "weth",
          "type": "address"
        },
        {
          "internalType": "uint256",
          "name": "emergencyPeriod",
          "type": "uint256"
        },
        {
          "internalType": "uint256",
          "name": "emergencyPeriodCheckExtension",
          "type": "uint256"
        }
      ],
      "stateMutability": "nonpayable",
      "type": "constructor"
    },
    {
      "anonymous": false,
      "inputs": [
        {
          "indexed": false,
          "internalType": "bool",
          "name": "active",
          "type": "bool"
        }
      ],
      "name": "EmergencyPeriodChanged",
      "type": "event"
    },
    {
      "anonymous": false,
      "inputs": [
        {
          "indexed": true,
          "internalType": "contract IERC20",
          "name": "token",
          "type": "address"
        },
        {
          "indexed": true,
          "internalType": "address",
          "name": "sender",
          "type": "address"
        },
        {
          "indexed": false,
          "internalType": "address",
          "name": "recipient",
          "type": "address"
        },
        {
          "indexed": false,
          "internalType": "uint256",
          "name": "amount",
          "type": "uint256"
        }
      ],
      "name": "ExternalBalanceTransfer",
      "type": "event"
    },
    {
      "anonymous": false,
      "inputs": [
        {
          "indexed": true,
          "internalType": "address",
          "name": "user",
          "type": "address"
        },
        {
          "indexed": true,
          "internalType": "contract IERC20",
          "name": "token",
          "type": "address"
        },
        {
          "indexed": false,
          "internalType": "int256",
          "name": "delta",
          "type": "int256"
        }
      ],
      "name": "InternalBalanceChanged",
      "type": "event"
    },
    {
      "anonymous": false,
      "inputs": [
        {
          "indexed": true,
          "internalType": "bytes32",
          "name": "poolId",
          "type": "bytes32"
        },
        {
          "indexed": true,
          "internalType": "address",
          "name": "liquidityProvider",
          "type": "address"
        },
        {
          "indexed": false,
          "internalType": "contract IERC20[]",
          "name": "tokens",
          "type": "address[]"
        },
        {
          "indexed": false,
          "internalType": "int256[]",
          "name": "amounts",
          "type": "int256[]"
        },
        {
          "indexed": false,
          "internalType": "uint256[]",
          "name": "protocolFees",
          "type": "uint256[]"
        }
      ],
      "name": "PoolBalanceChanged",
      "type": "event"
    },
    {
      "anonymous": false,
      "inputs": [
        {
          "indexed": true,
          "internalType": "bytes32",
          "name": "poolId",
          "type": "bytes32"
        },
        {
          "indexed": true,
          "internalType": "address",
          "name": "assetManager",
          "type": "address"
        },
        {
          "indexed": true,
          "internalType": "contract IERC20",
          "name": "token",
          "type": "address"
        },
        {
          "indexed": false,
          "internalType": "int256",
          "name": "amount",
          "type": "int256"
        }
      ],
      "name": "PoolBalanceManaged",
      "type": "event"
    },
    {
      "anonymous": false,
      "inputs": [
        {
          "indexed": false,
          "internalType": "bytes32",
          "name": "poolId",
          "type": "bytes32"
        }
      ],
      "name": "PoolRegistered",
      "type": "event"
    },
    {
      "anonymous": false,
      "inputs": [
        {
          "indexed": true,
          "internalType": "bytes32",
          "name": "poolId",
          "type": "bytes32"
        },
        {
          "indexed": true,
          "internalType": "contract IERC20",
          "name": "tokenIn",
          "type": "address"
        },
        {
          "indexed": true,
          "internalType": "contract IERC20",
          "name": "tokenOut",
          "type": "address"
        },
        {
          "indexed": false,
          "internalType": "uint256",
          "name": "tokensIn",
          "type": "uint256"
        },
        {
          "indexed": false,
          "internalType": "uint256",
          "name": "tokensOut",
          "type": "uint256"
        }
      ],
      "name": "Swap",
      "type": "event"
    },
    {
      "anonymous": false,
      "inputs": [
        {
          "indexed": false,
          "internalType": "bytes32",
          "name": "poolId",
          "type": "bytes32"
        },
        {
          "indexed": false,
          "internalType": "contract IERC20[]",
          "name": "tokens",
          "type": "address[]"
        }
      ],
      "name": "TokensDeregistered",
      "type": "event"
    },
    {
      "anonymous": false,
      "inputs": [
        {
          "indexed": false,
          "internalType": "bytes32",
          "name": "poolId",
          "type": "bytes32"
        },
        {
          "indexed": false,
          "internalType": "contract IERC20[]",
          "name": "tokens",
          "type": "address[]"
        },
        {
          "indexed": false,
          "internalType": "address[]",
          "name": "assetManagers",
          "type": "address[]"
        }
      ],
      "name": "TokensRegistered",
      "type": "event"
    },
    {
      "inputs": [],
      "name": "WETH",
      "outputs": [
        {
          "internalType": "contract IWETH",
          "name": "",
          "type": "address"
        }
      ],
      "stateMutability": "view",
      "type": "function"
    },
    {
      "inputs": [
        {
          "internalType": "enum IVault.SwapKind",
          "name": "kind",
          "type": "uint8"
        },
        {
          "components": [
            {
              "internalType": "bytes32",
              "name": "poolId",
              "type": "bytes32"
            },
            {
              "internalType": "uint256",
              "name": "assetInIndex",
              "type": "uint256"
            },
            {
              "internalType": "uint256",
              "name": "assetOutIndex",
              "type": "uint256"
            },
            {
              "internalType": "uint256",
              "name": "amount",
              "type": "uint256"
            },
            {
              "internalType": "bytes",
              "name": "userData",
              "type": "bytes"
            }
          ],
          "internalType": "struct IVault.BatchSwapStep[]",
          "name": "swaps",
          "type": "tuple[]"
        },
        {
          "internalType": "contract IAsset[]",
          "name": "assets",
          "type": "address[]"
        },
        {
          "components": [
            {
              "internalType": "address",
              "name": "sender",
              "type": "address"
            },
            {
              "internalType": "bool",
              "name": "fromInternalBalance",
              "type": "bool"
            },
            {
              "internalType": "address payable",
              "name": "recipient",
              "type": "address"
            },
            {
              "internalType": "bool",
              "name": "toInternalBalance",
              "type": "bool"
            }
          ],
          "internalType": "struct IVault.FundManagement",
          "name": "funds",
          "type": "tuple"
        },
        {
          "internalType": "int256[]",
          "name": "limits",
          "type": "int256[]"
        },
        {
          "internalType": "uint256",
          "name": "deadline",
          "type": "uint256"
        }
      ],
      "name": "batchSwap",
      "outputs": [
        {
          "internalType": "int256[]",
          "name": "assetDeltas",
          "type": "int256[]"
        }
      ],
      "stateMutability": "payable",
      "type": "function"
    },
    {
      "inputs": [
        {
          "internalType": "contract IAuthorizer",
          "name": "newAuthorizer",
          "type": "address"
        }
      ],
      "name": "changeAuthorizer",
      "outputs": [],
      "stateMutability": "nonpayable",
      "type": "function"
    },
    {
      "inputs": [
        {
          "internalType": "address",
          "name": "sender",
          "type": "address"
        },
        {
          "internalType": "address",
          "name": "relayer",
          "type": "address"
        },
        {
          "internalType": "bool",
          "name": "allowed",
          "type": "bool"
        }
      ],
      "name": "changeRelayerAllowance",
      "outputs": [],
      "stateMutability": "nonpayable",
      "type": "function"
    },
    {
      "inputs": [
        {
          "internalType": "bytes32",
          "name": "poolId",
          "type": "bytes32"
        },
        {
          "internalType": "contract IERC20[]",
          "name": "tokens",
          "type": "address[]"
        }
      ],
      "name": "deregisterTokens",
      "outputs": [],
      "stateMutability": "nonpayable",
      "type": "function"
    },
    {
      "inputs": [
        {
          "internalType": "bytes32",
          "name": "poolId",
          "type": "bytes32"
        },
        {
          "internalType": "address",
          "name": "sender",
          "type": "address"
        },
        {
          "internalType": "address payable",
          "name": "recipient",
          "type": "address"
        },
        {
          "components": [
            {
              "internalType": "contract IAsset[]",
              "name": "assets",
              "type": "address[]"
            },
            {
              "internalType": "uint256[]",
              "name": "minAmountsOut",
              "type": "uint256[]"
            },
            {
              "internalType": "bytes",
              "name": "userData",
              "type": "bytes"
            },
            {
              "internalType": "bool",
              "name": "toInternalBalance",
              "type": "bool"
            }
          ],
          "internalType": "struct IVault.ExitPoolRequest",
          "name": "request",
          "type": "tuple"
        }
      ],
      "name": "exitPool",
      "outputs": [],
      "stateMutability": "nonpayable",
      "type": "function"
    },
    {
      "inputs": [
        {
          "internalType": "contract IFlashLoanReceiver",
          "name": "receiver",
          "type": "address"
        },
        {
          "internalType": "contract IERC20[]",
          "name": "tokens",
          "type": "address[]"
        },
        {
          "internalType": "uint256[]",
          "name": "amounts",
          "type": "uint256[]"
        },
        {
          "internalType": "bytes",
          "name": "receiverData",
          "type": "bytes"
        }
      ],
      "name": "flashLoan",
      "outputs": [],
      "stateMutability": "nonpayable",
      "type": "function"
    },
    {
      "inputs": [],
      "name": "getAuthorizer",
      "outputs": [
        {
          "internalType": "contract IAuthorizer",
          "name": "",
          "type": "address"
        }
      ],
      "stateMutability": "view",
      "type": "function"
    },
    {
      "inputs": [],
      "name": "getDomainSeparator",
      "outputs": [
        {
          "internalType": "bytes32",
          "name": "",
          "type": "bytes32"
        }
      ],
      "stateMutability": "view",
      "type": "function"
    },
    {
      "inputs": [],
      "name": "getEmergencyPeriod",
      "outputs": [
        {
          "internalType": "bool",
          "name": "active",
          "type": "bool"
        },
        {
          "internalType": "uint256",
          "name": "endDate",
          "type": "uint256"
        },
        {
          "internalType": "uint256",
          "name": "checkEndDate",
          "type": "uint256"
        }
      ],
      "stateMutability": "view",
      "type": "function"
    },
    {
      "inputs": [
        {
          "internalType": "address",
          "name": "user",
          "type": "address"
        },
        {
          "internalType": "contract IERC20[]",
          "name": "tokens",
          "type": "address[]"
        }
      ],
      "name": "getInternalBalance",
      "outputs": [
        {
          "internalType": "uint256[]",
          "name": "balances",
          "type": "uint256[]"
        }
      ],
      "stateMutability": "view",
      "type": "function"
    },
    {
      "inputs": [
        {
          "internalType": "address",
          "name": "user",
          "type": "address"
        }
      ],
      "name": "getNextNonce",
      "outputs": [
        {
          "internalType": "uint256",
          "name": "",
          "type": "uint256"
        }
      ],
      "stateMutability": "view",
      "type": "function"
    },
    {
      "inputs": [
        {
          "internalType": "bytes32",
          "name": "poolId",
          "type": "bytes32"
        }
      ],
      "name": "getPool",
      "outputs": [
        {
          "internalType": "address",
          "name": "",
          "type": "address"
        },
        {
          "internalType": "enum IVault.PoolSpecialization",
          "name": "",
          "type": "uint8"
        }
      ],
      "stateMutability": "view",
      "type": "function"
    },
    {
      "inputs": [
        {
          "internalType": "bytes32",
          "name": "poolId",
          "type": "bytes32"
        },
        {
          "internalType": "contract IERC20",
          "name": "token",
          "type": "address"
        }
      ],
      "name": "getPoolTokenInfo",
      "outputs": [
        {
          "internalType": "uint256",
          "name": "cash",
          "type": "uint256"
        },
        {
          "internalType": "uint256",
          "name": "managed",
          "type": "uint256"
        },
        {
          "internalType": "uint256",
          "name": "blockNumber",
          "type": "uint256"
        },
        {
          "internalType": "address",
          "name": "assetManager",
          "type": "address"
        }
      ],
      "stateMutability": "view",
      "type": "function"
    },
    {
      "inputs": [
        {
          "internalType": "bytes32",
          "name": "poolId",
          "type": "bytes32"
        }
      ],
      "name": "getPoolTokens",
      "outputs": [
        {
          "internalType": "contract IERC20[]",
          "name": "tokens",
          "type": "address[]"
        },
        {
          "internalType": "uint256[]",
          "name": "balances",
          "type": "uint256[]"
        },
        {
          "internalType": "uint256",
          "name": "maxBlockNumber",
          "type": "uint256"
        }
      ],
      "stateMutability": "view",
      "type": "function"
    },
    {
      "inputs": [],
      "name": "getProtocolFeesCollector",
      "outputs": [
        {
          "internalType": "contract ProtocolFeesCollector",
          "name": "",
          "type": "address"
        }
      ],
      "stateMutability": "view",
      "type": "function"
    },
    {
      "inputs": [
        {
          "internalType": "address",
          "name": "user",
          "type": "address"
        },
        {
          "internalType": "address",
          "name": "relayer",
          "type": "address"
        }
      ],
      "name": "hasAllowedRelayer",
      "outputs": [
        {
          "internalType": "bool",
          "name": "",
          "type": "bool"
        }
      ],
      "stateMutability": "view",
      "type": "function"
    },
    {
      "inputs": [
        {
          "internalType": "bytes32",
          "name": "poolId",
          "type": "bytes32"
        },
        {
          "internalType": "address",
          "name": "sender",
          "type": "address"
        },
        {
          "internalType": "address",
          "name": "recipient",
          "type": "address"
        },
        {
          "components": [
            {
              "internalType": "contract IAsset[]",
              "name": "assets",
              "type": "address[]"
            },
            {
              "internalType": "uint256[]",
              "name": "maxAmountsIn",
              "type": "uint256[]"
            },
            {
              "internalType": "bytes",
              "name": "userData",
              "type": "bytes"
            },
            {
              "internalType": "bool",
              "name": "fromInternalBalance",
              "type": "bool"
            }
          ],
          "internalType": "struct IVault.JoinPoolRequest",
          "name": "request",
          "type": "tuple"
        }
      ],
      "name": "joinPool",
      "outputs": [],
      "stateMutability": "payable",
      "type": "function"
    },
    {
      "inputs": [
        {
          "internalType": "bytes32",
          "name": "poolId",
          "type": "bytes32"
        },
        {
          "internalType": "enum IVault.AssetManagerOpKind",
          "name": "kind",
          "type": "uint8"
        },
        {
          "components": [
            {
              "internalType": "contract IERC20",
              "name": "token",
              "type": "address"
            },
            {
              "internalType": "uint256",
              "name": "amount",
              "type": "uint256"
            }
          ],
          "internalType": "struct IVault.AssetManagerTransfer[]",
          "name": "transfers",
          "type": "tuple[]"
        }
      ],
      "name": "managePoolBalance",
      "outputs": [],
      "stateMutability": "nonpayable",
      "type": "function"
    },
    {
      "inputs": [
        {
          "components": [
            {
              "internalType": "enum IVault.UserBalanceOpKind",
              "name": "kind",
              "type": "uint8"
            },
            {
              "internalType": "contract IAsset",
              "name": "asset",
              "type": "address"
            },
            {
              "internalType": "uint256",
              "name": "amount",
              "type": "uint256"
            },
            {
              "internalType": "address",
              "name": "sender",
              "type": "address"
            },
            {
              "internalType": "address payable",
              "name": "recipient",
              "type": "address"
            }
          ],
          "internalType": "struct IVault.UserBalanceOp[]",
          "name": "ops",
          "type": "tuple[]"
        }
      ],
      "name": "manageUserBalance",
      "outputs": [],
      "stateMutability": "payable",
      "type": "function"
    },
    {
      "inputs": [
        {
          "internalType": "enum IVault.SwapKind",
          "name": "kind",
          "type": "uint8"
        },
        {
          "components": [
            {
              "internalType": "bytes32",
              "name": "poolId",
              "type": "bytes32"
            },
            {
              "internalType": "uint256",
              "name": "assetInIndex",
              "type": "uint256"
            },
            {
              "internalType": "uint256",
              "name": "assetOutIndex",
              "type": "uint256"
            },
            {
              "internalType": "uint256",
              "name": "amount",
              "type": "uint256"
            },
            {
              "internalType": "bytes",
              "name": "userData",
              "type": "bytes"
            }
          ],
          "internalType": "struct IVault.BatchSwapStep[]",
          "name": "swaps",
          "type": "tuple[]"
        },
        {
          "internalType": "contract IAsset[]",
          "name": "assets",
          "type": "address[]"
        },
        {
          "components": [
            {
              "internalType": "address",
              "name": "sender",
              "type": "address"
            },
            {
              "internalType": "bool",
              "name": "fromInternalBalance",
              "type": "bool"
            },
            {
              "internalType": "address payable",
              "name": "recipient",
              "type": "address"
            },
            {
              "internalType": "bool",
              "name": "toInternalBalance",
              "type": "bool"
            }
          ],
          "internalType": "struct IVault.FundManagement",
          "name": "funds",
          "type": "tuple"
        }
      ],
      "name": "queryBatchSwap",
      "outputs": [
        {
          "internalType": "int256[]",
          "name": "",
          "type": "int256[]"
        }
      ],
      "stateMutability": "view",
      "type": "function"
    },
    {
      "inputs": [
        {
          "internalType": "enum IVault.PoolSpecialization",
          "name": "specialization",
          "type": "uint8"
        }
      ],
      "name": "registerPool",
      "outputs": [
        {
          "internalType": "bytes32",
          "name": "",
          "type": "bytes32"
        }
      ],
      "stateMutability": "nonpayable",
      "type": "function"
    },
    {
      "inputs": [
        {
          "internalType": "bytes32",
          "name": "poolId",
          "type": "bytes32"
        },
        {
          "internalType": "contract IERC20[]",
          "name": "tokens",
          "type": "address[]"
        },
        {
          "internalType": "address[]",
          "name": "assetManagers",
          "type": "address[]"
        }
      ],
      "name": "registerTokens",
      "outputs": [],
      "stateMutability": "nonpayable",
      "type": "function"
    },
    {
      "inputs": [
        {
          "internalType": "bool",
          "name": "active",
          "type": "bool"
        }
      ],
      "name": "setEmergencyPeriod",
      "outputs": [],
      "stateMutability": "nonpayable",
      "type": "function"
    },
    {
      "inputs": [
        {
          "components": [
            {
              "internalType": "bytes32",
              "name": "poolId",
              "type": "bytes32"
            },
            {
              "internalType": "enum IVault.SwapKind",
              "name": "kind",
              "type": "uint8"
            },
            {
              "internalType": "contract IAsset",
              "name": "assetIn",
              "type": "address"
            },
            {
              "internalType": "contract IAsset",
              "name": "assetOut",
              "type": "address"
            },
            {
              "internalType": "uint256",
              "name": "amount",
              "type": "uint256"
            },
            {
              "internalType": "bytes",
              "name": "userData",
              "type": "bytes"
            }
          ],
          "internalType": "struct IVault.SingleSwap",
          "name": "request",
          "type": "tuple"
        },
        {
          "components": [
            {
              "internalType": "address",
              "name": "sender",
              "type": "address"
            },
            {
              "internalType": "bool",
              "name": "fromInternalBalance",
              "type": "bool"
            },
            {
              "internalType": "address payable",
              "name": "recipient",
              "type": "address"
            },
            {
              "internalType": "bool",
              "name": "toInternalBalance",
              "type": "bool"
            }
          ],
          "internalType": "struct IVault.FundManagement",
          "name": "funds",
          "type": "tuple"
        },
        {
          "internalType": "uint256",
          "name": "limit",
          "type": "uint256"
        },
        {
          "internalType": "uint256",
          "name": "deadline",
          "type": "uint256"
        }
      ],
      "name": "swap",
      "outputs": [
        {
          "internalType": "uint256",
          "name": "",
          "type": "uint256"
        }
      ],
      "stateMutability": "payable",
      "type": "function"
    },
    {
      "stateMutability": "payable",
      "type": "receive"
    }
  ],
  "transactionHash": "0x63133b06cc4b5234a6a3f6fa31b424fec7b699cfb7d86457bba4eca122768a76",
  "args": [
    "0xccc0c37D403aa05337A8624B5eE46E47A2A92603",
    "0x02822e968856186a20fEc2C824D4B174D0b70502",
    604800,
    604800
  ],
  "solcInputHash": "5524e1253c5c1a49e6fe749201feca88",
  "bytecode": "0x6102006040527f551a330e0cd7068f91f1cc53010b957ee0feca1b22c7205ecd33fee714ec06bf60c0527fc89efdaa54c0f20c7adf612882df0950f5a951637e0307cdcb4c672f298b8bc660e0527f8b73c3c69bb8fe3d512ecc4cf759cc79239f7b179b0ffacaa9a75d522b39400f610100527f8378a8c1df05a9f1a8c03f56ac5deaa79a89d08a18ee66900300eeccbbffab60610160527f0725e3eb280becc5e8a12353eebf7eea0f300734e37d6ea26a0618f0e33b7c2c610180527fccccf29320e8013475285e723e882da98bb8fe6d57df3ef56f4450c8a0b872796101a0527f19798cf6a20b933b5582bab474b88a347f49600d7885bea767cebdf93e67e25b6101c0527fa287a6d125737644e801d3f7878ec24503dc3f766efac5bdc0fe4932726c75f96101e0523480156200013857600080fd5b5060405162006e7938038062006e798339810160408190526200015b91620002a0565b6001600160601b0319606084901b166080526040518490839083903090620001839062000292565b6200018f9190620002ec565b604051809103906000f080158015620001ac573d6000803e3d6000fd5b5060601b6001600160601b03191660a0526001600055620001d66276a7008311156101f86200022a565b620001ea62278d008211156101f96200022a565b429091016101208190520161014052600280546001600160a01b0390921661010002610100600160a81b0319909216919091179055506200031992505050565b816200023b576200023b816200023f565b5050565b62461bcd60e51b6000908152602060045260076024526642414c23000030600a808404818106603090810160081b95839006959095019082900491820690940160101b939093010160c81b604452606490fd5b610ae1806200639883390190565b60008060008060808587031215620002b6578384fd5b8451620002c38162000300565b6020860151909450620002d68162000300565b6040860151606090960151949790965092505050565b6001600160a01b0391909116815260200190565b6001600160a01b03811681146200031657600080fd5b50565b60805160601c60a05160601c60c05160e05161010051610120516101405161016051610180516101a0516101c0516101e051615ff3620003a560003980614a65525080614a235250806149e152508061499f52508061495d5250806126f05250806126cc5250806128615250806128a352508061288252508061283b5250806104fd5250615ff36000f3fe60806040526004361061019a5760003560e01c80638bdb3913116100e1578063b05f8e481161008a578063ed24911d11610064578063ed24911d14610469578063f6c009271461047e578063f84d066e146104ac578063f94d4668146104cc576101c8565b8063b05f8e4814610411578063b95cac2814610441578063d2946c2b14610454576101c8565b8063a50ff097116100bb578063a50ff097146103b6578063aaabadc5146103da578063ad5c4648146103fc576101c8565b80638bdb39131461036357806390193b7c14610383578063945bcec9146103a3576101c8565b806352bbbe29116101435780636d824be81161011d5780636d824be81461030357806377c91f70146103235780637d3aeb9614610343576101c8565b806352bbbe29146102b05780635c38449e146102c357806366a9c7d2146102e3576101c8565b80630f5a6efa116101745780630f5a6efa1461023657806325eb5137146102635780632fd8744614610290576101c8565b806309b2760f146101cd5780630e8e3e84146102035780630e9e98cf14610216576101c8565b366101c8576101c66101aa6104fb565b6001600160a01b0316336001600160a01b031614610269610520565b005b600080fd5b3480156101d957600080fd5b506101ed6101e83660046156e8565b610532565b6040516101fa9190615d24565b60405180910390f35b6101c6610211366004615266565b6105e2565b34801561022257600080fd5b506101c661023136600461517b565b610728565b34801561024257600080fd5b50610256610251366004615219565b61076d565b6040516101fa9190615cee565b34801561026f57600080fd5b5061028361027e366004615197565b610802565b6040516101fa9190615d01565b34801561029c57600080fd5b506101c66102ab3660046151cf565b610817565b6101ed6102be36600461588f565b610870565b3480156102cf57600080fd5b506101c66102de366004615624565b610a15565b3480156102ef57600080fd5b506101c66102fe3660046154b2565b610d98565b34801561030f57600080fd5b506101c661031e36600461554c565b610fb8565b34801561032f57600080fd5b506101c661033e3660046153b0565b6110f2565b34801561034f57600080fd5b506101c661035e366004615469565b611113565b34801561036f57600080fd5b506101c661037e366004615400565b6112ed565b34801561038f57600080fd5b506101ed61039e36600461517b565b611309565b6102566103b1366004615787565b611324565b3480156103c257600080fd5b506103cb611458565b6040516101fa93929190615d0c565b3480156103e657600080fd5b506103ef611481565b6040516101fa9190615b98565b34801561040857600080fd5b506103ef611495565b34801561041d57600080fd5b5061043161042c366004615528565b6114a4565b6040516101fa9493929190615ef8565b6101c661044f366004615400565b611567565b34801561046057600080fd5b506103ef611580565b34801561047557600080fd5b506101ed61158a565b34801561048a57600080fd5b5061049e6104993660046153e8565b611594565b6040516101fa929190615bd0565b3480156104b857600080fd5b506102566104c7366004615704565b6115be565b3480156104d857600080fd5b506104ec6104e73660046153e8565b6116a2565b6040516101fa93929190615cb8565b7f00000000000000000000000000000000000000000000000000000000000000005b90565b8161052e5761052e816116d6565b5050565b600061053c611729565b610544611742565b60006105533384600654611757565b6000818152600760205260409020549091506105759060ff1615610258610520565b60068054600190810190915560008281526007602052604090819020805460ff1916909217909155517f43641244aeefd8de6827c26f36450aa6165c9fef65ddfa7262da93ba648464d2906105cb908390615d24565b60405180910390a190506105dd611796565b919050565b6105ea611729565b60008060008060008060006105fd614c64565b60005b895181101561070b5789818151811061061557fe5b60200260200101519150610629828461179d565b939c50919a509098509650925060018251600381111561064557fe5b141561065c576106578989888a6117f1565b610703565b8361066e57610669611742565b600193505b60008251600381111561067d57fe5b14156106ae5761068f8989888a611814565b61069889611834565b15610657576106a78588611841565b9450610703565b6106c36106ba8a611834565b15610272610520565b60006106ce8a61051d565b90506002835160038111156106df57fe5b146106f5576106f0818a898b611853565b610701565b610701818a898b6118bb565b505b600101610600565b50610715846118d4565b5050505050505050610725611796565b50565b610730611729565b6107386118f7565b6002805474ffffffffffffffffffffffffffffffffffffffff0019166101006001600160a01b03841602179055610725611796565b606081516001600160401b038111801561078657600080fd5b506040519080825280602002602001820160405280156107b0578160200160208202803683370190505b50905060005b82518110156107fb576107dc848483815181106107cf57fe5b6020026020010151611945565b8282815181106107e857fe5b60209081029190910101526001016107b6565b5092915050565b600061080e8383611970565b90505b92915050565b61081f611729565b610827611742565b826108318161199e565b506001600160a01b038381166000908152600360209081526040808320938616835292905220805460ff191682151517905561086b611796565b505050565b600061087a611729565b610882611742565b835161088d8161199e565b61089c83421115610260610520565b6108af6000876080015111610262610520565b60006108be87604001516119d0565b905060006108cf88606001516119d0565b90506108f2816001600160a01b0316836001600160a01b03161415610261610520565b6108fa614c94565b8851608082015260208901518190600181111561091357fe5b9081600181111561092057fe5b9052506001600160a01b03808416602083015282811660408084019190915260808b0151606084015260a08b01516101008401528951821660c08401528901511660e082015260008080610973846119f5565b919450925090506109aa60008d60200151600181111561098f57fe5b1461099d578a8311156109a2565b8a8210155b61025f610520565b6109c28c60400151838d600001518e60200151611ae9565b6109da8c60600151828d604001518e60600151611bc0565b6109fc6109ea8d60400151611834565b6109f55760006109f7565b825b6118d4565b509095505050505050610a0d611796565b949350505050565b610a1d611729565b610a25611742565b610a3184518451611c9a565b606084516001600160401b0381118015610a4a57600080fd5b50604051908082528060200260200182016040528015610a74578160200160208202803683370190505b509050606085516001600160401b0381118015610a9057600080fd5b50604051908082528060200260200182016040528015610aba578160200160208202803683370190505b5090506000805b8751811015610c11576000888281518110610ad857fe5b602002602001015190506000888381518110610af057fe5b60200260200101519050610b3c846001600160a01b0316836001600160a01b031611836001600160a01b031660006001600160a01b031614610b33576066610b37565b61026a5b610520565b819350816001600160a01b03166370a08231306040518263ffffffff1660e01b8152600401610b6b9190615b98565b60206040518083038186803b158015610b8357600080fd5b505afa158015610b97573d6000803e3d6000fd5b505050506040513d601f19601f82011682018060405250810190610bbb9190615967565b858481518110610bc757fe5b602002602001018181525050610bdc81611ca7565b868481518110610be857fe5b6020908102919091010152610c076001600160a01b0383168c83611d2a565b5050600101610ac1565b5060405163f04f270760e01b81526001600160a01b0389169063f04f270790610c46908a908a9088908b908b90600401615c49565b600060405180830381600087803b158015610c6057600080fd5b505af1158015610c74573d6000803e3d6000fd5b5050505060005b8751811015610d85576000888281518110610c9257fe5b602002602001015190506000848381518110610caa57fe5b602002602001015190506000826001600160a01b03166370a08231306040518263ffffffff1660e01b8152600401610ce29190615b98565b60206040518083038186803b158015610cfa57600080fd5b505afa158015610d0e573d6000803e3d6000fd5b505050506040513d601f19601f82011682018060405250810190610d329190615967565b9050610d438282101561025c610520565b60008282039050610d6c888681518110610d5957fe5b60200260200101518210156102be610520565b610d768482611d80565b50505050806001019050610c7b565b50505050610d91611796565b5050505050565b610da0611729565b610da8611742565b84610db281611da2565b610dbc8483611c9a565b60005b84811015610e5e576000868683818110610dd557fe5b9050602002016020810190610dea919061517b565b9050610dff610df882611dcf565b6068610520565b848483818110610e0b57fe5b9050602002016020810190610e20919061517b565b6000898152600b602090815260408083206001600160a01b039586168452909152902080546001600160a01b03191691909216179055600101610dbf565b506000610e6a87611dd5565b90506002816002811115610e7a57fe5b1415610ee157610e8f60028614610271610520565b610edc8787876000818110610ea057fe5b9050602002016020810190610eb5919061517b565b88886001818110610ec257fe5b9050602002016020810190610ed7919061517b565b611deb565b610f6f565b6001816002811115610eef57fe5b1415610f3257610edc87878780806020026020016040519081016040528093929190818152602001838360200280828437600092019190915250611e9792505050565b610f6f87878780806020026020016040519081016040528093929190818152602001838360200280828437600092019190915250611eef92505050565b7ff5847d3f2197b16cdcd2098ec95d0905cd1abdaf415f07bb7cef2bba8ac5dec48787878787604051610fa6959493929190615dae565b60405180910390a15050610d91611796565b610fc0611729565b610fc8611742565b610fd183611f44565b6000610fdc84611dd5565b905060005b82518110156110e8576000838281518110610ff857fe5b60200260200101516000015190506110108682611f62565b600084838151811061101e57fe5b6020026020010151602001519050600080600281111561103a57fe5b87600281111561104657fe5b141561105f5761105888868585611f9f565b905061108e565b600187600281111561106d57fe5b141561107f576110588886858561200c565b61108b8886858561207b565b90505b826001600160a01b0316336001600160a01b0316897f409c9637d672eef8e64216bc3bd6911244c6cc142f4dd7881e96eb1b6489cd60846040516110d29190615d24565b60405180910390a4505050806001019050610fe1565b505061086b611796565b6110fa611729565b6111026118f7565b61110b816120cd565b610725611796565b61111b611729565b611123611742565b8261112d81611da2565b600061113885611dd5565b9050600281600281111561114857fe5b14156111af5761115d60028414610271610520565b6111aa858585600081811061116e57fe5b9050602002016020810190611183919061517b565b8686600181811061119057fe5b90506020020160208101906111a5919061517b565b61212b565b61123d565b60018160028111156111bd57fe5b1415611200576111aa8585858080602002602001604051908101604052809392919081815260200183836020028082843760009201919091525061219292505050565b61123d8585858080602002602001604051908101604052809392919081815260200183836020028082843760009201919091525061222992505050565b60005b838110156112a7576000868152600b602052604081209086868481811061126357fe5b9050602002016020810190611278919061517b565b6001600160a01b03168152602081019190915260400160002080546001600160a01b0319169055600101611240565b507f7dcdc6d02ef40c7c1a7046a011b058bd7f988fa14e20a66344f9d4e60657d6108585856040516112db93929190615d94565b60405180910390a1505061086b611796565b61130360018585856112fe8661228c565b612298565b50505050565b6001600160a01b031660009081526001602052604090205490565b606061132e611729565b611336611742565b83516113418161199e565b61135083421115610260610520565b61135c86518551611c9a565b6113688787878b61241e565b91506000805b875181101561143a57600088828151811061138557fe5b60200260200101519050600085838151811061139d57fe5b602002602001015190506113c98884815181106113b657fe5b602002602001015182131561025f610520565b600081131561140957885160208a015182916113e89185918491611ae9565b6113f183611834565b15611403576114008582611841565b94505b50611430565b600081121561143057600081600003905061142e83828c604001518d60600151611bc0565b505b505060010161136e565b50611444816118d4565b505061144e611796565b9695505050505050565b60008060006114656126ac565b1561146e6126ca565b6114766126ee565b925092509250909192565b60025461010090046001600160a01b031690565b600061149f6104fb565b905090565b600080600080856114b481611f44565b6000806114c089611dd5565b905060028160028111156114d057fe5b14156114e7576114e08989612712565b9150611512565b60018160028111156114f557fe5b1415611505576114e0898961278c565b61150f89896127f2565b91505b61151b8261280a565b96506115268261281d565b955061153182612833565b6000998a52600b60209081526040808c206001600160a01b039b8c168d5290915290992054969995989796909616955050505050565b61156f611742565b61130360008585856112fe8661228c565b600061149f612839565b600061149f61285d565b600080826115a181611f44565b6115aa846128fa565b6115b385611dd5565b925092505b50915091565b6060333014611678576000306001600160a01b03166000366040516115e4929190615b2a565b6000604051808303816000865af19150503d8060008114611621576040519150601f19603f3d011682016040523d82523d6000602084013e611626565b606091505b50509050806000811461163557fe5b60046000803e6000516001600160e01b031916637d30e60960e11b8114611660573d6000803e3d6000fd5b50602060005260043d0380600460203e602081016000f35b60606116868585858961241e565b9050602081510263fa61cc126020830352600482036024820181fd5b6060806000836116b181611f44565b60606116bc86612900565b90955090506116ca81612962565b95979096509350505050565b62461bcd60e51b6000908152602060045260076024526642414c23000030600a808404818106603090810160081b95839006959095019082900491820690940160101b939093010160c81b604452606490fd5b61173b600260005414156101f4610520565b6002600055565b61175561174d6126ac565b6101f6610520565b565b600069ffffffffffffffffffff8216605084600281111561177457fe5b901b17606085901b6bffffffffffffffffffffffff19161790505b9392505050565b6001600055565b60608201516000908180846001600160a01b03841633146117d257856117c9576117c56118f7565b5060015b6117d284612a0c565b8660200151945086604001519150866080015192509295509295909350565b611806836117fe866119d0565b836000612a21565b506113038482846000611bc0565b61182782611821866119d0565b83612a77565b6113038482856000611ae9565b6001600160a01b03161590565b600082820161080e8482101583610520565b6118686001600160a01b038516848484612aa7565b826001600160a01b0316846001600160a01b03167f540a1a3f28340caec336c81d8d7b3df139ee5cdc1839a4f283d7ebb7eaae2d5c84846040516118ad929190615bf7565b60405180910390a350505050565b6118c88385836000612a21565b50611303828583612a77565b6118e381341015610267610520565b34819003801561052e5761052e3382612ac8565b6000306000356001600160e01b031916604051602001611918929190615afe565b60405160208183030381529060405280519060200120905061072561193d8233612b42565b6101f5610520565b6001600160a01b03918216600090815260046020908152604080832093909416825291909152205490565b6001600160a01b03918216600090815260036020908152604080832093909416825291909152205460ff1690565b336001600160a01b03821614610725576119b66118f7565b6119c08133611970565b610725576107258161025d612bca565b60006119db82611834565b6119ed576119e88261051d565b610811565b6108116104fb565b600080600080611a0885608001516128fa565b90506000611a198660800151611dd5565b90506001816002811115611a2957fe5b1415611a4057611a398683612bff565b9450611a6b565b6002816002811115611a4e57fe5b1415611a5e57611a398683612c92565b611a688683612d42565b94505b611a7e8660000151876060015187612f73565b809450819550505085604001516001600160a01b031686602001516001600160a01b031687608001517f2170c741c41531aec20e7c107c24eecfdd15e69c9bb0a8dd37b1840b9e0b207b8787604051611ad8929190615eea565b60405180910390a450509193909250565b82611af357611303565b611afc84611834565b15611b7d57611b0e8115610266610520565b611b1d83471015610267610520565b611b256104fb565b6001600160a01b031663d0e30db0846040518263ffffffff1660e01b81526004016000604051808303818588803b158015611b5f57600080fd5b505af1158015611b73573d6000803e3d6000fd5b5050505050611303565b6000611b888561051d565b90508115611ba5576000611b9f8483876001612a21565b90940393505b8315610d9157610d916001600160a01b038216843087612aa7565b82611bca57611303565b611bd384611834565b15611c6357611be58115610266610520565b611bed6104fb565b6001600160a01b0316632e1a7d4d846040518263ffffffff1660e01b8152600401611c189190615d24565b600060405180830381600087803b158015611c3257600080fd5b505af1158015611c46573d6000803e3d6000fd5b50611c5e925050506001600160a01b03831684612ac8565b611303565b6000611c6e8561051d565b90508115611c8657611c81838286612a77565b610d91565b610d916001600160a01b0382168486611d2a565b61052e8183146067610520565b600061081182611cb5612839565b6001600160a01b031663fd90c2be6040518163ffffffff1660e01b815260040160206040518083038186803b158015611ced57600080fd5b505afa158015611d01573d6000803e3d6000fd5b505050506040513d601f19601f82011682018060405250810190611d259190615967565b612fa1565b61086b8363a9059cbb60e01b8484604051602401611d49929190615bf7565b60408051601f198184030181529190526020810180516001600160e01b03166001600160e01b031990931692909217909152612fad565b801561052e5761052e611d91612839565b6001600160a01b0384169083611d2a565b611dab81611f44565b6000611db6826128fa565b905061052e6001600160a01b0382163314610259610520565b3b151590565b600061ffff605083901c16600281111561081157fe5b611e0c816001600160a01b0316836001600160a01b0316141561026d610520565b611e2b816001600160a01b0316836001600160a01b0316106066610520565b6000838152600a602052604090208054611e68906001600160a01b0316158015611e60575060018201546001600160a01b0316155b61026e610520565b80546001600160a01b039384166001600160a01b03199182161782556001909101805492909316911617905550565b6000828152600860205260408120905b8251811015611303576000611ed8848381518110611ec157fe5b60200260200101518461304d90919063ffffffff16565b9050611ee68161026d610520565b50600101611ea7565b6000828152600560205260408120905b8251811015611303576000611f2d848381518110611f1957fe5b6020908102919091010151849060006130b0565b9050611f3b8161026d610520565b50600101611eff565b6000818152600760205260409020546107259060ff16610258610520565b611f6c828261315d565b6000828152600b602090815260408083206001600160a01b03858116855292529091205461052e9116331461025b610520565b60006001846002811115611faf57fe5b1415611fc557611fc0858484613172565b611fef565b6002846002811115611fd357fe5b1415611fe457611fc0858484613180565b611fef85848461318e565b6120046001600160a01b038416333085612aa7565b509392505050565b6000600184600281111561201c57fe5b14156120325761202d85848461319c565b61205c565b600284600281111561204057fe5b14156120515761202d8584846131aa565b61205c8584846131b8565b6120706001600160a01b0384163384611d2a565b506000039392505050565b6000600184600281111561208b57fe5b14156120a35761209c8584846131c6565b9050610a0d565b60028460028111156120b157fe5b14156120c25761209c8584846131d6565b61209c8584846131e6565b6120e26120d86126ca565b42106101f7610520565b6002805460ff19168215151790556040517fa5bc6afced71829f82830a97f26eb92aea46d29443b5acb7d47c4a52b1e2734190612120908390615d01565b60405180910390a150565b6000806121398585856131f6565b509150915061216261214a836132ad565b801561215a575061215a826132ad565b61026f610520565b505050600091825250600a6020526040902080546001600160a01b03199081168255600190910180549091169055565b6000828152600860205260408120905b82518110156113035760008382815181106121b957fe5b6020026020010151905061220561215a600960008881526020019081526020016000206000846001600160a01b03166001600160a01b03168152602001908152602001600020546132ad565b600061221184836132ba565b905061221f8161026c610520565b50506001016121a2565b6000828152600560205260408120905b825181101561130357600083828151811061225057fe5b60200260200101519050600061226684836133c1565b905061227461215a826132ad565b61227e84836133d0565b505050806001019050612239565b612294614ce4565b5090565b6122a0611729565b836122aa81611f44565b836122b48161199e565b6122c8836000015151846020015151611c9a565b60606122d78460000151613472565b905060606122e58883613505565b905060608060606122fa8c8c8c8c8c89613586565b925092509250600061230b8c611dd5565b9050600281600281111561231b57fe5b14156123835761237e8c8760008151811061233257fe5b60200260200101518660008151811061234757fe5b60200260200101518960018151811061235c57fe5b60200260200101518860018151811061237157fe5b602002602001015161374b565b6123ac565b600181600281111561239157fe5b14156123a25761237e8c878661378a565b6123ac8c856137f7565b6000808e60018111156123bb57fe5b1490508b6001600160a01b03168d7fe5ce249087ce04f05a957192435400fd97868dba0e6a4b4c049abf8af80dae78896123f58886613840565b8760405161240593929190615c10565b60405180910390a3505050505050505050610d91611796565b606083516001600160401b038111801561243757600080fd5b50604051908082528060200260200182016040528015612461578160200160208202803683370190505b50905061246c614d0e565b60008060008060005b8a5181101561269e578a818151811061248a57fe5b6020026020010151955060008a5187602001511080156124ae57508a518760400151105b90506124bb816064610520565b60006124dd8c8960200151815181106124d057fe5b60200260200101516119d0565b905060006124f48d8a60400151815181106124d057fe5b9050612517816001600160a01b0316836001600160a01b03161415610261610520565b60608901516125675761252f60008511610262610520565b600061253c8c84846138e7565b6001600160a01b0316876001600160a01b031614905061255e81610263610520565b50606089018590525b61256f614c94565b89516080820152808c600181111561258357fe5b9081600181111561259057fe5b9052506001600160a01b0380841660208301528281166040808401919091526060808d01519084015260808c01516101008401528e51821660c08401528e01511660e08201526125e18c8484613909565b96506125ec816119f5565b909a50985095506126256125ff8a613923565b8c8c602001518151811061260f57fe5b602002602001015161393790919063ffffffff16565b8b8b602001518151811061263557fe5b60200260200101818152505061267361264d89613923565b8c8c604001518151811061265d57fe5b602002602001015161396b90919063ffffffff16565b8b8b604001518151811061268357fe5b60200260200101818152505050505050806001019050612475565b505050505050949350505050565b60006126b66126ee565b4210158061149f57505060025460ff161590565b7f000000000000000000000000000000000000000000000000000000000000000090565b7f000000000000000000000000000000000000000000000000000000000000000090565b60008060008060006127238761399f565b945094509450945050836001600160a01b0316866001600160a01b031614156127525782945050505050610811565b816001600160a01b0316866001600160a01b0316141561277757935061081192505050565b61278261026c6116d6565b5050505092915050565b60008281526009602090815260408083206001600160a01b0385168452909152812054816127b982613a15565b806127d7575060008581526008602052604090206127d79085613a27565b905080612004576127e785611f44565b61200461026c6116d6565b6000828152600560205260408120610a0d81846133c1565b6dffffffffffffffffffffffffffff1690565b60701c6dffffffffffffffffffffffffffff1690565b60e01c90565b7f000000000000000000000000000000000000000000000000000000000000000090565b60007f00000000000000000000000000000000000000000000000000000000000000007f00000000000000000000000000000000000000000000000000000000000000007f00000000000000000000000000000000000000000000000000000000000000006128ca613a48565b306040516020016128df959493929190615e42565b60405160208183030381529060405280519060200120905090565b60601c90565b606080600061290e84611dd5565b9050600281600281111561291e57fe5b14156129375761292d84613a4c565b925092505061295d565b600181600281111561294557fe5b14156129545761292d84613b81565b61292d84613ca6565b915091565b6060600082516001600160401b038111801561297d57600080fd5b506040519080825280602002602001820160405280156129a7578160200160208202803683370190505b50915060005b82518110156115b85760008482815181106129c457fe5b602002602001015190506129d781613db4565b8483815181106129e357fe5b602002602001018181525050612a01836129fc83612833565b613dd1565b9250506001016129ad565b610725612a198233611970565b61025d610520565b600080612a2e8686611945565b9050612a478380612a3f5750848210155b610265610520565b612a518185613de8565b9150818103612a6d878783612a6587613923565b600003613df7565b5050949350505050565b6000612a838484611945565b90506000612a918284611841565b9050610d91858583612aa287613923565b613df7565b611303846323b872dd60e01b858585604051602401611d4993929190615bac565b612ad78147101561020a610520565b6000826001600160a01b031682604051612af09061051d565b60006040518083038185875af1925050503d8060008114612b2d576040519150601f19603f3d011682016040523d82523d6000602084013e612b32565b606091505b5050905061086b8161020b610520565b600254604051632474521560e21b815260009161010090046001600160a01b0316906391d1485490612b7a9086908690600401615d2d565b60206040518083038186803b158015612b9257600080fd5b505afa158015612ba6573d6000803e3d6000fd5b505050506040513d601f19601f8201168201806040525081019061080e91906153cc565b6001600160a01b03821660009081526001602081905260409091208054918201905561086b612bf98483613e52565b83610520565b600080612c148460800151856020015161278c565b90506000612c2a8560800151866040015161278c565b9050612c3885858484613fdf565b6080880180516000908152600960208181526040808420828e01516001600160a01b03908116865290835281852098909855935183529081528282209a830151909516815298909352919096209590955550929392505050565b600080600080612caf8660800151876020015188604001516131f6565b92509250925060008087604001516001600160a01b031688602001516001600160a01b03161015612ce4575083905082612cea565b50829050835b612cf688888484613fdf565b60408b015160208c01519199509294509092506001600160a01b03918216911610612d2a57612d2581836140f1565b612d34565b612d3482826140f1565b909255509295945050505050565b60808201516000908152600560209081526040822090840151829182918290612d6c908390614116565b90506000612d8788604001518461411690919063ffffffff16565b9050811580612d94575080155b15612db157612da68860800151611f44565b612db161026c6116d6565b60001991820191016000612dc484614135565b90506060816001600160401b0381118015612dde57600080fd5b50604051908082528060200260200182016040528015612e08578160200160208202803683370190505b50905060005b82811015612e80576000612e228783614139565b9050612e2d81613db4565b838381518110612e3957fe5b602002602001018181525050612e568c60a001516129fc83612833565b60a08d015281861415612e6b57809850612e77565b84821415612e77578097505b50600101612e0e565b50612e89614c94565b612e928b61414f565b60405162f64aa560e11b81529091506001600160a01b038b16906301ec954a90612ec690849086908a908a90600401615e8c565b602060405180830381600087803b158015612ee057600080fd5b505af1158015612ef4573d6000803e3d6000fd5b505050506040513d601f19601f82011682018060405250810190612f189190615967565b9850600080612f308d600001518e606001518d612f73565b9092509050612f3f8a83614157565b9950612f4b8982614182565b9850612f5888888c614198565b612f6388878b614198565b5050505050505050505092915050565b60008080856001811115612f8357fe5b1415612f93575082905081612f99565b50819050825b935093915050565b600061080e83836141b0565b60006060836001600160a01b031683604051612fc99190615b3a565b6000604051808303816000865af19150503d8060008114613006576040519150601f19603f3d011682016040523d82523d6000602084013e61300b565b606091505b50915091506000821415613023573d6000803e3d6000fd5b61130381516000148061304557508180602001905181019061304591906153cc565b610207610520565b60006130598383613a27565b6130a857508154600180820184556000848152602080822090930180546001600160a01b0319166001600160a01b03861690811790915585549082528286019093526040902091909155610811565b506000610811565b6001600160a01b03821660009081526002840160205260408120548061313d57505082546040805180820182526001600160a01b03858116808352602080840187815260008781526001808c018452878220965187546001600160a01b0319169616959095178655905194840194909455948201808955908352600288019094529190209190915561178f565b60001901600090815260018086016020526040822001839055905061178f565b61052e61316a83836141fd565b61026c610520565b611303838361425984614294565b6113038383614259846142ef565b6113038383614259846143c6565b611303838361441584614294565b6113038383614415846142ef565b6113038383614415846143c6565b6000610a0d848461443685614294565b6000610a0d8484614436856142ef565b6000610a0d8484614436856143c6565b60008060008060006132088787614459565b915091506000613218838361448b565b60008a8152600a602090815260408083208484526002019091528120805460018201549197509293509061324b83613a15565b8061325a575061325a82613a15565b8061326b575061326b8c87876144be565b9050806132865761327b8c611f44565b61328661026c6116d6565b61329083836144ff565b985061329c8383614524565b975050505050505093509350939050565b6001600160e01b03161590565b6001600160a01b038116600090815260018301602052604081205480156133b757835460001980830191908101906000908790839081106132f757fe5b60009182526020909120015487546001600160a01b039091169150819088908590811061332057fe5b600091825260208083209190910180546001600160a01b0319166001600160a01b0394851617905591831681526001898101909252604090209084019055865487908061336957fe5b60008281526020808220830160001990810180546001600160a01b03191690559092019092556001600160a01b03881682526001898101909152604082209190915594506108119350505050565b6000915050610811565b600061080e838361026c61453b565b6001600160a01b038116600090815260028301602052604081205480156133b757835460001990810160008181526001878101602090815260408084209587018452808420865481546001600160a01b03199081166001600160a01b0392831617835588860180549387019390935588548216875260028d018086528488209a909a558854169097558490559389559387168252939092528120559050610811565b606081516001600160401b038111801561348b57600080fd5b506040519080825280602002602001820160405280156134b5578160200160208202803683370190505b50905060005b82518110156134ff576134d38382815181106124d057fe5b8282815181106134df57fe5b6001600160a01b03909216602092830291909101909101526001016134bb565b50919050565b606080606061351385612900565b9150915061352382518551611c9a565b60005b825181101561357d5761357585828151811061353e57fe5b60200260200101516001600160a01b031684838151811061355b57fe5b60200260200101516001600160a01b03161461026b610520565b600101613526565b50949350505050565b606080606080600061359786612962565b9150915060006135a68b6128fa565b905060008c60018111156135b657fe5b1461365957806001600160a01b03166374f3b0098c8c8c87876135d761456f565b8f604001516040518863ffffffff1660e01b81526004016135fe9796959493929190615d44565b600060405180830381600087803b15801561361857600080fd5b505af115801561362c573d6000803e3d6000fd5b505050506040513d6000823e601f3d908101601f19168201604052613654919081019061535a565b6136f2565b806001600160a01b031663d5c096c48c8c8c878761367561456f565b8f604001516040518863ffffffff1660e01b815260040161369c9796959493929190615d44565b600060405180830381600087803b1580156136b657600080fd5b505af11580156136ca573d6000803e3d6000fd5b505050506040513d6000823e601f3d908101601f191682016040526136f2919081019061535a565b80955081965050506137088751865186516145e9565b60008c600181111561371657fe5b1461372d576137288989898888614601565b61373a565b61373a8a89898888614756565b955050505096509650969350505050565b6000613757858461448b565b6000878152600a60209081526040808320848452600201909152902090915061378085846140f1565b9055505050505050565b60005b8251811015611303578181815181106137a257fe5b60200260200101516009600086815260200190815260200160002060008584815181106137cb57fe5b6020908102919091018101516001600160a01b031682528101919091526040016000205560010161378d565b6000828152600560205260408120905b8251811015611303576138388184838151811061382057fe5b6020026020010151846141989092919063ffffffff16565b600101613807565b606082516001600160401b038111801561385957600080fd5b50604051908082528060200260200182016040528015613883578160200160208202803683370190505b50905060005b83518110156107fb57826138b3578381815181106138a357fe5b60200260200101516000036138c8565b8381815181106138bf57fe5b60200260200101515b8282815181106138d457fe5b6020908102919091010152600101613889565b6000808460018111156138f657fe5b146139015781610a0d565b509092915050565b60008084600181111561391857fe5b146107fb5782610a0d565b6000612294600160ff1b831061021a610520565b600082820161080e82841280159061394f5750848212155b80613964575060008412801561396457508482125b6000610520565b600081830361080e8284128015906139835750848213155b80613998575060008412801561399857508482135b6001610520565b6000818152600a60205260408120805460018201546001600160a01b03918216928492909116908290816139d3868561448b565b60008181526002840160205260409020805460018201549199509192506139fa82826144ff565b9650613a068282614524565b94505050505091939590929450565b6000613a20826132ad565b1592915050565b6001600160a01b031660009081526001919091016020526040902054151590565b4690565b606080600080600080613a5e8761399f565b92975090955093509150506001600160a01b0384161580613a8657506001600160a01b038216155b15613aaf575050604080516000808252602082019081528183019092529450925061295d915050565b60408051600280825260608201835290916020830190803683370190505095508386600081518110613add57fe5b60200260200101906001600160a01b031690816001600160a01b0316815250508186600181518110613b0b57fe5b6001600160a01b03929092166020928302919091018201526040805160028082526060820183529092909190830190803683370190505094508285600081518110613b5257fe5b6020026020010181815250508085600181518110613b6c57fe5b60200260200101818152505050505050915091565b60008181526008602052604090206060908190613b9d81614135565b6001600160401b0381118015613bb257600080fd5b50604051908082528060200260200182016040528015613bdc578160200160208202803683370190505b50925082516001600160401b0381118015613bf657600080fd5b50604051908082528060200260200182016040528015613c20578160200160208202803683370190505b50915060005b8351811015613c9f576000613c3b83836148d1565b905080858381518110613c4a57fe5b6001600160a01b03928316602091820292909201810191909152600088815260098252604080822093851682529290915220548451859084908110613c8b57fe5b602090810291909101015250600101613c26565b5050915091565b60008181526005602052604090206060908190613cc281614135565b6001600160401b0381118015613cd757600080fd5b50604051908082528060200260200182016040528015613d01578160200160208202803683370190505b50925082516001600160401b0381118015613d1b57600080fd5b50604051908082528060200260200182016040528015613d45578160200160208202803683370190505b50915060005b8351811015613c9f57600080613d61848461490e565b9150915081868481518110613d7257fe5b60200260200101906001600160a01b031690816001600160a01b03168152505080858481518110613d9f57fe5b60209081029190910101525050600101613d4b565b6000610811613dc28361281d565b613dcb8461280a565b90611841565b600081831015613de1578161080e565b5090919050565b6000818310613de1578161080e565b6001600160a01b0380851660008181526004602090815260408083209488168084529490915290819020859055517f18e1ea4139e68413d7d08aa752e71568e36b2c5bf940893314c2c5b01eaa0c42906118ad908590615d24565b600080613e5d614932565b905042811015613e71576000915050610811565b6000613e7b61493e565b613e83614a91565b8051602091820120604051613e9f939233918991889101615e16565b6040516020818303038152906040528051906020012090506000613ec161285d565b82604051602001613ed3929190615b7d565b6040516020818303038152906040528051906020012090506000806000613ef8614ae0565b9250925092508260ff16601b14158015613f1657508260ff16601c14155b80613f4057507f7fffffffffffffffffffffffffffffff5d576e7357a4501ddfe92f46681b20a081115b15613f545760009650505050505050610811565b600060018585858560405160008152602001604052604051613f799493929190615e6e565b6020604051602081039080840390855afa158015613f9b573d6000803e3d6000fd5b5050604051601f1901519150506001600160a01b03811615801590613fd15750896001600160a01b0316816001600160a01b0316145b9a9950505050505050505050565b600080600080613fee86613db4565b90506000613ffb86613db4565b905061401261400988612833565b6129fc88612833565b60a08a015261401f614c94565b6140288a61414f565b60405163274b044360e21b81529091506001600160a01b038a1690639d2c110c9061405b90849087908790600401615ec5565b602060405180830381600087803b15801561407557600080fd5b505af1158015614089573d6000803e3d6000fd5b505050506040513d601f19601f820116820180604052508101906140ad9190615967565b93506000806140c58c600001518d6060015188612f73565b90925090506140d48a83614157565b97506140e08982614182565b965050505050509450945094915050565b600061080e6140ff8461280a565b6141088461280a565b61411186612833565b614b0e565b6001600160a01b03166000908152600291909101602052604090205490565b5490565b6000908152600191820160205260409020015490565b612294614c94565b60008061416783613dcb8661280a565b905060006141748561281d565b90504361144e838383614b1c565b600080614167836141928661280a565b90614b55565b60009182526001928301602052604090912090910155565b60008282026141d48415806141cd5750838583816141ca57fe5b04145b6003610520565b806141e3576000915050610811565b670de0b6b3a7640000600019820104600101915050610811565b60008061420984611dd5565b9050600281600281111561421957fe5b1415614231576142298484614b6b565b915050610811565b600181600281111561423f57fe5b141561424f576142298484614bbc565b6142298484614bd4565b60008061426983613dcb8661280a565b9050600061427a846141928761281d565b9050600061428786612833565b905061144e838383614b1c565b6000806142a1868661278c565b905060006142b382858763ffffffff16565b60008881526009602090815260408083206001600160a01b038b168452909152902081905590506142e48183614bec565b979650505050505050565b6000806000806000806143018a61399f565b945094509450945094506000846001600160a01b03168a6001600160a01b0316141561434d576000614337858a8c63ffffffff16565b90506143438186614bec565b9094509050614398565b826001600160a01b03168a6001600160a01b0316141561438d576000614377838a8c63ffffffff16565b90506143838184614bec565b9092509050614398565b61439861026c6116d6565b6143a284836140f1565b86556143ae8483614c08565b60019096019590955550929350505050949350505050565b6000848152600560205260408120816143df82876133c1565b905060006143f182868863ffffffff16565b90506143fe8388836130b0565b506144098183614bec565b98975050505050505050565b600080614425836141928661280a565b9050600061427a84613dcb8761281d565b6000806144428461280a565b905043614450828583614b1c565b95945050505050565b600080826001600160a01b0316846001600160a01b03161061447c57828461447f565b83835b915091505b9250929050565b600082826040516020016144a0929190615b56565b60405160208183030381529060405280519060200120905092915050565b6000838152600a6020526040812080546001600160a01b038581169116148015614450575060018101546001600160a01b0384811691161495945050505050565b600061080e61450d8461280a565b6145168461280a565b61451f86612833565b614b1c565b600061080e6145328461281d565b6145168461281d565b6001600160a01b038216600090815260028401602052604081205461456281151584610520565b6144508560018303614139565b6000614579612839565b6001600160a01b031663d4cadf686040518163ffffffff1660e01b815260040160206040518083038186803b1580156145b157600080fd5b505afa1580156145c5573d6000803e3d6000fd5b505050506040513d601f19601f8201168201806040525081019061149f9190615967565b61086b82841480156145fa57508183145b6067610520565b606083516001600160401b038111801561461a57600080fd5b50604051908082528060200260200182016040528015614644578160200160208202803683370190505b50905060005b85515181101561474c57600084828151811061466257fe5b602002602001015190506146928760200151838151811061467f57fe5b602002602001015182101561025a610520565b6000876000015183815181106146a457fe5b602002602001015190506146be81838b8b60600151611bc0565b60008584815181106146cc57fe5b6020026020010151905060006146eb828561184190919063ffffffff16565b9050614713818a87815181106146fd57fe5b602002602001015161418290919063ffffffff16565b86868151811061471f57fe5b60200260200101818152505061473d614737846119d0565b83611d80565b5050505080600101905061464a565b5095945050505050565b6060600084516001600160401b038111801561477157600080fd5b5060405190808252806020026020018201604052801561479b578160200160208202803683370190505b50915060005b8651518110156148c75760008582815181106147b957fe5b602002602001015190506147e9886020015183815181106147d657fe5b602002602001015182111561025e610520565b6000886000015183815181106147fb57fe5b6020026020010151905061481581838c8c60600151611ae9565b61481e81611834565b156148305761482d8483611841565b93505b600086848151811061483e57fe5b6020026020010151905080831015614867576148628382038a86815181106146fd57fe5b61488f565b61488f8184038a868151811061487957fe5b602002602001015161415790919063ffffffff16565b86858151811061489b57fe5b6020026020010181815250506148b96148b3836119d0565b82611d80565b5050508060010190506147a1565b5061474c816118d4565b81546000906148e39083106064610520565b8260000182815481106148f257fe5b6000918252602090912001546001600160a01b03169392505050565b600090815260019182016020526040902080549101546001600160a01b0390911691565b600061149f6000614c26565b600080356001600160e01b03191663172b958560e31b141561498157507f000000000000000000000000000000000000000000000000000000000000000061051d565b6000356001600160e01b031916638bdb391360e01b14156149c357507f000000000000000000000000000000000000000000000000000000000000000061051d565b6000356001600160e01b0319166352bbbe2960e01b1415614a0557507f000000000000000000000000000000000000000000000000000000000000000061051d565b6000356001600160e01b03191663945bcec960e01b1415614a4757507f000000000000000000000000000000000000000000000000000000000000000061051d565b6000356001600160e01b0319166317ec3a2360e11b1415614a8957507f000000000000000000000000000000000000000000000000000000000000000061051d565b50600061051d565b60606000368080601f01602080910402602001604051908101604052809392919081815260200183838082843760009201919091525050825192935050506080101561051d5760803603815290565b6000806000614aef6020614c26565b9250614afb6040614c26565b9150614b076060614c26565b9050909192565b60e01b60709190911b010190565b6000838301614b4a858210801590614b4257506e01000000000000000000000000000082105b610270610520565b614450858585614b0e565b6000614b65838311156001610520565b50900390565b6000828152600a6020526040812080546001600160a01b0384811691161480614ba3575060018101546001600160a01b038481169116145b8015610a0d575050506001600160a01b03161515919050565b6000828152600860205260408120610a0d8184613a27565b6000828152600560205260408120610a0d8184614c43565b6000614bf78261281d565b614c008461281d565b039392505050565b600061080e614c168461281d565b614c1f8461281d565b6000614b0e565b600060405160208101604052602083608036030182375192915050565b6001600160a01b031660009081526002919091016020526040902054151590565b6040805160a081019091528060008152600060208201819052604082018190526060820181905260809091015290565b60408051610120810190915280600081526000602082018190526040820181905260608083018290526080830182905260a0830182905260c0830182905260e08301919091526101009091015290565b60405180608001604052806060815260200160608152602001606081526020016000151581525090565b6040518060a0016040528060008019168152602001600081526020016000815260200160008152602001606081525090565b803561081181615f8d565b60008083601f840112614d5c578182fd5b5081356001600160401b03811115614d72578182fd5b602083019150836020808302850101111561448457600080fd5b600082601f830112614d9c578081fd5b8135614daf614daa82615f42565b615f1c565b818152915060208083019084810181840286018201871015614dd057600080fd5b60005b84811015614df8578135614de681615f8d565b84529282019290820190600101614dd3565b505050505092915050565b600082601f830112614e13578081fd5b8135614e21614daa82615f42565b818152915060208083019084810181840286018201871015614e4257600080fd5b60005b84811015614df8578135614e5881615f8d565b84529282019290820190600101614e45565b600082601f830112614e7a578081fd5b8135614e88614daa82615f42565b818152915060208083019084810160005b84811015614df8578135870160a080601f19838c03011215614eba57600080fd5b614ec381615f1c565b8583013581526040808401358783015260608085013582840152608091508185013581840152508284013592506001600160401b03831115614f0457600080fd5b614f128c8885870101614ff1565b90820152865250509282019290820190600101614e99565b600082601f830112614f3a578081fd5b8135614f48614daa82615f42565b818152915060208083019084810181840286018201871015614f6957600080fd5b60005b84811015614df857813584529282019290820190600101614f6c565b600082601f830112614f98578081fd5b8151614fa6614daa82615f42565b818152915060208083019084810181840286018201871015614fc757600080fd5b60005b84811015614df857815184529282019290820190600101614fca565b803561081181615fa2565b600082601f830112615001578081fd5b81356001600160401b03811115615016578182fd5b615029601f8201601f1916602001615f1c565b915080825283602082850101111561504057600080fd5b8060208401602084013760009082016020015292915050565b80356002811061081157600080fd5b80356004811061081157600080fd5b600060808284031215615088578081fd5b6150926080615f1c565b905081356001600160401b03808211156150ab57600080fd5b6150b785838601614d8c565b835260208401359150808211156150cd57600080fd5b6150d985838601614f2a565b602084015260408401359150808211156150f257600080fd5b506150ff84828501614ff1565b6040830152506151128360608401614fe6565b606082015292915050565b60006080828403121561512e578081fd5b6151386080615f1c565b9050813561514581615f8d565b8152602082013561515581615fa2565b6020820152604082013561516881615f8d565b6040820152606082013561511281615fa2565b60006020828403121561518c578081fd5b813561080e81615f8d565b600080604083850312156151a9578081fd5b82356151b481615f8d565b915060208301356151c481615f8d565b809150509250929050565b6000806000606084860312156151e3578081fd5b83356151ee81615f8d565b925060208401356151fe81615f8d565b9150604084013561520e81615fa2565b809150509250925092565b6000806040838503121561522b578182fd5b823561523681615f8d565b915060208301356001600160401b03811115615250578182fd5b61525c85828601614e03565b9150509250929050565b60006020808385031215615278578182fd5b82356001600160401b0381111561528d578283fd5b8301601f8101851361529d578283fd5b80356152ab614daa82615f42565b8181528381019083850160a0808502860187018a10156152c9578788fd5b8795505b8486101561534c5780828b0312156152e3578788fd5b6152ec81615f1c565b6152f68b84615068565b81526153048b898501614d40565b818901526040838101359082015260606153208c828601614d40565b9082015260806153328c858301614d40565b9082015284526001959095019492860192908101906152cd565b509098975050505050505050565b6000806040838503121561536c578182fd5b82516001600160401b0380821115615382578384fd5b61538e86838701614f88565b935060208501519150808211156153a3578283fd5b5061525c85828601614f88565b6000602082840312156153c1578081fd5b813561080e81615fa2565b6000602082840312156153dd578081fd5b815161080e81615fa2565b6000602082840312156153f9578081fd5b5035919050565b60008060008060808587031215615415578182fd5b84359350602085013561542781615f8d565b9250604085013561543781615f8d565b915060608501356001600160401b03811115615451578182fd5b61545d87828801615077565b91505092959194509250565b60008060006040848603121561547d578081fd5b8335925060208401356001600160401b03811115615499578182fd5b6154a586828701614d4b565b9497909650939450505050565b6000806000806000606086880312156154c9578283fd5b8535945060208601356001600160401b03808211156154e6578485fd5b6154f289838a01614d4b565b9096509450604088013591508082111561550a578283fd5b5061551788828901614d4b565b969995985093965092949392505050565b6000806040838503121561553a578182fd5b8235915060208301356151c481615f8d565b600080600060608486031215615560578081fd5b8335925060208085013561557381615fb0565b92506040858101356001600160401b0381111561558e578384fd5b8601601f8101881361559e578384fd5b80356155ac614daa82615f42565b81815284810190838601858402850187018c10156155c8578788fd5b8794505b838510156156135785818d0312156155e2578788fd5b6155eb86615f1c565b6155f58d83614d40565b815281880135888201528352600194909401939186019185016155cc565b508096505050505050509250925092565b60008060008060006080868803121561563b578283fd5b853561564681615f8d565b945060208601356001600160401b0380821115615661578485fd5b61566d89838a01614e03565b95506040880135915080821115615682578485fd5b61568e89838a01614f2a565b945060608801359150808211156156a3578283fd5b818801915088601f8301126156b6578283fd5b8135818111156156c4578384fd5b8960208285010111156156d5578384fd5b9699959850939650602001949392505050565b6000602082840312156156f9578081fd5b813561080e81615fb0565b60008060008060e08587031215615719578182fd5b6157238686615059565b935060208501356001600160401b038082111561573e578384fd5b61574a88838901614e6a565b9450604087013591508082111561575f578384fd5b5061576c87828801614d8c565b92505061577c866060870161511d565b905092959194509250565b60008060008060008061012087890312156157a0578384fd5b6157aa8888615059565b95506020808801356001600160401b03808211156157c6578687fd5b6157d28b838c01614e6a565b975060408a01359150808211156157e7578687fd5b6157f38b838c01614d8c565b96506158028b60608c0161511d565b955060e08a0135915080821115615817578384fd5b508801601f81018a13615828578283fd5b8035615836614daa82615f42565b81815283810190838501858402850186018e1015615852578687fd5b8694505b83851015615874578035835260019490940193918501918501615856565b50809650505050505061010087013590509295509295509295565b60008060008060e085870312156158a4578182fd5b84356001600160401b03808211156158ba578384fd5b9086019060c082890312156158cd578384fd5b6158d760c0615f1c565b823581526158e88960208501615059565b602082015260408301356158fb81615f8d565b604082015261590d8960608501614d40565b60608201526080830135608082015260a08301358281111561592d578586fd5b6159398a828601614ff1565b60a083015250809650505050615952866020870161511d565b939693955050505060a08201359160c0013590565b600060208284031215615978578081fd5b5051919050565b6001600160a01b03169052565b60008284526020808501945082825b858110156159c95781356159ae81615f8d565b6001600160a01b03168752958201959082019060010161599b565b509495945050505050565b6000815180845260208085019450808401835b838110156159c95781516001600160a01b0316875295820195908201906001016159e7565b6000815180845260208085019450808401835b838110156159c957815187529582019590820190600101615a1f565b60008151808452615a53816020860160208601615f61565b601f01601f19169290920160200192915050565b6000610120825160028110615a7857fe5b808552506020830151615a8e602086018261597f565b506040830151615aa1604086018261597f565b50606083015160608501526080830151608085015260a083015160a085015260c0830151615ad260c086018261597f565b5060e0830151615ae560e086018261597f565b5061010080840151828287015261144e83870182615a3b565b60609290921b6bffffffffffffffffffffffff191682526001600160e01b031916601482015260180190565b6000828483379101908152919050565b60008251615b4c818460208701615f61565b9190910192915050565b6bffffffffffffffffffffffff19606093841b811682529190921b16601482015260280190565b61190160f01b81526002810192909252602282015260420190565b6001600160a01b0391909116815260200190565b6001600160a01b039384168152919092166020820152604081019190915260600190565b6001600160a01b03831681526040810160038310615bea57fe5b8260208301529392505050565b6001600160a01b03929092168252602082015260400190565b600060608252615c2360608301866159d4565b8281036020840152615c358186615a0c565b9050828103604084015261144e8185615a0c565b600060808252615c5c60808301886159d4565b8281036020840152615c6e8188615a0c565b90508281036040840152615c828187615a0c565b905082810360608401528381528385602083013781602085830101526020601f19601f8601168201019150509695505050505050565b600060608252615ccb60608301866159d4565b8281036020840152615cdd8186615a0c565b915050826040830152949350505050565b60006020825261080e6020830184615a0c565b901515815260200190565b92151583526020830191909152604082015260600190565b90815260200190565b9182526001600160a01b0316602082015260400190565b60008882526001600160a01b03808916602084015280881660408401525060e06060830152615d7660e0830187615a0c565b8560808401528460a084015282810360c0840152613fd18185615a3b565b60008482526040602083015261445060408301848661598c565b60008682526020606081840152615dc960608401878961598c565b838103604085015284815285908201835b86811015615e08578235615ded81615f8d565b6001600160a01b031682529183019190830190600101615dda565b509998505050505050505050565b94855260208501939093526001600160a01b039190911660408401526060830152608082015260a00190565b9485526020850193909352604084019190915260608301526001600160a01b0316608082015260a00190565b93845260ff9290921660208401526040830152606082015260800190565b600060808252615e9f6080830187615a67565b8281036020840152615eb18187615a0c565b604084019590955250506060015292915050565b600060608252615ed86060830186615a67565b60208301949094525060400152919050565b918252602082015260400190565b938452602084019290925260408301526001600160a01b0316606082015260800190565b6040518181016001600160401b0381118282101715615f3a57600080fd5b604052919050565b60006001600160401b03821115615f57578081fd5b5060209081020190565b60005b83811015615f7c578181015183820152602001615f64565b838111156113035750506000910152565b6001600160a01b038116811461072557600080fd5b801515811461072557600080fd5b6003811061072557600080fdfea26469706673582212207a894c014589c3e30bc5a639a8fe6fb1b54cbbc8899788ea284f50679b0475fe64736f6c6343000701003360a060405234801561001057600080fd5b50604051610ae1380380610ae183398101604081905261002f91610049565b600160005560601b6001600160601b031916608052610077565b60006020828403121561005a578081fd5b81516001600160a01b0381168114610070578182fd5b9392505050565b60805160601c610a486100996000398061038d52806104b95250610a486000f3fe608060405234801561001057600080fd5b50600436106100885760003560e01c8063e92d0d5d1161005b578063e92d0d5d146100e8578063f03592cf146100fb578063fbfa77cf1461011b578063fd90c2be1461012357610088565b806334e199071461008d5780636daefab6146100a2578063aaabadc5146100b5578063d4cadf68146100d3575b600080fd5b6100a061009b3660046108b0565b61012b565b005b6100a06100b0366004610725565b61018a565b6100bd61021c565b6040516100ca9190610945565b60405180910390f35b6100db61022b565b6040516100ca91906109cd565b6100a06100f63660046108b0565b610231565b61010e6101093660046107a6565b610284565b6040516100ca9190610972565b6100bd61038b565b6100db6103af565b6101336103b5565b61014a6706f05b59d3b200008211156102bc610406565b60018190556040517f9cabc14d438714dbcd9292df9b3f89c42f98acd93a675ad72cd6033777e9b8e79061017f9083906109cd565b60405180910390a150565b610192610418565b61019a6103b5565b6101a48483610431565b60005b8481101561020c5760008686838181106101bd57fe5b90506020020160208101906101d29190610894565b905060008585848181106101e257fe5b6020029190910135915061020290506001600160a01b038316858361043e565b50506001016101a7565b506102156104ae565b5050505050565b60006102266104b5565b905090565b60015490565b6102396103b5565b61024f662386f26fc100008211156102bd610406565b60028190556040517f615aafc8dd47d9882eabcfd0e1a08060b087e4402d36ccbe79fd149b7bc099689061017f9083906109cd565b6060815167ffffffffffffffff8111801561029e57600080fd5b506040519080825280602002602001820160405280156102c8578160200160208202803683370190505b50905060005b8251811015610385578281815181106102e357fe5b60200260200101516001600160a01b03166370a08231306040518263ffffffff1660e01b81526004016103169190610945565b60206040518083038186803b15801561032e57600080fd5b505afa158015610342573d6000803e3d6000fd5b505050506040513d601f19601f8201168201806040525081019061036691906108c8565b82828151811061037257fe5b60209081029190910101526001016102ce565b50919050565b7f000000000000000000000000000000000000000000000000000000000000000081565b60025490565b6000306000356001600160e01b0319166040516020016103d69291906108e0565b6040516020818303038152906040528051906020012090506104036103fb8233610548565b6101f5610406565b50565b8161041457610414816105d8565b5050565b61042a600260005414156101f4610406565b6002600055565b6104148183146067610406565b6104a98363a9059cbb60e01b848460405160240161045d929190610959565b60408051601f198184030181529190526020810180517bffffffffffffffffffffffffffffffffffffffffffffffffffffffff166001600160e01b03199093169290921790915261062b565b505050565b6001600055565b60007f00000000000000000000000000000000000000000000000000000000000000006001600160a01b031663aaabadc56040518163ffffffff1660e01b815260040160206040518083038186803b15801561051057600080fd5b505afa158015610524573d6000803e3d6000fd5b505050506040513d601f19601f820116820180604052508101906102269190610878565b60006105526104b5565b6001600160a01b03166391d1485484846040518363ffffffff1660e01b815260040161057f9291906109b6565b60206040518083038186803b15801561059757600080fd5b505afa1580156105ab573d6000803e3d6000fd5b505050506040513d601f19601f820116820180604052508101906105cf9190610851565b90505b92915050565b62461bcd60e51b6000908152602060045260076024526642414c23000030600a808404818106603090810160081b95839006959095019082900491820690940160101b939093010160c81b604452606490fd5b60006060836001600160a01b031683604051610647919061090c565b6000604051808303816000865af19150503d8060008114610684576040519150601f19603f3d011682016040523d82523d6000602084013e610689565b606091505b509150915060008214156106a1573d6000803e3d6000fd5b6106cb8151600014806106c35750818060200190518101906106c39190610851565b610207610406565b50505050565b60008083601f8401126106e2578182fd5b50813567ffffffffffffffff8111156106f9578182fd5b602083019150836020808302850101111561071357600080fd5b9250929050565b80356105d2816109fd565b60008060008060006060868803121561073c578081fd5b853567ffffffffffffffff80821115610753578283fd5b61075f89838a016106d1565b90975095506020880135915080821115610777578283fd5b50610784888289016106d1565b9094509250506040860135610798816109fd565b809150509295509295909350565b600060208083850312156107b8578182fd5b823567ffffffffffffffff808211156107cf578384fd5b818501915085601f8301126107e2578384fd5b8135818111156107f0578485fd5b83810291506108008483016109d6565b8181528481019084860184860187018a101561081a578788fd5b8795505b83861015610844576108308a8261071a565b83526001959095019491860191860161081e565b5098975050505050505050565b600060208284031215610862578081fd5b81518015158114610871578182fd5b9392505050565b600060208284031215610889578081fd5b8151610871816109fd565b6000602082840312156108a5578081fd5b8135610871816109fd565b6000602082840312156108c1578081fd5b5035919050565b6000602082840312156108d9578081fd5b5051919050565b60609290921b6bffffffffffffffffffffffff191682526001600160e01b031916601482015260180190565b60008251815b8181101561092c5760208186018101518583015201610912565b8181111561093a5782828501525b509190910192915050565b6001600160a01b0391909116815260200190565b6001600160a01b03929092168252602082015260400190565b6020808252825182820181905260009190848201906040850190845b818110156109aa5783518352928401929184019160010161098e565b50909695505050505050565b9182526001600160a01b0316602082015260400190565b90815260200190565b60405181810167ffffffffffffffff811182821017156109f557600080fd5b604052919050565b6001600160a01b038116811461040357600080fdfea2646970667358221220b50106f494c9360cd9da070f484b01e025b7822d6e604946986f738cd16433ba64736f6c63430007010033"
}