{
  "_format": "hh-sol-artifact-1",
  "contractName": "SiloLinearPoolRebalancer",
  "sourceName": "contracts/silo-linear-pool/SiloLinearPoolRebalancer.sol",
  "abi": [
    {
      "inputs": [
        {
          "internalType": "contract IVault",
          "name": "vault",
          "type": "address"
        },
        {
          "internalType": "contract IBalancerQueries",
          "name": "queries",
          "type": "address"
        },
        {
          "internalType": "address",
          "name": "wrappedToken",
          "type": "address"
        }
      ],
      "stateMutability": "nonpayable",
      "type": "constructor"
    },
    {
      "inputs": [],
      "name": "getPool",
      "outputs": [
        {
          "internalType": "contract ILinearPool",
          "name": "",
          "type": "address"
        }
      ],
      "stateMutability": "view",
      "type": "function"
    },
    {
      "inputs": [
        {
          "internalType": "address",
          "name": "recipient",
          "type": "address"
        }
      ],
      "name": "rebalance",
      "outputs": [
        {
          "internalType": "uint256",
          "name": "",
          "type": "uint256"
        }
      ],
      "stateMutability": "nonpayable",
      "type": "function"
    },
    {
      "inputs": [
        {
          "internalType": "address",
          "name": "recipient",
          "type": "address"
        },
        {
          "internalType": "uint256",
          "name": "extraMain",
          "type": "uint256"
        }
      ],
      "name": "rebalanceWithExtraMain",
      "outputs": [
        {
          "internalType": "uint256",
          "name": "",
          "type": "uint256"
        }
      ],
      "stateMutability": "nonpayable",
      "type": "function"
    }
  ],
  "bytecode": "0x6101606040523480156200001257600080fd5b50604051620024f8380380620024f883398101604081905262000035916200051c565b336001600160a01b0316635ed312826040518163ffffffff1660e01b815260040160206040518083038186803b1580156200006f57600080fd5b505afa15801562000084573d6000803e3d6000fd5b505050506040513d601f19601f82011682018060405250810190620000aa919062000432565b8383826001600160a01b0316631dd746ea6040518163ffffffff1660e01b815260040160006040518083038186803b158015620000e657600080fd5b505afa158015620000fb573d6000803e3d6000fd5b505050506040513d6000823e601f3d908101601f1916820160405262000125919081019062000458565b836001600160a01b0316634d64cd746040518163ffffffff1660e01b815260040160206040518083038186803b1580156200015f57600080fd5b505afa15801562000174573d6000803e3d6000fd5b505050506040513d601f19601f820116820180604052508101906200019a919062000503565b81518110620001a557fe5b602090810291909101810151610100526001600160601b0319606085901b166080526040805163038fff2d60e41b815290516001600160a01b038616926338fff2d09260048082019391829003018186803b1580156200020457600080fd5b505afa15801562000219573d6000803e3d6000fd5b505050506040513d601f19601f820116820180604052508101906200023f919062000503565b60a08181525050826001600160a01b0316634de046d56040518163ffffffff1660e01b815260040160206040518083038186803b1580156200028057600080fd5b505afa15801562000295573d6000803e3d6000fd5b505050506040513d601f19601f82011682018060405250810190620002bb919062000432565b6001600160a01b031660c0816001600160a01b031660601b81525050826001600160a01b031663f174e2416040518163ffffffff1660e01b815260040160206040518083038186803b1580156200031157600080fd5b505afa15801562000326573d6000803e3d6000fd5b505050506040513d601f19601f820116820180604052508101906200034c919062000432565b606090811b6001600160601b031990811660e05292811b8316610120521b166101405250600080546001600160a01b0319166001600160a01b0383811691909117918290556040805163eb3beb2960e01b81529051929091169163eb3beb2991600480820192602092909190829003018186803b158015620003cd57600080fd5b505afa158015620003e2573d6000803e3d6000fd5b505050506040513d601f19601f8201168201806040525081019062000408919062000432565b600180546001600160a01b0319166001600160a01b039290921691909117905550620005af915050565b60006020828403121562000444578081fd5b8151620004518162000596565b9392505050565b600060208083850312156200046b578182fd5b82516001600160401b038082111562000482578384fd5b818501915085601f83011262000496578384fd5b815181811115620004a5578485fd5b8381029150620004b78483016200056f565b8181528481019084860184860187018a1015620004d2578788fd5b8795505b83861015620004f6578051835260019590950194918601918601620004d6565b5098975050505050505050565b60006020828403121562000515578081fd5b5051919050565b60008060006060848603121562000531578182fd5b83516200053e8162000596565b6020850151909350620005518162000596565b6040850151909250620005648162000596565b809150509250925092565b6040518181016001600160401b03811182821017156200058e57600080fd5b604052919050565b6001600160a01b0381168114620005ac57600080fd5b50565b60805160601c60a05160c05160601c60e05160601c610100516101205160601c6101405160601c611e66620006926000398061049f52806107765250806101285280610b355280610e5a5280610eaf52508061037c52508061041c528061052f52806106c4528061084152508060dd528061017852806103ed528061056252806105ba528061064e52806106f352806108065280610bb85280610c1f5280610f1d5280610f5c5280610fc652508061015752806103bf528061069652806109c55280610a8a5280610d095280610dce525080609952806102d35250611e666000f3fe608060405234801561001057600080fd5b50600436106100415760003560e01c8063026b1d5f1461004657806321c2819114610064578063df633d8d14610084575b600080fd5b61004e610097565b60405161005b9190611be5565b60405180910390f35b6100776100723660046119b7565b6100bb565b60405161005b9190611db5565b6100776100923660046119d3565b6100ce565b7f000000000000000000000000000000000000000000000000000000000000000090565b60006100c682610117565b90505b919050565b60006101056001600160a01b037f000000000000000000000000000000000000000000000000000000000000000016333085610241565b61010e83610117565b90505b92915050565b6000806101226102cc565b905060007f00000000000000000000000000000000000000000000000000000000000000006001600160a01b031663b05f8e487f00000000000000000000000000000000000000000000000000000000000000007f00000000000000000000000000000000000000000000000000000000000000006040518363ffffffff1660e01b81526004016101b4929190611d06565b60806040518083038186803b1580156101cc57600080fd5b505afa1580156101e0573d6000803e3d6000fd5b505050506040513d601f19601f820116820180604052508101906102049190611b52565b5050509050818110156102265761021d818303856103a8565b925050506100c9565b8181111561023a5761021d8282038561067f565b5050919050565b6102c6846323b872dd60e01b85858560405160240161026293929190611c13565b60408051601f198184030181529190526020810180517bffffffffffffffffffffffffffffffffffffffffffffffffffffffff167fffffffff0000000000000000000000000000000000000000000000000000000090931692909217909152610866565b50505050565b60008060007f00000000000000000000000000000000000000000000000000000000000000006001600160a01b03166363fe3b566040518163ffffffff1660e01b8152600401604080518083038186803b15801561032957600080fd5b505afa15801561033d573d6000803e3d6000fd5b505050506040513d601f19601f820116820180604052508101906103619190611b2f565b91509150600060028284018161037357fe5b0490506103a0817f0000000000000000000000000000000000000000000000000000000000000000610906565b935050505090565b60006103b26118a8565b6040805160c081019091527f0000000000000000000000000000000000000000000000000000000000000000815260208101600081526020017f00000000000000000000000000000000000000000000000000000000000000006001600160a01b031681526020017f00000000000000000000000000000000000000000000000000000000000000006001600160a01b0316815260200185815260200160405180602001604052806000815250815250905061046c6118f1565b6040517fe969f6b30000000000000000000000000000000000000000000000000000000081526000906001600160a01b037f0000000000000000000000000000000000000000000000000000000000000000169063e969f6b3906104d69086908690600401611d1d565b602060405180830381600087803b1580156104f057600080fd5b505af1158015610504573d6000803e3d6000fd5b505050506040513d601f19601f820116820180604052508101906105289190611b17565b90506105547f000000000000000000000000000000000000000000000000000000000000000082610959565b61055d81610ba3565b6105877f000000000000000000000000000000000000000000000000000000000000000087610c9d565b6040517f70a082310000000000000000000000000000000000000000000000000000000081526000906001600160a01b037f000000000000000000000000000000000000000000000000000000000000000016906370a08231906105ef903090600401611be5565b60206040518083038186803b15801561060757600080fd5b505afa15801561061b573d6000803e3d6000fd5b505050506040513d601f19601f8201168201806040525081019061063f9190611b17565b90506106756001600160a01b037f0000000000000000000000000000000000000000000000000000000000000000168783610ee4565b9695505050505050565b60006106896118a8565b6040805160c081019091527f0000000000000000000000000000000000000000000000000000000000000000815260208101600181526020017f00000000000000000000000000000000000000000000000000000000000000006001600160a01b031681526020017f00000000000000000000000000000000000000000000000000000000000000006001600160a01b031681526020018581526020016040518060200160405280600081525081525090506107436118f1565b6040517fe969f6b30000000000000000000000000000000000000000000000000000000081526000906001600160a01b037f0000000000000000000000000000000000000000000000000000000000000000169063e969f6b3906107ad9086908690600401611d1d565b602060405180830381600087803b1580156107c757600080fd5b505af11580156107db573d6000803e3d6000fd5b505050506040513d601f19601f820116820180604052508101906107ff9190611b17565b905061082b7f000000000000000000000000000000000000000000000000000000000000000087610959565b61083c61083782610f08565b610f4b565b6105877f000000000000000000000000000000000000000000000000000000000000000082610c9d565b60006060836001600160a01b0316836040516108829190611bc9565b6000604051808303816000865af19150503d80600081146108bf576040519150601f19603f3d011682016040523d82523d6000602084013e6108c4565b606091505b509150915060008214156108dc573d6000803e3d6000fd5b6102c68151600014806108fe5750818060200190518101906108fe91906119fe565b6101a2611044565b60006109158215156004611044565b670de0b6b3a764000083026109478415806109405750670de0b6b3a764000085838161093d57fe5b04145b6005611044565b82818161095057fe5b04949350505050565b6040805160028082526060828101909352816020015b610977611918565b81526020019060019003908161096f57905050905060008160008151811061099b57fe5b60200260200101516000019060028111156109b257fe5b908160028111156109bf57fe5b815250507f0000000000000000000000000000000000000000000000000000000000000000816000815181106109f157fe5b602002602001015160200181815250508181600081518110610a0f57fe5b602002602001015160600181815250508281600081518110610a2d57fe5b6020026020010151604001906001600160a01b031690816001600160a01b031681525050600281600181518110610a6057fe5b6020026020010151600001906002811115610a7757fe5b90816002811115610a8457fe5b815250507f000000000000000000000000000000000000000000000000000000000000000081600181518110610ab657fe5b60200260200101516020018181525050600081600181518110610ad557fe5b602002602001015160600181815250508281600181518110610af357fe5b60209081029190910101516001600160a01b03918216604091820152517fe6c460920000000000000000000000000000000000000000000000000000000081527f00000000000000000000000000000000000000000000000000000000000000009091169063e6c4609290610b6c908490600401611c8f565b600060405180830381600087803b158015610b8657600080fd5b505af1158015610b9a573d6000803e3d6000fd5b50505050505050565b600154600090610bdd906001600160a01b03167f000000000000000000000000000000000000000000000000000000000000000084611056565b6001546040517fead5d3590000000000000000000000000000000000000000000000000000000081529192506001600160a01b03169063ead5d35990610c4c907f0000000000000000000000000000000000000000000000000000000000000000908590600090600401611c6c565b6040805180830381600087803b158015610c6557600080fd5b505af1158015610c79573d6000803e3d6000fd5b505050506040513d601f19601f820116820180604052508101906102c69190611b2f565b6040805160028082526060828101909352816020015b610cbb611918565b815260200190600190039081610cb3579050509050600281600081518110610cdf57fe5b6020026020010151600001906002811115610cf657fe5b90816002811115610d0357fe5b815250507f000000000000000000000000000000000000000000000000000000000000000081600081518110610d3557fe5b602002602001015160200181815250508181600081518110610d5357fe5b602002602001015160600181815250508281600081518110610d7157fe5b6020026020010151604001906001600160a01b031690816001600160a01b031681525050600181600181518110610da457fe5b6020026020010151600001906002811115610dbb57fe5b90816002811115610dc857fe5b815250507f000000000000000000000000000000000000000000000000000000000000000081600181518110610dfa57fe5b602002602001015160200181815250508181600181518110610e1857fe5b602002602001015160600181815250508281600181518110610e3657fe5b60209081029190910101516001600160a01b03918216604090910152610e7f9084167f00000000000000000000000000000000000000000000000000000000000000008461107a565b6040517fe6c460920000000000000000000000000000000000000000000000000000000081526001600160a01b037f0000000000000000000000000000000000000000000000000000000000000000169063e6c4609290610b6c908490600401611c8f565b610f038363a9059cbb60e01b8484604051602401610262929190611c53565b505050565b600154600090610f42906001600160a01b03167f000000000000000000000000000000000000000000000000000000000000000084611056565b60010192915050565b600154610f85906001600160a01b037f0000000000000000000000000000000000000000000000000000000000000000811691168361107a565b6001546040517f3edd11280000000000000000000000000000000000000000000000000000000081526001600160a01b0390911690633edd112890610ff3907f0000000000000000000000000000000000000000000000000000000000000000908590600090600401611c6c565b6040805180830381600087803b15801561100c57600080fd5b505af1158015611020573d6000803e3d6000fd5b505050506040513d601f19601f82011682018060405250810190610f039190611b2f565b816110525761105281611162565b5050565b600080611063858561118f565b905061106f83826112e3565b9150505b9392505050565b801580159061111e57506040517fdd62ed3e0000000000000000000000000000000000000000000000000000000081526001600160a01b0384169063dd62ed3e906110cb9030908690600401611bf9565b60206040518083038186803b1580156110e357600080fd5b505afa1580156110f7573d6000803e3d6000fd5b505050506040513d601f19601f8201168201806040525081019061111b9190611b17565b15155b15611143576111438363095ea7b360e01b846000604051602401610262929190611c37565b610f038363095ea7b360e01b8484604051602401610262929190611c53565b61118c817f42414c0000000000000000000000000000000000000000000000000000000000611316565b50565b6000611199611941565b6111a38484611391565b90506111ad611992565b6111b78585611470565b90506000816040015167ffffffffffffffff169050600083606001519050600084600001516001600160a01b03166318160ddd6040518163ffffffff1660e01b815260040160206040518083038186803b15801561121457600080fd5b505afa158015611228573d6000803e3d6000fd5b505050506040513d601f19601f8201168201806040525081019061124c9190611b17565b90504283146112cd5760006112618989611502565b9050600061126e8a6115f6565b90506000866020015190506000806000611295868c60a001516112e390919063ffffffff16565b9050670de0b6b3a76400008582020492508383850110156112b557831992505b82810391506112c488836116bf565b97505050505050505b6112d78282610906565b98975050505050505050565b60008282026113078415806113005750838583816112fd57fe5b04145b6003611044565b670de0b6b3a764000081610950565b7f08c379a000000000000000000000000000000000000000000000000000000000600090815260206004526007602452600a808404818106603090810160081b958390069590950190829004918206850160101b01602363ffffff0060e086901c160160181b0190930160c81b60445260e882901c90606490fd5b611399611941565b6040517fbf2730410000000000000000000000000000000000000000000000000000000081526001600160a01b0384169063bf273041906113de908590600401611be5565b60c06040518083038186803b1580156113f657600080fd5b505afa925050508015611426575060408051601f3d908101601f1916820190925261142391810190611a9f565b60015b611469573d808015611454576040519150601f19603f3d011682016040523d82523d6000602084013e611459565b606091505b50611463816116d1565b50610111565b9050610111565b611478611992565b6040517ffb2557030000000000000000000000000000000000000000000000000000000081526001600160a01b0384169063fb255703906114bd908590600401611be5565b60806040518083038186803b1580156114d557600080fd5b505afa925050508015611426575060408051601f3d908101601f1916820190925261142391810190611a3a565b60008061150f8484611758565b6040517fb1e017650000000000000000000000000000000000000000000000000000000081529091506001600160a01b0382169063b1e017659061155b90879087904290600401611c13565b60206040518083038186803b15801561157357600080fd5b505afa9250505080156115a3575060408051601f3d908101601f191682019092526115a091810190611b17565b60015b6115e6573d8080156115d1576040519150601f19603f3d011682016040523d82523d6000602084013e6115d6565b606091505b506115e0816116d1565b506115ef565b91506101119050565b5092915050565b600080611602836117f3565b9050806001600160a01b03166325ed3d446040518163ffffffff1660e01b815260040160206040518083038186803b15801561163d57600080fd5b505afa92505050801561166d575060408051601f3d908101601f1916820190925261166a91810190611b17565b60015b6116b0573d80801561169b576040519150601f19603f3d011682016040523d82523d6000602084013e6116a0565b606091505b506116aa816116d1565b506116b9565b91506100c99050565b50919050565b600082820161010e8482101583611044565b805160208201517fffffffff00000000000000000000000000000000000000000000000000000000167f43adbafb0000000000000000000000000000000000000000000000000000000081147ffa61cc120000000000000000000000000000000000000000000000000000000082141761174c578160208401fd5b50611052610165611162565b600080611764846117f3565b6040517f48b3eabc0000000000000000000000000000000000000000000000000000000081529091506001600160a01b038216906348b3eabc906117ae9087908790600401611bf9565b60206040518083038186803b1580156117c657600080fd5b505afa9250505080156115a3575060408051601f3d908101601f191682019092526115a091810190611a1e565b6000816001600160a01b031663bde127186040518163ffffffff1660e01b815260040160206040518083038186803b15801561182e57600080fd5b505afa92505050801561185e575060408051601f3d908101601f1916820190925261185b91810190611a1e565b60015b6118a1573d80801561188c576040519150601f19603f3d011682016040523d82523d6000602084013e611891565b606091505b5061189b816116d1565b506100c9565b90506100c9565b6040805160c0810190915260008082526020820190815260200160006001600160a01b0316815260200160006001600160a01b0316815260200160008152602001606081525090565b60408051608081018252600080825260208201819052918101829052606081019190915290565b604080516080810190915280600081526000602082018190526040820181905260609091015290565b6040518060c0016040528060006001600160a01b0316815260200160006001600160a01b0316815260200160006001600160a01b031681526020016000815260200160008152602001600081525090565b6040805160808101825260008082526020820181905291810182905290606082015290565b6000602082840312156119c8578081fd5b813561010e81611e1b565b600080604083850312156119e5578081fd5b82356119f081611e1b565b946020939093013593505050565b600060208284031215611a0f578081fd5b8151801515811461010e578182fd5b600060208284031215611a2f578081fd5b815161010e81611e1b565b600060808284031215611a4b578081fd5b611a556080611dbe565b8251815260208301516020820152604083015167ffffffffffffffff81168114611a7d578283fd5b6040820152606083015160038110611a93578283fd5b60608201529392505050565b600060c08284031215611ab0578081fd5b611aba60c0611dbe565b8251611ac581611e1b565b81526020830151611ad581611e1b565b60208201526040830151611ae881611e1b565b80604083015250606083015160608201526080830151608082015260a083015160a08201528091505092915050565b600060208284031215611b28578081fd5b5051919050565b60008060408385031215611b41578182fd5b505080516020909101519092909150565b60008060008060808587031215611b67578182fd5b8451935060208501519250604085015191506060850151611b8781611e1b565b939692955090935050565b6001600160a01b03808251168352602082015115156020840152806040830151166040840152506060810151151560608301525050565b60008251611bdb818460208701611de5565b9190910192915050565b6001600160a01b0391909116815260200190565b6001600160a01b0392831681529116602082015260400190565b6001600160a01b039384168152919092166020820152604081019190915260600190565b6001600160a01b0392909216825260ff16602082015260400190565b6001600160a01b03929092168252602082015260400190565b6001600160a01b0393909316835260208301919091521515604082015260600190565b602080825282518282018190526000919060409081850190868401855b82811015611cf9578151805160038110611cc257fe5b85528087015187860152858101516001600160a01b0316868601526060908101519085015260809093019290850190600101611cac565b5091979650505050505050565b9182526001600160a01b0316602082015260400190565b600060a08252835160a08301526020840151611d3881611e11565b8060c08401525060408401516001600160a01b0380821660e0850152806060870151166101008501525050608084015161012083015260a084015160c0610140840152805180610160850152610180611d978282870160208601611de5565b80601f19601f84011686010193505050506110736020830184611b92565b90815260200190565b60405181810167ffffffffffffffff81118282101715611ddd57600080fd5b604052919050565b60005b83811015611e00578181015183820152602001611de8565b838111156102c65750506000910152565b6002811061118c57fe5b6001600160a01b038116811461118c57600080fdfea264697066735822122090e565ce6d4b10ae5de465aaed55049ecc172eb4d46de92acd33f0a9fb4cf84164736f6c63430007010033",
  "linkReferences": {},
  "deployedLinkReferences": {}
}