{
  "_format": "hh-sol-artifact-1",
  "contractName": "TimelockAuthorizerTransitionMigrator",
  "sourceName": "contracts/TimelockAuthorizerTransitionMigrator.sol",
  "abi": [
    {
      "inputs": [
        {
          "internalType": "contract IBasicAuthorizer",
          "name": "_oldAuthorizer",
          "type": "address"
        },
        {
          "internalType": "contract TimelockAuthorizer",
          "name": "_timelockAuthorizer",
          "type": "address"
        },
        {
          "components": [
            {
              "internalType": "address",
              "name": "grantee",
              "type": "address"
            },
            {
              "internalType": "bytes32",
              "name": "role",
              "type": "bytes32"
            },
            {
              "internalType": "address",
              "name": "target",
              "type": "address"
            }
          ],
          "internalType": "struct TimelockAuthorizerTransitionMigrator.RoleData[]",
          "name": "_rolesData",
          "type": "tuple[]"
        }
      ],
      "stateMutability": "nonpayable",
      "type": "constructor"
    },
    {
      "anonymous": false,
      "inputs": [
        {
          "indexed": true,
          "internalType": "bytes32",
          "name": "role",
          "type": "bytes32"
        },
        {
          "indexed": true,
          "internalType": "address",
          "name": "grantee",
          "type": "address"
        },
        {
          "indexed": true,
          "internalType": "address",
          "name": "target",
          "type": "address"
        }
      ],
      "name": "PermissionSkipped",
      "type": "event"
    },
    {
      "inputs": [],
      "name": "migratePermissions",
      "outputs": [],
      "stateMutability": "nonpayable",
      "type": "function"
    },
    {
      "inputs": [],
      "name": "oldAuthorizer",
      "outputs": [
        {
          "internalType": "contract IBasicAuthorizer",
          "name": "",
          "type": "address"
        }
      ],
      "stateMutability": "view",
      "type": "function"
    },
    {
      "inputs": [
        {
          "internalType": "uint256",
          "name": "",
          "type": "uint256"
        }
      ],
      "name": "rolesData",
      "outputs": [
        {
          "internalType": "address",
          "name": "grantee",
          "type": "address"
        },
        {
          "internalType": "bytes32",
          "name": "role",
          "type": "bytes32"
        },
        {
          "internalType": "address",
          "name": "target",
          "type": "address"
        }
      ],
      "stateMutability": "view",
      "type": "function"
    },
    {
      "inputs": [],
      "name": "timelockAuthorizer",
      "outputs": [
        {
          "internalType": "contract TimelockAuthorizer",
          "name": "",
          "type": "address"
        }
      ],
      "stateMutability": "view",
      "type": "function"
    }
  ],
  "bytecode": "0x60c06040523480156200001157600080fd5b5060405162000ada38038062000ada833981016040819052620000349162000298565b6001600160601b0319606084811b821660805283901b1660a05260005b8151811015620001f15762000065620001fb565b8282815181106200007257fe5b60200260200101519050846001600160a01b0316639be2a8848260200151836000015184604001516040518463ffffffff1660e01b8152600401620000ba939291906200037c565b60206040518083038186803b158015620000d357600080fd5b505afa158015620000e8573d6000803e3d6000fd5b505050506040513d601f19601f820116820180604052508101906200010e91906200026f565b620001365760405162461bcd60e51b81526004016200012d906200039b565b60405180910390fd5b600080546001808201835591805282517f290decd9548b62a8d60345a988386fc84ba6bc95484008f6362f93160ef3e563600390920291820180546001600160a01b03199081166001600160a01b039384161790915560208501517f290decd9548b62a8d60345a988386fc84ba6bc95484008f6362f93160ef3e5648401556040909401517f290decd9548b62a8d60345a988386fc84ba6bc95484008f6362f93160ef3e56590920180549094169116179091550162000051565b5050505062000404565b604080516060810182526000808252602082018190529181019190915290565b6000606082840312156200022d578081fd5b620002396060620003c4565b905081516200024881620003eb565b81526020828101519082015260408201516200026481620003eb565b604082015292915050565b60006020828403121562000281578081fd5b8151801515811462000291578182fd5b9392505050565b60008060006060808587031215620002ae578283fd5b8451620002bb81620003eb565b80945050602080860151620002d081620003eb565b60408701519094506001600160401b0380821115620002ed578485fd5b818801915088601f83011262000301578485fd5b81518181111562000310578586fd5b6200031f8485830201620003c4565b8181528481019250838501868302850186018c10156200033d578788fd5b8794505b828510156200036b57620003568c826200021b565b84526001949094019392850192860162000341565b508096505050505050509250925092565b9283526001600160a01b03918216602084015216604082015260600190565b6020808252600f908201526e554e45585045435445445f524f4c4560881b604082015260600190565b6040518181016001600160401b0381118282101715620003e357600080fd5b604052919050565b6001600160a01b03811681146200040157600080fd5b50565b60805160601c60a05160601c6106a3620004376000398060a552806102655250806101d752806103d052506106a36000f3fe608060405234801561001057600080fd5b506004361061004c5760003560e01c80633d6b35b114610051578063866658221461006f5780639c76319514610079578063c6bfe9ae1461009b575b600080fd5b6100596100a3565b60405161006691906105fc565b60405180910390f35b6100776100c7565b005b61008c6100873660046104e9565b610386565b60405161006693929190610501565b6100596103ce565b7f000000000000000000000000000000000000000000000000000000000000000081565b60015460ff161561010d576040517f08c379a00000000000000000000000000000000000000000000000000000000081526004016101049061061d565b60405180910390fd5b600180547fffffffffffffffffffffffffffffffffffffffffffffffffffffffffffffff00168117905560008054905b818110156103825761014d6104a2565b6000828154811061015a57fe5b6000918252602091829020604080516060810182526003909302909101805473ffffffffffffffffffffffffffffffffffffffff9081168085526001830154958501869052600290920154811684840181905292517f9be2a8840000000000000000000000000000000000000000000000000000000081529395507f00000000000000000000000000000000000000000000000000000000000000001693639be2a8849361020e93919291906004016105d0565b60206040518083038186803b15801561022657600080fd5b505afa15801561023a573d6000803e3d6000fd5b505050506040513d601f19601f8201168201806040525081019061025e91906104c2565b15610311577f000000000000000000000000000000000000000000000000000000000000000073ffffffffffffffffffffffffffffffffffffffff16636f8bc5966102ac83602001516103f2565b835160408501516102bc90610433565b6040518463ffffffff1660e01b81526004016102da93929190610531565b600060405180830381600087803b1580156102f457600080fd5b505af1158015610308573d6000803e3d6000fd5b50505050610379565b806040015173ffffffffffffffffffffffffffffffffffffffff16816000015173ffffffffffffffffffffffffffffffffffffffff1682602001517fbef2bec3f1473fa86e851888846fe82a6337ef167ee9529955a2c8ff97d88bb760405160405180910390a45b5060010161013d565b5050565b6000818154811061039357fe5b600091825260209091206003909102018054600182015460029092015473ffffffffffffffffffffffffffffffffffffffff91821693501683565b7f000000000000000000000000000000000000000000000000000000000000000081565b60408051600180825281830190925260609160208083019080368337019050509050818160008151811061042257fe5b602002602001018181525050919050565b60408051600180825281830190925260609160208083019080368337019050509050818160008151811061046357fe5b602002602001019073ffffffffffffffffffffffffffffffffffffffff16908173ffffffffffffffffffffffffffffffffffffffff1681525050919050565b604080516060810182526000808252602082018190529181019190915290565b6000602082840312156104d3578081fd5b815180151581146104e2578182fd5b9392505050565b6000602082840312156104fa578081fd5b5035919050565b73ffffffffffffffffffffffffffffffffffffffff93841681526020810192909252909116604082015260600190565b606080825284519082018190526000906020906080840190828801845b8281101561056a5781518452928401929084019060010161054e565b50505073ffffffffffffffffffffffffffffffffffffffff8616848301528381036040850152845180825285830191830190845b818110156105c2576105b08451610654565b8352928401929184019160010161059e565b509098975050505050505050565b92835273ffffffffffffffffffffffffffffffffffffffff918216602084015216604082015260600190565b73ffffffffffffffffffffffffffffffffffffffff91909116815260200190565b60208082526010908201527f414c52454144595f4d4947524154454400000000000000000000000000000000604082015260600190565b73ffffffffffffffffffffffffffffffffffffffff169056fea2646970667358221220bb9a397b7066661267dc4e560252d7cb472b0a164b8332b003c90f760b5157ba64736f6c63430007010033",
  "linkReferences": {},
  "deployedLinkReferences": {}
}