{"contracts/aave/protocol/libraries/helpers/Errors.sol":{"Errors":{"abi":[{"inputs":[],"name":"BORROW_ALLOWANCE_NOT_ENOUGH","outputs":[{"internalType":"string","name":"","type":"string"}],"stateMutability":"view","type":"function"},{"inputs":[],"name":"CALLER_NOT_POOL_ADMIN","outputs":[{"internalType":"string","name":"","type":"string"}],"stateMutability":"view","type":"function"},{"inputs":[],"name":"CT_CALLER_MUST_BE_LENDING_POOL","outputs":[{"internalType":"string","name":"","type":"string"}],"stateMutability":"view","type":"function"},{"inputs":[],"name":"CT_CANNOT_GIVE_ALLOWANCE_TO_HIMSELF","outputs":[{"internalType":"string","name":"","type":"string"}],"stateMutability":"view","type":"function"},{"inputs":[],"name":"CT_INVALID_BURN_AMOUNT","outputs":[{"internalType":"string","name":"","type":"string"}],"stateMutability":"view","type":"function"},{"inputs":[],"name":"CT_INVALID_MINT_AMOUNT","outputs":[{"internalType":"string","name":"","type":"string"}],"stateMutability":"view","type":"function"},{"inputs":[],"name":"CT_TRANSFER_AMOUNT_NOT_GT_0","outputs":[{"internalType":"string","name":"","type":"string"}],"stateMutability":"view","type":"function"},{"inputs":[],"name":"LPAPR_INVALID_ADDRESSES_PROVIDER_ID","outputs":[{"internalType":"string","name":"","type":"string"}],"stateMutability":"view","type":"function"},{"inputs":[],"name":"LPAPR_PROVIDER_NOT_REGISTERED","outputs":[{"internalType":"string","name":"","type":"string"}],"stateMutability":"view","type":"function"},{"inputs":[],"name":"LPCM_COLLATERAL_CANNOT_BE_LIQUIDATED","outputs":[{"internalType":"string","name":"","type":"string"}],"stateMutability":"view","type":"function"},{"inputs":[],"name":"LPCM_HEALTH_FACTOR_NOT_BELOW_THRESHOLD","outputs":[{"internalType":"string","name":"","type":"string"}],"stateMutability":"view","type":"function"},{"inputs":[],"name":"LPCM_NOT_ENOUGH_LIQUIDITY_TO_LIQUIDATE","outputs":[{"internalType":"string","name":"","type":"string"}],"stateMutability":"view","type":"function"},{"inputs":[],"name":"LPCM_NO_ERRORS","outputs":[{"internalType":"string","name":"","type":"string"}],"stateMutability":"view","type":"function"},{"inputs":[],"name":"LPCM_SPECIFIED_CURRENCY_NOT_BORROWED_BY_USER","outputs":[{"internalType":"string","name":"","type":"string"}],"stateMutability":"view","type":"function"},{"inputs":[],"name":"LPC_CALLER_NOT_EMERGENCY_ADMIN","outputs":[{"internalType":"string","name":"","type":"string"}],"stateMutability":"view","type":"function"},{"inputs":[],"name":"LPC_INVALID_ADDRESSES_PROVIDER_ID","outputs":[{"internalType":"string","name":"","type":"string"}],"stateMutability":"view","type":"function"},{"inputs":[],"name":"LPC_INVALID_ATOKEN_POOL_ADDRESS","outputs":[{"internalType":"string","name":"","type":"string"}],"stateMutability":"view","type":"function"},{"inputs":[],"name":"LPC_INVALID_CONFIGURATION","outputs":[{"internalType":"string","name":"","type":"string"}],"stateMutability":"view","type":"function"},{"inputs":[],"name":"LPC_INVALID_STABLE_DEBT_TOKEN_POOL_ADDRESS","outputs":[{"internalType":"string","name":"","type":"string"}],"stateMutability":"view","type":"function"},{"inputs":[],"name":"LPC_INVALID_STABLE_DEBT_TOKEN_UNDERLYING_ADDRESS","outputs":[{"internalType":"string","name":"","type":"string"}],"stateMutability":"view","type":"function"},{"inputs":[],"name":"LPC_INVALID_VARIABLE_DEBT_TOKEN_POOL_ADDRESS","outputs":[{"internalType":"string","name":"","type":"string"}],"stateMutability":"view","type":"function"},{"inputs":[],"name":"LPC_INVALID_VARIABLE_DEBT_TOKEN_UNDERLYING_ADDRESS","outputs":[{"internalType":"string","name":"","type":"string"}],"stateMutability":"view","type":"function"},{"inputs":[],"name":"LPC_RESERVE_LIQUIDITY_NOT_0","outputs":[{"internalType":"string","name":"","type":"string"}],"stateMutability":"view","type":"function"},{"inputs":[],"name":"LP_CALLER_MUST_BE_AN_ATOKEN","outputs":[{"internalType":"string","name":"","type":"string"}],"stateMutability":"view","type":"function"},{"inputs":[],"name":"LP_CALLER_NOT_LENDING_POOL_CONFIGURATOR","outputs":[{"internalType":"string","name":"","type":"string"}],"stateMutability":"view","type":"function"},{"inputs":[],"name":"LP_FAILED_COLLATERAL_SWAP","outputs":[{"internalType":"string","name":"","type":"string"}],"stateMutability":"view","type":"function"},{"inputs":[],"name":"LP_FAILED_REPAY_WITH_COLLATERAL","outputs":[{"internalType":"string","name":"","type":"string"}],"stateMutability":"view","type":"function"},{"inputs":[],"name":"LP_INCONSISTENT_FLASHLOAN_PARAMS","outputs":[{"internalType":"string","name":"","type":"string"}],"stateMutability":"view","type":"function"},{"inputs":[],"name":"LP_INCONSISTENT_PARAMS_LENGTH","outputs":[{"internalType":"string","name":"","type":"string"}],"stateMutability":"view","type":"function"},{"inputs":[],"name":"LP_INCONSISTENT_PROTOCOL_ACTUAL_BALANCE","outputs":[{"internalType":"string","name":"","type":"string"}],"stateMutability":"view","type":"function"},{"inputs":[],"name":"LP_INTEREST_RATE_REBALANCE_CONDITIONS_NOT_MET","outputs":[{"internalType":"string","name":"","type":"string"}],"stateMutability":"view","type":"function"},{"inputs":[],"name":"LP_INVALID_EQUAL_ASSETS_TO_SWAP","outputs":[{"internalType":"string","name":"","type":"string"}],"stateMutability":"view","type":"function"},{"inputs":[],"name":"LP_INVALID_FLASHLOAN_MODE","outputs":[{"internalType":"string","name":"","type":"string"}],"stateMutability":"view","type":"function"},{"inputs":[],"name":"LP_INVALID_FLASH_LOAN_EXECUTOR_RETURN","outputs":[{"internalType":"string","name":"","type":"string"}],"stateMutability":"view","type":"function"},{"inputs":[],"name":"LP_IS_PAUSED","outputs":[{"internalType":"string","name":"","type":"string"}],"stateMutability":"view","type":"function"},{"inputs":[],"name":"LP_LIQUIDATION_CALL_FAILED","outputs":[{"internalType":"string","name":"","type":"string"}],"stateMutability":"view","type":"function"},{"inputs":[],"name":"LP_NOT_CONTRACT","outputs":[{"internalType":"string","name":"","type":"string"}],"stateMutability":"view","type":"function"},{"inputs":[],"name":"LP_NOT_ENOUGH_LIQUIDITY_TO_BORROW","outputs":[{"internalType":"string","name":"","type":"string"}],"stateMutability":"view","type":"function"},{"inputs":[],"name":"LP_NOT_ENOUGH_STABLE_BORROW_BALANCE","outputs":[{"internalType":"string","name":"","type":"string"}],"stateMutability":"view","type":"function"},{"inputs":[],"name":"LP_NO_MORE_RESERVES_ALLOWED","outputs":[{"internalType":"string","name":"","type":"string"}],"stateMutability":"view","type":"function"},{"inputs":[],"name":"LP_REENTRANCY_NOT_ALLOWED","outputs":[{"internalType":"string","name":"","type":"string"}],"stateMutability":"view","type":"function"},{"inputs":[],"name":"LP_REQUESTED_AMOUNT_TOO_SMALL","outputs":[{"internalType":"string","name":"","type":"string"}],"stateMutability":"view","type":"function"},{"inputs":[],"name":"MATH_ADDITION_OVERFLOW","outputs":[{"internalType":"string","name":"","type":"string"}],"stateMutability":"view","type":"function"},{"inputs":[],"name":"MATH_DIVISION_BY_ZERO","outputs":[{"internalType":"string","name":"","type":"string"}],"stateMutability":"view","type":"function"},{"inputs":[],"name":"MATH_MULTIPLICATION_OVERFLOW","outputs":[{"internalType":"string","name":"","type":"string"}],"stateMutability":"view","type":"function"},{"inputs":[],"name":"RC_INVALID_DECIMALS","outputs":[{"internalType":"string","name":"","type":"string"}],"stateMutability":"view","type":"function"},{"inputs":[],"name":"RC_INVALID_LIQ_BONUS","outputs":[{"internalType":"string","name":"","type":"string"}],"stateMutability":"view","type":"function"},{"inputs":[],"name":"RC_INVALID_LIQ_THRESHOLD","outputs":[{"internalType":"string","name":"","type":"string"}],"stateMutability":"view","type":"function"},{"inputs":[],"name":"RC_INVALID_LTV","outputs":[{"internalType":"string","name":"","type":"string"}],"stateMutability":"view","type":"function"},{"inputs":[],"name":"RC_INVALID_RESERVE_FACTOR","outputs":[{"internalType":"string","name":"","type":"string"}],"stateMutability":"view","type":"function"},{"inputs":[],"name":"RL_LIQUIDITY_INDEX_OVERFLOW","outputs":[{"internalType":"string","name":"","type":"string"}],"stateMutability":"view","type":"function"},{"inputs":[],"name":"RL_LIQUIDITY_RATE_OVERFLOW","outputs":[{"internalType":"string","name":"","type":"string"}],"stateMutability":"view","type":"function"},{"inputs":[],"name":"RL_RESERVE_ALREADY_INITIALIZED","outputs":[{"internalType":"string","name":"","type":"string"}],"stateMutability":"view","type":"function"},{"inputs":[],"name":"RL_STABLE_BORROW_RATE_OVERFLOW","outputs":[{"internalType":"string","name":"","type":"string"}],"stateMutability":"view","type":"function"},{"inputs":[],"name":"RL_VARIABLE_BORROW_INDEX_OVERFLOW","outputs":[{"internalType":"string","name":"","type":"string"}],"stateMutability":"view","type":"function"},{"inputs":[],"name":"RL_VARIABLE_BORROW_RATE_OVERFLOW","outputs":[{"internalType":"string","name":"","type":"string"}],"stateMutability":"view","type":"function"},{"inputs":[],"name":"SDT_BURN_EXCEEDS_BALANCE","outputs":[{"internalType":"string","name":"","type":"string"}],"stateMutability":"view","type":"function"},{"inputs":[],"name":"SDT_STABLE_DEBT_OVERFLOW","outputs":[{"internalType":"string","name":"","type":"string"}],"stateMutability":"view","type":"function"},{"inputs":[],"name":"UL_INVALID_INDEX","outputs":[{"internalType":"string","name":"","type":"string"}],"stateMutability":"view","type":"function"},{"inputs":[],"name":"VL_AMOUNT_BIGGER_THAN_MAX_LOAN_SIZE_STABLE","outputs":[{"internalType":"string","name":"","type":"string"}],"stateMutability":"view","type":"function"},{"inputs":[],"name":"VL_BORROWING_NOT_ENABLED","outputs":[{"internalType":"string","name":"","type":"string"}],"stateMutability":"view","type":"function"},{"inputs":[],"name":"VL_COLLATERAL_BALANCE_IS_0","outputs":[{"internalType":"string","name":"","type":"string"}],"stateMutability":"view","type":"function"},{"inputs":[],"name":"VL_COLLATERAL_CANNOT_COVER_NEW_BORROW","outputs":[{"internalType":"string","name":"","type":"string"}],"stateMutability":"view","type":"function"},{"inputs":[],"name":"VL_COLLATERAL_SAME_AS_BORROWING_CURRENCY","outputs":[{"internalType":"string","name":"","type":"string"}],"stateMutability":"view","type":"function"},{"inputs":[],"name":"VL_CURRENT_AVAILABLE_LIQUIDITY_NOT_ENOUGH","outputs":[{"internalType":"string","name":"","type":"string"}],"stateMutability":"view","type":"function"},{"inputs":[],"name":"VL_DEPOSIT_ALREADY_IN_USE","outputs":[{"internalType":"string","name":"","type":"string"}],"stateMutability":"view","type":"function"},{"inputs":[],"name":"VL_HEALTH_FACTOR_LOWER_THAN_LIQUIDATION_THRESHOLD","outputs":[{"internalType":"string","name":"","type":"string"}],"stateMutability":"view","type":"function"},{"inputs":[],"name":"VL_INCONSISTENT_FLASHLOAN_PARAMS","outputs":[{"internalType":"string","name":"","type":"string"}],"stateMutability":"view","type":"function"},{"inputs":[],"name":"VL_INVALID_AMOUNT","outputs":[{"internalType":"string","name":"","type":"string"}],"stateMutability":"view","type":"function"},{"inputs":[],"name":"VL_INVALID_INTEREST_RATE_MODE_SELECTED","outputs":[{"internalType":"string","name":"","type":"string"}],"stateMutability":"view","type":"function"},{"inputs":[],"name":"VL_NOT_ENOUGH_AVAILABLE_USER_BALANCE","outputs":[{"internalType":"string","name":"","type":"string"}],"stateMutability":"view","type":"function"},{"inputs":[],"name":"VL_NO_ACTIVE_RESERVE","outputs":[{"internalType":"string","name":"","type":"string"}],"stateMutability":"view","type":"function"},{"inputs":[],"name":"VL_NO_DEBT_OF_SELECTED_TYPE","outputs":[{"internalType":"string","name":"","type":"string"}],"stateMutability":"view","type":"function"},{"inputs":[],"name":"VL_NO_EXPLICIT_AMOUNT_TO_REPAY_ON_BEHALF","outputs":[{"internalType":"string","name":"","type":"string"}],"stateMutability":"view","type":"function"},{"inputs":[],"name":"VL_NO_STABLE_RATE_LOAN_IN_RESERVE","outputs":[{"internalType":"string","name":"","type":"string"}],"stateMutability":"view","type":"function"},{"inputs":[],"name":"VL_NO_VARIABLE_RATE_LOAN_IN_RESERVE","outputs":[{"internalType":"string","name":"","type":"string"}],"stateMutability":"view","type":"function"},{"inputs":[],"name":"VL_RESERVE_FROZEN","outputs":[{"internalType":"string","name":"","type":"string"}],"stateMutability":"view","type":"function"},{"inputs":[],"name":"VL_STABLE_BORROWING_NOT_ENABLED","outputs":[{"internalType":"string","name":"","type":"string"}],"stateMutability":"view","type":"function"},{"inputs":[],"name":"VL_TRANSFER_NOT_ALLOWED","outputs":[{"internalType":"string","name":"","type":"string"}],"stateMutability":"view","type":"function"},{"inputs":[],"name":"VL_UNDERLYING_BALANCE_NOT_GREATER_THAN_0","outputs":[{"internalType":"string","name":"","type":"string"}],"stateMutability":"view","type":"function"}],"evm":{"bytecode":{"linkReferences":{},"object":"611a8a610026600b82828239805160001a60731461001957fe5b30600052607381538281f3fe730000000000000000000000000000000000000000301460806040526004361061058a5760003560e01c80636ba4271f116102e1578063cdad445a11610190578063e2c16d69116100ed578063f11c6720116100a1578063f902735d11610086578063f902735d1461086c578063fb681def14610874578063fe75fd261461087c5761058a565b8063f11c67201461085c578063f3d9cc11146108645761058a565b8063e7bf91b3116100d2578063e7bf91b314610844578063eca85d3a1461084c578063f0473259146108545761058a565b8063e2c16d6914610834578063e66327481461083c5761058a565b8063d7510e0c11610144578063daf2354711610129578063daf235471461081c578063e0d7dfd714610824578063e29425dc1461082c5761058a565b8063d7510e0c1461080c578063d7b079aa146108145761058a565b8063d44e8e8811610175578063d44e8e88146107f4578063d57bb964146107fc578063d6f681b6146108045761058a565b8063cdad445a146107e4578063d3e370ee146107ec5761058a565b8063a39ed4ff1161023e578063b89652cd116101f2578063c09e2618116101d7578063c09e2618146107cc578063c2d628df146107d4578063cc5fc44c146107dc5761058a565b8063b89652cd146107bc578063bd013f5b146107c45761058a565b8063ac75323611610223578063ac753236146107a4578063b36a2cf3146107ac578063b72e40c7146107b45761058a565b8063a39ed4ff14610794578063a84402411461079c5761058a565b80637865a6271161029557806391a9fb181161027a57806391a9fb181461077c5780639be4f03a14610784578063a2fbc8ad1461078c5761058a565b80637865a6271461076c578063871938a8146107745761058a565b8063708b8dd3116102c6578063708b8dd31461075457806371a629da1461075c57806376f19030146107645761058a565b80636ba4271f146107445780636d422aa11461074c5761058a565b80633aa786a81161043d5780634a529f911161039a578063614cf6a11161034e5780636422b257116103335780636422b2571461072c57806365344799146107345780636ab5e6151461073c5761058a565b8063614cf6a11461071c578063637a5a12146107245761058a565b806355bab12c1161037f57806355bab12c146107045780635a9786d41461070c5780635e869ff1146107145761058a565b80634a529f91146106f45780634fe4f1ab146106fc5761058a565b80634349e3d8116103f157806344dc4f70116103d657806344dc4f70146106dc57806347d25300146106e45780634927c63a146106ec5761058a565b80634349e3d8146106cc57806344942004146106d45761058a565b80633f5d6ec8116104225780633f5d6ec8146106b4578063407374a4146106bc57806341b40ba5146106c45761058a565b80633aa786a8146106a45780633b5d25aa146106ac5761058a565b806322a6f08e116104eb578063333e8ea81161049f57806336565ab11161048457806336565ab11461068c5780633872b0ad14610694578063390f34ba1461069c5761058a565b8063333e8ea81461067c57806335a9d21d146106845761058a565b80632b34c349116104d05780632b34c349146106645780632b9c57f61461066c5780632ea347b0146106745761058a565b806322a6f08e146106545780632ace698a1461065c5761058a565b80631291a38b116105425780631befa78d116105275780631befa78d1461063c5780631ea7c604146106445780631ec68b1d1461064c5761058a565b80631291a38b1461062c578063179476c5146106345761058a565b806306f355ad1161057357806306f355ad146106145780630b8fd5881461061c5780630f5ee482146106245761058a565b806302454ad31461058f578063029d23441461060c575b600080fd5b610597610884565b6040805160208082528351818301528351919283929083019185019080838360005b838110156105d15781810151838201526020016105b9565b50505050905090810190601f1680156105fe5780820380516001836020036101000a031916815260200191505b509250505060405180910390f35b6105976108bd565b6105976108f6565b61059761092f565b610597610968565b6105976109a1565b6105976109da565b610597610a13565b610597610a4c565b610597610a85565b610597610abe565b610597610af7565b610597610b30565b610597610b69565b610597610ba2565b610597610bdb565b610597610c14565b610597610c4d565b610597610c86565b610597610cbf565b610597610cf8565b610597610d31565b610597610d6a565b610597610da3565b610597610ddc565b610597610e15565b610597610e4e565b610597610e87565b610597610ec0565b610597610ef9565b610597610f32565b610597610f6b565b610597610fa4565b610597610fdd565b610597611016565b61059761104f565b610597611088565b6105976110c1565b6105976110fa565b610597611133565b61059761116c565b6105976111a5565b6105976111de565b610597611217565b610597611250565b610597611289565b6105976112c2565b6105976112fb565b610597611334565b61059761136d565b6105976113a6565b6105976113df565b610597611418565b610597611451565b61059761148a565b6105976114c3565b6105976114fc565b610597611535565b61059761156e565b6105976115a7565b6105976115e0565b610597611619565b610597611652565b61059761168b565b6105976116c4565b6105976116fd565b610597611736565b61059761176f565b6105976117a8565b6105976117e1565b61059761181a565b610597611853565b61059761188c565b6105976118c5565b6105976118fe565b610597611937565b610597611970565b6105976119a9565b6105976119e2565b610597611a1b565b6040518060400160405280600281526020017f373700000000000000000000000000000000000000000000000000000000000081525081565b6040518060400160405280600281526020017f343800000000000000000000000000000000000000000000000000000000000081525081565b6040518060400160405280600281526020017f333000000000000000000000000000000000000000000000000000000000000081525081565b6040518060400160405280600281526020017f323600000000000000000000000000000000000000000000000000000000000081525081565b6040518060400160405280600281526020017f343900000000000000000000000000000000000000000000000000000000000081525081565b6040518060400160405280600281526020017f353600000000000000000000000000000000000000000000000000000000000081525081565b6040518060400160405280600181526020017f340000000000000000000000000000000000000000000000000000000000000081525081565b6040518060400160405280600281526020017f383000000000000000000000000000000000000000000000000000000000000081525081565b6040518060400160405280600281526020017f343600000000000000000000000000000000000000000000000000000000000081525081565b6040518060400160405280600281526020017f313000000000000000000000000000000000000000000000000000000000000081525081565b6040518060400160405280600281526020017f323400000000000000000000000000000000000000000000000000000000000081525081565b6040518060400160405280600281526020017f313100000000000000000000000000000000000000000000000000000000000081525081565b6040518060400160405280600281526020017f323800000000000000000000000000000000000000000000000000000000000081525081565b6040518060400160405280600281526020017f353800000000000000000000000000000000000000000000000000000000000081525081565b6040518060400160405280600281526020017f353400000000000000000000000000000000000000000000000000000000000081525081565b6040518060400160405280600281526020017f373200000000000000000000000000000000000000000000000000000000000081525081565b6040518060400160405280600281526020017f313900000000000000000000000000000000000000000000000000000000000081525081565b6040518060400160405280600181526020017f370000000000000000000000000000000000000000000000000000000000000081525081565b6040518060400160405280600281526020017f333900000000000000000000000000000000000000000000000000000000000081525081565b6040518060400160405280600281526020017f323500000000000000000000000000000000000000000000000000000000000081525081565b6040518060400160405280600281526020017f313400000000000000000000000000000000000000000000000000000000000081525081565b6040518060400160405280600181526020017f380000000000000000000000000000000000000000000000000000000000000081525081565b6040518060400160405280600281526020017f373000000000000000000000000000000000000000000000000000000000000081525081565b6040518060400160405280600281526020017f343300000000000000000000000000000000000000000000000000000000000081525081565b6040518060400160405280600281526020017f333800000000000000000000000000000000000000000000000000000000000081525081565b6040518060400160405280600281526020017f353000000000000000000000000000000000000000000000000000000000000081525081565b6040518060400160405280600281526020017f353200000000000000000000000000000000000000000000000000000000000081525081565b6040518060400160405280600281526020017f323100000000000000000000000000000000000000000000000000000000000081525081565b6040518060400160405280600281526020017f373500000000000000000000000000000000000000000000000000000000000081525081565b6040518060400160405280600281526020017f313200000000000000000000000000000000000000000000000000000000000081525081565b6040518060400160405280600281526020017f323300000000000000000000000000000000000000000000000000000000000081525081565b6040518060400160405280600281526020017f353100000000000000000000000000000000000000000000000000000000000081525081565b6040518060400160405280600281526020017f363000000000000000000000000000000000000000000000000000000000000081525081565b6040518060400160405280600281526020017f343000000000000000000000000000000000000000000000000000000000000081525081565b6040518060400160405280600281526020017f363900000000000000000000000000000000000000000000000000000000000081525081565b6040518060400160405280600281526020017f363700000000000000000000000000000000000000000000000000000000000081525081565b6040518060400160405280600281526020017f373800000000000000000000000000000000000000000000000000000000000081525081565b6040518060400160405280600281526020017f313700000000000000000000000000000000000000000000000000000000000081525081565b6040518060400160405280600281526020017f333400000000000000000000000000000000000000000000000000000000000081525081565b6040518060400160405280600281526020017f313800000000000000000000000000000000000000000000000000000000000081525081565b6040518060400160405280600281526020017f323900000000000000000000000000000000000000000000000000000000000081525081565b6040518060400160405280600281526020017f353500000000000000000000000000000000000000000000000000000000000081525081565b6040518060400160405280600181526020017f390000000000000000000000000000000000000000000000000000000000000081525081565b6040518060400160405280600281526020017f343400000000000000000000000000000000000000000000000000000000000081525081565b6040518060400160405280600281526020017f363500000000000000000000000000000000000000000000000000000000000081525081565b6040518060400160405280600181526020017f320000000000000000000000000000000000000000000000000000000000000081525081565b6040518060400160405280600181526020017f310000000000000000000000000000000000000000000000000000000000000081525081565b6040518060400160405280600281526020017f313500000000000000000000000000000000000000000000000000000000000081525081565b6040518060400160405280600281526020017f373100000000000000000000000000000000000000000000000000000000000081525081565b6040518060400160405280600281526020017f333100000000000000000000000000000000000000000000000000000000000081525081565b6040518060400160405280600281526020017f313300000000000000000000000000000000000000000000000000000000000081525081565b6040518060400160405280600181526020017f350000000000000000000000000000000000000000000000000000000000000081525081565b6040518060400160405280600281526020017f333300000000000000000000000000000000000000000000000000000000000081525081565b6040518060400160405280600281526020017f323700000000000000000000000000000000000000000000000000000000000081525081565b6040518060400160405280600281526020017f373400000000000000000000000000000000000000000000000000000000000081525081565b6040518060400160405280600281526020017f323200000000000000000000000000000000000000000000000000000000000081525081565b6040518060400160405280600281526020017f363800000000000000000000000000000000000000000000000000000000000081525081565b6040518060400160405280600281526020017f333700000000000000000000000000000000000000000000000000000000000081525081565b6040518060400160405280600281526020017f363100000000000000000000000000000000000000000000000000000000000081525081565b6040518060400160405280600281526020017f343500000000000000000000000000000000000000000000000000000000000081525081565b6040518060400160405280600281526020017f373900000000000000000000000000000000000000000000000000000000000081525081565b6040518060400160405280600281526020017f373600000000000000000000000000000000000000000000000000000000000081525081565b6040518060400160405280600281526020017f363600000000000000000000000000000000000000000000000000000000000081525081565b6040518060400160405280600281526020017f363400000000000000000000000000000000000000000000000000000000000081525081565b6040518060400160405280600281526020017f343100000000000000000000000000000000000000000000000000000000000081525081565b6040518060400160405280600181526020017f330000000000000000000000000000000000000000000000000000000000000081525081565b6040518060400160405280600281526020017f373300000000000000000000000000000000000000000000000000000000000081525081565b6040518060400160405280600281526020017f313600000000000000000000000000000000000000000000000000000000000081525081565b6040518060400160405280600281526020017f333600000000000000000000000000000000000000000000000000000000000081525081565b6040518060400160405280600281526020017f323000000000000000000000000000000000000000000000000000000000000081525081565b6040518060400160405280600281526020017f353900000000000000000000000000000000000000000000000000000000000081525081565b6040518060400160405280600281526020017f353700000000000000000000000000000000000000000000000000000000000081525081565b6040518060400160405280600281526020017f343700000000000000000000000000000000000000000000000000000000000081525081565b6040518060400160405280600281526020017f363300000000000000000000000000000000000000000000000000000000000081525081565b6040518060400160405280600281526020017f333500000000000000000000000000000000000000000000000000000000000081525081565b6040518060400160405280600281526020017f353300000000000000000000000000000000000000000000000000000000000081525081565b6040518060400160405280600181526020017f360000000000000000000000000000000000000000000000000000000000000081525081565b6040518060400160405280600281526020017f363200000000000000000000000000000000000000000000000000000000000081525081565b6040518060400160405280600281526020017f343200000000000000000000000000000000000000000000000000000000000081525081565b6040518060400160405280600281526020017f33320000000000000000000000000000000000000000000000000000000000008152508156fea2646970667358221220677b0f0dcf1317c0f6dd063bff9357a69113394b182ebea03aee63e6a35b5c6464736f6c634300060c0033","opcodes":"PUSH2 0x1A8A PUSH2 0x26 PUSH1 0xB DUP3 DUP3 DUP3 CODECOPY DUP1 MLOAD PUSH1 0x0 BYTE PUSH1 0x73 EQ PUSH2 0x19 JUMPI INVALID JUMPDEST ADDRESS PUSH1 0x0 MSTORE PUSH1 0x73 DUP2 MSTORE8 DUP3 DUP2 RETURN INVALID PUSH20 0x0 ADDRESS EQ PUSH1 0x80 PUSH1 0x40 MSTORE PUSH1 0x4 CALLDATASIZE LT PUSH2 0x58A JUMPI PUSH1 0x0 CALLDATALOAD PUSH1 0xE0 SHR DUP1 PUSH4 0x6BA4271F GT PUSH2 0x2E1 JUMPI DUP1 PUSH4 0xCDAD445A GT PUSH2 0x190 JUMPI DUP1 PUSH4 0xE2C16D69 GT PUSH2 0xED JUMPI DUP1 PUSH4 0xF11C6720 GT PUSH2 0xA1 JUMPI DUP1 PUSH4 0xF902735D GT PUSH2 0x86 JUMPI DUP1 PUSH4 0xF902735D EQ PUSH2 0x86C JUMPI DUP1 PUSH4 0xFB681DEF EQ PUSH2 0x874 JUMPI DUP1 PUSH4 0xFE75FD26 EQ PUSH2 0x87C JUMPI PUSH2 0x58A JUMP JUMPDEST DUP1 PUSH4 0xF11C6720 EQ PUSH2 0x85C JUMPI DUP1 PUSH4 0xF3D9CC11 EQ PUSH2 0x864 JUMPI PUSH2 0x58A JUMP JUMPDEST DUP1 PUSH4 0xE7BF91B3 GT PUSH2 0xD2 JUMPI DUP1 PUSH4 0xE7BF91B3 EQ PUSH2 0x844 JUMPI DUP1 PUSH4 0xECA85D3A EQ PUSH2 0x84C JUMPI DUP1 PUSH4 0xF0473259 EQ PUSH2 0x854 JUMPI PUSH2 0x58A JUMP JUMPDEST DUP1 PUSH4 0xE2C16D69 EQ PUSH2 0x834 JUMPI DUP1 PUSH4 0xE6632748 EQ PUSH2 0x83C JUMPI PUSH2 0x58A JUMP JUMPDEST DUP1 PUSH4 0xD7510E0C GT PUSH2 0x144 JUMPI DUP1 PUSH4 0xDAF23547 GT PUSH2 0x129 JUMPI DUP1 PUSH4 0xDAF23547 EQ PUSH2 0x81C JUMPI DUP1 PUSH4 0xE0D7DFD7 EQ PUSH2 0x824 JUMPI DUP1 PUSH4 0xE29425DC EQ PUSH2 0x82C JUMPI PUSH2 0x58A JUMP JUMPDEST DUP1 PUSH4 0xD7510E0C EQ PUSH2 0x80C JUMPI DUP1 PUSH4 0xD7B079AA EQ PUSH2 0x814 JUMPI PUSH2 0x58A JUMP JUMPDEST DUP1 PUSH4 0xD44E8E88 GT PUSH2 0x175 JUMPI DUP1 PUSH4 0xD44E8E88 EQ PUSH2 0x7F4 JUMPI DUP1 PUSH4 0xD57BB964 EQ PUSH2 0x7FC JUMPI DUP1 PUSH4 0xD6F681B6 EQ PUSH2 0x804 JUMPI PUSH2 0x58A JUMP JUMPDEST DUP1 PUSH4 0xCDAD445A EQ PUSH2 0x7E4 JUMPI DUP1 PUSH4 0xD3E370EE EQ PUSH2 0x7EC JUMPI PUSH2 0x58A JUMP JUMPDEST DUP1 PUSH4 0xA39ED4FF GT PUSH2 0x23E JUMPI DUP1 PUSH4 0xB89652CD GT PUSH2 0x1F2 JUMPI DUP1 PUSH4 0xC09E2618 GT PUSH2 0x1D7 JUMPI DUP1 PUSH4 0xC09E2618 EQ PUSH2 0x7CC JUMPI DUP1 PUSH4 0xC2D628DF EQ PUSH2 0x7D4 JUMPI DUP1 PUSH4 0xCC5FC44C EQ PUSH2 0x7DC JUMPI PUSH2 0x58A JUMP JUMPDEST DUP1 PUSH4 0xB89652CD EQ PUSH2 0x7BC JUMPI DUP1 PUSH4 0xBD013F5B EQ PUSH2 0x7C4 JUMPI PUSH2 0x58A JUMP JUMPDEST DUP1 PUSH4 0xAC753236 GT PUSH2 0x223 JUMPI DUP1 PUSH4 0xAC753236 EQ PUSH2 0x7A4 JUMPI DUP1 PUSH4 0xB36A2CF3 EQ PUSH2 0x7AC JUMPI DUP1 PUSH4 0xB72E40C7 EQ PUSH2 0x7B4 JUMPI PUSH2 0x58A JUMP JUMPDEST DUP1 PUSH4 0xA39ED4FF EQ PUSH2 0x794 JUMPI DUP1 PUSH4 0xA8440241 EQ PUSH2 0x79C JUMPI PUSH2 0x58A JUMP JUMPDEST DUP1 PUSH4 0x7865A627 GT PUSH2 0x295 JUMPI DUP1 PUSH4 0x91A9FB18 GT PUSH2 0x27A JUMPI DUP1 PUSH4 0x91A9FB18 EQ PUSH2 0x77C JUMPI DUP1 PUSH4 0x9BE4F03A EQ PUSH2 0x784 JUMPI DUP1 PUSH4 0xA2FBC8AD EQ PUSH2 0x78C JUMPI PUSH2 0x58A JUMP JUMPDEST DUP1 PUSH4 0x7865A627 EQ PUSH2 0x76C JUMPI DUP1 PUSH4 0x871938A8 EQ PUSH2 0x774 JUMPI PUSH2 0x58A JUMP JUMPDEST DUP1 PUSH4 0x708B8DD3 GT PUSH2 0x2C6 JUMPI DUP1 PUSH4 0x708B8DD3 EQ PUSH2 0x754 JUMPI DUP1 PUSH4 0x71A629DA EQ PUSH2 0x75C JUMPI DUP1 PUSH4 0x76F19030 EQ PUSH2 0x764 JUMPI PUSH2 0x58A JUMP JUMPDEST DUP1 PUSH4 0x6BA4271F EQ PUSH2 0x744 JUMPI DUP1 PUSH4 0x6D422AA1 EQ PUSH2 0x74C JUMPI PUSH2 0x58A JUMP JUMPDEST DUP1 PUSH4 0x3AA786A8 GT PUSH2 0x43D JUMPI DUP1 PUSH4 0x4A529F91 GT PUSH2 0x39A JUMPI DUP1 PUSH4 0x614CF6A1 GT PUSH2 0x34E JUMPI DUP1 PUSH4 0x6422B257 GT PUSH2 0x333 JUMPI DUP1 PUSH4 0x6422B257 EQ PUSH2 0x72C JUMPI DUP1 PUSH4 0x65344799 EQ PUSH2 0x734 JUMPI DUP1 PUSH4 0x6AB5E615 EQ PUSH2 0x73C JUMPI PUSH2 0x58A JUMP JUMPDEST DUP1 PUSH4 0x614CF6A1 EQ PUSH2 0x71C JUMPI DUP1 PUSH4 0x637A5A12 EQ PUSH2 0x724 JUMPI PUSH2 0x58A JUMP JUMPDEST DUP1 PUSH4 0x55BAB12C GT PUSH2 0x37F JUMPI DUP1 PUSH4 0x55BAB12C EQ PUSH2 0x704 JUMPI DUP1 PUSH4 0x5A9786D4 EQ PUSH2 0x70C JUMPI DUP1 PUSH4 0x5E869FF1 EQ PUSH2 0x714 JUMPI PUSH2 0x58A JUMP JUMPDEST DUP1 PUSH4 0x4A529F91 EQ PUSH2 0x6F4 JUMPI DUP1 PUSH4 0x4FE4F1AB EQ PUSH2 0x6FC JUMPI PUSH2 0x58A JUMP JUMPDEST DUP1 PUSH4 0x4349E3D8 GT PUSH2 0x3F1 JUMPI DUP1 PUSH4 0x44DC4F70 GT PUSH2 0x3D6 JUMPI DUP1 PUSH4 0x44DC4F70 EQ PUSH2 0x6DC JUMPI DUP1 PUSH4 0x47D25300 EQ PUSH2 0x6E4 JUMPI DUP1 PUSH4 0x4927C63A EQ PUSH2 0x6EC JUMPI PUSH2 0x58A JUMP JUMPDEST DUP1 PUSH4 0x4349E3D8 EQ PUSH2 0x6CC JUMPI DUP1 PUSH4 0x44942004 EQ PUSH2 0x6D4 JUMPI PUSH2 0x58A JUMP JUMPDEST DUP1 PUSH4 0x3F5D6EC8 GT PUSH2 0x422 JUMPI DUP1 PUSH4 0x3F5D6EC8 EQ PUSH2 0x6B4 JUMPI DUP1 PUSH4 0x407374A4 EQ PUSH2 0x6BC JUMPI DUP1 PUSH4 0x41B40BA5 EQ PUSH2 0x6C4 JUMPI PUSH2 0x58A JUMP JUMPDEST DUP1 PUSH4 0x3AA786A8 EQ PUSH2 0x6A4 JUMPI DUP1 PUSH4 0x3B5D25AA EQ PUSH2 0x6AC JUMPI PUSH2 0x58A JUMP JUMPDEST DUP1 PUSH4 0x22A6F08E GT PUSH2 0x4EB JUMPI DUP1 PUSH4 0x333E8EA8 GT PUSH2 0x49F JUMPI DUP1 PUSH4 0x36565AB1 GT PUSH2 0x484 JUMPI DUP1 PUSH4 0x36565AB1 EQ PUSH2 0x68C JUMPI DUP1 PUSH4 0x3872B0AD EQ PUSH2 0x694 JUMPI DUP1 PUSH4 0x390F34BA EQ PUSH2 0x69C JUMPI PUSH2 0x58A JUMP JUMPDEST DUP1 PUSH4 0x333E8EA8 EQ PUSH2 0x67C JUMPI DUP1 PUSH4 0x35A9D21D EQ PUSH2 0x684 JUMPI PUSH2 0x58A JUMP JUMPDEST DUP1 PUSH4 0x2B34C349 GT PUSH2 0x4D0 JUMPI DUP1 PUSH4 0x2B34C349 EQ PUSH2 0x664 JUMPI DUP1 PUSH4 0x2B9C57F6 EQ PUSH2 0x66C JUMPI DUP1 PUSH4 0x2EA347B0 EQ PUSH2 0x674 JUMPI PUSH2 0x58A JUMP JUMPDEST DUP1 PUSH4 0x22A6F08E EQ PUSH2 0x654 JUMPI DUP1 PUSH4 0x2ACE698A EQ PUSH2 0x65C JUMPI PUSH2 0x58A JUMP JUMPDEST DUP1 PUSH4 0x1291A38B GT PUSH2 0x542 JUMPI DUP1 PUSH4 0x1BEFA78D GT PUSH2 0x527 JUMPI DUP1 PUSH4 0x1BEFA78D EQ PUSH2 0x63C JUMPI DUP1 PUSH4 0x1EA7C604 EQ PUSH2 0x644 JUMPI DUP1 PUSH4 0x1EC68B1D EQ PUSH2 0x64C JUMPI PUSH2 0x58A JUMP JUMPDEST DUP1 PUSH4 0x1291A38B EQ PUSH2 0x62C JUMPI DUP1 PUSH4 0x179476C5 EQ PUSH2 0x634 JUMPI PUSH2 0x58A JUMP JUMPDEST DUP1 PUSH4 0x6F355AD GT PUSH2 0x573 JUMPI DUP1 PUSH4 0x6F355AD EQ PUSH2 0x614 JUMPI DUP1 PUSH4 0xB8FD588 EQ PUSH2 0x61C JUMPI DUP1 PUSH4 0xF5EE482 EQ PUSH2 0x624 JUMPI PUSH2 0x58A JUMP JUMPDEST DUP1 PUSH4 0x2454AD3 EQ PUSH2 0x58F JUMPI DUP1 PUSH4 0x29D2344 EQ PUSH2 0x60C JUMPI JUMPDEST PUSH1 0x0 DUP1 REVERT JUMPDEST PUSH2 0x597 PUSH2 0x884 JUMP JUMPDEST PUSH1 0x40 DUP1 MLOAD PUSH1 0x20 DUP1 DUP3 MSTORE DUP4 MLOAD DUP2 DUP4 ADD MSTORE DUP4 MLOAD SWAP2 SWAP3 DUP4 SWAP3 SWAP1 DUP4 ADD SWAP2 DUP6 ADD SWAP1 DUP1 DUP4 DUP4 PUSH1 0x0 JUMPDEST DUP4 DUP2 LT ISZERO PUSH2 0x5D1 JUMPI DUP2 DUP2 ADD MLOAD DUP4 DUP3 ADD MSTORE PUSH1 0x20 ADD PUSH2 0x5B9 JUMP JUMPDEST POP POP POP POP SWAP1 POP SWAP1 DUP2 ADD SWAP1 PUSH1 0x1F AND DUP1 ISZERO PUSH2 0x5FE JUMPI DUP1 DUP3 SUB DUP1 MLOAD PUSH1 0x1 DUP4 PUSH1 0x20 SUB PUSH2 0x100 EXP SUB NOT AND DUP2 MSTORE PUSH1 0x20 ADD SWAP2 POP JUMPDEST POP SWAP3 POP POP POP PUSH1 0x40 MLOAD DUP1 SWAP2 SUB SWAP1 RETURN JUMPDEST PUSH2 0x597 PUSH2 0x8BD JUMP JUMPDEST PUSH2 0x597 PUSH2 0x8F6 JUMP JUMPDEST PUSH2 0x597 PUSH2 0x92F JUMP JUMPDEST PUSH2 0x597 PUSH2 0x968 JUMP JUMPDEST PUSH2 0x597 PUSH2 0x9A1 JUMP JUMPDEST PUSH2 0x597 PUSH2 0x9DA JUMP JUMPDEST PUSH2 0x597 PUSH2 0xA13 JUMP JUMPDEST PUSH2 0x597 PUSH2 0xA4C JUMP JUMPDEST PUSH2 0x597 PUSH2 0xA85 JUMP JUMPDEST PUSH2 0x597 PUSH2 0xABE JUMP JUMPDEST PUSH2 0x597 PUSH2 0xAF7 JUMP JUMPDEST PUSH2 0x597 PUSH2 0xB30 JUMP JUMPDEST PUSH2 0x597 PUSH2 0xB69 JUMP JUMPDEST PUSH2 0x597 PUSH2 0xBA2 JUMP JUMPDEST PUSH2 0x597 PUSH2 0xBDB JUMP JUMPDEST PUSH2 0x597 PUSH2 0xC14 JUMP JUMPDEST PUSH2 0x597 PUSH2 0xC4D JUMP JUMPDEST PUSH2 0x597 PUSH2 0xC86 JUMP JUMPDEST PUSH2 0x597 PUSH2 0xCBF JUMP JUMPDEST PUSH2 0x597 PUSH2 0xCF8 JUMP JUMPDEST PUSH2 0x597 PUSH2 0xD31 JUMP JUMPDEST PUSH2 0x597 PUSH2 0xD6A JUMP JUMPDEST PUSH2 0x597 PUSH2 0xDA3 JUMP JUMPDEST PUSH2 0x597 PUSH2 0xDDC JUMP JUMPDEST PUSH2 0x597 PUSH2 0xE15 JUMP JUMPDEST PUSH2 0x597 PUSH2 0xE4E JUMP JUMPDEST PUSH2 0x597 PUSH2 0xE87 JUMP JUMPDEST PUSH2 0x597 PUSH2 0xEC0 JUMP JUMPDEST PUSH2 0x597 PUSH2 0xEF9 JUMP JUMPDEST PUSH2 0x597 PUSH2 0xF32 JUMP JUMPDEST PUSH2 0x597 PUSH2 0xF6B JUMP JUMPDEST PUSH2 0x597 PUSH2 0xFA4 JUMP JUMPDEST PUSH2 0x597 PUSH2 0xFDD JUMP JUMPDEST PUSH2 0x597 PUSH2 0x1016 JUMP JUMPDEST PUSH2 0x597 PUSH2 0x104F JUMP JUMPDEST PUSH2 0x597 PUSH2 0x1088 JUMP JUMPDEST PUSH2 0x597 PUSH2 0x10C1 JUMP JUMPDEST PUSH2 0x597 PUSH2 0x10FA JUMP JUMPDEST PUSH2 0x597 PUSH2 0x1133 JUMP JUMPDEST PUSH2 0x597 PUSH2 0x116C JUMP JUMPDEST PUSH2 0x597 PUSH2 0x11A5 JUMP JUMPDEST PUSH2 0x597 PUSH2 0x11DE JUMP JUMPDEST PUSH2 0x597 PUSH2 0x1217 JUMP JUMPDEST PUSH2 0x597 PUSH2 0x1250 JUMP JUMPDEST PUSH2 0x597 PUSH2 0x1289 JUMP JUMPDEST PUSH2 0x597 PUSH2 0x12C2 JUMP JUMPDEST PUSH2 0x597 PUSH2 0x12FB JUMP JUMPDEST PUSH2 0x597 PUSH2 0x1334 JUMP JUMPDEST PUSH2 0x597 PUSH2 0x136D JUMP JUMPDEST PUSH2 0x597 PUSH2 0x13A6 JUMP JUMPDEST PUSH2 0x597 PUSH2 0x13DF JUMP JUMPDEST PUSH2 0x597 PUSH2 0x1418 JUMP JUMPDEST PUSH2 0x597 PUSH2 0x1451 JUMP JUMPDEST PUSH2 0x597 PUSH2 0x148A JUMP JUMPDEST PUSH2 0x597 PUSH2 0x14C3 JUMP JUMPDEST PUSH2 0x597 PUSH2 0x14FC JUMP JUMPDEST PUSH2 0x597 PUSH2 0x1535 JUMP JUMPDEST PUSH2 0x597 PUSH2 0x156E JUMP JUMPDEST PUSH2 0x597 PUSH2 0x15A7 JUMP JUMPDEST PUSH2 0x597 PUSH2 0x15E0 JUMP JUMPDEST PUSH2 0x597 PUSH2 0x1619 JUMP JUMPDEST PUSH2 0x597 PUSH2 0x1652 JUMP JUMPDEST PUSH2 0x597 PUSH2 0x168B JUMP JUMPDEST PUSH2 0x597 PUSH2 0x16C4 JUMP JUMPDEST PUSH2 0x597 PUSH2 0x16FD JUMP JUMPDEST PUSH2 0x597 PUSH2 0x1736 JUMP JUMPDEST PUSH2 0x597 PUSH2 0x176F JUMP JUMPDEST PUSH2 0x597 PUSH2 0x17A8 JUMP JUMPDEST PUSH2 0x597 PUSH2 0x17E1 JUMP JUMPDEST PUSH2 0x597 PUSH2 0x181A JUMP JUMPDEST PUSH2 0x597 PUSH2 0x1853 JUMP JUMPDEST PUSH2 0x597 PUSH2 0x188C JUMP JUMPDEST PUSH2 0x597 PUSH2 0x18C5 JUMP JUMPDEST PUSH2 0x597 PUSH2 0x18FE JUMP JUMPDEST PUSH2 0x597 PUSH2 0x1937 JUMP JUMPDEST PUSH2 0x597 PUSH2 0x1970 JUMP JUMPDEST PUSH2 0x597 PUSH2 0x19A9 JUMP JUMPDEST PUSH2 0x597 PUSH2 0x19E2 JUMP JUMPDEST PUSH2 0x597 PUSH2 0x1A1B JUMP JUMPDEST PUSH1 0x40 MLOAD DUP1 PUSH1 0x40 ADD PUSH1 0x40 MSTORE DUP1 PUSH1 0x2 DUP2 MSTORE PUSH1 0x20 ADD PUSH32 0x3737000000000000000000000000000000000000000000000000000000000000 DUP2 MSTORE POP DUP2 JUMP JUMPDEST PUSH1 0x40 MLOAD DUP1 PUSH1 0x40 ADD PUSH1 0x40 MSTORE DUP1 PUSH1 0x2 DUP2 MSTORE PUSH1 0x20 ADD PUSH32 0x3438000000000000000000000000000000000000000000000000000000000000 DUP2 MSTORE POP DUP2 JUMP JUMPDEST PUSH1 0x40 MLOAD DUP1 PUSH1 0x40 ADD PUSH1 0x40 MSTORE DUP1 PUSH1 0x2 DUP2 MSTORE PUSH1 0x20 ADD PUSH32 0x3330000000000000000000000000000000000000000000000000000000000000 DUP2 MSTORE POP DUP2 JUMP JUMPDEST PUSH1 0x40 MLOAD DUP1 PUSH1 0x40 ADD PUSH1 0x40 MSTORE DUP1 PUSH1 0x2 DUP2 MSTORE PUSH1 0x20 ADD PUSH32 0x3236000000000000000000000000000000000000000000000000000000000000 DUP2 MSTORE POP DUP2 JUMP JUMPDEST PUSH1 0x40 MLOAD DUP1 PUSH1 0x40 ADD PUSH1 0x40 MSTORE DUP1 PUSH1 0x2 DUP2 MSTORE PUSH1 0x20 ADD PUSH32 0x3439000000000000000000000000000000000000000000000000000000000000 DUP2 MSTORE POP DUP2 JUMP JUMPDEST PUSH1 0x40 MLOAD DUP1 PUSH1 0x40 ADD PUSH1 0x40 MSTORE DUP1 PUSH1 0x2 DUP2 MSTORE PUSH1 0x20 ADD PUSH32 0x3536000000000000000000000000000000000000000000000000000000000000 DUP2 MSTORE POP DUP2 JUMP JUMPDEST PUSH1 0x40 MLOAD DUP1 PUSH1 0x40 ADD PUSH1 0x40 MSTORE DUP1 PUSH1 0x1 DUP2 MSTORE PUSH1 0x20 ADD PUSH32 0x3400000000000000000000000000000000000000000000000000000000000000 DUP2 MSTORE POP DUP2 JUMP JUMPDEST PUSH1 0x40 MLOAD DUP1 PUSH1 0x40 ADD PUSH1 0x40 MSTORE DUP1 PUSH1 0x2 DUP2 MSTORE PUSH1 0x20 ADD PUSH32 0x3830000000000000000000000000000000000000000000000000000000000000 DUP2 MSTORE POP DUP2 JUMP JUMPDEST PUSH1 0x40 MLOAD DUP1 PUSH1 0x40 ADD PUSH1 0x40 MSTORE DUP1 PUSH1 0x2 DUP2 MSTORE PUSH1 0x20 ADD PUSH32 0x3436000000000000000000000000000000000000000000000000000000000000 DUP2 MSTORE POP DUP2 JUMP JUMPDEST PUSH1 0x40 MLOAD DUP1 PUSH1 0x40 ADD PUSH1 0x40 MSTORE DUP1 PUSH1 0x2 DUP2 MSTORE PUSH1 0x20 ADD PUSH32 0x3130000000000000000000000000000000000000000000000000000000000000 DUP2 MSTORE POP DUP2 JUMP JUMPDEST PUSH1 0x40 MLOAD DUP1 PUSH1 0x40 ADD PUSH1 0x40 MSTORE DUP1 PUSH1 0x2 DUP2 MSTORE PUSH1 0x20 ADD PUSH32 0x3234000000000000000000000000000000000000000000000000000000000000 DUP2 MSTORE POP DUP2 JUMP JUMPDEST PUSH1 0x40 MLOAD DUP1 PUSH1 0x40 ADD PUSH1 0x40 MSTORE DUP1 PUSH1 0x2 DUP2 MSTORE PUSH1 0x20 ADD PUSH32 0x3131000000000000000000000000000000000000000000000000000000000000 DUP2 MSTORE POP DUP2 JUMP JUMPDEST PUSH1 0x40 MLOAD DUP1 PUSH1 0x40 ADD PUSH1 0x40 MSTORE DUP1 PUSH1 0x2 DUP2 MSTORE PUSH1 0x20 ADD PUSH32 0x3238000000000000000000000000000000000000000000000000000000000000 DUP2 MSTORE POP DUP2 JUMP JUMPDEST PUSH1 0x40 MLOAD DUP1 PUSH1 0x40 ADD PUSH1 0x40 MSTORE DUP1 PUSH1 0x2 DUP2 MSTORE PUSH1 0x20 ADD PUSH32 0x3538000000000000000000000000000000000000000000000000000000000000 DUP2 MSTORE POP DUP2 JUMP JUMPDEST PUSH1 0x40 MLOAD DUP1 PUSH1 0x40 ADD PUSH1 0x40 MSTORE DUP1 PUSH1 0x2 DUP2 MSTORE PUSH1 0x20 ADD PUSH32 0x3534000000000000000000000000000000000000000000000000000000000000 DUP2 MSTORE POP DUP2 JUMP JUMPDEST PUSH1 0x40 MLOAD DUP1 PUSH1 0x40 ADD PUSH1 0x40 MSTORE DUP1 PUSH1 0x2 DUP2 MSTORE PUSH1 0x20 ADD PUSH32 0x3732000000000000000000000000000000000000000000000000000000000000 DUP2 MSTORE POP DUP2 JUMP JUMPDEST PUSH1 0x40 MLOAD DUP1 PUSH1 0x40 ADD PUSH1 0x40 MSTORE DUP1 PUSH1 0x2 DUP2 MSTORE PUSH1 0x20 ADD PUSH32 0x3139000000000000000000000000000000000000000000000000000000000000 DUP2 MSTORE POP DUP2 JUMP JUMPDEST PUSH1 0x40 MLOAD DUP1 PUSH1 0x40 ADD PUSH1 0x40 MSTORE DUP1 PUSH1 0x1 DUP2 MSTORE PUSH1 0x20 ADD PUSH32 0x3700000000000000000000000000000000000000000000000000000000000000 DUP2 MSTORE POP DUP2 JUMP JUMPDEST PUSH1 0x40 MLOAD DUP1 PUSH1 0x40 ADD PUSH1 0x40 MSTORE DUP1 PUSH1 0x2 DUP2 MSTORE PUSH1 0x20 ADD PUSH32 0x3339000000000000000000000000000000000000000000000000000000000000 DUP2 MSTORE POP DUP2 JUMP JUMPDEST PUSH1 0x40 MLOAD DUP1 PUSH1 0x40 ADD PUSH1 0x40 MSTORE DUP1 PUSH1 0x2 DUP2 MSTORE PUSH1 0x20 ADD PUSH32 0x3235000000000000000000000000000000000000000000000000000000000000 DUP2 MSTORE POP DUP2 JUMP JUMPDEST PUSH1 0x40 MLOAD DUP1 PUSH1 0x40 ADD PUSH1 0x40 MSTORE DUP1 PUSH1 0x2 DUP2 MSTORE PUSH1 0x20 ADD PUSH32 0x3134000000000000000000000000000000000000000000000000000000000000 DUP2 MSTORE POP DUP2 JUMP JUMPDEST PUSH1 0x40 MLOAD DUP1 PUSH1 0x40 ADD PUSH1 0x40 MSTORE DUP1 PUSH1 0x1 DUP2 MSTORE PUSH1 0x20 ADD PUSH32 0x3800000000000000000000000000000000000000000000000000000000000000 DUP2 MSTORE POP DUP2 JUMP JUMPDEST PUSH1 0x40 MLOAD DUP1 PUSH1 0x40 ADD PUSH1 0x40 MSTORE DUP1 PUSH1 0x2 DUP2 MSTORE PUSH1 0x20 ADD PUSH32 0x3730000000000000000000000000000000000000000000000000000000000000 DUP2 MSTORE POP DUP2 JUMP JUMPDEST PUSH1 0x40 MLOAD DUP1 PUSH1 0x40 ADD PUSH1 0x40 MSTORE DUP1 PUSH1 0x2 DUP2 MSTORE PUSH1 0x20 ADD PUSH32 0x3433000000000000000000000000000000000000000000000000000000000000 DUP2 MSTORE POP DUP2 JUMP JUMPDEST PUSH1 0x40 MLOAD DUP1 PUSH1 0x40 ADD PUSH1 0x40 MSTORE DUP1 PUSH1 0x2 DUP2 MSTORE PUSH1 0x20 ADD PUSH32 0x3338000000000000000000000000000000000000000000000000000000000000 DUP2 MSTORE POP DUP2 JUMP JUMPDEST PUSH1 0x40 MLOAD DUP1 PUSH1 0x40 ADD PUSH1 0x40 MSTORE DUP1 PUSH1 0x2 DUP2 MSTORE PUSH1 0x20 ADD PUSH32 0x3530000000000000000000000000000000000000000000000000000000000000 DUP2 MSTORE POP DUP2 JUMP JUMPDEST PUSH1 0x40 MLOAD DUP1 PUSH1 0x40 ADD PUSH1 0x40 MSTORE DUP1 PUSH1 0x2 DUP2 MSTORE PUSH1 0x20 ADD PUSH32 0x3532000000000000000000000000000000000000000000000000000000000000 DUP2 MSTORE POP DUP2 JUMP JUMPDEST PUSH1 0x40 MLOAD DUP1 PUSH1 0x40 ADD PUSH1 0x40 MSTORE DUP1 PUSH1 0x2 DUP2 MSTORE PUSH1 0x20 ADD PUSH32 0x3231000000000000000000000000000000000000000000000000000000000000 DUP2 MSTORE POP DUP2 JUMP JUMPDEST PUSH1 0x40 MLOAD DUP1 PUSH1 0x40 ADD PUSH1 0x40 MSTORE DUP1 PUSH1 0x2 DUP2 MSTORE PUSH1 0x20 ADD PUSH32 0x3735000000000000000000000000000000000000000000000000000000000000 DUP2 MSTORE POP DUP2 JUMP JUMPDEST PUSH1 0x40 MLOAD DUP1 PUSH1 0x40 ADD PUSH1 0x40 MSTORE DUP1 PUSH1 0x2 DUP2 MSTORE PUSH1 0x20 ADD PUSH32 0x3132000000000000000000000000000000000000000000000000000000000000 DUP2 MSTORE POP DUP2 JUMP JUMPDEST PUSH1 0x40 MLOAD DUP1 PUSH1 0x40 ADD PUSH1 0x40 MSTORE DUP1 PUSH1 0x2 DUP2 MSTORE PUSH1 0x20 ADD PUSH32 0x3233000000000000000000000000000000000000000000000000000000000000 DUP2 MSTORE POP DUP2 JUMP JUMPDEST PUSH1 0x40 MLOAD DUP1 PUSH1 0x40 ADD PUSH1 0x40 MSTORE DUP1 PUSH1 0x2 DUP2 MSTORE PUSH1 0x20 ADD PUSH32 0x3531000000000000000000000000000000000000000000000000000000000000 DUP2 MSTORE POP DUP2 JUMP JUMPDEST PUSH1 0x40 MLOAD DUP1 PUSH1 0x40 ADD PUSH1 0x40 MSTORE DUP1 PUSH1 0x2 DUP2 MSTORE PUSH1 0x20 ADD PUSH32 0x3630000000000000000000000000000000000000000000000000000000000000 DUP2 MSTORE POP DUP2 JUMP JUMPDEST PUSH1 0x40 MLOAD DUP1 PUSH1 0x40 ADD PUSH1 0x40 MSTORE DUP1 PUSH1 0x2 DUP2 MSTORE PUSH1 0x20 ADD PUSH32 0x3430000000000000000000000000000000000000000000000000000000000000 DUP2 MSTORE POP DUP2 JUMP JUMPDEST PUSH1 0x40 MLOAD DUP1 PUSH1 0x40 ADD PUSH1 0x40 MSTORE DUP1 PUSH1 0x2 DUP2 MSTORE PUSH1 0x20 ADD PUSH32 0x3639000000000000000000000000000000000000000000000000000000000000 DUP2 MSTORE POP DUP2 JUMP JUMPDEST PUSH1 0x40 MLOAD DUP1 PUSH1 0x40 ADD PUSH1 0x40 MSTORE DUP1 PUSH1 0x2 DUP2 MSTORE PUSH1 0x20 ADD PUSH32 0x3637000000000000000000000000000000000000000000000000000000000000 DUP2 MSTORE POP DUP2 JUMP JUMPDEST PUSH1 0x40 MLOAD DUP1 PUSH1 0x40 ADD PUSH1 0x40 MSTORE DUP1 PUSH1 0x2 DUP2 MSTORE PUSH1 0x20 ADD PUSH32 0x3738000000000000000000000000000000000000000000000000000000000000 DUP2 MSTORE POP DUP2 JUMP JUMPDEST PUSH1 0x40 MLOAD DUP1 PUSH1 0x40 ADD PUSH1 0x40 MSTORE DUP1 PUSH1 0x2 DUP2 MSTORE PUSH1 0x20 ADD PUSH32 0x3137000000000000000000000000000000000000000000000000000000000000 DUP2 MSTORE POP DUP2 JUMP JUMPDEST PUSH1 0x40 MLOAD DUP1 PUSH1 0x40 ADD PUSH1 0x40 MSTORE DUP1 PUSH1 0x2 DUP2 MSTORE PUSH1 0x20 ADD PUSH32 0x3334000000000000000000000000000000000000000000000000000000000000 DUP2 MSTORE POP DUP2 JUMP JUMPDEST PUSH1 0x40 MLOAD DUP1 PUSH1 0x40 ADD PUSH1 0x40 MSTORE DUP1 PUSH1 0x2 DUP2 MSTORE PUSH1 0x20 ADD PUSH32 0x3138000000000000000000000000000000000000000000000000000000000000 DUP2 MSTORE POP DUP2 JUMP JUMPDEST PUSH1 0x40 MLOAD DUP1 PUSH1 0x40 ADD PUSH1 0x40 MSTORE DUP1 PUSH1 0x2 DUP2 MSTORE PUSH1 0x20 ADD PUSH32 0x3239000000000000000000000000000000000000000000000000000000000000 DUP2 MSTORE POP DUP2 JUMP JUMPDEST PUSH1 0x40 MLOAD DUP1 PUSH1 0x40 ADD PUSH1 0x40 MSTORE DUP1 PUSH1 0x2 DUP2 MSTORE PUSH1 0x20 ADD PUSH32 0x3535000000000000000000000000000000000000000000000000000000000000 DUP2 MSTORE POP DUP2 JUMP JUMPDEST PUSH1 0x40 MLOAD DUP1 PUSH1 0x40 ADD PUSH1 0x40 MSTORE DUP1 PUSH1 0x1 DUP2 MSTORE PUSH1 0x20 ADD PUSH32 0x3900000000000000000000000000000000000000000000000000000000000000 DUP2 MSTORE POP DUP2 JUMP JUMPDEST PUSH1 0x40 MLOAD DUP1 PUSH1 0x40 ADD PUSH1 0x40 MSTORE DUP1 PUSH1 0x2 DUP2 MSTORE PUSH1 0x20 ADD PUSH32 0x3434000000000000000000000000000000000000000000000000000000000000 DUP2 MSTORE POP DUP2 JUMP JUMPDEST PUSH1 0x40 MLOAD DUP1 PUSH1 0x40 ADD PUSH1 0x40 MSTORE DUP1 PUSH1 0x2 DUP2 MSTORE PUSH1 0x20 ADD PUSH32 0x3635000000000000000000000000000000000000000000000000000000000000 DUP2 MSTORE POP DUP2 JUMP JUMPDEST PUSH1 0x40 MLOAD DUP1 PUSH1 0x40 ADD PUSH1 0x40 MSTORE DUP1 PUSH1 0x1 DUP2 MSTORE PUSH1 0x20 ADD PUSH32 0x3200000000000000000000000000000000000000000000000000000000000000 DUP2 MSTORE POP DUP2 JUMP JUMPDEST PUSH1 0x40 MLOAD DUP1 PUSH1 0x40 ADD PUSH1 0x40 MSTORE DUP1 PUSH1 0x1 DUP2 MSTORE PUSH1 0x20 ADD PUSH32 0x3100000000000000000000000000000000000000000000000000000000000000 DUP2 MSTORE POP DUP2 JUMP JUMPDEST PUSH1 0x40 MLOAD DUP1 PUSH1 0x40 ADD PUSH1 0x40 MSTORE DUP1 PUSH1 0x2 DUP2 MSTORE PUSH1 0x20 ADD PUSH32 0x3135000000000000000000000000000000000000000000000000000000000000 DUP2 MSTORE POP DUP2 JUMP JUMPDEST PUSH1 0x40 MLOAD DUP1 PUSH1 0x40 ADD PUSH1 0x40 MSTORE DUP1 PUSH1 0x2 DUP2 MSTORE PUSH1 0x20 ADD PUSH32 0x3731000000000000000000000000000000000000000000000000000000000000 DUP2 MSTORE POP DUP2 JUMP JUMPDEST PUSH1 0x40 MLOAD DUP1 PUSH1 0x40 ADD PUSH1 0x40 MSTORE DUP1 PUSH1 0x2 DUP2 MSTORE PUSH1 0x20 ADD PUSH32 0x3331000000000000000000000000000000000000000000000000000000000000 DUP2 MSTORE POP DUP2 JUMP JUMPDEST PUSH1 0x40 MLOAD DUP1 PUSH1 0x40 ADD PUSH1 0x40 MSTORE DUP1 PUSH1 0x2 DUP2 MSTORE PUSH1 0x20 ADD PUSH32 0x3133000000000000000000000000000000000000000000000000000000000000 DUP2 MSTORE POP DUP2 JUMP JUMPDEST PUSH1 0x40 MLOAD DUP1 PUSH1 0x40 ADD PUSH1 0x40 MSTORE DUP1 PUSH1 0x1 DUP2 MSTORE PUSH1 0x20 ADD PUSH32 0x3500000000000000000000000000000000000000000000000000000000000000 DUP2 MSTORE POP DUP2 JUMP JUMPDEST PUSH1 0x40 MLOAD DUP1 PUSH1 0x40 ADD PUSH1 0x40 MSTORE DUP1 PUSH1 0x2 DUP2 MSTORE PUSH1 0x20 ADD PUSH32 0x3333000000000000000000000000000000000000000000000000000000000000 DUP2 MSTORE POP DUP2 JUMP JUMPDEST PUSH1 0x40 MLOAD DUP1 PUSH1 0x40 ADD PUSH1 0x40 MSTORE DUP1 PUSH1 0x2 DUP2 MSTORE PUSH1 0x20 ADD PUSH32 0x3237000000000000000000000000000000000000000000000000000000000000 DUP2 MSTORE POP DUP2 JUMP JUMPDEST PUSH1 0x40 MLOAD DUP1 PUSH1 0x40 ADD PUSH1 0x40 MSTORE DUP1 PUSH1 0x2 DUP2 MSTORE PUSH1 0x20 ADD PUSH32 0x3734000000000000000000000000000000000000000000000000000000000000 DUP2 MSTORE POP DUP2 JUMP JUMPDEST PUSH1 0x40 MLOAD DUP1 PUSH1 0x40 ADD PUSH1 0x40 MSTORE DUP1 PUSH1 0x2 DUP2 MSTORE PUSH1 0x20 ADD PUSH32 0x3232000000000000000000000000000000000000000000000000000000000000 DUP2 MSTORE POP DUP2 JUMP JUMPDEST PUSH1 0x40 MLOAD DUP1 PUSH1 0x40 ADD PUSH1 0x40 MSTORE DUP1 PUSH1 0x2 DUP2 MSTORE PUSH1 0x20 ADD PUSH32 0x3638000000000000000000000000000000000000000000000000000000000000 DUP2 MSTORE POP DUP2 JUMP JUMPDEST PUSH1 0x40 MLOAD DUP1 PUSH1 0x40 ADD PUSH1 0x40 MSTORE DUP1 PUSH1 0x2 DUP2 MSTORE PUSH1 0x20 ADD PUSH32 0x3337000000000000000000000000000000000000000000000000000000000000 DUP2 MSTORE POP DUP2 JUMP JUMPDEST PUSH1 0x40 MLOAD DUP1 PUSH1 0x40 ADD PUSH1 0x40 MSTORE DUP1 PUSH1 0x2 DUP2 MSTORE PUSH1 0x20 ADD PUSH32 0x3631000000000000000000000000000000000000000000000000000000000000 DUP2 MSTORE POP DUP2 JUMP JUMPDEST PUSH1 0x40 MLOAD DUP1 PUSH1 0x40 ADD PUSH1 0x40 MSTORE DUP1 PUSH1 0x2 DUP2 MSTORE PUSH1 0x20 ADD PUSH32 0x3435000000000000000000000000000000000000000000000000000000000000 DUP2 MSTORE POP DUP2 JUMP JUMPDEST PUSH1 0x40 MLOAD DUP1 PUSH1 0x40 ADD PUSH1 0x40 MSTORE DUP1 PUSH1 0x2 DUP2 MSTORE PUSH1 0x20 ADD PUSH32 0x3739000000000000000000000000000000000000000000000000000000000000 DUP2 MSTORE POP DUP2 JUMP JUMPDEST PUSH1 0x40 MLOAD DUP1 PUSH1 0x40 ADD PUSH1 0x40 MSTORE DUP1 PUSH1 0x2 DUP2 MSTORE PUSH1 0x20 ADD PUSH32 0x3736000000000000000000000000000000000000000000000000000000000000 DUP2 MSTORE POP DUP2 JUMP JUMPDEST PUSH1 0x40 MLOAD DUP1 PUSH1 0x40 ADD PUSH1 0x40 MSTORE DUP1 PUSH1 0x2 DUP2 MSTORE PUSH1 0x20 ADD PUSH32 0x3636000000000000000000000000000000000000000000000000000000000000 DUP2 MSTORE POP DUP2 JUMP JUMPDEST PUSH1 0x40 MLOAD DUP1 PUSH1 0x40 ADD PUSH1 0x40 MSTORE DUP1 PUSH1 0x2 DUP2 MSTORE PUSH1 0x20 ADD PUSH32 0x3634000000000000000000000000000000000000000000000000000000000000 DUP2 MSTORE POP DUP2 JUMP JUMPDEST PUSH1 0x40 MLOAD DUP1 PUSH1 0x40 ADD PUSH1 0x40 MSTORE DUP1 PUSH1 0x2 DUP2 MSTORE PUSH1 0x20 ADD PUSH32 0x3431000000000000000000000000000000000000000000000000000000000000 DUP2 MSTORE POP DUP2 JUMP JUMPDEST PUSH1 0x40 MLOAD DUP1 PUSH1 0x40 ADD PUSH1 0x40 MSTORE DUP1 PUSH1 0x1 DUP2 MSTORE PUSH1 0x20 ADD PUSH32 0x3300000000000000000000000000000000000000000000000000000000000000 DUP2 MSTORE POP DUP2 JUMP JUMPDEST PUSH1 0x40 MLOAD DUP1 PUSH1 0x40 ADD PUSH1 0x40 MSTORE DUP1 PUSH1 0x2 DUP2 MSTORE PUSH1 0x20 ADD PUSH32 0x3733000000000000000000000000000000000000000000000000000000000000 DUP2 MSTORE POP DUP2 JUMP JUMPDEST PUSH1 0x40 MLOAD DUP1 PUSH1 0x40 ADD PUSH1 0x40 MSTORE DUP1 PUSH1 0x2 DUP2 MSTORE PUSH1 0x20 ADD PUSH32 0x3136000000000000000000000000000000000000000000000000000000000000 DUP2 MSTORE POP DUP2 JUMP JUMPDEST PUSH1 0x40 MLOAD DUP1 PUSH1 0x40 ADD PUSH1 0x40 MSTORE DUP1 PUSH1 0x2 DUP2 MSTORE PUSH1 0x20 ADD PUSH32 0x3336000000000000000000000000000000000000000000000000000000000000 DUP2 MSTORE POP DUP2 JUMP JUMPDEST PUSH1 0x40 MLOAD DUP1 PUSH1 0x40 ADD PUSH1 0x40 MSTORE DUP1 PUSH1 0x2 DUP2 MSTORE PUSH1 0x20 ADD PUSH32 0x3230000000000000000000000000000000000000000000000000000000000000 DUP2 MSTORE POP DUP2 JUMP JUMPDEST PUSH1 0x40 MLOAD DUP1 PUSH1 0x40 ADD PUSH1 0x40 MSTORE DUP1 PUSH1 0x2 DUP2 MSTORE PUSH1 0x20 ADD PUSH32 0x3539000000000000000000000000000000000000000000000000000000000000 DUP2 MSTORE POP DUP2 JUMP JUMPDEST PUSH1 0x40 MLOAD DUP1 PUSH1 0x40 ADD PUSH1 0x40 MSTORE DUP1 PUSH1 0x2 DUP2 MSTORE PUSH1 0x20 ADD PUSH32 0x3537000000000000000000000000000000000000000000000000000000000000 DUP2 MSTORE POP DUP2 JUMP JUMPDEST PUSH1 0x40 MLOAD DUP1 PUSH1 0x40 ADD PUSH1 0x40 MSTORE DUP1 PUSH1 0x2 DUP2 MSTORE PUSH1 0x20 ADD PUSH32 0x3437000000000000000000000000000000000000000000000000000000000000 DUP2 MSTORE POP DUP2 JUMP JUMPDEST PUSH1 0x40 MLOAD DUP1 PUSH1 0x40 ADD PUSH1 0x40 MSTORE DUP1 PUSH1 0x2 DUP2 MSTORE PUSH1 0x20 ADD PUSH32 0x3633000000000000000000000000000000000000000000000000000000000000 DUP2 MSTORE POP DUP2 JUMP JUMPDEST PUSH1 0x40 MLOAD DUP1 PUSH1 0x40 ADD PUSH1 0x40 MSTORE DUP1 PUSH1 0x2 DUP2 MSTORE PUSH1 0x20 ADD PUSH32 0x3335000000000000000000000000000000000000000000000000000000000000 DUP2 MSTORE POP DUP2 JUMP JUMPDEST PUSH1 0x40 MLOAD DUP1 PUSH1 0x40 ADD PUSH1 0x40 MSTORE DUP1 PUSH1 0x2 DUP2 MSTORE PUSH1 0x20 ADD PUSH32 0x3533000000000000000000000000000000000000000000000000000000000000 DUP2 MSTORE POP DUP2 JUMP JUMPDEST PUSH1 0x40 MLOAD DUP1 PUSH1 0x40 ADD PUSH1 0x40 MSTORE DUP1 PUSH1 0x1 DUP2 MSTORE PUSH1 0x20 ADD PUSH32 0x3600000000000000000000000000000000000000000000000000000000000000 DUP2 MSTORE POP DUP2 JUMP JUMPDEST PUSH1 0x40 MLOAD DUP1 PUSH1 0x40 ADD PUSH1 0x40 MSTORE DUP1 PUSH1 0x2 DUP2 MSTORE PUSH1 0x20 ADD PUSH32 0x3632000000000000000000000000000000000000000000000000000000000000 DUP2 MSTORE POP DUP2 JUMP JUMPDEST PUSH1 0x40 MLOAD DUP1 PUSH1 0x40 ADD PUSH1 0x40 MSTORE DUP1 PUSH1 0x2 DUP2 MSTORE PUSH1 0x20 ADD PUSH32 0x3432000000000000000000000000000000000000000000000000000000000000 DUP2 MSTORE POP DUP2 JUMP JUMPDEST PUSH1 0x40 MLOAD DUP1 PUSH1 0x40 ADD PUSH1 0x40 MSTORE DUP1 PUSH1 0x2 DUP2 MSTORE PUSH1 0x20 ADD PUSH32 0x3332000000000000000000000000000000000000000000000000000000000000 DUP2 MSTORE POP DUP2 JUMP INVALID LOG2 PUSH5 0x6970667358 0x22 SLT KECCAK256 PUSH8 0x7B0F0DCF1317C0F6 0xDD MOD EXTCODESIZE SELFDESTRUCT SWAP4 JUMPI 0xA6 SWAP2 SGT CODECOPY 0x4B XOR 0x2E 0xBE LOG0 GASPRICE 0xEE PUSH4 0xE6A35B5C PUSH5 0x64736F6C63 NUMBER STOP MOD 0xC STOP CALLER "},"methodIdentifiers":{"BORROW_ALLOWANCE_NOT_ENOUGH()":"e2c16d69","CALLER_NOT_POOL_ADMIN()":"ac753236","CT_CALLER_MUST_BE_LENDING_POOL()":"6ba4271f","CT_CANNOT_GIVE_ALLOWANCE_TO_HIMSELF()":"06f355ad","CT_INVALID_BURN_AMOUNT()":"2b9c57f6","CT_INVALID_MINT_AMOUNT()":"1291a38b","CT_TRANSFER_AMOUNT_NOT_GT_0()":"a2fbc8ad","LPAPR_INVALID_ADDRESSES_PROVIDER_ID()":"333e8ea8","LPAPR_PROVIDER_NOT_REGISTERED()":"d6f681b6","LPCM_COLLATERAL_CANNOT_BE_LIQUIDATED()":"407374a4","LPCM_HEALTH_FACTOR_NOT_BELOW_THRESHOLD()":"fb681def","LPCM_NOT_ENOUGH_LIQUIDITY_TO_LIQUIDATE()":"cc5fc44c","LPCM_NO_ERRORS()":"1ea7c604","LPCM_SPECIFIED_CURRENCY_NOT_BORROWED_BY_USER()":"71a629da","LPC_CALLER_NOT_EMERGENCY_ADMIN()":"d3e370ee","LPC_INVALID_ADDRESSES_PROVIDER_ID()":"5a9786d4","LPC_INVALID_ATOKEN_POOL_ADDRESS()":"f0473259","LPC_INVALID_CONFIGURATION()":"47d25300","LPC_INVALID_STABLE_DEBT_TOKEN_POOL_ADDRESS()":"e0d7dfd7","LPC_INVALID_STABLE_DEBT_TOKEN_UNDERLYING_ADDRESS()":"41b40ba5","LPC_INVALID_VARIABLE_DEBT_TOKEN_POOL_ADDRESS()":"c09e2618","LPC_INVALID_VARIABLE_DEBT_TOKEN_UNDERLYING_ADDRESS()":"3872b0ad","LPC_RESERVE_LIQUIDITY_NOT_0()":"65344799","LP_CALLER_MUST_BE_AN_ATOKEN()":"eca85d3a","LP_CALLER_NOT_LENDING_POOL_CONFIGURATOR()":"b36a2cf3","LP_FAILED_COLLATERAL_SWAP()":"55bab12c","LP_FAILED_REPAY_WITH_COLLATERAL()":"e6632748","LP_INCONSISTENT_FLASHLOAN_PARAMS()":"2b34c349","LP_INCONSISTENT_PARAMS_LENGTH()":"b72e40c7","LP_INCONSISTENT_PROTOCOL_ACTUAL_BALANCE()":"0b8fd588","LP_INTEREST_RATE_REBALANCE_CONDITIONS_NOT_MET()":"b89652cd","LP_INVALID_EQUAL_ASSETS_TO_SWAP()":"c2d628df","LP_INVALID_FLASHLOAN_MODE()":"e7bf91b3","LP_INVALID_FLASH_LOAN_EXECUTOR_RETURN()":"d44e8e88","LP_IS_PAUSED()":"d57bb964","LP_LIQUIDATION_CALL_FAILED()":"4a529f91","LP_NOT_CONTRACT()":"637a5a12","LP_NOT_ENOUGH_LIQUIDITY_TO_BORROW()":"22a6f08e","LP_NOT_ENOUGH_STABLE_BORROW_BALANCE()":"44dc4f70","LP_NO_MORE_RESERVES_ALLOWED()":"76f19030","LP_REENTRANCY_NOT_ALLOWED()":"f902735d","LP_REQUESTED_AMOUNT_TOO_SMALL()":"390f34ba","MATH_ADDITION_OVERFLOW()":"0f5ee482","MATH_DIVISION_BY_ZERO()":"4349e3d8","MATH_MULTIPLICATION_OVERFLOW()":"029d2344","RC_INVALID_DECIMALS()":"3f5d6ec8","RC_INVALID_LIQ_BONUS()":"5e869ff1","RC_INVALID_LIQ_THRESHOLD()":"bd013f5b","RC_INVALID_LTV()":"614cf6a1","RC_INVALID_RESERVE_FACTOR()":"9be4f03a","RL_LIQUIDITY_INDEX_OVERFLOW()":"4fe4f1ab","RL_LIQUIDITY_RATE_OVERFLOW()":"f11c6720","RL_RESERVE_ALREADY_INITIALIZED()":"fe75fd26","RL_STABLE_BORROW_RATE_OVERFLOW()":"6d422aa1","RL_VARIABLE_BORROW_INDEX_OVERFLOW()":"44942004","RL_VARIABLE_BORROW_RATE_OVERFLOW()":"2ea347b0","SDT_BURN_EXCEEDS_BALANCE()":"1befa78d","SDT_STABLE_DEBT_OVERFLOW()":"cdad445a","UL_INVALID_INDEX()":"02454ad3","VL_AMOUNT_BIGGER_THAN_MAX_LOAN_SIZE_STABLE()":"3aa786a8","VL_BORROWING_NOT_ENABLED()":"36565ab1","VL_COLLATERAL_BALANCE_IS_0()":"708b8dd3","VL_COLLATERAL_CANNOT_COVER_NEW_BORROW()":"2ace698a","VL_COLLATERAL_SAME_AS_BORROWING_CURRENCY()":"a39ed4ff","VL_CURRENT_AVAILABLE_LIQUIDITY_NOT_ENOUGH()":"179476c5","VL_DEPOSIT_ALREADY_IN_USE()":"e29425dc","VL_HEALTH_FACTOR_LOWER_THAN_LIQUIDATION_THRESHOLD()":"1ec68b1d","VL_INCONSISTENT_FLASHLOAN_PARAMS()":"d7b079aa","VL_INVALID_AMOUNT()":"871938a8","VL_INVALID_INTEREST_RATE_MODE_SELECTED()":"3b5d25aa","VL_NOT_ENOUGH_AVAILABLE_USER_BALANCE()":"a8440241","VL_NO_ACTIVE_RESERVE()":"7865a627","VL_NO_DEBT_OF_SELECTED_TYPE()":"91a9fb18","VL_NO_EXPLICIT_AMOUNT_TO_REPAY_ON_BEHALF()":"daf23547","VL_NO_STABLE_RATE_LOAN_IN_RESERVE()":"6422b257","VL_NO_VARIABLE_RATE_LOAN_IN_RESERVE()":"6ab5e615","VL_RESERVE_FROZEN()":"d7510e0c","VL_STABLE_BORROWING_NOT_ENABLED()":"4927c63a","VL_TRANSFER_NOT_ALLOWED()":"f3d9cc11","VL_UNDERLYING_BALANCE_NOT_GREATER_THAN_0()":"35a9d21d"}}}}}