{"contracts/aave/StaticATokenLM.sol":{"StaticATokenLM":{"abi":[{"inputs":[],"stateMutability":"nonpayable","type":"constructor"},{"anonymous":false,"inputs":[{"indexed":true,"internalType":"address","name":"owner","type":"address"},{"indexed":true,"internalType":"address","name":"spender","type":"address"},{"indexed":false,"internalType":"uint256","name":"value","type":"uint256"}],"name":"Approval","type":"event"},{"anonymous":false,"inputs":[{"indexed":true,"internalType":"address","name":"pool","type":"address"},{"indexed":false,"internalType":"address","name":"aToken","type":"address"},{"indexed":false,"internalType":"string","name":"staticATokenName","type":"string"},{"indexed":false,"internalType":"string","name":"staticATokenSymbol","type":"string"}],"name":"Initialized","type":"event"},{"anonymous":false,"inputs":[{"indexed":true,"internalType":"address","name":"from","type":"address"},{"indexed":true,"internalType":"address","name":"to","type":"address"},{"indexed":false,"internalType":"uint256","name":"value","type":"uint256"}],"name":"Transfer","type":"event"},{"inputs":[],"name":"ASSET","outputs":[{"internalType":"contract IERC20","name":"","type":"address"}],"stateMutability":"view","type":"function"},{"inputs":[],"name":"ATOKEN","outputs":[{"internalType":"contract IERC20","name":"","type":"address"}],"stateMutability":"view","type":"function"},{"inputs":[],"name":"EIP712_REVISION","outputs":[{"internalType":"bytes","name":"","type":"bytes"}],"stateMutability":"view","type":"function"},{"inputs":[],"name":"INCENTIVES_CONTROLLER","outputs":[{"internalType":"contract IAaveIncentivesController","name":"","type":"address"}],"stateMutability":"view","type":"function"},{"inputs":[],"name":"LENDING_POOL","outputs":[{"internalType":"contract ILendingPool","name":"","type":"address"}],"stateMutability":"view","type":"function"},{"inputs":[],"name":"METADEPOSIT_TYPEHASH","outputs":[{"internalType":"bytes32","name":"","type":"bytes32"}],"stateMutability":"view","type":"function"},{"inputs":[],"name":"METAWITHDRAWAL_TYPEHASH","outputs":[{"internalType":"bytes32","name":"","type":"bytes32"}],"stateMutability":"view","type":"function"},{"inputs":[],"name":"PERMIT_TYPEHASH","outputs":[{"internalType":"bytes32","name":"","type":"bytes32"}],"stateMutability":"view","type":"function"},{"inputs":[],"name":"REWARD_TOKEN","outputs":[{"internalType":"contract IERC20","name":"","type":"address"}],"stateMutability":"view","type":"function"},{"inputs":[],"name":"STATIC_ATOKEN_LM_REVISION","outputs":[{"internalType":"uint256","name":"","type":"uint256"}],"stateMutability":"view","type":"function"},{"inputs":[],"name":"UNDERLYING_ASSET_ADDRESS","outputs":[{"internalType":"address","name":"","type":"address"}],"stateMutability":"view","type":"function"},{"inputs":[{"internalType":"address","name":"","type":"address"}],"name":"_nonces","outputs":[{"internalType":"uint256","name":"","type":"uint256"}],"stateMutability":"view","type":"function"},{"inputs":[{"internalType":"address","name":"owner","type":"address"},{"internalType":"address","name":"spender","type":"address"}],"name":"allowance","outputs":[{"internalType":"uint256","name":"","type":"uint256"}],"stateMutability":"view","type":"function"},{"inputs":[{"internalType":"address","name":"spender","type":"address"},{"internalType":"uint256","name":"amount","type":"uint256"}],"name":"approve","outputs":[{"internalType":"bool","name":"","type":"bool"}],"stateMutability":"nonpayable","type":"function"},{"inputs":[{"internalType":"address","name":"account","type":"address"}],"name":"balanceOf","outputs":[{"internalType":"uint256","name":"","type":"uint256"}],"stateMutability":"view","type":"function"},{"inputs":[{"internalType":"address","name":"receiver","type":"address"},{"internalType":"bool","name":"forceUpdate","type":"bool"}],"name":"claimRewards","outputs":[],"stateMutability":"nonpayable","type":"function"},{"inputs":[{"internalType":"address","name":"onBehalfOf","type":"address"},{"internalType":"address","name":"receiver","type":"address"},{"internalType":"bool","name":"forceUpdate","type":"bool"}],"name":"claimRewardsOnBehalf","outputs":[],"stateMutability":"nonpayable","type":"function"},{"inputs":[{"internalType":"bool","name":"forceUpdate","type":"bool"}],"name":"claimRewardsToSelf","outputs":[],"stateMutability":"nonpayable","type":"function"},{"inputs":[],"name":"collectAndUpdateRewards","outputs":[],"stateMutability":"nonpayable","type":"function"},{"inputs":[],"name":"decimals","outputs":[{"internalType":"uint8","name":"","type":"uint8"}],"stateMutability":"view","type":"function"},{"inputs":[{"internalType":"address","name":"spender","type":"address"},{"internalType":"uint256","name":"subtractedValue","type":"uint256"}],"name":"decreaseAllowance","outputs":[{"internalType":"bool","name":"","type":"bool"}],"stateMutability":"nonpayable","type":"function"},{"inputs":[{"internalType":"address","name":"recipient","type":"address"},{"internalType":"uint256","name":"amount","type":"uint256"},{"internalType":"uint16","name":"referralCode","type":"uint16"},{"internalType":"bool","name":"fromUnderlying","type":"bool"}],"name":"deposit","outputs":[{"internalType":"uint256","name":"","type":"uint256"}],"stateMutability":"nonpayable","type":"function"},{"inputs":[{"internalType":"address","name":"account","type":"address"}],"name":"dynamicBalanceOf","outputs":[{"internalType":"uint256","name":"","type":"uint256"}],"stateMutability":"view","type":"function"},{"inputs":[{"internalType":"uint256","name":"amount","type":"uint256"}],"name":"dynamicToStaticAmount","outputs":[{"internalType":"uint256","name":"","type":"uint256"}],"stateMutability":"view","type":"function"},{"inputs":[],"name":"getAccRewardsPerToken","outputs":[{"internalType":"uint256","name":"","type":"uint256"}],"stateMutability":"view","type":"function"},{"inputs":[{"internalType":"address","name":"user","type":"address"}],"name":"getClaimableRewards","outputs":[{"internalType":"uint256","name":"","type":"uint256"}],"stateMutability":"view","type":"function"},{"inputs":[],"name":"getDomainSeparator","outputs":[{"internalType":"bytes32","name":"","type":"bytes32"}],"stateMutability":"view","type":"function"},{"inputs":[],"name":"getIncentivesController","outputs":[{"internalType":"contract IAaveIncentivesController","name":"","type":"address"}],"stateMutability":"view","type":"function"},{"inputs":[],"name":"getLastRewardBlock","outputs":[{"internalType":"uint256","name":"","type":"uint256"}],"stateMutability":"view","type":"function"},{"inputs":[],"name":"getLifetimeRewards","outputs":[{"internalType":"uint256","name":"","type":"uint256"}],"stateMutability":"view","type":"function"},{"inputs":[],"name":"getLifetimeRewardsClaimed","outputs":[{"internalType":"uint256","name":"","type":"uint256"}],"stateMutability":"view","type":"function"},{"inputs":[],"name":"getTotalClaimableRewards","outputs":[{"internalType":"uint256","name":"","type":"uint256"}],"stateMutability":"view","type":"function"},{"inputs":[{"internalType":"address","name":"user","type":"address"}],"name":"getUnclaimedRewards","outputs":[{"internalType":"uint256","name":"","type":"uint256"}],"stateMutability":"view","type":"function"},{"inputs":[{"internalType":"address","name":"spender","type":"address"},{"internalType":"uint256","name":"addedValue","type":"uint256"}],"name":"increaseAllowance","outputs":[{"internalType":"bool","name":"","type":"bool"}],"stateMutability":"nonpayable","type":"function"},{"inputs":[{"internalType":"contract ILendingPool","name":"pool","type":"address"},{"internalType":"address","name":"aToken","type":"address"},{"internalType":"string","name":"staticATokenName","type":"string"},{"internalType":"string","name":"staticATokenSymbol","type":"string"}],"name":"initialize","outputs":[],"stateMutability":"nonpayable","type":"function"},{"inputs":[],"name":"isImplementation","outputs":[{"internalType":"bool","name":"","type":"bool"}],"stateMutability":"view","type":"function"},{"inputs":[{"internalType":"address","name":"depositor","type":"address"},{"internalType":"address","name":"recipient","type":"address"},{"internalType":"uint256","name":"value","type":"uint256"},{"internalType":"uint16","name":"referralCode","type":"uint16"},{"internalType":"bool","name":"fromUnderlying","type":"bool"},{"internalType":"uint256","name":"deadline","type":"uint256"},{"components":[{"internalType":"uint8","name":"v","type":"uint8"},{"internalType":"bytes32","name":"r","type":"bytes32"},{"internalType":"bytes32","name":"s","type":"bytes32"}],"internalType":"struct IStaticATokenLM.SignatureParams","name":"sigParams","type":"tuple"}],"name":"metaDeposit","outputs":[{"internalType":"uint256","name":"","type":"uint256"}],"stateMutability":"nonpayable","type":"function"},{"inputs":[{"internalType":"address","name":"owner","type":"address"},{"internalType":"address","name":"recipient","type":"address"},{"internalType":"uint256","name":"staticAmount","type":"uint256"},{"internalType":"uint256","name":"dynamicAmount","type":"uint256"},{"internalType":"bool","name":"toUnderlying","type":"bool"},{"internalType":"uint256","name":"deadline","type":"uint256"},{"components":[{"internalType":"uint8","name":"v","type":"uint8"},{"internalType":"bytes32","name":"r","type":"bytes32"},{"internalType":"bytes32","name":"s","type":"bytes32"}],"internalType":"struct IStaticATokenLM.SignatureParams","name":"sigParams","type":"tuple"}],"name":"metaWithdraw","outputs":[{"internalType":"uint256","name":"","type":"uint256"},{"internalType":"uint256","name":"","type":"uint256"}],"stateMutability":"nonpayable","type":"function"},{"inputs":[],"name":"name","outputs":[{"internalType":"string","name":"","type":"string"}],"stateMutability":"view","type":"function"},{"inputs":[{"internalType":"address","name":"owner","type":"address"},{"internalType":"address","name":"spender","type":"address"},{"internalType":"uint256","name":"value","type":"uint256"},{"internalType":"uint256","name":"deadline","type":"uint256"},{"internalType":"uint8","name":"v","type":"uint8"},{"internalType":"bytes32","name":"r","type":"bytes32"},{"internalType":"bytes32","name":"s","type":"bytes32"}],"name":"permit","outputs":[],"stateMutability":"nonpayable","type":"function"},{"inputs":[],"name":"rate","outputs":[{"internalType":"uint256","name":"","type":"uint256"}],"stateMutability":"view","type":"function"},{"inputs":[{"internalType":"uint256","name":"amount","type":"uint256"}],"name":"staticToDynamicAmount","outputs":[{"internalType":"uint256","name":"","type":"uint256"}],"stateMutability":"view","type":"function"},{"inputs":[],"name":"symbol","outputs":[{"internalType":"string","name":"","type":"string"}],"stateMutability":"view","type":"function"},{"inputs":[],"name":"totalSupply","outputs":[{"internalType":"uint256","name":"","type":"uint256"}],"stateMutability":"view","type":"function"},{"inputs":[{"internalType":"address","name":"recipient","type":"address"},{"internalType":"uint256","name":"amount","type":"uint256"}],"name":"transfer","outputs":[{"internalType":"bool","name":"","type":"bool"}],"stateMutability":"nonpayable","type":"function"},{"inputs":[{"internalType":"address","name":"sender","type":"address"},{"internalType":"address","name":"recipient","type":"address"},{"internalType":"uint256","name":"amount","type":"uint256"}],"name":"transferFrom","outputs":[{"internalType":"bool","name":"","type":"bool"}],"stateMutability":"nonpayable","type":"function"},{"inputs":[{"internalType":"address","name":"recipient","type":"address"},{"internalType":"uint256","name":"amount","type":"uint256"},{"internalType":"bool","name":"toUnderlying","type":"bool"}],"name":"withdraw","outputs":[{"internalType":"uint256","name":"","type":"uint256"},{"internalType":"uint256","name":"","type":"uint256"}],"stateMutability":"nonpayable","type":"function"},{"inputs":[{"internalType":"address","name":"recipient","type":"address"},{"internalType":"uint256","name":"amount","type":"uint256"},{"internalType":"bool","name":"toUnderlying","type":"bool"}],"name":"withdrawDynamicAmount","outputs":[{"internalType":"uint256","name":"","type":"uint256"},{"internalType":"uint256","name":"","type":"uint256"}],"stateMutability":"nonpayable","type":"function"}],"evm":{"bytecode":{"linkReferences":{},"object":"6080604052600080553480156200001557600080fd5b5060408051808201825260128082527114d510551250d7d05513d2d15397d253541360721b60208084018281528551808701909652928552840152815191929162000063916037916200009e565b508051620000799060389060208401906200009e565b50506039805460ff19908116601217909155604580549091166001179055506200013a565b828054600181600116156101000203166002900490600052602060002090601f016020900481019282601f10620000e157805160ff191683800117855562000111565b8280016001018555821562000111579182015b8281111562000111578251825591602001919060010190620000f4565b506200011f92915062000123565b5090565b5b808211156200011f576000815560010162000124565b613de1806200014a6000396000f3fe608060405234801561001057600080fd5b50600436106103205760003560e01c806363210537116101a7578063b16a19de116100ee578063d505accf11610097578063ead5d35911610071578063ead5d359146105ce578063ed24911d146105e1578063f57d0b40146105e957610320565b8063d505accf14610595578063dd05aa12146105a8578063dd62ed3e146105bb57610320565b8063b9844d8d116100c8578063b9844d8d14610567578063bf62bee61461057a578063c485852b1461058257610320565b8063b16a19de1461054f578063b3a5902214610557578063b4dcfc771461055f57610320565b80638d94841511610150578063a135a55e1161012a578063a135a55e14610521578063a457c2d714610529578063a9059cbb1461053c57610320565b80638d9484151461050957806395d89b411461051157806399248ea71461051957610320565b806375d264131161018157806375d26413146104f157806378160376146104f95780637f372cff1461050157610320565b806363210537146104c357806369a69e29146104cb57806370a08231146104de57610320565b806331a5cfa41161026b5780634800d97f1161021457806360266557116101ee57806360266557146104a057806360a49b33146104b357806361d0494d146104bb57610320565b80634800d97f1461047d578063491c011a1461048557806351c0e0611461049857610320565b80633eb2eba6116102455780633eb2eba61461044f57806344b68c3f1461045757806345c1ace71461046a57610320565b806331a5cfa41461042157806336a5a6d614610429578063395093511461043c57610320565b8063288587ce116102cd578063308e401e116102a7578063308e401e146103f157806330adf81f14610404578063313ce5671461040c57610320565b8063288587ce146103b55780632c4e722e146103d65780632f2cab87146103de57610320565b806318160ddd116102fe57806318160ddd146103785780632016a0d21461038d57806323b872dd146103a257610320565b806306fdde0314610325578063095ea7b31461034357806310d0ab2214610363575b600080fd5b61032d6105fc565b60405161033a91906138c7565b60405180910390f35b610356610351366004613379565b610693565b60405161033a91906137a9565b61036b6106b1565b60405161033a919061364f565b6103806106c0565b60405161033a91906137b4565b6103a061039b36600461346a565b6106c6565b005b6103566103b03660046131c1565b610b0e565b6103c86103c33660046133a4565b610b96565b60405161033a929190613c9c565b610380610bb3565b6103806103ec3660046133da565b610c5e565b6103806103ff366004613107565b610c76565b610380610c8c565b610414610cb0565b60405161033a9190613caa565b610380610cb9565b6103806104373660046134fc565b610cbf565b61035661044a366004613379565b610cd2565b6103a0610d20565b610380610465366004613107565b610ec0565b6103a0610478366004613432565b610edb565b61036b610efe565b6103a061049336600461334c565b610f0d565b61036b610f31565b6103c86104ae366004613288565b610f40565b6103566111ac565b6103806111b5565b6103806111ba565b6103806104d9366004613107565b6111de565b6103806104ec366004613107565b611200565b61036b61121b565b61032d61122a565b610380611263565b610380611414565b61032d611438565b61036b611499565b6103806114a8565b610356610537366004613379565b6114ae565b61035661054a366004613379565b611516565b61036b61152a565b610380611539565b61036b61153f565b610380610575366004613107565b611553565b610380611565565b610380610590366004613201565b61156b565b6103a06105a33660046132dc565b6117d1565b6103a06105b6366004613177565b611a14565b6103806105c936600461313f565b611b4e565b6103c86105dc3660046133a4565b611b79565b610380611b8a565b6103806105f73660046134fc565b611c3e565b60378054604080516020601f60026000196101006001881615020190951694909404938401819004810282018101909252828152606093909290918301828280156106885780601f1061065d57610100808354040283529160200191610688565b820191906000526020600020905b81548152906001019060200180831161066b57829003601f168201915b505050505090505b90565b60006106a76106a0611c4c565b8484611c50565b5060015b92915050565b603a546001600160a01b031681565b60365490565b60006106d0611d04565b60015490915060ff16806106e757506106e7611d09565b806106f3575060005481115b6107185760405162461bcd60e51b815260040161070f90613a00565b60405180910390fd5b60015460ff1615801561075557600180547fffffffffffffffffffffffffffffffffffffffffffffffffffffffffffffff00168117905560008290555b603980547fffffffffffffffffffffff0000000000000000000000000000000000000000ff166101006001600160a01b038b81169190910291909117909155603b80547fffffffffffffffffffffffff0000000000000000000000000000000000000000169189169190911790556107cf60378787612ff8565b506107dc60388585612ff8565b50610856876001600160a01b031663313ce5676040518163ffffffff1660e01b815260040160206040518083038186803b15801561081957600080fd5b505afa15801561082d573d6000803e3d6000fd5b505050506040513d601f19601f820116820180604052508101906108519190613548565b611d0f565b866001600160a01b031663b16a19de6040518163ffffffff1660e01b815260040160206040518083038186803b15801561088f57600080fd5b505afa1580156108a3573d6000803e3d6000fd5b505050506040513d601f19601f820116820180604052508101906108c79190613123565b603c80547fffffffffffffffffffffffff0000000000000000000000000000000000000000166001600160a01b03928316179081905561090b911689600019611d43565b866001600160a01b03166375d264136040518163ffffffff1660e01b815260040160206040518083038186803b15801561094457600080fd5b505afa925050508015610974575060408051601f3d908101601f1916820190925261097191810190613123565b60015b61097d57610a8c565b6001600160a01b03811615610a8a57603a80547fffffffffffffffffffffffff0000000000000000000000000000000000000000166001600160a01b038381169190911791829055604080517f99248ea7000000000000000000000000000000000000000000000000000000008152905192909116916399248ea791600480820192602092909190829003018186803b158015610a1957600080fd5b505afa158015610a2d573d6000803e3d6000fd5b505050506040513d601f19601f82011682018060405250810190610a519190613123565b603d80547fffffffffffffffffffffffff0000000000000000000000000000000000000000166001600160a01b03929092169190911790555b505b876001600160a01b03167f45705fbd98b82017a03e6b75118b5900c6a3e840d26142e2d30214c0dd7a92df8888888888604051610acd9594939291906136a1565b60405180910390a28015610b0457600180547fffffffffffffffffffffffffffffffffffffffffffffffffffffffffffffff001690555b5050505050505050565b6000610b1b848484611e83565b610b8b84610b27611c4c565b610b8685604051806060016040528060288152602001613d5f602891396001600160a01b038a16600090815260356020526040812090610b65611c4c565b6001600160a01b031681526020810191909152604001600020549190611f98565b611c50565b5060015b9392505050565b600080610ba7338660008787611fc4565b91509150935093915050565b603954603c546040517fd15e005300000000000000000000000000000000000000000000000000000000815260009261010090046001600160a01b039081169263d15e005392610c09929091169060040161364f565b60206040518083038186803b158015610c2157600080fd5b505afa158015610c35573d6000803e3d6000fd5b505050506040513d601f19601f82011682018060405250810190610c599190613514565b905090565b6000610c6d33868686866121e2565b95945050505050565b60006106ab82610c8584611200565b600161238b565b7f6e71edae12b1b97f4d1f60370fef10105fa2faae0126114a169c64845d6126c981565b60395460ff1690565b60405490565b60006106ab82610ccd610bb3565b6123c6565b60006106a7610cdf611c4c565b84610b868560356000610cf0611c4c565b6001600160a01b03908116825260208083019390935260409182016000908120918c1681529252902054906123d2565b603a546001600160a01b0316610d3557610ebe565b436042556000610d436106c0565b60408051600180825281830190925291925060609190602080830190803683375050603b5482519293506001600160a01b031691839150600090610d8357fe5b6001600160a01b039283166020918202929092010152603a546040517f3111e7b30000000000000000000000000000000000000000000000000000000081526000929190911690633111e7b390610de4908590600019903090600401613777565b602060405180830381600087803b158015610dfe57600080fd5b505af1158015610e12573d6000803e3d6000fd5b505050506040513d601f19601f82011682018060405250810190610e369190613514565b90506000610e4f826040546123d290919063ffffffff16565b90506000610e70610e6b604154846123f790919063ffffffff16565b612439565b9050600085118015610e825750600081115b15610eaa57610ea6610e9d610e9687612439565b83906124a4565b603f54906123d2565b603f555b8015610eb65760418290555b506040555050505b565b60006106ab610ece83611200565b610ed6610bb3565b612584565b603a546001600160a01b0316610ef057610efb565b610efb333383612590565b50565b603c546001600160a01b031681565b603a546001600160a01b0316610f2257610f2d565b610f2d338383612590565b5050565b603b546001600160a01b031681565b60408051808201909152600181527f3100000000000000000000000000000000000000000000000000000000000000602082015260009081906001600160a01b038a16610fa05760405162461bcd60e51b815260040161070f91906138c7565b50834211156040518060400160405280600181526020017f320000000000000000000000000000000000000000000000000000000000000081525090610ff95760405162461bcd60e51b815260040161070f91906138c7565b506001600160a01b0389166000908152603e60205260408120549061101c611b8a565b7fce21806401473655533a882461ca5036529d194f238d3c1793817a552bd133a58c8c8c8c8c888d60405160200161105b989796959493929190613805565b60405160208183030381529060405280519060200120604051602001611082929190613619565b60408051601f198184030181529190528051602091820120915060019082906110ad9088018861352c565b87602001358860400135604051600081526020016040526040516110d494939291906138a9565b6020604051602081039080840390855afa1580156110f6573d6000803e3d6000fd5b505050602060405103516001600160a01b03168b6001600160a01b0316146040518060400160405280600181526020017f3300000000000000000000000000000000000000000000000000000000000000815250906111685760405162461bcd60e51b815260040161070f91906138c7565b506111748260016123d2565b6001600160a01b038c166000908152603e602052604090205561119a8b8b8b8b8b611fc4565b93509350505097509795505050505050565b60455460ff1681565b600181565b7f4dab0a5e832f103ac80c9c3e51e5742f8a24aa0a3d941fe91c64e1e3db50c74381565b6001600160a01b0381166000908152604460205260408120546106ab906126ad565b6001600160a01b031660009081526034602052604090205490565b603a546001600160a01b031690565b6040518060400160405280600181526020017f310000000000000000000000000000000000000000000000000000000000000081525081565b603a546000906001600160a01b031661127e57506000610690565b604080516001808252818301909252606091602080830190803683375050603b5482519293506001600160a01b0316918391506000906112ba57fe5b6001600160a01b039283166020918202929092010152603a546040517f8b599f260000000000000000000000000000000000000000000000000000000081526000929190911690638b599f2690611317908590309060040161374c565b60206040518083038186803b15801561132f57600080fd5b505afa158015611343573d6000803e3d6000fd5b505050506040513d601f19601f820116820180604052508101906113679190613514565b603d546040517f70a0823100000000000000000000000000000000000000000000000000000000815291925061140d9183916001600160a01b0316906370a08231906113b790309060040161364f565b60206040518083038186803b1580156113cf57600080fd5b505afa1580156113e3573d6000803e3d6000fd5b505050506040513d601f19601f820116820180604052508101906114079190613514565b906123d2565b9250505090565b7fce21806401473655533a882461ca5036529d194f238d3c1793817a552bd133a581565b60388054604080516020601f60026000196101006001881615020190951694909404938401819004810282018101909252828152606093909290918301828280156106885780601f1061065d57610100808354040283529160200191610688565b603d546001600160a01b031681565b603f5490565b60006106a76114bb611c4c565b84610b8685604051806060016040528060258152602001613d8760259139603560006114e5611c4c565b6001600160a01b03908116825260208083019390935260409182016000908120918d16815292529020549190611f98565b60006106a7611523611c4c565b8484611e83565b603c546001600160a01b031690565b60415490565b60395461010090046001600160a01b031681565b603e6020526000908152604090205481565b60425490565b60408051808201909152600181527f340000000000000000000000000000000000000000000000000000000000000060208201526000906001600160a01b0389166115c95760405162461bcd60e51b815260040161070f91906138c7565b50824211156040518060400160405280600181526020017f3200000000000000000000000000000000000000000000000000000000000000815250906116225760405162461bcd60e51b815260040161070f91906138c7565b506001600160a01b0388166000908152603e602052604081205490611645611b8a565b7f4dab0a5e832f103ac80c9c3e51e5742f8a24aa0a3d941fe91c64e1e3db50c7438b8b8b8b8b888c6040516020016116849897969594939291906137bd565b604051602081830303815290604052805190602001206040516020016116ab929190613619565b60408051601f198184030181529190528051602091820120915060019082906116d69087018761352c565b86602001358760400135604051600081526020016040526040516116fd94939291906138a9565b6020604051602081039080840390855afa15801561171f573d6000803e3d6000fd5b505050602060405103516001600160a01b03168a6001600160a01b0316146040518060400160405280600181526020017f3300000000000000000000000000000000000000000000000000000000000000815250906117915760405162461bcd60e51b815260040161070f91906138c7565b5061179d8260016123d2565b6001600160a01b038b166000908152603e60205260409020556117c38a8a8a8a8a6121e2565b9a9950505050505050505050565b60408051808201909152600181527f310000000000000000000000000000000000000000000000000000000000000060208201526001600160a01b03881661182c5760405162461bcd60e51b815260040161070f91906138c7565b50834211156040518060400160405280600181526020017f3200000000000000000000000000000000000000000000000000000000000000815250906118855760405162461bcd60e51b815260040161070f91906138c7565b506001600160a01b0387166000908152603e6020526040812054906118a8611b8a565b7f6e71edae12b1b97f4d1f60370fef10105fa2faae0126114a169c64845d6126c98a8a8a868b6040516020016118e396959493929190613849565b6040516020818303038152906040528051906020012060405160200161190a929190613619565b6040516020818303038152906040528051906020012090506001818686866040516000815260200160405260405161194594939291906138a9565b6020604051602081039080840390855afa158015611967573d6000803e3d6000fd5b505050602060405103516001600160a01b0316896001600160a01b0316146040518060400160405280600181526020017f3300000000000000000000000000000000000000000000000000000000000000815250906119d95760405162461bcd60e51b815260040161070f91906138c7565b506119e58260016123d2565b6001600160a01b038a166000908152603e6020526040902055611a09898989611c50565b505050505050505050565b603a546001600160a01b0316611a2957611b49565b336001600160a01b0384161480611ae95750603a546040517f74d945ec0000000000000000000000000000000000000000000000000000000081526001600160a01b03909116906374d945ec90611a8490869060040161364f565b60206040518083038186803b158015611a9c57600080fd5b505afa158015611ab0573d6000803e3d6000fd5b505050506040513d601f19601f82011682018060405250810190611ad49190613123565b6001600160a01b0316336001600160a01b0316145b6040518060400160405280600181526020017f360000000000000000000000000000000000000000000000000000000000000081525090611b3d5760405162461bcd60e51b815260040161070f91906138c7565b50611b49838383612590565b505050565b6001600160a01b03918216600090815260356020908152604080832093909416825291909152205490565b600080610ba7338686600087611fc4565b6000467f8b73c3c69bb8fe3d512ecc4cf759cc79239f7b179b0ffacaa9a75d522b39400f611bb66105fc565b8051602091820120604080518082018252600181527f31000000000000000000000000000000000000000000000000000000000000009084015251611c2293927fc89efdaa54c0f20c7adf612882df0950f5a951637e0307cdcb4c672f298b8bc691869130910161387d565b6040516020818303038152906040528051906020012091505090565b60006106ab82610ed6610bb3565b3390565b6001600160a01b038316611c765760405162461bcd60e51b815260040161070f90613b17565b6001600160a01b038216611c9c5760405162461bcd60e51b815260040161070f90613937565b6001600160a01b0380841660008181526035602090815260408083209487168084529490915290819020849055517f8c5be1e5ebec7d5bd14f71427d1e84f3dd0314c0f7b2291e5b200ac8c7c3b92590611cf79085906137b4565b60405180910390a3505050565b600190565b303b1590565b603980547fffffffffffffffffffffffffffffffffffffffffffffffffffffffffffffff001660ff92909216919091179055565b801580611de457506040517fdd62ed3e0000000000000000000000000000000000000000000000000000000081526001600160a01b0384169063dd62ed3e90611d929030908690600401613663565b60206040518083038186803b158015611daa57600080fd5b505afa158015611dbe573d6000803e3d6000fd5b505050506040513d601f19601f82011682018060405250810190611de29190613514565b155b611e005760405162461bcd60e51b815260040161070f90613bd1565b611b498363095ea7b360e01b8484604051602401611e1f9291906136e3565b60408051601f198184030181529190526020810180517bffffffffffffffffffffffffffffffffffffffffffffffffffffffff167fffffffff00000000000000000000000000000000000000000000000000000000909316929092179091526126b7565b6001600160a01b038316611ea95760405162461bcd60e51b815260040161070f90613aba565b6001600160a01b038216611ecf5760405162461bcd60e51b815260040161070f906138da565b611eda8383836127a2565b611f1781604051806060016040528060268152602001613d39602691396001600160a01b0386166000908152603460205260409020549190611f98565b6001600160a01b038085166000908152603460205260408082209390935590841681522054611f4690826123d2565b6001600160a01b0380841660008181526034602052604090819020939093559151908516907fddf252ad1be2c89b69c2b068fc378daa952ba7f163c4a11628f55a4df523b3ef90611cf79085906137b4565b60008184841115611fbc5760405162461bcd60e51b815260040161070f91906138c7565b505050900390565b60408051808201909152600181527f3500000000000000000000000000000000000000000000000000000000000000602082015260009081906001600160a01b0387166120245760405162461bcd60e51b815260040161070f91906138c7565b50841580612030575083155b6040518060400160405280600181526020017f3700000000000000000000000000000000000000000000000000000000000000815250906120845760405162461bcd60e51b815260040161070f91906138c7565b5061208d6127e7565b600061209888611200565b905060008060006120a7610bb3565b905088156120d1578389116120bc57886120be565b835b91506120ca8282612584565b92506120fe565b60006120dd8583612584565b90508089116120ec57886120ee565b805b93506120fa84836123c6565b9250505b6121088b8361295c565b86156121bc57603954603c546040517f69328dec0000000000000000000000000000000000000000000000000000000081526001600160a01b036101009093048316926369328dec926121649291169087908f906004016136fc565b602060405180830381600087803b15801561217e57600080fd5b505af1158015612192573d6000803e3d6000fd5b505050506040513d601f19601f820116820180604052508101906121b69190613514565b506121d3565b603b546121d3906001600160a01b03168b85612a3e565b50999098509650505050505050565b60455460408051808201909152600181527f3800000000000000000000000000000000000000000000000000000000000000602082015260009160ff161561223d5760405162461bcd60e51b815260040161070f91906138c7565b5060408051808201909152600181527f350000000000000000000000000000000000000000000000000000000000000060208201526001600160a01b0386166122995760405162461bcd60e51b815260040161070f91906138c7565b506122a26127e7565b811561234f57603c546122c0906001600160a01b0316873087612a5d565b603954603c546040517fe8eda9df0000000000000000000000000000000000000000000000000000000081526001600160a01b0361010090930483169263e8eda9df926123189291169088903090899060040161371f565b600060405180830381600087803b15801561233257600080fd5b505af1158015612346573d6000803e3d6000fd5b50505050612367565b603b54612367906001600160a01b0316873087612a5d565b600061237585610ccd610bb3565b90506123818682612a7e565b9695505050505050565b6000806123bb61239c868686612b32565b6001600160a01b038716600090815260446020526040902054906123d2565b9050610c6d816126ad565b6000610b8f8383612cff565b600082820183811015610b8f5760405162461bcd60e51b815260040161070f90613994565b6000610b8f83836040518060400160405280601e81526020017f536166654d6174683a207375627472616374696f6e206f766572666c6f770000815250611f98565b6000633b9aca008281029083908204146040518060400160405280600281526020017f34380000000000000000000000000000000000000000000000000000000000008152509061249d5760405162461bcd60e51b815260040161070f91906138c7565b5092915050565b60408051808201909152600281527f35300000000000000000000000000000000000000000000000000000000000006020820152600090826124f95760405162461bcd60e51b815260040161070f91906138c7565b5060408051808201909152600281527f34380000000000000000000000000000000000000000000000000000000000006020820152744f3a68dbc8f03f243baf513267aa9a3ee524f8e0288411156125645760405162461bcd60e51b815260040161070f91906138c7565b50816b033b2e3c9fd0803ce800000084028161257c57fe5b049392505050565b6000610b8f8383612de0565b801561259e5761259e610d20565b60006125a984611200565b905060006125b98583600061238b565b603d546040517f70a082310000000000000000000000000000000000000000000000000000000081529192506000916001600160a01b03909116906370a082319061260890309060040161364f565b60206040518083038186803b15801561262057600080fd5b505afa158015612634573d6000803e3d6000fd5b505050506040513d601f19601f820116820180604052508101906126589190613514565b905080821115612666578091505b81156126a5576001600160a01b03861660009081526044602052604081205561268e86612e9f565b603d546126a5906001600160a01b03168684612a3e565b505050505050565b633b9aca00900490565b6126c9826001600160a01b0316612ebe565b6126e55760405162461bcd60e51b815260040161070f90613c2e565b60006060836001600160a01b03168360405161270191906135fd565b6000604051808303816000865af19150503d806000811461273e576040519150601f19603f3d011682016040523d82523d6000602084013e612743565b606091505b5091509150816127655760405162461bcd60e51b815260040161070f906139cb565b80511561279c5780806020019051810190612780919061344e565b61279c5760405162461bcd60e51b815260040161070f90613b74565b50505050565b603a546001600160a01b03166127b757611b49565b6001600160a01b038316156127cf576127cf83612efa565b6001600160a01b03821615611b4957611b4982612efa565b603a546001600160a01b03166127fc57610ebe565b604254431115610ebe574360425560006128146106c0565b9050806128215750610ebe565b604080516001808252818301909252606091602080830190803683375050603b5482519293506001600160a01b03169183915060009061285d57fe5b6001600160a01b039283166020918202929092010152603a546040517f8b599f260000000000000000000000000000000000000000000000000000000081526000929190911690638b599f26906128ba908590309060040161374c565b60206040518083038186803b1580156128d257600080fd5b505afa1580156128e6573d6000803e3d6000fd5b505050506040513d601f19601f8201168201806040525081019061290a9190613514565b90506000612923826040546123d290919063ffffffff16565b9050600061293f610e6b604154846123f790919063ffffffff16565b9050612950610e9d610e9687612439565b603f5550604155505050565b6001600160a01b0382166129825760405162461bcd60e51b815260040161070f90613a5d565b61298e826000836127a2565b6129cb81604051806060016040528060228152602001613d17602291396001600160a01b0385166000908152603460205260409020549190611f98565b6001600160a01b0383166000908152603460205260409020556036546129f190826123f7565b6036556040516000906001600160a01b038416907fddf252ad1be2c89b69c2b068fc378daa952ba7f163c4a11628f55a4df523b3ef90612a329085906137b4565b60405180910390a35050565b611b498363a9059cbb60e01b8484604051602401611e1f9291906136e3565b61279c846323b872dd60e01b858585604051602401611e1f9392919061367d565b6001600160a01b038216612aa45760405162461bcd60e51b815260040161070f90613c65565b612ab0600083836127a2565b603654612abd90826123d2565b6036556001600160a01b038216600090815260346020526040902054612ae390826123d2565b6001600160a01b0383166000818152603460205260408082209390935591519091907fddf252ad1be2c89b69c2b068fc378daa952ba7f163c4a11628f55a4df523b3ef90612a329085906137b4565b603a546000906001600160a01b0316612b4d57506000610b8f565b82612b5a57506000610b8f565b6000612b6584612439565b90506000612b716106c0565b603f549091508115801590612b835750845b15612cc557604080516001808252818301909252606091602080830190803683375050603b5482519293506001600160a01b031691839150600090612bc457fe5b6001600160a01b039283166020918202929092010152603a546040517f8b599f260000000000000000000000000000000000000000000000000000000081526000929190911690638b599f2690612c21908590309060040161374c565b60206040518083038186803b158015612c3957600080fd5b505afa158015612c4d573d6000803e3d6000fd5b505050506040513d601f19601f82011682018060405250810190612c719190613514565b90506000612c8a826040546123d290919063ffffffff16565b90506000612ca6610e6b604154846123f790919063ffffffff16565b9050612cbe612cb7610e9688612439565b86906123d2565b9450505050505b6001600160a01b038716600090815260436020526040902054612cf490612ced9083906123f7565b8490612f65565b979650505050505050565b60408051808201909152600281527f3530000000000000000000000000000000000000000000000000000000000000602082015260009082612d545760405162461bcd60e51b815260040161070f91906138c7565b506040805180820190915260028082527f343800000000000000000000000000000000000000000000000000000000000060208301528304906b033b2e3c9fd0803ce8000000821904851115612dbd5760405162461bcd60e51b815260040161070f91906138c7565b5082816b033b2e3c9fd0803ce800000086020181612dd757fe5b04949350505050565b6000821580612ded575081155b15612dfa575060006106ab565b817ffffffffffffffffffffffffffffffffffffffffffe6268e1b017bfe18bffffff81612e2357fe5b048311156040518060400160405280600281526020017f343800000000000000000000000000000000000000000000000000000000000081525090612e7b5760405162461bcd60e51b815260040161070f91906138c7565b506b033b2e3c9fd0803ce80000008383026b019d971e4fe8401e740000000161257c565b603f546001600160a01b03909116600090815260436020526040902055565b6000813f7fc5d2460186f7233c927e7db2dcc703c0e500b653ca82273b7bfad8045d85a470818114801590612ef257508115155b949350505050565b6000612f0582611200565b90508015612f5c576000612f1b83836000612b32565b6001600160a01b038416600090815260446020526040902054909150612f4190826123d2565b6001600160a01b038416600090815260446020526040902055505b610f2d82612e9f565b6000821580612f72575081155b15612f7f575060006106ab565b8160001981612f8a57fe5b048311156040518060400160405280600281526020017f343800000000000000000000000000000000000000000000000000000000000081525090612fe25760405162461bcd60e51b815260040161070f91906138c7565b506b033b2e3c9fd0803ce800000083830261257c565b828054600181600116156101000203166002900490600052602060002090601f016020900481019282601f10613057578280017fffffffffffffffffffffffffffffffffffffffffffffffffffffffffffffff00823516178555613084565b82800160010185558215613084579182015b82811115613084578235825591602001919060010190613069565b50613090929150613094565b5090565b5b808211156130905760008155600101613095565b60008083601f8401126130ba578182fd5b50813567ffffffffffffffff8111156130d1578182fd5b6020830191508360208285010111156130e957600080fd5b9250929050565b600060608284031215613101578081fd5b50919050565b600060208284031215613118578081fd5b8135610b8f81613ce4565b600060208284031215613134578081fd5b8151610b8f81613ce4565b60008060408385031215613151578081fd5b823561315c81613ce4565b9150602083013561316c81613ce4565b809150509250929050565b60008060006060848603121561318b578081fd5b833561319681613ce4565b925060208401356131a681613ce4565b915060408401356131b681613cf9565b809150509250925092565b6000806000606084860312156131d5578283fd5b83356131e081613ce4565b925060208401356131f081613ce4565b929592945050506040919091013590565b6000806000806000806000610120888a03121561321c578283fd5b873561322781613ce4565b9650602088013561323781613ce4565b955060408801359450606088013561ffff81168114613254578384fd5b9350608088013561326481613cf9565b925060a0880135915061327a8960c08a016130f0565b905092959891949750929550565b6000806000806000806000610120888a0312156132a3578283fd5b87356132ae81613ce4565b965060208801356132be81613ce4565b95506040880135945060608801359350608088013561326481613cf9565b600080600080600080600060e0888a0312156132f6578081fd5b873561330181613ce4565b9650602088013561331181613ce4565b95506040880135945060608801359350608088013561332f81613d07565b9699959850939692959460a0840135945060c09093013592915050565b6000806040838503121561335e578182fd5b823561336981613ce4565b9150602083013561316c81613cf9565b6000806040838503121561338b578182fd5b823561339681613ce4565b946020939093013593505050565b6000806000606084860312156133b8578081fd5b83356133c381613ce4565b92506020840135915060408401356131b681613cf9565b600080600080608085870312156133ef578182fd5b84356133fa81613ce4565b935060208501359250604085013561ffff81168114613417578283fd5b9150606085013561342781613cf9565b939692955090935050565b600060208284031215613443578081fd5b8135610b8f81613cf9565b60006020828403121561345f578081fd5b8151610b8f81613cf9565b60008060008060008060808789031215613482578384fd5b863561348d81613ce4565b9550602087013561349d81613ce4565b9450604087013567ffffffffffffffff808211156134b9578586fd5b6134c58a838b016130a9565b909650945060608901359150808211156134dd578384fd5b506134ea89828a016130a9565b979a9699509497509295939492505050565b60006020828403121561350d578081fd5b5035919050565b600060208284031215613525578081fd5b5051919050565b60006020828403121561353d578081fd5b8135610b8f81613d07565b600060208284031215613559578081fd5b8151610b8f81613d07565b6000815180845260208085019450808401835b8381101561359c5781516001600160a01b031687529582019590820190600101613577565b509495945050505050565b600081518084526135bf816020860160208601613cb8565b601f01601f19169290920160200192915050565b60008284528282602086013780602084860101526020601f19601f85011685010190509392505050565b6000825161360f818460208701613cb8565b9190910192915050565b7f190100000000000000000000000000000000000000000000000000000000000081526002810192909252602282015260420190565b6001600160a01b0391909116815260200190565b6001600160a01b0392831681529116602082015260400190565b6001600160a01b039384168152919092166020820152604081019190915260600190565b60006001600160a01b0387168252606060208301526136c46060830186886135d3565b82810360408401526136d78185876135d3565b98975050505050505050565b6001600160a01b03929092168252602082015260400190565b6001600160a01b0393841681526020810192909252909116604082015260600190565b6001600160a01b03948516815260208101939093529216604082015261ffff909116606082015260800190565b60006040825261375f6040830185613564565b90506001600160a01b03831660208301529392505050565b60006060825261378a6060830186613564565b90508360208301526001600160a01b0383166040830152949350505050565b901515815260200190565b90815260200190565b9788526001600160a01b039687166020890152949095166040870152606086019290925261ffff166080850152151560a084015260c083019190915260e08201526101000190565b9788526001600160a01b03968716602089015294909516604087015260608601929092526080850152151560a084015260c083019190915260e08201526101000190565b9586526001600160a01b0394851660208701529290931660408501526060840152608083019190915260a082015260c00190565b9485526020850193909352604084019190915260608301526001600160a01b0316608082015260a00190565b93845260ff9290921660208401526040830152606082015260800190565b600060208252610b8f60208301846135a7565b60208082526023908201527f45524332303a207472616e7366657220746f20746865207a65726f206164647260408201527f6573730000000000000000000000000000000000000000000000000000000000606082015260800190565b60208082526022908201527f45524332303a20617070726f766520746f20746865207a65726f20616464726560408201527f7373000000000000000000000000000000000000000000000000000000000000606082015260800190565b6020808252601b908201527f536166654d6174683a206164646974696f6e206f766572666c6f770000000000604082015260600190565b6020808252818101527f5361666545524332303a206c6f772d6c6576656c2063616c6c206661696c6564604082015260600190565b6020808252602e908201527f436f6e747261637420696e7374616e63652068617320616c726561647920626560408201527f656e20696e697469616c697a6564000000000000000000000000000000000000606082015260800190565b60208082526021908201527f45524332303a206275726e2066726f6d20746865207a65726f2061646472657360408201527f7300000000000000000000000000000000000000000000000000000000000000606082015260800190565b60208082526025908201527f45524332303a207472616e736665722066726f6d20746865207a65726f20616460408201527f6472657373000000000000000000000000000000000000000000000000000000606082015260800190565b60208082526024908201527f45524332303a20617070726f76652066726f6d20746865207a65726f2061646460408201527f7265737300000000000000000000000000000000000000000000000000000000606082015260800190565b6020808252602a908201527f5361666545524332303a204552433230206f7065726174696f6e20646964206e60408201527f6f74207375636365656400000000000000000000000000000000000000000000606082015260800190565b60208082526036908201527f5361666545524332303a20617070726f76652066726f6d206e6f6e2d7a65726f60408201527f20746f206e6f6e2d7a65726f20616c6c6f77616e636500000000000000000000606082015260800190565b6020808252601f908201527f5361666545524332303a2063616c6c20746f206e6f6e2d636f6e747261637400604082015260600190565b6020808252601f908201527f45524332303a206d696e7420746f20746865207a65726f206164647265737300604082015260600190565b918252602082015260400190565b60ff91909116815260200190565b60005b83811015613cd3578181015183820152602001613cbb565b8381111561279c5750506000910152565b6001600160a01b0381168114610efb57600080fd5b8015158114610efb57600080fd5b60ff81168114610efb57600080fdfe45524332303a206275726e20616d6f756e7420657863656564732062616c616e636545524332303a207472616e7366657220616d6f756e7420657863656564732062616c616e636545524332303a207472616e7366657220616d6f756e74206578636565647320616c6c6f77616e636545524332303a2064656372656173656420616c6c6f77616e63652062656c6f77207a65726fa264697066735822122089b33b9baa695d1f580cc8dedf20027e85c8bb94e8e6b4b2d8997a69571c59be64736f6c634300060c0033","opcodes":"PUSH1 0x80 PUSH1 0x40 MSTORE PUSH1 0x0 DUP1 SSTORE CALLVALUE DUP1 ISZERO PUSH3 0x15 JUMPI PUSH1 0x0 DUP1 REVERT JUMPDEST POP PUSH1 0x40 DUP1 MLOAD DUP1 DUP3 ADD DUP3 MSTORE PUSH1 0x12 DUP1 DUP3 MSTORE PUSH18 0x14D510551250D7D05513D2D15397D2535413 PUSH1 0x72 SHL PUSH1 0x20 DUP1 DUP5 ADD DUP3 DUP2 MSTORE DUP6 MLOAD DUP1 DUP8 ADD SWAP1 SWAP7 MSTORE SWAP3 DUP6 MSTORE DUP5 ADD MSTORE DUP2 MLOAD SWAP2 SWAP3 SWAP2 PUSH3 0x63 SWAP2 PUSH1 0x37 SWAP2 PUSH3 0x9E JUMP JUMPDEST POP DUP1 MLOAD PUSH3 0x79 SWAP1 PUSH1 0x38 SWAP1 PUSH1 0x20 DUP5 ADD SWAP1 PUSH3 0x9E JUMP JUMPDEST POP POP PUSH1 0x39 DUP1 SLOAD PUSH1 0xFF NOT SWAP1 DUP2 AND PUSH1 0x12 OR SWAP1 SWAP2 SSTORE PUSH1 0x45 DUP1 SLOAD SWAP1 SWAP2 AND PUSH1 0x1 OR SWAP1 SSTORE POP PUSH3 0x13A JUMP JUMPDEST DUP3 DUP1 SLOAD PUSH1 0x1 DUP2 PUSH1 0x1 AND ISZERO PUSH2 0x100 MUL SUB AND PUSH1 0x2 SWAP1 DIV SWAP1 PUSH1 0x0 MSTORE PUSH1 0x20 PUSH1 0x0 KECCAK256 SWAP1 PUSH1 0x1F ADD PUSH1 0x20 SWAP1 DIV DUP2 ADD SWAP3 DUP3 PUSH1 0x1F LT PUSH3 0xE1 JUMPI DUP1 MLOAD PUSH1 0xFF NOT AND DUP4 DUP1 ADD OR DUP6 SSTORE PUSH3 0x111 JUMP JUMPDEST DUP3 DUP1 ADD PUSH1 0x1 ADD DUP6 SSTORE DUP3 ISZERO PUSH3 0x111 JUMPI SWAP2 DUP3 ADD JUMPDEST DUP3 DUP2 GT ISZERO PUSH3 0x111 JUMPI DUP3 MLOAD DUP3 SSTORE SWAP2 PUSH1 0x20 ADD SWAP2 SWAP1 PUSH1 0x1 ADD SWAP1 PUSH3 0xF4 JUMP JUMPDEST POP PUSH3 0x11F SWAP3 SWAP2 POP PUSH3 0x123 JUMP JUMPDEST POP SWAP1 JUMP JUMPDEST JUMPDEST DUP1 DUP3 GT ISZERO PUSH3 0x11F JUMPI PUSH1 0x0 DUP2 SSTORE PUSH1 0x1 ADD PUSH3 0x124 JUMP JUMPDEST PUSH2 0x3DE1 DUP1 PUSH3 0x14A PUSH1 0x0 CODECOPY PUSH1 0x0 RETURN INVALID PUSH1 0x80 PUSH1 0x40 MSTORE CALLVALUE DUP1 ISZERO PUSH2 0x10 JUMPI PUSH1 0x0 DUP1 REVERT JUMPDEST POP PUSH1 0x4 CALLDATASIZE LT PUSH2 0x320 JUMPI PUSH1 0x0 CALLDATALOAD PUSH1 0xE0 SHR DUP1 PUSH4 0x63210537 GT PUSH2 0x1A7 JUMPI DUP1 PUSH4 0xB16A19DE GT PUSH2 0xEE JUMPI DUP1 PUSH4 0xD505ACCF GT PUSH2 0x97 JUMPI DUP1 PUSH4 0xEAD5D359 GT PUSH2 0x71 JUMPI DUP1 PUSH4 0xEAD5D359 EQ PUSH2 0x5CE JUMPI DUP1 PUSH4 0xED24911D EQ PUSH2 0x5E1 JUMPI DUP1 PUSH4 0xF57D0B40 EQ PUSH2 0x5E9 JUMPI PUSH2 0x320 JUMP JUMPDEST DUP1 PUSH4 0xD505ACCF EQ PUSH2 0x595 JUMPI DUP1 PUSH4 0xDD05AA12 EQ PUSH2 0x5A8 JUMPI DUP1 PUSH4 0xDD62ED3E EQ PUSH2 0x5BB JUMPI PUSH2 0x320 JUMP JUMPDEST DUP1 PUSH4 0xB9844D8D GT PUSH2 0xC8 JUMPI DUP1 PUSH4 0xB9844D8D EQ PUSH2 0x567 JUMPI DUP1 PUSH4 0xBF62BEE6 EQ PUSH2 0x57A JUMPI DUP1 PUSH4 0xC485852B EQ PUSH2 0x582 JUMPI PUSH2 0x320 JUMP JUMPDEST DUP1 PUSH4 0xB16A19DE EQ PUSH2 0x54F JUMPI DUP1 PUSH4 0xB3A59022 EQ PUSH2 0x557 JUMPI DUP1 PUSH4 0xB4DCFC77 EQ PUSH2 0x55F JUMPI PUSH2 0x320 JUMP JUMPDEST DUP1 PUSH4 0x8D948415 GT PUSH2 0x150 JUMPI DUP1 PUSH4 0xA135A55E GT PUSH2 0x12A JUMPI DUP1 PUSH4 0xA135A55E EQ PUSH2 0x521 JUMPI DUP1 PUSH4 0xA457C2D7 EQ PUSH2 0x529 JUMPI DUP1 PUSH4 0xA9059CBB EQ PUSH2 0x53C JUMPI PUSH2 0x320 JUMP JUMPDEST DUP1 PUSH4 0x8D948415 EQ PUSH2 0x509 JUMPI DUP1 PUSH4 0x95D89B41 EQ PUSH2 0x511 JUMPI DUP1 PUSH4 0x99248EA7 EQ PUSH2 0x519 JUMPI PUSH2 0x320 JUMP JUMPDEST DUP1 PUSH4 0x75D26413 GT PUSH2 0x181 JUMPI DUP1 PUSH4 0x75D26413 EQ PUSH2 0x4F1 JUMPI DUP1 PUSH4 0x78160376 EQ PUSH2 0x4F9 JUMPI DUP1 PUSH4 0x7F372CFF EQ PUSH2 0x501 JUMPI PUSH2 0x320 JUMP JUMPDEST DUP1 PUSH4 0x63210537 EQ PUSH2 0x4C3 JUMPI DUP1 PUSH4 0x69A69E29 EQ PUSH2 0x4CB JUMPI DUP1 PUSH4 0x70A08231 EQ PUSH2 0x4DE JUMPI PUSH2 0x320 JUMP JUMPDEST DUP1 PUSH4 0x31A5CFA4 GT PUSH2 0x26B JUMPI DUP1 PUSH4 0x4800D97F GT PUSH2 0x214 JUMPI DUP1 PUSH4 0x60266557 GT PUSH2 0x1EE JUMPI DUP1 PUSH4 0x60266557 EQ PUSH2 0x4A0 JUMPI DUP1 PUSH4 0x60A49B33 EQ PUSH2 0x4B3 JUMPI DUP1 PUSH4 0x61D0494D EQ PUSH2 0x4BB JUMPI PUSH2 0x320 JUMP JUMPDEST DUP1 PUSH4 0x4800D97F EQ PUSH2 0x47D JUMPI DUP1 PUSH4 0x491C011A EQ PUSH2 0x485 JUMPI DUP1 PUSH4 0x51C0E061 EQ PUSH2 0x498 JUMPI PUSH2 0x320 JUMP JUMPDEST DUP1 PUSH4 0x3EB2EBA6 GT PUSH2 0x245 JUMPI DUP1 PUSH4 0x3EB2EBA6 EQ PUSH2 0x44F JUMPI DUP1 PUSH4 0x44B68C3F EQ PUSH2 0x457 JUMPI DUP1 PUSH4 0x45C1ACE7 EQ PUSH2 0x46A JUMPI PUSH2 0x320 JUMP JUMPDEST DUP1 PUSH4 0x31A5CFA4 EQ PUSH2 0x421 JUMPI DUP1 PUSH4 0x36A5A6D6 EQ PUSH2 0x429 JUMPI DUP1 PUSH4 0x39509351 EQ PUSH2 0x43C JUMPI PUSH2 0x320 JUMP JUMPDEST DUP1 PUSH4 0x288587CE GT PUSH2 0x2CD JUMPI DUP1 PUSH4 0x308E401E GT PUSH2 0x2A7 JUMPI DUP1 PUSH4 0x308E401E EQ PUSH2 0x3F1 JUMPI DUP1 PUSH4 0x30ADF81F EQ PUSH2 0x404 JUMPI DUP1 PUSH4 0x313CE567 EQ PUSH2 0x40C JUMPI PUSH2 0x320 JUMP JUMPDEST DUP1 PUSH4 0x288587CE EQ PUSH2 0x3B5 JUMPI DUP1 PUSH4 0x2C4E722E EQ PUSH2 0x3D6 JUMPI DUP1 PUSH4 0x2F2CAB87 EQ PUSH2 0x3DE JUMPI PUSH2 0x320 JUMP JUMPDEST DUP1 PUSH4 0x18160DDD GT PUSH2 0x2FE JUMPI DUP1 PUSH4 0x18160DDD EQ PUSH2 0x378 JUMPI DUP1 PUSH4 0x2016A0D2 EQ PUSH2 0x38D JUMPI DUP1 PUSH4 0x23B872DD EQ PUSH2 0x3A2 JUMPI PUSH2 0x320 JUMP JUMPDEST DUP1 PUSH4 0x6FDDE03 EQ PUSH2 0x325 JUMPI DUP1 PUSH4 0x95EA7B3 EQ PUSH2 0x343 JUMPI DUP1 PUSH4 0x10D0AB22 EQ PUSH2 0x363 JUMPI JUMPDEST PUSH1 0x0 DUP1 REVERT JUMPDEST PUSH2 0x32D PUSH2 0x5FC JUMP JUMPDEST PUSH1 0x40 MLOAD PUSH2 0x33A SWAP2 SWAP1 PUSH2 0x38C7 JUMP JUMPDEST PUSH1 0x40 MLOAD DUP1 SWAP2 SUB SWAP1 RETURN JUMPDEST PUSH2 0x356 PUSH2 0x351 CALLDATASIZE PUSH1 0x4 PUSH2 0x3379 JUMP JUMPDEST PUSH2 0x693 JUMP JUMPDEST PUSH1 0x40 MLOAD PUSH2 0x33A SWAP2 SWAP1 PUSH2 0x37A9 JUMP JUMPDEST PUSH2 0x36B PUSH2 0x6B1 JUMP JUMPDEST PUSH1 0x40 MLOAD PUSH2 0x33A SWAP2 SWAP1 PUSH2 0x364F JUMP JUMPDEST PUSH2 0x380 PUSH2 0x6C0 JUMP JUMPDEST PUSH1 0x40 MLOAD PUSH2 0x33A SWAP2 SWAP1 PUSH2 0x37B4 JUMP JUMPDEST PUSH2 0x3A0 PUSH2 0x39B CALLDATASIZE PUSH1 0x4 PUSH2 0x346A JUMP JUMPDEST PUSH2 0x6C6 JUMP JUMPDEST STOP JUMPDEST PUSH2 0x356 PUSH2 0x3B0 CALLDATASIZE PUSH1 0x4 PUSH2 0x31C1 JUMP JUMPDEST PUSH2 0xB0E JUMP JUMPDEST PUSH2 0x3C8 PUSH2 0x3C3 CALLDATASIZE PUSH1 0x4 PUSH2 0x33A4 JUMP JUMPDEST PUSH2 0xB96 JUMP JUMPDEST PUSH1 0x40 MLOAD PUSH2 0x33A SWAP3 SWAP2 SWAP1 PUSH2 0x3C9C JUMP JUMPDEST PUSH2 0x380 PUSH2 0xBB3 JUMP JUMPDEST PUSH2 0x380 PUSH2 0x3EC CALLDATASIZE PUSH1 0x4 PUSH2 0x33DA JUMP JUMPDEST PUSH2 0xC5E JUMP JUMPDEST PUSH2 0x380 PUSH2 0x3FF CALLDATASIZE PUSH1 0x4 PUSH2 0x3107 JUMP JUMPDEST PUSH2 0xC76 JUMP JUMPDEST PUSH2 0x380 PUSH2 0xC8C JUMP JUMPDEST PUSH2 0x414 PUSH2 0xCB0 JUMP JUMPDEST PUSH1 0x40 MLOAD PUSH2 0x33A SWAP2 SWAP1 PUSH2 0x3CAA JUMP JUMPDEST PUSH2 0x380 PUSH2 0xCB9 JUMP JUMPDEST PUSH2 0x380 PUSH2 0x437 CALLDATASIZE PUSH1 0x4 PUSH2 0x34FC JUMP JUMPDEST PUSH2 0xCBF JUMP JUMPDEST PUSH2 0x356 PUSH2 0x44A CALLDATASIZE PUSH1 0x4 PUSH2 0x3379 JUMP JUMPDEST PUSH2 0xCD2 JUMP JUMPDEST PUSH2 0x3A0 PUSH2 0xD20 JUMP JUMPDEST PUSH2 0x380 PUSH2 0x465 CALLDATASIZE PUSH1 0x4 PUSH2 0x3107 JUMP JUMPDEST PUSH2 0xEC0 JUMP JUMPDEST PUSH2 0x3A0 PUSH2 0x478 CALLDATASIZE PUSH1 0x4 PUSH2 0x3432 JUMP JUMPDEST PUSH2 0xEDB JUMP JUMPDEST PUSH2 0x36B PUSH2 0xEFE JUMP JUMPDEST PUSH2 0x3A0 PUSH2 0x493 CALLDATASIZE PUSH1 0x4 PUSH2 0x334C JUMP JUMPDEST PUSH2 0xF0D JUMP JUMPDEST PUSH2 0x36B PUSH2 0xF31 JUMP JUMPDEST PUSH2 0x3C8 PUSH2 0x4AE CALLDATASIZE PUSH1 0x4 PUSH2 0x3288 JUMP JUMPDEST PUSH2 0xF40 JUMP JUMPDEST PUSH2 0x356 PUSH2 0x11AC JUMP JUMPDEST PUSH2 0x380 PUSH2 0x11B5 JUMP JUMPDEST PUSH2 0x380 PUSH2 0x11BA JUMP JUMPDEST PUSH2 0x380 PUSH2 0x4D9 CALLDATASIZE PUSH1 0x4 PUSH2 0x3107 JUMP JUMPDEST PUSH2 0x11DE JUMP JUMPDEST PUSH2 0x380 PUSH2 0x4EC CALLDATASIZE PUSH1 0x4 PUSH2 0x3107 JUMP JUMPDEST PUSH2 0x1200 JUMP JUMPDEST PUSH2 0x36B PUSH2 0x121B JUMP JUMPDEST PUSH2 0x32D PUSH2 0x122A JUMP JUMPDEST PUSH2 0x380 PUSH2 0x1263 JUMP JUMPDEST PUSH2 0x380 PUSH2 0x1414 JUMP JUMPDEST PUSH2 0x32D PUSH2 0x1438 JUMP JUMPDEST PUSH2 0x36B PUSH2 0x1499 JUMP JUMPDEST PUSH2 0x380 PUSH2 0x14A8 JUMP JUMPDEST PUSH2 0x356 PUSH2 0x537 CALLDATASIZE PUSH1 0x4 PUSH2 0x3379 JUMP JUMPDEST PUSH2 0x14AE JUMP JUMPDEST PUSH2 0x356 PUSH2 0x54A CALLDATASIZE PUSH1 0x4 PUSH2 0x3379 JUMP JUMPDEST PUSH2 0x1516 JUMP JUMPDEST PUSH2 0x36B PUSH2 0x152A JUMP JUMPDEST PUSH2 0x380 PUSH2 0x1539 JUMP JUMPDEST PUSH2 0x36B PUSH2 0x153F JUMP JUMPDEST PUSH2 0x380 PUSH2 0x575 CALLDATASIZE PUSH1 0x4 PUSH2 0x3107 JUMP JUMPDEST PUSH2 0x1553 JUMP JUMPDEST PUSH2 0x380 PUSH2 0x1565 JUMP JUMPDEST PUSH2 0x380 PUSH2 0x590 CALLDATASIZE PUSH1 0x4 PUSH2 0x3201 JUMP JUMPDEST PUSH2 0x156B JUMP JUMPDEST PUSH2 0x3A0 PUSH2 0x5A3 CALLDATASIZE PUSH1 0x4 PUSH2 0x32DC JUMP JUMPDEST PUSH2 0x17D1 JUMP JUMPDEST PUSH2 0x3A0 PUSH2 0x5B6 CALLDATASIZE PUSH1 0x4 PUSH2 0x3177 JUMP JUMPDEST PUSH2 0x1A14 JUMP JUMPDEST PUSH2 0x380 PUSH2 0x5C9 CALLDATASIZE PUSH1 0x4 PUSH2 0x313F JUMP JUMPDEST PUSH2 0x1B4E JUMP JUMPDEST PUSH2 0x3C8 PUSH2 0x5DC CALLDATASIZE PUSH1 0x4 PUSH2 0x33A4 JUMP JUMPDEST PUSH2 0x1B79 JUMP JUMPDEST PUSH2 0x380 PUSH2 0x1B8A JUMP JUMPDEST PUSH2 0x380 PUSH2 0x5F7 CALLDATASIZE PUSH1 0x4 PUSH2 0x34FC JUMP JUMPDEST PUSH2 0x1C3E JUMP JUMPDEST PUSH1 0x37 DUP1 SLOAD PUSH1 0x40 DUP1 MLOAD PUSH1 0x20 PUSH1 0x1F PUSH1 0x2 PUSH1 0x0 NOT PUSH2 0x100 PUSH1 0x1 DUP9 AND ISZERO MUL ADD SWAP1 SWAP6 AND SWAP5 SWAP1 SWAP5 DIV SWAP4 DUP5 ADD DUP2 SWAP1 DIV DUP2 MUL DUP3 ADD DUP2 ADD SWAP1 SWAP3 MSTORE DUP3 DUP2 MSTORE PUSH1 0x60 SWAP4 SWAP1 SWAP3 SWAP1 SWAP2 DUP4 ADD DUP3 DUP3 DUP1 ISZERO PUSH2 0x688 JUMPI DUP1 PUSH1 0x1F LT PUSH2 0x65D JUMPI PUSH2 0x100 DUP1 DUP4 SLOAD DIV MUL DUP4 MSTORE SWAP2 PUSH1 0x20 ADD SWAP2 PUSH2 0x688 JUMP JUMPDEST DUP3 ADD SWAP2 SWAP1 PUSH1 0x0 MSTORE PUSH1 0x20 PUSH1 0x0 KECCAK256 SWAP1 JUMPDEST DUP2 SLOAD DUP2 MSTORE SWAP1 PUSH1 0x1 ADD SWAP1 PUSH1 0x20 ADD DUP1 DUP4 GT PUSH2 0x66B JUMPI DUP3 SWAP1 SUB PUSH1 0x1F AND DUP3 ADD SWAP2 JUMPDEST POP POP POP POP POP SWAP1 POP JUMPDEST SWAP1 JUMP JUMPDEST PUSH1 0x0 PUSH2 0x6A7 PUSH2 0x6A0 PUSH2 0x1C4C JUMP JUMPDEST DUP5 DUP5 PUSH2 0x1C50 JUMP JUMPDEST POP PUSH1 0x1 JUMPDEST SWAP3 SWAP2 POP POP JUMP JUMPDEST PUSH1 0x3A SLOAD PUSH1 0x1 PUSH1 0x1 PUSH1 0xA0 SHL SUB AND DUP2 JUMP JUMPDEST PUSH1 0x36 SLOAD SWAP1 JUMP JUMPDEST PUSH1 0x0 PUSH2 0x6D0 PUSH2 0x1D04 JUMP JUMPDEST PUSH1 0x1 SLOAD SWAP1 SWAP2 POP PUSH1 0xFF AND DUP1 PUSH2 0x6E7 JUMPI POP PUSH2 0x6E7 PUSH2 0x1D09 JUMP JUMPDEST DUP1 PUSH2 0x6F3 JUMPI POP PUSH1 0x0 SLOAD DUP2 GT JUMPDEST PUSH2 0x718 JUMPI PUSH1 0x40 MLOAD PUSH3 0x461BCD PUSH1 0xE5 SHL DUP2 MSTORE PUSH1 0x4 ADD PUSH2 0x70F SWAP1 PUSH2 0x3A00 JUMP JUMPDEST PUSH1 0x40 MLOAD DUP1 SWAP2 SUB SWAP1 REVERT JUMPDEST PUSH1 0x1 SLOAD PUSH1 0xFF AND ISZERO DUP1 ISZERO PUSH2 0x755 JUMPI PUSH1 0x1 DUP1 SLOAD PUSH32 0xFFFFFFFFFFFFFFFFFFFFFFFFFFFFFFFFFFFFFFFFFFFFFFFFFFFFFFFFFFFFFF00 AND DUP2 OR SWAP1 SSTORE PUSH1 0x0 DUP3 SWAP1 SSTORE JUMPDEST PUSH1 0x39 DUP1 SLOAD PUSH32 0xFFFFFFFFFFFFFFFFFFFFFF0000000000000000000000000000000000000000FF AND PUSH2 0x100 PUSH1 0x1 PUSH1 0x1 PUSH1 0xA0 SHL SUB DUP12 DUP2 AND SWAP2 SWAP1 SWAP2 MUL SWAP2 SWAP1 SWAP2 OR SWAP1 SWAP2 SSTORE PUSH1 0x3B DUP1 SLOAD PUSH32 0xFFFFFFFFFFFFFFFFFFFFFFFF0000000000000000000000000000000000000000 AND SWAP2 DUP10 AND SWAP2 SWAP1 SWAP2 OR SWAP1 SSTORE PUSH2 0x7CF PUSH1 0x37 DUP8 DUP8 PUSH2 0x2FF8 JUMP JUMPDEST POP PUSH2 0x7DC PUSH1 0x38 DUP6 DUP6 PUSH2 0x2FF8 JUMP JUMPDEST POP PUSH2 0x856 DUP8 PUSH1 0x1 PUSH1 0x1 PUSH1 0xA0 SHL SUB AND PUSH4 0x313CE567 PUSH1 0x40 MLOAD DUP2 PUSH4 0xFFFFFFFF AND PUSH1 0xE0 SHL DUP2 MSTORE PUSH1 0x4 ADD PUSH1 0x20 PUSH1 0x40 MLOAD DUP1 DUP4 SUB DUP2 DUP7 DUP1 EXTCODESIZE ISZERO DUP1 ISZERO PUSH2 0x819 JUMPI PUSH1 0x0 DUP1 REVERT JUMPDEST POP GAS STATICCALL ISZERO DUP1 ISZERO PUSH2 0x82D JUMPI RETURNDATASIZE PUSH1 0x0 DUP1 RETURNDATACOPY RETURNDATASIZE PUSH1 0x0 REVERT JUMPDEST POP POP POP POP PUSH1 0x40 MLOAD RETURNDATASIZE PUSH1 0x1F NOT PUSH1 0x1F DUP3 ADD AND DUP3 ADD DUP1 PUSH1 0x40 MSTORE POP DUP2 ADD SWAP1 PUSH2 0x851 SWAP2 SWAP1 PUSH2 0x3548 JUMP JUMPDEST PUSH2 0x1D0F JUMP JUMPDEST DUP7 PUSH1 0x1 PUSH1 0x1 PUSH1 0xA0 SHL SUB AND PUSH4 0xB16A19DE PUSH1 0x40 MLOAD DUP2 PUSH4 0xFFFFFFFF AND PUSH1 0xE0 SHL DUP2 MSTORE PUSH1 0x4 ADD PUSH1 0x20 PUSH1 0x40 MLOAD DUP1 DUP4 SUB DUP2 DUP7 DUP1 EXTCODESIZE ISZERO DUP1 ISZERO PUSH2 0x88F JUMPI PUSH1 0x0 DUP1 REVERT JUMPDEST POP GAS STATICCALL ISZERO DUP1 ISZERO PUSH2 0x8A3 JUMPI RETURNDATASIZE PUSH1 0x0 DUP1 RETURNDATACOPY RETURNDATASIZE PUSH1 0x0 REVERT JUMPDEST POP POP POP POP PUSH1 0x40 MLOAD RETURNDATASIZE PUSH1 0x1F NOT PUSH1 0x1F DUP3 ADD AND DUP3 ADD DUP1 PUSH1 0x40 MSTORE POP DUP2 ADD SWAP1 PUSH2 0x8C7 SWAP2 SWAP1 PUSH2 0x3123 JUMP JUMPDEST PUSH1 0x3C DUP1 SLOAD PUSH32 0xFFFFFFFFFFFFFFFFFFFFFFFF0000000000000000000000000000000000000000 AND PUSH1 0x1 PUSH1 0x1 PUSH1 0xA0 SHL SUB SWAP3 DUP4 AND OR SWAP1 DUP2 SWAP1 SSTORE PUSH2 0x90B SWAP2 AND DUP10 PUSH1 0x0 NOT PUSH2 0x1D43 JUMP JUMPDEST DUP7 PUSH1 0x1 PUSH1 0x1 PUSH1 0xA0 SHL SUB AND PUSH4 0x75D26413 PUSH1 0x40 MLOAD DUP2 PUSH4 0xFFFFFFFF AND PUSH1 0xE0 SHL DUP2 MSTORE PUSH1 0x4 ADD PUSH1 0x20 PUSH1 0x40 MLOAD DUP1 DUP4 SUB DUP2 DUP7 DUP1 EXTCODESIZE ISZERO DUP1 ISZERO PUSH2 0x944 JUMPI PUSH1 0x0 DUP1 REVERT JUMPDEST POP GAS STATICCALL SWAP3 POP POP POP DUP1 ISZERO PUSH2 0x974 JUMPI POP PUSH1 0x40 DUP1 MLOAD PUSH1 0x1F RETURNDATASIZE SWAP1 DUP2 ADD PUSH1 0x1F NOT AND DUP3 ADD SWAP1 SWAP3 MSTORE PUSH2 0x971 SWAP2 DUP2 ADD SWAP1 PUSH2 0x3123 JUMP JUMPDEST PUSH1 0x1 JUMPDEST PUSH2 0x97D JUMPI PUSH2 0xA8C JUMP JUMPDEST PUSH1 0x1 PUSH1 0x1 PUSH1 0xA0 SHL SUB DUP2 AND ISZERO PUSH2 0xA8A JUMPI PUSH1 0x3A DUP1 SLOAD PUSH32 0xFFFFFFFFFFFFFFFFFFFFFFFF0000000000000000000000000000000000000000 AND PUSH1 0x1 PUSH1 0x1 PUSH1 0xA0 SHL SUB DUP4 DUP2 AND SWAP2 SWAP1 SWAP2 OR SWAP2 DUP3 SWAP1 SSTORE PUSH1 0x40 DUP1 MLOAD PUSH32 0x99248EA700000000000000000000000000000000000000000000000000000000 DUP2 MSTORE SWAP1 MLOAD SWAP3 SWAP1 SWAP2 AND SWAP2 PUSH4 0x99248EA7 SWAP2 PUSH1 0x4 DUP1 DUP3 ADD SWAP3 PUSH1 0x20 SWAP3 SWAP1 SWAP2 SWAP1 DUP3 SWAP1 SUB ADD DUP2 DUP7 DUP1 EXTCODESIZE ISZERO DUP1 ISZERO PUSH2 0xA19 JUMPI PUSH1 0x0 DUP1 REVERT JUMPDEST POP GAS STATICCALL ISZERO DUP1 ISZERO PUSH2 0xA2D JUMPI RETURNDATASIZE PUSH1 0x0 DUP1 RETURNDATACOPY RETURNDATASIZE PUSH1 0x0 REVERT JUMPDEST POP POP POP POP PUSH1 0x40 MLOAD RETURNDATASIZE PUSH1 0x1F NOT PUSH1 0x1F DUP3 ADD AND DUP3 ADD DUP1 PUSH1 0x40 MSTORE POP DUP2 ADD SWAP1 PUSH2 0xA51 SWAP2 SWAP1 PUSH2 0x3123 JUMP JUMPDEST PUSH1 0x3D DUP1 SLOAD PUSH32 0xFFFFFFFFFFFFFFFFFFFFFFFF0000000000000000000000000000000000000000 AND PUSH1 0x1 PUSH1 0x1 PUSH1 0xA0 SHL SUB SWAP3 SWAP1 SWAP3 AND SWAP2 SWAP1 SWAP2 OR SWAP1 SSTORE JUMPDEST POP JUMPDEST DUP8 PUSH1 0x1 PUSH1 0x1 PUSH1 0xA0 SHL SUB AND PUSH32 0x45705FBD98B82017A03E6B75118B5900C6A3E840D26142E2D30214C0DD7A92DF DUP9 DUP9 DUP9 DUP9 DUP9 PUSH1 0x40 MLOAD PUSH2 0xACD SWAP6 SWAP5 SWAP4 SWAP3 SWAP2 SWAP1 PUSH2 0x36A1 JUMP JUMPDEST PUSH1 0x40 MLOAD DUP1 SWAP2 SUB SWAP1 LOG2 DUP1 ISZERO PUSH2 0xB04 JUMPI PUSH1 0x1 DUP1 SLOAD PUSH32 0xFFFFFFFFFFFFFFFFFFFFFFFFFFFFFFFFFFFFFFFFFFFFFFFFFFFFFFFFFFFFFF00 AND SWAP1 SSTORE JUMPDEST POP POP POP POP POP POP POP POP JUMP JUMPDEST PUSH1 0x0 PUSH2 0xB1B DUP5 DUP5 DUP5 PUSH2 0x1E83 JUMP JUMPDEST PUSH2 0xB8B DUP5 PUSH2 0xB27 PUSH2 0x1C4C JUMP JUMPDEST PUSH2 0xB86 DUP6 PUSH1 0x40 MLOAD DUP1 PUSH1 0x60 ADD PUSH1 0x40 MSTORE DUP1 PUSH1 0x28 DUP2 MSTORE PUSH1 0x20 ADD PUSH2 0x3D5F PUSH1 0x28 SWAP2 CODECOPY PUSH1 0x1 PUSH1 0x1 PUSH1 0xA0 SHL SUB DUP11 AND PUSH1 0x0 SWAP1 DUP2 MSTORE PUSH1 0x35 PUSH1 0x20 MSTORE PUSH1 0x40 DUP2 KECCAK256 SWAP1 PUSH2 0xB65 PUSH2 0x1C4C JUMP JUMPDEST PUSH1 0x1 PUSH1 0x1 PUSH1 0xA0 SHL SUB AND DUP2 MSTORE PUSH1 0x20 DUP2 ADD SWAP2 SWAP1 SWAP2 MSTORE PUSH1 0x40 ADD PUSH1 0x0 KECCAK256 SLOAD SWAP2 SWAP1 PUSH2 0x1F98 JUMP JUMPDEST PUSH2 0x1C50 JUMP JUMPDEST POP PUSH1 0x1 JUMPDEST SWAP4 SWAP3 POP POP POP JUMP JUMPDEST PUSH1 0x0 DUP1 PUSH2 0xBA7 CALLER DUP7 PUSH1 0x0 DUP8 DUP8 PUSH2 0x1FC4 JUMP JUMPDEST SWAP2 POP SWAP2 POP SWAP4 POP SWAP4 SWAP2 POP POP JUMP JUMPDEST PUSH1 0x39 SLOAD PUSH1 0x3C SLOAD PUSH1 0x40 MLOAD PUSH32 0xD15E005300000000000000000000000000000000000000000000000000000000 DUP2 MSTORE PUSH1 0x0 SWAP3 PUSH2 0x100 SWAP1 DIV PUSH1 0x1 PUSH1 0x1 PUSH1 0xA0 SHL SUB SWAP1 DUP2 AND SWAP3 PUSH4 0xD15E0053 SWAP3 PUSH2 0xC09 SWAP3 SWAP1 SWAP2 AND SWAP1 PUSH1 0x4 ADD PUSH2 0x364F JUMP JUMPDEST PUSH1 0x20 PUSH1 0x40 MLOAD DUP1 DUP4 SUB DUP2 DUP7 DUP1 EXTCODESIZE ISZERO DUP1 ISZERO PUSH2 0xC21 JUMPI PUSH1 0x0 DUP1 REVERT JUMPDEST POP GAS STATICCALL ISZERO DUP1 ISZERO PUSH2 0xC35 JUMPI RETURNDATASIZE PUSH1 0x0 DUP1 RETURNDATACOPY RETURNDATASIZE PUSH1 0x0 REVERT JUMPDEST POP POP POP POP PUSH1 0x40 MLOAD RETURNDATASIZE PUSH1 0x1F NOT PUSH1 0x1F DUP3 ADD AND DUP3 ADD DUP1 PUSH1 0x40 MSTORE POP DUP2 ADD SWAP1 PUSH2 0xC59 SWAP2 SWAP1 PUSH2 0x3514 JUMP JUMPDEST SWAP1 POP SWAP1 JUMP JUMPDEST PUSH1 0x0 PUSH2 0xC6D CALLER DUP7 DUP7 DUP7 DUP7 PUSH2 0x21E2 JUMP JUMPDEST SWAP6 SWAP5 POP POP POP POP POP JUMP JUMPDEST PUSH1 0x0 PUSH2 0x6AB DUP3 PUSH2 0xC85 DUP5 PUSH2 0x1200 JUMP JUMPDEST PUSH1 0x1 PUSH2 0x238B JUMP JUMPDEST PUSH32 0x6E71EDAE12B1B97F4D1F60370FEF10105FA2FAAE0126114A169C64845D6126C9 DUP2 JUMP JUMPDEST PUSH1 0x39 SLOAD PUSH1 0xFF AND SWAP1 JUMP JUMPDEST PUSH1 0x40 SLOAD SWAP1 JUMP JUMPDEST PUSH1 0x0 PUSH2 0x6AB DUP3 PUSH2 0xCCD PUSH2 0xBB3 JUMP JUMPDEST PUSH2 0x23C6 JUMP JUMPDEST PUSH1 0x0 PUSH2 0x6A7 PUSH2 0xCDF PUSH2 0x1C4C JUMP JUMPDEST DUP5 PUSH2 0xB86 DUP6 PUSH1 0x35 PUSH1 0x0 PUSH2 0xCF0 PUSH2 0x1C4C JUMP JUMPDEST PUSH1 0x1 PUSH1 0x1 PUSH1 0xA0 SHL SUB SWAP1 DUP2 AND DUP3 MSTORE PUSH1 0x20 DUP1 DUP4 ADD SWAP4 SWAP1 SWAP4 MSTORE PUSH1 0x40 SWAP2 DUP3 ADD PUSH1 0x0 SWAP1 DUP2 KECCAK256 SWAP2 DUP13 AND DUP2 MSTORE SWAP3 MSTORE SWAP1 KECCAK256 SLOAD SWAP1 PUSH2 0x23D2 JUMP JUMPDEST PUSH1 0x3A SLOAD PUSH1 0x1 PUSH1 0x1 PUSH1 0xA0 SHL SUB AND PUSH2 0xD35 JUMPI PUSH2 0xEBE JUMP JUMPDEST NUMBER PUSH1 0x42 SSTORE PUSH1 0x0 PUSH2 0xD43 PUSH2 0x6C0 JUMP JUMPDEST PUSH1 0x40 DUP1 MLOAD PUSH1 0x1 DUP1 DUP3 MSTORE DUP2 DUP4 ADD SWAP1 SWAP3 MSTORE SWAP2 SWAP3 POP PUSH1 0x60 SWAP2 SWAP1 PUSH1 0x20 DUP1 DUP4 ADD SWAP1 DUP1 CALLDATASIZE DUP4 CALLDATACOPY POP POP PUSH1 0x3B SLOAD DUP3 MLOAD SWAP3 SWAP4 POP PUSH1 0x1 PUSH1 0x1 PUSH1 0xA0 SHL SUB AND SWAP2 DUP4 SWAP2 POP PUSH1 0x0 SWAP1 PUSH2 0xD83 JUMPI INVALID JUMPDEST PUSH1 0x1 PUSH1 0x1 PUSH1 0xA0 SHL SUB SWAP3 DUP4 AND PUSH1 0x20 SWAP2 DUP3 MUL SWAP3 SWAP1 SWAP3 ADD ADD MSTORE PUSH1 0x3A SLOAD PUSH1 0x40 MLOAD PUSH32 0x3111E7B300000000000000000000000000000000000000000000000000000000 DUP2 MSTORE PUSH1 0x0 SWAP3 SWAP2 SWAP1 SWAP2 AND SWAP1 PUSH4 0x3111E7B3 SWAP1 PUSH2 0xDE4 SWAP1 DUP6 SWAP1 PUSH1 0x0 NOT SWAP1 ADDRESS SWAP1 PUSH1 0x4 ADD PUSH2 0x3777 JUMP JUMPDEST PUSH1 0x20 PUSH1 0x40 MLOAD DUP1 DUP4 SUB DUP2 PUSH1 0x0 DUP8 DUP1 EXTCODESIZE ISZERO DUP1 ISZERO PUSH2 0xDFE JUMPI PUSH1 0x0 DUP1 REVERT JUMPDEST POP GAS CALL ISZERO DUP1 ISZERO PUSH2 0xE12 JUMPI RETURNDATASIZE PUSH1 0x0 DUP1 RETURNDATACOPY RETURNDATASIZE PUSH1 0x0 REVERT JUMPDEST POP POP POP POP PUSH1 0x40 MLOAD RETURNDATASIZE PUSH1 0x1F NOT PUSH1 0x1F DUP3 ADD AND DUP3 ADD DUP1 PUSH1 0x40 MSTORE POP DUP2 ADD SWAP1 PUSH2 0xE36 SWAP2 SWAP1 PUSH2 0x3514 JUMP JUMPDEST SWAP1 POP PUSH1 0x0 PUSH2 0xE4F DUP3 PUSH1 0x40 SLOAD PUSH2 0x23D2 SWAP1 SWAP2 SWAP1 PUSH4 0xFFFFFFFF AND JUMP JUMPDEST SWAP1 POP PUSH1 0x0 PUSH2 0xE70 PUSH2 0xE6B PUSH1 0x41 SLOAD DUP5 PUSH2 0x23F7 SWAP1 SWAP2 SWAP1 PUSH4 0xFFFFFFFF AND JUMP JUMPDEST PUSH2 0x2439 JUMP JUMPDEST SWAP1 POP PUSH1 0x0 DUP6 GT DUP1 ISZERO PUSH2 0xE82 JUMPI POP PUSH1 0x0 DUP2 GT JUMPDEST ISZERO PUSH2 0xEAA JUMPI PUSH2 0xEA6 PUSH2 0xE9D PUSH2 0xE96 DUP8 PUSH2 0x2439 JUMP JUMPDEST DUP4 SWAP1 PUSH2 0x24A4 JUMP JUMPDEST PUSH1 0x3F SLOAD SWAP1 PUSH2 0x23D2 JUMP JUMPDEST PUSH1 0x3F SSTORE JUMPDEST DUP1 ISZERO PUSH2 0xEB6 JUMPI PUSH1 0x41 DUP3 SWAP1 SSTORE JUMPDEST POP PUSH1 0x40 SSTORE POP POP POP JUMPDEST JUMP JUMPDEST PUSH1 0x0 PUSH2 0x6AB PUSH2 0xECE DUP4 PUSH2 0x1200 JUMP JUMPDEST PUSH2 0xED6 PUSH2 0xBB3 JUMP JUMPDEST PUSH2 0x2584 JUMP JUMPDEST PUSH1 0x3A SLOAD PUSH1 0x1 PUSH1 0x1 PUSH1 0xA0 SHL SUB AND PUSH2 0xEF0 JUMPI PUSH2 0xEFB JUMP JUMPDEST PUSH2 0xEFB CALLER CALLER DUP4 PUSH2 0x2590 JUMP JUMPDEST POP JUMP JUMPDEST PUSH1 0x3C SLOAD PUSH1 0x1 PUSH1 0x1 PUSH1 0xA0 SHL SUB AND DUP2 JUMP JUMPDEST PUSH1 0x3A SLOAD PUSH1 0x1 PUSH1 0x1 PUSH1 0xA0 SHL SUB AND PUSH2 0xF22 JUMPI PUSH2 0xF2D JUMP JUMPDEST PUSH2 0xF2D CALLER DUP4 DUP4 PUSH2 0x2590 JUMP JUMPDEST POP POP JUMP JUMPDEST PUSH1 0x3B SLOAD PUSH1 0x1 PUSH1 0x1 PUSH1 0xA0 SHL SUB AND DUP2 JUMP JUMPDEST PUSH1 0x40 DUP1 MLOAD DUP1 DUP3 ADD SWAP1 SWAP2 MSTORE PUSH1 0x1 DUP2 MSTORE PUSH32 0x3100000000000000000000000000000000000000000000000000000000000000 PUSH1 0x20 DUP3 ADD MSTORE PUSH1 0x0 SWAP1 DUP2 SWAP1 PUSH1 0x1 PUSH1 0x1 PUSH1 0xA0 SHL SUB DUP11 AND PUSH2 0xFA0 JUMPI PUSH1 0x40 MLOAD PUSH3 0x461BCD PUSH1 0xE5 SHL DUP2 MSTORE PUSH1 0x4 ADD PUSH2 0x70F SWAP2 SWAP1 PUSH2 0x38C7 JUMP JUMPDEST POP DUP4 TIMESTAMP GT ISZERO PUSH1 0x40 MLOAD DUP1 PUSH1 0x40 ADD PUSH1 0x40 MSTORE DUP1 PUSH1 0x1 DUP2 MSTORE PUSH1 0x20 ADD PUSH32 0x3200000000000000000000000000000000000000000000000000000000000000 DUP2 MSTORE POP SWAP1 PUSH2 0xFF9 JUMPI PUSH1 0x40 MLOAD PUSH3 0x461BCD PUSH1 0xE5 SHL DUP2 MSTORE PUSH1 0x4 ADD PUSH2 0x70F SWAP2 SWAP1 PUSH2 0x38C7 JUMP JUMPDEST POP PUSH1 0x1 PUSH1 0x1 PUSH1 0xA0 SHL SUB DUP10 AND PUSH1 0x0 SWAP1 DUP2 MSTORE PUSH1 0x3E PUSH1 0x20 MSTORE PUSH1 0x40 DUP2 KECCAK256 SLOAD SWAP1 PUSH2 0x101C PUSH2 0x1B8A JUMP JUMPDEST PUSH32 0xCE21806401473655533A882461CA5036529D194F238D3C1793817A552BD133A5 DUP13 DUP13 DUP13 DUP13 DUP13 DUP9 DUP14 PUSH1 0x40 MLOAD PUSH1 0x20 ADD PUSH2 0x105B SWAP9 SWAP8 SWAP7 SWAP6 SWAP5 SWAP4 SWAP3 SWAP2 SWAP1 PUSH2 0x3805 JUMP JUMPDEST PUSH1 0x40 MLOAD PUSH1 0x20 DUP2 DUP4 SUB SUB DUP2 MSTORE SWAP1 PUSH1 0x40 MSTORE DUP1 MLOAD SWAP1 PUSH1 0x20 ADD KECCAK256 PUSH1 0x40 MLOAD PUSH1 0x20 ADD PUSH2 0x1082 SWAP3 SWAP2 SWAP1 PUSH2 0x3619 JUMP JUMPDEST PUSH1 0x40 DUP1 MLOAD PUSH1 0x1F NOT DUP2 DUP5 SUB ADD DUP2 MSTORE SWAP2 SWAP1 MSTORE DUP1 MLOAD PUSH1 0x20 SWAP2 DUP3 ADD KECCAK256 SWAP2 POP PUSH1 0x1 SWAP1 DUP3 SWAP1 PUSH2 0x10AD SWAP1 DUP9 ADD DUP9 PUSH2 0x352C JUMP JUMPDEST DUP8 PUSH1 0x20 ADD CALLDATALOAD DUP9 PUSH1 0x40 ADD CALLDATALOAD PUSH1 0x40 MLOAD PUSH1 0x0 DUP2 MSTORE PUSH1 0x20 ADD PUSH1 0x40 MSTORE PUSH1 0x40 MLOAD PUSH2 0x10D4 SWAP5 SWAP4 SWAP3 SWAP2 SWAP1 PUSH2 0x38A9 JUMP JUMPDEST PUSH1 0x20 PUSH1 0x40 MLOAD PUSH1 0x20 DUP2 SUB SWAP1 DUP1 DUP5 SUB SWAP1 DUP6 GAS STATICCALL ISZERO DUP1 ISZERO PUSH2 0x10F6 JUMPI RETURNDATASIZE PUSH1 0x0 DUP1 RETURNDATACOPY RETURNDATASIZE PUSH1 0x0 REVERT JUMPDEST POP POP POP PUSH1 0x20 PUSH1 0x40 MLOAD SUB MLOAD PUSH1 0x1 PUSH1 0x1 PUSH1 0xA0 SHL SUB AND DUP12 PUSH1 0x1 PUSH1 0x1 PUSH1 0xA0 SHL SUB AND EQ PUSH1 0x40 MLOAD DUP1 PUSH1 0x40 ADD PUSH1 0x40 MSTORE DUP1 PUSH1 0x1 DUP2 MSTORE PUSH1 0x20 ADD PUSH32 0x3300000000000000000000000000000000000000000000000000000000000000 DUP2 MSTORE POP SWAP1 PUSH2 0x1168 JUMPI PUSH1 0x40 MLOAD PUSH3 0x461BCD PUSH1 0xE5 SHL DUP2 MSTORE PUSH1 0x4 ADD PUSH2 0x70F SWAP2 SWAP1 PUSH2 0x38C7 JUMP JUMPDEST POP PUSH2 0x1174 DUP3 PUSH1 0x1 PUSH2 0x23D2 JUMP JUMPDEST PUSH1 0x1 PUSH1 0x1 PUSH1 0xA0 SHL SUB DUP13 AND PUSH1 0x0 SWAP1 DUP2 MSTORE PUSH1 0x3E PUSH1 0x20 MSTORE PUSH1 0x40 SWAP1 KECCAK256 SSTORE PUSH2 0x119A DUP12 DUP12 DUP12 DUP12 DUP12 PUSH2 0x1FC4 JUMP JUMPDEST SWAP4 POP SWAP4 POP POP POP SWAP8 POP SWAP8 SWAP6 POP POP POP POP POP POP JUMP JUMPDEST PUSH1 0x45 SLOAD PUSH1 0xFF AND DUP2 JUMP JUMPDEST PUSH1 0x1 DUP2 JUMP JUMPDEST PUSH32 0x4DAB0A5E832F103AC80C9C3E51E5742F8A24AA0A3D941FE91C64E1E3DB50C743 DUP2 JUMP JUMPDEST PUSH1 0x1 PUSH1 0x1 PUSH1 0xA0 SHL SUB DUP2 AND PUSH1 0x0 SWAP1 DUP2 MSTORE PUSH1 0x44 PUSH1 0x20 MSTORE PUSH1 0x40 DUP2 KECCAK256 SLOAD PUSH2 0x6AB SWAP1 PUSH2 0x26AD JUMP JUMPDEST PUSH1 0x1 PUSH1 0x1 PUSH1 0xA0 SHL SUB AND PUSH1 0x0 SWAP1 DUP2 MSTORE PUSH1 0x34 PUSH1 0x20 MSTORE PUSH1 0x40 SWAP1 KECCAK256 SLOAD SWAP1 JUMP JUMPDEST PUSH1 0x3A SLOAD PUSH1 0x1 PUSH1 0x1 PUSH1 0xA0 SHL SUB AND SWAP1 JUMP JUMPDEST PUSH1 0x40 MLOAD DUP1 PUSH1 0x40 ADD PUSH1 0x40 MSTORE DUP1 PUSH1 0x1 DUP2 MSTORE PUSH1 0x20 ADD PUSH32 0x3100000000000000000000000000000000000000000000000000000000000000 DUP2 MSTORE POP DUP2 JUMP JUMPDEST PUSH1 0x3A SLOAD PUSH1 0x0 SWAP1 PUSH1 0x1 PUSH1 0x1 PUSH1 0xA0 SHL SUB AND PUSH2 0x127E JUMPI POP PUSH1 0x0 PUSH2 0x690 JUMP JUMPDEST PUSH1 0x40 DUP1 MLOAD PUSH1 0x1 DUP1 DUP3 MSTORE DUP2 DUP4 ADD SWAP1 SWAP3 MSTORE PUSH1 0x60 SWAP2 PUSH1 0x20 DUP1 DUP4 ADD SWAP1 DUP1 CALLDATASIZE DUP4 CALLDATACOPY POP POP PUSH1 0x3B SLOAD DUP3 MLOAD SWAP3 SWAP4 POP PUSH1 0x1 PUSH1 0x1 PUSH1 0xA0 SHL SUB AND SWAP2 DUP4 SWAP2 POP PUSH1 0x0 SWAP1 PUSH2 0x12BA JUMPI INVALID JUMPDEST PUSH1 0x1 PUSH1 0x1 PUSH1 0xA0 SHL SUB SWAP3 DUP4 AND PUSH1 0x20 SWAP2 DUP3 MUL SWAP3 SWAP1 SWAP3 ADD ADD MSTORE PUSH1 0x3A SLOAD PUSH1 0x40 MLOAD PUSH32 0x8B599F2600000000000000000000000000000000000000000000000000000000 DUP2 MSTORE PUSH1 0x0 SWAP3 SWAP2 SWAP1 SWAP2 AND SWAP1 PUSH4 0x8B599F26 SWAP1 PUSH2 0x1317 SWAP1 DUP6 SWAP1 ADDRESS SWAP1 PUSH1 0x4 ADD PUSH2 0x374C JUMP JUMPDEST PUSH1 0x20 PUSH1 0x40 MLOAD DUP1 DUP4 SUB DUP2 DUP7 DUP1 EXTCODESIZE ISZERO DUP1 ISZERO PUSH2 0x132F JUMPI PUSH1 0x0 DUP1 REVERT JUMPDEST POP GAS STATICCALL ISZERO DUP1 ISZERO PUSH2 0x1343 JUMPI RETURNDATASIZE PUSH1 0x0 DUP1 RETURNDATACOPY RETURNDATASIZE PUSH1 0x0 REVERT JUMPDEST POP POP POP POP PUSH1 0x40 MLOAD RETURNDATASIZE PUSH1 0x1F NOT PUSH1 0x1F DUP3 ADD AND DUP3 ADD DUP1 PUSH1 0x40 MSTORE POP DUP2 ADD SWAP1 PUSH2 0x1367 SWAP2 SWAP1 PUSH2 0x3514 JUMP JUMPDEST PUSH1 0x3D SLOAD PUSH1 0x40 MLOAD PUSH32 0x70A0823100000000000000000000000000000000000000000000000000000000 DUP2 MSTORE SWAP2 SWAP3 POP PUSH2 0x140D SWAP2 DUP4 SWAP2 PUSH1 0x1 PUSH1 0x1 PUSH1 0xA0 SHL SUB AND SWAP1 PUSH4 0x70A08231 SWAP1 PUSH2 0x13B7 SWAP1 ADDRESS SWAP1 PUSH1 0x4 ADD PUSH2 0x364F JUMP JUMPDEST PUSH1 0x20 PUSH1 0x40 MLOAD DUP1 DUP4 SUB DUP2 DUP7 DUP1 EXTCODESIZE ISZERO DUP1 ISZERO PUSH2 0x13CF JUMPI PUSH1 0x0 DUP1 REVERT JUMPDEST POP GAS STATICCALL ISZERO DUP1 ISZERO PUSH2 0x13E3 JUMPI RETURNDATASIZE PUSH1 0x0 DUP1 RETURNDATACOPY RETURNDATASIZE PUSH1 0x0 REVERT JUMPDEST POP POP POP POP PUSH1 0x40 MLOAD RETURNDATASIZE PUSH1 0x1F NOT PUSH1 0x1F DUP3 ADD AND DUP3 ADD DUP1 PUSH1 0x40 MSTORE POP DUP2 ADD SWAP1 PUSH2 0x1407 SWAP2 SWAP1 PUSH2 0x3514 JUMP JUMPDEST SWAP1 PUSH2 0x23D2 JUMP JUMPDEST SWAP3 POP POP POP SWAP1 JUMP JUMPDEST PUSH32 0xCE21806401473655533A882461CA5036529D194F238D3C1793817A552BD133A5 DUP2 JUMP JUMPDEST PUSH1 0x38 DUP1 SLOAD PUSH1 0x40 DUP1 MLOAD PUSH1 0x20 PUSH1 0x1F PUSH1 0x2 PUSH1 0x0 NOT PUSH2 0x100 PUSH1 0x1 DUP9 AND ISZERO MUL ADD SWAP1 SWAP6 AND SWAP5 SWAP1 SWAP5 DIV SWAP4 DUP5 ADD DUP2 SWAP1 DIV DUP2 MUL DUP3 ADD DUP2 ADD SWAP1 SWAP3 MSTORE DUP3 DUP2 MSTORE PUSH1 0x60 SWAP4 SWAP1 SWAP3 SWAP1 SWAP2 DUP4 ADD DUP3 DUP3 DUP1 ISZERO PUSH2 0x688 JUMPI DUP1 PUSH1 0x1F LT PUSH2 0x65D JUMPI PUSH2 0x100 DUP1 DUP4 SLOAD DIV MUL DUP4 MSTORE SWAP2 PUSH1 0x20 ADD SWAP2 PUSH2 0x688 JUMP JUMPDEST PUSH1 0x3D SLOAD PUSH1 0x1 PUSH1 0x1 PUSH1 0xA0 SHL SUB AND DUP2 JUMP JUMPDEST PUSH1 0x3F SLOAD SWAP1 JUMP JUMPDEST PUSH1 0x0 PUSH2 0x6A7 PUSH2 0x14BB PUSH2 0x1C4C JUMP JUMPDEST DUP5 PUSH2 0xB86 DUP6 PUSH1 0x40 MLOAD DUP1 PUSH1 0x60 ADD PUSH1 0x40 MSTORE DUP1 PUSH1 0x25 DUP2 MSTORE PUSH1 0x20 ADD PUSH2 0x3D87 PUSH1 0x25 SWAP2 CODECOPY PUSH1 0x35 PUSH1 0x0 PUSH2 0x14E5 PUSH2 0x1C4C JUMP JUMPDEST PUSH1 0x1 PUSH1 0x1 PUSH1 0xA0 SHL SUB SWAP1 DUP2 AND DUP3 MSTORE PUSH1 0x20 DUP1 DUP4 ADD SWAP4 SWAP1 SWAP4 MSTORE PUSH1 0x40 SWAP2 DUP3 ADD PUSH1 0x0 SWAP1 DUP2 KECCAK256 SWAP2 DUP14 AND DUP2 MSTORE SWAP3 MSTORE SWAP1 KECCAK256 SLOAD SWAP2 SWAP1 PUSH2 0x1F98 JUMP JUMPDEST PUSH1 0x0 PUSH2 0x6A7 PUSH2 0x1523 PUSH2 0x1C4C JUMP JUMPDEST DUP5 DUP5 PUSH2 0x1E83 JUMP JUMPDEST PUSH1 0x3C SLOAD PUSH1 0x1 PUSH1 0x1 PUSH1 0xA0 SHL SUB AND SWAP1 JUMP JUMPDEST PUSH1 0x41 SLOAD SWAP1 JUMP JUMPDEST PUSH1 0x39 SLOAD PUSH2 0x100 SWAP1 DIV PUSH1 0x1 PUSH1 0x1 PUSH1 0xA0 SHL SUB AND DUP2 JUMP JUMPDEST PUSH1 0x3E PUSH1 0x20 MSTORE PUSH1 0x0 SWAP1 DUP2 MSTORE PUSH1 0x40 SWAP1 KECCAK256 SLOAD DUP2 JUMP JUMPDEST PUSH1 0x42 SLOAD SWAP1 JUMP JUMPDEST PUSH1 0x40 DUP1 MLOAD DUP1 DUP3 ADD SWAP1 SWAP2 MSTORE PUSH1 0x1 DUP2 MSTORE PUSH32 0x3400000000000000000000000000000000000000000000000000000000000000 PUSH1 0x20 DUP3 ADD MSTORE PUSH1 0x0 SWAP1 PUSH1 0x1 PUSH1 0x1 PUSH1 0xA0 SHL SUB DUP10 AND PUSH2 0x15C9 JUMPI PUSH1 0x40 MLOAD PUSH3 0x461BCD PUSH1 0xE5 SHL DUP2 MSTORE PUSH1 0x4 ADD PUSH2 0x70F SWAP2 SWAP1 PUSH2 0x38C7 JUMP JUMPDEST POP DUP3 TIMESTAMP GT ISZERO PUSH1 0x40 MLOAD DUP1 PUSH1 0x40 ADD PUSH1 0x40 MSTORE DUP1 PUSH1 0x1 DUP2 MSTORE PUSH1 0x20 ADD PUSH32 0x3200000000000000000000000000000000000000000000000000000000000000 DUP2 MSTORE POP SWAP1 PUSH2 0x1622 JUMPI PUSH1 0x40 MLOAD PUSH3 0x461BCD PUSH1 0xE5 SHL DUP2 MSTORE PUSH1 0x4 ADD PUSH2 0x70F SWAP2 SWAP1 PUSH2 0x38C7 JUMP JUMPDEST POP PUSH1 0x1 PUSH1 0x1 PUSH1 0xA0 SHL SUB DUP9 AND PUSH1 0x0 SWAP1 DUP2 MSTORE PUSH1 0x3E PUSH1 0x20 MSTORE PUSH1 0x40 DUP2 KECCAK256 SLOAD SWAP1 PUSH2 0x1645 PUSH2 0x1B8A JUMP JUMPDEST PUSH32 0x4DAB0A5E832F103AC80C9C3E51E5742F8A24AA0A3D941FE91C64E1E3DB50C743 DUP12 DUP12 DUP12 DUP12 DUP12 DUP9 DUP13 PUSH1 0x40 MLOAD PUSH1 0x20 ADD PUSH2 0x1684 SWAP9 SWAP8 SWAP7 SWAP6 SWAP5 SWAP4 SWAP3 SWAP2 SWAP1 PUSH2 0x37BD JUMP JUMPDEST PUSH1 0x40 MLOAD PUSH1 0x20 DUP2 DUP4 SUB SUB DUP2 MSTORE SWAP1 PUSH1 0x40 MSTORE DUP1 MLOAD SWAP1 PUSH1 0x20 ADD KECCAK256 PUSH1 0x40 MLOAD PUSH1 0x20 ADD PUSH2 0x16AB SWAP3 SWAP2 SWAP1 PUSH2 0x3619 JUMP JUMPDEST PUSH1 0x40 DUP1 MLOAD PUSH1 0x1F NOT DUP2 DUP5 SUB ADD DUP2 MSTORE SWAP2 SWAP1 MSTORE DUP1 MLOAD PUSH1 0x20 SWAP2 DUP3 ADD KECCAK256 SWAP2 POP PUSH1 0x1 SWAP1 DUP3 SWAP1 PUSH2 0x16D6 SWAP1 DUP8 ADD DUP8 PUSH2 0x352C JUMP JUMPDEST DUP7 PUSH1 0x20 ADD CALLDATALOAD DUP8 PUSH1 0x40 ADD CALLDATALOAD PUSH1 0x40 MLOAD PUSH1 0x0 DUP2 MSTORE PUSH1 0x20 ADD PUSH1 0x40 MSTORE PUSH1 0x40 MLOAD PUSH2 0x16FD SWAP5 SWAP4 SWAP3 SWAP2 SWAP1 PUSH2 0x38A9 JUMP JUMPDEST PUSH1 0x20 PUSH1 0x40 MLOAD PUSH1 0x20 DUP2 SUB SWAP1 DUP1 DUP5 SUB SWAP1 DUP6 GAS STATICCALL ISZERO DUP1 ISZERO PUSH2 0x171F JUMPI RETURNDATASIZE PUSH1 0x0 DUP1 RETURNDATACOPY RETURNDATASIZE PUSH1 0x0 REVERT JUMPDEST POP POP POP PUSH1 0x20 PUSH1 0x40 MLOAD SUB MLOAD PUSH1 0x1 PUSH1 0x1 PUSH1 0xA0 SHL SUB AND DUP11 PUSH1 0x1 PUSH1 0x1 PUSH1 0xA0 SHL SUB AND EQ PUSH1 0x40 MLOAD DUP1 PUSH1 0x40 ADD PUSH1 0x40 MSTORE DUP1 PUSH1 0x1 DUP2 MSTORE PUSH1 0x20 ADD PUSH32 0x3300000000000000000000000000000000000000000000000000000000000000 DUP2 MSTORE POP SWAP1 PUSH2 0x1791 JUMPI PUSH1 0x40 MLOAD PUSH3 0x461BCD PUSH1 0xE5 SHL DUP2 MSTORE PUSH1 0x4 ADD PUSH2 0x70F SWAP2 SWAP1 PUSH2 0x38C7 JUMP JUMPDEST POP PUSH2 0x179D DUP3 PUSH1 0x1 PUSH2 0x23D2 JUMP JUMPDEST PUSH1 0x1 PUSH1 0x1 PUSH1 0xA0 SHL SUB DUP12 AND PUSH1 0x0 SWAP1 DUP2 MSTORE PUSH1 0x3E PUSH1 0x20 MSTORE PUSH1 0x40 SWAP1 KECCAK256 SSTORE PUSH2 0x17C3 DUP11 DUP11 DUP11 DUP11 DUP11 PUSH2 0x21E2 JUMP JUMPDEST SWAP11 SWAP10 POP POP POP POP POP POP POP POP POP POP JUMP JUMPDEST PUSH1 0x40 DUP1 MLOAD DUP1 DUP3 ADD SWAP1 SWAP2 MSTORE PUSH1 0x1 DUP2 MSTORE PUSH32 0x3100000000000000000000000000000000000000000000000000000000000000 PUSH1 0x20 DUP3 ADD MSTORE PUSH1 0x1 PUSH1 0x1 PUSH1 0xA0 SHL SUB DUP9 AND PUSH2 0x182C JUMPI PUSH1 0x40 MLOAD PUSH3 0x461BCD PUSH1 0xE5 SHL DUP2 MSTORE PUSH1 0x4 ADD PUSH2 0x70F SWAP2 SWAP1 PUSH2 0x38C7 JUMP JUMPDEST POP DUP4 TIMESTAMP GT ISZERO PUSH1 0x40 MLOAD DUP1 PUSH1 0x40 ADD PUSH1 0x40 MSTORE DUP1 PUSH1 0x1 DUP2 MSTORE PUSH1 0x20 ADD PUSH32 0x3200000000000000000000000000000000000000000000000000000000000000 DUP2 MSTORE POP SWAP1 PUSH2 0x1885 JUMPI PUSH1 0x40 MLOAD PUSH3 0x461BCD PUSH1 0xE5 SHL DUP2 MSTORE PUSH1 0x4 ADD PUSH2 0x70F SWAP2 SWAP1 PUSH2 0x38C7 JUMP JUMPDEST POP PUSH1 0x1 PUSH1 0x1 PUSH1 0xA0 SHL SUB DUP8 AND PUSH1 0x0 SWAP1 DUP2 MSTORE PUSH1 0x3E PUSH1 0x20 MSTORE PUSH1 0x40 DUP2 KECCAK256 SLOAD SWAP1 PUSH2 0x18A8 PUSH2 0x1B8A JUMP JUMPDEST PUSH32 0x6E71EDAE12B1B97F4D1F60370FEF10105FA2FAAE0126114A169C64845D6126C9 DUP11 DUP11 DUP11 DUP7 DUP12 PUSH1 0x40 MLOAD PUSH1 0x20 ADD PUSH2 0x18E3 SWAP7 SWAP6 SWAP5 SWAP4 SWAP3 SWAP2 SWAP1 PUSH2 0x3849 JUMP JUMPDEST PUSH1 0x40 MLOAD PUSH1 0x20 DUP2 DUP4 SUB SUB DUP2 MSTORE SWAP1 PUSH1 0x40 MSTORE DUP1 MLOAD SWAP1 PUSH1 0x20 ADD KECCAK256 PUSH1 0x40 MLOAD PUSH1 0x20 ADD PUSH2 0x190A SWAP3 SWAP2 SWAP1 PUSH2 0x3619 JUMP JUMPDEST PUSH1 0x40 MLOAD PUSH1 0x20 DUP2 DUP4 SUB SUB DUP2 MSTORE SWAP1 PUSH1 0x40 MSTORE DUP1 MLOAD SWAP1 PUSH1 0x20 ADD KECCAK256 SWAP1 POP PUSH1 0x1 DUP2 DUP7 DUP7 DUP7 PUSH1 0x40 MLOAD PUSH1 0x0 DUP2 MSTORE PUSH1 0x20 ADD PUSH1 0x40 MSTORE PUSH1 0x40 MLOAD PUSH2 0x1945 SWAP5 SWAP4 SWAP3 SWAP2 SWAP1 PUSH2 0x38A9 JUMP JUMPDEST PUSH1 0x20 PUSH1 0x40 MLOAD PUSH1 0x20 DUP2 SUB SWAP1 DUP1 DUP5 SUB SWAP1 DUP6 GAS STATICCALL ISZERO DUP1 ISZERO PUSH2 0x1967 JUMPI RETURNDATASIZE PUSH1 0x0 DUP1 RETURNDATACOPY RETURNDATASIZE PUSH1 0x0 REVERT JUMPDEST POP POP POP PUSH1 0x20 PUSH1 0x40 MLOAD SUB MLOAD PUSH1 0x1 PUSH1 0x1 PUSH1 0xA0 SHL SUB AND DUP10 PUSH1 0x1 PUSH1 0x1 PUSH1 0xA0 SHL SUB AND EQ PUSH1 0x40 MLOAD DUP1 PUSH1 0x40 ADD PUSH1 0x40 MSTORE DUP1 PUSH1 0x1 DUP2 MSTORE PUSH1 0x20 ADD PUSH32 0x3300000000000000000000000000000000000000000000000000000000000000 DUP2 MSTORE POP SWAP1 PUSH2 0x19D9 JUMPI PUSH1 0x40 MLOAD PUSH3 0x461BCD PUSH1 0xE5 SHL DUP2 MSTORE PUSH1 0x4 ADD PUSH2 0x70F SWAP2 SWAP1 PUSH2 0x38C7 JUMP JUMPDEST POP PUSH2 0x19E5 DUP3 PUSH1 0x1 PUSH2 0x23D2 JUMP JUMPDEST PUSH1 0x1 PUSH1 0x1 PUSH1 0xA0 SHL SUB DUP11 AND PUSH1 0x0 SWAP1 DUP2 MSTORE PUSH1 0x3E PUSH1 0x20 MSTORE PUSH1 0x40 SWAP1 KECCAK256 SSTORE PUSH2 0x1A09 DUP10 DUP10 DUP10 PUSH2 0x1C50 JUMP JUMPDEST POP POP POP POP POP POP POP POP POP JUMP JUMPDEST PUSH1 0x3A SLOAD PUSH1 0x1 PUSH1 0x1 PUSH1 0xA0 SHL SUB AND PUSH2 0x1A29 JUMPI PUSH2 0x1B49 JUMP JUMPDEST CALLER PUSH1 0x1 PUSH1 0x1 PUSH1 0xA0 SHL SUB DUP5 AND EQ DUP1 PUSH2 0x1AE9 JUMPI POP PUSH1 0x3A SLOAD PUSH1 0x40 MLOAD PUSH32 0x74D945EC00000000000000000000000000000000000000000000000000000000 DUP2 MSTORE PUSH1 0x1 PUSH1 0x1 PUSH1 0xA0 SHL SUB SWAP1 SWAP2 AND SWAP1 PUSH4 0x74D945EC SWAP1 PUSH2 0x1A84 SWAP1 DUP7 SWAP1 PUSH1 0x4 ADD PUSH2 0x364F JUMP JUMPDEST PUSH1 0x20 PUSH1 0x40 MLOAD DUP1 DUP4 SUB DUP2 DUP7 DUP1 EXTCODESIZE ISZERO DUP1 ISZERO PUSH2 0x1A9C JUMPI PUSH1 0x0 DUP1 REVERT JUMPDEST POP GAS STATICCALL ISZERO DUP1 ISZERO PUSH2 0x1AB0 JUMPI RETURNDATASIZE PUSH1 0x0 DUP1 RETURNDATACOPY RETURNDATASIZE PUSH1 0x0 REVERT JUMPDEST POP POP POP POP PUSH1 0x40 MLOAD RETURNDATASIZE PUSH1 0x1F NOT PUSH1 0x1F DUP3 ADD AND DUP3 ADD DUP1 PUSH1 0x40 MSTORE POP DUP2 ADD SWAP1 PUSH2 0x1AD4 SWAP2 SWAP1 PUSH2 0x3123 JUMP JUMPDEST PUSH1 0x1 PUSH1 0x1 PUSH1 0xA0 SHL SUB AND CALLER PUSH1 0x1 PUSH1 0x1 PUSH1 0xA0 SHL SUB AND EQ JUMPDEST PUSH1 0x40 MLOAD DUP1 PUSH1 0x40 ADD PUSH1 0x40 MSTORE DUP1 PUSH1 0x1 DUP2 MSTORE PUSH1 0x20 ADD PUSH32 0x3600000000000000000000000000000000000000000000000000000000000000 DUP2 MSTORE POP SWAP1 PUSH2 0x1B3D JUMPI PUSH1 0x40 MLOAD PUSH3 0x461BCD PUSH1 0xE5 SHL DUP2 MSTORE PUSH1 0x4 ADD PUSH2 0x70F SWAP2 SWAP1 PUSH2 0x38C7 JUMP JUMPDEST POP PUSH2 0x1B49 DUP4 DUP4 DUP4 PUSH2 0x2590 JUMP JUMPDEST POP POP POP JUMP JUMPDEST PUSH1 0x1 PUSH1 0x1 PUSH1 0xA0 SHL SUB SWAP2 DUP3 AND PUSH1 0x0 SWAP1 DUP2 MSTORE PUSH1 0x35 PUSH1 0x20 SWAP1 DUP2 MSTORE PUSH1 0x40 DUP1 DUP4 KECCAK256 SWAP4 SWAP1 SWAP5 AND DUP3 MSTORE SWAP2 SWAP1 SWAP2 MSTORE KECCAK256 SLOAD SWAP1 JUMP JUMPDEST PUSH1 0x0 DUP1 PUSH2 0xBA7 CALLER DUP7 DUP7 PUSH1 0x0 DUP8 PUSH2 0x1FC4 JUMP JUMPDEST PUSH1 0x0 CHAINID PUSH32 0x8B73C3C69BB8FE3D512ECC4CF759CC79239F7B179B0FFACAA9A75D522B39400F PUSH2 0x1BB6 PUSH2 0x5FC JUMP JUMPDEST DUP1 MLOAD PUSH1 0x20 SWAP2 DUP3 ADD KECCAK256 PUSH1 0x40 DUP1 MLOAD DUP1 DUP3 ADD DUP3 MSTORE PUSH1 0x1 DUP2 MSTORE PUSH32 0x3100000000000000000000000000000000000000000000000000000000000000 SWAP1 DUP5 ADD MSTORE MLOAD PUSH2 0x1C22 SWAP4 SWAP3 PUSH32 0xC89EFDAA54C0F20C7ADF612882DF0950F5A951637E0307CDCB4C672F298B8BC6 SWAP2 DUP7 SWAP2 ADDRESS SWAP2 ADD PUSH2 0x387D JUMP JUMPDEST PUSH1 0x40 MLOAD PUSH1 0x20 DUP2 DUP4 SUB SUB DUP2 MSTORE SWAP1 PUSH1 0x40 MSTORE DUP1 MLOAD SWAP1 PUSH1 0x20 ADD KECCAK256 SWAP2 POP POP SWAP1 JUMP JUMPDEST PUSH1 0x0 PUSH2 0x6AB DUP3 PUSH2 0xED6 PUSH2 0xBB3 JUMP JUMPDEST CALLER SWAP1 JUMP JUMPDEST PUSH1 0x1 PUSH1 0x1 PUSH1 0xA0 SHL SUB DUP4 AND PUSH2 0x1C76 JUMPI PUSH1 0x40 MLOAD PUSH3 0x461BCD PUSH1 0xE5 SHL DUP2 MSTORE PUSH1 0x4 ADD PUSH2 0x70F SWAP1 PUSH2 0x3B17 JUMP JUMPDEST PUSH1 0x1 PUSH1 0x1 PUSH1 0xA0 SHL SUB DUP3 AND PUSH2 0x1C9C JUMPI PUSH1 0x40 MLOAD PUSH3 0x461BCD PUSH1 0xE5 SHL DUP2 MSTORE PUSH1 0x4 ADD PUSH2 0x70F SWAP1 PUSH2 0x3937 JUMP JUMPDEST PUSH1 0x1 PUSH1 0x1 PUSH1 0xA0 SHL SUB DUP1 DUP5 AND PUSH1 0x0 DUP2 DUP2 MSTORE PUSH1 0x35 PUSH1 0x20 SWAP1 DUP2 MSTORE PUSH1 0x40 DUP1 DUP4 KECCAK256 SWAP5 DUP8 AND DUP1 DUP5 MSTORE SWAP5 SWAP1 SWAP2 MSTORE SWAP1 DUP2 SWAP1 KECCAK256 DUP5 SWAP1 SSTORE MLOAD PUSH32 0x8C5BE1E5EBEC7D5BD14F71427D1E84F3DD0314C0F7B2291E5B200AC8C7C3B925 SWAP1 PUSH2 0x1CF7 SWAP1 DUP6 SWAP1 PUSH2 0x37B4 JUMP JUMPDEST PUSH1 0x40 MLOAD DUP1 SWAP2 SUB SWAP1 LOG3 POP POP POP JUMP JUMPDEST PUSH1 0x1 SWAP1 JUMP JUMPDEST ADDRESS EXTCODESIZE ISZERO SWAP1 JUMP JUMPDEST PUSH1 0x39 DUP1 SLOAD PUSH32 0xFFFFFFFFFFFFFFFFFFFFFFFFFFFFFFFFFFFFFFFFFFFFFFFFFFFFFFFFFFFFFF00 AND PUSH1 0xFF SWAP3 SWAP1 SWAP3 AND SWAP2 SWAP1 SWAP2 OR SWAP1 SSTORE JUMP JUMPDEST DUP1 ISZERO DUP1 PUSH2 0x1DE4 JUMPI POP PUSH1 0x40 MLOAD PUSH32 0xDD62ED3E00000000000000000000000000000000000000000000000000000000 DUP2 MSTORE PUSH1 0x1 PUSH1 0x1 PUSH1 0xA0 SHL SUB DUP5 AND SWAP1 PUSH4 0xDD62ED3E SWAP1 PUSH2 0x1D92 SWAP1 ADDRESS SWAP1 DUP7 SWAP1 PUSH1 0x4 ADD PUSH2 0x3663 JUMP JUMPDEST PUSH1 0x20 PUSH1 0x40 MLOAD DUP1 DUP4 SUB DUP2 DUP7 DUP1 EXTCODESIZE ISZERO DUP1 ISZERO PUSH2 0x1DAA JUMPI PUSH1 0x0 DUP1 REVERT JUMPDEST POP GAS STATICCALL ISZERO DUP1 ISZERO PUSH2 0x1DBE JUMPI RETURNDATASIZE PUSH1 0x0 DUP1 RETURNDATACOPY RETURNDATASIZE PUSH1 0x0 REVERT JUMPDEST POP POP POP POP PUSH1 0x40 MLOAD RETURNDATASIZE PUSH1 0x1F NOT PUSH1 0x1F DUP3 ADD AND DUP3 ADD DUP1 PUSH1 0x40 MSTORE POP DUP2 ADD SWAP1 PUSH2 0x1DE2 SWAP2 SWAP1 PUSH2 0x3514 JUMP JUMPDEST ISZERO JUMPDEST PUSH2 0x1E00 JUMPI PUSH1 0x40 MLOAD PUSH3 0x461BCD PUSH1 0xE5 SHL DUP2 MSTORE PUSH1 0x4 ADD PUSH2 0x70F SWAP1 PUSH2 0x3BD1 JUMP JUMPDEST PUSH2 0x1B49 DUP4 PUSH4 0x95EA7B3 PUSH1 0xE0 SHL DUP5 DUP5 PUSH1 0x40 MLOAD PUSH1 0x24 ADD PUSH2 0x1E1F SWAP3 SWAP2 SWAP1 PUSH2 0x36E3 JUMP JUMPDEST PUSH1 0x40 DUP1 MLOAD PUSH1 0x1F NOT DUP2 DUP5 SUB ADD DUP2 MSTORE SWAP2 SWAP1 MSTORE PUSH1 0x20 DUP2 ADD DUP1 MLOAD PUSH28 0xFFFFFFFFFFFFFFFFFFFFFFFFFFFFFFFFFFFFFFFFFFFFFFFFFFFFFFFF AND PUSH32 0xFFFFFFFF00000000000000000000000000000000000000000000000000000000 SWAP1 SWAP4 AND SWAP3 SWAP1 SWAP3 OR SWAP1 SWAP2 MSTORE PUSH2 0x26B7 JUMP JUMPDEST PUSH1 0x1 PUSH1 0x1 PUSH1 0xA0 SHL SUB DUP4 AND PUSH2 0x1EA9 JUMPI PUSH1 0x40 MLOAD PUSH3 0x461BCD PUSH1 0xE5 SHL DUP2 MSTORE PUSH1 0x4 ADD PUSH2 0x70F SWAP1 PUSH2 0x3ABA JUMP JUMPDEST PUSH1 0x1 PUSH1 0x1 PUSH1 0xA0 SHL SUB DUP3 AND PUSH2 0x1ECF JUMPI PUSH1 0x40 MLOAD PUSH3 0x461BCD PUSH1 0xE5 SHL DUP2 MSTORE PUSH1 0x4 ADD PUSH2 0x70F SWAP1 PUSH2 0x38DA JUMP JUMPDEST PUSH2 0x1EDA DUP4 DUP4 DUP4 PUSH2 0x27A2 JUMP JUMPDEST PUSH2 0x1F17 DUP2 PUSH1 0x40 MLOAD DUP1 PUSH1 0x60 ADD PUSH1 0x40 MSTORE DUP1 PUSH1 0x26 DUP2 MSTORE PUSH1 0x20 ADD PUSH2 0x3D39 PUSH1 0x26 SWAP2 CODECOPY PUSH1 0x1 PUSH1 0x1 PUSH1 0xA0 SHL SUB DUP7 AND PUSH1 0x0 SWAP1 DUP2 MSTORE PUSH1 0x34 PUSH1 0x20 MSTORE PUSH1 0x40 SWAP1 KECCAK256 SLOAD SWAP2 SWAP1 PUSH2 0x1F98 JUMP JUMPDEST PUSH1 0x1 PUSH1 0x1 PUSH1 0xA0 SHL SUB DUP1 DUP6 AND PUSH1 0x0 SWAP1 DUP2 MSTORE PUSH1 0x34 PUSH1 0x20 MSTORE PUSH1 0x40 DUP1 DUP3 KECCAK256 SWAP4 SWAP1 SWAP4 SSTORE SWAP1 DUP5 AND DUP2 MSTORE KECCAK256 SLOAD PUSH2 0x1F46 SWAP1 DUP3 PUSH2 0x23D2 JUMP JUMPDEST PUSH1 0x1 PUSH1 0x1 PUSH1 0xA0 SHL SUB DUP1 DUP5 AND PUSH1 0x0 DUP2 DUP2 MSTORE PUSH1 0x34 PUSH1 0x20 MSTORE PUSH1 0x40 SWAP1 DUP2 SWAP1 KECCAK256 SWAP4 SWAP1 SWAP4 SSTORE SWAP2 MLOAD SWAP1 DUP6 AND SWAP1 PUSH32 0xDDF252AD1BE2C89B69C2B068FC378DAA952BA7F163C4A11628F55A4DF523B3EF SWAP1 PUSH2 0x1CF7 SWAP1 DUP6 SWAP1 PUSH2 0x37B4 JUMP JUMPDEST PUSH1 0x0 DUP2 DUP5 DUP5 GT ISZERO PUSH2 0x1FBC JUMPI PUSH1 0x40 MLOAD PUSH3 0x461BCD PUSH1 0xE5 SHL DUP2 MSTORE PUSH1 0x4 ADD PUSH2 0x70F SWAP2 SWAP1 PUSH2 0x38C7 JUMP JUMPDEST POP POP POP SWAP1 SUB SWAP1 JUMP JUMPDEST PUSH1 0x40 DUP1 MLOAD DUP1 DUP3 ADD SWAP1 SWAP2 MSTORE PUSH1 0x1 DUP2 MSTORE PUSH32 0x3500000000000000000000000000000000000000000000000000000000000000 PUSH1 0x20 DUP3 ADD MSTORE PUSH1 0x0 SWAP1 DUP2 SWAP1 PUSH1 0x1 PUSH1 0x1 PUSH1 0xA0 SHL SUB DUP8 AND PUSH2 0x2024 JUMPI PUSH1 0x40 MLOAD PUSH3 0x461BCD PUSH1 0xE5 SHL DUP2 MSTORE PUSH1 0x4 ADD PUSH2 0x70F SWAP2 SWAP1 PUSH2 0x38C7 JUMP JUMPDEST POP DUP5 ISZERO DUP1 PUSH2 0x2030 JUMPI POP DUP4 ISZERO JUMPDEST PUSH1 0x40 MLOAD DUP1 PUSH1 0x40 ADD PUSH1 0x40 MSTORE DUP1 PUSH1 0x1 DUP2 MSTORE PUSH1 0x20 ADD PUSH32 0x3700000000000000000000000000000000000000000000000000000000000000 DUP2 MSTORE POP SWAP1 PUSH2 0x2084 JUMPI PUSH1 0x40 MLOAD PUSH3 0x461BCD PUSH1 0xE5 SHL DUP2 MSTORE PUSH1 0x4 ADD PUSH2 0x70F SWAP2 SWAP1 PUSH2 0x38C7 JUMP JUMPDEST POP PUSH2 0x208D PUSH2 0x27E7 JUMP JUMPDEST PUSH1 0x0 PUSH2 0x2098 DUP9 PUSH2 0x1200 JUMP JUMPDEST SWAP1 POP PUSH1 0x0 DUP1 PUSH1 0x0 PUSH2 0x20A7 PUSH2 0xBB3 JUMP JUMPDEST SWAP1 POP DUP9 ISZERO PUSH2 0x20D1 JUMPI DUP4 DUP10 GT PUSH2 0x20BC JUMPI DUP9 PUSH2 0x20BE JUMP JUMPDEST DUP4 JUMPDEST SWAP2 POP PUSH2 0x20CA DUP3 DUP3 PUSH2 0x2584 JUMP JUMPDEST SWAP3 POP PUSH2 0x20FE JUMP JUMPDEST PUSH1 0x0 PUSH2 0x20DD DUP6 DUP4 PUSH2 0x2584 JUMP JUMPDEST SWAP1 POP DUP1 DUP10 GT PUSH2 0x20EC JUMPI DUP9 PUSH2 0x20EE JUMP JUMPDEST DUP1 JUMPDEST SWAP4 POP PUSH2 0x20FA DUP5 DUP4 PUSH2 0x23C6 JUMP JUMPDEST SWAP3 POP POP JUMPDEST PUSH2 0x2108 DUP12 DUP4 PUSH2 0x295C JUMP JUMPDEST DUP7 ISZERO PUSH2 0x21BC JUMPI PUSH1 0x39 SLOAD PUSH1 0x3C SLOAD PUSH1 0x40 MLOAD PUSH32 0x69328DEC00000000000000000000000000000000000000000000000000000000 DUP2 MSTORE PUSH1 0x1 PUSH1 0x1 PUSH1 0xA0 SHL SUB PUSH2 0x100 SWAP1 SWAP4 DIV DUP4 AND SWAP3 PUSH4 0x69328DEC SWAP3 PUSH2 0x2164 SWAP3 SWAP2 AND SWAP1 DUP8 SWAP1 DUP16 SWAP1 PUSH1 0x4 ADD PUSH2 0x36FC JUMP JUMPDEST PUSH1 0x20 PUSH1 0x40 MLOAD DUP1 DUP4 SUB DUP2 PUSH1 0x0 DUP8 DUP1 EXTCODESIZE ISZERO DUP1 ISZERO PUSH2 0x217E JUMPI PUSH1 0x0 DUP1 REVERT JUMPDEST POP GAS CALL ISZERO DUP1 ISZERO PUSH2 0x2192 JUMPI RETURNDATASIZE PUSH1 0x0 DUP1 RETURNDATACOPY RETURNDATASIZE PUSH1 0x0 REVERT JUMPDEST POP POP POP POP PUSH1 0x40 MLOAD RETURNDATASIZE PUSH1 0x1F NOT PUSH1 0x1F DUP3 ADD AND DUP3 ADD DUP1 PUSH1 0x40 MSTORE POP DUP2 ADD SWAP1 PUSH2 0x21B6 SWAP2 SWAP1 PUSH2 0x3514 JUMP JUMPDEST POP PUSH2 0x21D3 JUMP JUMPDEST PUSH1 0x3B SLOAD PUSH2 0x21D3 SWAP1 PUSH1 0x1 PUSH1 0x1 PUSH1 0xA0 SHL SUB AND DUP12 DUP6 PUSH2 0x2A3E JUMP JUMPDEST POP SWAP10 SWAP1 SWAP9 POP SWAP7 POP POP POP POP POP POP POP JUMP JUMPDEST PUSH1 0x45 SLOAD PUSH1 0x40 DUP1 MLOAD DUP1 DUP3 ADD SWAP1 SWAP2 MSTORE PUSH1 0x1 DUP2 MSTORE PUSH32 0x3800000000000000000000000000000000000000000000000000000000000000 PUSH1 0x20 DUP3 ADD MSTORE PUSH1 0x0 SWAP2 PUSH1 0xFF AND ISZERO PUSH2 0x223D JUMPI PUSH1 0x40 MLOAD PUSH3 0x461BCD PUSH1 0xE5 SHL DUP2 MSTORE PUSH1 0x4 ADD PUSH2 0x70F SWAP2 SWAP1 PUSH2 0x38C7 JUMP JUMPDEST POP PUSH1 0x40 DUP1 MLOAD DUP1 DUP3 ADD SWAP1 SWAP2 MSTORE PUSH1 0x1 DUP2 MSTORE PUSH32 0x3500000000000000000000000000000000000000000000000000000000000000 PUSH1 0x20 DUP3 ADD MSTORE PUSH1 0x1 PUSH1 0x1 PUSH1 0xA0 SHL SUB DUP7 AND PUSH2 0x2299 JUMPI PUSH1 0x40 MLOAD PUSH3 0x461BCD PUSH1 0xE5 SHL DUP2 MSTORE PUSH1 0x4 ADD PUSH2 0x70F SWAP2 SWAP1 PUSH2 0x38C7 JUMP JUMPDEST POP PUSH2 0x22A2 PUSH2 0x27E7 JUMP JUMPDEST DUP2 ISZERO PUSH2 0x234F JUMPI PUSH1 0x3C SLOAD PUSH2 0x22C0 SWAP1 PUSH1 0x1 PUSH1 0x1 PUSH1 0xA0 SHL SUB AND DUP8 ADDRESS DUP8 PUSH2 0x2A5D JUMP JUMPDEST PUSH1 0x39 SLOAD PUSH1 0x3C SLOAD PUSH1 0x40 MLOAD PUSH32 0xE8EDA9DF00000000000000000000000000000000000000000000000000000000 DUP2 MSTORE PUSH1 0x1 PUSH1 0x1 PUSH1 0xA0 SHL SUB PUSH2 0x100 SWAP1 SWAP4 DIV DUP4 AND SWAP3 PUSH4 0xE8EDA9DF SWAP3 PUSH2 0x2318 SWAP3 SWAP2 AND SWAP1 DUP9 SWAP1 ADDRESS SWAP1 DUP10 SWAP1 PUSH1 0x4 ADD PUSH2 0x371F JUMP JUMPDEST PUSH1 0x0 PUSH1 0x40 MLOAD DUP1 DUP4 SUB DUP2 PUSH1 0x0 DUP8 DUP1 EXTCODESIZE ISZERO DUP1 ISZERO PUSH2 0x2332 JUMPI PUSH1 0x0 DUP1 REVERT JUMPDEST POP GAS CALL ISZERO DUP1 ISZERO PUSH2 0x2346 JUMPI RETURNDATASIZE PUSH1 0x0 DUP1 RETURNDATACOPY RETURNDATASIZE PUSH1 0x0 REVERT JUMPDEST POP POP POP POP PUSH2 0x2367 JUMP JUMPDEST PUSH1 0x3B SLOAD PUSH2 0x2367 SWAP1 PUSH1 0x1 PUSH1 0x1 PUSH1 0xA0 SHL SUB AND DUP8 ADDRESS DUP8 PUSH2 0x2A5D JUMP JUMPDEST PUSH1 0x0 PUSH2 0x2375 DUP6 PUSH2 0xCCD PUSH2 0xBB3 JUMP JUMPDEST SWAP1 POP PUSH2 0x2381 DUP7 DUP3 PUSH2 0x2A7E JUMP JUMPDEST SWAP7 SWAP6 POP POP POP POP POP POP JUMP JUMPDEST PUSH1 0x0 DUP1 PUSH2 0x23BB PUSH2 0x239C DUP7 DUP7 DUP7 PUSH2 0x2B32 JUMP JUMPDEST PUSH1 0x1 PUSH1 0x1 PUSH1 0xA0 SHL SUB DUP8 AND PUSH1 0x0 SWAP1 DUP2 MSTORE PUSH1 0x44 PUSH1 0x20 MSTORE PUSH1 0x40 SWAP1 KECCAK256 SLOAD SWAP1 PUSH2 0x23D2 JUMP JUMPDEST SWAP1 POP PUSH2 0xC6D DUP2 PUSH2 0x26AD JUMP JUMPDEST PUSH1 0x0 PUSH2 0xB8F DUP4 DUP4 PUSH2 0x2CFF JUMP JUMPDEST PUSH1 0x0 DUP3 DUP3 ADD DUP4 DUP2 LT ISZERO PUSH2 0xB8F JUMPI PUSH1 0x40 MLOAD PUSH3 0x461BCD PUSH1 0xE5 SHL DUP2 MSTORE PUSH1 0x4 ADD PUSH2 0x70F SWAP1 PUSH2 0x3994 JUMP JUMPDEST PUSH1 0x0 PUSH2 0xB8F DUP4 DUP4 PUSH1 0x40 MLOAD DUP1 PUSH1 0x40 ADD PUSH1 0x40 MSTORE DUP1 PUSH1 0x1E DUP2 MSTORE PUSH1 0x20 ADD PUSH32 0x536166654D6174683A207375627472616374696F6E206F766572666C6F770000 DUP2 MSTORE POP PUSH2 0x1F98 JUMP JUMPDEST PUSH1 0x0 PUSH4 0x3B9ACA00 DUP3 DUP2 MUL SWAP1 DUP4 SWAP1 DUP3 DIV EQ PUSH1 0x40 MLOAD DUP1 PUSH1 0x40 ADD PUSH1 0x40 MSTORE DUP1 PUSH1 0x2 DUP2 MSTORE PUSH1 0x20 ADD PUSH32 0x3438000000000000000000000000000000000000000000000000000000000000 DUP2 MSTORE POP SWAP1 PUSH2 0x249D JUMPI PUSH1 0x40 MLOAD PUSH3 0x461BCD PUSH1 0xE5 SHL DUP2 MSTORE PUSH1 0x4 ADD PUSH2 0x70F SWAP2 SWAP1 PUSH2 0x38C7 JUMP JUMPDEST POP SWAP3 SWAP2 POP POP JUMP JUMPDEST PUSH1 0x40 DUP1 MLOAD DUP1 DUP3 ADD SWAP1 SWAP2 MSTORE PUSH1 0x2 DUP2 MSTORE PUSH32 0x3530000000000000000000000000000000000000000000000000000000000000 PUSH1 0x20 DUP3 ADD MSTORE PUSH1 0x0 SWAP1 DUP3 PUSH2 0x24F9 JUMPI PUSH1 0x40 MLOAD PUSH3 0x461BCD PUSH1 0xE5 SHL DUP2 MSTORE PUSH1 0x4 ADD PUSH2 0x70F SWAP2 SWAP1 PUSH2 0x38C7 JUMP JUMPDEST POP PUSH1 0x40 DUP1 MLOAD DUP1 DUP3 ADD SWAP1 SWAP2 MSTORE PUSH1 0x2 DUP2 MSTORE PUSH32 0x3438000000000000000000000000000000000000000000000000000000000000 PUSH1 0x20 DUP3 ADD MSTORE PUSH21 0x4F3A68DBC8F03F243BAF513267AA9A3EE524F8E028 DUP5 GT ISZERO PUSH2 0x2564 JUMPI PUSH1 0x40 MLOAD PUSH3 0x461BCD PUSH1 0xE5 SHL DUP2 MSTORE PUSH1 0x4 ADD PUSH2 0x70F SWAP2 SWAP1 PUSH2 0x38C7 JUMP JUMPDEST POP DUP2 PUSH12 0x33B2E3C9FD0803CE8000000 DUP5 MUL DUP2 PUSH2 0x257C JUMPI INVALID JUMPDEST DIV SWAP4 SWAP3 POP POP POP JUMP JUMPDEST PUSH1 0x0 PUSH2 0xB8F DUP4 DUP4 PUSH2 0x2DE0 JUMP JUMPDEST DUP1 ISZERO PUSH2 0x259E JUMPI PUSH2 0x259E PUSH2 0xD20 JUMP JUMPDEST PUSH1 0x0 PUSH2 0x25A9 DUP5 PUSH2 0x1200 JUMP JUMPDEST SWAP1 POP PUSH1 0x0 PUSH2 0x25B9 DUP6 DUP4 PUSH1 0x0 PUSH2 0x238B JUMP JUMPDEST PUSH1 0x3D SLOAD PUSH1 0x40 MLOAD PUSH32 0x70A0823100000000000000000000000000000000000000000000000000000000 DUP2 MSTORE SWAP2 SWAP3 POP PUSH1 0x0 SWAP2 PUSH1 0x1 PUSH1 0x1 PUSH1 0xA0 SHL SUB SWAP1 SWAP2 AND SWAP1 PUSH4 0x70A08231 SWAP1 PUSH2 0x2608 SWAP1 ADDRESS SWAP1 PUSH1 0x4 ADD PUSH2 0x364F JUMP JUMPDEST PUSH1 0x20 PUSH1 0x40 MLOAD DUP1 DUP4 SUB DUP2 DUP7 DUP1 EXTCODESIZE ISZERO DUP1 ISZERO PUSH2 0x2620 JUMPI PUSH1 0x0 DUP1 REVERT JUMPDEST POP GAS STATICCALL ISZERO DUP1 ISZERO PUSH2 0x2634 JUMPI RETURNDATASIZE PUSH1 0x0 DUP1 RETURNDATACOPY RETURNDATASIZE PUSH1 0x0 REVERT JUMPDEST POP POP POP POP PUSH1 0x40 MLOAD RETURNDATASIZE PUSH1 0x1F NOT PUSH1 0x1F DUP3 ADD AND DUP3 ADD DUP1 PUSH1 0x40 MSTORE POP DUP2 ADD SWAP1 PUSH2 0x2658 SWAP2 SWAP1 PUSH2 0x3514 JUMP JUMPDEST SWAP1 POP DUP1 DUP3 GT ISZERO PUSH2 0x2666 JUMPI DUP1 SWAP2 POP JUMPDEST DUP2 ISZERO PUSH2 0x26A5 JUMPI PUSH1 0x1 PUSH1 0x1 PUSH1 0xA0 SHL SUB DUP7 AND PUSH1 0x0 SWAP1 DUP2 MSTORE PUSH1 0x44 PUSH1 0x20 MSTORE PUSH1 0x40 DUP2 KECCAK256 SSTORE PUSH2 0x268E DUP7 PUSH2 0x2E9F JUMP JUMPDEST PUSH1 0x3D SLOAD PUSH2 0x26A5 SWAP1 PUSH1 0x1 PUSH1 0x1 PUSH1 0xA0 SHL SUB AND DUP7 DUP5 PUSH2 0x2A3E JUMP JUMPDEST POP POP POP POP POP POP JUMP JUMPDEST PUSH4 0x3B9ACA00 SWAP1 DIV SWAP1 JUMP JUMPDEST PUSH2 0x26C9 DUP3 PUSH1 0x1 PUSH1 0x1 PUSH1 0xA0 SHL SUB AND PUSH2 0x2EBE JUMP JUMPDEST PUSH2 0x26E5 JUMPI PUSH1 0x40 MLOAD PUSH3 0x461BCD PUSH1 0xE5 SHL DUP2 MSTORE PUSH1 0x4 ADD PUSH2 0x70F SWAP1 PUSH2 0x3C2E JUMP JUMPDEST PUSH1 0x0 PUSH1 0x60 DUP4 PUSH1 0x1 PUSH1 0x1 PUSH1 0xA0 SHL SUB AND DUP4 PUSH1 0x40 MLOAD PUSH2 0x2701 SWAP2 SWAP1 PUSH2 0x35FD JUMP JUMPDEST PUSH1 0x0 PUSH1 0x40 MLOAD DUP1 DUP4 SUB DUP2 PUSH1 0x0 DUP7 GAS CALL SWAP2 POP POP RETURNDATASIZE DUP1 PUSH1 0x0 DUP2 EQ PUSH2 0x273E JUMPI PUSH1 0x40 MLOAD SWAP2 POP PUSH1 0x1F NOT PUSH1 0x3F RETURNDATASIZE ADD AND DUP3 ADD PUSH1 0x40 MSTORE RETURNDATASIZE DUP3 MSTORE RETURNDATASIZE PUSH1 0x0 PUSH1 0x20 DUP5 ADD RETURNDATACOPY PUSH2 0x2743 JUMP JUMPDEST PUSH1 0x60 SWAP2 POP JUMPDEST POP SWAP2 POP SWAP2 POP DUP2 PUSH2 0x2765 JUMPI PUSH1 0x40 MLOAD PUSH3 0x461BCD PUSH1 0xE5 SHL DUP2 MSTORE PUSH1 0x4 ADD PUSH2 0x70F SWAP1 PUSH2 0x39CB JUMP JUMPDEST DUP1 MLOAD ISZERO PUSH2 0x279C JUMPI DUP1 DUP1 PUSH1 0x20 ADD SWAP1 MLOAD DUP2 ADD SWAP1 PUSH2 0x2780 SWAP2 SWAP1 PUSH2 0x344E JUMP JUMPDEST PUSH2 0x279C JUMPI PUSH1 0x40 MLOAD PUSH3 0x461BCD PUSH1 0xE5 SHL DUP2 MSTORE PUSH1 0x4 ADD PUSH2 0x70F SWAP1 PUSH2 0x3B74 JUMP JUMPDEST POP POP POP POP JUMP JUMPDEST PUSH1 0x3A SLOAD PUSH1 0x1 PUSH1 0x1 PUSH1 0xA0 SHL SUB AND PUSH2 0x27B7 JUMPI PUSH2 0x1B49 JUMP JUMPDEST PUSH1 0x1 PUSH1 0x1 PUSH1 0xA0 SHL SUB DUP4 AND ISZERO PUSH2 0x27CF JUMPI PUSH2 0x27CF DUP4 PUSH2 0x2EFA JUMP JUMPDEST PUSH1 0x1 PUSH1 0x1 PUSH1 0xA0 SHL SUB DUP3 AND ISZERO PUSH2 0x1B49 JUMPI PUSH2 0x1B49 DUP3 PUSH2 0x2EFA JUMP JUMPDEST PUSH1 0x3A SLOAD PUSH1 0x1 PUSH1 0x1 PUSH1 0xA0 SHL SUB AND PUSH2 0x27FC JUMPI PUSH2 0xEBE JUMP JUMPDEST PUSH1 0x42 SLOAD NUMBER GT ISZERO PUSH2 0xEBE JUMPI NUMBER PUSH1 0x42 SSTORE PUSH1 0x0 PUSH2 0x2814 PUSH2 0x6C0 JUMP JUMPDEST SWAP1 POP DUP1 PUSH2 0x2821 JUMPI POP PUSH2 0xEBE JUMP JUMPDEST PUSH1 0x40 DUP1 MLOAD PUSH1 0x1 DUP1 DUP3 MSTORE DUP2 DUP4 ADD SWAP1 SWAP3 MSTORE PUSH1 0x60 SWAP2 PUSH1 0x20 DUP1 DUP4 ADD SWAP1 DUP1 CALLDATASIZE DUP4 CALLDATACOPY POP POP PUSH1 0x3B SLOAD DUP3 MLOAD SWAP3 SWAP4 POP PUSH1 0x1 PUSH1 0x1 PUSH1 0xA0 SHL SUB AND SWAP2 DUP4 SWAP2 POP PUSH1 0x0 SWAP1 PUSH2 0x285D JUMPI INVALID JUMPDEST PUSH1 0x1 PUSH1 0x1 PUSH1 0xA0 SHL SUB SWAP3 DUP4 AND PUSH1 0x20 SWAP2 DUP3 MUL SWAP3 SWAP1 SWAP3 ADD ADD MSTORE PUSH1 0x3A SLOAD PUSH1 0x40 MLOAD PUSH32 0x8B599F2600000000000000000000000000000000000000000000000000000000 DUP2 MSTORE PUSH1 0x0 SWAP3 SWAP2 SWAP1 SWAP2 AND SWAP1 PUSH4 0x8B599F26 SWAP1 PUSH2 0x28BA SWAP1 DUP6 SWAP1 ADDRESS SWAP1 PUSH1 0x4 ADD PUSH2 0x374C JUMP JUMPDEST PUSH1 0x20 PUSH1 0x40 MLOAD DUP1 DUP4 SUB DUP2 DUP7 DUP1 EXTCODESIZE ISZERO DUP1 ISZERO PUSH2 0x28D2 JUMPI PUSH1 0x0 DUP1 REVERT JUMPDEST POP GAS STATICCALL ISZERO DUP1 ISZERO PUSH2 0x28E6 JUMPI RETURNDATASIZE PUSH1 0x0 DUP1 RETURNDATACOPY RETURNDATASIZE PUSH1 0x0 REVERT JUMPDEST POP POP POP POP PUSH1 0x40 MLOAD RETURNDATASIZE PUSH1 0x1F NOT PUSH1 0x1F DUP3 ADD AND DUP3 ADD DUP1 PUSH1 0x40 MSTORE POP DUP2 ADD SWAP1 PUSH2 0x290A SWAP2 SWAP1 PUSH2 0x3514 JUMP JUMPDEST SWAP1 POP PUSH1 0x0 PUSH2 0x2923 DUP3 PUSH1 0x40 SLOAD PUSH2 0x23D2 SWAP1 SWAP2 SWAP1 PUSH4 0xFFFFFFFF AND JUMP JUMPDEST SWAP1 POP PUSH1 0x0 PUSH2 0x293F PUSH2 0xE6B PUSH1 0x41 SLOAD DUP5 PUSH2 0x23F7 SWAP1 SWAP2 SWAP1 PUSH4 0xFFFFFFFF AND JUMP JUMPDEST SWAP1 POP PUSH2 0x2950 PUSH2 0xE9D PUSH2 0xE96 DUP8 PUSH2 0x2439 JUMP JUMPDEST PUSH1 0x3F SSTORE POP PUSH1 0x41 SSTORE POP POP POP JUMP JUMPDEST PUSH1 0x1 PUSH1 0x1 PUSH1 0xA0 SHL SUB DUP3 AND PUSH2 0x2982 JUMPI PUSH1 0x40 MLOAD PUSH3 0x461BCD PUSH1 0xE5 SHL DUP2 MSTORE PUSH1 0x4 ADD PUSH2 0x70F SWAP1 PUSH2 0x3A5D JUMP JUMPDEST PUSH2 0x298E DUP3 PUSH1 0x0 DUP4 PUSH2 0x27A2 JUMP JUMPDEST PUSH2 0x29CB DUP2 PUSH1 0x40 MLOAD DUP1 PUSH1 0x60 ADD PUSH1 0x40 MSTORE DUP1 PUSH1 0x22 DUP2 MSTORE PUSH1 0x20 ADD PUSH2 0x3D17 PUSH1 0x22 SWAP2 CODECOPY PUSH1 0x1 PUSH1 0x1 PUSH1 0xA0 SHL SUB DUP6 AND PUSH1 0x0 SWAP1 DUP2 MSTORE PUSH1 0x34 PUSH1 0x20 MSTORE PUSH1 0x40 SWAP1 KECCAK256 SLOAD SWAP2 SWAP1 PUSH2 0x1F98 JUMP JUMPDEST PUSH1 0x1 PUSH1 0x1 PUSH1 0xA0 SHL SUB DUP4 AND PUSH1 0x0 SWAP1 DUP2 MSTORE PUSH1 0x34 PUSH1 0x20 MSTORE PUSH1 0x40 SWAP1 KECCAK256 SSTORE PUSH1 0x36 SLOAD PUSH2 0x29F1 SWAP1 DUP3 PUSH2 0x23F7 JUMP JUMPDEST PUSH1 0x36 SSTORE PUSH1 0x40 MLOAD PUSH1 0x0 SWAP1 PUSH1 0x1 PUSH1 0x1 PUSH1 0xA0 SHL SUB DUP5 AND SWAP1 PUSH32 0xDDF252AD1BE2C89B69C2B068FC378DAA952BA7F163C4A11628F55A4DF523B3EF SWAP1 PUSH2 0x2A32 SWAP1 DUP6 SWAP1 PUSH2 0x37B4 JUMP JUMPDEST PUSH1 0x40 MLOAD DUP1 SWAP2 SUB SWAP1 LOG3 POP POP JUMP JUMPDEST PUSH2 0x1B49 DUP4 PUSH4 0xA9059CBB PUSH1 0xE0 SHL DUP5 DUP5 PUSH1 0x40 MLOAD PUSH1 0x24 ADD PUSH2 0x1E1F SWAP3 SWAP2 SWAP1 PUSH2 0x36E3 JUMP JUMPDEST PUSH2 0x279C DUP5 PUSH4 0x23B872DD PUSH1 0xE0 SHL DUP6 DUP6 DUP6 PUSH1 0x40 MLOAD PUSH1 0x24 ADD PUSH2 0x1E1F SWAP4 SWAP3 SWAP2 SWAP1 PUSH2 0x367D JUMP JUMPDEST PUSH1 0x1 PUSH1 0x1 PUSH1 0xA0 SHL SUB DUP3 AND PUSH2 0x2AA4 JUMPI PUSH1 0x40 MLOAD PUSH3 0x461BCD PUSH1 0xE5 SHL DUP2 MSTORE PUSH1 0x4 ADD PUSH2 0x70F SWAP1 PUSH2 0x3C65 JUMP JUMPDEST PUSH2 0x2AB0 PUSH1 0x0 DUP4 DUP4 PUSH2 0x27A2 JUMP JUMPDEST PUSH1 0x36 SLOAD PUSH2 0x2ABD SWAP1 DUP3 PUSH2 0x23D2 JUMP JUMPDEST PUSH1 0x36 SSTORE PUSH1 0x1 PUSH1 0x1 PUSH1 0xA0 SHL SUB DUP3 AND PUSH1 0x0 SWAP1 DUP2 MSTORE PUSH1 0x34 PUSH1 0x20 MSTORE PUSH1 0x40 SWAP1 KECCAK256 SLOAD PUSH2 0x2AE3 SWAP1 DUP3 PUSH2 0x23D2 JUMP JUMPDEST PUSH1 0x1 PUSH1 0x1 PUSH1 0xA0 SHL SUB DUP4 AND PUSH1 0x0 DUP2 DUP2 MSTORE PUSH1 0x34 PUSH1 0x20 MSTORE PUSH1 0x40 DUP1 DUP3 KECCAK256 SWAP4 SWAP1 SWAP4 SSTORE SWAP2 MLOAD SWAP1 SWAP2 SWAP1 PUSH32 0xDDF252AD1BE2C89B69C2B068FC378DAA952BA7F163C4A11628F55A4DF523B3EF SWAP1 PUSH2 0x2A32 SWAP1 DUP6 SWAP1 PUSH2 0x37B4 JUMP JUMPDEST PUSH1 0x3A SLOAD PUSH1 0x0 SWAP1 PUSH1 0x1 PUSH1 0x1 PUSH1 0xA0 SHL SUB AND PUSH2 0x2B4D JUMPI POP PUSH1 0x0 PUSH2 0xB8F JUMP JUMPDEST DUP3 PUSH2 0x2B5A JUMPI POP PUSH1 0x0 PUSH2 0xB8F JUMP JUMPDEST PUSH1 0x0 PUSH2 0x2B65 DUP5 PUSH2 0x2439 JUMP JUMPDEST SWAP1 POP PUSH1 0x0 PUSH2 0x2B71 PUSH2 0x6C0 JUMP JUMPDEST PUSH1 0x3F SLOAD SWAP1 SWAP2 POP DUP2 ISZERO DUP1 ISZERO SWAP1 PUSH2 0x2B83 JUMPI POP DUP5 JUMPDEST ISZERO PUSH2 0x2CC5 JUMPI PUSH1 0x40 DUP1 MLOAD PUSH1 0x1 DUP1 DUP3 MSTORE DUP2 DUP4 ADD SWAP1 SWAP3 MSTORE PUSH1 0x60 SWAP2 PUSH1 0x20 DUP1 DUP4 ADD SWAP1 DUP1 CALLDATASIZE DUP4 CALLDATACOPY POP POP PUSH1 0x3B SLOAD DUP3 MLOAD SWAP3 SWAP4 POP PUSH1 0x1 PUSH1 0x1 PUSH1 0xA0 SHL SUB AND SWAP2 DUP4 SWAP2 POP PUSH1 0x0 SWAP1 PUSH2 0x2BC4 JUMPI INVALID JUMPDEST PUSH1 0x1 PUSH1 0x1 PUSH1 0xA0 SHL SUB SWAP3 DUP4 AND PUSH1 0x20 SWAP2 DUP3 MUL SWAP3 SWAP1 SWAP3 ADD ADD MSTORE PUSH1 0x3A SLOAD PUSH1 0x40 MLOAD PUSH32 0x8B599F2600000000000000000000000000000000000000000000000000000000 DUP2 MSTORE PUSH1 0x0 SWAP3 SWAP2 SWAP1 SWAP2 AND SWAP1 PUSH4 0x8B599F26 SWAP1 PUSH2 0x2C21 SWAP1 DUP6 SWAP1 ADDRESS SWAP1 PUSH1 0x4 ADD PUSH2 0x374C JUMP JUMPDEST PUSH1 0x20 PUSH1 0x40 MLOAD DUP1 DUP4 SUB DUP2 DUP7 DUP1 EXTCODESIZE ISZERO DUP1 ISZERO PUSH2 0x2C39 JUMPI PUSH1 0x0 DUP1 REVERT JUMPDEST POP GAS STATICCALL ISZERO DUP1 ISZERO PUSH2 0x2C4D JUMPI RETURNDATASIZE PUSH1 0x0 DUP1 RETURNDATACOPY RETURNDATASIZE PUSH1 0x0 REVERT JUMPDEST POP POP POP POP PUSH1 0x40 MLOAD RETURNDATASIZE PUSH1 0x1F NOT PUSH1 0x1F DUP3 ADD AND DUP3 ADD DUP1 PUSH1 0x40 MSTORE POP DUP2 ADD SWAP1 PUSH2 0x2C71 SWAP2 SWAP1 PUSH2 0x3514 JUMP JUMPDEST SWAP1 POP PUSH1 0x0 PUSH2 0x2C8A DUP3 PUSH1 0x40 SLOAD PUSH2 0x23D2 SWAP1 SWAP2 SWAP1 PUSH4 0xFFFFFFFF AND JUMP JUMPDEST SWAP1 POP PUSH1 0x0 PUSH2 0x2CA6 PUSH2 0xE6B PUSH1 0x41 SLOAD DUP5 PUSH2 0x23F7 SWAP1 SWAP2 SWAP1 PUSH4 0xFFFFFFFF AND JUMP JUMPDEST SWAP1 POP PUSH2 0x2CBE PUSH2 0x2CB7 PUSH2 0xE96 DUP9 PUSH2 0x2439 JUMP JUMPDEST DUP7 SWAP1 PUSH2 0x23D2 JUMP JUMPDEST SWAP5 POP POP POP POP POP JUMPDEST PUSH1 0x1 PUSH1 0x1 PUSH1 0xA0 SHL SUB DUP8 AND PUSH1 0x0 SWAP1 DUP2 MSTORE PUSH1 0x43 PUSH1 0x20 MSTORE PUSH1 0x40 SWAP1 KECCAK256 SLOAD PUSH2 0x2CF4 SWAP1 PUSH2 0x2CED SWAP1 DUP4 SWAP1 PUSH2 0x23F7 JUMP JUMPDEST DUP5 SWAP1 PUSH2 0x2F65 JUMP JUMPDEST SWAP8 SWAP7 POP POP POP POP POP POP POP JUMP JUMPDEST PUSH1 0x40 DUP1 MLOAD DUP1 DUP3 ADD SWAP1 SWAP2 MSTORE PUSH1 0x2 DUP2 MSTORE PUSH32 0x3530000000000000000000000000000000000000000000000000000000000000 PUSH1 0x20 DUP3 ADD MSTORE PUSH1 0x0 SWAP1 DUP3 PUSH2 0x2D54 JUMPI PUSH1 0x40 MLOAD PUSH3 0x461BCD PUSH1 0xE5 SHL DUP2 MSTORE PUSH1 0x4 ADD PUSH2 0x70F SWAP2 SWAP1 PUSH2 0x38C7 JUMP JUMPDEST POP PUSH1 0x40 DUP1 MLOAD DUP1 DUP3 ADD SWAP1 SWAP2 MSTORE PUSH1 0x2 DUP1 DUP3 MSTORE PUSH32 0x3438000000000000000000000000000000000000000000000000000000000000 PUSH1 0x20 DUP4 ADD MSTORE DUP4 DIV SWAP1 PUSH12 0x33B2E3C9FD0803CE8000000 DUP3 NOT DIV DUP6 GT ISZERO PUSH2 0x2DBD JUMPI PUSH1 0x40 MLOAD PUSH3 0x461BCD PUSH1 0xE5 SHL DUP2 MSTORE PUSH1 0x4 ADD PUSH2 0x70F SWAP2 SWAP1 PUSH2 0x38C7 JUMP JUMPDEST POP DUP3 DUP2 PUSH12 0x33B2E3C9FD0803CE8000000 DUP7 MUL ADD DUP2 PUSH2 0x2DD7 JUMPI INVALID JUMPDEST DIV SWAP5 SWAP4 POP POP POP POP JUMP JUMPDEST PUSH1 0x0 DUP3 ISZERO DUP1 PUSH2 0x2DED JUMPI POP DUP2 ISZERO JUMPDEST ISZERO PUSH2 0x2DFA JUMPI POP PUSH1 0x0 PUSH2 0x6AB JUMP JUMPDEST DUP2 PUSH32 0xFFFFFFFFFFFFFFFFFFFFFFFFFFFFFFFFFFFFFFFFFE6268E1B017BFE18BFFFFFF DUP2 PUSH2 0x2E23 JUMPI INVALID JUMPDEST DIV DUP4 GT ISZERO PUSH1 0x40 MLOAD DUP1 PUSH1 0x40 ADD PUSH1 0x40 MSTORE DUP1 PUSH1 0x2 DUP2 MSTORE PUSH1 0x20 ADD PUSH32 0x3438000000000000000000000000000000000000000000000000000000000000 DUP2 MSTORE POP SWAP1 PUSH2 0x2E7B JUMPI PUSH1 0x40 MLOAD PUSH3 0x461BCD PUSH1 0xE5 SHL DUP2 MSTORE PUSH1 0x4 ADD PUSH2 0x70F SWAP2 SWAP1 PUSH2 0x38C7 JUMP JUMPDEST POP PUSH12 0x33B2E3C9FD0803CE8000000 DUP4 DUP4 MUL PUSH12 0x19D971E4FE8401E74000000 ADD PUSH2 0x257C JUMP JUMPDEST PUSH1 0x3F SLOAD PUSH1 0x1 PUSH1 0x1 PUSH1 0xA0 SHL SUB SWAP1 SWAP2 AND PUSH1 0x0 SWAP1 DUP2 MSTORE PUSH1 0x43 PUSH1 0x20 MSTORE PUSH1 0x40 SWAP1 KECCAK256 SSTORE JUMP JUMPDEST PUSH1 0x0 DUP2 EXTCODEHASH PUSH32 0xC5D2460186F7233C927E7DB2DCC703C0E500B653CA82273B7BFAD8045D85A470 DUP2 DUP2 EQ DUP1 ISZERO SWAP1 PUSH2 0x2EF2 JUMPI POP DUP2 ISZERO ISZERO JUMPDEST SWAP5 SWAP4 POP POP POP POP JUMP JUMPDEST PUSH1 0x0 PUSH2 0x2F05 DUP3 PUSH2 0x1200 JUMP JUMPDEST SWAP1 POP DUP1 ISZERO PUSH2 0x2F5C JUMPI PUSH1 0x0 PUSH2 0x2F1B DUP4 DUP4 PUSH1 0x0 PUSH2 0x2B32 JUMP JUMPDEST PUSH1 0x1 PUSH1 0x1 PUSH1 0xA0 SHL SUB DUP5 AND PUSH1 0x0 SWAP1 DUP2 MSTORE PUSH1 0x44 PUSH1 0x20 MSTORE PUSH1 0x40 SWAP1 KECCAK256 SLOAD SWAP1 SWAP2 POP PUSH2 0x2F41 SWAP1 DUP3 PUSH2 0x23D2 JUMP JUMPDEST PUSH1 0x1 PUSH1 0x1 PUSH1 0xA0 SHL SUB DUP5 AND PUSH1 0x0 SWAP1 DUP2 MSTORE PUSH1 0x44 PUSH1 0x20 MSTORE PUSH1 0x40 SWAP1 KECCAK256 SSTORE POP JUMPDEST PUSH2 0xF2D DUP3 PUSH2 0x2E9F JUMP JUMPDEST PUSH1 0x0 DUP3 ISZERO DUP1 PUSH2 0x2F72 JUMPI POP DUP2 ISZERO JUMPDEST ISZERO PUSH2 0x2F7F JUMPI POP PUSH1 0x0 PUSH2 0x6AB JUMP JUMPDEST DUP2 PUSH1 0x0 NOT DUP2 PUSH2 0x2F8A JUMPI INVALID JUMPDEST DIV DUP4 GT ISZERO PUSH1 0x40 MLOAD DUP1 PUSH1 0x40 ADD PUSH1 0x40 MSTORE DUP1 PUSH1 0x2 DUP2 MSTORE PUSH1 0x20 ADD PUSH32 0x3438000000000000000000000000000000000000000000000000000000000000 DUP2 MSTORE POP SWAP1 PUSH2 0x2FE2 JUMPI PUSH1 0x40 MLOAD PUSH3 0x461BCD PUSH1 0xE5 SHL DUP2 MSTORE PUSH1 0x4 ADD PUSH2 0x70F SWAP2 SWAP1 PUSH2 0x38C7 JUMP JUMPDEST POP PUSH12 0x33B2E3C9FD0803CE8000000 DUP4 DUP4 MUL PUSH2 0x257C JUMP JUMPDEST DUP3 DUP1 SLOAD PUSH1 0x1 DUP2 PUSH1 0x1 AND ISZERO PUSH2 0x100 MUL SUB AND PUSH1 0x2 SWAP1 DIV SWAP1 PUSH1 0x0 MSTORE PUSH1 0x20 PUSH1 0x0 KECCAK256 SWAP1 PUSH1 0x1F ADD PUSH1 0x20 SWAP1 DIV DUP2 ADD SWAP3 DUP3 PUSH1 0x1F LT PUSH2 0x3057 JUMPI DUP3 DUP1 ADD PUSH32 0xFFFFFFFFFFFFFFFFFFFFFFFFFFFFFFFFFFFFFFFFFFFFFFFFFFFFFFFFFFFFFF00 DUP3 CALLDATALOAD AND OR DUP6 SSTORE PUSH2 0x3084 JUMP JUMPDEST DUP3 DUP1 ADD PUSH1 0x1 ADD DUP6 SSTORE DUP3 ISZERO PUSH2 0x3084 JUMPI SWAP2 DUP3 ADD JUMPDEST DUP3 DUP2 GT ISZERO PUSH2 0x3084 JUMPI DUP3 CALLDATALOAD DUP3 SSTORE SWAP2 PUSH1 0x20 ADD SWAP2 SWAP1 PUSH1 0x1 ADD SWAP1 PUSH2 0x3069 JUMP JUMPDEST POP PUSH2 0x3090 SWAP3 SWAP2 POP PUSH2 0x3094 JUMP JUMPDEST POP SWAP1 JUMP JUMPDEST JUMPDEST DUP1 DUP3 GT ISZERO PUSH2 0x3090 JUMPI PUSH1 0x0 DUP2 SSTORE PUSH1 0x1 ADD PUSH2 0x3095 JUMP JUMPDEST PUSH1 0x0 DUP1 DUP4 PUSH1 0x1F DUP5 ADD SLT PUSH2 0x30BA JUMPI DUP2 DUP3 REVERT JUMPDEST POP DUP2 CALLDATALOAD PUSH8 0xFFFFFFFFFFFFFFFF DUP2 GT ISZERO PUSH2 0x30D1 JUMPI DUP2 DUP3 REVERT JUMPDEST PUSH1 0x20 DUP4 ADD SWAP2 POP DUP4 PUSH1 0x20 DUP3 DUP6 ADD ADD GT ISZERO PUSH2 0x30E9 JUMPI PUSH1 0x0 DUP1 REVERT JUMPDEST SWAP3 POP SWAP3 SWAP1 POP JUMP JUMPDEST PUSH1 0x0 PUSH1 0x60 DUP3 DUP5 SUB SLT ISZERO PUSH2 0x3101 JUMPI DUP1 DUP2 REVERT JUMPDEST POP SWAP2 SWAP1 POP JUMP JUMPDEST PUSH1 0x0 PUSH1 0x20 DUP3 DUP5 SUB SLT ISZERO PUSH2 0x3118 JUMPI DUP1 DUP2 REVERT JUMPDEST DUP2 CALLDATALOAD PUSH2 0xB8F DUP2 PUSH2 0x3CE4 JUMP JUMPDEST PUSH1 0x0 PUSH1 0x20 DUP3 DUP5 SUB SLT ISZERO PUSH2 0x3134 JUMPI DUP1 DUP2 REVERT JUMPDEST DUP2 MLOAD PUSH2 0xB8F DUP2 PUSH2 0x3CE4 JUMP JUMPDEST PUSH1 0x0 DUP1 PUSH1 0x40 DUP4 DUP6 SUB SLT ISZERO PUSH2 0x3151 JUMPI DUP1 DUP2 REVERT JUMPDEST DUP3 CALLDATALOAD PUSH2 0x315C DUP2 PUSH2 0x3CE4 JUMP JUMPDEST SWAP2 POP PUSH1 0x20 DUP4 ADD CALLDATALOAD PUSH2 0x316C DUP2 PUSH2 0x3CE4 JUMP JUMPDEST DUP1 SWAP2 POP POP SWAP3 POP SWAP3 SWAP1 POP JUMP JUMPDEST PUSH1 0x0 DUP1 PUSH1 0x0 PUSH1 0x60 DUP5 DUP7 SUB SLT ISZERO PUSH2 0x318B JUMPI DUP1 DUP2 REVERT JUMPDEST DUP4 CALLDATALOAD PUSH2 0x3196 DUP2 PUSH2 0x3CE4 JUMP JUMPDEST SWAP3 POP PUSH1 0x20 DUP5 ADD CALLDATALOAD PUSH2 0x31A6 DUP2 PUSH2 0x3CE4 JUMP JUMPDEST SWAP2 POP PUSH1 0x40 DUP5 ADD CALLDATALOAD PUSH2 0x31B6 DUP2 PUSH2 0x3CF9 JUMP JUMPDEST DUP1 SWAP2 POP POP SWAP3 POP SWAP3 POP SWAP3 JUMP JUMPDEST PUSH1 0x0 DUP1 PUSH1 0x0 PUSH1 0x60 DUP5 DUP7 SUB SLT ISZERO PUSH2 0x31D5 JUMPI DUP3 DUP4 REVERT JUMPDEST DUP4 CALLDATALOAD PUSH2 0x31E0 DUP2 PUSH2 0x3CE4 JUMP JUMPDEST SWAP3 POP PUSH1 0x20 DUP5 ADD CALLDATALOAD PUSH2 0x31F0 DUP2 PUSH2 0x3CE4 JUMP JUMPDEST SWAP3 SWAP6 SWAP3 SWAP5 POP POP POP PUSH1 0x40 SWAP2 SWAP1 SWAP2 ADD CALLDATALOAD SWAP1 JUMP JUMPDEST PUSH1 0x0 DUP1 PUSH1 0x0 DUP1 PUSH1 0x0 DUP1 PUSH1 0x0 PUSH2 0x120 DUP9 DUP11 SUB SLT ISZERO PUSH2 0x321C JUMPI DUP3 DUP4 REVERT JUMPDEST DUP8 CALLDATALOAD PUSH2 0x3227 DUP2 PUSH2 0x3CE4 JUMP JUMPDEST SWAP7 POP PUSH1 0x20 DUP9 ADD CALLDATALOAD PUSH2 0x3237 DUP2 PUSH2 0x3CE4 JUMP JUMPDEST SWAP6 POP PUSH1 0x40 DUP9 ADD CALLDATALOAD SWAP5 POP PUSH1 0x60 DUP9 ADD CALLDATALOAD PUSH2 0xFFFF DUP2 AND DUP2 EQ PUSH2 0x3254 JUMPI DUP4 DUP5 REVERT JUMPDEST SWAP4 POP PUSH1 0x80 DUP9 ADD CALLDATALOAD PUSH2 0x3264 DUP2 PUSH2 0x3CF9 JUMP JUMPDEST SWAP3 POP PUSH1 0xA0 DUP9 ADD CALLDATALOAD SWAP2 POP PUSH2 0x327A DUP10 PUSH1 0xC0 DUP11 ADD PUSH2 0x30F0 JUMP JUMPDEST SWAP1 POP SWAP3 SWAP6 SWAP9 SWAP2 SWAP5 SWAP8 POP SWAP3 SWAP6 POP JUMP JUMPDEST PUSH1 0x0 DUP1 PUSH1 0x0 DUP1 PUSH1 0x0 DUP1 PUSH1 0x0 PUSH2 0x120 DUP9 DUP11 SUB SLT ISZERO PUSH2 0x32A3 JUMPI DUP3 DUP4 REVERT JUMPDEST DUP8 CALLDATALOAD PUSH2 0x32AE DUP2 PUSH2 0x3CE4 JUMP JUMPDEST SWAP7 POP PUSH1 0x20 DUP9 ADD CALLDATALOAD PUSH2 0x32BE DUP2 PUSH2 0x3CE4 JUMP JUMPDEST SWAP6 POP PUSH1 0x40 DUP9 ADD CALLDATALOAD SWAP5 POP PUSH1 0x60 DUP9 ADD CALLDATALOAD SWAP4 POP PUSH1 0x80 DUP9 ADD CALLDATALOAD PUSH2 0x3264 DUP2 PUSH2 0x3CF9 JUMP JUMPDEST PUSH1 0x0 DUP1 PUSH1 0x0 DUP1 PUSH1 0x0 DUP1 PUSH1 0x0 PUSH1 0xE0 DUP9 DUP11 SUB SLT ISZERO PUSH2 0x32F6 JUMPI DUP1 DUP2 REVERT JUMPDEST DUP8 CALLDATALOAD PUSH2 0x3301 DUP2 PUSH2 0x3CE4 JUMP JUMPDEST SWAP7 POP PUSH1 0x20 DUP9 ADD CALLDATALOAD PUSH2 0x3311 DUP2 PUSH2 0x3CE4 JUMP JUMPDEST SWAP6 POP PUSH1 0x40 DUP9 ADD CALLDATALOAD SWAP5 POP PUSH1 0x60 DUP9 ADD CALLDATALOAD SWAP4 POP PUSH1 0x80 DUP9 ADD CALLDATALOAD PUSH2 0x332F DUP2 PUSH2 0x3D07 JUMP JUMPDEST SWAP7 SWAP10 SWAP6 SWAP9 POP SWAP4 SWAP7 SWAP3 SWAP6 SWAP5 PUSH1 0xA0 DUP5 ADD CALLDATALOAD SWAP5 POP PUSH1 0xC0 SWAP1 SWAP4 ADD CALLDATALOAD SWAP3 SWAP2 POP POP JUMP JUMPDEST PUSH1 0x0 DUP1 PUSH1 0x40 DUP4 DUP6 SUB SLT ISZERO PUSH2 0x335E JUMPI DUP2 DUP3 REVERT JUMPDEST DUP3 CALLDATALOAD PUSH2 0x3369 DUP2 PUSH2 0x3CE4 JUMP JUMPDEST SWAP2 POP PUSH1 0x20 DUP4 ADD CALLDATALOAD PUSH2 0x316C DUP2 PUSH2 0x3CF9 JUMP JUMPDEST PUSH1 0x0 DUP1 PUSH1 0x40 DUP4 DUP6 SUB SLT ISZERO PUSH2 0x338B JUMPI DUP2 DUP3 REVERT JUMPDEST DUP3 CALLDATALOAD PUSH2 0x3396 DUP2 PUSH2 0x3CE4 JUMP JUMPDEST SWAP5 PUSH1 0x20 SWAP4 SWAP1 SWAP4 ADD CALLDATALOAD SWAP4 POP POP POP JUMP JUMPDEST PUSH1 0x0 DUP1 PUSH1 0x0 PUSH1 0x60 DUP5 DUP7 SUB SLT ISZERO PUSH2 0x33B8 JUMPI DUP1 DUP2 REVERT JUMPDEST DUP4 CALLDATALOAD PUSH2 0x33C3 DUP2 PUSH2 0x3CE4 JUMP JUMPDEST SWAP3 POP PUSH1 0x20 DUP5 ADD CALLDATALOAD SWAP2 POP PUSH1 0x40 DUP5 ADD CALLDATALOAD PUSH2 0x31B6 DUP2 PUSH2 0x3CF9 JUMP JUMPDEST PUSH1 0x0 DUP1 PUSH1 0x0 DUP1 PUSH1 0x80 DUP6 DUP8 SUB SLT ISZERO PUSH2 0x33EF JUMPI DUP2 DUP3 REVERT JUMPDEST DUP5 CALLDATALOAD PUSH2 0x33FA DUP2 PUSH2 0x3CE4 JUMP JUMPDEST SWAP4 POP PUSH1 0x20 DUP6 ADD CALLDATALOAD SWAP3 POP PUSH1 0x40 DUP6 ADD CALLDATALOAD PUSH2 0xFFFF DUP2 AND DUP2 EQ PUSH2 0x3417 JUMPI DUP3 DUP4 REVERT JUMPDEST SWAP2 POP PUSH1 0x60 DUP6 ADD CALLDATALOAD PUSH2 0x3427 DUP2 PUSH2 0x3CF9 JUMP JUMPDEST SWAP4 SWAP7 SWAP3 SWAP6 POP SWAP1 SWAP4 POP POP JUMP JUMPDEST PUSH1 0x0 PUSH1 0x20 DUP3 DUP5 SUB SLT ISZERO PUSH2 0x3443 JUMPI DUP1 DUP2 REVERT JUMPDEST DUP2 CALLDATALOAD PUSH2 0xB8F DUP2 PUSH2 0x3CF9 JUMP JUMPDEST PUSH1 0x0 PUSH1 0x20 DUP3 DUP5 SUB SLT ISZERO PUSH2 0x345F JUMPI DUP1 DUP2 REVERT JUMPDEST DUP2 MLOAD PUSH2 0xB8F DUP2 PUSH2 0x3CF9 JUMP JUMPDEST PUSH1 0x0 DUP1 PUSH1 0x0 DUP1 PUSH1 0x0 DUP1 PUSH1 0x80 DUP8 DUP10 SUB SLT ISZERO PUSH2 0x3482 JUMPI DUP4 DUP5 REVERT JUMPDEST DUP7 CALLDATALOAD PUSH2 0x348D DUP2 PUSH2 0x3CE4 JUMP JUMPDEST SWAP6 POP PUSH1 0x20 DUP8 ADD CALLDATALOAD PUSH2 0x349D DUP2 PUSH2 0x3CE4 JUMP JUMPDEST SWAP5 POP PUSH1 0x40 DUP8 ADD CALLDATALOAD PUSH8 0xFFFFFFFFFFFFFFFF DUP1 DUP3 GT ISZERO PUSH2 0x34B9 JUMPI DUP6 DUP7 REVERT JUMPDEST PUSH2 0x34C5 DUP11 DUP4 DUP12 ADD PUSH2 0x30A9 JUMP JUMPDEST SWAP1 SWAP7 POP SWAP5 POP PUSH1 0x60 DUP10 ADD CALLDATALOAD SWAP2 POP DUP1 DUP3 GT ISZERO PUSH2 0x34DD JUMPI DUP4 DUP5 REVERT JUMPDEST POP PUSH2 0x34EA DUP10 DUP3 DUP11 ADD PUSH2 0x30A9 JUMP JUMPDEST SWAP8 SWAP11 SWAP7 SWAP10 POP SWAP5 SWAP8 POP SWAP3 SWAP6 SWAP4 SWAP5 SWAP3 POP POP POP JUMP JUMPDEST PUSH1 0x0 PUSH1 0x20 DUP3 DUP5 SUB SLT ISZERO PUSH2 0x350D JUMPI DUP1 DUP2 REVERT JUMPDEST POP CALLDATALOAD SWAP2 SWAP1 POP JUMP JUMPDEST PUSH1 0x0 PUSH1 0x20 DUP3 DUP5 SUB SLT ISZERO PUSH2 0x3525 JUMPI DUP1 DUP2 REVERT JUMPDEST POP MLOAD SWAP2 SWAP1 POP JUMP JUMPDEST PUSH1 0x0 PUSH1 0x20 DUP3 DUP5 SUB SLT ISZERO PUSH2 0x353D JUMPI DUP1 DUP2 REVERT JUMPDEST DUP2 CALLDATALOAD PUSH2 0xB8F DUP2 PUSH2 0x3D07 JUMP JUMPDEST PUSH1 0x0 PUSH1 0x20 DUP3 DUP5 SUB SLT ISZERO PUSH2 0x3559 JUMPI DUP1 DUP2 REVERT JUMPDEST DUP2 MLOAD PUSH2 0xB8F DUP2 PUSH2 0x3D07 JUMP JUMPDEST PUSH1 0x0 DUP2 MLOAD DUP1 DUP5 MSTORE PUSH1 0x20 DUP1 DUP6 ADD SWAP5 POP DUP1 DUP5 ADD DUP4 JUMPDEST DUP4 DUP2 LT ISZERO PUSH2 0x359C JUMPI DUP2 MLOAD PUSH1 0x1 PUSH1 0x1 PUSH1 0xA0 SHL SUB AND DUP8 MSTORE SWAP6 DUP3 ADD SWAP6 SWAP1 DUP3 ADD SWAP1 PUSH1 0x1 ADD PUSH2 0x3577 JUMP JUMPDEST POP SWAP5 SWAP6 SWAP5 POP POP POP POP POP JUMP JUMPDEST PUSH1 0x0 DUP2 MLOAD DUP1 DUP5 MSTORE PUSH2 0x35BF DUP2 PUSH1 0x20 DUP7 ADD PUSH1 0x20 DUP7 ADD PUSH2 0x3CB8 JUMP JUMPDEST PUSH1 0x1F ADD PUSH1 0x1F NOT AND SWAP3 SWAP1 SWAP3 ADD PUSH1 0x20 ADD SWAP3 SWAP2 POP POP JUMP JUMPDEST PUSH1 0x0 DUP3 DUP5 MSTORE DUP3 DUP3 PUSH1 0x20 DUP7 ADD CALLDATACOPY DUP1 PUSH1 0x20 DUP5 DUP7 ADD ADD MSTORE PUSH1 0x20 PUSH1 0x1F NOT PUSH1 0x1F DUP6 ADD AND DUP6 ADD ADD SWAP1 POP SWAP4 SWAP3 POP POP POP JUMP JUMPDEST PUSH1 0x0 DUP3 MLOAD PUSH2 0x360F DUP2 DUP5 PUSH1 0x20 DUP8 ADD PUSH2 0x3CB8 JUMP JUMPDEST SWAP2 SWAP1 SWAP2 ADD SWAP3 SWAP2 POP POP JUMP JUMPDEST PUSH32 0x1901000000000000000000000000000000000000000000000000000000000000 DUP2 MSTORE PUSH1 0x2 DUP2 ADD SWAP3 SWAP1 SWAP3 MSTORE PUSH1 0x22 DUP3 ADD MSTORE PUSH1 0x42 ADD SWAP1 JUMP JUMPDEST PUSH1 0x1 PUSH1 0x1 PUSH1 0xA0 SHL SUB SWAP2 SWAP1 SWAP2 AND DUP2 MSTORE PUSH1 0x20 ADD SWAP1 JUMP JUMPDEST PUSH1 0x1 PUSH1 0x1 PUSH1 0xA0 SHL SUB SWAP3 DUP4 AND DUP2 MSTORE SWAP2 AND PUSH1 0x20 DUP3 ADD MSTORE PUSH1 0x40 ADD SWAP1 JUMP JUMPDEST PUSH1 0x1 PUSH1 0x1 PUSH1 0xA0 SHL SUB SWAP4 DUP5 AND DUP2 MSTORE SWAP2 SWAP1 SWAP3 AND PUSH1 0x20 DUP3 ADD MSTORE PUSH1 0x40 DUP2 ADD SWAP2 SWAP1 SWAP2 MSTORE PUSH1 0x60 ADD SWAP1 JUMP JUMPDEST PUSH1 0x0 PUSH1 0x1 PUSH1 0x1 PUSH1 0xA0 SHL SUB DUP8 AND DUP3 MSTORE PUSH1 0x60 PUSH1 0x20 DUP4 ADD MSTORE PUSH2 0x36C4 PUSH1 0x60 DUP4 ADD DUP7 DUP9 PUSH2 0x35D3 JUMP JUMPDEST DUP3 DUP2 SUB PUSH1 0x40 DUP5 ADD MSTORE PUSH2 0x36D7 DUP2 DUP6 DUP8 PUSH2 0x35D3 JUMP JUMPDEST SWAP9 SWAP8 POP POP POP POP POP POP POP POP JUMP JUMPDEST PUSH1 0x1 PUSH1 0x1 PUSH1 0xA0 SHL SUB SWAP3 SWAP1 SWAP3 AND DUP3 MSTORE PUSH1 0x20 DUP3 ADD MSTORE PUSH1 0x40 ADD SWAP1 JUMP JUMPDEST PUSH1 0x1 PUSH1 0x1 PUSH1 0xA0 SHL SUB SWAP4 DUP5 AND DUP2 MSTORE PUSH1 0x20 DUP2 ADD SWAP3 SWAP1 SWAP3 MSTORE SWAP1 SWAP2 AND PUSH1 0x40 DUP3 ADD MSTORE PUSH1 0x60 ADD SWAP1 JUMP JUMPDEST PUSH1 0x1 PUSH1 0x1 PUSH1 0xA0 SHL SUB SWAP5 DUP6 AND DUP2 MSTORE PUSH1 0x20 DUP2 ADD SWAP4 SWAP1 SWAP4 MSTORE SWAP3 AND PUSH1 0x40 DUP3 ADD MSTORE PUSH2 0xFFFF SWAP1 SWAP2 AND PUSH1 0x60 DUP3 ADD MSTORE PUSH1 0x80 ADD SWAP1 JUMP JUMPDEST PUSH1 0x0 PUSH1 0x40 DUP3 MSTORE PUSH2 0x375F PUSH1 0x40 DUP4 ADD DUP6 PUSH2 0x3564 JUMP JUMPDEST SWAP1 POP PUSH1 0x1 PUSH1 0x1 PUSH1 0xA0 SHL SUB DUP4 AND PUSH1 0x20 DUP4 ADD MSTORE SWAP4 SWAP3 POP POP POP JUMP JUMPDEST PUSH1 0x0 PUSH1 0x60 DUP3 MSTORE PUSH2 0x378A PUSH1 0x60 DUP4 ADD DUP7 PUSH2 0x3564 JUMP JUMPDEST SWAP1 POP DUP4 PUSH1 0x20 DUP4 ADD MSTORE PUSH1 0x1 PUSH1 0x1 PUSH1 0xA0 SHL SUB DUP4 AND PUSH1 0x40 DUP4 ADD MSTORE SWAP5 SWAP4 POP POP POP POP JUMP JUMPDEST SWAP1 ISZERO ISZERO DUP2 MSTORE PUSH1 0x20 ADD SWAP1 JUMP JUMPDEST SWAP1 DUP2 MSTORE PUSH1 0x20 ADD SWAP1 JUMP JUMPDEST SWAP8 DUP9 MSTORE PUSH1 0x1 PUSH1 0x1 PUSH1 0xA0 SHL SUB SWAP7 DUP8 AND PUSH1 0x20 DUP10 ADD MSTORE SWAP5 SWAP1 SWAP6 AND PUSH1 0x40 DUP8 ADD MSTORE PUSH1 0x60 DUP7 ADD SWAP3 SWAP1 SWAP3 MSTORE PUSH2 0xFFFF AND PUSH1 0x80 DUP6 ADD MSTORE ISZERO ISZERO PUSH1 0xA0 DUP5 ADD MSTORE PUSH1 0xC0 DUP4 ADD SWAP2 SWAP1 SWAP2 MSTORE PUSH1 0xE0 DUP3 ADD MSTORE PUSH2 0x100 ADD SWAP1 JUMP JUMPDEST SWAP8 DUP9 MSTORE PUSH1 0x1 PUSH1 0x1 PUSH1 0xA0 SHL SUB SWAP7 DUP8 AND PUSH1 0x20 DUP10 ADD MSTORE SWAP5 SWAP1 SWAP6 AND PUSH1 0x40 DUP8 ADD MSTORE PUSH1 0x60 DUP7 ADD SWAP3 SWAP1 SWAP3 MSTORE PUSH1 0x80 DUP6 ADD MSTORE ISZERO ISZERO PUSH1 0xA0 DUP5 ADD MSTORE PUSH1 0xC0 DUP4 ADD SWAP2 SWAP1 SWAP2 MSTORE PUSH1 0xE0 DUP3 ADD MSTORE PUSH2 0x100 ADD SWAP1 JUMP JUMPDEST SWAP6 DUP7 MSTORE PUSH1 0x1 PUSH1 0x1 PUSH1 0xA0 SHL SUB SWAP5 DUP6 AND PUSH1 0x20 DUP8 ADD MSTORE SWAP3 SWAP1 SWAP4 AND PUSH1 0x40 DUP6 ADD MSTORE PUSH1 0x60 DUP5 ADD MSTORE PUSH1 0x80 DUP4 ADD SWAP2 SWAP1 SWAP2 MSTORE PUSH1 0xA0 DUP3 ADD MSTORE PUSH1 0xC0 ADD SWAP1 JUMP JUMPDEST SWAP5 DUP6 MSTORE PUSH1 0x20 DUP6 ADD SWAP4 SWAP1 SWAP4 MSTORE PUSH1 0x40 DUP5 ADD SWAP2 SWAP1 SWAP2 MSTORE PUSH1 0x60 DUP4 ADD MSTORE PUSH1 0x1 PUSH1 0x1 PUSH1 0xA0 SHL SUB AND PUSH1 0x80 DUP3 ADD MSTORE PUSH1 0xA0 ADD SWAP1 JUMP JUMPDEST SWAP4 DUP5 MSTORE PUSH1 0xFF SWAP3 SWAP1 SWAP3 AND PUSH1 0x20 DUP5 ADD MSTORE PUSH1 0x40 DUP4 ADD MSTORE PUSH1 0x60 DUP3 ADD MSTORE PUSH1 0x80 ADD SWAP1 JUMP JUMPDEST PUSH1 0x0 PUSH1 0x20 DUP3 MSTORE PUSH2 0xB8F PUSH1 0x20 DUP4 ADD DUP5 PUSH2 0x35A7 JUMP JUMPDEST PUSH1 0x20 DUP1 DUP3 MSTORE PUSH1 0x23 SWAP1 DUP3 ADD MSTORE PUSH32 0x45524332303A207472616E7366657220746F20746865207A65726F2061646472 PUSH1 0x40 DUP3 ADD MSTORE PUSH32 0x6573730000000000000000000000000000000000000000000000000000000000 PUSH1 0x60 DUP3 ADD MSTORE PUSH1 0x80 ADD SWAP1 JUMP JUMPDEST PUSH1 0x20 DUP1 DUP3 MSTORE PUSH1 0x22 SWAP1 DUP3 ADD MSTORE PUSH32 0x45524332303A20617070726F766520746F20746865207A65726F206164647265 PUSH1 0x40 DUP3 ADD MSTORE PUSH32 0x7373000000000000000000000000000000000000000000000000000000000000 PUSH1 0x60 DUP3 ADD MSTORE PUSH1 0x80 ADD SWAP1 JUMP JUMPDEST PUSH1 0x20 DUP1 DUP3 MSTORE PUSH1 0x1B SWAP1 DUP3 ADD MSTORE PUSH32 0x536166654D6174683A206164646974696F6E206F766572666C6F770000000000 PUSH1 0x40 DUP3 ADD MSTORE PUSH1 0x60 ADD SWAP1 JUMP JUMPDEST PUSH1 0x20 DUP1 DUP3 MSTORE DUP2 DUP2 ADD MSTORE PUSH32 0x5361666545524332303A206C6F772D6C6576656C2063616C6C206661696C6564 PUSH1 0x40 DUP3 ADD MSTORE PUSH1 0x60 ADD SWAP1 JUMP JUMPDEST PUSH1 0x20 DUP1 DUP3 MSTORE PUSH1 0x2E SWAP1 DUP3 ADD MSTORE PUSH32 0x436F6E747261637420696E7374616E63652068617320616C7265616479206265 PUSH1 0x40 DUP3 ADD MSTORE PUSH32 0x656E20696E697469616C697A6564000000000000000000000000000000000000 PUSH1 0x60 DUP3 ADD MSTORE PUSH1 0x80 ADD SWAP1 JUMP JUMPDEST PUSH1 0x20 DUP1 DUP3 MSTORE PUSH1 0x21 SWAP1 DUP3 ADD MSTORE PUSH32 0x45524332303A206275726E2066726F6D20746865207A65726F20616464726573 PUSH1 0x40 DUP3 ADD MSTORE PUSH32 0x7300000000000000000000000000000000000000000000000000000000000000 PUSH1 0x60 DUP3 ADD MSTORE PUSH1 0x80 ADD SWAP1 JUMP JUMPDEST PUSH1 0x20 DUP1 DUP3 MSTORE PUSH1 0x25 SWAP1 DUP3 ADD MSTORE PUSH32 0x45524332303A207472616E736665722066726F6D20746865207A65726F206164 PUSH1 0x40 DUP3 ADD MSTORE PUSH32 0x6472657373000000000000000000000000000000000000000000000000000000 PUSH1 0x60 DUP3 ADD MSTORE PUSH1 0x80 ADD SWAP1 JUMP JUMPDEST PUSH1 0x20 DUP1 DUP3 MSTORE PUSH1 0x24 SWAP1 DUP3 ADD MSTORE PUSH32 0x45524332303A20617070726F76652066726F6D20746865207A65726F20616464 PUSH1 0x40 DUP3 ADD MSTORE PUSH32 0x7265737300000000000000000000000000000000000000000000000000000000 PUSH1 0x60 DUP3 ADD MSTORE PUSH1 0x80 ADD SWAP1 JUMP JUMPDEST PUSH1 0x20 DUP1 DUP3 MSTORE PUSH1 0x2A SWAP1 DUP3 ADD MSTORE PUSH32 0x5361666545524332303A204552433230206F7065726174696F6E20646964206E PUSH1 0x40 DUP3 ADD MSTORE PUSH32 0x6F74207375636365656400000000000000000000000000000000000000000000 PUSH1 0x60 DUP3 ADD MSTORE PUSH1 0x80 ADD SWAP1 JUMP JUMPDEST PUSH1 0x20 DUP1 DUP3 MSTORE PUSH1 0x36 SWAP1 DUP3 ADD MSTORE PUSH32 0x5361666545524332303A20617070726F76652066726F6D206E6F6E2D7A65726F PUSH1 0x40 DUP3 ADD MSTORE PUSH32 0x20746F206E6F6E2D7A65726F20616C6C6F77616E636500000000000000000000 PUSH1 0x60 DUP3 ADD MSTORE PUSH1 0x80 ADD SWAP1 JUMP JUMPDEST PUSH1 0x20 DUP1 DUP3 MSTORE PUSH1 0x1F SWAP1 DUP3 ADD MSTORE PUSH32 0x5361666545524332303A2063616C6C20746F206E6F6E2D636F6E747261637400 PUSH1 0x40 DUP3 ADD MSTORE PUSH1 0x60 ADD SWAP1 JUMP JUMPDEST PUSH1 0x20 DUP1 DUP3 MSTORE PUSH1 0x1F SWAP1 DUP3 ADD MSTORE PUSH32 0x45524332303A206D696E7420746F20746865207A65726F206164647265737300 PUSH1 0x40 DUP3 ADD MSTORE PUSH1 0x60 ADD SWAP1 JUMP JUMPDEST SWAP2 DUP3 MSTORE PUSH1 0x20 DUP3 ADD MSTORE PUSH1 0x40 ADD SWAP1 JUMP JUMPDEST PUSH1 0xFF SWAP2 SWAP1 SWAP2 AND DUP2 MSTORE PUSH1 0x20 ADD SWAP1 JUMP JUMPDEST PUSH1 0x0 JUMPDEST DUP4 DUP2 LT ISZERO PUSH2 0x3CD3 JUMPI DUP2 DUP2 ADD MLOAD DUP4 DUP3 ADD MSTORE PUSH1 0x20 ADD PUSH2 0x3CBB JUMP JUMPDEST DUP4 DUP2 GT ISZERO PUSH2 0x279C JUMPI POP POP PUSH1 0x0 SWAP2 ADD MSTORE JUMP JUMPDEST PUSH1 0x1 PUSH1 0x1 PUSH1 0xA0 SHL SUB DUP2 AND DUP2 EQ PUSH2 0xEFB JUMPI PUSH1 0x0 DUP1 REVERT JUMPDEST DUP1 ISZERO ISZERO DUP2 EQ PUSH2 0xEFB JUMPI PUSH1 0x0 DUP1 REVERT JUMPDEST PUSH1 0xFF DUP2 AND DUP2 EQ PUSH2 0xEFB JUMPI PUSH1 0x0 DUP1 REVERT INVALID GASLIMIT MSTORE NUMBER ORIGIN ADDRESS GASPRICE KECCAK256 PUSH3 0x75726E KECCAK256 PUSH2 0x6D6F PUSH22 0x6E7420657863656564732062616C616E636545524332 ADDRESS GASPRICE KECCAK256 PUSH21 0x72616E7366657220616D6F756E7420657863656564 PUSH20 0x2062616C616E636545524332303A207472616E73 PUSH7 0x657220616D6F75 PUSH15 0x74206578636565647320616C6C6F77 PUSH2 0x6E63 PUSH6 0x45524332303A KECCAK256 PUSH5 0x6563726561 PUSH20 0x656420616C6C6F77616E63652062656C6F77207A PUSH6 0x726FA2646970 PUSH7 0x735822122089B3 EXTCODESIZE SWAP12 0xAA PUSH10 0x5D1F580CC8DEDF20027E DUP6 0xC8 0xBB SWAP5 0xE8 0xE6 0xB4 0xB2 0xD8 SWAP10 PUSH27 0x69571C59BE64736F6C634300060C00330000000000000000000000 "},"methodIdentifiers":{"ASSET()":"4800d97f","ATOKEN()":"51c0e061","EIP712_REVISION()":"78160376","INCENTIVES_CONTROLLER()":"10d0ab22","LENDING_POOL()":"b4dcfc77","METADEPOSIT_TYPEHASH()":"63210537","METAWITHDRAWAL_TYPEHASH()":"8d948415","PERMIT_TYPEHASH()":"30adf81f","REWARD_TOKEN()":"99248ea7","STATIC_ATOKEN_LM_REVISION()":"61d0494d","UNDERLYING_ASSET_ADDRESS()":"b16a19de","_nonces(address)":"b9844d8d","allowance(address,address)":"dd62ed3e","approve(address,uint256)":"095ea7b3","balanceOf(address)":"70a08231","claimRewards(address,bool)":"491c011a","claimRewardsOnBehalf(address,address,bool)":"dd05aa12","claimRewardsToSelf(bool)":"45c1ace7","collectAndUpdateRewards()":"3eb2eba6","decimals()":"313ce567","decreaseAllowance(address,uint256)":"a457c2d7","deposit(address,uint256,uint16,bool)":"2f2cab87","dynamicBalanceOf(address)":"44b68c3f","dynamicToStaticAmount(uint256)":"36a5a6d6","getAccRewardsPerToken()":"a135a55e","getClaimableRewards(address)":"308e401e","getDomainSeparator()":"ed24911d","getIncentivesController()":"75d26413","getLastRewardBlock()":"bf62bee6","getLifetimeRewards()":"b3a59022","getLifetimeRewardsClaimed()":"31a5cfa4","getTotalClaimableRewards()":"7f372cff","getUnclaimedRewards(address)":"69a69e29","increaseAllowance(address,uint256)":"39509351","initialize(address,address,string,string)":"2016a0d2","isImplementation()":"60a49b33","metaDeposit(address,address,uint256,uint16,bool,uint256,(uint8,bytes32,bytes32))":"c485852b","metaWithdraw(address,address,uint256,uint256,bool,uint256,(uint8,bytes32,bytes32))":"60266557","name()":"06fdde03","permit(address,address,uint256,uint256,uint8,bytes32,bytes32)":"d505accf","rate()":"2c4e722e","staticToDynamicAmount(uint256)":"f57d0b40","symbol()":"95d89b41","totalSupply()":"18160ddd","transfer(address,uint256)":"a9059cbb","transferFrom(address,address,uint256)":"23b872dd","withdraw(address,uint256,bool)":"ead5d359","withdrawDynamicAmount(address,uint256,bool)":"288587ce"}}}}}