{
  "_format": "hh-sol-artifact-1",
  "contractName": "LiquidityGaugeFactory",
  "sourceName": "contracts/gauges/ethereum/LiquidityGaugeFactory.sol",
  "abi": [
    {
      "inputs": [
        {
          "internalType": "contract IStakingLiquidityGauge",
          "name": "gauge",
          "type": "address"
        }
      ],
      "stateMutability": "nonpayable",
      "type": "constructor"
    },
    {
      "anonymous": false,
      "inputs": [
        {
          "indexed": true,
          "internalType": "address",
          "name": "gauge",
          "type": "address"
        }
      ],
      "name": "GaugeCreated",
      "type": "event"
    },
    {
      "inputs": [
        {
          "internalType": "address",
          "name": "pool",
          "type": "address"
        },
        {
          "internalType": "uint256",
          "name": "relativeWeightCap",
          "type": "uint256"
        }
      ],
      "name": "create",
      "outputs": [
        {
          "internalType": "address",
          "name": "",
          "type": "address"
        }
      ],
      "stateMutability": "nonpayable",
      "type": "function"
    },
    {
      "inputs": [],
      "name": "getGaugeImplementation",
      "outputs": [
        {
          "internalType": "contract ILiquidityGauge",
          "name": "",
          "type": "address"
        }
      ],
      "stateMutability": "view",
      "type": "function"
    },
    {
      "inputs": [
        {
          "internalType": "address",
          "name": "gauge",
          "type": "address"
        }
      ],
      "name": "isGaugeFromFactory",
      "outputs": [
        {
          "internalType": "bool",
          "name": "",
          "type": "bool"
        }
      ],
      "stateMutability": "view",
      "type": "function"
    }
  ],
  "bytecode": "0x608060405234801561001057600080fd5b5060405161049c38038061049c83398101604081905261002f91610054565b600080546001600160a01b0319166001600160a01b0392909216919091179055610082565b600060208284031215610065578081fd5b81516001600160a01b038116811461007b578182fd5b9392505050565b61040b806100916000396000f3fe608060405234801561001057600080fd5b50600436106100415760003560e01c80630ecaea731461004657806339312dee1461006f578063ce3cc8bd14610077575b600080fd5b610059610054366004610322565b610097565b604051610066919061034c565b60405180910390f35b610059610135565b61008a610085366004610300565b610151565b6040516100669190610393565b6000806100a2610180565b6040517fcd6dc68700000000000000000000000000000000000000000000000000000000815290915073ffffffffffffffffffffffffffffffffffffffff82169063cd6dc687906100f9908790879060040161036d565b600060405180830381600087803b15801561011357600080fd5b505af1158015610127573d6000803e3d6000fd5b509293505050505b92915050565b60005473ffffffffffffffffffffffffffffffffffffffff1690565b73ffffffffffffffffffffffffffffffffffffffff811660009081526001602052604090205460ff165b919050565b6000805481906101a59073ffffffffffffffffffffffffffffffffffffffff16610226565b73ffffffffffffffffffffffffffffffffffffffff8116600081815260016020819052604080832080547fffffffffffffffffffffffffffffffffffffffffffffffffffffffffffffff00169092179091555192935090917faa98436d09d130af48de49867af8b723bbbebb0d737638b5fe8f1bf31bbb71c09190a2905090565b60006040517f3d602d80600a3d3981f3363d3d373d3d3d363d7300000000000000000000000081528260601b60148201527f5af43d82803e903d91602b57fd5bf3000000000000000000000000000000000060288201526037816000f091505073ffffffffffffffffffffffffffffffffffffffff811661017b576040517f08c379a00000000000000000000000000000000000000000000000000000000081526004016102d39061039e565b60405180910390fd5b803573ffffffffffffffffffffffffffffffffffffffff8116811461012f57600080fd5b600060208284031215610311578081fd5b61031b83836102dc565b9392505050565b60008060408385031215610334578081fd5b61033e84846102dc565b946020939093013593505050565b73ffffffffffffffffffffffffffffffffffffffff91909116815260200190565b73ffffffffffffffffffffffffffffffffffffffff929092168252602082015260400190565b901515815260200190565b60208082526016908201527f455243313136373a20637265617465206661696c65640000000000000000000060408201526060019056fea2646970667358221220a97d2f336659dc261d93743164bd518f4c755f4a4f7f21049c2027abfec9a62164736f6c63430007010033",
  "linkReferences": {},
  "deployedLinkReferences": {}
}