{
  "_format": "hh-sol-artifact-1",
  "contractName": "GearboxLinearPoolFactory",
  "sourceName": "contracts/gearbox-linear-pool/GearboxLinearPoolFactory.sol",
  "abi": [
    {
      "inputs": [
        {
          "internalType": "contract IVault",
          "name": "vault",
          "type": "address"
        },
        {
          "internalType": "contract IProtocolFeePercentagesProvider",
          "name": "protocolFeeProvider",
          "type": "address"
        },
        {
          "internalType": "contract IBalancerQueries",
          "name": "queries",
          "type": "address"
        },
        {
          "internalType": "string",
          "name": "factoryVersion",
          "type": "string"
        },
        {
          "internalType": "string",
          "name": "poolVersion",
          "type": "string"
        },
        {
          "internalType": "uint256",
          "name": "initialPauseWindowDuration",
          "type": "uint256"
        },
        {
          "internalType": "uint256",
          "name": "bufferPeriodDuration",
          "type": "uint256"
        }
      ],
      "stateMutability": "nonpayable",
      "type": "constructor"
    },
    {
      "anonymous": false,
      "inputs": [],
      "name": "FactoryDisabled",
      "type": "event"
    },
    {
      "anonymous": false,
      "inputs": [
        {
          "indexed": true,
          "internalType": "address",
          "name": "pool",
          "type": "address"
        },
        {
          "indexed": true,
          "internalType": "uint256",
          "name": "protocolId",
          "type": "uint256"
        }
      ],
      "name": "GearboxLinearPoolCreated",
      "type": "event"
    },
    {
      "anonymous": false,
      "inputs": [
        {
          "indexed": true,
          "internalType": "address",
          "name": "pool",
          "type": "address"
        }
      ],
      "name": "PoolCreated",
      "type": "event"
    },
    {
      "inputs": [
        {
          "internalType": "string",
          "name": "name",
          "type": "string"
        },
        {
          "internalType": "string",
          "name": "symbol",
          "type": "string"
        },
        {
          "internalType": "contract IERC20",
          "name": "mainToken",
          "type": "address"
        },
        {
          "internalType": "contract IERC20",
          "name": "wrappedToken",
          "type": "address"
        },
        {
          "internalType": "uint256",
          "name": "upperTarget",
          "type": "uint256"
        },
        {
          "internalType": "uint256",
          "name": "swapFeePercentage",
          "type": "uint256"
        },
        {
          "internalType": "address",
          "name": "owner",
          "type": "address"
        },
        {
          "internalType": "uint256",
          "name": "protocolId",
          "type": "uint256"
        }
      ],
      "name": "create",
      "outputs": [
        {
          "internalType": "contract GearboxLinearPool",
          "name": "",
          "type": "address"
        }
      ],
      "stateMutability": "nonpayable",
      "type": "function"
    },
    {
      "inputs": [],
      "name": "disable",
      "outputs": [],
      "stateMutability": "nonpayable",
      "type": "function"
    },
    {
      "inputs": [
        {
          "internalType": "bytes4",
          "name": "selector",
          "type": "bytes4"
        }
      ],
      "name": "getActionId",
      "outputs": [
        {
          "internalType": "bytes32",
          "name": "",
          "type": "bytes32"
        }
      ],
      "stateMutability": "view",
      "type": "function"
    },
    {
      "inputs": [],
      "name": "getAuthorizer",
      "outputs": [
        {
          "internalType": "contract IAuthorizer",
          "name": "",
          "type": "address"
        }
      ],
      "stateMutability": "view",
      "type": "function"
    },
    {
      "inputs": [],
      "name": "getCreationCode",
      "outputs": [
        {
          "internalType": "bytes",
          "name": "",
          "type": "bytes"
        }
      ],
      "stateMutability": "view",
      "type": "function"
    },
    {
      "inputs": [],
      "name": "getCreationCodeContracts",
      "outputs": [
        {
          "internalType": "address",
          "name": "contractA",
          "type": "address"
        },
        {
          "internalType": "address",
          "name": "contractB",
          "type": "address"
        }
      ],
      "stateMutability": "view",
      "type": "function"
    },
    {
      "inputs": [],
      "name": "getLastCreatedPool",
      "outputs": [
        {
          "internalType": "address",
          "name": "",
          "type": "address"
        }
      ],
      "stateMutability": "view",
      "type": "function"
    },
    {
      "inputs": [],
      "name": "getPauseConfiguration",
      "outputs": [
        {
          "internalType": "uint256",
          "name": "pauseWindowDuration",
          "type": "uint256"
        },
        {
          "internalType": "uint256",
          "name": "bufferPeriodDuration",
          "type": "uint256"
        }
      ],
      "stateMutability": "view",
      "type": "function"
    },
    {
      "inputs": [],
      "name": "getPoolVersion",
      "outputs": [
        {
          "internalType": "string",
          "name": "",
          "type": "string"
        }
      ],
      "stateMutability": "view",
      "type": "function"
    },
    {
      "inputs": [],
      "name": "getProtocolFeePercentagesProvider",
      "outputs": [
        {
          "internalType": "contract IProtocolFeePercentagesProvider",
          "name": "",
          "type": "address"
        }
      ],
      "stateMutability": "view",
      "type": "function"
    },
    {
      "inputs": [],
      "name": "getVault",
      "outputs": [
        {
          "internalType": "contract IVault",
          "name": "",
          "type": "address"
        }
      ],
      "stateMutability": "view",
      "type": "function"
    },
    {
      "inputs": [],
      "name": "isDisabled",
      "outputs": [
        {
          "internalType": "bool",
          "name": "",
          "type": "bool"
        }
      ],
      "stateMutability": "view",
      "type": "function"
    },
    {
      "inputs": [
        {
          "internalType": "address",
          "name": "pool",
          "type": "address"
        }
      ],
      "name": "isPoolFromFactory",
      "outputs": [
        {
          "internalType": "bool",
          "name": "",
          "type": "bool"
        }
      ],
      "stateMutability": "view",
      "type": "function"
    },
    {
      "inputs": [],
      "name": "version",
      "outputs": [
        {
          "internalType": "string",
          "name": "",
          "type": "string"
        }
      ],
      "stateMutability": "view",
      "type": "function"
    }
  ],
  "bytecode": "0x6101e06040523480156200001257600080fd5b5060405162009464380380620094648339810160408190526200003591620003be565b86868383604051806020016200004b906200026d565b601f1982820381018352601f909101166040528851839083908790309085908e906200007f9060009060208401906200027b565b505080516002810460a081905280820360e081905281845283620000af816200018e602090811b620009f117901c565b60601b6001600160601b0319166080528285018051838252620000de826200018e602090811b620009f117901c565b6001600160601b0319606091821b811660c0529690935290526101009590955250509290911b909116610120525062000121630163f500831115610194620001e2565b620001356276a700821115610195620001e2565b610140829052610160524201610180525050506001600160601b0319606091821b81166101a05260016003559087901b166101c052508251620001809060069060208601906200027b565b50505050505050506200048f565b80517f602038038060206000396000f3fefefefefefefefefefefefefefefefefefefe808352600091602081018484f09084529150620001dc6001600160a01b03831615156101ac620001e2565b50919050565b81620001f357620001f381620001f7565b5050565b62000209816210905360ea1b6200020c565b50565b62461bcd60e51b600090815260206004526007602452600a808404818106603090810160081b958390069590950190829004918206850160101b01602363ffffff0060e086901c160160181b0190930160c81b60445260e882901c90606490fd5b6159838062003ae183390190565b828054600181600116156101000203166002900490600052602060002090601f016020900481019282601f10620002be57805160ff1916838001178555620002ee565b82800160010185558215620002ee579182015b82811115620002ee578251825591602001919060010190620002d1565b50620002fc92915062000300565b5090565b5b80821115620002fc576000815560010162000301565b600082601f83011262000328578081fd5b81516001600160401b03808211156200033f578283fd5b6040516020601f8401601f191682018101838111838210171562000361578586fd5b806040525081945083825286818588010111156200037e57600080fd5b600092505b83831015620003a2578583018101518284018201529182019162000383565b83831115620003b45760008185840101525b5050505092915050565b600080600080600080600060e0888a031215620003d9578283fd5b8751620003e68162000479565b6020890151909750620003f98162000479565b60408901519096506200040c8162000479565b60608901519095506001600160401b038082111562000429578485fd5b620004378b838c0162000317565b955060808a01519150808211156200044d578485fd5b506200045c8a828b0162000317565b93505060a0880151915060c0880151905092959891949750929550565b6001600160a01b03811681146200020957600080fd5b60805160601c60a05160c05160601c60e051610100516101205160601c6101405161016051610180516101a05160601c6101c05160601c6135bd620005246000398061067552508061050452508061028b52806102b55250806102d95250508061057c52508061052a525080610a5a5250806102625280610ad6525080610a7b5250806102415280610ab252506135bd6000f3fe60806040523480156200001157600080fd5b5060043610620000ff5760003560e01c80636634b7531162000099578063851c1bb3116200006f578063851c1bb314620001cd5780638d928af814620001f3578063aaabadc514620001fd578063df8af989146200020757620000ff565b80636634b75314620001935780636c57f5a914620001b9578063739238d614620001c357620000ff565b80632f2770db11620000db5780632f2770db146200015a5780633f819b6f146200016657806354fd4d5014620001705780635ed31282146200017a57620000ff565b8062c194db1462000104578063174481fa14620001265780632da47c401462000140575b600080fd5b6200010e6200021e565b6040516200011d919062001435565b60405180910390f35b620001306200023f565b6040516200011d929190620013ce565b6200014a62000285565b6040516200011d9291906200162e565b620001646200030e565b005b6200010e62000378565b6200010e62000430565b62000184620004b2565b6040516200011d9190620013ad565b620001aa620001a436600462001137565b620004ce565b6040516200011d9190620013f5565b620001aa620004f9565b6200018462000502565b620001e4620001de36600462001178565b62000526565b6040516200011d919062001400565b620001846200057a565b620001846200059e565b6200018462000218366004620011d9565b6200062b565b60606200023a6040518060200160405280600081525062000a52565b905090565b7f00000000000000000000000000000000000000000000000000000000000000007f00000000000000000000000000000000000000000000000000000000000000009091565b600080427f00000000000000000000000000000000000000000000000000000000000000008110156200030057807f00000000000000000000000000000000000000000000000000000000000000000392507f0000000000000000000000000000000000000000000000000000000000000000915062000309565b60009250600091505b509091565b6200031862000b2d565b6200032262000b7c565b600280547fffffffffffffffffffffffffffffffffffffffffffffffffffffffffffffff001660011790556040517f432acbfd662dbb5d8b378384a67159b47ca9d0f1b79f97cf64cf8585fa362d5090600090a1565b60068054604080516020601f60027fffffffffffffffffffffffffffffffffffffffffffffffffffffffffffffffff610100600188161502019095169490940493840181900481028201810190925282815260609390929091830182828015620004265780601f10620003fa5761010080835404028352916020019162000426565b820191906000526020600020905b8154815290600101906020018083116200040857829003601f168201915b5050505050905090565b60008054604080516020601f60027fffffffffffffffffffffffffffffffffffffffffffffffffffffffffffffffff610100600188161502019095169490940493840181900481028201810190925282815260609390929091830182828015620004265780601f10620003fa5761010080835404028352916020019162000426565b60055473ffffffffffffffffffffffffffffffffffffffff1690565b73ffffffffffffffffffffffffffffffffffffffff1660009081526001602052604090205460ff1690565b60025460ff1690565b7f000000000000000000000000000000000000000000000000000000000000000090565b60007f0000000000000000000000000000000000000000000000000000000000000000826040516020016200055d9291906200134a565b604051602081830303815290604052805190602001209050919050565b7f000000000000000000000000000000000000000000000000000000000000000090565b6000620005aa6200057a565b73ffffffffffffffffffffffffffffffffffffffff1663aaabadc56040518163ffffffff1660e01b815260040160206040518083038186803b158015620005f057600080fd5b505afa15801562000605573d6000803e3d6000fd5b505050506040513d601f19601f820116820180604052508101906200023a9190620011ba565b60006200063762000b95565b6004805460018101909155604051606090620006566020820162000fd8565b601f1982820381018352601f90910116604052620006736200057a565b7f0000000000000000000000000000000000000000000000000000000000000000604051602001620006a7929190620013ce565b60408051601f1981840301815290829052620006c792916020016200137a565b60405160208183030381529060405290506000620006ed83838051906020012062000bb0565b9050600080620006fc62000285565b915091506200070a62000fe6565b620007146200057a565b816000019073ffffffffffffffffffffffffffffffffffffffff16908173ffffffffffffffffffffffffffffffffffffffff16815250508e81602001819052508d81604001819052508c816060019073ffffffffffffffffffffffffffffffffffffffff16908173ffffffffffffffffffffffffffffffffffffffff16815250508b816080019073ffffffffffffffffffffffffffffffffffffffff16908173ffffffffffffffffffffffffffffffffffffffff1681525050838160a0019073ffffffffffffffffffffffffffffffffffffffff16908173ffffffffffffffffffffffffffffffffffffffff16815250508a8160c0018181525050898160e0018181525050828161010001818152505081816101200181815250508881610140019073ffffffffffffffffffffffffffffffffffffffff16908173ffffffffffffffffffffffffffffffffffffffff16815250506200087262000378565b610160820152604051600090620008a8906200089390849060200162001526565b60405160208183030381529060405262000bc6565b90508073ffffffffffffffffffffffffffffffffffffffff16638129fc1c6040518163ffffffff1660e01b8152600401600060405180830381600087803b158015620008f357600080fd5b505af115801562000908573d6000803e3d6000fd5b5050505060006200091c6000898962000c1b565b90508073ffffffffffffffffffffffffffffffffffffffff168673ffffffffffffffffffffffffffffffffffffffff16146200098f576040517f08c379a00000000000000000000000000000000000000000000000000000000081526004016200098690620014b8565b60405180910390fd5b6040518a9073ffffffffffffffffffffffffffffffffffffffff8416907ff7e9cc0138f2460de56932c3eced1d4e1579a83664506c19d4304af26aa48bd490600090a3509650505050505050620009e562000cf9565b98975050505050505050565b80517f602038038060206000396000f3fefefefefefefefefefefefefefefefefefefe808352600091602081018484f0908452915062000a4c73ffffffffffffffffffffffffffffffffffffffff831615156101ac62000d00565b50919050565b8051604080517f00000000000000000000000000000000000000000000000000000000000000007f0000000000000000000000000000000000000000000000000000000000000000818101858101848101602090810190965280855293957f00000000000000000000000000000000000000000000000000000000000000009592947f000000000000000000000000000000000000000000000000000000000000000094938801866000828a3c846000888301883c506020898101908985010162000b1f81838662000d15565b505050505050505050919050565b600062000b5e6000357fffffffff000000000000000000000000000000000000000000000000000000001662000526565b905062000b7962000b70823362000d73565b61019162000d00565b50565b62000b9362000b8a620004f9565b1560d362000d00565b565b62000ba96002600354141561019062000d00565b6002600355565b600062000bbf83833062000e11565b9392505050565b60008062000bd48362000e52565b600580547fffffffffffffffffffffffff00000000000000000000000000000000000000001673ffffffffffffffffffffffffffffffffffffffff83161790559392505050565b6000808447101562000c5b576040517f08c379a000000000000000000000000000000000000000000000000000000000815260040162000986906200144a565b825162000c96576040517f08c379a00000000000000000000000000000000000000000000000000000000081526004016200098690620014ef565b8383516020850187f5905073ffffffffffffffffffffffffffffffffffffffff811662000cf1576040517f08c379a0000000000000000000000000000000000000000000000000000000008152600401620009869062001481565b949350505050565b6001600355565b8162000d115762000d118162000eed565b5050565b5b6020811062000d37578151835260209283019290910190601f190162000d16565b905182516020929092036101000a7fffffffffffffffffffffffffffffffffffffffffffffffffffffffffffffffff0180199091169116179052565b600062000d7f6200059e565b73ffffffffffffffffffffffffffffffffffffffff16639be2a8848484306040518463ffffffff1660e01b815260040162000dbd9392919062001409565b60206040518083038186803b15801562000dd657600080fd5b505afa15801562000deb573d6000803e3d6000fd5b505050506040513d601f19601f8201168201806040525081019062000bbf919062001156565b60008060ff60f81b83868660405160200162000e319493929190620012e6565b60408051808303601f19018152919052805160209091012095945050505050565b600062000e5e62000b7c565b600062000e6b8362000f19565b73ffffffffffffffffffffffffffffffffffffffff8116600081815260016020819052604080832080547fffffffffffffffffffffffffffffffffffffffffffffffffffffffffffffff00169092179091555192935090917f83a48fbcfc991335314e74d0496aab6a1987e992ddc85dddbcc4d6dd6ef2e9fc9190a292915050565b62000b79817f42414c000000000000000000000000000000000000000000000000000000000062000f5d565b6000606062000f288362000a52565b905060008151602083016000f0905073ffffffffffffffffffffffffffffffffffffffff811662000bbf573d6000803e3d6000fd5b7f08c379a000000000000000000000000000000000000000000000000000000000600090815260206004526007602452600a808404818106603090810160081b958390069590950190829004918206850160101b01602363ffffff0060e086901c160160181b0190930160c81b60445260e882901c90606490fd5b611ef5806200169383390190565b604051806101800160405280600073ffffffffffffffffffffffffffffffffffffffff1681526020016060815260200160608152602001600073ffffffffffffffffffffffffffffffffffffffff168152602001600073ffffffffffffffffffffffffffffffffffffffff168152602001600073ffffffffffffffffffffffffffffffffffffffff16815260200160008152602001600081526020016000815260200160008152602001600073ffffffffffffffffffffffffffffffffffffffff168152602001606081525090565b600082601f830112620010c6578081fd5b813567ffffffffffffffff80821115620010de578283fd5b6040516020601f19601f8501168201018181108382111715620010ff578485fd5b6040528281529250828483016020018610156200111b57600080fd5b8260208601602083013760006020848301015250505092915050565b60006020828403121562001149578081fd5b813562000bbf816200166f565b60006020828403121562001168578081fd5b8151801515811462000bbf578182fd5b6000602082840312156200118a578081fd5b81357fffffffff000000000000000000000000000000000000000000000000000000008116811462000bbf578182fd5b600060208284031215620011cc578081fd5b815162000bbf816200166f565b600080600080600080600080610100898b031215620011f6578384fd5b883567ffffffffffffffff808211156200120e578586fd5b6200121c8c838d01620010b5565b995060208b013591508082111562001232578586fd5b50620012418b828c01620010b5565b975050604089013562001254816200166f565b9550606089013562001266816200166f565b94506080890135935060a0890135925060c089013562001286816200166f565b8092505060e089013590509295985092959890939650565b73ffffffffffffffffffffffffffffffffffffffff169052565b60008151808452620012d28160208601602086016200163c565b601f01601f19169290920160200192915050565b7fff0000000000000000000000000000000000000000000000000000000000000094909416845260609290921b7fffffffffffffffffffffffffffffffffffffffff0000000000000000000000001660018401526015830152603582015260550190565b9182527fffffffff0000000000000000000000000000000000000000000000000000000016602082015260240190565b600083516200138e8184602088016200163c565b835190830190620013a48183602088016200163c565b01949350505050565b73ffffffffffffffffffffffffffffffffffffffff91909116815260200190565b73ffffffffffffffffffffffffffffffffffffffff92831681529116602082015260400190565b901515815260200190565b90815260200190565b92835273ffffffffffffffffffffffffffffffffffffffff918216602084015216604082015260600190565b60006020825262000bbf6020830184620012b8565b6020808252601c908201527f435245415445325f494e53554646494349454e545f42414c414e434500000000604082015260600190565b60208082526015908201527f435245415445325f4445504c4f595f4641494c45440000000000000000000000604082015260600190565b6020808252601c908201527f526562616c616e636572206465706c6f796d656e74206661696c656400000000604082015260600190565b60208082526015908201527f435245415445325f42595445434f44455f5a45524f0000000000000000000000604082015260600190565b6000602082526200153c6020830184516200129e565b60208301516101808060408501526200155a6101a0850183620012b8565b91506040850151601f19808685030160608701526200157a8483620012b8565b9350606087015191506200159260808701836200129e565b60808701519150620015a860a08701836200129e565b60a08701519150620015be60c08701836200129e565b60c087015160e087810191909152870151610100808801919091528701516101208088019190915287015161014080880191909152870151915061016062001609818801846200129e565b870151868503909101838701529050620016248382620012b8565b9695505050505050565b918252602082015260400190565b60005b83811015620016595781810151838201526020016200163f565b8381111562001669576000848401525b50505050565b73ffffffffffffffffffffffffffffffffffffffff8116811462000b7957600080fdfe6101806040523480156200001257600080fd5b5060405162001ef538038062001ef5833981016040819052620000359162000582565b6200003f6200041c565b8282826001600160a01b0316631dd746ea6040518163ffffffff1660e01b815260040160006040518083038186803b1580156200007b57600080fd5b505afa15801562000090573d6000803e3d6000fd5b505050506040513d6000823e601f3d908101601f19168201604052620000ba9190810190620004be565b836001600160a01b0316634d64cd746040518163ffffffff1660e01b815260040160206040518083038186803b158015620000f457600080fd5b505afa15801562000109573d6000803e3d6000fd5b505050506040513d601f19601f820116820180604052508101906200012f919062000569565b815181106200013a57fe5b602090810291909101810151610100526001600160601b0319606085901b166080526040805163038fff2d60e41b815290516001600160a01b038616926338fff2d09260048082019391829003018186803b1580156200019957600080fd5b505afa158015620001ae573d6000803e3d6000fd5b505050506040513d601f19601f82011682018060405250810190620001d4919062000569565b60a08181525050826001600160a01b0316634de046d56040518163ffffffff1660e01b815260040160206040518083038186803b1580156200021557600080fd5b505afa1580156200022a573d6000803e3d6000fd5b505050506040513d601f19601f8201168201806040525081019062000250919062000498565b6001600160a01b031660c0816001600160a01b031660601b81525050826001600160a01b031663f174e2416040518163ffffffff1660e01b815260040160206040518083038186803b158015620002a657600080fd5b505afa158015620002bb573d6000803e3d6000fd5b505050506040513d601f19601f82011682018060405250810190620002e1919062000498565b6001600160601b0319606091821b811660e05292811b8316610120521b1661014052506000620003106200041c565b90506000816001600160a01b031663f174e2416040518163ffffffff1660e01b815260040160206040518083038186803b1580156200034e57600080fd5b505afa15801562000363573d6000803e3d6000fd5b505050506040513d601f19601f8201168201806040525081019062000389919062000498565b9050806001600160a01b0316638da5cb5b6040518163ffffffff1660e01b815260040160206040518083038186803b158015620003c557600080fd5b505afa158015620003da573d6000803e3d6000fd5b505050506040513d601f19601f8201168201806040525081019062000400919062000498565b60601b6001600160601b03191661016052506200060092505050565b6000336001600160a01b0316635ed312826040518163ffffffff1660e01b815260040160206040518083038186803b1580156200045857600080fd5b505afa1580156200046d573d6000803e3d6000fd5b505050506040513d601f19601f8201168201806040525081019062000493919062000498565b905090565b600060208284031215620004aa578081fd5b8151620004b781620005e7565b9392505050565b60006020808385031215620004d1578182fd5b82516001600160401b0380821115620004e8578384fd5b818501915085601f830112620004fc578384fd5b8151818111156200050b578485fd5b83810291506200051d848301620005c0565b8181528481019084860184860187018a101562000538578788fd5b8795505b838610156200055c5780518352600195909501949186019186016200053c565b5098975050505050505050565b6000602082840312156200057b578081fd5b5051919050565b6000806040838503121562000595578081fd5b8251620005a281620005e7565b6020840151909250620005b581620005e7565b809150509250929050565b6040518181016001600160401b0381118282101715620005df57600080fd5b604052919050565b6001600160a01b0381168114620005fd57600080fd5b50565b60805160601c60a05160c05160601c60e05160601c610100516101205160601c6101405160601c6101605160601c61180a620006eb60003980610cbf528061100a52806110d4528061113652508061050952806108215250806101335280610c145280610f0f5280610f715250806103bf52508061046c5280610599528061074852806108ec52508060ea5280610190528061043052806105cc528061063152806106d2528061078452806108b152806110b252508061016f5280610402528061071a5280610a7d5280610b5c5280610d975280610e7652508060995280610309525061180a6000f3fe608060405234801561001057600080fd5b50600436106100415760003560e01c8063026b1d5f1461004657806321c2819114610064578063df633d8d14610084575b600080fd5b61004e610097565b60405161005b9190611514565b60405180910390f35b6100776100723660046113d2565b6100bb565b60405161005b9190611747565b6100776100923660046113ee565b6100ce565b7f000000000000000000000000000000000000000000000000000000000000000090565b60006100c682610122565b90505b919050565b600061011273ffffffffffffffffffffffffffffffffffffffff7f000000000000000000000000000000000000000000000000000000000000000016333085610259565b61011b83610122565b9392505050565b60008061012d610302565b905060007f000000000000000000000000000000000000000000000000000000000000000073ffffffffffffffffffffffffffffffffffffffff1663b05f8e487f00000000000000000000000000000000000000000000000000000000000000007f00000000000000000000000000000000000000000000000000000000000000006040518363ffffffff1660e01b81526004016101cc929190611660565b60806040518083038186803b1580156101e457600080fd5b505afa1580156101f8573d6000803e3d6000fd5b505050506040513d601f19601f8201168201806040525081019061021c9190611474565b50505090508181101561023e57610235818303856103eb565b925050506100c9565b818111156102525761023582820385610703565b5050919050565b6102fc846323b872dd60e01b85858560405160240161027a9392919061155c565b604080517fffffffffffffffffffffffffffffffffffffffffffffffffffffffffffffffe08184030181529190526020810180517bffffffffffffffffffffffffffffffffffffffffffffffffffffffff167fffffffff0000000000000000000000000000000000000000000000000000000090931692909217909152610911565b50505050565b60008060007f000000000000000000000000000000000000000000000000000000000000000073ffffffffffffffffffffffffffffffffffffffff166363fe3b566040518163ffffffff1660e01b8152600401604080518083038186803b15801561036c57600080fd5b505afa158015610380573d6000803e3d6000fd5b505050506040513d601f19601f820116820180604052508101906103a49190611451565b9150915060006002828401816103b657fe5b0490506103e3817f00000000000000000000000000000000000000000000000000000000000000006109be565b935050505090565b60006103f561131f565b6040805160c081019091527f0000000000000000000000000000000000000000000000000000000000000000815260208101600081526020017f000000000000000000000000000000000000000000000000000000000000000073ffffffffffffffffffffffffffffffffffffffff1681526020017f000000000000000000000000000000000000000000000000000000000000000073ffffffffffffffffffffffffffffffffffffffff1681526020018581526020016040518060200160405280600081525081525090506104c9611382565b6040517fe969f6b300000000000000000000000000000000000000000000000000000000815260009073ffffffffffffffffffffffffffffffffffffffff7f0000000000000000000000000000000000000000000000000000000000000000169063e969f6b3906105409086908690600401611684565b602060405180830381600087803b15801561055a57600080fd5b505af115801561056e573d6000803e3d6000fd5b505050506040513d601f19601f820116820180604052508101906105929190611439565b90506105be7f000000000000000000000000000000000000000000000000000000000000000082610a11565b6105c781610c82565b6105f17f000000000000000000000000000000000000000000000000000000000000000087610d2b565b6040517f70a0823100000000000000000000000000000000000000000000000000000000815260009073ffffffffffffffffffffffffffffffffffffffff7f000000000000000000000000000000000000000000000000000000000000000016906370a0823190610666903090600401611514565b60206040518083038186803b15801561067e57600080fd5b505afa158015610692573d6000803e3d6000fd5b505050506040513d601f19601f820116820180604052508101906106b69190611439565b90506106f973ffffffffffffffffffffffffffffffffffffffff7f0000000000000000000000000000000000000000000000000000000000000000168783610fa6565b9695505050505050565b600061070d61131f565b6040805160c081019091527f0000000000000000000000000000000000000000000000000000000000000000815260208101600181526020017f000000000000000000000000000000000000000000000000000000000000000073ffffffffffffffffffffffffffffffffffffffff1681526020017f000000000000000000000000000000000000000000000000000000000000000073ffffffffffffffffffffffffffffffffffffffff1681526020018581526020016040518060200160405280600081525081525090506107e1611382565b6040517fe969f6b300000000000000000000000000000000000000000000000000000000815260009073ffffffffffffffffffffffffffffffffffffffff7f0000000000000000000000000000000000000000000000000000000000000000169063e969f6b3906108589086908690600401611684565b602060405180830381600087803b15801561087257600080fd5b505af1158015610886573d6000803e3d6000fd5b505050506040513d601f19601f820116820180604052508101906108aa9190611439565b90506108d67f000000000000000000000000000000000000000000000000000000000000000087610a11565b6108e76108e282610fca565b611098565b6105f17f000000000000000000000000000000000000000000000000000000000000000082610d2b565b600060608373ffffffffffffffffffffffffffffffffffffffff168360405161093a91906114f8565b6000604051808303816000865af19150503d8060008114610977576040519150601f19603f3d011682016040523d82523d6000602084013e61097c565b606091505b50915091506000821415610994573d6000803e3d6000fd5b6102fc8151600014806109b65750818060200190518101906109b69190611419565b6101a2611170565b60006109cd8215156004611170565b670de0b6b3a764000083026109ff8415806109f85750670de0b6b3a76400008583816109f557fe5b04145b6005611170565b828181610a0857fe5b04949350505050565b6040805160028082526060828101909352816020015b610a2f6113a9565b815260200190600190039081610a27579050509050600081600081518110610a5357fe5b6020026020010151600001906002811115610a6a57fe5b90816002811115610a7757fe5b815250507f000000000000000000000000000000000000000000000000000000000000000081600081518110610aa957fe5b602002602001015160200181815250508181600081518110610ac757fe5b602002602001015160600181815250508281600081518110610ae557fe5b60200260200101516040019073ffffffffffffffffffffffffffffffffffffffff16908173ffffffffffffffffffffffffffffffffffffffff1681525050600281600181518110610b3257fe5b6020026020010151600001906002811115610b4957fe5b90816002811115610b5657fe5b815250507f000000000000000000000000000000000000000000000000000000000000000081600181518110610b8857fe5b60200260200101516020018181525050600081600181518110610ba757fe5b602002602001015160600181815250508281600181518110610bc557fe5b602090810291909101015173ffffffffffffffffffffffffffffffffffffffff918216604091820152517fe6c460920000000000000000000000000000000000000000000000000000000081527f00000000000000000000000000000000000000000000000000000000000000009091169063e6c4609290610c4b9084906004016115dc565b600060405180830381600087803b158015610c6557600080fd5b505af1158015610c79573d6000803e3d6000fd5b50505050505050565b6040517f05fe138b00000000000000000000000000000000000000000000000000000000815273ffffffffffffffffffffffffffffffffffffffff7f000000000000000000000000000000000000000000000000000000000000000016906305fe138b90610cf69084903090600401611660565b600060405180830381600087803b158015610d1057600080fd5b505af1158015610d24573d6000803e3d6000fd5b5050505050565b6040805160028082526060828101909352816020015b610d496113a9565b815260200190600190039081610d41579050509050600281600081518110610d6d57fe5b6020026020010151600001906002811115610d8457fe5b90816002811115610d9157fe5b815250507f000000000000000000000000000000000000000000000000000000000000000081600081518110610dc357fe5b602002602001015160200181815250508181600081518110610de157fe5b602002602001015160600181815250508281600081518110610dff57fe5b60200260200101516040019073ffffffffffffffffffffffffffffffffffffffff16908173ffffffffffffffffffffffffffffffffffffffff1681525050600181600181518110610e4c57fe5b6020026020010151600001906002811115610e6357fe5b90816002811115610e7057fe5b815250507f000000000000000000000000000000000000000000000000000000000000000081600181518110610ea257fe5b602002602001015160200181815250508181600181518110610ec057fe5b602002602001015160600181815250508281600181518110610ede57fe5b602090810291909101015173ffffffffffffffffffffffffffffffffffffffff918216604090910152610f349084167f000000000000000000000000000000000000000000000000000000000000000084611182565b6040517fe6c4609200000000000000000000000000000000000000000000000000000000815273ffffffffffffffffffffffffffffffffffffffff7f0000000000000000000000000000000000000000000000000000000000000000169063e6c4609290610c4b9084906004016115dc565b610fc58363a9059cbb60e01b848460405160240161027a9291906115b6565b505050565b6040517f5427c93800000000000000000000000000000000000000000000000000000000815260009073ffffffffffffffffffffffffffffffffffffffff7f00000000000000000000000000000000000000000000000000000000000000001690635427c9389061103f908590600401611747565b60206040518083038186803b15801561105757600080fd5b505afa15801561106b573d6000803e3d6000fd5b505050506040513d601f19601f8201168201806040525081019061108f9190611439565b60010192915050565b6110f973ffffffffffffffffffffffffffffffffffffffff7f0000000000000000000000000000000000000000000000000000000000000000167f000000000000000000000000000000000000000000000000000000000000000083611182565b6040517f9aa5d46200000000000000000000000000000000000000000000000000000000815273ffffffffffffffffffffffffffffffffffffffff7f00000000000000000000000000000000000000000000000000000000000000001690639aa5d46290610cf69084903090600090600401611750565b8161117e5761117e81611277565b5050565b801580159061123357506040517fdd62ed3e00000000000000000000000000000000000000000000000000000000815273ffffffffffffffffffffffffffffffffffffffff84169063dd62ed3e906111e09030908690600401611535565b60206040518083038186803b1580156111f857600080fd5b505afa15801561120c573d6000803e3d6000fd5b505050506040513d601f19601f820116820180604052508101906112309190611439565b15155b15611258576112588363095ea7b360e01b84600060405160240161027a92919061158d565b610fc58363095ea7b360e01b848460405160240161027a9291906115b6565b6112a1817f42414c00000000000000000000000000000000000000000000000000000000006112a4565b50565b7f08c379a000000000000000000000000000000000000000000000000000000000600090815260206004526007602452600a808404818106603090810160081b958390069590950190829004918206850160101b01602363ffffff0060e086901c160160181b0190930160c81b60445260e882901c90606490fd5b6040805160c08101909152600080825260208201908152602001600073ffffffffffffffffffffffffffffffffffffffff168152602001600073ffffffffffffffffffffffffffffffffffffffff16815260200160008152602001606081525090565b60408051608081018252600080825260208201819052918101829052606081019190915290565b604080516080810190915280600081526000602082018190526040820181905260609091015290565b6000602082840312156113e3578081fd5b813561011b816117b2565b60008060408385031215611400578081fd5b823561140b816117b2565b946020939093013593505050565b60006020828403121561142a578081fd5b8151801515811461011b578182fd5b60006020828403121561144a578081fd5b5051919050565b60008060408385031215611463578182fd5b505080516020909101519092909150565b60008060008060808587031215611489578182fd5b84519350602085015192506040850151915060608501516114a9816117b2565b939692955090935050565b73ffffffffffffffffffffffffffffffffffffffff808251168352602082015115156020840152806040830151166040840152506060810151151560608301525050565b6000825161150a81846020870161177c565b9190910192915050565b73ffffffffffffffffffffffffffffffffffffffff91909116815260200190565b73ffffffffffffffffffffffffffffffffffffffff92831681529116602082015260400190565b73ffffffffffffffffffffffffffffffffffffffff9384168152919092166020820152604081019190915260600190565b73ffffffffffffffffffffffffffffffffffffffff92909216825260ff16602082015260400190565b73ffffffffffffffffffffffffffffffffffffffff929092168252602082015260400190565b602080825282518282018190526000919060409081850190868401855b8281101561165357815180516003811061160f57fe5b855280870151878601528581015173ffffffffffffffffffffffffffffffffffffffff168686015260609081015190850152608090930192908501906001016115f9565b5091979650505050505050565b91825273ffffffffffffffffffffffffffffffffffffffff16602082015260400190565b600060a08252835160a0830152602084015161169f816117a8565b8060c084015250604084015173ffffffffffffffffffffffffffffffffffffffff80821660e0850152806060870151166101008501525050608084015161012083015260a084015160c061014084015280518061016085015261018061170b828287016020860161177c565b807fffffffffffffffffffffffffffffffffffffffffffffffffffffffffffffffe0601f840116860101935050505061011b60208301846114b4565b90815260200190565b92835273ffffffffffffffffffffffffffffffffffffffff919091166020830152604082015260600190565b60005b8381101561179757818101518382015260200161177f565b838111156102fc5750506000910152565b600281106112a157fe5b73ffffffffffffffffffffffffffffffffffffffff811681146112a157600080fdfea2646970667358221220a3ec33f4d31e9d7f57d60a45a18ed992e3e68902209e08490c4ddb3ce48cdce764736f6c63430007010033a264697066735822122036ba2d4227cbffdc12383a8c64eec9984ed125306f74687ef7f67667d7f0209864736f6c634300070100336102c06040523480156200001257600080fd5b506040516200598338038062005983833981016040819052620000359162000df2565b6101608101518151602083015160408401516060850151608086015160c087015162000061886200047d565b60e08901516101008a01516101208b01516101408c01518a6200009e8160006200008c8c8c62000506565b89620005b760201b620014241760201c565b8b8b86868686838387878b86336001600160a01b031660001b8480604051806040016040528060018152602001603160f81b81525087878160039080519060200190620000ed92919062000c7b565b5080516200010390600490602084019062000c7b565b50506005805460ff19166012179055508151602092830120608052805191012060a052507f8b73c3c69bb8fe3d512ecc4cf759cc79239f7b179b0ffacaa9a75d522b39400f60c05260e0526001600160601b0319606091821b81166101005291901b166101205250620001829050630163f50083111561019462000785565b620001966276a70082111561019562000785565b4291909101610140819052016101605260601b6001600160601b031916610180526101a08690526040805163d2946c2b60e01b815290516001600160a01b0389169163d2946c2b916004808301926020929190829003018186803b158015620001fe57600080fd5b505afa15801562000213573d6000803e3d6000fd5b505050506040513d601f19601f8201168201806040525081019062000239919062000db3565b6001600160a01b03166101c0816001600160a01b031660601b8152505050505050505050876001600160a01b03166101e0816001600160a01b031660601b81525050866001600160a01b0316610200816001600160a01b031660601b81525050866001600160a01b0316886001600160a01b031610620002bb576002620002be565b60015b60ff16610220526001600160a01b0380881690891610620002e1576001620002e4565b60025b60ff1661024052620002f6886200079a565b6102605262000305876200079a565b6102805260006200031889828962000846565b620003238562000940565b50508a51620003469a506009995060208c019850965062000c7b95505050505050565b5050600081608001516001600160a01b0316638da5cb5b6040518163ffffffff1660e01b815260040160206040518083038186803b1580156200038857600080fd5b505afa1580156200039d573d6000803e3d6000fd5b505050506040513d601f19601f82011682018060405250810190620003c3919062000db3565b905062000465816001600160a01b0316632495a5996040518163ffffffff1660e01b815260040160206040518083038186803b1580156200040357600080fd5b505afa15801562000418573d6000803e3d6000fd5b505050506040513d601f19601f820116820180604052508101906200043e919062000db3565b6001600160a01b031683606001516001600160a01b0316146102086200078560201b60201c565b60601b6001600160601b0319166102a052506200106f565b6040805160028082526060808301845292839291906020830190803683370190505090508260a0015181600081518110620004b457fe5b60200260200101906001600160a01b031690816001600160a01b0316815250508260a0015181600181518110620004e757fe5b6001600160a01b03909216602092830291909101909101529050919050565b60408051600280825260608281019093526001600160a01b0384811690861610918391816020016020820280368337019050509050816200054857836200054a565b845b816000815181106200055857fe5b60200260200101906001600160a01b031690816001600160a01b0316815250508162000585578462000587565b835b816001815181106200059557fe5b6001600160a01b03909216602092830291909101909101529150505b92915050565b6000620005cf83620009cf60201b620015d91760201c565b606083516001016001600160401b0381118015620005ec57600080fd5b5060405190808252806020026020018201604052801562000617578160200160208202803683370190505b50905030816000815181106200062957fe5b60200260200101906001600160a01b031690816001600160a01b03168152505060005b84518110156200069c578481815181106200066357fe5b60200260200101518282600101815181106200067b57fe5b6001600160a01b03909216602092830291909101909101526001016200064c565b50606083516001016001600160401b0381118015620006ba57600080fd5b50604051908082528060200260200182016040528015620006e5578160200160208202803683370190505b509050600081600081518110620006f857fe5b60200260200101906001600160a01b031690816001600160a01b03168152505060005b84518110156200076b578481815181106200073257fe5b60200260200101518282600101815181106200074a57fe5b6001600160a01b03909216602092830291909101909101526001016200071b565b506200077a87878484620009db565b979650505050505050565b816200079657620007968162000ad5565b5050565b600080826001600160a01b031663313ce5676040518163ffffffff1660e01b815260040160206040518083038186803b158015620007d757600080fd5b505afa158015620007ec573d6000803e3d6000fd5b505050506040513d601f19601f8201168201806040525081019062000812919062000f49565b60ff16905060006200083160128362000aea60201b620015e71760201c565b600a0a670de0b6b3a764000002949350505050565b620008578183111561014c62000785565b620008746b0de0b6b39983494c589c000082111561014d62000785565b6200088e670de0b6b3a7640000825b061561016162000785565b620008a2670de0b6b3a76400008362000883565b620008f1670de0b6b3a7640000820460406020620008db670de0b6b3a764000087600854919004602080620015fd62000b02821b17811c565b62000b0260201b620015fd17909392919060201c565b6008556040516001600160a01b038416907fd0e27a0d0c2cb09280fa5e4487315455b32afcdcf012dc35b6ef2a0e3c4d12809062000933908590859062001018565b60405180910390a2505050565b6200095564e8d4a5100082101560cb62000785565b6200096d67016345785d8a000082111560ca62000785565b6200098f8160c0603f60085462000b0260201b620015fd17909392919060201c565b6008556040517fa9ba3ffe0b6c366b81232caab38605a0699ad5398d6cce76f91ee809e322dafc90620009c49083906200100f565b60405180910390a150565b80620007968162000b27565b600080856001600160a01b03166309b2760f866040518263ffffffff1660e01b815260040162000a0c919062000ffa565b602060405180830381600087803b15801562000a2757600080fd5b505af115801562000a3c573d6000803e3d6000fd5b505050506040513d601f19601f8201168201806040525081019062000a62919062000dd9565b604051633354e3e960e11b81529091506001600160a01b038716906366a9c7d29062000a979084908890889060040162000f6c565b600060405180830381600087803b15801562000ab257600080fd5b505af115801562000ac7573d6000803e3d6000fd5b509298975050505050505050565b62000ae7816210905360ea1b62000bb3565b50565b600062000afc83831115600162000785565b50900390565b600062000b1184848462000c14565b506001901b60001901811b1992909216911b1790565b60028151101562000b385762000ae7565b60008160008151811062000b4857fe5b602002602001015190506000600190505b825181101562000bae57600083828151811062000b7257fe5b6020026020010151905062000ba3816001600160a01b0316846001600160a01b03161060656200078560201b60201c565b915060010162000b59565b505050565b62461bcd60e51b600090815260206004526007602452600a808404818106603090810160081b958390069590950190829004918206850160101b01602363ffffff0060e086901c160160181b0190930160c81b60445260e882901c90606490fd5b62000c256101008310606462000785565b62000c5e6001821015801562000c56575062000c5260ff846101000362000c6f60201b620016201760201c565b8211155b606462000785565b62000bae83821c156101b462000785565b80820390821102900390565b828054600181600116156101000203166002900490600052602060002090601f016020900481019282601f1062000cbe57805160ff191683800117855562000cee565b8280016001018555821562000cee579182015b8281111562000cee57825182559160200191906001019062000cd1565b5062000cfc92915062000d00565b5090565b5b8082111562000cfc576000815560010162000d01565b8051620005b18162001059565b600082601f83011262000d35578081fd5b81516001600160401b0381111562000d4b578182fd5b602062000d61601f8301601f1916820162001026565b9250818352848183860101111562000d7857600080fd5b60005b8281101562000d9857848101820151848201830152810162000d7b565b8281111562000daa5760008284860101525b50505092915050565b60006020828403121562000dc5578081fd5b815162000dd28162001059565b9392505050565b60006020828403121562000deb578081fd5b5051919050565b60006020828403121562000e04578081fd5b81516001600160401b038082111562000e1b578283fd5b818401915061018080838703121562000e32578384fd5b62000e3d8162001026565b905062000e4b868462000d17565b815260208301518281111562000e5f578485fd5b62000e6d8782860162000d24565b60208301525060408301518281111562000e85578485fd5b62000e938782860162000d24565b60408301525062000ea8866060850162000d17565b606082015262000ebc866080850162000d17565b608082015262000ed08660a0850162000d17565b60a082015260c083015160c082015260e083015160e082015261010080840151818301525061012080840151818301525061014062000f128782860162000d17565b90820152610160838101518381111562000f2a578586fd5b62000f388882870162000d24565b918301919091525095945050505050565b60006020828403121562000f5b578081fd5b815160ff8116811462000dd2578182fd5b60006060820185835260206060818501528186518084526080860191508288019350845b8181101562000fb85762000fa585516200104d565b8352938301939183019160010162000f90565b505084810360408601528551808252908201925081860190845b8181101562000ac75762000fe783516200104d565b8552938301939183019160010162000fd2565b60208101600383106200100957fe5b91905290565b90815260200190565b918252602082015260400190565b6040518181016001600160401b03811182821017156200104557600080fd5b604052919050565b6001600160a01b031690565b6001600160a01b038116811462000ae757600080fd5b60805160a05160c05160e0516101005160601c6101205160601c61014051610160516101805160601c6101a0516101c05160601c6101e05160601c6102005160601c610220516102405161026051610280516102a05160601c61477a62001209600039806118435250806107f45250806107905280612a81525080610718528061081c5280610c515280612efc528061308552806131bd52806132c85280613445528061357d5250806107b252806109bc5280610c175280612ec8528061300a528061305152806131475280613189528061329452806133cf5280613411528061350752806135495250806113f852806126eb52806127b75280612aa75280612e7d5280612f96528061324a528061335b5250806109e052806110ee5280611ab15280611b5052806126a2528061276e5280612a465280612e3e5280612f4052806130d3528061320b528061330c52806134935250806111cc5250806109495250508061181d5250806117f9525080610fd1525080610fad525080610f5d5250806123df525080612421525080612400525061477a6000f3fe608060405234801561001057600080fd5b506004361061032b5760003560e01c80637ecebe00116101b2578063a457c2d7116100f9578063d505accf116100a2578063de82cd341161007c578063de82cd34146105e8578063ed24911d146105f0578063f174e241146105f8578063f5431aa8146106005761032b565b8063d505accf146105af578063d5c096c4146105c2578063dd62ed3e146105d55761032b565b8063b35056b8116100d3578063b35056b814610597578063b7b814fc1461059f578063d2946c2b146105a75761032b565b8063a457c2d714610569578063a9059cbb1461057c578063aaabadc51461058f5761032b565b8063893d20e81161015b57806395d89b411161013557806395d89b411461053b5780639d2c110c146105435780639f11080e146105565761032b565b8063893d20e8146105185780638d928af81461052057806390193b7c146105285761032b565b80638456cb591161018c5780638456cb59146104fd578063851c1bb31461050557806387ec6817146104675761032b565b80637ecebe00146104da5780638129fc1c146104ed57806382687a56146104f55761032b565b8063395093511161027657806355c676281161021f578063679aefce116101f9578063679aefce1461049e57806370a08231146104a657806374f3b009146104b95761032b565b806355c676281461045f5780636028bfd41461046757806363fe3b56146104885761032b565b80634de046d5116102505780634de046d51461043a57806354a844ba1461044f57806354fd4d50146104575761032b565b806339509351146104175780633f4ba83a1461042a5780634d64cd74146104325761032b565b80631dd746ea116102d85780633644e515116102b25780633644e515146103f257806338e9922e146103fa57806338fff2d01461040f5761032b565b80631dd746ea146103b557806323b872dd146103ca578063313ce567146103dd5761032b565b806316b8d6ff1161030957806316b8d6ff1461038e57806318160ddd146103965780631c0de0511461039e5761032b565b806301ec954a1461033057806306fdde0314610359578063095ea7b31461036e575b600080fd5b61034361033e3660046140ae565b610608565b6040516103509190614441565b60405180910390f35b610361610668565b6040516103509190614685565b61038161037c366004613e80565b6106ff565b604051610350919061441e565b610343610716565b61034361073a565b6103a6610740565b60405161035093929190614429565b6103bd610769565b60405161035091906143e6565b6103816103d8366004613dd0565b610877565b6103e56108ed565b60405161035091906146bf565b6103436108f6565b61040d61040836600461416b565b610905565b005b610343610947565b610381610425366004613e80565b61096b565b61040d6109a6565b6103436109ba565b6104426109de565b604051610350919061433b565b61040d610a02565b610361610a56565b610343610ab7565b61047a610475366004613faf565b610aca565b604051610350929190614698565b610490610ae8565b6040516103509291906146b1565b610343610b26565b6103436104b4366004613d7c565b610cbb565b6104cc6104c7366004613faf565b610cda565b6040516103509291906143f9565b6103436104e8366004613d7c565b610d9c565b61040d610da7565b610343610f42565b61040d610f47565b610343610513366004614052565b610f59565b610442610fab565b610442610fcf565b610343610536366004613d7c565b610ff3565b61036161100e565b61034361055136600461411f565b61106f565b61040d610564366004614183565b6110a8565b610381610577366004613e80565b61111a565b61038161058a366004613e80565b611158565b610442611165565b61038161116f565b61040d611180565b6104426111ca565b61040d6105bd366004613e10565b6111ee565b6104cc6105d0366004613faf565b61126f565b6103436105e3366004613d98565b611306565b610343611343565b6103436113ec565b6104426113f6565b61034361141a565b6000846080015161063561061a610fcf565b6001600160a01b0316336001600160a01b03161460cd61162c565b61064a610640610947565b82146101f461162c565b61065261163a565b61065e8686868661164d565b9695505050505050565b60038054604080516020601f60026000196101006001881615020190951694909404938401819004810282018101909252828152606093909290918301828280156106f45780601f106106c9576101008083540402835291602001916106f4565b820191906000526020600020905b8154815290600101906020018083116106d757829003601f168201915b505050505090505b90565b600061070c338484611772565b5060015b92915050565b7f000000000000000000000000000000000000000000000000000000000000000090565b60025490565b600080600061074d6117da565b1592506107586117f7565b915061076261181b565b9050909192565b604080516003808252608082019092526060918291906020820183803683370190505090507f0000000000000000000000000000000000000000000000000000000000000000817f0000000000000000000000000000000000000000000000000000000000000000815181106107db57fe5b6020026020010181815250506108196107f261183f565b7f00000000000000000000000000000000000000000000000000000000000000009061191b565b817f00000000000000000000000000000000000000000000000000000000000000008151811061084557fe5b602002602001018181525050670de0b6b3a76400008160008151811061086757fe5b6020908102919091010152905090565b6000806108848533611306565b90506108a8336001600160a01b03871614806108a05750838210155b61019e61162c565b6108b3858585611953565b336001600160a01b038616148015906108ce57506000198114155b156108e0576108e08533858403611772565b60019150505b9392505050565b60055460ff1690565b60006109006113ec565b905090565b61090d611a33565b610915611a7c565b600080610920610ae8565b915091506109396109318383611a8c565b61014f61162c565b61094283611b93565b505050565b7f000000000000000000000000000000000000000000000000000000000000000090565b3360008181526001602090815260408083206001600160a01b0387168452909152812054909161070c9185906109a19086611c0b565b611772565b6109ae611a33565b6109b86000611c1d565b565b7f000000000000000000000000000000000000000000000000000000000000000090565b7f000000000000000000000000000000000000000000000000000000000000000090565b610a0a611a33565b610a12611cae565b610a1c6001611cc2565b7feff3d4d215b42bf0960be9c6d5e05c22cba4df6627a3a523e2acee733b5854c86001604051610a4c919061441e565b60405180910390a1565b60098054604080516020601f60026000196101006001881615020190951694909404938401819004810282018101909252828152606093909290918301828280156106f45780601f106106c9576101008083540402835291602001916106f4565b6008546000906109009060c0603f611d04565b60006060610adc888785611d13611d2a565b97509795505050505050565b6008546000908190670de0b6b3a7640000610b0582602080611d04565b029250670de0b6b3a7640000610b1e8260406020611d04565b029150509091565b600080610b31610947565b90506060610b3d610fcf565b6001600160a01b031663f94d4668836040518263ffffffff1660e01b8152600401610b689190614441565b60006040518083038186803b158015610b8057600080fd5b505afa158015610b94573d6000803e3d6000fd5b505050506040513d6000823e601f3d908101601f19168201604052610bbc9190810190613eab565b50915050610bd181610bcc610769565b611e91565b600080610bdc610ae8565b91509150610be8613aed565b6040518060600160405280610bfb610ab7565b81526020018481526020018381525090506000610c87610c4e867f000000000000000000000000000000000000000000000000000000000000000081518110610c4057fe5b602002602001015184611efa565b867f000000000000000000000000000000000000000000000000000000000000000081518110610c7a57fe5b6020026020010151611f5b565b9050610cb0610ca986600081518110610c9c57fe5b6020026020010151611f67565b8290611f7b565b965050505050505090565b6001600160a01b0381166000908152602081905260409020545b919050565b60608088610ce961061a610fcf565b610cf4610640610947565b6000610cff85611fd2565b15610d2757610d0c612001565b610d1e88610d1861073a565b87612014565b94509050610d3f565b610d2f61163a565b610d3a8a8987611d13565b945090505b610d498a8261210a565b835167ffffffffffffffff81118015610d6157600080fd5b50604051908082528060200260200182016040528015610d8b578160200160208202803683370190505b509250505097509795505050505050565b600061071082610ff3565b6000610db1610947565b90506060610dbd610fcf565b6001600160a01b031663f94d4668836040518263ffffffff1660e01b8152600401610de89190614441565b60006040518083038186803b158015610e0057600080fd5b505afa158015610e14573d6000803e3d6000fd5b505050506040513d6000823e601f3d908101601f19168201604052610e3c9190810190613eab565b505060408051600380825260808201909252919250606091906020820183803683370190505090506dffffffffffffffffffffffffffff81600081518110610e8057fe5b602002602001018181525050610e94613b0e565b6040518060800160405280610ea8856106fc565b8152602001838152602001604051806020016040528060008152508152602001600015158152509050610ed9610fcf565b6001600160a01b031663b95cac28853030856040518563ffffffff1660e01b8152600401610f0a9493929190614469565b600060405180830381600087803b158015610f2457600080fd5b505af1158015610f38573d6000803e3d6000fd5b5050505050505050565b600090565b610f4f611a33565b6109b86001611c1d565b60007f000000000000000000000000000000000000000000000000000000000000000082604051602001610f8e9291906142c5565b604051602081830303815290604052805190602001209050919050565b7f000000000000000000000000000000000000000000000000000000000000000090565b7f000000000000000000000000000000000000000000000000000000000000000090565b6001600160a01b031660009081526006602052604090205490565b60048054604080516020601f60026000196101006001881615020190951694909404938401819004810282018101909252828152606093909290918301828280156106f45780601f106106c9576101008083540402835291602001916106f4565b6000836080015161108161061a610fcf565b61108c610640610947565b61109461163a565b61109f858585612114565b95945050505050565b6110b0611a33565b6110b8611a7c565b6000806110c3610ae8565b915091506110d46109318383611a8c565b6110e96110e18585611a8c565b61015761162c565b6111147f00000000000000000000000000000000000000000000000000000000000000008585612121565b50505050565b6000806111273385611306565b90508083106111415761113c33856000611772565b61114e565b61114e3385858403611772565b5060019392505050565b600061070c338484611953565b60006109006121f7565b6008546000906109009060ff612271565b611188611a33565b611190612001565b61119a6000611cc2565b7feff3d4d215b42bf0960be9c6d5e05c22cba4df6627a3a523e2acee733b5854c86000604051610a4c919061441e565b7f000000000000000000000000000000000000000000000000000000000000000090565b60007f6e71edae12b1b97f4d1f60370fef10105fa2faae0126114a169c64845d6126c988888861121d8c610ff3565b8960405160200161123396959493929190614556565b604051602081830303815290604052805190602001209050611264888261125b878787612278565b886101f86122b7565b610f38888888611772565b6060808861127e61061a610fcf565b611289610640610947565b600061129361163a565b61129b61073a565b6112ed576112aa8a8a8761230e565b945090506112c36112b9610f42565b82101560cc61162c565b6112d560006112d0610f42565b6123a6565b6112e8896112e1610f42565b83036123a6565b610d49565b6112f88a8987611d13565b94509050610d4989826123a6565b6000611310610fcf565b6001600160a01b0316826001600160a01b031614156113325750600019610710565b61133c83836123b0565b9050610710565b6000806000611350610fcf565b6001600160a01b031663b05f8e48611366610947565b306040518363ffffffff1660e01b815260040161138492919061463c565b60806040518083038186803b15801561139c57600080fd5b505afa1580156113b0573d6000803e3d6000fd5b505050506040513d601f19601f820116820180604052508101906113d491906141a4565b5050915091506113e5818301611f67565b9250505090565b60006109006123db565b7f000000000000000000000000000000000000000000000000000000000000000090565b600061090061183f565b600061142f836115d9565b6060835160010167ffffffffffffffff8111801561144c57600080fd5b50604051908082528060200260200182016040528015611476578160200160208202803683370190505b509050308160008151811061148757fe5b60200260200101906001600160a01b031690816001600160a01b03168152505060005b84518110156114f6578481815181106114bf57fe5b60200260200101518282600101815181106114d657fe5b6001600160a01b03909216602092830291909101909101526001016114aa565b506060835160010167ffffffffffffffff8111801561151457600080fd5b5060405190808252806020026020018201604052801561153e578160200160208202803683370190505b50905060008160008151811061155057fe5b60200260200101906001600160a01b031690816001600160a01b03168152505060005b84518110156115bf5784818151811061158857fe5b602002602001015182826001018151811061159f57fe5b6001600160a01b0390921660209283029190910190910152600101611573565b506115cc87878484612478565b925050505b949350505050565b806115e381612581565b5050565b60006115f783831115600161162c565b50900390565b600061160a8484846125fa565b506001901b60001901811b1992909216911b1790565b80820390821102900390565b816115e3576115e381612640565b6109b86116456117da565b61019261162c565b60006116696003841080156116625750600383105b606461162c565b6060611673610769565b905061167f8582611e91565b60008061168a610ae8565b91509150611696613aed565b60405180606001604052806116a9610ab7565b81526020810185905260400183905290506000895160018111156116c957fe5b141561172d576116f089606001518589815181106116e357fe5b602002602001015161266a565b60608a015260006117028a8a84612676565b90506117218186898151811061171457fe5b602002602001015161273d565b955050505050506115d1565b61174189606001518588815181106116e357fe5b60608a015260006117538a8a84612749565b905061172181868a8151811061176557fe5b60200260200101516127fe565b6001600160a01b0380841660008181526001602090815260408083209487168084529490915290819020849055517f8c5be1e5ebec7d5bd14f71427d1e84f3dd0314c0f7b2291e5b200ac8c7c3b925906117cd908590614441565b60405180910390a3505050565b60006117e461181b565b42118061090057505060075460ff161590565b7f000000000000000000000000000000000000000000000000000000000000000090565b7f000000000000000000000000000000000000000000000000000000000000000090565b60007f00000000000000000000000000000000000000000000000000000000000000006001600160a01b031663788c6bfe6040518163ffffffff1660e01b815260040160206040518083038186803b15801561189a57600080fd5b505afa9250505080156118ca575060408051601f3d908101601f191682019092526118c791810190613f97565b60015b61190d573d8080156118f8576040519150601f19603f3d011682016040523d82523d6000602084013e6118fd565b606091505b506119078161280a565b506106fc565b633b9aca00900490506106fc565b600082820261193f84158061193857508385838161193557fe5b04145b600361162c565b670de0b6b3a7640000815b04949350505050565b61196a6001600160a01b038416151561019861162c565b6119816001600160a01b038316151561019961162c565b61198c838383610942565b6001600160a01b0383166000908152602081905260409020546119b290826101a0612891565b6001600160a01b0380851660009081526020819052604080822093909355908416815220546119e19082611c0b565b6001600160a01b0380841660008181526020819052604090819020939093559151908516907fddf252ad1be2c89b69c2b068fc378daa952ba7f163c4a11628f55a4df523b3ef906117cd908590614441565b6000611a626000357fffffffff0000000000000000000000000000000000000000000000000000000016610f59565b9050611a79611a7182336128a7565b61019161162c565b50565b6109b8611a87610fcf565b612990565b6000806000611a99610fcf565b6001600160a01b031663b05f8e48611aaf610947565b7f00000000000000000000000000000000000000000000000000000000000000006040518363ffffffff1660e01b8152600401611aed92919061463c565b60806040518083038186803b158015611b0557600080fd5b505afa158015611b19573d6000803e3d6000fd5b505050506040513d601f19601f82011682018060405250810190611b3d91906141a4565b5050915091506000611b79828401611b747f0000000000000000000000000000000000000000000000000000000000000000612a42565b61266a565b905085811015801561065e57509390931115949350505050565b611ba664e8d4a5100082101560cb61162c565b611bbc67016345785d8a000082111560ca61162c565b600854611bcd908260c0603f6115fd565b6008556040517fa9ba3ffe0b6c366b81232caab38605a0699ad5398d6cce76f91ee809e322dafc90611c00908390614441565b60405180910390a150565b60008282016108e6848210158361162c565b8015611c3d57611c38611c2e6117f7565b421061019361162c565b611c52565b611c52611c4861181b565b42106101a961162c565b600780547fffffffffffffffffffffffffffffffffffffffffffffffffffffffffffffff00168215151790556040517f9e3a5e37224532dea67b89face185703738a228a6e8a23dee546960180d3be6490611c0090839061441e565b6109b8611cb961116f565b156101b561162c565b600854611cd1908260ff612b1c565b6008556040517feff3d4d215b42bf0960be9c6d5e05c22cba4df6627a3a523e2acee733b5854c890611c0090839061441e565b6001901b6000190191901c1690565b60006060611d226103e6612640565b935093915050565b333014611e19576000306001600160a01b0316600036604051611d4e9291906142f5565b6000604051808303816000865af19150503d8060008114611d8b576040519150601f19603f3d011682016040523d82523d6000602084013e611d90565b606091505b505090508060008114611d9f57fe5b60046000803e6000517fffffffff00000000000000000000000000000000000000000000000000000000167f43adbafb000000000000000000000000000000000000000000000000000000008114611dfb573d6000803e3d6000fd5b506020600460003e604060205260243d03602460403e601c3d016000f35b60006060611e2c8686868663ffffffff16565b8051601f1982018390526343adbafb7fffffffffffffffffffffffffffffffffffffffffffffffffffffffffffffffc083015291935091506020027fffffffffffffffffffffffffffffffffffffffffffffffffffffffffffffffdc82016044820181fd5b81518151611ea0908290612b2b565b60005b8181101561111457611edb848281518110611eba57fe5b6020026020010151848381518110611ece57fe5b602002602001015161191b565b848281518110611ee757fe5b6020908102919091010152600101611ea3565b60008160200151831015611f335781516020830151600091611f1f918690039061191b565b9050611f2b84826115e7565b915050610710565b81604001518311611f45575081610710565b81516040830151600091611f1f9186039061191b565b60006108e68383611c0b565b600061071082611f7561073a565b906115e7565b6000611f8a821515600461162c565b670de0b6b3a76400008302611fbc841580611fb55750670de0b6b3a7640000858381611fb257fe5b04145b600561162c565b6001836001830304018115150291505092915050565b6000808251118015610710575060ff801682806020019051810190611ff791906141e4565b60ff161492915050565b6109b861200c61116f565b6101b661162c565b60006060600061202384612b38565b90506060865167ffffffffffffffff8111801561203f57600080fd5b50604051908082528060200260200182016040528015612069578160200160208202803683370190505b5090506000612076610f42565b90506000612089898381518110610c9c57fe5b905060006120978583612b4e565b905060005b8a518110156120f957838114156120b45760006120da565b6120da828c83815181106120c457fe5b602002602001015161191b90919063ffffffff16565b8582815181106120e657fe5b602090810291909101015260010161209c565b509399929850919650505050505050565b6115e38282612b8e565b60006108e66103e6612640565b6121308183111561014c61162c565b61214b6b0de0b6b39983494c589c000082111561014d61162c565b612163670de0b6b3a7640000825b061561016161162c565b612175670de0b6b3a764000083612159565b6121aa670de0b6b3a76400008204604060206121a2670de0b6b3a7640000876008549190046020806115fd565b9291906115fd565b6008556040516001600160a01b038416907fd0e27a0d0c2cb09280fa5e4487315455b32afcdcf012dc35b6ef2a0e3c4d1280906121ea90859085906146b1565b60405180910390a2505050565b6000612201610fcf565b6001600160a01b031663aaabadc56040518163ffffffff1660e01b815260040160206040518083038186803b15801561223957600080fd5b505afa15801561224d573d6000803e3d6000fd5b505050506040513d601f19601f820116820180604052508101906109009190614092565b1c60011690565b60408051604180825260808201909252606091829190602082018180368337019050509050836020820152826040820152846060820153949350505050565b60006122c285612c5a565b90506122d86122d2878387612c76565b8361162c565b6122e7428410156101b861162c565b5050506001600160a01b039092166000908152600660205260409020805460010190555050565b600060606123296001600160a01b038616301461015661162c565b6123406001600160a01b038516301461015661162c565b604080516003808252608082019092526dffffffffffffffffffffffffffff91606091906020820183803683370190505090506dffffffffffffffffffffffffffff8160008151811061238f57fe5b602090810291909101015290969095509350505050565b6115e38282612d25565b6001600160a01b03918216600090815260016020908152604080832093909416825291909152205490565b60007f00000000000000000000000000000000000000000000000000000000000000007f00000000000000000000000000000000000000000000000000000000000000007f0000000000000000000000000000000000000000000000000000000000000000612448612db8565b3060405160200161245d959493929190614610565b60405160208183030381529060405280519060200120905090565b600080856001600160a01b03166309b2760f866040518263ffffffff1660e01b81526004016124a79190614671565b602060405180830381600087803b1580156124c157600080fd5b505af11580156124d5573d6000803e3d6000fd5b505050506040513d601f19601f820116820180604052508101906124f99190613f97565b6040517f66a9c7d20000000000000000000000000000000000000000000000000000000081529091506001600160a01b038716906366a9c7d2906125459084908890889060040161458a565b600060405180830381600087803b15801561255f57600080fd5b505af1158015612573573d6000803e3d6000fd5b509298975050505050505050565b60028151101561259057611a79565b60008160008151811061259f57fe5b602002602001015190506000600190505b82518110156109425760008382815181106125c757fe5b602002602001015190506125f0816001600160a01b0316846001600160a01b031610606561162c565b91506001016125b0565b6126096101008310606461162c565b61263160018210158015611662575061262760ff8461010003611620565b821115606461162c565b61094283821c156101b461162c565b611a79817f42414c0000000000000000000000000000000000000000000000000000000000612dbc565b60006108e6838361191b565b60208301516000906001600160a01b03163014156126a057612699848484612e37565b90506108e6565b7f00000000000000000000000000000000000000000000000000000000000000006001600160a01b031684602001516001600160a01b031614156126e957612699848484612f8f565b7f00000000000000000000000000000000000000000000000000000000000000006001600160a01b031684602001516001600160a01b03161415612732576126998484846130cc565b6108e6610135612640565b60006108e68383612b4e565b60408301516000906001600160a01b031630141561276c57612699848484613204565b7f00000000000000000000000000000000000000000000000000000000000000006001600160a01b031684604001516001600160a01b031614156127b557612699848484613354565b7f00000000000000000000000000000000000000000000000000000000000000006001600160a01b031684604001516001600160a01b031614156127325761269984848461348c565b60006108e68383611f7b565b805160208201517fffffffff00000000000000000000000000000000000000000000000000000000167f43adbafb0000000000000000000000000000000000000000000000000000000081147ffa61cc1200000000000000000000000000000000000000000000000000000000821417612885578160208401fd5b506115e3610165612640565b60006128a0848411158361162c565b5050900390565b600073ba1ba1ba1ba1ba1ba1ba1ba1ba1ba1ba1ba1ba1b6128c6610fab565b6001600160a01b0316141580156128e157506128e1836135c4565b15612909576128ee610fab565b6001600160a01b0316336001600160a01b0316149050610710565b6129116121f7565b6001600160a01b0316639be2a8848484306040518463ffffffff1660e01b81526004016129409392919061444a565b60206040518083038186803b15801561295857600080fd5b505afa15801561296c573d6000803e3d6000fd5b505050506040513d601f19601f8201168201806040525081019061133c9190613f77565b604080516000808252602082019092526060916129c3565b6129b0613b38565b8152602001906001900390816129a85790505b506040517f0e8e3e840000000000000000000000000000000000000000000000000000000081529091506001600160a01b03831690630e8e3e8490612a0c90849060040161434f565b600060405180830381600087803b158015612a2657600080fd5b505af1158015612a3a573d6000803e3d6000fd5b505050505050565b60007f00000000000000000000000000000000000000000000000000000000000000006001600160a01b0316826001600160a01b03161415612aa557507f0000000000000000000000000000000000000000000000000000000000000000610cd5565b7f00000000000000000000000000000000000000000000000000000000000000006001600160a01b0316826001600160a01b03161415612af157612aea6107f261183f565b9050610cd5565b6001600160a01b038216301415612b115750670de0b6b3a7640000610cd5565b610cd5610135612640565b6001811b1992909216911b1790565b6115e3818314606761162c565b6000818060200190518101906108e69190614200565b6000612b5d821515600461162c565b670de0b6b3a76400008302612b85841580611fb55750670de0b6b3a7640000858381611fb257fe5b82818161194a57fe5b612ba56001600160a01b038316151561019b61162c565b612bb182600083610942565b6001600160a01b038216600090815260208190526040902054612bd790826101b2612891565b6001600160a01b038316600090815260208190526040902055612c0a612c0582612bff61073a565b90613628565b613636565b60006001600160a01b0316826001600160a01b03167fddf252ad1be2c89b69c2b068fc378daa952ba7f163c4a11628f55a4df523b3ef83604051612c4e9190614441565b60405180910390a35050565b6000612c646123db565b82604051602001610f8e929190614305565b6000612c8882516041146101b961162c565b60208281015160408085015160608601518251600080825295019283905292939092811a91600190612cc1908990859088908890614653565b6020604051602081039080840390855afa158015612ce3573d6000803e3d6000fd5b5050604051601f1901519150506001600160a01b03811615801590612d195750876001600160a01b0316816001600160a01b0316145b98975050505050505050565b612d3160008383610942565b612d46612c0582612d4061073a565b90611c0b565b6001600160a01b038216600090815260208190526040902054612d699082611c0b565b6001600160a01b0383166000818152602081905260408082209390935591519091907fddf252ad1be2c89b69c2b068fc378daa952ba7f163c4a11628f55a4df523b3ef90612c4e908590614441565b4690565b7f08c379a000000000000000000000000000000000000000000000000000000000600090815260206004526007602452600a808404818106603090810160081b958390069590950190829004918206850160101b01602363ffffff0060e086901c160160181b0190930160c81b60445260e882901c90606490fd5b6000612ebd7f00000000000000000000000000000000000000000000000000000000000000006001600160a01b031685604001516001600160a01b03161480612eb557507f00000000000000000000000000000000000000000000000000000000000000006001600160a01b031685604001516001600160a01b0316145b61013561162c565b6115d18460600151847f000000000000000000000000000000000000000000000000000000000000000081518110612ef157fe5b6020026020010151857f000000000000000000000000000000000000000000000000000000000000000081518110612f2557fe5b6020026020010151612f3d87600081518110610c9c57fe5b867f00000000000000000000000000000000000000000000000000000000000000006001600160a01b03168a604001516001600160a01b031614612f835761363b612f87565b6136995b63ffffffff16565b6000612feb7f00000000000000000000000000000000000000000000000000000000000000006001600160a01b031685604001516001600160a01b03161480612eb5575060408501516001600160a01b0316301461013561162c565b60408401516001600160a01b03163014613046576130418460600151847f00000000000000000000000000000000000000000000000000000000000000008151811061303357fe5b602002602001015184613702565b6115d1565b6115d18460600151847f00000000000000000000000000000000000000000000000000000000000000008151811061307a57fe5b6020026020010151857f0000000000000000000000000000000000000000000000000000000000000000815181106130ae57fe5b60200260200101516130c687600081518110610c9c57fe5b86613732565b60006131287f00000000000000000000000000000000000000000000000000000000000000006001600160a01b031685604001516001600160a01b03161480612eb5575060408501516001600160a01b0316301461013561162c565b60408401516001600160a01b0316301461317e576130418460600151847f00000000000000000000000000000000000000000000000000000000000000008151811061317057fe5b602002602001015184613798565b6115d18460600151847f0000000000000000000000000000000000000000000000000000000000000000815181106131b257fe5b6020026020010151857f0000000000000000000000000000000000000000000000000000000000000000815181106131e657fe5b60200260200101516131fe87600081518110610c9c57fe5b866137d8565b60006132897f00000000000000000000000000000000000000000000000000000000000000006001600160a01b031685602001516001600160a01b03161480612eb557507f00000000000000000000000000000000000000000000000000000000000000006001600160a01b031685602001516001600160a01b03161461013561162c565b6115d18460600151847f0000000000000000000000000000000000000000000000000000000000000000815181106132bd57fe5b6020026020010151857f0000000000000000000000000000000000000000000000000000000000000000815181106132f157fe5b602002602001015161330987600081518110610c9c57fe5b867f00000000000000000000000000000000000000000000000000000000000000006001600160a01b03168a602001516001600160a01b03161461334f5761383f612f87565b613896565b60006133b07f00000000000000000000000000000000000000000000000000000000000000006001600160a01b031685602001516001600160a01b03161480612eb5575060208501516001600160a01b0316301461013561162c565b60208401516001600160a01b03163014613406576130418460600151847f0000000000000000000000000000000000000000000000000000000000000000815181106133f857fe5b602002602001015184613900565b6115d18460600151847f00000000000000000000000000000000000000000000000000000000000000008151811061343a57fe5b6020026020010151857f00000000000000000000000000000000000000000000000000000000000000008151811061346e57fe5b602002602001015161348687600081518110610c9c57fe5b8661392a565b60006134e87f00000000000000000000000000000000000000000000000000000000000000006001600160a01b031685602001516001600160a01b03161480612eb5575060208501516001600160a01b0316301461013561162c565b60208401516001600160a01b0316301461353e576130418460600151847f00000000000000000000000000000000000000000000000000000000000000008151811061353057fe5b602002602001015184613979565b6115d18460600151847f00000000000000000000000000000000000000000000000000000000000000008151811061357257fe5b6020026020010151857f0000000000000000000000000000000000000000000000000000000000000000815181106135a657fe5b60200260200101516135be87600081518110610c9c57fe5b866139ae565b60006135ef7f9f11080e00000000000000000000000000000000000000000000000000000000610f59565b82148061071057506136207f38e9922e00000000000000000000000000000000000000000000000000000000610f59565b909114919050565b60006108e683836001612891565b600255565b6000806136488684611efa565b905060006136568287611f5b565b90506000613664868a6115e7565b9050600061367f84611f756136798587613a02565b8a613a1c565b905061368b88826115e7565b9a9950505050505050505050565b6000806136a68684611efa565b905060006136b48287611f5b565b905060006136cb6136c5838b613a02565b87613a3d565b905060006136d984836115e7565b905060006136e78288613a5d565b90506136f38a826115e7565b9b9a5050505050505050505050565b60008061370f8484611efa565b905060006137266137208688611c0b565b85611efa565b905061065e81836115e7565b60008261374a576137438683611efa565b905061109f565b60006137568684611efa565b90506000613767613720888a611c0b565b9050600061377582846115e7565b905060006137838489611f5b565b905061368b6137928884613a02565b82613a3d565b6000806137a58484611efa565b905060006137b382876115e7565b905060006137c18286613a5d565b90506137cd86826115e7565b979650505050505050565b6000826137e657508461109f565b60006137f28684611efa565b905060006138008287611f5b565b9050600061380e878a611c0b565b9050600061381c8483611f5b565b9050600061383361382d8984613a02565b85613a3d565b90506136f381896115e7565b60008261384d57508461109f565b60006138598684611efa565b905060006138678287611f5b565b90506000613875868a611c0b565b9050600061388a84611f756136798587613a02565b905061368b81896115e7565b6000826138a7576137438683613a5d565b60006138b38684611efa565b905060006138c18287611f5b565b905060006138d86138d2838b613a02565b87613a1c565b905060006138e68483611c0b565b905060006138f48288613a5d565b90506136f3818b6115e7565b60008061390d8484611efa565b9050600061391e61372086886115e7565b905061065e82826115e7565b6000806139378684611efa565b90506000613948613720888a6115e7565b9050600061395683836115e7565b905060006139648489611f5b565b905061368b6139738884613a02565b82613a1c565b6000806139868484611efa565b905060006139948287611c0b565b905060006139a28286613a5d565b90506137cd81876115e7565b6000806139bb8684611efa565b905060006139c98287611f5b565b905060006139d7878a6115e7565b905060006139e58483611f5b565b905060006139f661382d8984613a02565b90506136f388826115e7565b60008282026108e684158061193857508385838161193557fe5b6000613a2b821515600461162c565b50811515600019909201046001010290565b6000613a4c821515600461162c565b818381613a5557fe5b049392505050565b60008160200151831015613aa657815161133c90613a8490670de0b6b3a764000090611c0b565b60208401518451613aa091613a99919061191b565b8690611c0b565b90612b4e565b81604001518311613ab8575081610710565b815161133c90613ad190670de0b6b3a7640000906115e7565b60408401518451613aa091613ae6919061191b565b86906115e7565b60405180606001604052806000815260200160008152602001600081525090565b60405180608001604052806060815260200160608152602001606081526020016000151581525090565b6040805160a081019091528060008152600060208201819052604082018190526060820181905260809091015290565b803561071081614720565b600082601f830112613b83578081fd5b8135613b96613b91826146f4565b6146cd565b818152915060208083019084810181840286018201871015613bb757600080fd5b60005b84811015613bd657813584529282019290820190600101613bba565b505050505092915050565b600082601f830112613bf1578081fd5b8151613bff613b91826146f4565b818152915060208083019084810181840286018201871015613c2057600080fd5b60005b84811015613bd657815184529282019290820190600101613c23565b600082601f830112613c4f578081fd5b813567ffffffffffffffff811115613c65578182fd5b613c786020601f19601f840116016146cd565b9150808252836020828501011115613c8f57600080fd5b8060208401602084013760009082016020015292915050565b80356002811061071057600080fd5b6000610120808385031215613cca578182fd5b613cd3816146cd565b915050613ce08383613ca8565b8152613cef8360208401613b68565b6020820152613d018360408401613b68565b6040820152606082013560608201526080820135608082015260a082013560a0820152613d318360c08401613b68565b60c0820152613d438360e08401613b68565b60e08201526101008083013567ffffffffffffffff811115613d6457600080fd5b613d7085828601613c3f565b82840152505092915050565b600060208284031215613d8d578081fd5b81356108e681614720565b60008060408385031215613daa578081fd5b8235613db581614720565b91506020830135613dc581614720565b809150509250929050565b600080600060608486031215613de4578081fd5b8335613def81614720565b92506020840135613dff81614720565b929592945050506040919091013590565b600080600080600080600060e0888a031215613e2a578283fd5b8735613e3581614720565b96506020880135613e4581614720565b955060408801359450606088013593506080880135613e6381614735565b9699959850939692959460a0840135945060c09093013592915050565b60008060408385031215613e92578182fd5b8235613e9d81614720565b946020939093013593505050565b600080600060608486031215613ebf578081fd5b835167ffffffffffffffff80821115613ed6578283fd5b818601915086601f830112613ee9578283fd5b8151613ef7613b91826146f4565b80828252602080830192508086018b828387028901011115613f17578788fd5b8796505b84871015613f42578051613f2e81614720565b845260019690960195928101928101613f1b565b508901519097509350505080821115613f59578283fd5b50613f6686828701613be1565b925050604084015190509250925092565b600060208284031215613f88578081fd5b815180151581146108e6578182fd5b600060208284031215613fa8578081fd5b5051919050565b600080600080600080600060e0888a031215613fc9578081fd5b873596506020880135613fdb81614720565b95506040880135613feb81614720565b9450606088013567ffffffffffffffff80821115614007578283fd5b6140138b838c01613b73565b955060808a0135945060a08a0135935060c08a0135915080821115614036578283fd5b506140438a828b01613c3f565b91505092959891949750929550565b600060208284031215614063578081fd5b81357fffffffff00000000000000000000000000000000000000000000000000000000811681146108e6578182fd5b6000602082840312156140a3578081fd5b81516108e681614720565b600080600080608085870312156140c3578182fd5b843567ffffffffffffffff808211156140da578384fd5b6140e688838901613cb7565b955060208701359150808211156140fb578384fd5b5061410887828801613b73565b949794965050505060408301359260600135919050565b600080600060608486031215614133578081fd5b833567ffffffffffffffff811115614149578182fd5b61415586828701613cb7565b9660208601359650604090950135949350505050565b60006020828403121561417c578081fd5b5035919050565b60008060408385031215614195578182fd5b50508035926020909101359150565b600080600080608085870312156141b9578182fd5b84519350602085015192506040850151915060608501516141d981614720565b939692955090935050565b6000602082840312156141f5578081fd5b81516108e681614735565b60008060408385031215614212578182fd5b825161421d81614735565b6020939093015192949293505050565b6001600160a01b03169052565b6000815180845260208085019450808401835b838110156142695781518752958201959082019060010161424d565b509495945050505050565b15159052565b60008151808452815b8181101561429f57602081850181015186830182015201614283565b818111156142b05782602083870101525b50601f01601f19169290920160200192915050565b9182527fffffffff0000000000000000000000000000000000000000000000000000000016602082015260240190565b6000828483379101908152919050565b7f190100000000000000000000000000000000000000000000000000000000000081526002810192909252602282015260420190565b6001600160a01b0391909116815260200190565b602080825282518282018190526000919060409081850190868401855b828110156143d957815180516004811061438257fe5b8552808701516143948887018261422d565b5085810151868601526060808201516143af8288018261422d565b5050608090810151906143c48682018361422d565b505060a093909301929085019060010161436c565b5091979650505050505050565b6000602082526108e6602083018461423a565b60006040825261440c604083018561423a565b828103602084015261109f818561423a565b901515815260200190565b92151583526020830191909152604082015260600190565b90815260200190565b9283526001600160a01b03918216602084015216604082015260600190565b600085825260206001600160a01b038087168285015280861660408501525060806060840152610100830184516080808601528181518084526101208701915084830193508592505b808310156144da576144c48451614714565b82529284019260019290920191908401906144b2565b508387015193507fffffffffffffffffffffffffffffffffffffffffffffffffffffffffffffff809250828682030160a0870152614518818561423a565b935050506040850151818584030160c0860152614535838261427a565b92505050606084015161454b60e0850182614274565b509695505050505050565b9586526001600160a01b0394851660208701529290931660408501526060840152608083019190915260a082015260c00190565b60006060820185835260206060818501528186518084526080860191508288019350845b818110156145d2576145c08551614714565b835293830193918301916001016145ae565b505084810360408601528551808252908201925081860190845b81811015612573576145fe8351614714565b855293830193918301916001016145ec565b9485526020850193909352604084019190915260608301526001600160a01b0316608082015260a00190565b9182526001600160a01b0316602082015260400190565b93845260ff9290921660208401526040830152606082015260800190565b602081016003831061467f57fe5b91905290565b6000602082526108e6602083018461427a565b6000838252604060208301526115d1604083018461423a565b918252602082015260400190565b60ff91909116815260200190565b60405181810167ffffffffffffffff811182821017156146ec57600080fd5b604052919050565b600067ffffffffffffffff82111561470a578081fd5b5060209081020190565b6001600160a01b031690565b6001600160a01b0381168114611a7957600080fd5b60ff81168114611a7957600080fdfea26469706673582212209d9a043c5469f9ae318713c223e3d4cae3b6dc6f5705cc6a4f84082c6bc18c3064736f6c63430007010033",
  "linkReferences": {},
  "deployedLinkReferences": {}
}