{
  "address": "0x9dF05a75cf0cD41E26262F072bDbE9A9B2178834",
  "abi": [
    {
      "inputs": [
        {
          "internalType": "address",
          "name": "admin",
          "type": "address"
        }
      ],
      "stateMutability": "nonpayable",
      "type": "constructor"
    },
    {
      "anonymous": false,
      "inputs": [
        {
          "indexed": true,
          "internalType": "bytes32",
          "name": "role",
          "type": "bytes32"
        },
        {
          "indexed": true,
          "internalType": "bytes32",
          "name": "previousAdminRole",
          "type": "bytes32"
        },
        {
          "indexed": true,
          "internalType": "bytes32",
          "name": "newAdminRole",
          "type": "bytes32"
        }
      ],
      "name": "RoleAdminChanged",
      "type": "event"
    },
    {
      "anonymous": false,
      "inputs": [
        {
          "indexed": true,
          "internalType": "bytes32",
          "name": "role",
          "type": "bytes32"
        },
        {
          "indexed": true,
          "internalType": "address",
          "name": "account",
          "type": "address"
        },
        {
          "indexed": true,
          "internalType": "address",
          "name": "sender",
          "type": "address"
        }
      ],
      "name": "RoleGranted",
      "type": "event"
    },
    {
      "anonymous": false,
      "inputs": [
        {
          "indexed": true,
          "internalType": "bytes32",
          "name": "role",
          "type": "bytes32"
        },
        {
          "indexed": true,
          "internalType": "address",
          "name": "account",
          "type": "address"
        },
        {
          "indexed": true,
          "internalType": "address",
          "name": "sender",
          "type": "address"
        }
      ],
      "name": "RoleRevoked",
      "type": "event"
    },
    {
      "inputs": [],
      "name": "DEFAULT_ADMIN_ROLE",
      "outputs": [
        {
          "internalType": "bytes32",
          "name": "",
          "type": "bytes32"
        }
      ],
      "stateMutability": "view",
      "type": "function"
    },
    {
      "inputs": [
        {
          "internalType": "bytes32",
          "name": "role",
          "type": "bytes32"
        }
      ],
      "name": "getRoleAdmin",
      "outputs": [
        {
          "internalType": "bytes32",
          "name": "",
          "type": "bytes32"
        }
      ],
      "stateMutability": "view",
      "type": "function"
    },
    {
      "inputs": [
        {
          "internalType": "bytes32",
          "name": "role",
          "type": "bytes32"
        },
        {
          "internalType": "uint256",
          "name": "index",
          "type": "uint256"
        }
      ],
      "name": "getRoleMember",
      "outputs": [
        {
          "internalType": "address",
          "name": "",
          "type": "address"
        }
      ],
      "stateMutability": "view",
      "type": "function"
    },
    {
      "inputs": [
        {
          "internalType": "bytes32",
          "name": "role",
          "type": "bytes32"
        }
      ],
      "name": "getRoleMemberCount",
      "outputs": [
        {
          "internalType": "uint256",
          "name": "",
          "type": "uint256"
        }
      ],
      "stateMutability": "view",
      "type": "function"
    },
    {
      "inputs": [
        {
          "internalType": "bytes32",
          "name": "role",
          "type": "bytes32"
        },
        {
          "internalType": "address",
          "name": "account",
          "type": "address"
        }
      ],
      "name": "grantRole",
      "outputs": [],
      "stateMutability": "nonpayable",
      "type": "function"
    },
    {
      "inputs": [
        {
          "internalType": "bytes32[]",
          "name": "roles",
          "type": "bytes32[]"
        },
        {
          "internalType": "address",
          "name": "account",
          "type": "address"
        }
      ],
      "name": "grantRoles",
      "outputs": [],
      "stateMutability": "nonpayable",
      "type": "function"
    },
    {
      "inputs": [
        {
          "internalType": "bytes32[]",
          "name": "roles",
          "type": "bytes32[]"
        },
        {
          "internalType": "address[]",
          "name": "accounts",
          "type": "address[]"
        }
      ],
      "name": "grantRolesToMany",
      "outputs": [],
      "stateMutability": "nonpayable",
      "type": "function"
    },
    {
      "inputs": [
        {
          "internalType": "bytes32",
          "name": "role",
          "type": "bytes32"
        },
        {
          "internalType": "address",
          "name": "account",
          "type": "address"
        }
      ],
      "name": "hasRole",
      "outputs": [
        {
          "internalType": "bool",
          "name": "",
          "type": "bool"
        }
      ],
      "stateMutability": "view",
      "type": "function"
    },
    {
      "inputs": [
        {
          "internalType": "bytes32",
          "name": "role",
          "type": "bytes32"
        },
        {
          "internalType": "address",
          "name": "account",
          "type": "address"
        }
      ],
      "name": "renounceRole",
      "outputs": [],
      "stateMutability": "nonpayable",
      "type": "function"
    },
    {
      "inputs": [
        {
          "internalType": "bytes32",
          "name": "role",
          "type": "bytes32"
        },
        {
          "internalType": "address",
          "name": "account",
          "type": "address"
        }
      ],
      "name": "revokeRole",
      "outputs": [],
      "stateMutability": "nonpayable",
      "type": "function"
    }
  ],
  "transactionHash": "0x330e8dec09b495d6d57e7b2b4ecccd4159943cb9a7746387d5488d59e6d772de",
  "args": [
    "0x34039007932688bCF393FFa32b14E52109C44552"
  ],
  "solcInputHash": "0a4fdc9962a9ccfb07bf1f8e7d3a38b7",
  "bytecode": "0x608060405234801561001057600080fd5b50604051610a78380380610a788339818101604052602081101561003357600080fd5b5051610040600082610046565b5061014b565b6100508282610054565b5050565b6000828152602081815260409091206100769183906105d96100c7821b17901c565b15610050576100836100e5565b6001600160a01b0316816001600160a01b0316837f2f8788117e7eff1d82e926ec794901d17c78024a50270940304540a733656f0d60405160405180910390a45050565b60006100dc836001600160a01b0384166100e9565b90505b92915050565b3390565b60006100f58383610133565b61012b575081546001818101845560008481526020808220909301849055845484825282860190935260409020919091556100df565b5060006100df565b60009081526001919091016020526040902054151590565b61091e8061015a6000396000f3fe608060405234801561001057600080fd5b50600436106100be5760003560e01c8063a217fddf11610076578063ca15c8731161005b578063ca15c8731461032e578063d547741f1461034b578063fcd7627e14610384576100be565b8063a217fddf146101ff578063a73cb2ab14610207576100be565b806336568abe116100a757806336568abe1461012d5780639010d07c1461016657806391d14854146101b2576100be565b8063248a9ca3146100c35780632f2ff15d146100f2575b600080fd5b6100e0600480360360208110156100d957600080fd5b503561043f565b60408051918252519081900360200190f35b61012b6004803603604081101561010857600080fd5b508035906020013573ffffffffffffffffffffffffffffffffffffffff16610454565b005b61012b6004803603604081101561014357600080fd5b508035906020013573ffffffffffffffffffffffffffffffffffffffff1661048e565b6101896004803603604081101561017c57600080fd5b50803590602001356104d7565b6040805173ffffffffffffffffffffffffffffffffffffffff9092168252519081900360200190f35b6101eb600480360360408110156101c857600080fd5b508035906020013573ffffffffffffffffffffffffffffffffffffffff166104f8565b604080519115158252519081900360200190f35b6100e0610510565b61012b6004803603604081101561021d57600080fd5b81019060208101813564010000000081111561023857600080fd5b82018360208201111561024a57600080fd5b8035906020019184602083028401116401000000008311171561026c57600080fd5b91908080602002602001604051908101604052809392919081815260200183836020028082843760009201919091525092959493602081019350359150506401000000008111156102bc57600080fd5b8201836020820111156102ce57600080fd5b803590602001918460208302840111640100000000831117156102f057600080fd5b919080806020026020016040519081016040528093929190818152602001838360200280828437600092019190915250929550610515945050505050565b6100e06004803603602081101561034457600080fd5b503561056a565b61012b6004803603604081101561036157600080fd5b508035906020013573ffffffffffffffffffffffffffffffffffffffff16610581565b61012b6004803603604081101561039a57600080fd5b8101906020810181356401000000008111156103b557600080fd5b8201836020820111156103c757600080fd5b803590602001918460208302840111640100000000831117156103e957600080fd5b9190808060200260200160405190810160405280939291908181526020018383602002808284376000920191909152509295505050903573ffffffffffffffffffffffffffffffffffffffff1691506105a89050565b60009081526020819052604090206002015490565b600082815260208190526040902060020154610477906104726105fb565b6104f8565b61048057600080fd5b61048a82826105ff565b5050565b6104966105fb565b73ffffffffffffffffffffffffffffffffffffffff168173ffffffffffffffffffffffffffffffffffffffff16146104cd57600080fd5b61048a8282610682565b60008281526020819052604081206104ef9083610705565b90505b92915050565b60008281526020819052604081206104ef9083610711565b600081565b61052182518251610733565b60005b82518110156105655761055d83828151811061053c57fe5b602002602001015183838151811061055057fe5b6020026020010151610454565b600101610524565b505050565b60008181526020819052604081206104f29061073f565b60008281526020819052604090206002015461059f906104726105fb565b6104cd57600080fd5b60005b8251811015610565576105d18382815181106105c357fe5b602002602001015183610454565b6001016105ab565b60006104ef8373ffffffffffffffffffffffffffffffffffffffff841661074a565b3390565b600082815260208190526040902061061790826105d9565b1561048a576106246105fb565b73ffffffffffffffffffffffffffffffffffffffff168173ffffffffffffffffffffffffffffffffffffffff16837f2f8788117e7eff1d82e926ec794901d17c78024a50270940304540a733656f0d60405160405180910390a45050565b600082815260208190526040902061069a9082610794565b1561048a576106a76105fb565b73ffffffffffffffffffffffffffffffffffffffff168173ffffffffffffffffffffffffffffffffffffffff16837ff6391f5c32d9c69d2a47ea670b442974b53935d1edc7fd64eb21e047a839171b60405160405180910390a45050565b60006104ef83836107b6565b60006104ef8373ffffffffffffffffffffffffffffffffffffffff84166107e8565b80821461048a57600080fd5b60006104f282610800565b600061075683836107e8565b61078c575081546001818101845560008481526020808220909301849055845484825282860190935260409020919091556104f2565b5060006104f2565b60006104ef8373ffffffffffffffffffffffffffffffffffffffff8416610804565b815460009082106107c657600080fd5b8260000182815481106107d557fe5b9060005260206000200154905092915050565b60009081526001919091016020526040902054151590565b5490565b600081815260018301602052604081205480156108de5783547fffffffffffffffffffffffffffffffffffffffffffffffffffffffffffffffff808301919081019060009087908390811061085557fe5b906000526020600020015490508087600001848154811061087257fe5b6000918252602080832090910192909255828152600189810190925260409020908401905586548790806108a257fe5b600190038181906000526020600020016000905590558660010160008781526020019081526020016000206000905560019450505050506104f2565b60009150506104f256fea26469706673582212206ab122cef8d0c2f3fd688833c8563d3842800b29737818fcf46cc25628c099d864736f6c63430007010033",
  "devdoc": {
    "kind": "dev",
    "methods": {
      "getRoleAdmin(bytes32)": {
        "details": "Returns the admin role that controls `role`. See {grantRole} and {revokeRole}. To change a role's admin, use {_setRoleAdmin}."
      },
      "getRoleMember(bytes32,uint256)": {
        "details": "Returns one of the accounts that have `role`. `index` must be a value between 0 and {getRoleMemberCount}, non-inclusive. Role bearers are not sorted in any particular way, and their ordering may change at any point. WARNING: When using {getRoleMember} and {getRoleMemberCount}, make sure you perform all queries on the same block. See the following https://forum.openzeppelin.com/t/iterating-over-elements-on-enumerableset-in-openzeppelin-contracts/2296[forum post] for more information."
      },
      "getRoleMemberCount(bytes32)": {
        "details": "Returns the number of accounts that have `role`. Can be used together with {getRoleMember} to enumerate all bearers of a role."
      },
      "grantRole(bytes32,address)": {
        "details": "Grants `role` to `account`. If `account` had not been already granted `role`, emits a {RoleGranted} event. Requirements: - the caller must have ``role``'s admin role."
      },
      "grantRoles(bytes32[],address)": {
        "details": "Grants multiple roles to a single account"
      },
      "grantRolesToMany(bytes32[],address[])": {
        "details": "Grants roles to a list of accounts"
      },
      "hasRole(bytes32,address)": {
        "details": "Returns `true` if `account` has been granted `role`."
      },
      "renounceRole(bytes32,address)": {
        "details": "Revokes `role` from the calling account. Roles are often managed via {grantRole} and {revokeRole}: this function's purpose is to provide a mechanism for accounts to lose their privileges if they are compromised (such as when a trusted device is misplaced). If the calling account had been granted `role`, emits a {RoleRevoked} event. Requirements: - the caller must be `account`."
      },
      "revokeRole(bytes32,address)": {
        "details": "Revokes `role` from `account`. If `account` had been granted `role`, emits a {RoleRevoked} event. Requirements: - the caller must have ``role``'s admin role."
      }
    },
    "version": 1
  },
  "userdoc": {
    "kind": "user",
    "methods": {},
    "version": 1
  },
  "storageLayout": {
    "storage": [
      {
        "astId": 45,
        "contract": "contracts/vault/Authorizer.sol:Authorizer",
        "label": "_roles",
        "offset": 0,
        "slot": "0",
        "type": "t_mapping(t_bytes32,t_struct(RoleData)41_storage)"
      }
    ],
    "types": {
      "t_array(t_bytes32)dyn_storage": {
        "base": "t_bytes32",
        "encoding": "dynamic_array",
        "label": "bytes32[]",
        "numberOfBytes": "32"
      },
      "t_bytes32": {
        "encoding": "inplace",
        "label": "bytes32",
        "numberOfBytes": "32"
      },
      "t_mapping(t_bytes32,t_struct(RoleData)41_storage)": {
        "encoding": "mapping",
        "key": "t_bytes32",
        "label": "mapping(bytes32 => struct AccessControl.RoleData)",
        "numberOfBytes": "32",
        "value": "t_struct(RoleData)41_storage"
      },
      "t_mapping(t_bytes32,t_uint256)": {
        "encoding": "mapping",
        "key": "t_bytes32",
        "label": "mapping(bytes32 => uint256)",
        "numberOfBytes": "32",
        "value": "t_uint256"
      },
      "t_struct(AddressSet)2032_storage": {
        "encoding": "inplace",
        "label": "struct EnumerableSet.AddressSet",
        "members": [
          {
            "astId": 2031,
            "contract": "contracts/vault/Authorizer.sol:Authorizer",
            "label": "_inner",
            "offset": 0,
            "slot": "0",
            "type": "t_struct(Set)1767_storage"
          }
        ],
        "numberOfBytes": "64"
      },
      "t_struct(RoleData)41_storage": {
        "encoding": "inplace",
        "label": "struct AccessControl.RoleData",
        "members": [
          {
            "astId": 38,
            "contract": "contracts/vault/Authorizer.sol:Authorizer",
            "label": "members",
            "offset": 0,
            "slot": "0",
            "type": "t_struct(AddressSet)2032_storage"
          },
          {
            "astId": 40,
            "contract": "contracts/vault/Authorizer.sol:Authorizer",
            "label": "adminRole",
            "offset": 0,
            "slot": "2",
            "type": "t_bytes32"
          }
        ],
        "numberOfBytes": "96"
      },
      "t_struct(Set)1767_storage": {
        "encoding": "inplace",
        "label": "struct EnumerableSet.Set",
        "members": [
          {
            "astId": 1762,
            "contract": "contracts/vault/Authorizer.sol:Authorizer",
            "label": "_values",
            "offset": 0,
            "slot": "0",
            "type": "t_array(t_bytes32)dyn_storage"
          },
          {
            "astId": 1766,
            "contract": "contracts/vault/Authorizer.sol:Authorizer",
            "label": "_indexes",
            "offset": 0,
            "slot": "1",
            "type": "t_mapping(t_bytes32,t_uint256)"
          }
        ],
        "numberOfBytes": "64"
      },
      "t_uint256": {
        "encoding": "inplace",
        "label": "uint256",
        "numberOfBytes": "32"
      }
    }
  }
}