{
  "address": "0xccc0c37D403aa05337A8624B5eE46E47A2A92603",
  "abi": [
    {
      "inputs": [
        {
          "internalType": "address",
          "name": "admin",
          "type": "address"
        }
      ],
      "stateMutability": "nonpayable",
      "type": "constructor"
    },
    {
      "anonymous": false,
      "inputs": [
        {
          "indexed": true,
          "internalType": "bytes32",
          "name": "role",
          "type": "bytes32"
        },
        {
          "indexed": true,
          "internalType": "bytes32",
          "name": "previousAdminRole",
          "type": "bytes32"
        },
        {
          "indexed": true,
          "internalType": "bytes32",
          "name": "newAdminRole",
          "type": "bytes32"
        }
      ],
      "name": "RoleAdminChanged",
      "type": "event"
    },
    {
      "anonymous": false,
      "inputs": [
        {
          "indexed": true,
          "internalType": "bytes32",
          "name": "role",
          "type": "bytes32"
        },
        {
          "indexed": true,
          "internalType": "address",
          "name": "account",
          "type": "address"
        },
        {
          "indexed": true,
          "internalType": "address",
          "name": "sender",
          "type": "address"
        }
      ],
      "name": "RoleGranted",
      "type": "event"
    },
    {
      "anonymous": false,
      "inputs": [
        {
          "indexed": true,
          "internalType": "bytes32",
          "name": "role",
          "type": "bytes32"
        },
        {
          "indexed": true,
          "internalType": "address",
          "name": "account",
          "type": "address"
        },
        {
          "indexed": true,
          "internalType": "address",
          "name": "sender",
          "type": "address"
        }
      ],
      "name": "RoleRevoked",
      "type": "event"
    },
    {
      "inputs": [],
      "name": "DEFAULT_ADMIN_ROLE",
      "outputs": [
        {
          "internalType": "bytes32",
          "name": "",
          "type": "bytes32"
        }
      ],
      "stateMutability": "view",
      "type": "function"
    },
    {
      "inputs": [
        {
          "internalType": "bytes32",
          "name": "role",
          "type": "bytes32"
        }
      ],
      "name": "getRoleAdmin",
      "outputs": [
        {
          "internalType": "bytes32",
          "name": "",
          "type": "bytes32"
        }
      ],
      "stateMutability": "view",
      "type": "function"
    },
    {
      "inputs": [
        {
          "internalType": "bytes32",
          "name": "role",
          "type": "bytes32"
        },
        {
          "internalType": "uint256",
          "name": "index",
          "type": "uint256"
        }
      ],
      "name": "getRoleMember",
      "outputs": [
        {
          "internalType": "address",
          "name": "",
          "type": "address"
        }
      ],
      "stateMutability": "view",
      "type": "function"
    },
    {
      "inputs": [
        {
          "internalType": "bytes32",
          "name": "role",
          "type": "bytes32"
        }
      ],
      "name": "getRoleMemberCount",
      "outputs": [
        {
          "internalType": "uint256",
          "name": "",
          "type": "uint256"
        }
      ],
      "stateMutability": "view",
      "type": "function"
    },
    {
      "inputs": [
        {
          "internalType": "bytes32",
          "name": "role",
          "type": "bytes32"
        },
        {
          "internalType": "address",
          "name": "account",
          "type": "address"
        }
      ],
      "name": "grantRole",
      "outputs": [],
      "stateMutability": "nonpayable",
      "type": "function"
    },
    {
      "inputs": [
        {
          "internalType": "bytes32[]",
          "name": "roles",
          "type": "bytes32[]"
        },
        {
          "internalType": "address",
          "name": "account",
          "type": "address"
        }
      ],
      "name": "grantRoles",
      "outputs": [],
      "stateMutability": "nonpayable",
      "type": "function"
    },
    {
      "inputs": [
        {
          "internalType": "bytes32[]",
          "name": "roles",
          "type": "bytes32[]"
        },
        {
          "internalType": "address[]",
          "name": "accounts",
          "type": "address[]"
        }
      ],
      "name": "grantRolesToMany",
      "outputs": [],
      "stateMutability": "nonpayable",
      "type": "function"
    },
    {
      "inputs": [
        {
          "internalType": "bytes32",
          "name": "role",
          "type": "bytes32"
        },
        {
          "internalType": "address",
          "name": "account",
          "type": "address"
        }
      ],
      "name": "hasRole",
      "outputs": [
        {
          "internalType": "bool",
          "name": "",
          "type": "bool"
        }
      ],
      "stateMutability": "view",
      "type": "function"
    },
    {
      "inputs": [
        {
          "internalType": "bytes32",
          "name": "role",
          "type": "bytes32"
        },
        {
          "internalType": "address",
          "name": "account",
          "type": "address"
        }
      ],
      "name": "renounceRole",
      "outputs": [],
      "stateMutability": "nonpayable",
      "type": "function"
    },
    {
      "inputs": [
        {
          "internalType": "bytes32",
          "name": "role",
          "type": "bytes32"
        },
        {
          "internalType": "address",
          "name": "account",
          "type": "address"
        }
      ],
      "name": "revokeRole",
      "outputs": [],
      "stateMutability": "nonpayable",
      "type": "function"
    },
    {
      "inputs": [
        {
          "internalType": "bytes32[]",
          "name": "roles",
          "type": "bytes32[]"
        },
        {
          "internalType": "address",
          "name": "account",
          "type": "address"
        }
      ],
      "name": "revokeRoles",
      "outputs": [],
      "stateMutability": "nonpayable",
      "type": "function"
    },
    {
      "inputs": [
        {
          "internalType": "bytes32[]",
          "name": "roles",
          "type": "bytes32[]"
        },
        {
          "internalType": "address[]",
          "name": "accounts",
          "type": "address[]"
        }
      ],
      "name": "revokeRolesFromMany",
      "outputs": [],
      "stateMutability": "nonpayable",
      "type": "function"
    }
  ],
  "transactionHash": "0xd8404fb1d2c6ac6c9afd2f0ab731e0e974fbb5f1ab8aa9348c8e2ca2296d630e",
  "args": [
    "0x02D22f2342C7c52f779Fa631d5313b5af8495703"
  ],
  "solcInputHash": "74b30510f56cfc64a70ac36466ef55b0",
  "bytecode": "0x608060405234801561001057600080fd5b50604051610dbd380380610dbd8339818101604052602081101561003357600080fd5b5051610040600082610046565b5061013d565b6100508282610054565b5050565b6000828152602081815260409091206100769183906108286100b7821b17901c565b156100505760405133906001600160a01b0383169084907f2f8788117e7eff1d82e926ec794901d17c78024a50270940304540a733656f0d90600090a45050565b60006100c3838361011c565b61011257508154600180820184556000848152602080822090930180546001600160a01b0319166001600160a01b03861690811790915585549082528286019093526040902091909155610116565b5060005b92915050565b6001600160a01b031660009081526001919091016020526040902054151590565b610c718061014c6000396000f3fe608060405234801561001057600080fd5b50600436106100d45760003560e01c8063988360a311610081578063ca15c8731161005b578063ca15c87314610526578063d547741f14610543578063fcd7627e1461057c576100d4565b8063988360a31461033c578063a217fddf146103f7578063a73cb2ab146103ff576100d4565b806336568abe116100b257806336568abe1461026a5780639010d07c146102a357806391d14854146102ef576100d4565b806318b2cde9146100d9578063248a9ca3146102025780632f2ff15d14610231575b600080fd5b610200600480360360408110156100ef57600080fd5b81019060208101813564010000000081111561010a57600080fd5b82018360208201111561011c57600080fd5b8035906020019184602083028401116401000000008311171561013e57600080fd5b919080806020026020016040519081016040528093929190818152602001838360200280828437600092019190915250929594936020810193503591505064010000000081111561018e57600080fd5b8201836020820111156101a057600080fd5b803590602001918460208302840111640100000000831117156101c257600080fd5b919080806020026020016040519081016040528093929190818152602001838360200280828437600092019190915250929550610637945050505050565b005b61021f6004803603602081101561021857600080fd5b503561068c565b60408051918252519081900360200190f35b6102006004803603604081101561024757600080fd5b508035906020013573ffffffffffffffffffffffffffffffffffffffff166106a1565b6102006004803603604081101561028057600080fd5b508035906020013573ffffffffffffffffffffffffffffffffffffffff166106d7565b6102c6600480360360408110156102b957600080fd5b5080359060200135610705565b6040805173ffffffffffffffffffffffffffffffffffffffff9092168252519081900360200190f35b6103286004803603604081101561030557600080fd5b508035906020013573ffffffffffffffffffffffffffffffffffffffff16610726565b604080519115158252519081900360200190f35b6102006004803603604081101561035257600080fd5b81019060208101813564010000000081111561036d57600080fd5b82018360208201111561037f57600080fd5b803590602001918460208302840111640100000000831117156103a157600080fd5b9190808060200260200160405190810160405280939291908181526020018383602002808284376000920191909152509295505050903573ffffffffffffffffffffffffffffffffffffffff1691506107329050565b61021f610763565b6102006004803603604081101561041557600080fd5b81019060208101813564010000000081111561043057600080fd5b82018360208201111561044257600080fd5b8035906020019184602083028401116401000000008311171561046457600080fd5b91908080602002602001604051908101604052809392919081815260200183836020028082843760009201919091525092959493602081019350359150506401000000008111156104b457600080fd5b8201836020820111156104c657600080fd5b803590602001918460208302840111640100000000831117156104e857600080fd5b919080806020026020016040519081016040528093929190818152602001838360200280828437600092019190915250929550610768945050505050565b61021f6004803603602081101561053c57600080fd5b50356107b8565b6102006004803603604081101561055957600080fd5b508035906020013573ffffffffffffffffffffffffffffffffffffffff166107cf565b6102006004803603604081101561059257600080fd5b8101906020810181356401000000008111156105ad57600080fd5b8201836020820111156105bf57600080fd5b803590602001918460208302840111640100000000831117156105e157600080fd5b9190808060200260200160405190810160405280939291908181526020018383602002808284376000920191909152509295505050903573ffffffffffffffffffffffffffffffffffffffff1691506107f79050565b610643825182516108b0565b60005b82518110156106875761067f83828151811061065e57fe5b602002602001015183838151811061067257fe5b60200260200101516107cf565b600101610646565b505050565b60009081526020819052604090206002015490565b6000828152602081905260409020600201546106c9906106c19033610726565b61021c6108b9565b6106d382826108c7565b5050565b6106fb73ffffffffffffffffffffffffffffffffffffffff8216331461021e6108b9565b6106d3828261092d565b600082815260208190526040812061071d9083610993565b90505b92915050565b600061071d83836109dd565b60005b82518110156106875761075b83828151811061074d57fe5b6020026020010151836107cf565b600101610735565b600081565b610774825182516108b0565b60005b8251811015610687576107b083828151811061078f57fe5b60200260200101518383815181106107a357fe5b60200260200101516106a1565b600101610777565b6000818152602081905260408120610720906109f5565b6000828152602081905260409020600201546106fb906107ef9033610726565b61021d6108b9565b60005b82518110156106875761082083828151811061081257fe5b6020026020010151836106a1565b6001016107fa565b600061083483836109f9565b6108a857508154600180820184556000848152602080822090930180547fffffffffffffffffffffffff00000000000000000000000000000000000000001673ffffffffffffffffffffffffffffffffffffffff861690811790915585549082528286019093526040902091909155610720565b506000610720565b6106d381831460675b816106d3576106d381610a27565b60008281526020819052604090206108df9082610828565b156106d357604051339073ffffffffffffffffffffffffffffffffffffffff83169084907f2f8788117e7eff1d82e926ec794901d17c78024a50270940304540a733656f0d90600090a45050565b60008281526020819052604090206109459082610a94565b156106d357604051339073ffffffffffffffffffffffffffffffffffffffff83169084907ff6391f5c32d9c69d2a47ea670b442974b53935d1edc7fd64eb21e047a839171b90600090a45050565b81546000906109a590831060646108b9565b8260000182815481106109b457fe5b60009182526020909120015473ffffffffffffffffffffffffffffffffffffffff169392505050565b600082815260208190526040812061071d90836109f9565b5490565b73ffffffffffffffffffffffffffffffffffffffff1660009081526001919091016020526040902054151590565b7f08c379a0000000000000000000000000000000000000000000000000000000006000908152602060045260076024526642414c23000030600a808404818106603090810160081b95839006959095019082900491820690940160101b939093010160c81b604452606490fd5b73ffffffffffffffffffffffffffffffffffffffff811660009081526001830160205260408120548015610c315783547fffffffffffffffffffffffffffffffffffffffffffffffffffffffffffffffff8083019190810190600090879083908110610afc57fe5b600091825260209091200154875473ffffffffffffffffffffffffffffffffffffffff90911691508190889085908110610b3257fe5b600091825260208083209190910180547fffffffffffffffffffffffff00000000000000000000000000000000000000001673ffffffffffffffffffffffffffffffffffffffff948516179055918316815260018981019092526040902090840190558654879080610ba057fe5b6000828152602080822083017fffffffffffffffffffffffffffffffffffffffffffffffffffffffffffffffff90810180547fffffffffffffffffffffffff000000000000000000000000000000000000000016905590920190925573ffffffffffffffffffffffffffffffffffffffff881682526001898101909152604082209190915594506107209350505050565b600091505061072056fea2646970667358221220d01159cb26a19b9e8b010dea19aeb3bc13047cae0c5932b2019d6fbe2f2f3ae464736f6c63430007010033",
  "devdoc": {
    "kind": "dev",
    "methods": {
      "getRoleAdmin(bytes32)": {
        "details": "Returns the admin role that controls `role`. See {grantRole} and {revokeRole}. To change a role's admin, use {_setRoleAdmin}."
      },
      "getRoleMember(bytes32,uint256)": {
        "details": "Returns one of the accounts that have `role`. `index` must be a value between 0 and {getRoleMemberCount}, non-inclusive. Role bearers are not sorted in any particular way, and their ordering may change at any point. WARNING: When using {getRoleMember} and {getRoleMemberCount}, make sure you perform all queries on the same block. See the following https://forum.openzeppelin.com/t/iterating-over-elements-on-enumerableset-in-openzeppelin-contracts/2296[forum post] for more information."
      },
      "getRoleMemberCount(bytes32)": {
        "details": "Returns the number of accounts that have `role`. Can be used together with {getRoleMember} to enumerate all bearers of a role."
      },
      "grantRole(bytes32,address)": {
        "details": "Grants `role` to `account`. If `account` had not been already granted `role`, emits a {RoleGranted} event. Requirements: - the caller must have ``role``'s admin role."
      },
      "grantRoles(bytes32[],address)": {
        "details": "Grants multiple roles to a single account"
      },
      "grantRolesToMany(bytes32[],address[])": {
        "details": "Grants roles to a list of accounts"
      },
      "renounceRole(bytes32,address)": {
        "details": "Revokes `role` from the calling account. Roles are often managed via {grantRole} and {revokeRole}: this function's purpose is to provide a mechanism for accounts to lose their privileges if they are compromised (such as when a trusted device is misplaced). If the calling account had been granted `role`, emits a {RoleRevoked} event. Requirements: - the caller must be `account`."
      },
      "revokeRole(bytes32,address)": {
        "details": "Revokes `role` from `account`. If `account` had already been granted `role`, emits a {RoleRevoked} event. Requirements: - the caller must have ``role``'s admin role."
      },
      "revokeRoles(bytes32[],address)": {
        "details": "Revokes multiple roles from a single account"
      },
      "revokeRolesFromMany(bytes32[],address[])": {
        "details": "Revokes roles from a list of accounts"
      }
    },
    "version": 1
  },
  "userdoc": {
    "kind": "user",
    "methods": {},
    "version": 1
  },
  "storageLayout": {
    "storage": [
      {
        "astId": 3567,
        "contract": "contracts/vault/Authorizer.sol:Authorizer",
        "label": "_roles",
        "offset": 0,
        "slot": "0",
        "type": "t_mapping(t_bytes32,t_struct(RoleData)3563_storage)"
      }
    ],
    "types": {
      "t_address": {
        "encoding": "inplace",
        "label": "address",
        "numberOfBytes": "20"
      },
      "t_array(t_address)dyn_storage": {
        "base": "t_address",
        "encoding": "dynamic_array",
        "label": "address[]",
        "numberOfBytes": "32"
      },
      "t_bytes32": {
        "encoding": "inplace",
        "label": "bytes32",
        "numberOfBytes": "32"
      },
      "t_mapping(t_address,t_uint256)": {
        "encoding": "mapping",
        "key": "t_address",
        "label": "mapping(address => uint256)",
        "numberOfBytes": "32",
        "value": "t_uint256"
      },
      "t_mapping(t_bytes32,t_struct(RoleData)3563_storage)": {
        "encoding": "mapping",
        "key": "t_bytes32",
        "label": "mapping(bytes32 => struct AccessControl.RoleData)",
        "numberOfBytes": "32",
        "value": "t_struct(RoleData)3563_storage"
      },
      "t_struct(AddressSet)4940_storage": {
        "encoding": "inplace",
        "label": "struct EnumerableSet.AddressSet",
        "members": [
          {
            "astId": 4935,
            "contract": "contracts/vault/Authorizer.sol:Authorizer",
            "label": "_values",
            "offset": 0,
            "slot": "0",
            "type": "t_array(t_address)dyn_storage"
          },
          {
            "astId": 4939,
            "contract": "contracts/vault/Authorizer.sol:Authorizer",
            "label": "_indexes",
            "offset": 0,
            "slot": "1",
            "type": "t_mapping(t_address,t_uint256)"
          }
        ],
        "numberOfBytes": "64"
      },
      "t_struct(RoleData)3563_storage": {
        "encoding": "inplace",
        "label": "struct AccessControl.RoleData",
        "members": [
          {
            "astId": 3560,
            "contract": "contracts/vault/Authorizer.sol:Authorizer",
            "label": "members",
            "offset": 0,
            "slot": "0",
            "type": "t_struct(AddressSet)4940_storage"
          },
          {
            "astId": 3562,
            "contract": "contracts/vault/Authorizer.sol:Authorizer",
            "label": "adminRole",
            "offset": 0,
            "slot": "2",
            "type": "t_bytes32"
          }
        ],
        "numberOfBytes": "96"
      },
      "t_uint256": {
        "encoding": "inplace",
        "label": "uint256",
        "numberOfBytes": "32"
      }
    }
  }
}