{
  "address": "0x029B4d8C9C5D446fd663444B469ae3EF851cBdf6",
  "abi": [
    {
      "inputs": [
        {
          "internalType": "contract IVault",
          "name": "_vault",
          "type": "address"
        }
      ],
      "stateMutability": "nonpayable",
      "type": "constructor"
    },
    {
      "anonymous": false,
      "inputs": [
        {
          "indexed": true,
          "internalType": "address",
          "name": "controller",
          "type": "address"
        }
      ],
      "name": "ControllerCreated",
      "type": "event"
    },
    {
      "inputs": [
        {
          "internalType": "address",
          "name": "strategy",
          "type": "address"
        },
        {
          "internalType": "enum IVault.StrategyType",
          "name": "strategyType",
          "type": "uint8"
        },
        {
          "internalType": "uint256",
          "name": "initialBPT",
          "type": "uint256"
        },
        {
          "internalType": "address[]",
          "name": "tokens",
          "type": "address[]"
        },
        {
          "internalType": "uint128[]",
          "name": "amounts",
          "type": "uint128[]"
        },
        {
          "internalType": "bytes32",
          "name": "salt",
          "type": "bytes32"
        }
      ],
      "name": "create",
      "outputs": [
        {
          "internalType": "address",
          "name": "",
          "type": "address"
        }
      ],
      "stateMutability": "nonpayable",
      "type": "function"
    },
    {
      "inputs": [],
      "name": "vault",
      "outputs": [
        {
          "internalType": "contract IVault",
          "name": "",
          "type": "address"
        }
      ],
      "stateMutability": "view",
      "type": "function"
    }
  ],
  "transactionHash": "0x65ba6d60baa0f25bc4cebe4ee6f2434b6f2651b4176bee7a18080e711de1fa51",
  "args": [
    "0x001b6571f9CB4143b448918a9BFEaA52c6E438C3"
  ],
  "solcInputHash": "04126076e1073c58f6fff18e8fc8421d",
  "bytecode": "0x60a060405234801561001057600080fd5b50604051612eb0380380612eb083398101604081905261002f91610044565b60601b6001600160601b031916608052610072565b600060208284031215610055578081fd5b81516001600160a01b038116811461006b578182fd5b9392505050565b60805160601c612e186100986000398060ac528061012452806101b25250612e186000f3fe60806040523480156200001157600080fd5b50600436106200003a5760003560e01c8063d65bc1eb146200003f578063fbfa77cf146200006e575b600080fd5b62000056620000503660046200044b565b62000078565b60405162000065919062000630565b60405180910390f35b6200005662000122565b60006200011760405180602001620000909062000398565b601f1982820381018352601f909101166040819052620000e1907f0000000000000000000000000000000000000000000000000000000000000000908b908b908b908b908b90339060200162000644565b60408051601f198184030181529082905262000101929160200162000617565b6040516020818303038152906040528362000146565b979650505050505050565b7f000000000000000000000000000000000000000000000000000000000000000081565b6000806200015c83858051906020012062000289565b905062000172816001600160a01b03166200029f565b156200019b5760405162461bcd60e51b8152600401620001929062000758565b60405180910390fd5b60405163eb1192c360e01b81526001600160a01b037f0000000000000000000000000000000000000000000000000000000000000000169063eb1192c390620001e990849060040162000630565b600060405180830381600087803b1580156200020457600080fd5b505af115801562000219573d6000803e3d6000fd5b5050505060006200022d60008587620002dc565b9050816001600160a01b0316816001600160a01b0316146200024b57fe5b6040516001600160a01b038216907f61a1525f83a9a659cdc1dfd5ba0a75b20537f5127a4abcebba133b6440e431ff90600090a29150505b92915050565b60006200029883833062000357565b9392505050565b6000813f7fc5d2460186f7233c927e7db2dcc703c0e500b653ca82273b7bfad8045d85a470818114801590620002d457508115155b949350505050565b60008084471015620003025760405162461bcd60e51b8152600401620001929062000787565b8251620003235760405162461bcd60e51b81526004016200019290620006f0565b8383516020850187f590506001600160a01b038116620002d45760405162461bcd60e51b8152600401620001929062000725565b60008060ff60f81b838686604051602001620003779493929190620005e3565b60408051808303601f19018152919052805160209091012095945050505050565b6125c3806200082083390190565b80356001600160a01b03811681146200028357600080fd5b600082601f830112620003cf578081fd5b8135620003e6620003e082620007e5565b620007be565b8181529150602080830190848101818402860182018710156200040857600080fd5b6000805b858110156200043f5782356001600160801b03811681146200042c578283fd5b855293830193918301916001016200040c565b50505050505092915050565b60008060008060008060c0878903121562000464578182fd5b620004708888620003a6565b95506020808801356002811062000485578384fd5b95506040880135945060608801356001600160401b0380821115620004a8578485fd5b818a0191508a601f830112620004bc578485fd5b8135620004cd620003e082620007e5565b81815284810190848601868402860187018f1015620004ea578889fd5b8895505b838610156200051857620005038f82620003a6565b835260019590950194918601918601620004ee565b509750505060808a013592508083111562000531578485fd5b50506200054189828a01620003be565b92505060a087013590509295509295509295565b6001600160a01b03169052565b6000815180845260208085019450808401835b838110156200059c5781516001600160801b03168752958201959082019060010162000575565b509495945050505050565b60008151815b81811015620005c95760208185018101518683015201620005ad565b81811115620005d85782828601525b509290920192915050565b6001600160f81b031994909416845260609290921b6001600160601b03191660018401526015830152603582015260550190565b6000620002d4620006298386620005a7565b84620005a7565b6001600160a01b0391909116815260200190565b600060e0820160018060a01b03808b1684526020818b16818601526200066a8a62000811565b604085018a90526060850189905260e060808601528751928390528088019261010086019250845b81811015620006ba57620006a7855162000805565b8452938201939282019260010162000692565b50505083810360a0850152620006d1818762000562565b92505050620006e460c083018462000555565b98975050505050505050565b6020808252818101527f437265617465323a2062797465636f6465206c656e677468206973207a65726f604082015260600190565b602080825260199082015278437265617465323a204661696c6564206f6e206465706c6f7960381b604082015260600190565b60208082526015908201527414d85b1d0818d85b9b9bdd081899481c995d5cd959605a1b604082015260600190565b6020808252601d908201527f437265617465323a20696e73756666696369656e742062616c616e6365000000604082015260600190565b6040518181016001600160401b0381118282101715620007dd57600080fd5b604052919050565b60006001600160401b03821115620007fb578081fd5b5060209081020190565b6001600160a01b031690565b600281106200081c57fe5b5056fe610100604052601360c08190527f42616c616e63657220506f6f6c20546f6b656e0000000000000000000000000060e0908152620000419160039190620006b7565b506040805180820190915260038082526210941560ea1b60209092019182526200006e91600491620006b7565b506005805460ff191660121790553480156200008957600080fd5b50604051620025c3380380620025c3833981810160405260e0811015620000af57600080fd5b8151602083015160408085015160608601516080870180519351959794969295919491939282019284640100000000821115620000eb57600080fd5b9083019060208201858111156200010157600080fd5b82518660208202830111640100000000821117156200011f57600080fd5b82525081516020918201928201910280838360005b838110156200014e57818101518382015260200162000134565b50505050905001604052602001805160405193929190846401000000008211156200017857600080fd5b9083019060208201858111156200018e57600080fd5b8251866020820283011164010000000082111715620001ac57600080fd5b82525081516020918201928201910280838360005b83811015620001db578181015183820152602001620001c1565b505050509050016040526020018051906020019092919050505060016006819055506000876001600160a01b03166381158ad988886040518363ffffffff1660e01b815260040180836001600160a01b031681526020018260018111156200023f57fe5b815260200192505050602060405180830381600087803b1580156200026357600080fd5b505af115801562000278573d6000803e3d6000fd5b505050506040513d60208110156200028f57600080fd5b5051604051630ab0e98b60e11b8152600481018281526001600160a01b03858116602484015260a060448401908152885160a48501528851949550908c1693631561d31693869388938b938b93849392916064820191608481019160c4909101906020898101910280838360005b8381101562000317578181015183820152602001620002fd565b50505050905001848103835286818151815260200191508051906020019060200280838360005b83811015620003585781810151838201526020016200033e565b50505050905001848103825285818151815260200191508051906020019060200280838360005b83811015620003995781810151838201526020016200037f565b5050505090500198505050505050505050600060405180830381600087803b158015620003c557600080fd5b505af1158015620003da573d6000803e3d6000fd5b50505050620003ef856200042160201b60201c565b620003fb82866200042f565b60609790971b6001600160601b03191660805250505060a0939093525062000753915050565b6200042c816200043f565b50565b6200043b8282620004c0565b5050565b30600090815260208181526040909120546200046691839062001778620004cd821b17901c565b30600090815260208181526040909120919091556002546200049391839062001778620004cd821b17901c565b6002556040805182815290513091600091600080516020620025a38339815191529181900360200190a350565b6200043b3083836200052f565b60008282018381101562000528576040805162461bcd60e51b815260206004820152601b60248201527f536166654d6174683a206164646974696f6e206f766572666c6f770000000000604482015290519081900360640190fd5b9392505050565b604080518082018252601481527f4552525f494e53554646494349454e545f42414c0000000000000000000000006020808301919091526001600160a01b03861660009081528082529290922054620005959290918491620017d76200061c821b17901c565b6001600160a01b038085166000908152602081815260408083209490945591851681529190912054620005d391839062001778620004cd821b17901c565b6001600160a01b03808416600081815260208181526040918290209490945580518581529051919392871692600080516020620025a383398151915292918290030190a3505050565b60008184841115620006af5760405162461bcd60e51b81526004018080602001828103825283818151815260200191508051906020019080838360005b838110156200067357818101518382015260200162000659565b50505050905090810190601f168015620006a15780820380516001836020036101000a031916815260200191505b509250505060405180910390fd5b505050900390565b828054600181600116156101000203166002900490600052602060002090601f016020900481019282601f10620006fa57805160ff19168380011785556200072a565b828001600101855582156200072a579182015b828111156200072a5782518255916020019190600101906200070d565b50620007389291506200073c565b5090565b5b808211156200073857600081556001016200073d565b60805160601c60a051611ded620007b6600039806105e652806107355280610ae25280610dde528061105252806111a152806115455250806105b752806107065280610b2c52806110235280611172528061151652806117565250611ded6000f3fe608060405234801561001057600080fd5b50600436106100c55760003560e01c806306fdde03146100ca578063095ea7b314610147578063127cdc421461018757806318160ddd1461020f57806323b872dd14610229578063313ce5671461025f5780633e0dc34e1461027d578063661884631461028557806370a08231146102b157806395d89b41146102d7578063a9059cbb146102df578063b5db9b8b1461030b578063d73dd62314610391578063dd62ed3e146103bd578063fbfa77cf146103eb575b600080fd5b6100d261040f565b6040805160208082528351818301528351919283929083019185019080838360005b8381101561010c5781810151838201526020016100f4565b50505050905090810190601f1680156101395780820380516001836020036101000a031916815260200191505b509250505060405180910390f35b6101736004803603604081101561015d57600080fd5b506001600160a01b0381351690602001356104a5565b604080519115158252519081900360200190f35b61020d6004803603608081101561019d57600080fd5b81359190810190604081016020820135600160201b8111156101be57600080fd5b8201836020820111156101d057600080fd5b803590602001918460208302840111600160201b831117156101f157600080fd5b91935091508035151590602001356001600160a01b03166104f9565b005b610217610c73565b60408051918252519081900360200190f35b6101736004803603606081101561023f57600080fd5b506001600160a01b03813581169160208101359091169060400135610c79565b610267610dd3565b6040805160ff9092168252519081900360200190f35b610217610ddc565b6101736004803603604081101561029b57600080fd5b506001600160a01b038135169060200135610e00565b610217600480360360208110156102c757600080fd5b50356001600160a01b0316610ed8565b6100d2610ef3565b610173600480360360408110156102f557600080fd5b506001600160a01b038135169060200135610f54565b61020d6004803603608081101561032157600080fd5b81359190810190604081016020820135600160201b81111561034257600080fd5b82018360208201111561035457600080fd5b803590602001918460208302840111600160201b8311171561037557600080fd5b91935091508035151590602001356001600160a01b0316610f6a565b610173600480360360408110156103a757600080fd5b506001600160a01b0381351690602001356116a8565b610217600480360360408110156103d357600080fd5b506001600160a01b0381358116916020013516611729565b6103f3611754565b604080516001600160a01b039092168252519081900360200190f35b60038054604080516020601f600260001961010060018816150201909516949094049384018190048102820181019092528281526060939092909183018282801561049b5780601f106104705761010080835404028352916020019161049b565b820191906000526020600020905b81548152906001019060200180831161047e57829003601f168201915b5050505050905090565b3360008181526001602090815260408083206001600160a01b03871680855290835281842086905581518681529151939490939092600080516020611d98833981519152928290030190a350600192915050565b6002600654141561053f576040805162461bcd60e51b815260206004820152601f6024820152600080516020611d0f833981519152604482015290519081900360640190fd5b6002600655600061054e610c73565b9050600061056461055f888461186e565b611981565b90506001600160801b0381166105b3576040805162461bcd60e51b815260206004820152600f60248201526e08aa4a4be9a82a890be82a0a0a49eb608b1b604482015290519081900360640190fd5b60607f00000000000000000000000000000000000000000000000000000000000000006001600160a01b031663f94d46687f00000000000000000000000000000000000000000000000000000000000000006040518263ffffffff1660e01b81526004018082815260200191505060006040518083038186803b15801561063957600080fd5b505afa15801561064d573d6000803e3d6000fd5b505050506040513d6000823e601f3d908101601f19168201604052602081101561067657600080fd5b8101908080516040519392919084600160201b82111561069557600080fd5b9083019060208201858111156106aa57600080fd5b82518660208202830111600160201b821117156106c657600080fd5b82525081516020918201928201910280838360005b838110156106f35781810151838201526020016106db565b50505050905001604052505050905060607f00000000000000000000000000000000000000000000000000000000000000006001600160a01b031663fe8f2cb27f0000000000000000000000000000000000000000000000000000000000000000846040518363ffffffff1660e01b81526004018083815260200180602001828103825283818151815260200191508051906020019060200280838360005b838110156107aa578181015183820152602001610792565b50505050905001935050505060006040518083038186803b1580156107ce57600080fd5b505afa1580156107e2573d6000803e3d6000fd5b505050506040513d6000823e601f3d908101601f19168201604052602081101561080b57600080fd5b8101908080516040519392919084600160201b82111561082a57600080fd5b90830190602082018581111561083f57600080fd5b82518660208202830111600160201b8211171561085b57600080fd5b82525081516020918201928201910280838360005b83811015610888578181015183820152602001610870565b505050509050016040525050509050815188889050146108d95760405162461bcd60e51b8152600401808060200182810382526022815260200180611d566022913960400191505060405180910390fd5b606082516001600160401b03811180156108f257600080fd5b5060405190808252806020026020018201604052801561091c578160200160208202803683370190505b509050606083516001600160401b038111801561093857600080fd5b50604051908082528060200260200182016040528015610962578160200160208202803683370190505b50905060005b8451811015610ad2576109a08685838151811061098157fe5b60200260200101516001600160801b03166119c990919063ffffffff16565b8382815181106109ac57fe5b60200260200101906001600160801b031690816001600160801b0316815250508a8a828181106109d857fe5b905060200201356001600160801b03166001600160801b03168382815181106109fd57fe5b60200260200101516001600160801b03161115610a50576040805162461bcd60e51b815260206004820152600c60248201526b22a9292fa624a6a4aa2fa4a760a11b604482015290519081900360640190fd5b8815610a9b57828181518110610a6257fe5b6020026020010151828281518110610a7657fe5b60200260200101906001600160801b031690816001600160801b031681525050610aca565b6000828281518110610aa957fe5b60200260200101906001600160801b031690816001600160801b0316815250505b600101610968565b50604051630ab0e98b60e11b81527f000000000000000000000000000000000000000000000000000000000000000060048201818152336024840181905260a060448501908152885160a486015288516001600160a01b037f00000000000000000000000000000000000000000000000000000000000000001695631561d31695948b938a938a936064810191608482019160c401906020808a01910280838360005b83811015610b8d578181015183820152602001610b75565b50505050905001848103835286818151815260200191508051906020019060200280838360005b83811015610bcc578181015183820152602001610bb4565b50505050905001848103825285818151815260200191508051906020019060200280838360005b83811015610c0b578181015183820152602001610bf3565b5050505090500198505050505050505050600060405180830381600087803b158015610c3657600080fd5b505af1158015610c4a573d6000803e3d6000fd5b50505050610c578b611acd565b610c61878c611ad9565b50506001600655505050505050505050565b60025490565b6000336001600160a01b0385161480610cb557506001600160a01b03841660009081526001602090815260408083203384529091529020548211155b610cfe576040805162461bcd60e51b815260206004820152601560248201527422a9292fa12a27a5a2a72fa120a22fa1a0a62622a960591b604482015290519081900360640190fd5b610d09848484611ae7565b336001600160a01b03851614801590610d4757506001600160a01b038416600090815260016020908152604080832033845290915290205460001914155b15610dc9576001600160a01b0384166000908152600160209081526040808320338452909152902054610d7a9083611baf565b6001600160a01b0385811660009081526001602090815260408083203380855290835292819020859055805194855251928716939192600080516020611d988339815191529281900390910190a35b5060019392505050565b60055460ff1690565b7f000000000000000000000000000000000000000000000000000000000000000081565b3360009081526001602090815260408083206001600160a01b038616845290915281205480831115610e55573360009081526001602090815260408083206001600160a01b0388168452909152812055610e84565b610e5f8184611baf565b3360009081526001602090815260408083206001600160a01b03891684529091529020555b3360008181526001602090815260408083206001600160a01b038916808552908352928190205481519081529051929392600080516020611d98833981519152929181900390910190a35060019392505050565b6001600160a01b031660009081526020819052604090205490565b60048054604080516020601f600260001961010060018816150201909516949094049384018190048102820181019092528281526060939092909183018282801561049b5780601f106104705761010080835404028352916020019161049b565b6000610f61338484611ae7565b50600192915050565b60026006541415610fb0576040805162461bcd60e51b815260206004820152601f6024820152600080516020611d0f833981519152604482015290519081900360640190fd5b60026006556000610fbf610c73565b90506000610fd061055f888461186e565b90506001600160801b03811661101f576040805162461bcd60e51b815260206004820152600f60248201526e08aa4a4be9a82a890be82a0a0a49eb608b1b604482015290519081900360640190fd5b60607f00000000000000000000000000000000000000000000000000000000000000006001600160a01b031663f94d46687f00000000000000000000000000000000000000000000000000000000000000006040518263ffffffff1660e01b81526004018082815260200191505060006040518083038186803b1580156110a557600080fd5b505afa1580156110b9573d6000803e3d6000fd5b505050506040513d6000823e601f3d908101601f1916820160405260208110156110e257600080fd5b8101908080516040519392919084600160201b82111561110157600080fd5b90830190602082018581111561111657600080fd5b82518660208202830111600160201b8211171561113257600080fd5b82525081516020918201928201910280838360005b8381101561115f578181015183820152602001611147565b50505050905001604052505050905060607f00000000000000000000000000000000000000000000000000000000000000006001600160a01b031663fe8f2cb27f0000000000000000000000000000000000000000000000000000000000000000846040518363ffffffff1660e01b81526004018083815260200180602001828103825283818151815260200191508051906020019060200280838360005b838110156112165781810151838201526020016111fe565b50505050905001935050505060006040518083038186803b15801561123a57600080fd5b505afa15801561124e573d6000803e3d6000fd5b505050506040513d6000823e601f3d908101601f19168201604052602081101561127757600080fd5b8101908080516040519392919084600160201b82111561129657600080fd5b9083019060208201858111156112ab57600080fd5b82518660208202830111600160201b821117156112c757600080fd5b82525081516020918201928201910280838360005b838110156112f45781810151838201526020016112dc565b505050509050016040525050509050815188889050146113455760405162461bcd60e51b8152600401808060200182810382526022815260200180611d566022913960400191505060405180910390fd5b606082516001600160401b038111801561135e57600080fd5b50604051908082528060200260200182016040528015611388578160200160208202803683370190505b509050606083516001600160401b03811180156113a457600080fd5b506040519080825280602002602001820160405280156113ce578160200160208202803683370190505b50905060005b8451811015611513576113ed8685838151811061098157fe5b8382815181106113f957fe5b60200260200101906001600160801b031690816001600160801b0316815250508a8a8281811061142557fe5b9050602002013583828151811061143857fe5b60200260200101516001600160801b03161015611491576040805162461bcd60e51b815260206004820152601260248201527109c9ea8408ab092a8929c8e408a9c9eaa8e960731b604482015290519081900360640190fd5b88156114dc578281815181106114a357fe5b60200260200101518282815181106114b757fe5b60200260200101906001600160801b031690816001600160801b03168152505061150b565b60008282815181106114ea57fe5b60200260200101906001600160801b031690816001600160801b0316815250505b6001016113d4565b507f00000000000000000000000000000000000000000000000000000000000000006001600160a01b031663d4c173e07f0000000000000000000000000000000000000000000000000000000000000000898786866040518663ffffffff1660e01b815260040180868152602001856001600160a01b03168152602001806020018060200180602001848103845287818151815260200191508051906020019060200280838360005b838110156115d45781810151838201526020016115bc565b50505050905001848103835286818151815260200191508051906020019060200280838360005b838110156116135781810151838201526020016115fb565b50505050905001848103825285818151815260200191508051906020019060200280838360005b8381101561165257818101518382015260200161163a565b5050505090500198505050505050505050600060405180830381600087803b15801561167d57600080fd5b505af1158015611691573d6000803e3d6000fd5b5050505061169f338c611bf1565b610c618b611bfb565b3360009081526001602090815260408083206001600160a01b03861684529091528120546116d69083611778565b3360008181526001602090815260408083206001600160a01b038916808552908352928190208590558051948552519193600080516020611d98833981519152929081900390910190a350600192915050565b6001600160a01b03918216600090815260016020908152604080832093909416825291909152205490565b7f000000000000000000000000000000000000000000000000000000000000000081565b6000828201838110156117d0576040805162461bcd60e51b815260206004820152601b60248201527a536166654d6174683a206164646974696f6e206f766572666c6f7760281b604482015290519081900360640190fd5b9392505050565b600081848411156118665760405162461bcd60e51b81526004018080602001828103825283818151815260200191508051906020019080838360005b8381101561182b578181015183820152602001611813565b50505050905090810190601f1680156118585780820380516001836020036101000a031916815260200191505b509250505060405180910390fd5b505050900390565b6000816118b1576040805162461bcd60e51b815260206004820152600c60248201526b4552525f4449565f5a45524f60a01b604482015290519081900360640190fd5b670de0b6b3a764000083028315806118d95750670de0b6b3a76400008482816118d657fe5b04145b61191d576040805162461bcd60e51b815260206004820152601060248201526f11549497d1125597d25395115493905360821b604482015290519081900360640190fd5b6002830481018181101561196b576040805162461bcd60e51b815260206004820152601060248201526f11549497d1125597d25395115493905360821b604482015290519081900360640190fd5b600084828161197657fe5b049695505050505050565b6000600160801b82106119c55760405162461bcd60e51b8152600401808060200182810382526027815260200180611d2f6027913960400191505060405180910390fd5b5090565b60008282026001600160801b0384161580611a105750826001600160801b0316846001600160801b0316826001600160801b031681611a0457fe5b046001600160801b0316145b611a54576040805162461bcd60e51b815260206004820152601060248201526f4552525f4d554c5f4f564552464c4f5760801b604482015290519081900360640190fd5b6706f05b59d3b2000081016001600160801b038083169082161015611ab3576040805162461bcd60e51b815260206004820152601060248201526f4552525f4d554c5f4f564552464c4f5760801b604482015290519081900360640190fd5b6000670de0b6b3a76400006001600160801b038316611976565b611ad681611c04565b50565b611ae38282611c67565b5050565b604080518082018252601481527311549497d25394d551919250d251539517d0905360621b6020808301919091526001600160a01b0386166000908152908190529190912054611b389183906117d7565b6001600160a01b038085166000908152602081905260408082209390935590841681522054611b679082611778565b6001600160a01b03808416600081815260208181526040918290209490945580518581529051919392871692600080516020611d7883398151915292918290030190a3505050565b60006117d083836040518060400160405280601e81526020017f536166654d6174683a207375627472616374696f6e206f766572666c6f7700008152506117d7565b611ae38282611c72565b611ad681611c7d565b30600090815260208190526040902054611c1e9082611778565b30600090815260208190526040902055600254611c3b9082611778565b6002556040805182815290513091600091600080516020611d788339815191529181900360200190a350565b611ae3308383611ae7565b611ae3823083611ae7565b604080518082018252601481527311549497d25394d551919250d251539517d0905360621b602080830191909152306000908152908190529190912054611cc59183906117d7565b30600090815260208190526040902055600254611ce29082611baf565b6002556040805182815290516000913091600080516020611d788339815191529181900360200190a35056fe5265656e7472616e637947756172643a207265656e7472616e742063616c6c0053616665436173743a2076616c756520646f65736e27742066697420696e203132382062697473546f6b656e7320616e6420616d6f756e7473206c656e677468206d69736d61746368ddf252ad1be2c89b69c2b068fc378daa952ba7f163c4a11628f55a4df523b3ef8c5be1e5ebec7d5bd14f71427d1e84f3dd0314c0f7b2291e5b200ac8c7c3b925a2646970667358221220c2026adefb9aa53a4569aca6e4cbf60bfbdafc09e6a7fd4dfb525f69fdf408c964736f6c63430007010033ddf252ad1be2c89b69c2b068fc378daa952ba7f163c4a11628f55a4df523b3efa2646970667358221220eb1f149411b06f37b686e8b67a3aa4813b198f0e8f3758ca34249500cb95207d64736f6c63430007010033",
  "devdoc": {
    "kind": "dev",
    "methods": {},
    "version": 1
  },
  "userdoc": {
    "kind": "user",
    "methods": {},
    "version": 1
  },
  "storageLayout": {
    "storage": [],
    "types": null
  }
}