{
  "address": "0xaD9a0de4fda03eE4cdb07590B42D6469Ad1aBd85",
  "abi": [
    {
      "inputs": [
        {
          "internalType": "contract IVault",
          "name": "_vault",
          "type": "address"
        }
      ],
      "stateMutability": "nonpayable",
      "type": "constructor"
    },
    {
      "anonymous": false,
      "inputs": [
        {
          "indexed": true,
          "internalType": "address",
          "name": "pool",
          "type": "address"
        }
      ],
      "name": "PoolRegistered",
      "type": "event"
    },
    {
      "inputs": [
        {
          "internalType": "string",
          "name": "name",
          "type": "string"
        },
        {
          "internalType": "string",
          "name": "symbol",
          "type": "string"
        },
        {
          "internalType": "contract IERC20[]",
          "name": "tokens",
          "type": "address[]"
        },
        {
          "internalType": "uint256",
          "name": "amplificationParameter",
          "type": "uint256"
        },
        {
          "internalType": "uint256",
          "name": "swapFee",
          "type": "uint256"
        },
        {
          "internalType": "uint256",
          "name": "emergencyPeriod",
          "type": "uint256"
        },
        {
          "internalType": "uint256",
          "name": "emergencyPeriodCheckExtension",
          "type": "uint256"
        }
      ],
      "name": "create",
      "outputs": [
        {
          "internalType": "address",
          "name": "",
          "type": "address"
        }
      ],
      "stateMutability": "nonpayable",
      "type": "function"
    },
    {
      "inputs": [],
      "name": "vault",
      "outputs": [
        {
          "internalType": "contract IVault",
          "name": "",
          "type": "address"
        }
      ],
      "stateMutability": "view",
      "type": "function"
    }
  ],
  "transactionHash": "0x1587ff1d3da86902e3889cb5fa1f65d662327ef9140f69ae81a12ff87497c4f7",
  "args": [
    "0xba1222227c37746aDA22d10Da6265E02E44400DD"
  ],
  "solcInputHash": "74b30510f56cfc64a70ac36466ef55b0",
  "bytecode": "0x60a060405234801561001057600080fd5b50604051614b3e380380614b3e83398101604081905261002f91610044565b60601b6001600160601b031916608052610072565b600060208284031215610055578081fd5b81516001600160a01b038116811461006b578182fd5b9392505050565b60805160601c614aac61009260003980607d528060fd5250614aac6000f3fe60806040523480156200001157600080fd5b50600436106200003a5760003560e01c80638576963b146200003f578063fbfa77cf146200006e575b600080fd5b620000566200005036600462000228565b62000078565b604051620000659190620003bc565b60405180910390f35b62000056620000fb565b6000807f000000000000000000000000000000000000000000000000000000000000000089898989898989604051620000b19062000163565b620000c4989796959493929190620003dd565b604051809103906000f080158015620000e1573d6000803e3d6000fd5b509050620000ef816200011f565b98975050505050505050565b7f000000000000000000000000000000000000000000000000000000000000000081565b60405173ffffffffffffffffffffffffffffffffffffffff8216907f9cc152f4650ca2829a210a21551537f4cc4d48c2611ec06974f835e911921b9090600090a250565b6145a480620004d383390190565b803573ffffffffffffffffffffffffffffffffffffffff811681146200019657600080fd5b92915050565b600082601f830112620001ad578081fd5b813567ffffffffffffffff811115620001c4578182fd5b620001f760207fffffffffffffffffffffffffffffffffffffffffffffffffffffffffffffffe0601f8401160162000491565b91508082528360208285010111156200020f57600080fd5b8060208401602084013760009082016020015292915050565b600080600080600080600060e0888a03121562000243578283fd5b67ffffffffffffffff80893511156200025a578384fd5b620002698a8a358b016200019c565b97506020890135818111156200027d578485fd5b6200028b8b828c016200019c565b975050604089013581811115620002a0578485fd5b8901601f81018b13620002b1578485fd5b803582811115620002c0578586fd5b602081029250620002d46020840162000491565b80828252602082019150602084018e6020878701011115620002f4578889fd5b8895505b8386101562000323576200030d8f8262000171565b83526001959095019460209283019201620002f8565b509a9d999c50999a60608101359a5060808101359960a0820135995060c090910135975095505050505050565b60008151808452815b81811015620003775760208185018101518683018201520162000359565b81811115620003895782602083870101525b50601f017fffffffffffffffffffffffffffffffffffffffffffffffffffffffffffffffe0169290920160200192915050565b73ffffffffffffffffffffffffffffffffffffffff91909116815260200190565b600061010073ffffffffffffffffffffffffffffffffffffffff8b16835260208181850152620004108285018c62000350565b9150838203604085015262000426828b62000350565b84810360608601528951808252828b01935090820190845b818110156200046657620004538551620004b9565b835293830193918301916001016200043e565b5050608085019890985250505060a081019390935260c083019190915260e090910152949350505050565b60405181810167ffffffffffffffff81118282101715620004b157600080fd5b604052919050565b73ffffffffffffffffffffffffffffffffffffffff169056fe6103406040523480156200001257600080fd5b50604051620045a4380380620045a48339810160408190526200003591620009ab565b8787878786868686600087878787878781818787816003908051906020019062000061929190620007c9565b50805162000077906004906020840190620007c9565b506200008f9150506276a7008311156101f862000609565b620000a362278d008211156101f962000609565b4290910160808190520160a0528351620000c3906002111560c862000609565b620000db60088551111560c96200060960201b60201c565b620000f1846200061e60201b62000b241760201c565b6200010664e8d4a5100084101560cb62000609565b6200011e67016345785d8a000084111560ca62000609565b6040516309b2760f60e01b81526000906001600160a01b038a16906309b2760f906200014f908b9060040162000b3a565b602060405180830381600087803b1580156200016a57600080fd5b505af11580156200017f573d6000803e3d6000fd5b505050506040513d601f19601f82011682018060405250810190620001a5919062000992565b9050886001600160a01b03166366a9c7d2828788516001600160401b0381118015620001d057600080fd5b50604051908082528060200260200182016040528015620001fb578160200160208202803683370190505b506040518463ffffffff1660e01b81526004016200021c9392919062000a9e565b600060405180830381600087803b1580156200023757600080fd5b505af11580156200024c573d6000803e3d6000fd5b5050506001600160601b031960608b901b1660c0525060e0819052600684905584516101005284516200028157600062000298565b846000815181106200028f57fe5b60200260200101515b60601b6001600160601b031916610120528451600110620002bb576000620002d2565b84600181518110620002c957fe5b60200260200101515b60601b6001600160601b031916610140528451600210620002f55760006200030c565b846002815181106200030357fe5b60200260200101515b60601b6001600160601b0319166101605284516003106200032f57600062000346565b846003815181106200033d57fe5b60200260200101515b60601b6001600160601b0319166101805284516004106200036957600062000380565b846004815181106200037757fe5b60200260200101515b60601b6001600160601b0319166101a0528451600510620003a3576000620003ba565b84600581518110620003b157fe5b60200260200101515b60601b6001600160601b0319166101c0528451600610620003dd576000620003f4565b84600681518110620003eb57fe5b60200260200101515b60601b6001600160601b0319166101e0528451600710620004175760006200042e565b846007815181106200042557fe5b60200260200101515b60601b6001600160601b0319166102005284516200044e57600062000474565b62000474856000815181106200046057fe5b60200260200101516200062a60201b60201c565b6102205284516001106200048a5760006200049c565b6200049c856001815181106200046057fe5b610240528451600210620004b2576000620004c4565b620004c4856002815181106200046057fe5b610260528451600310620004da576000620004ec565b620004ec856003815181106200046057fe5b6102805284516004106200050257600062000514565b62000514856004815181106200046057fe5b6102a05284516005106200052a5760006200053c565b6200053c856005815181106200046057fe5b6102c05284516006106200055257600062000564565b62000564856006815181106200046057fe5b6102e05284516007106200057a5760006200058c565b6200058c856007815181106200046057fe5b610300818152505050505050505050505050505050505050620005c3670de0b6b3a764000085101561012c6200060960201b60201c565b620005de69010f0cf064dd5920000085111561012d62000609565b620005f760058651111561012f6200060960201b60201c565b505050610320525062000b9892505050565b816200061a576200061a81620006cc565b5050565b806200061a816200071f565b600080826001600160a01b031663313ce5676040518163ffffffff1660e01b815260040160206040518083038186803b1580156200066757600080fd5b505afa1580156200067c573d6000803e3d6000fd5b505050506040513d601f19601f82011682018060405250810190620006a2919062000a74565b60ff1690506000620006c1601283620007ac60201b62000b321760201c565b600a0a949350505050565b62461bcd60e51b6000908152602060045260076024526642414c23000030600a808404818106603090810160081b95839006959095019082900491820690940160101b939093010160c81b604452606490fd5b6002815110156200073057620007a9565b6000816000815181106200074057fe5b602002602001015190506000600190505b8251811015620007a65760008382815181106200076a57fe5b602002602001015190506200079b816001600160a01b0316846001600160a01b03161060656200060960201b60201c565b915060010162000751565b50505b50565b6000620007be83831115600162000609565b508082035b92915050565b828054600181600116156101000203166002900490600052602060002090601f016020900481019282601f106200080c57805160ff19168380011785556200083c565b828001600101855582156200083c579182015b828111156200083c5782518255916020019190600101906200081f565b506200084a9291506200084e565b5090565b5b808211156200084a57600081556001016200084f565b600082601f83011262000876578081fd5b81516001600160401b038111156200088c578182fd5b60208082026200089e82820162000b4f565b83815293508184018583018287018401881015620008bb57600080fd5b600092505b84831015620008eb578051620008d68162000b82565b825260019290920191908301908301620008c0565b505050505092915050565b8051620007c38162000b82565b600082601f83011262000914578081fd5b81516001600160401b038111156200092a578182fd5b602062000940601f8301601f1916820162000b4f565b925081835284818386010111156200095757600080fd5b60005b82811015620009775784810182015184820183015281016200095a565b82811115620009895760008284860101525b50505092915050565b600060208284031215620009a4578081fd5b5051919050565b600080600080600080600080610100898b031215620009c8578384fd5b620009d48a8a620008f6565b60208a01519098506001600160401b0380821115620009f1578586fd5b620009ff8c838d0162000903565b985060408b015191508082111562000a15578586fd5b62000a238c838d0162000903565b975060608b015191508082111562000a39578586fd5b5062000a488b828c0162000865565b9550506080890151935060a0890151925060c0890151915060e089015190509295985092959890939650565b60006020828403121562000a86578081fd5b815160ff8116811462000a97578182fd5b9392505050565b60006060820185835260206060818501528186518084526080860191508288019350845b8181101562000aea5762000ad7855162000b76565b8352938301939183019160010162000ac2565b505084810360408601528551808252908201925081860190845b8181101562000b2c5762000b19835162000b76565b8552938301939183019160010162000b04565b509298975050505050505050565b602081016003831062000b4957fe5b91905290565b6040518181016001600160401b038111828210171562000b6e57600080fd5b604052919050565b6001600160a01b031690565b6001600160a01b0381168114620007a957600080fd5b60805160a05160c05160601c60e051610100516101205160601c6101405160601c6101605160601c6101805160601c6101a05160601c6101c05160601c6101e05160601c6102005160601c610220516102405161026051610280516102a0516102c0516102e05161030051610320516138fd62000ca760003980610751528061078452806119f85280611bb05280611c345280611e2d5280611f5a52806123e652806124ac5280612532528061258e525080610dc8525080610d85525080610d42525080610cff525080610cbc525080610c79525080610c36525080610be55250505050505050505080610b4a5250806110cd5250806114165250806118e65250806118c252506138fd6000f3fe608060405234801561001057600080fd5b50600436106101a35760003560e01c806370a08231116100ee578063a50ff09711610097578063d4cadf6811610071578063d4cadf6814610340578063d5c096c414610348578063d73dd6231461035b578063dd62ed3e1461036e576101a3565b8063a50ff0971461030e578063a9059cbb14610325578063aaabadc514610338576101a3565b806387ec6817116100c857806387ec6817146102de5780638d928af8146102f157806395d89b4114610306576101a3565b806370a082311461029757806374f3b009146102aa57806377c91f70146102cb576101a3565b806334e1990711610150578063661884631161012a5780636618846314610274578063679aefce146102875780636daccffa1461028f576101a3565b806334e199071461023657806338fff2d01461024b5780636028bfd414610253576101a3565b806318160ddd1161018157806318160ddd1461020657806323b872dd1461020e578063313ce56714610221576101a3565b806301ec954a146101a857806306fdde03146101d1578063095ea7b3146101e6575b600080fd5b6101bb6101b636600461352c565b610381565b6040516101c89190613755565b60405180910390f35b6101d96103de565b6040516101c891906137a3565b6101f96101f4366004613229565b610493565b6040516101c89190613732565b6101bb6104aa565b6101f961021c3660046131e9565b6104b0565b61022961056b565b6040516101c89190613835565b61024961024436600461364b565b610570565b005b6101bb6105e1565b610266610261366004613358565b6105f0565b6040516101c8929190613814565b6101f9610282366004613229565b610619565b6101bb610680565b6101bb610782565b6101bb6102a5366004613195565b6107a6565b6102bd6102b8366004613358565b6107ce565b6040516101c8929190613704565b6102496102d9366004613320565b61088a565b6102666102ec366004613358565b61089e565b6102f96108b7565b6040516101c89190613782565b6101d96108c1565b610316610940565b6040516101c89392919061373d565b6101f9610333366004613229565b610969565b6102f9610976565b6101bb610980565b6102bd610356366004613358565b610986565b6101f9610369366004613229565b610aa9565b6101bb61037c3660046131b1565b610aec565b60006103958383610390610b48565b610b6c565b606061039f610b89565b90506000865160018111156103b057fe5b146103c7576103c28686868685610e06565b6103d4565b6103d48686868685610e7b565b9695505050505050565b60038054604080516020601f60027fffffffffffffffffffffffffffffffffffffffffffffffffffffffffffffffff6101006001881615020190951694909404938401819004810282018101909252828152606093909290918301828280156104885780601f1061045d57610100808354040283529160200191610488565b820191906000526020600020905b81548152906001019060200180831161046b57829003601f168201915b505050505090505b90565b60006104a0338484610edf565b5060015b92915050565b60025490565b73ffffffffffffffffffffffffffffffffffffffff8316600081815260016020908152604080832033808552925282205491926104fb9114806104f35750838210155b6101fb610f54565b610506858585610f62565b3373ffffffffffffffffffffffffffffffffffffffff86161480159061054c57507fffffffffffffffffffffffffffffffffffffffffffffffffffffffffffffffff8114155b1561055e5761055e8533858403610edf565b60019150505b9392505050565b601290565b610578611065565b61058b64e8d4a5100082101560cb610f54565b6105a167016345785d8a000082111560ca610f54565b60068190556040517f9cabc14d438714dbcd9292df9b3f89c42f98acd93a675ad72cd6033777e9b8e7906105d6908390613755565b60405180910390a150565b60006105eb6110cb565b905090565b60006060610609898989898989896110ef6111f5611256565b9150915097509795505050505050565b33600090815260016020908152604080832073ffffffffffffffffffffffffffffffffffffffff861684529091528120548083106106625761065d33856000610edf565b610676565b61067633856106718487610b32565b610edf565b5060019392505050565b6000606061068c611414565b73ffffffffffffffffffffffffffffffffffffffff1663f94d46686106af6110cb565b6040518263ffffffff1660e01b81526004016106cb9190613755565b60006040518083038186803b1580156106e357600080fd5b505afa1580156106f7573d6000803e3d6000fd5b505050506040513d6000823e601f3d9081017fffffffffffffffffffffffffffffffffffffffffffffffffffffffffffffffe016820160405261073d9190810190613254565b5091505061077c61074c6104aa565b6107767f000000000000000000000000000000000000000000000000000000000000000084611438565b906115b2565b91505090565b7f000000000000000000000000000000000000000000000000000000000000000090565b73ffffffffffffffffffffffffffffffffffffffff1660009081526020819052604090205490565b606080886108126107dd611414565b73ffffffffffffffffffffffffffffffffffffffff163373ffffffffffffffffffffffffffffffffffffffff161460cd610f54565b61082761081d6110cb565b8214610258610f54565b6060610831610b89565b905061083d888261161d565b60006060806108518e8e8e8e8e8e8e6110ef565b9250925092506108618d84611671565b61086b82856111f5565b61087581856111f5565b909550935050505b5097509795505050505050565b610892611065565b61089b8161172b565b50565b600060606106098989898989898961179c611841611256565b60006105eb611414565b60048054604080516020601f60027fffffffffffffffffffffffffffffffffffffffffffffffffffffffffffffffff6101006001881615020190951694909404938401819004810282018101909252828152606093909290918301828280156104885780601f1061045d57610100808354040283529160200191610488565b600080600061094d6118a2565b156109566118c0565b61095e6118e4565b925092509250909192565b60006104a0338484610f62565b60006105eb611908565b60065490565b606080886109956107dd611414565b6109a061081d6110cb565b60606109aa610b89565b90506109b46104aa565b610a5a57600060606109c88d8d8d8a61198f565b915091506109dd620f424083101560cc610f54565b6109eb6000620f4240611a31565b6109fa8b620f42408403611a31565b610a048184611841565b80610a0d610b48565b67ffffffffffffffff81118015610a2357600080fd5b50604051908082528060200260200182016040528015610a4d578160200160208202803683370190505b509550955050505061087d565b610a64888261161d565b6000606080610a788e8e8e8e8e8e8e61179c565b925092509250610a888c84611a31565b610a928285611841565b610a9c81856111f5565b909550935061087d915050565b33600081815260016020908152604080832073ffffffffffffffffffffffffffffffffffffffff8716845290915281205490916104a09185906106719086611aee565b73ffffffffffffffffffffffffffffffffffffffff918216600090815260016020908152604080832093909416825291909152205490565b80610b2e81611b00565b5050565b6000610b42838311156001610f54565b50900390565b7f000000000000000000000000000000000000000000000000000000000000000090565b610b848184108015610b7d57508183105b6064610f54565b505050565b60606000610b95610b48565b905060608167ffffffffffffffff81118015610bb057600080fd5b50604051908082528060200260200182016040528015610bda578160200160208202803683370190505b5090508115610c22577f000000000000000000000000000000000000000000000000000000000000000081600081518110610c1157fe5b602002602001018181525050610c2b565b91506104909050565b6001821115610c22577f000000000000000000000000000000000000000000000000000000000000000081600181518110610c6257fe5b6020026020010181815250506002821115610c22577f000000000000000000000000000000000000000000000000000000000000000081600281518110610ca557fe5b6020026020010181815250506003821115610c22577f000000000000000000000000000000000000000000000000000000000000000081600381518110610ce857fe5b6020026020010181815250506004821115610c22577f000000000000000000000000000000000000000000000000000000000000000081600481518110610d2b57fe5b6020026020010181815250506005821115610c22577f000000000000000000000000000000000000000000000000000000000000000081600581518110610d6e57fe5b6020026020010181815250506006821115610c22577f000000000000000000000000000000000000000000000000000000000000000081600681518110610db157fe5b6020026020010181815250506007821115610c22577f000000000000000000000000000000000000000000000000000000000000000081600781518110610df457fe5b60200260200101818152505091505090565b6000610e12858361161d565b610e338660600151838581518110610e2657fe5b6020026020010151611b93565b60608701526000610e4687878787611b9f565b9050610e6581848781518110610e5857fe5b6020026020010151611bdc565b9050610e7081611be8565b979650505050505050565b6000610e8a8660600151611bff565b6060870152610e99858361161d565b610ead8660600151838681518110610e2657fe5b60608701526000610ec087878787611c23565b9050610e7081848681518110610ed257fe5b6020026020010151611c60565b73ffffffffffffffffffffffffffffffffffffffff80841660008181526001602090815260408083209487168084529490915290819020849055517f8c5be1e5ebec7d5bd14f71427d1e84f3dd0314c0f7b2291e5b200ac8c7c3b92590610f47908590613755565b60405180910390a3505050565b81610b2e57610b2e81611c6c565b73ffffffffffffffffffffffffffffffffffffffff8316600090815260208190526040902054610f97828210156101fa610f54565b610fbb73ffffffffffffffffffffffffffffffffffffffff841615156101fd610f54565b73ffffffffffffffffffffffffffffffffffffffff808516600090815260208190526040808220858503905591851681522054610ff89083611aee565b73ffffffffffffffffffffffffffffffffffffffff80851660008181526020819052604090819020939093559151908616907fddf252ad1be2c89b69c2b068fc378daa952ba7f163c4a11628f55a4df523b3ef90611057908690613755565b60405180910390a350505050565b6000306000357fffffffff000000000000000000000000000000000000000000000000000000001660405160200161109e92919061369d565b60405160208183030381529060405280519060200120905061089b6110c38233611cd9565b6101f5610f54565b7f000000000000000000000000000000000000000000000000000000000000000090565b60006060806110fc6118a2565b156111805761110e8760075487611d6d565b905060005b61111b610b48565b81101561117a5761115b82828151811061113157fe5b602002602001015189838151811061114557fe5b6020026020010151610b3290919063ffffffff16565b88828151811061116757fe5b6020908102919091010152600101611113565b506111cc565b611188610b48565b67ffffffffffffffff8111801561119e57600080fd5b506040519080825280602002602001820160405280156111c8578160200160208202803683370190505b5090505b6111d68785611e77565b90935091506111e58783611eff565b6007559750975097945050505050565b60005b611200610b48565b811015610b845761123783828151811061121657fe5b602002602001015183838151811061122a57fe5b6020026020010151611f7f565b83828151811061124357fe5b60209081029190910101526001016111f8565b600060603330146113565760003073ffffffffffffffffffffffffffffffffffffffff1660003660405161128b9291906136f4565b6000604051808303816000865af19150503d80600081146112c8576040519150601f19603f3d011682016040523d82523d6000602084013e6112cd565b606091505b5050905080600081146112dc57fe5b60046000803e6000517fffffffff00000000000000000000000000000000000000000000000000000000167f43adbafb000000000000000000000000000000000000000000000000000000008114611338573d6000803e3d6000fd5b506020600460003e604060205260243d03602460403e601c3d016000f35b6060611360610b89565b905061136c898261161d565b600060606113838e8e8e8e8e8e8e8e63ffffffff16565b509150915061139681848863ffffffff16565b80517fffffffffffffffffffffffffffffffffffffffffffffffffffffffffffffffe082018390526343adbafb7fffffffffffffffffffffffffffffffffffffffffffffffffffffffffffffffc08301526020027fffffffffffffffffffffffffffffffffffffffffffffffffffffffffffffffdc82016044820181fd5b7f000000000000000000000000000000000000000000000000000000000000000090565b80516000908190815b818110156114795761146f85828151811061145857fe5b602002602001015184611aee90919063ffffffff16565b9250600101611441565b508161148a576000925050506104a4565b600082816114988885611f9f565b905060005b60ff8110156115a55760006114c6868a6000815181106114b957fe5b6020026020010151611f9f565b905060015b868110156114ff576114f56114ef6114e9848d85815181106114b957fe5b89611f9f565b86611fc3565b91506001016114cb565b5083945061155f61153561151c611516868b611f9f565b84611f9f565b61152f6115298a89611f9f565b88611f9f565b90611aee565b61155a61154c611546876001610b32565b85611f9f565b61152f6114e98b6001611aee565b611fc3565b9350848411156115855760016115758587610b32565b1161158057506115a5565b61159c565b60016115918686610b32565b1161159c57506115a5565b5060010161149d565b5090979650505050505050565b60006115c18215156004610f54565b670de0b6b3a764000083026115f38415806115ec5750670de0b6b3a76400008583816115e957fe5b04145b6006610f54565b600283048101611607828210156006610f54565b600084828161161257fe5b049695505050505050565b60005b611628610b48565b811015610b845761165283828151811061163e57fe5b60200260200101518383815181106114b957fe5b83828151811061165e57fe5b6020908102919091010152600101611620565b73ffffffffffffffffffffffffffffffffffffffff82166000908152602081905260409020546116a6828210156101fa610f54565b73ffffffffffffffffffffffffffffffffffffffff8316600090815260208190526040902082820390556002546116dd9083610b32565b60025560405160009073ffffffffffffffffffffffffffffffffffffffff8516907fddf252ad1be2c89b69c2b068fc378daa952ba7f163c4a11628f55a4df523b3ef90610f47908690613755565b6117406117366118c0565b42106101f7610f54565b600580547fffffffffffffffffffffffffffffffffffffffffffffffffffffffffffffff00168215151790556040517fa5bc6afced71829f82830a97f26eb92aea46d29443b5acb7d47c4a52b1e27341906105d6908390613732565b60006060806117a9611ff6565b60606117b88860075488611d6d565b905060005b6117c5610b48565b81101561180e576117ef8282815181106117db57fe5b60200260200101518a838151811061114557fe5b8982815181106117fb57fe5b60209081029190910101526001016117bd565b506000606061181d8a8861200b565b9150915061182b8a82612062565b600755909c909b50909950975050505050505050565b60005b61184c610b48565b811015610b845761188383828151811061186257fe5b602002602001015183838151811061187657fe5b6020026020010151611fc3565b83828151811061188f57fe5b6020908102919091010152600101611844565b60006118ac6118e4565b421015806105eb57505060055460ff161590565b7f000000000000000000000000000000000000000000000000000000000000000090565b7f000000000000000000000000000000000000000000000000000000000000000090565b6000611912611414565b73ffffffffffffffffffffffffffffffffffffffff1663aaabadc56040518163ffffffff1660e01b815260040160206040518083038186803b15801561195757600080fd5b505afa15801561196b573d6000803e3d6000fd5b505050506040513d601f19601f820116820180604052508101906105eb91906133fb565b6000606061199b611ff6565b60006119a6846120cd565b90506119c160008260028111156119b957fe5b1460ce610f54565b60606119cc856120e3565b90506119e081516119db610b48565b6120f9565b6119f1816119ec610b89565b61161d565b6000611a1d7f000000000000000000000000000000000000000000000000000000000000000083611438565b600781905599919850909650505050505050565b73ffffffffffffffffffffffffffffffffffffffff8216600090815260208190526040902054611a619082611aee565b73ffffffffffffffffffffffffffffffffffffffff8316600090815260208190526040902055600254611a949082611aee565b60025560405173ffffffffffffffffffffffffffffffffffffffff8316906000907fddf252ad1be2c89b69c2b068fc378daa952ba7f163c4a11628f55a4df523b3ef90611ae2908590613755565b60405180910390a35050565b60008282016105648482101583610f54565b600281511015611b0f5761089b565b600081600081518110611b1e57fe5b602002602001015190506000600190505b8251811015610b84576000838281518110611b4657fe5b60200260200101519050611b898173ffffffffffffffffffffffffffffffffffffffff168473ffffffffffffffffffffffffffffffffffffffff16106065610f54565b9150600101611b2f565b60006105648383611f9f565b6000611ba9611ff6565b60006103d47f00000000000000000000000000000000000000000000000000000000000000008686868a60600151612106565b60006105648383611fc3565b60006104a4611bf86006546121ac565b83906121d2565b600080611c176006548461222090919063ffffffff16565b90506105648382610b32565b6000611c2d611ff6565b60006103d47f00000000000000000000000000000000000000000000000000000000000000008686868a6060015161227a565b60006105648383611f7f565b7f08c379a0000000000000000000000000000000000000000000000000000000006000908152602060045260076024526642414c23000030600a808404818106603090810160081b95839006959095019082900491820690940160101b939093010160c81b604452606490fd5b6000611ce3611908565b73ffffffffffffffffffffffffffffffffffffffff166391d1485484846040518363ffffffff1660e01b8152600401611d1d92919061375e565b60206040518083038186803b158015611d3557600080fd5b505afa158015611d49573d6000803e3d6000fd5b505050506040513d601f19601f82011682018060405250810190610564919061333c565b606080611d78610b48565b67ffffffffffffffff81118015611d8e57600080fd5b50604051908082528060200260200182016040528015611db8578160200160208202803683370190505b50905082611dc7579050610564565b60008086600081518110611dd757fe5b602002602001015190506000600190505b611df0610b48565b811015611e27576000888281518110611e0557fe5b6020026020010151905082811115611e1e578193508092505b50600101611de8565b50611e557f000000000000000000000000000000000000000000000000000000000000000088888589612304565b838381518110611e6157fe5b6020908102919091010152509095945050505050565b600060606000611e86846120cd565b90506000816002811115611e9657fe5b1415611eb057611ea68585612366565b9250925050611ef8565b6001816002811115611ebe57fe5b1415611ece57611ea6858561243d565b6002816002811115611edc57fe5b1415611eec57611ea6858561246f565b611ef660d2611c6c565b505b9250929050565b6000805b611f0b610b48565b811015611f5457611f35838281518110611f2157fe5b602002602001015185838151811061114557fe5b848281518110611f4157fe5b6020908102919091010152600101611f03565b506105647f000000000000000000000000000000000000000000000000000000000000000084611438565b6000611f8e8215156004610f54565b818381611f9757fe5b049392505050565b6000828202610564841580611fbc575083858381611fb957fe5b04145b6003610f54565b6000611fd28215156004610f54565b82611fdf575060006104a4565b816001840381611feb57fe5b0460010190506104a4565b6120096120016118a2565b6101f6610f54565b565b60006060600061201a846120cd565b9050600181600281111561202a57fe5b141561203a57611ea685856124f9565b600281600281111561204857fe5b141561205857611ea68585612573565b611ef660d1611c6c565b6000805b61206e610b48565b811015611f54576120ae83828151811061208457fe5b602002602001015185838151811061209857fe5b6020026020010151611aee90919063ffffffff16565b8482815181106120ba57fe5b6020908102919091010152600101612066565b6000818060200190518101906104a49190613417565b60608180602001905181019061056491906134dd565b610b2e8183146067610f54565b6000806121138787611438565b90506121258387868151811061114557fe5b86858151811061213157fe5b602002602001018181525050600061214b88888489612635565b905061215d8488878151811061209857fe5b87868151811061216957fe5b6020026020010181815250506121a0600161152f89898151811061218957fe5b602002602001015184610b3290919063ffffffff16565b98975050505050505050565b6000670de0b6b3a764000082106121c45760006104a4565b50670de0b6b3a76400000390565b60006121e18215156004610f54565b826121ee575060006104a4565b670de0b6b3a764000083810290612208908583816115e957fe5b82600182038161221457fe5b046001019150506104a4565b600082820261223a841580611fbc575083858381611fb957fe5b806122495760009150506104a4565b670de0b6b3a76400007fffffffffffffffffffffffffffffffffffffffffffffffffffffffffffffffff8201612214565b6000806122878787611438565b90506122998387878151811061209857fe5b8686815181106122a557fe5b60200260200101818152505060006122bf88888488612635565b90506122d18488888151811061114557fe5b8787815181106122dd57fe5b6020026020010181815250506121a060016122fe838a898151811061114557fe5b90610b32565b60008061231387878787612635565b905060008187868151811061232457fe5b602002602001015111612338576000612348565b6123488288878151811061114557fe5b90506121a0670de0b6b3a764000061236083876127ee565b90612832565b60006060612372611ff6565b600061237c610b48565b905060008061238a8661287a565b9150915061239b8382106064610f54565b60608367ffffffffffffffff811180156123b457600080fd5b506040519080825280602002602001820160405280156123de578160200160208202803683370190505b5090506124187f00000000000000000000000000000000000000000000000000000000000000008984866124106104aa565b60065461289c565b81838151811061242457fe5b6020908102919091010152919791965090945050505050565b60006060600061244c84612994565b90506060612462868361245d6104aa565b6129aa565b9196919550909350505050565b6000606061247b611ff6565b6060600061248885612a5c565b9150915061249982516119db610b48565b6124a5826119ec610b89565b60006124dd7f000000000000000000000000000000000000000000000000000000000000000088856124d56104aa565b600654612a74565b90506124ed8282111560cf610f54565b96919550909350505050565b6000606080600061250985612a5c565b9150915061251f612518610b48565b83516120f9565b61252b826119ec610b89565b60006125637f0000000000000000000000000000000000000000000000000000000000000000888561255b6104aa565b600654612d0c565b90506124ed8282101560d0610f54565b600060606000806125838561287a565b9150915060006125c07f00000000000000000000000000000000000000000000000000000000000000008884866125b86104aa565b600654612f4b565b905060606125cc610b48565b67ffffffffffffffff811180156125e257600080fd5b5060405190808252806020026020018201604052801561260c578160200160208202803683370190505b5090508181848151811061261c57fe5b6020908102919091010152929792965091945050505050565b600080612643868651611f9f565b905060008560008151811061265457fe5b6020026020010151905060006126728751886000815181106114b957fe5b905060015b87518110156126be576126a361269d612696848b85815181106114b957fe5b8a51611f9f565b88611f7f565b91506126b488828151811061145857fe5b9250600101612677565b506126e58786815181106126ce57fe5b602002602001015183610b3290919063ffffffff16565b915060006126fc6126f68889611f9f565b85611fc3565b9050612728826107768a898151811061271157fe5b6020026020010151846127ee90919063ffffffff16565b9050600061274061273989876115b2565b8590611aee565b90506000806127666127528b85611aee565b6127608661152f8e806127ee565b906121d2565b905060005b60ff8110156127de5781925061279b61278d8c6122fe8761152f876002611f9f565b6127608761152f86806127ee565b9150828211156127c05760016127b18385610b32565b116127bb576127de565b6127d6565b60016127cc8484610b32565b116127d6576127de565b60010161276b565b509b9a5050505050505050505050565b6000828202612808841580611fbc575083858381611fb957fe5b6706f05b59d3b200008101612821828210156003610f54565b6000670de0b6b3a764000082611612565b60006128418215156004610f54565b8261284e575060006104a4565b670de0b6b3a764000083810290612868908583816115e957fe5b82818161287157fe5b049150506104a4565b6000808280602001905181019061289191906134a7565b909590945092505050565b6000806128a98888611438565b905060006128c5826128bf87612760818b610b32565b90612220565b90506000805b8951811015612904576128fa8a82815181106128e357fe5b602002602001015183611aee90919063ffffffff16565b91506001016128cb565b5060006129138b8b858c612635565b90506000612927828c8c8151811061114557fe5b90506000612951848d8d8151811061293b57fe5b602002602001015161283290919063ffffffff16565b9050600061295e826121ac565b9050600061296c8a83612220565b905061298161297a826121ac565b8590612ffc565b9f9e505050505050505050505050505050565b600081806020019051810190610564919061347a565b606060006129b88484612832565b90506060855167ffffffffffffffff811180156129d457600080fd5b506040519080825280602002602001820160405280156129fe578160200160208202803683370190505b50905060005b8651811015612a5257612a3383888381518110612a1d57fe5b6020026020010151612ffc90919063ffffffff16565b828281518110612a3f57fe5b6020908102919091010152600101612a04565b5095945050505050565b60606000828060200190518101906128919190613433565b600080612a818787611438565b90506000805b8751811015612aa957612a9f8882815181106128e357fe5b9150600101612a87565b506060865167ffffffffffffffff81118015612ac457600080fd5b50604051908082528060200260200182016040528015612aee578160200160208202803683370190505b5090506000805b8951811015612bb5576000612b26858c8481518110612b1057fe5b60200260200101516121d290919063ffffffff16565b9050612b628b8381518110612b3757fe5b60200260200101516127608c8581518110612b4e57fe5b60200260200101518e868151811061114557fe5b848381518110612b6e57fe5b602002602001018181525050612baa612ba382868581518110612b8d57fe5b602002602001015161222090919063ffffffff16565b8490611aee565b925050600101612af5565b506060895167ffffffffffffffff81118015612bd057600080fd5b50604051908082528060200260200182016040528015612bfa578160200160208202803683370190505b50905060005b8a51811015612cd1576000848281518110612c1757fe5b60200260200101518411612c2d57506000612c75565b612c72612c4c868481518110612c3f57fe5b60200260200101516121ac565b612760878581518110612c5b57fe5b602002602001015187610b3290919063ffffffff16565b90505b6000612c818a83612220565b90506000612c9d612c91836121ac565b8e8681518110612b1057fe5b9050612caf818f868151811061114557fe5b858581518110612cbb57fe5b6020908102919091010152505050600101612c00565b506000612cde8c83611438565b9050612cfc612cf5612cf083896121d2565b6121ac565b8a90612220565b9c9b505050505050505050505050565b600080612d198787611438565b90506000805b8751811015612d4157612d378882815181106128e357fe5b9150600101612d1f565b506060865167ffffffffffffffff81118015612d5c57600080fd5b50604051908082528060200260200182016040528015612d86578160200160208202803683370190505b5090506000805b8951811015612e1a576000612da8858c848151811061293b57fe5b9050612de48b8381518110612db957fe5b60200260200101516123608c8581518110612dd057fe5b60200260200101518e868151811061209857fe5b848381518110612df057fe5b602002602001018181525050612e0f612ba382868581518110612a1d57fe5b925050600101612d8d565b506060895167ffffffffffffffff81118015612e3557600080fd5b50604051908082528060200260200182016040528015612e5f578160200160208202803683370190505b50905060005b8a51811015612f1c576000848281518110612e7c57fe5b60200260200101518410612e9257506000612ec0565b612ebd612ead670de0b6b3a764000087858151811061114557fe5b6127608688868151811061114557fe5b90505b6000612ecc8a83612220565b90506000612ee8612edc836121ac565b8e8681518110612a1d57fe5b9050612efa818f868151811061209857fe5b858581518110612f0657fe5b6020908102919091010152505050600101612e65565b506000612f298c83611438565b9050612cfc612f44670de0b6b3a76400006122fe848a612832565b8a90612ffc565b600080612f588888611438565b90506000612f6e826128bf87612760818b611aee565b90506000805b8951811015612f9657612f8c8a82815181106128e357fe5b9150600101612f74565b506000612fa58b8b858c612635565b90506000612fb88b8b815181106126ce57fe5b90506000612fcc848d8d8151811061293b57fe5b90506000612fd9826121ac565b90506000612fe78a83612220565b9050612981612ff5826121ac565b85906121d2565b6000828202613016841580611fbc575083858381611fb957fe5b670de0b6b3a764000090049392505050565b80356104a48161388a565b600082601f830112613043578081fd5b81356130566130518261386a565b613843565b81815291506020808301908481018184028601820187101561307757600080fd5b60005b848110156130965781358452928201929082019060010161307a565b505050505092915050565b600082601f8301126130b1578081fd5b81516130bf6130518261386a565b8181529150602080830190848101818402860182018710156130e057600080fd5b60005b84811015613096578151845292820192908201906001016130e3565b600082601f83011261310f578081fd5b813567ffffffffffffffff811115613125578182fd5b61315660207fffffffffffffffffffffffffffffffffffffffffffffffffffffffffffffffe0601f84011601613843565b915080825283602082850101111561316d57600080fd5b8060208401602084013760009082016020015292915050565b8035600281106104a457600080fd5b6000602082840312156131a6578081fd5b81356105648161388a565b600080604083850312156131c3578081fd5b82356131ce8161388a565b915060208301356131de8161388a565b809150509250929050565b6000806000606084860312156131fd578081fd5b83356132088161388a565b925060208401356132188161388a565b929592945050506040919091013590565b6000806040838503121561323b578182fd5b82356132468161388a565b946020939093013593505050565b600080600060608486031215613268578283fd5b835167ffffffffffffffff8082111561327f578485fd5b818601915086601f830112613292578485fd5b81516132a06130518261386a565b80828252602080830192508086018b8283870289010111156132c057898afd5b8996505b848710156132eb5780516132d78161388a565b8452600196909601959281019281016132c4565b508901519097509350505080821115613302578384fd5b5061330f868287016130a1565b925050604084015190509250925092565b600060208284031215613331578081fd5b8135610564816138ac565b60006020828403121561334d578081fd5b8151610564816138ac565b600080600080600080600060e0888a031215613372578485fd5b8735965060208801356133848161388a565b955060408801356133948161388a565b9450606088013567ffffffffffffffff808211156133b0578485fd5b6133bc8b838c01613033565b955060808a0135945060a08a0135935060c08a01359150808211156133df578283fd5b506133ec8a828b016130ff565b91505092959891949750929550565b60006020828403121561340c578081fd5b81516105648161388a565b600060208284031215613428578081fd5b8151610564816138ba565b600080600060608486031215613447578081fd5b8351613452816138ba565b602085015190935067ffffffffffffffff81111561346e578182fd5b61330f868287016130a1565b6000806040838503121561348c578182fd5b8251613497816138ba565b6020939093015192949293505050565b6000806000606084860312156134bb578081fd5b83516134c6816138ba565b602085015160409095015190969495509392505050565b600080604083850312156134ef578182fd5b82516134fa816138ba565b602084015190925067ffffffffffffffff811115613516578182fd5b613522858286016130a1565b9150509250929050565b60008060008060808587031215613541578182fd5b843567ffffffffffffffff80821115613558578384fd5b818701915061012080838a03121561356e578485fd5b61357781613843565b90506135838984613186565b81526135928960208501613028565b60208201526135a48960408501613028565b6040820152606083013560608201526080830135608082015260a083013560a08201526135d48960c08501613028565b60c08201526135e68960e08501613028565b60e082015261010080840135838111156135fe578687fd5b61360a8b8287016130ff565b828401525050809650506020870135915080821115613627578384fd5b5061363487828801613033565b949794965050505060408301359260600135919050565b60006020828403121561365c578081fd5b5035919050565b6000815180845260208085019450808401835b8381101561369257815187529582019590820190600101613676565b509495945050505050565b60609290921b7fffffffffffffffffffffffffffffffffffffffff0000000000000000000000001682527fffffffff0000000000000000000000000000000000000000000000000000000016601482015260180190565b6000828483379101908152919050565b6000604082526137176040830185613663565b82810360208401526137298185613663565b95945050505050565b901515815260200190565b92151583526020830191909152604082015260600190565b90815260200190565b91825273ffffffffffffffffffffffffffffffffffffffff16602082015260400190565b73ffffffffffffffffffffffffffffffffffffffff91909116815260200190565b6000602080835283518082850152825b818110156137cf578581018301518582016040015282016137b3565b818111156137e05783604083870101525b50601f017fffffffffffffffffffffffffffffffffffffffffffffffffffffffffffffffe016929092016040019392505050565b60008382526040602083015261382d6040830184613663565b949350505050565b60ff91909116815260200190565b60405181810167ffffffffffffffff8111828210171561386257600080fd5b604052919050565b600067ffffffffffffffff821115613880578081fd5b5060209081020190565b73ffffffffffffffffffffffffffffffffffffffff8116811461089b57600080fd5b801515811461089b57600080fd5b6003811061089b57600080fdfea264697066735822122056b70d253e3915dcf854f1c5f9abf6d5391b2a360669aaabf3624dadb2ab9f5464736f6c63430007010033a2646970667358221220f35e69d0aac5672ce273ec781531ebc584dc0aa9ad3279d4acc629d12f7a568d64736f6c63430007010033",
  "devdoc": {
    "kind": "dev",
    "methods": {
      "create(string,string,address[],uint256,uint256,uint256,uint256)": {
        "details": "Deploys a new `StablePool`."
      }
    },
    "version": 1
  },
  "userdoc": {
    "kind": "user",
    "methods": {},
    "version": 1
  },
  "storageLayout": {
    "storage": [],
    "types": null
  }
}