{
  "address": "0x360E616ef7A487558982C0005C7B8E60ef252a78",
  "abi": [
    {
      "inputs": [
        {
          "internalType": "contract IVault",
          "name": "_vault",
          "type": "address"
        }
      ],
      "stateMutability": "nonpayable",
      "type": "constructor"
    },
    {
      "anonymous": false,
      "inputs": [
        {
          "indexed": true,
          "internalType": "address",
          "name": "pool",
          "type": "address"
        }
      ],
      "name": "PoolRegistered",
      "type": "event"
    },
    {
      "inputs": [
        {
          "internalType": "string",
          "name": "name",
          "type": "string"
        },
        {
          "internalType": "string",
          "name": "symbol",
          "type": "string"
        },
        {
          "internalType": "contract IERC20[]",
          "name": "tokens",
          "type": "address[]"
        },
        {
          "internalType": "uint256",
          "name": "amplificationParameter",
          "type": "uint256"
        },
        {
          "internalType": "uint256",
          "name": "swapFee",
          "type": "uint256"
        },
        {
          "internalType": "uint256",
          "name": "emergencyPeriod",
          "type": "uint256"
        },
        {
          "internalType": "uint256",
          "name": "emergencyPeriodCheckExtension",
          "type": "uint256"
        }
      ],
      "name": "create",
      "outputs": [
        {
          "internalType": "address",
          "name": "",
          "type": "address"
        }
      ],
      "stateMutability": "nonpayable",
      "type": "function"
    },
    {
      "inputs": [],
      "name": "vault",
      "outputs": [
        {
          "internalType": "contract IVault",
          "name": "",
          "type": "address"
        }
      ],
      "stateMutability": "view",
      "type": "function"
    }
  ],
  "transactionHash": "0x836f91c843c70902574b056a37a740c0a434cc023c47729d83044d4eb9b8f999",
  "args": [
    "0xba1c01474A7598c2B49015FdaFc67DdF06ce15f7"
  ],
  "solcInputHash": "0a4fdc9962a9ccfb07bf1f8e7d3a38b7",
  "bytecode": "0x60a060405234801561001057600080fd5b50604051614c78380380614c7883398101604081905261002f91610044565b60601b6001600160601b031916608052610072565b600060208284031215610055578081fd5b81516001600160a01b038116811461006b578182fd5b9392505050565b60805160601c614be661009260003980607d528060fd5250614be66000f3fe60806040523480156200001157600080fd5b50600436106200003a5760003560e01c80638576963b146200003f578063fbfa77cf146200006e575b600080fd5b620000566200005036600462000228565b62000078565b604051620000659190620003bc565b60405180910390f35b62000056620000fb565b6000807f000000000000000000000000000000000000000000000000000000000000000089898989898989604051620000b19062000163565b620000c4989796959493929190620003dd565b604051809103906000f080158015620000e1573d6000803e3d6000fd5b509050620000ef816200011f565b98975050505050505050565b7f000000000000000000000000000000000000000000000000000000000000000081565b60405173ffffffffffffffffffffffffffffffffffffffff8216907f9cc152f4650ca2829a210a21551537f4cc4d48c2611ec06974f835e911921b9090600090a250565b6146de80620004d383390190565b803573ffffffffffffffffffffffffffffffffffffffff811681146200019657600080fd5b92915050565b600082601f830112620001ad578081fd5b813567ffffffffffffffff811115620001c4578182fd5b620001f760207fffffffffffffffffffffffffffffffffffffffffffffffffffffffffffffffe0601f8401160162000491565b91508082528360208285010111156200020f57600080fd5b8060208401602084013760009082016020015292915050565b600080600080600080600060e0888a03121562000243578283fd5b67ffffffffffffffff80893511156200025a578384fd5b620002698a8a358b016200019c565b97506020890135818111156200027d578485fd5b6200028b8b828c016200019c565b975050604089013581811115620002a0578485fd5b8901601f81018b13620002b1578485fd5b803582811115620002c0578586fd5b602081029250620002d46020840162000491565b80828252602082019150602084018e6020878701011115620002f4578889fd5b8895505b8386101562000323576200030d8f8262000171565b83526001959095019460209283019201620002f8565b509a9d999c50999a60608101359a5060808101359960a0820135995060c090910135975095505050505050565b60008151808452815b81811015620003775760208185018101518683018201520162000359565b81811115620003895782602083870101525b50601f017fffffffffffffffffffffffffffffffffffffffffffffffffffffffffffffffe0169290920160200192915050565b73ffffffffffffffffffffffffffffffffffffffff91909116815260200190565b600061010073ffffffffffffffffffffffffffffffffffffffff8b16835260208181850152620004108285018c62000350565b9150838203604085015262000426828b62000350565b84810360608601528951808252828b01935090820190845b818110156200046657620004538551620004b9565b835293830193918301916001016200043e565b5050608085019890985250505060a081019390935260c083019190915260e090910152949350505050565b60405181810167ffffffffffffffff81118282101715620004b157600080fd5b604052919050565b73ffffffffffffffffffffffffffffffffffffffff169056fe6103006040523480156200001257600080fd5b50604051620046de380380620046de83398101604081905262000035916200089d565b8787878786868686600087878787878781818787816003908051906020019062000061929190620006bb565b50805162000077906004906020840190620006bb565b5050506276a7008211156200008b57600080fd5b62278d008111156200009c57600080fd5b4290910160808190520160a052835160021115620000b957600080fd5b600784511115620000c957600080fd5b620000df846200056960201b62000d001760201c565b67016345785d8a0000831115620000f557600080fd5b6040516309b2760f60e01b81526000906001600160a01b038a16906309b2760f9062000126908b9060040162000a2c565b602060405180830381600087803b1580156200014157600080fd5b505af115801562000156573d6000803e3d6000fd5b505050506040513d601f19601f820116820180604052508101906200017c919062000884565b9050886001600160a01b03166366a9c7d2828788516001600160401b0381118015620001a757600080fd5b50604051908082528060200260200182016040528015620001d2578160200160208202803683370190505b506040518463ffffffff1660e01b8152600401620001f39392919062000990565b600060405180830381600087803b1580156200020e57600080fd5b505af115801562000223573d6000803e3d6000fd5b5050506001600160601b031960608b901b1660c0525060e081905260068490558451610100528451620002585760006200026f565b846000815181106200026657fe5b60200260200101515b60601b6001600160601b03191661012052845160011062000292576000620002a9565b84600181518110620002a057fe5b60200260200101515b60601b6001600160601b031916610140528451600210620002cc576000620002e3565b84600281518110620002da57fe5b60200260200101515b60601b6001600160601b031916610160528451600310620003065760006200031d565b846003815181106200031457fe5b60200260200101515b60601b6001600160601b0319166101805284516004106200034057600062000357565b846004815181106200034e57fe5b60200260200101515b60601b6001600160601b0319166101a05284516005106200037a57600062000391565b846005815181106200038857fe5b60200260200101515b60601b6001600160601b0319166101c0528451600610620003b4576000620003cb565b84600681518110620003c257fe5b60200260200101515b60601b6001600160601b0319166101e0528451620003eb57600062000411565b6200041185600081518110620003fd57fe5b60200260200101516200057960201b60201c565b6102005284516001106200042757600062000439565b6200043985600181518110620003fd57fe5b6102205284516002106200044f57600062000461565b6200046185600281518110620003fd57fe5b6102405284516003106200047757600062000489565b6200048985600381518110620003fd57fe5b6102605284516004106200049f576000620004b1565b620004b185600481518110620003fd57fe5b610280528451600510620004c7576000620004d9565b620004d985600581518110620003fd57fe5b6102a0528451600610620004ef57600062000501565b6200050185600681518110620003fd57fe5b6102c0818152505050505050505050505050505050505050670de0b6b3a76400008410156200052f57600080fd5b69010f0cf064dd592000008411156200054757600080fd5b6005855111156200055757600080fd5b5050506102e0525062000a8a92505050565b8062000575816200061b565b5050565b600080826001600160a01b031663313ce5676040518163ffffffff1660e01b815260040160206040518083038186803b158015620005b657600080fd5b505afa158015620005cb573d6000803e3d6000fd5b505050506040513d601f19601f82011682018060405250810190620005f1919062000966565b60ff169050600062000610601283620006a060201b62000d0e1760201c565b600a0a949350505050565b6002815110156200062c576200069d565b6000816000815181106200063c57fe5b602002602001015190506000600190505b82518110156200069a5760008382815181106200066657fe5b60200260200101519050806001600160a01b0316836001600160a01b0316106200068f57600080fd5b91506001016200064d565b50505b50565b600082821115620006b057600080fd5b508082035b92915050565b828054600181600116156101000203166002900490600052602060002090601f016020900481019282601f10620006fe57805160ff19168380011785556200072e565b828001600101855582156200072e579182015b828111156200072e57825182559160200191906001019062000711565b506200073c92915062000740565b5090565b5b808211156200073c576000815560010162000741565b600082601f83011262000768578081fd5b81516001600160401b038111156200077e578182fd5b60208082026200079082820162000a41565b83815293508184018583018287018401881015620007ad57600080fd5b600092505b84831015620007dd578051620007c88162000a74565b825260019290920191908301908301620007b2565b505050505092915050565b8051620006b58162000a74565b600082601f83011262000806578081fd5b81516001600160401b038111156200081c578182fd5b602062000832601f8301601f1916820162000a41565b925081835284818386010111156200084957600080fd5b60005b82811015620008695784810182015184820183015281016200084c565b828111156200087b5760008284860101525b50505092915050565b60006020828403121562000896578081fd5b5051919050565b600080600080600080600080610100898b031215620008ba578384fd5b620008c68a8a620007e8565b60208a01519098506001600160401b0380821115620008e3578586fd5b620008f18c838d01620007f5565b985060408b015191508082111562000907578586fd5b620009158c838d01620007f5565b975060608b01519150808211156200092b578586fd5b506200093a8b828c0162000757565b9550506080890151935060a0890151925060c0890151915060e089015190509295985092959890939650565b60006020828403121562000978578081fd5b815160ff8116811462000989578182fd5b9392505050565b60006060820185835260206060818501528186518084526080860191508288019350845b81811015620009dc57620009c9855162000a68565b83529383019391830191600101620009b4565b505084810360408601528551808252908201925081860190845b8181101562000a1e5762000a0b835162000a68565b85529383019391830191600101620009f6565b509298975050505050505050565b602081016003831062000a3b57fe5b91905290565b6040518181016001600160401b038111828210171562000a6057600080fd5b604052919050565b6001600160a01b031690565b6001600160a01b03811681146200069d57600080fd5b60805160a05160c05160601c60e051610100516101205160601c6101405160601c6101605160601c6101805160601c6101a05160601c6101c05160601c6101e05160601c61020051610220516102405161026051610280516102a0516102c0516102e051613aad62000c31600039806107bd52806107f052806115c15280611b525280611c0b5280611f20528061205952806125355280612618528061287c52806128d75250806114e65250806114835250806114205250806113bd52508061135a5250806112f7525080611288525050505050505050806105b15280610a5d5280610bd45280610ef45280610faa52806111fe528061126252806112d05280611333528061139652806113f9528061145c52806114bf528061153b528061195b52806119d15280611bcf5280611e5e5280611eb95280611feb528061229352806124a052806124ce52806125e1528061283e528061290f52508061055d52806106fd52806108825280610b3d5250806106c15280610856528061093e5280610b115280611a81525080610a135280611a4a5250806109f052806118a75250613aad6000f3fe608060405234801561001057600080fd5b50600436106101ae5760003560e01c806374f3b009116100ee578063a9059cbb11610097578063d4cadf6811610071578063d4cadf681461035e578063d5c096c414610366578063d73dd62314610379578063dd62ed3e1461038c576101ae565b8063a9059cbb14610330578063aaabadc514610343578063b58c95341461034b576101ae565b80638d928af8116100c85780638d928af8146102fc57806395d89b4114610311578063a50ff09714610319576101ae565b806374f3b009146102b557806377c91f70146102d657806387ec6817146102e9576101ae565b806338fff2d01161015b5780636618846311610135578063661884631461027f578063679aefce146102925780636daccffa1461029a57806370a08231146102a2576101ae565b806338fff2d0146102435780636028bfd41461024b578063618e086e1461026c576101ae565b806323b872dd1161018c57806323b872dd14610206578063313ce5671461021957806334e199071461022e576101ae565b806306fdde03146101b3578063095ea7b3146101d157806318160ddd146101f1575b600080fd5b6101bb61039f565b6040516101c89190613953565b60405180910390f35b6101e46101df366004613489565b610454565b6040516101c891906138e2565b6101f961046b565b6040516101c89190613905565b6101e4610214366004613449565b610471565b610221610534565b6040516101c891906139e5565b61024161023c3660046137fb565b610539565b005b6101f961055b565b61025e6102593660046135af565b61057f565b6040516101c89291906139c4565b6101f961027a36600461378a565b6105a8565b6101e461028d366004613489565b610654565b6101f96106bb565b6101f96107ee565b6101f96102b03660046133f5565b610812565b6102c86102c33660046135af565b61083a565b6040516101c89291906138b4565b6102416102e4366004613577565b61090f565b61025e6102f73660046135af565b610923565b61030461093c565b6040516101c89190613932565b6101bb610960565b6103216109df565b6040516101c8939291906138ed565b6101e461033e366004613489565b610a38565b610304610a45565b6101f961035936600461378a565b610a54565b6101f9610aef565b6102c86103743660046135af565b610af5565b6101e4610387366004613489565b610c85565b6101f961039a366004613411565b610cc8565b60038054604080516020601f60027fffffffffffffffffffffffffffffffffffffffffffffffffffffffffffffffff6101006001881615020190951694909404938401819004810282018101909252828152606093909290918301828280156104495780601f1061041e57610100808354040283529160200191610449565b820191906000526020600020905b81548152906001019060200180831161042c57829003601f168201915b505050505090505b90565b6000610461338484610d23565b5060015b92915050565b60025490565b73ffffffffffffffffffffffffffffffffffffffff83166000818152600160209081526040808320338085529252822054919214806104b05750828110155b6104b957600080fd5b6104c4858585610d98565b3373ffffffffffffffffffffffffffffffffffffffff86161480159061050a57507fffffffffffffffffffffffffffffffffffffffffffffffffffffffffffffffff8114155b15610529578281101561051c57600080fd5b6105298533858403610d23565b506001949350505050565b601290565b610541610e75565b67016345785d8a000081111561055657600080fd5b600655565b7f000000000000000000000000000000000000000000000000000000000000000090565b6000606061059889898989898989610ed9610fa5611024565b9150915097509795505050505050565b60006105d583837f00000000000000000000000000000000000000000000000000000000000000006111e2565b60606105df6111f9565b905061060286604001518285815181106105f557fe5b6020026020010151611523565b60408701526106118582611536565b600061061f878787876115b0565b905061063e8183878151811061063157fe5b60200260200101516115f7565b905061064981611603565b979650505050505050565b33600090815260016020908152604080832073ffffffffffffffffffffffffffffffffffffffff8616845290915281205480831061069d5761069833856000610d23565b6106b1565b6106b133856106ac8487610d0e565b610d23565b5060019392505050565b600060607f000000000000000000000000000000000000000000000000000000000000000073ffffffffffffffffffffffffffffffffffffffff1663f94d46687f00000000000000000000000000000000000000000000000000000000000000006040518263ffffffff1660e01b81526004016107389190613905565b60006040518083038186803b15801561075057600080fd5b505afa158015610764573d6000803e3d6000fd5b505050506040513d6000823e601f3d9081017fffffffffffffffffffffffffffffffffffffffffffffffffffffffffffffffe01682016040526107aa91908101906134b4565b9150506107e86107b861046b565b6107e27f00000000000000000000000000000000000000000000000000000000000000008461161a565b90611787565b91505090565b7f000000000000000000000000000000000000000000000000000000000000000090565b73ffffffffffffffffffffffffffffffffffffffff1660009081526020819052604090205490565b606080883373ffffffffffffffffffffffffffffffffffffffff7f0000000000000000000000000000000000000000000000000000000000000000161461088057600080fd5b7f000000000000000000000000000000000000000000000000000000000000000081146108ac57600080fd5b60606108b66111f9565b90506108c28882611536565b60006060806108d68e8e8e8e8e8e8e610ed9565b9250925092506108e68d846117ed565b6108f08285610fa5565b6108fa8185610fa5565b909550935050505b5097509795505050505050565b610917610e75565b610920816118a5565b50565b60006060610598898989898989896119386119cc611024565b7f000000000000000000000000000000000000000000000000000000000000000090565b60048054604080516020601f60027fffffffffffffffffffffffffffffffffffffffffffffffffffffffffffffffff6101006001881615020190951694909404938401819004810282018101909252828152606093909290918301828280156104495780601f1061041e57610100808354040283529160200191610449565b60008060006109ec611a46565b15937f000000000000000000000000000000000000000000000000000000000000000093507f000000000000000000000000000000000000000000000000000000000000000092509050565b6000610461338484610d98565b6000610a4f611a7d565b905090565b6000610a8183837f00000000000000000000000000000000000000000000000000000000000000006111e2565b610a8e8560400151611b1d565b60408601526060610a9d6111f9565b9050610ab386604001518286815181106105f557fe5b6040870152610ac28582611536565b6000610ad087878787611b41565b905061064981838681518110610ae257fe5b6020026020010151611b7e565b60065490565b606080883373ffffffffffffffffffffffffffffffffffffffff7f00000000000000000000000000000000000000000000000000000000000000001614610b3b57600080fd5b7f00000000000000000000000000000000000000000000000000000000000000008114610b6757600080fd5b6060610b716111f9565b9050610b7d8882611536565b610b8561046b565b610c405760006060610b998d8d8d8a611b8a565b915091506103e8821015610bac57600080fd5b610bb960006103e8611c44565b610bc78b6103e88403611c44565b610bd181846119cc565b807f000000000000000000000000000000000000000000000000000000000000000067ffffffffffffffff81118015610c0957600080fd5b50604051908082528060200260200182016040528015610c33578160200160208202803683370190505b5095509550505050610902565b6000606080610c548e8e8e8e8e8e8e611938565b925092509250610c648c84611c44565b610c6e82856119cc565b610c788185610fa5565b9095509350610902915050565b33600081815260016020908152604080832073ffffffffffffffffffffffffffffffffffffffff8716845290915281205490916104619185906106ac9086611d01565b73ffffffffffffffffffffffffffffffffffffffff918216600090815260016020908152604080832093909416825291909152205490565b80610d0a81611d13565b5050565b600082821115610d1d57600080fd5b50900390565b73ffffffffffffffffffffffffffffffffffffffff80841660008181526001602090815260408083209487168084529490915290819020849055517f8c5be1e5ebec7d5bd14f71427d1e84f3dd0314c0f7b2291e5b200ac8c7c3b92590610d8b908590613905565b60405180910390a3505050565b73ffffffffffffffffffffffffffffffffffffffff831660009081526020819052604090205481811015610dcb57600080fd5b73ffffffffffffffffffffffffffffffffffffffff808516600090815260208190526040808220858503905591851681522054610e089083611d01565b73ffffffffffffffffffffffffffffffffffffffff80851660008181526020819052604090819020939093559151908616907fddf252ad1be2c89b69c2b068fc378daa952ba7f163c4a11628f55a4df523b3ef90610e67908690613905565b60405180910390a350505050565b6000306000357fffffffff0000000000000000000000000000000000000000000000000000000016604051602001610eae92919061384d565b604051602081830303815290604052805190602001209050610ed08133611da5565b61092057600080fd5b60006060806060610eed8860075488611e39565b905060005b7f0000000000000000000000000000000000000000000000000000000000000000811015610f7257610f53828281518110610f2957fe5b60200260200101518a8381518110610f3d57fe5b6020026020010151610d0e90919063ffffffff16565b898281518110610f5f57fe5b6020908102919091010152600101610ef2565b5060006060610f818a88611f69565b91509150610f8f8a82611fe5565b600755909c909b50909950975050505050505050565b60005b7f000000000000000000000000000000000000000000000000000000000000000081101561101f57611000838281518110610fdf57fe5b6020026020010151838381518110610ff357fe5b602002602001015161207e565b83828151811061100c57fe5b6020908102919091010152600101610fa8565b505050565b600060603330146111245760003073ffffffffffffffffffffffffffffffffffffffff166000366040516110599291906138a4565b6000604051808303816000865af19150503d8060008114611096576040519150601f19603f3d011682016040523d82523d6000602084013e61109b565b606091505b5050905080600081146110aa57fe5b60046000803e6000517fffffffff00000000000000000000000000000000000000000000000000000000167f43adbafb000000000000000000000000000000000000000000000000000000008114611106573d6000803e3d6000fd5b506020600460003e604060205260243d03602460403e601c3d016000f35b606061112e6111f9565b905061113a8982611536565b600060606111518e8e8e8e8e8e8e8e63ffffffff16565b509150915061116481848863ffffffff16565b80517fffffffffffffffffffffffffffffffffffffffffffffffffffffffffffffffe082018390526343adbafb7fffffffffffffffffffffffffffffffffffffffffffffffffffffffffffffffc08301526020027fffffffffffffffffffffffffffffffffffffffffffffffffffffffffffffffdc82016044820181fd5b80831080156111f057508082105b61101f57600080fd5b6060807f000000000000000000000000000000000000000000000000000000000000000067ffffffffffffffff8111801561123357600080fd5b5060405190808252806020026020018201604052801561125d578160200160208202803683370190505b5090507f0000000000000000000000000000000000000000000000000000000000000000156112c5577f0000000000000000000000000000000000000000000000000000000000000000816000815181106112b457fe5b6020026020010181815250506112cc565b9050610451565b60017f000000000000000000000000000000000000000000000000000000000000000011156112c5577f00000000000000000000000000000000000000000000000000000000000000008160018151811061132357fe5b60200260200101818152505060027f000000000000000000000000000000000000000000000000000000000000000011156112c5577f00000000000000000000000000000000000000000000000000000000000000008160028151811061138657fe5b60200260200101818152505060037f000000000000000000000000000000000000000000000000000000000000000011156112c5577f0000000000000000000000000000000000000000000000000000000000000000816003815181106113e957fe5b60200260200101818152505060047f000000000000000000000000000000000000000000000000000000000000000011156112c5577f00000000000000000000000000000000000000000000000000000000000000008160048151811061144c57fe5b60200260200101818152505060057f000000000000000000000000000000000000000000000000000000000000000011156112c5577f0000000000000000000000000000000000000000000000000000000000000000816005815181106114af57fe5b60200260200101818152505060067f000000000000000000000000000000000000000000000000000000000000000011156112c5577f00000000000000000000000000000000000000000000000000000000000000008160068151811061151257fe5b602002602001018181525050905090565b600061152f838361209b565b9392505050565b60005b7f000000000000000000000000000000000000000000000000000000000000000081101561101f5761159183828151811061157057fe5b602002602001015183838151811061158457fe5b602002602001015161209b565b83828151811061159d57fe5b6020908102919091010152600101611539565b60006115ba6120be565b60006115ed7f00000000000000000000000000000000000000000000000000000000000000008686868a604001516120d1565b9695505050505050565b600061152f838361218d565b60006104656116136006546121bd565b83906121ee565b80516000908190815b8181101561165b5761165185828151811061163a57fe5b602002602001015184611d0190919063ffffffff16565b9250600101611623565b508161166c57600092505050610465565b6000828161167a888561209b565b905060005b60ff81101561177a57600061169b868a60008151811061158457fe5b905060015b868110156116d4576116ca6116c46116be848d858151811061158457fe5b8961209b565b8661218d565b91506001016116a0565b5083945061173461170a6116f16116eb868b61209b565b8461209b565b6117046116fe8a8961209b565b8861209b565b90611d01565b61172f61172161171b876001610d0e565b8561209b565b6117046116be8b6001611d01565b61218d565b93508484111561175a57600161174a8587610d0e565b11611755575061177a565b611771565b60016117668686610d0e565b11611771575061177a565b5060010161167f565b5090979650505050505050565b60008161179357600080fd5b670de0b6b3a764000083028315806117bb5750670de0b6b3a76400008482816117b857fe5b04145b6117c457600080fd5b600283048101818110156117d757600080fd5b60008482816117e257fe5b049695505050505050565b73ffffffffffffffffffffffffffffffffffffffff82166000908152602081905260409020548181101561182057600080fd5b73ffffffffffffffffffffffffffffffffffffffff8316600090815260208190526040902082820390556002546118579083610d0e565b60025560405160009073ffffffffffffffffffffffffffffffffffffffff8516907fddf252ad1be2c89b69c2b068fc378daa952ba7f163c4a11628f55a4df523b3ef90610d8b908690613905565b7f000000000000000000000000000000000000000000000000000000000000000042106118d157600080fd5b600580547fffffffffffffffffffffffffffffffffffffffffffffffffffffffffffffff00168215151790556040517fa5bc6afced71829f82830a97f26eb92aea46d29443b5acb7d47c4a52b1e273419061192d9083906138e2565b60405180910390a150565b60006060806119456120be565b60606119548860075488611e39565b905060005b7f00000000000000000000000000000000000000000000000000000000000000008110156119af57611990828281518110610f2957fe5b89828151811061199c57fe5b6020908102919091010152600101611959565b50600060606119be8a88612240565b91509150610f8f8a8261228d565b60005b7f000000000000000000000000000000000000000000000000000000000000000081101561101f57611a27838281518110611a0657fe5b6020026020010151838381518110611a1a57fe5b602002602001015161218d565b838281518110611a3357fe5b60209081029190910101526001016119cf565b60007f000000000000000000000000000000000000000000000000000000000000000042101580610a4f57505060055460ff161590565b60007f000000000000000000000000000000000000000000000000000000000000000073ffffffffffffffffffffffffffffffffffffffff1663aaabadc56040518163ffffffff1660e01b815260040160206040518083038186803b158015611ae557600080fd5b505afa158015611af9573d6000803e3d6000fd5b505050506040513d601f19601f82011682018060405250810190610a4f9190613652565b600080611b35600654846122fb90919063ffffffff16565b905061152f8382610d0e565b6000611b4b6120be565b60006115ed7f00000000000000000000000000000000000000000000000000000000000000008686868a6040015161235e565b600061152f838361207e565b60006060611b966120be565b6000611ba1846123e8565b90506000816002811115611bb157fe5b14611bbb57600080fd5b6060611bc6856123fe565b9050611bf381517f0000000000000000000000000000000000000000000000000000000000000000612414565b611c0481611bff6111f9565b611536565b6000611c307f00000000000000000000000000000000000000000000000000000000000000008361161a565b600781905599919850909650505050505050565b73ffffffffffffffffffffffffffffffffffffffff8216600090815260208190526040902054611c749082611d01565b73ffffffffffffffffffffffffffffffffffffffff8316600090815260208190526040902055600254611ca79082611d01565b60025560405173ffffffffffffffffffffffffffffffffffffffff8316906000907fddf252ad1be2c89b69c2b068fc378daa952ba7f163c4a11628f55a4df523b3ef90611cf5908590613905565b60405180910390a35050565b60008282018381101561152f57600080fd5b600281511015611d2257610920565b600081600081518110611d3157fe5b602002602001015190506000600190505b825181101561101f576000838281518110611d5957fe5b602002602001015190508073ffffffffffffffffffffffffffffffffffffffff168373ffffffffffffffffffffffffffffffffffffffff1610611d9b57600080fd5b9150600101611d42565b6000611daf611a7d565b73ffffffffffffffffffffffffffffffffffffffff166391d1485484846040518363ffffffff1660e01b8152600401611de992919061390e565b60206040518083038186803b158015611e0157600080fd5b505afa158015611e15573d6000803e3d6000fd5b505050506040513d601f19601f8201168201806040525081019061152f9190613593565b606060008085600081518110611e4b57fe5b602002602001015190506000600190505b7f0000000000000000000000000000000000000000000000000000000000000000811015611eb4576000878281518110611e9257fe5b6020026020010151905082811115611eab578193508092505b50600101611e5c565b5060607f000000000000000000000000000000000000000000000000000000000000000067ffffffffffffffff81118015611eee57600080fd5b50604051908082528060200260200182016040528015611f18578160200160208202803683370190505b509050611f487f000000000000000000000000000000000000000000000000000000000000000088888689612420565b818481518110611f5457fe5b60209081029190910101529695505050505050565b600060606000611f78846123e8565b90506000816002811115611f8857fe5b1415611fa257611f988585612482565b9250925050611fde565b6001816002811115611fb057fe5b1415611fc057611f98858561258b565b6002816002811115611fce57fe5b14156101ae57611f9885856125bd565b9250929050565b6000805b7f00000000000000000000000000000000000000000000000000000000000000008110156120535761203483828151811061202057fe5b6020026020010151858381518110610f3d57fe5b84828151811061204057fe5b6020908102919091010152600101611fe9565b5061152f7f00000000000000000000000000000000000000000000000000000000000000008461161a565b60008161208a57600080fd5b81838161209357fe5b049392505050565b60008282028315806120b55750828482816120b257fe5b04145b61152f57600080fd5b6120c6611a46565b6120cf57600080fd5b565b6000806120de878761161a565b90506120f083878681518110610f3d57fe5b8685815181106120fc57fe5b602002602001018181525050600061211688888489612664565b905061213e8488878151811061212857fe5b6020026020010151611d0190919063ffffffff16565b87868151811061214a57fe5b602002602001018181525050612181600161170489898151811061216a57fe5b602002602001015184610d0e90919063ffffffff16565b98975050505050505050565b60008161219957600080fd5b826121a657506000610465565b8160018403816121b257fe5b046001019050610465565b6000670de0b6b3a76400008210156121e6576121e1670de0b6b3a764000083610d0e565b610465565b506000919050565b6000816121fa57600080fd5b8261220757506000610465565b670de0b6b3a76400008381029084828161221d57fe5b041461222857600080fd5b82600182038161223457fe5b04600101915050610465565b60006060600061224f846123e8565b9050600181600281111561225f57fe5b141561226f57611f988585612828565b600281600281111561227d57fe5b14156101ae57611f9885856128bc565b6000805b7f0000000000000000000000000000000000000000000000000000000000000000811015612053576122dc8382815181106122c857fe5b602002602001015185838151811061212857fe5b8482815181106122e857fe5b6020908102919091010152600101612291565b600082820283158061231557508284828161231257fe5b04145b61231e57600080fd5b8061232d576000915050610465565b670de0b6b3a76400007fffffffffffffffffffffffffffffffffffffffffffffffffffffffffffffffff8201612234565b60008061236b878761161a565b905061237d8387878151811061212857fe5b86868151811061238957fe5b60200260200101818152505060006123a388888488612664565b90506123b584888881518110610f3d57fe5b8787815181106123c157fe5b60200260200101818152505061218160016123e2838a8981518110610f3d57fe5b90610d0e565b600081806020019051810190610465919061366e565b60608180602001905181019061152f9190613745565b808214610d0a57600080fd5b60008061242f87878787612664565b905060008187868151811061244057fe5b602002602001015111612454576000612464565b61246482888781518110610f3d57fe5b9050612181670de0b6b3a764000061247c8387612997565b906129e3565b6000606061248e6120be565b60008061249a85612a2f565b915091507f000000000000000000000000000000000000000000000000000000000000000081106124ca57600080fd5b60607f000000000000000000000000000000000000000000000000000000000000000067ffffffffffffffff8111801561250357600080fd5b5060405190808252806020026020018201604052801561252d578160200160208202803683370190505b5090506125677f000000000000000000000000000000000000000000000000000000000000000088848661255f61046b565b600654612a51565b81838151811061257357fe5b60209081029190910101529196919550909350505050565b60006060600061259a84612b49565b905060606125b086836125ab61046b565b612b5f565b9196919550909350505050565b600060606125c96120be565b606060006125d685612c11565b9150915061260582517f0000000000000000000000000000000000000000000000000000000000000000612414565b61261182611bff6111f9565b60006126497f0000000000000000000000000000000000000000000000000000000000000000888561264161046b565b600654612c29565b90508181111561265857600080fd5b96919550909350505050565b60008061267286865161209b565b905060008560008151811061268357fe5b6020026020010151905060006126a187518860008151811061158457fe5b905060015b87518110156126ed576126d26126cc6126c5848b858151811061158457fe5b8a5161209b565b8861207e565b91506126e388828151811061163a57fe5b92506001016126a6565b506127148786815181106126fd57fe5b602002602001015183610d0e90919063ffffffff16565b9150600061272b612725888961209b565b8561218d565b9050612757826107e28a898151811061274057fe5b60200260200101518461299790919063ffffffff16565b9050600061277a6127688987611787565b61170486670de0b6b3a7640000612997565b90506000806127a061278c8b85611d01565b61279a866117048e80612997565b906121ee565b905060005b60ff811015612818578192506127d56127c78c6123e28761170487600261209b565b61279a876117048680612997565b9150828211156127fa5760016127eb8385610d0e565b116127f557612818565b612810565b60016128068484610d0e565b1161281057612818565b6001016127a5565b509b9a5050505050505050505050565b6000606080600061283885612c11565b915091507f000000000000000000000000000000000000000000000000000000000000000082511461286957600080fd5b61287582611bff6111f9565b60006128ad7f000000000000000000000000000000000000000000000000000000000000000088856128a561046b565b600654612ec1565b90508181101561265857600080fd5b600060606000806128cc85612a2f565b9150915060006129097f000000000000000000000000000000000000000000000000000000000000000088848661290161046b565b600654613100565b905060607f000000000000000000000000000000000000000000000000000000000000000067ffffffffffffffff8111801561294457600080fd5b5060405190808252806020026020018201604052801561296e578160200160208202803683370190505b5090508181848151811061297e57fe5b6020908102919091010152929792965091945050505050565b60008282028315806129b15750828482816129ae57fe5b04145b6129ba57600080fd5b6706f05b59d3b200008101818110156129d257600080fd5b6000670de0b6b3a7640000826117e2565b6000816129ef57600080fd5b826129fc57506000610465565b670de0b6b3a764000083810290848281612a1257fe5b0414612a1d57600080fd5b828181612a2657fe5b04915050610465565b60008082806020019051810190612a46919061370f565b909590945092505050565b600080612a5e888861161a565b90506000612a7a82612a748761279a818b610d0e565b906122fb565b90506000805b8951811015612ab957612aaf8a8281518110612a9857fe5b602002602001015183611d0190919063ffffffff16565b9150600101612a80565b506000612ac88b8b858c612664565b90506000612adc828c8c81518110610f3d57fe5b90506000612b06848d8d81518110612af057fe5b60200260200101516129e390919063ffffffff16565b90506000612b13826121bd565b90506000612b218a836122fb565b9050612b36612b2f826121bd565b85906131b1565b9f9e505050505050505050505050505050565b60008180602001905181019061152f91906136e2565b60606000612b6d84846129e3565b90506060855167ffffffffffffffff81118015612b8957600080fd5b50604051908082528060200260200182016040528015612bb3578160200160208202803683370190505b50905060005b8651811015612c0757612be883888381518110612bd257fe5b60200260200101516131b190919063ffffffff16565b828281518110612bf457fe5b6020908102919091010152600101612bb9565b5095945050505050565b6060600082806020019051810190612a46919061368a565b600080612c36878761161a565b90506000805b8751811015612c5e57612c54888281518110612a9857fe5b9150600101612c3c565b506060865167ffffffffffffffff81118015612c7957600080fd5b50604051908082528060200260200182016040528015612ca3578160200160208202803683370190505b5090506000805b8951811015612d6a576000612cdb858c8481518110612cc557fe5b60200260200101516121ee90919063ffffffff16565b9050612d178b8381518110612cec57fe5b602002602001015161279a8c8581518110612d0357fe5b60200260200101518e8681518110610f3d57fe5b848381518110612d2357fe5b602002602001018181525050612d5f612d5882868581518110612d4257fe5b60200260200101516122fb90919063ffffffff16565b8490611d01565b925050600101612caa565b506060895167ffffffffffffffff81118015612d8557600080fd5b50604051908082528060200260200182016040528015612daf578160200160208202803683370190505b50905060005b8a51811015612e86576000848281518110612dcc57fe5b60200260200101518411612de257506000612e2a565b612e27612e01868481518110612df457fe5b60200260200101516121bd565b61279a878581518110612e1057fe5b602002602001015187610d0e90919063ffffffff16565b90505b6000612e368a836122fb565b90506000612e52612e46836121bd565b8e8681518110612cc557fe5b9050612e64818f8681518110610f3d57fe5b858581518110612e7057fe5b6020908102919091010152505050600101612db5565b506000612e938c8361161a565b9050612eb1612eaa612ea583896121ee565b6121bd565b8a906122fb565b9c9b505050505050505050505050565b600080612ece878761161a565b90506000805b8751811015612ef657612eec888281518110612a9857fe5b9150600101612ed4565b506060865167ffffffffffffffff81118015612f1157600080fd5b50604051908082528060200260200182016040528015612f3b578160200160208202803683370190505b5090506000805b8951811015612fcf576000612f5d858c8481518110612af057fe5b9050612f998b8381518110612f6e57fe5b602002602001015161247c8c8581518110612f8557fe5b60200260200101518e868151811061212857fe5b848381518110612fa557fe5b602002602001018181525050612fc4612d5882868581518110612bd257fe5b925050600101612f42565b506060895167ffffffffffffffff81118015612fea57600080fd5b50604051908082528060200260200182016040528015613014578160200160208202803683370190505b50905060005b8a518110156130d157600084828151811061303157fe5b6020026020010151841061304757506000613075565b613072613062670de0b6b3a7640000878581518110610f3d57fe5b61279a86888681518110610f3d57fe5b90505b60006130818a836122fb565b9050600061309d613091836121bd565b8e8681518110612bd257fe5b90506130af818f868151811061212857fe5b8585815181106130bb57fe5b602090810291909101015250505060010161301a565b5060006130de8c8361161a565b9050612eb16130f9670de0b6b3a76400006123e2848a6129e3565b8a906131b1565b60008061310d888861161a565b9050600061312382612a748761279a818b611d01565b90506000805b895181101561314b576131418a8281518110612a9857fe5b9150600101613129565b50600061315a8b8b858c612664565b9050600061316d8b8b815181106126fd57fe5b90506000613181848d8d81518110612af057fe5b9050600061318e826121bd565b9050600061319c8a836122fb565b9050612b366131aa826121bd565b85906121ee565b60008282028315806131cb5750828482816131c857fe5b04145b6131d457600080fd5b670de0b6b3a764000090049392505050565b803561046581613a3a565b600082601f830112613201578081fd5b813561321461320f82613a1a565b6139f3565b81815291506020808301908481018184028601820187101561323557600080fd5b60005b8481101561325457813584529282019290820190600101613238565b505050505092915050565b600082601f83011261326f578081fd5b815161327d61320f82613a1a565b81815291506020808301908481018184028601820187101561329e57600080fd5b60005b84811015613254578151845292820192908201906001016132a1565b600082601f8301126132cd578081fd5b813567ffffffffffffffff8111156132e3578182fd5b61331460207fffffffffffffffffffffffffffffffffffffffffffffffffffffffffffffffe0601f840116016139f3565b915080825283602082850101111561332b57600080fd5b8060208401602084013760009082016020015292915050565b6000610100808385031215613357578182fd5b613360816139f3565b91505061336d83836131e6565b815261337c83602084016131e6565b60208201526040820135604082015260608201356060820152608082013560808201526133ac8360a084016131e6565b60a08201526133be8360c084016131e6565b60c082015260e082013567ffffffffffffffff8111156133dd57600080fd5b6133e9848285016132bd565b60e08301525092915050565b600060208284031215613406578081fd5b813561152f81613a3a565b60008060408385031215613423578081fd5b823561342e81613a3a565b9150602083013561343e81613a3a565b809150509250929050565b60008060006060848603121561345d578081fd5b833561346881613a3a565b9250602084013561347881613a3a565b929592945050506040919091013590565b6000806040838503121561349b578182fd5b82356134a681613a3a565b946020939093013593505050565b600080604083850312156134c6578182fd5b825167ffffffffffffffff808211156134dd578384fd5b818501915085601f8301126134f0578384fd5b81516134fe61320f82613a1a565b80828252602080830192508086018a82838702890101111561351e578889fd5b8896505b8487101561354957805161353581613a3a565b845260019690960195928101928101613522565b508801519096509350505080821115613560578283fd5b5061356d8582860161325f565b9150509250929050565b600060208284031215613588578081fd5b813561152f81613a5c565b6000602082840312156135a4578081fd5b815161152f81613a5c565b600080600080600080600060e0888a0312156135c9578485fd5b8735965060208801356135db81613a3a565b955060408801356135eb81613a3a565b9450606088013567ffffffffffffffff80821115613607578485fd5b6136138b838c016131f1565b955060808a0135945060a08a0135935060c08a0135915080821115613636578283fd5b506136438a828b016132bd565b91505092959891949750929550565b600060208284031215613663578081fd5b815161152f81613a3a565b60006020828403121561367f578081fd5b815161152f81613a6a565b60008060006060848603121561369e578081fd5b83516136a981613a6a565b602085015190935067ffffffffffffffff8111156136c5578182fd5b6136d18682870161325f565b925050604084015190509250925092565b600080604083850312156136f4578182fd5b82516136ff81613a6a565b6020939093015192949293505050565b600080600060608486031215613723578081fd5b835161372e81613a6a565b602085015160409095015190969495509392505050565b60008060408385031215613757578182fd5b825161376281613a6a565b602084015190925067ffffffffffffffff81111561377e578182fd5b61356d8582860161325f565b6000806000806080858703121561379f578182fd5b843567ffffffffffffffff808211156137b6578384fd5b6137c288838901613344565b955060208701359150808211156137d7578384fd5b506137e4878288016131f1565b949794965050505060408301359260600135919050565b60006020828403121561380c578081fd5b5035919050565b6000815180845260208085019450808401835b8381101561384257815187529582019590820190600101613826565b509495945050505050565b60609290921b7fffffffffffffffffffffffffffffffffffffffff0000000000000000000000001682527fffffffff0000000000000000000000000000000000000000000000000000000016601482015260180190565b6000828483379101908152919050565b6000604082526138c76040830185613813565b82810360208401526138d98185613813565b95945050505050565b901515815260200190565b92151583526020830191909152604082015260600190565b90815260200190565b91825273ffffffffffffffffffffffffffffffffffffffff16602082015260400190565b73ffffffffffffffffffffffffffffffffffffffff91909116815260200190565b6000602080835283518082850152825b8181101561397f57858101830151858201604001528201613963565b818111156139905783604083870101525b50601f017fffffffffffffffffffffffffffffffffffffffffffffffffffffffffffffffe016929092016040019392505050565b6000838252604060208301526139dd6040830184613813565b949350505050565b60ff91909116815260200190565b60405181810167ffffffffffffffff81118282101715613a1257600080fd5b604052919050565b600067ffffffffffffffff821115613a30578081fd5b5060209081020190565b73ffffffffffffffffffffffffffffffffffffffff8116811461092057600080fd5b801515811461092057600080fd5b6003811061092057600080fdfea2646970667358221220be0b3a4add6d0c2ab822611fc230f74f60155fa17256f6ece8052687bc18ff1664736f6c63430007010033a264697066735822122011b20af74c6bdea9e8bb3b37aa23ae2785bf841602ebde42d445e680258e576a64736f6c63430007010033",
  "devdoc": {
    "kind": "dev",
    "methods": {
      "create(string,string,address[],uint256,uint256,uint256,uint256)": {
        "details": "Deploys a new `StablePool`."
      }
    },
    "version": 1
  },
  "userdoc": {
    "kind": "user",
    "methods": {},
    "version": 1
  },
  "storageLayout": {
    "storage": [],
    "types": null
  }
}