{
  "address": "0x3b5dBD2bFbE5eFA86dD51Af24436A9B3c25caE40",
  "abi": [
    {
      "inputs": [
        {
          "internalType": "contract IVault",
          "name": "_vault",
          "type": "address"
        }
      ],
      "stateMutability": "nonpayable",
      "type": "constructor"
    },
    {
      "anonymous": false,
      "inputs": [
        {
          "indexed": true,
          "internalType": "address",
          "name": "pool",
          "type": "address"
        }
      ],
      "name": "PoolRegistered",
      "type": "event"
    },
    {
      "inputs": [
        {
          "internalType": "string",
          "name": "name",
          "type": "string"
        },
        {
          "internalType": "string",
          "name": "symbol",
          "type": "string"
        },
        {
          "internalType": "contract IERC20[]",
          "name": "tokens",
          "type": "address[]"
        },
        {
          "internalType": "uint256[]",
          "name": "weights",
          "type": "uint256[]"
        },
        {
          "internalType": "uint256",
          "name": "swapFee",
          "type": "uint256"
        },
        {
          "internalType": "uint256",
          "name": "emergencyPeriod",
          "type": "uint256"
        },
        {
          "internalType": "uint256",
          "name": "emergencyPeriodCheckExtension",
          "type": "uint256"
        }
      ],
      "name": "create",
      "outputs": [
        {
          "internalType": "address",
          "name": "",
          "type": "address"
        }
      ],
      "stateMutability": "nonpayable",
      "type": "function"
    },
    {
      "inputs": [],
      "name": "vault",
      "outputs": [
        {
          "internalType": "contract IVault",
          "name": "",
          "type": "address"
        }
      ],
      "stateMutability": "view",
      "type": "function"
    }
  ],
  "transactionHash": "0x7773941e6ef2c796447724c2f8ec4ef87888bac152976453bc51d2ef788deae6",
  "args": [
    "0xba1c01474A7598c2B49015FdaFc67DdF06ce15f7"
  ],
  "solcInputHash": "0a4fdc9962a9ccfb07bf1f8e7d3a38b7",
  "bytecode": "0x60a060405234801561001057600080fd5b50604051615e47380380615e4783398101604081905261002f91610044565b60601b6001600160601b031916608052610072565b600060208284031215610055578081fd5b81516001600160a01b038116811461006b578182fd5b9392505050565b60805160601c615db561009260003980607d528060fd5250615db56000f3fe60806040523480156200001157600080fd5b50600436106200003a5760003560e01c80630f5a4cf8146200003f578063fbfa77cf146200006e575b600080fd5b620000566200005036600462000307565b62000078565b6040516200006591906200047f565b60405180910390f35b62000056620000fb565b6000807f000000000000000000000000000000000000000000000000000000000000000089898989898989604051620000b19062000163565b620000c4989796959493929190620004a0565b604051809103906000f080158015620000e1573d6000803e3d6000fd5b509050620000ef816200011f565b98975050505050505050565b7f000000000000000000000000000000000000000000000000000000000000000081565b60405173ffffffffffffffffffffffffffffffffffffffff8216907f9cc152f4650ca2829a210a21551537f4cc4d48c2611ec06974f835e911921b9090600090a250565b6157bb80620005c583390190565b600082601f83011262000182578081fd5b81356200019962000193826200058a565b62000562565b818152915060208083019084810181840286018201871015620001bb57600080fd5b6000805b85811015620001ff57823573ffffffffffffffffffffffffffffffffffffffff81168114620001ec578283fd5b85529383019391830191600101620001bf565b50505050505092915050565b600082601f8301126200021c578081fd5b81356200022d62000193826200058a565b8181529150602080830190848101818402860182018710156200024f57600080fd5b60005b84811015620002705781358452928201929082019060010162000252565b505050505092915050565b600082601f8301126200028c578081fd5b813567ffffffffffffffff811115620002a3578182fd5b620002d660207fffffffffffffffffffffffffffffffffffffffffffffffffffffffffffffffe0601f8401160162000562565b9150808252836020828501011115620002ee57600080fd5b8060208401602084013760009082016020015292915050565b600080600080600080600060e0888a03121562000322578283fd5b873567ffffffffffffffff808211156200033a578485fd5b620003488b838c016200027b565b985060208a01359150808211156200035e578485fd5b6200036c8b838c016200027b565b975060408a013591508082111562000382578485fd5b620003908b838c0162000171565b965060608a0135915080821115620003a6578485fd5b50620003b58a828b016200020b565b979a969950949760808101359660a0820135965060c090910135945092505050565b6000815180845260208085019450808401835b838110156200040857815187529582019590820190600101620003ea565b509495945050505050565b60008151808452815b818110156200043a576020818501810151868301820152016200041c565b818111156200044c5782602083870101525b50601f017fffffffffffffffffffffffffffffffffffffffffffffffffffffffffffffffe0169290920160200192915050565b73ffffffffffffffffffffffffffffffffffffffff91909116815260200190565b600061010073ffffffffffffffffffffffffffffffffffffffff8b16835260208181850152620004d38285018c62000413565b91508382036040850152620004e9828b62000413565b84810360608601528951808252828b01935090820190845b818110156200052957620005168551620005ab565b8352938301939183019160010162000501565b505084810360808601526200053f818a620003d7565b60a08601989098525050505060c081019290925260e09091015295945050505050565b60405181810167ffffffffffffffff811182821017156200058257600080fd5b604052919050565b600067ffffffffffffffff821115620005a1578081fd5b5060209081020190565b73ffffffffffffffffffffffffffffffffffffffff169056fe6103e06040523480156200001257600080fd5b50604051620057bb380380620057bb833981016040819052620000359162000bdd565b878787878686868684516002146200004f57600162000052565b60025b87878787878781818787816003908051906020019062000074929190620009a6565b5080516200008a906004906020840190620009a6565b5050506276a7008211156200009e57600080fd5b62278d00811115620000af57600080fd5b4290910160808190520160a052835160021115620000cc57600080fd5b600784511115620000dc57600080fd5b620000f284620007c460201b62000d331760201c565b67016345785d8a00008311156200010857600080fd5b6040516309b2760f60e01b81526000906001600160a01b038a16906309b2760f9062000139908b9060040162000d82565b602060405180830381600087803b1580156200015457600080fd5b505af115801562000169573d6000803e3d6000fd5b505050506040513d601f19601f820116820180604052508101906200018f919062000bc4565b9050886001600160a01b03166366a9c7d2828788516001600160401b0381118015620001ba57600080fd5b50604051908082528060200260200182016040528015620001e5578160200160208202803683370190505b506040518463ffffffff1660e01b8152600401620002069392919062000ce6565b600060405180830381600087803b1580156200022157600080fd5b505af115801562000236573d6000803e3d6000fd5b5050506001600160601b031960608b901b1660c0525060e0819052600684905584516101005284516200026b57600062000282565b846000815181106200027957fe5b60200260200101515b60601b6001600160601b031916610120528451600110620002a5576000620002bc565b84600181518110620002b357fe5b60200260200101515b60601b6001600160601b031916610140528451600210620002df576000620002f6565b84600281518110620002ed57fe5b60200260200101515b60601b6001600160601b0319166101605284516003106200031957600062000330565b846003815181106200032757fe5b60200260200101515b60601b6001600160601b031916610180528451600410620003535760006200036a565b846004815181106200036157fe5b60200260200101515b60601b6001600160601b0319166101a05284516005106200038d576000620003a4565b846005815181106200039b57fe5b60200260200101515b60601b6001600160601b0319166101c0528451600610620003c7576000620003de565b84600681518110620003d557fe5b60200260200101515b60601b6001600160601b0319166101e0528451620003fe57600062000424565b62000424856000815181106200041057fe5b6020026020010151620007d460201b60201c565b6102005284516001106200043a5760006200044c565b6200044c856001815181106200041057fe5b6102205284516002106200046257600062000474565b62000474856002815181106200041057fe5b6102405284516003106200048a5760006200049c565b6200049c856003815181106200041057fe5b610260528451600410620004b2576000620004c4565b620004c4856004815181106200041057fe5b610280528451600510620004da576000620004ec565b620004ec856005815181106200041057fe5b6102a05284516006106200050257600062000514565b62000514856006815181106200041057fe5b6102c081815250505050505050505050505050505050505062000545845186516200087660201b62000d411760201c565b6000805b85518160ff161015620005925762000587868260ff16815181106200056a57fe5b6020026020010151836200088360201b62000d4d1790919060201c565b915060010162000549565b50600080606087516001600160401b0381118015620005b057600080fd5b50604051908082528060200260200182016040528015620005db578160200160208202803683370190505b50905060005b81518160ff1610156200067257600062000621868b8460ff16815181106200060557fe5b60200260200101516200089f60201b62000d661790919060201c565b9050662386f26fc100008110156200063857600080fd5b80838360ff16815181106200064957fe5b6020026020010181815250508381111562000668578160ff1694508093505b50600101620005e1565b506102e08390528751620006885760006200069f565b806000815181106200069657fe5b60200260200101515b610300528751600110620006b5576000620006cc565b80600181518110620006c357fe5b60200260200101515b610320528751600210620006e2576000620006f9565b80600281518110620006f057fe5b60200260200101515b6103405287516003106200070f57600062000726565b806003815181106200071d57fe5b60200260200101515b6103605287516004106200073c57600062000753565b806004815181106200074a57fe5b60200260200101515b6103805287516005106200076957600062000780565b806005815181106200077757fe5b60200260200101515b6103a052875160061062000796576000620007ad565b80600681518110620007a457fe5b60200260200101515b6103c0525062000e009a5050505050505050505050565b80620007d0816200090b565b5050565b600080826001600160a01b031663313ce5676040518163ffffffff1660e01b815260040160206040518083038186803b1580156200081157600080fd5b505afa15801562000826573d6000803e3d6000fd5b505050506040513d601f19601f820116820180604052508101906200084c919062000cc3565b60ff16905060006200086b6012836200099060201b62000dcc1760201c565b600a0a949350505050565b808214620007d057600080fd5b6000828201838110156200089657600080fd5b90505b92915050565b600081620008ac57600080fd5b670de0b6b3a76400008302831580620008d65750670de0b6b3a7640000848281620008d357fe5b04145b620008e057600080fd5b60028304810181811015620008f457600080fd5b60008482816200090057fe5b049695505050505050565b6002815110156200091c576200098d565b6000816000815181106200092c57fe5b602002602001015190506000600190505b82518110156200098a5760008382815181106200095657fe5b60200260200101519050806001600160a01b0316836001600160a01b0316106200097f57600080fd5b91506001016200093d565b50505b50565b600082821115620009a057600080fd5b50900390565b828054600181600116156101000203166002900490600052602060002090601f016020900481019282601f10620009e957805160ff191683800117855562000a19565b8280016001018555821562000a19579182015b8281111562000a19578251825591602001919060010190620009fc565b5062000a2792915062000a2b565b5090565b5b8082111562000a27576000815560010162000a2c565b600082601f83011262000a53578081fd5b815162000a6a62000a648262000dbe565b62000d97565b81815291506020808301908481018184028601820187101562000a8c57600080fd5b60005b8481101562000ab857815162000aa58162000dea565b8452928201929082019060010162000a8f565b505050505092915050565b600082601f83011262000ad4578081fd5b815162000ae562000a648262000dbe565b81815291506020808301908481018184028601820187101562000b0757600080fd5b60005b8481101562000ab85781518452928201929082019060010162000b0a565b8051620008998162000dea565b600082601f83011262000b46578081fd5b81516001600160401b0381111562000b5c578182fd5b602062000b72601f8301601f1916820162000d97565b9250818352848183860101111562000b8957600080fd5b60005b8281101562000ba957848101820151848201830152810162000b8c565b8281111562000bbb5760008284860101525b50505092915050565b60006020828403121562000bd6578081fd5b5051919050565b600080600080600080600080610100898b03121562000bfa578384fd5b62000c068a8a62000b28565b60208a01519098506001600160401b038082111562000c23578586fd5b62000c318c838d0162000b35565b985060408b015191508082111562000c47578586fd5b62000c558c838d0162000b35565b975060608b015191508082111562000c6b578586fd5b62000c798c838d0162000a42565b965060808b015191508082111562000c8f578586fd5b5062000c9e8b828c0162000ac3565b94505060a0890151925060c0890151915060e089015190509295985092959890939650565b60006020828403121562000cd5578081fd5b815160ff8116811462000896578182fd5b60006060820185835260206060818501528186518084526080860191508288019350845b8181101562000d325762000d1f855162000dde565b8352938301939183019160010162000d0a565b505084810360408601528551808252908201925081860190845b8181101562000d745762000d61835162000dde565b8552938301939183019160010162000d4c565b509298975050505050505050565b602081016003831062000d9157fe5b91905290565b6040518181016001600160401b038111828210171562000db657600080fd5b604052919050565b60006001600160401b0382111562000dd4578081fd5b5060209081020190565b6001600160a01b031690565b6001600160a01b03811681146200098d57600080fd5b60805160a05160c05160601c60e051610100516101205160601c6101405160601c6101605160601c6101805160601c6101a05160601c6101c05160601c6101e05160601c61020051610220516102405161026051610280516102a0516102c0516102e05161030051610320516103405161036051610380516103a0516103c051614747620010746000398061180952806124815250806117a6528061242052508061174352806123bf5250806116e0528061235e52508061167d52806122fd52508061161a528061229c5250806115ab528061223b5250806126e3528061271752806127535250806110ce5280611bc252508061106d5280611b5f52508061100c5280611afc525080610fab5280611a99525080610f4a5280611a36525080610ee952806119d3525080610e885280611970525080611093528061244652508061103252806123e5525080610fd15280612384525080610f705280612323525080610f0f52806122c2525080610eae5280612261525080610e4d52806122005250806107805280610c17528061130f5280611521528061158552806115f3528061165652806116b9528061171c528061177f52806117e252806118e6528061194a52806119ac5280611a0f5280611a725280611ad55280611b385280611b9b5280611bf35280611df35280611ff752806120555280612649528061279752806129285280612b3d5280612b9e5280612cb95280612e745280612f1d5250806105f352806106cd528061080a5280610a905280610b8052508061069e52806107de52806108c65280610a615280610b545280611f28525080610a1a5280611ef15250806109f75280611cfb52506147476000f3fe608060405234801561001057600080fd5b50600436106101c45760003560e01c806387ec6817116100f9578063aaabadc511610097578063d5c096c411610071578063d5c096c414610384578063d73dd62314610397578063dd62ed3e146103aa578063f89f27ed146103bd576101c4565b8063aaabadc51461036c578063c0ff1a1514610374578063d4cadf681461037c576101c4565b806395d89b41116100d357806395d89b41146103325780639b02cdde1461033a578063a50ff09714610342578063a9059cbb14610359576101c4565b806387ec6817146102f75780638d928af81461030a5780639588c1931461031f576101c4565b806338fff2d011610166578063679aefce11610140578063679aefce146102a857806370a08231146102b057806374f3b009146102c357806377c91f70146102e4576101c4565b806338fff2d01461026c5780636028bfd4146102745780636618846314610295576101c4565b8063223b57e5116101a2578063223b57e51461021c57806323b872dd1461022f578063313ce5671461024257806334e1990714610257576101c4565b806306fdde03146101c9578063095ea7b3146101e757806318160ddd14610207575b600080fd5b6101d16103d2565b6040516101de9190614620565b60405180910390f35b6101fa6101f5366004614131565b610487565b6040516101de91906145c9565b61020f61049e565b6040516101de91906145ec565b61020f61022a36600461448c565b6104a4565b6101fa61023d3660046140f1565b610521565b61024a6105ca565b6040516101de919061468c565b61026a6102653660046144d8565b6105cf565b005b61020f6105f1565b610287610282366004614257565b610615565b6040516101de929190614673565b6101fa6102a3366004614131565b61063e565b61020f610698565b61020f6102be36600461409d565b6107b0565b6102d66102d1366004614257565b6107cf565b6040516101de9291906145a4565b61026a6102f236600461421f565b610897565b610287610305366004614257565b6108ab565b6103126108c4565b6040516101de919061460c565b61020f61032d36600461448c565b6108e8565b6101d1610961565b61020f6109e0565b61034a6109e6565b6040516101de939291906145d4565b6101fa610367366004614131565b610a3f565b610312610a4c565b61020f610a5b565b61020f610b3f565b6102d6610392366004614257565b610b45565b6101fa6103a5366004614131565b610cc8565b61020f6103b83660046140b9565b610cfe565b6103c5610d29565b6040516101de9190614591565b60038054604080516020601f60027fffffffffffffffffffffffffffffffffffffffffffffffffffffffffffffffff61010060018816150201909516949094049384018190048102820181019092528281526060939092909183018282801561047c5780601f106104515761010080835404028352916020019161047c565b820191906000526020600020905b81548152906001019060200180831161045f57829003601f168201915b505050505090505b90565b6000610494338484610de1565b5060015b92915050565b60025490565b6000806104b48560000151610e49565b905060006104c58660200151610e49565b90506104d185836110f2565b94506104dd84826110f2565b93506104ed8660400151826110f2565b604087015260006104ff8787876110fe565b905061050b818461115b565b905061051681611167565b979650505050505050565b6001600160a01b0383166000818152600160209081526040808320338085529252822054919214806105535750828110155b61055c57600080fd5b61056785858561117e565b336001600160a01b038616148015906105a057507fffffffffffffffffffffffffffffffffffffffffffffffffffffffffffffffff8114155b156105bf57828110156105b257600080fd5b6105bf8533858403610de1565b506001949350505050565b601290565b6105d7611234565b67016345785d8a00008111156105ec57600080fd5b600655565b7f000000000000000000000000000000000000000000000000000000000000000090565b6000606061062e8989898989898961129861130a611389565b9150915097509795505050505050565b3360009081526001602090815260408083206001600160a01b038616845290915281205480831061067a5761067533856000610de1565b61068e565b61068e33856106898487610dcc565b610de1565b5060019392505050565b600060607f00000000000000000000000000000000000000000000000000000000000000006001600160a01b031663f94d46687f00000000000000000000000000000000000000000000000000000000000000006040518263ffffffff1660e01b815260040161070891906145ec565b60006040518083038186803b15801561072057600080fd5b505afa158015610734573d6000803e3d6000fd5b505050506040513d6000823e601f3d908101601f1916820160405261075c919081019061415c565b9150506107aa61076a61049e565b6107a461077e61077861151c565b85611846565b7f00000000000000000000000000000000000000000000000000000000000000006118be565b90610d66565b91505090565b6001600160a01b0381166000908152602081905260409020545b919050565b60608088336001600160a01b037f0000000000000000000000000000000000000000000000000000000000000000161461080857600080fd5b7f0000000000000000000000000000000000000000000000000000000000000000811461083457600080fd5b606061083e6118e1565b905061084a8882611bee565b600060608061085e8e8e8e8e8e8e8e611298565b92509250925061086e8d84611c68565b610878828561130a565b610882818561130a565b909550935050505b5097509795505050505050565b61089f611234565b6108a881611cf9565b50565b6000606061062e89898989898989611d8c611dee611389565b7f000000000000000000000000000000000000000000000000000000000000000090565b60006108f78460400151611e68565b6040850152835160009061090a90610e49565b9050600061091b8660200151610e49565b905061092785836110f2565b945061093384826110f2565b93506109438660400151836110f2565b60408701526000610955878787611e8c565b90506105168183611ee1565b60048054604080516020601f60027fffffffffffffffffffffffffffffffffffffffffffffffffffffffffffffffff61010060018816150201909516949094049384018190048102820181019092528281526060939092909183018282801561047c5780601f106104515761010080835404028352916020019161047c565b60075490565b60008060006109f3611eed565b15937f000000000000000000000000000000000000000000000000000000000000000093507f000000000000000000000000000000000000000000000000000000000000000092509050565b600061049433848461117e565b6000610a56611f24565b905090565b600060607f00000000000000000000000000000000000000000000000000000000000000006001600160a01b031663f94d46687f00000000000000000000000000000000000000000000000000000000000000006040518263ffffffff1660e01b8152600401610acb91906145ec565b60006040518083038186803b158015610ae357600080fd5b505afa158015610af7573d6000803e3d6000fd5b505050506040513d6000823e601f3d908101601f19168201604052610b1f919081019061415c565b9150506060610b2c61151c565b9050610b388183611846565b9250505090565b60065490565b60608088336001600160a01b037f00000000000000000000000000000000000000000000000000000000000000001614610b7e57600080fd5b7f00000000000000000000000000000000000000000000000000000000000000008114610baa57600080fd5b6060610bb46118e1565b9050610bc08882611bee565b610bc861049e565b610c835760006060610bdc8d8d8d8a611fb7565b915091506103e8821015610bef57600080fd5b610bfc60006103e861208f565b610c0a8b6103e8840361208f565b610c148184611dee565b807f000000000000000000000000000000000000000000000000000000000000000067ffffffffffffffff81118015610c4c57600080fd5b50604051908082528060200260200182016040528015610c76578160200160208202803683370190505b509550955050505061088a565b6000606080610c978e8e8e8e8e8e8e611d8c565b925092509250610ca78c8461208f565b610cb18285611dee565b610cbb818561130a565b909550935061088a915050565b3360008181526001602090815260408083206001600160a01b038716845290915281205490916104949185906106899086610d4d565b6001600160a01b03918216600090815260016020908152604080832093909416825291909152205490565b6060610a5661151c565b80610d3d81612125565b5050565b808214610d3d57600080fd5b600082820183811015610d5f57600080fd5b9392505050565b600081610d7257600080fd5b670de0b6b3a76400008302831580610d9a5750670de0b6b3a7640000848281610d9757fe5b04145b610da357600080fd5b60028304810181811015610db657600080fd5b6000848281610dc157fe5b049695505050505050565b600082821115610ddb57600080fd5b50900390565b6001600160a01b0380841660008181526001602090815260408083209487168084529490915290819020849055517f8c5be1e5ebec7d5bd14f71427d1e84f3dd0314c0f7b2291e5b200ac8c7c3b92590610e3c9085906145ec565b60405180910390a3505050565b60007f00000000000000000000000000000000000000000000000000000000000000006001600160a01b0316826001600160a01b03161415610eac57507f00000000000000000000000000000000000000000000000000000000000000006107ca565b7f00000000000000000000000000000000000000000000000000000000000000006001600160a01b0316826001600160a01b03161415610f0d57507f00000000000000000000000000000000000000000000000000000000000000006107ca565b7f00000000000000000000000000000000000000000000000000000000000000006001600160a01b0316826001600160a01b03161415610f6e57507f00000000000000000000000000000000000000000000000000000000000000006107ca565b7f00000000000000000000000000000000000000000000000000000000000000006001600160a01b0316826001600160a01b03161415610fcf57507f00000000000000000000000000000000000000000000000000000000000000006107ca565b7f00000000000000000000000000000000000000000000000000000000000000006001600160a01b0316826001600160a01b0316141561103057507f00000000000000000000000000000000000000000000000000000000000000006107ca565b7f00000000000000000000000000000000000000000000000000000000000000006001600160a01b0316826001600160a01b0316141561109157507f00000000000000000000000000000000000000000000000000000000000000006107ca565b7f00000000000000000000000000000000000000000000000000000000000000006001600160a01b0316826001600160a01b031614156101c457507f00000000000000000000000000000000000000000000000000000000000000006107ca565b6000610d5f83836118be565b600061110861219d565b61111a82670429d069189e00006121b0565b8460400151111561112a57600080fd5b6111538361113b86600001516121fc565b8461114988602001516121fc565b88604001516124a5565b949350505050565b6000610d5f838361250a565b600061049861117760065461253a565b839061256b565b6001600160a01b038316600090815260208190526040902054818110156111a457600080fd5b6001600160a01b038085166000908152602081905260408082208585039055918516815220546111d49083610d4d565b6001600160a01b0380851660008181526020819052604090819020939093559151908616907fddf252ad1be2c89b69c2b068fc378daa952ba7f163c4a11628f55a4df523b3ef906112269086906145ec565b60405180910390a350505050565b6000306000357fffffffff000000000000000000000000000000000000000000000000000000001660405160200161126d92919061452a565b60405160208183030381529060405280519060200120905061128f81336125bd565b6108a857600080fd5b600060608060606112a761151c565b905060006112b5828a611846565b905060606112c88a84600754858c612644565b90506112d48a82612792565b600060606112e38c868b612815565b915091506112f28c8287612894565b600755909e909d50909b509950505050505050505050565b60005b7f00000000000000000000000000000000000000000000000000000000000000008110156113845761136583828151811061134457fe5b602002602001015183838151811061135857fe5b60200260200101516128aa565b83828151811061137157fe5b602090810291909101015260010161130d565b505050565b6000606033301461147c576000306001600160a01b03166000366040516113b1929190614581565b6000604051808303816000865af19150503d80600081146113ee576040519150601f19603f3d011682016040523d82523d6000602084013e6113f3565b606091505b50509050806000811461140257fe5b60046000803e6000517fffffffff00000000000000000000000000000000000000000000000000000000167f43adbafb00000000000000000000000000000000000000000000000000000000811461145e573d6000803e3d6000fd5b506020600460003e604060205260243d03602460403e601c3d016000f35b60606114866118e1565b90506114928982611bee565b600060606114a98e8e8e8e8e8e8e8e63ffffffff16565b50915091506114bc81848863ffffffff16565b8051601f1982018390526343adbafb7fffffffffffffffffffffffffffffffffffffffffffffffffffffffffffffffc08301526020027fffffffffffffffffffffffffffffffffffffffffffffffffffffffffffffffdc82016044820181fd5b6060807f000000000000000000000000000000000000000000000000000000000000000067ffffffffffffffff8111801561155657600080fd5b50604051908082528060200260200182016040528015611580578160200160208202803683370190505b5090507f0000000000000000000000000000000000000000000000000000000000000000156115e8577f0000000000000000000000000000000000000000000000000000000000000000816000815181106115d757fe5b6020026020010181815250506115ef565b9050610484565b60017f000000000000000000000000000000000000000000000000000000000000000011156115e8577f00000000000000000000000000000000000000000000000000000000000000008160018151811061164657fe5b60200260200101818152505060027f000000000000000000000000000000000000000000000000000000000000000011156115e8577f0000000000000000000000000000000000000000000000000000000000000000816002815181106116a957fe5b60200260200101818152505060037f000000000000000000000000000000000000000000000000000000000000000011156115e8577f00000000000000000000000000000000000000000000000000000000000000008160038151811061170c57fe5b60200260200101818152505060047f000000000000000000000000000000000000000000000000000000000000000011156115e8577f00000000000000000000000000000000000000000000000000000000000000008160048151811061176f57fe5b60200260200101818152505060057f000000000000000000000000000000000000000000000000000000000000000011156115e8577f0000000000000000000000000000000000000000000000000000000000000000816005815181106117d257fe5b60200260200101818152505060067f000000000000000000000000000000000000000000000000000000000000000011156115e8577f00000000000000000000000000000000000000000000000000000000000000008160068151811061183557fe5b602002602001018181525050905090565b600061185483518351610d41565b50670de0b6b3a764000060005b83518160ff1610156118b7576118ad6118a6848360ff168151811061188257fe5b6020026020010151868460ff168151811061189957fe5b60200260200101516128c7565b83906121b0565b9150600101611861565b5092915050565b60008282028315806118d85750828482816118d557fe5b04145b610d5f57600080fd5b6060807f000000000000000000000000000000000000000000000000000000000000000067ffffffffffffffff8111801561191b57600080fd5b50604051908082528060200260200182016040528015611945578160200160208202803683370190505b5090507f0000000000000000000000000000000000000000000000000000000000000000156115e8577f00000000000000000000000000000000000000000000000000000000000000008160008151811061199c57fe5b60200260200101818152505060017f000000000000000000000000000000000000000000000000000000000000000011156115e8577f0000000000000000000000000000000000000000000000000000000000000000816001815181106119ff57fe5b60200260200101818152505060027f000000000000000000000000000000000000000000000000000000000000000011156115e8577f000000000000000000000000000000000000000000000000000000000000000081600281518110611a6257fe5b60200260200101818152505060037f000000000000000000000000000000000000000000000000000000000000000011156115e8577f000000000000000000000000000000000000000000000000000000000000000081600381518110611ac557fe5b60200260200101818152505060047f000000000000000000000000000000000000000000000000000000000000000011156115e8577f000000000000000000000000000000000000000000000000000000000000000081600481518110611b2857fe5b60200260200101818152505060057f000000000000000000000000000000000000000000000000000000000000000011156115e8577f000000000000000000000000000000000000000000000000000000000000000081600581518110611b8b57fe5b60200260200101818152505060067f000000000000000000000000000000000000000000000000000000000000000011156115e8577f00000000000000000000000000000000000000000000000000000000000000008160068151811061183557fe5b60005b7f000000000000000000000000000000000000000000000000000000000000000081101561138457611c49838281518110611c2857fe5b6020026020010151838381518110611c3c57fe5b60200260200101516118be565b838281518110611c5557fe5b6020908102919091010152600101611bf1565b6001600160a01b03821660009081526020819052604090205481811015611c8e57600080fd5b6001600160a01b03831660009081526020819052604090208282039055600254611cb89083610dcc565b6002556040516000906001600160a01b038516907fddf252ad1be2c89b69c2b068fc378daa952ba7f163c4a11628f55a4df523b3ef90610e3c9086906145ec565b7f00000000000000000000000000000000000000000000000000000000000000004210611d2557600080fd5b600580547fffffffffffffffffffffffffffffffffffffffffffffffffffffffffffffff00168215151790556040517fa5bc6afced71829f82830a97f26eb92aea46d29443b5acb7d47c4a52b1e2734190611d819083906145c9565b60405180910390a150565b6000606080611d9961219d565b6060611da361151c565b90506000611db1828a611846565b90506060611dc48a84600754858c612644565b9050611dd08a82612792565b60006060611ddf8c868b6128d3565b915091506112f28c8287612922565b60005b7f000000000000000000000000000000000000000000000000000000000000000081101561138457611e49838281518110611e2857fe5b6020026020010151838381518110611e3c57fe5b602002602001015161250a565b838281518110611e5557fe5b6020908102919091010152600101611df1565b600080611e80600654846129b190919063ffffffff16565b9050610d5f8382610dcc565b6000611e9661219d565b611ea883670429d069189e00006121b0565b84604001511115611eb857600080fd5b61115383611ec986600001516121fc565b84611ed788602001516121fc565b8860400151612a14565b6000610d5f83836128aa565b60007f000000000000000000000000000000000000000000000000000000000000000042101580610a5657505060055460ff161590565b60007f00000000000000000000000000000000000000000000000000000000000000006001600160a01b031663aaabadc56040518163ffffffff1660e01b815260040160206040518083038186803b158015611f7f57600080fd5b505afa158015611f93573d6000803e3d6000fd5b505050506040513d601f19601f82011682018060405250810190610a569190614354565b60006060611fc361219d565b6000611fce84612a60565b90506000816002811115611fde57fe5b14611fe857600080fd5b6060611ff385612a76565b90507f000000000000000000000000000000000000000000000000000000000000000081511461202257600080fd5b6120338161202e6118e1565b611bee565b606061203d61151c565b9050600061204b8284611846565b90506000612079827f00000000000000000000000000000000000000000000000000000000000000006118be565b6007929092555099919850909650505050505050565b6001600160a01b0382166000908152602081905260409020546120b29082610d4d565b6001600160a01b0383166000908152602081905260409020556002546120d89082610d4d565b6002556040516001600160a01b038316906000907fddf252ad1be2c89b69c2b068fc378daa952ba7f163c4a11628f55a4df523b3ef906121199085906145ec565b60405180910390a35050565b600281511015612134576108a8565b60008160008151811061214357fe5b602002602001015190506000600190505b825181101561138457600083828151811061216b57fe5b60200260200101519050806001600160a01b0316836001600160a01b03161061219357600080fd5b9150600101612154565b6121a5611eed565b6121ae57600080fd5b565b60008282028315806121ca5750828482816121c757fe5b04145b6121d357600080fd5b6706f05b59d3b200008101818110156121eb57600080fd5b6000670de0b6b3a764000082610dc1565b60007f00000000000000000000000000000000000000000000000000000000000000006001600160a01b0316826001600160a01b0316141561225f57507f00000000000000000000000000000000000000000000000000000000000000006107ca565b7f00000000000000000000000000000000000000000000000000000000000000006001600160a01b0316826001600160a01b031614156122c057507f00000000000000000000000000000000000000000000000000000000000000006107ca565b7f00000000000000000000000000000000000000000000000000000000000000006001600160a01b0316826001600160a01b0316141561232157507f00000000000000000000000000000000000000000000000000000000000000006107ca565b7f00000000000000000000000000000000000000000000000000000000000000006001600160a01b0316826001600160a01b0316141561238257507f00000000000000000000000000000000000000000000000000000000000000006107ca565b7f00000000000000000000000000000000000000000000000000000000000000006001600160a01b0316826001600160a01b031614156123e357507f00000000000000000000000000000000000000000000000000000000000000006107ca565b7f00000000000000000000000000000000000000000000000000000000000000006001600160a01b0316826001600160a01b0316141561244457507f00000000000000000000000000000000000000000000000000000000000000006107ca565b7f00000000000000000000000000000000000000000000000000000000000000006001600160a01b0316826001600160a01b031614156101c457507f00000000000000000000000000000000000000000000000000000000000000006107ca565b6000806124bc6124b58685610dcc565b869061256b565b905060006124ca858861256b565b905060006124d88383612a8c565b905060006124ee82670de0b6b3a7640000610dcc565b90506124fa8a826129b1565b9450505050505b95945050505050565b60008161251657600080fd5b8261252357506000610498565b81600184038161252f57fe5b046001019050610498565b6000670de0b6b3a76400008210156125635761255e670de0b6b3a764000083610dcc565b610498565b506000919050565b60008161257757600080fd5b8261258457506000610498565b670de0b6b3a76400008381029084828161259a57fe5b04146125a557600080fd5b8260018203816125b157fe5b04600101915050610498565b60006125c7611f24565b6001600160a01b03166391d1485484846040518363ffffffff1660e01b81526004016125f49291906145f5565b60206040518083038186803b15801561260c57600080fd5b505afa158015612620573d6000803e3d6000fd5b505050506040513d601f19601f82011682018060405250810190610d5f919061423b565b6060807f000000000000000000000000000000000000000000000000000000000000000067ffffffffffffffff8111801561267e57600080fd5b506040519080825280602002602001820160405280156126a8578160200160208202803683370190505b50905060006126b7868661256b565b90506709b6e64a8ec6000081116126dd576126da866709b6e64a8ec6000061256b565b94505b612750887f00000000000000000000000000000000000000000000000000000000000000008151811061270c57fe5b6020026020010151887f00000000000000000000000000000000000000000000000000000000000000008151811061274057fe5b6020026020010151888888612aba565b827f00000000000000000000000000000000000000000000000000000000000000008151811061277c57fe5b6020908102919091010152509695505050505050565b60005b7f0000000000000000000000000000000000000000000000000000000000000000811015611384576127f68282815181106127cc57fe5b60200260200101518483815181106127e057fe5b6020026020010151610dcc90919063ffffffff16565b83828151811061280257fe5b6020908102919091010152600101612795565b60006060600061282484612a60565b9050600081600281111561283457fe5b141561284f57612845858786612b1f565b925092505061288c565b600181600281111561285d57fe5b141561286d576128458685612c63565b600281600281111561287b57fe5b14156101c457612845858786612c95565b935093915050565b60006128a08484612792565b6111538285611846565b6000816128b657600080fd5b8183816128bf57fe5b049392505050565b6000610d5f8383612d1d565b6000606060006128e284612a60565b905060018160028111156128f257fe5b141561290357612845868686612e5e565b600281600281111561291157fe5b14156101c457612845868686612ed2565b6000805b7f00000000000000000000000000000000000000000000000000000000000000008110156129a65761298784828151811061295d57fe5b602002602001015186838151811061297157fe5b6020026020010151610d4d90919063ffffffff16565b85828151811061299357fe5b6020908102919091010152600101612926565b506111538285611846565b60008282028315806129cb5750828482816129c857fe5b04145b6129d457600080fd5b806129e3576000915050610498565b670de0b6b3a76400007fffffffffffffffffffffffffffffffffffffffffffffffffffffffffffffffff82016125b1565b600080612a218784610d4d565b90506000612a2f888361256b565b90506000612a3d8887612fb4565b90506000612a4b8383612a8c565b90506124fa612a598261253a565b8990613000565b6000818060200190518101906104989190614370565b606081806020019051810190610d5f9190614447565b600080612a998484612d1d565b9050611153612ab382612aae846127106129b1565b610d4d565b6001610d4d565b600083831015612acc57506000612501565b6000612ad8858561256b565b90506000612aee670de0b6b3a764000088612fb4565b90506000612afc8383612a8c565b90506000612b13612b0c8361253a565b8b90613000565b90506124fa8187613000565b60006060612b2b61219d565b600080612b3785613035565b915091507f00000000000000000000000000000000000000000000000000000000000000008110612b6757600080fd5b6000612b7161049e565b90506000612b83826107a48187610dcc565b90506709b6e64a8ec60000811015612b9a57600080fd5b60607f000000000000000000000000000000000000000000000000000000000000000067ffffffffffffffff81118015612bd357600080fd5b50604051908082528060200260200182016040528015612bfd578160200160208202803683370190505b509050612c3c898581518110612c0f57fe5b60200260200101518b8681518110612c2357fe5b602002602001015187612c3461049e565b600654613057565b818581518110612c4857fe5b60209081029190910101529399939850929650505050505050565b600060606000612c72846130dc565b90506060612c888683612c8361049e565b6130f2565b9196919550909350505050565b60006060612ca161219d565b60606000612cae856131a4565b91509150612cdd82517f0000000000000000000000000000000000000000000000000000000000000000610d41565b612ce98261202e6118e1565b6000612d01878985612cf961049e565b6006546131bc565b905081811115612d1057600080fd5b9791965090945050505050565b600081612d335750670de0b6b3a7640000610498565b82612d4057506000610498565b7f80000000000000000000000000000000000000000000000000000000000000008310612d6c57600080fd5b770bce5086492111aea88f4bb1ca6bcf584181ea8059f765328210612d9057600080fd5b82826000670c7d713b49da000083138015612db25750670f43fc2c04ee000083125b15612de9576000612dc2846133ff565b9050670de0b6b3a764000080820784020583670de0b6b3a764000083050201915050612df7565b81612df3846134c5565b0290505b7fffffffffffffffffffffffffffffffffe0d1b038165edf2c9c579db9846000008112801590612e3757506f62541066c2001c07b75885b199d400008113155b612e4057600080fd5b670de0b6b3a76400009005612e5481613869565b9695505050505050565b60006060806000612e6e856131a4565b915091507f0000000000000000000000000000000000000000000000000000000000000000825114612e9f57600080fd5b612eab8261202e6118e1565b6000612ec3888885612ebb61049e565b600654613c72565b905081811015612d1057600080fd5b60006060600080612ee285613035565b915091506000612ef061049e565b90506000612f02826107a48187610d4d565b90506729a2241af62c0000811115612f1957600080fd5b60607f000000000000000000000000000000000000000000000000000000000000000067ffffffffffffffff81118015612f5257600080fd5b50604051908082528060200260200182016040528015612f7c578160200160208202803683370190505b509050612c3c8a8581518110612f8e57fe5b60200260200101518a8681518110612fa257fe5b60200260200101518786600654613e59565b600081612fc057600080fd5b82612fcd57506000610498565b670de0b6b3a764000083810290848281612fe357fe5b0414612fee57600080fd5b828181612ff757fe5b04915050610498565b600082820283158061301a57508284828161301757fe5b04145b61302357600080fd5b670de0b6b3a764000090049392505050565b6000808280602001905181019061304c9190614411565b909590945092505050565b60008061306e846130688188610dcc565b9061256b565b9050600061308d82613088670de0b6b3a76400008a61256b565b612a8c565b9050600061309a8861253a565b905060006130aa612b0c8461253a565b905060006130b887846129b1565b90506130cd6130c68261253a565b8390613000565b9b9a5050505050505050505050565b600081806020019051810190610d5f91906143e4565b606060006131008484612fb4565b90506060855167ffffffffffffffff8111801561311c57600080fd5b50604051908082528060200260200182016040528015613146578160200160208202803683370190505b50905060005b865181101561319a5761317b8388838151811061316557fe5b602002602001015161300090919063ffffffff16565b82828151811061318757fe5b602090810291909101015260010161314c565b5095945050505050565b606060008280602001905181019061304c919061438c565b60006060845167ffffffffffffffff811180156131d857600080fd5b50604051908082528060200260200182016040528015613202578160200160208202803683370190505b5090506000805b88518110156132b15761324c89828151811061322157fe5b602002602001015161306889848151811061323857fe5b60200260200101518c85815181106127e057fe5b83828151811061325857fe5b6020026020010181815250506132a76132a089838151811061327657fe5b602002602001015185848151811061328a57fe5b60200260200101516129b190919063ffffffff16565b8390610d4d565b9150600101613209565b50670de0b6b3a764000060005b89518110156133de576000808583815181106132d657fe5b602002602001015185116132ed5760009150613335565b61333261330c8785815181106132ff57fe5b602002602001015161253a565b61306888868151811061331b57fe5b602002602001015188610dcc90919063ffffffff16565b91505b600061334189846129b1565b905060006133736133518361253a565b8d878151811061335d57fe5b602002602001015161256b90919063ffffffff16565b90506133a361339e8f878151811061338757fe5b60200260200101518361256b90919063ffffffff16565b61253a565b92506133cc6133c5848f88815181106133b857fe5b6020026020010151613ecd565b8790613000565b955050600190930192506132be915050565b506133f26133eb8261253a565b87906129b1565b9998505050505050505050565b670de0b6b3a7640000026000806ec097ce7bc90715b34b9f1000000000808401907fffffffffffffffffffffffffffffffffff3f68318436f8ea4cb460f0000000008501028161344b57fe5b60036ec097ce7bc90715b34b9f100000000092909105808002839005808202849005928305909101600592820284900592830501600792820284900592830501600992820284900592830501600b92820284900592830501600d92820284900592830501600f929091029290920505016002029392505050565b60008082136134d357600080fd5b670de0b6b3a764000082121561350e57613504826ec097ce7bc90715b34b9f1000000000816134fe57fe5b056134c5565b60000390506107ca565b60007e1600ef3172e58d2e933ec884fde10064c63b5372d805e203c0000000000000831261355f576806f05b59d3b200000001770195e54c5dd42177f53a27172fa9ec630262827000000000830592505b73011798004d755d3c8bc8e03204cf44619e0000008312613597576803782dace9d9000000016b1425982cf597cd205cef7380830592505b606492830292026e01855144814a7ff805980ff008400083126135df5768ad78ebc5ac62000000016e01855144814a7ff805980ff008400068056bc75e2d6310000084020592505b6b02df0ab5a80a22c61ab5a700831261361a576856bc75e2d631000000016b02df0ab5a80a22c61ab5a70068056bc75e2d6310000084020592505b693f1fce3da636ea5cf850831261365157682b5e3af16b1880000001693f1fce3da636ea5cf85068056bc75e2d6310000084020592505b690127fa27722cc06cc5e28312613688576815af1d78b58c40000001690127fa27722cc06cc5e268056bc75e2d6310000084020592505b68280e60114edb805d0383126136bd57680ad78ebc5ac62000000168280e60114edb805d0368056bc75e2d6310000084020592505b680ebc5fb4174612111083126136e857680ebc5fb4174612111068056bc75e2d631000009384020592015b6808f00f760a4b2db55d831261371d576802b5e3af16b1880000016808f00f760a4b2db55d68056bc75e2d6310000084020592505b6806f5f177578893793783126137525768015af1d78b58c40000016806f5f177578893793768056bc75e2d6310000084020592505b6806248f33704b28660383126137865767ad78ebc5ac620000016806248f33704b28660368056bc75e2d6310000084020592505b6805c548670b9510e7ac83126137ba576756bc75e2d6310000016805c548670b9510e7ac68056bc75e2d6310000084020592505b600068056bc75e2d63100000840168056bc75e2d63100000850368056bc75e2d6310000002816137e657fe5b059050600768056bc75e2d631000008280028190058084028290058082028390058083028490059485056003909205860160059091050101929091818302059050600981058301925068056bc75e2d631000008282028161384357fe5b059050600b81058301925060648360020286018161385d57fe5b05979650505050505050565b60007ffffffffffffffffffffffffffffffffffffffffffffffffdc0d0570925a462d882121580156138a45750680715d69fa8c011c3fd8213155b6138ad57600080fd5b60008212156138e1576138c282600003613869565b6ec097ce7bc90715b34b9f1000000000816138d957fe5b0590506107ca565b68056bc75e2d6310000060016806f05b59d3b2000000841261393d57507ffffffffffffffffffffffffffffffffffffffffffffffff90fa4a62c4e00000090920191770195e54c5dd42177f53a27172fa9ec6302628270000000005b6803782dace9d90000008412613981577ffffffffffffffffffffffffffffffffffffffffffffffffc87d2531627000000909301926b1425982cf597cd205cef7380025b60648402935068ad78ebc5ac6200000084126139c55768056bc75e2d631000006e01855144814a7ff805980ff0084000830205915068ad78ebc5ac62000000840393505b6856bc75e2d6310000008412613a005768056bc75e2d631000006b02df0ab5a80a22c61ab5a70083020591506856bc75e2d631000000840393505b682b5e3af16b188000008412613a395768056bc75e2d63100000693f1fce3da636ea5cf8508302059150682b5e3af16b18800000840393505b6815af1d78b58c4000008412613a725768056bc75e2d63100000690127fa27722cc06cc5e283020591506815af1d78b58c400000840393505b680ad78ebc5ac62000008412613aaa5768056bc75e2d6310000068280e60114edb805d038302059150680ad78ebc5ac6200000840393505b68056bc75e2d631000008412613ae25768056bc75e2d63100000680ebc5fb41746121110830205915068056bc75e2d63100000840393505b6802b5e3af16b18800008412613b1a5768056bc75e2d631000006808f00f760a4b2db55d83020591506802b5e3af16b1880000840393505b68015af1d78b58c400008412613b525768056bc75e2d631000006806f5f1775788937937830205915068015af1d78b58c40000840393505b68056bc75e2d631000008481019085906002828002050591820191905068056bc75e2d631000006003878302050591820191905068056bc75e2d631000006004878302050591820191905068056bc75e2d631000006005878302050591820191905068056bc75e2d631000006006878302050591820191905068056bc75e2d631000006007878302050591820191905068056bc75e2d631000006008878302050591820191905068056bc75e2d631000006009878302050591820191905068056bc75e2d63100000600a878302050591820191905068056bc75e2d63100000600b878302050591820191905068056bc75e2d63100000600c8783020505918201919050606468056bc75e2d63100000858402058402059695505050505050565b60006060845167ffffffffffffffff81118015613c8e57600080fd5b50604051908082528060200260200182016040528015613cb8578160200160208202803683370190505b5090506000805b8851811015613d5057613d08898281518110613cd757fe5b6020026020010151613d02898481518110613cee57fe5b60200260200101518c858151811061297157fe5b90612fb4565b838281518110613d1457fe5b602002602001018181525050613d466132a0898381518110613d3257fe5b602002602001015185848151811061316557fe5b9150600101613cbf565b50670de0b6b3a764000060005b8951811015613e43576000848281518110613d7457fe5b60200260200101518410613d8a57506000613db8565b613db5613da5670de0b6b3a76400008785815181106127e057fe5b613068868886815181106127e057fe5b90505b6000613dc488836129b1565b90506000613de0613dd48361253a565b8c868151811061316557fe5b90506000613e1c613e0d8f8781518110613df657fe5b602002602001015184612fb490919063ffffffff16565b670de0b6b3a764000090610d4d565b9050613e316133c5828f88815181106133b857fe5b95505060019093019250613d5d915050565b506133f26133c582670de0b6b3a7640000610dcc565b600080613e6a846130688188610d4d565b90506000613e8482613088670de0b6b3a76400008a61256b565b90506000613e918861253a565b90506000613eb1613eaa84670de0b6b3a7640000610dcc565b8b906129b1565b90506000613ebf87846129b1565b90506130cd6111778261253a565b600080613eda8484612d1d565b905080613eeb576000915050610498565b611153613f0382613efe84612710613000565b610dcc565b6001610dcc565b8035610498816146e1565b600082601f830112613f25578081fd5b8151613f38613f33826146c1565b61469a565b818152915060208083019084810181840286018201871015613f5957600080fd5b60005b84811015613f7857815184529282019290820190600101613f5c565b505050505092915050565b600082601f830112613f93578081fd5b813567ffffffffffffffff811115613fa9578182fd5b613fbc6020601f19601f8401160161469a565b9150808252836020828501011115613fd357600080fd5b8060208401602084013760009082016020015292915050565b6000610100808385031215613fff578182fd5b6140088161469a565b9150506140158383613f0a565b81526140248360208401613f0a565b60208201526040820135604082015260608201356060820152608082013560808201526140548360a08401613f0a565b60a08201526140668360c08401613f0a565b60c082015260e082013567ffffffffffffffff81111561408557600080fd5b61409184828501613f83565b60e08301525092915050565b6000602082840312156140ae578081fd5b8135610d5f816146e1565b600080604083850312156140cb578081fd5b82356140d6816146e1565b915060208301356140e6816146e1565b809150509250929050565b600080600060608486031215614105578081fd5b8335614110816146e1565b92506020840135614120816146e1565b929592945050506040919091013590565b60008060408385031215614143578182fd5b823561414e816146e1565b946020939093013593505050565b6000806040838503121561416e578182fd5b825167ffffffffffffffff80821115614185578384fd5b818501915085601f830112614198578384fd5b81516141a6613f33826146c1565b80828252602080830192508086018a8283870289010111156141c6578889fd5b8896505b848710156141f15780516141dd816146e1565b8452600196909601959281019281016141ca565b508801519096509350505080821115614208578283fd5b5061421585828601613f15565b9150509250929050565b600060208284031215614230578081fd5b8135610d5f816146f6565b60006020828403121561424c578081fd5b8151610d5f816146f6565b600080600080600080600060e0888a031215614271578485fd5b87359650602080890135614284816146e1565b96506040890135614294816146e1565b9550606089013567ffffffffffffffff808211156142b0578586fd5b818b0191508b601f8301126142c3578586fd5b81356142d1613f33826146c1565b8082825285820191508585018f8788860288010111156142ef57898afd5b8995505b838610156143115780358352600195909501949186019186016142f3565b509850505060808b0135955060a08b0135945060c08b0135925080831115614337578384fd5b50506143458a828b01613f83565b91505092959891949750929550565b600060208284031215614365578081fd5b8151610d5f816146e1565b600060208284031215614381578081fd5b8151610d5f81614704565b6000806000606084860312156143a0578081fd5b83516143ab81614704565b602085015190935067ffffffffffffffff8111156143c7578182fd5b6143d386828701613f15565b925050604084015190509250925092565b600080604083850312156143f6578182fd5b825161440181614704565b6020939093015192949293505050565b600080600060608486031215614425578081fd5b835161443081614704565b602085015160409095015190969495509392505050565b60008060408385031215614459578182fd5b825161446481614704565b602084015190925067ffffffffffffffff811115614480578182fd5b61421585828601613f15565b6000806000606084860312156144a0578081fd5b833567ffffffffffffffff8111156144b6578182fd5b6144c286828701613fec565b9660208601359650604090950135949350505050565b6000602082840312156144e9578081fd5b5035919050565b6000815180845260208085019450808401835b8381101561451f57815187529582019590820190600101614503565b509495945050505050565b60609290921b7fffffffffffffffffffffffffffffffffffffffff0000000000000000000000001682527fffffffff0000000000000000000000000000000000000000000000000000000016601482015260180190565b6000828483379101908152919050565b600060208252610d5f60208301846144f0565b6000604082526145b760408301856144f0565b828103602084015261250181856144f0565b901515815260200190565b92151583526020830191909152604082015260600190565b90815260200190565b9182526001600160a01b0316602082015260400190565b6001600160a01b0391909116815260200190565b6000602080835283518082850152825b8181101561464c57858101830151858201604001528201614630565b8181111561465d5783604083870101525b50601f01601f1916929092016040019392505050565b60008382526040602083015261115360408301846144f0565b60ff91909116815260200190565b60405181810167ffffffffffffffff811182821017156146b957600080fd5b604052919050565b600067ffffffffffffffff8211156146d7578081fd5b5060209081020190565b6001600160a01b03811681146108a857600080fd5b80151581146108a857600080fd5b600381106108a857600080fdfea2646970667358221220d9905d871cda1692d120e1cb9a763b2b7cfb84093c47dd6d6dc79990006658b164736f6c63430007010033a26469706673582212201aa028b1cfff2933c88623db9ef223cc72b9a5d271f50079a5979c3bc02e635064736f6c63430007010033",
  "devdoc": {
    "kind": "dev",
    "methods": {
      "create(string,string,address[],uint256[],uint256,uint256,uint256)": {
        "details": "Deploys a new `WeightedPool`."
      }
    },
    "version": 1
  },
  "userdoc": {
    "kind": "user",
    "methods": {},
    "version": 1
  },
  "storageLayout": {
    "storage": [],
    "types": null
  }
}