{
  "address": "0xCFD48F189e5fBfd74eE8E63Cfe2EB1930246e3F9",
  "abi": [
    {
      "inputs": [
        {
          "internalType": "contract IVault",
          "name": "_vault",
          "type": "address"
        }
      ],
      "stateMutability": "nonpayable",
      "type": "constructor"
    },
    {
      "anonymous": false,
      "inputs": [
        {
          "indexed": true,
          "internalType": "address",
          "name": "pool",
          "type": "address"
        }
      ],
      "name": "PoolRegistered",
      "type": "event"
    },
    {
      "inputs": [
        {
          "internalType": "string",
          "name": "name",
          "type": "string"
        },
        {
          "internalType": "string",
          "name": "symbol",
          "type": "string"
        },
        {
          "internalType": "contract IERC20[]",
          "name": "tokens",
          "type": "address[]"
        },
        {
          "internalType": "uint256[]",
          "name": "weights",
          "type": "uint256[]"
        },
        {
          "internalType": "uint256",
          "name": "swapFee",
          "type": "uint256"
        },
        {
          "internalType": "uint256",
          "name": "emergencyPeriod",
          "type": "uint256"
        },
        {
          "internalType": "uint256",
          "name": "emergencyPeriodCheckExtension",
          "type": "uint256"
        }
      ],
      "name": "create",
      "outputs": [
        {
          "internalType": "address",
          "name": "",
          "type": "address"
        }
      ],
      "stateMutability": "nonpayable",
      "type": "function"
    },
    {
      "inputs": [],
      "name": "vault",
      "outputs": [
        {
          "internalType": "contract IVault",
          "name": "",
          "type": "address"
        }
      ],
      "stateMutability": "view",
      "type": "function"
    }
  ],
  "transactionHash": "0x82384ba14dad427caacd43233aa7e0e62f43d198e6f7867938a66354602834f9",
  "args": [
    "0xba1222227c37746aDA22d10Da6265E02E44400DD"
  ],
  "solcInputHash": "74b30510f56cfc64a70ac36466ef55b0",
  "bytecode": "0x60a060405234801561001057600080fd5b50604051615cee380380615cee83398101604081905261002f91610044565b60601b6001600160601b031916608052610072565b600060208284031215610055578081fd5b81516001600160a01b038116811461006b578182fd5b9392505050565b60805160601c615c5c61009260003980607d528060fd5250615c5c6000f3fe60806040523480156200001157600080fd5b50600436106200003a5760003560e01c80630f5a4cf8146200003f578063fbfa77cf146200006e575b600080fd5b620000566200005036600462000307565b62000078565b6040516200006591906200047f565b60405180910390f35b62000056620000fb565b6000807f000000000000000000000000000000000000000000000000000000000000000089898989898989604051620000b19062000163565b620000c4989796959493929190620004a0565b604051809103906000f080158015620000e1573d6000803e3d6000fd5b509050620000ef816200011f565b98975050505050505050565b7f000000000000000000000000000000000000000000000000000000000000000081565b60405173ffffffffffffffffffffffffffffffffffffffff8216907f9cc152f4650ca2829a210a21551537f4cc4d48c2611ec06974f835e911921b9090600090a250565b61566280620005c583390190565b600082601f83011262000182578081fd5b81356200019962000193826200058a565b62000562565b818152915060208083019084810181840286018201871015620001bb57600080fd5b6000805b85811015620001ff57823573ffffffffffffffffffffffffffffffffffffffff81168114620001ec578283fd5b85529383019391830191600101620001bf565b50505050505092915050565b600082601f8301126200021c578081fd5b81356200022d62000193826200058a565b8181529150602080830190848101818402860182018710156200024f57600080fd5b60005b84811015620002705781358452928201929082019060010162000252565b505050505092915050565b600082601f8301126200028c578081fd5b813567ffffffffffffffff811115620002a3578182fd5b620002d660207fffffffffffffffffffffffffffffffffffffffffffffffffffffffffffffffe0601f8401160162000562565b9150808252836020828501011115620002ee57600080fd5b8060208401602084013760009082016020015292915050565b600080600080600080600060e0888a03121562000322578283fd5b873567ffffffffffffffff808211156200033a578485fd5b620003488b838c016200027b565b985060208a01359150808211156200035e578485fd5b6200036c8b838c016200027b565b975060408a013591508082111562000382578485fd5b620003908b838c0162000171565b965060608a0135915080821115620003a6578485fd5b50620003b58a828b016200020b565b979a969950949760808101359660a0820135965060c090910135945092505050565b6000815180845260208085019450808401835b838110156200040857815187529582019590820190600101620003ea565b509495945050505050565b60008151808452815b818110156200043a576020818501810151868301820152016200041c565b818111156200044c5782602083870101525b50601f017fffffffffffffffffffffffffffffffffffffffffffffffffffffffffffffffe0169290920160200192915050565b73ffffffffffffffffffffffffffffffffffffffff91909116815260200190565b600061010073ffffffffffffffffffffffffffffffffffffffff8b16835260208181850152620004d38285018c62000413565b91508382036040850152620004e9828b62000413565b84810360608601528951808252828b01935090820190845b818110156200052957620005168551620005ab565b8352938301939183019160010162000501565b505084810360808601526200053f818a620003d7565b60a08601989098525050505060c081019290925260e09091015295945050505050565b60405181810167ffffffffffffffff811182821017156200058257600080fd5b604052919050565b600067ffffffffffffffff821115620005a1578081fd5b5060209081020190565b73ffffffffffffffffffffffffffffffffffffffff169056fe6104406040523480156200001257600080fd5b506040516200566238038062005662833981016040819052620000359162000d11565b878787878686868684516002146200004f57600162000052565b60025b8787878787878181878781600390805190602001906200007492919062000ada565b5080516200008a90600490602084019062000ada565b50620000a29150506276a7008311156101f86200087f565b620000b662278d008211156101f96200087f565b4290910160808190520160a0528351620000d6906002111560c86200087f565b620000ee60088551111560c96200087f60201b60201c565b62000104846200089460201b62000b741760201c565b6200011964e8d4a5100084101560cb6200087f565b6200013167016345785d8a000084111560ca6200087f565b6040516309b2760f60e01b81526000906001600160a01b038a16906309b2760f9062000162908b9060040162000eb6565b602060405180830381600087803b1580156200017d57600080fd5b505af115801562000192573d6000803e3d6000fd5b505050506040513d601f19601f82011682018060405250810190620001b8919062000cf8565b9050886001600160a01b03166366a9c7d2828788516001600160401b0381118015620001e357600080fd5b506040519080825280602002602001820160405280156200020e578160200160208202803683370190505b506040518463ffffffff1660e01b81526004016200022f9392919062000e1a565b600060405180830381600087803b1580156200024a57600080fd5b505af11580156200025f573d6000803e3d6000fd5b5050506001600160601b031960608b901b1660c0525060e08190526006849055845161010052845162000294576000620002ab565b84600081518110620002a257fe5b60200260200101515b60601b6001600160601b031916610120528451600110620002ce576000620002e5565b84600181518110620002dc57fe5b60200260200101515b60601b6001600160601b031916610140528451600210620003085760006200031f565b846002815181106200031657fe5b60200260200101515b60601b6001600160601b0319166101605284516003106200034257600062000359565b846003815181106200035057fe5b60200260200101515b60601b6001600160601b0319166101805284516004106200037c57600062000393565b846004815181106200038a57fe5b60200260200101515b60601b6001600160601b0319166101a0528451600510620003b6576000620003cd565b84600581518110620003c457fe5b60200260200101515b60601b6001600160601b0319166101c0528451600610620003f057600062000407565b84600681518110620003fe57fe5b60200260200101515b60601b6001600160601b0319166101e05284516007106200042a57600062000441565b846007815181106200043857fe5b60200260200101515b60601b6001600160601b0319166102005284516200046157600062000487565b62000487856000815181106200047357fe5b6020026020010151620008a060201b60201c565b6102205284516001106200049d576000620004af565b620004af856001815181106200047357fe5b610240528451600210620004c5576000620004d7565b620004d7856002815181106200047357fe5b610260528451600310620004ed576000620004ff565b620004ff856003815181106200047357fe5b6102805284516004106200051557600062000527565b62000527856004815181106200047357fe5b6102a05284516005106200053d5760006200054f565b6200054f856005815181106200047357fe5b6102c05284516006106200056557600062000577565b62000577856006815181106200047357fe5b6102e05284516007106200058d5760006200059f565b6200059f856007815181106200047357fe5b610300818152505050505050505050505050505050505050620005d0845186516200094260201b62000b821760201c565b6000805b85518160ff1610156200061d5762000612868260ff1681518110620005f557fe5b6020026020010151836200095160201b62000b8f1790919060201c565b9150600101620005d4565b50600080606087516001600160401b03811180156200063b57600080fd5b5060405190808252806020026020018201604052801562000666578160200160208202803683370190505b50905060005b81518160ff16101562000700576000620006ac868b8460ff16815181106200069057fe5b60200260200101516200096e60201b62000ba11790919060201c565b9050620006c6662386f26fc1000082101561012e6200087f565b80838360ff1681518110620006d757fe5b60200260200101818152505083811115620006f6578160ff1694508093505b506001016200066c565b506103208390528751620007165760006200072d565b806000815181106200072457fe5b60200260200101515b610340528751600110620007435760006200075a565b806001815181106200075157fe5b60200260200101515b6103605287516002106200077057600062000787565b806002815181106200077e57fe5b60200260200101515b6103805287516003106200079d576000620007b4565b80600381518110620007ab57fe5b60200260200101515b6103a0528751600410620007ca576000620007e1565b80600481518110620007d857fe5b60200260200101515b6103c0528751600510620007f75760006200080e565b806005815181106200080557fe5b60200260200101515b6103e0528751600610620008245760006200083b565b806006815181106200083257fe5b60200260200101515b6104005287516007106200085157600062000868565b806007815181106200085f57fe5b60200260200101515b610420525062000f349a5050505050505050505050565b8162000890576200089081620009e2565b5050565b80620008908162000a35565b600080826001600160a01b031663313ce5676040518163ffffffff1660e01b815260040160206040518083038186803b158015620008dd57600080fd5b505afa158015620008f2573d6000803e3d6000fd5b505050506040513d601f19601f8201168201806040525081019062000918919062000df7565b60ff16905060006200093760128362000ac260201b62000c0c1760201c565b600a0a949350505050565b6200089082821460676200087f565b60008282016200096584821015836200087f565b90505b92915050565b60006200097f82151560046200087f565b670de0b6b3a76400008302620009b5841580620009ad5750670de0b6b3a7640000858381620009aa57fe5b04145b60066200087f565b600283048101620009cb8282101560066200087f565b6000848281620009d757fe5b049695505050505050565b62461bcd60e51b6000908152602060045260076024526642414c23000030600a808404818106603090810160081b95839006959095019082900491820690940160101b939093010160c81b604452606490fd5b60028151101562000a465762000abf565b60008160008151811062000a5657fe5b602002602001015190506000600190505b825181101562000abc57600083828151811062000a8057fe5b6020026020010151905062000ab1816001600160a01b0316846001600160a01b03161060656200087f60201b60201c565b915060010162000a67565b50505b50565b600062000ad48383111560016200087f565b50900390565b828054600181600116156101000203166002900490600052602060002090601f016020900481019282601f1062000b1d57805160ff191683800117855562000b4d565b8280016001018555821562000b4d579182015b8281111562000b4d57825182559160200191906001019062000b30565b5062000b5b92915062000b5f565b5090565b5b8082111562000b5b576000815560010162000b60565b600082601f83011262000b87578081fd5b815162000b9e62000b988262000ef2565b62000ecb565b81815291506020808301908481018184028601820187101562000bc057600080fd5b60005b8481101562000bec57815162000bd98162000f1e565b8452928201929082019060010162000bc3565b505050505092915050565b600082601f83011262000c08578081fd5b815162000c1962000b988262000ef2565b81815291506020808301908481018184028601820187101562000c3b57600080fd5b60005b8481101562000bec5781518452928201929082019060010162000c3e565b8051620009688162000f1e565b600082601f83011262000c7a578081fd5b81516001600160401b0381111562000c90578182fd5b602062000ca6601f8301601f1916820162000ecb565b9250818352848183860101111562000cbd57600080fd5b60005b8281101562000cdd57848101820151848201830152810162000cc0565b8281111562000cef5760008284860101525b50505092915050565b60006020828403121562000d0a578081fd5b5051919050565b600080600080600080600080610100898b03121562000d2e578384fd5b62000d3a8a8a62000c5c565b60208a01519098506001600160401b038082111562000d57578586fd5b62000d658c838d0162000c69565b985060408b015191508082111562000d7b578586fd5b62000d898c838d0162000c69565b975060608b015191508082111562000d9f578586fd5b62000dad8c838d0162000b76565b965060808b015191508082111562000dc3578586fd5b5062000dd28b828c0162000bf7565b94505060a0890151925060c0890151915060e089015190509295985092959890939650565b60006020828403121562000e09578081fd5b815160ff8116811462000965578182fd5b60006060820185835260206060818501528186518084526080860191508288019350845b8181101562000e665762000e53855162000f12565b8352938301939183019160010162000e3e565b505084810360408601528551808252908201925081860190845b8181101562000ea85762000e95835162000f12565b8552938301939183019160010162000e80565b509298975050505050505050565b602081016003831062000ec557fe5b91905290565b6040518181016001600160401b038111828210171562000eea57600080fd5b604052919050565b60006001600160401b0382111562000f08578081fd5b5060209081020190565b6001600160a01b031690565b6001600160a01b038116811462000abf57600080fd5b60805160a05160c05160601c60e051610100516101205160601c6101405160601c6101605160601c6101805160601c6101a05160601c6101c05160601c6101e05160601c6102005160601c610220516102405161026051610280516102a0516102c0516102e05161030051610320516103405161036051610380516103a0516103c0516103e05161040051610420516145576200110b60003980611ce952806126b6525080611ca65280612655525080611c6352806125f4525080611c205280612593525080611bdd5280612532525080611b9a52806124d1525080611b575280612470525080611b14528061240f52508061207c52806120b052806120ec52508061137852806118dc525080611335528061187b5250806112f2528061181a5250806112af52806117b952508061126c528061175852508061122952806116f75250806111e6528061169652508061119552806116355250806118a1528061267b525080611840528061261a5250806117df52806125b952508061177e528061255852508061171d52806124f75250806116bc528061249652508061165b52806124355250806115fa52806123d45250806110cf525080610dcf525080611117525080611a1c5250806119f852506145576000f3fe608060405234801561001057600080fd5b50600436106101b95760003560e01c806387ec6817116100f9578063aaabadc511610097578063d5c096c411610071578063d5c096c414610366578063d73dd62314610379578063dd62ed3e1461038c578063f89f27ed1461039f576101b9565b8063aaabadc51461034e578063c0ff1a1514610356578063d4cadf681461035e576101b9565b80639b02cdde116100d35780639b02cdde146103095780639d2c110c14610311578063a50ff09714610324578063a9059cbb1461033b576101b9565b806387ec6817146102d95780638d928af8146102ec57806395d89b4114610301576101b9565b806338fff2d011610166578063679aefce11610140578063679aefce1461028a57806370a082311461029257806374f3b009146102a557806377c91f70146102c6576101b9565b806338fff2d01461024e5780636028bfd4146102565780636618846314610277576101b9565b806323b872dd1161019757806323b872dd14610211578063313ce5671461022457806334e1990714610239576101b9565b806306fdde03146101be578063095ea7b3146101dc57806318160ddd146101fc575b600080fd5b6101c66103b4565b6040516101d39190614412565b60405180910390f35b6101ef6101ea366004613e71565b610469565b6040516101d391906143bb565b610204610480565b6040516101d391906143de565b6101ef61021f366004613e31565b610486565b61022c610527565b6040516101d3919061449c565b61024c6102473660046142ca565b61052c565b005b61020461059d565b610269610264366004613fa0565b6105ac565b6040516101d3929190614483565b6101ef610285366004613e71565b6105d5565b61020461062f565b6102046102a0366004613ddd565b61065a565b6102b86102b3366004613fa0565b610679565b6040516101d3929190614396565b61024c6102d4366004613f68565b61071b565b6102696102e7366004613fa0565b61072f565b6102f4610748565b6040516101d391906143fe565b6101c6610752565b6102046107d1565b61020461031f3660046141ce565b6107d7565b61032c6108be565b6040516101d3939291906143c6565b6101ef610349366004613e71565b6108e7565b6102f46108f4565b6102046108fe565b6102046109e0565b6102b8610374366004613fa0565b6109e6565b6101ef610387366004613e71565b610b09565b61020461039a366004613df9565b610b3f565b6103a7610b6a565b6040516101d39190614383565b60038054604080516020601f60027fffffffffffffffffffffffffffffffffffffffffffffffffffffffffffffffff61010060018816150201909516949094049384018190048102820181019092528281526060939092909183018282801561045e5780601f106104335761010080835404028352916020019161045e565b820191906000526020600020905b81548152906001019060200180831161044157829003601f168201915b505050505090505b90565b6000610476338484610c22565b5060015b92915050565b60025490565b6001600160a01b038316600081815260016020908152604080832033808552925282205491926104c49114806104bc5750838210155b6101fb610c8a565b6104cf858585610c98565b336001600160a01b0386161480159061050857507fffffffffffffffffffffffffffffffffffffffffffffffffffffffffffffffff8114155b1561051a5761051a8533858403610c22565b60019150505b9392505050565b601290565b610534610d67565b61054764e8d4a5100082101560cb610c8a565b61055d67016345785d8a000082111560ca610c8a565b60068190556040517f9cabc14d438714dbcd9292df9b3f89c42f98acd93a675ad72cd6033777e9b8e7906105929083906143de565b60405180910390a150565b60006105a7610dcd565b905090565b600060606105c589898989898989610df1610eb6610f1c565b9150915097509795505050505050565b3360009081526001602090815260408083206001600160a01b03861684529091528120548083106106115761060c33856000610c22565b610625565b61062533856106208487610c0c565b610c22565b5060019392505050565b60006105a761063c610480565b6106546106476108fe565b61064f6110cd565b6110f1565b90610ba1565b6001600160a01b0381166000908152602081905260409020545b919050565b606080886106a3610688611115565b6001600160a01b0316336001600160a01b03161460cd610c8a565b6106b86106ae610dcd565b8214610258610c8a565b60606106c2611139565b90506106ce88826113b6565b60006060806106e28e8e8e8e8e8e8e610df1565b9250925092506106f28d84611417565b6106fc8285610eb6565b6107068185610eb6565b909550935050505b5097509795505050505050565b610723610d67565b61072c816114aa565b50565b600060606105c58989898989898961151b611595610f1c565b60006105a7611115565b60048054604080516020601f60027fffffffffffffffffffffffffffffffffffffffffffffffffffffffffffffffff61010060018816150201909516949094049384018190048102820181019092528281526060939092909183018282801561045e5780601f106104335761010080835404028352916020019161045e565b60075490565b6000806107e785602001516115f6565b905060006107f886604001516115f6565b905060008651600181111561080957fe5b141561086f5761081c866060015161190b565b606087015261082b858361192f565b9450610837848261192f565b935061084786606001518361192f565b6060870152600061085987878761193b565b90506108658183611976565b9350505050610520565b610879858361192f565b9450610885848261192f565b935061089586606001518261192f565b606087015260006108a7878787611982565b90506108b381846119b5565b9050610865816119c1565b60008060006108cb6119d8565b156108d46119f6565b6108dc611a1a565b925092509250909192565b6000610476338484610c98565b60006105a7611a3e565b6000606061090a611115565b6001600160a01b031663f94d4668610920610dcd565b6040518263ffffffff1660e01b815260040161093c91906143de565b60006040518083038186803b15801561095457600080fd5b505afa158015610968573d6000803e3d6000fd5b505050506040513d6000823e601f3d9081017fffffffffffffffffffffffffffffffffffffffffffffffffffffffffffffffe01682016040526109ae9190810190613e9c565b509150506109c3816109be611139565b6113b6565b60606109cd611ab8565b90506109d98183611d15565b9250505090565b60065490565b606080886109f5610688611115565b610a006106ae610dcd565b6060610a0a611139565b9050610a14610480565b610aba5760006060610a288d8d8d8a611d7e565b91509150610a3d620f424083101560cc610c8a565b610a4b6000620f4240611e19565b610a5a8b620f42408403611e19565b610a648184611595565b80610a6d6110cd565b67ffffffffffffffff81118015610a8357600080fd5b50604051908082528060200260200182016040528015610aad578160200160208202803683370190505b509550955050505061070e565b610ac488826113b6565b6000606080610ad88e8e8e8e8e8e8e61151b565b925092509250610ae88c84611e19565b610af28285611595565b610afc8185610eb6565b909550935061070e915050565b3360008181526001602090815260408083206001600160a01b038716845290915281205490916104769185906106209086610b8f565b6001600160a01b03918216600090815260016020908152604080832093909416825291909152205490565b60606105a7611ab8565b80610b7e81611eaf565b5050565b610b7e8183146067610c8a565b60008282016105208482101583610c8a565b6000610bb08215156004610c8a565b670de0b6b3a76400008302610be2841580610bdb5750670de0b6b3a7640000858381610bd857fe5b04145b6006610c8a565b600283048101610bf6828210156006610c8a565b6000848281610c0157fe5b049695505050505050565b6000610c1c838311156001610c8a565b50900390565b6001600160a01b0380841660008181526001602090815260408083209487168084529490915290819020849055517f8c5be1e5ebec7d5bd14f71427d1e84f3dd0314c0f7b2291e5b200ac8c7c3b92590610c7d9085906143de565b60405180910390a3505050565b81610b7e57610b7e81611f28565b6001600160a01b038316600090815260208190526040902054610cc0828210156101fa610c8a565b610cd76001600160a01b03841615156101fd610c8a565b6001600160a01b03808516600090815260208190526040808220858503905591851681522054610d079083610b8f565b6001600160a01b0380851660008181526020819052604090819020939093559151908616907fddf252ad1be2c89b69c2b068fc378daa952ba7f163c4a11628f55a4df523b3ef90610d599086906143de565b60405180910390a350505050565b6000306000357fffffffff0000000000000000000000000000000000000000000000000000000016604051602001610da092919061431c565b60405160208183030381529060405280519060200120905061072c610dc58233611f95565b6101f5610c8a565b7f000000000000000000000000000000000000000000000000000000000000000090565b60006060806060610e00611ab8565b9050610e0a6119d8565b15610e3e576000610e1b828a611d15565b9050610e2c8983600754848b61201c565b9250610e38898461212c565b50610e8a565b610e466110cd565b67ffffffffffffffff81118015610e5c57600080fd5b50604051908082528060200260200182016040528015610e86578160200160208202803683370190505b5091505b610e95888287612196565b9094509250610ea5888483612221565b600755509750975097945050505050565b60005b610ec16110cd565b811015610f1757610ef8838281518110610ed757fe5b6020026020010151838381518110610eeb57fe5b6020026020010151612237565b838281518110610f0457fe5b6020908102919091010152600101610eb9565b505050565b6000606033301461100f576000306001600160a01b0316600036604051610f44929190614373565b6000604051808303816000865af19150503d8060008114610f81576040519150601f19603f3d011682016040523d82523d6000602084013e610f86565b606091505b505090508060008114610f9557fe5b60046000803e6000517fffffffff00000000000000000000000000000000000000000000000000000000167f43adbafb000000000000000000000000000000000000000000000000000000008114610ff1573d6000803e3d6000fd5b506020600460003e604060205260243d03602460403e601c3d016000f35b6060611019611139565b905061102589826113b6565b6000606061103c8e8e8e8e8e8e8e8e63ffffffff16565b509150915061104f81848863ffffffff16565b80517fffffffffffffffffffffffffffffffffffffffffffffffffffffffffffffffe082018390526343adbafb7fffffffffffffffffffffffffffffffffffffffffffffffffffffffffffffffc08301526020027fffffffffffffffffffffffffffffffffffffffffffffffffffffffffffffffdc82016044820181fd5b7f000000000000000000000000000000000000000000000000000000000000000090565b600082820261052084158061110e57508385838161110b57fe5b04145b6003610c8a565b7f000000000000000000000000000000000000000000000000000000000000000090565b606060006111456110cd565b905060608167ffffffffffffffff8111801561116057600080fd5b5060405190808252806020026020018201604052801561118a578160200160208202803683370190505b50905081156111d2577f0000000000000000000000000000000000000000000000000000000000000000816000815181106111c157fe5b6020026020010181815250506111db565b91506104669050565b60018211156111d2577f00000000000000000000000000000000000000000000000000000000000000008160018151811061121257fe5b60200260200101818152505060028211156111d2577f00000000000000000000000000000000000000000000000000000000000000008160028151811061125557fe5b60200260200101818152505060038211156111d2577f00000000000000000000000000000000000000000000000000000000000000008160038151811061129857fe5b60200260200101818152505060048211156111d2577f0000000000000000000000000000000000000000000000000000000000000000816004815181106112db57fe5b60200260200101818152505060058211156111d2577f00000000000000000000000000000000000000000000000000000000000000008160058151811061131e57fe5b60200260200101818152505060068211156111d2577f00000000000000000000000000000000000000000000000000000000000000008160068151811061136157fe5b60200260200101818152505060078211156111d2577f0000000000000000000000000000000000000000000000000000000000000000816007815181106113a457fe5b60200260200101818152505091505090565b60005b6113c16110cd565b811015610f17576113f88382815181106113d757fe5b60200260200101518383815181106113eb57fe5b60200260200101516110f1565b83828151811061140457fe5b60209081029190910101526001016113b9565b6001600160a01b03821660009081526020819052604090205461143f828210156101fa610c8a565b6001600160a01b038316600090815260208190526040902082820390556002546114699083610c0c565b6002556040516000906001600160a01b038516907fddf252ad1be2c89b69c2b068fc378daa952ba7f163c4a11628f55a4df523b3ef90610c7d9086906143de565b6114bf6114b56119f6565b42106101f7610c8a565b600580547fffffffffffffffffffffffffffffffffffffffffffffffffffffffffffffff00168215151790556040517fa5bc6afced71829f82830a97f26eb92aea46d29443b5acb7d47c4a52b1e27341906105929083906143bb565b6000606080611528612257565b6060611532611ab8565b90506000611540828a611d15565b905060606115538a84600754858c61201c565b905061155f8a8261212c565b6000606061156e8c868b61226c565b9150915061157d8c82876122c5565b600755909e909d50909b509950505050505050505050565b60005b6115a06110cd565b811015610f17576115d78382815181106115b657fe5b60200260200101518383815181106115ca57fe5b602002602001015161233b565b8382815181106115e357fe5b6020908102919091010152600101611598565b60007f00000000000000000000000000000000000000000000000000000000000000006001600160a01b0316826001600160a01b0316141561165957507f0000000000000000000000000000000000000000000000000000000000000000610674565b7f00000000000000000000000000000000000000000000000000000000000000006001600160a01b0316826001600160a01b031614156116ba57507f0000000000000000000000000000000000000000000000000000000000000000610674565b7f00000000000000000000000000000000000000000000000000000000000000006001600160a01b0316826001600160a01b0316141561171b57507f0000000000000000000000000000000000000000000000000000000000000000610674565b7f00000000000000000000000000000000000000000000000000000000000000006001600160a01b0316826001600160a01b0316141561177c57507f0000000000000000000000000000000000000000000000000000000000000000610674565b7f00000000000000000000000000000000000000000000000000000000000000006001600160a01b0316826001600160a01b031614156117dd57507f0000000000000000000000000000000000000000000000000000000000000000610674565b7f00000000000000000000000000000000000000000000000000000000000000006001600160a01b0316826001600160a01b0316141561183e57507f0000000000000000000000000000000000000000000000000000000000000000610674565b7f00000000000000000000000000000000000000000000000000000000000000006001600160a01b0316826001600160a01b0316141561189f57507f0000000000000000000000000000000000000000000000000000000000000000610674565b7f00000000000000000000000000000000000000000000000000000000000000006001600160a01b0316826001600160a01b0316141561190057507f0000000000000000000000000000000000000000000000000000000000000000610674565b61067461026a611f28565b6000806119236006548461236e90919063ffffffff16565b90506105208382610c0c565b600061052083836110f1565b6000611945612257565b61196e8361195686602001516123d0565b8461196488604001516123d0565b88606001516126da565b949350505050565b60006105208383612237565b600061198c612257565b61196e8361199d86602001516123d0565b846119ab88604001516123d0565b8860600151612755565b6000610520838361233b565b600061047a6119d16006546127cb565b83906127f1565b60006119e2611a1a565b421015806105a757505060055460ff161590565b7f000000000000000000000000000000000000000000000000000000000000000090565b7f000000000000000000000000000000000000000000000000000000000000000090565b6000611a48611115565b6001600160a01b031663aaabadc56040518163ffffffff1660e01b815260040160206040518083038186803b158015611a8057600080fd5b505afa158015611a94573d6000803e3d6000fd5b505050506040513d601f19601f820116820180604052508101906105a7919061409d565b60606000611ac46110cd565b905060608167ffffffffffffffff81118015611adf57600080fd5b50604051908082528060200260200182016040528015611b09578160200160208202803683370190505b50905081156111d2577f000000000000000000000000000000000000000000000000000000000000000081600081518110611b4057fe5b60200260200101818152505060018211156111d2577f000000000000000000000000000000000000000000000000000000000000000081600181518110611b8357fe5b60200260200101818152505060028211156111d2577f000000000000000000000000000000000000000000000000000000000000000081600281518110611bc657fe5b60200260200101818152505060038211156111d2577f000000000000000000000000000000000000000000000000000000000000000081600381518110611c0957fe5b60200260200101818152505060048211156111d2577f000000000000000000000000000000000000000000000000000000000000000081600481518110611c4c57fe5b60200260200101818152505060058211156111d2577f000000000000000000000000000000000000000000000000000000000000000081600581518110611c8f57fe5b60200260200101818152505060068211156111d2577f000000000000000000000000000000000000000000000000000000000000000081600681518110611cd257fe5b60200260200101818152505060078211156111d2577f0000000000000000000000000000000000000000000000000000000000000000816007815181106113a457fe5b670de0b6b3a764000060005b8351811015611d7757611d6d611d66858381518110611d3c57fe5b6020026020010151858481518110611d5057fe5b602002602001015161283390919063ffffffff16565b8390612882565b9150600101611d21565b5092915050565b60006060611d8a612257565b6000611d95846128ae565b9050611db06000826002811115611da857fe5b1460ce610c8a565b6060611dbb856128c4565b9050611dcf611dc86110cd565b8251610b82565b611ddb816109be611139565b6060611de5611ab8565b90506000611df38284611d15565b90506000611e038261064f6110cd565b6007929092555099919850909650505050505050565b6001600160a01b038216600090815260208190526040902054611e3c9082610b8f565b6001600160a01b038316600090815260208190526040902055600254611e629082610b8f565b6002556040516001600160a01b038316906000907fddf252ad1be2c89b69c2b068fc378daa952ba7f163c4a11628f55a4df523b3ef90611ea39085906143de565b60405180910390a35050565b600281511015611ebe5761072c565b600081600081518110611ecd57fe5b602002602001015190506000600190505b8251811015610f17576000838281518110611ef557fe5b60200260200101519050611f1e816001600160a01b0316846001600160a01b0316106065610c8a565b9150600101611ede565b7f08c379a0000000000000000000000000000000000000000000000000000000006000908152602060045260076024526642414c23000030600a808404818106603090810160081b95839006959095019082900491820690940160101b939093010160c81b604452606490fd5b6000611f9f611a3e565b6001600160a01b03166391d1485484846040518363ffffffff1660e01b8152600401611fcc9291906143e7565b60206040518083038186803b158015611fe457600080fd5b505afa158015611ff8573d6000803e3d6000fd5b505050506040513d601f19601f820116820180604052508101906105209190613f84565b6060806120276110cd565b67ffffffffffffffff8111801561203d57600080fd5b50604051908082528060200260200182016040528015612067578160200160208202803683370190505b50905082612076579050612123565b6120e9877f0000000000000000000000000000000000000000000000000000000000000000815181106120a557fe5b6020026020010151877f0000000000000000000000000000000000000000000000000000000000000000815181106120d957fe5b60200260200101518787876128da565b817f00000000000000000000000000000000000000000000000000000000000000008151811061211557fe5b602090810291909101015290505b95945050505050565b60005b6121376110cd565b811015610f175761217782828151811061214d57fe5b602002602001015184838151811061216157fe5b6020026020010151610c0c90919063ffffffff16565b83828151811061218357fe5b602090810291909101015260010161212f565b6000606060006121a5846128ae565b905060008160028111156121b557fe5b14156121d0576121c6868686612952565b9250925050612219565b60018160028111156121de57fe5b14156121ee576121c68685612a30565b60028160028111156121fc57fe5b141561220d576121c6868686612a62565b61221760d2611f28565b505b935093915050565b600061222d848461212c565b61196e8285611d15565b60006122468215156004610c8a565b81838161224f57fe5b049392505050565b61226a6122626119d8565b6101f6610c8a565b565b60006060600061227b846128ae565b9050600181600281111561228b57fe5b141561229c576121c6868686612ad2565b60028160028111156122aa57fe5b14156122bb576121c6868686612b2c565b61221760d1611f28565b6000805b6122d16110cd565b811015612330576123118482815181106122e757fe5b60200260200101518683815181106122fb57fe5b6020026020010151610b8f90919063ffffffff16565b85828151811061231d57fe5b60209081029190910101526001016122c9565b5061196e8285611d15565b600061234a8215156004610c8a565b826123575750600061047a565b81600184038161236357fe5b04600101905061047a565b600082820261238884158061110e57508385838161110b57fe5b8061239757600091505061047a565b670de0b6b3a76400007fffffffffffffffffffffffffffffffffffffffffffffffffffffffffffffffff82015b0460010191505061047a565b60007f00000000000000000000000000000000000000000000000000000000000000006001600160a01b0316826001600160a01b0316141561243357507f0000000000000000000000000000000000000000000000000000000000000000610674565b7f00000000000000000000000000000000000000000000000000000000000000006001600160a01b0316826001600160a01b0316141561249457507f0000000000000000000000000000000000000000000000000000000000000000610674565b7f00000000000000000000000000000000000000000000000000000000000000006001600160a01b0316826001600160a01b031614156124f557507f0000000000000000000000000000000000000000000000000000000000000000610674565b7f00000000000000000000000000000000000000000000000000000000000000006001600160a01b0316826001600160a01b0316141561255657507f0000000000000000000000000000000000000000000000000000000000000000610674565b7f00000000000000000000000000000000000000000000000000000000000000006001600160a01b0316826001600160a01b031614156125b757507f0000000000000000000000000000000000000000000000000000000000000000610674565b7f00000000000000000000000000000000000000000000000000000000000000006001600160a01b0316826001600160a01b0316141561261857507f0000000000000000000000000000000000000000000000000000000000000000610674565b7f00000000000000000000000000000000000000000000000000000000000000006001600160a01b0316826001600160a01b0316141561267957507f0000000000000000000000000000000000000000000000000000000000000000610674565b7f00000000000000000000000000000000000000000000000000000000000000006001600160a01b0316826001600160a01b0316141561190057507f0000000000000000000000000000000000000000000000000000000000000000610674565b60006126fc6126f187670429d069189e0000612bd4565b831115610190610c8a565b60006127088784610b8f565b9050600061271688836127f1565b905060006127248887612c18565b905060006127328383612c60565b9050612747612740826127cb565b8990612882565b9a9950505050505050505050565b600061277761276c85670429d069189e0000612bd4565b831115610191610c8a565b600061278d6127868685610c0c565b86906127f1565b9050600061279b85886127f1565b905060006127a98383612c60565b905060006127bf82670de0b6b3a7640000610c0c565b90506127478a8261236e565b6000670de0b6b3a764000082106127e357600061047a565b50670de0b6b3a76400000390565b60006128008215156004610c8a565b8261280d5750600061047a565b670de0b6b3a76400008381029061282790858381610bd857fe5b8260018203816123c457fe5b6000806128408484612c8c565b9050600061285a6128538361271061236e565b6001610b8f565b90508082101561286f5760009250505061047a565b6128798282610c0c565b9250505061047a565b600082820261289c84158061110e57508385838161110b57fe5b670de0b6b3a764000090049392505050565b60008180602001905181019061047a91906140b9565b606081806020019051810190610520919061417f565b60008383116128eb57506000612123565b60006128f785856127f1565b9050600061290d670de0b6b3a764000088612c18565b9050612921826709b6e64a8ec60000612dd0565b9150600061292f8383612c60565b9050600061294661293f836127cb565b8b90612882565b90506127478187612882565b6000606061295e612257565b60008061296a85612de7565b915091506129826129796110cd565b82106064610c8a565b606061298c6110cd565b67ffffffffffffffff811180156129a257600080fd5b506040519080825280602002602001820160405280156129cc578160200160208202803683370190505b509050612a0b8883815181106129de57fe5b60200260200101518884815181106129f257fe5b602002602001015185612a03610480565b600654612e09565b818381518110612a1757fe5b6020908102919091010152919791965090945050505050565b600060606000612a3f84612ec6565b90506060612a558683612a50610480565b612edc565b9196919550909350505050565b60006060612a6e612257565b60606000612a7b85612f8e565b91509150612a918251612a8c6110cd565b610b82565b612a9d826109be611139565b6000612ab5888885612aad610480565b600654612fa6565b9050612ac58282111560cf610c8a565b9791965090945050505050565b60006060806000612ae285612f8e565b91509150612af8612af16110cd565b8351610b82565b612b04826109be611139565b6000612b1c888885612b14610480565b6006546131bb565b9050612ac58282101560d0610c8a565b60006060600080612b3c85612de7565b91509150612b4b6129796110cd565b6060612b556110cd565b67ffffffffffffffff81118015612b6b57600080fd5b50604051908082528060200260200182016040528015612b95578160200160208202803683370190505b509050612a0b888381518110612ba757fe5b6020026020010151888481518110612bbb57fe5b602002602001015185612bcc610480565b6006546133b6565b6000828202612bee84158061110e57508385838161110b57fe5b6706f05b59d3b200008101612c07828210156003610c8a565b6000670de0b6b3a764000082610c01565b6000612c278215156004610c8a565b82612c345750600061047a565b670de0b6b3a764000083810290612c4e90858381610bd857fe5b828181612c5757fe5b0491505061047a565b600080612c6d8484612c8c565b90506000612c806128538361271061236e565b90506121238282610b8f565b600081612ca25750670de0b6b3a764000061047a565b82612caf5750600061047a565b612cdc7f800000000000000000000000000000000000000000000000000000000000000084106007610c8a565b612d01770bce5086492111aea88f4bb1ca6bcf584181ea8059f7653283106008610c8a565b82826000670c7d713b49da000083138015612d235750670f43fc2c04ee000083125b15612d5a576000612d3384613458565b9050670de0b6b3a764000080820784020583670de0b6b3a764000083050201915050612d68565b81612d648461351e565b0290505b612db27fffffffffffffffffffffffffffffffffe0d1b038165edf2c9c579db9846000008212801590612dab57506f62541066c2001c07b75885b199d400008213155b6009610c8a565b670de0b6b3a76400009005612dc6816138c4565b9695505050505050565b600081831015612de05781610520565b5090919050565b60008082806020019051810190612dfe9190614149565b909590945092505050565b600080612e2084612e1a8188610c0c565b906127f1565b9050612e396709b6e64a8ec60000821015610192610c8a565b6000612e57612e50670de0b6b3a764000089612c18565b8390612c60565b90506000612e6e612e67836127cb565b8a90612882565b90506000612e7b896127cb565b90506000612e89838361236e565b90506000612e978483610c0c565b9050612eb6612eaf612ea88a6127cb565b8490612882565b8290610b8f565b9c9b505050505050505050505050565b600081806020019051810190610520919061411c565b60606000612eea8484612c18565b90506060855167ffffffffffffffff81118015612f0657600080fd5b50604051908082528060200260200182016040528015612f30578160200160208202803683370190505b50905060005b8651811015612f8457612f6583888381518110612f4f57fe5b602002602001015161288290919063ffffffff16565b828281518110612f7157fe5b6020908102919091010152600101612f36565b5095945050505050565b6060600082806020019051810190612dfe91906140d5565b60006060845167ffffffffffffffff81118015612fc257600080fd5b50604051908082528060200260200182016040528015612fec578160200160208202803683370190505b5090506000805b885181101561309b5761303689828151811061300b57fe5b6020026020010151612e1a89848151811061302257fe5b60200260200101518c858151811061216157fe5b83828151811061304257fe5b60200260200101818152505061309161308a89838151811061306057fe5b602002602001015185848151811061307457fe5b602002602001015161236e90919063ffffffff16565b8390610b8f565b9150600101612ff3565b50670de0b6b3a764000060005b895181101561319a5760008482815181106130bf57fe5b60200260200101518411156131165760006130e86130dc866127cb565b8d8581518110612f4f57fe5b905060006130fc828c868151811061216157fe5b905061310d61308a6119d18b6127cb565b9250505061312d565b88828151811061312257fe5b602002602001015190505b600061315c8c848151811061313e57fe5b6020026020010151613156848f878151811061216157fe5b90612c18565b905061318e6131878c858151811061317057fe5b60200260200101518361283390919063ffffffff16565b8590612882565b935050506001016130a8565b506131ae6131a7826127cb565b879061236e565b9998505050505050505050565b60006060845167ffffffffffffffff811180156131d757600080fd5b50604051908082528060200260200182016040528015613201578160200160208202803683370190505b5090506000805b88518110156132935761324b89828151811061322057fe5b602002602001015161315689848151811061323757fe5b60200260200101518c85815181106122fb57fe5b83828151811061325757fe5b60200260200101818152505061328961308a89838151811061327557fe5b6020026020010151858481518110612f4f57fe5b9150600101613208565b50670de0b6b3a764000060005b8951811015613374576000838583815181106132b857fe5b602002602001015111156133145760006132dd6130dc86670de0b6b3a7640000610c0c565b905060006132f1828c868151811061216157fe5b905061330b61308a611d66670de0b6b3a76400008c610c0c565b9250505061332b565b88828151811061332057fe5b602002602001015190505b60006133548c848151811061333c57fe5b6020026020010151613156848f87815181106122fb57fe5b90506133686131878c858151811061317057fe5b935050506001016132a0565b50670de0b6b3a764000081106133aa576133a061339982670de0b6b3a7640000610c0c565b8790612882565b9350505050612123565b60009350505050612123565b6000806133c784612e1a8188610b8f565b90506133e06729a2241af62c0000821115610193610c8a565b60006133f7612e50670de0b6b3a7640000896127f1565b9050600061341761341083670de0b6b3a7640000610c0c565b8a9061236e565b90506000613424896127cb565b90506000613432838361236e565b905060006134408483610c0c565b9050612eb6612eaf6134518a6127cb565b84906127f1565b670de0b6b3a7640000026000806ec097ce7bc90715b34b9f1000000000808401907fffffffffffffffffffffffffffffffffff3f68318436f8ea4cb460f000000000850102816134a457fe5b60036ec097ce7bc90715b34b9f100000000092909105808002839005808202849005928305909101600592820284900592830501600792820284900592830501600992820284900592830501600b92820284900592830501600d92820284900592830501600f929091029290920505016002029392505050565b600061352e600083136064610c8a565b670de0b6b3a76400008212156135695761355f826ec097ce7bc90715b34b9f10000000008161355957fe5b0561351e565b6000039050610674565b60007e1600ef3172e58d2e933ec884fde10064c63b5372d805e203c000000000000083126135ba576806f05b59d3b200000001770195e54c5dd42177f53a27172fa9ec630262827000000000830592505b73011798004d755d3c8bc8e03204cf44619e00000083126135f2576803782dace9d9000000016b1425982cf597cd205cef7380830592505b606492830292026e01855144814a7ff805980ff0084000831261363a5768ad78ebc5ac62000000016e01855144814a7ff805980ff008400068056bc75e2d6310000084020592505b6b02df0ab5a80a22c61ab5a7008312613675576856bc75e2d631000000016b02df0ab5a80a22c61ab5a70068056bc75e2d6310000084020592505b693f1fce3da636ea5cf85083126136ac57682b5e3af16b1880000001693f1fce3da636ea5cf85068056bc75e2d6310000084020592505b690127fa27722cc06cc5e283126136e3576815af1d78b58c40000001690127fa27722cc06cc5e268056bc75e2d6310000084020592505b68280e60114edb805d03831261371857680ad78ebc5ac62000000168280e60114edb805d0368056bc75e2d6310000084020592505b680ebc5fb41746121110831261374357680ebc5fb4174612111068056bc75e2d631000009384020592015b6808f00f760a4b2db55d8312613778576802b5e3af16b1880000016808f00f760a4b2db55d68056bc75e2d6310000084020592505b6806f5f177578893793783126137ad5768015af1d78b58c40000016806f5f177578893793768056bc75e2d6310000084020592505b6806248f33704b28660383126137e15767ad78ebc5ac620000016806248f33704b28660368056bc75e2d6310000084020592505b6805c548670b9510e7ac8312613815576756bc75e2d6310000016805c548670b9510e7ac68056bc75e2d6310000084020592505b600068056bc75e2d63100000840168056bc75e2d63100000850368056bc75e2d63100000028161384157fe5b059050600768056bc75e2d631000008280028190058084028290058082028390058083028490059485056003909205860160059091050101929091818302059050600981058301925068056bc75e2d631000008282028161389e57fe5b059050600b8105830192506064836002028601816138b857fe5b05979650505050505050565b60006139097ffffffffffffffffffffffffffffffffffffffffffffffffdc0d0570925a462d883121580156139025750680715d69fa8c011c3fd8313155b6064610c8a565b600082121561393d5761391e826000036138c4565b6ec097ce7bc90715b34b9f10000000008161393557fe5b059050610674565b68056bc75e2d6310000060016806f05b59d3b2000000841261399957507ffffffffffffffffffffffffffffffffffffffffffffffff90fa4a62c4e00000090920191770195e54c5dd42177f53a27172fa9ec6302628270000000005b6803782dace9d900000084126139dd577ffffffffffffffffffffffffffffffffffffffffffffffffc87d2531627000000909301926b1425982cf597cd205cef7380025b60648402935068ad78ebc5ac620000008412613a215768056bc75e2d631000006e01855144814a7ff805980ff0084000830205915068ad78ebc5ac62000000840393505b6856bc75e2d6310000008412613a5c5768056bc75e2d631000006b02df0ab5a80a22c61ab5a70083020591506856bc75e2d631000000840393505b682b5e3af16b188000008412613a955768056bc75e2d63100000693f1fce3da636ea5cf8508302059150682b5e3af16b18800000840393505b6815af1d78b58c4000008412613ace5768056bc75e2d63100000690127fa27722cc06cc5e283020591506815af1d78b58c400000840393505b680ad78ebc5ac62000008412613b065768056bc75e2d6310000068280e60114edb805d038302059150680ad78ebc5ac6200000840393505b68056bc75e2d631000008412613b3e5768056bc75e2d63100000680ebc5fb41746121110830205915068056bc75e2d63100000840393505b6802b5e3af16b18800008412613b765768056bc75e2d631000006808f00f760a4b2db55d83020591506802b5e3af16b1880000840393505b68015af1d78b58c400008412613bae5768056bc75e2d631000006806f5f1775788937937830205915068015af1d78b58c40000840393505b68056bc75e2d631000008481019085906002828002050591820191905068056bc75e2d631000006003878302050591820191905068056bc75e2d631000006004878302050591820191905068056bc75e2d631000006005878302050591820191905068056bc75e2d631000006006878302050591820191905068056bc75e2d631000006007878302050591820191905068056bc75e2d631000006008878302050591820191905068056bc75e2d631000006009878302050591820191905068056bc75e2d63100000600a878302050591820191905068056bc75e2d63100000600b878302050591820191905068056bc75e2d63100000600c8783020505918201919050606468056bc75e2d63100000858402058402059695505050505050565b803561047a816144f1565b600082601f830112613ce9578081fd5b8151613cfc613cf7826144d1565b6144aa565b818152915060208083019084810181840286018201871015613d1d57600080fd5b60005b84811015613d3c57815184529282019290820190600101613d20565b505050505092915050565b600082601f830112613d57578081fd5b813567ffffffffffffffff811115613d6d578182fd5b613d9e60207fffffffffffffffffffffffffffffffffffffffffffffffffffffffffffffffe0601f840116016144aa565b9150808252836020828501011115613db557600080fd5b8060208401602084013760009082016020015292915050565b80356002811061047a57600080fd5b600060208284031215613dee578081fd5b8135610520816144f1565b60008060408385031215613e0b578081fd5b8235613e16816144f1565b91506020830135613e26816144f1565b809150509250929050565b600080600060608486031215613e45578081fd5b8335613e50816144f1565b92506020840135613e60816144f1565b929592945050506040919091013590565b60008060408385031215613e83578182fd5b8235613e8e816144f1565b946020939093013593505050565b600080600060608486031215613eb0578283fd5b835167ffffffffffffffff80821115613ec7578485fd5b818601915086601f830112613eda578485fd5b8151613ee8613cf7826144d1565b80828252602080830192508086018b828387028901011115613f0857898afd5b8996505b84871015613f33578051613f1f816144f1565b845260019690960195928101928101613f0c565b508901519097509350505080821115613f4a578384fd5b50613f5786828701613cd9565b925050604084015190509250925092565b600060208284031215613f79578081fd5b813561052081614506565b600060208284031215613f95578081fd5b815161052081614506565b600080600080600080600060e0888a031215613fba578485fd5b87359650602080890135613fcd816144f1565b96506040890135613fdd816144f1565b9550606089013567ffffffffffffffff80821115613ff9578586fd5b818b0191508b601f83011261400c578586fd5b813561401a613cf7826144d1565b8082825285820191508585018f87888602880101111561403857898afd5b8995505b8386101561405a57803583526001959095019491860191860161403c565b509850505060808b0135955060a08b0135945060c08b0135925080831115614080578384fd5b505061408e8a828b01613d47565b91505092959891949750929550565b6000602082840312156140ae578081fd5b8151610520816144f1565b6000602082840312156140ca578081fd5b815161052081614514565b6000806000606084860312156140e9578081fd5b83516140f481614514565b602085015190935067ffffffffffffffff811115614110578182fd5b613f5786828701613cd9565b6000806040838503121561412e578182fd5b825161413981614514565b6020939093015192949293505050565b60008060006060848603121561415d578081fd5b835161416881614514565b602085015160409095015190969495509392505050565b60008060408385031215614191578182fd5b825161419c81614514565b602084015190925067ffffffffffffffff8111156141b8578182fd5b6141c485828601613cd9565b9150509250929050565b6000806000606084860312156141e2578081fd5b833567ffffffffffffffff808211156141f9578283fd5b818601915061012080838903121561420f578384fd5b614218816144aa565b90506142248884613dce565b81526142338860208501613cce565b60208201526142458860408501613cce565b6040820152606083013560608201526080830135608082015260a083013560a08201526142758860c08501613cce565b60c08201526142878860e08501613cce565b60e0820152610100808401358381111561429f578586fd5b6142ab8a828701613d47565b9183019190915250976020870135975060409096013595945050505050565b6000602082840312156142db578081fd5b5035919050565b6000815180845260208085019450808401835b83811015614311578151875295820195908201906001016142f5565b509495945050505050565b60609290921b7fffffffffffffffffffffffffffffffffffffffff0000000000000000000000001682527fffffffff0000000000000000000000000000000000000000000000000000000016601482015260180190565b6000828483379101908152919050565b60006020825261052060208301846142e2565b6000604082526143a960408301856142e2565b828103602084015261212381856142e2565b901515815260200190565b92151583526020830191909152604082015260600190565b90815260200190565b9182526001600160a01b0316602082015260400190565b6001600160a01b0391909116815260200190565b6000602080835283518082850152825b8181101561443e57858101830151858201604001528201614422565b8181111561444f5783604083870101525b50601f017fffffffffffffffffffffffffffffffffffffffffffffffffffffffffffffffe016929092016040019392505050565b60008382526040602083015261196e60408301846142e2565b60ff91909116815260200190565b60405181810167ffffffffffffffff811182821017156144c957600080fd5b604052919050565b600067ffffffffffffffff8211156144e7578081fd5b5060209081020190565b6001600160a01b038116811461072c57600080fd5b801515811461072c57600080fd5b6003811061072c57600080fdfea26469706673582212202008ef7a37930765abcf342419331ee1314ab701c7b77aa8a520534d8412391b64736f6c63430007010033a264697066735822122047173c2588ef1d6b5ddc992b7639db2b70ba62e9a024ba759f16078b2d19299a64736f6c63430007010033",
  "devdoc": {
    "kind": "dev",
    "methods": {
      "create(string,string,address[],uint256[],uint256,uint256,uint256)": {
        "details": "Deploys a new `WeightedPool`."
      }
    },
    "version": 1
  },
  "userdoc": {
    "kind": "user",
    "methods": {},
    "version": 1
  },
  "storageLayout": {
    "storage": [],
    "types": null
  }
}