{
  "_format": "hh-sol-artifact-1",
  "contractName": "SecondaryIssuePoolFactory",
  "sourceName": "contracts/SecondaryIssuePoolFactory.sol",
  "abi": [
    {
      "inputs": [
        {
          "internalType": "contract IVault",
          "name": "vault",
          "type": "address"
        }
      ],
      "stateMutability": "nonpayable",
      "type": "constructor"
    },
    {
      "anonymous": false,
      "inputs": [],
      "name": "FactoryDisabled",
      "type": "event"
    },
    {
      "anonymous": false,
      "inputs": [
        {
          "indexed": true,
          "internalType": "address",
          "name": "pool",
          "type": "address"
        }
      ],
      "name": "PoolCreated",
      "type": "event"
    },
    {
      "inputs": [
        {
          "internalType": "string",
          "name": "_name",
          "type": "string"
        },
        {
          "internalType": "string",
          "name": "_symbol",
          "type": "string"
        },
        {
          "internalType": "address",
          "name": "_security",
          "type": "address"
        },
        {
          "internalType": "address",
          "name": "_currency",
          "type": "address"
        },
        {
          "internalType": "uint256",
          "name": "_maxAmountsIn",
          "type": "uint256"
        },
        {
          "internalType": "uint256",
          "name": "_tradeFeePercentage",
          "type": "uint256"
        }
      ],
      "name": "create",
      "outputs": [
        {
          "internalType": "address",
          "name": "",
          "type": "address"
        }
      ],
      "stateMutability": "nonpayable",
      "type": "function"
    },
    {
      "inputs": [],
      "name": "disable",
      "outputs": [],
      "stateMutability": "nonpayable",
      "type": "function"
    },
    {
      "inputs": [
        {
          "internalType": "bytes4",
          "name": "selector",
          "type": "bytes4"
        }
      ],
      "name": "getActionId",
      "outputs": [
        {
          "internalType": "bytes32",
          "name": "",
          "type": "bytes32"
        }
      ],
      "stateMutability": "view",
      "type": "function"
    },
    {
      "inputs": [],
      "name": "getAuthorizer",
      "outputs": [
        {
          "internalType": "contract IAuthorizer",
          "name": "",
          "type": "address"
        }
      ],
      "stateMutability": "view",
      "type": "function"
    },
    {
      "inputs": [],
      "name": "getCreationCode",
      "outputs": [
        {
          "internalType": "bytes",
          "name": "",
          "type": "bytes"
        }
      ],
      "stateMutability": "view",
      "type": "function"
    },
    {
      "inputs": [],
      "name": "getCreationCodeContracts",
      "outputs": [
        {
          "internalType": "address",
          "name": "contractA",
          "type": "address"
        },
        {
          "internalType": "address",
          "name": "contractB",
          "type": "address"
        }
      ],
      "stateMutability": "view",
      "type": "function"
    },
    {
      "inputs": [],
      "name": "getPauseConfiguration",
      "outputs": [
        {
          "internalType": "uint256",
          "name": "pauseWindowDuration",
          "type": "uint256"
        },
        {
          "internalType": "uint256",
          "name": "bufferPeriodDuration",
          "type": "uint256"
        }
      ],
      "stateMutability": "view",
      "type": "function"
    },
    {
      "inputs": [],
      "name": "getVault",
      "outputs": [
        {
          "internalType": "contract IVault",
          "name": "",
          "type": "address"
        }
      ],
      "stateMutability": "view",
      "type": "function"
    },
    {
      "inputs": [],
      "name": "isDisabled",
      "outputs": [
        {
          "internalType": "bool",
          "name": "",
          "type": "bool"
        }
      ],
      "stateMutability": "view",
      "type": "function"
    },
    {
      "inputs": [
        {
          "internalType": "address",
          "name": "pool",
          "type": "address"
        }
      ],
      "name": "isPoolFromFactory",
      "outputs": [
        {
          "internalType": "bool",
          "name": "",
          "type": "bool"
        }
      ],
      "stateMutability": "view",
      "type": "function"
    }
  ],
  "bytecode": "0x61016060405234801561001157600080fd5b50604051620067ca380380620067ca833981016040819052610032916101bd565b8060405180602001610043906101af565b601f1982820381018352601f90910116604052805182903090839060006002820460a081905280830360e08190528185529091508361008c816100f8602090811b61040017901c565b60601b6001600160601b03191660805282850180518382526100b8826100f8602090811b61040017901c565b6001600160601b0319606091821b811660c0529690935290526101009590955250509290911b90911661012052505050426276a7000161014052506101eb565b80517f602038038060206000396000f3fefefefefefefefefefefefefefefefefefefe808352600091602081018484f090845291506101446001600160a01b03831615156101ac61014a565b50919050565b81610158576101588161015c565b5050565b62461bcd60e51b6000908152602060045260076024526642414c23000030600a808404818106603090810160081b95839006959095019082900491820690940160101b939093010160c81b604452606490fd5b615af18062000cd983390190565b6000602082840312156101ce578081fd5b81516001600160a01b03811681146101e4578182fd5b9392505050565b60805160601c60a05160c05160601c60e051610100516101205160601c61014051610a8262000257600039806101d9528061020252508061036452508061031452508061045a5250806101b052806104d652508061047b52508061018f52806104b25250610a826000f3fe608060405234801561001057600080fd5b506004361061009d5760003560e01c80636c57f5a9116100665780636c57f5a91461011657806374dcc7a41461011e578063851c1bb31461013e5780638d928af81461015e578063aaabadc5146101665761009d565b8062c194db146100a2578063174481fa146100c05780632da47c40146100d65780632f2770db146100ec5780636634b753146100f6575b600080fd5b6100aa61016e565b6040516100b7919061094f565b60405180910390f35b6100c861018d565b6040516100b7929190610902565b6100de6101d3565b6040516100b7929190610a29565b6100f461023d565b005b610109610104366004610788565b610284565b6040516100b7919061091c565b6101096102a2565b61013161012c366004610808565b6102ab565b6040516100b791906108ee565b61015161014c3660046107c4565b610310565b6040516100b79190610927565b610131610362565b610131610386565b606061018860405180602001604052806000815250610452565b905090565b7f00000000000000000000000000000000000000000000000000000000000000007f00000000000000000000000000000000000000000000000000000000000000009091565b600080427f000000000000000000000000000000000000000000000000000000000000000081101561022f57807f000000000000000000000000000000000000000000000000000000000000000003925062278d009150610238565b60009250600091505b509091565b61024561052b565b61024d61055c565b6001805460ff1916811790556040517f432acbfd662dbb5d8b378384a67159b47ca9d0f1b79f97cf64cf8585fa362d5090600090a1565b6001600160a01b031660009081526020819052604090205460ff1690565b60015460ff1690565b60008060006102b86101d3565b915091506103016102c7610362565b8c8c8c8c8c8c8b8d8b8b336040516020016102ed9c9b9a999897969594939291906109a2565b604051602081830303815290604052610571565b9b9a5050505050505050505050565b60007f0000000000000000000000000000000000000000000000000000000000000000826040516020016103459291906108d6565b604051602081830303815290604052805190602001209050919050565b7f000000000000000000000000000000000000000000000000000000000000000090565b6000610390610362565b6001600160a01b031663aaabadc56040518163ffffffff1660e01b815260040160206040518083038186803b1580156103c857600080fd5b505afa1580156103dc573d6000803e3d6000fd5b505050506040513d601f19601f8201168201806040525081019061018891906107ec565b80517f602038038060206000396000f3fefefefefefefefefefefefefefefefefefefe808352600091602081018484f0908452915061044c6001600160a01b03831615156101ac6105da565b50919050565b8051604080517f00000000000000000000000000000000000000000000000000000000000000007f0000000000000000000000000000000000000000000000000000000000000000818101858101848101602090810190965280855293957f00000000000000000000000000000000000000000000000000000000000000009592947f000000000000000000000000000000000000000000000000000000000000000094938801866000828a3c846000888301883c506020898101908985010161051d8183866105ec565b505050505050505050919050565b60006105426000356001600160e01b031916610310565b9050610559610551823361062a565b6101916105da565b50565b61056f6105676102a2565b1560d36105da565b565b600061057b61055c565b6000610586836106ba565b6001600160a01b038116600081815260208190526040808220805460ff191660011790555192935090917f83a48fbcfc991335314e74d0496aab6a1987e992ddc85dddbcc4d6dd6ef2e9fc9190a292915050565b816105e8576105e8816106ee565b5050565b5b6020811061060c578151835260209283019290910190601f19016105ed565b905182516020929092036101000a6000190180199091169116179052565b6000610634610386565b6001600160a01b0316639be2a8848484306040518463ffffffff1660e01b815260040161066393929190610930565b60206040518083038186803b15801561067b57600080fd5b505afa15801561068f573d6000803e3d6000fd5b505050506040513d601f19601f820116820180604052508101906106b391906107a4565b9392505050565b600060606106c783610452565b905060008151602083016000f090506001600160a01b0381166106b3573d6000803e3d6000fd5b62461bcd60e51b6000908152602060045260076024526642414c23000030600a808404818106603090810160081b95839006959095019082900491820690940160101b939093010160c81b604452606490fd5b60008083601f840112610752578182fd5b50813567ffffffffffffffff811115610769578182fd5b60208301915083602082850101111561078157600080fd5b9250929050565b600060208284031215610799578081fd5b81356106b381610a37565b6000602082840312156107b5578081fd5b815180151581146106b3578182fd5b6000602082840312156107d5578081fd5b81356001600160e01b0319811681146106b3578182fd5b6000602082840312156107fd578081fd5b81516106b381610a37565b60008060008060008060008060c0898b031215610823578384fd5b883567ffffffffffffffff8082111561083a578586fd5b6108468c838d01610741565b909a50985060208b013591508082111561085e578586fd5b5061086b8b828c01610741565b909750955050604089013561087f81610a37565b9350606089013561088f81610a37565b979a969950949793969295929450505060808201359160a0013590565b60008284528282602086013780602084860101526020601f19601f85011685010190509392505050565b9182526001600160e01b031916602082015260240190565b6001600160a01b0391909116815260200190565b6001600160a01b0392831681529116602082015260400190565b901515815260200190565b90815260200190565b9283526001600160a01b03918216602084015216604082015260600190565b6000602080835283518082850152825b8181101561097b5785810183015185820160400152820161095f565b8181111561098c5783604083870101525b50601f01601f1916929092016040019392505050565b6001600160a01b038d168152610140602082018190526000906109c89083018d8f6108ac565b82810360408401526109db818c8e6108ac565b6001600160a01b039a8b166060850152988a166080840152505060a081019590955260c085019390935260e08401919091526101008301529092166101209092019190915295945050505050565b918252602082015260400190565b6001600160a01b038116811461055957600080fdfea2646970667358221220292627b433e701057bc81ac77dbc0353bb32407eb3a653b9d3d0ade226ce120d64736f6c634300070100336102806040527f6e71edae12b1b97f4d1f60370fef10105fa2faae0126114a169c64845d6126c960e052600a805460ff60a01b1916600160a01b17905560006019819055601b819055601c553480156200005857600080fd5b5060405162005af138038062005af18339810160408190526200007b91620009cf565b8960008a8a6200008d8b8b3062000430565b6040805160038082526080820190925290602082016060803683370190505089898989828289898d85336001600160a01b031660001b8480604051806040016040528060018152602001603160f81b81525087878160039080519060200190620000f992919062000840565b5080516200010f90600490602084019062000840565b50506005805460ff19166012179055508151602092830120608052805191012060a052507f8b73c3c69bb8fe3d512ecc4cf759cc79239f7b179b0ffacaa9a75d522b39400f60c052610100526001600160601b0319606091821b81166101205291901b1661014052506200018e90506276a700831115610194620004ff565b620001a262278d00821115610195620004ff565b4290910161016081905201610180528551620001c4906002111560c8620004ff565b620001de620001d262000514565b8751111560c9620004ff565b620001f4866200051960201b62001b7f1760201c565b620001ff8462000525565b6040516309b2760f60e01b81526000906001600160a01b038c16906309b2760f9062000230908d9060040162000b4a565b602060405180830381600087803b1580156200024b57600080fd5b505af115801562000260573d6000803e3d6000fd5b505050506040513d601f19601f8201168201806040525081019062000286919062000990565b604051633354e3e960e11b81529091506001600160a01b038c16906366a9c7d290620002bb9084908b908b9060040162000aae565b600060405180830381600087803b158015620002d657600080fd5b505af1158015620002eb573d6000803e3d6000fd5b50505050806101a081815250508a6001600160a01b031663d2946c2b6040518163ffffffff1660e01b815260040160206040518083038186803b1580156200033257600080fd5b505afa15801562000347573d6000803e3d6000fd5b505050506040513d601f19601f820116820180604052508101906200036d9190620009a9565b6001600160a01b03166101c0816001600160a01b031660601b815250505050505050505050505050866001600160a01b03166101e0816001600160a01b031660601b81525050856001600160a01b0316610200816001600160a01b031660601b815250506000806000620003e98a8a30620005b960201b60201c565b6102205261024091909152610260525050506009949094555050600a80546001600160a01b0319166001600160a01b03909316929092179091555062000b8a945050505050565b60606000808062000443878787620005b9565b60408051600380825260808201909252939650919450925060208201606080368337019050509350868484815181106200047957fe5b60200260200101906001600160a01b031690816001600160a01b03168152505085848381518110620004a757fe5b60200260200101906001600160a01b031690816001600160a01b03168152505084848281518110620004d557fe5b60200260200101906001600160a01b031690816001600160a01b0316815250505050509392505050565b8162000510576200051081620006af565b5050565b600390565b80620005108162000702565b6200053e620005336200078f565b82101560cb620004ff565b620005576200054c62000798565b82111560ca620004ff565b620005798160c06040600854620007a460201b62001b8917909392919060201c565b6008556040517fa9ba3ffe0b6c366b81232caab38605a0699ad5398d6cce76f91ee809e322dafc90620005ae90839062000b5f565b60405180910390a150565b6000806000846001600160a01b0316866001600160a01b031610156200064257836001600160a01b0316856001600160a01b0316101562000605575060009150600190506002620006a6565b836001600160a01b0316866001600160a01b0316101562000631575060009150600290506001620006a6565b5060019150600290506000620006a6565b846001600160a01b0316846001600160a01b031610156200066e575060029150600190506000620006a6565b856001600160a01b0316846001600160a01b031610156200069a575060029150600090506001620006a6565b50600191506000905060025b93509350939050565b62461bcd60e51b6000908152602060045260076024526642414c23000030600a808404818106603090810160081b95839006959095019082900491820690940160101b939093010160c81b604452606490fd5b60028151101562000713576200078c565b6000816000815181106200072357fe5b602002602001015190506000600190505b8251811015620007895760008382815181106200074d57fe5b602002602001015190506200077e816001600160a01b0316846001600160a01b0316106065620004ff60201b60201c565b915060010162000734565b50505b50565b64e8d4a5100090565b67016345785d8a000090565b6000620007b3848484620007c9565b506001901b60001901811b1992909216911b1790565b620007da61010083106064620004ff565b62000813600182101580156200080b57506200080760ff84610100036200082460201b62001bac1760201c565b8211155b6064620004ff565b6200078983821c156101b4620004ff565b600081831062000835578162000837565b825b90505b92915050565b828054600181600116156101000203166002900490600052602060002090601f016020900481019282601f106200088357805160ff1916838001178555620008b3565b82800160010185558215620008b3579182015b82811115620008b357825182559160200191906001019062000896565b50620008c1929150620008c5565b5090565b5b80821115620008c15760008155600101620008c6565b80516200083a8162000b74565b600082601f830112620008fa578081fd5b81516001600160401b038082111562000911578283fd5b6040516020601f8401601f191682018101838111838210171562000933578586fd5b806040525081945083825286818588010111156200095057600080fd5b600092505b8383101562000974578583018101518284018201529182019162000955565b83831115620009865760008185840101525b5050505092915050565b600060208284031215620009a2578081fd5b5051919050565b600060208284031215620009bb578081fd5b8151620009c88162000b74565b9392505050565b6000806000806000806000806000806101408b8d031215620009ef578586fd5b620009fb8c8c620008dc565b60208c0151909a506001600160401b038082111562000a18578788fd5b62000a268e838f01620008e9565b9a5060408d015191508082111562000a3c578788fd5b5062000a4b8d828e01620008e9565b98505062000a5d8c60608d01620008dc565b965062000a6e8c60808d01620008dc565b955060a08b0151945060c08b0151935060e08b015192506101008b0151915062000a9d8c6101208d01620008dc565b90509295989b9194979a5092959850565b60006060820185835260206060818501528186518084526080860191508288019350845b8181101562000afa5762000ae7855162000b68565b8352938301939183019160010162000ad2565b505084810360408601528551808252908201925081860190845b8181101562000b3c5762000b29835162000b68565b8552938301939183019160010162000b14565b509298975050505050505050565b602081016003831062000b5957fe5b91905290565b90815260200190565b6001600160a01b031690565b6001600160a01b03811681146200078c57600080fd5b60805160a05160c05160e051610100516101205160601c6101405160601c61016051610180516101a0516101c05160601c6101e05160601c6102005160601c610220516102405161026051614e4662000cab600039806107f952806109415280611c445280611e8352508061083d5280611c035280611ed05250806113aa5280611c855280612cde52508061071d52806108fd52806110425280613c985280613e395280613ffb5250806107b5528061096c5280610ea25280611498528061170652806117ab5280613c5d5280613dea5280613fb05250806118b4525080610ef55250806124c85250806124a45250806116585250806116345250806115be52508061190b5250806125ce5250806126105250806125ef5250614e466000f3fe608060405234801561001057600080fd5b506004361061028a5760003560e01c806370a082311161015c57806395c95a4f116100ce578063b35056b811610087578063b35056b81461054a578063b7b814fc14610552578063d2946c2b1461055a578063d505accf14610562578063d5c096c414610575578063dd62ed3e146105885761028a565b806395c95a4f146104eb57806395d89b41146104f3578063a3b13799146104fb578063a457c2d71461051c578063a9059cbb1461052f578063aaabadc5146105425761028a565b806382fce88f1161012057806382fce88f1461049a5780638456cb59146104ad578063851c1bb3146104b557806387ec6817146104c8578063893d20e8146104db5780638d928af8146104e35761028a565b806370a08231146104385780637489ec231461044b57806374f3b0091461045e5780637ecebe001461047f5780638129fc1c146104925761028a565b8063313ce5671161020057806346b8b730116101b957806346b8b730146103d757806350dd6ed9146103ec57806354a844ba146103ff57806355c67628146104075780636028bfd41461040f5780636945c1fd146104305761028a565b8063313ce567146103845780633644e5151461039957806338e9922e146103a157806338fff2d0146103b457806339509351146103bc5780633f4ba83a146103cf5761028a565b806318160ddd1161025257806318160ddd146103155780631c0de0511461031d5780631dd746ea146103345780631f0404801461034957806323b872dd1461035c5780632541897f1461036f5761028a565b806301ec954a1461028f57806306fdde03146102b8578063095ea7b3146102cd5780630c8605be146102ed57806313ce454614610302575b600080fd5b6102a261029d366004614729565b61059b565b6040516102af9190614aec565b60405180910390f35b6102c06109f3565b6040516102af9190614c93565b6102e06102db366004614461565b610a89565b6040516102af9190614ac9565b6103006102fb36600461466c565b610aa0565b005b61030061031036600461464b565b610b93565b6102a2610d6e565b610325610d74565b6040516102af93929190614ad4565b61033c610d9d565b6040516102af9190614a88565b61030061035736600461466c565b610dac565b6102e061036a3660046143b1565b610e2c565b610377610ea0565b6040516102af91906149dc565b61038c610ec4565b6040516102af9190614d8b565b6102a2610ecd565b6103006103af366004614578565b610ed7565b6102a2610ef3565b6102e06103ca366004614461565b610f17565b610300610f52565b6103df610f66565b6040516102af9190614a44565b6103006103fa3660046146db565b610fc6565b610300610fe4565b6102a2610ff6565b61042261041d3660046145a8565b611009565b6040516102af929190614d72565b610377611040565b6102a261044636600461435d565b611064565b610300610459366004614578565b611083565b61047161046c3660046145a8565b6111c4565b6040516102af929190614a9b565b6102a261048d36600461435d565b6112c7565b6103006112e2565b6103006104a836600461466c565b6114ff565b6103006115a8565b6102a26104c3366004614697565b6115ba565b6104226104d63660046145a8565b61160c565b610377611632565b610377611656565b6102a261167a565b6102c0611680565b61050e610509366004614578565b6116e1565b6040516102af92919061498b565b6102e061052a366004614461565b61183d565b6102e061053d366004614461565b61187b565b610377611888565b6102e0611892565b6103006118a0565b6103776118b2565b6103006105703660046143f1565b6118d6565b6104716105833660046145a8565b611a1f565b6102a2610596366004614379565b611b42565b600084608001516105c86105ad611656565b6001600160a01b0316336001600160a01b03161460cd611bc4565b6105dd6105d3610ef3565b82146101f4611bc4565b60606105e7611bd2565b905060608060005b896101000151518110156106ab576005811161064957896101000151818151811061061657fe5b602001015160f81c60f81b83828151811061062d57fe5b60200101906001600160f81b031916908160001a9053506106a3565b6006811015801561065b575060268111155b156106a357896101000151818151811061067157fe5b602001015160f81c60f81b82600683038151811061068b57fe5b60200101906001600160f81b031916908160001a9053505b6001016105ef565b506106b4614159565b60405180604001604052806106c885611cbe565b81526020016106d684611cdc565b90529050600080808c5160018111156106eb57fe5b14156108c9576107128c60600151878c8151811061070557fe5b6020026020010151611d7e565b8c60600181815250507f00000000000000000000000000000000000000000000000000000000000000006001600160a01b03168c604001516001600160a01b031614156107b35761076c8c846314d95b1b60e21b8e611d8a565b84519093509091506513585c9ad95d60d21b14156107ae576107a181878b8151811061079457fe5b60200260200101516120c1565b97505050505050506109ea565b6108c4565b7f00000000000000000000000000000000000000000000000000000000000000006001600160a01b03168c604001516001600160a01b031614156108c45760006108348c7f00000000000000000000000000000000000000000000000000000000000000008151811061082257fe5b60200260200101518e606001516120cd565b9050610875818d7f00000000000000000000000000000000000000000000000000000000000000008151811061086657fe5b602002602001015160006120df565b60608e015261088c8d856242757960e81b8f611d8a565b85519094509092506513585c9ad95d60d21b14156108c2576108b483888c8151811061079457fe5b9850505050505050506109ea565b505b6109e3565b60018c5160018111156108d857fe5b14156109e3576108f28c60600151878b8151811061070557fe5b8c60600181815250507f00000000000000000000000000000000000000000000000000000000000000006001600160a01b03168c602001516001600160a01b0316141561096a5760006108348c7f00000000000000000000000000000000000000000000000000000000000000008151811061082257fe5b7f00000000000000000000000000000000000000000000000000000000000000006001600160a01b03168c602001516001600160a01b031614156109e3576109bb8c846314d95b1b60e21b8e611d8a565b84519093509091506513585c9ad95d60d21b14156109e3576107a181878b8151811061079457fe5b5050505050505b50949350505050565b60038054604080516020601f6002600019610100600188161502019095169490940493840181900481028201810190925282815260609390929091830182828015610a7f5780601f10610a5457610100808354040283529160200191610a7f565b820191906000526020600020905b815481529060010190602001808311610a6257829003601f168201915b5050505050905090565b6000610a96338484612107565b5060015b92915050565b6000838152600c60205260409020600301546327b832b760e11b14610ac457600080fd5b6000838152600c60205260409020600601546001600160a01b0316331415610b8e576000838152600c6020526040902060078101839055600481018290554260058201556001015464131a5b5a5d60da1b1415610b47576000838152600c6020908152604080832054835260129091529020839055610b428261216f565b610b8e565b6000838152600c602052604090206001015463053746f760e41b1415610b8e576000838152600c6020908152604080832054835260159091529020839055610b8e826122fc565b505050565b600a546001600160a01b03163314610baa57600080fd5b6000828152600c60209081526040808320600601546001600160a01b03168352600e8252808320858452600f9092529091205481548110610be757fe5b60009182526020808320909101829055838252600f81526040808320839055600c825280832083815560018101849055600281018490556003810184905560048101849055600581018490556006810180546001600160a01b03191690556007810184905560088101849055600901839055600d909152902054600b80549091908110610c7057fe5b60009182526020808320909101829055838252600d81526040808320839055838352600c8252808320600601546001600160a01b03168352600e8252808320848452600f9092529091205481548110610cc557fe5b60009182526020808320909101829055828252600f81526040808320839055600c825280832083815560018101849055600281018490556003810184905560048101849055600581018490556006810180546001600160a01b03191690556007810184905560088101849055600901839055600d909152902054600b80549091908110610d4e57fe5b60009182526020808320909101829055918152600d909152604081205550565b60025490565b6000806000610d81612485565b159250610d8c6124a2565b9150610d966124c6565b9050909192565b6060610da7611bd2565b905090565b806242757960e81b1480610dc65750806314d95b1b60e21b145b610dcf57600080fd5b600a546001600160a01b03163314610de657600080fd5b506000828152600c602090815260408083206004810180549095019094556327b832b760e11b6003850155600b5493849055928252601090522055601180546001019055565b600080610e398533611b42565b9050610e5d336001600160a01b0387161480610e555750838210155b61019e611bc4565b610e688585856124ea565b336001600160a01b03861614801590610e8357506000198114155b15610e9557610e958533858403612107565b506001949350505050565b7f000000000000000000000000000000000000000000000000000000000000000090565b60055460ff1690565b6000610da76125ca565b610edf612667565b610ee7612695565b610ef0816126a8565b50565b7f000000000000000000000000000000000000000000000000000000000000000090565b3360008181526001602090815260408083206001600160a01b03871684529091528120549091610a96918590610f4d90866120cd565b612107565b610f5a612667565b610f646000612721565b565b336000908152600e6020908152604091829020805483518184028101840190945280845260609392830182828015610a7f57602002820191906000526020600020905b815481526020019060010190808311610fa9575050505050905090565b610fce612667565b610fd6612695565b610fe08282612794565b5050565b610fec612667565b610f646001612893565b600854600090610da79060c060406128d6565b6000606061101f865161101a6128e5565b6128ea565b611034898989898989896128f7612913612974565b97509795505050505050565b7f000000000000000000000000000000000000000000000000000000000000000090565b6001600160a01b0381166000908152602081905260409020545b919050565b6000818152600c60205260409020600601546001600160a01b031633146110a957600080fd5b6000818152600c602090815260408083208054845260108352818420849055805484526013835281842084905580548452601283528184208490558054845260168352818420849055805484526015835281842084905584845283815560018101849055600281018490556003810184905560048101849055600581018490556006810180546001600160a01b03191690556007810184905560088101849055600901839055600d909152902054600b8054909190811061116657fe5b60009182526020808320909101829055828252600d81526040808320839055338352600e8252808320848452600f90925290912054815481106111a557fe5b60009182526020808320909101829055918152600f9091526040812055565b606080886111d36105ad611656565b6111de6105d3610ef3565b606060006111eb86612a96565b15611213576111f8612ac5565b61120a89611204610d6e565b88612adc565b92509050611265565b61121b612695565b6060611225611bd2565b90506112318a82612b08565b6112558d8d8d8d8d611241611892565b61124b578d61124e565b60005b878e6128f7565b935091506112638382612913565b505b61126f8b82612b69565b81895167ffffffffffffffff8111801561128857600080fd5b506040519080825280602002602001820160405280156112b2578160200160208202803683370190505b509450945050505b5097509795505050505050565b6001600160a01b031660009081526006602052604090205490565b60006112ec610ef3565b905060606112f8611656565b6001600160a01b031663f94d4668836040518263ffffffff1660e01b81526004016113239190614aec565b60006040518083038186803b15801561133b57600080fd5b505afa15801561134f573d6000803e3d6000fd5b505050506040513d6000823e601f3d908101601f19168201604052611377919081019061448c565b505060408051600380825260808201909252919250606091906020820183803683370190505090506001600160701b03817f0000000000000000000000000000000000000000000000000000000000000000815181106113d357fe5b6020026020010181815250506113e7614170565b60405180608001604052806113fb85612b73565b815260200183815260200160405180602001604052806000815250815260200160001515815250905061142c611656565b6001600160a01b031663b95cac28611442610ef3565b3030856040518563ffffffff1660e01b81526004016114649493929190614b14565b600060405180830381600087803b15801561147e57600080fd5b505af1158015611492573d6000803e3d6000fd5b505050507f00000000000000000000000000000000000000000000000000000000000000006001600160a01b03167ff1f17f1a9edc53df960a0bec0dc86cb2bf5606c7826b3b8e701e70c91c28aa2a6009546040516114f19190614aec565b60405180910390a250505050565b600a546001600160a01b0316331461151657600080fd5b6000928352601f6020908152604080852080546001600160a01b0319908116825560018201805482169055600282018054821690556003808301889055600483018890556005830180549092169091556006820187905560078201879055600882018790556009909101869055938552600c90915280842065119a5b1b195960d21b9084018190559184529092200155565b6115b0612667565b610f646001612721565b60007f0000000000000000000000000000000000000000000000000000000000000000826040516020016115ef929190614999565b604051602081830303815290604052805190602001209050919050565b6000606061161d865161101a6128e5565b611034898989898989896128f7612b76612974565b7f000000000000000000000000000000000000000000000000000000000000000090565b7f000000000000000000000000000000000000000000000000000000000000000090565b60095490565b60048054604080516020601f6002600019610100600188161502019095169490940493840181900481028201810190925282815260609390929091830182828015610a7f5780601f10610a5457610100808354040283529160200191610a7f565b600081815260208080526040808320548352601f9091528120600201548190819081907f00000000000000000000000000000000000000000000000000000000000000006001600160a01b0390811691161480156117605750600085815260208080526040808320548352601f9091529020600601546242757960e81b145b1561178c575050600083815260208080526040808320548352601f909152902060038101546004909101545b600085815260208080526040808320548352601f9091529020600201547f00000000000000000000000000000000000000000000000000000000000000006001600160a01b0390811691161480156118065750600085815260208080526040808320548352601f9091529020600601546314d95b1b60e21b145b15611833575050600083815260208080526040808320548352601f90915290206003810154600490910154905b9092509050915091565b60008061184a3385611b42565b90508083106118645761185f33856000612107565b611871565b6118713385858403612107565b5060019392505050565b6000610a963384846124ea565b6000610da7612bd7565b600754610100900460ff1690565b6118a8612667565b610f646000612893565b7f000000000000000000000000000000000000000000000000000000000000000090565b6118e48442111560d1611bc4565b6001600160a01b038716600090815260066020908152604080832054905190929161193b917f0000000000000000000000000000000000000000000000000000000000000000918c918c918c9188918d9101614be5565b604051602081830303815290604052805190602001209050600061195e82612c51565b90506000600182888888604051600081526020016040526040516119859493929190614c75565b6020604051602081039080840390855afa1580156119a7573d6000803e3d6000fd5b5050604051601f19015191506119e990506001600160a01b038216158015906119e157508b6001600160a01b0316826001600160a01b0316145b6101f8611bc4565b6001600160a01b038b166000908152600660205260409020600185019055611a128b8b8b612107565b5050505050505050505050565b60608088611a2e6105ad611656565b611a396105d3610ef3565b6060611a43611bd2565b9050611a4d612695565b611a55610d6e565b611b025760006060611a6a8d8d8d868b612c6d565b91509150611a83611a79612d20565b83101560cc611bc4565b611a956000611a90612d20565b612d27565b611aa88b611aa1612d20565b8403612d27565b611ab28184612b76565b808a5167ffffffffffffffff81118015611acb57600080fd5b50604051908082528060200260200182016040528015611af5578160200160208202803683370190505b50955095505050506112ba565b611b0c8882612b08565b60006060611b348d8d8d8d8d611b20611892565b611b2a578d611b2d565b60005b898e6128f7565b91509150611aa88b83612d27565b6000611b4c611656565b6001600160a01b0316826001600160a01b03161415611b6e5750600019610a9a565b611b788383612d31565b9050610a9a565b80610fe081612d5c565b6000611b96848484612dd5565b506001901b60001901811b1992909216911b1790565b6000818310611bbb5781611bbd565b825b9392505050565b81610fe057610fe081612e1c565b60408051600380825260808201909252606091829190602082018380368337019050509050670de0b6b3a7640000817f000000000000000000000000000000000000000000000000000000000000000081518110611c2c57fe5b602002602001018181525050670de0b6b3a7640000817f000000000000000000000000000000000000000000000000000000000000000081518110611c6d57fe5b602002602001018181525050670de0b6b3a7640000817f000000000000000000000000000000000000000000000000000000000000000081518110611cae57fe5b6020908102919091010152905090565b80516000908290611cd357506000905061107e565b50506020015190565b600080828180805b8351811015611d73576030848281518110611cfb57fe5b016020015160f81c10801590611d2557506039848281518110611d1a57fe5b016020015160f81c11155b15611d66578291506030848281518110611d3b57fe5b602001015160f81c60f81b60f81c60ff160383600a0201925082821115611d6157600194505b611d6b565b600194505b600101611ce4565b509095945050505050565b6000611bbd8383612e6f565b60008084600001516513585c9ad95d60d21b1480611db05750845164131a5b5a5d60da1b145b80611dc25750845163053746f760e41b145b611dcb57600080fd5b836242757960e81b1480611de55750836314d95b1b60e21b145b611dee57600080fd5b60008660c0015142604051602001611e07929190614969565b60408051808303601f19018152918152815160209283012060c08a01516000828152600c8552929092206006810180546001600160a01b0319166001600160a01b0390941693909317909255918801516007820155600b54815560608901516004820155600281018790558751600190910155845190915084907f0000000000000000000000000000000000000000000000000000000000000000908110611eab57fe5b6020026020010151600c600083815260200190815260200160002060080181905550837f000000000000000000000000000000000000000000000000000000000000000081518110611ef957fe5b6020908102919091018101516000838152600c83526040808220600981019390935542600590930192909255600b8054600d8552838320819055600180820183559183527f0175b7a638427703f0dbe7bb9bbf987a2551717b34e79f33b5b1008d1fa01db90185905560c08b0180516001600160a01b039081168452600e80875285852054888652600f88528686205591511683528452918120805492830181558152919091200181905585516513585c9ad95d60d21b1415612009576000818152600c6020908152604080832065119a5b1b195960d21b600382015554835260109091529020819055601180546001019055611fff81651b585c9ad95d60d21b612ea5565b92509250506120b8565b855164131a5b5a5d60da1b141561205f576000818152600c602090815260408083206327b832b760e11b60038201555483526012825290912082905560148054600101905586015161205a9061216f565b6120af565b855163053746f760e41b14156120af576000818152600c602090815260408083206327b832b760e11b6003820155548352601582529091208290556017805460010190558601516120af906122fc565b60008092509250505b94509492505050565b6000611bbd8383613621565b6000828201611bbd8482101583611bc4565b6000816120f5576120f08484613672565b6120ff565b6120ff8484613692565b949350505050565b6001600160a01b0380841660008181526001602090815260408083209487168084529490915290819020849055517f8c5be1e5ebec7d5bd14f71427d1e84f3dd0314c0f7b2291e5b200ac8c7c3b92590612162908590614aec565b60405180910390a3505050565b6000805b601454811015610b8e576000818152601260209081526040808320548352600c9091529020600201546242757960e81b1480156121ce57506000818152601260209081526040808320548352600c9091529020600701548311155b1561223a5760008181526012602081815260408084208054808652600c84528286205486526010845291852091909155601180546001019055928490525254915061222181641b1a5b5a5d60da1b6136c5565b61223382641b1a5b5a5d60da1b612ea5565b50506122f4565b6000818152601260209081526040808320548352600c9091529020600201546314d95b1b60e21b14801561228c57506000818152601260209081526040808320548352600c9091529020600701548310155b156122f45760008181526012602081815260408084208054808652600c8452828620548652601084529185209190915560118054600101905592849052525491506122df81641b1a5b5a5d60da1b6136c5565b6122f182641b1a5b5a5d60da1b612ea5565b50505b600101612173565b6000805b601754811015610b8e576000818152601560209081526040808320548352600c9091529020600201546242757960e81b14801561235b57506000818152601560209081526040808320548352600c9091529020600701548310155b156123c55760008181526015602081815260408084208054808652600c8452828620548652601084529185209190915560118054600101905592849052525491506123ad8163073746f760e41b6136c5565b6123be8263073746f760e41b612ea5565b505061247d565b6000818152601560209081526040808320548352600c9091529020600201546314d95b1b60e21b14801561241757506000818152601560209081526040808320548352600c9091529020600701548311155b1561247d5760008181526015602081815260408084208054808652600c8452828620548652601084529185209190915560118054600101905592849052525491506124698163073746f760e41b6136c5565b61247a8263073746f760e41b612ea5565b50505b600101612300565b600061248f6124c6565b421180610da757505060075460ff161590565b7f000000000000000000000000000000000000000000000000000000000000000090565b7f000000000000000000000000000000000000000000000000000000000000000090565b6125016001600160a01b0384161515610198611bc4565b6125186001600160a01b0383161515610199611bc4565b612523838383610b8e565b6001600160a01b03831660009081526020819052604090205461254990826101a0613814565b6001600160a01b03808516600090815260208190526040808220939093559084168152205461257890826120cd565b6001600160a01b0380841660008181526020819052604090819020939093559151908516907fddf252ad1be2c89b69c2b068fc378daa952ba7f163c4a11628f55a4df523b3ef90612162908590614aec565b60007f00000000000000000000000000000000000000000000000000000000000000007f00000000000000000000000000000000000000000000000000000000000000007f000000000000000000000000000000000000000000000000000000000000000061263761382a565b3060405160200161264c959493929190614c19565b60405160208183030381529060405280519060200120905090565b600061267e6000356001600160e01b0319166115ba565b9050610ef061268d823361382e565b610191611bc4565b610f646126a0612485565b610192611bc4565b6126bd6126b3613917565b82101560cb611bc4565b6126d26126c8613920565b82111560ca611bc4565b6008546126e3908260c06040611b89565b6008556040517fa9ba3ffe0b6c366b81232caab38605a0699ad5398d6cce76f91ee809e322dafc90612716908390614aec565b60405180910390a150565b80156127415761273c6127326124a2565b4210610193611bc4565b612756565b61275661274c6124c6565b42106101a9611bc4565b6007805460ff19168215151790556040517f9e3a5e37224532dea67b89face185703738a228a6e8a23dee546960180d3be6490612716908390614ac9565b600061279e610ef3565b905060006127aa611656565b6001600160a01b031663b05f8e4883866040518363ffffffff1660e01b81526004016127d7929190614c5e565b60806040518083038186803b1580156127ef57600080fd5b505afa158015612803573d6000803e3d6000fd5b505050506040513d601f19601f820116820180604052508101906128279190614848565b604051630639cdb560e21b81529094506001600160a01b03851693506318e736d4925061285b915085908790600401614c45565b600060405180830381600087803b15801561287557600080fd5b505af1158015612889573d6000803e3d6000fd5b5050505050505050565b6007805461ff001916610100831515021790556040517feff3d4d215b42bf0960be9c6d5e05c22cba4df6627a3a523e2acee733b5854c890612716908390614ac9565b6001901b6000190191901c1690565b600390565b610fe08183146067611bc4565b60006060612906610162612e1c565b9850989650505050505050565b60005b61291e6128e5565b811015610b8e5761295583828151811061293457fe5b602002602001015183838151811061294857fe5b6020026020010151613621565b83828151811061296157fe5b6020908102919091010152600101612916565b333014612a32576000306001600160a01b03166000366040516129989291906149b1565b6000604051808303816000865af19150503d80600081146129d5576040519150601f19603f3d011682016040523d82523d6000602084013e6129da565b606091505b5050905080600081146129e957fe5b60046000803e6000516001600160e01b0319166343adbafb60e01b8114612a14573d6000803e3d6000fd5b506020600460003e604060205260243d03602460403e601c3d016000f35b6060612a3c611bd2565b9050612a488782612b08565b60006060612a608c8c8c8c8c8c898d8d63ffffffff16565b91509150612a7281848663ffffffff16565b8051601f1982018390526343adbafb603f1983015260200260231982016044820181fd5b6000808251118015610a9a575060ff801682806020019051810190612abb9190614888565b60ff161492915050565b600754610f6490610100900460ff166101b6611bc4565b600060606000612aeb8461392c565b90506060612afa878784613942565b919791965090945050505050565b60005b612b136128e5565b811015610b8e57612b4a838281518110612b2957fe5b6020026020010151838381518110612b3d57fe5b6020026020010151612e6f565b838281518110612b5657fe5b6020908102919091010152600101612b0b565b610fe082826139f1565b90565b60005b612b816128e5565b811015610b8e57612bb8838281518110612b9757fe5b6020026020010151838381518110612bab57fe5b6020026020010151613aad565b838281518110612bc457fe5b6020908102919091010152600101612b79565b6000612be1611656565b6001600160a01b031663aaabadc56040518163ffffffff1660e01b815260040160206040518083038186803b158015612c1957600080fd5b505afa158015612c2d573d6000803e3d6000fd5b505050506040513d601f19601f82011682018060405250810190610da791906146bf565b6000612c5b6125ca565b826040516020016115ef9291906149c1565b60006060612c79612695565b612c906001600160a01b0387163014610156611bc4565b612ca76001600160a01b0386163014610156611bc4565b604080516003808252608082019092526001600160701b0391606091906020820183803683370190505090506001600160701b03817f000000000000000000000000000000000000000000000000000000000000000081518110612d0757fe5b6020908102919091010152909890975095505050505050565b620f424090565b610fe08282613afb565b6001600160a01b03918216600090815260016020908152604080832093909416825291909152205490565b600281511015612d6b57610ef0565b600081600081518110612d7a57fe5b602002602001015190506000600190505b8251811015610b8e576000838281518110612da257fe5b60200260200101519050612dcb816001600160a01b0316846001600160a01b0316106065611bc4565b9150600101612d8b565b612de461010083106064611bc4565b612e0d60018210158015612e065750612e0260ff8461010003611bac565b8211155b6064611bc4565b610b8e83821c156101b4611bc4565b62461bcd60e51b6000908152602060045260076024526642414c23000030600a808404818106603090810160081b95839006959095019082900491820690940160101b939093010160c81b604452606490fd5b6000828202612e93841580612e8c575083858381612e8957fe5b04145b6003611bc4565b670de0b6b3a764000090049392505050565b60008060005b60115481101561313e576000818152601060205260409020548514801590612f0d57506000858152600c602081815260408084206006908101548686526010845282862054865293909252909220909101546001600160a01b03908116911614155b8015612f4057506000818152601060209081526040808320548352600c90915290206003015465119a5b1b195960d21b14155b15613136576000818152601060209081526040808320548352600c9091529020600201546242757960e81b148015612f8f57506000858152600c60205260409020600201546314d95b1b60e21b145b15613040576000858152600c602081815260408084206007908101548686526010845282862054865293909252909220909101541061303b576019546000828152601060209081526040808320548352600c909152902060070154111561303b5760198054601d556000828152601060209081526040808320548352600c9091529020600701549055600b80548290811061302657fe5b600091825260209091200154601855601c8190555b613136565b6000818152601060209081526040808320548352600c9091529020600201546314d95b1b60e21b14801561308a57506000858152600c60205260409020600201546242757960e81b145b15613136576000858152600c602081815260408084206007908101548686526010845282862054865293909252909220909101541161313657601b546000828152601060209081526040808320548352600c909152902060070154101561313657601b8054601e556000828152601060209081526040808320548352600c9091529020600701549055600b80548290811061312157fe5b600091825260209091200154601a55601c8190555b600101612eab565b506000848152600c60205260409020600201546314d95b1b60e21b14156133d357601854156133c8576000848152600c60205260408082206004908101546018548452919092209091015410613269576000848152600c60205260408082206004808201805460188054875285872090930180549190910390558054908590558154855283852065119a5b1b195960d21b6003918201819055908401556006808401549254808752948620015494899052600783015460028401546001909401549195613222958b956001600160a01b039586169591949190921692918891613b89565b613237601c54651b585c9ad95d60d21b6136c5565b83651b585c9ad95d60d21b1415613263576000858152600c60205260409020600701549250905061361a565b5061333c565b601880546000908152600c602052604080822060049081015488845282842080830180549290920390915584548452828420909101805490849055845484528284206b14185c9d1b1e519a5b1b195960a21b600391820181905590830155600680830154955480865293852001549389905260078201546002830154600190930154919561330e958b956001600160a01b039283169590949190921692918891613b89565b83651b585c9ad95d60d21b141561333a576000858152600c60205260409020600701549250905061361a565b505b6000848152600c60205260409020600981015460049091015461335f91906140e9565b6000858152600c602052604090206009810191909155600881015460079091015461338a91906120cd565b6000858152600c602052604090206008810191909155600701546133ad9061216f565b6000848152600c60205260409020600701546133c8906122fc565b50600090508061361a565b6000848152600c60205260409020600201546242757960e81b141561361a57601a54156133c8576000848152600c6020526040808220600490810154601a5484529190922090910154106134fc576000848152600c602052604080822060048082018054601a8054875285872090930180549190910390558054908590558154855283852065119a5b1b195960d21b6003918201819055908401559054808552928420600690810154948990528201546007830154600284015460019094015492956134b595946001600160a01b03918216948c949092169291889190613b89565b6134ca601c54651b585c9ad95d60d21b6136c5565b83651b585c9ad95d60d21b14156134f6576000858152600c60205260409020600701549250905061361a565b506135cc565b601a80546000908152600c602052604080822060049081015488845282842080830180549290920390915584548452828420909101805490849055845484528284206b14185c9d1b1e519a5b1b195960a21b6003918201819055908301559354808452918320600690810154938990528101546007820154600283015460019093015461359e956001600160a01b03908116948c949091169291889190613b89565b83651b585c9ad95d60d21b14156135ca576000858152600c60205260409020600701549250905061361a565b505b6000848152600c6020526040902060098101546004909101546135ef91906120cd565b6000858152600c602052604090206009810191909155600881015460079091015461338a91906140e9565b9250929050565b60006136308215156004611bc4565b8261363d57506000610a9a565b670de0b6b3a7640000838102906136609085838161365757fe5b04146005611bc4565b82818161366957fe5b04915050610a9a565b60006136818215156004611bc4565b81838161368a57fe5b049392505050565b60006136a18215156004611bc4565b826136ae57506000610a9a565b8160018403816136ba57fe5b046001019050610a9a565b80651b585c9ad95d60d21b141561373657815b601154811015613726576001601154038114156137035760008381526010602052604081205561371e565b60018301600090815260106020526040808220548583529120555b6001016136d8565b5060118054600019019055610fe0565b80641b1a5b5a5d60da1b14156137a657815b601454811015613796576001601454038114156137735760008381526012602052604081205561378e565b60018301600090815260126020526040808220548583529120555b600101613748565b5060148054600019019055610fe0565b8063073746f760e41b1415610fe057815b601754811015613805576001601754038114156137e2576000838152601560205260408120556137fd565b60018301600090815260156020526040808220548583529120555b6001016137b7565b50601780546000190190555050565b60006138238484111583611bc4565b5050900390565b4690565b600073ba1ba1ba1ba1ba1ba1ba1ba1ba1ba1ba1ba1ba1b61384d611632565b6001600160a01b0316141580156138685750613868836140ff565b1561389057613875611632565b6001600160a01b0316336001600160a01b0316149050610a9a565b613898612bd7565b6001600160a01b0316639be2a8848484306040518463ffffffff1660e01b81526004016138c793929190614af5565b60206040518083038186803b1580156138df57600080fd5b505afa1580156138f3573d6000803e3d6000fd5b505050506040513d601f19601f82011682018060405250810190611b789190614558565b64e8d4a5100090565b67016345785d8a000090565b600081806020019051810190611bbd91906148a4565b606060006139508385613621565b9050845167ffffffffffffffff8111801561396a57600080fd5b50604051908082528060200260200182016040528015613994578160200160208202803683370190505b50915060005b85518110156139e8576139c9828783815181106139b357fe5b6020026020010151612e6f90919063ffffffff16565b8382815181106139d557fe5b602090810291909101015260010161399a565b50509392505050565b613a086001600160a01b038316151561019b611bc4565b613a1482600083610b8e565b6001600160a01b038216600090815260208190526040902054613a3a90826101b2613814565b6001600160a01b038316600090815260208190526040902055600254613a609082614131565b6002556040516000906001600160a01b038416907fddf252ad1be2c89b69c2b068fc378daa952ba7f163c4a11628f55a4df523b3ef90613aa1908590614aec565b60405180910390a35050565b6000613abc8215156004611bc4565b82613ac957506000610a9a565b670de0b6b3a764000083810290613ae39085838161365757fe5b826001820381613aef57fe5b04600101915050610a9a565b613b0760008383610b8e565b600254613b1490826120cd565b6002556001600160a01b038216600090815260208190526040902054613b3a90826120cd565b6001600160a01b0383166000818152602081905260408082209390935591519091907fddf252ad1be2c89b69c2b068fc378daa952ba7f163c4a11628f55a4df523b3ef90613aa1908590614aec565b6000826242757960e81b1415613bb157506000888152600c6020526040902060070154613bd4565b826314d95b1b60e21b1415613bd457506000868152600c60205260409020600701545b60008988604051602001613be992919061498b565b60405160208183030381529060405280519060200120905080602060008c81526020019081526020016000208190555080602060008a8152602001908152602001600020819055506040518061014001604052808a6001600160a01b03168152602001886001600160a01b031681526020017f00000000000000000000000000000000000000000000000000000000000000006001600160a01b031681526020018781526020018381526020017f00000000000000000000000000000000000000000000000000000000000000006001600160a01b0316815260200185815260200184815260200186815260200142815250601f600083815260200190815260200160002060008201518160000160006101000a8154816001600160a01b0302191690836001600160a01b0316021790555060208201518160010160006101000a8154816001600160a01b0302191690836001600160a01b0316021790555060408201518160020160006101000a8154816001600160a01b0302191690836001600160a01b03160217905550606082015181600301556080820151816004015560a08201518160050160006101000a8154816001600160a01b0302191690836001600160a01b0316021790555060c0820151816006015560e082015181600701556101008201518160080155610120820151816009015590505060004290507f00000000000000000000000000000000000000000000000000000000000000006001600160a01b03167f156bf7973c4610a54da63e11aee83150e3c726c558bb3a700c5a07f8c89f82268b8a8a877f00000000000000000000000000000000000000000000000000000000000000008c88604051613e6d97969594939291906149f0565b60405180910390a2600a5460405162157d5560e61b81526000916001600160a01b03169063055f554090613ea5908c906004016149dc565b60206040518083038186803b158015613ebd57600080fd5b505afa158015613ed1573d6000803e3d6000fd5b505050506040513d601f19601f82011682018060405250810190613ef59190614590565b600a5460405162157d5560e61b81529192506000916001600160a01b039091169063055f554090613f2a908f906004016149dc565b60206040518083038186803b158015613f4257600080fd5b505afa158015613f56573d6000803e3d6000fd5b505050506040513d601f19601f82011682018060405250810190613f7a9190614590565b9050613f8461419a565b604051806101c001604052808e6001600160a01b031681526020018c6001600160a01b031681526020017f00000000000000000000000000000000000000000000000000000000000000006001600160a01b031681526020016650656e64696e6760c81b81526020018381526020018481526020017f00000000000000000000000000000000000000000000000000000000000000006001600160a01b031681526020018b81526020018a815260200161403e8c8c61413f565b8152602001858152602001306001600160a01b031681526020018f81526020018d8152509050600a60009054906101000a90046001600160a01b03166001600160a01b0316631459945d82876040518363ffffffff1660e01b81526004016140a7929190614ca6565b600060405180830381600087803b1580156140c157600080fd5b505af11580156140d5573d6000803e3d6000fd5b505050505050505050505050505050505050565b60006140f9838311156001611bc4565b50900390565b6000614111631c74c91760e11b6115ba565b821480610a9a57506141296350dd6ed960e01b6115ba565b909114919050565b6000611bbd83836001613814565b6000828202611bbd841580612e8c575083858381612e8957fe5b604080518082019091526000808252602082015290565b60405180608001604052806060815260200160608152602001606081526020016000151581525090565b604080516101c081018252600080825260208201819052918101829052606081018290526080810182905260a0810182905260c0810182905260e08101829052610100810182905261012081018290526101408101829052610160810182905261018081018290526101a081019190915290565b8035610a9a81614dec565b600082601f830112614229578081fd5b813561423c61423782614dc0565b614d99565b81815291506020808301908481018184028601820187101561425d57600080fd5b60005b8481101561427c57813584529282019290820190600101614260565b505050505092915050565b600082601f830112614297578081fd5b81516142a561423782614dc0565b8181529150602080830190848101818402860182018710156142c657600080fd5b60005b8481101561427c578151845292820192908201906001016142c9565b600082601f8301126142f5578081fd5b813567ffffffffffffffff81111561430b578182fd5b61431e601f8201601f1916602001614d99565b915080825283602082850101111561433557600080fd5b8060208401602084013760009082016020015292915050565b803560028110610a9a57600080fd5b60006020828403121561436e578081fd5b8135611bbd81614dec565b6000806040838503121561438b578081fd5b823561439681614dec565b915060208301356143a681614dec565b809150509250929050565b6000806000606084860312156143c5578081fd5b83356143d081614dec565b925060208401356143e081614dec565b929592945050506040919091013590565b600080600080600080600060e0888a03121561440b578283fd5b873561441681614dec565b9650602088013561442681614dec565b95506040880135945060608801359350608088013561444481614e01565b9699959850939692959460a0840135945060c09093013592915050565b60008060408385031215614473578182fd5b823561447e81614dec565b946020939093013593505050565b6000806000606084860312156144a0578081fd5b835167ffffffffffffffff808211156144b7578283fd5b818601915086601f8301126144ca578283fd5b81516144d861423782614dc0565b80828252602080830192508086018b8283870289010111156144f8578788fd5b8796505b8487101561452357805161450f81614dec565b8452600196909601959281019281016144fc565b50890151909750935050508082111561453a578283fd5b5061454786828701614287565b925050604084015190509250925092565b600060208284031215614569578081fd5b81518015158114611bbd578182fd5b600060208284031215614589578081fd5b5035919050565b6000602082840312156145a1578081fd5b5051919050565b600080600080600080600060e0888a0312156145c2578081fd5b8735965060208801356145d481614dec565b955060408801356145e481614dec565b9450606088013567ffffffffffffffff80821115614600578283fd5b61460c8b838c01614219565b955060808a0135945060a08a0135935060c08a013591508082111561462f578283fd5b5061463c8a828b016142e5565b91505092959891949750929550565b6000806040838503121561465d578182fd5b50508035926020909101359150565b600080600060608486031215614680578081fd5b505081359360208301359350604090920135919050565b6000602082840312156146a8578081fd5b81356001600160e01b031981168114611bbd578182fd5b6000602082840312156146d0578081fd5b8151611bbd81614dec565b600080604083850312156146ed578182fd5b82356146f881614dec565b9150602083013567ffffffffffffffff811115614713578182fd5b61471f858286016142e5565b9150509250929050565b6000806000806080858703121561473e578182fd5b843567ffffffffffffffff80821115614755578384fd5b818701915061012080838a03121561476b578485fd5b61477481614d99565b9050614780898461434e565b815261478f896020850161420e565b60208201526147a1896040850161420e565b6040820152606083013560608201526080830135608082015260a083013560a08201526147d18960c0850161420e565b60c08201526147e38960e0850161420e565b60e082015261010080840135838111156147fb578687fd5b6148078b8287016142e5565b828401525050809650506020870135915080821115614824578384fd5b5061483187828801614219565b949794965050505060408301359260600135919050565b6000806000806080858703121561485d578182fd5b845193506020850151925060408501519150606085015161487d81614dec565b939692955090935050565b600060208284031215614899578081fd5b8151611bbd81614e01565b600080604083850312156148b6578182fd5b82516148c181614e01565b6020939093015192949293505050565b6001600160a01b03169052565b6000815180845260208085019450808401835b8381101561490d578151875295820195908201906001016148f1565b509495945050505050565b15159052565b60008151808452815b8181101561494357602081850181015186830182015201614927565b818111156149545782602083870101525b50601f01601f19169290920160200192915050565b60609290921b6bffffffffffffffffffffffff19168252601482015260340190565b918252602082015260400190565b9182526001600160e01b031916602082015260240190565b6000828483379101908152919050565b61190160f01b81526002810192909252602282015260420190565b6001600160a01b0391909116815260200190565b6001600160a01b039788168152958716602087015260408601949094526060850192909252909316608083015260a08201929092526650656e64696e6760c81b60c082015260e08101919091526101000190565b6020808252825182820181905260009190848201906040850190845b81811015614a7c57835183529284019291840191600101614a60565b50909695505050505050565b600060208252611bbd60208301846148de565b600060408252614aae60408301856148de565b8281036020840152614ac081856148de565b95945050505050565b901515815260200190565b92151583526020830191909152604082015260600190565b90815260200190565b9283526001600160a01b03918216602084015216604082015260600190565b8481526001600160a01b038481166020808401919091529084166040830152608060608301819052835181840191909152805161010084018190526000929182019083906101208601905b80831015614b8757614b718451614de0565b8252928401926001929092019190840190614b5f565b50838701519350607f199250828682030160a0870152614ba781856148de565b935050506040850151818584030160c0860152614bc4838261491e565b925050506060840151614bda60e0850182614918565b509695505050505050565b9586526001600160a01b0394851660208701529290931660408501526060840152608083019190915260a082015260c00190565b9485526020850193909352604084019190915260608301526001600160a01b0316608082015260a00190565b6000838252604060208301526120ff604083018461491e565b9182526001600160a01b0316602082015260400190565b93845260ff9290921660208401526040830152606082015260800190565b600060208252611bbd602083018461491e565b60006101e082019050614cba8285516148d1565b6020840151614ccc60208401826148d1565b506040840151614cdf60408401826148d1565b50606084015160608301526080840151608083015260a084015160a083015260c0840151614d1060c08401826148d1565b5060e0848101519083015261010080850151908301526101208085015190830152610140808501519083015261016080850151614d4f828501826148d1565b505061018084810151908301526101a093840151938201939093526101c0015290565b6000838252604060208301526120ff60408301846148de565b60ff91909116815260200190565b60405181810167ffffffffffffffff81118282101715614db857600080fd5b604052919050565b600067ffffffffffffffff821115614dd6578081fd5b5060209081020190565b6001600160a01b031690565b6001600160a01b0381168114610ef057600080fd5b60ff81168114610ef057600080fdfea264697066735822122096b0d57a6d33168e93d9c8e0c7a7f36c90b1fb2434adbb7b7a36c4dbae91cec564736f6c63430007010033",
  "linkReferences": {},
  "deployedLinkReferences": {}
}