{
  "_format": "hh-sol-artifact-1",
  "contractName": "SecondaryIssuePoolFactory",
  "sourceName": "contracts/SecondaryIssuePoolFactory.sol",
  "abi": [
    {
      "inputs": [
        {
          "internalType": "contract IVault",
          "name": "vault",
          "type": "address"
        },
        {
          "internalType": "contract IProtocolFeePercentagesProvider",
          "name": "protocolFeeProvider",
          "type": "address"
        }
      ],
      "stateMutability": "nonpayable",
      "type": "constructor"
    },
    {
      "anonymous": false,
      "inputs": [],
      "name": "FactoryDisabled",
      "type": "event"
    },
    {
      "anonymous": false,
      "inputs": [
        {
          "indexed": true,
          "internalType": "address",
          "name": "pool",
          "type": "address"
        }
      ],
      "name": "PoolCreated",
      "type": "event"
    },
    {
      "inputs": [
        {
          "internalType": "string",
          "name": "_name",
          "type": "string"
        },
        {
          "internalType": "string",
          "name": "_symbol",
          "type": "string"
        },
        {
          "internalType": "address",
          "name": "_security",
          "type": "address"
        },
        {
          "internalType": "address",
          "name": "_currency",
          "type": "address"
        },
        {
          "internalType": "uint256",
          "name": "_maxAmountsIn",
          "type": "uint256"
        },
        {
          "internalType": "uint256",
          "name": "_tradeFeePercentage",
          "type": "uint256"
        }
      ],
      "name": "create",
      "outputs": [
        {
          "internalType": "address",
          "name": "",
          "type": "address"
        }
      ],
      "stateMutability": "nonpayable",
      "type": "function"
    },
    {
      "inputs": [],
      "name": "disable",
      "outputs": [],
      "stateMutability": "nonpayable",
      "type": "function"
    },
    {
      "inputs": [
        {
          "internalType": "bytes4",
          "name": "selector",
          "type": "bytes4"
        }
      ],
      "name": "getActionId",
      "outputs": [
        {
          "internalType": "bytes32",
          "name": "",
          "type": "bytes32"
        }
      ],
      "stateMutability": "view",
      "type": "function"
    },
    {
      "inputs": [],
      "name": "getAuthorizer",
      "outputs": [
        {
          "internalType": "contract IAuthorizer",
          "name": "",
          "type": "address"
        }
      ],
      "stateMutability": "view",
      "type": "function"
    },
    {
      "inputs": [],
      "name": "getCreationCode",
      "outputs": [
        {
          "internalType": "bytes",
          "name": "",
          "type": "bytes"
        }
      ],
      "stateMutability": "view",
      "type": "function"
    },
    {
      "inputs": [],
      "name": "getCreationCodeContracts",
      "outputs": [
        {
          "internalType": "address",
          "name": "contractA",
          "type": "address"
        },
        {
          "internalType": "address",
          "name": "contractB",
          "type": "address"
        }
      ],
      "stateMutability": "view",
      "type": "function"
    },
    {
      "inputs": [],
      "name": "getPauseConfiguration",
      "outputs": [
        {
          "internalType": "uint256",
          "name": "pauseWindowDuration",
          "type": "uint256"
        },
        {
          "internalType": "uint256",
          "name": "bufferPeriodDuration",
          "type": "uint256"
        }
      ],
      "stateMutability": "view",
      "type": "function"
    },
    {
      "inputs": [],
      "name": "getProtocolFeePercentagesProvider",
      "outputs": [
        {
          "internalType": "contract IProtocolFeePercentagesProvider",
          "name": "",
          "type": "address"
        }
      ],
      "stateMutability": "view",
      "type": "function"
    },
    {
      "inputs": [],
      "name": "getVault",
      "outputs": [
        {
          "internalType": "contract IVault",
          "name": "",
          "type": "address"
        }
      ],
      "stateMutability": "view",
      "type": "function"
    },
    {
      "inputs": [],
      "name": "isDisabled",
      "outputs": [
        {
          "internalType": "bool",
          "name": "",
          "type": "bool"
        }
      ],
      "stateMutability": "view",
      "type": "function"
    },
    {
      "inputs": [
        {
          "internalType": "address",
          "name": "pool",
          "type": "address"
        }
      ],
      "name": "isPoolFromFactory",
      "outputs": [
        {
          "internalType": "bool",
          "name": "",
          "type": "bool"
        }
      ],
      "stateMutability": "view",
      "type": "function"
    }
  ],
  "bytecode": "0x6101806040523480156200001257600080fd5b5060405162006625380380620066258339810160408190526200003591620001fc565b8181604051806020016200004990620001ee565b601f1982820381018352601f90910116604052805183903090839060006002820460a081905280830360e08190528185529091508362000095816200010f602090811b6200043717901c565b60601b6001600160601b0319166080528285018051838252620000c4826200010f602090811b6200043717901c565b6001600160601b0319606091821b811660c05296909352905261010095909552505092821b831661012052509290921b90911661014052505050426276a70001610160525062000250565b80517f602038038060206000396000f3fefefefefefefefefefefefefefefefefefefe808352600091602081018484f090845291506200015d6001600160a01b03831615156101ac62000163565b50919050565b816200017457620001748162000178565b5050565b6200018a816210905360ea1b6200018d565b50565b62461bcd60e51b600090815260206004526007602452600a808404818106603090810160081b958390069590950190829004918206850160101b01602363ffffff0060e086901c160160181b0190930160c81b60445260e882901c90606490fd5b61589b8062000d8a83390190565b600080604083850312156200020f578182fd5b82516200021c816200023a565b60208401519092506200022f816200023a565b809150509250929050565b6001600160a01b03811681146200018a57600080fd5b60805160601c60a05160c05160601c60e051610100516101205160601c6101405160601c61016051610ac1620002c9600039806101ec52806102155250806102c052508061039b52508061034b5250806104915250806101c3528061050d5250806104b25250806101a252806104e95250610ac16000f3fe608060405234801561001057600080fd5b50600436106100a85760003560e01c80636c57f5a9116100715780636c57f5a914610121578063739238d61461012957806374dcc7a41461013e578063851c1bb3146101515780638d928af814610171578063aaabadc514610179576100a8565b8062c194db146100ad578063174481fa146100cb5780632da47c40146100e15780632f2770db146100f75780636634b75314610101575b600080fd5b6100b5610181565b6040516100c2919061098e565b60405180910390f35b6100d36101a0565b6040516100c2929190610941565b6100e96101e6565b6040516100c2929190610a68565b6100ff610250565b005b61011461010f3660046107c7565b610297565b6040516100c2919061095b565b6101146102b5565b6101316102be565b6040516100c2919061092d565b61013161014c366004610847565b6102e2565b61016461015f366004610803565b610347565b6040516100c29190610966565b610131610399565b6101316103bd565b606061019b60405180602001604052806000815250610489565b905090565b7f00000000000000000000000000000000000000000000000000000000000000007f00000000000000000000000000000000000000000000000000000000000000009091565b600080427f000000000000000000000000000000000000000000000000000000000000000081101561024257807f000000000000000000000000000000000000000000000000000000000000000003925062278d00915061024b565b60009250600091505b509091565b610258610562565b610260610593565b6001805460ff1916811790556040517f432acbfd662dbb5d8b378384a67159b47ca9d0f1b79f97cf64cf8585fa362d5090600090a1565b6001600160a01b031660009081526020819052604090205460ff1690565b60015460ff1690565b7f000000000000000000000000000000000000000000000000000000000000000090565b60008060006102ef6101e6565b915091506103386102fe610399565b8c8c8c8c8c8c8c8c8b8b336040516020016103249c9b9a999897969594939291906109e1565b6040516020818303038152906040526105a8565b9b9a5050505050505050505050565b60007f00000000000000000000000000000000000000000000000000000000000000008260405160200161037c929190610915565b604051602081830303815290604052805190602001209050919050565b7f000000000000000000000000000000000000000000000000000000000000000090565b60006103c7610399565b6001600160a01b031663aaabadc56040518163ffffffff1660e01b815260040160206040518083038186803b1580156103ff57600080fd5b505afa158015610413573d6000803e3d6000fd5b505050506040513d601f19601f8201168201806040525081019061019b919061082b565b80517f602038038060206000396000f3fefefefefefefefefefefefefefefefefefefe808352600091602081018484f090845291506104836001600160a01b03831615156101ac610611565b50919050565b8051604080517f00000000000000000000000000000000000000000000000000000000000000007f0000000000000000000000000000000000000000000000000000000000000000818101858101848101602090810190965280855293957f00000000000000000000000000000000000000000000000000000000000000009592947f000000000000000000000000000000000000000000000000000000000000000094938801866000828a3c846000888301883c5060208981019089850101610554818386610623565b505050505050505050919050565b60006105796000356001600160e01b031916610347565b90506105906105888233610661565b610191610611565b50565b6105a661059e6102b5565b1560d3610611565b565b60006105b2610593565b60006105bd836106f1565b6001600160a01b038116600081815260208190526040808220805460ff191660011790555192935090917f83a48fbcfc991335314e74d0496aab6a1987e992ddc85dddbcc4d6dd6ef2e9fc9190a292915050565b8161061f5761061f81610725565b5050565b5b60208110610643578151835260209283019290910190601f1901610624565b905182516020929092036101000a6000190180199091169116179052565b600061066b6103bd565b6001600160a01b0316639be2a8848484306040518463ffffffff1660e01b815260040161069a9392919061096f565b60206040518083038186803b1580156106b257600080fd5b505afa1580156106c6573d6000803e3d6000fd5b505050506040513d601f19601f820116820180604052508101906106ea91906107e3565b9392505050565b600060606106fe83610489565b905060008151602083016000f090506001600160a01b0381166106ea573d6000803e3d6000fd5b62461bcd60e51b600090815260206004526007602452600a808304818106603090810160081b83860601918390049283060160101b016642414c230000300160c81b604452610590916210905360ea1b906242414c90606490fd5b60008083601f840112610791578182fd5b50813567ffffffffffffffff8111156107a8578182fd5b6020830191508360208285010111156107c057600080fd5b9250929050565b6000602082840312156107d8578081fd5b81356106ea81610a76565b6000602082840312156107f4578081fd5b815180151581146106ea578182fd5b600060208284031215610814578081fd5b81356001600160e01b0319811681146106ea578182fd5b60006020828403121561083c578081fd5b81516106ea81610a76565b60008060008060008060008060c0898b031215610862578384fd5b883567ffffffffffffffff80821115610879578586fd5b6108858c838d01610780565b909a50985060208b013591508082111561089d578586fd5b506108aa8b828c01610780565b90975095505060408901356108be81610a76565b935060608901356108ce81610a76565b979a969950949793969295929450505060808201359160a0013590565b60008284528282602086013780602084860101526020601f19601f85011685010190509392505050565b9182526001600160e01b031916602082015260240190565b6001600160a01b0391909116815260200190565b6001600160a01b0392831681529116602082015260400190565b901515815260200190565b90815260200190565b9283526001600160a01b03918216602084015216604082015260600190565b6000602080835283518082850152825b818110156109ba5785810183015185820160400152820161099e565b818111156109cb5783604083870101525b50601f01601f1916929092016040019392505050565b6001600160a01b038d16815261014060208201819052600090610a079083018d8f6108eb565b8281036040840152610a1a818c8e6108eb565b6001600160a01b039a8b166060850152988a166080840152505060a081019590955260c085019390935260e08401919091526101008301529092166101209092019190915295945050505050565b918252602082015260400190565b6001600160a01b038116811461059057600080fdfea264697066735822122068225173eb0591673d93e1ed8293027a9fc09f72cca7c5cbdb8e9053ecae33d564736f6c63430007010033610260604052600a805460ff60a01b1916600160a01b17905560006019819055601b819055601c553480156200003457600080fd5b506040516200589b3803806200589b8339810160408190526200005791620009cc565b8960008a8a620000698b8b306200040b565b6040805160038082526080820190925290602082016060803683370190505089898989828289898d85336001600160a01b031660001b8480604051806040016040528060018152602001603160f81b81525087878160039080519060200190620000d59291906200083d565b508051620000eb9060049060208401906200083d565b50506005805460ff19166012179055508151602092830120608052805191012060a052507f8b73c3c69bb8fe3d512ecc4cf759cc79239f7b179b0ffacaa9a75d522b39400f60c05260e0526001600160601b0319606091821b81166101005291901b1661012052506200016990506276a700831115610194620004da565b6200017d62278d00821115610195620004da565b42909101610140819052016101605285516200019f906002111560c8620004da565b620001b9620001ad620004ef565b8751111560c9620004da565b620001cf86620004f460201b62001a9b1760201c565b620001da8462000500565b6040516309b2760f60e01b81526000906001600160a01b038c16906309b2760f906200020b908d9060040162000b47565b602060405180830381600087803b1580156200022657600080fd5b505af11580156200023b573d6000803e3d6000fd5b505050506040513d601f19601f820116820180604052508101906200026191906200098d565b604051633354e3e960e11b81529091506001600160a01b038c16906366a9c7d290620002969084908b908b9060040162000aab565b600060405180830381600087803b158015620002b157600080fd5b505af1158015620002c6573d6000803e3d6000fd5b505050508061018081815250508a6001600160a01b031663d2946c2b6040518163ffffffff1660e01b815260040160206040518083038186803b1580156200030d57600080fd5b505afa15801562000322573d6000803e3d6000fd5b505050506040513d601f19601f82011682018060405250810190620003489190620009a6565b6001600160a01b03166101a0816001600160a01b031660601b815250505050505050505050505050866001600160a01b03166101c0816001600160a01b031660601b81525050856001600160a01b03166101e0816001600160a01b031660601b815250506000806000620003c48a8a306200059460201b60201c565b6102005261022091909152610240525050506009949094555050600a80546001600160a01b0319166001600160a01b03909316929092179091555062000b87945050505050565b6060600080806200041e87878762000594565b60408051600380825260808201909252939650919450925060208201606080368337019050509350868484815181106200045457fe5b60200260200101906001600160a01b031690816001600160a01b031681525050858483815181106200048257fe5b60200260200101906001600160a01b031690816001600160a01b03168152505084848281518110620004b057fe5b60200260200101906001600160a01b031690816001600160a01b0316815250505050509392505050565b81620004eb57620004eb816200068a565b5050565b600390565b80620004eb816200069f565b620005196200050e6200072b565b82101560cb620004da565b620005326200052762000734565b82111560ca620004da565b620005548160c0603f6008546200074060201b62001aa517909392919060201c565b6008556040517fa9ba3ffe0b6c366b81232caab38605a0699ad5398d6cce76f91ee809e322dafc906200058990839062000b5c565b60405180910390a150565b6000806000846001600160a01b0316866001600160a01b031610156200061d57836001600160a01b0316856001600160a01b03161015620005e057506000915060019050600262000681565b836001600160a01b0316866001600160a01b031610156200060c57506000915060029050600162000681565b506001915060029050600062000681565b846001600160a01b0316846001600160a01b031610156200064957506002915060019050600062000681565b856001600160a01b0316846001600160a01b031610156200067557506002915060009050600162000681565b50600191506000905060025b93509350939050565b6200069c816210905360ea1b62000765565b50565b600281511015620006b0576200069c565b600081600081518110620006c057fe5b602002602001015190506000600190505b825181101562000726576000838281518110620006ea57fe5b602002602001015190506200071b816001600160a01b0316846001600160a01b0316106065620004da60201b60201c565b9150600101620006d1565b505050565b64e8d4a5100090565b67016345785d8a000090565b60006200074f848484620007c6565b506001901b60001901811b1992909216911b1790565b62461bcd60e51b600090815260206004526007602452600a808404818106603090810160081b958390069590950190829004918206850160101b01602363ffffff0060e086901c160160181b0190930160c81b60445260e882901c90606490fd5b620007d761010083106064620004da565b62000810600182101580156200080857506200080460ff84610100036200082160201b62001ac81760201c565b8211155b6064620004da565b6200072683821c156101b4620004da565b600081831062000832578162000834565b825b90505b92915050565b828054600181600116156101000203166002900490600052602060002090601f016020900481019282601f106200088057805160ff1916838001178555620008b0565b82800160010185558215620008b0579182015b82811115620008b057825182559160200191906001019062000893565b50620008be929150620008c2565b5090565b5b80821115620008be5760008155600101620008c3565b8051620008378162000b71565b600082601f830112620008f7578081fd5b81516001600160401b03808211156200090e578283fd5b6040516020601f8401601f191682018101838111838210171562000930578586fd5b806040525081945083825286818588010111156200094d57600080fd5b600092505b8383101562000971578583018101518284018201529182019162000952565b83831115620009835760008185840101525b5050505092915050565b6000602082840312156200099f578081fd5b5051919050565b600060208284031215620009b8578081fd5b8151620009c58162000b71565b9392505050565b6000806000806000806000806000806101408b8d031215620009ec578586fd5b620009f88c8c620008d9565b60208c0151909a506001600160401b038082111562000a15578788fd5b62000a238e838f01620008e6565b9a5060408d015191508082111562000a39578788fd5b5062000a488d828e01620008e6565b98505062000a5a8c60608d01620008d9565b965062000a6b8c60808d01620008d9565b955060a08b0151945060c08b0151935060e08b015192506101008b0151915062000a9a8c6101208d01620008d9565b90509295989b9194979a5092959850565b60006060820185835260206060818501528186518084526080860191508288019350845b8181101562000af75762000ae4855162000b65565b8352938301939183019160010162000acf565b505084810360408601528551808252908201925081860190845b8181101562000b395762000b26835162000b65565b8552938301939183019160010162000b11565b509298975050505050505050565b602081016003831062000b5657fe5b91905290565b90815260200190565b6001600160a01b031690565b6001600160a01b03811681146200069c57600080fd5b60805160a05160c05160e0516101005160601c6101205160601c6101405161016051610180516101a05160601c6101c05160601c6101e05160601c610200516102205161024051614c0762000c94600039806107bb52806109035280611b735280611e435250806107ff5280611b325280611e9052508061135c5280611bb45280612ca65250806106df52806108bf52806110045280613e2a5280613fcb525080610777528061092e5280610e64528061144a52806116d352806117785280613def5280613f7c525080611884525080610eb752508061248852508061246452508061160a5250806115e6525080611570525080612d26525080612d68525080612d475250614c076000f3fe608060405234801561001057600080fd5b50600436106102a05760003560e01c80637489ec231161016757806395d89b41116100ce578063b7b814fc11610087578063b7b814fc1461057b578063d2946c2b14610583578063d505accf1461058b578063d5c096c41461059e578063dd62ed3e146105b1578063ed24911d146105c4576102a0565b806395d89b411461051c578063a3b1379914610524578063a457c2d714610545578063a9059cbb14610558578063aaabadc51461056b578063b35056b814610573576102a0565b8063851c1bb311610120578063851c1bb3146104cb57806387ec6817146104de578063893d20e8146104f15780638d928af8146104f957806390193b7c1461050157806395c95a4f14610514576102a0565b80637489ec231461046157806374f3b009146104745780637ecebe00146104955780638129fc1c146104a857806382fce88f146104b05780638456cb59146104c3576102a0565b80633644e5151161020b57806350dd6ed9116101c457806350dd6ed91461040257806354a844ba1461041557806355c676281461041d5780636028bfd4146104255780636945c1fd1461044657806370a082311461044e576102a0565b80633644e515146103af57806338e9922e146103b757806338fff2d0146103ca57806339509351146103d25780633f4ba83a146103e557806346b8b730146103ed576102a0565b80631c0de0511161025d5780631c0de051146103335780631dd746ea1461034a5780631f0404801461035f57806323b872dd146103725780632541897f14610385578063313ce5671461039a576102a0565b806301ec954a146102a557806306fdde03146102ce578063095ea7b3146102e35780630c8605be1461030357806313ce45461461031857806318160ddd1461032b575b600080fd5b6102b86102b33660046145c3565b6105cc565b6040516102c59190614979565b60405180910390f35b6102d66109b5565b6040516102c59190614b20565b6102f66102f1366004614313565b610a4b565b6040516102c59190614956565b610316610311366004614506565b610a62565b005b6103166103263660046144e5565b610b55565b6102b8610d30565b61033b610d36565b6040516102c593929190614961565b610352610d5f565b6040516102c59190614915565b61031661036d366004614506565b610d6e565b6102f6610380366004614263565b610dee565b61038d610e62565b6040516102c59190614869565b6103a2610e86565b6040516102c59190614b4c565b6102b8610e8f565b6103166103c536600461442a565b610e99565b6102b8610eb5565b6102f66103e0366004614313565b610ed9565b610316610f14565b6103f5610f28565b6040516102c591906148d1565b610316610410366004614575565b610f88565b610316610fa6565b6102b8610fb8565b610438610433366004614442565b610fcb565b6040516102c5929190614b33565b61038d611002565b6102b861045c36600461420f565b611026565b61031661046f36600461442a565b611045565b610487610482366004614442565b611186565b6040516102c5929190614928565b6102b86104a336600461420f565b611289565b610316611294565b6103166104be366004614506565b6114b1565b61031661155a565b6102b86104d9366004614531565b61156c565b6104386104ec366004614442565b6115be565b61038d6115e4565b61038d611608565b6102b861050f36600461420f565b61162c565b6102b8611647565b6102d661164d565b61053761053236600461442a565b6116ae565b6040516102c5929190614818565b6102f6610553366004614313565b61180a565b6102f6610566366004614313565b611848565b61038d611855565b6102f661185f565b610316611870565b61038d611882565b6103166105993660046142a3565b6118a6565b6104876105ac366004614442565b611931565b6102b86105bf36600461422b565b611a54565b6102b8611a91565b600084608001516105f96105de611608565b6001600160a01b0316336001600160a01b03161460cd611ae0565b61060e610604610eb5565b82146101f4611ae0565b610616611aee565b6060610620611b01565b90506000610632886101000151611bed565b9050600061064a61064583836001611c0b565b611c9c565b905061065461407f565b6040805180820190915280610675610670866001878101611c0b565b611bed565b8152602001610698610645858e61010001515188611c0b9092919063ffffffff16565b90529050600080808c5160018111156106ad57fe5b141561088b576106d48c60600151878c815181106106c757fe5b6020026020010151611d3e565b8c60600181815250507f00000000000000000000000000000000000000000000000000000000000000006001600160a01b03168c604001516001600160a01b031614156107755761072e8c846314d95b1b60e21b8e611d4a565b84519093509091506513585c9ad95d60d21b14156107705761076381878b8151811061075657fe5b6020026020010151612081565b97505050505050506109ac565b610886565b7f00000000000000000000000000000000000000000000000000000000000000006001600160a01b03168c604001516001600160a01b031614156108865760006107f68c7f0000000000000000000000000000000000000000000000000000000000000000815181106107e457fe5b60200260200101518e6060015161208d565b9050610837818d7f00000000000000000000000000000000000000000000000000000000000000008151811061082857fe5b6020026020010151600061209f565b60608e015261084e8d856242757960e81b8f611d4a565b85519094509092506513585c9ad95d60d21b14156108845761087683888c8151811061075657fe5b9850505050505050506109ac565b505b6109a5565b60018c51600181111561089a57fe5b14156109a5576108b48c60600151878b815181106106c757fe5b8c60600181815250507f00000000000000000000000000000000000000000000000000000000000000006001600160a01b03168c602001516001600160a01b0316141561092c5760006107f68c7f0000000000000000000000000000000000000000000000000000000000000000815181106107e457fe5b7f00000000000000000000000000000000000000000000000000000000000000006001600160a01b03168c602001516001600160a01b031614156109a55761097d8c846314d95b1b60e21b8e611d4a565b84519093509091506513585c9ad95d60d21b14156109a55761076381878b8151811061075657fe5b5050505050505b50949350505050565b60038054604080516020601f6002600019610100600188161502019095169490940493840181900481028201810190925282815260609390929091830182828015610a415780601f10610a1657610100808354040283529160200191610a41565b820191906000526020600020905b815481529060010190602001808311610a2457829003601f168201915b5050505050905090565b6000610a583384846120c7565b5060015b92915050565b6000838152600c60205260409020600301546327b832b760e11b14610a8657600080fd5b6000838152600c60205260409020600601546001600160a01b0316331415610b50576000838152600c6020526040902060078101839055600481018290554260058201556001015464131a5b5a5d60da1b1415610b09576000838152600c6020908152604080832054835260129091529020839055610b048261212f565b610b50565b6000838152600c602052604090206001015463053746f760e41b1415610b50576000838152600c6020908152604080832054835260159091529020839055610b50826122bc565b505050565b600a546001600160a01b03163314610b6c57600080fd5b6000828152600c60209081526040808320600601546001600160a01b03168352600e8252808320858452600f9092529091205481548110610ba957fe5b60009182526020808320909101829055838252600f81526040808320839055600c825280832083815560018101849055600281018490556003810184905560048101849055600581018490556006810180546001600160a01b03191690556007810184905560088101849055600901839055600d909152902054600b80549091908110610c3257fe5b60009182526020808320909101829055838252600d81526040808320839055838352600c8252808320600601546001600160a01b03168352600e8252808320848452600f9092529091205481548110610c8757fe5b60009182526020808320909101829055828252600f81526040808320839055600c825280832083815560018101849055600281018490556003810184905560048101849055600581018490556006810180546001600160a01b03191690556007810184905560088101849055600901839055600d909152902054600b80549091908110610d1057fe5b60009182526020808320909101829055918152600d909152604081205550565b60025490565b6000806000610d43612445565b159250610d4e612462565b9150610d58612486565b9050909192565b6060610d69611b01565b905090565b806242757960e81b1480610d885750806314d95b1b60e21b145b610d9157600080fd5b600a546001600160a01b03163314610da857600080fd5b506000828152600c602090815260408083206004810180549095019094556327b832b760e11b6003850155600b5493849055928252601090522055601180546001019055565b600080610dfb8533611a54565b9050610e1f336001600160a01b0387161480610e175750838210155b61019e611ae0565b610e2a8585856124aa565b336001600160a01b03861614801590610e4557506000198114155b15610e5757610e5785338584036120c7565b506001949350505050565b7f000000000000000000000000000000000000000000000000000000000000000090565b60055460ff1690565b6000610d69611a91565b610ea161258a565b610ea9611aee565b610eb2816125b8565b50565b7f000000000000000000000000000000000000000000000000000000000000000090565b3360008181526001602090815260408083206001600160a01b03871684529091528120549091610a58918590610f0f908661208d565b6120c7565b610f1c61258a565b610f266000612631565b565b336000908152600e6020908152604091829020805483518184028101840190945280845260609392830182828015610a4157602002820191906000526020600020905b815481526020019060010190808311610f6b575050505050905090565b610f9061258a565b610f98611aee565b610fa282826126a4565b5050565b610fae61258a565b610f266001612799565b600854600090610d699060c0603f6127f0565b60006060610fe18651610fdc6127ff565b612804565b610ff68989898989898961281161282d61289c565b97509795505050505050565b7f000000000000000000000000000000000000000000000000000000000000000090565b6001600160a01b0381166000908152602081905260409020545b919050565b6000818152600c60205260409020600601546001600160a01b0316331461106b57600080fd5b6000818152600c602090815260408083208054845260108352818420849055805484526013835281842084905580548452601283528184208490558054845260168352818420849055805484526015835281842084905584845283815560018101849055600281018490556003810184905560048101849055600581018490556006810180546001600160a01b03191690556007810184905560088101849055600901839055600d909152902054600b8054909190811061112857fe5b60009182526020808320909101829055828252600d81526040808320839055338352600e8252808320848452600f909252909120548154811061116757fe5b60009182526020808320909101829055918152600f9091526040812055565b606080886111956105de611608565b6111a0610604610eb5565b606060006111ad866129c6565b156111d5576111ba6129f5565b6111cc896111c6610d30565b88612a08565b92509050611227565b6111dd612a34565b60606111e7611b01565b90506111f38a82612a3c565b6112178d8d8d8d8d61120361185f565b61120d578d611210565b60005b878e612811565b93509150611225838261282d565b505b6112318b82612aa5565b81895167ffffffffffffffff8111801561124a57600080fd5b50604051908082528060200260200182016040528015611274578160200160208202803683370190505b509450945050505b5097509795505050505050565b6000610a5c8261162c565b600061129e610eb5565b905060606112aa611608565b6001600160a01b031663f94d4668836040518263ffffffff1660e01b81526004016112d59190614979565b60006040518083038186803b1580156112ed57600080fd5b505afa158015611301573d6000803e3d6000fd5b505050506040513d6000823e601f3d908101601f19168201604052611329919081019061433e565b505060408051600380825260808201909252919250606091906020820183803683370190505090506001600160701b03817f00000000000000000000000000000000000000000000000000000000000000008151811061138557fe5b602002602001018181525050611399614096565b60405180608001604052806113ad85612aaf565b81526020018381526020016040518060200160405280600081525081526020016000151581525090506113de611608565b6001600160a01b031663b95cac286113f4610eb5565b3030856040518563ffffffff1660e01b815260040161141694939291906149a1565b600060405180830381600087803b15801561143057600080fd5b505af1158015611444573d6000803e3d6000fd5b505050507f00000000000000000000000000000000000000000000000000000000000000006001600160a01b03167ff1f17f1a9edc53df960a0bec0dc86cb2bf5606c7826b3b8e701e70c91c28aa2a6009546040516114a39190614979565b60405180910390a250505050565b600a546001600160a01b031633146114c857600080fd5b6000928352601f6020908152604080852080546001600160a01b0319908116825560018201805482169055600282018054821690556003808301889055600483018890556005830180549092169091556006820187905560078201879055600882018790556009909101869055938552600c90915280842065119a5b1b195960d21b9084018190559184529092200155565b61156261258a565b610f266001612631565b60007f0000000000000000000000000000000000000000000000000000000000000000826040516020016115a1929190614826565b604051602081830303815290604052805190602001209050919050565b600060606115cf8651610fdc6127ff565b610ff689898989898989612811612ab261289c565b7f000000000000000000000000000000000000000000000000000000000000000090565b7f000000000000000000000000000000000000000000000000000000000000000090565b6001600160a01b031660009081526006602052604090205490565b60095490565b60048054604080516020601f6002600019610100600188161502019095169490940493840181900481028201810190925282815260609390929091830182828015610a415780601f10610a1657610100808354040283529160200191610a41565b600081815260208080526040808320548352601f9091528120600201548190819081907f00000000000000000000000000000000000000000000000000000000000000006001600160a01b03908116911614801561172d5750600085815260208080526040808320548352601f9091529020600601546242757960e81b145b15611759575050600083815260208080526040808320548352601f909152902060038101546004909101545b600085815260208080526040808320548352601f9091529020600201547f00000000000000000000000000000000000000000000000000000000000000006001600160a01b0390811691161480156117d35750600085815260208080526040808320548352601f9091529020600601546314d95b1b60e21b145b15611800575050600083815260208080526040808320548352601f90915290206003810154600490910154905b9092509050915091565b6000806118173385611a54565b90508083106118315761182c338560006120c7565b61183e565b61183e33858584036120c7565b5060019392505050565b6000610a583384846124aa565b6000610d69612b1b565b600854600090610d699060ff612b95565b61187861258a565b610f266000612799565b7f000000000000000000000000000000000000000000000000000000000000000090565b60007f6e71edae12b1b97f4d1f60370fef10105fa2faae0126114a169c64845d6126c98888886118d58c61162c565b896040516020016118eb96959493929190614a72565b60405160208183030381529060405280519060200120905061191c8882611913878787612b9f565b886101f8612bde565b6119278888886120c7565b5050505050505050565b606080886119406105de611608565b61194b610604610eb5565b611953612a34565b606061195d611b01565b9050611967610d30565b611a14576000606061197c8d8d8d868b612c35565b9150915061199561198b612ce8565b83101560cc611ae0565b6119a760006119a2612ce8565b612ced565b6119ba8b6119b3612ce8565b8403612ced565b6119c48184612ab2565b808a5167ffffffffffffffff811180156119dd57600080fd5b50604051908082528060200260200182016040528015611a07578160200160208202803683370190505b509550955050505061127c565b611a1e8882612a3c565b60006060611a468d8d8d8d8d611a3261185f565b611a3c578d611a3f565b60005b898e612811565b915091506119ba8b83612ced565b6000611a5e611608565b6001600160a01b0316826001600160a01b03161415611a805750600019610a5c565b611a8a8383612cf7565b9050610a5c565b6000610d69612d22565b80610fa281612dbf565b6000611ab2848484612e38565b506001901b60001901811b1992909216911b1790565b6000818310611ad75781611ad9565b825b9392505050565b81610fa257610fa281612e7f565b610f26611af9612445565b610192611ae0565b60408051600380825260808201909252606091829190602082018380368337019050509050670de0b6b3a7640000817f000000000000000000000000000000000000000000000000000000000000000081518110611b5b57fe5b602002602001018181525050670de0b6b3a7640000817f000000000000000000000000000000000000000000000000000000000000000081518110611b9c57fe5b602002602001018181525050670de0b6b3a7640000817f000000000000000000000000000000000000000000000000000000000000000081518110611bdd57fe5b6020908102919091010152905090565b80516000908290611c02575060009050611040565b50506020015190565b60608083830367ffffffffffffffff81118015611c2757600080fd5b506040519080825280601f01601f191660200182016040528015611c52576020820181803683370190505b509050835b838110156109ac57858160208110611c6b57fe5b1a60f81b8286830381518110611c7d57fe5b60200101906001600160f81b031916908160001a905350600101611c57565b600080828180805b8351811015611d33576030848281518110611cbb57fe5b016020015160f81c10801590611ce557506039848281518110611cda57fe5b016020015160f81c11155b15611d26578291506030848281518110611cfb57fe5b602001015160f81c60f81b60f81c60ff160383600a0201925082821115611d2157600194505b611d2b565b600194505b600101611ca4565b509095945050505050565b6000611ad98383612e8f565b60008084600001516513585c9ad95d60d21b1480611d705750845164131a5b5a5d60da1b145b80611d825750845163053746f760e41b145b611d8b57600080fd5b836242757960e81b1480611da55750836314d95b1b60e21b145b611dae57600080fd5b60008660c0015142604051602001611dc79291906147f6565b60408051808303601f19018152918152815160209283012060c08a01516000828152600c8552929092206006810180546001600160a01b0319166001600160a01b0390941693909317909255918801516007820155600b54815560608901516004820155600281018790558751600190910155845190915084907f0000000000000000000000000000000000000000000000000000000000000000908110611e6b57fe5b6020026020010151600c600083815260200190815260200160002060080181905550837f000000000000000000000000000000000000000000000000000000000000000081518110611eb957fe5b6020908102919091018101516000838152600c83526040808220600981019390935542600590930192909255600b8054600d8552838320819055600180820183559183527f0175b7a638427703f0dbe7bb9bbf987a2551717b34e79f33b5b1008d1fa01db90185905560c08b0180516001600160a01b039081168452600e80875285852054888652600f88528686205591511683528452918120805492830181558152919091200181905585516513585c9ad95d60d21b1415611fc9576000818152600c6020908152604080832065119a5b1b195960d21b600382015554835260109091529020819055601180546001019055611fbf81651b585c9ad95d60d21b612ec5565b9250925050612078565b855164131a5b5a5d60da1b141561201f576000818152600c602090815260408083206327b832b760e11b60038201555483526012825290912082905560148054600101905586015161201a9061212f565b61206f565b855163053746f760e41b141561206f576000818152600c602090815260408083206327b832b760e11b60038201555483526015825290912082905560178054600101905586015161206f906122bc565b60008092509250505b94509492505050565b6000611ad9838361364b565b6000828201611ad98482101583611ae0565b6000816120b5576120b0848461369c565b6120bf565b6120bf84846136bc565b949350505050565b6001600160a01b0380841660008181526001602090815260408083209487168084529490915290819020849055517f8c5be1e5ebec7d5bd14f71427d1e84f3dd0314c0f7b2291e5b200ac8c7c3b92590612122908590614979565b60405180910390a3505050565b6000805b601454811015610b50576000818152601260209081526040808320548352600c9091529020600201546242757960e81b14801561218e57506000818152601260209081526040808320548352600c9091529020600701548311155b156121fa5760008181526012602081815260408084208054808652600c8452828620548652601084529185209190915560118054600101905592849052525491506121e181641b1a5b5a5d60da1b6136ef565b6121f382641b1a5b5a5d60da1b612ec5565b50506122b4565b6000818152601260209081526040808320548352600c9091529020600201546314d95b1b60e21b14801561224c57506000818152601260209081526040808320548352600c9091529020600701548310155b156122b45760008181526012602081815260408084208054808652600c84528286205486526010845291852091909155601180546001019055928490525254915061229f81641b1a5b5a5d60da1b6136ef565b6122b182641b1a5b5a5d60da1b612ec5565b50505b600101612133565b6000805b601754811015610b50576000818152601560209081526040808320548352600c9091529020600201546242757960e81b14801561231b57506000818152601560209081526040808320548352600c9091529020600701548310155b156123855760008181526015602081815260408084208054808652600c84528286205486526010845291852091909155601180546001019055928490525254915061236d8163073746f760e41b6136ef565b61237e8263073746f760e41b612ec5565b505061243d565b6000818152601560209081526040808320548352600c9091529020600201546314d95b1b60e21b1480156123d757506000818152601560209081526040808320548352600c9091529020600701548311155b1561243d5760008181526015602081815260408084208054808652600c8452828620548652601084529185209190915560118054600101905592849052525491506124298163073746f760e41b6136ef565b61243a8263073746f760e41b612ec5565b50505b6001016122c0565b600061244f612486565b421180610d6957505060075460ff161590565b7f000000000000000000000000000000000000000000000000000000000000000090565b7f000000000000000000000000000000000000000000000000000000000000000090565b6124c16001600160a01b0384161515610198611ae0565b6124d86001600160a01b0383161515610199611ae0565b6124e3838383610b50565b6001600160a01b03831660009081526020819052604090205461250990826101a061383e565b6001600160a01b038085166000908152602081905260408082209390935590841681522054612538908261208d565b6001600160a01b0380841660008181526020819052604090819020939093559151908516907fddf252ad1be2c89b69c2b068fc378daa952ba7f163c4a11628f55a4df523b3ef90612122908590614979565b60006125a16000356001600160e01b03191661156c565b9050610eb26125b08233613854565b610191611ae0565b6125cd6125c361393d565b82101560cb611ae0565b6125e26125d8613946565b82111560ca611ae0565b6008546125f3908260c0603f611aa5565b6008556040517fa9ba3ffe0b6c366b81232caab38605a0699ad5398d6cce76f91ee809e322dafc90612626908390614979565b60405180910390a150565b80156126515761264c612642612462565b4210610193611ae0565b612666565b61266661265c612486565b42106101a9611ae0565b6007805460ff19168215151790556040517f9e3a5e37224532dea67b89face185703738a228a6e8a23dee546960180d3be6490612626908390614956565b60006126ae610eb5565b905060006126ba611608565b6001600160a01b031663b05f8e4883866040518363ffffffff1660e01b81526004016126e7929190614aeb565b60806040518083038186803b1580156126ff57600080fd5b505afa158015612713573d6000803e3d6000fd5b505050506040513d601f19601f8201168201806040525081019061273791906146e2565b604051630639cdb560e21b81529094506001600160a01b03851693506318e736d4925061276b915085908790600401614ad2565b600060405180830381600087803b15801561278557600080fd5b505af1158015611927573d6000803e3d6000fd5b6008546127a8908260ff613952565b6008556040517feff3d4d215b42bf0960be9c6d5e05c22cba4df6627a3a523e2acee733b5854c8906127db908390614956565b60405180910390a180610eb257610eb2610f26565b6001901b6000190191901c1690565b600390565b610fa28183146067611ae0565b60006060612820610163612e7f565b9850989650505050505050565b8151815161283c908290612804565b60005b818110156128965761287784828151811061285657fe5b602002602001015184838151811061286a57fe5b602002602001015161364b565b84828151811061288357fe5b602090810291909101015260010161283f565b50505050565b33301461295a576000306001600160a01b03166000366040516128c092919061483e565b6000604051808303816000865af19150503d80600081146128fd576040519150601f19603f3d011682016040523d82523d6000602084013e612902565b606091505b50509050806000811461291157fe5b60046000803e6000516001600160e01b0319166343adbafb60e01b811461293c573d6000803e3d6000fd5b506020600460003e604060205260243d03602460403e601c3d016000f35b612962612a34565b606061296c611b01565b90506129788782612a3c565b600060606129908c8c8c8c8c8c898d8d63ffffffff16565b915091506129a281848663ffffffff16565b8051601f1982018390526343adbafb603f1983015260200260231982016044820181fd5b6000808251118015610a5c575060ff8016828060200190518101906129eb9190614722565b60ff161492915050565b610f26612a0061185f565b6101b6611ae0565b600060606000612a1784613979565b90506060612a2687878461398f565b919791965090945050505050565b610f26611aee565b81518151612a4b908290612804565b60005b8181101561289657612a86848281518110612a6557fe5b6020026020010151848381518110612a7957fe5b6020026020010151612e8f565b848281518110612a9257fe5b6020908102919091010152600101612a4e565b610fa28282613a3e565b90565b81518151612ac1908290612804565b60005b8181101561289657612afc848281518110612adb57fe5b6020026020010151848381518110612aef57fe5b6020026020010151613b0a565b848281518110612b0857fe5b6020908102919091010152600101612ac4565b6000612b25611608565b6001600160a01b031663aaabadc56040518163ffffffff1660e01b815260040160206040518083038186803b158015612b5d57600080fd5b505afa158015612b71573d6000803e3d6000fd5b505050506040513d601f19601f82011682018060405250810190610d699190614559565b1c60019081161490565b60408051604180825260808201909252606091829190602082018180368337019050509050836020820152826040820152846060820153949350505050565b6000612be985613b58565b9050612bff612bf9878387613b74565b83611ae0565b612c0e428410156101b8611ae0565b5050506001600160a01b039092166000908152600660205260409020805460010190555050565b60006060612c41611aee565b612c586001600160a01b0387163014610156611ae0565b612c6f6001600160a01b0386163014610156611ae0565b604080516003808252608082019092526001600160701b0391606091906020820183803683370190505090506001600160701b03817f000000000000000000000000000000000000000000000000000000000000000081518110612ccf57fe5b6020908102919091010152909890975095505050505050565b600090565b610fa28282613c23565b6001600160a01b03918216600090815260016020908152604080832093909416825291909152205490565b60007f00000000000000000000000000000000000000000000000000000000000000007f00000000000000000000000000000000000000000000000000000000000000007f0000000000000000000000000000000000000000000000000000000000000000612d8f613cb6565b30604051602001612da4959493929190614aa6565b60405160208183030381529060405280519060200120905090565b600281511015612dce57610eb2565b600081600081518110612ddd57fe5b602002602001015190506000600190505b8251811015610b50576000838281518110612e0557fe5b60200260200101519050612e2e816001600160a01b0316846001600160a01b0316106065611ae0565b9150600101612dee565b612e4761010083106064611ae0565b612e7060018210158015612e695750612e6560ff8461010003611ac8565b8211155b6064611ae0565b610b5083821c156101b4611ae0565b610eb2816210905360ea1b613cba565b6000828202612eb3841580612eac575083858381612ea957fe5b04145b6003611ae0565b670de0b6b3a764000090049392505050565b60008060005b6011548110156130ee5760008181526010602052604090205485146130e6576000818152601060209081526040808320548352600c9091529020600201546242757960e81b148015612f3457506000858152600c60205260409020600201546314d95b1b60e21b145b15612fe5576000858152600c6020818152604080842060079081015486865260108452828620548652939092529092209091015410612fe0576019546000828152601060209081526040808320548352600c9091529020600701541115612fe05760198054601d556000828152601060209081526040808320548352600c9091529020600701549055600b805482908110612fcb57fe5b600091825260209091200154601855601c8190555b6130e6565b6000818152601060209081526040808320548352600c9091529020600201546314d95b1b60e21b14801561302f57506000858152600c60205260409020600201546242757960e81b145b156130e6576000858152600c60208181526040808420600790810154868652601084528286205486529390925290922090910154116130e657601b546000828152601060209081526040808320548352600c90915290206007015410806130965750601b54155b156130e657601b8054601e556000828152601060209081526040808320548352600c9091529020600701549055600b8054829081106130d157fe5b600091825260209091200154601a55601c8190555b600101612ecb565b506000848152600c60205260409020600201546314d95b1b60e21b14156133c057601854156133b5576000848152600c60205260408082206004908101546018548452919092209091015410613219576000848152600c60205260408082206004808201805460188054875285872090930180549190910390558054908590558154855283852065119a5b1b195960d21b60039182018190559084015560068084015492548087529486200154948990526007830154600284015460019094015491956131d2958b956001600160a01b039586169591949190921692918891613d1b565b6131e7601c54651b585c9ad95d60d21b6136ef565b83651b585c9ad95d60d21b1415613213576000858152600c602052604090206007015492509050613644565b506132ec565b601880546000908152600c602052604080822060049081015488845282842080830180549290920390915584548452828420909101805490849055845484528284206b14185c9d1b1e519a5b1b195960a21b60039182018190559083015560068083015495548086529385200154938990526007820154600283015460019093015491956132be958b956001600160a01b039283169590949190921692918891613d1b565b83651b585c9ad95d60d21b14156132ea576000858152600c602052604090206007015492509050613644565b505b7fd40a9d664355db2112eab65236b416d419de21b5ccce2d29dc5b2601e62545fa601d54601e54604051613321929190614818565b60405180910390a16000848152600c60205260409020600981015460049091015461334c9190614014565b6000858152600c6020526040902060098101919091556008810154600790910154613377919061208d565b6000858152600c6020526040902060088101919091556007015461339a9061212f565b6000848152600c60205260409020600701546133b5906122bc565b506000905080613644565b6000848152600c60205260409020600201546242757960e81b141561364457601a54156133b5576000848152600c6020526040808220600490810154601a5484529190922090910154106134e9576000848152600c602052604080822060048082018054601a8054875285872090930180549190910390558054908590558154855283852065119a5b1b195960d21b6003918201819055908401559054808552928420600690810154948990528201546007830154600284015460019094015492956134a295946001600160a01b03918216948c949092169291889190613d1b565b6134b7601c54651b585c9ad95d60d21b6136ef565b83651b585c9ad95d60d21b14156134e3576000858152600c602052604090206007015492509050613644565b506135b9565b601a80546000908152600c602052604080822060049081015488845282842080830180549290920390915584548452828420909101805490849055845484528284206b14185c9d1b1e519a5b1b195960a21b6003918201819055908301559354808452918320600690810154938990528101546007820154600283015460019093015461358b956001600160a01b03908116948c949091169291889190613d1b565b83651b585c9ad95d60d21b14156135b7576000858152600c602052604090206007015492509050613644565b505b7fd40a9d664355db2112eab65236b416d419de21b5ccce2d29dc5b2601e62545fa601d54601e546040516135ee929190614818565b60405180910390a16000848152600c602052604090206009810154600490910154613619919061208d565b6000858152600c60205260409020600981019190915560088101546007909101546133779190614014565b9250929050565b600061365a8215156004611ae0565b8261366757506000610a5c565b670de0b6b3a76400008381029061368a9085838161368157fe5b04146005611ae0565b82818161369357fe5b04915050610a5c565b60006136ab8215156004611ae0565b8183816136b457fe5b049392505050565b60006136cb8215156004611ae0565b826136d857506000610a5c565b8160018403816136e457fe5b046001019050610a5c565b80651b585c9ad95d60d21b141561376057815b6011548110156137505760016011540381141561372d57600083815260106020526040812055613748565b60018301600090815260106020526040808220548583529120555b600101613702565b5060118054600019019055610fa2565b80641b1a5b5a5d60da1b14156137d057815b6014548110156137c05760016014540381141561379d576000838152601260205260408120556137b8565b60018301600090815260126020526040808220548583529120555b600101613772565b5060148054600019019055610fa2565b8063073746f760e41b1415610fa257815b60175481101561382f5760016017540381141561380c57600083815260156020526040812055613827565b60018301600090815260156020526040808220548583529120555b6001016137e1565b50601780546000190190555050565b600061384d8484111583611ae0565b5050900390565b600073ba1ba1ba1ba1ba1ba1ba1ba1ba1ba1ba1ba1ba1b6138736115e4565b6001600160a01b03161415801561388e575061388e8361402a565b156138b65761389b6115e4565b6001600160a01b0316336001600160a01b0316149050610a5c565b6138be612b1b565b6001600160a01b0316639be2a8848484306040518463ffffffff1660e01b81526004016138ed93929190614982565b60206040518083038186803b15801561390557600080fd5b505afa158015613919573d6000803e3d6000fd5b505050506040513d601f19601f82011682018060405250810190611a8a919061440a565b64e8d4a5100090565b67016345785d8a000090565b60006001821b198416828461396857600061396b565b60015b60ff16901b17949350505050565b600081806020019051810190611ad9919061473e565b6060600061399d838561364b565b9050845167ffffffffffffffff811180156139b757600080fd5b506040519080825280602002602001820160405280156139e1578160200160208202803683370190505b50915060005b8551811015613a3557613a1682878381518110613a0057fe5b6020026020010151612e8f90919063ffffffff16565b838281518110613a2257fe5b60209081029190910101526001016139e7565b50509392505050565b613a556001600160a01b038316151561019b611ae0565b613a6182600083610b50565b6001600160a01b038216600090815260208190526040902054613a8790826101b261383e565b6001600160a01b038316600090815260208190526040902055613aba613ab582613aaf610d30565b90614066565b614074565b60006001600160a01b0316826001600160a01b03167fddf252ad1be2c89b69c2b068fc378daa952ba7f163c4a11628f55a4df523b3ef83604051613afe9190614979565b60405180910390a35050565b6000613b198215156004611ae0565b82613b2657506000610a5c565b670de0b6b3a764000083810290613b409085838161368157fe5b826001820381613b4c57fe5b04600101915050610a5c565b6000613b62612d22565b826040516020016115a192919061484e565b6000613b8682516041146101b9611ae0565b60208281015160408085015160608601518251600080825295019283905292939092811a91600190613bbf908990859088908890614b02565b6020604051602081039080840390855afa158015613be1573d6000803e3d6000fd5b5050604051601f1901519150506001600160a01b03811615801590613c175750876001600160a01b0316816001600160a01b0316145b98975050505050505050565b613c2f60008383610b50565b613c44613ab582613c3e610d30565b9061208d565b6001600160a01b038216600090815260208190526040902054613c67908261208d565b6001600160a01b0383166000818152602081905260408082209390935591519091907fddf252ad1be2c89b69c2b068fc378daa952ba7f163c4a11628f55a4df523b3ef90613afe908590614979565b4690565b62461bcd60e51b600090815260206004526007602452600a808404818106603090810160081b958390069590950190829004918206850160101b01602363ffffff0060e086901c160160181b0190930160c81b60445260e882901c90606490fd5b6000826242757960e81b1415613d4357506000888152600c6020526040902060070154613d66565b826314d95b1b60e21b1415613d6657506000868152600c60205260409020600701545b60008988604051602001613d7b929190614818565b60405160208183030381529060405280519060200120905080602060008c81526020019081526020016000208190555080602060008a8152602001908152602001600020819055506040518061014001604052808a6001600160a01b03168152602001886001600160a01b031681526020017f00000000000000000000000000000000000000000000000000000000000000006001600160a01b031681526020018781526020018381526020017f00000000000000000000000000000000000000000000000000000000000000006001600160a01b0316815260200185815260200184815260200186815260200142815250601f600083815260200190815260200160002060008201518160000160006101000a8154816001600160a01b0302191690836001600160a01b0316021790555060208201518160010160006101000a8154816001600160a01b0302191690836001600160a01b0316021790555060408201518160020160006101000a8154816001600160a01b0302191690836001600160a01b03160217905550606082015181600301556080820151816004015560a08201518160050160006101000a8154816001600160a01b0302191690836001600160a01b0316021790555060c0820151816006015560e082015181600701556101008201518160080155610120820151816009015590505060004290507f00000000000000000000000000000000000000000000000000000000000000006001600160a01b03167f156bf7973c4610a54da63e11aee83150e3c726c558bb3a700c5a07f8c89f82268b8a8a877f00000000000000000000000000000000000000000000000000000000000000008c88604051613fff979695949392919061487d565b60405180910390a25050505050505050505050565b6000614024838311156001611ae0565b50900390565b600061403c631c74c91760e11b61156c565b82148061405757506140546350dd6ed960e01b61156c565b82145b80610a5c5750610a5c82614079565b6000611ad98383600161383e565b600255565b50600090565b604080518082019091526000808252602082015290565b60405180608001604052806060815260200160608152602001606081526020016000151581525090565b8035610a5c81614bad565b600082601f8301126140db578081fd5b81356140ee6140e982614b81565b614b5a565b81815291506020808301908481018184028601820187101561410f57600080fd5b60005b8481101561412e57813584529282019290820190600101614112565b505050505092915050565b600082601f830112614149578081fd5b81516141576140e982614b81565b81815291506020808301908481018184028601820187101561417857600080fd5b60005b8481101561412e5781518452928201929082019060010161417b565b600082601f8301126141a7578081fd5b813567ffffffffffffffff8111156141bd578182fd5b6141d0601f8201601f1916602001614b5a565b91508082528360208285010111156141e757600080fd5b8060208401602084013760009082016020015292915050565b803560028110610a5c57600080fd5b600060208284031215614220578081fd5b8135611ad981614bad565b6000806040838503121561423d578081fd5b823561424881614bad565b9150602083013561425881614bad565b809150509250929050565b600080600060608486031215614277578081fd5b833561428281614bad565b9250602084013561429281614bad565b929592945050506040919091013590565b600080600080600080600060e0888a0312156142bd578283fd5b87356142c881614bad565b965060208801356142d881614bad565b9550604088013594506060880135935060808801356142f681614bc2565b9699959850939692959460a0840135945060c09093013592915050565b60008060408385031215614325578182fd5b823561433081614bad565b946020939093013593505050565b600080600060608486031215614352578081fd5b835167ffffffffffffffff80821115614369578283fd5b818601915086601f83011261437c578283fd5b815161438a6140e982614b81565b80828252602080830192508086018b8283870289010111156143aa578788fd5b8796505b848710156143d55780516143c181614bad565b8452600196909601959281019281016143ae565b5089015190975093505050808211156143ec578283fd5b506143f986828701614139565b925050604084015190509250925092565b60006020828403121561441b578081fd5b81518015158114611ad9578182fd5b60006020828403121561443b578081fd5b5035919050565b600080600080600080600060e0888a03121561445c578081fd5b87359650602088013561446e81614bad565b9550604088013561447e81614bad565b9450606088013567ffffffffffffffff8082111561449a578283fd5b6144a68b838c016140cb565b955060808a0135945060a08a0135935060c08a01359150808211156144c9578283fd5b506144d68a828b01614197565b91505092959891949750929550565b600080604083850312156144f7578182fd5b50508035926020909101359150565b60008060006060848603121561451a578081fd5b505081359360208301359350604090920135919050565b600060208284031215614542578081fd5b81356001600160e01b031981168114611ad9578182fd5b60006020828403121561456a578081fd5b8151611ad981614bad565b60008060408385031215614587578182fd5b823561459281614bad565b9150602083013567ffffffffffffffff8111156145ad578182fd5b6145b985828601614197565b9150509250929050565b600080600080608085870312156145d8578182fd5b843567ffffffffffffffff808211156145ef578384fd5b818701915061012080838a031215614605578485fd5b61460e81614b5a565b905061461a8984614200565b815261462989602085016140c0565b602082015261463b89604085016140c0565b6040820152606083013560608201526080830135608082015260a083013560a082015261466b8960c085016140c0565b60c082015261467d8960e085016140c0565b60e08201526101008084013583811115614695578687fd5b6146a18b828701614197565b8284015250508096505060208701359150808211156146be578384fd5b506146cb878288016140cb565b949794965050505060408301359260600135919050565b600080600080608085870312156146f7578182fd5b845193506020850151925060408501519150606085015161471781614bad565b939692955090935050565b600060208284031215614733578081fd5b8151611ad981614bc2565b60008060408385031215614750578182fd5b825161475b81614bc2565b6020939093015192949293505050565b6000815180845260208085019450808401835b8381101561479a5781518752958201959082019060010161477e565b509495945050505050565b15159052565b60008151808452815b818110156147d0576020818501810151868301820152016147b4565b818111156147e15782602083870101525b50601f01601f19169290920160200192915050565b60609290921b6bffffffffffffffffffffffff19168252601482015260340190565b918252602082015260400190565b9182526001600160e01b031916602082015260240190565b6000828483379101908152919050565b61190160f01b81526002810192909252602282015260420190565b6001600160a01b0391909116815260200190565b6001600160a01b039788168152958716602087015260408601949094526060850192909252909316608083015260a08201929092526650656e64696e6760c81b60c082015260e08101919091526101000190565b6020808252825182820181905260009190848201906040850190845b81811015614909578351835292840192918401916001016148ed565b50909695505050505050565b600060208252611ad9602083018461476b565b60006040825261493b604083018561476b565b828103602084015261494d818561476b565b95945050505050565b901515815260200190565b92151583526020830191909152604082015260600190565b90815260200190565b9283526001600160a01b03918216602084015216604082015260600190565b8481526001600160a01b038481166020808401919091529084166040830152608060608301819052835181840191909152805161010084018190526000929182019083906101208601905b80831015614a14576149fe8451614ba1565b82529284019260019290920191908401906149ec565b50838701519350607f199250828682030160a0870152614a34818561476b565b935050506040850151818584030160c0860152614a5183826147ab565b925050506060840151614a6760e08501826147a5565b509695505050505050565b9586526001600160a01b0394851660208701529290931660408501526060840152608083019190915260a082015260c00190565b9485526020850193909352604084019190915260608301526001600160a01b0316608082015260a00190565b6000838252604060208301526120bf60408301846147ab565b9182526001600160a01b0316602082015260400190565b93845260ff9290921660208401526040830152606082015260800190565b600060208252611ad960208301846147ab565b6000838252604060208301526120bf604083018461476b565b60ff91909116815260200190565b60405181810167ffffffffffffffff81118282101715614b7957600080fd5b604052919050565b600067ffffffffffffffff821115614b97578081fd5b5060209081020190565b6001600160a01b031690565b6001600160a01b0381168114610eb257600080fd5b60ff81168114610eb257600080fdfea2646970667358221220d6e79ebe5385645f9ae36b845fcbb5386f19d2b2cf52892aefeae284227dd74764736f6c63430007010033",
  "linkReferences": {},
  "deployedLinkReferences": {}
}