{
  "_format": "hh-sol-artifact-1",
  "contractName": "YearnLinearPool",
  "sourceName": "contracts/yearn-linear-pool/YearnLinearPool.sol",
  "abi": [
    {
      "inputs": [
        {
          "components": [
            {
              "internalType": "contract IVault",
              "name": "vault",
              "type": "address"
            },
            {
              "internalType": "string",
              "name": "name",
              "type": "string"
            },
            {
              "internalType": "string",
              "name": "symbol",
              "type": "string"
            },
            {
              "internalType": "contract IERC20",
              "name": "mainToken",
              "type": "address"
            },
            {
              "internalType": "contract IERC20",
              "name": "wrappedToken",
              "type": "address"
            },
            {
              "internalType": "address",
              "name": "assetManager",
              "type": "address"
            },
            {
              "internalType": "uint256",
              "name": "upperTarget",
              "type": "uint256"
            },
            {
              "internalType": "uint256",
              "name": "swapFeePercentage",
              "type": "uint256"
            },
            {
              "internalType": "uint256",
              "name": "pauseWindowDuration",
              "type": "uint256"
            },
            {
              "internalType": "uint256",
              "name": "bufferPeriodDuration",
              "type": "uint256"
            },
            {
              "internalType": "address",
              "name": "owner",
              "type": "address"
            },
            {
              "internalType": "string",
              "name": "version",
              "type": "string"
            }
          ],
          "internalType": "struct YearnLinearPool.ConstructorArgs",
          "name": "args",
          "type": "tuple"
        }
      ],
      "stateMutability": "nonpayable",
      "type": "constructor"
    },
    {
      "anonymous": false,
      "inputs": [
        {
          "indexed": true,
          "internalType": "address",
          "name": "owner",
          "type": "address"
        },
        {
          "indexed": true,
          "internalType": "address",
          "name": "spender",
          "type": "address"
        },
        {
          "indexed": false,
          "internalType": "uint256",
          "name": "value",
          "type": "uint256"
        }
      ],
      "name": "Approval",
      "type": "event"
    },
    {
      "anonymous": false,
      "inputs": [
        {
          "indexed": false,
          "internalType": "bool",
          "name": "paused",
          "type": "bool"
        }
      ],
      "name": "PausedStateChanged",
      "type": "event"
    },
    {
      "anonymous": false,
      "inputs": [
        {
          "indexed": false,
          "internalType": "bool",
          "name": "enabled",
          "type": "bool"
        }
      ],
      "name": "RecoveryModeStateChanged",
      "type": "event"
    },
    {
      "anonymous": false,
      "inputs": [
        {
          "indexed": false,
          "internalType": "uint256",
          "name": "swapFeePercentage",
          "type": "uint256"
        }
      ],
      "name": "SwapFeePercentageChanged",
      "type": "event"
    },
    {
      "anonymous": false,
      "inputs": [
        {
          "indexed": true,
          "internalType": "contract IERC20",
          "name": "token",
          "type": "address"
        },
        {
          "indexed": false,
          "internalType": "uint256",
          "name": "lowerTarget",
          "type": "uint256"
        },
        {
          "indexed": false,
          "internalType": "uint256",
          "name": "upperTarget",
          "type": "uint256"
        }
      ],
      "name": "TargetsSet",
      "type": "event"
    },
    {
      "anonymous": false,
      "inputs": [
        {
          "indexed": true,
          "internalType": "address",
          "name": "from",
          "type": "address"
        },
        {
          "indexed": true,
          "internalType": "address",
          "name": "to",
          "type": "address"
        },
        {
          "indexed": false,
          "internalType": "uint256",
          "name": "value",
          "type": "uint256"
        }
      ],
      "name": "Transfer",
      "type": "event"
    },
    {
      "inputs": [],
      "name": "DOMAIN_SEPARATOR",
      "outputs": [
        {
          "internalType": "bytes32",
          "name": "",
          "type": "bytes32"
        }
      ],
      "stateMutability": "view",
      "type": "function"
    },
    {
      "inputs": [
        {
          "internalType": "address",
          "name": "owner",
          "type": "address"
        },
        {
          "internalType": "address",
          "name": "spender",
          "type": "address"
        }
      ],
      "name": "allowance",
      "outputs": [
        {
          "internalType": "uint256",
          "name": "",
          "type": "uint256"
        }
      ],
      "stateMutability": "view",
      "type": "function"
    },
    {
      "inputs": [
        {
          "internalType": "address",
          "name": "spender",
          "type": "address"
        },
        {
          "internalType": "uint256",
          "name": "amount",
          "type": "uint256"
        }
      ],
      "name": "approve",
      "outputs": [
        {
          "internalType": "bool",
          "name": "",
          "type": "bool"
        }
      ],
      "stateMutability": "nonpayable",
      "type": "function"
    },
    {
      "inputs": [
        {
          "internalType": "address",
          "name": "account",
          "type": "address"
        }
      ],
      "name": "balanceOf",
      "outputs": [
        {
          "internalType": "uint256",
          "name": "",
          "type": "uint256"
        }
      ],
      "stateMutability": "view",
      "type": "function"
    },
    {
      "inputs": [],
      "name": "decimals",
      "outputs": [
        {
          "internalType": "uint8",
          "name": "",
          "type": "uint8"
        }
      ],
      "stateMutability": "view",
      "type": "function"
    },
    {
      "inputs": [
        {
          "internalType": "address",
          "name": "spender",
          "type": "address"
        },
        {
          "internalType": "uint256",
          "name": "amount",
          "type": "uint256"
        }
      ],
      "name": "decreaseAllowance",
      "outputs": [
        {
          "internalType": "bool",
          "name": "",
          "type": "bool"
        }
      ],
      "stateMutability": "nonpayable",
      "type": "function"
    },
    {
      "inputs": [],
      "name": "disableRecoveryMode",
      "outputs": [],
      "stateMutability": "nonpayable",
      "type": "function"
    },
    {
      "inputs": [],
      "name": "enableRecoveryMode",
      "outputs": [],
      "stateMutability": "nonpayable",
      "type": "function"
    },
    {
      "inputs": [
        {
          "internalType": "bytes4",
          "name": "selector",
          "type": "bytes4"
        }
      ],
      "name": "getActionId",
      "outputs": [
        {
          "internalType": "bytes32",
          "name": "",
          "type": "bytes32"
        }
      ],
      "stateMutability": "view",
      "type": "function"
    },
    {
      "inputs": [],
      "name": "getAuthorizer",
      "outputs": [
        {
          "internalType": "contract IAuthorizer",
          "name": "",
          "type": "address"
        }
      ],
      "stateMutability": "view",
      "type": "function"
    },
    {
      "inputs": [],
      "name": "getBptIndex",
      "outputs": [
        {
          "internalType": "uint256",
          "name": "",
          "type": "uint256"
        }
      ],
      "stateMutability": "pure",
      "type": "function"
    },
    {
      "inputs": [],
      "name": "getDomainSeparator",
      "outputs": [
        {
          "internalType": "bytes32",
          "name": "",
          "type": "bytes32"
        }
      ],
      "stateMutability": "view",
      "type": "function"
    },
    {
      "inputs": [],
      "name": "getMainIndex",
      "outputs": [
        {
          "internalType": "uint256",
          "name": "",
          "type": "uint256"
        }
      ],
      "stateMutability": "view",
      "type": "function"
    },
    {
      "inputs": [],
      "name": "getMainToken",
      "outputs": [
        {
          "internalType": "contract IERC20",
          "name": "",
          "type": "address"
        }
      ],
      "stateMutability": "view",
      "type": "function"
    },
    {
      "inputs": [
        {
          "internalType": "address",
          "name": "account",
          "type": "address"
        }
      ],
      "name": "getNextNonce",
      "outputs": [
        {
          "internalType": "uint256",
          "name": "",
          "type": "uint256"
        }
      ],
      "stateMutability": "view",
      "type": "function"
    },
    {
      "inputs": [],
      "name": "getOwner",
      "outputs": [
        {
          "internalType": "address",
          "name": "",
          "type": "address"
        }
      ],
      "stateMutability": "view",
      "type": "function"
    },
    {
      "inputs": [],
      "name": "getPausedState",
      "outputs": [
        {
          "internalType": "bool",
          "name": "paused",
          "type": "bool"
        },
        {
          "internalType": "uint256",
          "name": "pauseWindowEndTime",
          "type": "uint256"
        },
        {
          "internalType": "uint256",
          "name": "bufferPeriodEndTime",
          "type": "uint256"
        }
      ],
      "stateMutability": "view",
      "type": "function"
    },
    {
      "inputs": [],
      "name": "getPoolId",
      "outputs": [
        {
          "internalType": "bytes32",
          "name": "",
          "type": "bytes32"
        }
      ],
      "stateMutability": "view",
      "type": "function"
    },
    {
      "inputs": [],
      "name": "getProtocolFeesCollector",
      "outputs": [
        {
          "internalType": "contract IProtocolFeesCollector",
          "name": "",
          "type": "address"
        }
      ],
      "stateMutability": "view",
      "type": "function"
    },
    {
      "inputs": [],
      "name": "getRate",
      "outputs": [
        {
          "internalType": "uint256",
          "name": "",
          "type": "uint256"
        }
      ],
      "stateMutability": "view",
      "type": "function"
    },
    {
      "inputs": [],
      "name": "getScalingFactors",
      "outputs": [
        {
          "internalType": "uint256[]",
          "name": "",
          "type": "uint256[]"
        }
      ],
      "stateMutability": "view",
      "type": "function"
    },
    {
      "inputs": [],
      "name": "getSwapFeePercentage",
      "outputs": [
        {
          "internalType": "uint256",
          "name": "",
          "type": "uint256"
        }
      ],
      "stateMutability": "view",
      "type": "function"
    },
    {
      "inputs": [],
      "name": "getTargets",
      "outputs": [
        {
          "internalType": "uint256",
          "name": "lowerTarget",
          "type": "uint256"
        },
        {
          "internalType": "uint256",
          "name": "upperTarget",
          "type": "uint256"
        }
      ],
      "stateMutability": "view",
      "type": "function"
    },
    {
      "inputs": [],
      "name": "getVault",
      "outputs": [
        {
          "internalType": "contract IVault",
          "name": "",
          "type": "address"
        }
      ],
      "stateMutability": "view",
      "type": "function"
    },
    {
      "inputs": [],
      "name": "getVirtualSupply",
      "outputs": [
        {
          "internalType": "uint256",
          "name": "",
          "type": "uint256"
        }
      ],
      "stateMutability": "view",
      "type": "function"
    },
    {
      "inputs": [],
      "name": "getWrappedIndex",
      "outputs": [
        {
          "internalType": "uint256",
          "name": "",
          "type": "uint256"
        }
      ],
      "stateMutability": "view",
      "type": "function"
    },
    {
      "inputs": [],
      "name": "getWrappedToken",
      "outputs": [
        {
          "internalType": "contract IERC20",
          "name": "",
          "type": "address"
        }
      ],
      "stateMutability": "view",
      "type": "function"
    },
    {
      "inputs": [],
      "name": "getWrappedTokenRate",
      "outputs": [
        {
          "internalType": "uint256",
          "name": "",
          "type": "uint256"
        }
      ],
      "stateMutability": "view",
      "type": "function"
    },
    {
      "inputs": [],
      "name": "inRecoveryMode",
      "outputs": [
        {
          "internalType": "bool",
          "name": "",
          "type": "bool"
        }
      ],
      "stateMutability": "view",
      "type": "function"
    },
    {
      "inputs": [
        {
          "internalType": "address",
          "name": "spender",
          "type": "address"
        },
        {
          "internalType": "uint256",
          "name": "addedValue",
          "type": "uint256"
        }
      ],
      "name": "increaseAllowance",
      "outputs": [
        {
          "internalType": "bool",
          "name": "",
          "type": "bool"
        }
      ],
      "stateMutability": "nonpayable",
      "type": "function"
    },
    {
      "inputs": [],
      "name": "initialize",
      "outputs": [],
      "stateMutability": "nonpayable",
      "type": "function"
    },
    {
      "inputs": [],
      "name": "name",
      "outputs": [
        {
          "internalType": "string",
          "name": "",
          "type": "string"
        }
      ],
      "stateMutability": "view",
      "type": "function"
    },
    {
      "inputs": [
        {
          "internalType": "address",
          "name": "owner",
          "type": "address"
        }
      ],
      "name": "nonces",
      "outputs": [
        {
          "internalType": "uint256",
          "name": "",
          "type": "uint256"
        }
      ],
      "stateMutability": "view",
      "type": "function"
    },
    {
      "inputs": [
        {
          "internalType": "bytes32",
          "name": "poolId",
          "type": "bytes32"
        },
        {
          "internalType": "address",
          "name": "sender",
          "type": "address"
        },
        {
          "internalType": "address",
          "name": "",
          "type": "address"
        },
        {
          "internalType": "uint256[]",
          "name": "balances",
          "type": "uint256[]"
        },
        {
          "internalType": "uint256",
          "name": "",
          "type": "uint256"
        },
        {
          "internalType": "uint256",
          "name": "",
          "type": "uint256"
        },
        {
          "internalType": "bytes",
          "name": "userData",
          "type": "bytes"
        }
      ],
      "name": "onExitPool",
      "outputs": [
        {
          "internalType": "uint256[]",
          "name": "amountsOut",
          "type": "uint256[]"
        },
        {
          "internalType": "uint256[]",
          "name": "dueProtocolFees",
          "type": "uint256[]"
        }
      ],
      "stateMutability": "nonpayable",
      "type": "function"
    },
    {
      "inputs": [
        {
          "internalType": "bytes32",
          "name": "poolId",
          "type": "bytes32"
        },
        {
          "internalType": "address",
          "name": "sender",
          "type": "address"
        },
        {
          "internalType": "address",
          "name": "recipient",
          "type": "address"
        },
        {
          "internalType": "uint256[]",
          "name": "balances",
          "type": "uint256[]"
        },
        {
          "internalType": "uint256",
          "name": "",
          "type": "uint256"
        },
        {
          "internalType": "uint256",
          "name": "",
          "type": "uint256"
        },
        {
          "internalType": "bytes",
          "name": "userData",
          "type": "bytes"
        }
      ],
      "name": "onJoinPool",
      "outputs": [
        {
          "internalType": "uint256[]",
          "name": "amountsIn",
          "type": "uint256[]"
        },
        {
          "internalType": "uint256[]",
          "name": "dueProtocolFees",
          "type": "uint256[]"
        }
      ],
      "stateMutability": "nonpayable",
      "type": "function"
    },
    {
      "inputs": [
        {
          "components": [
            {
              "internalType": "enum IVault.SwapKind",
              "name": "kind",
              "type": "uint8"
            },
            {
              "internalType": "contract IERC20",
              "name": "tokenIn",
              "type": "address"
            },
            {
              "internalType": "contract IERC20",
              "name": "tokenOut",
              "type": "address"
            },
            {
              "internalType": "uint256",
              "name": "amount",
              "type": "uint256"
            },
            {
              "internalType": "bytes32",
              "name": "poolId",
              "type": "bytes32"
            },
            {
              "internalType": "uint256",
              "name": "lastChangeBlock",
              "type": "uint256"
            },
            {
              "internalType": "address",
              "name": "from",
              "type": "address"
            },
            {
              "internalType": "address",
              "name": "to",
              "type": "address"
            },
            {
              "internalType": "bytes",
              "name": "userData",
              "type": "bytes"
            }
          ],
          "internalType": "struct IPoolSwapStructs.SwapRequest",
          "name": "request",
          "type": "tuple"
        },
        {
          "internalType": "uint256[]",
          "name": "balances",
          "type": "uint256[]"
        },
        {
          "internalType": "uint256",
          "name": "indexIn",
          "type": "uint256"
        },
        {
          "internalType": "uint256",
          "name": "indexOut",
          "type": "uint256"
        }
      ],
      "name": "onSwap",
      "outputs": [
        {
          "internalType": "uint256",
          "name": "",
          "type": "uint256"
        }
      ],
      "stateMutability": "nonpayable",
      "type": "function"
    },
    {
      "inputs": [
        {
          "components": [
            {
              "internalType": "enum IVault.SwapKind",
              "name": "kind",
              "type": "uint8"
            },
            {
              "internalType": "contract IERC20",
              "name": "tokenIn",
              "type": "address"
            },
            {
              "internalType": "contract IERC20",
              "name": "tokenOut",
              "type": "address"
            },
            {
              "internalType": "uint256",
              "name": "amount",
              "type": "uint256"
            },
            {
              "internalType": "bytes32",
              "name": "poolId",
              "type": "bytes32"
            },
            {
              "internalType": "uint256",
              "name": "lastChangeBlock",
              "type": "uint256"
            },
            {
              "internalType": "address",
              "name": "from",
              "type": "address"
            },
            {
              "internalType": "address",
              "name": "to",
              "type": "address"
            },
            {
              "internalType": "bytes",
              "name": "userData",
              "type": "bytes"
            }
          ],
          "internalType": "struct IPoolSwapStructs.SwapRequest",
          "name": "request",
          "type": "tuple"
        },
        {
          "internalType": "uint256",
          "name": "balanceTokenIn",
          "type": "uint256"
        },
        {
          "internalType": "uint256",
          "name": "balanceTokenOut",
          "type": "uint256"
        }
      ],
      "name": "onSwap",
      "outputs": [
        {
          "internalType": "uint256",
          "name": "",
          "type": "uint256"
        }
      ],
      "stateMutability": "nonpayable",
      "type": "function"
    },
    {
      "inputs": [],
      "name": "pause",
      "outputs": [],
      "stateMutability": "nonpayable",
      "type": "function"
    },
    {
      "inputs": [
        {
          "internalType": "address",
          "name": "owner",
          "type": "address"
        },
        {
          "internalType": "address",
          "name": "spender",
          "type": "address"
        },
        {
          "internalType": "uint256",
          "name": "value",
          "type": "uint256"
        },
        {
          "internalType": "uint256",
          "name": "deadline",
          "type": "uint256"
        },
        {
          "internalType": "uint8",
          "name": "v",
          "type": "uint8"
        },
        {
          "internalType": "bytes32",
          "name": "r",
          "type": "bytes32"
        },
        {
          "internalType": "bytes32",
          "name": "s",
          "type": "bytes32"
        }
      ],
      "name": "permit",
      "outputs": [],
      "stateMutability": "nonpayable",
      "type": "function"
    },
    {
      "inputs": [
        {
          "internalType": "bytes32",
          "name": "",
          "type": "bytes32"
        },
        {
          "internalType": "address",
          "name": "sender",
          "type": "address"
        },
        {
          "internalType": "address",
          "name": "",
          "type": "address"
        },
        {
          "internalType": "uint256[]",
          "name": "balances",
          "type": "uint256[]"
        },
        {
          "internalType": "uint256",
          "name": "",
          "type": "uint256"
        },
        {
          "internalType": "uint256",
          "name": "",
          "type": "uint256"
        },
        {
          "internalType": "bytes",
          "name": "userData",
          "type": "bytes"
        }
      ],
      "name": "queryExit",
      "outputs": [
        {
          "internalType": "uint256",
          "name": "bptIn",
          "type": "uint256"
        },
        {
          "internalType": "uint256[]",
          "name": "amountsOut",
          "type": "uint256[]"
        }
      ],
      "stateMutability": "nonpayable",
      "type": "function"
    },
    {
      "inputs": [
        {
          "internalType": "bytes32",
          "name": "",
          "type": "bytes32"
        },
        {
          "internalType": "address",
          "name": "sender",
          "type": "address"
        },
        {
          "internalType": "address",
          "name": "",
          "type": "address"
        },
        {
          "internalType": "uint256[]",
          "name": "balances",
          "type": "uint256[]"
        },
        {
          "internalType": "uint256",
          "name": "",
          "type": "uint256"
        },
        {
          "internalType": "uint256",
          "name": "",
          "type": "uint256"
        },
        {
          "internalType": "bytes",
          "name": "userData",
          "type": "bytes"
        }
      ],
      "name": "queryJoin",
      "outputs": [
        {
          "internalType": "uint256",
          "name": "bptOut",
          "type": "uint256"
        },
        {
          "internalType": "uint256[]",
          "name": "amountsIn",
          "type": "uint256[]"
        }
      ],
      "stateMutability": "nonpayable",
      "type": "function"
    },
    {
      "inputs": [
        {
          "internalType": "uint256",
          "name": "swapFeePercentage",
          "type": "uint256"
        }
      ],
      "name": "setSwapFeePercentage",
      "outputs": [],
      "stateMutability": "nonpayable",
      "type": "function"
    },
    {
      "inputs": [
        {
          "internalType": "uint256",
          "name": "newLowerTarget",
          "type": "uint256"
        },
        {
          "internalType": "uint256",
          "name": "newUpperTarget",
          "type": "uint256"
        }
      ],
      "name": "setTargets",
      "outputs": [],
      "stateMutability": "nonpayable",
      "type": "function"
    },
    {
      "inputs": [],
      "name": "symbol",
      "outputs": [
        {
          "internalType": "string",
          "name": "",
          "type": "string"
        }
      ],
      "stateMutability": "view",
      "type": "function"
    },
    {
      "inputs": [],
      "name": "totalSupply",
      "outputs": [
        {
          "internalType": "uint256",
          "name": "",
          "type": "uint256"
        }
      ],
      "stateMutability": "view",
      "type": "function"
    },
    {
      "inputs": [
        {
          "internalType": "address",
          "name": "recipient",
          "type": "address"
        },
        {
          "internalType": "uint256",
          "name": "amount",
          "type": "uint256"
        }
      ],
      "name": "transfer",
      "outputs": [
        {
          "internalType": "bool",
          "name": "",
          "type": "bool"
        }
      ],
      "stateMutability": "nonpayable",
      "type": "function"
    },
    {
      "inputs": [
        {
          "internalType": "address",
          "name": "sender",
          "type": "address"
        },
        {
          "internalType": "address",
          "name": "recipient",
          "type": "address"
        },
        {
          "internalType": "uint256",
          "name": "amount",
          "type": "uint256"
        }
      ],
      "name": "transferFrom",
      "outputs": [
        {
          "internalType": "bool",
          "name": "",
          "type": "bool"
        }
      ],
      "stateMutability": "nonpayable",
      "type": "function"
    },
    {
      "inputs": [],
      "name": "unpause",
      "outputs": [],
      "stateMutability": "nonpayable",
      "type": "function"
    },
    {
      "inputs": [],
      "name": "version",
      "outputs": [
        {
          "internalType": "string",
          "name": "",
          "type": "string"
        }
      ],
      "stateMutability": "view",
      "type": "function"
    }
  ],
  "bytecode": "0x6102a06040523480156200001257600080fd5b5060405162005a8838038062005a88833981016040819052620000359162000d68565b6101608101518151602083015160408401516060850151608086015160c08701516200006188620003f3565b60e08901516101008a01516101208b01516101408c01518a6200009e8160006200008c8c8c6200047c565b896200052d60201b620014231760201c565b8b8b86868686838387878b86336001600160a01b031660001b8480604051806040016040528060018152602001603160f81b81525087878160039080519060200190620000ed92919062000bf1565b5080516200010390600490602084019062000bf1565b50506005805460ff19166012179055508151602092830120608052805191012060a052507f8b73c3c69bb8fe3d512ecc4cf759cc79239f7b179b0ffacaa9a75d522b39400f60c05260e0526001600160601b0319606091821b81166101005291901b166101205250620001829050630163f500831115610194620006fb565b620001966276a700821115610195620006fb565b4291909101610140819052016101605260601b6001600160601b031916610180526101a08690526040805163d2946c2b60e01b815290516001600160a01b0389169163d2946c2b916004808301926020929190829003018186803b158015620001fe57600080fd5b505afa15801562000213573d6000803e3d6000fd5b505050506040513d601f19601f8201168201806040525081019062000239919062000d29565b6001600160a01b03166101c0816001600160a01b031660601b8152505050505050505050876001600160a01b03166101e0816001600160a01b031660601b81525050866001600160a01b0316610200816001600160a01b031660601b81525050866001600160a01b0316886001600160a01b031610620002bb576002620002be565b60015b60ff16610220526001600160a01b0380881690891610620002e1576001620002e4565b60025b60ff1661024052620002f68862000710565b61026052620003058762000710565b61028052600062000318898289620007bc565b6200032385620008b6565b50508a51620003469a506009995060208c019850965062000bf195505050505050565b5050620003ec81608001516001600160a01b031663fc0c546a6040518163ffffffff1660e01b815260040160206040518083038186803b1580156200038a57600080fd5b505afa1580156200039f573d6000803e3d6000fd5b505050506040513d601f19601f82011682018060405250810190620003c5919062000d29565b6001600160a01b031682606001516001600160a01b031614610208620006fb60201b60201c565b5062000fe5565b6040805160028082526060808301845292839291906020830190803683370190505090508260a00151816000815181106200042a57fe5b60200260200101906001600160a01b031690816001600160a01b0316815250508260a00151816001815181106200045d57fe5b6001600160a01b03909216602092830291909101909101529050919050565b60408051600280825260608281019093526001600160a01b038481169086161091839181602001602082028036833701905050905081620004be5783620004c0565b845b81600081518110620004ce57fe5b60200260200101906001600160a01b031690816001600160a01b03168152505081620004fb5784620004fd565b835b816001815181106200050b57fe5b6001600160a01b03909216602092830291909101909101529150505b92915050565b600062000545836200094560201b620015d81760201c565b606083516001016001600160401b03811180156200056257600080fd5b506040519080825280602002602001820160405280156200058d578160200160208202803683370190505b50905030816000815181106200059f57fe5b60200260200101906001600160a01b031690816001600160a01b03168152505060005b84518110156200061257848181518110620005d957fe5b6020026020010151828260010181518110620005f157fe5b6001600160a01b0390921660209283029190910190910152600101620005c2565b50606083516001016001600160401b03811180156200063057600080fd5b506040519080825280602002602001820160405280156200065b578160200160208202803683370190505b5090506000816000815181106200066e57fe5b60200260200101906001600160a01b031690816001600160a01b03168152505060005b8451811015620006e157848181518110620006a857fe5b6020026020010151828260010181518110620006c057fe5b6001600160a01b039092166020928302919091019091015260010162000691565b50620006f08787848462000951565b979650505050505050565b816200070c576200070c8162000a4b565b5050565b600080826001600160a01b031663313ce5676040518163ffffffff1660e01b815260040160206040518083038186803b1580156200074d57600080fd5b505afa15801562000762573d6000803e3d6000fd5b505050506040513d601f19601f8201168201806040525081019062000788919062000ebf565b60ff1690506000620007a760128362000a6060201b620015e61760201c565b600a0a670de0b6b3a764000002949350505050565b620007cd8183111561014c620006fb565b620007ea6b0de0b6b39983494c589c000082111561014d620006fb565b62000804670de0b6b3a7640000825b0615610161620006fb565b62000818670de0b6b3a764000083620007f9565b62000867670de0b6b3a764000082046040602062000851670de0b6b3a764000087600854919004602080620015fc62000a78821b17811c565b62000a7860201b620015fc17909392919060201c565b6008556040516001600160a01b038416907fd0e27a0d0c2cb09280fa5e4487315455b32afcdcf012dc35b6ef2a0e3c4d128090620008a9908590859062000f8e565b60405180910390a2505050565b620008cb64e8d4a5100082101560cb620006fb565b620008e367016345785d8a000082111560ca620006fb565b620009058160c0603f60085462000a7860201b620015fc17909392919060201c565b6008556040517fa9ba3ffe0b6c366b81232caab38605a0699ad5398d6cce76f91ee809e322dafc906200093a90839062000f85565b60405180910390a150565b806200070c8162000a9d565b600080856001600160a01b03166309b2760f866040518263ffffffff1660e01b815260040162000982919062000f70565b602060405180830381600087803b1580156200099d57600080fd5b505af1158015620009b2573d6000803e3d6000fd5b505050506040513d601f19601f82011682018060405250810190620009d8919062000d4f565b604051633354e3e960e11b81529091506001600160a01b038716906366a9c7d29062000a0d9084908890889060040162000ee2565b600060405180830381600087803b15801562000a2857600080fd5b505af115801562000a3d573d6000803e3d6000fd5b509298975050505050505050565b62000a5d816210905360ea1b62000b29565b50565b600062000a72838311156001620006fb565b50900390565b600062000a8784848462000b8a565b506001901b60001901811b1992909216911b1790565b60028151101562000aae5762000a5d565b60008160008151811062000abe57fe5b602002602001015190506000600190505b825181101562000b2457600083828151811062000ae857fe5b6020026020010151905062000b19816001600160a01b0316846001600160a01b0316106065620006fb60201b60201c565b915060010162000acf565b505050565b62461bcd60e51b600090815260206004526007602452600a808404818106603090810160081b958390069590950190829004918206850160101b01602363ffffff0060e086901c160160181b0190930160c81b60445260e882901c90606490fd5b62000b9b61010083106064620006fb565b62000bd46001821015801562000bcc575062000bc860ff846101000362000be560201b6200161f1760201c565b8211155b6064620006fb565b62000b2483821c156101b4620006fb565b80820390821102900390565b828054600181600116156101000203166002900490600052602060002090601f016020900481019282601f1062000c3457805160ff191683800117855562000c64565b8280016001018555821562000c64579182015b8281111562000c6457825182559160200191906001019062000c47565b5062000c7292915062000c76565b5090565b5b8082111562000c72576000815560010162000c77565b8051620005278162000fcf565b600082601f83011262000cab578081fd5b81516001600160401b0381111562000cc1578182fd5b602062000cd7601f8301601f1916820162000f9c565b9250818352848183860101111562000cee57600080fd5b60005b8281101562000d0e57848101820151848201830152810162000cf1565b8281111562000d205760008284860101525b50505092915050565b60006020828403121562000d3b578081fd5b815162000d488162000fcf565b9392505050565b60006020828403121562000d61578081fd5b5051919050565b60006020828403121562000d7a578081fd5b81516001600160401b038082111562000d91578283fd5b818401915061018080838703121562000da8578384fd5b62000db38162000f9c565b905062000dc1868462000c8d565b815260208301518281111562000dd5578485fd5b62000de38782860162000c9a565b60208301525060408301518281111562000dfb578485fd5b62000e098782860162000c9a565b60408301525062000e1e866060850162000c8d565b606082015262000e32866080850162000c8d565b608082015262000e468660a0850162000c8d565b60a082015260c083015160c082015260e083015160e082015261010080840151818301525061012080840151818301525061014062000e888782860162000c8d565b90820152610160838101518381111562000ea0578586fd5b62000eae8882870162000c9a565b918301919091525095945050505050565b60006020828403121562000ed1578081fd5b815160ff8116811462000d48578182fd5b60006060820185835260206060818501528186518084526080860191508288019350845b8181101562000f2e5762000f1b855162000fc3565b8352938301939183019160010162000f06565b505084810360408601528551808252908201925081860190845b8181101562000a3d5762000f5d835162000fc3565b8552938301939183019160010162000f48565b602081016003831062000f7f57fe5b91905290565b90815260200190565b918252602082015260400190565b6040518181016001600160401b038111828210171562000fbb57600080fd5b604052919050565b6001600160a01b031690565b6001600160a01b038116811462000a5d57600080fd5b60805160a05160c05160e0516101005160601c6101205160601c61014051610160516101805160601c6101a0516101c05160601c6101e05160601c6102005160601c6102205161024051610260516102805161491662001172600039806107f352508061078f5280612981525080610717528061081b5280610c505280612dfc5280612f8552806130bd52806131c85280613345528061347d5250806107b152806109bb5280610c165280612dc85280612f0a5280612f5152806130475280613089528061319452806132cf5280613311528061340752806134495250806113f7528061262c52806126f852806129a75280612d7d5280612e96528061314a528061325b5250806109df52806110ed52806119ef5280611a8e52806125e352806126af52806129465280612d3e5280612e405280612fd3528061310b528061320c52806133935250806111cb5250806109485250508061181c5250806117f8525080610fd0525080610fac525080610f5c52508061232052508061236252508061234152506149166000f3fe608060405234801561001057600080fd5b506004361061032b5760003560e01c80637ecebe00116101b2578063a457c2d7116100f9578063d505accf116100a2578063de82cd341161007c578063de82cd34146105e8578063ed24911d146105f0578063f174e241146105f8578063f5431aa8146106005761032b565b8063d505accf146105af578063d5c096c4146105c2578063dd62ed3e146105d55761032b565b8063b35056b8116100d3578063b35056b814610597578063b7b814fc1461059f578063d2946c2b146105a75761032b565b8063a457c2d714610569578063a9059cbb1461057c578063aaabadc51461058f5761032b565b8063893d20e81161015b57806395d89b411161013557806395d89b411461053b5780639d2c110c146105435780639f11080e146105565761032b565b8063893d20e8146105185780638d928af81461052057806390193b7c146105285761032b565b80638456cb591161018c5780638456cb59146104fd578063851c1bb31461050557806387ec6817146104675761032b565b80637ecebe00146104da5780638129fc1c146104ed57806382687a56146104f55761032b565b8063395093511161027657806355c676281161021f578063679aefce116101f9578063679aefce1461049e57806370a08231146104a657806374f3b009146104b95761032b565b806355c676281461045f5780636028bfd41461046757806363fe3b56146104885761032b565b80634de046d5116102505780634de046d51461043a57806354a844ba1461044f57806354fd4d50146104575761032b565b806339509351146104175780633f4ba83a1461042a5780634d64cd74146104325761032b565b80631dd746ea116102d85780633644e515116102b25780633644e515146103f257806338e9922e146103fa57806338fff2d01461040f5761032b565b80631dd746ea146103b557806323b872dd146103ca578063313ce567146103dd5761032b565b806316b8d6ff1161030957806316b8d6ff1461038e57806318160ddd146103965780631c0de0511461039e5761032b565b806301ec954a1461033057806306fdde0314610359578063095ea7b31461036e575b600080fd5b61034361033e36600461424a565b610608565b60405161035091906145dd565b60405180910390f35b610361610668565b6040516103509190614821565b61038161037c36600461401c565b6106fe565b60405161035091906145ba565b610343610715565b610343610739565b6103a661073f565b604051610350939291906145c5565b6103bd610768565b6040516103509190614582565b6103816103d8366004613f6c565b610876565b6103e56108ec565b604051610350919061485b565b6103436108f5565b61040d610408366004614307565b610904565b005b610343610946565b61038161042536600461401c565b61096a565b61040d6109a5565b6103436109b9565b6104426109dd565b60405161035091906144d7565b61040d610a01565b610361610a55565b610343610ab6565b61047a61047536600461414b565b610ac9565b604051610350929190614834565b610490610ae7565b60405161035092919061484d565b610343610b25565b6103436104b4366004613f18565b610cba565b6104cc6104c736600461414b565b610cd9565b604051610350929190614595565b6103436104e8366004613f18565b610d9b565b61040d610da6565b610343610f41565b61040d610f46565b6103436105133660046141ee565b610f58565b610442610faa565b610442610fce565b610343610536366004613f18565b610ff2565b61036161100d565b6103436105513660046142bb565b61106e565b61040d61056436600461431f565b6110a7565b61038161057736600461401c565b611119565b61038161058a36600461401c565b611157565b610442611164565b61038161116e565b61040d61117f565b6104426111c9565b61040d6105bd366004613fac565b6111ed565b6104cc6105d036600461414b565b61126e565b6103436105e3366004613f34565b611305565b610343611342565b6103436113eb565b6104426113f5565b610343611419565b6000846080015161063561061a610fce565b6001600160a01b0316336001600160a01b03161460cd61162b565b61064a610640610946565b82146101f461162b565b610652611639565b61065e8686868661164c565b9695505050505050565b60038054604080516020601f60026000196101006001881615020190951694909404938401819004810282018101909252828152606093909290918301828280156106f45780601f106106c9576101008083540402835291602001916106f4565b820191906000526020600020905b8154815290600101906020018083116106d757829003601f168201915b5050505050905090565b600061070b338484611771565b5060015b92915050565b7f000000000000000000000000000000000000000000000000000000000000000090565b60025490565b600080600061074c6117d9565b1592506107576117f6565b915061076161181a565b9050909192565b604080516003808252608082019092526060918291906020820183803683370190505090507f0000000000000000000000000000000000000000000000000000000000000000817f0000000000000000000000000000000000000000000000000000000000000000815181106107da57fe5b6020026020010181815250506108186107f161183e565b7f000000000000000000000000000000000000000000000000000000000000000090611859565b817f00000000000000000000000000000000000000000000000000000000000000008151811061084457fe5b602002602001018181525050670de0b6b3a76400008160008151811061086657fe5b6020908102919091010152905090565b6000806108838533611305565b90506108a7336001600160a01b038716148061089f5750838210155b61019e61162b565b6108b2858585611891565b336001600160a01b038616148015906108cd57506000198114155b156108df576108df8533858403611771565b60019150505b9392505050565b60055460ff1690565b60006108ff6113eb565b905090565b61090c611971565b6109146119ba565b60008061091f610ae7565b9150915061093861093083836119ca565b61014f61162b565b61094183611ad1565b505050565b7f000000000000000000000000000000000000000000000000000000000000000090565b3360008181526001602090815260408083206001600160a01b0387168452909152812054909161070b9185906109a09086611b49565b611771565b6109ad611971565b6109b76000611b5b565b565b7f000000000000000000000000000000000000000000000000000000000000000090565b7f000000000000000000000000000000000000000000000000000000000000000090565b610a09611971565b610a11611bec565b610a1b6001611c00565b7feff3d4d215b42bf0960be9c6d5e05c22cba4df6627a3a523e2acee733b5854c86001604051610a4b91906145ba565b60405180910390a1565b60098054604080516020601f60026000196101006001881615020190951694909404938401819004810282018101909252828152606093909290918301828280156106f45780601f106106c9576101008083540402835291602001916106f4565b6008546000906108ff9060c0603f611c42565b60006060610adb888785611c51611c68565b97509795505050505050565b6008546000908190670de0b6b3a7640000610b0482602080611c42565b029250670de0b6b3a7640000610b1d8260406020611c42565b029150509091565b600080610b30610946565b90506060610b3c610fce565b6001600160a01b031663f94d4668836040518263ffffffff1660e01b8152600401610b6791906145dd565b60006040518083038186803b158015610b7f57600080fd5b505afa158015610b93573d6000803e3d6000fd5b505050506040513d6000823e601f3d908101601f19168201604052610bbb9190810190614047565b50915050610bd081610bcb610768565b611dcf565b600080610bdb610ae7565b91509150610be7613c89565b6040518060600160405280610bfa610ab6565b81526020018481526020018381525090506000610c86610c4d867f000000000000000000000000000000000000000000000000000000000000000081518110610c3f57fe5b602002602001015184611e38565b867f000000000000000000000000000000000000000000000000000000000000000081518110610c7957fe5b6020026020010151611e99565b9050610caf610ca886600081518110610c9b57fe5b6020026020010151611ea5565b8290611eb9565b965050505050505090565b6001600160a01b0381166000908152602081905260409020545b919050565b60608088610ce861061a610fce565b610cf3610640610946565b6000610cfe85611f10565b15610d2657610d0b611f3f565b610d1d88610d17610739565b87611f52565b94509050610d3e565b610d2e611639565b610d398a8987611c51565b945090505b610d488a82612048565b835167ffffffffffffffff81118015610d6057600080fd5b50604051908082528060200260200182016040528015610d8a578160200160208202803683370190505b509250505097509795505050505050565b600061070f82610ff2565b6000610db0610946565b90506060610dbc610fce565b6001600160a01b031663f94d4668836040518263ffffffff1660e01b8152600401610de791906145dd565b60006040518083038186803b158015610dff57600080fd5b505afa158015610e13573d6000803e3d6000fd5b505050506040513d6000823e601f3d908101601f19168201604052610e3b9190810190614047565b505060408051600380825260808201909252919250606091906020820183803683370190505090506dffffffffffffffffffffffffffff81600081518110610e7f57fe5b602002602001018181525050610e93613caa565b6040518060800160405280610ea785612052565b8152602001838152602001604051806020016040528060008152508152602001600015158152509050610ed8610fce565b6001600160a01b031663b95cac28853030856040518563ffffffff1660e01b8152600401610f099493929190614605565b600060405180830381600087803b158015610f2357600080fd5b505af1158015610f37573d6000803e3d6000fd5b5050505050505050565b600090565b610f4e611971565b6109b76001611b5b565b60007f000000000000000000000000000000000000000000000000000000000000000082604051602001610f8d929190614461565b604051602081830303815290604052805190602001209050919050565b7f000000000000000000000000000000000000000000000000000000000000000090565b7f000000000000000000000000000000000000000000000000000000000000000090565b6001600160a01b031660009081526006602052604090205490565b60048054604080516020601f60026000196101006001881615020190951694909404938401819004810282018101909252828152606093909290918301828280156106f45780601f106106c9576101008083540402835291602001916106f4565b6000836080015161108061061a610fce565b61108b610640610946565b611093611639565b61109e858585612055565b95945050505050565b6110af611971565b6110b76119ba565b6000806110c2610ae7565b915091506110d361093083836119ca565b6110e86110e085856119ca565b61015761162b565b6111137f00000000000000000000000000000000000000000000000000000000000000008585612062565b50505050565b6000806111263385611305565b90508083106111405761113b33856000611771565b61114d565b61114d3385858403611771565b5060019392505050565b600061070b338484611891565b60006108ff612138565b6008546000906108ff9060ff6121b2565b611187611971565b61118f611f3f565b6111996000611c00565b7feff3d4d215b42bf0960be9c6d5e05c22cba4df6627a3a523e2acee733b5854c86000604051610a4b91906145ba565b7f000000000000000000000000000000000000000000000000000000000000000090565b60007f6e71edae12b1b97f4d1f60370fef10105fa2faae0126114a169c64845d6126c988888861121c8c610ff2565b89604051602001611232969594939291906146f2565b604051602081830303815290604052805190602001209050611263888261125a8787876121b9565b886101f86121f8565b610f37888888611771565b6060808861127d61061a610fce565b611288610640610946565b6000611292611639565b61129a610739565b6112ec576112a98a8a8761224f565b945090506112c26112b8610f41565b82101560cc61162b565b6112d460006112cf610f41565b6122e7565b6112e7896112e0610f41565b83036122e7565b610d48565b6112f78a8987611c51565b94509050610d4889826122e7565b600061130f610fce565b6001600160a01b0316826001600160a01b03161415611331575060001961070f565b61133b83836122f1565b905061070f565b600080600061134f610fce565b6001600160a01b031663b05f8e48611365610946565b306040518363ffffffff1660e01b81526004016113839291906147d8565b60806040518083038186803b15801561139b57600080fd5b505afa1580156113af573d6000803e3d6000fd5b505050506040513d601f19601f820116820180604052508101906113d39190614340565b5050915091506113e4818301611ea5565b9250505090565b60006108ff61231c565b7f000000000000000000000000000000000000000000000000000000000000000090565b60006108ff61183e565b600061142e836115d8565b6060835160010167ffffffffffffffff8111801561144b57600080fd5b50604051908082528060200260200182016040528015611475578160200160208202803683370190505b509050308160008151811061148657fe5b60200260200101906001600160a01b031690816001600160a01b03168152505060005b84518110156114f5578481815181106114be57fe5b60200260200101518282600101815181106114d557fe5b6001600160a01b03909216602092830291909101909101526001016114a9565b506060835160010167ffffffffffffffff8111801561151357600080fd5b5060405190808252806020026020018201604052801561153d578160200160208202803683370190505b50905060008160008151811061154f57fe5b60200260200101906001600160a01b031690816001600160a01b03168152505060005b84518110156115be5784818151811061158757fe5b602002602001015182826001018151811061159e57fe5b6001600160a01b0390921660209283029190910190910152600101611572565b506115cb878784846123b9565b925050505b949350505050565b806115e2816124c2565b5050565b60006115f683831115600161162b565b50900390565b600061160984848461253b565b506001901b60001901811b1992909216911b1790565b80820390821102900390565b816115e2576115e281612581565b6109b76116446117d9565b61019261162b565b60006116686003841080156116615750600383105b606461162b565b6060611672610768565b905061167e8582611dcf565b600080611689610ae7565b91509150611695613c89565b60405180606001604052806116a8610ab6565b81526020810185905260400183905290506000895160018111156116c857fe5b141561172c576116ef89606001518589815181106116e257fe5b60200260200101516125ab565b60608a015260006117018a8a846125b7565b90506117208186898151811061171357fe5b602002602001015161267e565b955050505050506115d0565b61174089606001518588815181106116e257fe5b60608a015260006117528a8a8461268a565b905061172081868a8151811061176457fe5b602002602001015161273f565b6001600160a01b0380841660008181526001602090815260408083209487168084529490915290819020849055517f8c5be1e5ebec7d5bd14f71427d1e84f3dd0314c0f7b2291e5b200ac8c7c3b925906117cc9085906145dd565b60405180910390a3505050565b60006117e361181a565b4211806108ff57505060075460ff161590565b7f000000000000000000000000000000000000000000000000000000000000000090565b7f000000000000000000000000000000000000000000000000000000000000000090565b60006108ff61184b6113f5565b670de0b6b3a764000061274b565b600082820261187d84158061187657508385838161187357fe5b04145b600361162b565b670de0b6b3a7640000815b04949350505050565b6118a86001600160a01b038416151561019861162b565b6118bf6001600160a01b038316151561019961162b565b6118ca838383610941565b6001600160a01b0383166000908152602081905260409020546118f090826101a0612791565b6001600160a01b03808516600090815260208190526040808220939093559084168152205461191f9082611b49565b6001600160a01b0380841660008181526020819052604090819020939093559151908516907fddf252ad1be2c89b69c2b068fc378daa952ba7f163c4a11628f55a4df523b3ef906117cc9085906145dd565b60006119a06000357fffffffff0000000000000000000000000000000000000000000000000000000016610f58565b90506119b76119af82336127a7565b61019161162b565b50565b6109b76119c5610fce565b612890565b60008060006119d7610fce565b6001600160a01b031663b05f8e486119ed610946565b7f00000000000000000000000000000000000000000000000000000000000000006040518363ffffffff1660e01b8152600401611a2b9291906147d8565b60806040518083038186803b158015611a4357600080fd5b505afa158015611a57573d6000803e3d6000fd5b505050506040513d601f19601f82011682018060405250810190611a7b9190614340565b5050915091506000611ab7828401611ab27f0000000000000000000000000000000000000000000000000000000000000000612942565b6125ab565b905085811015801561065e57509390931115949350505050565b611ae464e8d4a5100082101560cb61162b565b611afa67016345785d8a000082111560ca61162b565b600854611b0b908260c0603f6115fc565b6008556040517fa9ba3ffe0b6c366b81232caab38605a0699ad5398d6cce76f91ee809e322dafc90611b3e9083906145dd565b60405180910390a150565b60008282016108e5848210158361162b565b8015611b7b57611b76611b6c6117f6565b421061019361162b565b611b90565b611b90611b8661181a565b42106101a961162b565b600780547fffffffffffffffffffffffffffffffffffffffffffffffffffffffffffffff00168215151790556040517f9e3a5e37224532dea67b89face185703738a228a6e8a23dee546960180d3be6490611b3e9083906145ba565b6109b7611bf761116e565b156101b561162b565b600854611c0f908260ff612a1c565b6008556040517feff3d4d215b42bf0960be9c6d5e05c22cba4df6627a3a523e2acee733b5854c890611b3e9083906145ba565b6001901b6000190191901c1690565b60006060611c606103e6612581565b935093915050565b333014611d57576000306001600160a01b0316600036604051611c8c929190614491565b6000604051808303816000865af19150503d8060008114611cc9576040519150601f19603f3d011682016040523d82523d6000602084013e611cce565b606091505b505090508060008114611cdd57fe5b60046000803e6000517fffffffff00000000000000000000000000000000000000000000000000000000167f43adbafb000000000000000000000000000000000000000000000000000000008114611d39573d6000803e3d6000fd5b506020600460003e604060205260243d03602460403e601c3d016000f35b60006060611d6a8686868663ffffffff16565b8051601f1982018390526343adbafb7fffffffffffffffffffffffffffffffffffffffffffffffffffffffffffffffc083015291935091506020027fffffffffffffffffffffffffffffffffffffffffffffffffffffffffffffffdc82016044820181fd5b81518151611dde908290612a2b565b60005b8181101561111357611e19848281518110611df857fe5b6020026020010151848381518110611e0c57fe5b6020026020010151611859565b848281518110611e2557fe5b6020908102919091010152600101611de1565b60008160200151831015611e715781516020830151600091611e5d9186900390611859565b9050611e6984826115e6565b91505061070f565b81604001518311611e8357508161070f565b81516040830151600091611e5d91860390611859565b60006108e58383611b49565b600061070f82611eb3610739565b906115e6565b6000611ec8821515600461162b565b670de0b6b3a76400008302611efa841580611ef35750670de0b6b3a7640000858381611ef057fe5b04145b600561162b565b6001836001830304018115150291505092915050565b600080825111801561070f575060ff801682806020019051810190611f359190614380565b60ff161492915050565b6109b7611f4a61116e565b6101b661162b565b600060606000611f6184612a38565b90506060865167ffffffffffffffff81118015611f7d57600080fd5b50604051908082528060200260200182016040528015611fa7578160200160208202803683370190505b5090506000611fb4610f41565b90506000611fc7898381518110610c9b57fe5b90506000611fd58583612a4e565b905060005b8a518110156120375783811415611ff2576000612018565b612018828c838151811061200257fe5b602002602001015161185990919063ffffffff16565b85828151811061202457fe5b6020908102919091010152600101611fda565b509399929850919650505050505050565b6115e28282612a8e565b90565b60006108e56103e6612581565b6120718183111561014c61162b565b61208c6b0de0b6b39983494c589c000082111561014d61162b565b6120a4670de0b6b3a7640000825b061561016161162b565b6120b6670de0b6b3a76400008361209a565b6120eb670de0b6b3a76400008204604060206120e3670de0b6b3a7640000876008549190046020806115fc565b9291906115fc565b6008556040516001600160a01b038416907fd0e27a0d0c2cb09280fa5e4487315455b32afcdcf012dc35b6ef2a0e3c4d12809061212b908590859061484d565b60405180910390a2505050565b6000612142610fce565b6001600160a01b031663aaabadc56040518163ffffffff1660e01b815260040160206040518083038186803b15801561217a57600080fd5b505afa15801561218e573d6000803e3d6000fd5b505050506040513d601f19601f820116820180604052508101906108ff919061422e565b1c60011690565b60408051604180825260808201909252606091829190602082018180368337019050509050836020820152826040820152846060820153949350505050565b600061220385612b5a565b9050612219612213878387612b76565b8361162b565b612228428410156101b861162b565b5050506001600160a01b039092166000908152600660205260409020805460010190555050565b6000606061226a6001600160a01b038616301461015661162b565b6122816001600160a01b038516301461015661162b565b604080516003808252608082019092526dffffffffffffffffffffffffffff91606091906020820183803683370190505090506dffffffffffffffffffffffffffff816000815181106122d057fe5b602090810291909101015290969095509350505050565b6115e28282612c25565b6001600160a01b03918216600090815260016020908152604080832093909416825291909152205490565b60007f00000000000000000000000000000000000000000000000000000000000000007f00000000000000000000000000000000000000000000000000000000000000007f0000000000000000000000000000000000000000000000000000000000000000612389612cb8565b3060405160200161239e9594939291906147ac565b60405160208183030381529060405280519060200120905090565b600080856001600160a01b03166309b2760f866040518263ffffffff1660e01b81526004016123e8919061480d565b602060405180830381600087803b15801561240257600080fd5b505af1158015612416573d6000803e3d6000fd5b505050506040513d601f19601f8201168201806040525081019061243a9190614133565b6040517f66a9c7d20000000000000000000000000000000000000000000000000000000081529091506001600160a01b038716906366a9c7d29061248690849088908890600401614726565b600060405180830381600087803b1580156124a057600080fd5b505af11580156124b4573d6000803e3d6000fd5b509298975050505050505050565b6002815110156124d1576119b7565b6000816000815181106124e057fe5b602002602001015190506000600190505b825181101561094157600083828151811061250857fe5b60200260200101519050612531816001600160a01b0316846001600160a01b031610606561162b565b91506001016124f1565b61254a6101008310606461162b565b61257260018210158015611661575061256860ff846101000361161f565b821115606461162b565b61094183821c156101b461162b565b6119b7817f42414c0000000000000000000000000000000000000000000000000000000000612cbc565b60006108e58383611859565b60208301516000906001600160a01b03163014156125e1576125da848484612d37565b90506108e5565b7f00000000000000000000000000000000000000000000000000000000000000006001600160a01b031684602001516001600160a01b0316141561262a576125da848484612e8f565b7f00000000000000000000000000000000000000000000000000000000000000006001600160a01b031684602001516001600160a01b03161415612673576125da848484612fcc565b6108e5610135612581565b60006108e58383612a4e565b60408301516000906001600160a01b03163014156126ad576125da848484613104565b7f00000000000000000000000000000000000000000000000000000000000000006001600160a01b031684604001516001600160a01b031614156126f6576125da848484613254565b7f00000000000000000000000000000000000000000000000000000000000000006001600160a01b031684604001516001600160a01b03161415612673576125da84848461338c565b60006108e58383611eb9565b600080612757846134c4565b905080612767578291505061070f565b600061277285613572565b90506127888261278286846135e6565b90613600565b9250505061070f565b60006127a0848411158361162b565b5050900390565b600073ba1ba1ba1ba1ba1ba1ba1ba1ba1ba1ba1ba1ba1b6127c6610faa565b6001600160a01b0316141580156127e157506127e183613620565b15612809576127ee610faa565b6001600160a01b0316336001600160a01b031614905061070f565b612811612138565b6001600160a01b0316639be2a8848484306040518463ffffffff1660e01b8152600401612840939291906145e6565b60206040518083038186803b15801561285857600080fd5b505afa15801561286c573d6000803e3d6000fd5b505050506040513d601f19601f8201168201806040525081019061133b9190614113565b604080516000808252602082019092526060916128c3565b6128b0613cd4565b8152602001906001900390816128a85790505b506040517f0e8e3e840000000000000000000000000000000000000000000000000000000081529091506001600160a01b03831690630e8e3e849061290c9084906004016144eb565b600060405180830381600087803b15801561292657600080fd5b505af115801561293a573d6000803e3d6000fd5b505050505050565b60007f00000000000000000000000000000000000000000000000000000000000000006001600160a01b0316826001600160a01b031614156129a557507f0000000000000000000000000000000000000000000000000000000000000000610cd4565b7f00000000000000000000000000000000000000000000000000000000000000006001600160a01b0316826001600160a01b031614156129f1576129ea6107f161183e565b9050610cd4565b6001600160a01b038216301415612a115750670de0b6b3a7640000610cd4565b610cd4610135612581565b6001811b1992909216911b1790565b6115e2818314606761162b565b6000818060200190518101906108e5919061439c565b6000612a5d821515600461162b565b670de0b6b3a76400008302612a85841580611ef35750670de0b6b3a7640000858381611ef057fe5b82818161188857fe5b612aa56001600160a01b038316151561019b61162b565b612ab182600083610941565b6001600160a01b038216600090815260208190526040902054612ad790826101b2612791565b6001600160a01b038316600090815260208190526040902055612b0a612b0582612aff610739565b90613684565b613692565b60006001600160a01b0316826001600160a01b03167fddf252ad1be2c89b69c2b068fc378daa952ba7f163c4a11628f55a4df523b3ef83604051612b4e91906145dd565b60405180910390a35050565b6000612b6461231c565b82604051602001610f8d9291906144a1565b6000612b8882516041146101b961162b565b60208281015160408085015160608601518251600080825295019283905292939092811a91600190612bc19089908590889088906147ef565b6020604051602081039080840390855afa158015612be3573d6000803e3d6000fd5b5050604051601f1901519150506001600160a01b03811615801590612c195750876001600160a01b0316816001600160a01b0316145b98975050505050505050565b612c3160008383610941565b612c46612b0582612c40610739565b90611b49565b6001600160a01b038216600090815260208190526040902054612c699082611b49565b6001600160a01b0383166000818152602081905260408082209390935591519091907fddf252ad1be2c89b69c2b068fc378daa952ba7f163c4a11628f55a4df523b3ef90612b4e9085906145dd565b4690565b7f08c379a000000000000000000000000000000000000000000000000000000000600090815260206004526007602452600a808404818106603090810160081b958390069590950190829004918206850160101b01602363ffffff0060e086901c160160181b0190930160c81b60445260e882901c90606490fd5b6000612dbd7f00000000000000000000000000000000000000000000000000000000000000006001600160a01b031685604001516001600160a01b03161480612db557507f00000000000000000000000000000000000000000000000000000000000000006001600160a01b031685604001516001600160a01b0316145b61013561162b565b6115d08460600151847f000000000000000000000000000000000000000000000000000000000000000081518110612df157fe5b6020026020010151857f000000000000000000000000000000000000000000000000000000000000000081518110612e2557fe5b6020026020010151612e3d87600081518110610c9b57fe5b867f00000000000000000000000000000000000000000000000000000000000000006001600160a01b03168a604001516001600160a01b031614612e8357613697612e87565b6136f55b63ffffffff16565b6000612eeb7f00000000000000000000000000000000000000000000000000000000000000006001600160a01b031685604001516001600160a01b03161480612db5575060408501516001600160a01b0316301461013561162b565b60408401516001600160a01b03163014612f4657612f418460600151847f000000000000000000000000000000000000000000000000000000000000000081518110612f3357fe5b60200260200101518461375e565b6115d0565b6115d08460600151847f000000000000000000000000000000000000000000000000000000000000000081518110612f7a57fe5b6020026020010151857f000000000000000000000000000000000000000000000000000000000000000081518110612fae57fe5b6020026020010151612fc687600081518110610c9b57fe5b8661378e565b60006130287f00000000000000000000000000000000000000000000000000000000000000006001600160a01b031685604001516001600160a01b03161480612db5575060408501516001600160a01b0316301461013561162b565b60408401516001600160a01b0316301461307e57612f418460600151847f00000000000000000000000000000000000000000000000000000000000000008151811061307057fe5b6020026020010151846137f4565b6115d08460600151847f0000000000000000000000000000000000000000000000000000000000000000815181106130b257fe5b6020026020010151857f0000000000000000000000000000000000000000000000000000000000000000815181106130e657fe5b60200260200101516130fe87600081518110610c9b57fe5b86613829565b60006131897f00000000000000000000000000000000000000000000000000000000000000006001600160a01b031685602001516001600160a01b03161480612db557507f00000000000000000000000000000000000000000000000000000000000000006001600160a01b031685602001516001600160a01b03161461013561162b565b6115d08460600151847f0000000000000000000000000000000000000000000000000000000000000000815181106131bd57fe5b6020026020010151857f0000000000000000000000000000000000000000000000000000000000000000815181106131f157fe5b602002602001015161320987600081518110610c9b57fe5b867f00000000000000000000000000000000000000000000000000000000000000006001600160a01b03168a602001516001600160a01b03161461324f57613890612e87565b6138e7565b60006132b07f00000000000000000000000000000000000000000000000000000000000000006001600160a01b031685602001516001600160a01b03161480612db5575060208501516001600160a01b0316301461013561162b565b60208401516001600160a01b0316301461330657612f418460600151847f0000000000000000000000000000000000000000000000000000000000000000815181106132f857fe5b602002602001015184613951565b6115d08460600151847f00000000000000000000000000000000000000000000000000000000000000008151811061333a57fe5b6020026020010151857f00000000000000000000000000000000000000000000000000000000000000008151811061336e57fe5b602002602001015161338687600081518110610c9b57fe5b8661397b565b60006133e87f00000000000000000000000000000000000000000000000000000000000000006001600160a01b031685602001516001600160a01b03161480612db5575060208501516001600160a01b0316301461013561162b565b60208401516001600160a01b0316301461343e57612f418460600151847f00000000000000000000000000000000000000000000000000000000000000008151811061343057fe5b6020026020010151846139ca565b6115d08460600151847f00000000000000000000000000000000000000000000000000000000000000008151811061347257fe5b6020026020010151857f0000000000000000000000000000000000000000000000000000000000000000815181106134a657fe5b60200260200101516134be87600081518110610c9b57fe5b866139ff565b6000816001600160a01b03166318160ddd6040518163ffffffff1660e01b815260040160206040518083038186803b1580156134ff57600080fd5b505afa92505050801561352f575060408051601f3d908101601f1916820190925261352c91810190614133565b60015b6129ea573d80801561355d576040519150601f19603f3d011682016040523d82523d6000602084013e613562565b606091505b5061356c81613a53565b50610cd4565b60008061357e83613ada565b9050600061358b84613b15565b905060006135a261359b86613b50565b42906115e6565b905060006135b96135b287613b8b565b83906135e6565b905060006135cf846135ca84613bc6565b611859565b90506135db85826115e6565b979650505050505050565b60008282026108e584158061187657508385838161187357fe5b600061360f821515600461162b565b81838161361857fe5b049392505050565b600061364b7f9f11080e00000000000000000000000000000000000000000000000000000000610f58565b82148061070f575061367c7f38e9922e00000000000000000000000000000000000000000000000000000000610f58565b909114919050565b60006108e583836001612791565b600255565b6000806136a48684611e38565b905060006136b28287611e99565b905060006136c0868a6115e6565b905060006136db84611eb36136d585876135e6565b8a613bd8565b90506136e788826115e6565b9a9950505050505050505050565b6000806137028684611e38565b905060006137108287611e99565b90506000613727613721838b6135e6565b87613600565b9050600061373584836115e6565b905060006137438288613bf9565b905061374f8a826115e6565b9b9a5050505050505050505050565b60008061376b8484611e38565b9050600061378261377c8688611b49565b85611e38565b905061065e81836115e6565b6000826137a65761379f8683611e38565b905061109e565b60006137b28684611e38565b905060006137c361377c888a611b49565b905060006137d182846115e6565b905060006137df8489611e99565b90506136e76137ee88846135e6565b82613600565b6000806138018484611e38565b9050600061380f82876115e6565b9050600061381d8286613bf9565b90506135db86826115e6565b60008261383757508461109e565b60006138438684611e38565b905060006138518287611e99565b9050600061385f878a611b49565b9050600061386d8483611e99565b9050600061388461387e89846135e6565b85613600565b905061374f81896115e6565b60008261389e57508461109e565b60006138aa8684611e38565b905060006138b88287611e99565b905060006138c6868a611b49565b905060006138db84611eb36136d585876135e6565b90506136e781896115e6565b6000826138f85761379f8683613bf9565b60006139048684611e38565b905060006139128287611e99565b90506000613929613923838b6135e6565b87613bd8565b905060006139378483611b49565b905060006139458288613bf9565b905061374f818b6115e6565b60008061395e8484611e38565b9050600061396f61377c86886115e6565b905061065e82826115e6565b6000806139888684611e38565b9050600061399961377c888a6115e6565b905060006139a783836115e6565b905060006139b58489611e99565b90506136e76139c488846135e6565b82613bd8565b6000806139d78484611e38565b905060006139e58287611b49565b905060006139f38286613bf9565b90506135db81876115e6565b600080613a0c8684611e38565b90506000613a1a8287611e99565b90506000613a28878a6115e6565b90506000613a368483611e99565b90506000613a4761387e89846135e6565b905061374f88826115e6565b805160208201517fffffffff00000000000000000000000000000000000000000000000000000000167f43adbafb0000000000000000000000000000000000000000000000000000000081147ffa61cc1200000000000000000000000000000000000000000000000000000000821417613ace578160208401fd5b506115e2610165612581565b6000816001600160a01b03166301e1d1146040518163ffffffff1660e01b815260040160206040518083038186803b1580156134ff57600080fd5b6000816001600160a01b03166344b813966040518163ffffffff1660e01b815260040160206040518083038186803b1580156134ff57600080fd5b6000816001600160a01b031663c3535b526040518163ffffffff1660e01b815260040160206040518083038186803b1580156134ff57600080fd5b6000816001600160a01b031663422327166040518163ffffffff1660e01b815260040160206040518083038186803b1580156134ff57600080fd5b670de0b6b3a764000081810391100290565b6000613be7821515600461162b565b50811515600019909201046001010290565b60008160200151831015613c4257815161133b90613c2090670de0b6b3a764000090611b49565b60208401518451613c3c91613c359190611859565b8690611b49565b90612a4e565b81604001518311613c5457508161070f565b815161133b90613c6d90670de0b6b3a7640000906115e6565b60408401518451613c3c91613c829190611859565b86906115e6565b60405180606001604052806000815260200160008152602001600081525090565b60405180608001604052806060815260200160608152602001606081526020016000151581525090565b6040805160a081019091528060008152600060208201819052604082018190526060820181905260809091015290565b803561070f816148bc565b600082601f830112613d1f578081fd5b8135613d32613d2d82614890565b614869565b818152915060208083019084810181840286018201871015613d5357600080fd5b60005b84811015613d7257813584529282019290820190600101613d56565b505050505092915050565b600082601f830112613d8d578081fd5b8151613d9b613d2d82614890565b818152915060208083019084810181840286018201871015613dbc57600080fd5b60005b84811015613d7257815184529282019290820190600101613dbf565b600082601f830112613deb578081fd5b813567ffffffffffffffff811115613e01578182fd5b613e146020601f19601f84011601614869565b9150808252836020828501011115613e2b57600080fd5b8060208401602084013760009082016020015292915050565b80356002811061070f57600080fd5b6000610120808385031215613e66578182fd5b613e6f81614869565b915050613e7c8383613e44565b8152613e8b8360208401613d04565b6020820152613e9d8360408401613d04565b6040820152606082013560608201526080820135608082015260a082013560a0820152613ecd8360c08401613d04565b60c0820152613edf8360e08401613d04565b60e08201526101008083013567ffffffffffffffff811115613f0057600080fd5b613f0c85828601613ddb565b82840152505092915050565b600060208284031215613f29578081fd5b81356108e5816148bc565b60008060408385031215613f46578081fd5b8235613f51816148bc565b91506020830135613f61816148bc565b809150509250929050565b600080600060608486031215613f80578081fd5b8335613f8b816148bc565b92506020840135613f9b816148bc565b929592945050506040919091013590565b600080600080600080600060e0888a031215613fc6578283fd5b8735613fd1816148bc565b96506020880135613fe1816148bc565b955060408801359450606088013593506080880135613fff816148d1565b9699959850939692959460a0840135945060c09093013592915050565b6000806040838503121561402e578182fd5b8235614039816148bc565b946020939093013593505050565b60008060006060848603121561405b578081fd5b835167ffffffffffffffff80821115614072578283fd5b818601915086601f830112614085578283fd5b8151614093613d2d82614890565b80828252602080830192508086018b8283870289010111156140b3578788fd5b8796505b848710156140de5780516140ca816148bc565b8452600196909601959281019281016140b7565b5089015190975093505050808211156140f5578283fd5b5061410286828701613d7d565b925050604084015190509250925092565b600060208284031215614124578081fd5b815180151581146108e5578182fd5b600060208284031215614144578081fd5b5051919050565b600080600080600080600060e0888a031215614165578081fd5b873596506020880135614177816148bc565b95506040880135614187816148bc565b9450606088013567ffffffffffffffff808211156141a3578283fd5b6141af8b838c01613d0f565b955060808a0135945060a08a0135935060c08a01359150808211156141d2578283fd5b506141df8a828b01613ddb565b91505092959891949750929550565b6000602082840312156141ff578081fd5b81357fffffffff00000000000000000000000000000000000000000000000000000000811681146108e5578182fd5b60006020828403121561423f578081fd5b81516108e5816148bc565b6000806000806080858703121561425f578182fd5b843567ffffffffffffffff80821115614276578384fd5b61428288838901613e53565b95506020870135915080821115614297578384fd5b506142a487828801613d0f565b949794965050505060408301359260600135919050565b6000806000606084860312156142cf578081fd5b833567ffffffffffffffff8111156142e5578182fd5b6142f186828701613e53565b9660208601359650604090950135949350505050565b600060208284031215614318578081fd5b5035919050565b60008060408385031215614331578182fd5b50508035926020909101359150565b60008060008060808587031215614355578182fd5b8451935060208501519250604085015191506060850151614375816148bc565b939692955090935050565b600060208284031215614391578081fd5b81516108e5816148d1565b600080604083850312156143ae578182fd5b82516143b9816148d1565b6020939093015192949293505050565b6001600160a01b03169052565b6000815180845260208085019450808401835b83811015614405578151875295820195908201906001016143e9565b509495945050505050565b15159052565b60008151808452815b8181101561443b5760208185018101518683018201520161441f565b8181111561444c5782602083870101525b50601f01601f19169290920160200192915050565b9182527fffffffff0000000000000000000000000000000000000000000000000000000016602082015260240190565b6000828483379101908152919050565b7f190100000000000000000000000000000000000000000000000000000000000081526002810192909252602282015260420190565b6001600160a01b0391909116815260200190565b602080825282518282018190526000919060409081850190868401855b8281101561457557815180516004811061451e57fe5b855280870151614530888701826143c9565b50858101518686015260608082015161454b828801826143c9565b505060809081015190614560868201836143c9565b505060a0939093019290850190600101614508565b5091979650505050505050565b6000602082526108e560208301846143d6565b6000604082526145a860408301856143d6565b828103602084015261109e81856143d6565b901515815260200190565b92151583526020830191909152604082015260600190565b90815260200190565b9283526001600160a01b03918216602084015216604082015260600190565b600085825260206001600160a01b038087168285015280861660408501525060806060840152610100830184516080808601528181518084526101208701915084830193508592505b808310156146765761466084516148b0565b825292840192600192909201919084019061464e565b508387015193507fffffffffffffffffffffffffffffffffffffffffffffffffffffffffffffff809250828682030160a08701526146b481856143d6565b935050506040850151818584030160c08601526146d18382614416565b9250505060608401516146e760e0850182614410565b509695505050505050565b9586526001600160a01b0394851660208701529290931660408501526060840152608083019190915260a082015260c00190565b60006060820185835260206060818501528186518084526080860191508288019350845b8181101561476e5761475c85516148b0565b8352938301939183019160010161474a565b505084810360408601528551808252908201925081860190845b818110156124b45761479a83516148b0565b85529383019391830191600101614788565b9485526020850193909352604084019190915260608301526001600160a01b0316608082015260a00190565b9182526001600160a01b0316602082015260400190565b93845260ff9290921660208401526040830152606082015260800190565b602081016003831061481b57fe5b91905290565b6000602082526108e56020830184614416565b6000838252604060208301526115d060408301846143d6565b918252602082015260400190565b60ff91909116815260200190565b60405181810167ffffffffffffffff8111828210171561488857600080fd5b604052919050565b600067ffffffffffffffff8211156148a6578081fd5b5060209081020190565b6001600160a01b031690565b6001600160a01b03811681146119b757600080fd5b60ff811681146119b757600080fdfea2646970667358221220fed6a84d1aa6f096f67263c8b34d9d987a78802ccde3b74c7c9c7fc1a36d827864736f6c63430007010033",
  "linkReferences": {},
  "deployedLinkReferences": {}
}