{
  "_format": "hh-sol-artifact-1",
  "contractName": "WstETHRateProvider",
  "sourceName": "contracts/WstETHRateProvider.sol",
  "abi": [
    {
      "inputs": [
        {
          "internalType": "contract IwstETH",
          "name": "_wstETH",
          "type": "address"
        }
      ],
      "stateMutability": "nonpayable",
      "type": "constructor"
    },
    {
      "inputs": [],
      "name": "getRate",
      "outputs": [
        {
          "internalType": "uint256",
          "name": "",
          "type": "uint256"
        }
      ],
      "stateMutability": "view",
      "type": "function"
    },
    {
      "inputs": [],
      "name": "wstETH",
      "outputs": [
        {
          "internalType": "contract IwstETH",
          "name": "",
          "type": "address"
        }
      ],
      "stateMutability": "view",
      "type": "function"
    }
  ],
  "bytecode": "0x60a060405234801561001057600080fd5b506040516101e33803806101e38339818101604052602081101561003357600080fd5b5051606081901b6001600160601b0319166080526001600160a01b031661017961006a600039806088528060ae52506101796000f3fe608060405234801561001057600080fd5b50600436106100365760003560e01c80634aa07e641461003b578063679aefce1461006c575b600080fd5b610043610086565b6040805173ffffffffffffffffffffffffffffffffffffffff9092168252519081900360200190f35b6100746100aa565b60408051918252519081900360200190f35b7f000000000000000000000000000000000000000000000000000000000000000081565b60007f000000000000000000000000000000000000000000000000000000000000000073ffffffffffffffffffffffffffffffffffffffff1663035faf826040518163ffffffff1660e01b815260040160206040518083038186803b15801561011257600080fd5b505afa158015610126573d6000803e3d6000fd5b505050506040513d602081101561013c57600080fd5b505190509056fea2646970667358221220ea76cab9de832dbe7dd8e95e2f7455ec90d1a6e7f91a1e03ec840a8393d33dbc64736f6c63430007010033",
  "linkReferences": {},
  "deployedLinkReferences": {}
}