{
  "_format": "hh-sol-artifact-1",
  "contractName": "ChildChainGaugeFactory",
  "sourceName": "contracts/gauges/ChildChainGaugeFactory.sol",
  "abi": [
    {
      "inputs": [
        {
          "internalType": "contract IChildChainGauge",
          "name": "gaugeImplementation",
          "type": "address"
        },
        {
          "internalType": "string",
          "name": "factoryVersion",
          "type": "string"
        },
        {
          "internalType": "string",
          "name": "productVersion",
          "type": "string"
        }
      ],
      "stateMutability": "nonpayable",
      "type": "constructor"
    },
    {
      "anonymous": false,
      "inputs": [
        {
          "indexed": true,
          "internalType": "address",
          "name": "gauge",
          "type": "address"
        }
      ],
      "name": "GaugeCreated",
      "type": "event"
    },
    {
      "inputs": [
        {
          "internalType": "address",
          "name": "pool",
          "type": "address"
        }
      ],
      "name": "create",
      "outputs": [
        {
          "internalType": "address",
          "name": "",
          "type": "address"
        }
      ],
      "stateMutability": "nonpayable",
      "type": "function"
    },
    {
      "inputs": [],
      "name": "getGaugeImplementation",
      "outputs": [
        {
          "internalType": "address",
          "name": "",
          "type": "address"
        }
      ],
      "stateMutability": "view",
      "type": "function"
    },
    {
      "inputs": [],
      "name": "getProductVersion",
      "outputs": [
        {
          "internalType": "string",
          "name": "",
          "type": "string"
        }
      ],
      "stateMutability": "view",
      "type": "function"
    },
    {
      "inputs": [
        {
          "internalType": "address",
          "name": "gauge",
          "type": "address"
        }
      ],
      "name": "isGaugeFromFactory",
      "outputs": [
        {
          "internalType": "bool",
          "name": "",
          "type": "bool"
        }
      ],
      "stateMutability": "view",
      "type": "function"
    },
    {
      "inputs": [],
      "name": "version",
      "outputs": [
        {
          "internalType": "string",
          "name": "",
          "type": "string"
        }
      ],
      "stateMutability": "view",
      "type": "function"
    }
  ],
  "bytecode": "0x60806040523480156200001157600080fd5b50604051620009b9380380620009b98339810160408190526200003491620002aa565b8282620000418162000174565b50600180546001600160a01b0319166001600160a01b0392909216919091179055604051620000759082906020016200036e565b60405160208183030381529060405280519060200120836001600160a01b03166354fd4d506040518163ffffffff1660e01b815260040160006040518083038186803b158015620000c557600080fd5b505afa158015620000da573d6000803e3d6000fd5b505050506040513d6000823e601f3d908101601f1916820160405262000104919081019062000330565b6040516020016200011691906200036e565b6040516020818303038152906040528051906020012014620001555760405162461bcd60e51b81526004016200014c906200038c565b60405180910390fd5b80516200016a9060039060208401906200018d565b50505050620003e9565b8051620001899060009060208401906200018d565b5050565b828054600181600116156101000203166002900490600052602060002090601f016020900481019282601f10620001d057805160ff191683800117855562000200565b8280016001018555821562000200579182015b8281111562000200578251825591602001919060010190620001e3565b506200020e92915062000212565b5090565b5b808211156200020e576000815560010162000213565b600082601f8301126200023a578081fd5b81516001600160401b038082111562000251578283fd5b604051601f8301601f19168101602001828111828210171562000272578485fd5b6040528281529250828483016020018610156200028e57600080fd5b620002a1836020830160208801620003b6565b50505092915050565b600080600060608486031215620002bf578283fd5b83516001600160a01b0381168114620002d6578384fd5b60208501519093506001600160401b0380821115620002f3578384fd5b620003018783880162000229565b9350604086015191508082111562000317578283fd5b50620003268682870162000229565b9150509250925092565b60006020828403121562000342578081fd5b81516001600160401b0381111562000358578182fd5b620003668482850162000229565b949350505050565b6000825162000382818460208701620003b6565b9190910192915050565b60208082526010908201526f0ac8aa4a6929e9cbe9a92a69a82a886960831b604082015260600190565b60005b83811015620003d3578181015183820152602001620003b9565b83811115620003e3576000848401525b50505050565b6105c080620003f96000396000f3fe608060405234801561001057600080fd5b50600436106100675760003560e01c806354fd4d501161005057806354fd4d501461009f5780639ed93318146100a7578063ce3cc8bd146100ba57610067565b806318d6186f1461006c57806339312dee1461008a575b600080fd5b6100746100da565b6040516100819190610540565b60405180910390f35b61009261018e565b60405161008191906104dd565b6100746101aa565b6100926100b5366004610439565b610229565b6100cd6100c8366004610439565b6102b3565b6040516100819190610535565b60038054604080516020601f60027fffffffffffffffffffffffffffffffffffffffffffffffffffffffffffffffff6101006001881615020190951694909404938401819004810282018101909252828152606093909290918301828280156101845780601f1061015957610100808354040283529160200191610184565b820191906000526020600020905b81548152906001019060200180831161016757829003601f168201915b5050505050905090565b60015473ffffffffffffffffffffffffffffffffffffffff1690565b60008054604080516020601f60027fffffffffffffffffffffffffffffffffffffffffffffffffffffffffffffffff6101006001881615020190951694909404938401819004810282018101909252828152606093909290918301828280156101845780601f1061015957610100808354040283529160200191610184565b6000806102346102de565b90508073ffffffffffffffffffffffffffffffffffffffff1663f399e22e8461025b6100da565b6040518363ffffffff1660e01b81526004016102789291906104fe565b600060405180830381600087803b15801561029257600080fd5b505af11580156102a6573d6000803e3d6000fd5b509293505050505b919050565b73ffffffffffffffffffffffffffffffffffffffff1660009081526002602052604090205460ff1690565b60015460009081906103059073ffffffffffffffffffffffffffffffffffffffff16610383565b73ffffffffffffffffffffffffffffffffffffffff811660008181526002602052604080822080547fffffffffffffffffffffffffffffffffffffffffffffffffffffffffffffff001660011790555192935090917faa98436d09d130af48de49867af8b723bbbebb0d737638b5fe8f1bf31bbb71c09190a2905090565b60006040517f3d602d80600a3d3981f3363d3d373d3d3d363d7300000000000000000000000081528260601b60148201527f5af43d82803e903d91602b57fd5bf3000000000000000000000000000000000060288201526037816000f091505073ffffffffffffffffffffffffffffffffffffffff81166102ae576040517f08c379a000000000000000000000000000000000000000000000000000000000815260040161043090610553565b60405180910390fd5b60006020828403121561044a578081fd5b813573ffffffffffffffffffffffffffffffffffffffff8116811461046d578182fd5b9392505050565b60008151808452815b818110156104995760208185018101518683018201520161047d565b818111156104aa5782602083870101525b50601f017fffffffffffffffffffffffffffffffffffffffffffffffffffffffffffffffe0169290920160200192915050565b73ffffffffffffffffffffffffffffffffffffffff91909116815260200190565b600073ffffffffffffffffffffffffffffffffffffffff841682526040602083015261052d6040830184610474565b949350505050565b901515815260200190565b60006020825261046d6020830184610474565b60208082526016908201527f455243313136373a20637265617465206661696c65640000000000000000000060408201526060019056fea2646970667358221220de88abf80cf4ef8f042feb2edec2b1707b7d1780091c6586a40f7e9b40f7187d64736f6c63430007010033",
  "linkReferences": {},
  "deployedLinkReferences": {}
}