{
  "_format": "hh-sol-artifact-1",
  "contractName": "BatchRelayerLibrary",
  "sourceName": "contracts/BatchRelayerLibrary.sol",
  "abi": [
    {
      "inputs": [
        {
          "internalType": "contract IVault",
          "name": "vault",
          "type": "address"
        },
        {
          "internalType": "contract IERC20",
          "name": "wstETH",
          "type": "address"
        },
        {
          "internalType": "contract IBalancerMinter",
          "name": "minter",
          "type": "address"
        }
      ],
      "stateMutability": "nonpayable",
      "type": "constructor"
    },
    {
      "inputs": [
        {
          "internalType": "contract IERC20",
          "name": "token",
          "type": "address"
        },
        {
          "internalType": "uint256",
          "name": "amount",
          "type": "uint256"
        }
      ],
      "name": "approveVault",
      "outputs": [],
      "stateMutability": "payable",
      "type": "function"
    },
    {
      "inputs": [
        {
          "internalType": "enum IVault.SwapKind",
          "name": "kind",
          "type": "uint8"
        },
        {
          "components": [
            {
              "internalType": "bytes32",
              "name": "poolId",
              "type": "bytes32"
            },
            {
              "internalType": "uint256",
              "name": "assetInIndex",
              "type": "uint256"
            },
            {
              "internalType": "uint256",
              "name": "assetOutIndex",
              "type": "uint256"
            },
            {
              "internalType": "uint256",
              "name": "amount",
              "type": "uint256"
            },
            {
              "internalType": "bytes",
              "name": "userData",
              "type": "bytes"
            }
          ],
          "internalType": "struct IVault.BatchSwapStep[]",
          "name": "swaps",
          "type": "tuple[]"
        },
        {
          "internalType": "contract IAsset[]",
          "name": "assets",
          "type": "address[]"
        },
        {
          "components": [
            {
              "internalType": "address",
              "name": "sender",
              "type": "address"
            },
            {
              "internalType": "bool",
              "name": "fromInternalBalance",
              "type": "bool"
            },
            {
              "internalType": "address payable",
              "name": "recipient",
              "type": "address"
            },
            {
              "internalType": "bool",
              "name": "toInternalBalance",
              "type": "bool"
            }
          ],
          "internalType": "struct IVault.FundManagement",
          "name": "funds",
          "type": "tuple"
        },
        {
          "internalType": "int256[]",
          "name": "limits",
          "type": "int256[]"
        },
        {
          "internalType": "uint256",
          "name": "deadline",
          "type": "uint256"
        },
        {
          "internalType": "uint256",
          "name": "value",
          "type": "uint256"
        },
        {
          "components": [
            {
              "internalType": "uint256",
              "name": "index",
              "type": "uint256"
            },
            {
              "internalType": "uint256",
              "name": "key",
              "type": "uint256"
            }
          ],
          "internalType": "struct VaultActions.OutputReference[]",
          "name": "outputReferences",
          "type": "tuple[]"
        }
      ],
      "name": "batchSwap",
      "outputs": [],
      "stateMutability": "payable",
      "type": "function"
    },
    {
      "inputs": [
        {
          "internalType": "bytes32",
          "name": "poolId",
          "type": "bytes32"
        },
        {
          "internalType": "enum VaultActions.PoolKind",
          "name": "kind",
          "type": "uint8"
        },
        {
          "internalType": "address",
          "name": "sender",
          "type": "address"
        },
        {
          "internalType": "address payable",
          "name": "recipient",
          "type": "address"
        },
        {
          "components": [
            {
              "internalType": "contract IAsset[]",
              "name": "assets",
              "type": "address[]"
            },
            {
              "internalType": "uint256[]",
              "name": "minAmountsOut",
              "type": "uint256[]"
            },
            {
              "internalType": "bytes",
              "name": "userData",
              "type": "bytes"
            },
            {
              "internalType": "bool",
              "name": "toInternalBalance",
              "type": "bool"
            }
          ],
          "internalType": "struct IVault.ExitPoolRequest",
          "name": "request",
          "type": "tuple"
        },
        {
          "components": [
            {
              "internalType": "uint256",
              "name": "index",
              "type": "uint256"
            },
            {
              "internalType": "uint256",
              "name": "key",
              "type": "uint256"
            }
          ],
          "internalType": "struct VaultActions.OutputReference[]",
          "name": "outputReferences",
          "type": "tuple[]"
        }
      ],
      "name": "exitPool",
      "outputs": [],
      "stateMutability": "payable",
      "type": "function"
    },
    {
      "inputs": [
        {
          "internalType": "contract IStakingLiquidityGauge[]",
          "name": "gauges",
          "type": "address[]"
        }
      ],
      "name": "gaugeClaimRewards",
      "outputs": [],
      "stateMutability": "payable",
      "type": "function"
    },
    {
      "inputs": [
        {
          "internalType": "contract IStakingLiquidityGauge",
          "name": "gauge",
          "type": "address"
        },
        {
          "internalType": "address",
          "name": "sender",
          "type": "address"
        },
        {
          "internalType": "address",
          "name": "recipient",
          "type": "address"
        },
        {
          "internalType": "uint256",
          "name": "amount",
          "type": "uint256"
        }
      ],
      "name": "gaugeDeposit",
      "outputs": [],
      "stateMutability": "payable",
      "type": "function"
    },
    {
      "inputs": [
        {
          "internalType": "address[]",
          "name": "gauges",
          "type": "address[]"
        },
        {
          "internalType": "uint256",
          "name": "outputReference",
          "type": "uint256"
        }
      ],
      "name": "gaugeMint",
      "outputs": [],
      "stateMutability": "payable",
      "type": "function"
    },
    {
      "inputs": [
        {
          "internalType": "bool",
          "name": "approval",
          "type": "bool"
        },
        {
          "internalType": "address",
          "name": "user",
          "type": "address"
        },
        {
          "internalType": "uint256",
          "name": "deadline",
          "type": "uint256"
        },
        {
          "internalType": "uint8",
          "name": "v",
          "type": "uint8"
        },
        {
          "internalType": "bytes32",
          "name": "r",
          "type": "bytes32"
        },
        {
          "internalType": "bytes32",
          "name": "s",
          "type": "bytes32"
        }
      ],
      "name": "gaugeSetMinterApproval",
      "outputs": [],
      "stateMutability": "payable",
      "type": "function"
    },
    {
      "inputs": [
        {
          "internalType": "contract IStakingLiquidityGauge",
          "name": "gauge",
          "type": "address"
        },
        {
          "internalType": "address",
          "name": "sender",
          "type": "address"
        },
        {
          "internalType": "address",
          "name": "recipient",
          "type": "address"
        },
        {
          "internalType": "uint256",
          "name": "amount",
          "type": "uint256"
        }
      ],
      "name": "gaugeWithdraw",
      "outputs": [],
      "stateMutability": "payable",
      "type": "function"
    },
    {
      "inputs": [],
      "name": "getEntrypoint",
      "outputs": [
        {
          "internalType": "contract IBalancerRelayer",
          "name": "",
          "type": "address"
        }
      ],
      "stateMutability": "view",
      "type": "function"
    },
    {
      "inputs": [],
      "name": "getVault",
      "outputs": [
        {
          "internalType": "contract IVault",
          "name": "",
          "type": "address"
        }
      ],
      "stateMutability": "view",
      "type": "function"
    },
    {
      "inputs": [
        {
          "internalType": "bytes32",
          "name": "poolId",
          "type": "bytes32"
        },
        {
          "internalType": "enum VaultActions.PoolKind",
          "name": "kind",
          "type": "uint8"
        },
        {
          "internalType": "address",
          "name": "sender",
          "type": "address"
        },
        {
          "internalType": "address",
          "name": "recipient",
          "type": "address"
        },
        {
          "components": [
            {
              "internalType": "contract IAsset[]",
              "name": "assets",
              "type": "address[]"
            },
            {
              "internalType": "uint256[]",
              "name": "maxAmountsIn",
              "type": "uint256[]"
            },
            {
              "internalType": "bytes",
              "name": "userData",
              "type": "bytes"
            },
            {
              "internalType": "bool",
              "name": "fromInternalBalance",
              "type": "bool"
            }
          ],
          "internalType": "struct IVault.JoinPoolRequest",
          "name": "request",
          "type": "tuple"
        },
        {
          "internalType": "uint256",
          "name": "value",
          "type": "uint256"
        },
        {
          "internalType": "uint256",
          "name": "outputReference",
          "type": "uint256"
        }
      ],
      "name": "joinPool",
      "outputs": [],
      "stateMutability": "payable",
      "type": "function"
    },
    {
      "inputs": [
        {
          "components": [
            {
              "internalType": "enum IVault.UserBalanceOpKind",
              "name": "kind",
              "type": "uint8"
            },
            {
              "internalType": "contract IAsset",
              "name": "asset",
              "type": "address"
            },
            {
              "internalType": "uint256",
              "name": "amount",
              "type": "uint256"
            },
            {
              "internalType": "address",
              "name": "sender",
              "type": "address"
            },
            {
              "internalType": "address payable",
              "name": "recipient",
              "type": "address"
            }
          ],
          "internalType": "struct IVault.UserBalanceOp[]",
          "name": "ops",
          "type": "tuple[]"
        },
        {
          "internalType": "uint256",
          "name": "value",
          "type": "uint256"
        }
      ],
      "name": "manageUserBalance",
      "outputs": [],
      "stateMutability": "payable",
      "type": "function"
    },
    {
      "inputs": [
        {
          "internalType": "uint256",
          "name": "ref",
          "type": "uint256"
        }
      ],
      "name": "peekChainedReferenceValue",
      "outputs": [
        {
          "internalType": "uint256",
          "name": "value",
          "type": "uint256"
        }
      ],
      "stateMutability": "view",
      "type": "function"
    },
    {
      "inputs": [
        {
          "internalType": "address",
          "name": "relayer",
          "type": "address"
        },
        {
          "internalType": "bool",
          "name": "approved",
          "type": "bool"
        },
        {
          "internalType": "bytes",
          "name": "authorisation",
          "type": "bytes"
        }
      ],
      "name": "setRelayerApproval",
      "outputs": [],
      "stateMutability": "payable",
      "type": "function"
    },
    {
      "inputs": [
        {
          "internalType": "address",
          "name": "recipient",
          "type": "address"
        },
        {
          "internalType": "uint256",
          "name": "amount",
          "type": "uint256"
        },
        {
          "internalType": "uint256",
          "name": "outputReference",
          "type": "uint256"
        }
      ],
      "name": "stakeETH",
      "outputs": [],
      "stateMutability": "payable",
      "type": "function"
    },
    {
      "inputs": [
        {
          "internalType": "address",
          "name": "recipient",
          "type": "address"
        },
        {
          "internalType": "uint256",
          "name": "amount",
          "type": "uint256"
        },
        {
          "internalType": "uint256",
          "name": "outputReference",
          "type": "uint256"
        }
      ],
      "name": "stakeETHAndWrap",
      "outputs": [],
      "stateMutability": "payable",
      "type": "function"
    },
    {
      "inputs": [
        {
          "components": [
            {
              "internalType": "bytes32",
              "name": "poolId",
              "type": "bytes32"
            },
            {
              "internalType": "enum IVault.SwapKind",
              "name": "kind",
              "type": "uint8"
            },
            {
              "internalType": "contract IAsset",
              "name": "assetIn",
              "type": "address"
            },
            {
              "internalType": "contract IAsset",
              "name": "assetOut",
              "type": "address"
            },
            {
              "internalType": "uint256",
              "name": "amount",
              "type": "uint256"
            },
            {
              "internalType": "bytes",
              "name": "userData",
              "type": "bytes"
            }
          ],
          "internalType": "struct IVault.SingleSwap",
          "name": "singleSwap",
          "type": "tuple"
        },
        {
          "components": [
            {
              "internalType": "address",
              "name": "sender",
              "type": "address"
            },
            {
              "internalType": "bool",
              "name": "fromInternalBalance",
              "type": "bool"
            },
            {
              "internalType": "address payable",
              "name": "recipient",
              "type": "address"
            },
            {
              "internalType": "bool",
              "name": "toInternalBalance",
              "type": "bool"
            }
          ],
          "internalType": "struct IVault.FundManagement",
          "name": "funds",
          "type": "tuple"
        },
        {
          "internalType": "uint256",
          "name": "limit",
          "type": "uint256"
        },
        {
          "internalType": "uint256",
          "name": "deadline",
          "type": "uint256"
        },
        {
          "internalType": "uint256",
          "name": "value",
          "type": "uint256"
        },
        {
          "internalType": "uint256",
          "name": "outputReference",
          "type": "uint256"
        }
      ],
      "name": "swap",
      "outputs": [],
      "stateMutability": "payable",
      "type": "function"
    },
    {
      "inputs": [
        {
          "internalType": "contract IStaticATokenLM",
          "name": "staticToken",
          "type": "address"
        },
        {
          "internalType": "address",
          "name": "sender",
          "type": "address"
        },
        {
          "internalType": "address",
          "name": "recipient",
          "type": "address"
        },
        {
          "internalType": "uint256",
          "name": "amount",
          "type": "uint256"
        },
        {
          "internalType": "bool",
          "name": "toUnderlying",
          "type": "bool"
        },
        {
          "internalType": "uint256",
          "name": "outputReference",
          "type": "uint256"
        }
      ],
      "name": "unwrapAaveStaticToken",
      "outputs": [],
      "stateMutability": "payable",
      "type": "function"
    },
    {
      "inputs": [
        {
          "internalType": "contract ICToken",
          "name": "wrappedToken",
          "type": "address"
        },
        {
          "internalType": "address",
          "name": "sender",
          "type": "address"
        },
        {
          "internalType": "address",
          "name": "recipient",
          "type": "address"
        },
        {
          "internalType": "uint256",
          "name": "amount",
          "type": "uint256"
        },
        {
          "internalType": "uint256",
          "name": "outputReference",
          "type": "uint256"
        }
      ],
      "name": "unwrapCompoundV2",
      "outputs": [],
      "stateMutability": "payable",
      "type": "function"
    },
    {
      "inputs": [
        {
          "internalType": "contract IERC4626",
          "name": "wrappedToken",
          "type": "address"
        },
        {
          "internalType": "address",
          "name": "sender",
          "type": "address"
        },
        {
          "internalType": "address",
          "name": "recipient",
          "type": "address"
        },
        {
          "internalType": "uint256",
          "name": "amount",
          "type": "uint256"
        },
        {
          "internalType": "uint256",
          "name": "outputReference",
          "type": "uint256"
        }
      ],
      "name": "unwrapERC4626",
      "outputs": [],
      "stateMutability": "payable",
      "type": "function"
    },
    {
      "inputs": [
        {
          "internalType": "contract IEulerToken",
          "name": "wrappedToken",
          "type": "address"
        },
        {
          "internalType": "address",
          "name": "sender",
          "type": "address"
        },
        {
          "internalType": "address",
          "name": "recipient",
          "type": "address"
        },
        {
          "internalType": "uint256",
          "name": "amount",
          "type": "uint256"
        },
        {
          "internalType": "uint256",
          "name": "outputReference",
          "type": "uint256"
        }
      ],
      "name": "unwrapEuler",
      "outputs": [],
      "stateMutability": "payable",
      "type": "function"
    },
    {
      "inputs": [
        {
          "internalType": "contract IGearboxDieselToken",
          "name": "wrappedToken",
          "type": "address"
        },
        {
          "internalType": "address",
          "name": "sender",
          "type": "address"
        },
        {
          "internalType": "address",
          "name": "recipient",
          "type": "address"
        },
        {
          "internalType": "uint256",
          "name": "dieselAmount",
          "type": "uint256"
        },
        {
          "internalType": "uint256",
          "name": "outputReference",
          "type": "uint256"
        }
      ],
      "name": "unwrapGearbox",
      "outputs": [],
      "stateMutability": "payable",
      "type": "function"
    },
    {
      "inputs": [
        {
          "internalType": "contract IReaperTokenVault",
          "name": "vaultToken",
          "type": "address"
        },
        {
          "internalType": "address",
          "name": "sender",
          "type": "address"
        },
        {
          "internalType": "address",
          "name": "recipient",
          "type": "address"
        },
        {
          "internalType": "uint256",
          "name": "amount",
          "type": "uint256"
        },
        {
          "internalType": "uint256",
          "name": "outputReference",
          "type": "uint256"
        }
      ],
      "name": "unwrapReaperVaultToken",
      "outputs": [],
      "stateMutability": "payable",
      "type": "function"
    },
    {
      "inputs": [
        {
          "internalType": "contract IShareToken",
          "name": "wrappedToken",
          "type": "address"
        },
        {
          "internalType": "address",
          "name": "sender",
          "type": "address"
        },
        {
          "internalType": "address",
          "name": "recipient",
          "type": "address"
        },
        {
          "internalType": "uint256",
          "name": "amount",
          "type": "uint256"
        },
        {
          "internalType": "uint256",
          "name": "outputReference",
          "type": "uint256"
        }
      ],
      "name": "unwrapShareToken",
      "outputs": [],
      "stateMutability": "payable",
      "type": "function"
    },
    {
      "inputs": [
        {
          "internalType": "contract ITetuSmartVault",
          "name": "wrappedToken",
          "type": "address"
        },
        {
          "internalType": "address",
          "name": "sender",
          "type": "address"
        },
        {
          "internalType": "address",
          "name": "recipient",
          "type": "address"
        },
        {
          "internalType": "uint256",
          "name": "amount",
          "type": "uint256"
        },
        {
          "internalType": "uint256",
          "name": "outputReference",
          "type": "uint256"
        }
      ],
      "name": "unwrapTetu",
      "outputs": [],
      "stateMutability": "payable",
      "type": "function"
    },
    {
      "inputs": [
        {
          "internalType": "contract IUnbuttonToken",
          "name": "wrapperToken",
          "type": "address"
        },
        {
          "internalType": "address",
          "name": "sender",
          "type": "address"
        },
        {
          "internalType": "address",
          "name": "recipient",
          "type": "address"
        },
        {
          "internalType": "uint256",
          "name": "amount",
          "type": "uint256"
        },
        {
          "internalType": "uint256",
          "name": "outputReference",
          "type": "uint256"
        }
      ],
      "name": "unwrapUnbuttonToken",
      "outputs": [],
      "stateMutability": "payable",
      "type": "function"
    },
    {
      "inputs": [
        {
          "internalType": "address",
          "name": "sender",
          "type": "address"
        },
        {
          "internalType": "address",
          "name": "recipient",
          "type": "address"
        },
        {
          "internalType": "uint256",
          "name": "amount",
          "type": "uint256"
        },
        {
          "internalType": "uint256",
          "name": "outputReference",
          "type": "uint256"
        }
      ],
      "name": "unwrapWstETH",
      "outputs": [],
      "stateMutability": "payable",
      "type": "function"
    },
    {
      "inputs": [
        {
          "internalType": "contract IYearnTokenVault",
          "name": "wrappedToken",
          "type": "address"
        },
        {
          "internalType": "address",
          "name": "sender",
          "type": "address"
        },
        {
          "internalType": "address",
          "name": "recipient",
          "type": "address"
        },
        {
          "internalType": "uint256",
          "name": "amount",
          "type": "uint256"
        },
        {
          "internalType": "uint256",
          "name": "outputReference",
          "type": "uint256"
        }
      ],
      "name": "unwrapYearn",
      "outputs": [],
      "stateMutability": "payable",
      "type": "function"
    },
    {
      "inputs": [
        {
          "internalType": "contract IERC20Permit",
          "name": "token",
          "type": "address"
        },
        {
          "internalType": "address",
          "name": "owner",
          "type": "address"
        },
        {
          "internalType": "uint256",
          "name": "value",
          "type": "uint256"
        },
        {
          "internalType": "uint256",
          "name": "deadline",
          "type": "uint256"
        },
        {
          "internalType": "uint8",
          "name": "v",
          "type": "uint8"
        },
        {
          "internalType": "bytes32",
          "name": "r",
          "type": "bytes32"
        },
        {
          "internalType": "bytes32",
          "name": "s",
          "type": "bytes32"
        }
      ],
      "name": "vaultPermit",
      "outputs": [],
      "stateMutability": "payable",
      "type": "function"
    },
    {
      "inputs": [
        {
          "internalType": "contract IERC20PermitDAI",
          "name": "token",
          "type": "address"
        },
        {
          "internalType": "address",
          "name": "holder",
          "type": "address"
        },
        {
          "internalType": "uint256",
          "name": "nonce",
          "type": "uint256"
        },
        {
          "internalType": "uint256",
          "name": "expiry",
          "type": "uint256"
        },
        {
          "internalType": "bool",
          "name": "allowed",
          "type": "bool"
        },
        {
          "internalType": "uint8",
          "name": "v",
          "type": "uint8"
        },
        {
          "internalType": "bytes32",
          "name": "r",
          "type": "bytes32"
        },
        {
          "internalType": "bytes32",
          "name": "s",
          "type": "bytes32"
        }
      ],
      "name": "vaultPermitDAI",
      "outputs": [],
      "stateMutability": "payable",
      "type": "function"
    },
    {
      "inputs": [
        {
          "internalType": "contract IStaticATokenLM",
          "name": "staticToken",
          "type": "address"
        },
        {
          "internalType": "address",
          "name": "sender",
          "type": "address"
        },
        {
          "internalType": "address",
          "name": "recipient",
          "type": "address"
        },
        {
          "internalType": "uint256",
          "name": "amount",
          "type": "uint256"
        },
        {
          "internalType": "bool",
          "name": "fromUnderlying",
          "type": "bool"
        },
        {
          "internalType": "uint256",
          "name": "outputReference",
          "type": "uint256"
        }
      ],
      "name": "wrapAaveDynamicToken",
      "outputs": [],
      "stateMutability": "payable",
      "type": "function"
    },
    {
      "inputs": [
        {
          "internalType": "contract ICToken",
          "name": "wrappedToken",
          "type": "address"
        },
        {
          "internalType": "address",
          "name": "sender",
          "type": "address"
        },
        {
          "internalType": "address",
          "name": "recipient",
          "type": "address"
        },
        {
          "internalType": "uint256",
          "name": "amount",
          "type": "uint256"
        },
        {
          "internalType": "uint256",
          "name": "outputReference",
          "type": "uint256"
        }
      ],
      "name": "wrapCompoundV2",
      "outputs": [],
      "stateMutability": "payable",
      "type": "function"
    },
    {
      "inputs": [
        {
          "internalType": "contract IERC4626",
          "name": "wrappedToken",
          "type": "address"
        },
        {
          "internalType": "address",
          "name": "sender",
          "type": "address"
        },
        {
          "internalType": "address",
          "name": "recipient",
          "type": "address"
        },
        {
          "internalType": "uint256",
          "name": "amount",
          "type": "uint256"
        },
        {
          "internalType": "uint256",
          "name": "outputReference",
          "type": "uint256"
        }
      ],
      "name": "wrapERC4626",
      "outputs": [],
      "stateMutability": "payable",
      "type": "function"
    },
    {
      "inputs": [
        {
          "internalType": "contract IEulerToken",
          "name": "wrappedToken",
          "type": "address"
        },
        {
          "internalType": "address",
          "name": "eulerProtocol",
          "type": "address"
        },
        {
          "internalType": "address",
          "name": "sender",
          "type": "address"
        },
        {
          "internalType": "address",
          "name": "recipient",
          "type": "address"
        },
        {
          "internalType": "uint256",
          "name": "amount",
          "type": "uint256"
        },
        {
          "internalType": "uint256",
          "name": "outputReference",
          "type": "uint256"
        }
      ],
      "name": "wrapEuler",
      "outputs": [],
      "stateMutability": "payable",
      "type": "function"
    },
    {
      "inputs": [
        {
          "internalType": "contract IGearboxDieselToken",
          "name": "wrappedToken",
          "type": "address"
        },
        {
          "internalType": "address",
          "name": "sender",
          "type": "address"
        },
        {
          "internalType": "address",
          "name": "recipient",
          "type": "address"
        },
        {
          "internalType": "uint256",
          "name": "mainAmount",
          "type": "uint256"
        },
        {
          "internalType": "uint256",
          "name": "outputReference",
          "type": "uint256"
        }
      ],
      "name": "wrapGearbox",
      "outputs": [],
      "stateMutability": "payable",
      "type": "function"
    },
    {
      "inputs": [
        {
          "internalType": "contract IReaperTokenVault",
          "name": "vaultToken",
          "type": "address"
        },
        {
          "internalType": "address",
          "name": "sender",
          "type": "address"
        },
        {
          "internalType": "address",
          "name": "recipient",
          "type": "address"
        },
        {
          "internalType": "uint256",
          "name": "amount",
          "type": "uint256"
        },
        {
          "internalType": "uint256",
          "name": "outputReference",
          "type": "uint256"
        }
      ],
      "name": "wrapReaperVaultToken",
      "outputs": [],
      "stateMutability": "payable",
      "type": "function"
    },
    {
      "inputs": [
        {
          "internalType": "contract IShareToken",
          "name": "wrappedToken",
          "type": "address"
        },
        {
          "internalType": "address",
          "name": "sender",
          "type": "address"
        },
        {
          "internalType": "address",
          "name": "recipient",
          "type": "address"
        },
        {
          "internalType": "uint256",
          "name": "amount",
          "type": "uint256"
        },
        {
          "internalType": "uint256",
          "name": "outputReference",
          "type": "uint256"
        }
      ],
      "name": "wrapShareToken",
      "outputs": [],
      "stateMutability": "payable",
      "type": "function"
    },
    {
      "inputs": [
        {
          "internalType": "address",
          "name": "sender",
          "type": "address"
        },
        {
          "internalType": "address",
          "name": "recipient",
          "type": "address"
        },
        {
          "internalType": "uint256",
          "name": "amount",
          "type": "uint256"
        },
        {
          "internalType": "uint256",
          "name": "outputReference",
          "type": "uint256"
        }
      ],
      "name": "wrapStETH",
      "outputs": [],
      "stateMutability": "payable",
      "type": "function"
    },
    {
      "inputs": [
        {
          "internalType": "contract ITetuSmartVault",
          "name": "wrappedToken",
          "type": "address"
        },
        {
          "internalType": "address",
          "name": "sender",
          "type": "address"
        },
        {
          "internalType": "address",
          "name": "recipient",
          "type": "address"
        },
        {
          "internalType": "uint256",
          "name": "amount",
          "type": "uint256"
        },
        {
          "internalType": "uint256",
          "name": "outputReference",
          "type": "uint256"
        }
      ],
      "name": "wrapTetu",
      "outputs": [],
      "stateMutability": "payable",
      "type": "function"
    },
    {
      "inputs": [
        {
          "internalType": "contract IUnbuttonToken",
          "name": "wrapperToken",
          "type": "address"
        },
        {
          "internalType": "address",
          "name": "sender",
          "type": "address"
        },
        {
          "internalType": "address",
          "name": "recipient",
          "type": "address"
        },
        {
          "internalType": "uint256",
          "name": "uAmount",
          "type": "uint256"
        },
        {
          "internalType": "uint256",
          "name": "outputReference",
          "type": "uint256"
        }
      ],
      "name": "wrapUnbuttonToken",
      "outputs": [],
      "stateMutability": "payable",
      "type": "function"
    },
    {
      "inputs": [
        {
          "internalType": "contract IYearnTokenVault",
          "name": "wrappedToken",
          "type": "address"
        },
        {
          "internalType": "address",
          "name": "sender",
          "type": "address"
        },
        {
          "internalType": "address",
          "name": "recipient",
          "type": "address"
        },
        {
          "internalType": "uint256",
          "name": "amount",
          "type": "uint256"
        },
        {
          "internalType": "uint256",
          "name": "outputReference",
          "type": "uint256"
        }
      ],
      "name": "wrapYearn",
      "outputs": [],
      "stateMutability": "payable",
      "type": "function"
    }
  ],
  "bytecode": "0x6101606040527fae1dc54057af8e8e5ce068cdd4383149c7efcb30e8fb95b592ee1594367fb50960e0523480156200003657600080fd5b50604051620065a5380380620065a5833981016040819052620000599162000209565b818184806001600160a01b031663ad5c46486040518163ffffffff1660e01b815260040160206040518083038186803b1580156200009657600080fd5b505afa158015620000ab573d6000803e3d6000fd5b505050506040513d601f19601f82011682018060405250810190620000d191906200025c565b6001600160601b0319606091821b81166080529082901b1660a05260405181903090620000fe90620001fb565b6200010b92919062000282565b604051809103906000f08015801562000128573d6000803e3d6000fd5b506001600160601b0319606091821b811660c05292901b90911661010052506001600160a01b0381166200015e576000620001d5565b806001600160a01b031663c1fe3e486040518163ffffffff1660e01b8152600401602060405180830381600087803b1580156200019a57600080fd5b505af1158015620001af573d6000803e3d6000fd5b505050506040513d601f19601f82011682018060405250810190620001d591906200025c565b6001600160601b0319606091821b81166101205291901b166101405250620002b5915050565b6107878062005e1e83390190565b6000806000606084860312156200021e578283fd5b83516200022b816200029c565b60208501519093506200023e816200029c565b604085015190925062000251816200029c565b809150509250925092565b6000602082840312156200026e578081fd5b81516200027b816200029c565b9392505050565b6001600160a01b0392831681529116602082015260400190565b6001600160a01b0381168114620002b257600080fd5b50565b60805160601c60a05160601c60c05160601c60e0516101005160601c6101205160601c6101405160601c615acc62000352600039806106b6528061075f528061078a5280610be35280610c0f5280610cb2528061308d52806130b9525080610bc25280610ecd5280610f71528061315c52508061128b52806122ff525080613a4b52508061216d52508061226d52806123f6525050615acc6000f3fe6080604052600436106102c65760003560e01c80637bc008f511610179578063abf6d399116100d6578063db4c0e911161008a578063efe6910811610064578063efe69108146105b9578063f3cab685146105cc578063f4dd54b0146105f9576102c6565b8063db4c0e9114610580578063e8210e3c14610593578063ecc02637146105a6576102c6565b8063b6d24737116100bb578063b6d2473714610547578063d293f2901461055a578063d80952d51461056d576102c6565b8063abf6d39914610521578063b064b37614610534576102c6565b80638d64cfbc1161012d5780638fe4624f116101125780638fe4624f146104e8578063941e849b146104fb578063959fc17a1461050e576102c6565b80638d64cfbc146104c05780638d928af8146104d3576102c6565b806380db15bd1161015e57806380db15bd146104875780638b35ac8d1461049a5780638c57198b146104ad576102c6565b80637bc008f5146104495780637fd0e5d51461045c576102c6565b8063433b08651161022757806352b88746116101db57806365ca4804116101c057806365ca4804146104105780636d307ea8146104235780637ab6e03c14610436576102c6565b806352b88746146103ea578063611b90dd146103fd576102c6565b80634e9d9bab1161020c5780634e9d9bab146103b15780634f06a70b146103c45780635001fe75146103d7576102c6565b8063433b08651461038b57806344b6ac741461039e576102c6565b80632c25efe11161027e5780632e6272ea116102635780632e6272ea14610352578063311c5c57146103655780633f85d39014610378576102c6565b80632c25efe11461032c5780632cbec84e1461033f576102c6565b8063138fdc2c116102af578063138fdc2c146102f357806318369446146103065780631c98244114610319576102c6565b80630e248fea146102cb5780631089e5e3146102e0575b600080fd5b6102de6102d93660046146ba565b61060c565b005b6102de6102ee36600461463c565b6106a7565b6102de6103013660046149eb565b6107b1565b6102de610314366004614d7e565b6109b4565b6102de61032736600461456a565b610bbd565b6102de61033a3660046149eb565b610ce0565b6102de61034d36600461463c565b610ebe565b6102de610360366004614e7a565b610f98565b6102de6103733660046149eb565b6110b8565b6102de610386366004614670565b611258565b6102de610399366004614c1c565b611322565b6102de6103ac3660046149eb565b61154b565b6102de6103bf3660046149eb565b6116ca565b6102de6103d23660046149eb565b611925565b6102de6103e53660046149eb565b611a36565b6102de6103f8366004614b5f565b611bc1565b6102de61040b3660046149eb565b611d65565b6102de61041e366004614bcc565b611e08565b6102de6104313660046149eb565b611f26565b6102de610444366004614c1c565b611f61565b6102de610457366004614bcc565b612067565b34801561046857600080fd5b5061047161216b565b60405161047e91906151e0565b60405180910390f35b6102de6104953660046145af565b61218f565b6102de6104a83660046149eb565b612293565b6102de6104bb36600461484f565b6122cf565b6102de6104ce366004614ac6565b61237a565b3480156104df57600080fd5b506104716123f4565b6102de6104f636600461495b565b612418565b6102de6105093660046149eb565b612642565b6102de61051c366004614a45565b61278d565b6102de61052f3660046149eb565b61280a565b6102de6105423660046149eb565b6128bd565b6102de610555366004614b34565b612a00565b6102de6105683660046149eb565b612a3a565b6102de61057b3660046148b2565b612afa565b6102de61058e36600461456a565b613088565b6102de6105a13660046149eb565b613183565b6102de6105b436600461478a565b6131be565b6102de6105c73660046149eb565b6132b6565b3480156105d857600080fd5b506105ec6105e7366004614f68565b6132f5565b60405161047e919061592f565b6102de6106073660046149eb565b613307565b8060005b818110156106a15783838281811061062457fe5b90506020020160208101906106399190614532565b6001600160a01b03166384e9bd7e336040518263ffffffff1660e01b815260040161066491906151e0565b600060405180830381600087803b15801561067e57600080fd5b505af1158015610692573d6000803e3d6000fd5b50505050806001019050610610565b50505050565b6106b082613433565b915060007f00000000000000000000000000000000000000000000000000000000000000006001600160a01b031663b0e38900846040518263ffffffff1660e01b8152600401610700919061592f565b60206040518083038186803b15801561071857600080fd5b505afa15801561072c573d6000803e3d6000fd5b505050506040513d601f19601f820116820180604052508101906107509190614f80565b90506107856001600160a01b037f00000000000000000000000000000000000000000000000000000000000000001684613459565b6106a17f00000000000000000000000000000000000000000000000000000000000000008583856134d8565b6000856001600160a01b0316638da5cb5b6040518163ffffffff1660e01b815260040160206040518083038186803b1580156107ec57600080fd5b505afa158015610800573d6000803e3d6000fd5b505050506040513d601f19601f82011682018060405250810190610824919061454e565b90506000816001600160a01b0316632495a5996040518163ffffffff1660e01b815260040160206040518083038186803b15801561086157600080fd5b505afa158015610875573d6000803e3d6000fd5b505050506040513d601f19601f82011682018060405250810190610899919061454e565b90506108a781838689613506565b6040517f9aa5d4620000000000000000000000000000000000000000000000000000000081529094506001600160a01b03831690639aa5d462906108f4908790899060009060040161596e565b600060405180830381600087803b15801561090e57600080fd5b505af1158015610922573d6000803e3d6000fd5b505050506109ab83836001600160a01b0316634d778ad1876040518263ffffffff1660e01b8152600401610956919061592f565b60206040518083038186803b15801561096e57600080fd5b505afa158015610982573d6000803e3d6000fd5b505050506040513d601f19601f820116820180604052508101906109a69190614f80565b613531565b50505050505050565b336109c26020890189614532565b6001600160a01b031614806109eb5750306109e06020890189614532565b6001600160a01b0316145b610a105760405162461bcd60e51b8152600401610a0790615791565b60405180910390fd5b60005b8a51811015610a755760008b8281518110610a2a57fe5b6020026020010151606001519050610a4181613549565b15610a6c57610a4f81613590565b8c8381518110610a5b57fe5b602002602001015160600181815250505b50600101610a13565b506060610a806123f4565b6001600160a01b031663945bcec9858e8e8e8e8e8e8e8e6040518a63ffffffff1660e01b8152600401610aba989796959493929190615651565b6000604051808303818588803b158015610ad357600080fd5b505af1158015610ae7573d6000803e3d6000fd5b50505050506040513d6000823e601f3d908101601f19168201604052610b1091908101906146fa565b905060005b82811015610bae57610b3b848483818110610b2c57fe5b90506040020160200135613549565b610b575760405162461bcd60e51b8152600401610a079061586d565b610ba6848483818110610b6657fe5b90506040020160200135610ba184878786818110610b8057fe5b9050604002016000013581518110610b9457fe5b60200260200101516135bb565b6135c7565b600101610b15565b50505050505050505050505050565b610c097f00000000000000000000000000000000000000000000000000000000000000007f00000000000000000000000000000000000000000000000000000000000000008487613506565b915060007f00000000000000000000000000000000000000000000000000000000000000006001600160a01b031663ea598cb0846040518263ffffffff1660e01b8152600401610c59919061592f565b602060405180830381600087803b158015610c7357600080fd5b505af1158015610c87573d6000803e3d6000fd5b505050506040513d601f19601f82011682018060405250810190610cab9190614f80565b9050610cd97f00000000000000000000000000000000000000000000000000000000000000008583856134d8565b5050505050565b6000856001600160a01b0316636f307dc36040518163ffffffff1660e01b815260040160206040518083038186803b158015610d1b57600080fd5b505afa158015610d2f573d6000803e3d6000fd5b505050506040513d601f19601f82011682018060405250810190610d53919061454e565b9050610d6181878588613506565b6040517fa0712d680000000000000000000000000000000000000000000000000000000081529093506001600160a01b0387169063a0712d6890610da990869060040161592f565b602060405180830381600087803b158015610dc357600080fd5b505af1158015610dd7573d6000803e3d6000fd5b505050506040513d601f19601f82011682018060405250810190610dfb9190614f80565b15610e185760405162461bcd60e51b8152600401610a07906157ff565b6040517f70a082310000000000000000000000000000000000000000000000000000000081526000906001600160a01b038816906370a0823190610e609030906004016151e0565b60206040518083038186803b158015610e7857600080fd5b505afa158015610e8c573d6000803e3d6000fd5b505050506040513d601f19601f82011682018060405250810190610eb09190614f80565b90506109ab878683866134d8565b610ec782613433565b915060007f00000000000000000000000000000000000000000000000000000000000000006001600160a01b031663a1903eab84306040518363ffffffff1660e01b8152600401610f1891906151e0565b6020604051808303818588803b158015610f3157600080fd5b505af1158015610f45573d6000803e3d6000fd5b50505050506040513d601f19601f82011682018060405250810190610f6a9190614f80565b90506106a17f00000000000000000000000000000000000000000000000000000000000000008583856134d8565b33610fa66020870187614532565b6001600160a01b03161480610fcf575030610fc46020870187614532565b6001600160a01b0316145b610feb5760405162461bcd60e51b8152600401610a0790615791565b610ff88660800151613549565b156110105761100a8660800151613590565b60808701525b600061101a6123f4565b6001600160a01b03166352bbbe2984898989896040518663ffffffff1660e01b815260040161104c94939291906158a4565b6020604051808303818588803b15801561106557600080fd5b505af1158015611079573d6000803e3d6000fd5b50505050506040513d601f19601f8201168201806040525081019061109e9190614f80565b90506110a982613549565b156109ab576109ab82826135c7565b6110c38583866135da565b91506000856001600160a01b0316636f307dc36040518163ffffffff1660e01b815260040160206040518083038186803b15801561110057600080fd5b505afa158015611114573d6000803e3d6000fd5b505050506040513d601f19601f82011682018060405250810190611138919061454e565b6040517f2e1a7d4d0000000000000000000000000000000000000000000000000000000081529091506001600160a01b03871690632e1a7d4d9061118090869060040161592f565b600060405180830381600087803b15801561119a57600080fd5b505af11580156111ae573d6000803e3d6000fd5b50506040517f70a08231000000000000000000000000000000000000000000000000000000008152600092506001600160a01b03841691506370a08231906111fa9030906004016151e0565b60206040518083038186803b15801561121257600080fd5b505afa158015611226573d6000803e3d6000fd5b505050506040513d601f19601f8201168201806040525081019061124a9190614f80565b90506109ab828683866134d8565b6040517f3b9f73840000000000000000000000000000000000000000000000000000000081526000906001600160a01b037f00000000000000000000000000000000000000000000000000000000000000001690633b9f7384906112c490879087903390600401615407565b602060405180830381600087803b1580156112de57600080fd5b505af11580156112f2573d6000803e3d6000fd5b505050506040513d601f19601f820116820180604052508101906113169190614f80565b90506106a18282613531565b61132b83613549565b1561133c5761133983613590565b92505b6000826113bb57866001600160a01b03166351c0e0616040518163ffffffff1660e01b8152600401602060405180830381600087803b15801561137e57600080fd5b505af1158015611392573d6000803e3d6000fd5b505050506040513d601f19601f820116820180604052508101906113b6919061454e565b61142e565b866001600160a01b0316634800d97f6040518163ffffffff1660e01b8152600401602060405180830381600087803b1580156113f657600080fd5b505af115801561140a573d6000803e3d6000fd5b505050506040513d601f19601f8201168201806040525081019061142e919061454e565b90506001600160a01b0386163014611473576001600160a01b03861633146114685760405162461bcd60e51b8152600401610a0790615791565b611473868286613626565b6114876001600160a01b03821688866136c2565b6040517f2f2cab870000000000000000000000000000000000000000000000000000000081526000906001600160a01b03891690632f2cab87906114d5908990899086908a906004016153db565b602060405180830381600087803b1580156114ef57600080fd5b505af1158015611503573d6000803e3d6000fd5b505050506040513d601f19601f820116820180604052508101906115279190614f80565b905061153283613549565b156115415761154183826135c7565b5050505050505050565b6115568583866135da565b91506000856001600160a01b0316636f307dc36040518163ffffffff1660e01b815260040160206040518083038186803b15801561159357600080fd5b505afa1580156115a7573d6000803e3d6000fd5b505050506040513d601f19601f820116820180604052508101906115cb919061454e565b6040517fdb006a750000000000000000000000000000000000000000000000000000000081529091506001600160a01b0387169063db006a759061161390869060040161592f565b602060405180830381600087803b15801561162d57600080fd5b505af1158015611641573d6000803e3d6000fd5b505050506040513d601f19601f820116820180604052508101906116659190614f80565b156116825760405162461bcd60e51b8152600401610a079061575a565b6040517f70a082310000000000000000000000000000000000000000000000000000000081526000906001600160a01b038316906370a08231906111fa9030906004016151e0565b6116d58583866135da565b91506000856001600160a01b031663eb3beb296040518163ffffffff1660e01b815260040160206040518083038186803b15801561171257600080fd5b505afa158015611726573d6000803e3d6000fd5b505050506040513d601f19601f8201168201806040525081019061174a919061454e565b90506000866001600160a01b03166338d52e0f6040518163ffffffff1660e01b815260040160206040518083038186803b15801561178757600080fd5b505afa15801561179b573d6000803e3d6000fd5b505050506040513d601f19601f820116820180604052508101906117bf919061454e565b6040517fead5d3590000000000000000000000000000000000000000000000000000000081529091506001600160a01b0383169063ead5d3599061182c9084907fffffffffffffffffffffffffffffffffffffffffffffffffffffffffffffffff906000906004016153b8565b6040805180830381600087803b15801561184557600080fd5b505af1158015611859573d6000803e3d6000fd5b505050506040513d601f19601f8201168201806040525081019061187d9190614f98565b50506040517f70a082310000000000000000000000000000000000000000000000000000000081526000906001600160a01b038316906370a08231906118c79030906004016151e0565b60206040518083038186803b1580156118df57600080fd5b505afa1580156118f3573d6000803e3d6000fd5b505050506040513d601f19601f820116820180604052508101906119179190614f80565b9050611541828783876134d8565b6000856001600160a01b031663fc0c546a6040518163ffffffff1660e01b815260040160206040518083038186803b15801561196057600080fd5b505afa158015611974573d6000803e3d6000fd5b505050506040513d601f19601f82011682018060405250810190611998919061454e565b90506119a681878588613506565b92506000866001600160a01b0316636e553f6585876040518363ffffffff1660e01b81526004016119d8929190615938565b602060405180830381600087803b1580156119f257600080fd5b505af1158015611a06573d6000803e3d6000fd5b505050506040513d601f19601f82011682018060405250810190611a2a9190614f80565b90506109ab8382613531565b6000856001600160a01b03166338d52e0f6040518163ffffffff1660e01b815260040160206040518083038186803b158015611a7157600080fd5b505afa158015611a85573d6000803e3d6000fd5b505050506040513d601f19601f82011682018060405250810190611aa9919061454e565b90506000866001600160a01b031663eb3beb296040518163ffffffff1660e01b815260040160206040518083038186803b158015611ae657600080fd5b505afa158015611afa573d6000803e3d6000fd5b505050506040513d601f19601f82011682018060405250810190611b1e919061454e565b9050611b2c82828689613506565b93506000816001600160a01b031663fbf178db84888860006040518563ffffffff1660e01b8152600401611b63949392919061528c565b6040805180830381600087803b158015611b7c57600080fd5b505af1158015611b90573d6000803e3d6000fd5b505050506040513d601f19601f82011682018060405250810190611bb49190614f98565b9150506115418482613531565b6000866001600160a01b0316637158da7c6040518163ffffffff1660e01b815260040160206040518083038186803b158015611bfc57600080fd5b505afa158015611c10573d6000803e3d6000fd5b505050506040513d601f19601f82011682018060405250810190611c34919061454e565b9050611c4281878588613506565b6040517fe2bbb1580000000000000000000000000000000000000000000000000000000081529093506001600160a01b0388169063e2bbb15890611c8d9060009087906004016151d2565b600060405180830381600087803b158015611ca757600080fd5b505af1158015611cbb573d6000803e3d6000fd5b50506040517f70a08231000000000000000000000000000000000000000000000000000000008152600092506001600160a01b038a1691506370a0823190611d079030906004016151e0565b60206040518083038186803b158015611d1f57600080fd5b505afa158015611d33573d6000803e3d6000fd5b505050506040513d601f19601f82011682018060405250810190611d579190614f80565b9050611541888683866134d8565b611d708583866135da565b91506000856001600160a01b031663ea785a5e85856040518363ffffffff1660e01b8152600401611da292919061539f565b602060405180830381600087803b158015611dbc57600080fd5b505af1158015611dd0573d6000803e3d6000fd5b505050506040513d601f19601f82011682018060405250810190611df49190614f80565b9050611e008282613531565b505050505050565b611e138482856135da565b6040517f2e1a7d4d0000000000000000000000000000000000000000000000000000000081529091506001600160a01b03851690632e1a7d4d90611e5b90849060040161592f565b600060405180830381600087803b158015611e7557600080fd5b505af1158015611e89573d6000803e3d6000fd5b505050506001600160a01b03821630146106a1576000846001600160a01b03166382c630666040518163ffffffff1660e01b815260040160206040518083038186803b158015611ed857600080fd5b505afa158015611eec573d6000803e3d6000fd5b505050506040513d601f19601f82011682018060405250810190611f10919061454e565b9050610cd96001600160a01b038216848461380e565b6000856001600160a01b03166338d52e0f6040518163ffffffff1660e01b815260040160206040518083038186803b15801561196057600080fd5b611f6a83613549565b15611f7b57611f7883613590565b92505b6001600160a01b0385163014611fbe576001600160a01b0385163314611fb35760405162461bcd60e51b8152600401610a0790615791565b611fbe858785613626565b6040517fead5d3590000000000000000000000000000000000000000000000000000000081526000906001600160a01b0388169063ead5d3599061200a908890889088906004016153b8565b6040805180830381600087803b15801561202357600080fd5b505af1158015612037573d6000803e3d6000fd5b505050506040513d601f19601f8201168201806040525081019061205b9190614f98565b9150506110a982613549565b6000846001600160a01b03166382c630666040518163ffffffff1660e01b815260040160206040518083038186803b1580156120a257600080fd5b505afa1580156120b6573d6000803e3d6000fd5b505050506040513d601f19601f820116820180604052508101906120da919061454e565b90506120e881868487613506565b6040517f6e553f650000000000000000000000000000000000000000000000000000000081529092506001600160a01b03861690636e553f65906121329085908790600401615938565b600060405180830381600087803b15801561214c57600080fd5b505af1158015612160573d6000803e3d6000fd5b505050505050505050565b7f000000000000000000000000000000000000000000000000000000000000000090565b6001600160a01b0384163014806121a4575082155b6121c05760405162461bcd60e51b8152600401610a07906157c8565b606063fa6e671d60e01b3386866040516024016121df939291906151f4565b60408051601f19818403018152918152602080830180517bffffffffffffffffffffffffffffffffffffffffffffffffffffffff167fffffffff00000000000000000000000000000000000000000000000000000000909516949094179093525161224e9286918691016151ad565b60408051601f198184030181529190529050611e006001600160a01b037f0000000000000000000000000000000000000000000000000000000000000000168261382d565b61229e8583866135da565b91506000856001600160a01b031662f714ce84866040518363ffffffff1660e01b8152600401611da2929190615938565b6040517fc65427940000000000000000000000000000000000000000000000000000000081526001600160a01b037f0000000000000000000000000000000000000000000000000000000000000000169063c6542794906123409030908a908a908a908a908a908a9060040161533f565b600060405180830381600087803b15801561235a57600080fd5b505af115801561236e573d6000803e3d6000fd5b50505050505050505050565b866001600160a01b031663d505accf876123926123f4565b88888888886040518863ffffffff1660e01b81526004016123b997969594939291906152fe565b600060405180830381600087803b1580156123d357600080fd5b505af11580156123e7573d6000803e3d6000fd5b5050505050505050505050565b7f000000000000000000000000000000000000000000000000000000000000000090565b6001600160a01b03851633148061243757506001600160a01b03851630145b6124535760405162461bcd60e51b8152600401610a0790615791565b600061245e886138a7565b9050600061246b83613549565b61247657600061250b565b6040517f70a082310000000000000000000000000000000000000000000000000000000081526001600160a01b038316906370a08231906124bb9089906004016151e0565b60206040518083038186803b1580156124d357600080fd5b505afa1580156124e7573d6000803e3d6000fd5b505050506040513d601f19601f8201168201806040525081019061250b9190614f80565b905061251b8886604001516138ad565b60408601526125286123f4565b6001600160a01b031663b95cac28858b8a8a8a6040518663ffffffff1660e01b815260040161255a94939291906155ab565b6000604051808303818588803b15801561257357600080fd5b505af1158015612587573d6000803e3d6000fd5b505050505061259583613549565b15612160576040517f70a082310000000000000000000000000000000000000000000000000000000081526000906001600160a01b038416906370a08231906125e2908a906004016151e0565b60206040518083038186803b1580156125fa57600080fd5b505afa15801561260e573d6000803e3d6000fd5b505050506040513d601f19601f820116820180604052508101906126329190614f80565b905061236e84610ba18385613934565b61264d8583866135da565b6040517f441a3e700000000000000000000000000000000000000000000000000000000081529092506001600160a01b0386169063441a3e70906126b8906000907fffffffffffffffffffffffffffffffffffffffffffffffffffffffffffffffff906004016151d2565b600060405180830381600087803b1580156126d257600080fd5b505af11580156126e6573d6000803e3d6000fd5b505050506000856001600160a01b0316637158da7c6040518163ffffffff1660e01b815260040160206040518083038186803b15801561272557600080fd5b505afa158015612739573d6000803e3d6000fd5b505050506040513d601f19601f8201168201806040525081019061275d919061454e565b90506000816001600160a01b03166370a08231306040518263ffffffff1660e01b81526004016111fa91906151e0565b876001600160a01b0316638fcbaf0c886127a56123f4565b8989898989896040518963ffffffff1660e01b81526004016127ce9897969594939291906152b5565b600060405180830381600087803b1580156127e857600080fd5b505af11580156127fc573d6000803e3d6000fd5b505050505050505050505050565b6000856001600160a01b0316636f307dc36040518163ffffffff1660e01b815260040160206040518083038186803b15801561284557600080fd5b505afa158015612859573d6000803e3d6000fd5b505050506040513d601f19601f8201168201806040525081019061287d919061454e565b905061288b81878588613506565b92506000866001600160a01b0316632f4f21e286866040518363ffffffff1660e01b81526004016119d892919061539f565b6000856001600160a01b0316636f307dc36040518163ffffffff1660e01b815260040160206040518083038186803b1580156128f857600080fd5b505afa15801561290c573d6000803e3d6000fd5b505050506040513d601f19601f82011682018060405250810190612930919061454e565b905061293e81878588613506565b6040517fb6b55f250000000000000000000000000000000000000000000000000000000081529093506001600160a01b0387169063b6b55f259061298690869060040161592f565b600060405180830381600087803b1580156129a057600080fd5b505af11580156129b4573d6000803e3d6000fd5b50506040517f70a08231000000000000000000000000000000000000000000000000000000008152600092506001600160a01b03891691506370a0823190610e609030906004016151e0565b612a0981613549565b15612a1a57612a1781613590565b90505b612a36612a256123f4565b6001600160a01b03841690836136c2565b5050565b612a458583866135da565b6040517f2e1a7d4d0000000000000000000000000000000000000000000000000000000081529092506001600160a01b03861690632e1a7d4d90612a8d90859060040161592f565b600060405180830381600087803b158015612aa757600080fd5b505af1158015612abb573d6000803e3d6000fd5b505050506000856001600160a01b031663fc0c546a6040518163ffffffff1660e01b815260040160206040518083038186803b15801561272557600080fd5b6001600160a01b038516331480612b1957506001600160a01b03851630145b612b355760405162461bcd60e51b8152600401610a0790615791565b60608167ffffffffffffffff81118015612b4e57600080fd5b50604051908082528060200260200182016040528015612b78578160200160208202803683370190505b50905060608267ffffffffffffffff81118015612b9457600080fd5b50604051908082528060200260200182016040528015612bbe578160200160208202803683370190505b50905060005b83811015612d2e57612bdb858583818110610b2c57fe5b612bf75760405162461bcd60e51b8152600401610a079061586d565b8551600090868684818110612c0857fe5b9050604002016000013581518110612c1c57fe5b60200260200101519050866060015115612c6a57612c398161394a565b848381518110612c4557fe5b60200260200101906001600160a01b031690816001600160a01b031681525050612d25565b612c738161394d565b612d0057612c808161394a565b6001600160a01b03166370a08231896040518263ffffffff1660e01b8152600401612cab91906151e0565b60206040518083038186803b158015612cc357600080fd5b505afa158015612cd7573d6000803e3d6000fd5b505050506040513d601f19601f82011682018060405250810190612cfb9190614f80565b612d0c565b876001600160a01b0316315b838381518110612d1857fe5b6020026020010181815250505b50600101612bc4565b50846060015115612dc557612d416123f4565b6001600160a01b0316630f5a6efa87846040518363ffffffff1660e01b8152600401612d6e929190615218565b60006040518083038186803b158015612d8657600080fd5b505afa158015612d9a573d6000803e3d6000fd5b505050506040513d6000823e601f3d908101601f19168201604052612dc29190810190614800565b90505b612dd388866040015161395a565b6040860152612de06123f4565b6001600160a01b0316638bdb39138a8989896040518563ffffffff1660e01b8152600401612e1194939291906155ab565b600060405180830381600087803b158015612e2b57600080fd5b505af1158015612e3f573d6000803e3d6000fd5b50606092508591505067ffffffffffffffff81118015612e5e57600080fd5b50604051908082528060200260200182016040528015612e88578160200160208202803683370190505b509050856060015115612f2557612e9d6123f4565b6001600160a01b0316630f5a6efa88856040518363ffffffff1660e01b8152600401612eca929190615218565b60006040518083038186803b158015612ee257600080fd5b505afa158015612ef6573d6000803e3d6000fd5b505050506040513d6000823e601f3d908101601f19168201604052612f1e9190810190614800565b9050613023565b60005b84811015613021578651600090878784818110612f4157fe5b9050604002016000013581518110612f5557fe5b60200260200101519050612f688161394d565b612ff557612f758161394a565b6001600160a01b03166370a082318a6040518263ffffffff1660e01b8152600401612fa091906151e0565b60206040518083038186803b158015612fb857600080fd5b505afa158015612fcc573d6000803e3d6000fd5b505050506040513d601f19601f82011682018060405250810190612ff09190614f80565b613001565b886001600160a01b0316315b83838151811061300d57fe5b602090810291909101015250600101612f28565b505b60005b848110156123e75761308086868381811061303d57fe5b90506040020160200135610ba185848151811061305657fe5b602002602001015185858151811061306a57fe5b602002602001015161393490919063ffffffff16565b600101613026565b6130b37f000000000000000000000000000000000000000000000000000000000000000083866135da565b915060007f00000000000000000000000000000000000000000000000000000000000000006001600160a01b031663de0e9a3e846040518263ffffffff1660e01b8152600401613103919061592f565b602060405180830381600087803b15801561311d57600080fd5b505af1158015613131573d6000803e3d6000fd5b505050506040513d601f19601f820116820180604052508101906131559190614f80565b9050610cd97f00000000000000000000000000000000000000000000000000000000000000008583856134d8565b6000856001600160a01b031663fc0c546a6040518163ffffffff1660e01b815260040160206040518083038186803b1580156128f857600080fd5b60005b8281101561325257338484838181106131d657fe5b905060a0020160600160208101906131ee9190614532565b6001600160a01b0316148061322e57503084848381811061320b57fe5b905060a0020160600160208101906132239190614532565b6001600160a01b0316145b61324a5760405162461bcd60e51b8152600401610a0790615791565b6001016131c1565b5061325b6123f4565b6001600160a01b0316630e8e3e848285856040518463ffffffff1660e01b8152600401613289929190615467565b6000604051808303818588803b1580156132a257600080fd5b505af1158015611541573d6000803e3d6000fd5b6132c18583866135da565b91506000856001600160a01b031663ba0876528486306040518463ffffffff1660e01b8152600401611da29392919061594f565b6000613300826139d0565b9392505050565b6133128583866135da565b91506000856001600160a01b0316638da5cb5b6040518163ffffffff1660e01b815260040160206040518083038186803b15801561334f57600080fd5b505afa158015613363573d6000803e3d6000fd5b505050506040513d601f19601f82011682018060405250810190613387919061454e565b6040517f05fe138b0000000000000000000000000000000000000000000000000000000081529091506001600160a01b038216906305fe138b906133d19086908890600401615938565b600060405180830381600087803b1580156133eb57600080fd5b505af11580156133ff573d6000803e3d6000fd5b50505050611e0082826001600160a01b0316635427c938866040518263ffffffff1660e01b8152600401610956919061592f565b600061343e82613549565b6134485781613451565b61345182613590565b90505b919050565b613468814710156101a36139e7565b6000826001600160a01b0316826040516134819061394a565b60006040518083038185875af1925050503d80600081146134be576040519150601f19603f3d011682016040523d82523d6000602084013e6134c3565b606091505b505090506134d3816101a46139e7565b505050565b6001600160a01b03831630146134fc576134fc6001600160a01b038516848461380e565b6106a18183613531565b60006135138584846135da565b90506135296001600160a01b03861685836136c2565b949350505050565b61353a82613549565b15612a3657612a3682826135c7565b7ffff0000000000000000000000000000000000000000000000000000000000000167fba100000000000000000000000000000000000000000000000000000000000001490565b600080600061359e846139d0565b915091506135ab846139f5565b1561330057600082559392505050565b60ff81901d9081180390565b60006135d283613a3c565b919091555050565b60006135e583613433565b90506001600160a01b0382163014613300576001600160a01b038216331461361f5760405162461bcd60e51b8152600401610a0790615791565b6133008285835b80613630576134d3565b60408051600180825281830190925260609160208083019080368337019050509050828160008151811061366057fe5b6001600160a01b03929092166020928302919091019091015260408051600180825281830190925260609181602001602082028036833701905050905082816000815181106136ab57fe5b602002602001018181525050610cd9858383613a9a565b801580159061376657506040517fdd62ed3e0000000000000000000000000000000000000000000000000000000081526001600160a01b0384169063dd62ed3e906137139030908690600401615272565b60206040518083038186803b15801561372b57600080fd5b505afa15801561373f573d6000803e3d6000fd5b505050506040513d601f19601f820116820180604052508101906137639190614f80565b15155b156137ef576137ef8363095ea7b360e01b84600060405160240161378b929190615383565b60408051601f198184030181529190526020810180517bffffffffffffffffffffffffffffffffffffffffffffffffffffffff167fffffffff0000000000000000000000000000000000000000000000000000000090931692909217909152613bd4565b6134d38363095ea7b360e01b848460405160240161378b92919061539f565b6134d38363a9059cbb60e01b848460405160240161378b92919061539f565b606060006060846001600160a01b03168460405161384b9190615191565b6000604051808303816000865af19150503d8060008114613888576040519150601f19603f3d011682016040523d82523d6000602084013e61388d565b606091505b509150915061389c8282613c74565b925050505b92915050565b60601c90565b606060008360038111156138bd57fe5b14156138d3576138cc82613c9e565b90506138a1565b60018360038111156138e157fe5b14806138f8575060028360038111156138f657fe5b145b8061390e5750600383600381111561390c57fe5b145b1561391c576138cc82613c9e565b60405162461bcd60e51b8152600401610a0790615836565b60006139448383111560016139e7565b50900390565b90565b6001600160a01b03161590565b6060600083600381111561396a57fe5b1415613979576138cc82613cdb565b600183600381111561398757fe5b1415613996576138cc82613d24565b60028360038111156139a457fe5b14156139b3576138cc82613d6a565b60038360038111156139c157fe5b141561391c576138cc82613d96565b6000806139dc83613a3c565b915081549050915091565b81612a3657612a3681613dc9565b7fffff000000000000000000000000000000000000000000000000000000000000167fba100000000000000000000000000000000000000000000000000000000000001490565b60006001613a4983613df6565b7f0000000000000000000000000000000000000000000000000000000000000000604051602001613a7b9291906151d2565b60408051808303601f1901815291905280516020909101200392915050565b6060825167ffffffffffffffff81118015613ab457600080fd5b50604051908082528060200260200182016040528015613aee57816020015b613adb614125565b815260200190600190039081613ad35790505b50905060005b8351811015613b86576040805160a081019091528060038152602001858381518110613b1c57fe5b60200260200101516001600160a01b03168152602001848381518110613b3e57fe5b60200260200101518152602001866001600160a01b03168152602001306001600160a01b0316815250828281518110613b7357fe5b6020908102919091010152600101613af4565b50613b8f6123f4565b6001600160a01b0316630e8e3e84826040518263ffffffff1660e01b8152600401613bba9190615515565b600060405180830381600087803b1580156132a257600080fd5b60006060836001600160a01b031683604051613bf09190615191565b6000604051808303816000865af19150503d8060008114613c2d576040519150601f19603f3d011682016040523d82523d6000602084013e613c32565b606091505b50915091506000821415613c4a573d6000803e3d6000fd5b6106a1815160001480613c6c575081806020019051810190613c6c9190614833565b6101a26139e7565b60608215613c835750806138a1565b815115613c935781518083602001fd5b6138a16101ae613dc9565b60606000613cab83613e19565b90506001816003811115613cbb57fe5b1415613cd257613cca83613e2f565b915050613454565b82915050613454565b60606000613ce883613e81565b90506000816002811115613cf857fe5b1415613d0757613cca83613e97565b6001816002811115613d1557fe5b1415613cd257613cca83613efa565b60606000613d3183613e81565b6002811115613d3c57fe5b905060ff8116613d5057613cca8382613f4d565b60015b60ff168160ff161415613cd257613cca8382613faf565b60606000613d7783613e81565b6002811115613d8257fe5b905060ff8116613cd257613cca8382613f4d565b60606000613da383613e81565b6002811115613dae57fe5b905060ff8116613dc257613cca8382613f4d565b6002613d53565b613df3817f42414c000000000000000000000000000000000000000000000000000000000061400a565b50565b7dffffffffffffffffffffffffffffffffffffffffffffffffffffffffffff1690565b6000818060200190518101906134519190614d0a565b6060806000613e3d8461406b565b91509150613e4a8261408e565b613e545783613529565b60018282604051602001613e6a9392919061561f565b604051602081830303815290604052949350505050565b6000818060200190518101906134519190614c8b565b6060600080613ea5846140f8565b91509150613eb282613549565b15613ef057613ec082613590565b915060008282604051602001613ed8939291906155fe565b60405160208183030381529060405292505050613454565b8392505050613454565b60606000613f078361410f565b9050613f1281613549565b15613cd257613f2081613590565b9050600181604051602001613f369291906155e7565b604051602081830303815290604052915050613454565b6060600080613f5b856140f8565b91509150613f6882613549565b15613fa557613f7682613590565b9150838282604051602001613f8d939291906159a0565b604051602081830303815290604052925050506138a1565b84925050506138a1565b60606000613fbc8461410f565b9050613fc781613549565b1561400157613fd581613590565b90508281604051602001613fea92919061598d565b6040516020818303038152906040529150506138a1565b839150506138a1565b62461bcd60e51b600090815260206004526007602452600a808404818106603090810160081b958390069590950190829004918206850160101b01602363ffffff0060e086901c160160181b0190930160c81b60445260e882901c90606490fd5b60606000828060200190518101906140839190614d26565b909590945092505050565b600080805b83518110156140f15760008482815181106140aa57fe5b602002602001015190506140bd81613549565b156140e8576140cb81613590565b8583815181106140d757fe5b602002602001018181525050600192505b50600101614093565b5092915050565b600080828060200190518101906140839190614cd4565b6000818060200190518101906133009190614ca7565b6040805160a081019091528060008152600060208201819052604082018190526060820181905260809091015290565b80356138a181615a59565b60008083601f840112614171578182fd5b50813567ffffffffffffffff811115614188578182fd5b60208301915083602080830285010111156141a257600080fd5b9250929050565b600082601f8301126141b9578081fd5b81356141cc6141c7826159e2565b6159bb565b8181529150602080830190848101818402860182018710156141ed57600080fd5b60005b8481101561421557813561420381615a59565b845292820192908201906001016141f0565b505050505092915050565b600082601f830112614230578081fd5b813561423e6141c7826159e2565b818152915060208083019084810160005b84811015614215578135870160a080601f19838c0301121561427057600080fd5b614279816159bb565b85830135815260408084013587830152606080850135828401526080915081850135818401525082840135925067ffffffffffffffff8311156142bb57600080fd5b6142c98c88858701016143eb565b9082015286525050928201929082019060010161424f565b60008083601f8401126142f2578182fd5b50813567ffffffffffffffff811115614309578182fd5b6020830191508360206040830285010111156141a257600080fd5b600082601f830112614334578081fd5b81356143426141c7826159e2565b81815291506020808301908481018184028601820187101561436357600080fd5b60005b8481101561421557813584529282019290820190600101614366565b600082601f830112614392578081fd5b81516143a06141c7826159e2565b8181529150602080830190848101818402860182018710156143c157600080fd5b60005b84811015614215578151845292820192908201906001016143c4565b80356138a181615a6e565b600082601f8301126143fb578081fd5b813567ffffffffffffffff811115614411578182fd5b6144246020601f19601f840116016159bb565b915080825283602082850101111561443b57600080fd5b8060208401602084013760009082016020015292915050565b8035600281106138a157600080fd5b600060808284031215614474578081fd5b61447e60806159bb565b9050813567ffffffffffffffff8082111561449857600080fd5b6144a4858386016141a9565b835260208401359150808211156144ba57600080fd5b6144c685838601614324565b602084015260408401359150808211156144df57600080fd5b506144ec848285016143eb565b6040830152506144ff83606084016143e0565b606082015292915050565b60006080828403121561451b578081fd5b50919050565b803560ff811681146138a157600080fd5b600060208284031215614543578081fd5b813561330081615a59565b60006020828403121561455f578081fd5b815161330081615a59565b6000806000806080858703121561457f578283fd5b843561458a81615a59565b9350602085013561459a81615a59565b93969395505050506040820135916060013590565b600080600080606085870312156145c4578182fd5b84356145cf81615a59565b935060208501356145df81615a6e565b9250604085013567ffffffffffffffff808211156145fb578384fd5b818701915087601f83011261460e578384fd5b81358181111561461c578485fd5b88602082850101111561462d578485fd5b95989497505060200194505050565b600080600060608486031215614650578081fd5b833561465b81615a59565b95602085013595506040909401359392505050565b600080600060408486031215614684578081fd5b833567ffffffffffffffff81111561469a578182fd5b6146a686828701614160565b909790965060209590950135949350505050565b600080602083850312156146cc578182fd5b823567ffffffffffffffff8111156146e2578283fd5b6146ee85828601614160565b90969095509350505050565b6000602080838503121561470c578182fd5b825167ffffffffffffffff811115614722578283fd5b8301601f81018513614732578283fd5b80516147406141c7826159e2565b818152838101908385018584028501860189101561475c578687fd5b8694505b8385101561477e578051835260019490940193918501918501614760565b50979650505050505050565b60008060006040848603121561479e578081fd5b833567ffffffffffffffff808211156147b5578283fd5b818601915086601f8301126147c8578283fd5b8135818111156147d6578384fd5b87602060a0830285010111156147ea578384fd5b6020928301989097509590910135949350505050565b600060208284031215614811578081fd5b815167ffffffffffffffff811115614827578182fd5b61352984828501614382565b600060208284031215614844578081fd5b815161330081615a6e565b60008060008060008060c08789031215614867578384fd5b863561487281615a6e565b9550602087013561488281615a59565b9450604087013593506148988860608901614521565b92506080870135915060a087013590509295509295509295565b600080600080600080600060c0888a0312156148cc578485fd5b8735965060208801356148de81615a89565b955060408801356148ee81615a59565b945060608801356148fe81615a59565b9350608088013567ffffffffffffffff8082111561491a578283fd5b6149268b838c01614463565b945060a08a013591508082111561493b578283fd5b506149488a828b016142e1565b989b979a50959850939692959293505050565b600080600080600080600060e0888a031215614975578081fd5b87359650602088013561498781615a89565b9550604088013561499781615a59565b945060608801356149a781615a59565b9350608088013567ffffffffffffffff8111156149c2578182fd5b6149ce8a828b01614463565b93505060a0880135915060c0880135905092959891949750929550565b600080600080600060a08688031215614a02578283fd5b8535614a0d81615a59565b94506020860135614a1d81615a59565b93506040860135614a2d81615a59565b94979396509394606081013594506080013592915050565b600080600080600080600080610100898b031215614a61578182fd5b8835614a6c81615a59565b97506020890135614a7c81615a59565b965060408901359550606089013594506080890135614a9a81615a6e565b9350614aa98a60a08b01614521565b925060c0890135915060e089013590509295985092959890939650565b600080600080600080600060e0888a031215614ae0578081fd5b8735614aeb81615a59565b96506020880135614afb81615a59565b95506040880135945060608801359350614b188960808a01614521565b925060a0880135915060c0880135905092959891949750929550565b60008060408385031215614b46578182fd5b8235614b5181615a59565b946020939093013593505050565b60008060008060008060c08789031215614b77578384fd5b8635614b8281615a59565b95506020870135614b9281615a59565b94506040870135614ba281615a59565b93506060870135614bb281615a59565b9598949750929560808101359460a0909101359350915050565b60008060008060808587031215614be1578182fd5b8435614bec81615a59565b93506020850135614bfc81615a59565b92506040850135614c0c81615a59565b9396929550929360600135925050565b60008060008060008060c08789031215614c34578384fd5b8635614c3f81615a59565b95506020870135614c4f81615a59565b94506040870135614c5f81615a59565b9350606087013592506080870135614c7681615a6e565b8092505060a087013590509295509295509295565b600060208284031215614c9c578081fd5b815161330081615a7c565b60008060408385031215614cb9578182fd5b8251614cc481615a7c565b6020939093015192949293505050565b600080600060608486031215614ce8578081fd5b8351614cf381615a7c565b602085015160409095015190969495509392505050565b600060208284031215614d1b578081fd5b815161330081615a89565b600080600060608486031215614d3a578081fd5b8351614d4581615a89565b602085015190935067ffffffffffffffff811115614d61578182fd5b614d6d86828701614382565b925050604084015190509250925092565b60008060008060008060008060008060006101608c8e031215614d9f578485fd5b614da98d8d614454565b9a5067ffffffffffffffff8060208e01351115614dc4578586fd5b614dd48e60208f01358f01614220565b9a508060408e01351115614de6578586fd5b614df68e60408f01358f01614160565b909a509850614e088e60608f0161450a565b97508060e08e01351115614e1a578586fd5b614e2a8e60e08f01358f01614160565b90975095506101008d013594506101208d013593506101408d0135811015614e50578283fd5b50614e628d6101408e01358e016142e1565b81935080925050509295989b509295989b9093969950565b6000806000806000806101208789031215614e93578384fd5b863567ffffffffffffffff80821115614eaa578586fd5b9088019060c0828b031215614ebd578586fd5b614ec760c06159bb565b82358152614ed88b60208501614454565b60208201526040830135614eeb81615a59565b6040820152614efd8b60608501614155565b60608201526080830135608082015260a083013582811115614f1d578788fd5b614f298c8286016143eb565b60a083015250809850505050614f42886020890161450a565b959895975050505060a08401359360c08101359360e08201359350610100909101359150565b600060208284031215614f79578081fd5b5035919050565b600060208284031215614f91578081fd5b5051919050565b60008060408385031215614faa578182fd5b505080516020909101519092909150565b6001600160a01b03169052565b60008284526020808501945082825b85811015615005578135614fea81615a59565b6001600160a01b031687529582019590820190600101614fd7565b509495945050505050565b60008284526020808501945082825b858110156150055781358752958201959082019060010161501f565b6000815180845260208085019450808401835b838110156150055781518752958201959082019060010161504e565b15159052565b60008151808452615088816020860160208601615a0f565b601f01601f19169290920160200192915050565b8051608080845281519084018190526000916020919082019060a0860190845b818110156150e15783516001600160a01b0316835292840192918401916001016150bc565b5050828501519150858103838701526150fa818361503b565b92505050604083015184820360408601526151158282615070565b915050606083015161512a606086018261506a565b509392505050565b803561513d81615a59565b6001600160a01b03908116835260208201359061515982615a6e565b901515602084015260408201359061517082615a59565b166040830152606081013561518481615a6e565b8015156060840152505050565b600082516151a3818460208701615a0f565b9190910192915050565b600084516151bf818460208901615a0f565b8201838582379092019182525092915050565b918252602082015260400190565b6001600160a01b0391909116815260200190565b6001600160a01b039384168152919092166020820152901515604082015260600190565b6000604082016001600160a01b03808616845260206040818601528286518085526060870191508288019450855b81811015615264578551851683529483019491830191600101615246565b509098975050505050505050565b6001600160a01b0392831681529116602082015260400190565b6001600160a01b0394851681529290931660208301526040820152901515606082015260800190565b6001600160a01b039889168152969097166020870152604086019490945260608501929092521515608084015260ff1660a083015260c082015260e08101919091526101000190565b6001600160a01b0397881681529590961660208601526040850193909352606084019190915260ff16608083015260a082015260c081019190915260e00190565b6001600160a01b0397881681529515156020870152939095166040850152606084019190915260ff16608083015260a082019290925260c081019190915260e00190565b6001600160a01b0392909216825260ff16602082015260400190565b6001600160a01b03929092168252602082015260400190565b6001600160a01b0393909316835260208301919091521515604082015260600190565b6001600160a01b03949094168452602084019290925261ffff1660408301521515606082015260800190565b6040808252810183905260008460608301825b8681101561544a576020833561542f81615a59565b6001600160a01b03168352928301929091019060010161541a565b5080925050506001600160a01b0383166020830152949350505050565b6020808252818101839052600090604080840186845b8781101561550857813561549081615a89565b61549981615a45565b8352818501356154a881615a59565b6001600160a01b031683860152818401358484015260606154cb81840184615a02565b6154d782860182614fbb565b505060806154e781840184615a02565b6154f382860182614fbb565b505060a092830192919091019060010161547d565b5090979650505050505050565b602080825282518282018190526000919060409081850190868401855b8281101561559e578151805161554781615a45565b8552808701516001600160a01b031687860152858101518686015260608082015161557482880182614fbb565b50506080908101519061558986820183614fbb565b505060a0939093019290850190600101615532565b5091979650505050505050565b60008582526001600160a01b038086166020840152808516604084015250608060608301526155dd608083018461509c565b9695505050505050565b604081016155f484615a3b565b9281526020015290565b6060810161560b85615a3b565b938152602081019290925260409091015290565b600061562a85615a45565b84825260606020830152615641606083018561503b565b9050826040830152949350505050565b60006101208083016156628c615a4f565b8b84526020808501929092528a5190819052610140808501928281028601909101918c8201855b82811015615709578785037ffffffffffffffffffffffffffffffffffffffffffffffffffffffffffffffec00186528151805186528481015185870152604080820151908701526060808201519087015260809081015160a0918701829052906156f581880183615070565b978601979650505090830190600101615689565b505050508381036040850152615720818a8c614fc8565b9150506157306060840188615132565b82810360e0840152615743818688615010565b915050826101008301529998505050505050505050565b60208082526011908201527f756e7772617070696e67206661696c6564000000000000000000000000000000604082015260600190565b60208082526010908201527f496e636f72726563742073656e64657200000000000000000000000000000000604082015260600190565b6020808252601f908201527f52656c617965722063616e206f6e6c7920617070726f766520697473656c6600604082015260600190565b6020808252600f908201527f7772617070696e67206661696c65640000000000000000000000000000000000604082015260600190565b60208082526013908201527f554e48414e444c45445f504f4f4c5f4b494e4400000000000000000000000000604082015260600190565b60208082526019908201527f696e76616c696420636861696e6564207265666572656e636500000000000000604082015260600190565b600060e08252855160e083015260208601516158bf81615a4f565b61010083015260408601516001600160a01b03908116610120840152606087015116610140830152608086015161016083015260a086015160c061018084015261590d6101a0840182615070565b91505061591d6020830186615132565b60a082019390935260c0015292915050565b90815260200190565b9182526001600160a01b0316602082015260400190565b9283526001600160a01b03918216602084015216604082015260600190565b9283526001600160a01b03919091166020830152604082015260600190565b60ff929092168252602082015260400190565b60ff9390931683526020830191909152604082015260600190565b60405181810167ffffffffffffffff811182821017156159da57600080fd5b604052919050565b600067ffffffffffffffff8211156159f8578081fd5b5060209081020190565b6000823561330081615a59565b60005b83811015615a2a578181015183820152602001615a12565b838111156106a15750506000910152565b60038110613df357fe5b60048110613df357fe5b60028110613df357fe5b6001600160a01b0381168114613df357600080fd5b8015158114613df357600080fd5b60038110613df357600080fd5b60048110613df357600080fdfea26469706673582212206cde45f42c79b2b8c9ddfed64000d7c1dfd987a23d0836b6c5f058b54bb6762064736f6c6343000701003360c060405234801561001057600080fd5b5060405161078738038061078783398101604081905261002f91610052565b60016000556001600160601b0319606092831b8116608052911b1660a0526100a3565b60008060408385031215610064578182fd5b825161006f8161008b565b60208401519092506100808161008b565b809150509250929050565b6001600160a01b03811681146100a057600080fd5b50565b60805160601c60a05160601c6106b36100d46000398060fc528061020f5250806058528061012052506106b36000f3fe6080604052600436106100385760003560e01c80637678922e146100885780638d928af8146100b3578063ac9650d8146100c857610083565b36610083576100813373ffffffffffffffffffffffffffffffffffffffff7f000000000000000000000000000000000000000000000000000000000000000016146102066100e8565b005b600080fd5b34801561009457600080fd5b5061009d6100fa565b6040516100aa919061050e565b60405180910390f35b3480156100bf57600080fd5b5061009d61011e565b6100db6100d6366004610480565b610142565b6040516100aa919061052f565b816100f6576100f68161026e565b5050565b7f000000000000000000000000000000000000000000000000000000000000000090565b7f000000000000000000000000000000000000000000000000000000000000000090565b606061014c61029b565b8167ffffffffffffffff8111801561016357600080fd5b5060405190808252806020026020018201604052801561019757816020015b60608152602001906001900390816101825790505b50905060005b82811015610257576102388484838181106101b457fe5b90506020028101906101c691906105e3565b8080601f0160208091040260200160405190810160405280939291908181526020018383808284376000920191909152505073ffffffffffffffffffffffffffffffffffffffff7f000000000000000000000000000000000000000000000000000000000000000016929150506102b4565b82828151811061024457fe5b602090810291909101015260010161019d565b50610260610337565b610268610348565b92915050565b610298817f42414c000000000000000000000000000000000000000000000000000000000061034f565b50565b6102ad600260005414156101906100e8565b6002600055565b6060600060608473ffffffffffffffffffffffffffffffffffffffff16846040516102df91906104ef565b600060405180830381855af49150503d806000811461031a576040519150601f19603f3d011682016040523d82523d6000602084013e61031f565b606091505b509150915061032e82826103ca565b95945050505050565b4780156102985761029833826103f4565b6001600055565b7f08c379a000000000000000000000000000000000000000000000000000000000600090815260206004526007602452600a808404818106603090810160081b958390069590950190829004918206850160101b01602363ffffff0060e086901c160160181b0190930160c81b60445260e882901c90606490fd5b606082156103d9575080610268565b8151156103e95781518083602001fd5b6102686101ae61026e565b610403814710156101a36100e8565b60008273ffffffffffffffffffffffffffffffffffffffff16826040516104299061050b565b60006040518083038185875af1925050503d8060008114610466576040519150601f19603f3d011682016040523d82523d6000602084013e61046b565b606091505b5050905061047b816101a46100e8565b505050565b60008060208385031215610492578182fd5b823567ffffffffffffffff808211156104a9578384fd5b818501915085601f8301126104bc578384fd5b8135818111156104ca578485fd5b86602080830285010111156104dd578485fd5b60209290920196919550909350505050565b6000825161050181846020870161064d565b9190910192915050565b90565b73ffffffffffffffffffffffffffffffffffffffff91909116815260200190565b6000602080830181845280855180835260408601915060408482028701019250838701855b828110156105d6577fffffffffffffffffffffffffffffffffffffffffffffffffffffffffffffffc088860301845281518051808752610599818989018a850161064d565b601f017fffffffffffffffffffffffffffffffffffffffffffffffffffffffffffffffe01695909501860194509285019290850190600101610554565b5092979650505050505050565b60008083357fffffffffffffffffffffffffffffffffffffffffffffffffffffffffffffffe1843603018112610617578283fd5b83018035915067ffffffffffffffff821115610631578283fd5b60200191503681900382131561064657600080fd5b9250929050565b60005b83811015610668578181015183820152602001610650565b83811115610677576000848401525b5050505056fea26469706673582212201120b234fb57d56607056c92dd83b5cf9c324b095090d2b5b628463e9259399564736f6c63430007010033",
  "linkReferences": {},
  "deployedLinkReferences": {}
}