{"contracts/TimelockAuthorizerTransitionMigrator.sol":{"TimelockAuthorizerTransitionMigrator":{"abi":[{"inputs":[{"internalType":"contract IBasicAuthorizer","name":"_oldAuthorizer","type":"address"},{"internalType":"contract TimelockAuthorizer","name":"_timelockAuthorizer","type":"address"},{"components":[{"internalType":"address","name":"grantee","type":"address"},{"internalType":"bytes32","name":"role","type":"bytes32"},{"internalType":"address","name":"target","type":"address"}],"internalType":"struct TimelockAuthorizerTransitionMigrator.RoleData[]","name":"_rolesData","type":"tuple[]"}],"stateMutability":"nonpayable","type":"constructor"},{"anonymous":false,"inputs":[{"indexed":true,"internalType":"bytes32","name":"role","type":"bytes32"},{"indexed":true,"internalType":"address","name":"grantee","type":"address"},{"indexed":true,"internalType":"address","name":"target","type":"address"}],"name":"PermissionSkipped","type":"event"},{"inputs":[],"name":"executeDelays","outputs":[],"stateMutability":"nonpayable","type":"function"},{"inputs":[],"name":"migratePermissions","outputs":[],"stateMutability":"nonpayable","type":"function"},{"inputs":[],"name":"oldAuthorizer","outputs":[{"internalType":"contract IBasicAuthorizer","name":"","type":"address"}],"stateMutability":"view","type":"function"},{"inputs":[{"internalType":"uint256","name":"","type":"uint256"}],"name":"rolesData","outputs":[{"internalType":"address","name":"grantee","type":"address"},{"internalType":"bytes32","name":"role","type":"bytes32"},{"internalType":"address","name":"target","type":"address"}],"stateMutability":"view","type":"function"},{"inputs":[{"internalType":"uint256","name":"","type":"uint256"}],"name":"scheduledExecutionIds","outputs":[{"internalType":"uint256","name":"","type":"uint256"}],"stateMutability":"view","type":"function"},{"inputs":[],"name":"timelockAuthorizer","outputs":[{"internalType":"contract TimelockAuthorizer","name":"","type":"address"}],"stateMutability":"view","type":"function"}],"evm":{"bytecode":{"linkReferences":{},"object":"60c06040523480156200001157600080fd5b50604051620013d4380380620013d4833981016040819052620000349162000298565b6001600160601b0319606084811b821660805283901b1660a05260005b8151811015620001f15762000065620001fb565b8282815181106200007257fe5b60200260200101519050846001600160a01b0316639be2a8848260200151836000015184604001516040518463ffffffff1660e01b8152600401620000ba939291906200037c565b60206040518083038186803b158015620000d357600080fd5b505afa158015620000e8573d6000803e3d6000fd5b505050506040513d601f19601f820116820180604052508101906200010e91906200026f565b620001365760405162461bcd60e51b81526004016200012d906200039b565b60405180910390fd5b600080546001808201835591805282517f290decd9548b62a8d60345a988386fc84ba6bc95484008f6362f93160ef3e563600390920291820180546001600160a01b03199081166001600160a01b039384161790915560208501517f290decd9548b62a8d60345a988386fc84ba6bc95484008f6362f93160ef3e5648401556040909401517f290decd9548b62a8d60345a988386fc84ba6bc95484008f6362f93160ef3e56590920180549094169116179091550162000051565b5050505062000404565b604080516060810182526000808252602082018190529181019190915290565b6000606082840312156200022d578081fd5b620002396060620003c4565b905081516200024881620003eb565b81526020828101519082015260408201516200026481620003eb565b604082015292915050565b60006020828403121562000281578081fd5b8151801515811462000291578182fd5b9392505050565b60008060006060808587031215620002ae578283fd5b8451620002bb81620003eb565b80945050602080860151620002d081620003eb565b60408701519094506001600160401b0380821115620002ed578485fd5b818801915088601f83011262000301578485fd5b81518181111562000310578586fd5b6200031f8485830201620003c4565b8181528481019250838501868302850186018c10156200033d578788fd5b8794505b828510156200036b57620003568c826200021b565b84526001949094019392850192860162000341565b508096505050505050509250925092565b9283526001600160a01b03918216602084015216604082015260600190565b6020808252600f908201526e554e45585045435445445f524f4c4560881b604082015260600190565b6040518181016001600160401b0381118282101715620003e357600080fd5b604052919050565b6001600160a01b03811681146200040157600080fd5b50565b60805160601c60a05160601c610f746200046060003980610162528061024b5280610305528061050d52806105d0528061065b5280610753528061088852806108c4528061096352508061043c5280610aa05250610f746000f3fe608060405234801561001057600080fd5b50600436106100725760003560e01c80639c763195116100505780639c763195146100a7578063c6bfe9ae146100c9578063df829a6f146100d157610072565b80633c44172d146100775780633d6b35b114610081578063866658221461009f575b600080fd5b61007f6100f1565b005b610089610303565b6040516100969190610eaf565b60405180910390f35b61007f610327565b6100ba6100b5366004610cfc565b610a56565b60405161009693929190610d64565b610089610a9e565b6100e46100df366004610cfc565b610ac2565b6040516100969190610dfd565b60025460ff16610136576040517f08c379a000000000000000000000000000000000000000000000000000000000815260040161012d90610ed0565b60405180910390fd5b60015460005b818110156102ff5760006001828154811061015357fe5b906000526020600020015490507f000000000000000000000000000000000000000000000000000000000000000073ffffffffffffffffffffffffffffffffffffffff1663cc63604a826040518263ffffffff1660e01b81526004016101b99190610dfd565b60206040518083038186803b1580156101d157600080fd5b505afa1580156101e5573d6000803e3d6000fd5b505050506040513d601f19601f820116820180604052508101906102099190610beb565b156102f6576040517ffe0d94c100000000000000000000000000000000000000000000000000000000815273ffffffffffffffffffffffffffffffffffffffff7f0000000000000000000000000000000000000000000000000000000000000000169063fe0d94c190610280908490600401610dfd565b600060405180830381600087803b15801561029a57600080fd5b505af11580156102ae573d6000803e3d6000fd5b505050506040513d6000823e601f3d9081017fffffffffffffffffffffffffffffffffffffffffffffffffffffffffffffffe01682016040526102f49190810190610c23565b505b5060010161013c565b5050565b7f000000000000000000000000000000000000000000000000000000000000000081565b60025460ff1615610364576040517f08c379a000000000000000000000000000000000000000000000000000000000815260040161012d90610f07565b600280547fffffffffffffffffffffffffffffffffffffffffffffffffffffffffffffff00166001179055600054606061039d30610ae0565b905060005b82811015610885576103b2610b90565b600082815481106103bf57fe5b6000918252602091829020604080516060810182526003909302909101805473ffffffffffffffffffffffffffffffffffffffff9081168085526001830154958501869052600290920154811684840181905292517f9be2a8840000000000000000000000000000000000000000000000000000000081529395507f00000000000000000000000000000000000000000000000000000000000000001693639be2a884936104739391929190600401610e06565b60206040518083038186803b15801561048b57600080fd5b505afa15801561049f573d6000803e3d6000fd5b505050506040513d601f19601f820116820180604052508101906104c39190610beb565b156108145760208101516040517f151b89d100000000000000000000000000000000000000000000000000000000815260009173ffffffffffffffffffffffffffffffffffffffff7f0000000000000000000000000000000000000000000000000000000000000000169163151b89d19161054091600401610dfd565b60206040518083038186803b15801561055857600080fd5b505afa15801561056c573d6000803e3d6000fd5b505050506040513d601f19601f820116820180604052508101906105909190610c0b565b6040517f3bf4679700000000000000000000000000000000000000000000000000000000815290915073ffffffffffffffffffffffffffffffffffffffff7f00000000000000000000000000000000000000000000000000000000000000001690633bf4679790610605908490600401610dfd565b60206040518083038186803b15801561061d57600080fd5b505afa158015610631573d6000803e3d6000fd5b505050506040513d601f19601f820116820180604052508101906106559190610c0b565b610707577f000000000000000000000000000000000000000000000000000000000000000073ffffffffffffffffffffffffffffffffffffffff16636f8bc5966106a28460200151610b4f565b845160408601516106b290610ae0565b6040518463ffffffff1660e01b81526004016106d093929190610d94565b600060405180830381600087803b1580156106ea57600080fd5b505af11580156106fe573d6000803e3d6000fd5b5050505061080e565b6020820151825160408085015190517f863bac6b00000000000000000000000000000000000000000000000000000000815260009373ffffffffffffffffffffffffffffffffffffffff7f0000000000000000000000000000000000000000000000000000000000000000169363863bac6b93610788938b90600401610e32565b602060405180830381600087803b1580156107a257600080fd5b505af11580156107b6573d6000803e3d6000fd5b505050506040513d601f19601f820116820180604052508101906107da9190610c0b565b6001805480820182556000919091527fb10e2d527612073b26eecdfd717e6a320cf44b4afac2b0732d9fcbe2b7fa0cf60155505b5061087c565b806040015173ffffffffffffffffffffffffffffffffffffffff16816000015173ffffffffffffffffffffffffffffffffffffffff1682602001517fbef2bec3f1473fa86e851888846fe82a6337ef167ee9529955a2c8ff97d88bb760405160405180910390a45b506001016103a2565b507f000000000000000000000000000000000000000000000000000000000000000073ffffffffffffffffffffffffffffffffffffffff166378a083777f000000000000000000000000000000000000000000000000000000000000000073ffffffffffffffffffffffffffffffffffffffff1663fc78a2286040518163ffffffff1660e01b815260040160206040518083038186803b15801561092857600080fd5b505afa15801561093c573d6000803e3d6000fd5b505050506040513d601f19601f820116820180604052508101906109609190610c0b565b307f000000000000000000000000000000000000000000000000000000000000000073ffffffffffffffffffffffffffffffffffffffff166362cde1ba6040518163ffffffff1660e01b815260040160206040518083038186803b1580156109c757600080fd5b505afa1580156109db573d6000803e3d6000fd5b505050506040513d601f19601f820116820180604052508101906109ff9190610bb0565b60006040518563ffffffff1660e01b8152600401610a209493929190610e7b565b600060405180830381600087803b158015610a3a57600080fd5b505af1158015610a4e573d6000803e3d6000fd5b505050505050565b60008181548110610a6357fe5b600091825260209091206003909102018054600182015460029092015473ffffffffffffffffffffffffffffffffffffffff91821693501683565b7f000000000000000000000000000000000000000000000000000000000000000081565b60018181548110610acf57fe5b600091825260209091200154905081565b604080516001808252818301909252606091602080830190803683370190505090508181600081518110610b1057fe5b602002602001019073ffffffffffffffffffffffffffffffffffffffff16908173ffffffffffffffffffffffffffffffffffffffff1681525050919050565b604080516001808252818301909252606091602080830190803683370190505090508181600081518110610b7f57fe5b602002602001018181525050919050565b604080516060810182526000808252602082018190529181019190915290565b600060208284031215610bc1578081fd5b815173ffffffffffffffffffffffffffffffffffffffff81168114610be4578182fd5b9392505050565b600060208284031215610bfc578081fd5b81518015158114610be4578182fd5b600060208284031215610c1c578081fd5b5051919050565b60006020808385031215610c35578182fd5b825167ffffffffffffffff80821115610c4c578384fd5b818501915085601f830112610c5f578384fd5b815181811115610c6d578485fd5b604051847fffffffffffffffffffffffffffffffffffffffffffffffffffffffffffffffe0601f8401168201018181108482111715610caa578687fd5b6040528181528382018501881015610cc0578586fd5b8592505b81831015610ce15783830185015181840186015291840191610cc4565b81831115610cf157858583830101525b979650505050505050565b600060208284031215610d0d578081fd5b5035919050565b6000815180845260208085019450808401835b83811015610d5957815173ffffffffffffffffffffffffffffffffffffffff1687529582019590820190600101610d27565b509495945050505050565b73ffffffffffffffffffffffffffffffffffffffff93841681526020810192909252909116604082015260600190565b606080825284519082018190526000906020906080840190828801845b82811015610dcd57815184529284019290840190600101610db1565b50505073ffffffffffffffffffffffffffffffffffffffff8616828501528381036040850152610cf18186610d14565b90815260200190565b92835273ffffffffffffffffffffffffffffffffffffffff918216602084015216604082015260600190565b600085825273ffffffffffffffffffffffffffffffffffffffff808616602084015280851660408401525060806060830152610e716080830184610d14565b9695505050505050565b93845273ffffffffffffffffffffffffffffffffffffffff9283166020850152911660408301521515606082015260800190565b73ffffffffffffffffffffffffffffffffffffffff91909116815260200190565b60208082526014908201527f4d4947524154494f4e5f494e434f4d504c455445000000000000000000000000604082015260600190565b60208082526010908201527f414c52454144595f4d494752415445440000000000000000000000000000000060408201526060019056fea264697066735822122070a6d3a35752c9f63d6919f39afa5b7d010fae6e19b7d36a7a5892cf9c676ea864736f6c63430007010033","opcodes":"PUSH1 0xC0 PUSH1 0x40 MSTORE CALLVALUE DUP1 ISZERO PUSH3 0x11 JUMPI PUSH1 0x0 DUP1 REVERT JUMPDEST POP PUSH1 0x40 MLOAD PUSH3 0x13D4 CODESIZE SUB DUP1 PUSH3 0x13D4 DUP4 CODECOPY DUP2 ADD PUSH1 0x40 DUP2 SWAP1 MSTORE PUSH3 0x34 SWAP2 PUSH3 0x298 JUMP JUMPDEST PUSH1 0x1 PUSH1 0x1 PUSH1 0x60 SHL SUB NOT PUSH1 0x60 DUP5 DUP2 SHL DUP3 AND PUSH1 0x80 MSTORE DUP4 SWAP1 SHL AND PUSH1 0xA0 MSTORE PUSH1 0x0 JUMPDEST DUP2 MLOAD DUP2 LT ISZERO PUSH3 0x1F1 JUMPI PUSH3 0x65 PUSH3 0x1FB JUMP JUMPDEST DUP3 DUP3 DUP2 MLOAD DUP2 LT PUSH3 0x72 JUMPI INVALID JUMPDEST PUSH1 0x20 MUL PUSH1 0x20 ADD ADD MLOAD SWAP1 POP DUP5 PUSH1 0x1 PUSH1 0x1 PUSH1 0xA0 SHL SUB AND PUSH4 0x9BE2A884 DUP3 PUSH1 0x20 ADD MLOAD DUP4 PUSH1 0x0 ADD MLOAD DUP5 PUSH1 0x40 ADD MLOAD PUSH1 0x40 MLOAD DUP5 PUSH4 0xFFFFFFFF AND PUSH1 0xE0 SHL DUP2 MSTORE PUSH1 0x4 ADD PUSH3 0xBA SWAP4 SWAP3 SWAP2 SWAP1 PUSH3 0x37C JUMP JUMPDEST PUSH1 0x20 PUSH1 0x40 MLOAD DUP1 DUP4 SUB DUP2 DUP7 DUP1 EXTCODESIZE ISZERO DUP1 ISZERO PUSH3 0xD3 JUMPI PUSH1 0x0 DUP1 REVERT JUMPDEST POP GAS STATICCALL ISZERO DUP1 ISZERO PUSH3 0xE8 JUMPI RETURNDATASIZE PUSH1 0x0 DUP1 RETURNDATACOPY RETURNDATASIZE PUSH1 0x0 REVERT JUMPDEST POP POP POP POP PUSH1 0x40 MLOAD RETURNDATASIZE PUSH1 0x1F NOT PUSH1 0x1F DUP3 ADD AND DUP3 ADD DUP1 PUSH1 0x40 MSTORE POP DUP2 ADD SWAP1 PUSH3 0x10E SWAP2 SWAP1 PUSH3 0x26F JUMP JUMPDEST PUSH3 0x136 JUMPI PUSH1 0x40 MLOAD PUSH3 0x461BCD PUSH1 0xE5 SHL DUP2 MSTORE PUSH1 0x4 ADD PUSH3 0x12D SWAP1 PUSH3 0x39B JUMP JUMPDEST PUSH1 0x40 MLOAD DUP1 SWAP2 SUB SWAP1 REVERT JUMPDEST PUSH1 0x0 DUP1 SLOAD PUSH1 0x1 DUP1 DUP3 ADD DUP4 SSTORE SWAP2 DUP1 MSTORE DUP3 MLOAD PUSH32 0x290DECD9548B62A8D60345A988386FC84BA6BC95484008F6362F93160EF3E563 PUSH1 0x3 SWAP1 SWAP3 MUL SWAP2 DUP3 ADD DUP1 SLOAD PUSH1 0x1 PUSH1 0x1 PUSH1 0xA0 SHL SUB NOT SWAP1 DUP2 AND PUSH1 0x1 PUSH1 0x1 PUSH1 0xA0 SHL SUB SWAP4 DUP5 AND OR SWAP1 SWAP2 SSTORE PUSH1 0x20 DUP6 ADD MLOAD PUSH32 0x290DECD9548B62A8D60345A988386FC84BA6BC95484008F6362F93160EF3E564 DUP5 ADD SSTORE PUSH1 0x40 SWAP1 SWAP5 ADD MLOAD PUSH32 0x290DECD9548B62A8D60345A988386FC84BA6BC95484008F6362F93160EF3E565 SWAP1 SWAP3 ADD DUP1 SLOAD SWAP1 SWAP5 AND SWAP2 AND OR SWAP1 SWAP2 SSTORE ADD PUSH3 0x51 JUMP JUMPDEST POP POP POP POP PUSH3 0x404 JUMP JUMPDEST PUSH1 0x40 DUP1 MLOAD PUSH1 0x60 DUP2 ADD DUP3 MSTORE PUSH1 0x0 DUP1 DUP3 MSTORE PUSH1 0x20 DUP3 ADD DUP2 SWAP1 MSTORE SWAP2 DUP2 ADD SWAP2 SWAP1 SWAP2 MSTORE SWAP1 JUMP JUMPDEST PUSH1 0x0 PUSH1 0x60 DUP3 DUP5 SUB SLT ISZERO PUSH3 0x22D JUMPI DUP1 DUP2 REVERT JUMPDEST PUSH3 0x239 PUSH1 0x60 PUSH3 0x3C4 JUMP JUMPDEST SWAP1 POP DUP2 MLOAD PUSH3 0x248 DUP2 PUSH3 0x3EB JUMP JUMPDEST DUP2 MSTORE PUSH1 0x20 DUP3 DUP2 ADD MLOAD SWAP1 DUP3 ADD MSTORE PUSH1 0x40 DUP3 ADD MLOAD PUSH3 0x264 DUP2 PUSH3 0x3EB JUMP JUMPDEST PUSH1 0x40 DUP3 ADD MSTORE SWAP3 SWAP2 POP POP JUMP JUMPDEST PUSH1 0x0 PUSH1 0x20 DUP3 DUP5 SUB SLT ISZERO PUSH3 0x281 JUMPI DUP1 DUP2 REVERT JUMPDEST DUP2 MLOAD DUP1 ISZERO ISZERO DUP2 EQ PUSH3 0x291 JUMPI DUP2 DUP3 REVERT JUMPDEST SWAP4 SWAP3 POP POP POP JUMP JUMPDEST PUSH1 0x0 DUP1 PUSH1 0x0 PUSH1 0x60 DUP1 DUP6 DUP8 SUB SLT ISZERO PUSH3 0x2AE JUMPI DUP3 DUP4 REVERT JUMPDEST DUP5 MLOAD PUSH3 0x2BB DUP2 PUSH3 0x3EB JUMP JUMPDEST DUP1 SWAP5 POP POP PUSH1 0x20 DUP1 DUP7 ADD MLOAD PUSH3 0x2D0 DUP2 PUSH3 0x3EB JUMP JUMPDEST PUSH1 0x40 DUP8 ADD MLOAD SWAP1 SWAP5 POP PUSH1 0x1 PUSH1 0x1 PUSH1 0x40 SHL SUB DUP1 DUP3 GT ISZERO PUSH3 0x2ED JUMPI DUP5 DUP6 REVERT JUMPDEST DUP2 DUP9 ADD SWAP2 POP DUP9 PUSH1 0x1F DUP4 ADD SLT PUSH3 0x301 JUMPI DUP5 DUP6 REVERT JUMPDEST DUP2 MLOAD DUP2 DUP2 GT ISZERO PUSH3 0x310 JUMPI DUP6 DUP7 REVERT JUMPDEST PUSH3 0x31F DUP5 DUP6 DUP4 MUL ADD PUSH3 0x3C4 JUMP JUMPDEST DUP2 DUP2 MSTORE DUP5 DUP2 ADD SWAP3 POP DUP4 DUP6 ADD DUP7 DUP4 MUL DUP6 ADD DUP7 ADD DUP13 LT ISZERO PUSH3 0x33D JUMPI DUP8 DUP9 REVERT JUMPDEST DUP8 SWAP5 POP JUMPDEST DUP3 DUP6 LT ISZERO PUSH3 0x36B JUMPI PUSH3 0x356 DUP13 DUP3 PUSH3 0x21B JUMP JUMPDEST DUP5 MSTORE PUSH1 0x1 SWAP5 SWAP1 SWAP5 ADD SWAP4 SWAP3 DUP6 ADD SWAP3 DUP7 ADD PUSH3 0x341 JUMP JUMPDEST POP DUP1 SWAP7 POP POP POP POP POP POP POP SWAP3 POP SWAP3 POP SWAP3 JUMP JUMPDEST SWAP3 DUP4 MSTORE PUSH1 0x1 PUSH1 0x1 PUSH1 0xA0 SHL SUB SWAP2 DUP3 AND PUSH1 0x20 DUP5 ADD MSTORE AND PUSH1 0x40 DUP3 ADD MSTORE PUSH1 0x60 ADD SWAP1 JUMP JUMPDEST PUSH1 0x20 DUP1 DUP3 MSTORE PUSH1 0xF SWAP1 DUP3 ADD MSTORE PUSH15 0x554E45585045435445445F524F4C45 PUSH1 0x88 SHL PUSH1 0x40 DUP3 ADD MSTORE PUSH1 0x60 ADD SWAP1 JUMP JUMPDEST PUSH1 0x40 MLOAD DUP2 DUP2 ADD PUSH1 0x1 PUSH1 0x1 PUSH1 0x40 SHL SUB DUP2 GT DUP3 DUP3 LT OR ISZERO PUSH3 0x3E3 JUMPI PUSH1 0x0 DUP1 REVERT JUMPDEST PUSH1 0x40 MSTORE SWAP2 SWAP1 POP JUMP JUMPDEST PUSH1 0x1 PUSH1 0x1 PUSH1 0xA0 SHL SUB DUP2 AND DUP2 EQ PUSH3 0x401 JUMPI PUSH1 0x0 DUP1 REVERT JUMPDEST POP JUMP JUMPDEST PUSH1 0x80 MLOAD PUSH1 0x60 SHR PUSH1 0xA0 MLOAD PUSH1 0x60 SHR PUSH2 0xF74 PUSH3 0x460 PUSH1 0x0 CODECOPY DUP1 PUSH2 0x162 MSTORE DUP1 PUSH2 0x24B MSTORE DUP1 PUSH2 0x305 MSTORE DUP1 PUSH2 0x50D MSTORE DUP1 PUSH2 0x5D0 MSTORE DUP1 PUSH2 0x65B MSTORE DUP1 PUSH2 0x753 MSTORE DUP1 PUSH2 0x888 MSTORE DUP1 PUSH2 0x8C4 MSTORE DUP1 PUSH2 0x963 MSTORE POP DUP1 PUSH2 0x43C MSTORE DUP1 PUSH2 0xAA0 MSTORE POP PUSH2 0xF74 PUSH1 0x0 RETURN INVALID PUSH1 0x80 PUSH1 0x40 MSTORE CALLVALUE DUP1 ISZERO PUSH2 0x10 JUMPI PUSH1 0x0 DUP1 REVERT JUMPDEST POP PUSH1 0x4 CALLDATASIZE LT PUSH2 0x72 JUMPI PUSH1 0x0 CALLDATALOAD PUSH1 0xE0 SHR DUP1 PUSH4 0x9C763195 GT PUSH2 0x50 JUMPI DUP1 PUSH4 0x9C763195 EQ PUSH2 0xA7 JUMPI DUP1 PUSH4 0xC6BFE9AE EQ PUSH2 0xC9 JUMPI DUP1 PUSH4 0xDF829A6F EQ PUSH2 0xD1 JUMPI PUSH2 0x72 JUMP JUMPDEST DUP1 PUSH4 0x3C44172D EQ PUSH2 0x77 JUMPI DUP1 PUSH4 0x3D6B35B1 EQ PUSH2 0x81 JUMPI DUP1 PUSH4 0x86665822 EQ PUSH2 0x9F JUMPI JUMPDEST PUSH1 0x0 DUP1 REVERT JUMPDEST PUSH2 0x7F PUSH2 0xF1 JUMP JUMPDEST STOP JUMPDEST PUSH2 0x89 PUSH2 0x303 JUMP JUMPDEST PUSH1 0x40 MLOAD PUSH2 0x96 SWAP2 SWAP1 PUSH2 0xEAF JUMP JUMPDEST PUSH1 0x40 MLOAD DUP1 SWAP2 SUB SWAP1 RETURN JUMPDEST PUSH2 0x7F PUSH2 0x327 JUMP JUMPDEST PUSH2 0xBA PUSH2 0xB5 CALLDATASIZE PUSH1 0x4 PUSH2 0xCFC JUMP JUMPDEST PUSH2 0xA56 JUMP JUMPDEST PUSH1 0x40 MLOAD PUSH2 0x96 SWAP4 SWAP3 SWAP2 SWAP1 PUSH2 0xD64 JUMP JUMPDEST PUSH2 0x89 PUSH2 0xA9E JUMP JUMPDEST PUSH2 0xE4 PUSH2 0xDF CALLDATASIZE PUSH1 0x4 PUSH2 0xCFC JUMP JUMPDEST PUSH2 0xAC2 JUMP JUMPDEST PUSH1 0x40 MLOAD PUSH2 0x96 SWAP2 SWAP1 PUSH2 0xDFD JUMP JUMPDEST PUSH1 0x2 SLOAD PUSH1 0xFF AND PUSH2 0x136 JUMPI PUSH1 0x40 MLOAD PUSH32 0x8C379A000000000000000000000000000000000000000000000000000000000 DUP2 MSTORE PUSH1 0x4 ADD PUSH2 0x12D SWAP1 PUSH2 0xED0 JUMP JUMPDEST PUSH1 0x40 MLOAD DUP1 SWAP2 SUB SWAP1 REVERT JUMPDEST PUSH1 0x1 SLOAD PUSH1 0x0 JUMPDEST DUP2 DUP2 LT ISZERO PUSH2 0x2FF JUMPI PUSH1 0x0 PUSH1 0x1 DUP3 DUP2 SLOAD DUP2 LT PUSH2 0x153 JUMPI INVALID JUMPDEST SWAP1 PUSH1 0x0 MSTORE PUSH1 0x20 PUSH1 0x0 KECCAK256 ADD SLOAD SWAP1 POP PUSH32 0x0 PUSH20 0xFFFFFFFFFFFFFFFFFFFFFFFFFFFFFFFFFFFFFFFF AND PUSH4 0xCC63604A DUP3 PUSH1 0x40 MLOAD DUP3 PUSH4 0xFFFFFFFF AND PUSH1 0xE0 SHL DUP2 MSTORE PUSH1 0x4 ADD PUSH2 0x1B9 SWAP2 SWAP1 PUSH2 0xDFD JUMP JUMPDEST PUSH1 0x20 PUSH1 0x40 MLOAD DUP1 DUP4 SUB DUP2 DUP7 DUP1 EXTCODESIZE ISZERO DUP1 ISZERO PUSH2 0x1D1 JUMPI PUSH1 0x0 DUP1 REVERT JUMPDEST POP GAS STATICCALL ISZERO DUP1 ISZERO PUSH2 0x1E5 JUMPI RETURNDATASIZE PUSH1 0x0 DUP1 RETURNDATACOPY RETURNDATASIZE PUSH1 0x0 REVERT JUMPDEST POP POP POP POP PUSH1 0x40 MLOAD RETURNDATASIZE PUSH1 0x1F NOT PUSH1 0x1F DUP3 ADD AND DUP3 ADD DUP1 PUSH1 0x40 MSTORE POP DUP2 ADD SWAP1 PUSH2 0x209 SWAP2 SWAP1 PUSH2 0xBEB JUMP JUMPDEST ISZERO PUSH2 0x2F6 JUMPI PUSH1 0x40 MLOAD PUSH32 0xFE0D94C100000000000000000000000000000000000000000000000000000000 DUP2 MSTORE PUSH20 0xFFFFFFFFFFFFFFFFFFFFFFFFFFFFFFFFFFFFFFFF PUSH32 0x0 AND SWAP1 PUSH4 0xFE0D94C1 SWAP1 PUSH2 0x280 SWAP1 DUP5 SWAP1 PUSH1 0x4 ADD PUSH2 0xDFD JUMP JUMPDEST PUSH1 0x0 PUSH1 0x40 MLOAD DUP1 DUP4 SUB DUP2 PUSH1 0x0 DUP8 DUP1 EXTCODESIZE ISZERO DUP1 ISZERO PUSH2 0x29A JUMPI PUSH1 0x0 DUP1 REVERT JUMPDEST POP GAS CALL ISZERO DUP1 ISZERO PUSH2 0x2AE JUMPI RETURNDATASIZE PUSH1 0x0 DUP1 RETURNDATACOPY RETURNDATASIZE PUSH1 0x0 REVERT JUMPDEST POP POP POP POP PUSH1 0x40 MLOAD RETURNDATASIZE PUSH1 0x0 DUP3 RETURNDATACOPY PUSH1 0x1F RETURNDATASIZE SWAP1 DUP2 ADD PUSH32 0xFFFFFFFFFFFFFFFFFFFFFFFFFFFFFFFFFFFFFFFFFFFFFFFFFFFFFFFFFFFFFFE0 AND DUP3 ADD PUSH1 0x40 MSTORE PUSH2 0x2F4 SWAP2 SWAP1 DUP2 ADD SWAP1 PUSH2 0xC23 JUMP JUMPDEST POP JUMPDEST POP PUSH1 0x1 ADD PUSH2 0x13C JUMP JUMPDEST POP POP JUMP JUMPDEST PUSH32 0x0 DUP2 JUMP JUMPDEST PUSH1 0x2 SLOAD PUSH1 0xFF AND ISZERO PUSH2 0x364 JUMPI PUSH1 0x40 MLOAD PUSH32 0x8C379A000000000000000000000000000000000000000000000000000000000 DUP2 MSTORE PUSH1 0x4 ADD PUSH2 0x12D SWAP1 PUSH2 0xF07 JUMP JUMPDEST PUSH1 0x2 DUP1 SLOAD PUSH32 0xFFFFFFFFFFFFFFFFFFFFFFFFFFFFFFFFFFFFFFFFFFFFFFFFFFFFFFFFFFFFFF00 AND PUSH1 0x1 OR SWAP1 SSTORE PUSH1 0x0 SLOAD PUSH1 0x60 PUSH2 0x39D ADDRESS PUSH2 0xAE0 JUMP JUMPDEST SWAP1 POP PUSH1 0x0 JUMPDEST DUP3 DUP2 LT ISZERO PUSH2 0x885 JUMPI PUSH2 0x3B2 PUSH2 0xB90 JUMP JUMPDEST PUSH1 0x0 DUP3 DUP2 SLOAD DUP2 LT PUSH2 0x3BF JUMPI INVALID JUMPDEST PUSH1 0x0 SWAP2 DUP3 MSTORE PUSH1 0x20 SWAP2 DUP3 SWAP1 KECCAK256 PUSH1 0x40 DUP1 MLOAD PUSH1 0x60 DUP2 ADD DUP3 MSTORE PUSH1 0x3 SWAP1 SWAP4 MUL SWAP1 SWAP2 ADD DUP1 SLOAD PUSH20 0xFFFFFFFFFFFFFFFFFFFFFFFFFFFFFFFFFFFFFFFF SWAP1 DUP2 AND DUP1 DUP6 MSTORE PUSH1 0x1 DUP4 ADD SLOAD SWAP6 DUP6 ADD DUP7 SWAP1 MSTORE PUSH1 0x2 SWAP1 SWAP3 ADD SLOAD DUP2 AND DUP5 DUP5 ADD DUP2 SWAP1 MSTORE SWAP3 MLOAD PUSH32 0x9BE2A88400000000000000000000000000000000000000000000000000000000 DUP2 MSTORE SWAP4 SWAP6 POP PUSH32 0x0 AND SWAP4 PUSH4 0x9BE2A884 SWAP4 PUSH2 0x473 SWAP4 SWAP2 SWAP3 SWAP2 SWAP1 PUSH1 0x4 ADD PUSH2 0xE06 JUMP JUMPDEST PUSH1 0x20 PUSH1 0x40 MLOAD DUP1 DUP4 SUB DUP2 DUP7 DUP1 EXTCODESIZE ISZERO DUP1 ISZERO PUSH2 0x48B JUMPI PUSH1 0x0 DUP1 REVERT JUMPDEST POP GAS STATICCALL ISZERO DUP1 ISZERO PUSH2 0x49F JUMPI RETURNDATASIZE PUSH1 0x0 DUP1 RETURNDATACOPY RETURNDATASIZE PUSH1 0x0 REVERT JUMPDEST POP POP POP POP PUSH1 0x40 MLOAD RETURNDATASIZE PUSH1 0x1F NOT PUSH1 0x1F DUP3 ADD AND DUP3 ADD DUP1 PUSH1 0x40 MSTORE POP DUP2 ADD SWAP1 PUSH2 0x4C3 SWAP2 SWAP1 PUSH2 0xBEB JUMP JUMPDEST ISZERO PUSH2 0x814 JUMPI PUSH1 0x20 DUP2 ADD MLOAD PUSH1 0x40 MLOAD PUSH32 0x151B89D100000000000000000000000000000000000000000000000000000000 DUP2 MSTORE PUSH1 0x0 SWAP2 PUSH20 0xFFFFFFFFFFFFFFFFFFFFFFFFFFFFFFFFFFFFFFFF PUSH32 0x0 AND SWAP2 PUSH4 0x151B89D1 SWAP2 PUSH2 0x540 SWAP2 PUSH1 0x4 ADD PUSH2 0xDFD JUMP JUMPDEST PUSH1 0x20 PUSH1 0x40 MLOAD DUP1 DUP4 SUB DUP2 DUP7 DUP1 EXTCODESIZE ISZERO DUP1 ISZERO PUSH2 0x558 JUMPI PUSH1 0x0 DUP1 REVERT JUMPDEST POP GAS STATICCALL ISZERO DUP1 ISZERO PUSH2 0x56C JUMPI RETURNDATASIZE PUSH1 0x0 DUP1 RETURNDATACOPY RETURNDATASIZE PUSH1 0x0 REVERT JUMPDEST POP POP POP POP PUSH1 0x40 MLOAD RETURNDATASIZE PUSH1 0x1F NOT PUSH1 0x1F DUP3 ADD AND DUP3 ADD DUP1 PUSH1 0x40 MSTORE POP DUP2 ADD SWAP1 PUSH2 0x590 SWAP2 SWAP1 PUSH2 0xC0B JUMP JUMPDEST PUSH1 0x40 MLOAD PUSH32 0x3BF4679700000000000000000000000000000000000000000000000000000000 DUP2 MSTORE SWAP1 SWAP2 POP PUSH20 0xFFFFFFFFFFFFFFFFFFFFFFFFFFFFFFFFFFFFFFFF PUSH32 0x0 AND SWAP1 PUSH4 0x3BF46797 SWAP1 PUSH2 0x605 SWAP1 DUP5 SWAP1 PUSH1 0x4 ADD PUSH2 0xDFD JUMP JUMPDEST PUSH1 0x20 PUSH1 0x40 MLOAD DUP1 DUP4 SUB DUP2 DUP7 DUP1 EXTCODESIZE ISZERO DUP1 ISZERO PUSH2 0x61D JUMPI PUSH1 0x0 DUP1 REVERT JUMPDEST POP GAS STATICCALL ISZERO DUP1 ISZERO PUSH2 0x631 JUMPI RETURNDATASIZE PUSH1 0x0 DUP1 RETURNDATACOPY RETURNDATASIZE PUSH1 0x0 REVERT JUMPDEST POP POP POP POP PUSH1 0x40 MLOAD RETURNDATASIZE PUSH1 0x1F NOT PUSH1 0x1F DUP3 ADD AND DUP3 ADD DUP1 PUSH1 0x40 MSTORE POP DUP2 ADD SWAP1 PUSH2 0x655 SWAP2 SWAP1 PUSH2 0xC0B JUMP JUMPDEST PUSH2 0x707 JUMPI PUSH32 0x0 PUSH20 0xFFFFFFFFFFFFFFFFFFFFFFFFFFFFFFFFFFFFFFFF AND PUSH4 0x6F8BC596 PUSH2 0x6A2 DUP5 PUSH1 0x20 ADD MLOAD PUSH2 0xB4F JUMP JUMPDEST DUP5 MLOAD PUSH1 0x40 DUP7 ADD MLOAD PUSH2 0x6B2 SWAP1 PUSH2 0xAE0 JUMP JUMPDEST PUSH1 0x40 MLOAD DUP5 PUSH4 0xFFFFFFFF AND PUSH1 0xE0 SHL DUP2 MSTORE PUSH1 0x4 ADD PUSH2 0x6D0 SWAP4 SWAP3 SWAP2 SWAP1 PUSH2 0xD94 JUMP JUMPDEST PUSH1 0x0 PUSH1 0x40 MLOAD DUP1 DUP4 SUB DUP2 PUSH1 0x0 DUP8 DUP1 EXTCODESIZE ISZERO DUP1 ISZERO PUSH2 0x6EA JUMPI PUSH1 0x0 DUP1 REVERT JUMPDEST POP GAS CALL ISZERO DUP1 ISZERO PUSH2 0x6FE JUMPI RETURNDATASIZE PUSH1 0x0 DUP1 RETURNDATACOPY RETURNDATASIZE PUSH1 0x0 REVERT JUMPDEST POP POP POP POP PUSH2 0x80E JUMP JUMPDEST PUSH1 0x20 DUP3 ADD MLOAD DUP3 MLOAD PUSH1 0x40 DUP1 DUP6 ADD MLOAD SWAP1 MLOAD PUSH32 0x863BAC6B00000000000000000000000000000000000000000000000000000000 DUP2 MSTORE PUSH1 0x0 SWAP4 PUSH20 0xFFFFFFFFFFFFFFFFFFFFFFFFFFFFFFFFFFFFFFFF PUSH32 0x0 AND SWAP4 PUSH4 0x863BAC6B SWAP4 PUSH2 0x788 SWAP4 DUP12 SWAP1 PUSH1 0x4 ADD PUSH2 0xE32 JUMP JUMPDEST PUSH1 0x20 PUSH1 0x40 MLOAD DUP1 DUP4 SUB DUP2 PUSH1 0x0 DUP8 DUP1 EXTCODESIZE ISZERO DUP1 ISZERO PUSH2 0x7A2 JUMPI PUSH1 0x0 DUP1 REVERT JUMPDEST POP GAS CALL ISZERO DUP1 ISZERO PUSH2 0x7B6 JUMPI RETURNDATASIZE PUSH1 0x0 DUP1 RETURNDATACOPY RETURNDATASIZE PUSH1 0x0 REVERT JUMPDEST POP POP POP POP PUSH1 0x40 MLOAD RETURNDATASIZE PUSH1 0x1F NOT PUSH1 0x1F DUP3 ADD AND DUP3 ADD DUP1 PUSH1 0x40 MSTORE POP DUP2 ADD SWAP1 PUSH2 0x7DA SWAP2 SWAP1 PUSH2 0xC0B JUMP JUMPDEST PUSH1 0x1 DUP1 SLOAD DUP1 DUP3 ADD DUP3 SSTORE PUSH1 0x0 SWAP2 SWAP1 SWAP2 MSTORE PUSH32 0xB10E2D527612073B26EECDFD717E6A320CF44B4AFAC2B0732D9FCBE2B7FA0CF6 ADD SSTORE POP JUMPDEST POP PUSH2 0x87C JUMP JUMPDEST DUP1 PUSH1 0x40 ADD MLOAD PUSH20 0xFFFFFFFFFFFFFFFFFFFFFFFFFFFFFFFFFFFFFFFF AND DUP2 PUSH1 0x0 ADD MLOAD PUSH20 0xFFFFFFFFFFFFFFFFFFFFFFFFFFFFFFFFFFFFFFFF AND DUP3 PUSH1 0x20 ADD MLOAD PUSH32 0xBEF2BEC3F1473FA86E851888846FE82A6337EF167EE9529955A2C8FF97D88BB7 PUSH1 0x40 MLOAD PUSH1 0x40 MLOAD DUP1 SWAP2 SUB SWAP1 LOG4 JUMPDEST POP PUSH1 0x1 ADD PUSH2 0x3A2 JUMP JUMPDEST POP PUSH32 0x0 PUSH20 0xFFFFFFFFFFFFFFFFFFFFFFFFFFFFFFFFFFFFFFFF AND PUSH4 0x78A08377 PUSH32 0x0 PUSH20 0xFFFFFFFFFFFFFFFFFFFFFFFFFFFFFFFFFFFFFFFF AND PUSH4 0xFC78A228 PUSH1 0x40 MLOAD DUP2 PUSH4 0xFFFFFFFF AND PUSH1 0xE0 SHL DUP2 MSTORE PUSH1 0x4 ADD PUSH1 0x20 PUSH1 0x40 MLOAD DUP1 DUP4 SUB DUP2 DUP7 DUP1 EXTCODESIZE ISZERO DUP1 ISZERO PUSH2 0x928 JUMPI PUSH1 0x0 DUP1 REVERT JUMPDEST POP GAS STATICCALL ISZERO DUP1 ISZERO PUSH2 0x93C JUMPI RETURNDATASIZE PUSH1 0x0 DUP1 RETURNDATACOPY RETURNDATASIZE PUSH1 0x0 REVERT JUMPDEST POP POP POP POP PUSH1 0x40 MLOAD RETURNDATASIZE PUSH1 0x1F NOT PUSH1 0x1F DUP3 ADD AND DUP3 ADD DUP1 PUSH1 0x40 MSTORE POP DUP2 ADD SWAP1 PUSH2 0x960 SWAP2 SWAP1 PUSH2 0xC0B JUMP JUMPDEST ADDRESS PUSH32 0x0 PUSH20 0xFFFFFFFFFFFFFFFFFFFFFFFFFFFFFFFFFFFFFFFF AND PUSH4 0x62CDE1BA PUSH1 0x40 MLOAD DUP2 PUSH4 0xFFFFFFFF AND PUSH1 0xE0 SHL DUP2 MSTORE PUSH1 0x4 ADD PUSH1 0x20 PUSH1 0x40 MLOAD DUP1 DUP4 SUB DUP2 DUP7 DUP1 EXTCODESIZE ISZERO DUP1 ISZERO PUSH2 0x9C7 JUMPI PUSH1 0x0 DUP1 REVERT JUMPDEST POP GAS STATICCALL ISZERO DUP1 ISZERO PUSH2 0x9DB JUMPI RETURNDATASIZE PUSH1 0x0 DUP1 RETURNDATACOPY RETURNDATASIZE PUSH1 0x0 REVERT JUMPDEST POP POP POP POP PUSH1 0x40 MLOAD RETURNDATASIZE PUSH1 0x1F NOT PUSH1 0x1F DUP3 ADD AND DUP3 ADD DUP1 PUSH1 0x40 MSTORE POP DUP2 ADD SWAP1 PUSH2 0x9FF SWAP2 SWAP1 PUSH2 0xBB0 JUMP JUMPDEST PUSH1 0x0 PUSH1 0x40 MLOAD DUP6 PUSH4 0xFFFFFFFF AND PUSH1 0xE0 SHL DUP2 MSTORE PUSH1 0x4 ADD PUSH2 0xA20 SWAP5 SWAP4 SWAP3 SWAP2 SWAP1 PUSH2 0xE7B JUMP JUMPDEST PUSH1 0x0 PUSH1 0x40 MLOAD DUP1 DUP4 SUB DUP2 PUSH1 0x0 DUP8 DUP1 EXTCODESIZE ISZERO DUP1 ISZERO PUSH2 0xA3A JUMPI PUSH1 0x0 DUP1 REVERT JUMPDEST POP GAS CALL ISZERO DUP1 ISZERO PUSH2 0xA4E JUMPI RETURNDATASIZE PUSH1 0x0 DUP1 RETURNDATACOPY RETURNDATASIZE PUSH1 0x0 REVERT JUMPDEST POP POP POP POP POP POP JUMP JUMPDEST PUSH1 0x0 DUP2 DUP2 SLOAD DUP2 LT PUSH2 0xA63 JUMPI INVALID JUMPDEST PUSH1 0x0 SWAP2 DUP3 MSTORE PUSH1 0x20 SWAP1 SWAP2 KECCAK256 PUSH1 0x3 SWAP1 SWAP2 MUL ADD DUP1 SLOAD PUSH1 0x1 DUP3 ADD SLOAD PUSH1 0x2 SWAP1 SWAP3 ADD SLOAD PUSH20 0xFFFFFFFFFFFFFFFFFFFFFFFFFFFFFFFFFFFFFFFF SWAP2 DUP3 AND SWAP4 POP AND DUP4 JUMP JUMPDEST PUSH32 0x0 DUP2 JUMP JUMPDEST PUSH1 0x1 DUP2 DUP2 SLOAD DUP2 LT PUSH2 0xACF JUMPI INVALID JUMPDEST PUSH1 0x0 SWAP2 DUP3 MSTORE PUSH1 0x20 SWAP1 SWAP2 KECCAK256 ADD SLOAD SWAP1 POP DUP2 JUMP JUMPDEST PUSH1 0x40 DUP1 MLOAD PUSH1 0x1 DUP1 DUP3 MSTORE DUP2 DUP4 ADD SWAP1 SWAP3 MSTORE PUSH1 0x60 SWAP2 PUSH1 0x20 DUP1 DUP4 ADD SWAP1 DUP1 CALLDATASIZE DUP4 CALLDATACOPY ADD SWAP1 POP POP SWAP1 POP DUP2 DUP2 PUSH1 0x0 DUP2 MLOAD DUP2 LT PUSH2 0xB10 JUMPI INVALID JUMPDEST PUSH1 0x20 MUL PUSH1 0x20 ADD ADD SWAP1 PUSH20 0xFFFFFFFFFFFFFFFFFFFFFFFFFFFFFFFFFFFFFFFF AND SWAP1 DUP2 PUSH20 0xFFFFFFFFFFFFFFFFFFFFFFFFFFFFFFFFFFFFFFFF AND DUP2 MSTORE POP POP SWAP2 SWAP1 POP JUMP JUMPDEST PUSH1 0x40 DUP1 MLOAD PUSH1 0x1 DUP1 DUP3 MSTORE DUP2 DUP4 ADD SWAP1 SWAP3 MSTORE PUSH1 0x60 SWAP2 PUSH1 0x20 DUP1 DUP4 ADD SWAP1 DUP1 CALLDATASIZE DUP4 CALLDATACOPY ADD SWAP1 POP POP SWAP1 POP DUP2 DUP2 PUSH1 0x0 DUP2 MLOAD DUP2 LT PUSH2 0xB7F JUMPI INVALID JUMPDEST PUSH1 0x20 MUL PUSH1 0x20 ADD ADD DUP2 DUP2 MSTORE POP POP SWAP2 SWAP1 POP JUMP JUMPDEST PUSH1 0x40 DUP1 MLOAD PUSH1 0x60 DUP2 ADD DUP3 MSTORE PUSH1 0x0 DUP1 DUP3 MSTORE PUSH1 0x20 DUP3 ADD DUP2 SWAP1 MSTORE SWAP2 DUP2 ADD SWAP2 SWAP1 SWAP2 MSTORE SWAP1 JUMP JUMPDEST PUSH1 0x0 PUSH1 0x20 DUP3 DUP5 SUB SLT ISZERO PUSH2 0xBC1 JUMPI DUP1 DUP2 REVERT JUMPDEST DUP2 MLOAD PUSH20 0xFFFFFFFFFFFFFFFFFFFFFFFFFFFFFFFFFFFFFFFF DUP2 AND DUP2 EQ PUSH2 0xBE4 JUMPI DUP2 DUP3 REVERT JUMPDEST SWAP4 SWAP3 POP POP POP JUMP JUMPDEST PUSH1 0x0 PUSH1 0x20 DUP3 DUP5 SUB SLT ISZERO PUSH2 0xBFC JUMPI DUP1 DUP2 REVERT JUMPDEST DUP2 MLOAD DUP1 ISZERO ISZERO DUP2 EQ PUSH2 0xBE4 JUMPI DUP2 DUP3 REVERT JUMPDEST PUSH1 0x0 PUSH1 0x20 DUP3 DUP5 SUB SLT ISZERO PUSH2 0xC1C JUMPI DUP1 DUP2 REVERT JUMPDEST POP MLOAD SWAP2 SWAP1 POP JUMP JUMPDEST PUSH1 0x0 PUSH1 0x20 DUP1 DUP4 DUP6 SUB SLT ISZERO PUSH2 0xC35 JUMPI DUP2 DUP3 REVERT JUMPDEST DUP3 MLOAD PUSH8 0xFFFFFFFFFFFFFFFF DUP1 DUP3 GT ISZERO PUSH2 0xC4C JUMPI DUP4 DUP5 REVERT JUMPDEST DUP2 DUP6 ADD SWAP2 POP DUP6 PUSH1 0x1F DUP4 ADD SLT PUSH2 0xC5F JUMPI DUP4 DUP5 REVERT JUMPDEST DUP2 MLOAD DUP2 DUP2 GT ISZERO PUSH2 0xC6D JUMPI DUP5 DUP6 REVERT JUMPDEST PUSH1 0x40 MLOAD DUP5 PUSH32 0xFFFFFFFFFFFFFFFFFFFFFFFFFFFFFFFFFFFFFFFFFFFFFFFFFFFFFFFFFFFFFFE0 PUSH1 0x1F DUP5 ADD AND DUP3 ADD ADD DUP2 DUP2 LT DUP5 DUP3 GT OR ISZERO PUSH2 0xCAA JUMPI DUP7 DUP8 REVERT JUMPDEST PUSH1 0x40 MSTORE DUP2 DUP2 MSTORE DUP4 DUP3 ADD DUP6 ADD DUP9 LT ISZERO PUSH2 0xCC0 JUMPI DUP6 DUP7 REVERT JUMPDEST DUP6 SWAP3 POP JUMPDEST DUP2 DUP4 LT ISZERO PUSH2 0xCE1 JUMPI DUP4 DUP4 ADD DUP6 ADD MLOAD DUP2 DUP5 ADD DUP7 ADD MSTORE SWAP2 DUP5 ADD SWAP2 PUSH2 0xCC4 JUMP JUMPDEST DUP2 DUP4 GT ISZERO PUSH2 0xCF1 JUMPI DUP6 DUP6 DUP4 DUP4 ADD ADD MSTORE JUMPDEST SWAP8 SWAP7 POP POP POP POP POP POP POP JUMP JUMPDEST PUSH1 0x0 PUSH1 0x20 DUP3 DUP5 SUB SLT ISZERO PUSH2 0xD0D JUMPI DUP1 DUP2 REVERT JUMPDEST POP CALLDATALOAD SWAP2 SWAP1 POP JUMP JUMPDEST PUSH1 0x0 DUP2 MLOAD DUP1 DUP5 MSTORE PUSH1 0x20 DUP1 DUP6 ADD SWAP5 POP DUP1 DUP5 ADD DUP4 JUMPDEST DUP4 DUP2 LT ISZERO PUSH2 0xD59 JUMPI DUP2 MLOAD PUSH20 0xFFFFFFFFFFFFFFFFFFFFFFFFFFFFFFFFFFFFFFFF AND DUP8 MSTORE SWAP6 DUP3 ADD SWAP6 SWAP1 DUP3 ADD SWAP1 PUSH1 0x1 ADD PUSH2 0xD27 JUMP JUMPDEST POP SWAP5 SWAP6 SWAP5 POP POP POP POP POP JUMP JUMPDEST PUSH20 0xFFFFFFFFFFFFFFFFFFFFFFFFFFFFFFFFFFFFFFFF SWAP4 DUP5 AND DUP2 MSTORE PUSH1 0x20 DUP2 ADD SWAP3 SWAP1 SWAP3 MSTORE SWAP1 SWAP2 AND PUSH1 0x40 DUP3 ADD MSTORE PUSH1 0x60 ADD SWAP1 JUMP JUMPDEST PUSH1 0x60 DUP1 DUP3 MSTORE DUP5 MLOAD SWAP1 DUP3 ADD DUP2 SWAP1 MSTORE PUSH1 0x0 SWAP1 PUSH1 0x20 SWAP1 PUSH1 0x80 DUP5 ADD SWAP1 DUP3 DUP9 ADD DUP5 JUMPDEST DUP3 DUP2 LT ISZERO PUSH2 0xDCD JUMPI DUP2 MLOAD DUP5 MSTORE SWAP3 DUP5 ADD SWAP3 SWAP1 DUP5 ADD SWAP1 PUSH1 0x1 ADD PUSH2 0xDB1 JUMP JUMPDEST POP POP POP PUSH20 0xFFFFFFFFFFFFFFFFFFFFFFFFFFFFFFFFFFFFFFFF DUP7 AND DUP3 DUP6 ADD MSTORE DUP4 DUP2 SUB PUSH1 0x40 DUP6 ADD MSTORE PUSH2 0xCF1 DUP2 DUP7 PUSH2 0xD14 JUMP JUMPDEST SWAP1 DUP2 MSTORE PUSH1 0x20 ADD SWAP1 JUMP JUMPDEST SWAP3 DUP4 MSTORE PUSH20 0xFFFFFFFFFFFFFFFFFFFFFFFFFFFFFFFFFFFFFFFF SWAP2 DUP3 AND PUSH1 0x20 DUP5 ADD MSTORE AND PUSH1 0x40 DUP3 ADD MSTORE PUSH1 0x60 ADD SWAP1 JUMP JUMPDEST PUSH1 0x0 DUP6 DUP3 MSTORE PUSH20 0xFFFFFFFFFFFFFFFFFFFFFFFFFFFFFFFFFFFFFFFF DUP1 DUP7 AND PUSH1 0x20 DUP5 ADD MSTORE DUP1 DUP6 AND PUSH1 0x40 DUP5 ADD MSTORE POP PUSH1 0x80 PUSH1 0x60 DUP4 ADD MSTORE PUSH2 0xE71 PUSH1 0x80 DUP4 ADD DUP5 PUSH2 0xD14 JUMP JUMPDEST SWAP7 SWAP6 POP POP POP POP POP POP JUMP JUMPDEST SWAP4 DUP5 MSTORE PUSH20 0xFFFFFFFFFFFFFFFFFFFFFFFFFFFFFFFFFFFFFFFF SWAP3 DUP4 AND PUSH1 0x20 DUP6 ADD MSTORE SWAP2 AND PUSH1 0x40 DUP4 ADD MSTORE ISZERO ISZERO PUSH1 0x60 DUP3 ADD MSTORE PUSH1 0x80 ADD SWAP1 JUMP JUMPDEST PUSH20 0xFFFFFFFFFFFFFFFFFFFFFFFFFFFFFFFFFFFFFFFF SWAP2 SWAP1 SWAP2 AND DUP2 MSTORE PUSH1 0x20 ADD SWAP1 JUMP JUMPDEST PUSH1 0x20 DUP1 DUP3 MSTORE PUSH1 0x14 SWAP1 DUP3 ADD MSTORE PUSH32 0x4D4947524154494F4E5F494E434F4D504C455445000000000000000000000000 PUSH1 0x40 DUP3 ADD MSTORE PUSH1 0x60 ADD SWAP1 JUMP JUMPDEST PUSH1 0x20 DUP1 DUP3 MSTORE PUSH1 0x10 SWAP1 DUP3 ADD MSTORE PUSH32 0x414C52454144595F4D4947524154454400000000000000000000000000000000 PUSH1 0x40 DUP3 ADD MSTORE PUSH1 0x60 ADD SWAP1 JUMP INVALID LOG2 PUSH5 0x6970667358 0x22 SLT KECCAK256 PUSH17 0xA6D3A35752C9F63D6919F39AFA5B7D010F 0xAE PUSH15 0x19B7D36A7A5892CF9C676EA864736F PUSH13 0x63430007010033000000000000 "},"methodIdentifiers":{"executeDelays()":"3c44172d","migratePermissions()":"86665822","oldAuthorizer()":"c6bfe9ae","rolesData(uint256)":"9c763195","scheduledExecutionIds(uint256)":"df829a6f","timelockAuthorizer()":"3d6b35b1"}}}}}