{
  "_format": "hh-sol-artifact-1",
  "contractName": "ProtocolFeePercentagesProvider",
  "sourceName": "contracts/ProtocolFeePercentagesProvider.sol",
  "abi": [
    {
      "inputs": [
        {
          "internalType": "contract IVault",
          "name": "vault",
          "type": "address"
        },
        {
          "internalType": "uint256",
          "name": "maxYieldValue",
          "type": "uint256"
        },
        {
          "internalType": "uint256",
          "name": "maxAUMValue",
          "type": "uint256"
        }
      ],
      "stateMutability": "nonpayable",
      "type": "constructor"
    },
    {
      "anonymous": false,
      "inputs": [
        {
          "indexed": true,
          "internalType": "uint256",
          "name": "feeType",
          "type": "uint256"
        },
        {
          "indexed": false,
          "internalType": "uint256",
          "name": "percentage",
          "type": "uint256"
        }
      ],
      "name": "ProtocolFeePercentageChanged",
      "type": "event"
    },
    {
      "anonymous": false,
      "inputs": [
        {
          "indexed": true,
          "internalType": "uint256",
          "name": "feeType",
          "type": "uint256"
        },
        {
          "indexed": false,
          "internalType": "string",
          "name": "name",
          "type": "string"
        },
        {
          "indexed": false,
          "internalType": "uint256",
          "name": "maximumPercentage",
          "type": "uint256"
        }
      ],
      "name": "ProtocolFeeTypeRegistered",
      "type": "event"
    },
    {
      "inputs": [
        {
          "internalType": "bytes4",
          "name": "selector",
          "type": "bytes4"
        }
      ],
      "name": "getActionId",
      "outputs": [
        {
          "internalType": "bytes32",
          "name": "",
          "type": "bytes32"
        }
      ],
      "stateMutability": "view",
      "type": "function"
    },
    {
      "inputs": [],
      "name": "getAuthorizer",
      "outputs": [
        {
          "internalType": "contract IAuthorizer",
          "name": "",
          "type": "address"
        }
      ],
      "stateMutability": "view",
      "type": "function"
    },
    {
      "inputs": [
        {
          "internalType": "uint256",
          "name": "feeType",
          "type": "uint256"
        }
      ],
      "name": "getFeeTypeMaximumPercentage",
      "outputs": [
        {
          "internalType": "uint256",
          "name": "",
          "type": "uint256"
        }
      ],
      "stateMutability": "view",
      "type": "function"
    },
    {
      "inputs": [
        {
          "internalType": "uint256",
          "name": "feeType",
          "type": "uint256"
        }
      ],
      "name": "getFeeTypeName",
      "outputs": [
        {
          "internalType": "string",
          "name": "",
          "type": "string"
        }
      ],
      "stateMutability": "view",
      "type": "function"
    },
    {
      "inputs": [
        {
          "internalType": "uint256",
          "name": "feeType",
          "type": "uint256"
        }
      ],
      "name": "getFeeTypePercentage",
      "outputs": [
        {
          "internalType": "uint256",
          "name": "",
          "type": "uint256"
        }
      ],
      "stateMutability": "view",
      "type": "function"
    },
    {
      "inputs": [],
      "name": "getVault",
      "outputs": [
        {
          "internalType": "contract IVault",
          "name": "",
          "type": "address"
        }
      ],
      "stateMutability": "view",
      "type": "function"
    },
    {
      "inputs": [
        {
          "internalType": "uint256",
          "name": "feeType",
          "type": "uint256"
        }
      ],
      "name": "isValidFeeType",
      "outputs": [
        {
          "internalType": "bool",
          "name": "",
          "type": "bool"
        }
      ],
      "stateMutability": "view",
      "type": "function"
    },
    {
      "inputs": [
        {
          "internalType": "uint256",
          "name": "feeType",
          "type": "uint256"
        },
        {
          "internalType": "uint256",
          "name": "value",
          "type": "uint256"
        }
      ],
      "name": "isValidFeeTypePercentage",
      "outputs": [
        {
          "internalType": "bool",
          "name": "",
          "type": "bool"
        }
      ],
      "stateMutability": "view",
      "type": "function"
    },
    {
      "inputs": [
        {
          "internalType": "uint256",
          "name": "feeType",
          "type": "uint256"
        },
        {
          "internalType": "string",
          "name": "name",
          "type": "string"
        },
        {
          "internalType": "uint256",
          "name": "maximumValue",
          "type": "uint256"
        },
        {
          "internalType": "uint256",
          "name": "initialValue",
          "type": "uint256"
        }
      ],
      "name": "registerFeeType",
      "outputs": [],
      "stateMutability": "nonpayable",
      "type": "function"
    },
    {
      "inputs": [
        {
          "internalType": "uint256",
          "name": "feeType",
          "type": "uint256"
        },
        {
          "internalType": "uint256",
          "name": "newValue",
          "type": "uint256"
        }
      ],
      "name": "setFeeTypePercentage",
      "outputs": [],
      "stateMutability": "nonpayable",
      "type": "function"
    }
  ],
  "bytecode": "0x60e06040523480156200001157600080fd5b50604051620018453803806200184583398101604081905262000034916200057d565b306080526001600160601b0319606084901b1660a0526040805163d2946c2b60e01b815290516000916001600160a01b0386169163d2946c2b91600480820192602092909190829003018186803b1580156200008f57600080fd5b505afa158015620000a4573d6000803e3d6000fd5b505050506040513d601f19601f82011682018060405250810190620000ca919062000557565b6001600160601b0319606082901b1660c052604080518082019091526005815264165a595b1960da1b60208201529091506200010c9060029085600062000277565b6200015760036040518060400160405280601781526020017f41737365747320556e646572204d616e6167656d656e740000000000000000008152508460006200027760201b60201c565b7fad3228b676f7d3cd4284a5443f17f1962b36e491b30a40b2405849e597ba5fb5805460ff60801b1916600160801b1790556040805180820190915260048152630537761760e41b6020828101918252600080805290529051620001dd917fad3228b676f7d3cd4284a5443f17f1962b36e491b30a40b2405849e597ba5fb691620004c5565b507fada5013122d395ba3c54772283fb069b10426056ef8ca54750cb9bb552a59e7d805460ff60801b1916600160801b17905560408051808201909152600a815269233630b9b4102637b0b760b11b602082810191825260016000908152905290516200026c917fada5013122d395ba3c54772283fb069b10426056ef8ca54750cb9bb552a59e7e91620004c5565b5050505050620006a4565b600082118015620002905750670de0b6b3a76400008211155b620002b85760405162461bcd60e51b8152600401620002af906200064b565b60405180910390fd5b81811115620002db5760405162461bcd60e51b8152600401620002af9062000614565b6040518060800160405280620002fc836200043f60201b620009031760201c565b6001600160401b0316815260200162000320846200043f60201b620009031760201c565b6001600160401b03908116825260016020808401829052604093840188905260008981528082528490208551815487840151968801511515600160801b0260ff60801b199787166801000000000000000002600160401b600160801b0319939097166001600160401b03199092169190911791909116949094179490941692909217835560608401518051620003bf93928501929190910190620004c5565b50905050837fe07086969b318280a21b104288d59a9c26c15ccdc203744dfe88e76b56810a768484604051620003f7929190620005b6565b60405180910390a2837f34cd0fbe9e7d58e0835610336eda810722864e47a9b1f5dc5c8f976c13c384d38260405162000431919062000682565b60405180910390a250505050565b6000620004596001600160401b038311156101ba6200045d565b5090565b816200046e576200046e8162000472565b5050565b62461bcd60e51b6000908152602060045260076024526642414c23000030600a808404818106603090810160081b95839006959095019082900491820690940160101b939093010160c81b604452606490fd5b828054600181600116156101000203166002900490600052602060002090601f016020900481019282601f106200050857805160ff191683800117855562000538565b8280016001018555821562000538579182015b82811115620005385782518255916020019190600101906200051b565b50620004599291505b8082111562000459576000815560010162000541565b60006020828403121562000569578081fd5b815162000576816200068b565b9392505050565b60008060006060848603121562000592578182fd5b83516200059f816200068b565b602085015160409095015190969495509392505050565b6000604082528351806040840152815b81811015620005e55760208187018101516060868401015201620005c6565b81811115620005f75782606083860101525b50602083019390935250601f91909101601f191601606001919050565b6020808252601a908201527f496e76616c696420696e697469616c2070657263656e74616765000000000000604082015260600190565b6020808252601e908201527f496e76616c6964206d6178696d756d206665652070657263656e746167650000604082015260600190565b90815260200190565b6001600160a01b0381168114620006a157600080fd5b50565b60805160a05160601c60c05160601c61115f620006e6600039806101fc52806102aa52806103fa52806104ac5250806107525250806106d9525061115f6000f3fe608060405234801561001057600080fd5b50600436106100be5760003560e01c8063851c1bb3116100765780638d928af81161005b5780638d928af81461016d578063aaabadc514610182578063b661eda11461018a576100be565b8063851c1bb314610147578063868897a01461015a576100be565b80635e2cae4c116100a75780635e2cae4c146101015780637268d6ce1461011457806374735e0b14610127576100be565b80631a7c3263146100c35780634d44f0e9146100ec575b600080fd5b6100d66100d1366004610dc6565b6101aa565b6040516100e39190610f8b565b60405180910390f35b6100ff6100fa366004610ec6565b610330565b005b6100d661010f366004610dc6565b61056d565b6100ff610122366004610df6565b610608565b61013a610135366004610ec6565b61067f565b6040516100e39190610f80565b6100d6610155366004610d52565b6106d5565b61013a610168366004610dc6565b610727565b610175610750565b6040516100e39190610fc0565b610175610774565b61019d610198366004610dc6565b610800565b6040516100e39190610fe1565b6000816101b681610727565b6101f5576040517f08c379a00000000000000000000000000000000000000000000000000000000081526004016101ec906110bb565b60405180910390fd5b8261029f577f000000000000000000000000000000000000000000000000000000000000000073ffffffffffffffffffffffffffffffffffffffff166355c676286040518163ffffffff1660e01b815260040160206040518083038186803b15801561026057600080fd5b505afa158015610274573d6000803e3d6000fd5b505050506040513d601f19601f820116820180604052508101906102989190610dde565b915061032a565b600183141561030e577f000000000000000000000000000000000000000000000000000000000000000073ffffffffffffffffffffffffffffffffffffffff1663d877845c6040518163ffffffff1660e01b815260040160206040518083038186803b15801561026057600080fd5b60008381526020819052604090205467ffffffffffffffff1691505b50919050565b8161033a81610727565b610370576040517f08c379a00000000000000000000000000000000000000000000000000000000081526004016101ec906110bb565b610378610920565b610382838361067f565b6103b8576040517f08c379a00000000000000000000000000000000000000000000000000000000081526004016101ec906110f2565b82610466576040517f38e9922e00000000000000000000000000000000000000000000000000000000815273ffffffffffffffffffffffffffffffffffffffff7f000000000000000000000000000000000000000000000000000000000000000016906338e9922e9061042f908590600401610f8b565b600060405180830381600087803b15801561044957600080fd5b505af115801561045d573d6000803e3d6000fd5b50505050610530565b60018314156104e1576040517f6b6b9f6900000000000000000000000000000000000000000000000000000000815273ffffffffffffffffffffffffffffffffffffffff7f00000000000000000000000000000000000000000000000000000000000000001690636b6b9f699061042f908590600401610f8b565b6104ea82610903565b600084815260208190526040902080547fffffffffffffffffffffffffffffffffffffffffffffffff00000000000000001667ffffffffffffffff929092169190911790555b827f34cd0fbe9e7d58e0835610336eda810722864e47a9b1f5dc5c8f976c13c384d3836040516105609190610f8b565b60405180910390a2505050565b60008161057981610727565b6105af576040517f08c379a00000000000000000000000000000000000000000000000000000000081526004016101ec906110bb565b826105c4576706f05b59d3b20000915061032a565b60018314156105dc57662386f26fc10000915061032a565b60008381526020819052604090205468010000000000000000900467ffffffffffffffff16915061032a565b610610610920565b600084815260208190526040902054700100000000000000000000000000000000900460ff161561066d576040517f08c379a00000000000000000000000000000000000000000000000000000000081526004016101ec9061104d565b61067984848484610969565b50505050565b60008261068b81610727565b6106c1576040517f08c379a00000000000000000000000000000000000000000000000000000000081526004016101ec906110bb565b6106ca8461056d565b909211159392505050565b60007f00000000000000000000000000000000000000000000000000000000000000008260405160200161070a929190610f50565b604051602081830303815290604052805190602001209050919050565b600090815260208190526040902054700100000000000000000000000000000000900460ff1690565b7f000000000000000000000000000000000000000000000000000000000000000090565b600061077e610750565b73ffffffffffffffffffffffffffffffffffffffff1663aaabadc56040518163ffffffff1660e01b815260040160206040518083038186803b1580156107c357600080fd5b505afa1580156107d7573d6000803e3d6000fd5b505050506040513d601f19601f820116820180604052508101906107fb9190610d92565b905090565b60608161080c81610727565b610842576040517f08c379a00000000000000000000000000000000000000000000000000000000081526004016101ec906110bb565b60008381526020818152604091829020600190810180548451600293821615610100027fffffffffffffffffffffffffffffffffffffffffffffffffffffffffffffffff0190911692909204601f8101849004840283018401909452838252909290918301828280156108f65780601f106108cb576101008083540402835291602001916108f6565b820191906000526020600020905b8154815290600101906020018083116108d957829003601f168201915b5050505050915050919050565b600061091c67ffffffffffffffff8311156101ba610b8c565b5090565b600061094f6000357fffffffff00000000000000000000000000000000000000000000000000000000166106d5565b905061096661095e8233610b9e565b610191610b8c565b50565b6000821180156109815750670de0b6b3a76400008211155b6109b7576040517f08c379a00000000000000000000000000000000000000000000000000000000081526004016101ec90611084565b818111156109f1576040517f08c379a00000000000000000000000000000000000000000000000000000000081526004016101ec90611016565b6040518060800160405280610a0583610903565b67ffffffffffffffff168152602001610a1d84610903565b67ffffffffffffffff908116825260016020808401829052604093840188905260008981528082528490208551815487840151968801511515700100000000000000000000000000000000027fffffffffffffffffffffffffffffff00ffffffffffffffffffffffffffffffff97871668010000000000000000027fffffffffffffffffffffffffffffffff0000000000000000ffffffffffffffff939097167fffffffffffffffffffffffffffffffffffffffffffffffff00000000000000009092169190911791909116949094179490941692909217835560608401518051610b1093928501929190910190610ca8565b50905050837fe07086969b318280a21b104288d59a9c26c15ccdc203744dfe88e76b56810a768484604051610b46929190610ff4565b60405180910390a2837f34cd0fbe9e7d58e0835610336eda810722864e47a9b1f5dc5c8f976c13c384d382604051610b7e9190610f8b565b60405180910390a250505050565b81610b9a57610b9a81610c3b565b5050565b6000610ba8610774565b73ffffffffffffffffffffffffffffffffffffffff16639be2a8848484306040518463ffffffff1660e01b8152600401610be493929190610f94565b60206040518083038186803b158015610bfc57600080fd5b505afa158015610c10573d6000803e3d6000fd5b505050506040513d601f19601f82011682018060405250810190610c349190610d32565b9392505050565b7f08c379a0000000000000000000000000000000000000000000000000000000006000908152602060045260076024526642414c23000030600a808404818106603090810160081b95839006959095019082900491820690940160101b939093010160c81b604452606490fd5b828054600181600116156101000203166002900490600052602060002090601f016020900481019282601f10610ce957805160ff1916838001178555610d16565b82800160010185558215610d16579182015b82811115610d16578251825591602001919060010190610cfb565b5061091c9291505b8082111561091c5760008155600101610d1e565b600060208284031215610d43578081fd5b81518015158114610c34578182fd5b600060208284031215610d63578081fd5b81357fffffffff0000000000000000000000000000000000000000000000000000000081168114610c34578182fd5b600060208284031215610da3578081fd5b815173ffffffffffffffffffffffffffffffffffffffff81168114610c34578182fd5b600060208284031215610dd7578081fd5b5035919050565b600060208284031215610def578081fd5b5051919050565b60008060008060808587031215610e0b578283fd5b8435935060208086013567ffffffffffffffff80821115610e2a578586fd5b818801915088601f830112610e3d578586fd5b813581811115610e4b578687fd5b604051847fffffffffffffffffffffffffffffffffffffffffffffffffffffffffffffffe0601f8401168201018181108482111715610e88578889fd5b60405281815283820185018b1015610e9e578788fd5b8185850186830137908101909301959095525093969395505050506040820135916060013590565b60008060408385031215610ed8578182fd5b50508035926020909101359150565b60008151808452815b81811015610f0c57602081850181015186830182015201610ef0565b81811115610f1d5782602083870101525b50601f017fffffffffffffffffffffffffffffffffffffffffffffffffffffffffffffffe0169290920160200192915050565b9182527fffffffff0000000000000000000000000000000000000000000000000000000016602082015260240190565b901515815260200190565b90815260200190565b92835273ffffffffffffffffffffffffffffffffffffffff918216602084015216604082015260600190565b73ffffffffffffffffffffffffffffffffffffffff91909116815260200190565b600060208252610c346020830184610ee7565b6000604082526110076040830185610ee7565b90508260208301529392505050565b6020808252601a908201527f496e76616c696420696e697469616c2070657263656e74616765000000000000604082015260600190565b6020808252601b908201527f466565207479706520616c726561647920726567697374657265640000000000604082015260600190565b6020808252601e908201527f496e76616c6964206d6178696d756d206665652070657263656e746167650000604082015260600190565b60208082526015908201527f4e6f6e2d6578697374656e742066656520747970650000000000000000000000604082015260600190565b60208082526016908201527f496e76616c6964206665652070657263656e746167650000000000000000000060408201526060019056fea2646970667358221220d4a176c051c464be7919ab1d23118a88aeda536f331e1c75cf625c9f1b3ae71064736f6c63430007010033",
  "linkReferences": {},
  "deployedLinkReferences": {}
}