{
  "_format": "hh-sol-artifact-1",
  "contractName": "ManagedPoolFactory",
  "sourceName": "contracts/managed/ManagedPoolFactory.sol",
  "abi": [
    {
      "inputs": [
        {
          "internalType": "contract IVault",
          "name": "vault",
          "type": "address"
        },
        {
          "internalType": "contract IProtocolFeePercentagesProvider",
          "name": "protocolFeeProvider",
          "type": "address"
        },
        {
          "internalType": "string",
          "name": "factoryVersion",
          "type": "string"
        },
        {
          "internalType": "string",
          "name": "poolVersion",
          "type": "string"
        },
        {
          "internalType": "uint256",
          "name": "initialPauseWindowDuration",
          "type": "uint256"
        },
        {
          "internalType": "uint256",
          "name": "bufferPeriodDuration",
          "type": "uint256"
        }
      ],
      "stateMutability": "nonpayable",
      "type": "constructor"
    },
    {
      "anonymous": false,
      "inputs": [],
      "name": "FactoryDisabled",
      "type": "event"
    },
    {
      "anonymous": false,
      "inputs": [
        {
          "indexed": true,
          "internalType": "address",
          "name": "pool",
          "type": "address"
        }
      ],
      "name": "PoolCreated",
      "type": "event"
    },
    {
      "inputs": [
        {
          "components": [
            {
              "internalType": "string",
              "name": "name",
              "type": "string"
            },
            {
              "internalType": "string",
              "name": "symbol",
              "type": "string"
            },
            {
              "internalType": "address[]",
              "name": "assetManagers",
              "type": "address[]"
            }
          ],
          "internalType": "struct ManagedPool.ManagedPoolParams",
          "name": "params",
          "type": "tuple"
        },
        {
          "components": [
            {
              "internalType": "contract IERC20[]",
              "name": "tokens",
              "type": "address[]"
            },
            {
              "internalType": "uint256[]",
              "name": "normalizedWeights",
              "type": "uint256[]"
            },
            {
              "internalType": "uint256",
              "name": "swapFeePercentage",
              "type": "uint256"
            },
            {
              "internalType": "bool",
              "name": "swapEnabledOnStart",
              "type": "bool"
            },
            {
              "internalType": "bool",
              "name": "mustAllowlistLPs",
              "type": "bool"
            },
            {
              "internalType": "uint256",
              "name": "managementAumFeePercentage",
              "type": "uint256"
            },
            {
              "internalType": "uint256",
              "name": "aumFeeId",
              "type": "uint256"
            }
          ],
          "internalType": "struct ManagedPoolSettings.ManagedPoolSettingsParams",
          "name": "settingsParams",
          "type": "tuple"
        },
        {
          "internalType": "address",
          "name": "owner",
          "type": "address"
        },
        {
          "internalType": "bytes32",
          "name": "salt",
          "type": "bytes32"
        }
      ],
      "name": "create",
      "outputs": [
        {
          "internalType": "address",
          "name": "pool",
          "type": "address"
        }
      ],
      "stateMutability": "nonpayable",
      "type": "function"
    },
    {
      "inputs": [],
      "name": "disable",
      "outputs": [],
      "stateMutability": "nonpayable",
      "type": "function"
    },
    {
      "inputs": [
        {
          "internalType": "bytes4",
          "name": "selector",
          "type": "bytes4"
        }
      ],
      "name": "getActionId",
      "outputs": [
        {
          "internalType": "bytes32",
          "name": "",
          "type": "bytes32"
        }
      ],
      "stateMutability": "view",
      "type": "function"
    },
    {
      "inputs": [],
      "name": "getAuthorizer",
      "outputs": [
        {
          "internalType": "contract IAuthorizer",
          "name": "",
          "type": "address"
        }
      ],
      "stateMutability": "view",
      "type": "function"
    },
    {
      "inputs": [],
      "name": "getCreationCode",
      "outputs": [
        {
          "internalType": "bytes",
          "name": "",
          "type": "bytes"
        }
      ],
      "stateMutability": "view",
      "type": "function"
    },
    {
      "inputs": [],
      "name": "getCreationCodeContracts",
      "outputs": [
        {
          "internalType": "address",
          "name": "contractA",
          "type": "address"
        },
        {
          "internalType": "address",
          "name": "contractB",
          "type": "address"
        }
      ],
      "stateMutability": "view",
      "type": "function"
    },
    {
      "inputs": [],
      "name": "getPauseConfiguration",
      "outputs": [
        {
          "internalType": "uint256",
          "name": "pauseWindowDuration",
          "type": "uint256"
        },
        {
          "internalType": "uint256",
          "name": "bufferPeriodDuration",
          "type": "uint256"
        }
      ],
      "stateMutability": "view",
      "type": "function"
    },
    {
      "inputs": [],
      "name": "getPoolVersion",
      "outputs": [
        {
          "internalType": "string",
          "name": "",
          "type": "string"
        }
      ],
      "stateMutability": "view",
      "type": "function"
    },
    {
      "inputs": [],
      "name": "getProtocolFeePercentagesProvider",
      "outputs": [
        {
          "internalType": "contract IProtocolFeePercentagesProvider",
          "name": "",
          "type": "address"
        }
      ],
      "stateMutability": "view",
      "type": "function"
    },
    {
      "inputs": [],
      "name": "getRecoveryModeHelper",
      "outputs": [
        {
          "internalType": "contract IRecoveryModeHelper",
          "name": "",
          "type": "address"
        }
      ],
      "stateMutability": "view",
      "type": "function"
    },
    {
      "inputs": [],
      "name": "getVault",
      "outputs": [
        {
          "internalType": "contract IVault",
          "name": "",
          "type": "address"
        }
      ],
      "stateMutability": "view",
      "type": "function"
    },
    {
      "inputs": [],
      "name": "getWeightedMath",
      "outputs": [
        {
          "internalType": "contract IExternalWeightedMath",
          "name": "",
          "type": "address"
        }
      ],
      "stateMutability": "view",
      "type": "function"
    },
    {
      "inputs": [],
      "name": "isDisabled",
      "outputs": [
        {
          "internalType": "bool",
          "name": "",
          "type": "bool"
        }
      ],
      "stateMutability": "view",
      "type": "function"
    },
    {
      "inputs": [
        {
          "internalType": "address",
          "name": "pool",
          "type": "address"
        }
      ],
      "name": "isPoolFromFactory",
      "outputs": [
        {
          "internalType": "bool",
          "name": "",
          "type": "bool"
        }
      ],
      "stateMutability": "view",
      "type": "function"
    },
    {
      "inputs": [],
      "name": "version",
      "outputs": [
        {
          "internalType": "string",
          "name": "",
          "type": "string"
        }
      ],
      "stateMutability": "view",
      "type": "function"
    }
  ],
  "bytecode": "0x6102006040523480156200001257600080fd5b506040516200c96d3803806200c96d83398101604081905262000035916200044e565b85858383604051806020016200004b90620002e1565b601f1982820381018352601f9091011660405282828630848d6200006f81620001f3565b5080516002810460a081905280820360e0819052818452836200009e816200020c602090811b6200067d17901c565b60601b6001600160601b0319166080528285018051838252620000cd826200020c602090811b6200067d17901c565b6001600160601b0319606091821b811660c0529690935290526101009590955250509290911b909116610120525062000110630163f50083111561019462000260565b620001246276a70082111561019562000260565b6101408290526101605242016101805250505060601b6001600160601b0319166101a052506040516200015790620002ef565b604051809103906000f08015801562000174573d6000803e3d6000fd5b5060601b6001600160601b0319166101c05260405186906200019690620002fd565b620001a29190620004f2565b604051809103906000f080158015620001bf573d6000803e3d6000fd5b5060601b6001600160601b0319166101e0528251620001e69060039060208601906200030b565b505050505050506200051c565b8051620002089060009060208401906200030b565b5050565b80517f602038038060206000396000f3fefefefefefefefefefefefefefefefefefefe808352600091602081018484f090845291506200025a6001600160a01b03831615156101ac62000260565b50919050565b81620002085762000208816200027d816210905360ea1b62000280565b50565b62461bcd60e51b600090815260206004526007602452600a808404818106603090810160081b958390069590950190829004918206850160101b01602363ffffff0060e086901c160160181b0190930160c81b60445260e882901c90606490fd5b617932806200178283390190565b612f8d80620090b483390190565b61092c806200c04183390190565b828054600181600116156101000203166002900490600052602060002090601f016020900481019282601f106200034e57805160ff19168380011785556200037e565b828001600101855582156200037e579182015b828111156200037e57825182559160200191906001019062000361565b506200038c92915062000390565b5090565b5b808211156200038c576000815560010162000391565b600082601f830112620003b8578081fd5b81516001600160401b0380821115620003cf578283fd5b6040516020601f8401601f1916820181018381118382101715620003f1578586fd5b806040525081945083825286818588010111156200040e57600080fd5b600092505b8383101562000432578583018101518284018201529182019162000413565b83831115620004445760008185840101525b5050505092915050565b60008060008060008060c0878903121562000467578182fd5b8651620004748162000506565b6020880151909650620004878162000506565b60408801519095506001600160401b0380821115620004a4578384fd5b620004b28a838b01620003a7565b95506060890151915080821115620004c8578384fd5b50620004d789828a01620003a7565b9350506080870151915060a087015190509295509295509295565b6001600160a01b0391909116815260200190565b6001600160a01b03811681146200027d57600080fd5b60805160601c60a05160c05160601c60e051610100516101205160601c6101405161016051610180516101a05160601c6101c05160601c6101e05160601c6111ba620005c8600039806104c452806105bd52508061039952806104955250806105475250806102385280610261525080610285525050806105e152508061056d5250806106d752508061020f52806107535250806106f85250806101ee528061072f52506111ba6000f3fe608060405234801561001057600080fd5b50600436106100d45760003560e01c80636634b753116100875780636634b753146101525780636c57f5a9146101725780637304b8b91461017a578063739238d61461018d578063851c1bb3146101955780638a47ae3b146101b55780638d928af8146101bd578063aaabadc5146101c5576100d4565b8062c194db146100d9578063174481fa146100f75780632da47c401461010d5780632f2770db146101235780633f819b6f1461012d578063508f0eae1461013557806354fd4d501461014a575b600080fd5b6100e16101cd565b6040516100ee9190611027565b60405180910390f35b6100ff6101ec565b6040516100ee929190610fda565b610115610232565b6040516100ee929190611100565b61012b6102b9565b005b6100e1610301565b61013d610397565b6040516100ee9190610fc6565b6100e16103bb565b610165610160366004610c3d565b61041c565b6040516100ee9190610ff4565b61016561043a565b61013d610188366004610cb9565b610443565b61013d610545565b6101a86101a3366004610c75565b610569565b6040516100ee9190610fff565b61013d6105bb565b61013d6105df565b61013d610603565b60606101e7604051806020016040528060008152506106cf565b905090565b7f00000000000000000000000000000000000000000000000000000000000000007f00000000000000000000000000000000000000000000000000000000000000009091565b600080427f00000000000000000000000000000000000000000000000000000000000000008110156102ab57807f00000000000000000000000000000000000000000000000000000000000000000392507f000000000000000000000000000000000000000000000000000000000000000091506102b4565b60009250600091505b509091565b6102c16107a8565b6102c96107d9565b6002805460ff191660011790556040517f432acbfd662dbb5d8b378384a67159b47ca9d0f1b79f97cf64cf8585fa362d5090600090a1565b60038054604080516020601f600260001961010060018816150201909516949094049384018190048102820181019092528281526060939092909183018282801561038d5780601f106103625761010080835404028352916020019161038d565b820191906000526020600020905b81548152906001019060200180831161037057829003601f168201915b5050505050905090565b7f000000000000000000000000000000000000000000000000000000000000000090565b60008054604080516020601f600260001961010060018816150201909516949094049384018190048102820181019092528281526060939092909183018282801561038d5780601f106103625761010080835404028352916020019161038d565b6001600160a01b031660009081526001602052604090205460ff1690565b60025460ff1690565b6000806000610450610232565b9150915061045c6109d6565b6040518060e0016040528061046f6105df565b6001600160a01b03168152602001610485610545565b6001600160a01b031681526020017f00000000000000000000000000000000000000000000000000000000000000006001600160a01b031681526020017f00000000000000000000000000000000000000000000000000000000000000006001600160a01b03168152602001848152602001838152602001610505610301565b815250905061053988828989604051602001610524949392919061103a565b604051602081830303815290604052866107ee565b98975050505050505050565b7f000000000000000000000000000000000000000000000000000000000000000090565b60007f00000000000000000000000000000000000000000000000000000000000000008260405160200161059e929190610fae565b604051602081830303815290604052805190602001209050919050565b7f000000000000000000000000000000000000000000000000000000000000000090565b7f000000000000000000000000000000000000000000000000000000000000000090565b600061060d6105df565b6001600160a01b031663aaabadc56040518163ffffffff1660e01b815260040160206040518083038186803b15801561064557600080fd5b505afa158015610659573d6000803e3d6000fd5b505050506040513d601f19601f820116820180604052508101906101e79190610c9d565b80517f602038038060206000396000f3fefefefefefefefefefefefefefefefefefefe808352600091602081018484f090845291506106c96001600160a01b03831615156101ac61085e565b50919050565b8051604080517f00000000000000000000000000000000000000000000000000000000000000007f0000000000000000000000000000000000000000000000000000000000000000818101858101848101602090810190965280855293957f00000000000000000000000000000000000000000000000000000000000000009592947f000000000000000000000000000000000000000000000000000000000000000094938801866000828a3c846000888301883c506020898101908985010161079a818386610870565b505050505050505050919050565b60006107bf6000356001600160e01b031916610569565b90506107d66107ce82336108ae565b61019161085e565b50565b6107ec6107e461043a565b1560d361085e565b565b60006107f86107d9565b6000610804848461093e565b6001600160a01b0381166000818152600160208190526040808320805460ff19169092179091555192935090917f83a48fbcfc991335314e74d0496aab6a1987e992ddc85dddbcc4d6dd6ef2e9fc9190a290505b92915050565b8161086c5761086c8161097b565b5050565b5b60208110610890578151835260209283019290910190601f1901610871565b905182516020929092036101000a6000190180199091169116179052565b60006108b8610603565b6001600160a01b0316639be2a8848484306040518463ffffffff1660e01b81526004016108e793929190611008565b60206040518083038186803b1580156108ff57600080fd5b505afa158015610913573d6000803e3d6000fd5b505050506040513d601f19601f820116820180604052508101906109379190610c59565b9392505050565b6000606061094b846106cf565b90506000838251602084016000f590506001600160a01b038116610973573d6000803e3d6000fd5b949350505050565b62461bcd60e51b600090815260206004526007602452600a808304818106603090810160081b83860601918390049283060160101b016642414c230000300160c81b6044526107d6916210905360ea1b906242414c90606490fd5b6040518060e0016040528060006001600160a01b0316815260200160006001600160a01b0316815260200160006001600160a01b0316815260200160006001600160a01b031681526020016000815260200160008152602001606081525090565b803561085881611161565b600082601f830112610a52578081fd5b8135610a65610a6082611135565b61110e565b818152915060208083019084810181840286018201871015610a8657600080fd5b60005b84811015610aae578135610a9c81611161565b84529282019290820190600101610a89565b505050505092915050565b600082601f830112610ac9578081fd5b8135610ad7610a6082611135565b818152915060208083019084810181840286018201871015610af857600080fd5b60005b84811015610aae57813584529282019290820190600101610afb565b803561085881611176565b600082601f830112610b32578081fd5b813567ffffffffffffffff811115610b48578182fd5b610b5b601f8201601f191660200161110e565b9150808252836020828501011115610b7257600080fd5b8060208401602084013760009082016020015292915050565b600060e08284031215610b9c578081fd5b610ba660e061110e565b9050813567ffffffffffffffff80821115610bc057600080fd5b610bcc85838601610a42565b83526020840135915080821115610be257600080fd5b50610bef84828501610ab9565b60208301525060408201356040820152610c0c8360608401610b17565b6060820152610c1e8360808401610b17565b608082015260a082013560a082015260c082013560c082015292915050565b600060208284031215610c4e578081fd5b813561093781611161565b600060208284031215610c6a578081fd5b815161093781611176565b600060208284031215610c86578081fd5b81356001600160e01b031981168114610937578182fd5b600060208284031215610cae578081fd5b815161093781611161565b60008060008060808587031215610cce578283fd5b843567ffffffffffffffff80821115610ce5578485fd5b9086019060608289031215610cf8578485fd5b610d02606061110e565b823582811115610d10578687fd5b610d1c8a828601610b22565b82525060208084013583811115610d31578788fd5b610d3d8b828701610b22565b8284015250604084013583811115610d53578788fd5b80850194505089601f850112610d67578687fd5b8335610d75610a6082611135565b81815282810190868401848402880185018e1015610d91578a8bfd5b8a97505b83881015610dbc578035610da881611161565b835260019790970196918401918401610d95565b5060408501525091975088013592505080821115610dd8578485fd5b50610de587828801610b8b565b935050610df58660408701610a37565b9396929550929360600135925050565b6001600160a01b03169052565b6000815180845260208085019450808401835b83811015610e4157815187529582019590820190600101610e25565b509495945050505050565b15159052565b60008151808452815b81811015610e7757602081850181015186830182015201610e5b565b81811115610e885782602083870101525b50601f01601f19169290920160200192915050565b600060018060a01b03808351168452806020840151166020850152806040840151166040850152806060840151166060850152506080820151608084015260a082015160a084015260c082015160e060c085015261097360e0850182610e52565b805160e0808452815190840181905260009160209190820190610100860190845b81811015610f4357610f318451611155565b83529284019291840191600101610f1f565b505082850151915085810383870152610f5c8183610e12565b92505050604083015160408501526060830151610f7c6060860182610e4c565b506080830151610f8f6080860182610e4c565b5060a083015160a085015260c083015160c08501528091505092915050565b9182526001600160e01b031916602082015260240190565b6001600160a01b0391909116815260200190565b6001600160a01b0392831681529116602082015260400190565b901515815260200190565b90815260200190565b9283526001600160a01b03918216602084015216604082015260600190565b6000602082526109376020830184610e52565b60006080825285516060608084015261105660e0840182610e52565b9050602080880151607f19808685030160a08701526110758483610e52565b60408b015187820390920160c0880152815180825291840194508592508301905b808310156110be576110a88551611155565b8252938301936001929092019190830190611096565b50858103838701526110d0818a610e9d565b935050505082810360408401526110e78186610efe565b9150506110f76060830184610e05565b95945050505050565b918252602082015260400190565b60405181810167ffffffffffffffff8111828210171561112d57600080fd5b604052919050565b600067ffffffffffffffff82111561114b578081fd5b5060209081020190565b6001600160a01b031690565b6001600160a01b03811681146107d657600080fd5b80151581146107d657600080fdfea2646970667358221220eaa61c4cca4b115f54703bc3f306fb553d3abca5f204663d4bdc46e478b4f61264736f6c634300070100336102606040523480156200001257600080fd5b506040516200793238038062007932833981016040819052620000359162001530565b81836020015180604051806060016040528060008152602001600281526020018460c001518152508660000151620000888860000151600189600001518c604001516200044a60201b620019621760201c565b89600001518a602001518a608001518b60a001518a86838387878b86336001600160a01b031660001b8480604051806040016040528060018152602001603160f81b81525087878160039080519060200190620000e792919062001158565b508051620000fd90600490602084019062001158565b50506005805460ff19166012179055508151602092830120608052805191012060a052507f8b73c3c69bb8fe3d512ecc4cf759cc79239f7b179b0ffacaa9a75d522b39400f60c05260e0526001600160601b0319606091821b81166101005291901b1661012052506200017c9050630163f50083111561019462000618565b620001906276a70082111561019562000618565b4291909101610140819052016101605260601b6001600160601b031916610180526101a08690526040805163d2946c2b60e01b815290516001600160a01b0389169163d2946c2b916004808301926020929190829003018186803b158015620001f857600080fd5b505afa1580156200020d573d6000803e3d6000fd5b505050506040513d601f19601f8201168201806040525081019062000233919062001511565b606090811b6001600160601b03199081166101c052908a901b166101e052505050506040840151600093506200027c92509050601060086200062d602090811b62001b1517901c565b6200029d8360200151600860000160086200062d60201b62001b151760201c565b620002bb8460000151600060086200062d60201b62001b151760201c565b17176102008190529050620002d1838262000642565b50508251519050620002e9600282101560c862000618565b620002fa603282111560c962000618565b6200031681846020015151620008c860201b62001b281760201c565b60a08301516200032690620008d7565b60005b81811015620003a1576000846000015182815181106200034557fe5b602002602001015190506200037e81866020015184815181106200036557fe5b60200260200101516200094960201b62001b391760201c565b6001600160a01b039091166000908152600b602052604090205560010162000329565b5060208301518351620003bb91429182919081906200096d565b6040830151620003d090429081908062000aca565b6060830151620003e09062000b45565b6080830151620003f09062000b93565b620003fc600162000be1565b50505060408301516001600160601b0319606091821b8116610220528185015190911b166102405260c083015180516200043f91600e9160209091019062001158565b505050505062001883565b6000620004628362000c2f60201b62001b521760201c565b606083516001016001600160401b03811180156200047f57600080fd5b50604051908082528060200260200182016040528015620004aa578160200160208202803683370190505b5090503081600081518110620004bc57fe5b60200260200101906001600160a01b031690816001600160a01b03168152505060005b84518110156200052f57848181518110620004f657fe5b60200260200101518282600101815181106200050e57fe5b6001600160a01b0390921660209283029190910190910152600101620004df565b50606083516001016001600160401b03811180156200054d57600080fd5b5060405190808252806020026020018201604052801562000578578160200160208202803683370190505b5090506000816000815181106200058b57fe5b60200260200101906001600160a01b031690816001600160a01b03168152505060005b8451811015620005fe57848181518110620005c557fe5b6020026020010151828260010181518110620005dd57fe5b6001600160a01b0390921660209283029190910190910152600101620005ae565b506200060d8787848462000c3b565b979650505050505050565b816200062957620006298162000d35565b5050565b60006200063c84848462000d4a565b50501b90565b6000826001600160a01b0316631a7c326362000671600060088662000daa60201b62001b5c179092919060201c565b6040518263ffffffff1660e01b81526004016200068f91906200171e565b60206040518083038186803b158015620006a857600080fd5b505afa158015620006bd573d6000803e3d6000fd5b505050506040513d601f19601f82011682018060405250810190620006e39190620014f8565b905060006001600160a01b038416631a7c3263620007108560088062000daa602090811b62001b5c17901c565b6040518263ffffffff1660e01b81526004016200072e91906200171e565b60206040518083038186803b1580156200074757600080fd5b505afa1580156200075c573d6000803e3d6000fd5b505050506040513d601f19601f82011682018060405250810190620007829190620014f8565b905060006001600160a01b038516631a7c3263620007b0866010600862000daa602090811b62001b5c17901c565b6040518263ffffffff1660e01b8152600401620007ce91906200171e565b60206040518083038186803b158015620007e757600080fd5b505afa158015620007fc573d6000803e3d6000fd5b505050506040513d601f19601f82011682018060405250810190620008229190620014f8565b9050600062000845826040806000010160406200062d60201b62001b151760201c565b6200086284604060000160406200062d60201b62001b151760201c565b6200087c86600060406200062d60201b62001b151760201c565b17179050806008819055507fc3f0acc358200d8e08ac6ce20bc2f9f27893a344f813bf682b7859b3e521502e81604051620008b891906200171e565b60405180910390a1505050505050565b62000629828214606762000618565b620008f0670d2f13f7789f000082111561016062000618565b62000909600a548262000db960201b62001b6b1760201c565b600a556040517f556cdf4052d939f8acbe593d83668d2e18500b032bcf51cbbf82b181c6094dd7906200093e9083906200171e565b60405180910390a150565b600062000957818462000de1565b90506200096681838062000e91565b9392505050565b6000805b835181101562000a5c5760008482815181106200098a57fe5b60200260200101519050620009b2662386f26fc1000082101561012e6200061860201b60201c565b620009cc818462000ed360201b62001b7a1790919060201c565b92506000848381518110620009dd57fe5b6020026020010151905062000a38600b6000836001600160a01b03166001600160a01b031681526020019081526020016000205488858151811062000a1e57fe5b60200260200101518462000e9160201b62001b8c1760201c565b6001600160a01b039091166000908152600b60205260409020555060010162000971565b5062000a75670de0b6b3a7640000821461013462000618565b62000a8f600954878762000ee760201b62001ba91760201c565b6009556040517f0f3631f9dab08169d1db21c6dc5f32536fb2b0a6b9bb5330d71c52132f968be090620008b8908890889088908890620017ca565b62000ad58262000f1b565b62000ae08162000f1b565b62000afc6009548585858562000f4860201b62001bc71760201c565b6009556040517fc42eae0298d32208994ed5d58e525fa31c2911e95451d98f8df3355259c4a13d9062000b37908690869086908690620017ff565b60405180910390a150505050565b62000b5e6009548262000fc460201b62001c071760201c565b6009556040517f5a9e84f78f7957cb4ed7478eb0fcad35ee4ecbe2e0f298420b28a3955392573f906200093e90839062001713565b62000bac6009548262000fe060201b62001c151760201c565b6009556040517f5353e2cb47d505ba9b628610daec53fc41f3a4259dab35a757b0f1d5a58bc1c3906200093e90839062001713565b62000bfa6009548262000ffc60201b62001c231760201c565b6009556040517ff8f9c11ff5f69da8478cee58f9c7465663d787d1a0175fc6a416c772f7a8c64f906200093e90839062001713565b80620006298162001018565b600080856001600160a01b03166309b2760f866040518263ffffffff1660e01b815260040162000c6c9190620017b5565b602060405180830381600087803b15801562000c8757600080fd5b505af115801562000c9c573d6000803e3d6000fd5b505050506040513d601f19601f8201168201806040525081019062000cc29190620014f8565b604051633354e3e960e11b81529091506001600160a01b038716906366a9c7d29062000cf79084908890889060040162001727565b600060405180830381600087803b15801562000d1257600080fd5b505af115801562000d27573d6000803e3d6000fd5b509298975050505050505050565b62000d47816210905360ea1b6200109f565b50565b62000d5b6101008310606462000618565b62000d946001821015801562000d8c575062000d8860ff84610100036200110060201b62001c311760201c565b8211155b606462000618565b62000da583821c156101b462000618565b505050565b6001901b6000190191901c1690565b600062000966826000603c866200110c60201b62001c3d17909392919060201c565b92915050565b60006200096662000e79836001600160a01b031663313ce5676040518163ffffffff1660e01b815260040160206040518083038186803b15801562000e2557600080fd5b505afa15801562000e3a573d6000803e3d6000fd5b505050506040513d601f19601f8201168201806040525081019062000e609190620016b4565b60ff1660126200113160201b62001c601790919060201c565b8490608060056200110c602090811b62001c3d17901c565b600062000ecb8260408062000eb5888887846200110c602090811b62001c3d17901c565b6200110c60201b62001c3d17909392919060201c565b949350505050565b600082820162000966848210158362000618565b600062000f01848483602062001c3d6200110c821b17811c565b935062000ecb848360208062001c3d6200110c821b17811c565b62000f3064e8d4a5100082101560cb62000618565b62000d47670d2f13f7789f000082111560ca62000618565b600062000f6386866040602062001c3d6200110c821b17811c565b955062000f7e86856060602062001c3d6200110c821b17811c565b955062000f9c86846080603e6200110c602090811b62001c3d17901c565b955062000fba868360be603e6200110c602090811b62001c3d17901c565b9695505050505050565b600062000966838360fc62001149602090811b62001c7617901c565b600062000966838360fd62001149602090811b62001c7617901c565b600062000966838360ff62001149602090811b62001c7617901c565b600281511015620010295762000d47565b6000816000815181106200103957fe5b602002602001015190506000600190505b825181101562000da55760008382815181106200106357fe5b6020026020010151905062001094816001600160a01b0316846001600160a01b03161060656200061860201b60201c565b91506001016200104a565b62461bcd60e51b600090815260206004526007602452600a808404818106603090810160081b958390069590950190829004918206850160101b01602363ffffff0060e086901c160160181b0190930160c81b60445260e882901c90606490fd5b80820390821102900390565b60006200111b84848462000d4a565b506001901b60001901811b1992909216911b1790565b60006200114383831115600162000618565b50900390565b6001811b1992909216911b1790565b828054600181600116156101000203166002900490600052602060002090601f016020900481019282601f106200119b57805160ff1916838001178555620011cb565b82800160010185558215620011cb579182015b82811115620011cb578251825591602001919060010190620011ae565b50620011d9929150620011dd565b5090565b5b80821115620011d95760008155600101620011de565b805162000ddb816200186d565b600082601f83011262001212578081fd5b815162001229620012238262001841565b6200181a565b8181529150602080830190848101818402860182018710156200124b57600080fd5b60005b848110156200127757815162001264816200186d565b845292820192908201906001016200124e565b505050505092915050565b600082601f83011262001293578081fd5b8151620012a4620012238262001841565b818152915060208083019084810181840286018201871015620012c657600080fd5b60005b848110156200127757815184529282019290820190600101620012c9565b8051801515811462000ddb57600080fd5b600082601f83011262001309578081fd5b81516001600160401b038111156200131f578182fd5b602062001335601f8301601f191682016200181a565b925081835284818386010111156200134c57600080fd5b60005b828110156200136c5784810182015184820183015281016200134f565b828111156200137e5760008284860101525b50505092915050565b600060e0828403121562001399578081fd5b620013a560e06200181a565b9050620013b38383620011f4565b8152620013c48360208401620011f4565b6020820152620013d88360408401620011f4565b6040820152620013ec8360608401620011f4565b60608201526080828101519082015260a0808301519082015260c08201516001600160401b038111156200141f57600080fd5b6200142d84828501620012f8565b60c08301525092915050565b600060e082840312156200144b578081fd5b6200145760e06200181a565b82519091506001600160401b03808211156200147257600080fd5b620014808583860162001201565b835260208401519150808211156200149757600080fd5b50620014a68482850162001282565b60208301525060408201516040820152620014c58360608401620012e7565b6060820152620014d98360808401620012e7565b608082015260a082015160a082015260c082015160c082015292915050565b6000602082840312156200150a578081fd5b5051919050565b60006020828403121562001523578081fd5b815162000966816200186d565b6000806000806080858703121562001546578283fd5b84516001600160401b03808211156200155d578485fd5b908601906060828903121562001571578485fd5b6200157d60606200181a565b8251828111156200158c578687fd5b6200159a8a828601620012f8565b82525060208084015183811115620015b0578788fd5b620015be8b828701620012f8565b8284015250604084015183811115620015d5578788fd5b80850194505089601f850112620015ea578687fd5b8351620015fb620012238262001841565b81815282810190868401848402880185018e101562001618578a8bfd5b8a97505b838810156200164757805162001632816200186d565b8352600197909701969184019184016200161c565b506040850152505088015190965091508082111562001664578485fd5b620016728883890162001387565b9450604087015191508082111562001688578384fd5b50620016978782880162001439565b925050620016a98660608701620011f4565b905092959194509250565b600060208284031215620016c6578081fd5b815160ff8116811462000966578182fd5b6000815180845260208085019450808401835b838110156200170857815187529582019590820190600101620016ea565b509495945050505050565b901515815260200190565b90815260200190565b60006060820185835260206060818501528186518084526080860191508288019350845b81811015620017735762001760855162001861565b835293830193918301916001016200174b565b505084810360408601528551808252908201925081860190845b8181101562000d2757620017a2835162001861565b855293830193918301916001016200178d565b6020810160038310620017c457fe5b91905290565b600085825284602083015260806040830152620017eb6080830185620016d7565b82810360608401526200060d8185620016d7565b93845260208401929092526040830152606082015260800190565b6040518181016001600160401b03811182821017156200183957600080fd5b604052919050565b60006001600160401b0382111562001857578081fd5b5060209081020190565b6001600160a01b031690565b6001600160a01b038116811462000d4757600080fd5b60805160a05160c05160e0516101005160601c6101205160601c61014051610160516101805160601c6101a0516101c05160601c6101e05160601c610200516102205160601c6102405160601c615ff16200194160003980613b2c525080613b0852508061089e5280610cdf52508061087d525080611654525080610ba7525080611d1d52508061205252508061202e5250806112d95250806112a85250806112345250806133a25250806133e45250806133c35250615ff16000f3fe608060405234801561001057600080fd5b506004361061033a5760003560e01c80637beed220116101b4578063a457c2d7116100fa578063d5c096c41161009d578063d5c096c4146106bf578063dd62ed3e146106d2578063de3d2b2d146106e5578063e01af92c146106f8578063ebf1b7421461070b578063ed24911d14610730578063f885a4bb14610738578063f89f27ed1461074b5761033a565b8063a457c2d714610653578063a9059cbb14610666578063aaabadc514610679578063b35056b814610681578063b62c1f0614610689578063b7b814fc1461069c578063d2946c2b146106a4578063d505accf146106ac5761033a565b806387ec68171161016257806387ec6817146105da578063893d20e8146105ed5780638d027466146106025780638d928af81461060a57806390193b7c1461061257806395d89b411461062557806397bb15c91461062d5780639d2c110c146106405761033a565b80637beed220146105665780637ecebe001461057e57806381788e2b14610591578063819c70f3146105a45780638456cb59146105b7578063851c1bb3146105bf578063876f303b146105d25761033a565b80633c9d93b8116102845780636028bfd4116102275780636028bfd4146104b55780636a2efb2c146104d65780636b47273b146104ee578063704640161461050457806370a082311461051757806373656f891461052a57806374f3b009146105325780637b749c45146105535761033a565b80633c9d93b81461045f5780633f4ba83a1461047257806341e45a201461047a57806347bc4d92146104825780634df77ce01461048a57806354a844ba1461049d57806354fd4d50146104a557806355c67628146104ad5761033a565b806323b872dd116102ec57806323b872dd146103db5780632a9a0323146103ee578063313ce5671461040157806334a36df8146104165780633644e5151461042957806336eb097b1461043157806338fff2d014610444578063395093511461044c5761033a565b806301ec954a1461033f57806306fdde0314610368578063095ea7b31461037d5780630da0669c1461039d57806318160ddd146103a75780631c0de051146103af5780631dd746ea146103c6575b600080fd5b61035261034d3660046156d1565b610753565b60405161035f9190615b45565b60405180910390f35b6103706107b3565b60405161035f9190615dad565b61039061038b3660046152a5565b610849565b60405161035f9190615b22565b6103a5610860565b005b6103526108c4565b6103b76108ca565b60405161035f93929190615b2d565b6103ce6108f3565b60405161035f9190615a5c565b6103906103e93660046151f5565b610910565b6103526103fc36600461578c565b610986565b6104096109cd565b60405161035f9190615f20565b6103a56104243660046155d5565b6109d6565b610352610b74565b61039061043f3660046151a1565b610b83565b610352610ba5565b61039061045a3660046152a5565b610bc9565b6103a561046d3660046151a1565b610c04565b6103a5610c71565b610390610c83565b610390610c90565b61035261049836600461578c565b610c9d565b6103a5610d06565b610370610d5a565b610352610dbb565b6104c86104c3366004615486565b610dc8565b60405161035f929190615e29565b6104de610de6565b60405161035f9493929190615eba565b6104f6610e05565b60405161035f929190615e42565b61035261051236600461578c565b610e32565b6103526105253660046151a1565b610e94565b610352610eaf565b610545610540366004615486565b610ee4565b60405161035f929190615a6f565b6103a5610561366004615436565b610fa5565b61056e610fc1565b60405161035f9493929190615e50565b61035261058c3660046151a1565b6110f7565b6103a561059f3660046151a1565b611102565b6103a56105b23660046157d2565b611173565b6103a561121e565b6103526105cd366004615591565b611230565b610352611282565b6104c86105e8366004615486565b611294565b6105f56112a6565b60405161035f91906159b1565b6103906112ca565b6105f56112d7565b6103526106203660046151a1565b6112fb565b610370611316565b6103a561063b366004615633565b611377565b61035261064e366004615741565b611542565b6103906106613660046152a5565b61157b565b6103906106743660046152a5565b6115b9565b6105f56115c6565b6103906115d0565b6103a5610697366004615857565b6115dd565b6103a5611608565b6105f5611652565b6103a56106ba366004615235565b611676565b6105456106cd366004615486565b611701565b6103526106e03660046151bd565b611798565b6103a56106f3366004615436565b6117d5565b6103a5610706366004615436565b6117ee565b61071e6107193660046151a1565b611807565b60405161035f96959493929190615ef8565b6103526118ab565b6103a5610746366004615326565b6118b5565b6103ce61194b565b600084608001516107806107656112d7565b6001600160a01b0316336001600160a01b03161460cd611c85565b61079561078b610ba5565b82146101f4611c85565b61079d611c93565b6107a986868686611ca6565b9695505050505050565b60038054604080516020601f600260001961010060018816150201909516949094049384018190048102820181019092528281526060939092909183018282801561083f5780601f106108145761010080835404028352916020019161083f565b820191906000526020600020905b81548152906001019060200180831161082257829003601f168201915b5050505050905090565b6000610856338484611cb3565b5060015b92915050565b61087061086b611d1b565b611d3f565b610878611dd8565b6108c27f00000000000000000000000000000000000000000000000000000000000000007f0000000000000000000000000000000000000000000000000000000000000000611dfb565b565b60025490565b60008060006108d761200f565b1592506108e261202c565b91506108ec612050565b9050909192565b6060806108fe612074565b50905061090a81612121565b91505090565b60008061091d8533611798565b9050610941336001600160a01b03871614806109395750838210155b61019e611c85565b61094c8585856121db565b336001600160a01b0386161480159061096757506000198114155b15610979576109798533858403611cb3565b60019150505b9392505050565b60006109906122bb565b610998611c93565b6109a06122e9565b60006109aa6122f4565b905080156109be576109bb8161239e565b91505b6109c78361245a565b50919050565b60055460ff1690565b6109de6122bb565b6109e6611c93565b6109ee6122e9565b60006109f86122f4565b9050610a086000821160ce611c85565b610a118161239e565b50506060610a1d612074565b509050610a3360328251600101111560c9611c85565b600060608073__$6d134cfc25e59b25943ff4bfa0c28ca096$__631face20a610a5a6112d7565b610a62610ba5565b60095488610a6f8a6124bb565b8f8f8f6040518963ffffffff1660e01b8152600401610a95989796959493929190615cb1565b60006040518083038186803b158015610aad57600080fd5b505af4158015610ac1573d6000803e3d6000fd5b505050506040513d6000823e601f3d908101601f19168201604052610ae99190810190615528565b6001600160a01b038c166000908152600b6020526040902083905591945092509050610b184280838086612586565b8515610b2857610b2885876126a8565b886001600160a01b03167ff4c563a3ea86ff1f4275e8c207df0375a51963f2b831b7bf4da8be938d92876c88604051610b619190615b45565b60405180910390a2505050505050505050565b6000610b7e6118ab565b905090565b6001600160a01b0381166000908152600d602052604090205460ff165b919050565b7f000000000000000000000000000000000000000000000000000000000000000090565b3360008181526001602090815260408083206001600160a01b03871684529091528120549091610856918590610bff9086611b7a565b611cb3565b610c0c6122bb565b610c14611c93565b610c28610c2082610b83565b6101b1611c85565b6001600160a01b0381166000818152600d6020526040808220805460ff19169055517f89aa0423af0b4cf311bfb79f61549f2b82b335f041e4f7ae674618059b51a4cb9190a250565b610c796122bb565b6108c260006126b2565b6000610b7e600954612725565b6000610b7e600954612732565b60008082610cad57506000610cda565b6002831415610cbe57506008610cda565b6003831415610ccf57506010610cda565b610cda6101bb61273f565b61097f7f0000000000000000000000000000000000000000000000000000000000000000826008611b5c565b610d0e6122bb565b610d1661274f565b610d206001612763565b7feff3d4d215b42bf0960be9c6d5e05c22cba4df6627a3a523e2acee733b5854c86001604051610d509190615b22565b60405180910390a1565b600e8054604080516020601f600260001961010060018816150201909516949094049384018190048102820181019092528281526060939092909183018282801561083f5780601f106108145761010080835404028352916020019161083f565b6000610b7e60095461277f565b60006060610dda8887856127a46128a9565b97509795505050505050565b600080600080610df76009546129a3565b935093509350935090919293565b600080610e13600a546129eb565b6009549193509150610e2490612a10565b15610e2e57600091505b9091565b6000610e3c6115d0565b15610e4957506000610ba0565b600082610e5857506000610e85565b6002831415610e6957506040610e85565b6003831415610e7a57506080610e85565b610e856101bb61273f565b60085461097f90826040611b5c565b6001600160a01b031660009081526020819052604090205490565b6000610eb9611c93565b610ec16122e9565b6000610ecb6122f4565b9050610edb6000821160ce611c85565b61090a8161239e565b60608088610ef36107656112d7565b610efe61078b610ba5565b6000610f0985612a1d565b15610f3157610f16612a4c565b610f2888610f226108c4565b87612a5f565b94509050610f49565b610f39611c93565b610f448a89876127a4565b945090505b610f538a82612b01565b83516001600160401b0381118015610f6a57600080fd5b50604051908082528060200260200182016040528015610f94578160200160208202803683370190505b509250505097509795505050505050565b610fad6122bb565b610fb5611c93565b610fbe81612b0b565b50565b600080606080610fd2600954612b4a565b90945092506060610fe1612074565b50905080516001600160401b0381118015610ffb57600080fd5b50604051908082528060200260200182016040528015611025578160200160208202803683370190505b50925080516001600160401b038111801561103f57600080fd5b50604051908082528060200260200182016040528015611069578160200160208202803683370190505b50915060005b81518110156110ef576110b9600b600084848151811061108b57fe5b60200260200101516001600160a01b03166001600160a01b0316815260200190815260200160002054612b67565b8583815181106110c557fe5b602002602001018584815181106110d857fe5b60209081029190910101919091525260010161106f565b505090919293565b600061085a826112fb565b61110a6122bb565b611112611c93565b61112761111e82610b83565b156101b0611c85565b6001600160a01b0381166000818152600d6020526040808220805460ff19166001179055517fbf5840c727acdcaceea5154edc82998fa82a490aa3dc7aeb66849c8bbea1f5799190a250565b61117b6122bb565b611183611c93565b606061118d612074565b50905061119e835182518451612b84565b60005b81518110156111f8576111f08482815181106111b957fe5b60200260200101516001600160a01b03168383815181106111d657fe5b60200260200101516001600160a01b031614610208611c85565b6001016111a1565b506112176112068686612ba1565b85611210866124bb565b8587612586565b5050505050565b6112266122bb565b6108c260016126b2565b60007f00000000000000000000000000000000000000000000000000000000000000008260405160200161126592919061596e565b604051602081830303815290604052805190602001209050919050565b6000610b7e61128f6122f4565b612bbe565b60006060610dda888785612be96128a9565b7f000000000000000000000000000000000000000000000000000000000000000090565b6000610b7e600954612d01565b7f000000000000000000000000000000000000000000000000000000000000000090565b6001600160a01b031660009081526006602052604090205490565b60048054604080516020601f600260001961010060018816150201909516949094049384018190048102820181019092528281526060939092909183018282801561083f5780601f106108145761010080835404028352916020019161083f565b61137f6122bb565b611387611c93565b61138f6122e9565b60006113996122f4565b90506113a96000821160ce611c85565b6113b28161239e565b505060606113be612074565b5090506113d460026001835103101560c8611c85565b6001600160a01b0384166000908152600b60205260408120546113ff90670de0b6b3a7640000612d0e565b905060608073__$6d134cfc25e59b25943ff4bfa0c28ca096$__63a20d2e4d6114266112d7565b61142e610ba5565b6009548861143b8a6124bb565b8d8a6040518863ffffffff1660e01b815260040161145f9796959493929190615d14565b60006040518083038186803b15801561147757600080fd5b505af415801561148b573d6000803e3d6000fd5b505050506040513d6000823e601f3d908101601f191682016040526114b391908101906152d0565b6001600160a01b0389166000908152600b602052604081205590925090506114de4280838086612586565b8515611505576114fb6001600160a01b03861615156101bc611c85565b6115058587612b01565b6040516001600160a01b038816907f4c910b69fe65a61f7531b9c5042b2329ca7179c77290aa7e2eb3afa3c8511fd390600090a250505050505050565b600083608001516115546107656112d7565b61155f61078b610ba5565b611567611c93565b611572858585612d31565b95945050505050565b6000806115883385611798565b90508083106115a25761159d33856000611cb3565b6115af565b6115af3385858403611cb3565b5060019392505050565b60006108563384846121db565b6000610b7e612dfd565b6000610b7e600954612a10565b6115e56122bb565b6115ed611c93565b6116026115fa8585612ba1565b848484612e77565b50505050565b6116106122bb565b611618612a4c565b6116226000612763565b7feff3d4d215b42bf0960be9c6d5e05c22cba4df6627a3a523e2acee733b5854c86000604051610d509190615b22565b7f000000000000000000000000000000000000000000000000000000000000000090565b60007f6e71edae12b1b97f4d1f60370fef10105fa2faae0126114a169c64845d6126c98888886116a58c6112fb565b896040516020016116bb96959493929190615b6d565b6040516020818303038152906040528051906020012090506116ec88826116e3878787612edf565b886101f8612f1e565b6116f7888888611cb3565b5050505050505050565b606080886117106107656112d7565b61171b61078b610ba5565b6000611725611c93565b61172d6108c4565b61177f5761173c8a8a87612f75565b9450905061175561174b6130ec565b82101560cc611c85565b61176760006117626130ec565b6126a8565b61177a896117736130ec565b83036126a8565b610f53565b61178a8a8987612be9565b94509050610f5389826126a8565b60006117a26112d7565b6001600160a01b0316826001600160a01b031614156117c4575060001961085a565b6117ce83836130f3565b905061085a565b6117dd6122bb565b6117e5611c93565b610fbe8161311e565b6117f66122bb565b6117fe611c93565b610fbe8161315d565b6001600160a01b0381166000908152600c6020526040812054819081908190819081906118338161319c565b929950909750955093506000611848896131ea565b905061185682826001613219565b935061186482826000613219565b925060006118796118748b613353565b61336e565b90506118858982613392565b98506118918582613392565b945061189d8482613392565b935050505091939550919395565b6000610b7e61339e565b6118bd6122bb565b6118c5611c93565b6118d3845183518351612b84565b6118df84518451611b28565b60005b8451811015611217576119438582815181106118fa57fe5b602002602001015185838151811061190e57fe5b602002602001015185848151811061192257fe5b602002602001015185858151811061193657fe5b602002602001015161343b565b6001016118e2565b606080611956612074565b50905061090a816124bb565b600061196d83611b52565b606083516001016001600160401b038111801561198957600080fd5b506040519080825280602002602001820160405280156119b3578160200160208202803683370190505b50905030816000815181106119c457fe5b60200260200101906001600160a01b031690816001600160a01b03168152505060005b8451811015611a33578481815181106119fc57fe5b6020026020010151828260010181518110611a1357fe5b6001600160a01b03909216602092830291909101909101526001016119e7565b50606083516001016001600160401b0381118015611a5057600080fd5b50604051908082528060200260200182016040528015611a7a578160200160208202803683370190505b509050600081600081518110611a8c57fe5b60200260200101906001600160a01b031690816001600160a01b03168152505060005b8451811015611afb57848181518110611ac457fe5b6020026020010151828260010181518110611adb57fe5b6001600160a01b0390921660209283029190910190910152600101611aaf565b50611b08878784846134dc565b925050505b949350505050565b6000611b228484846135cc565b50501b90565b611b358183146067611c85565b5050565b6000611b458184613613565b905061097f818384611b8c565b80611b35816136a2565b6001901b6000190191901c1690565b600061097f838383603c611c3d565b600082820161097f8482101583611c85565b6000611b0d82604080611ba188888784611c3d565b929190611c3d565b6000611bb88484836020611c3d565b9350611b0d8483602080611c3d565b6000611bd7868660406020611c3d565b9550611be7868560606020611c3d565b9550611bf786846080603e611c3d565b95506107a9868360be603e611c3d565b600061097f838360fc611c76565b600061097f838360fd611c76565b600061097f838360ff611c76565b80820390821102900390565b6000611c4a8484846135cc565b506001901b60001901811b1992909216911b1790565b6000611c70838311156001611c85565b50900390565b6001811b1992909216911b1790565b81611b3557611b358161273f565b6108c2611c9e61200f565b610192611c85565b6000611b0d6103e661273f565b6001600160a01b0380841660008181526001602090815260408083209487168084529490915290819020849055517f8c5be1e5ebec7d5bd14f71427d1e84f3dd0314c0f7b2291e5b200ac8c7c3b92590611d0e908590615b45565b60405180910390a3505050565b7f000000000000000000000000000000000000000000000000000000000000000090565b60408051600080825260208201909252606091611d72565b611d5f614e5a565b815260200190600190039081611d575790505b506040516303a38fa160e21b81529091506001600160a01b03831690630e8e3e8490611da29084906004016159c5565b600060405180830381600087803b158015611dbc57600080fd5b505af1158015611dd0573d6000803e3d6000fd5b505050505050565b611de0611c93565b6000611dea6122f4565b90508015610fbe57611b358161239e565b60006001600160a01b038316631a7c3263611e1884846008611b5c565b6040518263ffffffff1660e01b8152600401611e349190615b45565b60206040518083038186803b158015611e4c57600080fd5b505afa158015611e60573d6000803e3d6000fd5b505050506040513d601f19601f82011682018060405250810190611e84919061546e565b905060006001600160a01b038416631a7c3263611ea385600880611b5c565b6040518263ffffffff1660e01b8152600401611ebf9190615b45565b60206040518083038186803b158015611ed757600080fd5b505afa158015611eeb573d6000803e3d6000fd5b505050506040513d601f19601f82011682018060405250810190611f0f919061546e565b905060006001600160a01b038516631a7c3263611f2f8660106008611b5c565b6040518263ffffffff1660e01b8152600401611f4b9190615b45565b60206040518083038186803b158015611f6357600080fd5b505afa158015611f77573d6000803e3d6000fd5b505050506040513d601f19601f82011682018060405250810190611f9b919061546e565b90506000611fac8260806040611b15565b611fb884604080611b15565b611fc58660006040611b15565b17179050806008819055507fc3f0acc358200d8e08ac6ce20bc2f9f27893a344f813bf682b7859b3e521502e81604051611fff9190615b45565b60405180910390a1505050505050565b6000612019612050565b421180610b7e57505060075460ff161590565b7f000000000000000000000000000000000000000000000000000000000000000090565b7f000000000000000000000000000000000000000000000000000000000000000090565b6060806060806120826112d7565b6001600160a01b031663f94d4668612098610ba5565b6040518263ffffffff1660e01b81526004016120b49190615b45565b60006040518083038186803b1580156120cc57600080fd5b505afa1580156120e0573d6000803e3d6000fd5b505050506040513d6000823e601f3d908101601f1916820160405261210891908101906153cd565b5091509150612117828261371b565b9350935050509091565b8051606090806001600160401b038111801561213c57600080fd5b50604051908082528060200260200182016040528015612166578160200160208202803683370190505b50915060005b818110156121d4576121b5600b600086848151811061218757fe5b60200260200101516001600160a01b03166001600160a01b031681526020019081526020016000205461336e565b8382815181106121c157fe5b602090810291909101015260010161216c565b5050919050565b6121f26001600160a01b0384161515610198611c85565b6122096001600160a01b0383161515610199611c85565b612214838383612b9c565b6001600160a01b03831660009081526020819052604090205461223a90826101a061373b565b6001600160a01b0380851660009081526020819052604080822093909355908416815220546122699082611b7a565b6001600160a01b0380841660008181526020819052604090819020939093559151908516907fddf252ad1be2c89b69c2b068fc378daa952ba7f163c4a11628f55a4df523b3ef90611d0e908590615b45565b60006122d26000356001600160e01b031916611230565b9050610fbe6122e18233613751565b610191611c85565b6108c261086b6112d7565b60008060006123016112d7565b6001600160a01b031663b05f8e48612317610ba5565b306040518363ffffffff1660e01b8152600401612335929190615c7c565b60806040518083038186803b15801561234d57600080fd5b505afa158015612361573d6000803e3d6000fd5b505050506040513d601f19601f820116820180604052508101906123859190615817565b5050915091508082016123966108c4565b039250505090565b60008060006123ab610e05565b9150915060006123bd8542848661383a565b90506123c761387e565b806123d85760009350505050610ba0565b60006123ee6123e76003610e32565b839061388f565b905060006123fc8383611c60565b9050612407826138d1565b7f0666d5a83bb8143573350414d5a13dbdcac60a706160576416096ad6a41c0ea5816040516124369190615b45565b60405180910390a161244f6124496112a6565b826126a8565b509095945050505050565b612471670d2f13f7789f0000821115610160611c85565b61247d600a5482611b6b565b600a556040517f556cdf4052d939f8acbe593d83668d2e18500b032bcf51cbbf82b181c6094dd7906124b0908390615b45565b60405180910390a150565b606060006124ca6009546138e2565b8351909150806001600160401b03811180156124e557600080fd5b5060405190808252806020026020018201604052801561250f578160200160208202803683370190505b50925060005b8181101561257e5761255f600b600087848151811061253057fe5b60200260200101516001600160a01b03166001600160a01b031681526020019081526020016000205484612d0e565b84828151811061256b57fe5b6020908102919091010152600101612515565b505050919050565b6000805b835181101561264b5760008482815181106125a157fe5b602002602001015190506125c1662386f26fc1000082101561012e611c85565b6125cb8382611b7a565b925060008483815181106125db57fe5b60200260200101519050612628600b6000836001600160a01b03166001600160a01b031681526020019081526020016000205488858151811061261a57fe5b602002602001015184611b8c565b6001600160a01b039091166000908152600b60205260409020555060010161258a565b50612662670de0b6b3a76400008214610134611c85565b61266f6009548787611ba9565b6009556040517f0f3631f9dab08169d1db21c6dc5f32536fb2b0a6b9bb5330d71c52132f968be090611fff908890889088908890615e50565b611b3582826138fe565b80156126d2576126cd6126c361202c565b4210610193611c85565b6126e7565b6126e76126dd612050565b42106101a9611c85565b6007805460ff19168215151790556040517f9e3a5e37224532dea67b89face185703738a228a6e8a23dee546960180d3be64906124b0908390615b22565b600061085a8260ff6139a2565b600061085a8260fc6139a2565b610fbe816210905360ea1b6139a9565b6108c261275a6115d0565b156101b5611c85565b61276f60095482613a0a565b60095580610fbe57610fbe61387e565b6000806000806000612790866129a3565b93509350935093506107a982828686613a18565b6000606060006127bb6127b56108c4565b86613a32565b9550905060606127c9612074565b50905060006127d78361239e565b8301905073__$b21b5fdadf799f52ef5daa76c49e71b2c3$__63b8b0f79988888461280187612121565b61280a886124bb565b612812613a73565b61281b8a613a79565b612823613b06565b6040518963ffffffff1660e01b8152600401612846989796959493929190615a94565b60006040518083038186803b15801561285e57600080fd5b505af4158015612872573d6000803e3d6000fd5b505050506040513d6000823e601f3d908101601f1916820160405261289a91908101906157a4565b94509450505050935093915050565b333014612967576000306001600160a01b03166000366040516128cd929190615986565b6000604051808303816000865af19150503d806000811461290a576040519150601f19603f3d011682016040523d82523d6000602084013e61290f565b606091505b50509050806000811461291e57fe5b60046000803e6000516001600160e01b0319166343adbafb60e01b8114612949573d6000803e3d6000fd5b506020600460003e604060205260243d03602460403e601c3d016000f35b6000606061297a8686868663ffffffff16565b8051601f1982018390526343adbafb603f19830152919350915060200260231982016044820181fd5b60008080806129b58560406020611b5c565b93506129c48560606020611b5c565b92506129d3856080603e611b5c565b91506129e28560be603e611b5c565b90509193509193565b6000806129fa8382603c611b5c565b9150612a0983603c6020611b5c565b9050915091565b600061085a8260fe6139a2565b600080825111801561085a575060ff801682806020019051810190612a429190615888565b60ff161492915050565b6108c2612a576115d0565b6101b6611c85565b60006060612a6b613b2a565b6001600160a01b0316632787a287612a81610ba5565b85876040518463ffffffff1660e01b8152600401612aa193929190615c53565b60006040518083038186803b158015612ab957600080fd5b505afa158015612acd573d6000803e3d6000fd5b505050506040513d6000823e601f3d908101601f19168201604052612af591908101906157a4565b91509150935093915050565b611b358282613b4e565b612b1760095482611c15565b6009556040517f5353e2cb47d505ba9b628610daec53fc41f3a4259dab35a757b0f1d5a58bc1c3906124b0908390615b22565b600080612b5983826020611b5c565b9150612a0983602080611b5c565b600080612b7683826040611b5c565b9150612a0983604080611b5c565b612b9c8284148015612b9557508183145b6067611c85565b505050565b6000612bad4284613c09565b905061085a82821115610146611c85565b6000806000612bcb610e05565b915091506000612bdd8542848661383a565b90506115728582611b7a565b600060606000612bf7613a73565b9050612c06610c208288613c15565b6000612c19612c136108c4565b87613a32565b965090506060612c27612074565b5090506000612c358361239e565b8301905073__$b21b5fdadf799f52ef5daa76c49e71b2c3$__63b8e7b848898984612c5f87612121565b612c68886124bb565b8a612c728a613a79565b612c7a613b06565b6040518963ffffffff1660e01b8152600401612c9d989796959493929190615a94565b60006040518083038186803b158015612cb557600080fd5b505af4158015612cc9573d6000803e3d6000fd5b505050506040513d6000823e601f3d908101601f19168201604052612cf191908101906157a4565b9550955050505050935093915050565b600061085a8260fd6139a2565b600061097f612d1f84836040611b5c565b612d2b85604080611b5c565b84613c30565b600080612d3c613a73565b9050612d52612d4a82612732565b610147611c85565b60408501516001600160a01b0316301415612dab57612d78610c20828760c00151613c15565b600083612d836108c4565b0390506000612d918261239e565b82019050612da187878386613c9a565b935050505061097f565b60208501516001600160a01b0316301415612de957600084612dcb6108c4565b0390506000612dd98261239e565b82019050612da187868386613e79565b612df585858584614040565b91505061097f565b6000612e076112d7565b6001600160a01b031663aaabadc56040518163ffffffff1660e01b815260040160206040518083038186803b158015612e3f57600080fd5b505afa158015612e53573d6000803e3d6000fd5b505050506040513d601f19601f82011682018060405250810190610b7e91906155b9565b612e808261426a565b612e898161426a565b612e9860095485858585611bc7565b6009556040517fc42eae0298d32208994ed5d58e525fa31c2911e95451d98f8df3355259c4a13d90612ed1908690869086908690615eba565b60405180910390a150505050565b60408051604180825260808201909252606091829190602082018180368337019050509050836020820152826040820152846060820153949350505050565b6000612f2985614293565b9050612f3f612f398783876142af565b83611c85565b612f4e428410156101b8611c85565b5050506001600160a01b039092166000908152600660205260409020805460010190555050565b60006060612f8d610c20612f87613a73565b87613c15565b6000612f988461435e565b9050612fb36000826003811115612fab57fe5b1460ce611c85565b6060612fbd612074565b509050612fc985614374565b9250612fd783518251611b28565b6060612fe282612121565b9050612fee848261438a565b6000612ff8613b06565b6001600160a01b03166390043a5861300f856124bb565b876040518363ffffffff1660e01b815260040161302d929190615a6f565b60206040518083038186803b15801561304557600080fd5b505afa158015613059573d6000803e3d6000fd5b505050506040513d601f19601f8201168201806040525081019061307d919061546e565b905061308a8186516143f3565b9550613096858361440d565b60006130a66001606f1b88611c60565b90506130b28a826126a8565b6130bb86614476565b955080866000815181106130cb57fe5b6020026020010181815250506130df61387e565b5050505050935093915050565b620f424090565b6001600160a01b03918216600090815260016020908152604080832093909416825291909152205490565b61312a60095482611c23565b6009556040517ff8f9c11ff5f69da8478cee58f9c7465663d787d1a0175fc6a416c772f7a8c64f906124b0908390615b22565b61316960095482611c07565b6009556040517f5a9e84f78f7957cb4ed7478eb0fcad35ee4ecbe2e0f298420b28a3955392573f906124b0908390615b22565b60008080806131ad85606080611b5c565b93506131bc8560206040611b5c565b925060306131cd8660006010611b5c565b901b915060306131df86601080611b5c565b901b90509193509193565b6001600160a01b0381166000908152600b602052604081205460095461085a9190613214906138e2565b612d0e565b60008060306132398461322d576010613230565b60005b87906010611b5c565b901b90508061324c57600091505061097f565b600061325a86606080611b5c565b9050600061326b8760206040611b5c565b90506000818714156132ae576132a76020678ac7230489e800006132a0896132945760e0613297565b60c05b8c906020611b5c565b9190614501565b905061333c565b604051633d3632df60e21b815273__$6670886e635fd86503a30ff6f4e4ebb80f$__9063f4d8cb7c906132e99087908b908b90600401615e8c565b60206040518083038186803b15801561330157600080fd5b505af4158015613315573d6000803e3d6000fd5b505050506040513d601f19601f82011682018060405250810190613339919061546e565b90505b613347818488614547565b98975050505050505050565b6001600160a01b03166000908152600b602052604090205490565b60008061337e8360806005611b5c565b600a0a670de0b6b3a7640000029392505050565b600061097f8383614567565b60007f00000000000000000000000000000000000000000000000000000000000000007f00000000000000000000000000000000000000000000000000000000000000007f000000000000000000000000000000000000000000000000000000000000000061340b614595565b30604051602001613420959493929190615c27565b60405160208183030381529060405280519060200120905090565b6000613446856131ea565b9050613456811515610135611c85565b600061346d8561346861187489613353565b614599565b905061347b818386866145a5565b6001600160a01b0387166000818152600c6020526040908190209290925590517fcad1fdf49cd36960e377075cfe18dcc3aa113e526fbe184544cca2e7115c54f3906134cc90889088908890615ea4565b60405180910390a2505050505050565b600080856001600160a01b03166309b2760f866040518263ffffffff1660e01b815260040161350b9190615d9a565b602060405180830381600087803b15801561352557600080fd5b505af1158015613539573d6000803e3d6000fd5b505050506040513d601f19601f8201168201806040525081019061355d919061546e565b604051633354e3e960e11b81529091506001600160a01b038716906366a9c7d29061359090849088908890600401615ba1565b600060405180830381600087803b1580156135aa57600080fd5b505af11580156135be573d6000803e3d6000fd5b509298975050505050505050565b6135db61010083106064611c85565b613604600182101580156135fd57506135f960ff8461010003611c31565b8211155b6064611c85565b612b9c83821c156101b4611c85565b600061097f613697836001600160a01b031663313ce5676040518163ffffffff1660e01b815260040160206040518083038186803b15801561365457600080fd5b505afa158015613668573d6000803e3d6000fd5b505050506040513d601f19601f8201168201806040525081019061368c9190615888565b60129060ff16611c60565b849060806005611c3d565b6002815110156136b157610fbe565b6000816000815181106136c057fe5b602002602001015190506000600190505b8251811015612b9c5760008382815181106136e857fe5b60200260200101519050613711816001600160a01b0316846001600160a01b0316106065611c85565b91506001016136d1565b815160001990810160209384019081528251909101919092019081529091565b600061374a8484111583611c85565b5050900390565b600073ba1ba1ba1ba1ba1ba1ba1ba1ba1ba1ba1ba1ba1b6137706112a6565b6001600160a01b03161415801561378b575061378b8361479e565b156137b3576137986112a6565b6001600160a01b0316336001600160a01b031614905061085a565b6137bb612dfd565b6001600160a01b0316639be2a8848484306040518463ffffffff1660e01b81526004016137ea93929190615b4e565b60206040518083038186803b15801561380257600080fd5b505afa158015613816573d6000803e3d6000fd5b505050506040513d601f19601f820116820180604052508101906117ce9190615452565b60008284111580613849575081155b1561385657506000611b0d565b600061386286846148b1565b9050838503611b0861387483836143f3565b6301e133806148c9565b61388a600a54426148e9565b600a55565b60008282026138b38415806138ac5750838583816138a957fe5b04145b6003611c85565b6001670de0b6b3a76400006001830304018115150291505092915050565b8015610fbe57610fbe612449611652565b60008060006138f084612b4a565b91509150611b0d82826148f9565b61390a60008383612b9c565b61392461391f826139196108c4565b90611b7a565b614931565b6001600160a01b0382166000908152602081905260409020546139479082611b7a565b6001600160a01b0383166000818152602081905260408082209390935591519091907fddf252ad1be2c89b69c2b068fc378daa952ba7f163c4a11628f55a4df523b3ef90613996908590615b45565b60405180910390a35050565b1c60011690565b62461bcd60e51b600090815260206004526007602452600a808404818106603090810160081b958390069590950190829004918206850160101b01602363ffffff0060e086901c160160181b0190930160c81b60445260e882901c90606490fd5b600061097f838360fe611c76565b600080613a2584846148f9565b90506107a9868683613c30565b60006060613a5d83600081518110613a4657fe5b602002602001015185611c6090919063ffffffff16565b8351600019016020909401938452949293505050565b60095490565b606081516001600160401b0381118015613a9257600080fd5b50604051908082528060200260200182016040528015613abc578160200160208202803683370190505b50905060005b82518110156109c757613ae7838281518110613ada57fe5b6020026020010151614936565b828281518110613af357fe5b6020908102919091010152600101613ac2565b7f000000000000000000000000000000000000000000000000000000000000000090565b7f000000000000000000000000000000000000000000000000000000000000000090565b613b656001600160a01b038316151561019b611c85565b613b7182600083612b9c565b6001600160a01b038216600090815260208190526040902054613b9790826101b261373b565b6001600160a01b038316600090815260208190526040902055613bc561391f82613bbf6108c4565b90614951565b60006001600160a01b0316826001600160a01b03167fddf252ad1be2c89b69c2b068fc378daa952ba7f163c4a11628f55a4df523b3ef836040516139969190615b45565b80820390821002900390565b6000613c2083612d01565b158061097f575061097f82610b83565b6000670de0b6b3a764000082101580613c4857508284145b15613c5457508161097f565b81613c6057508261097f565b82841115613c81576000613c7683858703614567565b8503915061097f9050565b6000613c8f83868603614567565b8501915061097f9050565b6000613cb0613ca883612725565b610166611c85565b600080613cc98760200151613cc4866138e2565b61495f565b915091506000613cd88561277f565b9050613ce48783613392565b965060008089516001811115613cf657fe5b1415613da557613d0a896060015184613392565b60608a0152613d17613b06565b6001600160a01b031663afc4d0db89868c606001518b876040518663ffffffff1660e01b8152600401613d4e959493929190615ed5565b60206040518083038186803b158015613d6657600080fd5b505afa158015613d7a573d6000803e3d6000fd5b505050506040513d601f19601f82011682018060405250810190613d9e919061546e565b9050613e37565b613dad613b06565b6001600160a01b0316637f1ae8a989868c606001518b876040518663ffffffff1660e01b8152600401613de4959493929190615ed5565b60206040518083038186803b158015613dfc57600080fd5b505afa158015613e10573d6000803e3d6000fd5b505050506040513d601f19601f82011682018060405250810190613e34919061546e565b90505b613e44898883600161498e565b600089516001811115613e5357fe5b1415613e64579350611b0d92505050565b613e6e8184614b8e565b945050505050611b0d565b6000613e87613ca883612725565b600080613e9b8760400151613cc4866138e2565b915091506000613eaa8561277f565b9050613eb68783613392565b965060008089516001811115613ec857fe5b1415613f6457613ed6613b06565b6001600160a01b0316630ccd894189868c606001518b876040518663ffffffff1660e01b8152600401613f0d959493929190615ed5565b60206040518083038186803b158015613f2557600080fd5b505afa158015613f39573d6000803e3d6000fd5b505050506040513d601f19601f82011682018060405250810190613f5d919061546e565b9050614009565b613f72896060015184613392565b60608a0152613f7f613b06565b6001600160a01b031663ef2aca7689868c606001518b876040518663ffffffff1660e01b8152600401613fb6959493929190615ed5565b60206040518083038186803b158015613fce57600080fd5b505afa158015613fe2573d6000803e3d6000fd5b505050506040513d601f19601f82011682018060405250810190614006919061546e565b90505b614016898883600061498e565b60008951600181111561402557fe5b141561403557613e6e8184614599565b9350611b0d92505050565b600061404a614e8a565b6140548684614b9a565b905060006140696140648561277f565b614c12565b9050614079868360400151613392565b9550614089858360600151613392565b94506000808851600181111561409b57fe5b1415614163576140b388606001518460400151613392565b606089018190526000906140c79084614567565b90506140d1613b06565b8451602086015160405163063c5da760e11b81526001600160a01b039390931692630c78bb4e9261410b928d928d91908890600401615ed5565b60206040518083038186803b15801561412357600080fd5b505afa158015614137573d6000803e3d6000fd5b505050506040513d601f19601f8201168201806040525081019061415b919061546e565b915050614222565b61417588606001518460600151613392565b60608901526000614184613b06565b8451602086015160608c015160405162d5905160e81b81526001600160a01b03949094169363d5905100936141c2938e9391928e9290600401615ed5565b60206040518083038186803b1580156141da57600080fd5b505afa1580156141ee573d6000803e3d6000fd5b505050506040513d601f19601f82011682018060405250810190614212919061546e565b905061421e8184614c24565b9150505b61422f8884898985614c7b565b60008851600181111561423e57fe5b141561425c57614252818460600151614599565b9350505050611b0d565b614252818460400151614b8e565b61427d64e8d4a5100082101560cb611c85565b610fbe670d2f13f7789f000082111560ca611c85565b600061429d61339e565b82604051602001611265929190615996565b60006142c182516041146101b9611c85565b60208281015160408085015160608601518251600080825295019283905292939092811a916001906142fa908990859088908890615c93565b6020604051602081039080840390855afa15801561431c573d6000803e3d6000fd5b5050604051601f1901519150506001600160a01b038116158015906133475750876001600160a01b0316816001600160a01b0316149450505050509392505050565b60008180602001905181019061085a9190615674565b60608180602001905181019061097f919061568f565b81518151614399908290611b28565b60005b81811015611602576143d48482815181106143b357fe5b60200260200101518483815181106143c757fe5b6020026020010151614567565b8482815181106143e057fe5b602090810291909101015260010161439c565b600082820261097f8415806138ac5750838583816138a957fe5b8151815161441c908290611b28565b60005b818110156116025761445784828151811061443657fe5b602002602001015184838151811061444a57fe5b6020026020010151614c24565b84828151811061446357fe5b602090810291909101015260010161441f565b606081516001016001600160401b038111801561449257600080fd5b506040519080825280602002602001820160405280156144bc578160200160208202803683370190505b50905060005b82518110156109c7578281815181106144d757fe5b60200260200101518282600101815181106144ee57fe5b60209081029190910101526001016144c2565b600061451e600284101580156135fd575060ff8411156064611c85565b6000196001841b01614534818611156064611c85565b61157261454186856143f3565b826148c9565b6000611b0d83858461455b5761456761455f565b61388f5b63ffffffff16565b60008282026145818415806138ac5750838583816138a957fe5b670de0b6b3a7640000815b04949350505050565b4690565b600061097f8383614dd4565b60006145da8315806145d2575067016345785d8a000084101580156145d25750670de0b6b3a76400008411155b610163611c85565b6145f1678ac7230489e80000831115610163611c85565b6146088215806145d2575083831015610163611c85565b600061461f8560206040611ba1858b606080611c3d565b9050614640603084811c906010908190611ba19086908a901c600084611c3d565b9050600073__$6670886e635fd86503a30ff6f4e4ebb80f$__63f4d8cb7c868860016040518463ffffffff1660e01b815260040161468093929190615e8c565b60206040518083038186803b15801561469857600080fd5b505af41580156146ac573d6000803e3d6000fd5b505050506040513d601f19601f820116820180604052508101906146d0919061546e565b9050600073__$6670886e635fd86503a30ff6f4e4ebb80f$__63f4d8cb7c868960006040518463ffffffff1660e01b815260040161471093929190615e8c565b60206040518083038186803b15801561472857600080fd5b505af415801561473c573d6000803e3d6000fd5b505050506040513d601f19601f82011682018060405250810190614760919061546e565b9050613347614779826020678ac7230489e80000614e14565b60e06020611ba16147938783678ac7230489e80000614e14565b889060c06020611c3d565b60006147b063819c70f360e01b611230565b8214806147cb57506147c8635b160f8360e11b611230565b82145b806147e457506147e163de3d2b2d60e01b611230565b82145b806147fd57506147fa633806be4b60e21b611230565b82145b8061481657506148136381788e2b60e01b611230565b82145b8061482f575061482c630793b27760e31b611230565b82145b806148485750614845637b749c4560e01b611230565b82145b80614861575061485e6306946dbf60e31b611230565b82145b8061487a57506148776397bb15c960e01b611230565b82145b806148935750614890632a9a032360e01b611230565b82145b8061085a57506148a963f885a4bb60e01b611230565b909114919050565b600061097f6148c084846143f3565b6148c984614c12565b60006148d88215156004611c85565b8183816148e157fe5b049392505050565b600061097f8383603c6020611c3d565b60008142106149115750670de0b6b3a764000061085a565b8242116149205750600061085a565b828203428490036115728183614dd4565b600255565b6001600160a01b03166000908152600c602052604090205490565b600061097f8383600161373b565b600080600061496d85613353565b90506149798185612d0e565b92506149848161336e565b9150509250929050565b60008082156149db576000865160018111156149a657fe5b146149c15760608601516149bb908690611b7a565b846149d1565b6149cb8585611b7a565b86606001515b9092509050614a1b565b6000865160018111156149ea57fe5b14614a03576149f98585611c60565b8660600151614a15565b6060860151614a13908690611c60565b845b90925090505b606080614a26612074565b915091506060614a35836124bb565b9050614a4982614a4485612121565b61438a565b606083516001600160401b0381118015614a6257600080fd5b50604051908082528060200260200182016040528015614a8c578160200160208202803683370190505b509050600087614aa0578a60400151614aa6565b8a602001515b905060005b8551811015614b0757816001600160a01b0316868281518110614aca57fe5b60200260200101516001600160a01b03161415614aff5786838281518110614aee57fe5b602002602001018181525050614b07565b600101614aab565b5073__$b21b5fdadf799f52ef5daa76c49e71b2c3$__6328e379f588614b2c88613a79565b8786888e6040518763ffffffff1660e01b8152600401614b5196959493929190615dc0565b60006040518083038186803b158015614b6957600080fd5b505af4158015614b7d573d6000803e3d6000fd5b505050505050505050505050505050565b600061097f8383614c24565b614ba2614e8a565b6000614bb18460200151613353565b90506000614bc28560400151613353565b90506000614bcf856138e2565b9050614bdb8382612d0e565b8452614be78282612d0e565b6020850152614bf58361336e565b6040850152614c038261336e565b60608501525091949350505050565b670de0b6b3a764000081810391100290565b6000614c338215156004611c85565b670de0b6b3a76400008302614c65841580614c5e5750670de0b6b3a7640000858381614c5b57fe5b04145b6005611c85565b6001836001830304018115150291505092915050565b6000614c8861128f6122f4565b90506000808088516001811115614c9b57fe5b14614cab57838860600151614cb2565b8760600151845b9150915073__$b21b5fdadf799f52ef5daa76c49e71b2c3$__63874b47826000614cdf8b60200151614936565b86614cea8b88611b7a565b8c516040516001600160e01b031960e088901b168152614d11959493929190600401615d6c565b60006040518083038186803b158015614d2957600080fd5b505af4158015614d3d573d6000803e3d6000fd5b5050505073__$b21b5fdadf799f52ef5daa76c49e71b2c3$__63874b47826001614d6a8b60400151614936565b86614d758a87611c60565b8c602001516040518663ffffffff1660e01b8152600401614d9a959493929190615d6c565b60006040518083038186803b158015614db257600080fd5b505af4158015614dc6573d6000803e3d6000fd5b505050505050505050505050565b6000614de38215156004611c85565b670de0b6b3a76400008302614e0b841580614c5e5750670de0b6b3a7640000858381614c5b57fe5b82818161458c57fe5b6000614e31600284101580156135fd575060ff8411156064611c85565b614e3f828511156064611c85565b6000196001841b01611572614e5486836143f3565b846148c9565b6040805160a081019091528060008152600060208201819052604082018190526060820181905260809091015290565b6040518060800160405280600081526020016000815260200160008152602001600081525090565b803561085a81615f89565b600082601f830112614ecd578081fd5b8135614ee0614edb82615f54565b615f2e565b818152915060208083019084810181840286018201871015614f0157600080fd5b60005b84811015614f29578135614f1781615f89565b84529282019290820190600101614f04565b505050505092915050565b600082601f830112614f44578081fd5b8151614f52614edb82615f54565b818152915060208083019084810181840286018201871015614f7357600080fd5b60005b84811015614f29578151614f8981615f89565b84529282019290820190600101614f76565b600082601f830112614fab578081fd5b8135614fb9614edb82615f54565b818152915060208083019084810181840286018201871015614fda57600080fd5b60005b84811015614f2957813584529282019290820190600101614fdd565b600082601f830112615009578081fd5b8151615017614edb82615f54565b81815291506020808301908481018184028601820187101561503857600080fd5b60005b84811015614f295781518452928201929082019060010161503b565b600082601f830112615067578081fd5b81356001600160401b0381111561507c578182fd5b61508f601f8201601f1916602001615f2e565b91508082528360208285010111156150a657600080fd5b8060208401602084013760009082016020015292915050565b80516004811061085a57600080fd5b80356002811061085a57600080fd5b60006101208083850312156150f0578182fd5b6150f981615f2e565b91505061510683836150ce565b81526151158360208401614eb2565b60208201526151278360408401614eb2565b6040820152606082013560608201526080820135608082015260a082013560a08201526151578360c08401614eb2565b60c08201526151698360e08401614eb2565b60e0820152610100808301356001600160401b0381111561518957600080fd5b61519585828601615057565b82840152505092915050565b6000602082840312156151b2578081fd5b813561097f81615f89565b600080604083850312156151cf578081fd5b82356151da81615f89565b915060208301356151ea81615f89565b809150509250929050565b600080600060608486031215615209578081fd5b833561521481615f89565b9250602084013561522481615f89565b929592945050506040919091013590565b600080600080600080600060e0888a03121561524f578485fd5b873561525a81615f89565b9650602088013561526a81615f89565b95506040880135945060608801359350608088013561528881615fac565b9699959850939692959460a0840135945060c09093013592915050565b600080604083850312156152b7578182fd5b82356152c281615f89565b946020939093013593505050565b600080604083850312156152e2578182fd5b82516001600160401b03808211156152f8578384fd5b61530486838701614f34565b93506020850151915080821115615319578283fd5b5061498485828601614ff9565b6000806000806080858703121561533b578182fd5b84356001600160401b0380821115615351578384fd5b61535d88838901614ebd565b95506020870135915080821115615372578384fd5b61537e88838901614f9b565b94506040870135915080821115615393578384fd5b61539f88838901614f9b565b935060608701359150808211156153b4578283fd5b506153c187828801614f9b565b91505092959194509250565b6000806000606084860312156153e1578081fd5b83516001600160401b03808211156153f7578283fd5b61540387838801614f34565b94506020860151915080821115615418578283fd5b5061542586828701614ff9565b925050604084015190509250925092565b600060208284031215615447578081fd5b813561097f81615f9e565b600060208284031215615463578081fd5b815161097f81615f9e565b60006020828403121561547f578081fd5b5051919050565b600080600080600080600060e0888a0312156154a0578081fd5b8735965060208801356154b281615f89565b955060408801356154c281615f89565b945060608801356001600160401b03808211156154dd578283fd5b6154e98b838c01614f9b565b955060808a0135945060a08a0135935060c08a013591508082111561550c578283fd5b506155198a828b01615057565b91505092959891949750929550565b60008060006060848603121561553c578081fd5b8351925060208401516001600160401b0380821115615559578283fd5b61556587838801614f34565b9350604086015191508082111561557a578283fd5b5061558786828701614ff9565b9150509250925092565b6000602082840312156155a2578081fd5b81356001600160e01b03198116811461097f578182fd5b6000602082840312156155ca578081fd5b815161097f81615f89565b600080600080600060a086880312156155ec578283fd5b85356155f781615f89565b9450602086013561560781615f89565b93506040860135925060608601359150608086013561562581615f89565b809150509295509295909350565b600080600060608486031215615647578081fd5b833561565281615f89565b925060208401359150604084013561566981615f89565b809150509250925092565b600060208284031215615685578081fd5b61097f83836150bf565b600080604083850312156156a1578182fd5b6156ab84846150bf565b915060208301516001600160401b038111156156c5578182fd5b61498485828601614ff9565b600080600080608085870312156156e6578182fd5b84356001600160401b03808211156156fc578384fd5b615708888389016150dd565b9550602087013591508082111561571d578384fd5b5061572a87828801614f9b565b949794965050505060408301359260600135919050565b600080600060608486031215615755578081fd5b83356001600160401b0381111561576a578182fd5b615776868287016150dd565b9660208601359650604090950135949350505050565b60006020828403121561579d578081fd5b5035919050565b600080604083850312156157b6578182fd5b8251915060208301516001600160401b038111156156c5578182fd5b600080600080608085870312156157e7578182fd5b843593506020850135925060408501356001600160401b038082111561580b578384fd5b61539f88838901614ebd565b6000806000806080858703121561582c578182fd5b845193506020850151925060408501519150606085015161584c81615f89565b939692955090935050565b6000806000806080858703121561586c578182fd5b5050823594602084013594506040840135936060013592509050565b600060208284031215615899578081fd5b815161097f81615fac565b6001600160a01b03169052565b6000815180845260208085019450808401835b838110156158e0578151875295820195908201906001016158c4565b509495945050505050565b6000815180845260208085019450808401835b838110156158e05781516001600160a01b0316875295820195908201906001016158fe565b60008151808452815b818110156159485760208185018101518683018201520161592c565b818111156159595782602083870101525b50601f01601f19169290920160200192915050565b9182526001600160e01b031916602082015260240190565b6000828483379101908152919050565b61190160f01b81526002810192909252602282015260420190565b6001600160a01b0391909116815260200190565b602080825282518282018190526000919060409081850190868401855b82811015615a4f5781518051600481106159f857fe5b855280870151615a0a888701826158a4565b508581015186860152606080820151615a25828801826158a4565b505060809081015190615a3a868201836158a4565b505060a09390930192908501906001016159e2565b5091979650505050505050565b60006020825261097f60208301846158b1565b600060408252615a8260408301856158b1565b828103602084015261157281856158b1565b6000610100808352615aa88184018c6158b1565b90508281036020840152615abc818b615923565b90508860408401528281036060840152615ad681896158b1565b90508281036080840152615aea81886158b1565b90508560a084015282810360c0840152615b0481866158b1565b91505060018060a01b03831660e08301529998505050505050505050565b901515815260200190565b92151583526020830191909152604082015260600190565b90815260200190565b9283526001600160a01b03918216602084015216604082015260600190565b9586526001600160a01b0394851660208701529290931660408501526060840152608083019190915260a082015260c00190565b60006060820185835260206060818501528186518084526080860191508288019350845b81811015615be957615bd78551615f73565b83529383019391830191600101615bc5565b505084810360408601528551808252908201925081860190845b818110156135be57615c158351615f73565b85529383019391830191600101615c03565b9485526020850193909352604084019190915260608301526001600160a01b0316608082015260a00190565b600084825260606020830152615c6c6060830185615923565b9050826040830152949350505050565b9182526001600160a01b0316602082015260400190565b93845260ff9290921660208401526040830152606082015260800190565b600061010060018060a01b03808c1684528a6020850152896040850152816060850152615ce08285018a6158eb565b91508382036080850152615cf482896158b1565b96811660a08501529490941660c08301525060e001525095945050505050565b600060018060a01b03808a16835288602084015287604084015260e06060840152615d4260e08401886158eb565b8381036080850152615d5481886158b1565b9590911660a0840152505060c0015295945050505050565b60a08101615d7987615f7f565b95815260208101949094526040840192909252606083015260809091015290565b60208101615da783615f7f565b91905290565b60006020825261097f6020830184615923565b600087825260c06020830152615dd960c08301886158b1565b8281036040840152615deb81886158b1565b90508281036060840152615dff81876158b1565b90508281036080840152615e1381866158b1565b91505082151560a0830152979650505050505050565b600083825260406020830152611b0d60408301846158b1565b918252602082015260400190565b600085825284602083015260806040830152615e6f60808301856158b1565b8281036060840152615e8181856158b1565b979650505050505050565b92835260208301919091521515604082015260600190565b9283526020830191909152604082015260600190565b93845260208401929092526040830152606082015260800190565b948552602085019390935260408401919091526060830152608082015260a00190565b958652602086019490945260408501929092526060840152608083015260a082015260c00190565b60ff91909116815260200190565b6040518181016001600160401b0381118282101715615f4c57600080fd5b604052919050565b60006001600160401b03821115615f69578081fd5b5060209081020190565b6001600160a01b031690565b60038110610fbe57fe5b6001600160a01b0381168114610fbe57600080fd5b8015158114610fbe57600080fd5b60ff81168114610fbe57600080fdfea2646970667358221220567d78860fb5e32a44f1b7dcf39abc28fc1211245854270ff7f80064c0764ccb64736f6c63430007010033608060405234801561001057600080fd5b50612f6d806100206000396000f3fe608060405234801561001057600080fd5b50600436106101165760003560e01c8063588e1b44116100a2578063afc4d0db11610071578063afc4d0db1461103d578063b540624d14611072578063d59051001461121c578063ef2aca7614611251578063f442dbc41461128657610116565b8063588e1b4414610c455780637351a78614610def5780637f1ae8a914610ee557806390043a5814610f1a57610116565b8063120c0c63116100e9578063120c0c63146104d45780631b2db0ea1461070a5780632ac71a3e146108385780633d0b05e914610a6e5780634c888cbb14610c2257610116565b806303a5b64b1461011b578063098e0189146102a45780630c78bb4e146104585780630ccd89411461049f575b600080fd5b6102496004803603606081101561013157600080fd5b810190602081018135600160201b81111561014b57600080fd5b82018360208201111561015d57600080fd5b803590602001918460208302840111600160201b8311171561017e57600080fd5b91908080602002602001604051908101604052809392919081815260200183836020028082843760009201919091525092958435959094909350604081019250602001359050600160201b8111156101d557600080fd5b8201836020820111156101e757600080fd5b803590602001918460018302840111600160201b8311171561020857600080fd5b91908080601f01602080910402602001604051908101604052809392919081815260200183838082843760009201919091525092955061132c945050505050565b6040518083815260200180602001828103825283818151815260200191508051906020019060200280838360005b8381101561028f578181015183820152602001610277565b50505050905001935050505060405180910390f35b610249600480360360a08110156102ba57600080fd5b810190602081018135600160201b8111156102d457600080fd5b8201836020820111156102e657600080fd5b803590602001918460208302840111600160201b8311171561030757600080fd5b9190808060200260200160405190810160405280939291908181526020018383602002808284376000920191909152509295949360208101935035915050600160201b81111561035657600080fd5b82018360208201111561036857600080fd5b803590602001918460208302840111600160201b8311171561038957600080fd5b9190808060200260200160405190810160405280939291908181526020018383602002808284376000920191909152509295843595602086013595919450925060608101915060400135600160201b8111156103e457600080fd5b8201836020820111156103f657600080fd5b803590602001918460018302840111600160201b8311171561041757600080fd5b91908080601f016020809104026020016040519081016040528093929190818152602001838380828437600092019190915250929550611347945050505050565b61048d600480360360a081101561046e57600080fd5b5080359060208101359060408101359060608101359060800135611366565b60408051918252519081900360200190f35b61048d600480360360a08110156104b557600080fd5b5080359060208101359060408101359060608101359060800135611381565b610249600480360360c08110156104ea57600080fd5b810190602081018135600160201b81111561050457600080fd5b82018360208201111561051657600080fd5b803590602001918460208302840111600160201b8311171561053757600080fd5b9190808060200260200160405190810160405280939291908181526020018383602002808284376000920191909152509295949360208101935035915050600160201b81111561058657600080fd5b82018360208201111561059857600080fd5b803590602001918460208302840111600160201b831117156105b957600080fd5b9190808060200260200160405190810160405280939291908181526020018383602002808284376000920191909152509295949360208101935035915050600160201b81111561060857600080fd5b82018360208201111561061a57600080fd5b803590602001918460208302840111600160201b8311171561063b57600080fd5b9190808060200260200160405190810160405280939291908181526020018383602002808284376000920191909152509295843595602086013595919450925060608101915060400135600160201b81111561069657600080fd5b8201836020820111156106a857600080fd5b803590602001918460018302840111600160201b831117156106c957600080fd5b91908080601f016020809104026020016040519081016040528093929190818152602001838380828437600092019190915250929550611390945050505050565b6102496004803603606081101561072057600080fd5b810190602081018135600160201b81111561073a57600080fd5b82018360208201111561074c57600080fd5b803590602001918460208302840111600160201b8311171561076d57600080fd5b91908080602002602001604051908101604052809392919081815260200183836020028082843760009201919091525092958435959094909350604081019250602001359050600160201b8111156107c457600080fd5b8201836020820111156107d657600080fd5b803590602001918460018302840111600160201b831117156107f757600080fd5b91908080601f0160208091040260200160405190810160405280939291908181526020018383808284376000920191909152509295506113b1945050505050565b610249600480360360c081101561084e57600080fd5b810190602081018135600160201b81111561086857600080fd5b82018360208201111561087a57600080fd5b803590602001918460208302840111600160201b8311171561089b57600080fd5b9190808060200260200160405190810160405280939291908181526020018383602002808284376000920191909152509295949360208101935035915050600160201b8111156108ea57600080fd5b8201836020820111156108fc57600080fd5b803590602001918460208302840111600160201b8311171561091d57600080fd5b9190808060200260200160405190810160405280939291908181526020018383602002808284376000920191909152509295949360208101935035915050600160201b81111561096c57600080fd5b82018360208201111561097e57600080fd5b803590602001918460208302840111600160201b8311171561099f57600080fd5b9190808060200260200160405190810160405280939291908181526020018383602002808284376000920191909152509295843595602086013595919450925060608101915060400135600160201b8111156109fa57600080fd5b820183602082011115610a0c57600080fd5b803590602001918460018302840111600160201b83111715610a2d57600080fd5b91908080601f0160208091040260200160405190810160405280939291908181526020018383808284376000920191909152509295506113c0945050505050565b610249600480360360a0811015610a8457600080fd5b810190602081018135600160201b811115610a9e57600080fd5b820183602082011115610ab057600080fd5b803590602001918460208302840111600160201b83111715610ad157600080fd5b9190808060200260200160405190810160405280939291908181526020018383602002808284376000920191909152509295949360208101935035915050600160201b811115610b2057600080fd5b820183602082011115610b3257600080fd5b803590602001918460208302840111600160201b83111715610b5357600080fd5b9190808060200260200160405190810160405280939291908181526020018383602002808284376000920191909152509295843595602086013595919450925060608101915060400135600160201b811115610bae57600080fd5b820183602082011115610bc057600080fd5b803590602001918460018302840111600160201b83111715610be157600080fd5b91908080601f0160208091040260200160405190810160405280939291908181526020018383808284376000920191909152509295506113d2945050505050565b61048d60048036036040811015610c3857600080fd5b50803590602001356113e3565b61048d600480360360a0811015610c5b57600080fd5b810190602081018135600160201b811115610c7557600080fd5b820183602082011115610c8757600080fd5b803590602001918460208302840111600160201b83111715610ca857600080fd5b9190808060200260200160405190810160405280939291908181526020018383602002808284376000920191909152509295949360208101935035915050600160201b811115610cf757600080fd5b820183602082011115610d0957600080fd5b803590602001918460208302840111600160201b83111715610d2a57600080fd5b9190808060200260200160405190810160405280939291908181526020018383602002808284376000920191909152509295949360208101935035915050600160201b811115610d7957600080fd5b820183602082011115610d8b57600080fd5b803590602001918460208302840111600160201b83111715610dac57600080fd5b91908080602002602001604051908101604052809392919081815260200183836020028082843760009201919091525092955050823593505050602001356113f8565b610e9560048036036060811015610e0557600080fd5b810190602081018135600160201b811115610e1f57600080fd5b820183602082011115610e3157600080fd5b803590602001918460208302840111600160201b83111715610e5257600080fd5b9190808060200260200160405190810160405280939291908181526020018383602002808284376000920191909152509295505082359350505060200135611407565b60408051602080825283518183015283519192839290830191858101910280838360005b83811015610ed1578181015183820152602001610eb9565b505050509050019250505060405180910390f35b61048d600480360360a0811015610efb57600080fd5b508035906020810135906040810135906060810135906080013561141c565b61048d60048036036040811015610f3057600080fd5b810190602081018135600160201b811115610f4a57600080fd5b820183602082011115610f5c57600080fd5b803590602001918460208302840111600160201b83111715610f7d57600080fd5b9190808060200260200160405190810160405280939291908181526020018383602002808284376000920191909152509295949360208101935035915050600160201b811115610fcc57600080fd5b820183602082011115610fde57600080fd5b803590602001918460208302840111600160201b83111715610fff57600080fd5b91908080602002602001604051908101604052809392919081815260200183836020028082843760009201919091525092955061142b945050505050565b61048d600480360360a081101561105357600080fd5b5080359060208101359060408101359060608101359060800135611437565b61048d600480360360a081101561108857600080fd5b810190602081018135600160201b8111156110a257600080fd5b8201836020820111156110b457600080fd5b803590602001918460208302840111600160201b831117156110d557600080fd5b9190808060200260200160405190810160405280939291908181526020018383602002808284376000920191909152509295949360208101935035915050600160201b81111561112457600080fd5b82018360208201111561113657600080fd5b803590602001918460208302840111600160201b8311171561115757600080fd5b9190808060200260200160405190810160405280939291908181526020018383602002808284376000920191909152509295949360208101935035915050600160201b8111156111a657600080fd5b8201836020820111156111b857600080fd5b803590602001918460208302840111600160201b831117156111d957600080fd5b9190808060200260200160405190810160405280939291908181526020018383602002808284376000920191909152509295505082359350505060200135611446565b61048d600480360360a081101561123257600080fd5b5080359060208101359060408101359060608101359060800135611455565b61048d600480360360a081101561126757600080fd5b5080359060208101359060408101359060608101359060800135611464565b610e956004803603606081101561129c57600080fd5b810190602081018135600160201b8111156112b657600080fd5b8201836020820111156112c857600080fd5b803590602001918460208302840111600160201b831117156112e957600080fd5b9190808060200260200160405190810160405280939291908181526020018383602002808284376000920191909152509295505082359350505060200135611473565b6000606061133b858585611480565b91509150935093915050565b6000606061135887878787876114a4565b915091509550959350505050565b6000611375868686868661156d565b90505b95945050505050565b600061137586868686866115e8565b600060606113a28888888888886116a5565b91509150965096945050505050565b6000606061133b8585856116fe565b600060606113a2888888888888611718565b600060606113588787878787611761565b60006113ef83836117b8565b90505b92915050565b600061137586868686866117fd565b606061141484838561193b565b949350505050565b600061137586868686866119d4565b60006113ef8383611a6a565b60006113758686868686611adc565b60006113758686868686611beb565b60006113758686868686611d00565b60006113758686868686611d76565b6060611414848385611e52565b6000606061148d83611ee2565b915061149a85858461193b565b9050935093915050565b600060606000806114b485611f04565b915091506114c6895182106064611f32565b60006114fb8a83815181106114d757fe5b60200260200101518a84815181106114eb57fe5b6020026020010151858b8b6119d4565b905060608a5167ffffffffffffffff8111801561151757600080fd5b50604051908082528060200260200182016040528015611541578160200160208202803683370190505b5090508181848151811061155157fe5b6020908102919091010152929a92995091975050505050505050565b600061158f61158487670429d069189e0000611f44565b831115610130611f32565b600061159b8784611f7c565b905060006115a98883611f8e565b905060006115b78887611fe5565b905060006115c58383612025565b90506115da6115d3826120ca565b8990611f44565b9a9950505050505050505050565b6000806115ff846115f981886120dc565b90611f8e565b90506116186709b6e64a8ec60000821015610132611f32565b600061163661162f670de0b6b3a764000089611fe5565b8390612025565b9050600061164d611646836120ca565b8a90611f44565b9050600061166461165d8a6120ca565b83906120f2565b9050600061167283836120dc565b90506000611689611682896120ca565b84906120f2565b90506116958282611f7c565b9c9b505050505050505050505050565b600060608060006116b58561212a565b915091506116c58a5183516121e5565b6116cf82896121f2565b60006116de8b8b858b8b611beb565b90506116ee8282101560d0611f32565b9a91995090975050505050505050565b6000606061170b83611ee2565b915061149a858584611e52565b600060608060006117288561212a565b9150915061173882518b516121e5565b61174282896121f2565b60006117518b8b858b8b6117fd565b90506116ee8282111560cf611f32565b6000606060008061177185611f04565b91509150611783895182106064611f32565b60006114fb8a838151811061179457fe5b60200260200101518a84815181106117a857fe5b6020026020010151858b8b6115e8565b6000806117df6117d0670de0b6b3a7640000856120dc565b670de0b6b3a764000090611fe5565b90506114146117f682670de0b6b3a76400006120dc565b8590611f44565b60006060845167ffffffffffffffff8111801561181957600080fd5b50604051908082528060200260200182016040528015611843578160200160208202803683370190505b5090506000805b8851811015611908576118a389828151811061186257fe5b60200260200101516115f989848151811061187957fe5b60200260200101518c858151811061188d57fe5b60200260200101516120dc90919063ffffffff16565b8382815181106118af57fe5b6020026020010181815250506118fe6118f78983815181106118cd57fe5b60200260200101518584815181106118e157fe5b60200260200101516120f290919063ffffffff16565b8390611f7c565b915060010161184a565b50600061191989898986868a612261565b905061192e611927826120ca565b87906120f2565b9998505050505050505050565b606060006119498385611f8e565b9050845167ffffffffffffffff8111801561196357600080fd5b5060405190808252806020026020018201604052801561198d578160200160208202803683370190505b50915060005b85518110156119cb576119ac828783815181106118e157fe5b8382815181106119b857fe5b6020908102919091010152600101611993565b50509392505050565b6000806119e5846115f98188611f7c565b90506119fe6729a2241af62c0000821115610133611f32565b6000611a1561162f670de0b6b3a764000089611f8e565b90506000611a35611a2e83670de0b6b3a76400006120dc565b8a906120f2565b90506000611a4561165d8a6120ca565b90506000611a5383836120dc565b90506000611689611a63896120ca565b8490611f8e565b670de0b6b3a764000060005b8351811015611acc57611ac2611abb858381518110611a9157fe5b6020026020010151858481518110611aa557fe5b602002602001015161237890919063ffffffff16565b8390611f44565b9150600101611a76565b506113f260008211610137611f32565b60008080611af488611aee8189611f7c565b90611fe5565b90506000611b14611b04896120ca565b611b0e848b611f44565b90611f7c565b905080821115611b87576000670de0b6b3a76400008211611b36576000611b4b565b611b4b8a670de0b6b3a763ffff198401611f44565b90506000611b5989836120dc565b90506000611b6782896120f2565b9050611b7d611b7683836120dc565b8490611f7c565b9550505050611b9b565b86925082611b9b5760009350505050611378565b5060009050611bae88611aee8185611f7c565b90506000611bbc8289612378565b90506000670de0b6b3a76400008211611bd65760006115da565b6115da87670de0b6b3a763ffff198401611f44565b60006060845167ffffffffffffffff81118015611c0757600080fd5b50604051908082528060200260200182016040528015611c31578160200160208202803683370190505b5090506000805b8851811015611cef57611c91898281518110611c5057fe5b6020026020010151611aee898481518110611c6757fe5b60200260200101518c8581518110611c7b57fe5b6020026020010151611f7c90919063ffffffff16565b838281518110611c9d57fe5b602002602001018181525050611ce56118f7898381518110611cbb57fe5b6020026020010151858481518110611ccf57fe5b6020026020010151611f4490919063ffffffff16565b9150600101611c38565b506000611bbc89898986868a612411565b6000611d22611d1785670429d069189e0000611f44565b831115610131611f32565b6000611d38611d3186856120dc565b8690611f8e565b90506000611d468588611f8e565b90506000611d548383612025565b90506000611d6a82670de0b6b3a76400006120dc565b90506115da8a826120f2565b600080611d87876115f981886120dc565b90506000611da1611d97886120ca565b611b0e848a6120f2565b9050600082821115611dfd576000611dc2611dbb846120ca565b8b90611f44565b90506000611dd089836120dc565b90506000611de7611de0896120ca565b8390611f8e565b9050611df38382611f7c565b9350505050611e10565b508580611e105760009350505050611378565b6000611e208a611aee81856120dc565b90506000611e2e828b612378565b9050611e43611e3c826120ca565b89906120f2565b9b9a5050505050505050505050565b60606000611e608385611fe5565b9050845167ffffffffffffffff81118015611e7a57600080fd5b50604051908082528060200260200182016040528015611ea4578160200160208202803683370190505b50915060005b85518110156119cb57611ec382878381518110611ccf57fe5b838281518110611ecf57fe5b6020908102919091010152600101611eaa565b6000818060200190516040811015611ef957600080fd5b506020015192915050565b600080828060200190516060811015611f1c57600080fd5b5060208101516040909101519094909350915050565b81611f4057611f408161251d565b5050565b6000828202611f68841580611f61575083858381611f5e57fe5b04145b6003611f32565b670de0b6b3a7640000815b04949350505050565b60008282016113ef8482101583611f32565b6000611f9d8215156004611f32565b670de0b6b3a76400008302611fcf841580611fc85750670de0b6b3a7640000858381611fc557fe5b04145b6005611f32565b6001836001830304018115150291505092915050565b6000611ff48215156004611f32565b670de0b6b3a7640000830261201c841580611fc85750670de0b6b3a7640000858381611fc557fe5b828181611f7357fe5b6000670de0b6b3a764000082141561203e5750816113f2565b671bc16d674ec8000082141561205f5761205883846120f2565b90506113f2565b673782dace9d90000082141561208f57600061207b84856120f2565b905061208781826120f2565b9150506113f2565b600061209b8484612530565b905060006120b56120ae836127106120f2565b6001611f7c565b90506120c18282611f7c565b925050506113f2565b670de0b6b3a764000081810391100290565b60006120ec838311156001611f32565b50900390565b600082820261210c841580611f61575083858381611f5e57fe5b6001670de0b6b3a76400006001830304018115150291505092915050565b6060600082806020019051606081101561214357600080fd5b815160208301805160405192949293830192919084600160201b82111561216957600080fd5b90830190602082018581111561217e57600080fd5b82518660208202830111600160201b8211171561219a57600080fd5b82525081516020918201928201910280838360005b838110156121c75781810151838201526020016121af565b50505050919091016040525060200151929792965091945050505050565b611f408183146067611f32565b815181516122019082906121e5565b60005b8181101561225b5761223c84828151811061221b57fe5b602002602001015184838151811061222f57fe5b6020026020010151611f44565b84828151811061224857fe5b6020908102919091010152600101612204565b50505050565b670de0b6b3a764000060005b875181101561236d57600085828151811061228457fe5b60200260200101518511156122e75760006122ad6122a1876120ca565b8b8581518110611ccf57fe5b905060006122c1828a868151811061188d57fe5b905060006122d1611de0886120ca565b90506122dd8382611f7c565b935050505061230c565b8682815181106122f357fe5b60200260200101519050806000141561230c5750612365565b60006123358a848151811061231d57fe5b6020026020010151611aee848d878151811061188d57fe5b90506123606117f68a858151811061234957fe5b60200260200101518361237890919063ffffffff16565b935050505b60010161226d565b509695505050505050565b6000670de0b6b3a76400008214156123915750816113f2565b671bc16d674ec800008214156123ab576120588384611f44565b673782dace9d9000008214156123d35760006123c78485611f44565b90506120878182611f44565b60006123df8484612530565b905060006123f26120ae836127106120f2565b905080821015612407576000925050506113f2565b6120c182826120dc565b670de0b6b3a764000060005b875181101561236d5760008486838151811061243557fe5b602002602001015111156124ae576000670de0b6b3a7640000861161245b576000612475565b612475670de0b6b3a764000087038b8581518110611ccf57fe5b905060006124938661248d848c888151811061188d57fe5b906120f2565b90506124a5818a868151811061188d57fe5b925050506124d3565b8682815181106124ba57fe5b6020026020010151905080600014156124d35750612515565b60006124fc8a84815181106124e457fe5b6020026020010151611aee848d8781518110611c7b57fe5b90506125106117f68a858151811061234957fe5b935050505b60010161241d565b61252d816210905360ea1b61263a565b50565b6000816125465750670de0b6b3a76400006113f2565b82612553575060006113f2565b61256360ff84901c156006611f32565b82612589770bce5086492111aea88f4bb1ca6bcf584181ea8059f7653284106007611f32565b826000670c7d713b49da0000831380156125aa5750670f43fc2c04ee000083125b156125e15760006125ba8461269b565b9050670de0b6b3a764000080820784020583670de0b6b3a7640000830502019150506125ef565b816125eb846127bb565b0290505b670de0b6b3a76400009005612627680238fd42c5cf03ffff198212801590612620575068070c1cc73b00c800008213155b6008611f32565b61263081612b5a565b9695505050505050565b62461bcd60e51b600090815260206004526007602452600a808404818106603090810160081b958390069590950190829004918206850160101b01602363ffffff0060e086901c160160181b0190930160c81b60445260e882901c90606490fd5b670de0b6b3a7640000026000806a0c097ce7bc90715b34b9f160241b808401906ec097ce7bc90715b34b9f0fffffffff19850102816126d657fe5b05905060006a0c097ce7bc90715b34b9f160241b82800205905081806a0c097ce7bc90715b34b9f160241b81840205915060038205016a0c097ce7bc90715b34b9f160241b82840205915060058205016a0c097ce7bc90715b34b9f160241b82840205915060078205016a0c097ce7bc90715b34b9f160241b82840205915060098205016a0c097ce7bc90715b34b9f160241b828402059150600b8205016a0c097ce7bc90715b34b9f160241b828402059150600d8205016a0c097ce7bc90715b34b9f160241b828402059150600f820581019050806002029450505050505b919050565b6000670de0b6b3a76400008212156127f7576127ed826a0c097ce7bc90715b34b9f160241b816127e757fe5b056127bb565b60000390506127b6565b60007e1600ef3172e58d2e933ec884fde10064c63b5372d805e203c0000000000000831261284857770195e54c5dd42177f53a27172fa9ec630262827000000000830592506806f05b59d3b2000000015b73011798004d755d3c8bc8e03204cf44619e0000008312612880576b1425982cf597cd205cef7380830592506803782dace9d9000000015b606492830292026e01855144814a7ff805980ff008400083126128c8576e01855144814a7ff805980ff008400068056bc75e2d63100000840205925068ad78ebc5ac62000000015b6b02df0ab5a80a22c61ab5a7008312612903576b02df0ab5a80a22c61ab5a70068056bc75e2d6310000084020592506856bc75e2d631000000015b693f1fce3da636ea5cf850831261293a57693f1fce3da636ea5cf85068056bc75e2d631000008402059250682b5e3af16b18800000015b690127fa27722cc06cc5e2831261297157690127fa27722cc06cc5e268056bc75e2d6310000084020592506815af1d78b58c400000015b68280e60114edb805d0383126129a65768280e60114edb805d0368056bc75e2d631000008402059250680ad78ebc5ac6200000015b680ebc5fb4174612111083126129d157680ebc5fb4174612111068056bc75e2d631000009384020592015b6808f00f760a4b2db55d8312612a06576808f00f760a4b2db55d68056bc75e2d6310000084020592506802b5e3af16b1880000015b6806f5f17757889379378312612a3b576806f5f177578893793768056bc75e2d63100000840205925068015af1d78b58c40000015b6806248f33704b2866038312612a6f576806248f33704b28660368056bc75e2d63100000840205925067ad78ebc5ac620000015b6805c548670b9510e7ac8312612aa3576805c548670b9510e7ac68056bc75e2d6310000084020592506756bc75e2d6310000015b600068056bc75e2d63100000840168056bc75e2d631000008086030281612ac657fe5b059050600068056bc75e2d63100000828002059050818068056bc75e2d63100000818402059150600382050168056bc75e2d63100000828402059150600582050168056bc75e2d63100000828402059150600782050168056bc75e2d63100000828402059150600982050168056bc75e2d63100000828402059150600b820501600202606485820105979650505050505050565b6000612b89680238fd42c5cf03ffff198312158015612b82575068070c1cc73b00c800008313155b6009611f32565b6000821215612bbc57612b9e82600003612b5a565b6a0c097ce7bc90715b34b9f160241b81612bb457fe5b0590506127b6565b60006806f05b59d3b20000008312612bfc57506806f05b59d3b1ffffff1990910190770195e54c5dd42177f53a27172fa9ec630262827000000000612c32565b6803782dace9d90000008312612c2e57506803782dace9d8ffffff19909101906b1425982cf597cd205cef7380612c32565b5060015b6064929092029168056bc75e2d6310000068ad78ebc5ac620000008412612c825768ad78ebc5ac61ffffff199093019268056bc75e2d631000006e01855144814a7ff805980ff008400082020590505b6856bc75e2d6310000008412612cbe576856bc75e2d630ffffff199093019268056bc75e2d631000006b02df0ab5a80a22c61ab5a70082020590505b682b5e3af16b188000008412612cf857682b5e3af16b187fffff199093019268056bc75e2d63100000693f1fce3da636ea5cf85082020590505b6815af1d78b58c4000008412612d32576815af1d78b58c3fffff199093019268056bc75e2d63100000690127fa27722cc06cc5e282020590505b680ad78ebc5ac62000008412612d6b57680ad78ebc5ac61fffff199093019268056bc75e2d6310000068280e60114edb805d0382020590505b68056bc75e2d631000008412612da45768056bc75e2d630fffff199093019268056bc75e2d63100000680ebc5fb4174612111082020590505b6802b5e3af16b18800008412612ddd576802b5e3af16b187ffff199093019268056bc75e2d631000006808f00f760a4b2db55d82020590505b68015af1d78b58c400008412612e165768015af1d78b58c3ffff199093019268056bc75e2d631000006806f5f177578893793782020590505b68056bc75e2d631000008481019085906002908280020505918201919050600368056bc75e2d631000008783020505918201919050600468056bc75e2d631000008783020505918201919050600568056bc75e2d631000008783020505918201919050600668056bc75e2d631000008783020505918201919050600768056bc75e2d631000008783020505918201919050600868056bc75e2d631000008783020505918201919050600968056bc75e2d631000008783020505918201919050600a68056bc75e2d631000008783020505918201919050600b68056bc75e2d631000008783020505918201919050600c68056bc75e2d631000008783020505918201919050606468056bc75e2d6310000084840205850205969550505050505056fea26469706673582212201ddd9037a2e7ddc649debfbd2bea0b49e3532636e101089a796690ef03952e3964736f6c6343000701003360a060405234801561001057600080fd5b5060405161092c38038061092c83398101604081905261002f91610044565b60601b6001600160601b031916608052610072565b600060208284031215610055578081fd5b81516001600160a01b038116811461006b578182fd5b9392505050565b60805160601c61089d61008f6000398061025e525061089d6000f3fe608060405234801561001057600080fd5b50600436106100365760003560e01c80632787a2871461003b5780638d928af814610065575b600080fd5b61004e61004936600461067b565b61007a565b60405161005c9291906107be565b60405180910390f35b61006d61025c565b60405161005c91906107aa565b60006060600061008861025c565b90506060816001600160a01b031663f94d4668886040518263ffffffff1660e01b81526004016100b8919061078a565b60006040518083038186803b1580156100d057600080fd5b505afa1580156100e4573d6000803e3d6000fd5b505050506040513d6000823e601f3d908101601f1916820160405261010c91908101906105af565b505090506060815167ffffffffffffffff8111801561012a57600080fd5b50604051908082528060200260200182016040528015610154578160200160208202803683370190505b50905060005b825181101561021c576000846001600160a01b031663b05f8e488b86858151811061018157fe5b60200260200101516040518363ffffffff1660e01b81526004016101a6929190610793565b60806040518083038186803b1580156101be57600080fd5b505afa1580156101d2573d6000803e3d6000fd5b505050506040513d601f19601f820116820180604052508101906101f69190610718565b50505090508083838151811061020857fe5b60209081029190910101525060010161015a565b5060006102298783610280565b92509050610236886102c1565b95506102438282886102de565b945061024e8561038d565b945050505050935093915050565b7f000000000000000000000000000000000000000000000000000000000000000090565b600060606102ab8360008151811061029457fe5b60200260200101518561041f90919063ffffffff16565b8351600019016020909401938452949293505050565b6000818060200190518101906102d79190610758565b9392505050565b606060006102ec8385610435565b9050845167ffffffffffffffff8111801561030657600080fd5b50604051908082528060200260200182016040528015610330578160200160208202803683370190505b50915060005b8551811015610384576103658287838151811061034f57fe5b602002602001015161048890919063ffffffff16565b83828151811061037157fe5b6020908102919091010152600101610336565b50509392505050565b6060815160010167ffffffffffffffff811180156103aa57600080fd5b506040519080825280602002602001820160405280156103d4578160200160208202803683370190505b50905060005b8251811015610419578281815181106103ef57fe5b602002602001015182826001018151811061040657fe5b60209081029190910101526001016103da565b50919050565b600061042f8383111560016104bb565b50900390565b600061044482151560046104bb565b670de0b6b3a7640000830261047684158061046f5750670de0b6b3a764000085838161046c57fe5b04145b60056104bb565b82818161047f57fe5b04949350505050565b60008282026104ac8415806104a55750838583816104a257fe5b04145b60036104bb565b670de0b6b3a76400008161047f565b816104c9576104c9816104cd565b5050565b6104dd816210905360ea1b6104e0565b50565b62461bcd60e51b600090815260206004526007602452600a808404818106603090810160081b958390069590950190829004918206850160101b01602363ffffff0060e086901c160160181b0190930160c81b60445260e882901c90606490fd5b600082601f830112610551578081fd5b815161056461055f82610832565b61080b565b81815291506020808301908481018184028601820187101561058557600080fd5b60005b848110156105a457815184529282019290820190600101610588565b505050505092915050565b6000806000606084860312156105c3578283fd5b835167ffffffffffffffff808211156105da578485fd5b818601915086601f8301126105ed578485fd5b81516105fb61055f82610832565b80828252602080830192508086018b82838702890101111561061b57898afd5b8996505b8487101561064657805161063281610852565b84526001969096019592810192810161061f565b50890151909750935050508082111561065d578384fd5b5061066a86828701610541565b925050604084015190509250925092565b60008060006060848603121561068f578283fd5b8335925060208085013567ffffffffffffffff808211156106ae578485fd5b818701915087601f8301126106c1578485fd5b8135818111156106cf578586fd5b6106e1601f8201601f1916850161080b565b915080825288848285010111156106f6578586fd5b8084840185840137810190920193909352929592945050506040919091013590565b6000806000806080858703121561072d578081fd5b845193506020850151925060408501519150606085015161074d81610852565b939692955090935050565b6000806040838503121561076a578182fd5b825160ff8116811461077a578283fd5b6020939093015192949293505050565b90815260200190565b9182526001600160a01b0316602082015260400190565b6001600160a01b0391909116815260200190565b60006040820184835260206040818501528185518084526060860191508287019350845b818110156107fe578451835293830193918301916001016107e2565b5090979650505050505050565b60405181810167ffffffffffffffff8111828210171561082a57600080fd5b604052919050565b600067ffffffffffffffff821115610848578081fd5b5060209081020190565b6001600160a01b03811681146104dd57600080fdfea26469706673582212201cd386306e752f5d88c4aa73eda80c76ab08087a6900b32fb784ac2a9a3fe65064736f6c63430007010033",
  "linkReferences": {
    "contracts/lib/CircuitBreakerLib.sol": {
      "CircuitBreakerLib": [
        {
          "length": 20,
          "start": 25472
        },
        {
          "length": 20,
          "start": 30473
        },
        {
          "length": 20,
          "start": 30617
        }
      ]
    },
    "contracts/managed/ManagedPoolAddRemoveTokenLib.sol": {
      "ManagedPoolAddRemoveTokenLib": [
        {
          "length": 20,
          "start": 15101
        },
        {
          "length": 20,
          "start": 17609
        }
      ]
    },
    "contracts/managed/ManagedPoolAmmLib.sol": {
      "ManagedPoolAmmLib": [
        {
          "length": 20,
          "start": 22688
        },
        {
          "length": 20,
          "start": 23806
        },
        {
          "length": 20,
          "start": 31693
        },
        {
          "length": 20,
          "start": 32123
        },
        {
          "length": 20,
          "start": 32262
        }
      ]
    }
  },
  "deployedLinkReferences": {}
}