{"contracts/test/TestCoordinator.sol":{"TestCoordinator":{"abi":[{"inputs":[{"internalType":"contract IAuthorizerAdaptorEntrypoint","name":"adaptorEntrypoint","type":"address"}],"stateMutability":"nonpayable","type":"constructor"},{"anonymous":false,"inputs":[],"name":"AfterLastStageHookExecuted","type":"event"},{"anonymous":false,"inputs":[],"name":"RegisterStagesHookCalled","type":"event"},{"anonymous":false,"inputs":[{"indexed":false,"internalType":"uint256","name":"stageNumber","type":"uint256"}],"name":"StagePerformed","type":"event"},{"inputs":[{"internalType":"bytes4","name":"selector","type":"bytes4"}],"name":"getActionId","outputs":[{"internalType":"bytes32","name":"","type":"bytes32"}],"stateMutability":"view","type":"function"},{"inputs":[],"name":"getAuthorizer","outputs":[{"internalType":"contract IAuthorizer","name":"","type":"address"}],"stateMutability":"view","type":"function"},{"inputs":[],"name":"getAuthorizerAdaptorEntrypoint","outputs":[{"internalType":"contract IAuthorizerAdaptor","name":"","type":"address"}],"stateMutability":"view","type":"function"},{"inputs":[],"name":"getCurrentStage","outputs":[{"internalType":"uint256","name":"","type":"uint256"}],"stateMutability":"view","type":"function"},{"inputs":[{"internalType":"uint256","name":"stage","type":"uint256"}],"name":"getStageActivationTime","outputs":[{"internalType":"uint256","name":"","type":"uint256"}],"stateMutability":"view","type":"function"},{"inputs":[],"name":"getStagesLength","outputs":[{"internalType":"uint256","name":"","type":"uint256"}],"stateMutability":"view","type":"function"},{"inputs":[],"name":"getTimeSinceLastStageActivation","outputs":[{"internalType":"uint256","name":"","type":"uint256"}],"stateMutability":"view","type":"function"},{"inputs":[],"name":"getVault","outputs":[{"internalType":"contract IVault","name":"","type":"address"}],"stateMutability":"view","type":"function"},{"inputs":[],"name":"isComplete","outputs":[{"internalType":"bool","name":"","type":"bool"}],"stateMutability":"view","type":"function"},{"inputs":[],"name":"performNextStage","outputs":[],"stateMutability":"nonpayable","type":"function"},{"inputs":[],"name":"registerStages","outputs":[],"stateMutability":"nonpayable","type":"function"}],"evm":{"bytecode":{"linkReferences":{},"object":"60e060405234801561001057600080fd5b5060405161099b38038061099b8339818101604052602081101561003357600080fd5b5051604080516311b2515f60e31b8152905182916001600160a01b03831691638d928af891600480820192602092909190829003018186803b15801561007857600080fd5b505afa15801561008c573d6000803e3d6000fd5b505050506040513d60208110156100a257600080fd5b5051306080526001600160601b0319606091821b811660a052600160005591901b1660c0525060805160a05160601c60c05160601c6108a16100fa600039806102d852508061036d52508061030052506108a16000f3fe608060405234801561001057600080fd5b50600436106100c95760003560e01c8063a159ef4111610081578063d6076a6c1161005b578063d6076a6c146101ab578063da28cef7146101b3578063eedbe31d146101bb576100c9565b8063a159ef411461017f578063aaabadc514610187578063b2fa1c9e1461018f576100c9565b80637afcf0e6116100b25780637afcf0e614610107578063851c1bb3146101385780638d928af814610177576100c9565b80631f24cfc7146100ce5780632b116172146100d8575b600080fd5b6100d66101c3565b005b6100f5600480360360208110156100ee57600080fd5b50356102b5565b60408051918252519081900360200190f35b61010f6102d6565b6040805173ffffffffffffffffffffffffffffffffffffffff9092168252519081900360200190f35b6100f56004803603602081101561014e57600080fd5b50357fffffffff00000000000000000000000000000000000000000000000000000000166102fa565b61010f61036b565b6100f561038f565b61010f61039e565b61019761041e565b604080519115158252519081900360200190f35b6100d6610448565b6100f56104b6565b6100f56104bc565b6101cb6104c2565b6101d36104b6565b6101df576101df6104db565b6101e761041e565b1561025357604080517f08c379a000000000000000000000000000000000000000000000000000000000815260206004820152601460248201527f416c6c2073746167657320636f6d706c65746564000000000000000000000000604482015290519081900360640190fd5b6102a360016102606104bc565b8154811061026a57fe5b90600052602060002090600491828204019190066008029054906101000a9004801561081e021767ffffffffffffffff1663ffffffff16565b6102ab610532565b6102b361057d565b565b6000600282815481106102c457fe5b90600052602060002001549050919050565b7f000000000000000000000000000000000000000000000000000000000000000090565b604080517f00000000000000000000000000000000000000000000000000000000000000006020808301919091527fffffffff000000000000000000000000000000000000000000000000000000008416828401528251602481840301815260449092019092528051910120919050565b7f000000000000000000000000000000000000000000000000000000000000000090565b6000610399610584565b905090565b60006103a861036b565b73ffffffffffffffffffffffffffffffffffffffff1663aaabadc56040518163ffffffff1660e01b815260040160206040518083038186803b1580156103ed57600080fd5b505afa158015610401573d6000803e3d6000fd5b505050506040513d602081101561041757600080fd5b5051905090565b6000806104296104bc565b9050600081118015610442575061043e6104b6565b8110155b91505090565b6104506104c2565b6104586104b6565b156104ae576040517f08c379a00000000000000000000000000000000000000000000000000000000081526004018080602001828103825260258152602001806108216025913960400191505060405180910390fd5b6102ab6104db565b60015490565b60025490565b6104d4600260005414156101906105fe565b6002600055565b6104e6610610610646565b6104f16106a9610646565b6104fc6106df610646565b610507610715610646565b6040517febc04196623c1ac604f35a6b485f76b665c71387d839f2400e464e69f75c096390600090a1565b60028054600181018255600091909152427f405787fa12a823e0f2b7631cc41b3ba8828b3321ca811111fa75cd3aa3bb5ace9091015561057061041e565b156102b3576102b361074b565b6001600055565b60008061058f6104bc565b9050600081116105ea576040517f08c379a00000000000000000000000000000000000000000000000000000000081526004018080602001828103825260268152602001806108466026913960400191505060405180910390fd5b6105f6600182036102b5565b420391505090565b8161060c5761060c81610776565b5050565b604080516001815290517f0881b2bc1ff1a907eba2c5b9efa18b2fbef527fbf7a71e46e4cd3dad35a4ee2a9181900360200190a1565b6001805480820182556000919091527fb10e2d527612073b26eecdfd717e6a320cf44b4afac2b0732d9fcbe2b7fa0cf66004820401805460039092166008026101000a67ffffffffffffffff818102199093169390921691909102919091179055565b604080516002815290517f0881b2bc1ff1a907eba2c5b9efa18b2fbef527fbf7a71e46e4cd3dad35a4ee2a9181900360200190a1565b604080516003815290517f0881b2bc1ff1a907eba2c5b9efa18b2fbef527fbf7a71e46e4cd3dad35a4ee2a9181900360200190a1565b604080516004815290517f0881b2bc1ff1a907eba2c5b9efa18b2fbef527fbf7a71e46e4cd3dad35a4ee2a9181900360200190a1565b6040517f1361f0d77c0bfeea2f0a1fd9e8b9cf7283fe23395d293c9f78663f019bd6dd9090600090a1565b6107a0817f42414c00000000000000000000000000000000000000000000000000000000006107a3565b50565b7f08c379a000000000000000000000000000000000000000000000000000000000600090815260206004526007602452600a808404818106603090810160081b958390069590950190829004918206850160101b01602363ffffff0060e086901c160160181b0190930160c81b60445260e882901c90606490fd5bfefe436f6f7264696e61746f722073746167657320616c72656164792072656769737465726564466972737420737461676520686173206e6f7420796574206265656e20616374697661746564a2646970667358221220978893b4f952137d2879c022376a7d45b78ce6440e014b3f1d6230b1780c51c364736f6c63430007010033","opcodes":"PUSH1 0xE0 PUSH1 0x40 MSTORE CALLVALUE DUP1 ISZERO PUSH2 0x10 JUMPI PUSH1 0x0 DUP1 REVERT JUMPDEST POP PUSH1 0x40 MLOAD PUSH2 0x99B CODESIZE SUB DUP1 PUSH2 0x99B DUP4 CODECOPY DUP2 DUP2 ADD PUSH1 0x40 MSTORE PUSH1 0x20 DUP2 LT ISZERO PUSH2 0x33 JUMPI PUSH1 0x0 DUP1 REVERT JUMPDEST POP MLOAD PUSH1 0x40 DUP1 MLOAD PUSH4 0x11B2515F PUSH1 0xE3 SHL DUP2 MSTORE SWAP1 MLOAD DUP3 SWAP2 PUSH1 0x1 PUSH1 0x1 PUSH1 0xA0 SHL SUB DUP4 AND SWAP2 PUSH4 0x8D928AF8 SWAP2 PUSH1 0x4 DUP1 DUP3 ADD SWAP3 PUSH1 0x20 SWAP3 SWAP1 SWAP2 SWAP1 DUP3 SWAP1 SUB ADD DUP2 DUP7 DUP1 EXTCODESIZE ISZERO DUP1 ISZERO PUSH2 0x78 JUMPI PUSH1 0x0 DUP1 REVERT JUMPDEST POP GAS STATICCALL ISZERO DUP1 ISZERO PUSH2 0x8C JUMPI RETURNDATASIZE PUSH1 0x0 DUP1 RETURNDATACOPY RETURNDATASIZE PUSH1 0x0 REVERT JUMPDEST POP POP POP POP PUSH1 0x40 MLOAD RETURNDATASIZE PUSH1 0x20 DUP2 LT ISZERO PUSH2 0xA2 JUMPI PUSH1 0x0 DUP1 REVERT JUMPDEST POP MLOAD ADDRESS PUSH1 0x80 MSTORE PUSH1 0x1 PUSH1 0x1 PUSH1 0x60 SHL SUB NOT PUSH1 0x60 SWAP2 DUP3 SHL DUP2 AND PUSH1 0xA0 MSTORE PUSH1 0x1 PUSH1 0x0 SSTORE SWAP2 SWAP1 SHL AND PUSH1 0xC0 MSTORE POP PUSH1 0x80 MLOAD PUSH1 0xA0 MLOAD PUSH1 0x60 SHR PUSH1 0xC0 MLOAD PUSH1 0x60 SHR PUSH2 0x8A1 PUSH2 0xFA PUSH1 0x0 CODECOPY DUP1 PUSH2 0x2D8 MSTORE POP DUP1 PUSH2 0x36D MSTORE POP DUP1 PUSH2 0x300 MSTORE POP PUSH2 0x8A1 PUSH1 0x0 RETURN INVALID PUSH1 0x80 PUSH1 0x40 MSTORE CALLVALUE DUP1 ISZERO PUSH2 0x10 JUMPI PUSH1 0x0 DUP1 REVERT JUMPDEST POP PUSH1 0x4 CALLDATASIZE LT PUSH2 0xC9 JUMPI PUSH1 0x0 CALLDATALOAD PUSH1 0xE0 SHR DUP1 PUSH4 0xA159EF41 GT PUSH2 0x81 JUMPI DUP1 PUSH4 0xD6076A6C GT PUSH2 0x5B JUMPI DUP1 PUSH4 0xD6076A6C EQ PUSH2 0x1AB JUMPI DUP1 PUSH4 0xDA28CEF7 EQ PUSH2 0x1B3 JUMPI DUP1 PUSH4 0xEEDBE31D EQ PUSH2 0x1BB JUMPI PUSH2 0xC9 JUMP JUMPDEST DUP1 PUSH4 0xA159EF41 EQ PUSH2 0x17F JUMPI DUP1 PUSH4 0xAAABADC5 EQ PUSH2 0x187 JUMPI DUP1 PUSH4 0xB2FA1C9E EQ PUSH2 0x18F JUMPI PUSH2 0xC9 JUMP JUMPDEST DUP1 PUSH4 0x7AFCF0E6 GT PUSH2 0xB2 JUMPI DUP1 PUSH4 0x7AFCF0E6 EQ PUSH2 0x107 JUMPI DUP1 PUSH4 0x851C1BB3 EQ PUSH2 0x138 JUMPI DUP1 PUSH4 0x8D928AF8 EQ PUSH2 0x177 JUMPI PUSH2 0xC9 JUMP JUMPDEST DUP1 PUSH4 0x1F24CFC7 EQ PUSH2 0xCE JUMPI DUP1 PUSH4 0x2B116172 EQ PUSH2 0xD8 JUMPI JUMPDEST PUSH1 0x0 DUP1 REVERT JUMPDEST PUSH2 0xD6 PUSH2 0x1C3 JUMP JUMPDEST STOP JUMPDEST PUSH2 0xF5 PUSH1 0x4 DUP1 CALLDATASIZE SUB PUSH1 0x20 DUP2 LT ISZERO PUSH2 0xEE JUMPI PUSH1 0x0 DUP1 REVERT JUMPDEST POP CALLDATALOAD PUSH2 0x2B5 JUMP JUMPDEST PUSH1 0x40 DUP1 MLOAD SWAP2 DUP3 MSTORE MLOAD SWAP1 DUP2 SWAP1 SUB PUSH1 0x20 ADD SWAP1 RETURN JUMPDEST PUSH2 0x10F PUSH2 0x2D6 JUMP JUMPDEST PUSH1 0x40 DUP1 MLOAD PUSH20 0xFFFFFFFFFFFFFFFFFFFFFFFFFFFFFFFFFFFFFFFF SWAP1 SWAP3 AND DUP3 MSTORE MLOAD SWAP1 DUP2 SWAP1 SUB PUSH1 0x20 ADD SWAP1 RETURN JUMPDEST PUSH2 0xF5 PUSH1 0x4 DUP1 CALLDATASIZE SUB PUSH1 0x20 DUP2 LT ISZERO PUSH2 0x14E JUMPI PUSH1 0x0 DUP1 REVERT JUMPDEST POP CALLDATALOAD PUSH32 0xFFFFFFFF00000000000000000000000000000000000000000000000000000000 AND PUSH2 0x2FA JUMP JUMPDEST PUSH2 0x10F PUSH2 0x36B JUMP JUMPDEST PUSH2 0xF5 PUSH2 0x38F JUMP JUMPDEST PUSH2 0x10F PUSH2 0x39E JUMP JUMPDEST PUSH2 0x197 PUSH2 0x41E JUMP JUMPDEST PUSH1 0x40 DUP1 MLOAD SWAP2 ISZERO ISZERO DUP3 MSTORE MLOAD SWAP1 DUP2 SWAP1 SUB PUSH1 0x20 ADD SWAP1 RETURN JUMPDEST PUSH2 0xD6 PUSH2 0x448 JUMP JUMPDEST PUSH2 0xF5 PUSH2 0x4B6 JUMP JUMPDEST PUSH2 0xF5 PUSH2 0x4BC JUMP JUMPDEST PUSH2 0x1CB PUSH2 0x4C2 JUMP JUMPDEST PUSH2 0x1D3 PUSH2 0x4B6 JUMP JUMPDEST PUSH2 0x1DF JUMPI PUSH2 0x1DF PUSH2 0x4DB JUMP JUMPDEST PUSH2 0x1E7 PUSH2 0x41E JUMP JUMPDEST ISZERO PUSH2 0x253 JUMPI PUSH1 0x40 DUP1 MLOAD PUSH32 0x8C379A000000000000000000000000000000000000000000000000000000000 DUP2 MSTORE PUSH1 0x20 PUSH1 0x4 DUP3 ADD MSTORE PUSH1 0x14 PUSH1 0x24 DUP3 ADD MSTORE PUSH32 0x416C6C2073746167657320636F6D706C65746564000000000000000000000000 PUSH1 0x44 DUP3 ADD MSTORE SWAP1 MLOAD SWAP1 DUP2 SWAP1 SUB PUSH1 0x64 ADD SWAP1 REVERT JUMPDEST PUSH2 0x2A3 PUSH1 0x1 PUSH2 0x260 PUSH2 0x4BC JUMP JUMPDEST DUP2 SLOAD DUP2 LT PUSH2 0x26A JUMPI INVALID JUMPDEST SWAP1 PUSH1 0x0 MSTORE PUSH1 0x20 PUSH1 0x0 KECCAK256 SWAP1 PUSH1 0x4 SWAP2 DUP3 DUP3 DIV ADD SWAP2 SWAP1 MOD PUSH1 0x8 MUL SWAP1 SLOAD SWAP1 PUSH2 0x100 EXP SWAP1 DIV DUP1 ISZERO PUSH2 0x81E MUL OR PUSH8 0xFFFFFFFFFFFFFFFF AND PUSH4 0xFFFFFFFF AND JUMP JUMPDEST PUSH2 0x2AB PUSH2 0x532 JUMP JUMPDEST PUSH2 0x2B3 PUSH2 0x57D JUMP JUMPDEST JUMP JUMPDEST PUSH1 0x0 PUSH1 0x2 DUP3 DUP2 SLOAD DUP2 LT PUSH2 0x2C4 JUMPI INVALID JUMPDEST SWAP1 PUSH1 0x0 MSTORE PUSH1 0x20 PUSH1 0x0 KECCAK256 ADD SLOAD SWAP1 POP SWAP2 SWAP1 POP JUMP JUMPDEST PUSH32 0x0 SWAP1 JUMP JUMPDEST PUSH1 0x40 DUP1 MLOAD PUSH32 0x0 PUSH1 0x20 DUP1 DUP4 ADD SWAP2 SWAP1 SWAP2 MSTORE PUSH32 0xFFFFFFFF00000000000000000000000000000000000000000000000000000000 DUP5 AND DUP3 DUP5 ADD MSTORE DUP3 MLOAD PUSH1 0x24 DUP2 DUP5 SUB ADD DUP2 MSTORE PUSH1 0x44 SWAP1 SWAP3 ADD SWAP1 SWAP3 MSTORE DUP1 MLOAD SWAP2 ADD KECCAK256 SWAP2 SWAP1 POP JUMP JUMPDEST PUSH32 0x0 SWAP1 JUMP JUMPDEST PUSH1 0x0 PUSH2 0x399 PUSH2 0x584 JUMP JUMPDEST SWAP1 POP SWAP1 JUMP JUMPDEST PUSH1 0x0 PUSH2 0x3A8 PUSH2 0x36B JUMP JUMPDEST PUSH20 0xFFFFFFFFFFFFFFFFFFFFFFFFFFFFFFFFFFFFFFFF AND PUSH4 0xAAABADC5 PUSH1 0x40 MLOAD DUP2 PUSH4 0xFFFFFFFF AND PUSH1 0xE0 SHL DUP2 MSTORE PUSH1 0x4 ADD PUSH1 0x20 PUSH1 0x40 MLOAD DUP1 DUP4 SUB DUP2 DUP7 DUP1 EXTCODESIZE ISZERO DUP1 ISZERO PUSH2 0x3ED JUMPI PUSH1 0x0 DUP1 REVERT JUMPDEST POP GAS STATICCALL ISZERO DUP1 ISZERO PUSH2 0x401 JUMPI RETURNDATASIZE PUSH1 0x0 DUP1 RETURNDATACOPY RETURNDATASIZE PUSH1 0x0 REVERT JUMPDEST POP POP POP POP PUSH1 0x40 MLOAD RETURNDATASIZE PUSH1 0x20 DUP2 LT ISZERO PUSH2 0x417 JUMPI PUSH1 0x0 DUP1 REVERT JUMPDEST POP MLOAD SWAP1 POP SWAP1 JUMP JUMPDEST PUSH1 0x0 DUP1 PUSH2 0x429 PUSH2 0x4BC JUMP JUMPDEST SWAP1 POP PUSH1 0x0 DUP2 GT DUP1 ISZERO PUSH2 0x442 JUMPI POP PUSH2 0x43E PUSH2 0x4B6 JUMP JUMPDEST DUP2 LT ISZERO JUMPDEST SWAP2 POP POP SWAP1 JUMP JUMPDEST PUSH2 0x450 PUSH2 0x4C2 JUMP JUMPDEST PUSH2 0x458 PUSH2 0x4B6 JUMP JUMPDEST ISZERO PUSH2 0x4AE JUMPI PUSH1 0x40 MLOAD PUSH32 0x8C379A000000000000000000000000000000000000000000000000000000000 DUP2 MSTORE PUSH1 0x4 ADD DUP1 DUP1 PUSH1 0x20 ADD DUP3 DUP2 SUB DUP3 MSTORE PUSH1 0x25 DUP2 MSTORE PUSH1 0x20 ADD DUP1 PUSH2 0x821 PUSH1 0x25 SWAP2 CODECOPY PUSH1 0x40 ADD SWAP2 POP POP PUSH1 0x40 MLOAD DUP1 SWAP2 SUB SWAP1 REVERT JUMPDEST PUSH2 0x2AB PUSH2 0x4DB JUMP JUMPDEST PUSH1 0x1 SLOAD SWAP1 JUMP JUMPDEST PUSH1 0x2 SLOAD SWAP1 JUMP JUMPDEST PUSH2 0x4D4 PUSH1 0x2 PUSH1 0x0 SLOAD EQ ISZERO PUSH2 0x190 PUSH2 0x5FE JUMP JUMPDEST PUSH1 0x2 PUSH1 0x0 SSTORE JUMP JUMPDEST PUSH2 0x4E6 PUSH2 0x610 PUSH2 0x646 JUMP JUMPDEST PUSH2 0x4F1 PUSH2 0x6A9 PUSH2 0x646 JUMP JUMPDEST PUSH2 0x4FC PUSH2 0x6DF PUSH2 0x646 JUMP JUMPDEST PUSH2 0x507 PUSH2 0x715 PUSH2 0x646 JUMP JUMPDEST PUSH1 0x40 MLOAD PUSH32 0xEBC04196623C1AC604F35A6B485F76B665C71387D839F2400E464E69F75C0963 SWAP1 PUSH1 0x0 SWAP1 LOG1 JUMP JUMPDEST PUSH1 0x2 DUP1 SLOAD PUSH1 0x1 DUP2 ADD DUP3 SSTORE PUSH1 0x0 SWAP2 SWAP1 SWAP2 MSTORE TIMESTAMP PUSH32 0x405787FA12A823E0F2B7631CC41B3BA8828B3321CA811111FA75CD3AA3BB5ACE SWAP1 SWAP2 ADD SSTORE PUSH2 0x570 PUSH2 0x41E JUMP JUMPDEST ISZERO PUSH2 0x2B3 JUMPI PUSH2 0x2B3 PUSH2 0x74B JUMP JUMPDEST PUSH1 0x1 PUSH1 0x0 SSTORE JUMP JUMPDEST PUSH1 0x0 DUP1 PUSH2 0x58F PUSH2 0x4BC JUMP JUMPDEST SWAP1 POP PUSH1 0x0 DUP2 GT PUSH2 0x5EA JUMPI PUSH1 0x40 MLOAD PUSH32 0x8C379A000000000000000000000000000000000000000000000000000000000 DUP2 MSTORE PUSH1 0x4 ADD DUP1 DUP1 PUSH1 0x20 ADD DUP3 DUP2 SUB DUP3 MSTORE PUSH1 0x26 DUP2 MSTORE PUSH1 0x20 ADD DUP1 PUSH2 0x846 PUSH1 0x26 SWAP2 CODECOPY PUSH1 0x40 ADD SWAP2 POP POP PUSH1 0x40 MLOAD DUP1 SWAP2 SUB SWAP1 REVERT JUMPDEST PUSH2 0x5F6 PUSH1 0x1 DUP3 SUB PUSH2 0x2B5 JUMP JUMPDEST TIMESTAMP SUB SWAP2 POP POP SWAP1 JUMP JUMPDEST DUP2 PUSH2 0x60C JUMPI PUSH2 0x60C DUP2 PUSH2 0x776 JUMP JUMPDEST POP POP JUMP JUMPDEST PUSH1 0x40 DUP1 MLOAD PUSH1 0x1 DUP2 MSTORE SWAP1 MLOAD PUSH32 0x881B2BC1FF1A907EBA2C5B9EFA18B2FBEF527FBF7A71E46E4CD3DAD35A4EE2A SWAP2 DUP2 SWAP1 SUB PUSH1 0x20 ADD SWAP1 LOG1 JUMP JUMPDEST PUSH1 0x1 DUP1 SLOAD DUP1 DUP3 ADD DUP3 SSTORE PUSH1 0x0 SWAP2 SWAP1 SWAP2 MSTORE PUSH32 0xB10E2D527612073B26EECDFD717E6A320CF44B4AFAC2B0732D9FCBE2B7FA0CF6 PUSH1 0x4 DUP3 DIV ADD DUP1 SLOAD PUSH1 0x3 SWAP1 SWAP3 AND PUSH1 0x8 MUL PUSH2 0x100 EXP PUSH8 0xFFFFFFFFFFFFFFFF DUP2 DUP2 MUL NOT SWAP1 SWAP4 AND SWAP4 SWAP1 SWAP3 AND SWAP2 SWAP1 SWAP2 MUL SWAP2 SWAP1 SWAP2 OR SWAP1 SSTORE JUMP JUMPDEST PUSH1 0x40 DUP1 MLOAD PUSH1 0x2 DUP2 MSTORE SWAP1 MLOAD PUSH32 0x881B2BC1FF1A907EBA2C5B9EFA18B2FBEF527FBF7A71E46E4CD3DAD35A4EE2A SWAP2 DUP2 SWAP1 SUB PUSH1 0x20 ADD SWAP1 LOG1 JUMP JUMPDEST PUSH1 0x40 DUP1 MLOAD PUSH1 0x3 DUP2 MSTORE SWAP1 MLOAD PUSH32 0x881B2BC1FF1A907EBA2C5B9EFA18B2FBEF527FBF7A71E46E4CD3DAD35A4EE2A SWAP2 DUP2 SWAP1 SUB PUSH1 0x20 ADD SWAP1 LOG1 JUMP JUMPDEST PUSH1 0x40 DUP1 MLOAD PUSH1 0x4 DUP2 MSTORE SWAP1 MLOAD PUSH32 0x881B2BC1FF1A907EBA2C5B9EFA18B2FBEF527FBF7A71E46E4CD3DAD35A4EE2A SWAP2 DUP2 SWAP1 SUB PUSH1 0x20 ADD SWAP1 LOG1 JUMP JUMPDEST PUSH1 0x40 MLOAD PUSH32 0x1361F0D77C0BFEEA2F0A1FD9E8B9CF7283FE23395D293C9F78663F019BD6DD90 SWAP1 PUSH1 0x0 SWAP1 LOG1 JUMP JUMPDEST PUSH2 0x7A0 DUP2 PUSH32 0x42414C0000000000000000000000000000000000000000000000000000000000 PUSH2 0x7A3 JUMP JUMPDEST POP JUMP JUMPDEST PUSH32 0x8C379A000000000000000000000000000000000000000000000000000000000 PUSH1 0x0 SWAP1 DUP2 MSTORE PUSH1 0x20 PUSH1 0x4 MSTORE PUSH1 0x7 PUSH1 0x24 MSTORE PUSH1 0xA DUP1 DUP5 DIV DUP2 DUP2 MOD PUSH1 0x30 SWAP1 DUP2 ADD PUSH1 0x8 SHL SWAP6 DUP4 SWAP1 MOD SWAP6 SWAP1 SWAP6 ADD SWAP1 DUP3 SWAP1 DIV SWAP2 DUP3 MOD DUP6 ADD PUSH1 0x10 SHL ADD PUSH1 0x23 PUSH4 0xFFFFFF00 PUSH1 0xE0 DUP7 SWAP1 SHR AND ADD PUSH1 0x18 SHL ADD SWAP1 SWAP4 ADD PUSH1 0xC8 SHL PUSH1 0x44 MSTORE PUSH1 0xE8 DUP3 SWAP1 SHR SWAP1 PUSH1 0x64 SWAP1 REVERT JUMPDEST INVALID INVALID NUMBER PUSH16 0x6F7264696E61746F7220737461676573 KECCAK256 PUSH2 0x6C72 PUSH6 0x616479207265 PUSH8 0x6973746572656446 PUSH10 0x72737420737461676520 PUSH9 0x6173206E6F74207965 PUSH21 0x206265656E20616374697661746564A26469706673 PC 0x22 SLT KECCAK256 SWAP8 DUP9 SWAP4 0xB4 0xF9 MSTORE SGT PUSH30 0x2879C022376A7D45B78CE6440E014B3F1D6230B1780C51C364736F6C6343 STOP SMOD ADD STOP CALLER "},"methodIdentifiers":{"getActionId(bytes4)":"851c1bb3","getAuthorizer()":"aaabadc5","getAuthorizerAdaptorEntrypoint()":"7afcf0e6","getCurrentStage()":"eedbe31d","getStageActivationTime(uint256)":"2b116172","getStagesLength()":"da28cef7","getTimeSinceLastStageActivation()":"a159ef41","getVault()":"8d928af8","isComplete()":"b2fa1c9e","performNextStage()":"1f24cfc7","registerStages()":"d6076a6c"}}}}}