{
  "_format": "hh-sol-artifact-1",
  "contractName": "BatchRelayerLibrary",
  "sourceName": "contracts/BatchRelayerLibrary.sol",
  "abi": [
    {
      "inputs": [
        {
          "internalType": "contract IVault",
          "name": "vault",
          "type": "address"
        },
        {
          "internalType": "contract IERC20",
          "name": "wstETH",
          "type": "address"
        },
        {
          "internalType": "contract IBalancerMinter",
          "name": "minter",
          "type": "address"
        }
      ],
      "stateMutability": "nonpayable",
      "type": "constructor"
    },
    {
      "inputs": [
        {
          "internalType": "contract IERC20",
          "name": "token",
          "type": "address"
        },
        {
          "internalType": "uint256",
          "name": "amount",
          "type": "uint256"
        }
      ],
      "name": "approveVault",
      "outputs": [],
      "stateMutability": "nonpayable",
      "type": "function"
    },
    {
      "inputs": [
        {
          "internalType": "enum IVault.SwapKind",
          "name": "kind",
          "type": "uint8"
        },
        {
          "components": [
            {
              "internalType": "bytes32",
              "name": "poolId",
              "type": "bytes32"
            },
            {
              "internalType": "uint256",
              "name": "assetInIndex",
              "type": "uint256"
            },
            {
              "internalType": "uint256",
              "name": "assetOutIndex",
              "type": "uint256"
            },
            {
              "internalType": "uint256",
              "name": "amount",
              "type": "uint256"
            },
            {
              "internalType": "bytes",
              "name": "userData",
              "type": "bytes"
            }
          ],
          "internalType": "struct IVault.BatchSwapStep[]",
          "name": "swaps",
          "type": "tuple[]"
        },
        {
          "internalType": "contract IAsset[]",
          "name": "assets",
          "type": "address[]"
        },
        {
          "components": [
            {
              "internalType": "address",
              "name": "sender",
              "type": "address"
            },
            {
              "internalType": "bool",
              "name": "fromInternalBalance",
              "type": "bool"
            },
            {
              "internalType": "address payable",
              "name": "recipient",
              "type": "address"
            },
            {
              "internalType": "bool",
              "name": "toInternalBalance",
              "type": "bool"
            }
          ],
          "internalType": "struct IVault.FundManagement",
          "name": "funds",
          "type": "tuple"
        },
        {
          "internalType": "int256[]",
          "name": "limits",
          "type": "int256[]"
        },
        {
          "internalType": "uint256",
          "name": "deadline",
          "type": "uint256"
        },
        {
          "internalType": "uint256",
          "name": "value",
          "type": "uint256"
        },
        {
          "components": [
            {
              "internalType": "uint256",
              "name": "index",
              "type": "uint256"
            },
            {
              "internalType": "uint256",
              "name": "key",
              "type": "uint256"
            }
          ],
          "internalType": "struct VaultActions.OutputReference[]",
          "name": "outputReferences",
          "type": "tuple[]"
        }
      ],
      "name": "batchSwap",
      "outputs": [],
      "stateMutability": "payable",
      "type": "function"
    },
    {
      "inputs": [
        {
          "internalType": "bytes32",
          "name": "poolId",
          "type": "bytes32"
        },
        {
          "internalType": "enum VaultActions.PoolKind",
          "name": "kind",
          "type": "uint8"
        },
        {
          "internalType": "address",
          "name": "sender",
          "type": "address"
        },
        {
          "internalType": "address payable",
          "name": "recipient",
          "type": "address"
        },
        {
          "components": [
            {
              "internalType": "contract IAsset[]",
              "name": "assets",
              "type": "address[]"
            },
            {
              "internalType": "uint256[]",
              "name": "minAmountsOut",
              "type": "uint256[]"
            },
            {
              "internalType": "bytes",
              "name": "userData",
              "type": "bytes"
            },
            {
              "internalType": "bool",
              "name": "toInternalBalance",
              "type": "bool"
            }
          ],
          "internalType": "struct IVault.ExitPoolRequest",
          "name": "request",
          "type": "tuple"
        },
        {
          "components": [
            {
              "internalType": "uint256",
              "name": "index",
              "type": "uint256"
            },
            {
              "internalType": "uint256",
              "name": "key",
              "type": "uint256"
            }
          ],
          "internalType": "struct VaultActions.OutputReference[]",
          "name": "outputReferences",
          "type": "tuple[]"
        }
      ],
      "name": "exitPool",
      "outputs": [],
      "stateMutability": "payable",
      "type": "function"
    },
    {
      "inputs": [
        {
          "internalType": "contract IStakingLiquidityGauge[]",
          "name": "gauges",
          "type": "address[]"
        }
      ],
      "name": "gaugeClaimRewards",
      "outputs": [],
      "stateMutability": "payable",
      "type": "function"
    },
    {
      "inputs": [
        {
          "internalType": "contract IStakingLiquidityGauge",
          "name": "gauge",
          "type": "address"
        },
        {
          "internalType": "address",
          "name": "sender",
          "type": "address"
        },
        {
          "internalType": "address",
          "name": "recipient",
          "type": "address"
        },
        {
          "internalType": "uint256",
          "name": "amount",
          "type": "uint256"
        }
      ],
      "name": "gaugeDeposit",
      "outputs": [],
      "stateMutability": "payable",
      "type": "function"
    },
    {
      "inputs": [
        {
          "internalType": "address[]",
          "name": "gauges",
          "type": "address[]"
        },
        {
          "internalType": "uint256",
          "name": "outputReference",
          "type": "uint256"
        }
      ],
      "name": "gaugeMint",
      "outputs": [],
      "stateMutability": "payable",
      "type": "function"
    },
    {
      "inputs": [
        {
          "internalType": "bool",
          "name": "approval",
          "type": "bool"
        },
        {
          "internalType": "address",
          "name": "user",
          "type": "address"
        },
        {
          "internalType": "uint256",
          "name": "deadline",
          "type": "uint256"
        },
        {
          "internalType": "uint8",
          "name": "v",
          "type": "uint8"
        },
        {
          "internalType": "bytes32",
          "name": "r",
          "type": "bytes32"
        },
        {
          "internalType": "bytes32",
          "name": "s",
          "type": "bytes32"
        }
      ],
      "name": "gaugeSetMinterApproval",
      "outputs": [],
      "stateMutability": "payable",
      "type": "function"
    },
    {
      "inputs": [
        {
          "internalType": "contract IStakingLiquidityGauge",
          "name": "gauge",
          "type": "address"
        },
        {
          "internalType": "address",
          "name": "sender",
          "type": "address"
        },
        {
          "internalType": "address",
          "name": "recipient",
          "type": "address"
        },
        {
          "internalType": "uint256",
          "name": "amount",
          "type": "uint256"
        }
      ],
      "name": "gaugeWithdraw",
      "outputs": [],
      "stateMutability": "payable",
      "type": "function"
    },
    {
      "inputs": [],
      "name": "getEntrypoint",
      "outputs": [
        {
          "internalType": "contract IBalancerRelayer",
          "name": "",
          "type": "address"
        }
      ],
      "stateMutability": "view",
      "type": "function"
    },
    {
      "inputs": [],
      "name": "getVault",
      "outputs": [
        {
          "internalType": "contract IVault",
          "name": "",
          "type": "address"
        }
      ],
      "stateMutability": "view",
      "type": "function"
    },
    {
      "inputs": [
        {
          "internalType": "bytes32",
          "name": "poolId",
          "type": "bytes32"
        },
        {
          "internalType": "enum VaultActions.PoolKind",
          "name": "kind",
          "type": "uint8"
        },
        {
          "internalType": "address",
          "name": "sender",
          "type": "address"
        },
        {
          "internalType": "address",
          "name": "recipient",
          "type": "address"
        },
        {
          "components": [
            {
              "internalType": "contract IAsset[]",
              "name": "assets",
              "type": "address[]"
            },
            {
              "internalType": "uint256[]",
              "name": "maxAmountsIn",
              "type": "uint256[]"
            },
            {
              "internalType": "bytes",
              "name": "userData",
              "type": "bytes"
            },
            {
              "internalType": "bool",
              "name": "fromInternalBalance",
              "type": "bool"
            }
          ],
          "internalType": "struct IVault.JoinPoolRequest",
          "name": "request",
          "type": "tuple"
        },
        {
          "internalType": "uint256",
          "name": "value",
          "type": "uint256"
        },
        {
          "internalType": "uint256",
          "name": "outputReference",
          "type": "uint256"
        }
      ],
      "name": "joinPool",
      "outputs": [],
      "stateMutability": "payable",
      "type": "function"
    },
    {
      "inputs": [
        {
          "components": [
            {
              "internalType": "enum IVault.UserBalanceOpKind",
              "name": "kind",
              "type": "uint8"
            },
            {
              "internalType": "contract IAsset",
              "name": "asset",
              "type": "address"
            },
            {
              "internalType": "uint256",
              "name": "amount",
              "type": "uint256"
            },
            {
              "internalType": "address",
              "name": "sender",
              "type": "address"
            },
            {
              "internalType": "address payable",
              "name": "recipient",
              "type": "address"
            }
          ],
          "internalType": "struct IVault.UserBalanceOp[]",
          "name": "ops",
          "type": "tuple[]"
        },
        {
          "internalType": "uint256",
          "name": "value",
          "type": "uint256"
        }
      ],
      "name": "manageUserBalance",
      "outputs": [],
      "stateMutability": "payable",
      "type": "function"
    },
    {
      "inputs": [
        {
          "internalType": "uint256",
          "name": "ref",
          "type": "uint256"
        }
      ],
      "name": "peekChainedReferenceValue",
      "outputs": [
        {
          "internalType": "uint256",
          "name": "value",
          "type": "uint256"
        }
      ],
      "stateMutability": "view",
      "type": "function"
    },
    {
      "inputs": [
        {
          "internalType": "address",
          "name": "relayer",
          "type": "address"
        },
        {
          "internalType": "bool",
          "name": "approved",
          "type": "bool"
        },
        {
          "internalType": "bytes",
          "name": "authorisation",
          "type": "bytes"
        }
      ],
      "name": "setRelayerApproval",
      "outputs": [],
      "stateMutability": "payable",
      "type": "function"
    },
    {
      "inputs": [
        {
          "internalType": "address",
          "name": "recipient",
          "type": "address"
        },
        {
          "internalType": "uint256",
          "name": "amount",
          "type": "uint256"
        },
        {
          "internalType": "uint256",
          "name": "outputReference",
          "type": "uint256"
        }
      ],
      "name": "stakeETH",
      "outputs": [],
      "stateMutability": "payable",
      "type": "function"
    },
    {
      "inputs": [
        {
          "internalType": "address",
          "name": "recipient",
          "type": "address"
        },
        {
          "internalType": "uint256",
          "name": "amount",
          "type": "uint256"
        },
        {
          "internalType": "uint256",
          "name": "outputReference",
          "type": "uint256"
        }
      ],
      "name": "stakeETHAndWrap",
      "outputs": [],
      "stateMutability": "payable",
      "type": "function"
    },
    {
      "inputs": [
        {
          "components": [
            {
              "internalType": "bytes32",
              "name": "poolId",
              "type": "bytes32"
            },
            {
              "internalType": "enum IVault.SwapKind",
              "name": "kind",
              "type": "uint8"
            },
            {
              "internalType": "contract IAsset",
              "name": "assetIn",
              "type": "address"
            },
            {
              "internalType": "contract IAsset",
              "name": "assetOut",
              "type": "address"
            },
            {
              "internalType": "uint256",
              "name": "amount",
              "type": "uint256"
            },
            {
              "internalType": "bytes",
              "name": "userData",
              "type": "bytes"
            }
          ],
          "internalType": "struct IVault.SingleSwap",
          "name": "singleSwap",
          "type": "tuple"
        },
        {
          "components": [
            {
              "internalType": "address",
              "name": "sender",
              "type": "address"
            },
            {
              "internalType": "bool",
              "name": "fromInternalBalance",
              "type": "bool"
            },
            {
              "internalType": "address payable",
              "name": "recipient",
              "type": "address"
            },
            {
              "internalType": "bool",
              "name": "toInternalBalance",
              "type": "bool"
            }
          ],
          "internalType": "struct IVault.FundManagement",
          "name": "funds",
          "type": "tuple"
        },
        {
          "internalType": "uint256",
          "name": "limit",
          "type": "uint256"
        },
        {
          "internalType": "uint256",
          "name": "deadline",
          "type": "uint256"
        },
        {
          "internalType": "uint256",
          "name": "value",
          "type": "uint256"
        },
        {
          "internalType": "uint256",
          "name": "outputReference",
          "type": "uint256"
        }
      ],
      "name": "swap",
      "outputs": [],
      "stateMutability": "payable",
      "type": "function"
    },
    {
      "inputs": [
        {
          "internalType": "contract IStaticATokenLM",
          "name": "staticToken",
          "type": "address"
        },
        {
          "internalType": "address",
          "name": "sender",
          "type": "address"
        },
        {
          "internalType": "address",
          "name": "recipient",
          "type": "address"
        },
        {
          "internalType": "uint256",
          "name": "amount",
          "type": "uint256"
        },
        {
          "internalType": "bool",
          "name": "toUnderlying",
          "type": "bool"
        },
        {
          "internalType": "uint256",
          "name": "outputReference",
          "type": "uint256"
        }
      ],
      "name": "unwrapAaveStaticToken",
      "outputs": [],
      "stateMutability": "payable",
      "type": "function"
    },
    {
      "inputs": [
        {
          "internalType": "contract IERC4626",
          "name": "wrappedToken",
          "type": "address"
        },
        {
          "internalType": "address",
          "name": "sender",
          "type": "address"
        },
        {
          "internalType": "address",
          "name": "recipient",
          "type": "address"
        },
        {
          "internalType": "uint256",
          "name": "amount",
          "type": "uint256"
        },
        {
          "internalType": "uint256",
          "name": "outputReference",
          "type": "uint256"
        }
      ],
      "name": "unwrapERC4626",
      "outputs": [],
      "stateMutability": "payable",
      "type": "function"
    },
    {
      "inputs": [
        {
          "internalType": "contract IReaperTokenVault",
          "name": "vaultToken",
          "type": "address"
        },
        {
          "internalType": "address",
          "name": "sender",
          "type": "address"
        },
        {
          "internalType": "address",
          "name": "recipient",
          "type": "address"
        },
        {
          "internalType": "uint256",
          "name": "amount",
          "type": "uint256"
        },
        {
          "internalType": "uint256",
          "name": "outputReference",
          "type": "uint256"
        }
      ],
      "name": "unwrapReaperVaultToken",
      "outputs": [],
      "stateMutability": "payable",
      "type": "function"
    },
    {
      "inputs": [
        {
          "internalType": "contract IUnbuttonToken",
          "name": "wrapperToken",
          "type": "address"
        },
        {
          "internalType": "address",
          "name": "sender",
          "type": "address"
        },
        {
          "internalType": "address",
          "name": "recipient",
          "type": "address"
        },
        {
          "internalType": "uint256",
          "name": "amount",
          "type": "uint256"
        },
        {
          "internalType": "uint256",
          "name": "outputReference",
          "type": "uint256"
        }
      ],
      "name": "unwrapUnbuttonToken",
      "outputs": [],
      "stateMutability": "payable",
      "type": "function"
    },
    {
      "inputs": [
        {
          "internalType": "address",
          "name": "sender",
          "type": "address"
        },
        {
          "internalType": "address",
          "name": "recipient",
          "type": "address"
        },
        {
          "internalType": "uint256",
          "name": "amount",
          "type": "uint256"
        },
        {
          "internalType": "uint256",
          "name": "outputReference",
          "type": "uint256"
        }
      ],
      "name": "unwrapWstETH",
      "outputs": [],
      "stateMutability": "payable",
      "type": "function"
    },
    {
      "inputs": [
        {
          "internalType": "contract IERC20Permit",
          "name": "token",
          "type": "address"
        },
        {
          "internalType": "address",
          "name": "owner",
          "type": "address"
        },
        {
          "internalType": "uint256",
          "name": "value",
          "type": "uint256"
        },
        {
          "internalType": "uint256",
          "name": "deadline",
          "type": "uint256"
        },
        {
          "internalType": "uint8",
          "name": "v",
          "type": "uint8"
        },
        {
          "internalType": "bytes32",
          "name": "r",
          "type": "bytes32"
        },
        {
          "internalType": "bytes32",
          "name": "s",
          "type": "bytes32"
        }
      ],
      "name": "vaultPermit",
      "outputs": [],
      "stateMutability": "payable",
      "type": "function"
    },
    {
      "inputs": [
        {
          "internalType": "contract IERC20PermitDAI",
          "name": "token",
          "type": "address"
        },
        {
          "internalType": "address",
          "name": "holder",
          "type": "address"
        },
        {
          "internalType": "uint256",
          "name": "nonce",
          "type": "uint256"
        },
        {
          "internalType": "uint256",
          "name": "expiry",
          "type": "uint256"
        },
        {
          "internalType": "bool",
          "name": "allowed",
          "type": "bool"
        },
        {
          "internalType": "uint8",
          "name": "v",
          "type": "uint8"
        },
        {
          "internalType": "bytes32",
          "name": "r",
          "type": "bytes32"
        },
        {
          "internalType": "bytes32",
          "name": "s",
          "type": "bytes32"
        }
      ],
      "name": "vaultPermitDAI",
      "outputs": [],
      "stateMutability": "payable",
      "type": "function"
    },
    {
      "inputs": [
        {
          "internalType": "contract IStaticATokenLM",
          "name": "staticToken",
          "type": "address"
        },
        {
          "internalType": "address",
          "name": "sender",
          "type": "address"
        },
        {
          "internalType": "address",
          "name": "recipient",
          "type": "address"
        },
        {
          "internalType": "uint256",
          "name": "amount",
          "type": "uint256"
        },
        {
          "internalType": "bool",
          "name": "fromUnderlying",
          "type": "bool"
        },
        {
          "internalType": "uint256",
          "name": "outputReference",
          "type": "uint256"
        }
      ],
      "name": "wrapAaveDynamicToken",
      "outputs": [],
      "stateMutability": "payable",
      "type": "function"
    },
    {
      "inputs": [
        {
          "internalType": "contract IERC4626",
          "name": "wrappedToken",
          "type": "address"
        },
        {
          "internalType": "address",
          "name": "sender",
          "type": "address"
        },
        {
          "internalType": "address",
          "name": "recipient",
          "type": "address"
        },
        {
          "internalType": "uint256",
          "name": "amount",
          "type": "uint256"
        },
        {
          "internalType": "uint256",
          "name": "outputReference",
          "type": "uint256"
        }
      ],
      "name": "wrapERC4626",
      "outputs": [],
      "stateMutability": "payable",
      "type": "function"
    },
    {
      "inputs": [
        {
          "internalType": "contract IReaperTokenVault",
          "name": "vaultToken",
          "type": "address"
        },
        {
          "internalType": "address",
          "name": "sender",
          "type": "address"
        },
        {
          "internalType": "address",
          "name": "recipient",
          "type": "address"
        },
        {
          "internalType": "uint256",
          "name": "amount",
          "type": "uint256"
        },
        {
          "internalType": "uint256",
          "name": "outputReference",
          "type": "uint256"
        }
      ],
      "name": "wrapReaperVaultToken",
      "outputs": [],
      "stateMutability": "payable",
      "type": "function"
    },
    {
      "inputs": [
        {
          "internalType": "address",
          "name": "sender",
          "type": "address"
        },
        {
          "internalType": "address",
          "name": "recipient",
          "type": "address"
        },
        {
          "internalType": "uint256",
          "name": "amount",
          "type": "uint256"
        },
        {
          "internalType": "uint256",
          "name": "outputReference",
          "type": "uint256"
        }
      ],
      "name": "wrapStETH",
      "outputs": [],
      "stateMutability": "payable",
      "type": "function"
    },
    {
      "inputs": [
        {
          "internalType": "contract IUnbuttonToken",
          "name": "wrapperToken",
          "type": "address"
        },
        {
          "internalType": "address",
          "name": "sender",
          "type": "address"
        },
        {
          "internalType": "address",
          "name": "recipient",
          "type": "address"
        },
        {
          "internalType": "uint256",
          "name": "uAmount",
          "type": "uint256"
        },
        {
          "internalType": "uint256",
          "name": "outputReference",
          "type": "uint256"
        }
      ],
      "name": "wrapUnbuttonToken",
      "outputs": [],
      "stateMutability": "payable",
      "type": "function"
    }
  ],
  "bytecode": "0x6101606040527fae1dc54057af8e8e5ce068cdd4383149c7efcb30e8fb95b592ee1594367fb50960e0523480156200003657600080fd5b50604051620059f3380380620059f3833981016040819052620000599162000209565b818184806001600160a01b031663ad5c46486040518163ffffffff1660e01b815260040160206040518083038186803b1580156200009657600080fd5b505afa158015620000ab573d6000803e3d6000fd5b505050506040513d601f19601f82011682018060405250810190620000d191906200025c565b6001600160601b0319606091821b81166080529082901b1660a05260405181903090620000fe90620001fb565b6200010b92919062000282565b604051809103906000f08015801562000128573d6000803e3d6000fd5b506001600160601b0319606091821b811660c05292901b90911661010052506001600160a01b0381166200015e576000620001d5565b806001600160a01b031663c1fe3e486040518163ffffffff1660e01b8152600401602060405180830381600087803b1580156200019a57600080fd5b505af1158015620001af573d6000803e3d6000fd5b505050506040513d601f19601f82011682018060405250810190620001d591906200025c565b6001600160601b0319606091821b81166101205291901b166101405250620002b5915050565b610787806200526c83390190565b6000806000606084860312156200021e578283fd5b83516200022b816200029c565b60208501519093506200023e816200029c565b604085015190925062000251816200029c565b809150509250925092565b6000602082840312156200026e578081fd5b81516200027b816200029c565b9392505050565b6001600160a01b0392831681529116602082015260400190565b6001600160a01b0381168114620002b257600080fd5b50565b60805160601c60a05160601c60c05160601c60e0516101005160601c6101205160601c6101405160601c614f15620003576000398061051952806105ad528061061352806109995280610a495280610b12528061299552806129ed525080610917528061096c5280610bda5280610cb95280612ab6525080610e4c5280611b0b5250806132965250806119b5525080611ab55280611c02525050614f156000f3fe6080604052600436106101c25760003560e01c806380db15bd116100f7578063b6d2473711610095578063e8210e3c11610064578063e8210e3c146103cb578063ecc02637146103de578063efe69108146103f1578063f3cab68514610404576101c2565b8063b6d2473714610372578063d293f29014610392578063d80952d5146103a5578063db4c0e91146103b8576101c2565b80638d928af8116100d15780638d928af8146103245780638fe4624f14610339578063959fc17a1461034c578063abf6d3991461035f576101c2565b806380db15bd146102eb5780638c57198b146102fe5780638d64cfbc14610311576101c2565b8063433b0865116101645780636d307ea81161013e5780636d307ea8146102875780637ab6e03c1461029a5780637bc008f5146102ad5780637fd0e5d5146102c0576101c2565b8063433b08651461024e578063611b90dd1461026157806365ca480414610274576101c2565b80631c982441116101a05780631c982441146102025780632cbec84e146102155780632e6272ea146102285780633f85d3901461023b576101c2565b80630e248fea146101c75780631089e5e3146101dc57806318369446146101ef575b600080fd5b6101da6101d5366004613cee565b610431565b005b6101da6101ea366004613c70565b6104cc565b6101da6101fd36600461432f565b6106b6565b6101da610210366004613b9e565b6108bf565b6101da610223366004613c70565b610bbc565b6101da61023636600461442b565b610cf0565b6101da610249366004613ca4565b610e19565b6101da61025c3660046141e9565b610ee2565b6101da61026f36600461413f565b611191565b6101da610282366004614199565b6112ac565b6101da61029536600461413f565b61149f565b6101da6102a83660046141e9565b6116c1565b6101da6102bb366004614199565b6117c7565b3480156102cc57600080fd5b506102d56119b3565b6040516102e29190614791565b60405180910390f35b6101da6102f9366004613be3565b6119d7565b6101da61030c366004613e8b565b611adb565b6101da61031f3660046140a6565b611b86565b34801561033057600080fd5b506102d5611c00565b6101da610347366004613f96565b611c24565b6101da61035a366004614025565b611e4e565b6101da61036d36600461413f565b611ecb565b34801561037e57600080fd5b506101da61038d366004614114565b612081565b6101da6103a036600461413f565b612127565b6101da6103b3366004613eee565b6123af565b6101da6103c6366004613b9e565b61293d565b6101da6103d936600461413f565b612aed565b6101da6103ec366004613dbe565b612db2565b6101da6103ff36600461413f565b612eaa565b34801561041057600080fd5b5061042461041f366004614519565b612f53565b6040516102e29190614ddc565b8060005b818110156104c65783838281811061044957fe5b905060200201602081019061045e9190613b66565b6001600160a01b03166384e9bd7e336040518263ffffffff1660e01b81526004016104899190614791565b600060405180830381600087803b1580156104a357600080fd5b505af11580156104b7573d6000803e3d6000fd5b50505050806001019050610435565b50505050565b6104d582612f65565b156104e6576104e382612fb0565b91505b6040517fb0e389000000000000000000000000000000000000000000000000000000000081526000906001600160a01b037f0000000000000000000000000000000000000000000000000000000000000000169063b0e389009061054e908690600401614ddc565b60206040518083038186803b15801561056657600080fd5b505afa15801561057a573d6000803e3d6000fd5b505050506040513d601f19601f8201168201806040525081019061059e9190614531565b90506105d36001600160a01b037f00000000000000000000000000000000000000000000000000000000000000001684612fdb565b6001600160a01b038416301461069e576040517fa9059cbb0000000000000000000000000000000000000000000000000000000081526001600160a01b037f0000000000000000000000000000000000000000000000000000000000000000169063a9059cbb9061064a90879085906004016148f1565b602060405180830381600087803b15801561066457600080fd5b505af1158015610678573d6000803e3d6000fd5b505050506040513d601f19601f8201168201806040525081019061069c9190613e6f565b505b6106a782612f65565b156104c6576104c68282613055565b336106c46020890189613b66565b6001600160a01b031614806106ed5750306106e26020890189613b66565b6001600160a01b0316145b6107125760405162461bcd60e51b815260040161070990614cac565b60405180910390fd5b60005b8a518110156107775760008b828151811061072c57fe5b602002602001015160600151905061074381612f65565b1561076e5761075181612fb0565b8c838151811061075d57fe5b602002602001015160600181815250505b50600101610715565b506060610782611c00565b6001600160a01b031663945bcec9858e8e8e8e8e8e8e8e6040518a63ffffffff1660e01b81526004016107bc989796959493929190614ba3565b6000604051808303818588803b1580156107d557600080fd5b505af11580156107e9573d6000803e3d6000fd5b50505050506040513d6000823e601f3d908101601f191682016040526108129190810190613d2e565b905060005b828110156108b05761083d84848381811061082e57fe5b90506040020160200135612f65565b6108595760405162461bcd60e51b815260040161070990614d1a565b6108a884848381811061086857fe5b905060400201602001356108a38487878681811061088257fe5b905060400201600001358151811061089657fe5b6020026020010151613068565b613055565b600101610817565b50505050505050505050505050565b6108c882612f65565b156108d9576108d682612fb0565b91505b6001600160a01b038416301461093c576001600160a01b03841633146109115760405162461bcd60e51b815260040161070990614cac565b61093c847f000000000000000000000000000000000000000000000000000000000000000084613082565b6040517f095ea7b30000000000000000000000000000000000000000000000000000000081526001600160a01b037f0000000000000000000000000000000000000000000000000000000000000000169063095ea7b3906109c3907f00000000000000000000000000000000000000000000000000000000000000009086906004016148f1565b602060405180830381600087803b1580156109dd57600080fd5b505af11580156109f1573d6000803e3d6000fd5b505050506040513d601f19601f82011682018060405250810190610a159190613e6f565b506040517fea598cb00000000000000000000000000000000000000000000000000000000081526000906001600160a01b037f0000000000000000000000000000000000000000000000000000000000000000169063ea598cb090610a7e908690600401614ddc565b602060405180830381600087803b158015610a9857600080fd5b505af1158015610aac573d6000803e3d6000fd5b505050506040513d601f19601f82011682018060405250810190610ad09190614531565b90506001600160a01b0384163014610b9d576040517fa9059cbb0000000000000000000000000000000000000000000000000000000081526001600160a01b037f0000000000000000000000000000000000000000000000000000000000000000169063a9059cbb90610b4990879085906004016148f1565b602060405180830381600087803b158015610b6357600080fd5b505af1158015610b77573d6000803e3d6000fd5b505050506040513d601f19601f82011682018060405250810190610b9b9190613e6f565b505b610ba682612f65565b15610bb557610bb58282613055565b5050505050565b610bc582612f65565b15610bd657610bd382612fb0565b91505b60007f00000000000000000000000000000000000000000000000000000000000000006001600160a01b031663a1903eab84306040518363ffffffff1660e01b8152600401610c259190614791565b6020604051808303818588803b158015610c3e57600080fd5b505af1158015610c52573d6000803e3d6000fd5b50505050506040513d601f19601f82011682018060405250810190610c779190614531565b90506001600160a01b038416301461069e576040517fa9059cbb0000000000000000000000000000000000000000000000000000000081526001600160a01b037f0000000000000000000000000000000000000000000000000000000000000000169063a9059cbb9061064a90879085906004016148f1565b33610cfe6020870187613b66565b6001600160a01b03161480610d27575030610d1c6020870187613b66565b6001600160a01b0316145b610d435760405162461bcd60e51b815260040161070990614cac565b610d508660800151612f65565b15610d6857610d628660800151612fb0565b60808701525b6000610d72611c00565b6001600160a01b03166352bbbe2984898989896040518663ffffffff1660e01b8152600401610da49493929190614d51565b6020604051808303818588803b158015610dbd57600080fd5b505af1158015610dd1573d6000803e3d6000fd5b50505050506040513d601f19601f82011682018060405250810190610df69190614531565b9050610e0182612f65565b15610e1057610e108282613055565b50505050505050565b6040517f3b9f73840000000000000000000000000000000000000000000000000000000081526000906001600160a01b037f00000000000000000000000000000000000000000000000000000000000000001690633b9f738490610e8590879087903390600401614959565b602060405180830381600087803b158015610e9f57600080fd5b505af1158015610eb3573d6000803e3d6000fd5b505050506040513d601f19601f82011682018060405250810190610ed79190614531565b90506106a782612f65565b610eeb83612f65565b15610efc57610ef983612fb0565b92505b600082610f7b57866001600160a01b03166351c0e0616040518163ffffffff1660e01b8152600401602060405180830381600087803b158015610f3e57600080fd5b505af1158015610f52573d6000803e3d6000fd5b505050506040513d601f19601f82011682018060405250810190610f769190613b82565b610fee565b866001600160a01b0316634800d97f6040518163ffffffff1660e01b8152600401602060405180830381600087803b158015610fb657600080fd5b505af1158015610fca573d6000803e3d6000fd5b505050506040513d601f19601f82011682018060405250810190610fee9190613b82565b90506001600160a01b0386163014611033576001600160a01b03861633146110285760405162461bcd60e51b815260040161070990614cac565b611033868286613082565b6040517f095ea7b30000000000000000000000000000000000000000000000000000000081526001600160a01b0382169063095ea7b39061107a908a9088906004016148f1565b602060405180830381600087803b15801561109457600080fd5b505af11580156110a8573d6000803e3d6000fd5b505050506040513d601f19601f820116820180604052508101906110cc9190613e6f565b506040517f2f2cab870000000000000000000000000000000000000000000000000000000081526000906001600160a01b03891690632f2cab879061111b908990899086908a9060040161492d565b602060405180830381600087803b15801561113557600080fd5b505af1158015611149573d6000803e3d6000fd5b505050506040513d601f19601f8201168201806040525081019061116d9190614531565b905061117883612f65565b15611187576111878382613055565b5050505050505050565b61119a82612f65565b156111ab576111a882612fb0565b91505b6001600160a01b03841630146111ee576001600160a01b03841633146111e35760405162461bcd60e51b815260040161070990614cac565b6111ee848684613082565b6040517fea785a5e0000000000000000000000000000000000000000000000000000000081526000906001600160a01b0387169063ea785a5e9061123890879087906004016148f1565b602060405180830381600087803b15801561125257600080fd5b505af1158015611266573d6000803e3d6000fd5b505050506040513d601f19601f8201168201806040525081019061128a9190614531565b905061129582612f65565b156112a4576112a48282613055565b505050505050565b6112b581612f65565b156112c6576112c381612fb0565b90505b6001600160a01b0383163014611309576001600160a01b03831633146112fe5760405162461bcd60e51b815260040161070990614cac565b611309838583613082565b6040517f2e1a7d4d0000000000000000000000000000000000000000000000000000000081526001600160a01b03851690632e1a7d4d9061134e908490600401614ddc565b600060405180830381600087803b15801561136857600080fd5b505af115801561137c573d6000803e3d6000fd5b505050506001600160a01b03821630146104c6576000846001600160a01b03166382c630666040518163ffffffff1660e01b815260040160206040518083038186803b1580156113cb57600080fd5b505afa1580156113df573d6000803e3d6000fd5b505050506040513d601f19601f820116820180604052508101906114039190613b82565b6040517fa9059cbb0000000000000000000000000000000000000000000000000000000081529091506001600160a01b0382169063a9059cbb9061144d90869086906004016148f1565b602060405180830381600087803b15801561146757600080fd5b505af115801561147b573d6000803e3d6000fd5b505050506040513d601f19601f820116820180604052508101906112a49190613e6f565b6114a882612f65565b156114b9576114b682612fb0565b91505b6000856001600160a01b03166338d52e0f6040518163ffffffff1660e01b815260040160206040518083038186803b1580156114f457600080fd5b505afa158015611508573d6000803e3d6000fd5b505050506040513d601f19601f8201168201806040525081019061152c9190613b82565b90506001600160a01b0385163014611571576001600160a01b03851633146115665760405162461bcd60e51b815260040161070990614cac565b611571858285613082565b6040517f095ea7b30000000000000000000000000000000000000000000000000000000081526001600160a01b0382169063095ea7b3906115b890899087906004016148f1565b602060405180830381600087803b1580156115d257600080fd5b505af11580156115e6573d6000803e3d6000fd5b505050506040513d601f19601f8201168201806040525081019061160a9190613e6f565b506040517f6e553f650000000000000000000000000000000000000000000000000000000081526000906001600160a01b03881690636e553f65906116559087908990600401614de5565b602060405180830381600087803b15801561166f57600080fd5b505af1158015611683573d6000803e3d6000fd5b505050506040513d601f19601f820116820180604052508101906116a79190614531565b90506116b283612f65565b15610e1057610e108382613055565b6116ca83612f65565b156116db576116d883612fb0565b92505b6001600160a01b038516301461171e576001600160a01b03851633146117135760405162461bcd60e51b815260040161070990614cac565b61171e858785613082565b6040517fead5d3590000000000000000000000000000000000000000000000000000000081526000906001600160a01b0388169063ead5d3599061176a9088908890889060040161490a565b6040805180830381600087803b15801561178357600080fd5b505af1158015611797573d6000803e3d6000fd5b505050506040513d601f19601f820116820180604052508101906117bb9190614549565b915050610e0182612f65565b6117d081612f65565b156117e1576117de81612fb0565b90505b6000846001600160a01b03166382c630666040518163ffffffff1660e01b815260040160206040518083038186803b15801561181c57600080fd5b505afa158015611830573d6000803e3d6000fd5b505050506040513d601f19601f820116820180604052508101906118549190613b82565b90506001600160a01b0384163014611899576001600160a01b038416331461188e5760405162461bcd60e51b815260040161070990614cac565b611899848284613082565b6040517f095ea7b30000000000000000000000000000000000000000000000000000000081526001600160a01b0382169063095ea7b3906118e090889086906004016148f1565b602060405180830381600087803b1580156118fa57600080fd5b505af115801561190e573d6000803e3d6000fd5b505050506040513d601f19601f820116820180604052508101906119329190613e6f565b506040517f6e553f650000000000000000000000000000000000000000000000000000000081526001600160a01b03861690636e553f659061197a9085908790600401614de5565b600060405180830381600087803b15801561199457600080fd5b505af11580156119a8573d6000803e3d6000fd5b505050505050505050565b7f000000000000000000000000000000000000000000000000000000000000000090565b6001600160a01b0384163014806119ec575082155b611a085760405162461bcd60e51b815260040161070990614ce3565b606063fa6e671d60e01b338686604051602401611a27939291906147a5565b60408051601f19818403018152918152602080830180517bffffffffffffffffffffffffffffffffffffffffffffffffffffffff167fffffffff000000000000000000000000000000000000000000000000000000009095169490941790935251611a9692869186910161475e565b60408051601f1981840301815291905290506112a46001600160a01b037f0000000000000000000000000000000000000000000000000000000000000000168261311e565b6040517fc65427940000000000000000000000000000000000000000000000000000000081526001600160a01b037f0000000000000000000000000000000000000000000000000000000000000000169063c654279490611b4c9030908a908a908a908a908a908a906004016148ad565b600060405180830381600087803b158015611b6657600080fd5b505af1158015611b7a573d6000803e3d6000fd5b50505050505050505050565b866001600160a01b031663d505accf87611b9e611c00565b88888888886040518863ffffffff1660e01b8152600401611bc5979695949392919061486c565b600060405180830381600087803b158015611bdf57600080fd5b505af1158015611bf3573d6000803e3d6000fd5b5050505050505050505050565b7f000000000000000000000000000000000000000000000000000000000000000090565b6001600160a01b038516331480611c4357506001600160a01b03851630145b611c5f5760405162461bcd60e51b815260040161070990614cac565b6000611c6a88613196565b90506000611c7783612f65565b611c82576000611d17565b6040517f70a082310000000000000000000000000000000000000000000000000000000081526001600160a01b038316906370a0823190611cc7908990600401614791565b60206040518083038186803b158015611cdf57600080fd5b505afa158015611cf3573d6000803e3d6000fd5b505050506040513d601f19601f82011682018060405250810190611d179190614531565b9050611d2788866040015161319c565b6040860152611d34611c00565b6001600160a01b031663b95cac28858b8a8a8a6040518663ffffffff1660e01b8152600401611d669493929190614afd565b6000604051808303818588803b158015611d7f57600080fd5b505af1158015611d93573d6000803e3d6000fd5b5050505050611da183612f65565b156119a8576040517f70a082310000000000000000000000000000000000000000000000000000000081526000906001600160a01b038416906370a0823190611dee908a90600401614791565b60206040518083038186803b158015611e0657600080fd5b505afa158015611e1a573d6000803e3d6000fd5b505050506040513d601f19601f82011682018060405250810190611e3e9190614531565b9050611b7a846108a383856131ca565b876001600160a01b0316638fcbaf0c88611e66611c00565b8989898989896040518963ffffffff1660e01b8152600401611e8f989796959493929190614823565b600060405180830381600087803b158015611ea957600080fd5b505af1158015611ebd573d6000803e3d6000fd5b505050505050505050505050565b611ed482612f65565b15611ee557611ee282612fb0565b91505b6000856001600160a01b0316636f307dc36040518163ffffffff1660e01b815260040160206040518083038186803b158015611f2057600080fd5b505afa158015611f34573d6000803e3d6000fd5b505050506040513d601f19601f82011682018060405250810190611f589190613b82565b90506001600160a01b0385163014611f9d576001600160a01b0385163314611f925760405162461bcd60e51b815260040161070990614cac565b611f9d858285613082565b6040517f095ea7b30000000000000000000000000000000000000000000000000000000081526001600160a01b0382169063095ea7b390611fe490899087906004016148f1565b602060405180830381600087803b158015611ffe57600080fd5b505af1158015612012573d6000803e3d6000fd5b505050506040513d601f19601f820116820180604052508101906120369190613e6f565b506040517f2f4f21e20000000000000000000000000000000000000000000000000000000081526000906001600160a01b03881690632f4f21e29061165590889088906004016148f1565b61208a81612f65565b1561209b5761209881612fb0565b90505b816001600160a01b031663095ea7b36120b2611c00565b836040518363ffffffff1660e01b81526004016120d09291906148f1565b602060405180830381600087803b1580156120ea57600080fd5b505af11580156120fe573d6000803e3d6000fd5b505050506040513d601f19601f820116820180604052508101906121229190613e6f565b505050565b61213082612f65565b156121415761213e82612fb0565b91505b6001600160a01b0384163014612184576001600160a01b03841633146121795760405162461bcd60e51b815260040161070990614cac565b612184848684613082565b6000856001600160a01b031663fc0c546a6040518163ffffffff1660e01b815260040160206040518083038186803b1580156121bf57600080fd5b505afa1580156121d3573d6000803e3d6000fd5b505050506040513d601f19601f820116820180604052508101906121f79190613b82565b6040517f2e1a7d4d0000000000000000000000000000000000000000000000000000000081529091506001600160a01b03871690632e1a7d4d9061223f908690600401614ddc565b600060405180830381600087803b15801561225957600080fd5b505af115801561226d573d6000803e3d6000fd5b50506040517f70a08231000000000000000000000000000000000000000000000000000000008152600092506001600160a01b03841691506370a08231906122b9903090600401614791565b60206040518083038186803b1580156122d157600080fd5b505afa1580156122e5573d6000803e3d6000fd5b505050506040513d601f19601f820116820180604052508101906123099190614531565b6040517fa9059cbb0000000000000000000000000000000000000000000000000000000081529091506001600160a01b0383169063a9059cbb9061235390889085906004016148f1565b602060405180830381600087803b15801561236d57600080fd5b505af1158015612381573d6000803e3d6000fd5b505050506040513d601f19601f820116820180604052508101906123a59190613e6f565b506116b283612f65565b6001600160a01b0385163314806123ce57506001600160a01b03851630145b6123ea5760405162461bcd60e51b815260040161070990614cac565b60608167ffffffffffffffff8111801561240357600080fd5b5060405190808252806020026020018201604052801561242d578160200160208202803683370190505b50905060608267ffffffffffffffff8111801561244957600080fd5b50604051908082528060200260200182016040528015612473578160200160208202803683370190505b50905060005b838110156125e35761249085858381811061082e57fe5b6124ac5760405162461bcd60e51b815260040161070990614d1a565b85516000908686848181106124bd57fe5b90506040020160000135815181106124d157fe5b6020026020010151905086606001511561251f576124ee816131e0565b8483815181106124fa57fe5b60200260200101906001600160a01b031690816001600160a01b0316815250506125da565b612528816131e3565b6125b557612535816131e0565b6001600160a01b03166370a08231896040518263ffffffff1660e01b81526004016125609190614791565b60206040518083038186803b15801561257857600080fd5b505afa15801561258c573d6000803e3d6000fd5b505050506040513d601f19601f820116820180604052508101906125b09190614531565b6125c1565b876001600160a01b0316315b8383815181106125cd57fe5b6020026020010181815250505b50600101612479565b5084606001511561267a576125f6611c00565b6001600160a01b0316630f5a6efa87846040518363ffffffff1660e01b81526004016126239291906147c9565b60006040518083038186803b15801561263b57600080fd5b505afa15801561264f573d6000803e3d6000fd5b505050506040513d6000823e601f3d908101601f191682016040526126779190810190613e34565b90505b6126888886604001516131f0565b6040860152612695611c00565b6001600160a01b0316638bdb39138a8989896040518563ffffffff1660e01b81526004016126c69493929190614afd565b600060405180830381600087803b1580156126e057600080fd5b505af11580156126f4573d6000803e3d6000fd5b50606092508591505067ffffffffffffffff8111801561271357600080fd5b5060405190808252806020026020018201604052801561273d578160200160208202803683370190505b5090508560600151156127da57612752611c00565b6001600160a01b0316630f5a6efa88856040518363ffffffff1660e01b815260040161277f9291906147c9565b60006040518083038186803b15801561279757600080fd5b505afa1580156127ab573d6000803e3d6000fd5b505050506040513d6000823e601f3d908101601f191682016040526127d39190810190613e34565b90506128d8565b60005b848110156128d65786516000908787848181106127f657fe5b905060400201600001358151811061280a57fe5b6020026020010151905061281d816131e3565b6128aa5761282a816131e0565b6001600160a01b03166370a082318a6040518263ffffffff1660e01b81526004016128559190614791565b60206040518083038186803b15801561286d57600080fd5b505afa158015612881573d6000803e3d6000fd5b505050506040513d601f19601f820116820180604052508101906128a59190614531565b6128b6565b886001600160a01b0316315b8383815181106128c257fe5b6020908102919091010152506001016127dd565b505b60005b84811015611bf3576129358686838181106128f257fe5b905060400201602001356108a385848151811061290b57fe5b602002602001015185858151811061291f57fe5b60200260200101516131ca90919063ffffffff16565b6001016128db565b61294682612f65565b156129575761295482612fb0565b91505b6001600160a01b03841630146129ba576001600160a01b038416331461298f5760405162461bcd60e51b815260040161070990614cac565b6129ba847f000000000000000000000000000000000000000000000000000000000000000084613082565b6040517fde0e9a3e0000000000000000000000000000000000000000000000000000000081526000906001600160a01b037f0000000000000000000000000000000000000000000000000000000000000000169063de0e9a3e90612a22908690600401614ddc565b602060405180830381600087803b158015612a3c57600080fd5b505af1158015612a50573d6000803e3d6000fd5b505050506040513d601f19601f82011682018060405250810190612a749190614531565b90506001600160a01b0384163014610b9d576040517fa9059cbb0000000000000000000000000000000000000000000000000000000081526001600160a01b037f0000000000000000000000000000000000000000000000000000000000000000169063a9059cbb90610b4990879085906004016148f1565b612af682612f65565b15612b0757612b0482612fb0565b91505b6000856001600160a01b031663fc0c546a6040518163ffffffff1660e01b815260040160206040518083038186803b158015612b4257600080fd5b505afa158015612b56573d6000803e3d6000fd5b505050506040513d601f19601f82011682018060405250810190612b7a9190613b82565b90506001600160a01b0385163014612bbf576001600160a01b0385163314612bb45760405162461bcd60e51b815260040161070990614cac565b612bbf858285613082565b6040517f095ea7b30000000000000000000000000000000000000000000000000000000081526001600160a01b0382169063095ea7b390612c0690899087906004016148f1565b602060405180830381600087803b158015612c2057600080fd5b505af1158015612c34573d6000803e3d6000fd5b505050506040513d601f19601f82011682018060405250810190612c589190613e6f565b506040517fb6b55f250000000000000000000000000000000000000000000000000000000081526001600160a01b0387169063b6b55f2590612c9e908690600401614ddc565b600060405180830381600087803b158015612cb857600080fd5b505af1158015612ccc573d6000803e3d6000fd5b50506040517f70a08231000000000000000000000000000000000000000000000000000000008152600092506001600160a01b03891691506370a0823190612d18903090600401614791565b60206040518083038186803b158015612d3057600080fd5b505afa158015612d44573d6000803e3d6000fd5b505050506040513d601f19601f82011682018060405250810190612d689190614531565b6040517fa9059cbb0000000000000000000000000000000000000000000000000000000081529091506001600160a01b0388169063a9059cbb9061235390889085906004016148f1565b60005b82811015612e465733848483818110612dca57fe5b905060a002016060016020810190612de29190613b66565b6001600160a01b03161480612e22575030848483818110612dff57fe5b905060a002016060016020810190612e179190613b66565b6001600160a01b0316145b612e3e5760405162461bcd60e51b815260040161070990614cac565b600101612db5565b50612e4f611c00565b6001600160a01b0316630e8e3e848285856040518463ffffffff1660e01b8152600401612e7d9291906149b9565b6000604051808303818588803b158015612e9657600080fd5b505af1158015611187573d6000803e3d6000fd5b612eb382612f65565b15612ec457612ec182612fb0565b91505b6001600160a01b0384163014612f07576001600160a01b0384163314612efc5760405162461bcd60e51b815260040161070990614cac565b612f07848684613082565b6040517fba0876520000000000000000000000000000000000000000000000000000000081526000906001600160a01b0387169063ba0876529061123890869088903090600401614dfc565b6000612f5e82613217565b9392505050565b7fba100000000000000000000000000000000000000000000000000000000000007ffff00000000000000000000000000000000000000000000000000000000000008216145b919050565b6000806000612fbe84613217565b91509150612fcb8461322e565b15612f5e57600082559392505050565b612fea814710156101a3613275565b6000826001600160a01b031682604051613003906131e0565b60006040518083038185875af1925050503d8060008114613040576040519150601f19603f3d011682016040523d82523d6000602084013e613045565b606091505b50509050612122816101a4613275565b600061306083613287565b919091555050565b600080821361307a578160000361307c565b815b92915050565b8061308c57612122565b6040805160018082528183019092526060916020808301908036833701905050905082816000815181106130bc57fe5b6001600160a01b039290921660209283029190910190910152604080516001808252818301909252606091816020016020820280368337019050509050828160008151811061310757fe5b602002602001018181525050610bb58583836132e5565b606060006060846001600160a01b03168460405161313c9190614742565b6000604051808303816000865af19150503d8060008114613179576040519150601f19603f3d011682016040523d82523d6000602084013e61317e565b606091505b509150915061318d828261341f565b95945050505050565b60601c90565b606060008380156131a957fe5b14156131bf576131b882613449565b905061307c565b61307c610136613486565b60006131da838311156001613275565b50900390565b90565b6001600160a01b03161590565b606060008380156131fd57fe5b141561320c576131b8826134b3565b61307c610150613486565b60008061322383613287565b915081549050915091565b7fffff000000000000000000000000000000000000000000000000000000000000167fba100000000000000000000000000000000000000000000000000000000000001490565b816132835761328381613486565b5050565b60006001613294836134fc565b7f00000000000000000000000000000000000000000000000000000000000000006040516020016132c6929190614783565b60408051808303601f1901815291905280516020909101200392915050565b6060825167ffffffffffffffff811180156132ff57600080fd5b5060405190808252806020026020018201604052801561333957816020015b61332661374a565b81526020019060019003908161331e5790505b50905060005b83518110156133d1576040805160a08101909152806003815260200185838151811061336757fe5b60200260200101516001600160a01b0316815260200184838151811061338957fe5b60200260200101518152602001866001600160a01b03168152602001306001600160a01b03168152508282815181106133be57fe5b602090810291909101015260010161333f565b506133da611c00565b6001600160a01b0316630e8e3e84826040518263ffffffff1660e01b81526004016134059190614a67565b600060405180830381600087803b158015612e9657600080fd5b6060821561342e57508061307c565b81511561343e5781518083602001fd5b61307c6101ae613486565b606060006134568361351f565b9050600181600381111561346657fe5b141561347d5761347583613535565b915050612fab565b82915050612fab565b6134b0817f42414c00000000000000000000000000000000000000000000000000000000006135e3565b50565b606060006134c08361351f565b905060008160038111156134d057fe5b14156134df5761347583613644565b60018160038111156134ed57fe5b141561347d57613475836136a7565b7dffffffffffffffffffffffffffffffffffffffffffffffffffffffffffff1690565b60008180602001905181019061307c9190614258565b6060806000613543846136fa565b915091506000805b83518110156135a957600084828151811061356257fe5b6020026020010151905061357581612f65565b156135a05761358381612fb0565b85838151811061358f57fe5b602002602001018181525050600192505b5060010161354b565b50806135b5578461318d565b600183836040516020016135cb93929190614b71565b60405160208183030381529060405295945050505050565b62461bcd60e51b600090815260206004526007602452600a808404818106603090810160081b958390069590950190829004918206850160101b01602363ffffff0060e086901c160160181b0190930160c81b60445260e882901c90606490fd5b60606000806136528461371d565b9150915061365f82612f65565b1561369d5761366d82612fb0565b91506000828260405160200161368593929190614b50565b60405160208183030381529060405292505050612fab565b8392505050612fab565b606060006136b483613734565b90506136bf81612f65565b1561347d576136cd81612fb0565b90506001816040516020016136e3929190614b39565b604051602081830303815290604052915050612fab565b606060008280602001905181019061371291906142d7565b909590945092505050565b6000808280602001905181019061371291906142a1565b600081806020019051810190612f5e9190614274565b6040805160a081019091528060008152600060208201819052604082018190526060820181905260809091015290565b803561307c81614eaf565b60008083601f840112613796578182fd5b50813567ffffffffffffffff8111156137ad578182fd5b60208301915083602080830285010111156137c757600080fd5b9250929050565b600082601f8301126137de578081fd5b81356137f16137ec82614e42565b614e1b565b81815291506020808301908481018184028601820187101561381257600080fd5b60005b8481101561383a57813561382881614eaf565b84529282019290820190600101613815565b505050505092915050565b600082601f830112613855578081fd5b81356138636137ec82614e42565b818152915060208083019084810160005b8481101561383a578135870160a080601f19838c0301121561389557600080fd5b61389e81614e1b565b85830135815260408084013587830152606080850135828401526080915081850135818401525082840135925067ffffffffffffffff8311156138e057600080fd5b6138ee8c8885870101613a10565b90820152865250509282019290820190600101613874565b60008083601f840112613917578182fd5b50813567ffffffffffffffff81111561392e578182fd5b6020830191508360206040830285010111156137c757600080fd5b600082601f830112613959578081fd5b81356139676137ec82614e42565b81815291506020808301908481018184028601820187101561398857600080fd5b60005b8481101561383a5781358452928201929082019060010161398b565b600082601f8301126139b7578081fd5b81516139c56137ec82614e42565b8181529150602080830190848101818402860182018710156139e657600080fd5b60005b8481101561383a578151845292820192908201906001016139e9565b803561307c81614ec4565b600082601f830112613a20578081fd5b813567ffffffffffffffff811115613a36578182fd5b613a496020601f19601f84011601614e1b565b9150808252836020828501011115613a6057600080fd5b8060208401602084013760009082016020015292915050565b80356001811061307c57600080fd5b80356002811061307c57600080fd5b600060808284031215613aa8578081fd5b613ab26080614e1b565b9050813567ffffffffffffffff80821115613acc57600080fd5b613ad8858386016137ce565b83526020840135915080821115613aee57600080fd5b613afa85838601613949565b60208401526040840135915080821115613b1357600080fd5b50613b2084828501613a10565b604083015250613b338360608401613a05565b606082015292915050565b600060808284031215613b4f578081fd5b50919050565b803560ff8116811461307c57600080fd5b600060208284031215613b77578081fd5b8135612f5e81614eaf565b600060208284031215613b93578081fd5b8151612f5e81614eaf565b60008060008060808587031215613bb3578283fd5b8435613bbe81614eaf565b93506020850135613bce81614eaf565b93969395505050506040820135916060013590565b60008060008060608587031215613bf8578182fd5b8435613c0381614eaf565b93506020850135613c1381614ec4565b9250604085013567ffffffffffffffff80821115613c2f578384fd5b818701915087601f830112613c42578384fd5b813581811115613c50578485fd5b886020828501011115613c61578485fd5b95989497505060200194505050565b600080600060608486031215613c84578081fd5b8335613c8f81614eaf565b95602085013595506040909401359392505050565b600080600060408486031215613cb8578081fd5b833567ffffffffffffffff811115613cce578182fd5b613cda86828701613785565b909790965060209590950135949350505050565b60008060208385031215613d00578182fd5b823567ffffffffffffffff811115613d16578283fd5b613d2285828601613785565b90969095509350505050565b60006020808385031215613d40578182fd5b825167ffffffffffffffff811115613d56578283fd5b8301601f81018513613d66578283fd5b8051613d746137ec82614e42565b8181528381019083850185840285018601891015613d90578687fd5b8694505b83851015613db2578051835260019490940193918501918501613d94565b50979650505050505050565b600080600060408486031215613dd2578081fd5b833567ffffffffffffffff80821115613de9578283fd5b818601915086601f830112613dfc578283fd5b813581811115613e0a578384fd5b87602060a083028501011115613e1e578384fd5b6020928301989097509590910135949350505050565b600060208284031215613e45578081fd5b815167ffffffffffffffff811115613e5b578182fd5b613e67848285016139a7565b949350505050565b600060208284031215613e80578081fd5b8151612f5e81614ec4565b60008060008060008060c08789031215613ea3578384fd5b8635613eae81614ec4565b95506020870135613ebe81614eaf565b945060408701359350613ed48860608901613b55565b92506080870135915060a087013590509295509295509295565b600080600080600080600060c0888a031215613f08578485fd5b87359650613f198960208a01613a79565b95506040880135613f2981614eaf565b94506060880135613f3981614eaf565b9350608088013567ffffffffffffffff80821115613f55578283fd5b613f618b838c01613a97565b945060a08a0135915080821115613f76578283fd5b50613f838a828b01613906565b989b979a50959850939692959293505050565b600080600080600080600060e0888a031215613fb0578081fd5b87359650613fc18960208a01613a79565b95506040880135613fd181614eaf565b94506060880135613fe181614eaf565b9350608088013567ffffffffffffffff811115613ffc578182fd5b6140088a828b01613a97565b93505060a0880135915060c0880135905092959891949750929550565b600080600080600080600080610100898b031215614041578182fd5b883561404c81614eaf565b9750602089013561405c81614eaf565b96506040890135955060608901359450608089013561407a81614ec4565b93506140898a60a08b01613b55565b925060c0890135915060e089013590509295985092959890939650565b600080600080600080600060e0888a0312156140c0578081fd5b87356140cb81614eaf565b965060208801356140db81614eaf565b955060408801359450606088013593506140f88960808a01613b55565b925060a0880135915060c0880135905092959891949750929550565b60008060408385031215614126578182fd5b823561413181614eaf565b946020939093013593505050565b600080600080600060a08688031215614156578283fd5b853561416181614eaf565b9450602086013561417181614eaf565b9350604086013561418181614eaf565b94979396509394606081013594506080013592915050565b600080600080608085870312156141ae578182fd5b84356141b981614eaf565b935060208501356141c981614eaf565b925060408501356141d981614eaf565b9396929550929360600135925050565b60008060008060008060c08789031215614201578384fd5b863561420c81614eaf565b9550602087013561421c81614eaf565b9450604087013561422c81614eaf565b935060608701359250608087013561424381614ec4565b8092505060a087013590509295509295509295565b600060208284031215614269578081fd5b8151612f5e81614ed2565b60008060408385031215614286578182fd5b825161429181614ed2565b6020939093015192949293505050565b6000806000606084860312156142b5578081fd5b83516142c081614ed2565b602085015160409095015190969495509392505050565b6000806000606084860312156142eb578081fd5b83516142f681614ed2565b602085015190935067ffffffffffffffff811115614312578182fd5b61431e868287016139a7565b925050604084015190509250925092565b60008060008060008060008060008060006101608c8e031215614350578485fd5b61435a8d8d613a88565b9a5067ffffffffffffffff8060208e01351115614375578586fd5b6143858e60208f01358f01613845565b9a508060408e01351115614397578586fd5b6143a78e60408f01358f01613785565b909a5098506143b98e60608f01613b3e565b97508060e08e013511156143cb578586fd5b6143db8e60e08f01358f01613785565b90975095506101008d013594506101208d013593506101408d0135811015614401578283fd5b506144138d6101408e01358e01613906565b81935080925050509295989b509295989b9093969950565b6000806000806000806101208789031215614444578384fd5b863567ffffffffffffffff8082111561445b578586fd5b9088019060c0828b03121561446e578586fd5b61447860c0614e1b565b823581526144898b60208501613a88565b6020820152604083013561449c81614eaf565b60408201526144ae8b6060850161377a565b60608201526080830135608082015260a0830135828111156144ce578788fd5b6144da8c828601613a10565b60a0830152508098505050506144f38860208901613b3e565b959895975050505060a08401359360c08101359360e08201359350610100909101359150565b60006020828403121561452a578081fd5b5035919050565b600060208284031215614542578081fd5b5051919050565b6000806040838503121561455b578182fd5b505080516020909101519092909150565b6001600160a01b03169052565b60008284526020808501945082825b858110156145b657813561459b81614eaf565b6001600160a01b031687529582019590820190600101614588565b509495945050505050565b60008284526020808501945082825b858110156145b6578135875295820195908201906001016145d0565b6000815180845260208085019450808401835b838110156145b6578151875295820195908201906001016145ff565b15159052565b60008151808452614639816020860160208601614e6f565b601f01601f19169290920160200192915050565b8051608080845281519084018190526000916020919082019060a0860190845b818110156146925783516001600160a01b03168352928401929184019160010161466d565b5050828501519150858103838701526146ab81836145ec565b92505050604083015184820360408601526146c68282614621565b91505060608301516146db606086018261461b565b509392505050565b80356146ee81614eaf565b6001600160a01b03908116835260208201359061470a82614ec4565b901515602084015260408201359061472182614eaf565b166040830152606081013561473581614ec4565b8015156060840152505050565b60008251614754818460208701614e6f565b9190910192915050565b60008451614770818460208901614e6f565b8201838582379092019182525092915050565b918252602082015260400190565b6001600160a01b0391909116815260200190565b6001600160a01b039384168152919092166020820152901515604082015260600190565b6000604082016001600160a01b03808616845260206040818601528286518085526060870191508288019450855b818110156148155785518516835294830194918301916001016147f7565b509098975050505050505050565b6001600160a01b039889168152969097166020870152604086019490945260608501929092521515608084015260ff1660a083015260c082015260e08101919091526101000190565b6001600160a01b0397881681529590961660208601526040850193909352606084019190915260ff16608083015260a082015260c081019190915260e00190565b6001600160a01b0397881681529515156020870152939095166040850152606084019190915260ff16608083015260a082019290925260c081019190915260e00190565b6001600160a01b03929092168252602082015260400190565b6001600160a01b0393909316835260208301919091521515604082015260600190565b6001600160a01b03949094168452602084019290925261ffff1660408301521515606082015260800190565b6040808252810183905260008460608301825b8681101561499c576020833561498181614eaf565b6001600160a01b03168352928301929091019060010161496c565b5080925050506001600160a01b0383166020830152949350505050565b6020808252818101839052600090604080840186845b87811015614a5a5781356149e281614ed2565b6149eb81614e9b565b8352818501356149fa81614eaf565b6001600160a01b03168386015281840135848401526060614a1d81840184614e62565b614a298286018261456c565b50506080614a3981840184614e62565b614a458286018261456c565b505060a09283019291909101906001016149cf565b5090979650505050505050565b602080825282518282018190526000919060409081850190868401855b82811015614af05781518051614a9981614e9b565b8552808701516001600160a01b0316878601528581015186860152606080820151614ac68288018261456c565b505060809081015190614adb8682018361456c565b505060a0939093019290850190600101614a84565b5091979650505050505050565b60008582526001600160a01b03808616602084015280851660408401525060806060830152614b2f608083018461464d565b9695505050505050565b60408101614b4684614e9b565b9281526020015290565b60608101614b5d85614e9b565b938152602081019290925260409091015290565b6000614b7c85614e9b565b84825260606020830152614b9360608301856145ec565b9050826040830152949350505050565b6000610120808301614bb48c614ea5565b8b84526020808501929092528a5190819052610140808501928281028601909101918c8201855b82811015614c5b578785037ffffffffffffffffffffffffffffffffffffffffffffffffffffffffffffffec00186528151805186528481015185870152604080820151908701526060808201519087015260809081015160a091870182905290614c4781880183614621565b978601979650505090830190600101614bdb565b505050508381036040850152614c72818a8c614579565b915050614c8260608401886146e3565b82810360e0840152614c958186886145c1565b915050826101008301529998505050505050505050565b60208082526010908201527f496e636f72726563742073656e64657200000000000000000000000000000000604082015260600190565b6020808252601f908201527f52656c617965722063616e206f6e6c7920617070726f766520697473656c6600604082015260600190565b60208082526019908201527f696e76616c696420636861696e6564207265666572656e636500000000000000604082015260600190565b600060e08252855160e08301526020860151614d6c81614ea5565b61010083015260408601516001600160a01b03908116610120840152606087015116610140830152608086015161016083015260a086015160c0610180840152614dba6101a0840182614621565b915050614dca60208301866146e3565b60a082019390935260c0015292915050565b90815260200190565b9182526001600160a01b0316602082015260400190565b9283526001600160a01b03918216602084015216604082015260600190565b60405181810167ffffffffffffffff81118282101715614e3a57600080fd5b604052919050565b600067ffffffffffffffff821115614e58578081fd5b5060209081020190565b60008235612f5e81614eaf565b60005b83811015614e8a578181015183820152602001614e72565b838111156104c65750506000910152565b600481106134b057fe5b600281106134b057fe5b6001600160a01b03811681146134b057600080fd5b80151581146134b057600080fd5b600481106134b057600080fdfea264697066735822122050b32f1916dd2bfb3a1d0a43f7959f7e0894f8a708f95ba38dda2a8251d8bb9564736f6c6343000701003360c060405234801561001057600080fd5b5060405161078738038061078783398101604081905261002f91610052565b60016000556001600160601b0319606092831b8116608052911b1660a0526100a3565b60008060408385031215610064578182fd5b825161006f8161008b565b60208401519092506100808161008b565b809150509250929050565b6001600160a01b03811681146100a057600080fd5b50565b60805160601c60a05160601c6106b36100d46000398060fc528061020f5250806058528061012052506106b36000f3fe6080604052600436106100385760003560e01c80637678922e146100885780638d928af8146100b3578063ac9650d8146100c857610083565b36610083576100813373ffffffffffffffffffffffffffffffffffffffff7f000000000000000000000000000000000000000000000000000000000000000016146102066100e8565b005b600080fd5b34801561009457600080fd5b5061009d6100fa565b6040516100aa919061050e565b60405180910390f35b3480156100bf57600080fd5b5061009d61011e565b6100db6100d6366004610480565b610142565b6040516100aa919061052f565b816100f6576100f68161026e565b5050565b7f000000000000000000000000000000000000000000000000000000000000000090565b7f000000000000000000000000000000000000000000000000000000000000000090565b606061014c61029b565b8167ffffffffffffffff8111801561016357600080fd5b5060405190808252806020026020018201604052801561019757816020015b60608152602001906001900390816101825790505b50905060005b82811015610257576102388484838181106101b457fe5b90506020028101906101c691906105e3565b8080601f0160208091040260200160405190810160405280939291908181526020018383808284376000920191909152505073ffffffffffffffffffffffffffffffffffffffff7f000000000000000000000000000000000000000000000000000000000000000016929150506102b4565b82828151811061024457fe5b602090810291909101015260010161019d565b50610260610337565b610268610348565b92915050565b610298817f42414c000000000000000000000000000000000000000000000000000000000061034f565b50565b6102ad600260005414156101906100e8565b6002600055565b6060600060608473ffffffffffffffffffffffffffffffffffffffff16846040516102df91906104ef565b600060405180830381855af49150503d806000811461031a576040519150601f19603f3d011682016040523d82523d6000602084013e61031f565b606091505b509150915061032e82826103ca565b95945050505050565b4780156102985761029833826103f4565b6001600055565b7f08c379a000000000000000000000000000000000000000000000000000000000600090815260206004526007602452600a808404818106603090810160081b958390069590950190829004918206850160101b01602363ffffff0060e086901c160160181b0190930160c81b60445260e882901c90606490fd5b606082156103d9575080610268565b8151156103e95781518083602001fd5b6102686101ae61026e565b610403814710156101a36100e8565b60008273ffffffffffffffffffffffffffffffffffffffff16826040516104299061050b565b60006040518083038185875af1925050503d8060008114610466576040519150601f19603f3d011682016040523d82523d6000602084013e61046b565b606091505b5050905061047b816101a46100e8565b505050565b60008060208385031215610492578182fd5b823567ffffffffffffffff808211156104a9578384fd5b818501915085601f8301126104bc578384fd5b8135818111156104ca578485fd5b86602080830285010111156104dd578485fd5b60209290920196919550909350505050565b6000825161050181846020870161064d565b9190910192915050565b90565b73ffffffffffffffffffffffffffffffffffffffff91909116815260200190565b6000602080830181845280855180835260408601915060408482028701019250838701855b828110156105d6577fffffffffffffffffffffffffffffffffffffffffffffffffffffffffffffffc088860301845281518051808752610599818989018a850161064d565b601f017fffffffffffffffffffffffffffffffffffffffffffffffffffffffffffffffe01695909501860194509285019290850190600101610554565b5092979650505050505050565b60008083357fffffffffffffffffffffffffffffffffffffffffffffffffffffffffffffffe1843603018112610617578283fd5b83018035915067ffffffffffffffff821115610631578283fd5b60200191503681900382131561064657600080fd5b9250929050565b60005b83811015610668578181015183820152602001610650565b83811115610677576000848401525b5050505056fea2646970667358221220063fdaaad6c7f32fb6dd53f100269a9ea16c7241c4a9587b1f83f82a35b5424264736f6c63430007010033",
  "linkReferences": {},
  "deployedLinkReferences": {}
}