{
  "_format": "hh-sol-artifact-1",
  "contractName": "BinanceBeaconEthRateProvider",
  "sourceName": "contracts/BinanceBeaconEthRateProvider.sol",
  "abi": [
    {
      "inputs": [
        {
          "internalType": "contract IwBETH",
          "name": "_wBETH",
          "type": "address"
        }
      ],
      "stateMutability": "nonpayable",
      "type": "constructor"
    },
    {
      "inputs": [],
      "name": "getRate",
      "outputs": [
        {
          "internalType": "uint256",
          "name": "",
          "type": "uint256"
        }
      ],
      "stateMutability": "view",
      "type": "function"
    },
    {
      "inputs": [],
      "name": "wBETH",
      "outputs": [
        {
          "internalType": "contract IwBETH",
          "name": "",
          "type": "address"
        }
      ],
      "stateMutability": "view",
      "type": "function"
    }
  ],
  "bytecode": "0x60a060405234801561001057600080fd5b5060405161021738038061021783398101604081905261002f91610040565b6001600160a01b0316608052610070565b60006020828403121561005257600080fd5b81516001600160a01b038116811461006957600080fd5b9392505050565b60805161018761009060003960008181605b015260a601526101876000f3fe608060405234801561001057600080fd5b50600436106100365760003560e01c8063679aefce1461003b578063b89ba51a14610056575b600080fd5b6100436100a2565b6040519081526020015b60405180910390f35b61007d7f000000000000000000000000000000000000000000000000000000000000000081565b60405173ffffffffffffffffffffffffffffffffffffffff909116815260200161004d565b60007f000000000000000000000000000000000000000000000000000000000000000073ffffffffffffffffffffffffffffffffffffffff16633ba0b9a96040518163ffffffff1660e01b8152600401602060405180830381865afa15801561010f573d6000803e3d6000fd5b505050506040513d601f19601f820116820180604052508101906101339190610138565b905090565b60006020828403121561014a57600080fd5b505191905056fea2646970667358221220f48096196bdde895b2d93f2c9727e9349eccabc7c6ad6c8a6b811de3877661ba64736f6c634300080b0033",
  "linkReferences": {},
  "deployedLinkReferences": {}
}