{"contracts/TimelockAuthorizerMigrator.sol":{"TimelockAuthorizerMigrator":{"abi":[{"inputs":[{"internalType":"address","name":"_root","type":"address"},{"internalType":"contract IBasicAuthorizer","name":"_oldAuthorizer","type":"address"},{"internalType":"contract IAuthorizerAdaptorEntrypoint","name":"_authorizerAdaptorEntrypoint","type":"address"},{"components":[{"internalType":"address","name":"grantee","type":"address"},{"internalType":"bytes32","name":"role","type":"bytes32"},{"internalType":"address","name":"target","type":"address"}],"internalType":"struct TimelockAuthorizerMigrator.RoleData[]","name":"_rolesData","type":"tuple[]"},{"components":[{"internalType":"address","name":"grantee","type":"address"},{"internalType":"bytes32","name":"role","type":"bytes32"},{"internalType":"address","name":"target","type":"address"}],"internalType":"struct TimelockAuthorizerMigrator.RoleData[]","name":"_grantersData","type":"tuple[]"},{"components":[{"internalType":"address","name":"grantee","type":"address"},{"internalType":"bytes32","name":"role","type":"bytes32"},{"internalType":"address","name":"target","type":"address"}],"internalType":"struct TimelockAuthorizerMigrator.RoleData[]","name":"_revokersData","type":"tuple[]"},{"components":[{"internalType":"bytes32","name":"actionId","type":"bytes32"},{"internalType":"uint256","name":"newDelay","type":"uint256"}],"internalType":"struct TimelockAuthorizerMigrator.DelayData[]","name":"_executeDelaysData","type":"tuple[]"},{"components":[{"internalType":"bytes32","name":"actionId","type":"bytes32"},{"internalType":"uint256","name":"newDelay","type":"uint256"}],"internalType":"struct TimelockAuthorizerMigrator.DelayData[]","name":"_grantDelaysData","type":"tuple[]"}],"stateMutability":"nonpayable","type":"constructor"},{"inputs":[],"name":"CHANGE_ROOT_DELAY","outputs":[{"internalType":"uint256","name":"","type":"uint256"}],"stateMutability":"view","type":"function"},{"inputs":[],"name":"DEFAULT_ADMIN_ROLE","outputs":[{"internalType":"bytes32","name":"","type":"bytes32"}],"stateMutability":"view","type":"function"},{"inputs":[],"name":"EVERYWHERE","outputs":[{"internalType":"address","name":"","type":"address"}],"stateMutability":"view","type":"function"},{"inputs":[],"name":"GENERAL_PERMISSION_SPECIFIER","outputs":[{"internalType":"bytes32","name":"","type":"bytes32"}],"stateMutability":"view","type":"function"},{"inputs":[],"name":"executeDelays","outputs":[],"stateMutability":"nonpayable","type":"function"},{"inputs":[],"name":"finalizeMigration","outputs":[],"stateMutability":"nonpayable","type":"function"},{"inputs":[],"name":"newAuthorizer","outputs":[{"internalType":"contract TimelockAuthorizer","name":"","type":"address"}],"stateMutability":"view","type":"function"},{"inputs":[],"name":"oldAuthorizer","outputs":[{"internalType":"contract IBasicAuthorizer","name":"","type":"address"}],"stateMutability":"view","type":"function"},{"inputs":[],"name":"root","outputs":[{"internalType":"address","name":"","type":"address"}],"stateMutability":"view","type":"function"},{"inputs":[],"name":"rootChangeExecutionId","outputs":[{"internalType":"uint256","name":"","type":"uint256"}],"stateMutability":"view","type":"function"},{"inputs":[],"name":"startRootTransfer","outputs":[],"stateMutability":"nonpayable","type":"function"},{"inputs":[],"name":"vault","outputs":[{"internalType":"contract IVault","name":"","type":"address"}],"stateMutability":"view","type":"function"}],"evm":{"bytecode":{"linkReferences":{},"object":"6101006040523480156200001257600080fd5b5060405162005626380380620056268339810160408190526200003591620009c4565b600030876224ea006040516200004b906200083a565b620000599392919062000baf565b604051809103906000f08015801562000076573d6000803e3d6000fd5b506001600160601b0319606082811b821660e0528a811b821660c0528b901b1660a052604080516311b2515f60e31b815290519192506001600160a01b03891691638d928af891600480820192602092909190829003018186803b158015620000de57600080fd5b505afa158015620000f3573d6000803e3d6000fd5b505050506040513d601f19601f8201168201806040525081019062000119919062000b1d565b60601b6001600160601b03191660805260005b8651811015620002a9576200014062000848565b8782815181106200014d57fe5b60200260200101519050896001600160a01b0316639be2a8848260200151836000015184604001516040518463ffffffff1660e01b8152600401620001959392919062000c47565b60206040518083038186803b158015620001ae57600080fd5b505afa158015620001c3573d6000803e3d6000fd5b505050506040513d601f19601f82011682018060405250810190620001e9919062000adb565b620002115760405162461bcd60e51b8152600401620002089062000cb7565b60405180910390fd5b826001600160a01b0316636f8bc596620002358360200151620007a260201b60201c565b835160408501516200024790620007e4565b6040518463ffffffff1660e01b8152600401620002679392919062000bd3565b600060405180830381600087803b1580156200028257600080fd5b505af115801562000297573d6000803e3d6000fd5b5050600190930192506200012c915050565b5060005b85518110156200037557816001600160a01b03166378a08377878381518110620002d357fe5b602002602001015160200151888481518110620002ec57fe5b6020026020010151600001518985815181106200030557fe5b60200260200101516040015160016040518563ffffffff1660e01b815260040162000334949392919062000c66565b600060405180830381600087803b1580156200034f57600080fd5b505af115801562000364573d6000803e3d6000fd5b505060019092019150620002ad9050565b5060005b84518110156200044157816001600160a01b031663cf8475da8683815181106200039f57fe5b602002602001015160200151878481518110620003b857fe5b602002602001015160000151888581518110620003d157fe5b60200260200101516040015160016040518563ffffffff1660e01b815260040162000400949392919062000c66565b600060405180830381600087803b1580156200041b57600080fd5b505af115801562000430573d6000803e3d6000fd5b505060019092019150620003799050565b5060005b83518110156200055f5762278d008482815181106200046057fe5b60200260200101516020015111156200048d5760405162461bcd60e51b8152600401620002089062000ce0565b816001600160a01b031663f0845522858381518110620004a957fe5b602002602001015160000151868481518110620004c257fe5b602002602001015160200151620004df30620007e460201b60201c565b6040518463ffffffff1660e01b8152600401620004ff9392919062000c8d565b602060405180830381600087803b1580156200051a57600080fd5b505af11580156200052f573d6000803e3d6000fd5b505050506040513d601f19601f8201168201806040525081019062000555919062000b04565b5060010162000445565b5060005b8251811015620006fe5762278d008382815181106200057e57fe5b6020026020010151602001511115620005ab5760405162461bcd60e51b8152600401620002089062000ce0565b816001600160a01b031663f0845522836001600160a01b031663151b89d1868581518110620005d657fe5b6020026020010151600001516040518263ffffffff1660e01b815260040162000600919062000c3e565b60206040518083038186803b1580156200061957600080fd5b505afa1580156200062e573d6000803e3d6000fd5b505050506040513d601f19601f8201168201806040525081019062000654919062000b04565b8584815181106200066157fe5b6020026020010151602001516200067e30620007e460201b60201c565b6040518463ffffffff1660e01b81526004016200069e9392919062000c8d565b602060405180830381600087803b158015620006b957600080fd5b505af1158015620006ce573d6000803e3d6000fd5b505050506040513d601f19601f82011682018060405250810190620006f4919062000b04565b5060010162000563565b506001600160a01b038116632e3ed05b8a6200071a30620007e4565b6040518363ffffffff1660e01b81526004016200073992919062000b81565b602060405180830381600087803b1580156200075457600080fd5b505af115801562000769573d6000803e3d6000fd5b505050506040513d601f19601f820116820180604052508101906200078f919062000b04565b6000555062000d77975050505050505050565b604080516001808252818301909252606091602080830190803683370190505090508181600081518110620007d357fe5b602002602001018181525050919050565b6040805160018082528183019092526060916020808301908036833701905050905081816000815181106200081557fe5b60200260200101906001600160a01b031690816001600160a01b031681525050919050565b61390e8062001d1883390190565b604080516060810182526000808252602082018190529181019190915290565b8051620008758162000d5e565b92915050565b600082601f8301126200088c578081fd5b8151620008a36200089d8262000d3e565b62000d17565b8181529150602080830190848101604080850287018301881015620008c757600080fd5b6000805b868110156200090d5782848b031215620008e3578182fd5b620008ee8362000d17565b84518152858501518682015286529484019492820192600101620008cb565b5050505050505092915050565b600082601f8301126200092b578081fd5b81516200093c6200089d8262000d3e565b81815291506020808301908481016060808502870183018810156200096057600080fd5b6000805b868110156200090d5782848b0312156200097c578182fd5b620009878362000d17565b620009938b8662000868565b815285850151868201526040620009ad8c82880162000868565b908201528652948401949282019260010162000964565b600080600080600080600080610100898b031215620009e1578384fd5b620009ed8a8a62000868565b9750620009fe8a60208b0162000868565b965062000a0f8a60408b0162000868565b60608a01519096506001600160401b038082111562000a2c578586fd5b62000a3a8c838d016200091a565b965060808b015191508082111562000a50578586fd5b62000a5e8c838d016200091a565b955060a08b015191508082111562000a74578485fd5b62000a828c838d016200091a565b945060c08b015191508082111562000a98578384fd5b62000aa68c838d016200087b565b935060e08b015191508082111562000abc578283fd5b5062000acb8b828c016200087b565b9150509295985092959890939650565b60006020828403121562000aed578081fd5b8151801515811462000afd578182fd5b9392505050565b60006020828403121562000b16578081fd5b5051919050565b60006020828403121562000b2f578081fd5b815162000afd8162000d5e565b6000815180845260208085019450808401835b8381101562000b765781516001600160a01b03168752958201959082019060010162000b4f565b509495945050505050565b6001600160a01b038316815260406020820181905260009062000ba79083018462000b3c565b949350505050565b6001600160a01b039384168152919092166020820152604081019190915260600190565b606080825284519082018190526000906020906080840190828801845b8281101562000c0e5781518452928401929084019060010162000bf0565b5050506001600160a01b03861684830152838103604085015262000c33818662000b3c565b979650505050505050565b90815260200190565b9283526001600160a01b03918216602084015216604082015260600190565b9384526001600160a01b039283166020850152911660408301521515606082015260800190565b60008482528360208301526060604083015262000cae606083018462000b3c565b95945050505050565b6020808252600f908201526e554e45585045435445445f524f4c4560881b604082015260600190565b60208082526016908201527f554e45585045435445445f4c415247455f44454c415900000000000000000000604082015260600190565b6040518181016001600160401b038111828210171562000d3657600080fd5b604052919050565b60006001600160401b0382111562000d54578081fd5b5060209081020190565b6001600160a01b038116811462000d7457600080fd5b50565b60805160601c60a05160601c60c05160601c60e05160601c610f2362000df5600039806101a552806102d152806103cb52806104b352806105b9528061069e52806107025280610a365250806108c85280610a9652508061072f5280610aba52508061081d52806109065280610a095280610ade5250610f236000f3fe608060405234801561001057600080fd5b50600436106100d45760003560e01c8063a217fddf11610081578063ebf0c7171161005b578063ebf0c71714610146578063fbfa77cf1461014e578063fc78a22814610156576100d4565b8063a217fddf1461012e578063b78b608714610136578063c6bfe9ae1461013e576100d4565b80637217d9d1116100b25780637217d9d11461010957806398f85d5c1461011e578063a0c286d814610126576100d4565b806311f13145146100d95780633c44172d146100e357806362cde1ba146100eb575b600080fd5b6100e161015e565b005b6100e1610476565b6100f361066b565b6040516101009190610d0a565b60405180910390f35b61011161068f565b6040516101009190610d2b565b610111610696565b6100f361069c565b6101116106c0565b6100e16106c5565b6100f3610a94565b6100f3610ab8565b6100f3610adc565b61011161066b565b600054158061025257506040517f6badd2ab00000000000000000000000000000000000000000000000000000000815273ffffffffffffffffffffffffffffffffffffffff7f00000000000000000000000000000000000000000000000000000000000000001690636badd2ab906101db90600090600401610d2b565b60006040518083038186803b1580156101f357600080fd5b505afa158015610207573d6000803e3d6000fd5b505050506040513d6000823e601f3d9081017fffffffffffffffffffffffffffffffffffffffffffffffffffffffffffffffe016820160405261024d9190810190610c31565b604001515b610291576040517f08c379a000000000000000000000000000000000000000000000000000000000815260040161028890610e8f565b60405180910390fd5b6000546040517fcc63604a00000000000000000000000000000000000000000000000000000000815273ffffffffffffffffffffffffffffffffffffffff7f0000000000000000000000000000000000000000000000000000000000000000169163cc63604a916103059190600401610d2b565b60206040518083038186803b15801561031d57600080fd5b505afa158015610331573d6000803e3d6000fd5b505050506040513d601f19601f820116820180604052508101906103559190610bbc565b61038b576040517f08c379a000000000000000000000000000000000000000000000000000000000815260040161028890610e58565b6000546040517ffe0d94c100000000000000000000000000000000000000000000000000000000815273ffffffffffffffffffffffffffffffffffffffff7f0000000000000000000000000000000000000000000000000000000000000000169163fe0d94c1916103ff9190600401610d2b565b600060405180830381600087803b15801561041957600080fd5b505af115801561042d573d6000803e3d6000fd5b505050506040513d6000823e601f3d9081017fffffffffffffffffffffffffffffffffffffffffffffffffffffffffffffffe01682016040526104739190810190610bf6565b50565b6040517fcc63604a00000000000000000000000000000000000000000000000000000000815273ffffffffffffffffffffffffffffffffffffffff7f0000000000000000000000000000000000000000000000000000000000000000169063cc63604a906104e990600090600401610d2b565b60206040518083038186803b15801561050157600080fd5b505afa158015610515573d6000803e3d6000fd5b505050506040513d601f19601f820116820180604052508101906105399190610bbc565b61056f576040517f08c379a000000000000000000000000000000000000000000000000000000000815260040161028890610d8d565b60005b600054811015610473576040517ffe0d94c100000000000000000000000000000000000000000000000000000000815273ffffffffffffffffffffffffffffffffffffffff7f0000000000000000000000000000000000000000000000000000000000000000169063fe0d94c1906105ee908490600401610d2b565b600060405180830381600087803b15801561060857600080fd5b505af115801561061c573d6000803e3d6000fd5b505050506040513d6000823e601f3d9081017fffffffffffffffffffffffffffffffffffffffffffffffffffffffffffffffe01682016040526106629190810190610bf6565b50600101610572565b7fffffffffffffffffffffffffffffffffffffffffffffffffffffffffffffffff81565b6224ea0081565b60005481565b7f000000000000000000000000000000000000000000000000000000000000000081565b600081565b6040517f557a640300000000000000000000000000000000000000000000000000000000815273ffffffffffffffffffffffffffffffffffffffff7f0000000000000000000000000000000000000000000000000000000000000000169063557a640390610757907f000000000000000000000000000000000000000000000000000000000000000090600401610d0a565b60206040518083038186803b15801561076f57600080fd5b505afa158015610783573d6000803e3d6000fd5b505050506040513d601f19601f820116820180604052508101906107a79190610bbc565b6107dd576040517f08c379a000000000000000000000000000000000000000000000000000000000815260040161028890610dea565b6040517f851c1bb300000000000000000000000000000000000000000000000000000000815260009073ffffffffffffffffffffffffffffffffffffffff7f0000000000000000000000000000000000000000000000000000000000000000169063851c1bb390610872907f058a628f0000000000000000000000000000000000000000000000000000000090600401610d60565b60206040518083038186803b15801561088a57600080fd5b505afa15801561089e573d6000803e3d6000fd5b505050506040513d601f19601f820116820180604052508101906108c29190610bde565b905060007f000000000000000000000000000000000000000000000000000000000000000073ffffffffffffffffffffffffffffffffffffffff16639be2a88483307f00000000000000000000000000000000000000000000000000000000000000006040518463ffffffff1660e01b815260040161094393929190610d34565b60206040518083038186803b15801561095b57600080fd5b505afa15801561096f573d6000803e3d6000fd5b505050506040513d601f19601f820116820180604052508101906109939190610bbc565b9050806109cc576040517f08c379a000000000000000000000000000000000000000000000000000000000815260040161028890610e21565b6040517f058a628f00000000000000000000000000000000000000000000000000000000815273ffffffffffffffffffffffffffffffffffffffff7f0000000000000000000000000000000000000000000000000000000000000000169063058a628f90610a5e907f000000000000000000000000000000000000000000000000000000000000000090600401610d0a565b600060405180830381600087803b158015610a7857600080fd5b505af1158015610a8c573d6000803e3d6000fd5b505050505050565b7f000000000000000000000000000000000000000000000000000000000000000081565b7f000000000000000000000000000000000000000000000000000000000000000081565b7f000000000000000000000000000000000000000000000000000000000000000081565b80518015158114610b1057600080fd5b92915050565b600082601f830112610b26578081fd5b815167ffffffffffffffff811115610b3c578182fd5b6020610b6e817fffffffffffffffffffffffffffffffffffffffffffffffffffffffffffffffe0601f85011601610ec6565b92508183528481838601011115610b8457600080fd5b60005b82811015610ba2578481018201518482018301528101610b87565b82811115610bb35760008284860101525b50505092915050565b600060208284031215610bcd578081fd5b610bd78383610b00565b9392505050565b600060208284031215610bef578081fd5b5051919050565b600060208284031215610c07578081fd5b815167ffffffffffffffff811115610c1d578182fd5b610c2984828501610b16565b949350505050565b600060208284031215610c42578081fd5b815167ffffffffffffffff80821115610c59578283fd5b9083019060c08286031215610c6c578283fd5b610c7660c0610ec6565b825173ffffffffffffffffffffffffffffffffffffffff81168114610c99578485fd5b8152602083015182811115610cac578485fd5b610cb887828601610b16565b602083015250610ccb8660408501610b00565b6040820152610cdd8660608501610b00565b6060820152610cef8660808501610b00565b608082015260a083015160a082015280935050505092915050565b73ffffffffffffffffffffffffffffffffffffffff91909116815260200190565b90815260200190565b92835273ffffffffffffffffffffffffffffffffffffffff918216602084015216604082015260600190565b7fffffffff0000000000000000000000000000000000000000000000000000000091909116815260200190565b60208082526023908201527f43414e4e4f545f545249474745525f44454c4159535f4d4947524154494f4e5f60408201527f5945540000000000000000000000000000000000000000000000000000000000606082015260800190565b60208082526014908201527f524f4f545f4e4f545f434c41494d45445f594554000000000000000000000000604082015260600190565b6020808252601e908201527f4d49475241544f525f43414e4e4f545f5345545f415554484f52495a45520000604082015260600190565b6020808252601e908201527f43414e4e4f545f545249474745525f524f4f545f4348414e47455f5945540000604082015260600190565b60208082526017908201527f44454c4159535f4e4f545f4d494752415445445f594554000000000000000000604082015260600190565b60405181810167ffffffffffffffff81118282101715610ee557600080fd5b60405291905056fea2646970667358221220b446cc8050b42b9666cd8bda65a6f5b9e6bdbd36e7cac1f72a77ba1fa5bf93e764736f6c634300070100336101e06040523480156200001257600080fd5b506040516200390e3803806200390e8339810160408190526200003591620003df565b6001600055620000458362000265565b816001600160a01b0316638d928af86040518163ffffffff1660e01b815260040160206040518083038186803b1580156200007f57600080fd5b505afa15801562000094573d6000803e3d6000fd5b505050506040513d601f19601f82011682018060405250810190620000ba919062000426565b6001600160a01b0316610160816001600160a01b031660601b81525050816001600160a01b031663e758d36b6040518163ffffffff1660e01b815260040160206040518083038186803b1580156200011157600080fd5b505afa15801562000126573d6000803e3d6000fd5b505050506040513d601f19601f820116820180604052508101906200014c919062000426565b6001600160601b0319606091821b81166101a0529083901b16610180526040516200017790620003d1565b604051809103906000f08015801562000194573d6000803e3d6000fd5b5060601b6001600160601b031916610140526101c08190526000620001c06337c5e2cb60e11b620002af565b90506000620001d6634c07348160e01b620002af565b90506000620001e883600019620002e4565b90506000620001fa83600019620002e4565b90506200020b828860001962000319565b6200021a818860001962000319565b608084905260a08390526200023663fe0d94c160e01b620002af565b60c0526200024b6378422a9160e11b620002af565b60e052610100919091526101205250620004b19350505050565b600180546001600160a01b0319166001600160a01b0383169081179091556040517f39510b933a9d010f906528d6019d3f4e2450a10dc33b10887503b31ed82f111190600090a250565b604051600090620002c7903090849060200162000480565b604051602081830303815290604052805190602001209050919050565b60008282604051602001620002fb92919062000472565b60405160208183030381529060405280519060200120905092915050565b60006200032884848462000399565b60008181526004602052604090205490915060ff166200039357600081815260046020526040808220805460ff19166001179055516001600160a01b03808516929086169187917fef6ee312a0062a24a46be2eba5284183a87ff848110e8d4df979bd690d9e9f6891a45b50505050565b6000838383604051602001620003b2939291906200044c565b6040516020818303038152906040528051906020012090509392505050565b6104ef806200341f83390190565b600080600060608486031215620003f4578283fd5b8351620004018162000498565b6020850151909350620004148162000498565b80925050604084015190509250925092565b60006020828403121562000438578081fd5b8151620004458162000498565b9392505050565b9283526001600160601b0319606092831b81166020850152911b16603482015260480190565b918252602082015260400190565b9182526001600160e01b031916602082015260240190565b6001600160a01b0381168114620004ae57600080fd5b50565b60805160a05160c05160e05161010051610120516101405160601c6101605160601c6101805160601c6101a05160601c6101c051612e916200058e6000398061145b52508061132d5250806113555250806112f152806117ed5250806107ff5280610946528061102252806113ce52806117845280611a9f52806121895250806106f1528061074b5250806106c4528061071e52508061066f52806115835250806109b352806115575250806110d05280611614528061163d52806119295250806107915280611160528061143252806115af5250612e916000f3fe608060405234801561001057600080fd5b50600436106103155760003560e01c80637e1c556d116101a7578063d00bef4d116100ee578063e8104ea011610097578063f1521d7611610071578063f1521d761461060e578063fc78a22814610621578063fe0d94c11461062957610315565b8063e8104ea0146105d5578063f0845522146105e8578063f0bb9406146105fb57610315565b8063df6b0d01116100c8578063df6b0d01146105a7578063e2b4146b146105ba578063e5e6e8ae146105cd57610315565b8063d00bef4d14610579578063d754bad914610581578063d7ad1dcf1461059457610315565b80639be2a88411610150578063c284b6b91161012a578063c284b6b91461054b578063cc63604a14610553578063cf8475da1461056657610315565b80639be2a8841461051d5780639f81aed714610530578063b3eb281d1461053857610315565b8063863bac6b11610181578063863bac6b146104ef57806386ff254b146105025780638d928af81461051557610315565b80637e1c556d146104c157806382938ca8146104c9578063851c1bb3146104dc57610315565b80634125ff901161026b57806362cde1ba116102145780636f8bc596116101ee5780636f8bc59614610488578063715716a21461049b57806378a08377146104ae57610315565b806362cde1ba146104585780636badd2ab146104605780636c1032af1461048057610315565b806355ed08a11161024557806355ed08a11461041d5780635b78b780146104305780635ca1e1651461044357610315565b80634125ff90146103ef5780634c073481146103f7578063557a64031461040a57610315565b80631b3c85eb116102cd5780632e3ed05b116102a75780632e3ed05b146103b65780633bf46797146103c957806340e58ee5146103dc57610315565b80631b3c85eb146103885780632362716d1461039b5780632debdd2e146103ae57610315565b806314ea35e7116102fe57806314ea35e714610358578063151b89d114610362578063169f14681461037557610315565b80630df322a61461031a57806310697a3a14610343575b600080fd5b61032d6103283660046124b0565b610649565b60405161033a9190612ac0565b60405180910390f35b61034b61066d565b60405161033a9190612acb565b610360610691565b005b61034b610370366004612678565b61078a565b61034b610383366004612518565b6107bc565b6103606103963660046124b0565b61092b565b61034b6103a93660046126a8565b61097b565b61034b6109b1565b61034b6103c43660046124cb565b6109d5565b61034b6103d7366004612678565b610aa9565b6103606103ea366004612678565b610abb565b61034b610d11565b6103606104053660046125c6565b610d19565b61032d6104183660046124b0565b610da4565b61034b61042b3660046127a1565b610dc5565b61034b61043e3660046126e5565b610df8565b61044b610ed7565b60405161033a9190612958565b61044b610ef3565b61047361046e366004612678565b610ef9565b60405161033a9190612d29565b61044b611020565b6103606104963660046125c6565b611044565b61032d6104a93660046126a8565b6110c9565b6103606104bc36600461274d565b6110f7565b61034b61115e565b6103606104d7366004612621565b611182565b61034b6104ea366004612806565b6111cb565b61034b6104fd3660046126e5565b6111fe565b61032d6105103660046126a8565b6112c2565b61044b6112ef565b61032d61052b3660046126a8565b611313565b61034b611424565b61032d6105463660046126a8565b61142b565b61034b611459565b61032d610561366004612678565b61147d565b61036061057436600461274d565b6114f6565b61044b611534565b61034b61058f366004612678565b611550565b61034b6105a2366004612678565b61157c565b61032d6105b53660046126a8565b6115a8565b61032d6105c83660046126a8565b6115d6565b61034b611612565b61034b6105e3366004612678565b611636565b61034b6105f63660046127c2565b611662565b6103606106093660046127a1565b611769565b61032d61061c3660046126a8565b611922565b61034b610ef3565b61063c610637366004612678565b611950565b60405161033a9190612b01565b60025473ffffffffffffffffffffffffffffffffffffffff8281169116145b919050565b7f000000000000000000000000000000000000000000000000000000000000000081565b60015460025473ffffffffffffffffffffffffffffffffffffffff91821691166106bf338214610191611b67565b6106ec7f000000000000000000000000000000000000000000000000000000000000000082600019611b75565b6107197f000000000000000000000000000000000000000000000000000000000000000082600019611b75565b6107467f000000000000000000000000000000000000000000000000000000000000000083600019611bfe565b6107737f000000000000000000000000000000000000000000000000000000000000000083600019611bfe565b61077c81611c85565b6107866000611cf4565b5050565b60006107b67f000000000000000000000000000000000000000000000000000000000000000083610dc5565b92915050565b600073ffffffffffffffffffffffffffffffffffffffff84163014156107fd5760405162461bcd60e51b81526004016107f490612b14565b60405180910390fd5b7f000000000000000000000000000000000000000000000000000000000000000073ffffffffffffffffffffffffffffffffffffffff168473ffffffffffffffffffffffffffffffffffffffff1614156108695760405162461bcd60e51b81526004016107f490612b71565b60008473ffffffffffffffffffffffffffffffffffffffff1663851c1bb361089086611d63565b6040518263ffffffff1660e01b81526004016108ac9190612ad4565b60206040518083038186803b1580156108c457600080fd5b505afa1580156108d8573d6000803e3d6000fd5b505050506040513d601f19601f820116820180604052508101906108fc9190612690565b905061091461090c8233886115d6565b610191611b67565b61092081868686611e6f565b9150505b9392505050565b61096f3373ffffffffffffffffffffffffffffffffffffffff7f00000000000000000000000000000000000000000000000000000000000000001614610191611b67565b61097881611cf4565b50565b6000838383604051602001610992939291906128dc565b6040516020818303038152906040528051906020012090509392505050565b7f000000000000000000000000000000000000000000000000000000000000000081565b60006109e361090c33610da4565b6000610a0e7f1b3c85eb000000000000000000000000000000000000000000000000000000006111cb565b90506060631b3c85eb60e01b85604051602401610a2b9190612958565b60408051601f198184030181529190526020810180517bffffffffffffffffffffffffffffffffffffffffffffffffffffffff167fffffffff00000000000000000000000000000000000000000000000000000000909316929092179091529050610aa0823083610a9a611459565b88611eb2565b95945050505050565b60009081526005602052604090205490565b6003548110610adc5760405162461bcd60e51b81526004016107f490612cbb565b600060038281548110610aeb57fe5b60009182526020909120600490910201600281015490915060ff1615610b235760405162461bcd60e51b81526004016107f490612cf2565b6002810154610100900460ff1615610b4d5760405162461bcd60e51b81526004016107f490612c84565b805460018083018054604080516020600261010096851615969096026000190190931694909404601f810183900483028501830190915280845273ffffffffffffffffffffffffffffffffffffffff90941693600093859363851c1bb393610c0b9390830182828015610c015780601f10610bd657610100808354040283529160200191610c01565b820191906000526020600020905b815481529060010190602001808311610be457829003601f168201915b5050505050611d63565b6040518263ffffffff1660e01b8152600401610c279190612ad4565b60206040518083038186803b158015610c3f57600080fd5b505afa158015610c53573d6000803e3d6000fd5b505050506040513d601f19601f82011682018060405250810190610c779190612690565b8354909150610cb290610ca3908390339073ffffffffffffffffffffffffffffffffffffffff166115d6565b8061090c575061090c33610da4565b6002830180547fffffffffffffffffffffffffffffffffffffffffffffffffffffffffffff00ff1661010017905560405184907f2a6bef66de603fc0ec07223576486bd905cd9bb6e05364286d9a5cd1be046ae690600090a250505050565b6303c2670081565b610d25835182516120a6565b60005b8351811015610d9e57610d6561090c858381518110610d4357fe5b602002602001015133858581518110610d5857fe5b60200260200101516110c9565b610d96848281518110610d7457fe5b602002602001015184848481518110610d8957fe5b6020026020010151611bfe565b600101610d28565b50505050565b60015473ffffffffffffffffffffffffffffffffffffffff90811691161490565b60008282604051602001610dda92919061291a565b60405160208183030381529060405280519060200120905092915050565b6000610e0861090c863386611922565b60607f4c07348100000000000000000000000000000000000000000000000000000000610e34876120b3565b86610e3e876120f4565b604051602401610e5093929190612a21565b60408051601f198184030181529190526020810180517bffffffffffffffffffffffffffffffffffffffffffffffffffffffff167fffffffff000000000000000000000000000000000000000000000000000000009093169290921790915290506000610ebc87611636565b9050610eca81308487611e6f565b925050505b949350505050565b60015473ffffffffffffffffffffffffffffffffffffffff1690565b60001981565b610f016122ef565b60038281548110610f0e57fe5b60009182526020918290206040805160c0810182526004909302909101805473ffffffffffffffffffffffffffffffffffffffff168352600180820180548451601f60026000199584161561010002959095019092169390930490810187900487028301870190945283825293949193858301939192909190830182828015610fd85780601f10610fad57610100808354040283529160200191610fd8565b820191906000526020600020905b815481529060010190602001808311610fbb57829003601f168201915b5050509183525050600282015460ff80821615156020840152610100820481161515604084015262010000909104161515606082015260039091015460809091015292915050565b7f000000000000000000000000000000000000000000000000000000000000000090565b611050835182516120a6565b60005b8351811015610d9e5761109061090c85838151811061106e57fe5b60200260200101513385858151811061108357fe5b60200260200101516115a8565b6110c184828151811061109f57fe5b6020026020010151848484815181106110b457fe5b6020026020010151611b75565b600101611053565b6000610ecf7f0000000000000000000000000000000000000000000000000000000000000000848487612163565b600061110233610da4565b8061111c57508115801561111c575061111c85338561142b565b905061112a81610191611b67565b60006111358661078a565b90506111568186868661114a57611bfe61114e565b611b755b63ffffffff16565b505050505050565b7f000000000000000000000000000000000000000000000000000000000000000081565b61118e825182516120a6565b60005b82518110156111c6576111be8382815181106111a957fe5b602002602001015133848481518110610d8957fe5b600101611191565b505050565b6040516000906111e19030908490602001612928565b604051602081830303815290604052805190602001209050919050565b600061120e61090c86338661142b565b60607f6f8bc5960000000000000000000000000000000000000000000000000000000061123a876120b3565b86611244876120f4565b60405160240161125693929190612a21565b60408051601f198184030181529190526020810180517bffffffffffffffffffffffffffffffffffffffffffffffffffffffff167fffffffff000000000000000000000000000000000000000000000000000000009093169290921790915290506000610ebc8761078a565b6000600460006112d386868661097b565b815260208101919091526040016000205460ff16949350505050565b7f000000000000000000000000000000000000000000000000000000000000000090565b60003373ffffffffffffffffffffffffffffffffffffffff7f00000000000000000000000000000000000000000000000000000000000000001614156113a9577f000000000000000000000000000000000000000000000000000000000000000073ffffffffffffffffffffffffffffffffffffffff168373ffffffffffffffffffffffffffffffffffffffff16149050610924565b6000848152600560205260409020546113cc576113c78484846115d6565b610ecf565b7f000000000000000000000000000000000000000000000000000000000000000073ffffffffffffffffffffffffffffffffffffffff168373ffffffffffffffffffffffffffffffffffffffff161490509392505050565b6206978081565b6000610ecf7f0000000000000000000000000000000000000000000000000000000000000000848487612213565b7f000000000000000000000000000000000000000000000000000000000000000090565b60035460009082106114a15760405162461bcd60e51b81526004016107f490612cbb565b6000600383815481106114b057fe5b60009182526020909120600490910201600281015490915060ff161580156114e257506002810154610100900460ff16155b801561092457506003015442101592915050565b600061150133610da4565b8061151b57508115801561151b575061151b853385611922565b905061152981610191611b67565b600061113586611636565b60025473ffffffffffffffffffffffffffffffffffffffff1690565b60006107b67f000000000000000000000000000000000000000000000000000000000000000083610dc5565b60006107b67f000000000000000000000000000000000000000000000000000000000000000083610dc5565b6000610ecf7f0000000000000000000000000000000000000000000000000000000000000000848487612163565b6000600460006115e786868661097b565b815260208101919091526040016000205460ff1680610ecf5750600460006112d3868660001961097b565b7f000000000000000000000000000000000000000000000000000000000000000081565b60006107b67f000000000000000000000000000000000000000000000000000000000000000083610dc5565b60006303c267008311156116885760405162461bcd60e51b81526004016107f490612c16565b61169461090c33610da4565b600084815260056020526040812054908185106116b457620697806116c3565b6116c38583036206978061224e565b905060006116d08761157c565b9050606063f0bb940660e01b88886040516024016116ef92919061291a565b60408051601f198184030181529190526020810180517bffffffffffffffffffffffffffffffffffffffffffffffffffffffff167fffffffff0000000000000000000000000000000000000000000000000000000090931692909217909152905061175d823083868a611eb2565b98975050505050505050565b6117ad3373ffffffffffffffffffffffffffffffffffffffff7f00000000000000000000000000000000000000000000000000000000000000001614610191611b67565b6040517f851c1bb300000000000000000000000000000000000000000000000000000000815260009073ffffffffffffffffffffffffffffffffffffffff7f0000000000000000000000000000000000000000000000000000000000000000169063851c1bb390611842907f058a628f0000000000000000000000000000000000000000000000000000000090600401612ad4565b60206040518083038186803b15801561185a57600080fd5b505afa15801561186e573d6000803e3d6000fd5b505050506040513d601f19601f820116820180604052508101906118929190612690565b90506000818414806118b257506000828152600560205260409020548311155b9050806118d15760405162461bcd60e51b81526004016107f490612ba8565b600084815260056020526040908190208490555184907f0e182617f9e5f9ce5f761c791ec15ad52176d97f9706b5c2707ffda7b6bdf79090611914908690612acb565b60405180910390a250505050565b6000610ecf7f0000000000000000000000000000000000000000000000000000000000000000848487612213565b606061195a61225a565b600354821061197b5760405162461bcd60e51b81526004016107f490612cbb565b60006003838154811061198a57fe5b60009182526020909120600490910201600281015490915060ff16156119c25760405162461bcd60e51b81526004016107f490612cf2565b6002810154610100900460ff16156119ec5760405162461bcd60e51b81526004016107f490612c84565b8060030154421015611a105760405162461bcd60e51b81526004016107f490612bdf565b600281015462010000900460ff1615611a4e576000611a2e84611550565b90506000611a3d8233306115d6565b9050611a4b81610191611b67565b50505b60028101805460ff1916600190811790915581546040517f1cff79cd00000000000000000000000000000000000000000000000000000000815273ffffffffffffffffffffffffffffffffffffffff7f0000000000000000000000000000000000000000000000000000000000000000811693631cff79cd93611ada9392169190860190600401612979565b600060405180830381600087803b158015611af457600080fd5b505af1158015611b08573d6000803e3d6000fd5b505050506040513d6000823e601f3d908101601f19168201604052611b309190810190612846565b60405190925083907f4fa5548c15e2d4a0b806eee962935acea143d79644d2340af39f4edf13b335a990600090a250610668612273565b81610786576107868161227a565b6000611b8284848461097b565b60008181526004602052604090205490915060ff16610d9e57600081815260046020526040808220805460ff191660011790555173ffffffffffffffffffffffffffffffffffffffff808516929086169187917fef6ee312a0062a24a46be2eba5284183a87ff848110e8d4df979bd690d9e9f6891a450505050565b6000611c0b84848461097b565b60008181526004602052604090205490915060ff1615610d9e57600081815260046020526040808220805460ff191690555173ffffffffffffffffffffffffffffffffffffffff808516929086169187917f7b42e026d3b17cf41399915c285780d0f724b3464b269297aff73c0de0fe417f91a450505050565b600180547fffffffffffffffffffffffff00000000000000000000000000000000000000001673ffffffffffffffffffffffffffffffffffffffff83169081179091556040517f39510b933a9d010f906528d6019d3f4e2450a10dc33b10887503b31ed82f111190600090a250565b600280547fffffffffffffffffffffffff00000000000000000000000000000000000000001673ffffffffffffffffffffffffffffffffffffffff83169081179091556040517f566fe119ff450afc2580186c62762b6c1258245c8b1b6bb095e7276eb5a75b5590600090a250565b6000600482511015611d7757506000610668565b601882600381518110611d8657fe5b016020015183517fff0000000000000000000000000000000000000000000000000000000000000090911690911c9060109084906002908110611dc557fe5b016020015184517fff0000000000000000000000000000000000000000000000000000000000000090911690911c9060089085906001908110611e0457fe5b016020015185517fff0000000000000000000000000000000000000000000000000000000000000090911690911c908590600090611e3e57fe5b01602001517fff00000000000000000000000000000000000000000000000000000000000000161717179050919050565b60008481526005602052604081205480611e9b5760405162461bcd60e51b81526004016107f490612c4d565b611ea88686868487611eb2565b9695505050505050565b600354604051819087907f26ce5ffb7ab1ce72d9ca4a3e4f906d2b99194d6c53dd9832fd7a59d0b2fc6bed90600090a381516040805160c08101825273ffffffffffffffffffffffffffffffffffffffff888116825260208083018981526000948401859052606084018590529415156080840181905242890160a0850181905260038054600181018255965284517fc2575a0e9e593c00f959f8c92f12db2869c3395a3b0502d05e2516446f71f85b600490970296870180547fffffffffffffffffffffffff00000000000000000000000000000000000000001691909516178455955180519195611fcc937fc2575a0e9e593c00f959f8c92f12db2869c3395a3b0502d05e2516446f71f85c90910192910190612325565b50604082015160028201805460608501516080860151151562010000027fffffffffffffffffffffffffffffffffffffffffffffffffffffffffff00ffff911515610100027fffffffffffffffffffffffffffffffffffffffffffffffffffffffffffff00ff95151560ff199094169390931794909416919091171691909117905560a090910151600390910155600061206584611550565b905060005b8551811015612099576120918287838151811061208357fe5b602002602001015130611b75565b60010161206a565b5050505095945050505050565b6107868183146067611b67565b6040805160018082528183019092526060916020808301908036833701905050905081816000815181106120e357fe5b602002602001018181525050919050565b60408051600180825281830190925260609160208083019080368337019050509050818160008151811061212457fe5b602002602001019073ffffffffffffffffffffffffffffffffffffffff16908173ffffffffffffffffffffffffffffffffffffffff1681525050919050565b6000806121708684610dc5565b600081815260056020526040902054909150156121de577f000000000000000000000000000000000000000000000000000000000000000073ffffffffffffffffffffffffffffffffffffffff168573ffffffffffffffffffffffffffffffffffffffff1614915050610ecf565b6121e98186866115d6565b156121f8576001915050610ecf565b600061220687600019610dc5565b9050610eca818787611313565b6000806122208684610dc5565b9050600061223087600019610dc5565b905061223d8287876115d6565b80610eca5750610eca8187876115d6565b80820390821002900390565b61226c60026000541415610190611b67565b6002600055565b6001600055565b62461bcd60e51b600090815260206004526007602452600a808304818106603090810160081b83860601918390049283060160101b016642414c230000300160c81b604452610978917f42414c0000000000000000000000000000000000000000000000000000000000906242414c90606490fd5b6040805160c08101825260008082526060602083018190529282018190529181018290526080810182905260a081019190915290565b828054600181600116156101000203166002900490600052602060002090601f016020900481019282601f1061236657805160ff1916838001178555612393565b82800160010185558215612393579182015b82811115612393578251825591602001919060010190612378565b5061239f9291506123a3565b5090565b5b8082111561239f57600081556001016123a4565b803573ffffffffffffffffffffffffffffffffffffffff811681146107b657600080fd5b600082601f8301126123ec578081fd5b81356123ff6123fa82612dc6565b612d9f565b81815291506020808301908481018184028601820187101561242057600080fd5b60005b848110156124475761243588836123b8565b84529282019290820190600101612423565b505050505092915050565b600082601f830112612462578081fd5b81356124706123fa82612dc6565b81815291506020808301908481018184028601820187101561249157600080fd5b60005b8481101561244757813584529282019290820190600101612494565b6000602082840312156124c1578081fd5b61092483836123b8565b600080604083850312156124dd578081fd5b6124e784846123b8565b9150602083013567ffffffffffffffff811115612502578182fd5b61250e858286016123dc565b9150509250929050565b60008060006060848603121561252c578081fd5b61253685856123b8565b9250602084013567ffffffffffffffff80821115612552578283fd5b818601915086601f830112612565578283fd5b81356125736123fa82612de6565b818152886020838601011115612587578485fd5b81602085016020830137908101602001849052935060408601359150808211156125af578283fd5b506125bc868287016123dc565b9150509250925092565b6000806000606084860312156125da578283fd5b833567ffffffffffffffff808211156125f1578485fd5b6125fd87838801612452565b945061260c87602088016123b8565b935060408601359150808211156125af578283fd5b60008060408385031215612633578182fd5b823567ffffffffffffffff8082111561264a578384fd5b61265686838701612452565b9350602085013591508082111561266b578283fd5b5061250e858286016123dc565b600060208284031215612689578081fd5b5035919050565b6000602082840312156126a1578081fd5b5051919050565b6000806000606084860312156126bc578283fd5b833592506126cd85602086016123b8565b91506126dc85604086016123b8565b90509250925092565b600080600080608085870312156126fa578081fd5b8435935061270b86602087016123b8565b925061271a86604087016123b8565b9150606085013567ffffffffffffffff811115612735578182fd5b612741878288016123dc565b91505092959194509250565b60008060008060808587031215612762578384fd5b8435935061277386602087016123b8565b925061278286604087016123b8565b915060608501358015158114612796578182fd5b939692955090935050565b600080604083850312156127b3578182fd5b50508035926020909101359150565b6000806000606084860312156127d6578081fd5b8335925060208401359150604084013567ffffffffffffffff8111156127fa578182fd5b6125bc868287016123dc565b600060208284031215612817578081fd5b81357fffffffff0000000000000000000000000000000000000000000000000000000081168114610924578182fd5b600060208284031215612857578081fd5b815167ffffffffffffffff81111561286d578182fd5b8201601f8101841361287d578182fd5b805161288b6123fa82612de6565b81815285602083850101111561289f578384fd5b610aa0826020830160208601612e2f565b600081518084526128c8816020860160208601612e2f565b601f01601f19169290920160200192915050565b9283527fffffffffffffffffffffffffffffffffffffffff000000000000000000000000606092831b81166020850152911b16603482015260480190565b918252602082015260400190565b9182527fffffffff0000000000000000000000000000000000000000000000000000000016602082015260240190565b73ffffffffffffffffffffffffffffffffffffffff91909116815260200190565b60006040820173ffffffffffffffffffffffffffffffffffffffff8516835260206040818501528285546001808216600081146129bd57600181146129db57612a13565b607f6002840416865260ff1983166060890152608088019350612a13565b600283048087526129eb8a612e0a565b885b82811015612a095781548b8201606001529084019087016129ed565b8a01606001955050505b509198975050505050505050565b606080825284519082018190526000906020906080840190828801845b82811015612a5a57815184529284019290840190600101612a3e565b50505073ffffffffffffffffffffffffffffffffffffffff8616848301528381036040850152845180825285830191830190845b81811015612ab257612aa08451612e16565b83529284019291840191600101612a8e565b509098975050505050505050565b901515815260200190565b90815260200190565b7fffffffff0000000000000000000000000000000000000000000000000000000091909116815260200190565b60006020825261092460208301846128b0565b60208082526022908201527f43414e4e4f545f5343484544554c455f415554484f52495a45525f414354494f60408201527f4e53000000000000000000000000000000000000000000000000000000000000606082015260800190565b6020808252601e908201527f415454454d5054494e475f4558454355544f525f5245454e5452414e43590000604082015260600190565b6020808252601c908201527f44454c41595f455843454544535f5345545f415554484f52495a455200000000604082015260600190565b60208082526015908201527f414354494f4e5f4e4f545f45584543555441424c450000000000000000000000604082015260600190565b6020808252600f908201527f44454c41595f544f4f5f4c415247450000000000000000000000000000000000604082015260600190565b60208082526016908201527f43414e4e4f545f5343484544554c455f414354494f4e00000000000000000000604082015260600190565b60208082526018908201527f414354494f4e5f414c52454144595f43414e43454c4c45440000000000000000604082015260600190565b60208082526015908201527f414354494f4e5f444f45535f4e4f545f45584953540000000000000000000000604082015260600190565b60208082526017908201527f414354494f4e5f414c52454144595f4558454355544544000000000000000000604082015260600190565b60006020825273ffffffffffffffffffffffffffffffffffffffff8351166020830152602083015160c06040840152612d6560e08401826128b0565b90506040840151151560608401526060840151151560808401526080840151151560a084015260a084015160c08401528091505092915050565b60405181810167ffffffffffffffff81118282101715612dbe57600080fd5b604052919050565b600067ffffffffffffffff821115612ddc578081fd5b5060209081020190565b600067ffffffffffffffff821115612dfc578081fd5b50601f01601f191660200190565b60009081526020902090565b73ffffffffffffffffffffffffffffffffffffffff1690565b60005b83811015612e4a578181015183820152602001612e32565b83811115610d9e575050600091015256fea26469706673582212208733c30c130550b060faaef187150faeaeec2b84638906a342649c6d8f3865f964736f6c6343000701003360a060405234801561001057600080fd5b5060016000553360601b60805260805160601c6104b061003f600039806101c6528061026e52506104b06000f3fe608060405234801561001057600080fd5b50600436106100365760003560e01c80631cff79cd1461003b578063d09edf3114610173575b600080fd5b6100fe6004803603604081101561005157600080fd5b73ffffffffffffffffffffffffffffffffffffffff823516919081019060408101602082013564010000000081111561008957600080fd5b82018360208201111561009b57600080fd5b803590602001918460018302840111640100000000831117156100bd57600080fd5b91908080601f0160208091040260200160405190810160405280939291908181526020018383808284376000920191909152509295506101a4945050505050565b6040805160208082528351818301528351919283929083019185019080838360005b83811015610138578181015183820152602001610120565b50505050905090810190601f1680156101655780820380516001836020036101000a031916815260200191505b509250505060405180910390f35b61017b61026c565b6040805173ffffffffffffffffffffffffffffffffffffffff9092168252519081900360200190f35b60606101ae610290565b3373ffffffffffffffffffffffffffffffffffffffff7f0000000000000000000000000000000000000000000000000000000000000000161461025257604080517f08c379a000000000000000000000000000000000000000000000000000000000815260206004820152601960248201527f4552525f53454e4445525f4e4f545f415554484f52495a455200000000000000604482015290519081900360640190fd5b61025c83836102a9565b9050610266610393565b92915050565b7f000000000000000000000000000000000000000000000000000000000000000081565b6102a26002600054141561019061039a565b6002600055565b6060600060608473ffffffffffffffffffffffffffffffffffffffff16846040518082805190602001908083835b6020831061031457805182527fffffffffffffffffffffffffffffffffffffffffffffffffffffffffffffffe090920191602091820191016102d7565b6001836020036101000a0380198251168184511680821785525050505050509050019150506000604051808303816000865af19150503d8060008114610376576040519150601f19603f3d011682016040523d82523d6000602084013e61037b565b606091505b509150915061038a82826103ac565b95945050505050565b6001600055565b816103a8576103a8816103d2565b5050565b606082156103bb575080610266565b8151156103cb5781518083602001fd5b6102666101ae5b6103fc817f42414c00000000000000000000000000000000000000000000000000000000006103ff565b50565b7f08c379a000000000000000000000000000000000000000000000000000000000600090815260206004526007602452600a808404818106603090810160081b958390069590950190829004918206850160101b01602363ffffff0060e086901c160160181b0190930160c81b60445260e882901c90606490fdfea26469706673582212202cab8bc2362052d26d734d8e96bf55d57652f71d5c18bad7251afeae8157d17b64736f6c63430007010033","opcodes":"PUSH2 0x100 PUSH1 0x40 MSTORE CALLVALUE DUP1 ISZERO PUSH3 0x12 JUMPI PUSH1 0x0 DUP1 REVERT JUMPDEST POP PUSH1 0x40 MLOAD PUSH3 0x5626 CODESIZE SUB DUP1 PUSH3 0x5626 DUP4 CODECOPY DUP2 ADD PUSH1 0x40 DUP2 SWAP1 MSTORE PUSH3 0x35 SWAP2 PUSH3 0x9C4 JUMP JUMPDEST PUSH1 0x0 ADDRESS DUP8 PUSH3 0x24EA00 PUSH1 0x40 MLOAD PUSH3 0x4B SWAP1 PUSH3 0x83A JUMP JUMPDEST PUSH3 0x59 SWAP4 SWAP3 SWAP2 SWAP1 PUSH3 0xBAF JUMP JUMPDEST PUSH1 0x40 MLOAD DUP1 SWAP2 SUB SWAP1 PUSH1 0x0 CREATE DUP1 ISZERO DUP1 ISZERO PUSH3 0x76 JUMPI RETURNDATASIZE PUSH1 0x0 DUP1 RETURNDATACOPY RETURNDATASIZE PUSH1 0x0 REVERT JUMPDEST POP PUSH1 0x1 PUSH1 0x1 PUSH1 0x60 SHL SUB NOT PUSH1 0x60 DUP3 DUP2 SHL DUP3 AND PUSH1 0xE0 MSTORE DUP11 DUP2 SHL DUP3 AND PUSH1 0xC0 MSTORE DUP12 SWAP1 SHL AND PUSH1 0xA0 MSTORE PUSH1 0x40 DUP1 MLOAD PUSH4 0x11B2515F PUSH1 0xE3 SHL DUP2 MSTORE SWAP1 MLOAD SWAP2 SWAP3 POP PUSH1 0x1 PUSH1 0x1 PUSH1 0xA0 SHL SUB DUP10 AND SWAP2 PUSH4 0x8D928AF8 SWAP2 PUSH1 0x4 DUP1 DUP3 ADD SWAP3 PUSH1 0x20 SWAP3 SWAP1 SWAP2 SWAP1 DUP3 SWAP1 SUB ADD DUP2 DUP7 DUP1 EXTCODESIZE ISZERO DUP1 ISZERO PUSH3 0xDE JUMPI PUSH1 0x0 DUP1 REVERT JUMPDEST POP GAS STATICCALL ISZERO DUP1 ISZERO PUSH3 0xF3 JUMPI RETURNDATASIZE PUSH1 0x0 DUP1 RETURNDATACOPY RETURNDATASIZE PUSH1 0x0 REVERT JUMPDEST POP POP POP POP PUSH1 0x40 MLOAD RETURNDATASIZE PUSH1 0x1F NOT PUSH1 0x1F DUP3 ADD AND DUP3 ADD DUP1 PUSH1 0x40 MSTORE POP DUP2 ADD SWAP1 PUSH3 0x119 SWAP2 SWAP1 PUSH3 0xB1D JUMP JUMPDEST PUSH1 0x60 SHL PUSH1 0x1 PUSH1 0x1 PUSH1 0x60 SHL SUB NOT AND PUSH1 0x80 MSTORE PUSH1 0x0 JUMPDEST DUP7 MLOAD DUP2 LT ISZERO PUSH3 0x2A9 JUMPI PUSH3 0x140 PUSH3 0x848 JUMP JUMPDEST DUP8 DUP3 DUP2 MLOAD DUP2 LT PUSH3 0x14D JUMPI INVALID JUMPDEST PUSH1 0x20 MUL PUSH1 0x20 ADD ADD MLOAD SWAP1 POP DUP10 PUSH1 0x1 PUSH1 0x1 PUSH1 0xA0 SHL SUB AND PUSH4 0x9BE2A884 DUP3 PUSH1 0x20 ADD MLOAD DUP4 PUSH1 0x0 ADD MLOAD DUP5 PUSH1 0x40 ADD MLOAD PUSH1 0x40 MLOAD DUP5 PUSH4 0xFFFFFFFF AND PUSH1 0xE0 SHL DUP2 MSTORE PUSH1 0x4 ADD PUSH3 0x195 SWAP4 SWAP3 SWAP2 SWAP1 PUSH3 0xC47 JUMP JUMPDEST PUSH1 0x20 PUSH1 0x40 MLOAD DUP1 DUP4 SUB DUP2 DUP7 DUP1 EXTCODESIZE ISZERO DUP1 ISZERO PUSH3 0x1AE JUMPI PUSH1 0x0 DUP1 REVERT JUMPDEST POP GAS STATICCALL ISZERO DUP1 ISZERO PUSH3 0x1C3 JUMPI RETURNDATASIZE PUSH1 0x0 DUP1 RETURNDATACOPY RETURNDATASIZE PUSH1 0x0 REVERT JUMPDEST POP POP POP POP PUSH1 0x40 MLOAD RETURNDATASIZE PUSH1 0x1F NOT PUSH1 0x1F DUP3 ADD AND DUP3 ADD DUP1 PUSH1 0x40 MSTORE POP DUP2 ADD SWAP1 PUSH3 0x1E9 SWAP2 SWAP1 PUSH3 0xADB JUMP JUMPDEST PUSH3 0x211 JUMPI PUSH1 0x40 MLOAD PUSH3 0x461BCD PUSH1 0xE5 SHL DUP2 MSTORE PUSH1 0x4 ADD PUSH3 0x208 SWAP1 PUSH3 0xCB7 JUMP JUMPDEST PUSH1 0x40 MLOAD DUP1 SWAP2 SUB SWAP1 REVERT JUMPDEST DUP3 PUSH1 0x1 PUSH1 0x1 PUSH1 0xA0 SHL SUB AND PUSH4 0x6F8BC596 PUSH3 0x235 DUP4 PUSH1 0x20 ADD MLOAD PUSH3 0x7A2 PUSH1 0x20 SHL PUSH1 0x20 SHR JUMP JUMPDEST DUP4 MLOAD PUSH1 0x40 DUP6 ADD MLOAD PUSH3 0x247 SWAP1 PUSH3 0x7E4 JUMP JUMPDEST PUSH1 0x40 MLOAD DUP5 PUSH4 0xFFFFFFFF AND PUSH1 0xE0 SHL DUP2 MSTORE PUSH1 0x4 ADD PUSH3 0x267 SWAP4 SWAP3 SWAP2 SWAP1 PUSH3 0xBD3 JUMP JUMPDEST PUSH1 0x0 PUSH1 0x40 MLOAD DUP1 DUP4 SUB DUP2 PUSH1 0x0 DUP8 DUP1 EXTCODESIZE ISZERO DUP1 ISZERO PUSH3 0x282 JUMPI PUSH1 0x0 DUP1 REVERT JUMPDEST POP GAS CALL ISZERO DUP1 ISZERO PUSH3 0x297 JUMPI RETURNDATASIZE PUSH1 0x0 DUP1 RETURNDATACOPY RETURNDATASIZE PUSH1 0x0 REVERT JUMPDEST POP POP PUSH1 0x1 SWAP1 SWAP4 ADD SWAP3 POP PUSH3 0x12C SWAP2 POP POP JUMP JUMPDEST POP PUSH1 0x0 JUMPDEST DUP6 MLOAD DUP2 LT ISZERO PUSH3 0x375 JUMPI DUP2 PUSH1 0x1 PUSH1 0x1 PUSH1 0xA0 SHL SUB AND PUSH4 0x78A08377 DUP8 DUP4 DUP2 MLOAD DUP2 LT PUSH3 0x2D3 JUMPI INVALID JUMPDEST PUSH1 0x20 MUL PUSH1 0x20 ADD ADD MLOAD PUSH1 0x20 ADD MLOAD DUP9 DUP5 DUP2 MLOAD DUP2 LT PUSH3 0x2EC JUMPI INVALID JUMPDEST PUSH1 0x20 MUL PUSH1 0x20 ADD ADD MLOAD PUSH1 0x0 ADD MLOAD DUP10 DUP6 DUP2 MLOAD DUP2 LT PUSH3 0x305 JUMPI INVALID JUMPDEST PUSH1 0x20 MUL PUSH1 0x20 ADD ADD MLOAD PUSH1 0x40 ADD MLOAD PUSH1 0x1 PUSH1 0x40 MLOAD DUP6 PUSH4 0xFFFFFFFF AND PUSH1 0xE0 SHL DUP2 MSTORE PUSH1 0x4 ADD PUSH3 0x334 SWAP5 SWAP4 SWAP3 SWAP2 SWAP1 PUSH3 0xC66 JUMP JUMPDEST PUSH1 0x0 PUSH1 0x40 MLOAD DUP1 DUP4 SUB DUP2 PUSH1 0x0 DUP8 DUP1 EXTCODESIZE ISZERO DUP1 ISZERO PUSH3 0x34F JUMPI PUSH1 0x0 DUP1 REVERT JUMPDEST POP GAS CALL ISZERO DUP1 ISZERO PUSH3 0x364 JUMPI RETURNDATASIZE PUSH1 0x0 DUP1 RETURNDATACOPY RETURNDATASIZE PUSH1 0x0 REVERT JUMPDEST POP POP PUSH1 0x1 SWAP1 SWAP3 ADD SWAP2 POP PUSH3 0x2AD SWAP1 POP JUMP JUMPDEST POP PUSH1 0x0 JUMPDEST DUP5 MLOAD DUP2 LT ISZERO PUSH3 0x441 JUMPI DUP2 PUSH1 0x1 PUSH1 0x1 PUSH1 0xA0 SHL SUB AND PUSH4 0xCF8475DA DUP7 DUP4 DUP2 MLOAD DUP2 LT PUSH3 0x39F JUMPI INVALID JUMPDEST PUSH1 0x20 MUL PUSH1 0x20 ADD ADD MLOAD PUSH1 0x20 ADD MLOAD DUP8 DUP5 DUP2 MLOAD DUP2 LT PUSH3 0x3B8 JUMPI INVALID JUMPDEST PUSH1 0x20 MUL PUSH1 0x20 ADD ADD MLOAD PUSH1 0x0 ADD MLOAD DUP9 DUP6 DUP2 MLOAD DUP2 LT PUSH3 0x3D1 JUMPI INVALID JUMPDEST PUSH1 0x20 MUL PUSH1 0x20 ADD ADD MLOAD PUSH1 0x40 ADD MLOAD PUSH1 0x1 PUSH1 0x40 MLOAD DUP6 PUSH4 0xFFFFFFFF AND PUSH1 0xE0 SHL DUP2 MSTORE PUSH1 0x4 ADD PUSH3 0x400 SWAP5 SWAP4 SWAP3 SWAP2 SWAP1 PUSH3 0xC66 JUMP JUMPDEST PUSH1 0x0 PUSH1 0x40 MLOAD DUP1 DUP4 SUB DUP2 PUSH1 0x0 DUP8 DUP1 EXTCODESIZE ISZERO DUP1 ISZERO PUSH3 0x41B JUMPI PUSH1 0x0 DUP1 REVERT JUMPDEST POP GAS CALL ISZERO DUP1 ISZERO PUSH3 0x430 JUMPI RETURNDATASIZE PUSH1 0x0 DUP1 RETURNDATACOPY RETURNDATASIZE PUSH1 0x0 REVERT JUMPDEST POP POP PUSH1 0x1 SWAP1 SWAP3 ADD SWAP2 POP PUSH3 0x379 SWAP1 POP JUMP JUMPDEST POP PUSH1 0x0 JUMPDEST DUP4 MLOAD DUP2 LT ISZERO PUSH3 0x55F JUMPI PUSH3 0x278D00 DUP5 DUP3 DUP2 MLOAD DUP2 LT PUSH3 0x460 JUMPI INVALID JUMPDEST PUSH1 0x20 MUL PUSH1 0x20 ADD ADD MLOAD PUSH1 0x20 ADD MLOAD GT ISZERO PUSH3 0x48D JUMPI PUSH1 0x40 MLOAD PUSH3 0x461BCD PUSH1 0xE5 SHL DUP2 MSTORE PUSH1 0x4 ADD PUSH3 0x208 SWAP1 PUSH3 0xCE0 JUMP JUMPDEST DUP2 PUSH1 0x1 PUSH1 0x1 PUSH1 0xA0 SHL SUB AND PUSH4 0xF0845522 DUP6 DUP4 DUP2 MLOAD DUP2 LT PUSH3 0x4A9 JUMPI INVALID JUMPDEST PUSH1 0x20 MUL PUSH1 0x20 ADD ADD MLOAD PUSH1 0x0 ADD MLOAD DUP7 DUP5 DUP2 MLOAD DUP2 LT PUSH3 0x4C2 JUMPI INVALID JUMPDEST PUSH1 0x20 MUL PUSH1 0x20 ADD ADD MLOAD PUSH1 0x20 ADD MLOAD PUSH3 0x4DF ADDRESS PUSH3 0x7E4 PUSH1 0x20 SHL PUSH1 0x20 SHR JUMP JUMPDEST PUSH1 0x40 MLOAD DUP5 PUSH4 0xFFFFFFFF AND PUSH1 0xE0 SHL DUP2 MSTORE PUSH1 0x4 ADD PUSH3 0x4FF SWAP4 SWAP3 SWAP2 SWAP1 PUSH3 0xC8D JUMP JUMPDEST PUSH1 0x20 PUSH1 0x40 MLOAD DUP1 DUP4 SUB DUP2 PUSH1 0x0 DUP8 DUP1 EXTCODESIZE ISZERO DUP1 ISZERO PUSH3 0x51A JUMPI PUSH1 0x0 DUP1 REVERT JUMPDEST POP GAS CALL ISZERO DUP1 ISZERO PUSH3 0x52F JUMPI RETURNDATASIZE PUSH1 0x0 DUP1 RETURNDATACOPY RETURNDATASIZE PUSH1 0x0 REVERT JUMPDEST POP POP POP POP PUSH1 0x40 MLOAD RETURNDATASIZE PUSH1 0x1F NOT PUSH1 0x1F DUP3 ADD AND DUP3 ADD DUP1 PUSH1 0x40 MSTORE POP DUP2 ADD SWAP1 PUSH3 0x555 SWAP2 SWAP1 PUSH3 0xB04 JUMP JUMPDEST POP PUSH1 0x1 ADD PUSH3 0x445 JUMP JUMPDEST POP PUSH1 0x0 JUMPDEST DUP3 MLOAD DUP2 LT ISZERO PUSH3 0x6FE JUMPI PUSH3 0x278D00 DUP4 DUP3 DUP2 MLOAD DUP2 LT PUSH3 0x57E JUMPI INVALID JUMPDEST PUSH1 0x20 MUL PUSH1 0x20 ADD ADD MLOAD PUSH1 0x20 ADD MLOAD GT ISZERO PUSH3 0x5AB JUMPI PUSH1 0x40 MLOAD PUSH3 0x461BCD PUSH1 0xE5 SHL DUP2 MSTORE PUSH1 0x4 ADD PUSH3 0x208 SWAP1 PUSH3 0xCE0 JUMP JUMPDEST DUP2 PUSH1 0x1 PUSH1 0x1 PUSH1 0xA0 SHL SUB AND PUSH4 0xF0845522 DUP4 PUSH1 0x1 PUSH1 0x1 PUSH1 0xA0 SHL SUB AND PUSH4 0x151B89D1 DUP7 DUP6 DUP2 MLOAD DUP2 LT PUSH3 0x5D6 JUMPI INVALID JUMPDEST PUSH1 0x20 MUL PUSH1 0x20 ADD ADD MLOAD PUSH1 0x0 ADD MLOAD PUSH1 0x40 MLOAD DUP3 PUSH4 0xFFFFFFFF AND PUSH1 0xE0 SHL DUP2 MSTORE PUSH1 0x4 ADD PUSH3 0x600 SWAP2 SWAP1 PUSH3 0xC3E JUMP JUMPDEST PUSH1 0x20 PUSH1 0x40 MLOAD DUP1 DUP4 SUB DUP2 DUP7 DUP1 EXTCODESIZE ISZERO DUP1 ISZERO PUSH3 0x619 JUMPI PUSH1 0x0 DUP1 REVERT JUMPDEST POP GAS STATICCALL ISZERO DUP1 ISZERO PUSH3 0x62E JUMPI RETURNDATASIZE PUSH1 0x0 DUP1 RETURNDATACOPY RETURNDATASIZE PUSH1 0x0 REVERT JUMPDEST POP POP POP POP PUSH1 0x40 MLOAD RETURNDATASIZE PUSH1 0x1F NOT PUSH1 0x1F DUP3 ADD AND DUP3 ADD DUP1 PUSH1 0x40 MSTORE POP DUP2 ADD SWAP1 PUSH3 0x654 SWAP2 SWAP1 PUSH3 0xB04 JUMP JUMPDEST DUP6 DUP5 DUP2 MLOAD DUP2 LT PUSH3 0x661 JUMPI INVALID JUMPDEST PUSH1 0x20 MUL PUSH1 0x20 ADD ADD MLOAD PUSH1 0x20 ADD MLOAD PUSH3 0x67E ADDRESS PUSH3 0x7E4 PUSH1 0x20 SHL PUSH1 0x20 SHR JUMP JUMPDEST PUSH1 0x40 MLOAD DUP5 PUSH4 0xFFFFFFFF AND PUSH1 0xE0 SHL DUP2 MSTORE PUSH1 0x4 ADD PUSH3 0x69E SWAP4 SWAP3 SWAP2 SWAP1 PUSH3 0xC8D JUMP JUMPDEST PUSH1 0x20 PUSH1 0x40 MLOAD DUP1 DUP4 SUB DUP2 PUSH1 0x0 DUP8 DUP1 EXTCODESIZE ISZERO DUP1 ISZERO PUSH3 0x6B9 JUMPI PUSH1 0x0 DUP1 REVERT JUMPDEST POP GAS CALL ISZERO DUP1 ISZERO PUSH3 0x6CE JUMPI RETURNDATASIZE PUSH1 0x0 DUP1 RETURNDATACOPY RETURNDATASIZE PUSH1 0x0 REVERT JUMPDEST POP POP POP POP PUSH1 0x40 MLOAD RETURNDATASIZE PUSH1 0x1F NOT PUSH1 0x1F DUP3 ADD AND DUP3 ADD DUP1 PUSH1 0x40 MSTORE POP DUP2 ADD SWAP1 PUSH3 0x6F4 SWAP2 SWAP1 PUSH3 0xB04 JUMP JUMPDEST POP PUSH1 0x1 ADD PUSH3 0x563 JUMP JUMPDEST POP PUSH1 0x1 PUSH1 0x1 PUSH1 0xA0 SHL SUB DUP2 AND PUSH4 0x2E3ED05B DUP11 PUSH3 0x71A ADDRESS PUSH3 0x7E4 JUMP JUMPDEST PUSH1 0x40 MLOAD DUP4 PUSH4 0xFFFFFFFF AND PUSH1 0xE0 SHL DUP2 MSTORE PUSH1 0x4 ADD PUSH3 0x739 SWAP3 SWAP2 SWAP1 PUSH3 0xB81 JUMP JUMPDEST PUSH1 0x20 PUSH1 0x40 MLOAD DUP1 DUP4 SUB DUP2 PUSH1 0x0 DUP8 DUP1 EXTCODESIZE ISZERO DUP1 ISZERO PUSH3 0x754 JUMPI PUSH1 0x0 DUP1 REVERT JUMPDEST POP GAS CALL ISZERO DUP1 ISZERO PUSH3 0x769 JUMPI RETURNDATASIZE PUSH1 0x0 DUP1 RETURNDATACOPY RETURNDATASIZE PUSH1 0x0 REVERT JUMPDEST POP POP POP POP PUSH1 0x40 MLOAD RETURNDATASIZE PUSH1 0x1F NOT PUSH1 0x1F DUP3 ADD AND DUP3 ADD DUP1 PUSH1 0x40 MSTORE POP DUP2 ADD SWAP1 PUSH3 0x78F SWAP2 SWAP1 PUSH3 0xB04 JUMP JUMPDEST PUSH1 0x0 SSTORE POP PUSH3 0xD77 SWAP8 POP POP POP POP POP POP POP POP JUMP JUMPDEST PUSH1 0x40 DUP1 MLOAD PUSH1 0x1 DUP1 DUP3 MSTORE DUP2 DUP4 ADD SWAP1 SWAP3 MSTORE PUSH1 0x60 SWAP2 PUSH1 0x20 DUP1 DUP4 ADD SWAP1 DUP1 CALLDATASIZE DUP4 CALLDATACOPY ADD SWAP1 POP POP SWAP1 POP DUP2 DUP2 PUSH1 0x0 DUP2 MLOAD DUP2 LT PUSH3 0x7D3 JUMPI INVALID JUMPDEST PUSH1 0x20 MUL PUSH1 0x20 ADD ADD DUP2 DUP2 MSTORE POP POP SWAP2 SWAP1 POP JUMP JUMPDEST PUSH1 0x40 DUP1 MLOAD PUSH1 0x1 DUP1 DUP3 MSTORE DUP2 DUP4 ADD SWAP1 SWAP3 MSTORE PUSH1 0x60 SWAP2 PUSH1 0x20 DUP1 DUP4 ADD SWAP1 DUP1 CALLDATASIZE DUP4 CALLDATACOPY ADD SWAP1 POP POP SWAP1 POP DUP2 DUP2 PUSH1 0x0 DUP2 MLOAD DUP2 LT PUSH3 0x815 JUMPI INVALID JUMPDEST PUSH1 0x20 MUL PUSH1 0x20 ADD ADD SWAP1 PUSH1 0x1 PUSH1 0x1 PUSH1 0xA0 SHL SUB AND SWAP1 DUP2 PUSH1 0x1 PUSH1 0x1 PUSH1 0xA0 SHL SUB AND DUP2 MSTORE POP POP SWAP2 SWAP1 POP JUMP JUMPDEST PUSH2 0x390E DUP1 PUSH3 0x1D18 DUP4 CODECOPY ADD SWAP1 JUMP JUMPDEST PUSH1 0x40 DUP1 MLOAD PUSH1 0x60 DUP2 ADD DUP3 MSTORE PUSH1 0x0 DUP1 DUP3 MSTORE PUSH1 0x20 DUP3 ADD DUP2 SWAP1 MSTORE SWAP2 DUP2 ADD SWAP2 SWAP1 SWAP2 MSTORE SWAP1 JUMP JUMPDEST DUP1 MLOAD PUSH3 0x875 DUP2 PUSH3 0xD5E JUMP JUMPDEST SWAP3 SWAP2 POP POP JUMP JUMPDEST PUSH1 0x0 DUP3 PUSH1 0x1F DUP4 ADD SLT PUSH3 0x88C JUMPI DUP1 DUP2 REVERT JUMPDEST DUP2 MLOAD PUSH3 0x8A3 PUSH3 0x89D DUP3 PUSH3 0xD3E JUMP JUMPDEST PUSH3 0xD17 JUMP JUMPDEST DUP2 DUP2 MSTORE SWAP2 POP PUSH1 0x20 DUP1 DUP4 ADD SWAP1 DUP5 DUP2 ADD PUSH1 0x40 DUP1 DUP6 MUL DUP8 ADD DUP4 ADD DUP9 LT ISZERO PUSH3 0x8C7 JUMPI PUSH1 0x0 DUP1 REVERT JUMPDEST PUSH1 0x0 DUP1 JUMPDEST DUP7 DUP2 LT ISZERO PUSH3 0x90D JUMPI DUP3 DUP5 DUP12 SUB SLT ISZERO PUSH3 0x8E3 JUMPI DUP2 DUP3 REVERT JUMPDEST PUSH3 0x8EE DUP4 PUSH3 0xD17 JUMP JUMPDEST DUP5 MLOAD DUP2 MSTORE DUP6 DUP6 ADD MLOAD DUP7 DUP3 ADD MSTORE DUP7 MSTORE SWAP5 DUP5 ADD SWAP5 SWAP3 DUP3 ADD SWAP3 PUSH1 0x1 ADD PUSH3 0x8CB JUMP JUMPDEST POP POP POP POP POP POP POP SWAP3 SWAP2 POP POP JUMP JUMPDEST PUSH1 0x0 DUP3 PUSH1 0x1F DUP4 ADD SLT PUSH3 0x92B JUMPI DUP1 DUP2 REVERT JUMPDEST DUP2 MLOAD PUSH3 0x93C PUSH3 0x89D DUP3 PUSH3 0xD3E JUMP JUMPDEST DUP2 DUP2 MSTORE SWAP2 POP PUSH1 0x20 DUP1 DUP4 ADD SWAP1 DUP5 DUP2 ADD PUSH1 0x60 DUP1 DUP6 MUL DUP8 ADD DUP4 ADD DUP9 LT ISZERO PUSH3 0x960 JUMPI PUSH1 0x0 DUP1 REVERT JUMPDEST PUSH1 0x0 DUP1 JUMPDEST DUP7 DUP2 LT ISZERO PUSH3 0x90D JUMPI DUP3 DUP5 DUP12 SUB SLT ISZERO PUSH3 0x97C JUMPI DUP2 DUP3 REVERT JUMPDEST PUSH3 0x987 DUP4 PUSH3 0xD17 JUMP JUMPDEST PUSH3 0x993 DUP12 DUP7 PUSH3 0x868 JUMP JUMPDEST DUP2 MSTORE DUP6 DUP6 ADD MLOAD DUP7 DUP3 ADD MSTORE PUSH1 0x40 PUSH3 0x9AD DUP13 DUP3 DUP9 ADD PUSH3 0x868 JUMP JUMPDEST SWAP1 DUP3 ADD MSTORE DUP7 MSTORE SWAP5 DUP5 ADD SWAP5 SWAP3 DUP3 ADD SWAP3 PUSH1 0x1 ADD PUSH3 0x964 JUMP JUMPDEST PUSH1 0x0 DUP1 PUSH1 0x0 DUP1 PUSH1 0x0 DUP1 PUSH1 0x0 DUP1 PUSH2 0x100 DUP10 DUP12 SUB SLT ISZERO PUSH3 0x9E1 JUMPI DUP4 DUP5 REVERT JUMPDEST PUSH3 0x9ED DUP11 DUP11 PUSH3 0x868 JUMP JUMPDEST SWAP8 POP PUSH3 0x9FE DUP11 PUSH1 0x20 DUP12 ADD PUSH3 0x868 JUMP JUMPDEST SWAP7 POP PUSH3 0xA0F DUP11 PUSH1 0x40 DUP12 ADD PUSH3 0x868 JUMP JUMPDEST PUSH1 0x60 DUP11 ADD MLOAD SWAP1 SWAP7 POP PUSH1 0x1 PUSH1 0x1 PUSH1 0x40 SHL SUB DUP1 DUP3 GT ISZERO PUSH3 0xA2C JUMPI DUP6 DUP7 REVERT JUMPDEST PUSH3 0xA3A DUP13 DUP4 DUP14 ADD PUSH3 0x91A JUMP JUMPDEST SWAP7 POP PUSH1 0x80 DUP12 ADD MLOAD SWAP2 POP DUP1 DUP3 GT ISZERO PUSH3 0xA50 JUMPI DUP6 DUP7 REVERT JUMPDEST PUSH3 0xA5E DUP13 DUP4 DUP14 ADD PUSH3 0x91A JUMP JUMPDEST SWAP6 POP PUSH1 0xA0 DUP12 ADD MLOAD SWAP2 POP DUP1 DUP3 GT ISZERO PUSH3 0xA74 JUMPI DUP5 DUP6 REVERT JUMPDEST PUSH3 0xA82 DUP13 DUP4 DUP14 ADD PUSH3 0x91A JUMP JUMPDEST SWAP5 POP PUSH1 0xC0 DUP12 ADD MLOAD SWAP2 POP DUP1 DUP3 GT ISZERO PUSH3 0xA98 JUMPI DUP4 DUP5 REVERT JUMPDEST PUSH3 0xAA6 DUP13 DUP4 DUP14 ADD PUSH3 0x87B JUMP JUMPDEST SWAP4 POP PUSH1 0xE0 DUP12 ADD MLOAD SWAP2 POP DUP1 DUP3 GT ISZERO PUSH3 0xABC JUMPI DUP3 DUP4 REVERT JUMPDEST POP PUSH3 0xACB DUP12 DUP3 DUP13 ADD PUSH3 0x87B JUMP JUMPDEST SWAP2 POP POP SWAP3 SWAP6 SWAP9 POP SWAP3 SWAP6 SWAP9 SWAP1 SWAP4 SWAP7 POP JUMP JUMPDEST PUSH1 0x0 PUSH1 0x20 DUP3 DUP5 SUB SLT ISZERO PUSH3 0xAED JUMPI DUP1 DUP2 REVERT JUMPDEST DUP2 MLOAD DUP1 ISZERO ISZERO DUP2 EQ PUSH3 0xAFD JUMPI DUP2 DUP3 REVERT JUMPDEST SWAP4 SWAP3 POP POP POP JUMP JUMPDEST PUSH1 0x0 PUSH1 0x20 DUP3 DUP5 SUB SLT ISZERO PUSH3 0xB16 JUMPI DUP1 DUP2 REVERT JUMPDEST POP MLOAD SWAP2 SWAP1 POP JUMP JUMPDEST PUSH1 0x0 PUSH1 0x20 DUP3 DUP5 SUB SLT ISZERO PUSH3 0xB2F JUMPI DUP1 DUP2 REVERT JUMPDEST DUP2 MLOAD PUSH3 0xAFD DUP2 PUSH3 0xD5E JUMP JUMPDEST PUSH1 0x0 DUP2 MLOAD DUP1 DUP5 MSTORE PUSH1 0x20 DUP1 DUP6 ADD SWAP5 POP DUP1 DUP5 ADD DUP4 JUMPDEST DUP4 DUP2 LT ISZERO PUSH3 0xB76 JUMPI DUP2 MLOAD PUSH1 0x1 PUSH1 0x1 PUSH1 0xA0 SHL SUB AND DUP8 MSTORE SWAP6 DUP3 ADD SWAP6 SWAP1 DUP3 ADD SWAP1 PUSH1 0x1 ADD PUSH3 0xB4F JUMP JUMPDEST POP SWAP5 SWAP6 SWAP5 POP POP POP POP POP JUMP JUMPDEST PUSH1 0x1 PUSH1 0x1 PUSH1 0xA0 SHL SUB DUP4 AND DUP2 MSTORE PUSH1 0x40 PUSH1 0x20 DUP3 ADD DUP2 SWAP1 MSTORE PUSH1 0x0 SWAP1 PUSH3 0xBA7 SWAP1 DUP4 ADD DUP5 PUSH3 0xB3C JUMP JUMPDEST SWAP5 SWAP4 POP POP POP POP JUMP JUMPDEST PUSH1 0x1 PUSH1 0x1 PUSH1 0xA0 SHL SUB SWAP4 DUP5 AND DUP2 MSTORE SWAP2 SWAP1 SWAP3 AND PUSH1 0x20 DUP3 ADD MSTORE PUSH1 0x40 DUP2 ADD SWAP2 SWAP1 SWAP2 MSTORE PUSH1 0x60 ADD SWAP1 JUMP JUMPDEST PUSH1 0x60 DUP1 DUP3 MSTORE DUP5 MLOAD SWAP1 DUP3 ADD DUP2 SWAP1 MSTORE PUSH1 0x0 SWAP1 PUSH1 0x20 SWAP1 PUSH1 0x80 DUP5 ADD SWAP1 DUP3 DUP9 ADD DUP5 JUMPDEST DUP3 DUP2 LT ISZERO PUSH3 0xC0E JUMPI DUP2 MLOAD DUP5 MSTORE SWAP3 DUP5 ADD SWAP3 SWAP1 DUP5 ADD SWAP1 PUSH1 0x1 ADD PUSH3 0xBF0 JUMP JUMPDEST POP POP POP PUSH1 0x1 PUSH1 0x1 PUSH1 0xA0 SHL SUB DUP7 AND DUP5 DUP4 ADD MSTORE DUP4 DUP2 SUB PUSH1 0x40 DUP6 ADD MSTORE PUSH3 0xC33 DUP2 DUP7 PUSH3 0xB3C JUMP JUMPDEST SWAP8 SWAP7 POP POP POP POP POP POP POP JUMP JUMPDEST SWAP1 DUP2 MSTORE PUSH1 0x20 ADD SWAP1 JUMP JUMPDEST SWAP3 DUP4 MSTORE PUSH1 0x1 PUSH1 0x1 PUSH1 0xA0 SHL SUB SWAP2 DUP3 AND PUSH1 0x20 DUP5 ADD MSTORE AND PUSH1 0x40 DUP3 ADD MSTORE PUSH1 0x60 ADD SWAP1 JUMP JUMPDEST SWAP4 DUP5 MSTORE PUSH1 0x1 PUSH1 0x1 PUSH1 0xA0 SHL SUB SWAP3 DUP4 AND PUSH1 0x20 DUP6 ADD MSTORE SWAP2 AND PUSH1 0x40 DUP4 ADD MSTORE ISZERO ISZERO PUSH1 0x60 DUP3 ADD MSTORE PUSH1 0x80 ADD SWAP1 JUMP JUMPDEST PUSH1 0x0 DUP5 DUP3 MSTORE DUP4 PUSH1 0x20 DUP4 ADD MSTORE PUSH1 0x60 PUSH1 0x40 DUP4 ADD MSTORE PUSH3 0xCAE PUSH1 0x60 DUP4 ADD DUP5 PUSH3 0xB3C JUMP JUMPDEST SWAP6 SWAP5 POP POP POP POP POP JUMP JUMPDEST PUSH1 0x20 DUP1 DUP3 MSTORE PUSH1 0xF SWAP1 DUP3 ADD MSTORE PUSH15 0x554E45585045435445445F524F4C45 PUSH1 0x88 SHL PUSH1 0x40 DUP3 ADD MSTORE PUSH1 0x60 ADD SWAP1 JUMP JUMPDEST PUSH1 0x20 DUP1 DUP3 MSTORE PUSH1 0x16 SWAP1 DUP3 ADD MSTORE PUSH32 0x554E45585045435445445F4C415247455F44454C415900000000000000000000 PUSH1 0x40 DUP3 ADD MSTORE PUSH1 0x60 ADD SWAP1 JUMP JUMPDEST PUSH1 0x40 MLOAD DUP2 DUP2 ADD PUSH1 0x1 PUSH1 0x1 PUSH1 0x40 SHL SUB DUP2 GT DUP3 DUP3 LT OR ISZERO PUSH3 0xD36 JUMPI PUSH1 0x0 DUP1 REVERT JUMPDEST PUSH1 0x40 MSTORE SWAP2 SWAP1 POP JUMP JUMPDEST PUSH1 0x0 PUSH1 0x1 PUSH1 0x1 PUSH1 0x40 SHL SUB DUP3 GT ISZERO PUSH3 0xD54 JUMPI DUP1 DUP2 REVERT JUMPDEST POP PUSH1 0x20 SWAP1 DUP2 MUL ADD SWAP1 JUMP JUMPDEST PUSH1 0x1 PUSH1 0x1 PUSH1 0xA0 SHL SUB DUP2 AND DUP2 EQ PUSH3 0xD74 JUMPI PUSH1 0x0 DUP1 REVERT JUMPDEST POP JUMP JUMPDEST PUSH1 0x80 MLOAD PUSH1 0x60 SHR PUSH1 0xA0 MLOAD PUSH1 0x60 SHR PUSH1 0xC0 MLOAD PUSH1 0x60 SHR PUSH1 0xE0 MLOAD PUSH1 0x60 SHR PUSH2 0xF23 PUSH3 0xDF5 PUSH1 0x0 CODECOPY DUP1 PUSH2 0x1A5 MSTORE DUP1 PUSH2 0x2D1 MSTORE DUP1 PUSH2 0x3CB MSTORE DUP1 PUSH2 0x4B3 MSTORE DUP1 PUSH2 0x5B9 MSTORE DUP1 PUSH2 0x69E MSTORE DUP1 PUSH2 0x702 MSTORE DUP1 PUSH2 0xA36 MSTORE POP DUP1 PUSH2 0x8C8 MSTORE DUP1 PUSH2 0xA96 MSTORE POP DUP1 PUSH2 0x72F MSTORE DUP1 PUSH2 0xABA MSTORE POP DUP1 PUSH2 0x81D MSTORE DUP1 PUSH2 0x906 MSTORE DUP1 PUSH2 0xA09 MSTORE DUP1 PUSH2 0xADE MSTORE POP PUSH2 0xF23 PUSH1 0x0 RETURN INVALID PUSH1 0x80 PUSH1 0x40 MSTORE CALLVALUE DUP1 ISZERO PUSH2 0x10 JUMPI PUSH1 0x0 DUP1 REVERT JUMPDEST POP PUSH1 0x4 CALLDATASIZE LT PUSH2 0xD4 JUMPI PUSH1 0x0 CALLDATALOAD PUSH1 0xE0 SHR DUP1 PUSH4 0xA217FDDF GT PUSH2 0x81 JUMPI DUP1 PUSH4 0xEBF0C717 GT PUSH2 0x5B JUMPI DUP1 PUSH4 0xEBF0C717 EQ PUSH2 0x146 JUMPI DUP1 PUSH4 0xFBFA77CF EQ PUSH2 0x14E JUMPI DUP1 PUSH4 0xFC78A228 EQ PUSH2 0x156 JUMPI PUSH2 0xD4 JUMP JUMPDEST DUP1 PUSH4 0xA217FDDF EQ PUSH2 0x12E JUMPI DUP1 PUSH4 0xB78B6087 EQ PUSH2 0x136 JUMPI DUP1 PUSH4 0xC6BFE9AE EQ PUSH2 0x13E JUMPI PUSH2 0xD4 JUMP JUMPDEST DUP1 PUSH4 0x7217D9D1 GT PUSH2 0xB2 JUMPI DUP1 PUSH4 0x7217D9D1 EQ PUSH2 0x109 JUMPI DUP1 PUSH4 0x98F85D5C EQ PUSH2 0x11E JUMPI DUP1 PUSH4 0xA0C286D8 EQ PUSH2 0x126 JUMPI PUSH2 0xD4 JUMP JUMPDEST DUP1 PUSH4 0x11F13145 EQ PUSH2 0xD9 JUMPI DUP1 PUSH4 0x3C44172D EQ PUSH2 0xE3 JUMPI DUP1 PUSH4 0x62CDE1BA EQ PUSH2 0xEB JUMPI JUMPDEST PUSH1 0x0 DUP1 REVERT JUMPDEST PUSH2 0xE1 PUSH2 0x15E JUMP JUMPDEST STOP JUMPDEST PUSH2 0xE1 PUSH2 0x476 JUMP JUMPDEST PUSH2 0xF3 PUSH2 0x66B JUMP JUMPDEST PUSH1 0x40 MLOAD PUSH2 0x100 SWAP2 SWAP1 PUSH2 0xD0A JUMP JUMPDEST PUSH1 0x40 MLOAD DUP1 SWAP2 SUB SWAP1 RETURN JUMPDEST PUSH2 0x111 PUSH2 0x68F JUMP JUMPDEST PUSH1 0x40 MLOAD PUSH2 0x100 SWAP2 SWAP1 PUSH2 0xD2B JUMP JUMPDEST PUSH2 0x111 PUSH2 0x696 JUMP JUMPDEST PUSH2 0xF3 PUSH2 0x69C JUMP JUMPDEST PUSH2 0x111 PUSH2 0x6C0 JUMP JUMPDEST PUSH2 0xE1 PUSH2 0x6C5 JUMP JUMPDEST PUSH2 0xF3 PUSH2 0xA94 JUMP JUMPDEST PUSH2 0xF3 PUSH2 0xAB8 JUMP JUMPDEST PUSH2 0xF3 PUSH2 0xADC JUMP JUMPDEST PUSH2 0x111 PUSH2 0x66B JUMP JUMPDEST PUSH1 0x0 SLOAD ISZERO DUP1 PUSH2 0x252 JUMPI POP PUSH1 0x40 MLOAD PUSH32 0x6BADD2AB00000000000000000000000000000000000000000000000000000000 DUP2 MSTORE PUSH20 0xFFFFFFFFFFFFFFFFFFFFFFFFFFFFFFFFFFFFFFFF PUSH32 0x0 AND SWAP1 PUSH4 0x6BADD2AB SWAP1 PUSH2 0x1DB SWAP1 PUSH1 0x0 SWAP1 PUSH1 0x4 ADD PUSH2 0xD2B JUMP JUMPDEST PUSH1 0x0 PUSH1 0x40 MLOAD DUP1 DUP4 SUB DUP2 DUP7 DUP1 EXTCODESIZE ISZERO DUP1 ISZERO PUSH2 0x1F3 JUMPI PUSH1 0x0 DUP1 REVERT JUMPDEST POP GAS STATICCALL ISZERO DUP1 ISZERO PUSH2 0x207 JUMPI RETURNDATASIZE PUSH1 0x0 DUP1 RETURNDATACOPY RETURNDATASIZE PUSH1 0x0 REVERT JUMPDEST POP POP POP POP PUSH1 0x40 MLOAD RETURNDATASIZE PUSH1 0x0 DUP3 RETURNDATACOPY PUSH1 0x1F RETURNDATASIZE SWAP1 DUP2 ADD PUSH32 0xFFFFFFFFFFFFFFFFFFFFFFFFFFFFFFFFFFFFFFFFFFFFFFFFFFFFFFFFFFFFFFE0 AND DUP3 ADD PUSH1 0x40 MSTORE PUSH2 0x24D SWAP2 SWAP1 DUP2 ADD SWAP1 PUSH2 0xC31 JUMP JUMPDEST PUSH1 0x40 ADD MLOAD JUMPDEST PUSH2 0x291 JUMPI PUSH1 0x40 MLOAD PUSH32 0x8C379A000000000000000000000000000000000000000000000000000000000 DUP2 MSTORE PUSH1 0x4 ADD PUSH2 0x288 SWAP1 PUSH2 0xE8F JUMP JUMPDEST PUSH1 0x40 MLOAD DUP1 SWAP2 SUB SWAP1 REVERT JUMPDEST PUSH1 0x0 SLOAD PUSH1 0x40 MLOAD PUSH32 0xCC63604A00000000000000000000000000000000000000000000000000000000 DUP2 MSTORE PUSH20 0xFFFFFFFFFFFFFFFFFFFFFFFFFFFFFFFFFFFFFFFF PUSH32 0x0 AND SWAP2 PUSH4 0xCC63604A SWAP2 PUSH2 0x305 SWAP2 SWAP1 PUSH1 0x4 ADD PUSH2 0xD2B JUMP JUMPDEST PUSH1 0x20 PUSH1 0x40 MLOAD DUP1 DUP4 SUB DUP2 DUP7 DUP1 EXTCODESIZE ISZERO DUP1 ISZERO PUSH2 0x31D JUMPI PUSH1 0x0 DUP1 REVERT JUMPDEST POP GAS STATICCALL ISZERO DUP1 ISZERO PUSH2 0x331 JUMPI RETURNDATASIZE PUSH1 0x0 DUP1 RETURNDATACOPY RETURNDATASIZE PUSH1 0x0 REVERT JUMPDEST POP POP POP POP PUSH1 0x40 MLOAD RETURNDATASIZE PUSH1 0x1F NOT PUSH1 0x1F DUP3 ADD AND DUP3 ADD DUP1 PUSH1 0x40 MSTORE POP DUP2 ADD SWAP1 PUSH2 0x355 SWAP2 SWAP1 PUSH2 0xBBC JUMP JUMPDEST PUSH2 0x38B JUMPI PUSH1 0x40 MLOAD PUSH32 0x8C379A000000000000000000000000000000000000000000000000000000000 DUP2 MSTORE PUSH1 0x4 ADD PUSH2 0x288 SWAP1 PUSH2 0xE58 JUMP JUMPDEST PUSH1 0x0 SLOAD PUSH1 0x40 MLOAD PUSH32 0xFE0D94C100000000000000000000000000000000000000000000000000000000 DUP2 MSTORE PUSH20 0xFFFFFFFFFFFFFFFFFFFFFFFFFFFFFFFFFFFFFFFF PUSH32 0x0 AND SWAP2 PUSH4 0xFE0D94C1 SWAP2 PUSH2 0x3FF SWAP2 SWAP1 PUSH1 0x4 ADD PUSH2 0xD2B JUMP JUMPDEST PUSH1 0x0 PUSH1 0x40 MLOAD DUP1 DUP4 SUB DUP2 PUSH1 0x0 DUP8 DUP1 EXTCODESIZE ISZERO DUP1 ISZERO PUSH2 0x419 JUMPI PUSH1 0x0 DUP1 REVERT JUMPDEST POP GAS CALL ISZERO DUP1 ISZERO PUSH2 0x42D JUMPI RETURNDATASIZE PUSH1 0x0 DUP1 RETURNDATACOPY RETURNDATASIZE PUSH1 0x0 REVERT JUMPDEST POP POP POP POP PUSH1 0x40 MLOAD RETURNDATASIZE PUSH1 0x0 DUP3 RETURNDATACOPY PUSH1 0x1F RETURNDATASIZE SWAP1 DUP2 ADD PUSH32 0xFFFFFFFFFFFFFFFFFFFFFFFFFFFFFFFFFFFFFFFFFFFFFFFFFFFFFFFFFFFFFFE0 AND DUP3 ADD PUSH1 0x40 MSTORE PUSH2 0x473 SWAP2 SWAP1 DUP2 ADD SWAP1 PUSH2 0xBF6 JUMP JUMPDEST POP JUMP JUMPDEST PUSH1 0x40 MLOAD PUSH32 0xCC63604A00000000000000000000000000000000000000000000000000000000 DUP2 MSTORE PUSH20 0xFFFFFFFFFFFFFFFFFFFFFFFFFFFFFFFFFFFFFFFF PUSH32 0x0 AND SWAP1 PUSH4 0xCC63604A SWAP1 PUSH2 0x4E9 SWAP1 PUSH1 0x0 SWAP1 PUSH1 0x4 ADD PUSH2 0xD2B JUMP JUMPDEST PUSH1 0x20 PUSH1 0x40 MLOAD DUP1 DUP4 SUB DUP2 DUP7 DUP1 EXTCODESIZE ISZERO DUP1 ISZERO PUSH2 0x501 JUMPI PUSH1 0x0 DUP1 REVERT JUMPDEST POP GAS STATICCALL ISZERO DUP1 ISZERO PUSH2 0x515 JUMPI RETURNDATASIZE PUSH1 0x0 DUP1 RETURNDATACOPY RETURNDATASIZE PUSH1 0x0 REVERT JUMPDEST POP POP POP POP PUSH1 0x40 MLOAD RETURNDATASIZE PUSH1 0x1F NOT PUSH1 0x1F DUP3 ADD AND DUP3 ADD DUP1 PUSH1 0x40 MSTORE POP DUP2 ADD SWAP1 PUSH2 0x539 SWAP2 SWAP1 PUSH2 0xBBC JUMP JUMPDEST PUSH2 0x56F JUMPI PUSH1 0x40 MLOAD PUSH32 0x8C379A000000000000000000000000000000000000000000000000000000000 DUP2 MSTORE PUSH1 0x4 ADD PUSH2 0x288 SWAP1 PUSH2 0xD8D JUMP JUMPDEST PUSH1 0x0 JUMPDEST PUSH1 0x0 SLOAD DUP2 LT ISZERO PUSH2 0x473 JUMPI PUSH1 0x40 MLOAD PUSH32 0xFE0D94C100000000000000000000000000000000000000000000000000000000 DUP2 MSTORE PUSH20 0xFFFFFFFFFFFFFFFFFFFFFFFFFFFFFFFFFFFFFFFF PUSH32 0x0 AND SWAP1 PUSH4 0xFE0D94C1 SWAP1 PUSH2 0x5EE SWAP1 DUP5 SWAP1 PUSH1 0x4 ADD PUSH2 0xD2B JUMP JUMPDEST PUSH1 0x0 PUSH1 0x40 MLOAD DUP1 DUP4 SUB DUP2 PUSH1 0x0 DUP8 DUP1 EXTCODESIZE ISZERO DUP1 ISZERO PUSH2 0x608 JUMPI PUSH1 0x0 DUP1 REVERT JUMPDEST POP GAS CALL ISZERO DUP1 ISZERO PUSH2 0x61C JUMPI RETURNDATASIZE PUSH1 0x0 DUP1 RETURNDATACOPY RETURNDATASIZE PUSH1 0x0 REVERT JUMPDEST POP POP POP POP PUSH1 0x40 MLOAD RETURNDATASIZE PUSH1 0x0 DUP3 RETURNDATACOPY PUSH1 0x1F RETURNDATASIZE SWAP1 DUP2 ADD PUSH32 0xFFFFFFFFFFFFFFFFFFFFFFFFFFFFFFFFFFFFFFFFFFFFFFFFFFFFFFFFFFFFFFE0 AND DUP3 ADD PUSH1 0x40 MSTORE PUSH2 0x662 SWAP2 SWAP1 DUP2 ADD SWAP1 PUSH2 0xBF6 JUMP JUMPDEST POP PUSH1 0x1 ADD PUSH2 0x572 JUMP JUMPDEST PUSH32 0xFFFFFFFFFFFFFFFFFFFFFFFFFFFFFFFFFFFFFFFFFFFFFFFFFFFFFFFFFFFFFFFF DUP2 JUMP JUMPDEST PUSH3 0x24EA00 DUP2 JUMP JUMPDEST PUSH1 0x0 SLOAD DUP2 JUMP JUMPDEST PUSH32 0x0 DUP2 JUMP JUMPDEST PUSH1 0x0 DUP2 JUMP JUMPDEST PUSH1 0x40 MLOAD PUSH32 0x557A640300000000000000000000000000000000000000000000000000000000 DUP2 MSTORE PUSH20 0xFFFFFFFFFFFFFFFFFFFFFFFFFFFFFFFFFFFFFFFF PUSH32 0x0 AND SWAP1 PUSH4 0x557A6403 SWAP1 PUSH2 0x757 SWAP1 PUSH32 0x0 SWAP1 PUSH1 0x4 ADD PUSH2 0xD0A JUMP JUMPDEST PUSH1 0x20 PUSH1 0x40 MLOAD DUP1 DUP4 SUB DUP2 DUP7 DUP1 EXTCODESIZE ISZERO DUP1 ISZERO PUSH2 0x76F JUMPI PUSH1 0x0 DUP1 REVERT JUMPDEST POP GAS STATICCALL ISZERO DUP1 ISZERO PUSH2 0x783 JUMPI RETURNDATASIZE PUSH1 0x0 DUP1 RETURNDATACOPY RETURNDATASIZE PUSH1 0x0 REVERT JUMPDEST POP POP POP POP PUSH1 0x40 MLOAD RETURNDATASIZE PUSH1 0x1F NOT PUSH1 0x1F DUP3 ADD AND DUP3 ADD DUP1 PUSH1 0x40 MSTORE POP DUP2 ADD SWAP1 PUSH2 0x7A7 SWAP2 SWAP1 PUSH2 0xBBC JUMP JUMPDEST PUSH2 0x7DD JUMPI PUSH1 0x40 MLOAD PUSH32 0x8C379A000000000000000000000000000000000000000000000000000000000 DUP2 MSTORE PUSH1 0x4 ADD PUSH2 0x288 SWAP1 PUSH2 0xDEA JUMP JUMPDEST PUSH1 0x40 MLOAD PUSH32 0x851C1BB300000000000000000000000000000000000000000000000000000000 DUP2 MSTORE PUSH1 0x0 SWAP1 PUSH20 0xFFFFFFFFFFFFFFFFFFFFFFFFFFFFFFFFFFFFFFFF PUSH32 0x0 AND SWAP1 PUSH4 0x851C1BB3 SWAP1 PUSH2 0x872 SWAP1 PUSH32 0x58A628F00000000000000000000000000000000000000000000000000000000 SWAP1 PUSH1 0x4 ADD PUSH2 0xD60 JUMP JUMPDEST PUSH1 0x20 PUSH1 0x40 MLOAD DUP1 DUP4 SUB DUP2 DUP7 DUP1 EXTCODESIZE ISZERO DUP1 ISZERO PUSH2 0x88A JUMPI PUSH1 0x0 DUP1 REVERT JUMPDEST POP GAS STATICCALL ISZERO DUP1 ISZERO PUSH2 0x89E JUMPI RETURNDATASIZE PUSH1 0x0 DUP1 RETURNDATACOPY RETURNDATASIZE PUSH1 0x0 REVERT JUMPDEST POP POP POP POP PUSH1 0x40 MLOAD RETURNDATASIZE PUSH1 0x1F NOT PUSH1 0x1F DUP3 ADD AND DUP3 ADD DUP1 PUSH1 0x40 MSTORE POP DUP2 ADD SWAP1 PUSH2 0x8C2 SWAP2 SWAP1 PUSH2 0xBDE JUMP JUMPDEST SWAP1 POP PUSH1 0x0 PUSH32 0x0 PUSH20 0xFFFFFFFFFFFFFFFFFFFFFFFFFFFFFFFFFFFFFFFF AND PUSH4 0x9BE2A884 DUP4 ADDRESS PUSH32 0x0 PUSH1 0x40 MLOAD DUP5 PUSH4 0xFFFFFFFF AND PUSH1 0xE0 SHL DUP2 MSTORE PUSH1 0x4 ADD PUSH2 0x943 SWAP4 SWAP3 SWAP2 SWAP1 PUSH2 0xD34 JUMP JUMPDEST PUSH1 0x20 PUSH1 0x40 MLOAD DUP1 DUP4 SUB DUP2 DUP7 DUP1 EXTCODESIZE ISZERO DUP1 ISZERO PUSH2 0x95B JUMPI PUSH1 0x0 DUP1 REVERT JUMPDEST POP GAS STATICCALL ISZERO DUP1 ISZERO PUSH2 0x96F JUMPI RETURNDATASIZE PUSH1 0x0 DUP1 RETURNDATACOPY RETURNDATASIZE PUSH1 0x0 REVERT JUMPDEST POP POP POP POP PUSH1 0x40 MLOAD RETURNDATASIZE PUSH1 0x1F NOT PUSH1 0x1F DUP3 ADD AND DUP3 ADD DUP1 PUSH1 0x40 MSTORE POP DUP2 ADD SWAP1 PUSH2 0x993 SWAP2 SWAP1 PUSH2 0xBBC JUMP JUMPDEST SWAP1 POP DUP1 PUSH2 0x9CC JUMPI PUSH1 0x40 MLOAD PUSH32 0x8C379A000000000000000000000000000000000000000000000000000000000 DUP2 MSTORE PUSH1 0x4 ADD PUSH2 0x288 SWAP1 PUSH2 0xE21 JUMP JUMPDEST PUSH1 0x40 MLOAD PUSH32 0x58A628F00000000000000000000000000000000000000000000000000000000 DUP2 MSTORE PUSH20 0xFFFFFFFFFFFFFFFFFFFFFFFFFFFFFFFFFFFFFFFF PUSH32 0x0 AND SWAP1 PUSH4 0x58A628F SWAP1 PUSH2 0xA5E SWAP1 PUSH32 0x0 SWAP1 PUSH1 0x4 ADD PUSH2 0xD0A JUMP JUMPDEST PUSH1 0x0 PUSH1 0x40 MLOAD DUP1 DUP4 SUB DUP2 PUSH1 0x0 DUP8 DUP1 EXTCODESIZE ISZERO DUP1 ISZERO PUSH2 0xA78 JUMPI PUSH1 0x0 DUP1 REVERT JUMPDEST POP GAS CALL ISZERO DUP1 ISZERO PUSH2 0xA8C JUMPI RETURNDATASIZE PUSH1 0x0 DUP1 RETURNDATACOPY RETURNDATASIZE PUSH1 0x0 REVERT JUMPDEST POP POP POP POP POP POP JUMP JUMPDEST PUSH32 0x0 DUP2 JUMP JUMPDEST PUSH32 0x0 DUP2 JUMP JUMPDEST PUSH32 0x0 DUP2 JUMP JUMPDEST DUP1 MLOAD DUP1 ISZERO ISZERO DUP2 EQ PUSH2 0xB10 JUMPI PUSH1 0x0 DUP1 REVERT JUMPDEST SWAP3 SWAP2 POP POP JUMP JUMPDEST PUSH1 0x0 DUP3 PUSH1 0x1F DUP4 ADD SLT PUSH2 0xB26 JUMPI DUP1 DUP2 REVERT JUMPDEST DUP2 MLOAD PUSH8 0xFFFFFFFFFFFFFFFF DUP2 GT ISZERO PUSH2 0xB3C JUMPI DUP2 DUP3 REVERT JUMPDEST PUSH1 0x20 PUSH2 0xB6E DUP2 PUSH32 0xFFFFFFFFFFFFFFFFFFFFFFFFFFFFFFFFFFFFFFFFFFFFFFFFFFFFFFFFFFFFFFE0 PUSH1 0x1F DUP6 ADD AND ADD PUSH2 0xEC6 JUMP JUMPDEST SWAP3 POP DUP2 DUP4 MSTORE DUP5 DUP2 DUP4 DUP7 ADD ADD GT ISZERO PUSH2 0xB84 JUMPI PUSH1 0x0 DUP1 REVERT JUMPDEST PUSH1 0x0 JUMPDEST DUP3 DUP2 LT ISZERO PUSH2 0xBA2 JUMPI DUP5 DUP2 ADD DUP3 ADD MLOAD DUP5 DUP3 ADD DUP4 ADD MSTORE DUP2 ADD PUSH2 0xB87 JUMP JUMPDEST DUP3 DUP2 GT ISZERO PUSH2 0xBB3 JUMPI PUSH1 0x0 DUP3 DUP5 DUP7 ADD ADD MSTORE JUMPDEST POP POP POP SWAP3 SWAP2 POP POP JUMP JUMPDEST PUSH1 0x0 PUSH1 0x20 DUP3 DUP5 SUB SLT ISZERO PUSH2 0xBCD JUMPI DUP1 DUP2 REVERT JUMPDEST PUSH2 0xBD7 DUP4 DUP4 PUSH2 0xB00 JUMP JUMPDEST SWAP4 SWAP3 POP POP POP JUMP JUMPDEST PUSH1 0x0 PUSH1 0x20 DUP3 DUP5 SUB SLT ISZERO PUSH2 0xBEF JUMPI DUP1 DUP2 REVERT JUMPDEST POP MLOAD SWAP2 SWAP1 POP JUMP JUMPDEST PUSH1 0x0 PUSH1 0x20 DUP3 DUP5 SUB SLT ISZERO PUSH2 0xC07 JUMPI DUP1 DUP2 REVERT JUMPDEST DUP2 MLOAD PUSH8 0xFFFFFFFFFFFFFFFF DUP2 GT ISZERO PUSH2 0xC1D JUMPI DUP2 DUP3 REVERT JUMPDEST PUSH2 0xC29 DUP5 DUP3 DUP6 ADD PUSH2 0xB16 JUMP JUMPDEST SWAP5 SWAP4 POP POP POP POP JUMP JUMPDEST PUSH1 0x0 PUSH1 0x20 DUP3 DUP5 SUB SLT ISZERO PUSH2 0xC42 JUMPI DUP1 DUP2 REVERT JUMPDEST DUP2 MLOAD PUSH8 0xFFFFFFFFFFFFFFFF DUP1 DUP3 GT ISZERO PUSH2 0xC59 JUMPI DUP3 DUP4 REVERT JUMPDEST SWAP1 DUP4 ADD SWAP1 PUSH1 0xC0 DUP3 DUP7 SUB SLT ISZERO PUSH2 0xC6C JUMPI DUP3 DUP4 REVERT JUMPDEST PUSH2 0xC76 PUSH1 0xC0 PUSH2 0xEC6 JUMP JUMPDEST DUP3 MLOAD PUSH20 0xFFFFFFFFFFFFFFFFFFFFFFFFFFFFFFFFFFFFFFFF DUP2 AND DUP2 EQ PUSH2 0xC99 JUMPI DUP5 DUP6 REVERT JUMPDEST DUP2 MSTORE PUSH1 0x20 DUP4 ADD MLOAD DUP3 DUP2 GT ISZERO PUSH2 0xCAC JUMPI DUP5 DUP6 REVERT JUMPDEST PUSH2 0xCB8 DUP8 DUP3 DUP7 ADD PUSH2 0xB16 JUMP JUMPDEST PUSH1 0x20 DUP4 ADD MSTORE POP PUSH2 0xCCB DUP7 PUSH1 0x40 DUP6 ADD PUSH2 0xB00 JUMP JUMPDEST PUSH1 0x40 DUP3 ADD MSTORE PUSH2 0xCDD DUP7 PUSH1 0x60 DUP6 ADD PUSH2 0xB00 JUMP JUMPDEST PUSH1 0x60 DUP3 ADD MSTORE PUSH2 0xCEF DUP7 PUSH1 0x80 DUP6 ADD PUSH2 0xB00 JUMP JUMPDEST PUSH1 0x80 DUP3 ADD MSTORE PUSH1 0xA0 DUP4 ADD MLOAD PUSH1 0xA0 DUP3 ADD MSTORE DUP1 SWAP4 POP POP POP POP SWAP3 SWAP2 POP POP JUMP JUMPDEST PUSH20 0xFFFFFFFFFFFFFFFFFFFFFFFFFFFFFFFFFFFFFFFF SWAP2 SWAP1 SWAP2 AND DUP2 MSTORE PUSH1 0x20 ADD SWAP1 JUMP JUMPDEST SWAP1 DUP2 MSTORE PUSH1 0x20 ADD SWAP1 JUMP JUMPDEST SWAP3 DUP4 MSTORE PUSH20 0xFFFFFFFFFFFFFFFFFFFFFFFFFFFFFFFFFFFFFFFF SWAP2 DUP3 AND PUSH1 0x20 DUP5 ADD MSTORE AND PUSH1 0x40 DUP3 ADD MSTORE PUSH1 0x60 ADD SWAP1 JUMP JUMPDEST PUSH32 0xFFFFFFFF00000000000000000000000000000000000000000000000000000000 SWAP2 SWAP1 SWAP2 AND DUP2 MSTORE PUSH1 0x20 ADD SWAP1 JUMP JUMPDEST PUSH1 0x20 DUP1 DUP3 MSTORE PUSH1 0x23 SWAP1 DUP3 ADD MSTORE PUSH32 0x43414E4E4F545F545249474745525F44454C4159535F4D4947524154494F4E5F PUSH1 0x40 DUP3 ADD MSTORE PUSH32 0x5945540000000000000000000000000000000000000000000000000000000000 PUSH1 0x60 DUP3 ADD MSTORE PUSH1 0x80 ADD SWAP1 JUMP JUMPDEST PUSH1 0x20 DUP1 DUP3 MSTORE PUSH1 0x14 SWAP1 DUP3 ADD MSTORE PUSH32 0x524F4F545F4E4F545F434C41494D45445F594554000000000000000000000000 PUSH1 0x40 DUP3 ADD MSTORE PUSH1 0x60 ADD SWAP1 JUMP JUMPDEST PUSH1 0x20 DUP1 DUP3 MSTORE PUSH1 0x1E SWAP1 DUP3 ADD MSTORE PUSH32 0x4D49475241544F525F43414E4E4F545F5345545F415554484F52495A45520000 PUSH1 0x40 DUP3 ADD MSTORE PUSH1 0x60 ADD SWAP1 JUMP JUMPDEST PUSH1 0x20 DUP1 DUP3 MSTORE PUSH1 0x1E SWAP1 DUP3 ADD MSTORE PUSH32 0x43414E4E4F545F545249474745525F524F4F545F4348414E47455F5945540000 PUSH1 0x40 DUP3 ADD MSTORE PUSH1 0x60 ADD SWAP1 JUMP JUMPDEST PUSH1 0x20 DUP1 DUP3 MSTORE PUSH1 0x17 SWAP1 DUP3 ADD MSTORE PUSH32 0x44454C4159535F4E4F545F4D494752415445445F594554000000000000000000 PUSH1 0x40 DUP3 ADD MSTORE PUSH1 0x60 ADD SWAP1 JUMP JUMPDEST PUSH1 0x40 MLOAD DUP2 DUP2 ADD PUSH8 0xFFFFFFFFFFFFFFFF DUP2 GT DUP3 DUP3 LT OR ISZERO PUSH2 0xEE5 JUMPI PUSH1 0x0 DUP1 REVERT JUMPDEST PUSH1 0x40 MSTORE SWAP2 SWAP1 POP JUMP INVALID LOG2 PUSH5 0x6970667358 0x22 SLT KECCAK256 0xB4 CHAINID 0xCC DUP1 POP 0xB4 0x2B SWAP7 PUSH7 0xCD8BDA65A6F5B9 0xE6 0xBD 0xBD CALLDATASIZE 0xE7 0xCA 0xC1 0xF7 0x2A PUSH24 0xBA1FA5BF93E764736F6C634300070100336101E060405234 DUP1 ISZERO PUSH3 0x12 JUMPI PUSH1 0x0 DUP1 REVERT JUMPDEST POP PUSH1 0x40 MLOAD PUSH3 0x390E CODESIZE SUB DUP1 PUSH3 0x390E DUP4 CODECOPY DUP2 ADD PUSH1 0x40 DUP2 SWAP1 MSTORE PUSH3 0x35 SWAP2 PUSH3 0x3DF JUMP JUMPDEST PUSH1 0x1 PUSH1 0x0 SSTORE PUSH3 0x45 DUP4 PUSH3 0x265 JUMP JUMPDEST DUP2 PUSH1 0x1 PUSH1 0x1 PUSH1 0xA0 SHL SUB AND PUSH4 0x8D928AF8 PUSH1 0x40 MLOAD DUP2 PUSH4 0xFFFFFFFF AND PUSH1 0xE0 SHL DUP2 MSTORE PUSH1 0x4 ADD PUSH1 0x20 PUSH1 0x40 MLOAD DUP1 DUP4 SUB DUP2 DUP7 DUP1 EXTCODESIZE ISZERO DUP1 ISZERO PUSH3 0x7F JUMPI PUSH1 0x0 DUP1 REVERT JUMPDEST POP GAS STATICCALL ISZERO DUP1 ISZERO PUSH3 0x94 JUMPI RETURNDATASIZE PUSH1 0x0 DUP1 RETURNDATACOPY RETURNDATASIZE PUSH1 0x0 REVERT JUMPDEST POP POP POP POP PUSH1 0x40 MLOAD RETURNDATASIZE PUSH1 0x1F NOT PUSH1 0x1F DUP3 ADD AND DUP3 ADD DUP1 PUSH1 0x40 MSTORE POP DUP2 ADD SWAP1 PUSH3 0xBA SWAP2 SWAP1 PUSH3 0x426 JUMP JUMPDEST PUSH1 0x1 PUSH1 0x1 PUSH1 0xA0 SHL SUB AND PUSH2 0x160 DUP2 PUSH1 0x1 PUSH1 0x1 PUSH1 0xA0 SHL SUB AND PUSH1 0x60 SHL DUP2 MSTORE POP POP DUP2 PUSH1 0x1 PUSH1 0x1 PUSH1 0xA0 SHL SUB AND PUSH4 0xE758D36B PUSH1 0x40 MLOAD DUP2 PUSH4 0xFFFFFFFF AND PUSH1 0xE0 SHL DUP2 MSTORE PUSH1 0x4 ADD PUSH1 0x20 PUSH1 0x40 MLOAD DUP1 DUP4 SUB DUP2 DUP7 DUP1 EXTCODESIZE ISZERO DUP1 ISZERO PUSH3 0x111 JUMPI PUSH1 0x0 DUP1 REVERT JUMPDEST POP GAS STATICCALL ISZERO DUP1 ISZERO PUSH3 0x126 JUMPI RETURNDATASIZE PUSH1 0x0 DUP1 RETURNDATACOPY RETURNDATASIZE PUSH1 0x0 REVERT JUMPDEST POP POP POP POP PUSH1 0x40 MLOAD RETURNDATASIZE PUSH1 0x1F NOT PUSH1 0x1F DUP3 ADD AND DUP3 ADD DUP1 PUSH1 0x40 MSTORE POP DUP2 ADD SWAP1 PUSH3 0x14C SWAP2 SWAP1 PUSH3 0x426 JUMP JUMPDEST PUSH1 0x1 PUSH1 0x1 PUSH1 0x60 SHL SUB NOT PUSH1 0x60 SWAP2 DUP3 SHL DUP2 AND PUSH2 0x1A0 MSTORE SWAP1 DUP4 SWAP1 SHL AND PUSH2 0x180 MSTORE PUSH1 0x40 MLOAD PUSH3 0x177 SWAP1 PUSH3 0x3D1 JUMP JUMPDEST PUSH1 0x40 MLOAD DUP1 SWAP2 SUB SWAP1 PUSH1 0x0 CREATE DUP1 ISZERO DUP1 ISZERO PUSH3 0x194 JUMPI RETURNDATASIZE PUSH1 0x0 DUP1 RETURNDATACOPY RETURNDATASIZE PUSH1 0x0 REVERT JUMPDEST POP PUSH1 0x60 SHL PUSH1 0x1 PUSH1 0x1 PUSH1 0x60 SHL SUB NOT AND PUSH2 0x140 MSTORE PUSH2 0x1C0 DUP2 SWAP1 MSTORE PUSH1 0x0 PUSH3 0x1C0 PUSH4 0x37C5E2CB PUSH1 0xE1 SHL PUSH3 0x2AF JUMP JUMPDEST SWAP1 POP PUSH1 0x0 PUSH3 0x1D6 PUSH4 0x4C073481 PUSH1 0xE0 SHL PUSH3 0x2AF JUMP JUMPDEST SWAP1 POP PUSH1 0x0 PUSH3 0x1E8 DUP4 PUSH1 0x0 NOT PUSH3 0x2E4 JUMP JUMPDEST SWAP1 POP PUSH1 0x0 PUSH3 0x1FA DUP4 PUSH1 0x0 NOT PUSH3 0x2E4 JUMP JUMPDEST SWAP1 POP PUSH3 0x20B DUP3 DUP9 PUSH1 0x0 NOT PUSH3 0x319 JUMP JUMPDEST PUSH3 0x21A DUP2 DUP9 PUSH1 0x0 NOT PUSH3 0x319 JUMP JUMPDEST PUSH1 0x80 DUP5 SWAP1 MSTORE PUSH1 0xA0 DUP4 SWAP1 MSTORE PUSH3 0x236 PUSH4 0xFE0D94C1 PUSH1 0xE0 SHL PUSH3 0x2AF JUMP JUMPDEST PUSH1 0xC0 MSTORE PUSH3 0x24B PUSH4 0x78422A91 PUSH1 0xE1 SHL PUSH3 0x2AF JUMP JUMPDEST PUSH1 0xE0 MSTORE PUSH2 0x100 SWAP2 SWAP1 SWAP2 MSTORE PUSH2 0x120 MSTORE POP PUSH3 0x4B1 SWAP4 POP POP POP POP JUMP JUMPDEST PUSH1 0x1 DUP1 SLOAD PUSH1 0x1 PUSH1 0x1 PUSH1 0xA0 SHL SUB NOT AND PUSH1 0x1 PUSH1 0x1 PUSH1 0xA0 SHL SUB DUP4 AND SWAP1 DUP2 OR SWAP1 SWAP2 SSTORE PUSH1 0x40 MLOAD PUSH32 0x39510B933A9D010F906528D6019D3F4E2450A10DC33B10887503B31ED82F1111 SWAP1 PUSH1 0x0 SWAP1 LOG2 POP JUMP JUMPDEST PUSH1 0x40 MLOAD PUSH1 0x0 SWAP1 PUSH3 0x2C7 SWAP1 ADDRESS SWAP1 DUP5 SWAP1 PUSH1 0x20 ADD PUSH3 0x480 JUMP JUMPDEST PUSH1 0x40 MLOAD PUSH1 0x20 DUP2 DUP4 SUB SUB DUP2 MSTORE SWAP1 PUSH1 0x40 MSTORE DUP1 MLOAD SWAP1 PUSH1 0x20 ADD KECCAK256 SWAP1 POP SWAP2 SWAP1 POP JUMP JUMPDEST PUSH1 0x0 DUP3 DUP3 PUSH1 0x40 MLOAD PUSH1 0x20 ADD PUSH3 0x2FB SWAP3 SWAP2 SWAP1 PUSH3 0x472 JUMP JUMPDEST PUSH1 0x40 MLOAD PUSH1 0x20 DUP2 DUP4 SUB SUB DUP2 MSTORE SWAP1 PUSH1 0x40 MSTORE DUP1 MLOAD SWAP1 PUSH1 0x20 ADD KECCAK256 SWAP1 POP SWAP3 SWAP2 POP POP JUMP JUMPDEST PUSH1 0x0 PUSH3 0x328 DUP5 DUP5 DUP5 PUSH3 0x399 JUMP JUMPDEST PUSH1 0x0 DUP2 DUP2 MSTORE PUSH1 0x4 PUSH1 0x20 MSTORE PUSH1 0x40 SWAP1 KECCAK256 SLOAD SWAP1 SWAP2 POP PUSH1 0xFF AND PUSH3 0x393 JUMPI PUSH1 0x0 DUP2 DUP2 MSTORE PUSH1 0x4 PUSH1 0x20 MSTORE PUSH1 0x40 DUP1 DUP3 KECCAK256 DUP1 SLOAD PUSH1 0xFF NOT AND PUSH1 0x1 OR SWAP1 SSTORE MLOAD PUSH1 0x1 PUSH1 0x1 PUSH1 0xA0 SHL SUB DUP1 DUP6 AND SWAP3 SWAP1 DUP7 AND SWAP2 DUP8 SWAP2 PUSH32 0xEF6EE312A0062A24A46BE2EBA5284183A87FF848110E8D4DF979BD690D9E9F68 SWAP2 LOG4 JUMPDEST POP POP POP POP JUMP JUMPDEST PUSH1 0x0 DUP4 DUP4 DUP4 PUSH1 0x40 MLOAD PUSH1 0x20 ADD PUSH3 0x3B2 SWAP4 SWAP3 SWAP2 SWAP1 PUSH3 0x44C JUMP JUMPDEST PUSH1 0x40 MLOAD PUSH1 0x20 DUP2 DUP4 SUB SUB DUP2 MSTORE SWAP1 PUSH1 0x40 MSTORE DUP1 MLOAD SWAP1 PUSH1 0x20 ADD KECCAK256 SWAP1 POP SWAP4 SWAP3 POP POP POP JUMP JUMPDEST PUSH2 0x4EF DUP1 PUSH3 0x341F DUP4 CODECOPY ADD SWAP1 JUMP JUMPDEST PUSH1 0x0 DUP1 PUSH1 0x0 PUSH1 0x60 DUP5 DUP7 SUB SLT ISZERO PUSH3 0x3F4 JUMPI DUP3 DUP4 REVERT JUMPDEST DUP4 MLOAD PUSH3 0x401 DUP2 PUSH3 0x498 JUMP JUMPDEST PUSH1 0x20 DUP6 ADD MLOAD SWAP1 SWAP4 POP PUSH3 0x414 DUP2 PUSH3 0x498 JUMP JUMPDEST DUP1 SWAP3 POP POP PUSH1 0x40 DUP5 ADD MLOAD SWAP1 POP SWAP3 POP SWAP3 POP SWAP3 JUMP JUMPDEST PUSH1 0x0 PUSH1 0x20 DUP3 DUP5 SUB SLT ISZERO PUSH3 0x438 JUMPI DUP1 DUP2 REVERT JUMPDEST DUP2 MLOAD PUSH3 0x445 DUP2 PUSH3 0x498 JUMP JUMPDEST SWAP4 SWAP3 POP POP POP JUMP JUMPDEST SWAP3 DUP4 MSTORE PUSH1 0x1 PUSH1 0x1 PUSH1 0x60 SHL SUB NOT PUSH1 0x60 SWAP3 DUP4 SHL DUP2 AND PUSH1 0x20 DUP6 ADD MSTORE SWAP2 SHL AND PUSH1 0x34 DUP3 ADD MSTORE PUSH1 0x48 ADD SWAP1 JUMP JUMPDEST SWAP2 DUP3 MSTORE PUSH1 0x20 DUP3 ADD MSTORE PUSH1 0x40 ADD SWAP1 JUMP JUMPDEST SWAP2 DUP3 MSTORE PUSH1 0x1 PUSH1 0x1 PUSH1 0xE0 SHL SUB NOT AND PUSH1 0x20 DUP3 ADD MSTORE PUSH1 0x24 ADD SWAP1 JUMP JUMPDEST PUSH1 0x1 PUSH1 0x1 PUSH1 0xA0 SHL SUB DUP2 AND DUP2 EQ PUSH3 0x4AE JUMPI PUSH1 0x0 DUP1 REVERT JUMPDEST POP JUMP JUMPDEST PUSH1 0x80 MLOAD PUSH1 0xA0 MLOAD PUSH1 0xC0 MLOAD PUSH1 0xE0 MLOAD PUSH2 0x100 MLOAD PUSH2 0x120 MLOAD PUSH2 0x140 MLOAD PUSH1 0x60 SHR PUSH2 0x160 MLOAD PUSH1 0x60 SHR PUSH2 0x180 MLOAD PUSH1 0x60 SHR PUSH2 0x1A0 MLOAD PUSH1 0x60 SHR PUSH2 0x1C0 MLOAD PUSH2 0x2E91 PUSH3 0x58E PUSH1 0x0 CODECOPY DUP1 PUSH2 0x145B MSTORE POP DUP1 PUSH2 0x132D MSTORE POP DUP1 PUSH2 0x1355 MSTORE POP DUP1 PUSH2 0x12F1 MSTORE DUP1 PUSH2 0x17ED MSTORE POP DUP1 PUSH2 0x7FF MSTORE DUP1 PUSH2 0x946 MSTORE DUP1 PUSH2 0x1022 MSTORE DUP1 PUSH2 0x13CE MSTORE DUP1 PUSH2 0x1784 MSTORE DUP1 PUSH2 0x1A9F MSTORE DUP1 PUSH2 0x2189 MSTORE POP DUP1 PUSH2 0x6F1 MSTORE DUP1 PUSH2 0x74B MSTORE POP DUP1 PUSH2 0x6C4 MSTORE DUP1 PUSH2 0x71E MSTORE POP DUP1 PUSH2 0x66F MSTORE DUP1 PUSH2 0x1583 MSTORE POP DUP1 PUSH2 0x9B3 MSTORE DUP1 PUSH2 0x1557 MSTORE POP DUP1 PUSH2 0x10D0 MSTORE DUP1 PUSH2 0x1614 MSTORE DUP1 PUSH2 0x163D MSTORE DUP1 PUSH2 0x1929 MSTORE POP DUP1 PUSH2 0x791 MSTORE DUP1 PUSH2 0x1160 MSTORE DUP1 PUSH2 0x1432 MSTORE DUP1 PUSH2 0x15AF MSTORE POP PUSH2 0x2E91 PUSH1 0x0 RETURN INVALID PUSH1 0x80 PUSH1 0x40 MSTORE CALLVALUE DUP1 ISZERO PUSH2 0x10 JUMPI PUSH1 0x0 DUP1 REVERT JUMPDEST POP PUSH1 0x4 CALLDATASIZE LT PUSH2 0x315 JUMPI PUSH1 0x0 CALLDATALOAD PUSH1 0xE0 SHR DUP1 PUSH4 0x7E1C556D GT PUSH2 0x1A7 JUMPI DUP1 PUSH4 0xD00BEF4D GT PUSH2 0xEE JUMPI DUP1 PUSH4 0xE8104EA0 GT PUSH2 0x97 JUMPI DUP1 PUSH4 0xF1521D76 GT PUSH2 0x71 JUMPI DUP1 PUSH4 0xF1521D76 EQ PUSH2 0x60E JUMPI DUP1 PUSH4 0xFC78A228 EQ PUSH2 0x621 JUMPI DUP1 PUSH4 0xFE0D94C1 EQ PUSH2 0x629 JUMPI PUSH2 0x315 JUMP JUMPDEST DUP1 PUSH4 0xE8104EA0 EQ PUSH2 0x5D5 JUMPI DUP1 PUSH4 0xF0845522 EQ PUSH2 0x5E8 JUMPI DUP1 PUSH4 0xF0BB9406 EQ PUSH2 0x5FB JUMPI PUSH2 0x315 JUMP JUMPDEST DUP1 PUSH4 0xDF6B0D01 GT PUSH2 0xC8 JUMPI DUP1 PUSH4 0xDF6B0D01 EQ PUSH2 0x5A7 JUMPI DUP1 PUSH4 0xE2B4146B EQ PUSH2 0x5BA JUMPI DUP1 PUSH4 0xE5E6E8AE EQ PUSH2 0x5CD JUMPI PUSH2 0x315 JUMP JUMPDEST DUP1 PUSH4 0xD00BEF4D EQ PUSH2 0x579 JUMPI DUP1 PUSH4 0xD754BAD9 EQ PUSH2 0x581 JUMPI DUP1 PUSH4 0xD7AD1DCF EQ PUSH2 0x594 JUMPI PUSH2 0x315 JUMP JUMPDEST DUP1 PUSH4 0x9BE2A884 GT PUSH2 0x150 JUMPI DUP1 PUSH4 0xC284B6B9 GT PUSH2 0x12A JUMPI DUP1 PUSH4 0xC284B6B9 EQ PUSH2 0x54B JUMPI DUP1 PUSH4 0xCC63604A EQ PUSH2 0x553 JUMPI DUP1 PUSH4 0xCF8475DA EQ PUSH2 0x566 JUMPI PUSH2 0x315 JUMP JUMPDEST DUP1 PUSH4 0x9BE2A884 EQ PUSH2 0x51D JUMPI DUP1 PUSH4 0x9F81AED7 EQ PUSH2 0x530 JUMPI DUP1 PUSH4 0xB3EB281D EQ PUSH2 0x538 JUMPI PUSH2 0x315 JUMP JUMPDEST DUP1 PUSH4 0x863BAC6B GT PUSH2 0x181 JUMPI DUP1 PUSH4 0x863BAC6B EQ PUSH2 0x4EF JUMPI DUP1 PUSH4 0x86FF254B EQ PUSH2 0x502 JUMPI DUP1 PUSH4 0x8D928AF8 EQ PUSH2 0x515 JUMPI PUSH2 0x315 JUMP JUMPDEST DUP1 PUSH4 0x7E1C556D EQ PUSH2 0x4C1 JUMPI DUP1 PUSH4 0x82938CA8 EQ PUSH2 0x4C9 JUMPI DUP1 PUSH4 0x851C1BB3 EQ PUSH2 0x4DC JUMPI PUSH2 0x315 JUMP JUMPDEST DUP1 PUSH4 0x4125FF90 GT PUSH2 0x26B JUMPI DUP1 PUSH4 0x62CDE1BA GT PUSH2 0x214 JUMPI DUP1 PUSH4 0x6F8BC596 GT PUSH2 0x1EE JUMPI DUP1 PUSH4 0x6F8BC596 EQ PUSH2 0x488 JUMPI DUP1 PUSH4 0x715716A2 EQ PUSH2 0x49B JUMPI DUP1 PUSH4 0x78A08377 EQ PUSH2 0x4AE JUMPI PUSH2 0x315 JUMP JUMPDEST DUP1 PUSH4 0x62CDE1BA EQ PUSH2 0x458 JUMPI DUP1 PUSH4 0x6BADD2AB EQ PUSH2 0x460 JUMPI DUP1 PUSH4 0x6C1032AF EQ PUSH2 0x480 JUMPI PUSH2 0x315 JUMP JUMPDEST DUP1 PUSH4 0x55ED08A1 GT PUSH2 0x245 JUMPI DUP1 PUSH4 0x55ED08A1 EQ PUSH2 0x41D JUMPI DUP1 PUSH4 0x5B78B780 EQ PUSH2 0x430 JUMPI DUP1 PUSH4 0x5CA1E165 EQ PUSH2 0x443 JUMPI PUSH2 0x315 JUMP JUMPDEST DUP1 PUSH4 0x4125FF90 EQ PUSH2 0x3EF JUMPI DUP1 PUSH4 0x4C073481 EQ PUSH2 0x3F7 JUMPI DUP1 PUSH4 0x557A6403 EQ PUSH2 0x40A JUMPI PUSH2 0x315 JUMP JUMPDEST DUP1 PUSH4 0x1B3C85EB GT PUSH2 0x2CD JUMPI DUP1 PUSH4 0x2E3ED05B GT PUSH2 0x2A7 JUMPI DUP1 PUSH4 0x2E3ED05B EQ PUSH2 0x3B6 JUMPI DUP1 PUSH4 0x3BF46797 EQ PUSH2 0x3C9 JUMPI DUP1 PUSH4 0x40E58EE5 EQ PUSH2 0x3DC JUMPI PUSH2 0x315 JUMP JUMPDEST DUP1 PUSH4 0x1B3C85EB EQ PUSH2 0x388 JUMPI DUP1 PUSH4 0x2362716D EQ PUSH2 0x39B JUMPI DUP1 PUSH4 0x2DEBDD2E EQ PUSH2 0x3AE JUMPI PUSH2 0x315 JUMP JUMPDEST DUP1 PUSH4 0x14EA35E7 GT PUSH2 0x2FE JUMPI DUP1 PUSH4 0x14EA35E7 EQ PUSH2 0x358 JUMPI DUP1 PUSH4 0x151B89D1 EQ PUSH2 0x362 JUMPI DUP1 PUSH4 0x169F1468 EQ PUSH2 0x375 JUMPI PUSH2 0x315 JUMP JUMPDEST DUP1 PUSH4 0xDF322A6 EQ PUSH2 0x31A JUMPI DUP1 PUSH4 0x10697A3A EQ PUSH2 0x343 JUMPI JUMPDEST PUSH1 0x0 DUP1 REVERT JUMPDEST PUSH2 0x32D PUSH2 0x328 CALLDATASIZE PUSH1 0x4 PUSH2 0x24B0 JUMP JUMPDEST PUSH2 0x649 JUMP JUMPDEST PUSH1 0x40 MLOAD PUSH2 0x33A SWAP2 SWAP1 PUSH2 0x2AC0 JUMP JUMPDEST PUSH1 0x40 MLOAD DUP1 SWAP2 SUB SWAP1 RETURN JUMPDEST PUSH2 0x34B PUSH2 0x66D JUMP JUMPDEST PUSH1 0x40 MLOAD PUSH2 0x33A SWAP2 SWAP1 PUSH2 0x2ACB JUMP JUMPDEST PUSH2 0x360 PUSH2 0x691 JUMP JUMPDEST STOP JUMPDEST PUSH2 0x34B PUSH2 0x370 CALLDATASIZE PUSH1 0x4 PUSH2 0x2678 JUMP JUMPDEST PUSH2 0x78A JUMP JUMPDEST PUSH2 0x34B PUSH2 0x383 CALLDATASIZE PUSH1 0x4 PUSH2 0x2518 JUMP JUMPDEST PUSH2 0x7BC JUMP JUMPDEST PUSH2 0x360 PUSH2 0x396 CALLDATASIZE PUSH1 0x4 PUSH2 0x24B0 JUMP JUMPDEST PUSH2 0x92B JUMP JUMPDEST PUSH2 0x34B PUSH2 0x3A9 CALLDATASIZE PUSH1 0x4 PUSH2 0x26A8 JUMP JUMPDEST PUSH2 0x97B JUMP JUMPDEST PUSH2 0x34B PUSH2 0x9B1 JUMP JUMPDEST PUSH2 0x34B PUSH2 0x3C4 CALLDATASIZE PUSH1 0x4 PUSH2 0x24CB JUMP JUMPDEST PUSH2 0x9D5 JUMP JUMPDEST PUSH2 0x34B PUSH2 0x3D7 CALLDATASIZE PUSH1 0x4 PUSH2 0x2678 JUMP JUMPDEST PUSH2 0xAA9 JUMP JUMPDEST PUSH2 0x360 PUSH2 0x3EA CALLDATASIZE PUSH1 0x4 PUSH2 0x2678 JUMP JUMPDEST PUSH2 0xABB JUMP JUMPDEST PUSH2 0x34B PUSH2 0xD11 JUMP JUMPDEST PUSH2 0x360 PUSH2 0x405 CALLDATASIZE PUSH1 0x4 PUSH2 0x25C6 JUMP JUMPDEST PUSH2 0xD19 JUMP JUMPDEST PUSH2 0x32D PUSH2 0x418 CALLDATASIZE PUSH1 0x4 PUSH2 0x24B0 JUMP JUMPDEST PUSH2 0xDA4 JUMP JUMPDEST PUSH2 0x34B PUSH2 0x42B CALLDATASIZE PUSH1 0x4 PUSH2 0x27A1 JUMP JUMPDEST PUSH2 0xDC5 JUMP JUMPDEST PUSH2 0x34B PUSH2 0x43E CALLDATASIZE PUSH1 0x4 PUSH2 0x26E5 JUMP JUMPDEST PUSH2 0xDF8 JUMP JUMPDEST PUSH2 0x44B PUSH2 0xED7 JUMP JUMPDEST PUSH1 0x40 MLOAD PUSH2 0x33A SWAP2 SWAP1 PUSH2 0x2958 JUMP JUMPDEST PUSH2 0x44B PUSH2 0xEF3 JUMP JUMPDEST PUSH2 0x473 PUSH2 0x46E CALLDATASIZE PUSH1 0x4 PUSH2 0x2678 JUMP JUMPDEST PUSH2 0xEF9 JUMP JUMPDEST PUSH1 0x40 MLOAD PUSH2 0x33A SWAP2 SWAP1 PUSH2 0x2D29 JUMP JUMPDEST PUSH2 0x44B PUSH2 0x1020 JUMP JUMPDEST PUSH2 0x360 PUSH2 0x496 CALLDATASIZE PUSH1 0x4 PUSH2 0x25C6 JUMP JUMPDEST PUSH2 0x1044 JUMP JUMPDEST PUSH2 0x32D PUSH2 0x4A9 CALLDATASIZE PUSH1 0x4 PUSH2 0x26A8 JUMP JUMPDEST PUSH2 0x10C9 JUMP JUMPDEST PUSH2 0x360 PUSH2 0x4BC CALLDATASIZE PUSH1 0x4 PUSH2 0x274D JUMP JUMPDEST PUSH2 0x10F7 JUMP JUMPDEST PUSH2 0x34B PUSH2 0x115E JUMP JUMPDEST PUSH2 0x360 PUSH2 0x4D7 CALLDATASIZE PUSH1 0x4 PUSH2 0x2621 JUMP JUMPDEST PUSH2 0x1182 JUMP JUMPDEST PUSH2 0x34B PUSH2 0x4EA CALLDATASIZE PUSH1 0x4 PUSH2 0x2806 JUMP JUMPDEST PUSH2 0x11CB JUMP JUMPDEST PUSH2 0x34B PUSH2 0x4FD CALLDATASIZE PUSH1 0x4 PUSH2 0x26E5 JUMP JUMPDEST PUSH2 0x11FE JUMP JUMPDEST PUSH2 0x32D PUSH2 0x510 CALLDATASIZE PUSH1 0x4 PUSH2 0x26A8 JUMP JUMPDEST PUSH2 0x12C2 JUMP JUMPDEST PUSH2 0x44B PUSH2 0x12EF JUMP JUMPDEST PUSH2 0x32D PUSH2 0x52B CALLDATASIZE PUSH1 0x4 PUSH2 0x26A8 JUMP JUMPDEST PUSH2 0x1313 JUMP JUMPDEST PUSH2 0x34B PUSH2 0x1424 JUMP JUMPDEST PUSH2 0x32D PUSH2 0x546 CALLDATASIZE PUSH1 0x4 PUSH2 0x26A8 JUMP JUMPDEST PUSH2 0x142B JUMP JUMPDEST PUSH2 0x34B PUSH2 0x1459 JUMP JUMPDEST PUSH2 0x32D PUSH2 0x561 CALLDATASIZE PUSH1 0x4 PUSH2 0x2678 JUMP JUMPDEST PUSH2 0x147D JUMP JUMPDEST PUSH2 0x360 PUSH2 0x574 CALLDATASIZE PUSH1 0x4 PUSH2 0x274D JUMP JUMPDEST PUSH2 0x14F6 JUMP JUMPDEST PUSH2 0x44B PUSH2 0x1534 JUMP JUMPDEST PUSH2 0x34B PUSH2 0x58F CALLDATASIZE PUSH1 0x4 PUSH2 0x2678 JUMP JUMPDEST PUSH2 0x1550 JUMP JUMPDEST PUSH2 0x34B PUSH2 0x5A2 CALLDATASIZE PUSH1 0x4 PUSH2 0x2678 JUMP JUMPDEST PUSH2 0x157C JUMP JUMPDEST PUSH2 0x32D PUSH2 0x5B5 CALLDATASIZE PUSH1 0x4 PUSH2 0x26A8 JUMP JUMPDEST PUSH2 0x15A8 JUMP JUMPDEST PUSH2 0x32D PUSH2 0x5C8 CALLDATASIZE PUSH1 0x4 PUSH2 0x26A8 JUMP JUMPDEST PUSH2 0x15D6 JUMP JUMPDEST PUSH2 0x34B PUSH2 0x1612 JUMP JUMPDEST PUSH2 0x34B PUSH2 0x5E3 CALLDATASIZE PUSH1 0x4 PUSH2 0x2678 JUMP JUMPDEST PUSH2 0x1636 JUMP JUMPDEST PUSH2 0x34B PUSH2 0x5F6 CALLDATASIZE PUSH1 0x4 PUSH2 0x27C2 JUMP JUMPDEST PUSH2 0x1662 JUMP JUMPDEST PUSH2 0x360 PUSH2 0x609 CALLDATASIZE PUSH1 0x4 PUSH2 0x27A1 JUMP JUMPDEST PUSH2 0x1769 JUMP JUMPDEST PUSH2 0x32D PUSH2 0x61C CALLDATASIZE PUSH1 0x4 PUSH2 0x26A8 JUMP JUMPDEST PUSH2 0x1922 JUMP JUMPDEST PUSH2 0x34B PUSH2 0xEF3 JUMP JUMPDEST PUSH2 0x63C PUSH2 0x637 CALLDATASIZE PUSH1 0x4 PUSH2 0x2678 JUMP JUMPDEST PUSH2 0x1950 JUMP JUMPDEST PUSH1 0x40 MLOAD PUSH2 0x33A SWAP2 SWAP1 PUSH2 0x2B01 JUMP JUMPDEST PUSH1 0x2 SLOAD PUSH20 0xFFFFFFFFFFFFFFFFFFFFFFFFFFFFFFFFFFFFFFFF DUP3 DUP2 AND SWAP2 AND EQ JUMPDEST SWAP2 SWAP1 POP JUMP JUMPDEST PUSH32 0x0 DUP2 JUMP JUMPDEST PUSH1 0x1 SLOAD PUSH1 0x2 SLOAD PUSH20 0xFFFFFFFFFFFFFFFFFFFFFFFFFFFFFFFFFFFFFFFF SWAP2 DUP3 AND SWAP2 AND PUSH2 0x6BF CALLER DUP3 EQ PUSH2 0x191 PUSH2 0x1B67 JUMP JUMPDEST PUSH2 0x6EC PUSH32 0x0 DUP3 PUSH1 0x0 NOT PUSH2 0x1B75 JUMP JUMPDEST PUSH2 0x719 PUSH32 0x0 DUP3 PUSH1 0x0 NOT PUSH2 0x1B75 JUMP JUMPDEST PUSH2 0x746 PUSH32 0x0 DUP4 PUSH1 0x0 NOT PUSH2 0x1BFE JUMP JUMPDEST PUSH2 0x773 PUSH32 0x0 DUP4 PUSH1 0x0 NOT PUSH2 0x1BFE JUMP JUMPDEST PUSH2 0x77C DUP2 PUSH2 0x1C85 JUMP JUMPDEST PUSH2 0x786 PUSH1 0x0 PUSH2 0x1CF4 JUMP JUMPDEST POP POP JUMP JUMPDEST PUSH1 0x0 PUSH2 0x7B6 PUSH32 0x0 DUP4 PUSH2 0xDC5 JUMP JUMPDEST SWAP3 SWAP2 POP POP JUMP JUMPDEST PUSH1 0x0 PUSH20 0xFFFFFFFFFFFFFFFFFFFFFFFFFFFFFFFFFFFFFFFF DUP5 AND ADDRESS EQ ISZERO PUSH2 0x7FD JUMPI PUSH1 0x40 MLOAD PUSH3 0x461BCD PUSH1 0xE5 SHL DUP2 MSTORE PUSH1 0x4 ADD PUSH2 0x7F4 SWAP1 PUSH2 0x2B14 JUMP JUMPDEST PUSH1 0x40 MLOAD DUP1 SWAP2 SUB SWAP1 REVERT JUMPDEST PUSH32 0x0 PUSH20 0xFFFFFFFFFFFFFFFFFFFFFFFFFFFFFFFFFFFFFFFF AND DUP5 PUSH20 0xFFFFFFFFFFFFFFFFFFFFFFFFFFFFFFFFFFFFFFFF AND EQ ISZERO PUSH2 0x869 JUMPI PUSH1 0x40 MLOAD PUSH3 0x461BCD PUSH1 0xE5 SHL DUP2 MSTORE PUSH1 0x4 ADD PUSH2 0x7F4 SWAP1 PUSH2 0x2B71 JUMP JUMPDEST PUSH1 0x0 DUP5 PUSH20 0xFFFFFFFFFFFFFFFFFFFFFFFFFFFFFFFFFFFFFFFF AND PUSH4 0x851C1BB3 PUSH2 0x890 DUP7 PUSH2 0x1D63 JUMP JUMPDEST PUSH1 0x40 MLOAD DUP3 PUSH4 0xFFFFFFFF AND PUSH1 0xE0 SHL DUP2 MSTORE PUSH1 0x4 ADD PUSH2 0x8AC SWAP2 SWAP1 PUSH2 0x2AD4 JUMP JUMPDEST PUSH1 0x20 PUSH1 0x40 MLOAD DUP1 DUP4 SUB DUP2 DUP7 DUP1 EXTCODESIZE ISZERO DUP1 ISZERO PUSH2 0x8C4 JUMPI PUSH1 0x0 DUP1 REVERT JUMPDEST POP GAS STATICCALL ISZERO DUP1 ISZERO PUSH2 0x8D8 JUMPI RETURNDATASIZE PUSH1 0x0 DUP1 RETURNDATACOPY RETURNDATASIZE PUSH1 0x0 REVERT JUMPDEST POP POP POP POP PUSH1 0x40 MLOAD RETURNDATASIZE PUSH1 0x1F NOT PUSH1 0x1F DUP3 ADD AND DUP3 ADD DUP1 PUSH1 0x40 MSTORE POP DUP2 ADD SWAP1 PUSH2 0x8FC SWAP2 SWAP1 PUSH2 0x2690 JUMP JUMPDEST SWAP1 POP PUSH2 0x914 PUSH2 0x90C DUP3 CALLER DUP9 PUSH2 0x15D6 JUMP JUMPDEST PUSH2 0x191 PUSH2 0x1B67 JUMP JUMPDEST PUSH2 0x920 DUP2 DUP7 DUP7 DUP7 PUSH2 0x1E6F JUMP JUMPDEST SWAP2 POP POP JUMPDEST SWAP4 SWAP3 POP POP POP JUMP JUMPDEST PUSH2 0x96F CALLER PUSH20 0xFFFFFFFFFFFFFFFFFFFFFFFFFFFFFFFFFFFFFFFF PUSH32 0x0 AND EQ PUSH2 0x191 PUSH2 0x1B67 JUMP JUMPDEST PUSH2 0x978 DUP2 PUSH2 0x1CF4 JUMP JUMPDEST POP JUMP JUMPDEST PUSH1 0x0 DUP4 DUP4 DUP4 PUSH1 0x40 MLOAD PUSH1 0x20 ADD PUSH2 0x992 SWAP4 SWAP3 SWAP2 SWAP1 PUSH2 0x28DC JUMP JUMPDEST PUSH1 0x40 MLOAD PUSH1 0x20 DUP2 DUP4 SUB SUB DUP2 MSTORE SWAP1 PUSH1 0x40 MSTORE DUP1 MLOAD SWAP1 PUSH1 0x20 ADD KECCAK256 SWAP1 POP SWAP4 SWAP3 POP POP POP JUMP JUMPDEST PUSH32 0x0 DUP2 JUMP JUMPDEST PUSH1 0x0 PUSH2 0x9E3 PUSH2 0x90C CALLER PUSH2 0xDA4 JUMP JUMPDEST PUSH1 0x0 PUSH2 0xA0E PUSH32 0x1B3C85EB00000000000000000000000000000000000000000000000000000000 PUSH2 0x11CB JUMP JUMPDEST SWAP1 POP PUSH1 0x60 PUSH4 0x1B3C85EB PUSH1 0xE0 SHL DUP6 PUSH1 0x40 MLOAD PUSH1 0x24 ADD PUSH2 0xA2B SWAP2 SWAP1 PUSH2 0x2958 JUMP JUMPDEST PUSH1 0x40 DUP1 MLOAD PUSH1 0x1F NOT DUP2 DUP5 SUB ADD DUP2 MSTORE SWAP2 SWAP1 MSTORE PUSH1 0x20 DUP2 ADD DUP1 MLOAD PUSH28 0xFFFFFFFFFFFFFFFFFFFFFFFFFFFFFFFFFFFFFFFFFFFFFFFFFFFFFFFF AND PUSH32 0xFFFFFFFF00000000000000000000000000000000000000000000000000000000 SWAP1 SWAP4 AND SWAP3 SWAP1 SWAP3 OR SWAP1 SWAP2 MSTORE SWAP1 POP PUSH2 0xAA0 DUP3 ADDRESS DUP4 PUSH2 0xA9A PUSH2 0x1459 JUMP JUMPDEST DUP9 PUSH2 0x1EB2 JUMP JUMPDEST SWAP6 SWAP5 POP POP POP POP POP JUMP JUMPDEST PUSH1 0x0 SWAP1 DUP2 MSTORE PUSH1 0x5 PUSH1 0x20 MSTORE PUSH1 0x40 SWAP1 KECCAK256 SLOAD SWAP1 JUMP JUMPDEST PUSH1 0x3 SLOAD DUP2 LT PUSH2 0xADC JUMPI PUSH1 0x40 MLOAD PUSH3 0x461BCD PUSH1 0xE5 SHL DUP2 MSTORE PUSH1 0x4 ADD PUSH2 0x7F4 SWAP1 PUSH2 0x2CBB JUMP JUMPDEST PUSH1 0x0 PUSH1 0x3 DUP3 DUP2 SLOAD DUP2 LT PUSH2 0xAEB JUMPI INVALID JUMPDEST PUSH1 0x0 SWAP2 DUP3 MSTORE PUSH1 0x20 SWAP1 SWAP2 KECCAK256 PUSH1 0x4 SWAP1 SWAP2 MUL ADD PUSH1 0x2 DUP2 ADD SLOAD SWAP1 SWAP2 POP PUSH1 0xFF AND ISZERO PUSH2 0xB23 JUMPI PUSH1 0x40 MLOAD PUSH3 0x461BCD PUSH1 0xE5 SHL DUP2 MSTORE PUSH1 0x4 ADD PUSH2 0x7F4 SWAP1 PUSH2 0x2CF2 JUMP JUMPDEST PUSH1 0x2 DUP2 ADD SLOAD PUSH2 0x100 SWAP1 DIV PUSH1 0xFF AND ISZERO PUSH2 0xB4D JUMPI PUSH1 0x40 MLOAD PUSH3 0x461BCD PUSH1 0xE5 SHL DUP2 MSTORE PUSH1 0x4 ADD PUSH2 0x7F4 SWAP1 PUSH2 0x2C84 JUMP JUMPDEST DUP1 SLOAD PUSH1 0x1 DUP1 DUP4 ADD DUP1 SLOAD PUSH1 0x40 DUP1 MLOAD PUSH1 0x20 PUSH1 0x2 PUSH2 0x100 SWAP7 DUP6 AND ISZERO SWAP7 SWAP1 SWAP7 MUL PUSH1 0x0 NOT ADD SWAP1 SWAP4 AND SWAP5 SWAP1 SWAP5 DIV PUSH1 0x1F DUP2 ADD DUP4 SWAP1 DIV DUP4 MUL DUP6 ADD DUP4 ADD SWAP1 SWAP2 MSTORE DUP1 DUP5 MSTORE PUSH20 0xFFFFFFFFFFFFFFFFFFFFFFFFFFFFFFFFFFFFFFFF SWAP1 SWAP5 AND SWAP4 PUSH1 0x0 SWAP4 DUP6 SWAP4 PUSH4 0x851C1BB3 SWAP4 PUSH2 0xC0B SWAP4 SWAP1 DUP4 ADD DUP3 DUP3 DUP1 ISZERO PUSH2 0xC01 JUMPI DUP1 PUSH1 0x1F LT PUSH2 0xBD6 JUMPI PUSH2 0x100 DUP1 DUP4 SLOAD DIV MUL DUP4 MSTORE SWAP2 PUSH1 0x20 ADD SWAP2 PUSH2 0xC01 JUMP JUMPDEST DUP3 ADD SWAP2 SWAP1 PUSH1 0x0 MSTORE PUSH1 0x20 PUSH1 0x0 KECCAK256 SWAP1 JUMPDEST DUP2 SLOAD DUP2 MSTORE SWAP1 PUSH1 0x1 ADD SWAP1 PUSH1 0x20 ADD DUP1 DUP4 GT PUSH2 0xBE4 JUMPI DUP3 SWAP1 SUB PUSH1 0x1F AND DUP3 ADD SWAP2 JUMPDEST POP POP POP POP POP PUSH2 0x1D63 JUMP JUMPDEST PUSH1 0x40 MLOAD DUP3 PUSH4 0xFFFFFFFF AND PUSH1 0xE0 SHL DUP2 MSTORE PUSH1 0x4 ADD PUSH2 0xC27 SWAP2 SWAP1 PUSH2 0x2AD4 JUMP JUMPDEST PUSH1 0x20 PUSH1 0x40 MLOAD DUP1 DUP4 SUB DUP2 DUP7 DUP1 EXTCODESIZE ISZERO DUP1 ISZERO PUSH2 0xC3F JUMPI PUSH1 0x0 DUP1 REVERT JUMPDEST POP GAS STATICCALL ISZERO DUP1 ISZERO PUSH2 0xC53 JUMPI RETURNDATASIZE PUSH1 0x0 DUP1 RETURNDATACOPY RETURNDATASIZE PUSH1 0x0 REVERT JUMPDEST POP POP POP POP PUSH1 0x40 MLOAD RETURNDATASIZE PUSH1 0x1F NOT PUSH1 0x1F DUP3 ADD AND DUP3 ADD DUP1 PUSH1 0x40 MSTORE POP DUP2 ADD SWAP1 PUSH2 0xC77 SWAP2 SWAP1 PUSH2 0x2690 JUMP JUMPDEST DUP4 SLOAD SWAP1 SWAP2 POP PUSH2 0xCB2 SWAP1 PUSH2 0xCA3 SWAP1 DUP4 SWAP1 CALLER SWAP1 PUSH20 0xFFFFFFFFFFFFFFFFFFFFFFFFFFFFFFFFFFFFFFFF AND PUSH2 0x15D6 JUMP JUMPDEST DUP1 PUSH2 0x90C JUMPI POP PUSH2 0x90C CALLER PUSH2 0xDA4 JUMP JUMPDEST PUSH1 0x2 DUP4 ADD DUP1 SLOAD PUSH32 0xFFFFFFFFFFFFFFFFFFFFFFFFFFFFFFFFFFFFFFFFFFFFFFFFFFFFFFFFFFFF00FF AND PUSH2 0x100 OR SWAP1 SSTORE PUSH1 0x40 MLOAD DUP5 SWAP1 PUSH32 0x2A6BEF66DE603FC0EC07223576486BD905CD9BB6E05364286D9A5CD1BE046AE6 SWAP1 PUSH1 0x0 SWAP1 LOG2 POP POP POP POP JUMP JUMPDEST PUSH4 0x3C26700 DUP2 JUMP JUMPDEST PUSH2 0xD25 DUP4 MLOAD DUP3 MLOAD PUSH2 0x20A6 JUMP JUMPDEST PUSH1 0x0 JUMPDEST DUP4 MLOAD DUP2 LT ISZERO PUSH2 0xD9E JUMPI PUSH2 0xD65 PUSH2 0x90C DUP6 DUP4 DUP2 MLOAD DUP2 LT PUSH2 0xD43 JUMPI INVALID JUMPDEST PUSH1 0x20 MUL PUSH1 0x20 ADD ADD MLOAD CALLER DUP6 DUP6 DUP2 MLOAD DUP2 LT PUSH2 0xD58 JUMPI INVALID JUMPDEST PUSH1 0x20 MUL PUSH1 0x20 ADD ADD MLOAD PUSH2 0x10C9 JUMP JUMPDEST PUSH2 0xD96 DUP5 DUP3 DUP2 MLOAD DUP2 LT PUSH2 0xD74 JUMPI INVALID JUMPDEST PUSH1 0x20 MUL PUSH1 0x20 ADD ADD MLOAD DUP5 DUP5 DUP5 DUP2 MLOAD DUP2 LT PUSH2 0xD89 JUMPI INVALID JUMPDEST PUSH1 0x20 MUL PUSH1 0x20 ADD ADD MLOAD PUSH2 0x1BFE JUMP JUMPDEST PUSH1 0x1 ADD PUSH2 0xD28 JUMP JUMPDEST POP POP POP POP JUMP JUMPDEST PUSH1 0x1 SLOAD PUSH20 0xFFFFFFFFFFFFFFFFFFFFFFFFFFFFFFFFFFFFFFFF SWAP1 DUP2 AND SWAP2 AND EQ SWAP1 JUMP JUMPDEST PUSH1 0x0 DUP3 DUP3 PUSH1 0x40 MLOAD PUSH1 0x20 ADD PUSH2 0xDDA SWAP3 SWAP2 SWAP1 PUSH2 0x291A JUMP JUMPDEST PUSH1 0x40 MLOAD PUSH1 0x20 DUP2 DUP4 SUB SUB DUP2 MSTORE SWAP1 PUSH1 0x40 MSTORE DUP1 MLOAD SWAP1 PUSH1 0x20 ADD KECCAK256 SWAP1 POP SWAP3 SWAP2 POP POP JUMP JUMPDEST PUSH1 0x0 PUSH2 0xE08 PUSH2 0x90C DUP7 CALLER DUP7 PUSH2 0x1922 JUMP JUMPDEST PUSH1 0x60 PUSH32 0x4C07348100000000000000000000000000000000000000000000000000000000 PUSH2 0xE34 DUP8 PUSH2 0x20B3 JUMP JUMPDEST DUP7 PUSH2 0xE3E DUP8 PUSH2 0x20F4 JUMP JUMPDEST PUSH1 0x40 MLOAD PUSH1 0x24 ADD PUSH2 0xE50 SWAP4 SWAP3 SWAP2 SWAP1 PUSH2 0x2A21 JUMP JUMPDEST PUSH1 0x40 DUP1 MLOAD PUSH1 0x1F NOT DUP2 DUP5 SUB ADD DUP2 MSTORE SWAP2 SWAP1 MSTORE PUSH1 0x20 DUP2 ADD DUP1 MLOAD PUSH28 0xFFFFFFFFFFFFFFFFFFFFFFFFFFFFFFFFFFFFFFFFFFFFFFFFFFFFFFFF AND PUSH32 0xFFFFFFFF00000000000000000000000000000000000000000000000000000000 SWAP1 SWAP4 AND SWAP3 SWAP1 SWAP3 OR SWAP1 SWAP2 MSTORE SWAP1 POP PUSH1 0x0 PUSH2 0xEBC DUP8 PUSH2 0x1636 JUMP JUMPDEST SWAP1 POP PUSH2 0xECA DUP2 ADDRESS DUP5 DUP8 PUSH2 0x1E6F JUMP JUMPDEST SWAP3 POP POP POP JUMPDEST SWAP5 SWAP4 POP POP POP POP JUMP JUMPDEST PUSH1 0x1 SLOAD PUSH20 0xFFFFFFFFFFFFFFFFFFFFFFFFFFFFFFFFFFFFFFFF AND SWAP1 JUMP JUMPDEST PUSH1 0x0 NOT DUP2 JUMP JUMPDEST PUSH2 0xF01 PUSH2 0x22EF JUMP JUMPDEST PUSH1 0x3 DUP3 DUP2 SLOAD DUP2 LT PUSH2 0xF0E JUMPI INVALID JUMPDEST PUSH1 0x0 SWAP2 DUP3 MSTORE PUSH1 0x20 SWAP2 DUP3 SWAP1 KECCAK256 PUSH1 0x40 DUP1 MLOAD PUSH1 0xC0 DUP2 ADD DUP3 MSTORE PUSH1 0x4 SWAP1 SWAP4 MUL SWAP1 SWAP2 ADD DUP1 SLOAD PUSH20 0xFFFFFFFFFFFFFFFFFFFFFFFFFFFFFFFFFFFFFFFF AND DUP4 MSTORE PUSH1 0x1 DUP1 DUP3 ADD DUP1 SLOAD DUP5 MLOAD PUSH1 0x1F PUSH1 0x2 PUSH1 0x0 NOT SWAP6 DUP5 AND ISZERO PUSH2 0x100 MUL SWAP6 SWAP1 SWAP6 ADD SWAP1 SWAP3 AND SWAP4 SWAP1 SWAP4 DIV SWAP1 DUP2 ADD DUP8 SWAP1 DIV DUP8 MUL DUP4 ADD DUP8 ADD SWAP1 SWAP5 MSTORE DUP4 DUP3 MSTORE SWAP4 SWAP5 SWAP2 SWAP4 DUP6 DUP4 ADD SWAP4 SWAP2 SWAP3 SWAP1 SWAP2 SWAP1 DUP4 ADD DUP3 DUP3 DUP1 ISZERO PUSH2 0xFD8 JUMPI DUP1 PUSH1 0x1F LT PUSH2 0xFAD JUMPI PUSH2 0x100 DUP1 DUP4 SLOAD DIV MUL DUP4 MSTORE SWAP2 PUSH1 0x20 ADD SWAP2 PUSH2 0xFD8 JUMP JUMPDEST DUP3 ADD SWAP2 SWAP1 PUSH1 0x0 MSTORE PUSH1 0x20 PUSH1 0x0 KECCAK256 SWAP1 JUMPDEST DUP2 SLOAD DUP2 MSTORE SWAP1 PUSH1 0x1 ADD SWAP1 PUSH1 0x20 ADD DUP1 DUP4 GT PUSH2 0xFBB JUMPI DUP3 SWAP1 SUB PUSH1 0x1F AND DUP3 ADD SWAP2 JUMPDEST POP POP POP SWAP2 DUP4 MSTORE POP POP PUSH1 0x2 DUP3 ADD SLOAD PUSH1 0xFF DUP1 DUP3 AND ISZERO ISZERO PUSH1 0x20 DUP5 ADD MSTORE PUSH2 0x100 DUP3 DIV DUP2 AND ISZERO ISZERO PUSH1 0x40 DUP5 ADD MSTORE PUSH3 0x10000 SWAP1 SWAP2 DIV AND ISZERO ISZERO PUSH1 0x60 DUP3 ADD MSTORE PUSH1 0x3 SWAP1 SWAP2 ADD SLOAD PUSH1 0x80 SWAP1 SWAP2 ADD MSTORE SWAP3 SWAP2 POP POP JUMP JUMPDEST PUSH32 0x0 SWAP1 JUMP JUMPDEST PUSH2 0x1050 DUP4 MLOAD DUP3 MLOAD PUSH2 0x20A6 JUMP JUMPDEST PUSH1 0x0 JUMPDEST DUP4 MLOAD DUP2 LT ISZERO PUSH2 0xD9E JUMPI PUSH2 0x1090 PUSH2 0x90C DUP6 DUP4 DUP2 MLOAD DUP2 LT PUSH2 0x106E JUMPI INVALID JUMPDEST PUSH1 0x20 MUL PUSH1 0x20 ADD ADD MLOAD CALLER DUP6 DUP6 DUP2 MLOAD DUP2 LT PUSH2 0x1083 JUMPI INVALID JUMPDEST PUSH1 0x20 MUL PUSH1 0x20 ADD ADD MLOAD PUSH2 0x15A8 JUMP JUMPDEST PUSH2 0x10C1 DUP5 DUP3 DUP2 MLOAD DUP2 LT PUSH2 0x109F JUMPI INVALID JUMPDEST PUSH1 0x20 MUL PUSH1 0x20 ADD ADD MLOAD DUP5 DUP5 DUP5 DUP2 MLOAD DUP2 LT PUSH2 0x10B4 JUMPI INVALID JUMPDEST PUSH1 0x20 MUL PUSH1 0x20 ADD ADD MLOAD PUSH2 0x1B75 JUMP JUMPDEST PUSH1 0x1 ADD PUSH2 0x1053 JUMP JUMPDEST PUSH1 0x0 PUSH2 0xECF PUSH32 0x0 DUP5 DUP5 DUP8 PUSH2 0x2163 JUMP JUMPDEST PUSH1 0x0 PUSH2 0x1102 CALLER PUSH2 0xDA4 JUMP JUMPDEST DUP1 PUSH2 0x111C JUMPI POP DUP2 ISZERO DUP1 ISZERO PUSH2 0x111C JUMPI POP PUSH2 0x111C DUP6 CALLER DUP6 PUSH2 0x142B JUMP JUMPDEST SWAP1 POP PUSH2 0x112A DUP2 PUSH2 0x191 PUSH2 0x1B67 JUMP JUMPDEST PUSH1 0x0 PUSH2 0x1135 DUP7 PUSH2 0x78A JUMP JUMPDEST SWAP1 POP PUSH2 0x1156 DUP2 DUP7 DUP7 DUP7 PUSH2 0x114A JUMPI PUSH2 0x1BFE PUSH2 0x114E JUMP JUMPDEST PUSH2 0x1B75 JUMPDEST PUSH4 0xFFFFFFFF AND JUMP JUMPDEST POP POP POP POP POP POP JUMP JUMPDEST PUSH32 0x0 DUP2 JUMP JUMPDEST PUSH2 0x118E DUP3 MLOAD DUP3 MLOAD PUSH2 0x20A6 JUMP JUMPDEST PUSH1 0x0 JUMPDEST DUP3 MLOAD DUP2 LT ISZERO PUSH2 0x11C6 JUMPI PUSH2 0x11BE DUP4 DUP3 DUP2 MLOAD DUP2 LT PUSH2 0x11A9 JUMPI INVALID JUMPDEST PUSH1 0x20 MUL PUSH1 0x20 ADD ADD MLOAD CALLER DUP5 DUP5 DUP2 MLOAD DUP2 LT PUSH2 0xD89 JUMPI INVALID JUMPDEST PUSH1 0x1 ADD PUSH2 0x1191 JUMP JUMPDEST POP POP POP JUMP JUMPDEST PUSH1 0x40 MLOAD PUSH1 0x0 SWAP1 PUSH2 0x11E1 SWAP1 ADDRESS SWAP1 DUP5 SWAP1 PUSH1 0x20 ADD PUSH2 0x2928 JUMP JUMPDEST PUSH1 0x40 MLOAD PUSH1 0x20 DUP2 DUP4 SUB SUB DUP2 MSTORE SWAP1 PUSH1 0x40 MSTORE DUP1 MLOAD SWAP1 PUSH1 0x20 ADD KECCAK256 SWAP1 POP SWAP2 SWAP1 POP JUMP JUMPDEST PUSH1 0x0 PUSH2 0x120E PUSH2 0x90C DUP7 CALLER DUP7 PUSH2 0x142B JUMP JUMPDEST PUSH1 0x60 PUSH32 0x6F8BC59600000000000000000000000000000000000000000000000000000000 PUSH2 0x123A DUP8 PUSH2 0x20B3 JUMP JUMPDEST DUP7 PUSH2 0x1244 DUP8 PUSH2 0x20F4 JUMP JUMPDEST PUSH1 0x40 MLOAD PUSH1 0x24 ADD PUSH2 0x1256 SWAP4 SWAP3 SWAP2 SWAP1 PUSH2 0x2A21 JUMP JUMPDEST PUSH1 0x40 DUP1 MLOAD PUSH1 0x1F NOT DUP2 DUP5 SUB ADD DUP2 MSTORE SWAP2 SWAP1 MSTORE PUSH1 0x20 DUP2 ADD DUP1 MLOAD PUSH28 0xFFFFFFFFFFFFFFFFFFFFFFFFFFFFFFFFFFFFFFFFFFFFFFFFFFFFFFFF AND PUSH32 0xFFFFFFFF00000000000000000000000000000000000000000000000000000000 SWAP1 SWAP4 AND SWAP3 SWAP1 SWAP3 OR SWAP1 SWAP2 MSTORE SWAP1 POP PUSH1 0x0 PUSH2 0xEBC DUP8 PUSH2 0x78A JUMP JUMPDEST PUSH1 0x0 PUSH1 0x4 PUSH1 0x0 PUSH2 0x12D3 DUP7 DUP7 DUP7 PUSH2 0x97B JUMP JUMPDEST DUP2 MSTORE PUSH1 0x20 DUP2 ADD SWAP2 SWAP1 SWAP2 MSTORE PUSH1 0x40 ADD PUSH1 0x0 KECCAK256 SLOAD PUSH1 0xFF AND SWAP5 SWAP4 POP POP POP POP JUMP JUMPDEST PUSH32 0x0 SWAP1 JUMP JUMPDEST PUSH1 0x0 CALLER PUSH20 0xFFFFFFFFFFFFFFFFFFFFFFFFFFFFFFFFFFFFFFFF PUSH32 0x0 AND EQ ISZERO PUSH2 0x13A9 JUMPI PUSH32 0x0 PUSH20 0xFFFFFFFFFFFFFFFFFFFFFFFFFFFFFFFFFFFFFFFF AND DUP4 PUSH20 0xFFFFFFFFFFFFFFFFFFFFFFFFFFFFFFFFFFFFFFFF AND EQ SWAP1 POP PUSH2 0x924 JUMP JUMPDEST PUSH1 0x0 DUP5 DUP2 MSTORE PUSH1 0x5 PUSH1 0x20 MSTORE PUSH1 0x40 SWAP1 KECCAK256 SLOAD PUSH2 0x13CC JUMPI PUSH2 0x13C7 DUP5 DUP5 DUP5 PUSH2 0x15D6 JUMP JUMPDEST PUSH2 0xECF JUMP JUMPDEST PUSH32 0x0 PUSH20 0xFFFFFFFFFFFFFFFFFFFFFFFFFFFFFFFFFFFFFFFF AND DUP4 PUSH20 0xFFFFFFFFFFFFFFFFFFFFFFFFFFFFFFFFFFFFFFFF AND EQ SWAP1 POP SWAP4 SWAP3 POP POP POP JUMP JUMPDEST PUSH3 0x69780 DUP2 JUMP JUMPDEST PUSH1 0x0 PUSH2 0xECF PUSH32 0x0 DUP5 DUP5 DUP8 PUSH2 0x2213 JUMP JUMPDEST PUSH32 0x0 SWAP1 JUMP JUMPDEST PUSH1 0x3 SLOAD PUSH1 0x0 SWAP1 DUP3 LT PUSH2 0x14A1 JUMPI PUSH1 0x40 MLOAD PUSH3 0x461BCD PUSH1 0xE5 SHL DUP2 MSTORE PUSH1 0x4 ADD PUSH2 0x7F4 SWAP1 PUSH2 0x2CBB JUMP JUMPDEST PUSH1 0x0 PUSH1 0x3 DUP4 DUP2 SLOAD DUP2 LT PUSH2 0x14B0 JUMPI INVALID JUMPDEST PUSH1 0x0 SWAP2 DUP3 MSTORE PUSH1 0x20 SWAP1 SWAP2 KECCAK256 PUSH1 0x4 SWAP1 SWAP2 MUL ADD PUSH1 0x2 DUP2 ADD SLOAD SWAP1 SWAP2 POP PUSH1 0xFF AND ISZERO DUP1 ISZERO PUSH2 0x14E2 JUMPI POP PUSH1 0x2 DUP2 ADD SLOAD PUSH2 0x100 SWAP1 DIV PUSH1 0xFF AND ISZERO JUMPDEST DUP1 ISZERO PUSH2 0x924 JUMPI POP PUSH1 0x3 ADD SLOAD TIMESTAMP LT ISZERO SWAP3 SWAP2 POP POP JUMP JUMPDEST PUSH1 0x0 PUSH2 0x1501 CALLER PUSH2 0xDA4 JUMP JUMPDEST DUP1 PUSH2 0x151B JUMPI POP DUP2 ISZERO DUP1 ISZERO PUSH2 0x151B JUMPI POP PUSH2 0x151B DUP6 CALLER DUP6 PUSH2 0x1922 JUMP JUMPDEST SWAP1 POP PUSH2 0x1529 DUP2 PUSH2 0x191 PUSH2 0x1B67 JUMP JUMPDEST PUSH1 0x0 PUSH2 0x1135 DUP7 PUSH2 0x1636 JUMP JUMPDEST PUSH1 0x2 SLOAD PUSH20 0xFFFFFFFFFFFFFFFFFFFFFFFFFFFFFFFFFFFFFFFF AND SWAP1 JUMP JUMPDEST PUSH1 0x0 PUSH2 0x7B6 PUSH32 0x0 DUP4 PUSH2 0xDC5 JUMP JUMPDEST PUSH1 0x0 PUSH2 0x7B6 PUSH32 0x0 DUP4 PUSH2 0xDC5 JUMP JUMPDEST PUSH1 0x0 PUSH2 0xECF PUSH32 0x0 DUP5 DUP5 DUP8 PUSH2 0x2163 JUMP JUMPDEST PUSH1 0x0 PUSH1 0x4 PUSH1 0x0 PUSH2 0x15E7 DUP7 DUP7 DUP7 PUSH2 0x97B JUMP JUMPDEST DUP2 MSTORE PUSH1 0x20 DUP2 ADD SWAP2 SWAP1 SWAP2 MSTORE PUSH1 0x40 ADD PUSH1 0x0 KECCAK256 SLOAD PUSH1 0xFF AND DUP1 PUSH2 0xECF JUMPI POP PUSH1 0x4 PUSH1 0x0 PUSH2 0x12D3 DUP7 DUP7 PUSH1 0x0 NOT PUSH2 0x97B JUMP JUMPDEST PUSH32 0x0 DUP2 JUMP JUMPDEST PUSH1 0x0 PUSH2 0x7B6 PUSH32 0x0 DUP4 PUSH2 0xDC5 JUMP JUMPDEST PUSH1 0x0 PUSH4 0x3C26700 DUP4 GT ISZERO PUSH2 0x1688 JUMPI PUSH1 0x40 MLOAD PUSH3 0x461BCD PUSH1 0xE5 SHL DUP2 MSTORE PUSH1 0x4 ADD PUSH2 0x7F4 SWAP1 PUSH2 0x2C16 JUMP JUMPDEST PUSH2 0x1694 PUSH2 0x90C CALLER PUSH2 0xDA4 JUMP JUMPDEST PUSH1 0x0 DUP5 DUP2 MSTORE PUSH1 0x5 PUSH1 0x20 MSTORE PUSH1 0x40 DUP2 KECCAK256 SLOAD SWAP1 DUP2 DUP6 LT PUSH2 0x16B4 JUMPI PUSH3 0x69780 PUSH2 0x16C3 JUMP JUMPDEST PUSH2 0x16C3 DUP6 DUP4 SUB PUSH3 0x69780 PUSH2 0x224E JUMP JUMPDEST SWAP1 POP PUSH1 0x0 PUSH2 0x16D0 DUP8 PUSH2 0x157C JUMP JUMPDEST SWAP1 POP PUSH1 0x60 PUSH4 0xF0BB9406 PUSH1 0xE0 SHL DUP9 DUP9 PUSH1 0x40 MLOAD PUSH1 0x24 ADD PUSH2 0x16EF SWAP3 SWAP2 SWAP1 PUSH2 0x291A JUMP JUMPDEST PUSH1 0x40 DUP1 MLOAD PUSH1 0x1F NOT DUP2 DUP5 SUB ADD DUP2 MSTORE SWAP2 SWAP1 MSTORE PUSH1 0x20 DUP2 ADD DUP1 MLOAD PUSH28 0xFFFFFFFFFFFFFFFFFFFFFFFFFFFFFFFFFFFFFFFFFFFFFFFFFFFFFFFF AND PUSH32 0xFFFFFFFF00000000000000000000000000000000000000000000000000000000 SWAP1 SWAP4 AND SWAP3 SWAP1 SWAP3 OR SWAP1 SWAP2 MSTORE SWAP1 POP PUSH2 0x175D DUP3 ADDRESS DUP4 DUP7 DUP11 PUSH2 0x1EB2 JUMP JUMPDEST SWAP9 SWAP8 POP POP POP POP POP POP POP POP JUMP JUMPDEST PUSH2 0x17AD CALLER PUSH20 0xFFFFFFFFFFFFFFFFFFFFFFFFFFFFFFFFFFFFFFFF PUSH32 0x0 AND EQ PUSH2 0x191 PUSH2 0x1B67 JUMP JUMPDEST PUSH1 0x40 MLOAD PUSH32 0x851C1BB300000000000000000000000000000000000000000000000000000000 DUP2 MSTORE PUSH1 0x0 SWAP1 PUSH20 0xFFFFFFFFFFFFFFFFFFFFFFFFFFFFFFFFFFFFFFFF PUSH32 0x0 AND SWAP1 PUSH4 0x851C1BB3 SWAP1 PUSH2 0x1842 SWAP1 PUSH32 0x58A628F00000000000000000000000000000000000000000000000000000000 SWAP1 PUSH1 0x4 ADD PUSH2 0x2AD4 JUMP JUMPDEST PUSH1 0x20 PUSH1 0x40 MLOAD DUP1 DUP4 SUB DUP2 DUP7 DUP1 EXTCODESIZE ISZERO DUP1 ISZERO PUSH2 0x185A JUMPI PUSH1 0x0 DUP1 REVERT JUMPDEST POP GAS STATICCALL ISZERO DUP1 ISZERO PUSH2 0x186E JUMPI RETURNDATASIZE PUSH1 0x0 DUP1 RETURNDATACOPY RETURNDATASIZE PUSH1 0x0 REVERT JUMPDEST POP POP POP POP PUSH1 0x40 MLOAD RETURNDATASIZE PUSH1 0x1F NOT PUSH1 0x1F DUP3 ADD AND DUP3 ADD DUP1 PUSH1 0x40 MSTORE POP DUP2 ADD SWAP1 PUSH2 0x1892 SWAP2 SWAP1 PUSH2 0x2690 JUMP JUMPDEST SWAP1 POP PUSH1 0x0 DUP2 DUP5 EQ DUP1 PUSH2 0x18B2 JUMPI POP PUSH1 0x0 DUP3 DUP2 MSTORE PUSH1 0x5 PUSH1 0x20 MSTORE PUSH1 0x40 SWAP1 KECCAK256 SLOAD DUP4 GT ISZERO JUMPDEST SWAP1 POP DUP1 PUSH2 0x18D1 JUMPI PUSH1 0x40 MLOAD PUSH3 0x461BCD PUSH1 0xE5 SHL DUP2 MSTORE PUSH1 0x4 ADD PUSH2 0x7F4 SWAP1 PUSH2 0x2BA8 JUMP JUMPDEST PUSH1 0x0 DUP5 DUP2 MSTORE PUSH1 0x5 PUSH1 0x20 MSTORE PUSH1 0x40 SWAP1 DUP2 SWAP1 KECCAK256 DUP5 SWAP1 SSTORE MLOAD DUP5 SWAP1 PUSH32 0xE182617F9E5F9CE5F761C791EC15AD52176D97F9706B5C2707FFDA7B6BDF790 SWAP1 PUSH2 0x1914 SWAP1 DUP7 SWAP1 PUSH2 0x2ACB JUMP JUMPDEST PUSH1 0x40 MLOAD DUP1 SWAP2 SUB SWAP1 LOG2 POP POP POP POP JUMP JUMPDEST PUSH1 0x0 PUSH2 0xECF PUSH32 0x0 DUP5 DUP5 DUP8 PUSH2 0x2213 JUMP JUMPDEST PUSH1 0x60 PUSH2 0x195A PUSH2 0x225A JUMP JUMPDEST PUSH1 0x3 SLOAD DUP3 LT PUSH2 0x197B JUMPI PUSH1 0x40 MLOAD PUSH3 0x461BCD PUSH1 0xE5 SHL DUP2 MSTORE PUSH1 0x4 ADD PUSH2 0x7F4 SWAP1 PUSH2 0x2CBB JUMP JUMPDEST PUSH1 0x0 PUSH1 0x3 DUP4 DUP2 SLOAD DUP2 LT PUSH2 0x198A JUMPI INVALID JUMPDEST PUSH1 0x0 SWAP2 DUP3 MSTORE PUSH1 0x20 SWAP1 SWAP2 KECCAK256 PUSH1 0x4 SWAP1 SWAP2 MUL ADD PUSH1 0x2 DUP2 ADD SLOAD SWAP1 SWAP2 POP PUSH1 0xFF AND ISZERO PUSH2 0x19C2 JUMPI PUSH1 0x40 MLOAD PUSH3 0x461BCD PUSH1 0xE5 SHL DUP2 MSTORE PUSH1 0x4 ADD PUSH2 0x7F4 SWAP1 PUSH2 0x2CF2 JUMP JUMPDEST PUSH1 0x2 DUP2 ADD SLOAD PUSH2 0x100 SWAP1 DIV PUSH1 0xFF AND ISZERO PUSH2 0x19EC JUMPI PUSH1 0x40 MLOAD PUSH3 0x461BCD PUSH1 0xE5 SHL DUP2 MSTORE PUSH1 0x4 ADD PUSH2 0x7F4 SWAP1 PUSH2 0x2C84 JUMP JUMPDEST DUP1 PUSH1 0x3 ADD SLOAD TIMESTAMP LT ISZERO PUSH2 0x1A10 JUMPI PUSH1 0x40 MLOAD PUSH3 0x461BCD PUSH1 0xE5 SHL DUP2 MSTORE PUSH1 0x4 ADD PUSH2 0x7F4 SWAP1 PUSH2 0x2BDF JUMP JUMPDEST PUSH1 0x2 DUP2 ADD SLOAD PUSH3 0x10000 SWAP1 DIV PUSH1 0xFF AND ISZERO PUSH2 0x1A4E JUMPI PUSH1 0x0 PUSH2 0x1A2E DUP5 PUSH2 0x1550 JUMP JUMPDEST SWAP1 POP PUSH1 0x0 PUSH2 0x1A3D DUP3 CALLER ADDRESS PUSH2 0x15D6 JUMP JUMPDEST SWAP1 POP PUSH2 0x1A4B DUP2 PUSH2 0x191 PUSH2 0x1B67 JUMP JUMPDEST POP POP JUMPDEST PUSH1 0x2 DUP2 ADD DUP1 SLOAD PUSH1 0xFF NOT AND PUSH1 0x1 SWAP1 DUP2 OR SWAP1 SWAP2 SSTORE DUP2 SLOAD PUSH1 0x40 MLOAD PUSH32 0x1CFF79CD00000000000000000000000000000000000000000000000000000000 DUP2 MSTORE PUSH20 0xFFFFFFFFFFFFFFFFFFFFFFFFFFFFFFFFFFFFFFFF PUSH32 0x0 DUP2 AND SWAP4 PUSH4 0x1CFF79CD SWAP4 PUSH2 0x1ADA SWAP4 SWAP3 AND SWAP2 SWAP1 DUP7 ADD SWAP1 PUSH1 0x4 ADD PUSH2 0x2979 JUMP JUMPDEST PUSH1 0x0 PUSH1 0x40 MLOAD DUP1 DUP4 SUB DUP2 PUSH1 0x0 DUP8 DUP1 EXTCODESIZE ISZERO DUP1 ISZERO PUSH2 0x1AF4 JUMPI PUSH1 0x0 DUP1 REVERT JUMPDEST POP GAS CALL ISZERO DUP1 ISZERO PUSH2 0x1B08 JUMPI RETURNDATASIZE PUSH1 0x0 DUP1 RETURNDATACOPY RETURNDATASIZE PUSH1 0x0 REVERT JUMPDEST POP POP POP POP PUSH1 0x40 MLOAD RETURNDATASIZE PUSH1 0x0 DUP3 RETURNDATACOPY PUSH1 0x1F RETURNDATASIZE SWAP1 DUP2 ADD PUSH1 0x1F NOT AND DUP3 ADD PUSH1 0x40 MSTORE PUSH2 0x1B30 SWAP2 SWAP1 DUP2 ADD SWAP1 PUSH2 0x2846 JUMP JUMPDEST PUSH1 0x40 MLOAD SWAP1 SWAP3 POP DUP4 SWAP1 PUSH32 0x4FA5548C15E2D4A0B806EEE962935ACEA143D79644D2340AF39F4EDF13B335A9 SWAP1 PUSH1 0x0 SWAP1 LOG2 POP PUSH2 0x668 PUSH2 0x2273 JUMP JUMPDEST DUP2 PUSH2 0x786 JUMPI PUSH2 0x786 DUP2 PUSH2 0x227A JUMP JUMPDEST PUSH1 0x0 PUSH2 0x1B82 DUP5 DUP5 DUP5 PUSH2 0x97B JUMP JUMPDEST PUSH1 0x0 DUP2 DUP2 MSTORE PUSH1 0x4 PUSH1 0x20 MSTORE PUSH1 0x40 SWAP1 KECCAK256 SLOAD SWAP1 SWAP2 POP PUSH1 0xFF AND PUSH2 0xD9E JUMPI PUSH1 0x0 DUP2 DUP2 MSTORE PUSH1 0x4 PUSH1 0x20 MSTORE PUSH1 0x40 DUP1 DUP3 KECCAK256 DUP1 SLOAD PUSH1 0xFF NOT AND PUSH1 0x1 OR SWAP1 SSTORE MLOAD PUSH20 0xFFFFFFFFFFFFFFFFFFFFFFFFFFFFFFFFFFFFFFFF DUP1 DUP6 AND SWAP3 SWAP1 DUP7 AND SWAP2 DUP8 SWAP2 PUSH32 0xEF6EE312A0062A24A46BE2EBA5284183A87FF848110E8D4DF979BD690D9E9F68 SWAP2 LOG4 POP POP POP POP JUMP JUMPDEST PUSH1 0x0 PUSH2 0x1C0B DUP5 DUP5 DUP5 PUSH2 0x97B JUMP JUMPDEST PUSH1 0x0 DUP2 DUP2 MSTORE PUSH1 0x4 PUSH1 0x20 MSTORE PUSH1 0x40 SWAP1 KECCAK256 SLOAD SWAP1 SWAP2 POP PUSH1 0xFF AND ISZERO PUSH2 0xD9E JUMPI PUSH1 0x0 DUP2 DUP2 MSTORE PUSH1 0x4 PUSH1 0x20 MSTORE PUSH1 0x40 DUP1 DUP3 KECCAK256 DUP1 SLOAD PUSH1 0xFF NOT AND SWAP1 SSTORE MLOAD PUSH20 0xFFFFFFFFFFFFFFFFFFFFFFFFFFFFFFFFFFFFFFFF DUP1 DUP6 AND SWAP3 SWAP1 DUP7 AND SWAP2 DUP8 SWAP2 PUSH32 0x7B42E026D3B17CF41399915C285780D0F724B3464B269297AFF73C0DE0FE417F SWAP2 LOG4 POP POP POP POP JUMP JUMPDEST PUSH1 0x1 DUP1 SLOAD PUSH32 0xFFFFFFFFFFFFFFFFFFFFFFFF0000000000000000000000000000000000000000 AND PUSH20 0xFFFFFFFFFFFFFFFFFFFFFFFFFFFFFFFFFFFFFFFF DUP4 AND SWAP1 DUP2 OR SWAP1 SWAP2 SSTORE PUSH1 0x40 MLOAD PUSH32 0x39510B933A9D010F906528D6019D3F4E2450A10DC33B10887503B31ED82F1111 SWAP1 PUSH1 0x0 SWAP1 LOG2 POP JUMP JUMPDEST PUSH1 0x2 DUP1 SLOAD PUSH32 0xFFFFFFFFFFFFFFFFFFFFFFFF0000000000000000000000000000000000000000 AND PUSH20 0xFFFFFFFFFFFFFFFFFFFFFFFFFFFFFFFFFFFFFFFF DUP4 AND SWAP1 DUP2 OR SWAP1 SWAP2 SSTORE PUSH1 0x40 MLOAD PUSH32 0x566FE119FF450AFC2580186C62762B6C1258245C8B1B6BB095E7276EB5A75B55 SWAP1 PUSH1 0x0 SWAP1 LOG2 POP JUMP JUMPDEST PUSH1 0x0 PUSH1 0x4 DUP3 MLOAD LT ISZERO PUSH2 0x1D77 JUMPI POP PUSH1 0x0 PUSH2 0x668 JUMP JUMPDEST PUSH1 0x18 DUP3 PUSH1 0x3 DUP2 MLOAD DUP2 LT PUSH2 0x1D86 JUMPI INVALID JUMPDEST ADD PUSH1 0x20 ADD MLOAD DUP4 MLOAD PUSH32 0xFF00000000000000000000000000000000000000000000000000000000000000 SWAP1 SWAP2 AND SWAP1 SWAP2 SHR SWAP1 PUSH1 0x10 SWAP1 DUP5 SWAP1 PUSH1 0x2 SWAP1 DUP2 LT PUSH2 0x1DC5 JUMPI INVALID JUMPDEST ADD PUSH1 0x20 ADD MLOAD DUP5 MLOAD PUSH32 0xFF00000000000000000000000000000000000000000000000000000000000000 SWAP1 SWAP2 AND SWAP1 SWAP2 SHR SWAP1 PUSH1 0x8 SWAP1 DUP6 SWAP1 PUSH1 0x1 SWAP1 DUP2 LT PUSH2 0x1E04 JUMPI INVALID JUMPDEST ADD PUSH1 0x20 ADD MLOAD DUP6 MLOAD PUSH32 0xFF00000000000000000000000000000000000000000000000000000000000000 SWAP1 SWAP2 AND SWAP1 SWAP2 SHR SWAP1 DUP6 SWAP1 PUSH1 0x0 SWAP1 PUSH2 0x1E3E JUMPI INVALID JUMPDEST ADD PUSH1 0x20 ADD MLOAD PUSH32 0xFF00000000000000000000000000000000000000000000000000000000000000 AND OR OR OR SWAP1 POP SWAP2 SWAP1 POP JUMP JUMPDEST PUSH1 0x0 DUP5 DUP2 MSTORE PUSH1 0x5 PUSH1 0x20 MSTORE PUSH1 0x40 DUP2 KECCAK256 SLOAD DUP1 PUSH2 0x1E9B JUMPI PUSH1 0x40 MLOAD PUSH3 0x461BCD PUSH1 0xE5 SHL DUP2 MSTORE PUSH1 0x4 ADD PUSH2 0x7F4 SWAP1 PUSH2 0x2C4D JUMP JUMPDEST PUSH2 0x1EA8 DUP7 DUP7 DUP7 DUP5 DUP8 PUSH2 0x1EB2 JUMP JUMPDEST SWAP7 SWAP6 POP POP POP POP POP POP JUMP JUMPDEST PUSH1 0x3 SLOAD PUSH1 0x40 MLOAD DUP2 SWAP1 DUP8 SWAP1 PUSH32 0x26CE5FFB7AB1CE72D9CA4A3E4F906D2B99194D6C53DD9832FD7A59D0B2FC6BED SWAP1 PUSH1 0x0 SWAP1 LOG3 DUP2 MLOAD PUSH1 0x40 DUP1 MLOAD PUSH1 0xC0 DUP2 ADD DUP3 MSTORE PUSH20 0xFFFFFFFFFFFFFFFFFFFFFFFFFFFFFFFFFFFFFFFF DUP9 DUP2 AND DUP3 MSTORE PUSH1 0x20 DUP1 DUP4 ADD DUP10 DUP2 MSTORE PUSH1 0x0 SWAP5 DUP5 ADD DUP6 SWAP1 MSTORE PUSH1 0x60 DUP5 ADD DUP6 SWAP1 MSTORE SWAP5 ISZERO ISZERO PUSH1 0x80 DUP5 ADD DUP2 SWAP1 MSTORE TIMESTAMP DUP10 ADD PUSH1 0xA0 DUP6 ADD DUP2 SWAP1 MSTORE PUSH1 0x3 DUP1 SLOAD PUSH1 0x1 DUP2 ADD DUP3 SSTORE SWAP7 MSTORE DUP5 MLOAD PUSH32 0xC2575A0E9E593C00F959F8C92F12DB2869C3395A3B0502D05E2516446F71F85B PUSH1 0x4 SWAP1 SWAP8 MUL SWAP7 DUP8 ADD DUP1 SLOAD PUSH32 0xFFFFFFFFFFFFFFFFFFFFFFFF0000000000000000000000000000000000000000 AND SWAP2 SWAP1 SWAP6 AND OR DUP5 SSTORE SWAP6 MLOAD DUP1 MLOAD SWAP2 SWAP6 PUSH2 0x1FCC SWAP4 PUSH32 0xC2575A0E9E593C00F959F8C92F12DB2869C3395A3B0502D05E2516446F71F85C SWAP1 SWAP2 ADD SWAP3 SWAP2 ADD SWAP1 PUSH2 0x2325 JUMP JUMPDEST POP PUSH1 0x40 DUP3 ADD MLOAD PUSH1 0x2 DUP3 ADD DUP1 SLOAD PUSH1 0x60 DUP6 ADD MLOAD PUSH1 0x80 DUP7 ADD MLOAD ISZERO ISZERO PUSH3 0x10000 MUL PUSH32 0xFFFFFFFFFFFFFFFFFFFFFFFFFFFFFFFFFFFFFFFFFFFFFFFFFFFFFFFFFF00FFFF SWAP2 ISZERO ISZERO PUSH2 0x100 MUL PUSH32 0xFFFFFFFFFFFFFFFFFFFFFFFFFFFFFFFFFFFFFFFFFFFFFFFFFFFFFFFFFFFF00FF SWAP6 ISZERO ISZERO PUSH1 0xFF NOT SWAP1 SWAP5 AND SWAP4 SWAP1 SWAP4 OR SWAP5 SWAP1 SWAP5 AND SWAP2 SWAP1 SWAP2 OR AND SWAP2 SWAP1 SWAP2 OR SWAP1 SSTORE PUSH1 0xA0 SWAP1 SWAP2 ADD MLOAD PUSH1 0x3 SWAP1 SWAP2 ADD SSTORE PUSH1 0x0 PUSH2 0x2065 DUP5 PUSH2 0x1550 JUMP JUMPDEST SWAP1 POP PUSH1 0x0 JUMPDEST DUP6 MLOAD DUP2 LT ISZERO PUSH2 0x2099 JUMPI PUSH2 0x2091 DUP3 DUP8 DUP4 DUP2 MLOAD DUP2 LT PUSH2 0x2083 JUMPI INVALID JUMPDEST PUSH1 0x20 MUL PUSH1 0x20 ADD ADD MLOAD ADDRESS PUSH2 0x1B75 JUMP JUMPDEST PUSH1 0x1 ADD PUSH2 0x206A JUMP JUMPDEST POP POP POP POP SWAP6 SWAP5 POP POP POP POP POP JUMP JUMPDEST PUSH2 0x786 DUP2 DUP4 EQ PUSH1 0x67 PUSH2 0x1B67 JUMP JUMPDEST PUSH1 0x40 DUP1 MLOAD PUSH1 0x1 DUP1 DUP3 MSTORE DUP2 DUP4 ADD SWAP1 SWAP3 MSTORE PUSH1 0x60 SWAP2 PUSH1 0x20 DUP1 DUP4 ADD SWAP1 DUP1 CALLDATASIZE DUP4 CALLDATACOPY ADD SWAP1 POP POP SWAP1 POP DUP2 DUP2 PUSH1 0x0 DUP2 MLOAD DUP2 LT PUSH2 0x20E3 JUMPI INVALID JUMPDEST PUSH1 0x20 MUL PUSH1 0x20 ADD ADD DUP2 DUP2 MSTORE POP POP SWAP2 SWAP1 POP JUMP JUMPDEST PUSH1 0x40 DUP1 MLOAD PUSH1 0x1 DUP1 DUP3 MSTORE DUP2 DUP4 ADD SWAP1 SWAP3 MSTORE PUSH1 0x60 SWAP2 PUSH1 0x20 DUP1 DUP4 ADD SWAP1 DUP1 CALLDATASIZE DUP4 CALLDATACOPY ADD SWAP1 POP POP SWAP1 POP DUP2 DUP2 PUSH1 0x0 DUP2 MLOAD DUP2 LT PUSH2 0x2124 JUMPI INVALID JUMPDEST PUSH1 0x20 MUL PUSH1 0x20 ADD ADD SWAP1 PUSH20 0xFFFFFFFFFFFFFFFFFFFFFFFFFFFFFFFFFFFFFFFF AND SWAP1 DUP2 PUSH20 0xFFFFFFFFFFFFFFFFFFFFFFFFFFFFFFFFFFFFFFFF AND DUP2 MSTORE POP POP SWAP2 SWAP1 POP JUMP JUMPDEST PUSH1 0x0 DUP1 PUSH2 0x2170 DUP7 DUP5 PUSH2 0xDC5 JUMP JUMPDEST PUSH1 0x0 DUP2 DUP2 MSTORE PUSH1 0x5 PUSH1 0x20 MSTORE PUSH1 0x40 SWAP1 KECCAK256 SLOAD SWAP1 SWAP2 POP ISZERO PUSH2 0x21DE JUMPI PUSH32 0x0 PUSH20 0xFFFFFFFFFFFFFFFFFFFFFFFFFFFFFFFFFFFFFFFF AND DUP6 PUSH20 0xFFFFFFFFFFFFFFFFFFFFFFFFFFFFFFFFFFFFFFFF AND EQ SWAP2 POP POP PUSH2 0xECF JUMP JUMPDEST PUSH2 0x21E9 DUP2 DUP7 DUP7 PUSH2 0x15D6 JUMP JUMPDEST ISZERO PUSH2 0x21F8 JUMPI PUSH1 0x1 SWAP2 POP POP PUSH2 0xECF JUMP JUMPDEST PUSH1 0x0 PUSH2 0x2206 DUP8 PUSH1 0x0 NOT PUSH2 0xDC5 JUMP JUMPDEST SWAP1 POP PUSH2 0xECA DUP2 DUP8 DUP8 PUSH2 0x1313 JUMP JUMPDEST PUSH1 0x0 DUP1 PUSH2 0x2220 DUP7 DUP5 PUSH2 0xDC5 JUMP JUMPDEST SWAP1 POP PUSH1 0x0 PUSH2 0x2230 DUP8 PUSH1 0x0 NOT PUSH2 0xDC5 JUMP JUMPDEST SWAP1 POP PUSH2 0x223D DUP3 DUP8 DUP8 PUSH2 0x15D6 JUMP JUMPDEST DUP1 PUSH2 0xECA JUMPI POP PUSH2 0xECA DUP2 DUP8 DUP8 PUSH2 0x15D6 JUMP JUMPDEST DUP1 DUP3 SUB SWAP1 DUP3 LT MUL SWAP1 SUB SWAP1 JUMP JUMPDEST PUSH2 0x226C PUSH1 0x2 PUSH1 0x0 SLOAD EQ ISZERO PUSH2 0x190 PUSH2 0x1B67 JUMP JUMPDEST PUSH1 0x2 PUSH1 0x0 SSTORE JUMP JUMPDEST PUSH1 0x1 PUSH1 0x0 SSTORE JUMP JUMPDEST PUSH3 0x461BCD PUSH1 0xE5 SHL PUSH1 0x0 SWAP1 DUP2 MSTORE PUSH1 0x20 PUSH1 0x4 MSTORE PUSH1 0x7 PUSH1 0x24 MSTORE PUSH1 0xA DUP1 DUP4 DIV DUP2 DUP2 MOD PUSH1 0x30 SWAP1 DUP2 ADD PUSH1 0x8 SHL DUP4 DUP7 MOD ADD SWAP2 DUP4 SWAP1 DIV SWAP3 DUP4 MOD ADD PUSH1 0x10 SHL ADD PUSH7 0x42414C23000030 ADD PUSH1 0xC8 SHL PUSH1 0x44 MSTORE PUSH2 0x978 SWAP2 PUSH32 0x42414C0000000000000000000000000000000000000000000000000000000000 SWAP1 PUSH3 0x42414C SWAP1 PUSH1 0x64 SWAP1 REVERT JUMPDEST PUSH1 0x40 DUP1 MLOAD PUSH1 0xC0 DUP2 ADD DUP3 MSTORE PUSH1 0x0 DUP1 DUP3 MSTORE PUSH1 0x60 PUSH1 0x20 DUP4 ADD DUP2 SWAP1 MSTORE SWAP3 DUP3 ADD DUP2 SWAP1 MSTORE SWAP2 DUP2 ADD DUP3 SWAP1 MSTORE PUSH1 0x80 DUP2 ADD DUP3 SWAP1 MSTORE PUSH1 0xA0 DUP2 ADD SWAP2 SWAP1 SWAP2 MSTORE SWAP1 JUMP JUMPDEST DUP3 DUP1 SLOAD PUSH1 0x1 DUP2 PUSH1 0x1 AND ISZERO PUSH2 0x100 MUL SUB AND PUSH1 0x2 SWAP1 DIV SWAP1 PUSH1 0x0 MSTORE PUSH1 0x20 PUSH1 0x0 KECCAK256 SWAP1 PUSH1 0x1F ADD PUSH1 0x20 SWAP1 DIV DUP2 ADD SWAP3 DUP3 PUSH1 0x1F LT PUSH2 0x2366 JUMPI DUP1 MLOAD PUSH1 0xFF NOT AND DUP4 DUP1 ADD OR DUP6 SSTORE PUSH2 0x2393 JUMP JUMPDEST DUP3 DUP1 ADD PUSH1 0x1 ADD DUP6 SSTORE DUP3 ISZERO PUSH2 0x2393 JUMPI SWAP2 DUP3 ADD JUMPDEST DUP3 DUP2 GT ISZERO PUSH2 0x2393 JUMPI DUP3 MLOAD DUP3 SSTORE SWAP2 PUSH1 0x20 ADD SWAP2 SWAP1 PUSH1 0x1 ADD SWAP1 PUSH2 0x2378 JUMP JUMPDEST POP PUSH2 0x239F SWAP3 SWAP2 POP PUSH2 0x23A3 JUMP JUMPDEST POP SWAP1 JUMP JUMPDEST JUMPDEST DUP1 DUP3 GT ISZERO PUSH2 0x239F JUMPI PUSH1 0x0 DUP2 SSTORE PUSH1 0x1 ADD PUSH2 0x23A4 JUMP JUMPDEST DUP1 CALLDATALOAD PUSH20 0xFFFFFFFFFFFFFFFFFFFFFFFFFFFFFFFFFFFFFFFF DUP2 AND DUP2 EQ PUSH2 0x7B6 JUMPI PUSH1 0x0 DUP1 REVERT JUMPDEST PUSH1 0x0 DUP3 PUSH1 0x1F DUP4 ADD SLT PUSH2 0x23EC JUMPI DUP1 DUP2 REVERT JUMPDEST DUP2 CALLDATALOAD PUSH2 0x23FF PUSH2 0x23FA DUP3 PUSH2 0x2DC6 JUMP JUMPDEST PUSH2 0x2D9F JUMP JUMPDEST DUP2 DUP2 MSTORE SWAP2 POP PUSH1 0x20 DUP1 DUP4 ADD SWAP1 DUP5 DUP2 ADD DUP2 DUP5 MUL DUP7 ADD DUP3 ADD DUP8 LT ISZERO PUSH2 0x2420 JUMPI PUSH1 0x0 DUP1 REVERT JUMPDEST PUSH1 0x0 JUMPDEST DUP5 DUP2 LT ISZERO PUSH2 0x2447 JUMPI PUSH2 0x2435 DUP9 DUP4 PUSH2 0x23B8 JUMP JUMPDEST DUP5 MSTORE SWAP3 DUP3 ADD SWAP3 SWAP1 DUP3 ADD SWAP1 PUSH1 0x1 ADD PUSH2 0x2423 JUMP JUMPDEST POP POP POP POP POP SWAP3 SWAP2 POP POP JUMP JUMPDEST PUSH1 0x0 DUP3 PUSH1 0x1F DUP4 ADD SLT PUSH2 0x2462 JUMPI DUP1 DUP2 REVERT JUMPDEST DUP2 CALLDATALOAD PUSH2 0x2470 PUSH2 0x23FA DUP3 PUSH2 0x2DC6 JUMP JUMPDEST DUP2 DUP2 MSTORE SWAP2 POP PUSH1 0x20 DUP1 DUP4 ADD SWAP1 DUP5 DUP2 ADD DUP2 DUP5 MUL DUP7 ADD DUP3 ADD DUP8 LT ISZERO PUSH2 0x2491 JUMPI PUSH1 0x0 DUP1 REVERT JUMPDEST PUSH1 0x0 JUMPDEST DUP5 DUP2 LT ISZERO PUSH2 0x2447 JUMPI DUP2 CALLDATALOAD DUP5 MSTORE SWAP3 DUP3 ADD SWAP3 SWAP1 DUP3 ADD SWAP1 PUSH1 0x1 ADD PUSH2 0x2494 JUMP JUMPDEST PUSH1 0x0 PUSH1 0x20 DUP3 DUP5 SUB SLT ISZERO PUSH2 0x24C1 JUMPI DUP1 DUP2 REVERT JUMPDEST PUSH2 0x924 DUP4 DUP4 PUSH2 0x23B8 JUMP JUMPDEST PUSH1 0x0 DUP1 PUSH1 0x40 DUP4 DUP6 SUB SLT ISZERO PUSH2 0x24DD JUMPI DUP1 DUP2 REVERT JUMPDEST PUSH2 0x24E7 DUP5 DUP5 PUSH2 0x23B8 JUMP JUMPDEST SWAP2 POP PUSH1 0x20 DUP4 ADD CALLDATALOAD PUSH8 0xFFFFFFFFFFFFFFFF DUP2 GT ISZERO PUSH2 0x2502 JUMPI DUP2 DUP3 REVERT JUMPDEST PUSH2 0x250E DUP6 DUP3 DUP7 ADD PUSH2 0x23DC JUMP JUMPDEST SWAP2 POP POP SWAP3 POP SWAP3 SWAP1 POP JUMP JUMPDEST PUSH1 0x0 DUP1 PUSH1 0x0 PUSH1 0x60 DUP5 DUP7 SUB SLT ISZERO PUSH2 0x252C JUMPI DUP1 DUP2 REVERT JUMPDEST PUSH2 0x2536 DUP6 DUP6 PUSH2 0x23B8 JUMP JUMPDEST SWAP3 POP PUSH1 0x20 DUP5 ADD CALLDATALOAD PUSH8 0xFFFFFFFFFFFFFFFF DUP1 DUP3 GT ISZERO PUSH2 0x2552 JUMPI DUP3 DUP4 REVERT JUMPDEST DUP2 DUP7 ADD SWAP2 POP DUP7 PUSH1 0x1F DUP4 ADD SLT PUSH2 0x2565 JUMPI DUP3 DUP4 REVERT JUMPDEST DUP2 CALLDATALOAD PUSH2 0x2573 PUSH2 0x23FA DUP3 PUSH2 0x2DE6 JUMP JUMPDEST DUP2 DUP2 MSTORE DUP9 PUSH1 0x20 DUP4 DUP7 ADD ADD GT ISZERO PUSH2 0x2587 JUMPI DUP5 DUP6 REVERT JUMPDEST DUP2 PUSH1 0x20 DUP6 ADD PUSH1 0x20 DUP4 ADD CALLDATACOPY SWAP1 DUP2 ADD PUSH1 0x20 ADD DUP5 SWAP1 MSTORE SWAP4 POP PUSH1 0x40 DUP7 ADD CALLDATALOAD SWAP2 POP DUP1 DUP3 GT ISZERO PUSH2 0x25AF JUMPI DUP3 DUP4 REVERT JUMPDEST POP PUSH2 0x25BC DUP7 DUP3 DUP8 ADD PUSH2 0x23DC JUMP JUMPDEST SWAP2 POP POP SWAP3 POP SWAP3 POP SWAP3 JUMP JUMPDEST PUSH1 0x0 DUP1 PUSH1 0x0 PUSH1 0x60 DUP5 DUP7 SUB SLT ISZERO PUSH2 0x25DA JUMPI DUP3 DUP4 REVERT JUMPDEST DUP4 CALLDATALOAD PUSH8 0xFFFFFFFFFFFFFFFF DUP1 DUP3 GT ISZERO PUSH2 0x25F1 JUMPI DUP5 DUP6 REVERT JUMPDEST PUSH2 0x25FD DUP8 DUP4 DUP9 ADD PUSH2 0x2452 JUMP JUMPDEST SWAP5 POP PUSH2 0x260C DUP8 PUSH1 0x20 DUP9 ADD PUSH2 0x23B8 JUMP JUMPDEST SWAP4 POP PUSH1 0x40 DUP7 ADD CALLDATALOAD SWAP2 POP DUP1 DUP3 GT ISZERO PUSH2 0x25AF JUMPI DUP3 DUP4 REVERT JUMPDEST PUSH1 0x0 DUP1 PUSH1 0x40 DUP4 DUP6 SUB SLT ISZERO PUSH2 0x2633 JUMPI DUP2 DUP3 REVERT JUMPDEST DUP3 CALLDATALOAD PUSH8 0xFFFFFFFFFFFFFFFF DUP1 DUP3 GT ISZERO PUSH2 0x264A JUMPI DUP4 DUP5 REVERT JUMPDEST PUSH2 0x2656 DUP7 DUP4 DUP8 ADD PUSH2 0x2452 JUMP JUMPDEST SWAP4 POP PUSH1 0x20 DUP6 ADD CALLDATALOAD SWAP2 POP DUP1 DUP3 GT ISZERO PUSH2 0x266B JUMPI DUP3 DUP4 REVERT JUMPDEST POP PUSH2 0x250E DUP6 DUP3 DUP7 ADD PUSH2 0x23DC JUMP JUMPDEST PUSH1 0x0 PUSH1 0x20 DUP3 DUP5 SUB SLT ISZERO PUSH2 0x2689 JUMPI DUP1 DUP2 REVERT JUMPDEST POP CALLDATALOAD SWAP2 SWAP1 POP JUMP JUMPDEST PUSH1 0x0 PUSH1 0x20 DUP3 DUP5 SUB SLT ISZERO PUSH2 0x26A1 JUMPI DUP1 DUP2 REVERT JUMPDEST POP MLOAD SWAP2 SWAP1 POP JUMP JUMPDEST PUSH1 0x0 DUP1 PUSH1 0x0 PUSH1 0x60 DUP5 DUP7 SUB SLT ISZERO PUSH2 0x26BC JUMPI DUP3 DUP4 REVERT JUMPDEST DUP4 CALLDATALOAD SWAP3 POP PUSH2 0x26CD DUP6 PUSH1 0x20 DUP7 ADD PUSH2 0x23B8 JUMP JUMPDEST SWAP2 POP PUSH2 0x26DC DUP6 PUSH1 0x40 DUP7 ADD PUSH2 0x23B8 JUMP JUMPDEST SWAP1 POP SWAP3 POP SWAP3 POP SWAP3 JUMP JUMPDEST PUSH1 0x0 DUP1 PUSH1 0x0 DUP1 PUSH1 0x80 DUP6 DUP8 SUB SLT ISZERO PUSH2 0x26FA JUMPI DUP1 DUP2 REVERT JUMPDEST DUP5 CALLDATALOAD SWAP4 POP PUSH2 0x270B DUP7 PUSH1 0x20 DUP8 ADD PUSH2 0x23B8 JUMP JUMPDEST SWAP3 POP PUSH2 0x271A DUP7 PUSH1 0x40 DUP8 ADD PUSH2 0x23B8 JUMP JUMPDEST SWAP2 POP PUSH1 0x60 DUP6 ADD CALLDATALOAD PUSH8 0xFFFFFFFFFFFFFFFF DUP2 GT ISZERO PUSH2 0x2735 JUMPI DUP2 DUP3 REVERT JUMPDEST PUSH2 0x2741 DUP8 DUP3 DUP9 ADD PUSH2 0x23DC JUMP JUMPDEST SWAP2 POP POP SWAP3 SWAP6 SWAP2 SWAP5 POP SWAP3 POP JUMP JUMPDEST PUSH1 0x0 DUP1 PUSH1 0x0 DUP1 PUSH1 0x80 DUP6 DUP8 SUB SLT ISZERO PUSH2 0x2762 JUMPI DUP4 DUP5 REVERT JUMPDEST DUP5 CALLDATALOAD SWAP4 POP PUSH2 0x2773 DUP7 PUSH1 0x20 DUP8 ADD PUSH2 0x23B8 JUMP JUMPDEST SWAP3 POP PUSH2 0x2782 DUP7 PUSH1 0x40 DUP8 ADD PUSH2 0x23B8 JUMP JUMPDEST SWAP2 POP PUSH1 0x60 DUP6 ADD CALLDATALOAD DUP1 ISZERO ISZERO DUP2 EQ PUSH2 0x2796 JUMPI DUP2 DUP3 REVERT JUMPDEST SWAP4 SWAP7 SWAP3 SWAP6 POP SWAP1 SWAP4 POP POP JUMP JUMPDEST PUSH1 0x0 DUP1 PUSH1 0x40 DUP4 DUP6 SUB SLT ISZERO PUSH2 0x27B3 JUMPI DUP2 DUP3 REVERT JUMPDEST POP POP DUP1 CALLDATALOAD SWAP3 PUSH1 0x20 SWAP1 SWAP2 ADD CALLDATALOAD SWAP2 POP JUMP JUMPDEST PUSH1 0x0 DUP1 PUSH1 0x0 PUSH1 0x60 DUP5 DUP7 SUB SLT ISZERO PUSH2 0x27D6 JUMPI DUP1 DUP2 REVERT JUMPDEST DUP4 CALLDATALOAD SWAP3 POP PUSH1 0x20 DUP5 ADD CALLDATALOAD SWAP2 POP PUSH1 0x40 DUP5 ADD CALLDATALOAD PUSH8 0xFFFFFFFFFFFFFFFF DUP2 GT ISZERO PUSH2 0x27FA JUMPI DUP2 DUP3 REVERT JUMPDEST PUSH2 0x25BC DUP7 DUP3 DUP8 ADD PUSH2 0x23DC JUMP JUMPDEST PUSH1 0x0 PUSH1 0x20 DUP3 DUP5 SUB SLT ISZERO PUSH2 0x2817 JUMPI DUP1 DUP2 REVERT JUMPDEST DUP2 CALLDATALOAD PUSH32 0xFFFFFFFF00000000000000000000000000000000000000000000000000000000 DUP2 AND DUP2 EQ PUSH2 0x924 JUMPI DUP2 DUP3 REVERT JUMPDEST PUSH1 0x0 PUSH1 0x20 DUP3 DUP5 SUB SLT ISZERO PUSH2 0x2857 JUMPI DUP1 DUP2 REVERT JUMPDEST DUP2 MLOAD PUSH8 0xFFFFFFFFFFFFFFFF DUP2 GT ISZERO PUSH2 0x286D JUMPI DUP2 DUP3 REVERT JUMPDEST DUP3 ADD PUSH1 0x1F DUP2 ADD DUP5 SGT PUSH2 0x287D JUMPI DUP2 DUP3 REVERT JUMPDEST DUP1 MLOAD PUSH2 0x288B PUSH2 0x23FA DUP3 PUSH2 0x2DE6 JUMP JUMPDEST DUP2 DUP2 MSTORE DUP6 PUSH1 0x20 DUP4 DUP6 ADD ADD GT ISZERO PUSH2 0x289F JUMPI DUP4 DUP5 REVERT JUMPDEST PUSH2 0xAA0 DUP3 PUSH1 0x20 DUP4 ADD PUSH1 0x20 DUP7 ADD PUSH2 0x2E2F JUMP JUMPDEST PUSH1 0x0 DUP2 MLOAD DUP1 DUP5 MSTORE PUSH2 0x28C8 DUP2 PUSH1 0x20 DUP7 ADD PUSH1 0x20 DUP7 ADD PUSH2 0x2E2F JUMP JUMPDEST PUSH1 0x1F ADD PUSH1 0x1F NOT AND SWAP3 SWAP1 SWAP3 ADD PUSH1 0x20 ADD SWAP3 SWAP2 POP POP JUMP JUMPDEST SWAP3 DUP4 MSTORE PUSH32 0xFFFFFFFFFFFFFFFFFFFFFFFFFFFFFFFFFFFFFFFF000000000000000000000000 PUSH1 0x60 SWAP3 DUP4 SHL DUP2 AND PUSH1 0x20 DUP6 ADD MSTORE SWAP2 SHL AND PUSH1 0x34 DUP3 ADD MSTORE PUSH1 0x48 ADD SWAP1 JUMP JUMPDEST SWAP2 DUP3 MSTORE PUSH1 0x20 DUP3 ADD MSTORE PUSH1 0x40 ADD SWAP1 JUMP JUMPDEST SWAP2 DUP3 MSTORE PUSH32 0xFFFFFFFF00000000000000000000000000000000000000000000000000000000 AND PUSH1 0x20 DUP3 ADD MSTORE PUSH1 0x24 ADD SWAP1 JUMP JUMPDEST PUSH20 0xFFFFFFFFFFFFFFFFFFFFFFFFFFFFFFFFFFFFFFFF SWAP2 SWAP1 SWAP2 AND DUP2 MSTORE PUSH1 0x20 ADD SWAP1 JUMP JUMPDEST PUSH1 0x0 PUSH1 0x40 DUP3 ADD PUSH20 0xFFFFFFFFFFFFFFFFFFFFFFFFFFFFFFFFFFFFFFFF DUP6 AND DUP4 MSTORE PUSH1 0x20 PUSH1 0x40 DUP2 DUP6 ADD MSTORE DUP3 DUP6 SLOAD PUSH1 0x1 DUP1 DUP3 AND PUSH1 0x0 DUP2 EQ PUSH2 0x29BD JUMPI PUSH1 0x1 DUP2 EQ PUSH2 0x29DB JUMPI PUSH2 0x2A13 JUMP JUMPDEST PUSH1 0x7F PUSH1 0x2 DUP5 DIV AND DUP7 MSTORE PUSH1 0xFF NOT DUP4 AND PUSH1 0x60 DUP10 ADD MSTORE PUSH1 0x80 DUP9 ADD SWAP4 POP PUSH2 0x2A13 JUMP JUMPDEST PUSH1 0x2 DUP4 DIV DUP1 DUP8 MSTORE PUSH2 0x29EB DUP11 PUSH2 0x2E0A JUMP JUMPDEST DUP9 JUMPDEST DUP3 DUP2 LT ISZERO PUSH2 0x2A09 JUMPI DUP2 SLOAD DUP12 DUP3 ADD PUSH1 0x60 ADD MSTORE SWAP1 DUP5 ADD SWAP1 DUP8 ADD PUSH2 0x29ED JUMP JUMPDEST DUP11 ADD PUSH1 0x60 ADD SWAP6 POP POP POP JUMPDEST POP SWAP2 SWAP9 SWAP8 POP POP POP POP POP POP POP POP JUMP JUMPDEST PUSH1 0x60 DUP1 DUP3 MSTORE DUP5 MLOAD SWAP1 DUP3 ADD DUP2 SWAP1 MSTORE PUSH1 0x0 SWAP1 PUSH1 0x20 SWAP1 PUSH1 0x80 DUP5 ADD SWAP1 DUP3 DUP9 ADD DUP5 JUMPDEST DUP3 DUP2 LT ISZERO PUSH2 0x2A5A JUMPI DUP2 MLOAD DUP5 MSTORE SWAP3 DUP5 ADD SWAP3 SWAP1 DUP5 ADD SWAP1 PUSH1 0x1 ADD PUSH2 0x2A3E JUMP JUMPDEST POP POP POP PUSH20 0xFFFFFFFFFFFFFFFFFFFFFFFFFFFFFFFFFFFFFFFF DUP7 AND DUP5 DUP4 ADD MSTORE DUP4 DUP2 SUB PUSH1 0x40 DUP6 ADD MSTORE DUP5 MLOAD DUP1 DUP3 MSTORE DUP6 DUP4 ADD SWAP2 DUP4 ADD SWAP1 DUP5 JUMPDEST DUP2 DUP2 LT ISZERO PUSH2 0x2AB2 JUMPI PUSH2 0x2AA0 DUP5 MLOAD PUSH2 0x2E16 JUMP JUMPDEST DUP4 MSTORE SWAP3 DUP5 ADD SWAP3 SWAP2 DUP5 ADD SWAP2 PUSH1 0x1 ADD PUSH2 0x2A8E JUMP JUMPDEST POP SWAP1 SWAP9 SWAP8 POP POP POP POP POP POP POP POP JUMP JUMPDEST SWAP1 ISZERO ISZERO DUP2 MSTORE PUSH1 0x20 ADD SWAP1 JUMP JUMPDEST SWAP1 DUP2 MSTORE PUSH1 0x20 ADD SWAP1 JUMP JUMPDEST PUSH32 0xFFFFFFFF00000000000000000000000000000000000000000000000000000000 SWAP2 SWAP1 SWAP2 AND DUP2 MSTORE PUSH1 0x20 ADD SWAP1 JUMP JUMPDEST PUSH1 0x0 PUSH1 0x20 DUP3 MSTORE PUSH2 0x924 PUSH1 0x20 DUP4 ADD DUP5 PUSH2 0x28B0 JUMP JUMPDEST PUSH1 0x20 DUP1 DUP3 MSTORE PUSH1 0x22 SWAP1 DUP3 ADD MSTORE PUSH32 0x43414E4E4F545F5343484544554C455F415554484F52495A45525F414354494F PUSH1 0x40 DUP3 ADD MSTORE PUSH32 0x4E53000000000000000000000000000000000000000000000000000000000000 PUSH1 0x60 DUP3 ADD MSTORE PUSH1 0x80 ADD SWAP1 JUMP JUMPDEST PUSH1 0x20 DUP1 DUP3 MSTORE PUSH1 0x1E SWAP1 DUP3 ADD MSTORE PUSH32 0x415454454D5054494E475F4558454355544F525F5245454E5452414E43590000 PUSH1 0x40 DUP3 ADD MSTORE PUSH1 0x60 ADD SWAP1 JUMP JUMPDEST PUSH1 0x20 DUP1 DUP3 MSTORE PUSH1 0x1C SWAP1 DUP3 ADD MSTORE PUSH32 0x44454C41595F455843454544535F5345545F415554484F52495A455200000000 PUSH1 0x40 DUP3 ADD MSTORE PUSH1 0x60 ADD SWAP1 JUMP JUMPDEST PUSH1 0x20 DUP1 DUP3 MSTORE PUSH1 0x15 SWAP1 DUP3 ADD MSTORE PUSH32 0x414354494F4E5F4E4F545F45584543555441424C450000000000000000000000 PUSH1 0x40 DUP3 ADD MSTORE PUSH1 0x60 ADD SWAP1 JUMP JUMPDEST PUSH1 0x20 DUP1 DUP3 MSTORE PUSH1 0xF SWAP1 DUP3 ADD MSTORE PUSH32 0x44454C41595F544F4F5F4C415247450000000000000000000000000000000000 PUSH1 0x40 DUP3 ADD MSTORE PUSH1 0x60 ADD SWAP1 JUMP JUMPDEST PUSH1 0x20 DUP1 DUP3 MSTORE PUSH1 0x16 SWAP1 DUP3 ADD MSTORE PUSH32 0x43414E4E4F545F5343484544554C455F414354494F4E00000000000000000000 PUSH1 0x40 DUP3 ADD MSTORE PUSH1 0x60 ADD SWAP1 JUMP JUMPDEST PUSH1 0x20 DUP1 DUP3 MSTORE PUSH1 0x18 SWAP1 DUP3 ADD MSTORE PUSH32 0x414354494F4E5F414C52454144595F43414E43454C4C45440000000000000000 PUSH1 0x40 DUP3 ADD MSTORE PUSH1 0x60 ADD SWAP1 JUMP JUMPDEST PUSH1 0x20 DUP1 DUP3 MSTORE PUSH1 0x15 SWAP1 DUP3 ADD MSTORE PUSH32 0x414354494F4E5F444F45535F4E4F545F45584953540000000000000000000000 PUSH1 0x40 DUP3 ADD MSTORE PUSH1 0x60 ADD SWAP1 JUMP JUMPDEST PUSH1 0x20 DUP1 DUP3 MSTORE PUSH1 0x17 SWAP1 DUP3 ADD MSTORE PUSH32 0x414354494F4E5F414C52454144595F4558454355544544000000000000000000 PUSH1 0x40 DUP3 ADD MSTORE PUSH1 0x60 ADD SWAP1 JUMP JUMPDEST PUSH1 0x0 PUSH1 0x20 DUP3 MSTORE PUSH20 0xFFFFFFFFFFFFFFFFFFFFFFFFFFFFFFFFFFFFFFFF DUP4 MLOAD AND PUSH1 0x20 DUP4 ADD MSTORE PUSH1 0x20 DUP4 ADD MLOAD PUSH1 0xC0 PUSH1 0x40 DUP5 ADD MSTORE PUSH2 0x2D65 PUSH1 0xE0 DUP5 ADD DUP3 PUSH2 0x28B0 JUMP JUMPDEST SWAP1 POP PUSH1 0x40 DUP5 ADD MLOAD ISZERO ISZERO PUSH1 0x60 DUP5 ADD MSTORE PUSH1 0x60 DUP5 ADD MLOAD ISZERO ISZERO PUSH1 0x80 DUP5 ADD MSTORE PUSH1 0x80 DUP5 ADD MLOAD ISZERO ISZERO PUSH1 0xA0 DUP5 ADD MSTORE PUSH1 0xA0 DUP5 ADD MLOAD PUSH1 0xC0 DUP5 ADD MSTORE DUP1 SWAP2 POP POP SWAP3 SWAP2 POP POP JUMP JUMPDEST PUSH1 0x40 MLOAD DUP2 DUP2 ADD PUSH8 0xFFFFFFFFFFFFFFFF DUP2 GT DUP3 DUP3 LT OR ISZERO PUSH2 0x2DBE JUMPI PUSH1 0x0 DUP1 REVERT JUMPDEST PUSH1 0x40 MSTORE SWAP2 SWAP1 POP JUMP JUMPDEST PUSH1 0x0 PUSH8 0xFFFFFFFFFFFFFFFF DUP3 GT ISZERO PUSH2 0x2DDC JUMPI DUP1 DUP2 REVERT JUMPDEST POP PUSH1 0x20 SWAP1 DUP2 MUL ADD SWAP1 JUMP JUMPDEST PUSH1 0x0 PUSH8 0xFFFFFFFFFFFFFFFF DUP3 GT ISZERO PUSH2 0x2DFC JUMPI DUP1 DUP2 REVERT JUMPDEST POP PUSH1 0x1F ADD PUSH1 0x1F NOT AND PUSH1 0x20 ADD SWAP1 JUMP JUMPDEST PUSH1 0x0 SWAP1 DUP2 MSTORE PUSH1 0x20 SWAP1 KECCAK256 SWAP1 JUMP JUMPDEST PUSH20 0xFFFFFFFFFFFFFFFFFFFFFFFFFFFFFFFFFFFFFFFF AND SWAP1 JUMP JUMPDEST PUSH1 0x0 JUMPDEST DUP4 DUP2 LT ISZERO PUSH2 0x2E4A JUMPI DUP2 DUP2 ADD MLOAD DUP4 DUP3 ADD MSTORE PUSH1 0x20 ADD PUSH2 0x2E32 JUMP JUMPDEST DUP4 DUP2 GT ISZERO PUSH2 0xD9E JUMPI POP POP PUSH1 0x0 SWAP2 ADD MSTORE JUMP INVALID LOG2 PUSH5 0x6970667358 0x22 SLT KECCAK256 DUP8 CALLER 0xC3 0xC SGT SDIV POP 0xB0 PUSH1 0xFA 0xAE CALL DUP8 ISZERO 0xF 0xAE 0xAE 0xEC 0x2B DUP5 PUSH4 0x8906A342 PUSH5 0x9C6D8F3865 0xF9 PUSH5 0x736F6C6343 STOP SMOD ADD STOP CALLER PUSH1 0xA0 PUSH1 0x40 MSTORE CALLVALUE DUP1 ISZERO PUSH2 0x10 JUMPI PUSH1 0x0 DUP1 REVERT JUMPDEST POP PUSH1 0x1 PUSH1 0x0 SSTORE CALLER PUSH1 0x60 SHL PUSH1 0x80 MSTORE PUSH1 0x80 MLOAD PUSH1 0x60 SHR PUSH2 0x4B0 PUSH2 0x3F PUSH1 0x0 CODECOPY DUP1 PUSH2 0x1C6 MSTORE DUP1 PUSH2 0x26E MSTORE POP PUSH2 0x4B0 PUSH1 0x0 RETURN INVALID PUSH1 0x80 PUSH1 0x40 MSTORE CALLVALUE DUP1 ISZERO PUSH2 0x10 JUMPI PUSH1 0x0 DUP1 REVERT JUMPDEST POP PUSH1 0x4 CALLDATASIZE LT PUSH2 0x36 JUMPI PUSH1 0x0 CALLDATALOAD PUSH1 0xE0 SHR DUP1 PUSH4 0x1CFF79CD EQ PUSH2 0x3B JUMPI DUP1 PUSH4 0xD09EDF31 EQ PUSH2 0x173 JUMPI JUMPDEST PUSH1 0x0 DUP1 REVERT JUMPDEST PUSH2 0xFE PUSH1 0x4 DUP1 CALLDATASIZE SUB PUSH1 0x40 DUP2 LT ISZERO PUSH2 0x51 JUMPI PUSH1 0x0 DUP1 REVERT JUMPDEST PUSH20 0xFFFFFFFFFFFFFFFFFFFFFFFFFFFFFFFFFFFFFFFF DUP3 CALLDATALOAD AND SWAP2 SWAP1 DUP2 ADD SWAP1 PUSH1 0x40 DUP2 ADD PUSH1 0x20 DUP3 ADD CALLDATALOAD PUSH5 0x100000000 DUP2 GT ISZERO PUSH2 0x89 JUMPI PUSH1 0x0 DUP1 REVERT JUMPDEST DUP3 ADD DUP4 PUSH1 0x20 DUP3 ADD GT ISZERO PUSH2 0x9B JUMPI PUSH1 0x0 DUP1 REVERT JUMPDEST DUP1 CALLDATALOAD SWAP1 PUSH1 0x20 ADD SWAP2 DUP5 PUSH1 0x1 DUP4 MUL DUP5 ADD GT PUSH5 0x100000000 DUP4 GT OR ISZERO PUSH2 0xBD JUMPI PUSH1 0x0 DUP1 REVERT JUMPDEST SWAP2 SWAP1 DUP1 DUP1 PUSH1 0x1F ADD PUSH1 0x20 DUP1 SWAP2 DIV MUL PUSH1 0x20 ADD PUSH1 0x40 MLOAD SWAP1 DUP2 ADD PUSH1 0x40 MSTORE DUP1 SWAP4 SWAP3 SWAP2 SWAP1 DUP2 DUP2 MSTORE PUSH1 0x20 ADD DUP4 DUP4 DUP1 DUP3 DUP5 CALLDATACOPY PUSH1 0x0 SWAP3 ADD SWAP2 SWAP1 SWAP2 MSTORE POP SWAP3 SWAP6 POP PUSH2 0x1A4 SWAP5 POP POP POP POP POP JUMP JUMPDEST PUSH1 0x40 DUP1 MLOAD PUSH1 0x20 DUP1 DUP3 MSTORE DUP4 MLOAD DUP2 DUP4 ADD MSTORE DUP4 MLOAD SWAP2 SWAP3 DUP4 SWAP3 SWAP1 DUP4 ADD SWAP2 DUP6 ADD SWAP1 DUP1 DUP4 DUP4 PUSH1 0x0 JUMPDEST DUP4 DUP2 LT ISZERO PUSH2 0x138 JUMPI DUP2 DUP2 ADD MLOAD DUP4 DUP3 ADD MSTORE PUSH1 0x20 ADD PUSH2 0x120 JUMP JUMPDEST POP POP POP POP SWAP1 POP SWAP1 DUP2 ADD SWAP1 PUSH1 0x1F AND DUP1 ISZERO PUSH2 0x165 JUMPI DUP1 DUP3 SUB DUP1 MLOAD PUSH1 0x1 DUP4 PUSH1 0x20 SUB PUSH2 0x100 EXP SUB NOT AND DUP2 MSTORE PUSH1 0x20 ADD SWAP2 POP JUMPDEST POP SWAP3 POP POP POP PUSH1 0x40 MLOAD DUP1 SWAP2 SUB SWAP1 RETURN JUMPDEST PUSH2 0x17B PUSH2 0x26C JUMP JUMPDEST PUSH1 0x40 DUP1 MLOAD PUSH20 0xFFFFFFFFFFFFFFFFFFFFFFFFFFFFFFFFFFFFFFFF SWAP1 SWAP3 AND DUP3 MSTORE MLOAD SWAP1 DUP2 SWAP1 SUB PUSH1 0x20 ADD SWAP1 RETURN JUMPDEST PUSH1 0x60 PUSH2 0x1AE PUSH2 0x290 JUMP JUMPDEST CALLER PUSH20 0xFFFFFFFFFFFFFFFFFFFFFFFFFFFFFFFFFFFFFFFF PUSH32 0x0 AND EQ PUSH2 0x252 JUMPI PUSH1 0x40 DUP1 MLOAD PUSH32 0x8C379A000000000000000000000000000000000000000000000000000000000 DUP2 MSTORE PUSH1 0x20 PUSH1 0x4 DUP3 ADD MSTORE PUSH1 0x19 PUSH1 0x24 DUP3 ADD MSTORE PUSH32 0x4552525F53454E4445525F4E4F545F415554484F52495A455200000000000000 PUSH1 0x44 DUP3 ADD MSTORE SWAP1 MLOAD SWAP1 DUP2 SWAP1 SUB PUSH1 0x64 ADD SWAP1 REVERT JUMPDEST PUSH2 0x25C DUP4 DUP4 PUSH2 0x2A9 JUMP JUMPDEST SWAP1 POP PUSH2 0x266 PUSH2 0x393 JUMP JUMPDEST SWAP3 SWAP2 POP POP JUMP JUMPDEST PUSH32 0x0 DUP2 JUMP JUMPDEST PUSH2 0x2A2 PUSH1 0x2 PUSH1 0x0 SLOAD EQ ISZERO PUSH2 0x190 PUSH2 0x39A JUMP JUMPDEST PUSH1 0x2 PUSH1 0x0 SSTORE JUMP JUMPDEST PUSH1 0x60 PUSH1 0x0 PUSH1 0x60 DUP5 PUSH20 0xFFFFFFFFFFFFFFFFFFFFFFFFFFFFFFFFFFFFFFFF AND DUP5 PUSH1 0x40 MLOAD DUP1 DUP3 DUP1 MLOAD SWAP1 PUSH1 0x20 ADD SWAP1 DUP1 DUP4 DUP4 JUMPDEST PUSH1 0x20 DUP4 LT PUSH2 0x314 JUMPI DUP1 MLOAD DUP3 MSTORE PUSH32 0xFFFFFFFFFFFFFFFFFFFFFFFFFFFFFFFFFFFFFFFFFFFFFFFFFFFFFFFFFFFFFFE0 SWAP1 SWAP3 ADD SWAP2 PUSH1 0x20 SWAP2 DUP3 ADD SWAP2 ADD PUSH2 0x2D7 JUMP JUMPDEST PUSH1 0x1 DUP4 PUSH1 0x20 SUB PUSH2 0x100 EXP SUB DUP1 NOT DUP3 MLOAD AND DUP2 DUP5 MLOAD AND DUP1 DUP3 OR DUP6 MSTORE POP POP POP POP POP POP SWAP1 POP ADD SWAP2 POP POP PUSH1 0x0 PUSH1 0x40 MLOAD DUP1 DUP4 SUB DUP2 PUSH1 0x0 DUP7 GAS CALL SWAP2 POP POP RETURNDATASIZE DUP1 PUSH1 0x0 DUP2 EQ PUSH2 0x376 JUMPI PUSH1 0x40 MLOAD SWAP2 POP PUSH1 0x1F NOT PUSH1 0x3F RETURNDATASIZE ADD AND DUP3 ADD PUSH1 0x40 MSTORE RETURNDATASIZE DUP3 MSTORE RETURNDATASIZE PUSH1 0x0 PUSH1 0x20 DUP5 ADD RETURNDATACOPY PUSH2 0x37B JUMP JUMPDEST PUSH1 0x60 SWAP2 POP JUMPDEST POP SWAP2 POP SWAP2 POP PUSH2 0x38A DUP3 DUP3 PUSH2 0x3AC JUMP JUMPDEST SWAP6 SWAP5 POP POP POP POP POP JUMP JUMPDEST PUSH1 0x1 PUSH1 0x0 SSTORE JUMP JUMPDEST DUP2 PUSH2 0x3A8 JUMPI PUSH2 0x3A8 DUP2 PUSH2 0x3D2 JUMP JUMPDEST POP POP JUMP JUMPDEST PUSH1 0x60 DUP3 ISZERO PUSH2 0x3BB JUMPI POP DUP1 PUSH2 0x266 JUMP JUMPDEST DUP2 MLOAD ISZERO PUSH2 0x3CB JUMPI DUP2 MLOAD DUP1 DUP4 PUSH1 0x20 ADD REVERT JUMPDEST PUSH2 0x266 PUSH2 0x1AE JUMPDEST PUSH2 0x3FC DUP2 PUSH32 0x42414C0000000000000000000000000000000000000000000000000000000000 PUSH2 0x3FF JUMP JUMPDEST POP JUMP JUMPDEST PUSH32 0x8C379A000000000000000000000000000000000000000000000000000000000 PUSH1 0x0 SWAP1 DUP2 MSTORE PUSH1 0x20 PUSH1 0x4 MSTORE PUSH1 0x7 PUSH1 0x24 MSTORE PUSH1 0xA DUP1 DUP5 DIV DUP2 DUP2 MOD PUSH1 0x30 SWAP1 DUP2 ADD PUSH1 0x8 SHL SWAP6 DUP4 SWAP1 MOD SWAP6 SWAP1 SWAP6 ADD SWAP1 DUP3 SWAP1 DIV SWAP2 DUP3 MOD DUP6 ADD PUSH1 0x10 SHL ADD PUSH1 0x23 PUSH4 0xFFFFFF00 PUSH1 0xE0 DUP7 SWAP1 SHR AND ADD PUSH1 0x18 SHL ADD SWAP1 SWAP4 ADD PUSH1 0xC8 SHL PUSH1 0x44 MSTORE PUSH1 0xE8 DUP3 SWAP1 SHR SWAP1 PUSH1 0x64 SWAP1 REVERT INVALID LOG2 PUSH5 0x6970667358 0x22 SLT KECCAK256 0x2C 0xAB DUP12 0xC2 CALLDATASIZE KECCAK256 MSTORE 0xD2 PUSH14 0x734D8E96BF55D57652F71D5C18BA 0xD7 0x25 BYTE INVALID 0xAE DUP2 JUMPI 0xD1 PUSH28 0x64736F6C634300070100330000000000000000000000000000000000 "},"methodIdentifiers":{"CHANGE_ROOT_DELAY()":"7217d9d1","DEFAULT_ADMIN_ROLE()":"a217fddf","EVERYWHERE()":"62cde1ba","GENERAL_PERMISSION_SPECIFIER()":"fc78a228","executeDelays()":"3c44172d","finalizeMigration()":"b78b6087","newAuthorizer()":"a0c286d8","oldAuthorizer()":"c6bfe9ae","root()":"ebf0c717","rootChangeExecutionId()":"98f85d5c","startRootTransfer()":"11f13145","vault()":"fbfa77cf"}}}}}