{"@balancer-labs/v2-vault/contracts/authorizer/TimelockExecutor.sol":{"TimelockExecutor":{"abi":[{"inputs":[],"stateMutability":"nonpayable","type":"constructor"},{"inputs":[],"name":"authorizer","outputs":[{"internalType":"contract TimelockAuthorizer","name":"","type":"address"}],"stateMutability":"view","type":"function"},{"inputs":[{"internalType":"address","name":"target","type":"address"},{"internalType":"bytes","name":"data","type":"bytes"}],"name":"execute","outputs":[{"internalType":"bytes","name":"result","type":"bytes"}],"stateMutability":"nonpayable","type":"function"}],"evm":{"bytecode":{"linkReferences":{},"object":"60a060405234801561001057600080fd5b5060016000553360601b60805260805160601c6104b061003f600039806101c6528061026e52506104b06000f3fe608060405234801561001057600080fd5b50600436106100365760003560e01c80631cff79cd1461003b578063d09edf3114610173575b600080fd5b6100fe6004803603604081101561005157600080fd5b73ffffffffffffffffffffffffffffffffffffffff823516919081019060408101602082013564010000000081111561008957600080fd5b82018360208201111561009b57600080fd5b803590602001918460018302840111640100000000831117156100bd57600080fd5b91908080601f0160208091040260200160405190810160405280939291908181526020018383808284376000920191909152509295506101a4945050505050565b6040805160208082528351818301528351919283929083019185019080838360005b83811015610138578181015183820152602001610120565b50505050905090810190601f1680156101655780820380516001836020036101000a031916815260200191505b509250505060405180910390f35b61017b61026c565b6040805173ffffffffffffffffffffffffffffffffffffffff9092168252519081900360200190f35b60606101ae610290565b3373ffffffffffffffffffffffffffffffffffffffff7f0000000000000000000000000000000000000000000000000000000000000000161461025257604080517f08c379a000000000000000000000000000000000000000000000000000000000815260206004820152601960248201527f4552525f53454e4445525f4e4f545f415554484f52495a455200000000000000604482015290519081900360640190fd5b61025c83836102a9565b9050610266610393565b92915050565b7f000000000000000000000000000000000000000000000000000000000000000081565b6102a26002600054141561019061039a565b6002600055565b6060600060608473ffffffffffffffffffffffffffffffffffffffff16846040518082805190602001908083835b6020831061031457805182527fffffffffffffffffffffffffffffffffffffffffffffffffffffffffffffffe090920191602091820191016102d7565b6001836020036101000a0380198251168184511680821785525050505050509050019150506000604051808303816000865af19150503d8060008114610376576040519150601f19603f3d011682016040523d82523d6000602084013e61037b565b606091505b509150915061038a82826103ac565b95945050505050565b6001600055565b816103a8576103a8816103d2565b5050565b606082156103bb575080610266565b8151156103cb5781518083602001fd5b6102666101ae5b6103fc817f42414c00000000000000000000000000000000000000000000000000000000006103ff565b50565b7f08c379a000000000000000000000000000000000000000000000000000000000600090815260206004526007602452600a808404818106603090810160081b958390069590950190829004918206850160101b01602363ffffff0060e086901c160160181b0190930160c81b60445260e882901c90606490fdfea26469706673582212202cab8bc2362052d26d734d8e96bf55d57652f71d5c18bad7251afeae8157d17b64736f6c63430007010033","opcodes":"PUSH1 0xA0 PUSH1 0x40 MSTORE CALLVALUE DUP1 ISZERO PUSH2 0x10 JUMPI PUSH1 0x0 DUP1 REVERT JUMPDEST POP PUSH1 0x1 PUSH1 0x0 SSTORE CALLER PUSH1 0x60 SHL PUSH1 0x80 MSTORE PUSH1 0x80 MLOAD PUSH1 0x60 SHR PUSH2 0x4B0 PUSH2 0x3F PUSH1 0x0 CODECOPY DUP1 PUSH2 0x1C6 MSTORE DUP1 PUSH2 0x26E MSTORE POP PUSH2 0x4B0 PUSH1 0x0 RETURN INVALID PUSH1 0x80 PUSH1 0x40 MSTORE CALLVALUE DUP1 ISZERO PUSH2 0x10 JUMPI PUSH1 0x0 DUP1 REVERT JUMPDEST POP PUSH1 0x4 CALLDATASIZE LT PUSH2 0x36 JUMPI PUSH1 0x0 CALLDATALOAD PUSH1 0xE0 SHR DUP1 PUSH4 0x1CFF79CD EQ PUSH2 0x3B JUMPI DUP1 PUSH4 0xD09EDF31 EQ PUSH2 0x173 JUMPI JUMPDEST PUSH1 0x0 DUP1 REVERT JUMPDEST PUSH2 0xFE PUSH1 0x4 DUP1 CALLDATASIZE SUB PUSH1 0x40 DUP2 LT ISZERO PUSH2 0x51 JUMPI PUSH1 0x0 DUP1 REVERT JUMPDEST PUSH20 0xFFFFFFFFFFFFFFFFFFFFFFFFFFFFFFFFFFFFFFFF DUP3 CALLDATALOAD AND SWAP2 SWAP1 DUP2 ADD SWAP1 PUSH1 0x40 DUP2 ADD PUSH1 0x20 DUP3 ADD CALLDATALOAD PUSH5 0x100000000 DUP2 GT ISZERO PUSH2 0x89 JUMPI PUSH1 0x0 DUP1 REVERT JUMPDEST DUP3 ADD DUP4 PUSH1 0x20 DUP3 ADD GT ISZERO PUSH2 0x9B JUMPI PUSH1 0x0 DUP1 REVERT JUMPDEST DUP1 CALLDATALOAD SWAP1 PUSH1 0x20 ADD SWAP2 DUP5 PUSH1 0x1 DUP4 MUL DUP5 ADD GT PUSH5 0x100000000 DUP4 GT OR ISZERO PUSH2 0xBD JUMPI PUSH1 0x0 DUP1 REVERT JUMPDEST SWAP2 SWAP1 DUP1 DUP1 PUSH1 0x1F ADD PUSH1 0x20 DUP1 SWAP2 DIV MUL PUSH1 0x20 ADD PUSH1 0x40 MLOAD SWAP1 DUP2 ADD PUSH1 0x40 MSTORE DUP1 SWAP4 SWAP3 SWAP2 SWAP1 DUP2 DUP2 MSTORE PUSH1 0x20 ADD DUP4 DUP4 DUP1 DUP3 DUP5 CALLDATACOPY PUSH1 0x0 SWAP3 ADD SWAP2 SWAP1 SWAP2 MSTORE POP SWAP3 SWAP6 POP PUSH2 0x1A4 SWAP5 POP POP POP POP POP JUMP JUMPDEST PUSH1 0x40 DUP1 MLOAD PUSH1 0x20 DUP1 DUP3 MSTORE DUP4 MLOAD DUP2 DUP4 ADD MSTORE DUP4 MLOAD SWAP2 SWAP3 DUP4 SWAP3 SWAP1 DUP4 ADD SWAP2 DUP6 ADD SWAP1 DUP1 DUP4 DUP4 PUSH1 0x0 JUMPDEST DUP4 DUP2 LT ISZERO PUSH2 0x138 JUMPI DUP2 DUP2 ADD MLOAD DUP4 DUP3 ADD MSTORE PUSH1 0x20 ADD PUSH2 0x120 JUMP JUMPDEST POP POP POP POP SWAP1 POP SWAP1 DUP2 ADD SWAP1 PUSH1 0x1F AND DUP1 ISZERO PUSH2 0x165 JUMPI DUP1 DUP3 SUB DUP1 MLOAD PUSH1 0x1 DUP4 PUSH1 0x20 SUB PUSH2 0x100 EXP SUB NOT AND DUP2 MSTORE PUSH1 0x20 ADD SWAP2 POP JUMPDEST POP SWAP3 POP POP POP PUSH1 0x40 MLOAD DUP1 SWAP2 SUB SWAP1 RETURN JUMPDEST PUSH2 0x17B PUSH2 0x26C JUMP JUMPDEST PUSH1 0x40 DUP1 MLOAD PUSH20 0xFFFFFFFFFFFFFFFFFFFFFFFFFFFFFFFFFFFFFFFF SWAP1 SWAP3 AND DUP3 MSTORE MLOAD SWAP1 DUP2 SWAP1 SUB PUSH1 0x20 ADD SWAP1 RETURN JUMPDEST PUSH1 0x60 PUSH2 0x1AE PUSH2 0x290 JUMP JUMPDEST CALLER PUSH20 0xFFFFFFFFFFFFFFFFFFFFFFFFFFFFFFFFFFFFFFFF PUSH32 0x0 AND EQ PUSH2 0x252 JUMPI PUSH1 0x40 DUP1 MLOAD PUSH32 0x8C379A000000000000000000000000000000000000000000000000000000000 DUP2 MSTORE PUSH1 0x20 PUSH1 0x4 DUP3 ADD MSTORE PUSH1 0x19 PUSH1 0x24 DUP3 ADD MSTORE PUSH32 0x4552525F53454E4445525F4E4F545F415554484F52495A455200000000000000 PUSH1 0x44 DUP3 ADD MSTORE SWAP1 MLOAD SWAP1 DUP2 SWAP1 SUB PUSH1 0x64 ADD SWAP1 REVERT JUMPDEST PUSH2 0x25C DUP4 DUP4 PUSH2 0x2A9 JUMP JUMPDEST SWAP1 POP PUSH2 0x266 PUSH2 0x393 JUMP JUMPDEST SWAP3 SWAP2 POP POP JUMP JUMPDEST PUSH32 0x0 DUP2 JUMP JUMPDEST PUSH2 0x2A2 PUSH1 0x2 PUSH1 0x0 SLOAD EQ ISZERO PUSH2 0x190 PUSH2 0x39A JUMP JUMPDEST PUSH1 0x2 PUSH1 0x0 SSTORE JUMP JUMPDEST PUSH1 0x60 PUSH1 0x0 PUSH1 0x60 DUP5 PUSH20 0xFFFFFFFFFFFFFFFFFFFFFFFFFFFFFFFFFFFFFFFF AND DUP5 PUSH1 0x40 MLOAD DUP1 DUP3 DUP1 MLOAD SWAP1 PUSH1 0x20 ADD SWAP1 DUP1 DUP4 DUP4 JUMPDEST PUSH1 0x20 DUP4 LT PUSH2 0x314 JUMPI DUP1 MLOAD DUP3 MSTORE PUSH32 0xFFFFFFFFFFFFFFFFFFFFFFFFFFFFFFFFFFFFFFFFFFFFFFFFFFFFFFFFFFFFFFE0 SWAP1 SWAP3 ADD SWAP2 PUSH1 0x20 SWAP2 DUP3 ADD SWAP2 ADD PUSH2 0x2D7 JUMP JUMPDEST PUSH1 0x1 DUP4 PUSH1 0x20 SUB PUSH2 0x100 EXP SUB DUP1 NOT DUP3 MLOAD AND DUP2 DUP5 MLOAD AND DUP1 DUP3 OR DUP6 MSTORE POP POP POP POP POP POP SWAP1 POP ADD SWAP2 POP POP PUSH1 0x0 PUSH1 0x40 MLOAD DUP1 DUP4 SUB DUP2 PUSH1 0x0 DUP7 GAS CALL SWAP2 POP POP RETURNDATASIZE DUP1 PUSH1 0x0 DUP2 EQ PUSH2 0x376 JUMPI PUSH1 0x40 MLOAD SWAP2 POP PUSH1 0x1F NOT PUSH1 0x3F RETURNDATASIZE ADD AND DUP3 ADD PUSH1 0x40 MSTORE RETURNDATASIZE DUP3 MSTORE RETURNDATASIZE PUSH1 0x0 PUSH1 0x20 DUP5 ADD RETURNDATACOPY PUSH2 0x37B JUMP JUMPDEST PUSH1 0x60 SWAP2 POP JUMPDEST POP SWAP2 POP SWAP2 POP PUSH2 0x38A DUP3 DUP3 PUSH2 0x3AC JUMP JUMPDEST SWAP6 SWAP5 POP POP POP POP POP JUMP JUMPDEST PUSH1 0x1 PUSH1 0x0 SSTORE JUMP JUMPDEST DUP2 PUSH2 0x3A8 JUMPI PUSH2 0x3A8 DUP2 PUSH2 0x3D2 JUMP JUMPDEST POP POP JUMP JUMPDEST PUSH1 0x60 DUP3 ISZERO PUSH2 0x3BB JUMPI POP DUP1 PUSH2 0x266 JUMP JUMPDEST DUP2 MLOAD ISZERO PUSH2 0x3CB JUMPI DUP2 MLOAD DUP1 DUP4 PUSH1 0x20 ADD REVERT JUMPDEST PUSH2 0x266 PUSH2 0x1AE JUMPDEST PUSH2 0x3FC DUP2 PUSH32 0x42414C0000000000000000000000000000000000000000000000000000000000 PUSH2 0x3FF JUMP JUMPDEST POP JUMP JUMPDEST PUSH32 0x8C379A000000000000000000000000000000000000000000000000000000000 PUSH1 0x0 SWAP1 DUP2 MSTORE PUSH1 0x20 PUSH1 0x4 MSTORE PUSH1 0x7 PUSH1 0x24 MSTORE PUSH1 0xA DUP1 DUP5 DIV DUP2 DUP2 MOD PUSH1 0x30 SWAP1 DUP2 ADD PUSH1 0x8 SHL SWAP6 DUP4 SWAP1 MOD SWAP6 SWAP1 SWAP6 ADD SWAP1 DUP3 SWAP1 DIV SWAP2 DUP3 MOD DUP6 ADD PUSH1 0x10 SHL ADD PUSH1 0x23 PUSH4 0xFFFFFF00 PUSH1 0xE0 DUP7 SWAP1 SHR AND ADD PUSH1 0x18 SHL ADD SWAP1 SWAP4 ADD PUSH1 0xC8 SHL PUSH1 0x44 MSTORE PUSH1 0xE8 DUP3 SWAP1 SHR SWAP1 PUSH1 0x64 SWAP1 REVERT INVALID LOG2 PUSH5 0x6970667358 0x22 SLT KECCAK256 0x2C 0xAB DUP12 0xC2 CALLDATASIZE KECCAK256 MSTORE 0xD2 PUSH14 0x734D8E96BF55D57652F71D5C18BA 0xD7 0x25 BYTE INVALID 0xAE DUP2 JUMPI 0xD1 PUSH28 0x64736F6C634300070100330000000000000000000000000000000000 "},"methodIdentifiers":{"authorizer()":"d09edf31","execute(address,bytes)":"1cff79cd"}}}}}