{
  "address": "0x30306e9e51A3C9a3536F04afF27e175eb3B5a542",
  "abi": [
    {
      "inputs": [],
      "stateMutability": "nonpayable",
      "type": "constructor"
    },
    {
      "anonymous": false,
      "inputs": [
        {
          "indexed": true,
          "internalType": "address",
          "name": "strategy",
          "type": "address"
        }
      ],
      "name": "StrategyCreated",
      "type": "event"
    },
    {
      "inputs": [
        {
          "internalType": "contract IERC20[]",
          "name": "tokens",
          "type": "address[]"
        },
        {
          "internalType": "uint256[]",
          "name": "weights",
          "type": "uint256[]"
        },
        {
          "internalType": "uint256",
          "name": "swapFee",
          "type": "uint256"
        }
      ],
      "name": "create",
      "outputs": [
        {
          "internalType": "address",
          "name": "",
          "type": "address"
        }
      ],
      "stateMutability": "nonpayable",
      "type": "function"
    },
    {
      "inputs": [
        {
          "internalType": "uint256",
          "name": "start",
          "type": "uint256"
        },
        {
          "internalType": "uint256",
          "name": "end",
          "type": "uint256"
        }
      ],
      "name": "getStrategies",
      "outputs": [
        {
          "internalType": "address[]",
          "name": "",
          "type": "address[]"
        }
      ],
      "stateMutability": "view",
      "type": "function"
    },
    {
      "inputs": [],
      "name": "getTotalStrategies",
      "outputs": [
        {
          "internalType": "uint256",
          "name": "",
          "type": "uint256"
        }
      ],
      "stateMutability": "view",
      "type": "function"
    }
  ],
  "transactionHash": "0xa6b0a1655fba84600e7bfdf8a83e98b3b36bf2d1899e7dbf1acbf632e687669b",
  "args": [],
  "solcInputHash": "504bf543ad5b721944fd65074dc0f29f",
  "bytecode": "0x608060405234801561001057600080fd5b5061286c806100206000396000f3fe60806040523480156200001157600080fd5b5060043610620000465760003560e01c806399fe7396146200004b578063ac893d90146200006d578063f7cff1331462000093575b600080fd5b62000055620000b9565b604051620000649190620008d0565b60405180910390f35b620000846200007e3660046200062b565b620000cc565b604051620000649190620006ea565b620000aa620000a436600462000552565b620001b1565b604051620000649190620006d6565b6000620000c76000620002e0565b905090565b6060828210158015620000ec5750620000e66000620002e0565b83830311155b620001145760405162461bcd60e51b81526004016200010b9062000874565b60405180910390fd5b60608383036001600160401b03811180156200012f57600080fd5b506040519080825280602002602001820160405280156200015a578160200160208202803683370190505b50905060005b8151811015620001a757620001796000828701620002ed565b8282815181106200018657fe5b6001600160a01b039092166020928302919091019091015260010162000160565b5090505b92915050565b6000606060405180602001620001c790620004ce565b601f1982820381018352601f909101166040819052620001f09087908790879060200162000739565b60408051601f1981840301815290829052620002109291602001620006bd565b60405160208183030381529060405290506000620002396000801b8380519060200120620002fb565b90506200024f816001600160a01b03166200030a565b156200025f579150620002d99050565b60006200026e81808562000347565b9050816001600160a01b0316816001600160a01b0316146200028c57fe5b62000299600082620003c2565b506040516001600160a01b038216907fbe69a8909bf54ab6b33b6090045cf72cb4832fe592c189d7cb21504b38ec2d1590600090a29250620002d9915050565b9392505050565b6000620001ab82620003d9565b6000620002d98383620003dd565b6000620002d983833062000426565b6000813f7fc5d2460186f7233c927e7db2dcc703c0e500b653ca82273b7bfad8045d85a4708181148015906200033f57508115155b949350505050565b600080844710156200036d5760405162461bcd60e51b81526004016200010b9062000899565b82516200038e5760405162461bcd60e51b81526004016200010b906200080c565b8383516020850187f590506001600160a01b0381166200033f5760405162461bcd60e51b81526004016200010b9062000841565b6000620002d9836001600160a01b03841662000467565b5490565b81546000908210620004035760405162461bcd60e51b81526004016200010b90620007ca565b8260000182815481106200041357fe5b9060005260206000200154905092915050565b60008060ff60f81b83868660405160200162000446949392919062000689565b60408051808303601f19018152919052805160209091012095945050505050565b6000620004758383620004b6565b620004ad57508154600181810184556000848152602080822090930184905584548482528286019093526040902091909155620001ab565b506000620001ab565b60009081526001919091016020526040902054151590565b611ef1806200094683390190565b600082601f830112620004ed578081fd5b813562000504620004fe8262000900565b620008d9565b8181529150602080830190848101818402860182018710156200052657600080fd5b60005b84811015620005475781358452928201929082019060010162000529565b505050505092915050565b60008060006060848603121562000567578283fd5b83356001600160401b03808211156200057e578485fd5b818601915086601f83011262000592578485fd5b8135620005a3620004fe8262000900565b80828252602080830192508086018b828387028901011115620005c457898afd5b8996505b84871015620005f3578035620005de816200092c565b845260019690960195928101928101620005c8565b5090975088013593505050808211156200060b578384fd5b506200061a86828701620004dc565b925050604084013590509250925092565b600080604083850312156200063e578182fd5b50508035926020909101359150565b60008151815b818110156200066f576020818501810151868301520162000653565b818111156200067e5782828601525b509290920192915050565b6001600160f81b031994909416845260609290921b6001600160601b03191660018401526015830152603582015260550190565b60006200033f620006cf83866200064d565b846200064d565b6001600160a01b0391909116815260200190565b6020808252825182820181905260009190848201906040850190845b818110156200072d5783516001600160a01b03168352928401929184019160010162000706565b50909695505050505050565b606080825284519082018190526000906020906080840190828801845b828110156200077e576200076b825162000920565b8452928401929084019060010162000756565b50505083810382850152855180825286830191830190845b81811015620007b45783518352928401929184019160010162000796565b5050809350505050826040830152949350505050565b60208082526022908201527f456e756d657261626c655365743a20696e646578206f7574206f6620626f756e604082015261647360f01b606082015260800190565b6020808252818101527f437265617465323a2062797465636f6465206c656e677468206973207a65726f604082015260600190565b602080825260199082015278437265617465323a204661696c6564206f6e206465706c6f7960381b604082015260600190565b6020808252600b908201526a42616420696e646963657360a81b604082015260600190565b6020808252601d908201527f437265617465323a20696e73756666696369656e742062616c616e6365000000604082015260600190565b90815260200190565b6040518181016001600160401b0381118282101715620008f857600080fd5b604052919050565b60006001600160401b0382111562000916578081fd5b5060209081020190565b6001600160a01b031690565b6001600160a01b03811681146200094257600080fd5b5056fe6104c06040523480156200001257600080fd5b5060405162001ef138038062001ef1833981016040819052620000359162000807565b62000044565b60405180910390fd5b67016345785d8a00008111156200006f5760405162461bcd60e51b81526004016200003b9062000932565b6080819052825160021115620000995760405162461bcd60e51b81526004016200003b906200097f565b825160101015620000be5760405162461bcd60e51b81526004016200003b90620008e0565b8151835114620000e25760405162461bcd60e51b81526004016200003b9062000908565b60005b83518160ff1610156200013957600160ff16838260ff16815181106200010757fe5b60200260200101511015620001305760405162461bcd60e51b81526004016200003b9062000957565b600101620000e5565b508251806200014a57600062000161565b836000815181106200015857fe5b60200260200101515b60601b6001600160601b03191660c052600181116200018257600062000199565b836001815181106200019057fe5b60200260200101515b60601b6001600160601b03191660e05260028111620001ba576000620001d1565b83600281518110620001c857fe5b60200260200101515b60601b6001600160601b0319166101005260038111620001f35760006200020a565b836003815181106200020157fe5b60200260200101515b60601b6001600160601b03191661012052600481116200022c57600062000243565b836004815181106200023a57fe5b60200260200101515b60601b6001600160601b0319166101405260058111620002655760006200027c565b836005815181106200027357fe5b60200260200101515b60601b6001600160601b03191661016052600681116200029e576000620002b5565b83600681518110620002ac57fe5b60200260200101515b60601b6001600160601b0319166101805260078111620002d7576000620002ee565b83600781518110620002e557fe5b60200260200101515b60601b6001600160601b0319166101a052600881116200031057600062000327565b836008815181106200031e57fe5b60200260200101515b60601b6001600160601b0319166101c052600981116200034957600062000360565b836009815181106200035757fe5b60200260200101515b60601b6001600160601b0319166101e052600a81116200038257600062000399565b83600a815181106200039057fe5b60200260200101515b60601b6001600160601b03191661020052600b8111620003bb576000620003d2565b83600b81518110620003c957fe5b60200260200101515b60601b6001600160601b03191661022052600c8111620003f45760006200040b565b83600c815181106200040257fe5b60200260200101515b60601b6001600160601b03191661024052600d81116200042d57600062000444565b83600d815181106200043b57fe5b60200260200101515b60601b6001600160601b03191661026052600e8111620004665760006200047d565b83600e815181106200047457fe5b60200260200101515b60601b6001600160601b03191661028052600f81116200049f576000620004b6565b83600f81518110620004ad57fe5b60200260200101515b60601b6001600160601b0319166102a05280620004d5576000620004ec565b82600081518110620004e357fe5b60200260200101515b6102c052600181116200050157600062000518565b826001815181106200050f57fe5b60200260200101515b6102e052600281116200052d57600062000544565b826002815181106200053b57fe5b60200260200101515b61030052600381116200055957600062000570565b826003815181106200056757fe5b60200260200101515b6103205260048111620005855760006200059c565b826004815181106200059357fe5b60200260200101515b6103405260058111620005b1576000620005c8565b82600581518110620005bf57fe5b60200260200101515b6103605260068111620005dd576000620005f4565b82600681518110620005eb57fe5b60200260200101515b61038052600781116200060957600062000620565b826007815181106200061757fe5b60200260200101515b6103a05260088111620006355760006200064c565b826008815181106200064357fe5b60200260200101515b6103c052600981116200066157600062000678565b826009815181106200066f57fe5b60200260200101515b6103e052600a81116200068d576000620006a4565b82600a815181106200069b57fe5b60200260200101515b61040052600b8111620006b9576000620006d0565b82600b81518110620006c757fe5b60200260200101515b61042052600c8111620006e5576000620006fc565b82600c81518110620006f357fe5b60200260200101515b61044052600d81116200071157600062000728565b82600d815181106200071f57fe5b60200260200101515b61046052600e81116200073d57600062000754565b82600e815181106200074b57fe5b60200260200101515b61048052600f81116200076957600062000780565b82600f815181106200077757fe5b60200260200101515b6104a05260a0525062000a07915050565b600082601f830112620007a2578081fd5b8151620007b9620007b382620009ce565b620009a7565b818152915060208083019084810181840286018201871015620007db57600080fd5b60005b84811015620007fc57815184529282019290820190600101620007de565b505050505092915050565b6000806000606084860312156200081c578283fd5b83516001600160401b038082111562000833578485fd5b818601915086601f83011262000847578485fd5b815162000858620007b382620009ce565b80828252602080830192508086018b8283870289010111156200087957898afd5b8996505b84871015620008a85780516200089381620009ee565b8452600196909601959281019281016200087d565b508901519097509350505080821115620008c0578384fd5b50620008cf8682870162000791565b925050604084015190509250925092565b6020808252600e908201526d4552525f4d41585f544f4b454e5360901b604082015260600190565b60208082526010908201526f11549497d5d15251d21514d7d31254d560821b604082015260600190565b6020808252600b908201526a4552525f4d41585f46454560a81b604082015260600190565b6020808252600e908201526d11549497d3525397d5d15251d21560921b604082015260600190565b6020808252600e908201526d4552525f4d494e5f544f4b454e5360901b604082015260600190565b6040518181016001600160401b0381118282101715620009c657600080fd5b604052919050565b60006001600160401b03821115620009e4578081fd5b5060209081020190565b6001600160a01b038116811462000a0457600080fd5b50565b60805160a05160c05160601c60e05160601c6101005160601c6101205160601c6101405160601c6101605160601c6101805160601c6101a05160601c6101c05160601c6101e05160601c6102005160601c6102205160601c6102405160601c6102605160601c6102805160601c6102a05160601c6102c0516102e05161030051610320516103405161036051610380516103a0516103c0516103e05161040051610420516104405161046051610480516104a05161134e62000ba36000398061081a5250806107b95250806107585250806106f75250806106965250806106355250806105d45250806105735250806105125250806104b15250806104505250806103ef52508061038e52508061032d5250806102cc52508061026b5250806107df52508061077e52508061071d5250806106bc52508061065b5250806105fa5250806105995250806105385250806104d75250806104765250806104155250806103b45250806103535250806102f252508061029152508061023052508061088d525080610194528061086952806108c1525061134e6000f3fe608060405234801561001057600080fd5b506004361061008e5760003560e01c80631965e18314610093578063218b5382146100b157806376c7a3c7146100b95780637ee65e53146100ce578063ac6c5251146100ef578063bc063e1a14610102578063d4cadf681461010a578063f08b82e614610112578063f47c84c51461011a578063f9ddfe3e14610122575b600080fd5b61009b610135565b6040516100a8919061130a565b60405180910390f35b61009b61013a565b6100c161013f565b6040516100a89190611301565b6100e16100dc3660046110d8565b610144565b6040516100a89291906112e7565b6100c16100fd366004611054565b6101fd565b6100c161085b565b6100c1610867565b6100c161088b565b61009b6108af565b6100e161013036600461107b565b6108b4565b600281565b600181565b600081565b600080806101858561015c6100fd60208a018a611054565b866101706100fd60408c0160208d01611054565b61018060608c0160408d01611101565b61096b565b905060006101d76101c76101b87f00000000000000000000000000000000000000000000000000000000000000006109ef565b670de0b6b3a764000090610a18565b6001600160801b03841690610a53565b905060006101ee6001600160801b03831684610a18565b91989197509095505050505050565b60006001600160a01b03821661022e5760405162461bcd60e51b8152600401610225906111ea565b60405180910390fd5b7f00000000000000000000000000000000000000000000000000000000000000006001600160a01b0316826001600160a01b0316141561028f57507f0000000000000000000000000000000000000000000000000000000000000000610856565b7f00000000000000000000000000000000000000000000000000000000000000006001600160a01b0316826001600160a01b031614156102f057507f0000000000000000000000000000000000000000000000000000000000000000610856565b7f00000000000000000000000000000000000000000000000000000000000000006001600160a01b0316826001600160a01b0316141561035157507f0000000000000000000000000000000000000000000000000000000000000000610856565b7f00000000000000000000000000000000000000000000000000000000000000006001600160a01b0316826001600160a01b031614156103b257507f0000000000000000000000000000000000000000000000000000000000000000610856565b7f00000000000000000000000000000000000000000000000000000000000000006001600160a01b0316826001600160a01b0316141561041357507f0000000000000000000000000000000000000000000000000000000000000000610856565b7f00000000000000000000000000000000000000000000000000000000000000006001600160a01b0316826001600160a01b0316141561047457507f0000000000000000000000000000000000000000000000000000000000000000610856565b7f00000000000000000000000000000000000000000000000000000000000000006001600160a01b0316826001600160a01b031614156104d557507f0000000000000000000000000000000000000000000000000000000000000000610856565b7f00000000000000000000000000000000000000000000000000000000000000006001600160a01b0316826001600160a01b0316141561053657507f0000000000000000000000000000000000000000000000000000000000000000610856565b7f00000000000000000000000000000000000000000000000000000000000000006001600160a01b0316826001600160a01b0316141561059757507f0000000000000000000000000000000000000000000000000000000000000000610856565b7f00000000000000000000000000000000000000000000000000000000000000006001600160a01b0316826001600160a01b031614156105f857507f0000000000000000000000000000000000000000000000000000000000000000610856565b7f00000000000000000000000000000000000000000000000000000000000000006001600160a01b0316826001600160a01b0316141561065957507f0000000000000000000000000000000000000000000000000000000000000000610856565b7f00000000000000000000000000000000000000000000000000000000000000006001600160a01b0316826001600160a01b031614156106ba57507f0000000000000000000000000000000000000000000000000000000000000000610856565b7f00000000000000000000000000000000000000000000000000000000000000006001600160a01b0316826001600160a01b0316141561071b57507f0000000000000000000000000000000000000000000000000000000000000000610856565b7f00000000000000000000000000000000000000000000000000000000000000006001600160a01b0316826001600160a01b0316141561077c57507f0000000000000000000000000000000000000000000000000000000000000000610856565b7f00000000000000000000000000000000000000000000000000000000000000006001600160a01b0316826001600160a01b031614156107dd57507f0000000000000000000000000000000000000000000000000000000000000000610856565b7f00000000000000000000000000000000000000000000000000000000000000006001600160a01b0316826001600160a01b0316141561083e57507f0000000000000000000000000000000000000000000000000000000000000000610856565b60405162461bcd60e51b8152600401610225906112bc565b919050565b67016345785d8a000081565b7f000000000000000000000000000000000000000000000000000000000000000090565b7f000000000000000000000000000000000000000000000000000000000000000090565b601081565b60008060006109046108e57f00000000000000000000000000000000000000000000000000000000000000006109ef565b6108f56060890160408a01611101565b6001600160801b031690610b4a565b9050600061092b8261091c60608a0160408b01611101565b6001600160801b031690610a18565b9050600061095d876109436100fd60208c018c611054565b886109576100fd60408e0160208f01611054565b86610bfe565b989297509195505050505050565b6000806109976109876001600160801b03878116908616610c70565b6001600160801b03871690610c7f565b905060006109a58588610c7f565b905060006109c5670de0b6b3a76400006109bf8585610d13565b90610c70565b90506109e26109dd6001600160801b038b1683610dc6565b6109ef565b9998505050505050505050565b6000600160801b8210610a145760405162461bcd60e51b81526004016102259061114a565b5090565b6000806000610a278585610e38565b915091508015610a495760405162461bcd60e51b815260040161022590611267565b5090505b92915050565b60006001600160801b038216610a7b5760405162461bcd60e51b815260040161022590611241565b670de0b6b3a764000083026001600160801b0384161580610ac15750670de0b6b3a76400006001600160801b0385811690831681610ab557fe5b046001600160801b0316145b610add5760405162461bcd60e51b815260040161022590611191565b600060026001600160801b0385160482019050816001600160801b0316816001600160801b03161015610b225760405162461bcd60e51b815260040161022590611191565b6000846001600160801b0316826001600160801b031681610b3f57fe5b049695505050505050565b60008282026001600160801b0384161580610b915750826001600160801b0316846001600160801b0316826001600160801b031681610b8557fe5b046001600160801b0316145b610bad5760405162461bcd60e51b815260040161022590611217565b6706f05b59d3b2000081016001600160801b038083169082161015610be45760405162461bcd60e51b815260040161022590611217565b6000670de0b6b3a76400006001600160801b038316610b3f565b600080610c2a610c1a6001600160801b03898116908616610e6f565b6001600160801b03891690610c7f565b90506000610c388786610c7f565b90506000610c58610c498484610d13565b670de0b6b3a764000090610c70565b90506109e26109dd6001600160801b03891683610dc6565b6000806000610a278585610e9b565b600081610c9e5760405162461bcd60e51b815260040161022590611241565b670de0b6b3a76400008302831580610cc65750670de0b6b3a7640000848281610cc357fe5b04145b610ce25760405162461bcd60e51b815260040161022590611191565b60028304810181811015610d085760405162461bcd60e51b815260040161022590611191565b6000848281610b3f57fe5b60006001831015610d365760405162461bcd60e51b81526004016102259061111c565b671bc16d674ec7ffff831115610d5e5760405162461bcd60e51b8152600401610225906111bb565b6000610d6983610eb1565b90506000610d778483610c70565b90506000610d8d86610d8885610ecc565b610eda565b905081610d9e579250610a4d915050565b6000610daf87846305f5e100610f31565b9050610dbb8282610dc6565b979650505050505050565b6000828202831580610de0575082848281610ddd57fe5b04145b610dfc5760405162461bcd60e51b815260040161022590611217565b6706f05b59d3b20000810181811015610e275760405162461bcd60e51b815260040161022590611217565b6000670de0b6b3a764000082610b3f565b600080826001600160801b0316846001600160801b031610610e605750508082036000610e68565b505081810360015b9250929050565b600082820183811015610e945760405162461bcd60e51b815260040161022590611292565b9392505050565b600080828410610e605750508082036000610e68565b6000670de0b6b3a7640000610ec583610ecc565b0292915050565b670de0b6b3a7640000900490565b60008060028306610ef357670de0b6b3a7640000610ef5565b835b90506002830492505b8215610e9457610f0e8485610dc6565b93506002830615610f2657610f238185610dc6565b90505b600283049250610efe565b6000828180610f4887670de0b6b3a7640000610e9b565b9092509050670de0b6b3a764000080600060015b888410611017576000670de0b6b3a76400006001600160801b031682029050600080610fa28a610f9d85670de0b6b3a76400006001600160801b0316610c70565b610e9b565b91509150610fb987610fb4848c610dc6565b610dc6565b9650610fc58784610c7f565b965086610fd457505050611017565b8715610fde579315935b8015610fe8579315935b8415610fff57610ff88688610c70565b955061100c565b6110098688610e6f565b95505b505050600101610f5c565b50909998505050505050505050565b600060e08284031215611037578081fd5b50919050565b80356001600160801b0381168114610a4d57600080fd5b600060208284031215611065578081fd5b81356001600160a01b0381168114610e94578182fd5b60008060006060848603121561108f578182fd5b83356001600160401b038111156110a4578283fd5b6110b086828701611026565b9350506110c0856020860161103d565b91506110cf856040860161103d565b90509250925092565b6000806000606084860312156110ec578283fd5b83356001600160401b038111156110a4578384fd5b600060208284031215611112578081fd5b610e94838361103d565b6020808252601490820152734552525f504f575f424153455f544f4f5f4c4f5760601b604082015260600190565b60208082526027908201527f53616665436173743a2076616c756520646f65736e27742066697420696e20316040820152663238206269747360c81b606082015260800190565b60208082526010908201526f11549497d1125597d25395115493905360821b604082015260600190565b60208082526015908201527408aa4a4bea09eaebe8482a68abea89e9ebe90928e9605b1b604082015260600190565b6020808252601390820152724552525f494e56414c49445f4144445245535360681b604082015260600190565b60208082526010908201526f4552525f4d554c5f4f564552464c4f5760801b604082015260600190565b6020808252600c908201526b4552525f4449565f5a45524f60a01b604082015260600190565b6020808252601190820152704552525f5355425f554e444552464c4f5760781b604082015260600190565b60208082526010908201526f4552525f4144445f4f564552464c4f5760801b604082015260600190565b60208082526011908201527022a9292fa4a72b20a624a22faa27a5a2a760791b604082015260600190565b6001600160801b0392831681529116602082015260400190565b90815260200190565b60ff9190911681526020019056fea26469706673582212207042d5748e97783139d623af341531d5b63f268103fd4f16b9d59bfd88528d1e64736f6c63430007010033a2646970667358221220128d2ffba0136c5e2b080eda9dc3badfffa62672e90394cbdf99b5b22e21db4164736f6c63430007010033",
  "devdoc": {
    "kind": "dev",
    "methods": {},
    "version": 1
  },
  "userdoc": {
    "kind": "user",
    "methods": {},
    "version": 1
  },
  "storageLayout": {
    "storage": [
      {
        "astId": 6290,
        "contract": "contracts/strategies/factories/CWPFactory.sol:CWPFactory",
        "label": "_weightedProdStrategies",
        "offset": 0,
        "slot": "0",
        "type": "t_struct(AddressSet)12542_storage"
      }
    ],
    "types": {
      "t_array(t_bytes32)dyn_storage": {
        "base": "t_bytes32",
        "encoding": "dynamic_array",
        "label": "bytes32[]",
        "numberOfBytes": "32"
      },
      "t_bytes32": {
        "encoding": "inplace",
        "label": "bytes32",
        "numberOfBytes": "32"
      },
      "t_mapping(t_bytes32,t_uint256)": {
        "encoding": "mapping",
        "key": "t_bytes32",
        "label": "mapping(bytes32 => uint256)",
        "numberOfBytes": "32",
        "value": "t_uint256"
      },
      "t_struct(AddressSet)12542_storage": {
        "encoding": "inplace",
        "label": "struct EnumerableSet.AddressSet",
        "members": [
          {
            "astId": 12541,
            "contract": "contracts/strategies/factories/CWPFactory.sol:CWPFactory",
            "label": "_inner",
            "offset": 0,
            "slot": "0",
            "type": "t_struct(Set)12277_storage"
          }
        ],
        "numberOfBytes": "64"
      },
      "t_struct(Set)12277_storage": {
        "encoding": "inplace",
        "label": "struct EnumerableSet.Set",
        "members": [
          {
            "astId": 12272,
            "contract": "contracts/strategies/factories/CWPFactory.sol:CWPFactory",
            "label": "_values",
            "offset": 0,
            "slot": "0",
            "type": "t_array(t_bytes32)dyn_storage"
          },
          {
            "astId": 12276,
            "contract": "contracts/strategies/factories/CWPFactory.sol:CWPFactory",
            "label": "_indexes",
            "offset": 0,
            "slot": "1",
            "type": "t_mapping(t_bytes32,t_uint256)"
          }
        ],
        "numberOfBytes": "64"
      },
      "t_uint256": {
        "encoding": "inplace",
        "label": "uint256",
        "numberOfBytes": "32"
      }
    }
  }
}