{
  "_format": "hh-sol-artifact-1",
  "contractName": "ArbitrumRootGauge",
  "sourceName": "contracts/gauges/arbitrum/ArbitrumRootGauge.sol",
  "abi": [
    {
      "inputs": [
        {
          "internalType": "contract IBalancerMinter",
          "name": "minter",
          "type": "address"
        },
        {
          "internalType": "contract IGatewayRouter",
          "name": "gatewayRouter",
          "type": "address"
        }
      ],
      "stateMutability": "nonpayable",
      "type": "constructor"
    },
    {
      "anonymous": false,
      "inputs": [
        {
          "indexed": true,
          "internalType": "uint256",
          "name": "periodTime",
          "type": "uint256"
        },
        {
          "indexed": false,
          "internalType": "uint256",
          "name": "periodEmissions",
          "type": "uint256"
        }
      ],
      "name": "Checkpoint",
      "type": "event"
    },
    {
      "anonymous": false,
      "inputs": [
        {
          "indexed": false,
          "internalType": "uint256",
          "name": "new_relative_weight_cap",
          "type": "uint256"
        }
      ],
      "name": "RelativeWeightCapChanged",
      "type": "event"
    },
    {
      "inputs": [],
      "name": "MAX_RELATIVE_WEIGHT_CAP",
      "outputs": [
        {
          "internalType": "uint256",
          "name": "",
          "type": "uint256"
        }
      ],
      "stateMutability": "view",
      "type": "function"
    },
    {
      "inputs": [],
      "name": "checkpoint",
      "outputs": [
        {
          "internalType": "bool",
          "name": "",
          "type": "bool"
        }
      ],
      "stateMutability": "payable",
      "type": "function"
    },
    {
      "inputs": [
        {
          "internalType": "uint256",
          "name": "time",
          "type": "uint256"
        }
      ],
      "name": "getCappedRelativeWeight",
      "outputs": [
        {
          "internalType": "uint256",
          "name": "",
          "type": "uint256"
        }
      ],
      "stateMutability": "view",
      "type": "function"
    },
    {
      "inputs": [],
      "name": "getRecipient",
      "outputs": [
        {
          "internalType": "address",
          "name": "",
          "type": "address"
        }
      ],
      "stateMutability": "view",
      "type": "function"
    },
    {
      "inputs": [],
      "name": "getRelativeWeightCap",
      "outputs": [
        {
          "internalType": "uint256",
          "name": "",
          "type": "uint256"
        }
      ],
      "stateMutability": "view",
      "type": "function"
    },
    {
      "inputs": [],
      "name": "getTotalBridgeCost",
      "outputs": [
        {
          "internalType": "uint256",
          "name": "",
          "type": "uint256"
        }
      ],
      "stateMutability": "view",
      "type": "function"
    },
    {
      "inputs": [
        {
          "internalType": "address",
          "name": "recipient",
          "type": "address"
        },
        {
          "internalType": "uint256",
          "name": "relativeWeightCap",
          "type": "uint256"
        }
      ],
      "name": "initialize",
      "outputs": [],
      "stateMutability": "nonpayable",
      "type": "function"
    },
    {
      "inputs": [
        {
          "internalType": "address",
          "name": "user",
          "type": "address"
        }
      ],
      "name": "integrate_fraction",
      "outputs": [
        {
          "internalType": "uint256",
          "name": "",
          "type": "uint256"
        }
      ],
      "stateMutability": "view",
      "type": "function"
    },
    {
      "inputs": [],
      "name": "is_killed",
      "outputs": [
        {
          "internalType": "bool",
          "name": "",
          "type": "bool"
        }
      ],
      "stateMutability": "view",
      "type": "function"
    },
    {
      "inputs": [],
      "name": "killGauge",
      "outputs": [],
      "stateMutability": "nonpayable",
      "type": "function"
    },
    {
      "inputs": [
        {
          "internalType": "uint256",
          "name": "relativeWeightCap",
          "type": "uint256"
        }
      ],
      "name": "setRelativeWeightCap",
      "outputs": [],
      "stateMutability": "nonpayable",
      "type": "function"
    },
    {
      "inputs": [],
      "name": "unkillGauge",
      "outputs": [],
      "stateMutability": "nonpayable",
      "type": "function"
    },
    {
      "inputs": [
        {
          "internalType": "address",
          "name": "",
          "type": "address"
        }
      ],
      "name": "user_checkpoint",
      "outputs": [
        {
          "internalType": "bool",
          "name": "",
          "type": "bool"
        }
      ],
      "stateMutability": "pure",
      "type": "function"
    }
  ],
  "bytecode": "0x6101e06040523480156200001257600080fd5b506040516200196d3803806200196d833981810160405260408110156200003857600080fd5b508051602091820151600160009081556040805163e6dec36f60e01b815290519394929385936001600160a01b0385169263e6dec36f9260048083019392829003018186803b1580156200008b57600080fd5b505afa158015620000a0573d6000803e3d6000fd5b505050506040513d6020811015620000b757600080fd5b50516040805163c003969960e01b815290519192506000916001600160a01b0384169163c0039699916004808301926020929190829003018186803b1580156200010057600080fd5b505afa15801562000115573d6000803e3d6000fd5b505050506040513d60208110156200012c57600080fd5b505160408051632c6f4d6f60e11b815290519192506000916001600160a01b038616916358de9ade916004808301926020929190829003018186803b1580156200017557600080fd5b505afa1580156200018a573d6000803e3d6000fd5b505050506040513d6020811015620001a157600080fd5b50516001600160601b0319606084811b821660805285811b821660a05286811b821660c05282901b1660e052604080516303e1469160e61b815290519192506001600160a01b0383169163f851a44091600480820192602092909190829003018186803b1580156200021257600080fd5b505afa15801562000227573d6000803e3d6000fd5b505050506040513d60208110156200023e57600080fd5b505160601b6001600160601b0319166101005260408051635c3dab0b60e11b815290516001600160a01b0385169163b87b5616916004808301926020929190829003018186803b1580156200029257600080fd5b505afa158015620002a7573d6000803e3d6000fd5b505050506040513d6020811015620002be57600080fd5b505161012052604080516321609bbf60e01b815290516001600160a01b038516916321609bbf916004808301926020929190829003018186803b1580156200030557600080fd5b505afa1580156200031a573d6000803e3d6000fd5b505050506040513d60208110156200033157600080fd5b505161014052604080516303f7d6c760e51b815290516001600160a01b03851691637efad8e0916004808301926020929190829003018186803b1580156200037857600080fd5b505afa1580156200038d573d6000803e3d6000fd5b505050506040513d6020811015620003a457600080fd5b505161016052505060001960025550506040805163c003969960e01b815290516001600160a01b038084169263bda009fe929186169163c003969991600480820192602092909190829003018186803b1580156200040157600080fd5b505afa15801562000416573d6000803e3d6000fd5b505050506040513d60208110156200042d57600080fd5b5051604080516001600160e01b031960e085901b1681526001600160a01b039092166004830152516024808301926020929190829003018186803b1580156200047557600080fd5b505afa1580156200048a573d6000803e3d6000fd5b505050506040513d6020811015620004a157600080fd5b50516001600160601b0319606091821b81166101805291811b9091166101a05233901b6101c0525060805160601c60a05160601c60c05160601c60e05160601c6101005160601c6101205161014051610160516101805160601c6101a05160601c6101c05160601c6113e862000585600039806106005280610de5525080610eeb525080610cff5250806108d25250806108b1525080610834528061091e525080610383528061053f52806106d95280610b0d52508061042252806107c2525080610a14525080611121528061121e525080610cc35280610f2852506113e86000f3fe6080604052600436106100d25760003560e01c80639c868ac01161007f578063b024522511610059578063b024522514610265578063c2c4c5c11461027a578063cd6dc68714610282578063d34fb267146102c8576100d2565b80639c868ac0146102265780639f8676711461023b578063ab8f094514610250576100d2565b80631b88094d116100b05780631b88094d1461017f5780634b820093146101bd57806383f5c39b14610211576100d2565b806309400707146100d757806310d3eb041461012957806314e956f514610155575b600080fd5b3480156100e357600080fd5b50610117600480360360208110156100fa57600080fd5b503573ffffffffffffffffffffffffffffffffffffffff166102dd565b60408051918252519081900360200190f35b34801561013557600080fd5b506101536004803603602081101561014c57600080fd5b503561036b565b005b34801561016157600080fd5b506101176004803603602081101561017857600080fd5b503561041b565b34801561018b57600080fd5b506101946104e9565b6040805173ffffffffffffffffffffffffffffffffffffffff9092168252519081900360200190f35b3480156101c957600080fd5b506101fd600480360360208110156101e057600080fd5b503573ffffffffffffffffffffffffffffffffffffffff16610506565b604080519115158252519081900360200190f35b34801561021d57600080fd5b5061011761050c565b34801561023257600080fd5b506101fd610512565b34801561024757600080fd5b5061011761051b565b34801561025c57600080fd5b50610153610527565b34801561027157600080fd5b506101176105f8565b6101fd6106b7565b34801561028e57600080fd5b50610153600480360360408110156102a557600080fd5b5073ffffffffffffffffffffffffffffffffffffffff8135169060200135610aa4565b3480156102d457600080fd5b50610153610af5565b600073ffffffffffffffffffffffffffffffffffffffff8216301461036357604080517f08c379a000000000000000000000000000000000000000000000000000000000815260206004820152601e60248201527f47617567652063616e206f6e6c79206d696e7420666f7220697473656c660000604482015290519081900360640190fd5b505060045490565b3373ffffffffffffffffffffffffffffffffffffffff7f0000000000000000000000000000000000000000000000000000000000000000161461040f57604080517f08c379a000000000000000000000000000000000000000000000000000000000815260206004820152601260248201527f53454e4445525f4e4f545f414c4c4f5745440000000000000000000000000000604482015290519081900360640190fd5b61041881610bc3565b50565b60006104e37f000000000000000000000000000000000000000000000000000000000000000073ffffffffffffffffffffffffffffffffffffffff1663d3078c9430856040518363ffffffff1660e01b8152600401808373ffffffffffffffffffffffffffffffffffffffff1681526020018281526020019250505060206040518083038186803b1580156104af57600080fd5b505afa1580156104c3573d6000803e3d6000fd5b505050506040513d60208110156104d957600080fd5b5051600654610c5f565b92915050565b60075473ffffffffffffffffffffffffffffffffffffffff165b90565b50600190565b60065490565b60055460ff1690565b670de0b6b3a764000081565b3373ffffffffffffffffffffffffffffffffffffffff7f000000000000000000000000000000000000000000000000000000000000000016146105cb57604080517f08c379a000000000000000000000000000000000000000000000000000000000815260206004820152601260248201527f53454e4445525f4e4f545f414c4c4f5745440000000000000000000000000000604482015290519081900360640190fd5b600580547fffffffffffffffffffffffffffffffffffffffffffffffffffffffffffffff00166001179055565b6000806000807f000000000000000000000000000000000000000000000000000000000000000073ffffffffffffffffffffffffffffffffffffffff1663ac8288c06040518163ffffffff1660e01b815260040160606040518083038186803b15801561066457600080fd5b505afa158015610678573d6000803e3d6000fd5b505050506040513d606081101561068e57600080fd5b508051602082015160409092015190945090925090506106af838383610c77565b935050505090565b60006106c1610c7d565b3373ffffffffffffffffffffffffffffffffffffffff7f0000000000000000000000000000000000000000000000000000000000000000161461076557604080517f08c379a000000000000000000000000000000000000000000000000000000000815260206004820152601260248201527f53454e4445525f4e4f545f414c4c4f5745440000000000000000000000000000604482015290519081900360640190fd5b6002546000610772610c96565b905080821015610a9657604080517f615e5237000000000000000000000000000000000000000000000000000000008152306004820152905173ffffffffffffffffffffffffffffffffffffffff7f0000000000000000000000000000000000000000000000000000000000000000169163615e523791602480830192600092919082900301818387803b15801561080957600080fd5b505af115801561081d573d6000803e3d6000fd5b5050600180546003549590910194909250600091507f000000000000000000000000000000000000000000000000000000000000000001845b8560ff018110156109a9578481111561086e576109a9565b62093a8081026000806108808361041b565b905082851015801561089657508262093a800185105b1561094f57828503670de0b6b3a764000082890282020492507f00000000000000000000000000000000000000000000000000000000000000007f00000000000000000000000000000000000000000000000000000000000000008902816108fa57fe5b04975062093a80819003670de0b6b3a7640000838a02820260018b905560038990557f000000000000000000000000000000000000000000000000000000000000000090980197049390930192506109649050565b670de0b6b3a764000062093a80828902020491505b60408051838152905184917f21d81d5d656869e8ce3ba8d65526a2f0dbbcd3d36f5f9999eb7c84360e45eced919081900360200190a250939093019250600101610856565b506002849055600480548301905581158015906109c9575060055460ff16155b15610a9257604080517f6a627842000000000000000000000000000000000000000000000000000000008152306004820152905173ffffffffffffffffffffffffffffffffffffffff7f00000000000000000000000000000000000000000000000000000000000000001691636a6278429160248083019260209291908290030181600087803b158015610a5c57600080fd5b505af1158015610a70573d6000803e3d6000fd5b505050506040513d6020811015610a8657600080fd5b50610a92905082610cc1565b5050505b6001925050506105036110a7565b610aad816110ae565b50600780547fffffffffffffffffffffffff00000000000000000000000000000000000000001673ffffffffffffffffffffffffffffffffffffffff92909216919091179055565b3373ffffffffffffffffffffffffffffffffffffffff7f00000000000000000000000000000000000000000000000000000000000000001614610b9957604080517f08c379a000000000000000000000000000000000000000000000000000000000815260206004820152601260248201527f53454e4445525f4e4f545f414c4c4f5745440000000000000000000000000000604482015290519081900360640190fd5b600580547fffffffffffffffffffffffffffffffffffffffffffffffffffffffffffffff00169055565b670de0b6b3a7640000811115610c24576040517f08c379a000000000000000000000000000000000000000000000000000000000815260040180806020018281038252603481526020018061135b6034913960400191505060405180910390fd5b60068190556040805182815290517f13e45870490f54cea50d245930d12102c72b502641ef6850d0b15a8c92decfb29181900360200190a150565b6000818310610c6e5781610c70565b825b9392505050565b91020190565b610c8f600260005414156101906112c0565b6002600055565b7fffffffffffffffffffffffffffffffffffffffffffffffffffffffffffffffff62093a8042040190565b7f000000000000000000000000000000000000000000000000000000000000000073ffffffffffffffffffffffffffffffffffffffff1663095ea7b37f0000000000000000000000000000000000000000000000000000000000000000836040518363ffffffff1660e01b8152600401808373ffffffffffffffffffffffffffffffffffffffff16815260200182815260200192505050602060405180830381600087803b158015610d7257600080fd5b505af1158015610d86573d6000803e3d6000fd5b505050506040513d6020811015610d9c57600080fd5b5050604080517fac8288c000000000000000000000000000000000000000000000000000000000815290516000918291829173ffffffffffffffffffffffffffffffffffffffff7f0000000000000000000000000000000000000000000000000000000000000000169163ac8288c091600480820192606092909190829003018186803b158015610e2c57600080fd5b505afa158015610e40573d6000803e3d6000fd5b505050506040513d6060811015610e5657600080fd5b508051602082015160409092015190945090925090506000610e79848484610c77565b9050803414610ee957604080517f08c379a000000000000000000000000000000000000000000000000000000000815260206004820152601a60248201527f496e636f7272656374206d73672e76616c756520706173736564000000000000604482015290519081900360640190fd5b7f000000000000000000000000000000000000000000000000000000000000000073ffffffffffffffffffffffffffffffffffffffff1663d2ce7d65827f0000000000000000000000000000000000000000000000000000000000000000600760009054906101000a900473ffffffffffffffffffffffffffffffffffffffff16898989896040516020018082815260200180602001828103825260008152602001602001925050506040516020818303038152906040526040518863ffffffff1660e01b8152600401808773ffffffffffffffffffffffffffffffffffffffff1681526020018673ffffffffffffffffffffffffffffffffffffffff16815260200185815260200184815260200183815260200180602001828103825283818151815260200191508051906020019080838360005b8381101561103757818101518382015260200161101f565b50505050905090810190601f1680156110645780820380516001836020036101000a031916815260200191505b509750505050505050506000604051808303818588803b15801561108757600080fd5b505af115801561109b573d6000803e3d6000fd5b50505050505050505050565b6001600055565b6002541561111d57604080517f08c379a000000000000000000000000000000000000000000000000000000000815260206004820152601360248201527f416c726561647920696e697469616c697a656400000000000000000000000000604482015290519081900360640190fd5b60007f000000000000000000000000000000000000000000000000000000000000000073ffffffffffffffffffffffffffffffffffffffff16632c4e722e6040518163ffffffff1660e01b815260040160206040518083038186803b15801561118557600080fd5b505afa158015611199573d6000803e3d6000fd5b505050506040513d60208110156111af57600080fd5b5051905080611209576040517f08c379a000000000000000000000000000000000000000000000000000000000815260040180806020018281038252602481526020018061138f6024913960400191505060405180910390fd5b6001819055611216610c96565b6002819055507f000000000000000000000000000000000000000000000000000000000000000073ffffffffffffffffffffffffffffffffffffffff1663a228bced6040518163ffffffff1660e01b8152600401602060405180830381600087803b15801561128457600080fd5b505af1158015611298573d6000803e3d6000fd5b505050506040513d60208110156112ae57600080fd5b50516003556112bc82610bc3565b5050565b816112bc577f08c379a000000000000000000000000000000000000000000000000000000000600090815260206004526007602452600a808304818106603090810160081b83860601918390049283060160101b016642414c230000300160c81b6044526112bc918391610418917f42414c0000000000000000000000000000000000000000000000000000000000906242414c90606490fdfe52656c61746976652077656967687420636170206578636565647320616c6c6f776564206162736f6c757465206d6178696d756d42616c616e636572546f6b656e41646d696e206e6f742079657420616374697661746564a2646970667358221220b2e9c5db1495f489c7a69335aad0b2496a1a094c2b54e35295f6260efcf9876464736f6c63430007010033",
  "linkReferences": {},
  "deployedLinkReferences": {}
}