{
  "_format": "hh-sol-artifact-1",
  "contractName": "BalancerPoolDataQueries",
  "sourceName": "contracts/BalancerPoolDataQueries.sol",
  "abi": [
    {
      "inputs": [
        {
          "internalType": "contract IVault",
          "name": "_vault",
          "type": "address"
        }
      ],
      "stateMutability": "nonpayable",
      "type": "constructor"
    },
    {
      "inputs": [
        {
          "internalType": "address[]",
          "name": "poolAddresses",
          "type": "address[]"
        }
      ],
      "name": "getAmpForPools",
      "outputs": [
        {
          "internalType": "uint256[]",
          "name": "",
          "type": "uint256[]"
        }
      ],
      "stateMutability": "view",
      "type": "function"
    },
    {
      "inputs": [
        {
          "internalType": "address[]",
          "name": "poolAddresses",
          "type": "address[]"
        }
      ],
      "name": "getInRecoveryModeForPools",
      "outputs": [
        {
          "internalType": "bool[]",
          "name": "",
          "type": "bool[]"
        }
      ],
      "stateMutability": "view",
      "type": "function"
    },
    {
      "inputs": [
        {
          "internalType": "address[]",
          "name": "poolAddresses",
          "type": "address[]"
        }
      ],
      "name": "getIsPausedForPools",
      "outputs": [
        {
          "internalType": "bool[]",
          "name": "",
          "type": "bool[]"
        }
      ],
      "stateMutability": "view",
      "type": "function"
    },
    {
      "inputs": [
        {
          "internalType": "address[]",
          "name": "poolAddresses",
          "type": "address[]"
        }
      ],
      "name": "getNormalizedWeightsForPools",
      "outputs": [
        {
          "internalType": "uint256[][]",
          "name": "",
          "type": "uint256[][]"
        }
      ],
      "stateMutability": "view",
      "type": "function"
    },
    {
      "inputs": [
        {
          "internalType": "bytes32[]",
          "name": "poolIds",
          "type": "bytes32[]"
        },
        {
          "components": [
            {
              "internalType": "bool",
              "name": "loadTokenBalanceUpdatesAfterBlock",
              "type": "bool"
            },
            {
              "internalType": "bool",
              "name": "loadTotalSupply",
              "type": "bool"
            },
            {
              "internalType": "bool",
              "name": "loadSwapFees",
              "type": "bool"
            },
            {
              "internalType": "bool",
              "name": "loadLinearWrappedTokenRates",
              "type": "bool"
            },
            {
              "internalType": "bool",
              "name": "loadNormalizedWeights",
              "type": "bool"
            },
            {
              "internalType": "bool",
              "name": "loadScalingFactors",
              "type": "bool"
            },
            {
              "internalType": "bool",
              "name": "loadAmps",
              "type": "bool"
            },
            {
              "internalType": "bool",
              "name": "loadRates",
              "type": "bool"
            },
            {
              "internalType": "bool",
              "name": "loadInRecoveryMode",
              "type": "bool"
            },
            {
              "internalType": "bool",
              "name": "loadIsPaused",
              "type": "bool"
            },
            {
              "internalType": "uint256",
              "name": "blockNumber",
              "type": "uint256"
            },
            {
              "internalType": "enum TotalSupplyType[]",
              "name": "totalSupplyTypes",
              "type": "uint8[]"
            },
            {
              "internalType": "enum SwapFeeType[]",
              "name": "swapFeeTypes",
              "type": "uint8[]"
            },
            {
              "internalType": "uint256[]",
              "name": "linearPoolIdxs",
              "type": "uint256[]"
            },
            {
              "internalType": "uint256[]",
              "name": "weightedPoolIdxs",
              "type": "uint256[]"
            },
            {
              "internalType": "uint256[]",
              "name": "scalingFactorPoolIdxs",
              "type": "uint256[]"
            },
            {
              "internalType": "uint256[]",
              "name": "ampPoolIdxs",
              "type": "uint256[]"
            },
            {
              "internalType": "uint256[]",
              "name": "ratePoolIdxs",
              "type": "uint256[]"
            }
          ],
          "internalType": "struct PoolDataQueryConfig",
          "name": "config",
          "type": "tuple"
        }
      ],
      "name": "getPoolData",
      "outputs": [
        {
          "internalType": "uint256[][]",
          "name": "balances",
          "type": "uint256[][]"
        },
        {
          "internalType": "uint256[]",
          "name": "totalSupplies",
          "type": "uint256[]"
        },
        {
          "internalType": "uint256[]",
          "name": "swapFees",
          "type": "uint256[]"
        },
        {
          "internalType": "uint256[]",
          "name": "linearWrappedTokenRates",
          "type": "uint256[]"
        },
        {
          "internalType": "uint256[][]",
          "name": "weights",
          "type": "uint256[][]"
        },
        {
          "internalType": "uint256[][]",
          "name": "scalingFactors",
          "type": "uint256[][]"
        },
        {
          "internalType": "uint256[]",
          "name": "amps",
          "type": "uint256[]"
        },
        {
          "internalType": "uint256[]",
          "name": "rates",
          "type": "uint256[]"
        },
        {
          "internalType": "uint256[]",
          "name": "ignoreIdxs",
          "type": "uint256[]"
        }
      ],
      "stateMutability": "view",
      "type": "function"
    },
    {
      "inputs": [
        {
          "internalType": "bytes32[]",
          "name": "poolIds",
          "type": "bytes32[]"
        },
        {
          "components": [
            {
              "internalType": "bool",
              "name": "loadInRecoveryMode",
              "type": "bool"
            },
            {
              "internalType": "bool",
              "name": "loadIsPaused",
              "type": "bool"
            }
          ],
          "internalType": "struct PoolStatusQueryConfig",
          "name": "config",
          "type": "tuple"
        }
      ],
      "name": "getPoolStatus",
      "outputs": [
        {
          "internalType": "bool[]",
          "name": "isPaused",
          "type": "bool[]"
        },
        {
          "internalType": "bool[]",
          "name": "inRecoveryMode",
          "type": "bool[]"
        }
      ],
      "stateMutability": "view",
      "type": "function"
    },
    {
      "inputs": [
        {
          "internalType": "bytes32[]",
          "name": "poolIds",
          "type": "bytes32[]"
        },
        {
          "internalType": "uint256",
          "name": "blockNumber",
          "type": "uint256"
        }
      ],
      "name": "getPoolTokenBalancesWithUpdatesAfterBlock",
      "outputs": [
        {
          "internalType": "uint256[][]",
          "name": "",
          "type": "uint256[][]"
        }
      ],
      "stateMutability": "view",
      "type": "function"
    },
    {
      "inputs": [
        {
          "internalType": "address[]",
          "name": "poolAddresses",
          "type": "address[]"
        }
      ],
      "name": "getRateForPools",
      "outputs": [
        {
          "internalType": "uint256[]",
          "name": "",
          "type": "uint256[]"
        }
      ],
      "stateMutability": "view",
      "type": "function"
    },
    {
      "inputs": [
        {
          "internalType": "address[]",
          "name": "poolAddresses",
          "type": "address[]"
        }
      ],
      "name": "getScalingFactorsForPools",
      "outputs": [
        {
          "internalType": "uint256[][]",
          "name": "",
          "type": "uint256[][]"
        }
      ],
      "stateMutability": "view",
      "type": "function"
    },
    {
      "inputs": [
        {
          "internalType": "address[]",
          "name": "poolAddresses",
          "type": "address[]"
        },
        {
          "internalType": "enum SwapFeeType[]",
          "name": "swapFeeTypes",
          "type": "uint8[]"
        }
      ],
      "name": "getSwapFeePercentageForPools",
      "outputs": [
        {
          "internalType": "uint256[]",
          "name": "",
          "type": "uint256[]"
        }
      ],
      "stateMutability": "view",
      "type": "function"
    },
    {
      "inputs": [
        {
          "internalType": "address[]",
          "name": "poolAddresses",
          "type": "address[]"
        },
        {
          "internalType": "enum TotalSupplyType[]",
          "name": "totalSupplyTypes",
          "type": "uint8[]"
        }
      ],
      "name": "getTotalSupplyForPools",
      "outputs": [
        {
          "internalType": "uint256[]",
          "name": "",
          "type": "uint256[]"
        }
      ],
      "stateMutability": "view",
      "type": "function"
    },
    {
      "inputs": [
        {
          "internalType": "address[]",
          "name": "poolAddresses",
          "type": "address[]"
        }
      ],
      "name": "getWrappedTokenRateForLinearPools",
      "outputs": [
        {
          "internalType": "uint256[]",
          "name": "",
          "type": "uint256[]"
        }
      ],
      "stateMutability": "view",
      "type": "function"
    },
    {
      "inputs": [],
      "name": "vault",
      "outputs": [
        {
          "internalType": "contract IVault",
          "name": "",
          "type": "address"
        }
      ],
      "stateMutability": "view",
      "type": "function"
    }
  ],
  "bytecode": "0x60a06040523480156200001157600080fd5b506040516200265a3803806200265a83398101604081905262000034916200004a565b60601b6001600160601b0319166080526200007a565b6000602082840312156200005c578081fd5b81516001600160a01b038116811462000073578182fd5b9392505050565b60805160601c6125b3620000a76000398061054452806106e552806109ff528061123152506125b36000f3fe608060405234801561001057600080fd5b50600436106100df5760003560e01c806396ebd9341161008c578063b4a9f0c811610066578063b4a9f0c8146101e2578063c4fb0f82146101f5578063fbfa77cf14610208578063fd4363781461021d576100df565b806396ebd93414610187578063a613398c146101a7578063b3a46001146101cf576100df565b8063716bb27a116100bd578063716bb27a146101415780637b2de53314610161578063828f7c7d14610174576100df565b806304013a7d146100e457806317615f321461010d5780634b3dcc1e14610120575b600080fd5b6100f76100f2366004611d87565b610230565b60405161010491906124b9565b60405180910390f35b6100f761011b366004611d4c565b610450565b61013361012e366004612075565b6104e8565b60405161010492919061248b565b61015461014f3660046120f7565b610681565b60405161010491906123a0565b6100f761016f366004611d4c565b6107dc565b610154610182366004611d4c565b61086b565b61019a610195366004611d4c565b610904565b6040516101049190612478565b6101ba6101b5366004611e3f565b610998565b604051610104999897969594939291906123b3565b6101546101dd366004611d4c565b610fd3565b6100f76101f0366004611de8565b61106c565b6100f7610203366004611d4c565b6111a0565b61021061122f565b60405161010491906124d5565b61019a61022b366004611d4c565b611253565b606080835167ffffffffffffffff8111801561024b57600080fd5b50604051908082528060200260200182016040528015610275578160200160208202803683370190505b50905060005b845181101561044657600184828151811061029257fe5b602002602001015160018111156102a557fe5b1415610377578481815181106102b757fe5b602002602001015173ffffffffffffffffffffffffffffffffffffffff16634c1a41156040518163ffffffff1660e01b815260040160206040518083038186803b15801561030457600080fd5b505afa925050508015610334575060408051601f3d908101601f1916820190925261033191810190612292565b60015b61035757600082828151811061034657fe5b602002602001018181525050610372565b8083838151811061036457fe5b602002602001018181525050505b61043e565b84818151811061038357fe5b602002602001015173ffffffffffffffffffffffffffffffffffffffff166355c676286040518163ffffffff1660e01b815260040160206040518083038186803b1580156103d057600080fd5b505afa925050508015610400575060408051601f3d908101601f191682019092526103fd91810190612292565b60015b61042357600082828151811061041257fe5b60200260200101818152505061043e565b8083838151811061043057fe5b602002602001018181525050505b60010161027b565b5090505b92915050565b606080825167ffffffffffffffff8111801561046b57600080fd5b50604051908082528060200260200182016040528015610495578160200160208202803683370190505b50905060005b83518110156104df576104c08482815181106104b357fe5b60200260200101516112e7565b8282815181106104cc57fe5b602090810291909101015260010161049b565b5090505b919050565b60608060006060855167ffffffffffffffff8111801561050757600080fd5b50604051908082528060200260200182016040528015610531578160200160208202803683370190505b509050600091505b855182101561064f577f000000000000000000000000000000000000000000000000000000000000000073ffffffffffffffffffffffffffffffffffffffff1663f6c0092787848151811061058a57fe5b60200260200101516040518263ffffffff1660e01b81526004016105ae91906124cc565b604080518083038186803b1580156105c557600080fd5b505afa1580156105d9573d6000803e3d6000fd5b505050506040513d601f19601f820116820180604052508101906105fd9190611d13565b5081838151811061060a57fe5b602002602001018173ffffffffffffffffffffffffffffffffffffffff1673ffffffffffffffffffffffffffffffffffffffff16815250508180600101925050610539565b8460200151156106655761066281611253565b93505b8451156106785761067581610904565b92505b50509250929050565b60608060006060855167ffffffffffffffff811180156106a057600080fd5b506040519080825280602002602001820160405280156106d457816020015b60608152602001906001900390816106bf5790505b50905060005b86518110156107d2577f000000000000000000000000000000000000000000000000000000000000000073ffffffffffffffffffffffffffffffffffffffff1663f94d466888838151811061072b57fe5b60200260200101516040518263ffffffff1660e01b815260040161074f91906124cc565b60006040518083038186803b15801561076757600080fd5b505afa15801561077b573d6000803e3d6000fd5b505050506040513d6000823e601f3d908101601f191682016040526107a3919081019061213a565b909550935050858311156107ca57838282815181106107be57fe5b60200260200101819052505b6001016106da565b5095945050505050565b606080825167ffffffffffffffff811180156107f757600080fd5b50604051908082528060200260200182016040528015610821578160200160208202803683370190505b50905060005b83518110156104df5761084c84828151811061083f57fe5b6020026020010151611372565b82828151811061085857fe5b6020908102919091010152600101610827565b606080825167ffffffffffffffff8111801561088657600080fd5b506040519080825280602002602001820160405280156108ba57816020015b60608152602001906001900390816108a55790505b50905060005b83518110156104df576108e58482815181106108d857fe5b6020026020010151611401565b8282815181106108f157fe5b60209081029190910101526001016108c0565b606080825167ffffffffffffffff8111801561091f57600080fd5b50604051908082528060200260200182016040528015610949578160200160208202803683370190505b50905060005b83518110156104df5761097484828151811061096757fe5b6020026020010151611497565b82828151811061098057fe5b9115156020928302919091019091015260010161094f565b6060806060806060806060806060600060608c5167ffffffffffffffff811180156109c257600080fd5b506040519080825280602002602001820160405280156109ec578160200160208202803683370190505b509050600091505b8c51821015610b0a577f000000000000000000000000000000000000000000000000000000000000000073ffffffffffffffffffffffffffffffffffffffff1663f6c009278e8481518110610a4557fe5b60200260200101516040518263ffffffff1660e01b8152600401610a6991906124cc565b604080518083038186803b158015610a8057600080fd5b505afa158015610a94573d6000803e3d6000fd5b505050506040513d601f19601f82011682018060405250810190610ab89190611d13565b50818381518110610ac557fe5b602002602001018173ffffffffffffffffffffffffffffffffffffffff1673ffffffffffffffffffffffffffffffffffffffff168152505081806001019250506109f4565b8b5115610b2357610b208d8d6101400151610681565b9a505b8b6020015115610b3f57610b3c818d610160015161106c565b99505b8b6040015115610b5b57610b58818d6101800151610230565b98505b8b6060015115610c395760608c6101a001515167ffffffffffffffff81118015610b8457600080fd5b50604051908082528060200260200182016040528015610bae578160200160208202803683370190505b509050600092505b8c6101a0015151831015610c2c57818d6101a001518481518110610bd657fe5b602002602001015181518110610be857fe5b6020026020010151818481518110610bfc57fe5b73ffffffffffffffffffffffffffffffffffffffff90921660209283029190910190910152600190920191610bb6565b610c3581610450565b9850505b8b6080015115610d175760608c6101c001515167ffffffffffffffff81118015610c6257600080fd5b50604051908082528060200260200182016040528015610c8c578160200160208202803683370190505b509050600092505b8c6101c0015151831015610d0a57818d6101c001518481518110610cb457fe5b602002602001015181518110610cc657fe5b6020026020010151818481518110610cda57fe5b73ffffffffffffffffffffffffffffffffffffffff90921660209283029190910190910152600190920191610c94565b610d1381610fd3565b9750505b8b60a0015115610df55760608c6101e001515167ffffffffffffffff81118015610d4057600080fd5b50604051908082528060200260200182016040528015610d6a578160200160208202803683370190505b509050600092505b8c6101e0015151831015610de857818d6101e001518481518110610d9257fe5b602002602001015181518110610da457fe5b6020026020010151818481518110610db857fe5b73ffffffffffffffffffffffffffffffffffffffff90921660209283029190910190910152600190920191610d72565b610df18161086b565b9650505b8b60c0015115610ed35760608c61020001515167ffffffffffffffff81118015610e1e57600080fd5b50604051908082528060200260200182016040528015610e48578160200160208202803683370190505b509050600092505b8c610200015151831015610ec657818d61020001518481518110610e7057fe5b602002602001015181518110610e8257fe5b6020026020010151818481518110610e9657fe5b73ffffffffffffffffffffffffffffffffffffffff90921660209283029190910190910152600190920191610e50565b610ecf816107dc565b9550505b8b60e0015115610fb15760608c61022001515167ffffffffffffffff81118015610efc57600080fd5b50604051908082528060200260200182016040528015610f26578160200160208202803683370190505b509050600092505b8c610220015151831015610fa457818d61022001518481518110610f4e57fe5b602002602001015181518110610f6057fe5b6020026020010151818481518110610f7457fe5b73ffffffffffffffffffffffffffffffffffffffff90921660209283029190910190910152600190920191610f2e565b610fad816111a0565b9450505b610fc28d8d8c8c8c8a8a8d8f61150c565b925050509295985092959850929598565b606080825167ffffffffffffffff81118015610fee57600080fd5b5060405190808252806020026020018201604052801561102257816020015b606081526020019060019003908161100d5790505b50905060005b83518110156104df5761104d84828151811061104057fe5b602002602001015161191a565b82828151811061105957fe5b6020908102919091010152600101611028565b606080835167ffffffffffffffff8111801561108757600080fd5b506040519080825280602002602001820160405280156110b1578160200160208202803683370190505b50905060005b84518110156104465760018482815181106110ce57fe5b602002602001015160028111156110e157fe5b1415611120576111038582815181106110f657fe5b6020026020010151611962565b82828151811061110f57fe5b602002602001018181525050611198565b600284828151811061112e57fe5b6020026020010151600281111561114157fe5b14156111635761110385828151811061115657fe5b60200260200101516119aa565b61117f85828151811061117257fe5b60200260200101516119f2565b82828151811061118b57fe5b6020026020010181815250505b6001016110b7565b606080825167ffffffffffffffff811180156111bb57600080fd5b506040519080825280602002602001820160405280156111e5578160200160208202803683370190505b50905060005b83518110156104df5761121084828151811061120357fe5b6020026020010151611a3a565b82828151811061121c57fe5b60209081029190910101526001016111eb565b7f000000000000000000000000000000000000000000000000000000000000000081565b606080825167ffffffffffffffff8111801561126e57600080fd5b50604051908082528060200260200182016040528015611298578160200160208202803683370190505b50905060005b83518110156104df576112c38482815181106112b657fe5b6020026020010151611a82565b8282815181106112cf57fe5b9115156020928302919091019091015260010161129e565b60008173ffffffffffffffffffffffffffffffffffffffff1663f5431aa86040518163ffffffff1660e01b815260040160206040518083038186803b15801561132f57600080fd5b505afa92505050801561135f575060408051601f3d908101601f1916820190925261135c91810190612292565b60015b61136b575060006104e3565b90506104e3565b60008173ffffffffffffffffffffffffffffffffffffffff16636daccffa6040518163ffffffff1660e01b815260040160606040518083038186803b1580156113ba57600080fd5b505afa9250505080156113ea575060408051601f3d908101601f191682019092526113e7918101906122aa565b60015b6113f6575060006104e3565b8293505050506104e3565b60608173ffffffffffffffffffffffffffffffffffffffff16631dd746ea6040518163ffffffff1660e01b815260040160006040518083038186803b15801561144957600080fd5b505afa92505050801561147e57506040513d6000823e601f3d908101601f1916820160405261147b9190810190612206565b60015b61136b57506040805160008152602081019091526104e3565b60008173ffffffffffffffffffffffffffffffffffffffff1663b35056b86040518163ffffffff1660e01b815260040160206040518083038186803b1580156114df57600080fd5b505afa92505050801561135f575060408051601f3d908101601f1916820190925261135c91810190612239565b6060808a5167ffffffffffffffff8111801561152757600080fd5b50604051908082528060200260200182016040528015611551578160200160208202803683370190505b5090506000805b8c518110156115db578b60200151801561158557508a818151811061157957fe5b60200260200101516000145b806115af57508b6040015180156115af57508981815181106115a357fe5b60200260200101516000145b156115d35760018382815181106115c257fe5b911515602092830291909101909101525b600101611558565b8b6060015115611652575060005b8b6101a00151518110156116525788818151811061160357fe5b60200260200101516000141561164a576001838d6101a00151838151811061162757fe5b60200260200101518151811061163957fe5b911515602092830291909101909101525b6001016115e9565b8b60c00151156116c9575060005b8b6102000151518110156116c95787818151811061167a57fe5b6020026020010151600014156116c1576001838d6102000151838151811061169e57fe5b6020026020010151815181106116b057fe5b911515602092830291909101909101525b600101611660565b8b60e0015115611740575060005b8b610220015151811015611740578681815181106116f157fe5b602002602001015160001415611738576001838d6102200151838151811061171557fe5b60200260200101518151811061172757fe5b911515602092830291909101909101525b6001016116d7565b8b60a00151156117b8575060005b8b6101e00151518110156117b85785818151811061176857fe5b602002602001015151600014156117b0576001838d6101e00151838151811061178d57fe5b60200260200101518151811061179f57fe5b911515602092830291909101909101525b60010161174e565b8b6080015115611830575060005b8b6101c0015151811015611830578481815181106117e057fe5b60200260200101515160001415611828576001838d6101c00151838151811061180557fe5b60200260200101518151811061181757fe5b911515602092830291909101909101525b6001016117c6565b5060005b825181101561186c5782818151811061184957fe5b60200260200101511515600115151415611864576001909101905b600101611834565b60608267ffffffffffffffff8111801561188557600080fd5b506040519080825280602002602001820160405280156118af578160200160208202803683370190505b50905060008092505b8451831015611908578483815181106118cd57fe5b602002602001015115156001151514156118fd57828282815181106118ee57fe5b60209081029190910101526001015b6001909201916118b8565b509d9c50505050505050505050505050565b60608173ffffffffffffffffffffffffffffffffffffffff1663f89f27ed6040518163ffffffff1660e01b815260040160006040518083038186803b15801561144957600080fd5b60008173ffffffffffffffffffffffffffffffffffffffff1663de82cd346040518163ffffffff1660e01b815260040160206040518083038186803b15801561132f57600080fd5b60008173ffffffffffffffffffffffffffffffffffffffff1663876f303b6040518163ffffffff1660e01b815260040160206040518083038186803b15801561132f57600080fd5b60008173ffffffffffffffffffffffffffffffffffffffff166318160ddd6040518163ffffffff1660e01b815260040160206040518083038186803b15801561132f57600080fd5b60008173ffffffffffffffffffffffffffffffffffffffff1663679aefce6040518163ffffffff1660e01b815260040160206040518083038186803b15801561132f57600080fd5b60008173ffffffffffffffffffffffffffffffffffffffff16631c0de0516040518163ffffffff1660e01b815260040160606040518083038186803b158015611aca57600080fd5b505afa9250505080156113ea575060408051601f3d908101601f191682019092526113e79181019061225c565b600082601f830112611b07578081fd5b8135611b1a611b158261251d565b6124f6565b818152915060208083019084810181840286018201871015611b3b57600080fd5b60005b84811015611b63578135611b518161253d565b84529282019290820190600101611b3e565b505050505092915050565b600082601f830112611b7e578081fd5b8135611b8c611b158261251d565b818152915060208083019084810181840286018201871015611bad57600080fd5b60005b84811015611b6357813584529282019290820190600101611bb0565b600082601f830112611bdc578081fd5b8135611bea611b158261251d565b818152915060208083019084810181840286018201871015611c0b57600080fd5b6000805b85811015611c3757823560028110611c25578283fd5b85529383019391830191600101611c0f565b50505050505092915050565b600082601f830112611c53578081fd5b8135611c61611b158261251d565b818152915060208083019084810181840286018201871015611c8257600080fd5b60005b84811015611b63578135611c9881612570565b84529282019290820190600101611c85565b600082601f830112611cba578081fd5b8151611cc8611b158261251d565b818152915060208083019084810181840286018201871015611ce957600080fd5b60005b84811015611b6357815184529282019290820190600101611cec565b803561044a81612562565b60008060408385031215611d25578182fd5b8251611d308161253d565b6020840151909250611d4181612570565b809150509250929050565b600060208284031215611d5d578081fd5b813567ffffffffffffffff811115611d73578182fd5b611d7f84828501611af7565b949350505050565b60008060408385031215611d99578182fd5b823567ffffffffffffffff80821115611db0578384fd5b611dbc86838701611af7565b93506020850135915080821115611dd1578283fd5b50611dde85828601611bcc565b9150509250929050565b60008060408385031215611dfa578182fd5b823567ffffffffffffffff80821115611e11578384fd5b611e1d86838701611af7565b93506020850135915080821115611e32578283fd5b50611dde85828601611c43565b60008060408385031215611e51578182fd5b823567ffffffffffffffff80821115611e68578384fd5b611e7486838701611b6e565b93506020850135915080821115611e89578283fd5b8185019150610240808388031215611e9f578384fd5b611ea8816124f6565b9050611eb48784611d08565b8152611ec38760208501611d08565b6020820152611ed58760408501611d08565b6040820152611ee78760608501611d08565b6060820152611ef98760808501611d08565b6080820152611f0b8760a08501611d08565b60a0820152611f1d8760c08501611d08565b60c0820152611f2f8760e08501611d08565b60e0820152610100611f4388828601611d08565b90820152610120611f5688858301611d08565b9082015261014083810135908201526101608084013583811115611f78578586fd5b611f8489828701611c43565b8284015250506101808084013583811115611f9d578586fd5b611fa989828701611bcc565b8284015250506101a08084013583811115611fc2578586fd5b611fce89828701611b6e565b8284015250506101c08084013583811115611fe7578586fd5b611ff389828701611b6e565b8284015250506101e0808401358381111561200c578586fd5b61201889828701611b6e565b8284015250506102008084013583811115612031578586fd5b61203d89828701611b6e565b8284015250506102208084013583811115612056578586fd5b61206289828701611b6e565b8284015250508093505050509250929050565b6000808284036060811215612088578283fd5b833567ffffffffffffffff81111561209e578384fd5b6120aa86828701611b6e565b9350506040601f19820112156120be578182fd5b506120c960406124f6565b60208401356120d781612562565b815260408401356120e781612562565b6020820152919491935090915050565b60008060408385031215612109578182fd5b823567ffffffffffffffff81111561211f578283fd5b61212b85828601611b6e565b95602094909401359450505050565b60008060006060848603121561214e578081fd5b835167ffffffffffffffff80821115612165578283fd5b818601915086601f830112612178578283fd5b8151612186611b158261251d565b80828252602080830192508086018b8283870289010111156121a6578788fd5b8796505b848710156121d15780516121bd8161253d565b8452600196909601959281019281016121aa565b5089015190975093505050808211156121e8578283fd5b506121f586828701611caa565b925050604084015190509250925092565b600060208284031215612217578081fd5b815167ffffffffffffffff81111561222d578182fd5b611d7f84828501611caa565b60006020828403121561224a578081fd5b815161225581612562565b9392505050565b600080600060608486031215612270578081fd5b835161227b81612562565b602085015160409095015190969495509392505050565b6000602082840312156122a3578081fd5b5051919050565b6000806000606084860312156122be578081fd5b8351925060208401516122d081612562565b80925050604084015190509250925092565b6000815180845260208085018081965082840281019150828601855b85811015612328578284038952612316848351612371565b988501989350908401906001016122fe565b5091979650505050505050565b6000815180845260208085019450808401835b83811015612366578151151587529582019590820190600101612348565b509495945050505050565b6000815180845260208085019450808401835b8381101561236657815187529582019590820190600101612384565b60006020825261225560208301846122e2565b60006101208083526123c78184018d6122e2565b905082810360208401526123db818c612371565b905082810360408401526123ef818b612371565b90508281036060840152612403818a612371565b9050828103608084015261241781896122e2565b905082810360a084015261242b81886122e2565b905082810360c084015261243f8187612371565b905082810360e08401526124538186612371565b90508281036101008401526124688185612371565b9c9b505050505050505050505050565b6000602082526122556020830184612335565b60006040825261249e6040830185612335565b82810360208401526124b08185612335565b95945050505050565b6000602082526122556020830184612371565b90815260200190565b73ffffffffffffffffffffffffffffffffffffffff91909116815260200190565b60405181810167ffffffffffffffff8111828210171561251557600080fd5b604052919050565b600067ffffffffffffffff821115612533578081fd5b5060209081020190565b73ffffffffffffffffffffffffffffffffffffffff8116811461255f57600080fd5b50565b801515811461255f57600080fd5b6003811061255f57600080fdfea264697066735822122027972565534df44baf215c7099031b8c9c7b467b0d99681e54c83b4b48267c7e64736f6c63430007010033",
  "linkReferences": {},
  "deployedLinkReferences": {}
}