{
  "_format": "hh-sol-artifact-1",
  "contractName": "BalancerPoolDataQueries",
  "sourceName": "contracts/BalancerPoolDataQueries.sol",
  "abi": [
    {
      "inputs": [
        {
          "internalType": "contract IVault",
          "name": "_vault",
          "type": "address"
        }
      ],
      "stateMutability": "nonpayable",
      "type": "constructor"
    },
    {
      "inputs": [
        {
          "internalType": "address[]",
          "name": "poolAddresses",
          "type": "address[]"
        }
      ],
      "name": "getAmpForPools",
      "outputs": [
        {
          "internalType": "uint256[]",
          "name": "",
          "type": "uint256[]"
        }
      ],
      "stateMutability": "view",
      "type": "function"
    },
    {
      "inputs": [
        {
          "internalType": "address[]",
          "name": "poolAddresses",
          "type": "address[]"
        }
      ],
      "name": "getInRecoveryModeForPools",
      "outputs": [
        {
          "internalType": "bool[]",
          "name": "",
          "type": "bool[]"
        }
      ],
      "stateMutability": "view",
      "type": "function"
    },
    {
      "inputs": [
        {
          "internalType": "address[]",
          "name": "poolAddresses",
          "type": "address[]"
        }
      ],
      "name": "getIsPausedForPools",
      "outputs": [
        {
          "internalType": "bool[]",
          "name": "",
          "type": "bool[]"
        }
      ],
      "stateMutability": "view",
      "type": "function"
    },
    {
      "inputs": [
        {
          "internalType": "address[]",
          "name": "poolAddresses",
          "type": "address[]"
        }
      ],
      "name": "getNormalizedWeightsForPools",
      "outputs": [
        {
          "internalType": "uint256[][]",
          "name": "",
          "type": "uint256[][]"
        }
      ],
      "stateMutability": "view",
      "type": "function"
    },
    {
      "inputs": [
        {
          "internalType": "bytes32[]",
          "name": "poolIds",
          "type": "bytes32[]"
        },
        {
          "components": [
            {
              "internalType": "bool",
              "name": "loadTokenBalanceUpdatesAfterBlock",
              "type": "bool"
            },
            {
              "internalType": "bool",
              "name": "loadTotalSupply",
              "type": "bool"
            },
            {
              "internalType": "bool",
              "name": "loadSwapFees",
              "type": "bool"
            },
            {
              "internalType": "bool",
              "name": "loadLinearWrappedTokenRates",
              "type": "bool"
            },
            {
              "internalType": "bool",
              "name": "loadNormalizedWeights",
              "type": "bool"
            },
            {
              "internalType": "bool",
              "name": "loadScalingFactors",
              "type": "bool"
            },
            {
              "internalType": "bool",
              "name": "loadAmps",
              "type": "bool"
            },
            {
              "internalType": "bool",
              "name": "loadRates",
              "type": "bool"
            },
            {
              "internalType": "uint256",
              "name": "blockNumber",
              "type": "uint256"
            },
            {
              "internalType": "enum TotalSupplyType[]",
              "name": "totalSupplyTypes",
              "type": "uint8[]"
            },
            {
              "internalType": "enum SwapFeeType[]",
              "name": "swapFeeTypes",
              "type": "uint8[]"
            },
            {
              "internalType": "uint256[]",
              "name": "linearPoolIdxs",
              "type": "uint256[]"
            },
            {
              "internalType": "uint256[]",
              "name": "weightedPoolIdxs",
              "type": "uint256[]"
            },
            {
              "internalType": "uint256[]",
              "name": "scalingFactorPoolIdxs",
              "type": "uint256[]"
            },
            {
              "internalType": "uint256[]",
              "name": "ampPoolIdxs",
              "type": "uint256[]"
            },
            {
              "internalType": "uint256[]",
              "name": "ratePoolIdxs",
              "type": "uint256[]"
            }
          ],
          "internalType": "struct PoolDataQueryConfig",
          "name": "config",
          "type": "tuple"
        }
      ],
      "name": "getPoolData",
      "outputs": [
        {
          "internalType": "uint256[][]",
          "name": "balances",
          "type": "uint256[][]"
        },
        {
          "internalType": "uint256[]",
          "name": "totalSupplies",
          "type": "uint256[]"
        },
        {
          "internalType": "uint256[]",
          "name": "swapFees",
          "type": "uint256[]"
        },
        {
          "internalType": "uint256[]",
          "name": "linearWrappedTokenRates",
          "type": "uint256[]"
        },
        {
          "internalType": "uint256[][]",
          "name": "weights",
          "type": "uint256[][]"
        },
        {
          "internalType": "uint256[][]",
          "name": "scalingFactors",
          "type": "uint256[][]"
        },
        {
          "internalType": "uint256[]",
          "name": "amps",
          "type": "uint256[]"
        },
        {
          "internalType": "uint256[]",
          "name": "rates",
          "type": "uint256[]"
        },
        {
          "internalType": "uint256[]",
          "name": "ignoreIdxs",
          "type": "uint256[]"
        }
      ],
      "stateMutability": "view",
      "type": "function"
    },
    {
      "inputs": [
        {
          "internalType": "bytes32[]",
          "name": "poolIds",
          "type": "bytes32[]"
        },
        {
          "components": [
            {
              "internalType": "bool",
              "name": "loadInRecoveryMode",
              "type": "bool"
            },
            {
              "internalType": "bool",
              "name": "loadIsPaused",
              "type": "bool"
            }
          ],
          "internalType": "struct PoolStatusQueryConfig",
          "name": "config",
          "type": "tuple"
        }
      ],
      "name": "getPoolStatus",
      "outputs": [
        {
          "internalType": "bool[]",
          "name": "isPaused",
          "type": "bool[]"
        },
        {
          "internalType": "bool[]",
          "name": "inRecoveryMode",
          "type": "bool[]"
        }
      ],
      "stateMutability": "view",
      "type": "function"
    },
    {
      "inputs": [
        {
          "internalType": "bytes32[]",
          "name": "poolIds",
          "type": "bytes32[]"
        },
        {
          "internalType": "uint256",
          "name": "blockNumber",
          "type": "uint256"
        }
      ],
      "name": "getPoolTokenBalancesWithUpdatesAfterBlock",
      "outputs": [
        {
          "internalType": "uint256[][]",
          "name": "",
          "type": "uint256[][]"
        }
      ],
      "stateMutability": "view",
      "type": "function"
    },
    {
      "inputs": [
        {
          "internalType": "address[]",
          "name": "poolAddresses",
          "type": "address[]"
        }
      ],
      "name": "getRateForPools",
      "outputs": [
        {
          "internalType": "uint256[]",
          "name": "",
          "type": "uint256[]"
        }
      ],
      "stateMutability": "view",
      "type": "function"
    },
    {
      "inputs": [
        {
          "internalType": "address[]",
          "name": "poolAddresses",
          "type": "address[]"
        }
      ],
      "name": "getScalingFactorsForPools",
      "outputs": [
        {
          "internalType": "uint256[][]",
          "name": "",
          "type": "uint256[][]"
        }
      ],
      "stateMutability": "view",
      "type": "function"
    },
    {
      "inputs": [
        {
          "internalType": "address[]",
          "name": "poolAddresses",
          "type": "address[]"
        },
        {
          "internalType": "enum SwapFeeType[]",
          "name": "swapFeeTypes",
          "type": "uint8[]"
        }
      ],
      "name": "getSwapFeePercentageForPools",
      "outputs": [
        {
          "internalType": "uint256[]",
          "name": "",
          "type": "uint256[]"
        }
      ],
      "stateMutability": "view",
      "type": "function"
    },
    {
      "inputs": [
        {
          "internalType": "address[]",
          "name": "poolAddresses",
          "type": "address[]"
        },
        {
          "internalType": "enum TotalSupplyType[]",
          "name": "totalSupplyTypes",
          "type": "uint8[]"
        }
      ],
      "name": "getTotalSupplyForPools",
      "outputs": [
        {
          "internalType": "uint256[]",
          "name": "",
          "type": "uint256[]"
        }
      ],
      "stateMutability": "view",
      "type": "function"
    },
    {
      "inputs": [
        {
          "internalType": "address[]",
          "name": "poolAddresses",
          "type": "address[]"
        }
      ],
      "name": "getWrappedTokenRateForLinearPools",
      "outputs": [
        {
          "internalType": "uint256[]",
          "name": "",
          "type": "uint256[]"
        }
      ],
      "stateMutability": "view",
      "type": "function"
    },
    {
      "inputs": [],
      "name": "vault",
      "outputs": [
        {
          "internalType": "contract IVault",
          "name": "",
          "type": "address"
        }
      ],
      "stateMutability": "view",
      "type": "function"
    }
  ],
  "bytecode": "0x60a06040523480156200001157600080fd5b50604051620026313803806200263183398101604081905262000034916200004a565b60601b6001600160601b0319166080526200007a565b6000602082840312156200005c578081fd5b81516001600160a01b038116811462000073578182fd5b9392505050565b60805160601c61258a620000a76000398061054452806106e55280610bcc5280611231525061258a6000f3fe608060405234801561001057600080fd5b50600436106100df5760003560e01c806396ebd9341161008c578063b77030ed11610066578063b77030ed146101cd578063c4fb0f82146101f5578063fbfa77cf14610208578063fd4363781461021d576100df565b806396ebd93414610187578063b3a46001146101a7578063b4a9f0c8146101ba576100df565b8063716bb27a116100bd578063716bb27a146101415780637b2de53314610161578063828f7c7d14610174576100df565b806304013a7d146100e457806317615f321461010d5780634b3dcc1e14610120575b600080fd5b6100f76100f2366004611d87565b610230565b6040516101049190612490565b60405180910390f35b6100f761011b366004611d4c565b610450565b61013361012e36600461204f565b6104e8565b604051610104929190612462565b61015461014f3660046120d1565b610681565b6040516101049190612377565b6100f761016f366004611d4c565b6107dc565b610154610182366004611d4c565b61086b565b61019a610195366004611d4c565b610904565b604051610104919061244f565b6101546101b5366004611d4c565b610998565b6100f76101c8366004611de8565b610a31565b6101e06101db366004611e3f565b610b65565b6040516101049998979695949392919061238a565b6100f7610203366004611d4c565b6111a0565b61021061122f565b60405161010491906124ac565b61019a61022b366004611d4c565b611253565b606080835167ffffffffffffffff8111801561024b57600080fd5b50604051908082528060200260200182016040528015610275578160200160208202803683370190505b50905060005b845181101561044657600184828151811061029257fe5b602002602001015160018111156102a557fe5b1415610377578481815181106102b757fe5b602002602001015173ffffffffffffffffffffffffffffffffffffffff16634c1a41156040518163ffffffff1660e01b815260040160206040518083038186803b15801561030457600080fd5b505afa925050508015610334575060408051601f3d908101601f191682019092526103319181019061226c565b60015b61035757600082828151811061034657fe5b602002602001018181525050610372565b8083838151811061036457fe5b602002602001018181525050505b61043e565b84818151811061038357fe5b602002602001015173ffffffffffffffffffffffffffffffffffffffff166355c676286040518163ffffffff1660e01b815260040160206040518083038186803b1580156103d057600080fd5b505afa925050508015610400575060408051601f3d908101601f191682019092526103fd9181019061226c565b60015b61042357600082828151811061041257fe5b60200260200101818152505061043e565b8083838151811061043057fe5b602002602001018181525050505b60010161027b565b5090505b92915050565b606080825167ffffffffffffffff8111801561046b57600080fd5b50604051908082528060200260200182016040528015610495578160200160208202803683370190505b50905060005b83518110156104df576104c08482815181106104b357fe5b60200260200101516112e7565b8282815181106104cc57fe5b602090810291909101015260010161049b565b5090505b919050565b60608060006060855167ffffffffffffffff8111801561050757600080fd5b50604051908082528060200260200182016040528015610531578160200160208202803683370190505b509050600091505b855182101561064f577f000000000000000000000000000000000000000000000000000000000000000073ffffffffffffffffffffffffffffffffffffffff1663f6c0092787848151811061058a57fe5b60200260200101516040518263ffffffff1660e01b81526004016105ae91906124a3565b604080518083038186803b1580156105c557600080fd5b505afa1580156105d9573d6000803e3d6000fd5b505050506040513d601f19601f820116820180604052508101906105fd9190611d13565b5081838151811061060a57fe5b602002602001018173ffffffffffffffffffffffffffffffffffffffff1673ffffffffffffffffffffffffffffffffffffffff16815250508180600101925050610539565b8460200151156106655761066281611253565b93505b8451156106785761067581610904565b92505b50509250929050565b60608060006060855167ffffffffffffffff811180156106a057600080fd5b506040519080825280602002602001820160405280156106d457816020015b60608152602001906001900390816106bf5790505b50905060005b86518110156107d2577f000000000000000000000000000000000000000000000000000000000000000073ffffffffffffffffffffffffffffffffffffffff1663f94d466888838151811061072b57fe5b60200260200101516040518263ffffffff1660e01b815260040161074f91906124a3565b60006040518083038186803b15801561076757600080fd5b505afa15801561077b573d6000803e3d6000fd5b505050506040513d6000823e601f3d908101601f191682016040526107a39190810190612114565b909550935050858311156107ca57838282815181106107be57fe5b60200260200101819052505b6001016106da565b5095945050505050565b606080825167ffffffffffffffff811180156107f757600080fd5b50604051908082528060200260200182016040528015610821578160200160208202803683370190505b50905060005b83518110156104df5761084c84828151811061083f57fe5b6020026020010151611372565b82828151811061085857fe5b6020908102919091010152600101610827565b606080825167ffffffffffffffff8111801561088657600080fd5b506040519080825280602002602001820160405280156108ba57816020015b60608152602001906001900390816108a55790505b50905060005b83518110156104df576108e58482815181106108d857fe5b6020026020010151611401565b8282815181106108f157fe5b60209081029190910101526001016108c0565b606080825167ffffffffffffffff8111801561091f57600080fd5b50604051908082528060200260200182016040528015610949578160200160208202803683370190505b50905060005b83518110156104df5761097484828151811061096757fe5b6020026020010151611497565b82828151811061098057fe5b9115156020928302919091019091015260010161094f565b606080825167ffffffffffffffff811180156109b357600080fd5b506040519080825280602002602001820160405280156109e757816020015b60608152602001906001900390816109d25790505b50905060005b83518110156104df57610a12848281518110610a0557fe5b602002602001015161150c565b828281518110610a1e57fe5b60209081029190910101526001016109ed565b606080835167ffffffffffffffff81118015610a4c57600080fd5b50604051908082528060200260200182016040528015610a76578160200160208202803683370190505b50905060005b8451811015610446576001848281518110610a9357fe5b60200260200101516002811115610aa657fe5b1415610ae557610ac8858281518110610abb57fe5b6020026020010151611554565b828281518110610ad457fe5b602002602001018181525050610b5d565b6002848281518110610af357fe5b60200260200101516002811115610b0657fe5b1415610b2857610ac8858281518110610b1b57fe5b602002602001015161159c565b610b44858281518110610b3757fe5b60200260200101516115e4565b828281518110610b5057fe5b6020026020010181815250505b600101610a7c565b6060806060806060806060806060600060608c5167ffffffffffffffff81118015610b8f57600080fd5b50604051908082528060200260200182016040528015610bb9578160200160208202803683370190505b509050600091505b8c51821015610cd7577f000000000000000000000000000000000000000000000000000000000000000073ffffffffffffffffffffffffffffffffffffffff1663f6c009278e8481518110610c1257fe5b60200260200101516040518263ffffffff1660e01b8152600401610c3691906124a3565b604080518083038186803b158015610c4d57600080fd5b505afa158015610c61573d6000803e3d6000fd5b505050506040513d601f19601f82011682018060405250810190610c859190611d13565b50818381518110610c9257fe5b602002602001018173ffffffffffffffffffffffffffffffffffffffff1673ffffffffffffffffffffffffffffffffffffffff16815250508180600101925050610bc1565b8b5115610cf057610ced8d8d6101000151610681565b9a505b8b6020015115610d0c57610d09818d6101200151610a31565b99505b8b6040015115610d2857610d25818d6101400151610230565b98505b8b6060015115610e065760608c61016001515167ffffffffffffffff81118015610d5157600080fd5b50604051908082528060200260200182016040528015610d7b578160200160208202803683370190505b509050600092505b8c610160015151831015610df957818d61016001518481518110610da357fe5b602002602001015181518110610db557fe5b6020026020010151818481518110610dc957fe5b73ffffffffffffffffffffffffffffffffffffffff90921660209283029190910190910152600190920191610d83565b610e0281610450565b9850505b8b6080015115610ee45760608c61018001515167ffffffffffffffff81118015610e2f57600080fd5b50604051908082528060200260200182016040528015610e59578160200160208202803683370190505b509050600092505b8c610180015151831015610ed757818d61018001518481518110610e8157fe5b602002602001015181518110610e9357fe5b6020026020010151818481518110610ea757fe5b73ffffffffffffffffffffffffffffffffffffffff90921660209283029190910190910152600190920191610e61565b610ee081610998565b9750505b8b60a0015115610fc25760608c6101a001515167ffffffffffffffff81118015610f0d57600080fd5b50604051908082528060200260200182016040528015610f37578160200160208202803683370190505b509050600092505b8c6101a0015151831015610fb557818d6101a001518481518110610f5f57fe5b602002602001015181518110610f7157fe5b6020026020010151818481518110610f8557fe5b73ffffffffffffffffffffffffffffffffffffffff90921660209283029190910190910152600190920191610f3f565b610fbe8161086b565b9650505b8b60c00151156110a05760608c6101c001515167ffffffffffffffff81118015610feb57600080fd5b50604051908082528060200260200182016040528015611015578160200160208202803683370190505b509050600092505b8c6101c001515183101561109357818d6101c00151848151811061103d57fe5b60200260200101518151811061104f57fe5b602002602001015181848151811061106357fe5b73ffffffffffffffffffffffffffffffffffffffff9092166020928302919091019091015260019092019161101d565b61109c816107dc565b9550505b8b60e001511561117e5760608c6101e001515167ffffffffffffffff811180156110c957600080fd5b506040519080825280602002602001820160405280156110f3578160200160208202803683370190505b509050600092505b8c6101e001515183101561117157818d6101e00151848151811061111b57fe5b60200260200101518151811061112d57fe5b602002602001015181848151811061114157fe5b73ffffffffffffffffffffffffffffffffffffffff909216602092830291909101909101526001909201916110fb565b61117a816111a0565b9450505b61118f8d8d8c8c8c8a8a8d8f61162c565b925050509295985092959850929598565b606080825167ffffffffffffffff811180156111bb57600080fd5b506040519080825280602002602001820160405280156111e5578160200160208202803683370190505b50905060005b83518110156104df5761121084828151811061120357fe5b6020026020010151611a3a565b82828151811061121c57fe5b60209081029190910101526001016111eb565b7f000000000000000000000000000000000000000000000000000000000000000081565b606080825167ffffffffffffffff8111801561126e57600080fd5b50604051908082528060200260200182016040528015611298578160200160208202803683370190505b50905060005b83518110156104df576112c38482815181106112b657fe5b6020026020010151611a82565b8282815181106112cf57fe5b9115156020928302919091019091015260010161129e565b60008173ffffffffffffffffffffffffffffffffffffffff1663f5431aa86040518163ffffffff1660e01b815260040160206040518083038186803b15801561132f57600080fd5b505afa92505050801561135f575060408051601f3d908101601f1916820190925261135c9181019061226c565b60015b61136b575060006104e3565b90506104e3565b60008173ffffffffffffffffffffffffffffffffffffffff16636daccffa6040518163ffffffff1660e01b815260040160606040518083038186803b1580156113ba57600080fd5b505afa9250505080156113ea575060408051601f3d908101601f191682019092526113e791810190612284565b60015b6113f6575060006104e3565b8293505050506104e3565b60608173ffffffffffffffffffffffffffffffffffffffff16631dd746ea6040518163ffffffff1660e01b815260040160006040518083038186803b15801561144957600080fd5b505afa92505050801561147e57506040513d6000823e601f3d908101601f1916820160405261147b91908101906121e0565b60015b61136b57506040805160008152602081019091526104e3565b60008173ffffffffffffffffffffffffffffffffffffffff1663b35056b86040518163ffffffff1660e01b815260040160206040518083038186803b1580156114df57600080fd5b505afa92505050801561135f575060408051601f3d908101601f1916820190925261135c91810190612213565b60608173ffffffffffffffffffffffffffffffffffffffff1663f89f27ed6040518163ffffffff1660e01b815260040160006040518083038186803b15801561144957600080fd5b60008173ffffffffffffffffffffffffffffffffffffffff1663de82cd346040518163ffffffff1660e01b815260040160206040518083038186803b15801561132f57600080fd5b60008173ffffffffffffffffffffffffffffffffffffffff1663876f303b6040518163ffffffff1660e01b815260040160206040518083038186803b15801561132f57600080fd5b60008173ffffffffffffffffffffffffffffffffffffffff166318160ddd6040518163ffffffff1660e01b815260040160206040518083038186803b15801561132f57600080fd5b6060808a5167ffffffffffffffff8111801561164757600080fd5b50604051908082528060200260200182016040528015611671578160200160208202803683370190505b5090506000805b8c518110156116fb578b6020015180156116a557508a818151811061169957fe5b60200260200101516000145b806116cf57508b6040015180156116cf57508981815181106116c357fe5b60200260200101516000145b156116f35760018382815181106116e257fe5b911515602092830291909101909101525b600101611678565b8b6060015115611772575060005b8b6101600151518110156117725788818151811061172357fe5b60200260200101516000141561176a576001838d6101600151838151811061174757fe5b60200260200101518151811061175957fe5b911515602092830291909101909101525b600101611709565b8b60c00151156117e9575060005b8b6101c00151518110156117e95787818151811061179a57fe5b6020026020010151600014156117e1576001838d6101c0015183815181106117be57fe5b6020026020010151815181106117d057fe5b911515602092830291909101909101525b600101611780565b8b60e0015115611860575060005b8b6101e00151518110156118605786818151811061181157fe5b602002602001015160001415611858576001838d6101e00151838151811061183557fe5b60200260200101518151811061184757fe5b911515602092830291909101909101525b6001016117f7565b8b60a00151156118d8575060005b8b6101a00151518110156118d85785818151811061188857fe5b602002602001015151600014156118d0576001838d6101a0015183815181106118ad57fe5b6020026020010151815181106118bf57fe5b911515602092830291909101909101525b60010161186e565b8b6080015115611950575060005b8b6101800151518110156119505784818151811061190057fe5b60200260200101515160001415611948576001838d6101800151838151811061192557fe5b60200260200101518151811061193757fe5b911515602092830291909101909101525b6001016118e6565b5060005b825181101561198c5782818151811061196957fe5b60200260200101511515600115151415611984576001909101905b600101611954565b60608267ffffffffffffffff811180156119a557600080fd5b506040519080825280602002602001820160405280156119cf578160200160208202803683370190505b50905060008092505b8451831015611a28578483815181106119ed57fe5b60200260200101511515600115151415611a1d5782828281518110611a0e57fe5b60209081029190910101526001015b6001909201916119d8565b509d9c50505050505050505050505050565b60008173ffffffffffffffffffffffffffffffffffffffff1663679aefce6040518163ffffffff1660e01b815260040160206040518083038186803b15801561132f57600080fd5b60008173ffffffffffffffffffffffffffffffffffffffff16631c0de0516040518163ffffffff1660e01b815260040160606040518083038186803b158015611aca57600080fd5b505afa9250505080156113ea575060408051601f3d908101601f191682019092526113e791810190612236565b600082601f830112611b07578081fd5b8135611b1a611b15826124f4565b6124cd565b818152915060208083019084810181840286018201871015611b3b57600080fd5b60005b84811015611b63578135611b5181612514565b84529282019290820190600101611b3e565b505050505092915050565b600082601f830112611b7e578081fd5b8135611b8c611b15826124f4565b818152915060208083019084810181840286018201871015611bad57600080fd5b60005b84811015611b6357813584529282019290820190600101611bb0565b600082601f830112611bdc578081fd5b8135611bea611b15826124f4565b818152915060208083019084810181840286018201871015611c0b57600080fd5b6000805b85811015611c3757823560028110611c25578283fd5b85529383019391830191600101611c0f565b50505050505092915050565b600082601f830112611c53578081fd5b8135611c61611b15826124f4565b818152915060208083019084810181840286018201871015611c8257600080fd5b60005b84811015611b63578135611c9881612547565b84529282019290820190600101611c85565b600082601f830112611cba578081fd5b8151611cc8611b15826124f4565b818152915060208083019084810181840286018201871015611ce957600080fd5b60005b84811015611b6357815184529282019290820190600101611cec565b803561044a81612539565b60008060408385031215611d25578182fd5b8251611d3081612514565b6020840151909250611d4181612547565b809150509250929050565b600060208284031215611d5d578081fd5b813567ffffffffffffffff811115611d73578182fd5b611d7f84828501611af7565b949350505050565b60008060408385031215611d99578182fd5b823567ffffffffffffffff80821115611db0578384fd5b611dbc86838701611af7565b93506020850135915080821115611dd1578283fd5b50611dde85828601611bcc565b9150509250929050565b60008060408385031215611dfa578182fd5b823567ffffffffffffffff80821115611e11578384fd5b611e1d86838701611af7565b93506020850135915080821115611e32578283fd5b50611dde85828601611c43565b60008060408385031215611e51578182fd5b823567ffffffffffffffff80821115611e68578384fd5b611e7486838701611b6e565b93506020850135915080821115611e89578283fd5b8185019150610200808388031215611e9f578384fd5b611ea8816124cd565b9050611eb48784611d08565b8152611ec38760208501611d08565b6020820152611ed58760408501611d08565b6040820152611ee78760608501611d08565b6060820152611ef98760808501611d08565b6080820152611f0b8760a08501611d08565b60a0820152611f1d8760c08501611d08565b60c0820152611f2f8760e08501611d08565b60e082015261010083810135908201526101208084013583811115611f52578586fd5b611f5e89828701611c43565b8284015250506101408084013583811115611f77578586fd5b611f8389828701611bcc565b8284015250506101608084013583811115611f9c578586fd5b611fa889828701611b6e565b8284015250506101808084013583811115611fc1578586fd5b611fcd89828701611b6e565b8284015250506101a08084013583811115611fe6578586fd5b611ff289828701611b6e565b8284015250506101c0808401358381111561200b578586fd5b61201789828701611b6e565b8284015250506101e08084013583811115612030578586fd5b61203c89828701611b6e565b8284015250508093505050509250929050565b6000808284036060811215612062578283fd5b833567ffffffffffffffff811115612078578384fd5b61208486828701611b6e565b9350506040601f1982011215612098578182fd5b506120a360406124cd565b60208401356120b181612539565b815260408401356120c181612539565b6020820152919491935090915050565b600080604083850312156120e3578182fd5b823567ffffffffffffffff8111156120f9578283fd5b61210585828601611b6e565b95602094909401359450505050565b600080600060608486031215612128578081fd5b835167ffffffffffffffff8082111561213f578283fd5b818601915086601f830112612152578283fd5b8151612160611b15826124f4565b80828252602080830192508086018b828387028901011115612180578788fd5b8796505b848710156121ab57805161219781612514565b845260019690960195928101928101612184565b5089015190975093505050808211156121c2578283fd5b506121cf86828701611caa565b925050604084015190509250925092565b6000602082840312156121f1578081fd5b815167ffffffffffffffff811115612207578182fd5b611d7f84828501611caa565b600060208284031215612224578081fd5b815161222f81612539565b9392505050565b60008060006060848603121561224a578081fd5b835161225581612539565b602085015160409095015190969495509392505050565b60006020828403121561227d578081fd5b5051919050565b600080600060608486031215612298578081fd5b8351925060208401516122aa81612539565b80925050604084015190509250925092565b6000815180845260208085019450848183028601828601855b858110156122ff5783830389526122ed838351612348565b988501989250908401906001016122d5565b5090979650505050505050565b6000815180845260208085019450808401835b8381101561233d57815115158752958201959082019060010161231f565b509495945050505050565b6000815180845260208085019450808401835b8381101561233d5781518752958201959082019060010161235b565b60006020825261222f60208301846122bc565b600061012080835261239e8184018d6122bc565b905082810360208401526123b2818c612348565b905082810360408401526123c6818b612348565b905082810360608401526123da818a612348565b905082810360808401526123ee81896122bc565b905082810360a084015261240281886122bc565b905082810360c08401526124168187612348565b905082810360e084015261242a8186612348565b905082810361010084015261243f8185612348565b9c9b505050505050505050505050565b60006020825261222f602083018461230c565b600060408252612475604083018561230c565b8281036020840152612487818561230c565b95945050505050565b60006020825261222f6020830184612348565b90815260200190565b73ffffffffffffffffffffffffffffffffffffffff91909116815260200190565b60405181810167ffffffffffffffff811182821017156124ec57600080fd5b604052919050565b600067ffffffffffffffff82111561250a578081fd5b5060209081020190565b73ffffffffffffffffffffffffffffffffffffffff8116811461253657600080fd5b50565b801515811461253657600080fd5b6003811061253657600080fdfea26469706673582212209ad6106a677feb31d72d93816f4810d87c6c84d5ba8f4690e7823e8f2c2d48dc64736f6c63430007010033",
  "linkReferences": {},
  "deployedLinkReferences": {}
}