{
  "_format": "hh-sol-artifact-1",
  "contractName": "BalancerPoolDataQueries",
  "sourceName": "contracts/BalancerPoolDataQueries.sol",
  "abi": [
    {
      "inputs": [
        {
          "internalType": "contract IVault",
          "name": "_vault",
          "type": "address"
        }
      ],
      "stateMutability": "nonpayable",
      "type": "constructor"
    },
    {
      "inputs": [
        {
          "internalType": "address[]",
          "name": "poolAddresses",
          "type": "address[]"
        }
      ],
      "name": "getAmpForPools",
      "outputs": [
        {
          "internalType": "uint256[]",
          "name": "",
          "type": "uint256[]"
        }
      ],
      "stateMutability": "view",
      "type": "function"
    },
    {
      "inputs": [
        {
          "internalType": "address[]",
          "name": "poolAddresses",
          "type": "address[]"
        }
      ],
      "name": "getNormalizedWeightsForPools",
      "outputs": [
        {
          "internalType": "uint256[][]",
          "name": "",
          "type": "uint256[][]"
        }
      ],
      "stateMutability": "view",
      "type": "function"
    },
    {
      "inputs": [
        {
          "internalType": "bytes32[]",
          "name": "poolIds",
          "type": "bytes32[]"
        },
        {
          "components": [
            {
              "internalType": "bool",
              "name": "loadTokenBalanceUpdatesAfterBlock",
              "type": "bool"
            },
            {
              "internalType": "bool",
              "name": "loadTotalSupply",
              "type": "bool"
            },
            {
              "internalType": "bool",
              "name": "loadSwapFees",
              "type": "bool"
            },
            {
              "internalType": "bool",
              "name": "loadLinearWrappedTokenRates",
              "type": "bool"
            },
            {
              "internalType": "bool",
              "name": "loadNormalizedWeights",
              "type": "bool"
            },
            {
              "internalType": "bool",
              "name": "loadScalingFactors",
              "type": "bool"
            },
            {
              "internalType": "bool",
              "name": "loadAmps",
              "type": "bool"
            },
            {
              "internalType": "bool",
              "name": "loadRates",
              "type": "bool"
            },
            {
              "internalType": "uint256",
              "name": "blockNumber",
              "type": "uint256"
            },
            {
              "internalType": "enum TotalSupplyType[]",
              "name": "totalSupplyTypes",
              "type": "uint8[]"
            },
            {
              "internalType": "enum SwapFeeType[]",
              "name": "swapFeeTypes",
              "type": "uint8[]"
            },
            {
              "internalType": "uint256[]",
              "name": "linearPoolIdxs",
              "type": "uint256[]"
            },
            {
              "internalType": "uint256[]",
              "name": "weightedPoolIdxs",
              "type": "uint256[]"
            },
            {
              "internalType": "uint256[]",
              "name": "scalingFactorPoolIdxs",
              "type": "uint256[]"
            },
            {
              "internalType": "uint256[]",
              "name": "ampPoolIdxs",
              "type": "uint256[]"
            },
            {
              "internalType": "uint256[]",
              "name": "ratePoolIdxs",
              "type": "uint256[]"
            }
          ],
          "internalType": "struct PoolDataQueryConfig",
          "name": "config",
          "type": "tuple"
        }
      ],
      "name": "getPoolData",
      "outputs": [
        {
          "internalType": "uint256[][]",
          "name": "balances",
          "type": "uint256[][]"
        },
        {
          "internalType": "uint256[]",
          "name": "totalSupplies",
          "type": "uint256[]"
        },
        {
          "internalType": "uint256[]",
          "name": "swapFees",
          "type": "uint256[]"
        },
        {
          "internalType": "uint256[]",
          "name": "linearWrappedTokenRates",
          "type": "uint256[]"
        },
        {
          "internalType": "uint256[][]",
          "name": "weights",
          "type": "uint256[][]"
        },
        {
          "internalType": "uint256[][]",
          "name": "scalingFactors",
          "type": "uint256[][]"
        },
        {
          "internalType": "uint256[]",
          "name": "amps",
          "type": "uint256[]"
        },
        {
          "internalType": "uint256[]",
          "name": "rates",
          "type": "uint256[]"
        },
        {
          "internalType": "uint256[]",
          "name": "ignoreIdxs",
          "type": "uint256[]"
        }
      ],
      "stateMutability": "view",
      "type": "function"
    },
    {
      "inputs": [
        {
          "internalType": "bytes32[]",
          "name": "poolIds",
          "type": "bytes32[]"
        },
        {
          "internalType": "uint256",
          "name": "blockNumber",
          "type": "uint256"
        }
      ],
      "name": "getPoolTokenBalancesWithUpdatesAfterBlock",
      "outputs": [
        {
          "internalType": "uint256[][]",
          "name": "",
          "type": "uint256[][]"
        }
      ],
      "stateMutability": "view",
      "type": "function"
    },
    {
      "inputs": [
        {
          "internalType": "address[]",
          "name": "poolAddresses",
          "type": "address[]"
        }
      ],
      "name": "getRateForPools",
      "outputs": [
        {
          "internalType": "uint256[]",
          "name": "",
          "type": "uint256[]"
        }
      ],
      "stateMutability": "view",
      "type": "function"
    },
    {
      "inputs": [
        {
          "internalType": "address[]",
          "name": "poolAddresses",
          "type": "address[]"
        }
      ],
      "name": "getScalingFactorsForPools",
      "outputs": [
        {
          "internalType": "uint256[][]",
          "name": "",
          "type": "uint256[][]"
        }
      ],
      "stateMutability": "view",
      "type": "function"
    },
    {
      "inputs": [
        {
          "internalType": "address[]",
          "name": "poolAddresses",
          "type": "address[]"
        },
        {
          "internalType": "enum SwapFeeType[]",
          "name": "swapFeeTypes",
          "type": "uint8[]"
        }
      ],
      "name": "getSwapFeePercentageForPools",
      "outputs": [
        {
          "internalType": "uint256[]",
          "name": "",
          "type": "uint256[]"
        }
      ],
      "stateMutability": "view",
      "type": "function"
    },
    {
      "inputs": [
        {
          "internalType": "address[]",
          "name": "poolAddresses",
          "type": "address[]"
        },
        {
          "internalType": "enum TotalSupplyType[]",
          "name": "totalSupplyTypes",
          "type": "uint8[]"
        }
      ],
      "name": "getTotalSupplyForPools",
      "outputs": [
        {
          "internalType": "uint256[]",
          "name": "",
          "type": "uint256[]"
        }
      ],
      "stateMutability": "view",
      "type": "function"
    },
    {
      "inputs": [
        {
          "internalType": "address[]",
          "name": "poolAddresses",
          "type": "address[]"
        }
      ],
      "name": "getWrappedTokenRateForLinearPools",
      "outputs": [
        {
          "internalType": "uint256[]",
          "name": "",
          "type": "uint256[]"
        }
      ],
      "stateMutability": "view",
      "type": "function"
    },
    {
      "inputs": [],
      "name": "vault",
      "outputs": [
        {
          "internalType": "contract IVault",
          "name": "",
          "type": "address"
        }
      ],
      "stateMutability": "view",
      "type": "function"
    }
  ],
  "bytecode": "0x60a060405234801561001057600080fd5b50604051611fc7380380611fc783398101604081905261002f91610044565b60601b6001600160601b031916608052610072565b600060208284031215610055578081fd5b81516001600160a01b038116811461006b578182fd5b9392505050565b60805160601c611f2e610099600039806104a85280610ada528061113d5250611f2e6000f3fe608060405234801561001057600080fd5b50600436106100be5760003560e01c8063b3a4600111610076578063b77030ed1161005b578063b77030ed1461016b578063c4fb0f8214610193578063fbfa77cf146101a6576100be565b8063b3a4600114610145578063b4a9f0c814610158576100be565b8063716bb27a116100a7578063716bb27a146100ff5780637b2de5331461011f578063828f7c7d14610132576100be565b806304013a7d146100c357806317615f32146100ec575b600080fd5b6100d66100d136600461186e565b6101bb565b6040516100e39190611e34565b60405180910390f35b6100d66100fa366004611833565b6103ac565b61011261010d366004611b36565b610444565b6040516100e39190611d55565b6100d661012d366004611833565b61059f565b610112610140366004611833565b6106a6565b610112610153366004611833565b6107b8565b6100d66101663660046118cf565b6108ca565b61017e610179366004611926565b610a73565b6040516100e399989796959493929190611d6f565b6100d66101a1366004611833565b6110ac565b6101ae61113b565b6040516100e39190611e50565b606080835167ffffffffffffffff811180156101d657600080fd5b50604051908082528060200260200182016040528015610200578160200160208202803683370190505b50905060005b84518110156103a257600184828151811061021d57fe5b6020026020010151600181111561023057fe5b14156102e45784818151811061024257fe5b602002602001015173ffffffffffffffffffffffffffffffffffffffff16634c1a41156040518163ffffffff1660e01b815260040160206040518083038186803b15801561028f57600080fd5b505afa1580156102a3573d6000803e3d6000fd5b505050506040513d601f19601f820116820180604052508101906102c79190611c78565b8282815181106102d357fe5b60200260200101818152505061039a565b8481815181106102f057fe5b602002602001015173ffffffffffffffffffffffffffffffffffffffff166355c676286040518163ffffffff1660e01b815260040160206040518083038186803b15801561033d57600080fd5b505afa92505050801561036d575060408051601f3d908101601f1916820190925261036a91810190611c78565b60015b61037f5760008282815181106102d357fe5b8083838151811061038c57fe5b602002602001018181525050505b600101610206565b5090505b92915050565b606080825167ffffffffffffffff811180156103c757600080fd5b506040519080825280602002602001820160405280156103f1578160200160208202803683370190505b50905060005b835181101561043b5761041c84828151811061040f57fe5b602002602001015161115f565b82828151811061042857fe5b60209081029190910101526001016103f7565b5090505b919050565b60608060006060855167ffffffffffffffff8111801561046357600080fd5b5060405190808252806020026020018201604052801561049757816020015b60608152602001906001900390816104825790505b50905060005b8651811015610595577f000000000000000000000000000000000000000000000000000000000000000073ffffffffffffffffffffffffffffffffffffffff1663f94d46688883815181106104ee57fe5b60200260200101516040518263ffffffff1660e01b81526004016105129190611e47565b60006040518083038186803b15801561052a57600080fd5b505afa15801561053e573d6000803e3d6000fd5b505050506040513d6000823e601f3d908101601f191682016040526105669190810190611b79565b9095509350508583111561058d578382828151811061058157fe5b60200260200101819052505b60010161049d565b5095945050505050565b606080825167ffffffffffffffff811180156105ba57600080fd5b506040519080825280602002602001820160405280156105e4578160200160208202803683370190505b50905060005b835181101561043b578381815181106105ff57fe5b602002602001015173ffffffffffffffffffffffffffffffffffffffff16636daccffa6040518163ffffffff1660e01b815260040160606040518083038186803b15801561064c57600080fd5b505afa158015610660573d6000803e3d6000fd5b505050506040513d601f19601f820116820180604052508101906106849190611c90565b90505082828151811061069357fe5b60209081029190910101526001016105ea565b606080825167ffffffffffffffff811180156106c157600080fd5b506040519080825280602002602001820160405280156106f557816020015b60608152602001906001900390816106e05790505b50905060005b835181101561043b5783818151811061071057fe5b602002602001015173ffffffffffffffffffffffffffffffffffffffff16631dd746ea6040518163ffffffff1660e01b815260040160006040518083038186803b15801561075d57600080fd5b505afa158015610771573d6000803e3d6000fd5b505050506040513d6000823e601f3d908101601f191682016040526107999190810190611c45565b8282815181106107a557fe5b60209081029190910101526001016106fb565b606080825167ffffffffffffffff811180156107d357600080fd5b5060405190808252806020026020018201604052801561080757816020015b60608152602001906001900390816107f25790505b50905060005b835181101561043b5783818151811061082257fe5b602002602001015173ffffffffffffffffffffffffffffffffffffffff1663f89f27ed6040518163ffffffff1660e01b815260040160006040518083038186803b15801561086f57600080fd5b505afa158015610883573d6000803e3d6000fd5b505050506040513d6000823e601f3d908101601f191682016040526108ab9190810190611c45565b8282815181106108b757fe5b602090810291909101015260010161080d565b606080835167ffffffffffffffff811180156108e557600080fd5b5060405190808252806020026020018201604052801561090f578160200160208202803683370190505b50905060005b84518110156103a257600184828151811061092c57fe5b6020026020010151600281111561093f57fe5b141561097e5761096185828151811061095457fe5b60200260200101516111ea565b82828151811061096d57fe5b602002602001018181525050610a6b565b600284828151811061098c57fe5b6020026020010151600281111561099f57fe5b14156109c1576109618582815181106109b457fe5b6020026020010151611232565b8481815181106109cd57fe5b602002602001015173ffffffffffffffffffffffffffffffffffffffff166318160ddd6040518163ffffffff1660e01b815260040160206040518083038186803b158015610a1a57600080fd5b505afa158015610a2e573d6000803e3d6000fd5b505050506040513d601f19601f82011682018060405250810190610a529190611c78565b828281518110610a5e57fe5b6020026020010181815250505b600101610915565b6060806060806060806060806060600060608c5167ffffffffffffffff81118015610a9d57600080fd5b50604051908082528060200260200182016040528015610ac7578160200160208202803683370190505b509050600091505b8c51821015610be5577f000000000000000000000000000000000000000000000000000000000000000073ffffffffffffffffffffffffffffffffffffffff1663f6c009278e8481518110610b2057fe5b60200260200101516040518263ffffffff1660e01b8152600401610b449190611e47565b604080518083038186803b158015610b5b57600080fd5b505afa158015610b6f573d6000803e3d6000fd5b505050506040513d601f19601f82011682018060405250810190610b9391906117fa565b50818381518110610ba057fe5b602002602001018173ffffffffffffffffffffffffffffffffffffffff1673ffffffffffffffffffffffffffffffffffffffff16815250508180600101925050610acf565b8b5115610bfe57610bfb8d8d6101000151610444565b9a505b8b6020015115610c1a57610c17818d61012001516108ca565b99505b8b6040015115610c3657610c33818d61014001516101bb565b98505b8b6060015115610d145760608c61016001515167ffffffffffffffff81118015610c5f57600080fd5b50604051908082528060200260200182016040528015610c89578160200160208202803683370190505b509050600092505b8c610160015151831015610d0757818d61016001518481518110610cb157fe5b602002602001015181518110610cc357fe5b6020026020010151818481518110610cd757fe5b73ffffffffffffffffffffffffffffffffffffffff90921660209283029190910190910152600190920191610c91565b610d10816103ac565b9850505b8b6080015115610df25760608c61018001515167ffffffffffffffff81118015610d3d57600080fd5b50604051908082528060200260200182016040528015610d67578160200160208202803683370190505b509050600092505b8c610180015151831015610de557818d61018001518481518110610d8f57fe5b602002602001015181518110610da157fe5b6020026020010151818481518110610db557fe5b73ffffffffffffffffffffffffffffffffffffffff90921660209283029190910190910152600190920191610d6f565b610dee816107b8565b9750505b8b60a0015115610ed05760608c6101a001515167ffffffffffffffff81118015610e1b57600080fd5b50604051908082528060200260200182016040528015610e45578160200160208202803683370190505b509050600092505b8c6101a0015151831015610ec357818d6101a001518481518110610e6d57fe5b602002602001015181518110610e7f57fe5b6020026020010151818481518110610e9357fe5b73ffffffffffffffffffffffffffffffffffffffff90921660209283029190910190910152600190920191610e4d565b610ecc816106a6565b9650505b8b60c0015115610fae5760608c6101c001515167ffffffffffffffff81118015610ef957600080fd5b50604051908082528060200260200182016040528015610f23578160200160208202803683370190505b509050600092505b8c6101c0015151831015610fa157818d6101c001518481518110610f4b57fe5b602002602001015181518110610f5d57fe5b6020026020010151818481518110610f7157fe5b73ffffffffffffffffffffffffffffffffffffffff90921660209283029190910190910152600190920191610f2b565b610faa8161059f565b9550505b8b60e001511561108c5760608c6101e001515167ffffffffffffffff81118015610fd757600080fd5b50604051908082528060200260200182016040528015611001578160200160208202803683370190505b509050600092505b8c6101e001515183101561107f57818d6101e00151848151811061102957fe5b60200260200101518151811061103b57fe5b602002602001015181848151811061104f57fe5b73ffffffffffffffffffffffffffffffffffffffff90921660209283029190910190910152600190920191611009565b611088816110ac565b9450505b61109b8d8d8c8c8c8a8a61127a565b925050509295985092959850929598565b606080825167ffffffffffffffff811180156110c757600080fd5b506040519080825280602002602001820160405280156110f1578160200160208202803683370190505b50905060005b835181101561043b5761111c84828151811061110f57fe5b6020026020010151611596565b82828151811061112857fe5b60209081029190910101526001016110f7565b7f000000000000000000000000000000000000000000000000000000000000000081565b60008173ffffffffffffffffffffffffffffffffffffffff1663f5431aa86040518163ffffffff1660e01b815260040160206040518083038186803b1580156111a757600080fd5b505afa9250505080156111d7575060408051601f3d908101601f191682019092526111d491810190611c78565b60015b6111e35750600061043f565b905061043f565b60008173ffffffffffffffffffffffffffffffffffffffff1663de82cd346040518163ffffffff1660e01b815260040160206040518083038186803b1580156111a757600080fd5b60008173ffffffffffffffffffffffffffffffffffffffff1663876f303b6040518163ffffffff1660e01b815260040160206040518083038186803b1580156111a757600080fd5b606080885167ffffffffffffffff8111801561129557600080fd5b506040519080825280602002602001820160405280156112bf578160200160208202803683370190505b5090506000805b8a5181101561134957896020015180156112f357508881815181106112e757fe5b60200260200101516000145b8061131d57508960400151801561131d575087818151811061131157fe5b60200260200101516000145b1561134157600183828151811061133057fe5b911515602092830291909101909101525b6001016112c6565b8960600151156113c0575060005b896101600151518110156113c05786818151811061137157fe5b6020026020010151600014156113b8576001838b6101600151838151811061139557fe5b6020026020010151815181106113a757fe5b911515602092830291909101909101525b600101611357565b8960c0015115611437575060005b896101c0015151811015611437578581815181106113e857fe5b60200260200101516000141561142f576001838b6101c00151838151811061140c57fe5b60200260200101518151811061141e57fe5b911515602092830291909101909101525b6001016113ce565b8960e00151156114ae575060005b896101e00151518110156114ae5784818151811061145f57fe5b6020026020010151600014156114a6576001838b6101e00151838151811061148357fe5b60200260200101518151811061149557fe5b911515602092830291909101909101525b600101611445565b5060005b82518110156114ea578281815181106114c757fe5b602002602001015115156001151514156114e2576001909101905b6001016114b2565b60608267ffffffffffffffff8111801561150357600080fd5b5060405190808252806020026020018201604052801561152d578160200160208202803683370190505b50905060008092505b84518310156115865784838151811061154b57fe5b6020026020010151151560011515141561157b578282828151811061156c57fe5b60209081029190910101526001015b600190920191611536565b509b9a5050505050505050505050565b60008173ffffffffffffffffffffffffffffffffffffffff1663679aefce6040518163ffffffff1660e01b815260040160206040518083038186803b1580156111a757600080fd5b600082601f8301126115ee578081fd5b81356116016115fc82611e98565b611e71565b81815291506020808301908481018184028601820187101561162257600080fd5b60005b8481101561164a57813561163881611eb8565b84529282019290820190600101611625565b505050505092915050565b600082601f830112611665578081fd5b81356116736115fc82611e98565b81815291506020808301908481018184028601820187101561169457600080fd5b60005b8481101561164a57813584529282019290820190600101611697565b600082601f8301126116c3578081fd5b81356116d16115fc82611e98565b8181529150602080830190848101818402860182018710156116f257600080fd5b6000805b8581101561171e5782356002811061170c578283fd5b855293830193918301916001016116f6565b50505050505092915050565b600082601f83011261173a578081fd5b81356117486115fc82611e98565b81815291506020808301908481018184028601820187101561176957600080fd5b60005b8481101561164a57813561177f81611eeb565b8452928201929082019060010161176c565b600082601f8301126117a1578081fd5b81516117af6115fc82611e98565b8181529150602080830190848101818402860182018710156117d057600080fd5b60005b8481101561164a578151845292820192908201906001016117d3565b80356103a681611edd565b6000806040838503121561180c578182fd5b825161181781611eb8565b602084015190925061182881611eeb565b809150509250929050565b600060208284031215611844578081fd5b813567ffffffffffffffff81111561185a578182fd5b611866848285016115de565b949350505050565b60008060408385031215611880578182fd5b823567ffffffffffffffff80821115611897578384fd5b6118a3868387016115de565b935060208501359150808211156118b8578283fd5b506118c5858286016116b3565b9150509250929050565b600080604083850312156118e1578182fd5b823567ffffffffffffffff808211156118f8578384fd5b611904868387016115de565b93506020850135915080821115611919578283fd5b506118c58582860161172a565b60008060408385031215611938578182fd5b823567ffffffffffffffff8082111561194f578384fd5b61195b86838701611655565b93506020850135915080821115611970578283fd5b8185019150610200808388031215611986578384fd5b61198f81611e71565b905061199b87846117ef565b81526119aa87602085016117ef565b60208201526119bc87604085016117ef565b60408201526119ce87606085016117ef565b60608201526119e087608085016117ef565b60808201526119f28760a085016117ef565b60a0820152611a048760c085016117ef565b60c0820152611a168760e085016117ef565b60e082015261010083810135908201526101208084013583811115611a39578586fd5b611a458982870161172a565b8284015250506101408084013583811115611a5e578586fd5b611a6a898287016116b3565b8284015250506101608084013583811115611a83578586fd5b611a8f89828701611655565b8284015250506101808084013583811115611aa8578586fd5b611ab489828701611655565b8284015250506101a08084013583811115611acd578586fd5b611ad989828701611655565b8284015250506101c08084013583811115611af2578586fd5b611afe89828701611655565b8284015250506101e08084013583811115611b17578586fd5b611b2389828701611655565b8284015250508093505050509250929050565b60008060408385031215611b48578182fd5b823567ffffffffffffffff811115611b5e578283fd5b611b6a85828601611655565b95602094909401359450505050565b600080600060608486031215611b8d578081fd5b835167ffffffffffffffff80821115611ba4578283fd5b818601915086601f830112611bb7578283fd5b8151611bc56115fc82611e98565b80828252602080830192508086018b828387028901011115611be5578788fd5b8796505b84871015611c10578051611bfc81611eb8565b845260019690960195928101928101611be9565b508901519097509350505080821115611c27578283fd5b50611c3486828701611791565b925050604084015190509250925092565b600060208284031215611c56578081fd5b815167ffffffffffffffff811115611c6c578182fd5b61186684828501611791565b600060208284031215611c89578081fd5b5051919050565b600080600060608486031215611ca4578081fd5b835192506020840151611cb681611edd565b80925050604084015190509250925092565b6000815180845260208085018081965082840281019150828601855b85811015611d0e578284038952611cfc848351611d1b565b98850198935090840190600101611ce4565b5091979650505050505050565b6000815180845260208085019450808401835b83811015611d4a57815187529582019590820190600101611d2e565b509495945050505050565b600060208252611d686020830184611cc8565b9392505050565b6000610120808352611d838184018d611cc8565b90508281036020840152611d97818c611d1b565b90508281036040840152611dab818b611d1b565b90508281036060840152611dbf818a611d1b565b90508281036080840152611dd38189611cc8565b905082810360a0840152611de78188611cc8565b905082810360c0840152611dfb8187611d1b565b905082810360e0840152611e0f8186611d1b565b9050828103610100840152611e248185611d1b565b9c9b505050505050505050505050565b600060208252611d686020830184611d1b565b90815260200190565b73ffffffffffffffffffffffffffffffffffffffff91909116815260200190565b60405181810167ffffffffffffffff81118282101715611e9057600080fd5b604052919050565b600067ffffffffffffffff821115611eae578081fd5b5060209081020190565b73ffffffffffffffffffffffffffffffffffffffff81168114611eda57600080fd5b50565b8015158114611eda57600080fd5b60038110611eda57600080fdfea2646970667358221220601ce747d56c1ae053124b7eea19a46aeffc5c3a12b23453438803ae8a4a4e2364736f6c63430007010033",
  "linkReferences": {},
  "deployedLinkReferences": {}
}