{
  "_format": "hh-sol-artifact-1",
  "contractName": "BalancerPoolDataQueries",
  "sourceName": "contracts/BalancerPoolDataQueries.sol",
  "abi": [
    {
      "inputs": [
        {
          "internalType": "contract IVault",
          "name": "_vault",
          "type": "address"
        }
      ],
      "stateMutability": "nonpayable",
      "type": "constructor"
    },
    {
      "inputs": [
        {
          "internalType": "address[]",
          "name": "poolAddresses",
          "type": "address[]"
        }
      ],
      "name": "getAmpForPools",
      "outputs": [
        {
          "internalType": "uint256[]",
          "name": "",
          "type": "uint256[]"
        }
      ],
      "stateMutability": "view",
      "type": "function"
    },
    {
      "inputs": [
        {
          "internalType": "address[]",
          "name": "poolAddresses",
          "type": "address[]"
        }
      ],
      "name": "getInRecoveryModeForPools",
      "outputs": [
        {
          "internalType": "bool[]",
          "name": "",
          "type": "bool[]"
        }
      ],
      "stateMutability": "view",
      "type": "function"
    },
    {
      "inputs": [
        {
          "internalType": "address[]",
          "name": "poolAddresses",
          "type": "address[]"
        }
      ],
      "name": "getIsPausedForPools",
      "outputs": [
        {
          "internalType": "bool[]",
          "name": "",
          "type": "bool[]"
        }
      ],
      "stateMutability": "view",
      "type": "function"
    },
    {
      "inputs": [
        {
          "internalType": "address[]",
          "name": "poolAddresses",
          "type": "address[]"
        }
      ],
      "name": "getLinearTargetsForPools",
      "outputs": [
        {
          "internalType": "uint256[][]",
          "name": "",
          "type": "uint256[][]"
        }
      ],
      "stateMutability": "view",
      "type": "function"
    },
    {
      "inputs": [
        {
          "internalType": "address[]",
          "name": "poolAddresses",
          "type": "address[]"
        }
      ],
      "name": "getNormalizedWeightsForPools",
      "outputs": [
        {
          "internalType": "uint256[][]",
          "name": "",
          "type": "uint256[][]"
        }
      ],
      "stateMutability": "view",
      "type": "function"
    },
    {
      "inputs": [
        {
          "internalType": "bytes32[]",
          "name": "poolIds",
          "type": "bytes32[]"
        },
        {
          "components": [
            {
              "internalType": "bool",
              "name": "loadTokenBalanceUpdatesAfterBlock",
              "type": "bool"
            },
            {
              "internalType": "bool",
              "name": "loadTotalSupply",
              "type": "bool"
            },
            {
              "internalType": "bool",
              "name": "loadSwapFees",
              "type": "bool"
            },
            {
              "internalType": "bool",
              "name": "loadLinearWrappedTokenRates",
              "type": "bool"
            },
            {
              "internalType": "bool",
              "name": "loadLinearTargets",
              "type": "bool"
            },
            {
              "internalType": "bool",
              "name": "loadNormalizedWeights",
              "type": "bool"
            },
            {
              "internalType": "bool",
              "name": "loadScalingFactors",
              "type": "bool"
            },
            {
              "internalType": "bool",
              "name": "loadAmps",
              "type": "bool"
            },
            {
              "internalType": "bool",
              "name": "loadRates",
              "type": "bool"
            },
            {
              "internalType": "uint256",
              "name": "blockNumber",
              "type": "uint256"
            },
            {
              "internalType": "enum TotalSupplyType[]",
              "name": "totalSupplyTypes",
              "type": "uint8[]"
            },
            {
              "internalType": "enum SwapFeeType[]",
              "name": "swapFeeTypes",
              "type": "uint8[]"
            },
            {
              "internalType": "uint256[]",
              "name": "linearPoolIdxs",
              "type": "uint256[]"
            },
            {
              "internalType": "uint256[]",
              "name": "weightedPoolIdxs",
              "type": "uint256[]"
            },
            {
              "internalType": "uint256[]",
              "name": "scalingFactorPoolIdxs",
              "type": "uint256[]"
            },
            {
              "internalType": "uint256[]",
              "name": "ampPoolIdxs",
              "type": "uint256[]"
            },
            {
              "internalType": "uint256[]",
              "name": "ratePoolIdxs",
              "type": "uint256[]"
            }
          ],
          "internalType": "struct PoolDataQueryConfig",
          "name": "config",
          "type": "tuple"
        }
      ],
      "name": "getPoolData",
      "outputs": [
        {
          "internalType": "uint256[][]",
          "name": "balances",
          "type": "uint256[][]"
        },
        {
          "internalType": "uint256[]",
          "name": "totalSupplies",
          "type": "uint256[]"
        },
        {
          "internalType": "uint256[]",
          "name": "swapFees",
          "type": "uint256[]"
        },
        {
          "internalType": "uint256[]",
          "name": "linearWrappedTokenRates",
          "type": "uint256[]"
        },
        {
          "internalType": "uint256[][]",
          "name": "linearTargets",
          "type": "uint256[][]"
        },
        {
          "internalType": "uint256[][]",
          "name": "weights",
          "type": "uint256[][]"
        },
        {
          "internalType": "uint256[][]",
          "name": "scalingFactors",
          "type": "uint256[][]"
        },
        {
          "internalType": "uint256[]",
          "name": "amps",
          "type": "uint256[]"
        },
        {
          "internalType": "uint256[]",
          "name": "rates",
          "type": "uint256[]"
        },
        {
          "internalType": "uint256[]",
          "name": "ignoreIdxs",
          "type": "uint256[]"
        }
      ],
      "stateMutability": "view",
      "type": "function"
    },
    {
      "inputs": [
        {
          "internalType": "bytes32[]",
          "name": "poolIds",
          "type": "bytes32[]"
        },
        {
          "components": [
            {
              "internalType": "bool",
              "name": "loadInRecoveryMode",
              "type": "bool"
            },
            {
              "internalType": "bool",
              "name": "loadIsPaused",
              "type": "bool"
            }
          ],
          "internalType": "struct PoolStatusQueryConfig",
          "name": "config",
          "type": "tuple"
        }
      ],
      "name": "getPoolStatus",
      "outputs": [
        {
          "internalType": "bool[]",
          "name": "isPaused",
          "type": "bool[]"
        },
        {
          "internalType": "bool[]",
          "name": "inRecoveryMode",
          "type": "bool[]"
        }
      ],
      "stateMutability": "view",
      "type": "function"
    },
    {
      "inputs": [
        {
          "internalType": "bytes32[]",
          "name": "poolIds",
          "type": "bytes32[]"
        },
        {
          "internalType": "uint256",
          "name": "blockNumber",
          "type": "uint256"
        }
      ],
      "name": "getPoolTokenBalancesWithUpdatesAfterBlock",
      "outputs": [
        {
          "internalType": "uint256[][]",
          "name": "",
          "type": "uint256[][]"
        }
      ],
      "stateMutability": "view",
      "type": "function"
    },
    {
      "inputs": [
        {
          "internalType": "address[]",
          "name": "poolAddresses",
          "type": "address[]"
        }
      ],
      "name": "getRateForPools",
      "outputs": [
        {
          "internalType": "uint256[]",
          "name": "",
          "type": "uint256[]"
        }
      ],
      "stateMutability": "view",
      "type": "function"
    },
    {
      "inputs": [
        {
          "internalType": "address[]",
          "name": "poolAddresses",
          "type": "address[]"
        }
      ],
      "name": "getScalingFactorsForPools",
      "outputs": [
        {
          "internalType": "uint256[][]",
          "name": "",
          "type": "uint256[][]"
        }
      ],
      "stateMutability": "view",
      "type": "function"
    },
    {
      "inputs": [
        {
          "internalType": "address[]",
          "name": "poolAddresses",
          "type": "address[]"
        },
        {
          "internalType": "enum SwapFeeType[]",
          "name": "swapFeeTypes",
          "type": "uint8[]"
        }
      ],
      "name": "getSwapFeePercentageForPools",
      "outputs": [
        {
          "internalType": "uint256[]",
          "name": "",
          "type": "uint256[]"
        }
      ],
      "stateMutability": "view",
      "type": "function"
    },
    {
      "inputs": [
        {
          "internalType": "address[]",
          "name": "poolAddresses",
          "type": "address[]"
        },
        {
          "internalType": "enum TotalSupplyType[]",
          "name": "totalSupplyTypes",
          "type": "uint8[]"
        }
      ],
      "name": "getTotalSupplyForPools",
      "outputs": [
        {
          "internalType": "uint256[]",
          "name": "",
          "type": "uint256[]"
        }
      ],
      "stateMutability": "view",
      "type": "function"
    },
    {
      "inputs": [
        {
          "internalType": "address[]",
          "name": "poolAddresses",
          "type": "address[]"
        }
      ],
      "name": "getWrappedTokenRateForLinearPools",
      "outputs": [
        {
          "internalType": "uint256[]",
          "name": "",
          "type": "uint256[]"
        }
      ],
      "stateMutability": "view",
      "type": "function"
    },
    {
      "inputs": [],
      "name": "vault",
      "outputs": [
        {
          "internalType": "contract IVault",
          "name": "",
          "type": "address"
        }
      ],
      "stateMutability": "view",
      "type": "function"
    }
  ],
  "bytecode": "0x60a06040523480156200001157600080fd5b50604051620028ef380380620028ef83398101604081905262000034916200004a565b60601b6001600160601b0319166080526200007a565b6000602082840312156200005c578081fd5b81516001600160a01b038116811462000073578182fd5b9392505050565b60805160601c612848620000a76000398061056352806107045280610d1452806113cb52506128486000f3fe608060405234801561001057600080fd5b50600436106100ea5760003560e01c8063b3a460011161008c578063ecfb5a7c11610066578063ecfb5a7c146101eb578063ed5017f6146101fe578063fbfa77cf14610227578063fd4363781461023c576100ea565b8063b3a46001146101b2578063b4a9f0c8146101c5578063c4fb0f82146101d8576100ea565b8063716bb27a116100c8578063716bb27a1461014c5780637b2de5331461016c578063828f7c7d1461017f57806396ebd93414610192576100ea565b806304013a7d146100ef57806317615f32146101185780634b3dcc1e1461012b575b600080fd5b6101026100fd366004611ff9565b61024f565b60405161010f919061274e565b60405180910390f35b610102610126366004611fbe565b61046f565b61013e6101393660046122d4565b610507565b60405161010f929190612720565b61015f61015a366004612356565b6106a0565b60405161010f919061261f565b61010261017a366004611fbe565b6107fb565b61015f61018d366004611fbe565b61088a565b6101a56101a0366004611fbe565b610923565b60405161010f919061270d565b61015f6101c0366004611fbe565b6109b7565b6101026101d336600461205a565b610a50565b6101026101e6366004611fbe565b610b84565b61015f6101f9366004611fbe565b610c13565b61021161020c3660046120b1565b610cac565b60405161010f9a99989796959493929190612632565b61022f6113c9565b60405161010f919061276a565b6101a561024a366004611fbe565b6113ed565b606080835167ffffffffffffffff8111801561026a57600080fd5b50604051908082528060200260200182016040528015610294578160200160208202803683370190505b50905060005b84518110156104655760018482815181106102b157fe5b602002602001015160018111156102c457fe5b1415610396578481815181106102d657fe5b602002602001015173ffffffffffffffffffffffffffffffffffffffff16634c1a41156040518163ffffffff1660e01b815260040160206040518083038186803b15801561032357600080fd5b505afa925050508015610353575060408051601f3d908101601f19168201909252610350918101906124f1565b60015b61037657600082828151811061036557fe5b602002602001018181525050610391565b8083838151811061038357fe5b602002602001018181525050505b61045d565b8481815181106103a257fe5b602002602001015173ffffffffffffffffffffffffffffffffffffffff166355c676286040518163ffffffff1660e01b815260040160206040518083038186803b1580156103ef57600080fd5b505afa92505050801561041f575060408051601f3d908101601f1916820190925261041c918101906124f1565b60015b61044257600082828151811061043157fe5b60200260200101818152505061045d565b8083838151811061044f57fe5b602002602001018181525050505b60010161029a565b5090505b92915050565b606080825167ffffffffffffffff8111801561048a57600080fd5b506040519080825280602002602001820160405280156104b4578160200160208202803683370190505b50905060005b83518110156104fe576104df8482815181106104d257fe5b6020026020010151611481565b8282815181106104eb57fe5b60209081029190910101526001016104ba565b5090505b919050565b60608060006060855167ffffffffffffffff8111801561052657600080fd5b50604051908082528060200260200182016040528015610550578160200160208202803683370190505b509050600091505b855182101561066e577f000000000000000000000000000000000000000000000000000000000000000073ffffffffffffffffffffffffffffffffffffffff1663f6c009278784815181106105a957fe5b60200260200101516040518263ffffffff1660e01b81526004016105cd9190612761565b604080518083038186803b1580156105e457600080fd5b505afa1580156105f8573d6000803e3d6000fd5b505050506040513d601f19601f8201168201806040525081019061061c9190611f85565b5081838151811061062957fe5b602002602001018173ffffffffffffffffffffffffffffffffffffffff1673ffffffffffffffffffffffffffffffffffffffff16815250508180600101925050610558565b84602001511561068457610681816113ed565b93505b8451156106975761069481610923565b92505b50509250929050565b60608060006060855167ffffffffffffffff811180156106bf57600080fd5b506040519080825280602002602001820160405280156106f357816020015b60608152602001906001900390816106de5790505b50905060005b86518110156107f1577f000000000000000000000000000000000000000000000000000000000000000073ffffffffffffffffffffffffffffffffffffffff1663f94d466888838151811061074a57fe5b60200260200101516040518263ffffffff1660e01b815260040161076e9190612761565b60006040518083038186803b15801561078657600080fd5b505afa15801561079a573d6000803e3d6000fd5b505050506040513d6000823e601f3d908101601f191682016040526107c29190810190612399565b909550935050858311156107e957838282815181106107dd57fe5b60200260200101819052505b6001016106f9565b5095945050505050565b606080825167ffffffffffffffff8111801561081657600080fd5b50604051908082528060200260200182016040528015610840578160200160208202803683370190505b50905060005b83518110156104fe5761086b84828151811061085e57fe5b602002602001015161150c565b82828151811061087757fe5b6020908102919091010152600101610846565b606080825167ffffffffffffffff811180156108a557600080fd5b506040519080825280602002602001820160405280156108d957816020015b60608152602001906001900390816108c45790505b50905060005b83518110156104fe576109048482815181106108f757fe5b602002602001015161159b565b82828151811061091057fe5b60209081029190910101526001016108df565b606080825167ffffffffffffffff8111801561093e57600080fd5b50604051908082528060200260200182016040528015610968578160200160208202803683370190505b50905060005b83518110156104fe5761099384828151811061098657fe5b6020026020010151611631565b82828151811061099f57fe5b9115156020928302919091019091015260010161096e565b606080825167ffffffffffffffff811180156109d257600080fd5b50604051908082528060200260200182016040528015610a0657816020015b60608152602001906001900390816109f15790505b50905060005b83518110156104fe57610a31848281518110610a2457fe5b60200260200101516116a6565b828281518110610a3d57fe5b6020908102919091010152600101610a0c565b606080835167ffffffffffffffff81118015610a6b57600080fd5b50604051908082528060200260200182016040528015610a95578160200160208202803683370190505b50905060005b8451811015610465576001848281518110610ab257fe5b60200260200101516002811115610ac557fe5b1415610b0457610ae7858281518110610ada57fe5b60200260200101516116ee565b828281518110610af357fe5b602002602001018181525050610b7c565b6002848281518110610b1257fe5b60200260200101516002811115610b2557fe5b1415610b4757610ae7858281518110610b3a57fe5b6020026020010151611736565b610b63858281518110610b5657fe5b602002602001015161177e565b828281518110610b6f57fe5b6020026020010181815250505b600101610a9b565b606080825167ffffffffffffffff81118015610b9f57600080fd5b50604051908082528060200260200182016040528015610bc9578160200160208202803683370190505b50905060005b83518110156104fe57610bf4848281518110610be757fe5b60200260200101516117c6565b828281518110610c0057fe5b6020908102919091010152600101610bcf565b606080825167ffffffffffffffff81118015610c2e57600080fd5b50604051908082528060200260200182016040528015610c6257816020015b6060815260200190600190039081610c4d5790505b50905060005b83518110156104fe57610c8d848281518110610c8057fe5b602002602001015161180e565b828281518110610c9957fe5b6020908102919091010152600101610c68565b606080606080606080606080606080600060608d5167ffffffffffffffff81118015610cd757600080fd5b50604051908082528060200260200182016040528015610d01578160200160208202803683370190505b509050600091505b8d51821015610e1f577f000000000000000000000000000000000000000000000000000000000000000073ffffffffffffffffffffffffffffffffffffffff1663f6c009278f8481518110610d5a57fe5b60200260200101516040518263ffffffff1660e01b8152600401610d7e9190612761565b604080518083038186803b158015610d9557600080fd5b505afa158015610da9573d6000803e3d6000fd5b505050506040513d601f19601f82011682018060405250810190610dcd9190611f85565b50818381518110610dda57fe5b602002602001018173ffffffffffffffffffffffffffffffffffffffff1673ffffffffffffffffffffffffffffffffffffffff16815250508180600101925050610d09565b8c5115610e3857610e358e8e61012001516106a0565b9b505b8c6020015115610e5457610e51818e6101400151610a50565b9a505b8c6040015115610e7057610e6d818e610160015161024f565b99505b8c6060015115610f4e5760608d61018001515167ffffffffffffffff81118015610e9957600080fd5b50604051908082528060200260200182016040528015610ec3578160200160208202803683370190505b509050600092505b8d610180015151831015610f4157818e61018001518481518110610eeb57fe5b602002602001015181518110610efd57fe5b6020026020010151818481518110610f1157fe5b73ffffffffffffffffffffffffffffffffffffffff90921660209283029190910190910152600190920191610ecb565b610f4a8161046f565b9950505b8c60a001511561102c5760608d6101a001515167ffffffffffffffff81118015610f7757600080fd5b50604051908082528060200260200182016040528015610fa1578160200160208202803683370190505b509050600092505b8d6101a001515183101561101f57818e6101a001518481518110610fc957fe5b602002602001015181518110610fdb57fe5b6020026020010151818481518110610fef57fe5b73ffffffffffffffffffffffffffffffffffffffff90921660209283029190910190910152600190920191610fa9565b611028816109b7565b9750505b8c60c001511561110a5760608d6101c001515167ffffffffffffffff8111801561105557600080fd5b5060405190808252806020026020018201604052801561107f578160200160208202803683370190505b509050600092505b8d6101c00151518310156110fd57818e6101c0015184815181106110a757fe5b6020026020010151815181106110b957fe5b60200260200101518184815181106110cd57fe5b73ffffffffffffffffffffffffffffffffffffffff90921660209283029190910190910152600190920191611087565b6111068161088a565b9650505b8c60e00151156111e85760608d6101e001515167ffffffffffffffff8111801561113357600080fd5b5060405190808252806020026020018201604052801561115d578160200160208202803683370190505b509050600092505b8d6101e00151518310156111db57818e6101e00151848151811061118557fe5b60200260200101518151811061119757fe5b60200260200101518184815181106111ab57fe5b73ffffffffffffffffffffffffffffffffffffffff90921660209283029190910190910152600190920191611165565b6111e4816107fb565b9550505b8c6101000151156112c75760608d61020001515167ffffffffffffffff8111801561121257600080fd5b5060405190808252806020026020018201604052801561123c578160200160208202803683370190505b509050600092505b8d6102000151518310156112ba57818e6102000151848151811061126457fe5b60200260200101518151811061127657fe5b602002602001015181848151811061128a57fe5b73ffffffffffffffffffffffffffffffffffffffff90921660209283029190910190910152600190920191611244565b6112c381610b84565b9450505b8c60800151156113a55760608d61018001515167ffffffffffffffff811180156112f057600080fd5b5060405190808252806020026020018201604052801561131a578160200160208202803683370190505b509050600092505b8d61018001515183101561139857818e6101800151848151811061134257fe5b60200260200101518151811061135457fe5b602002602001015181848151811061136857fe5b73ffffffffffffffffffffffffffffffffffffffff90921660209283029190910190910152600190920191611322565b6113a181610c13565b9850505b6113b68e8e8d8d8d8a8a8d8f6118e5565b925050509295989b9194979a5092959850565b7f000000000000000000000000000000000000000000000000000000000000000081565b606080825167ffffffffffffffff8111801561140857600080fd5b50604051908082528060200260200182016040528015611432578160200160208202803683370190505b50905060005b83518110156104fe5761145d84828151811061145057fe5b6020026020010151611cf4565b82828151811061146957fe5b91151560209283029190910190910152600101611438565b60008173ffffffffffffffffffffffffffffffffffffffff1663f5431aa86040518163ffffffff1660e01b815260040160206040518083038186803b1580156114c957600080fd5b505afa9250505080156114f9575060408051601f3d908101601f191682019092526114f6918101906124f1565b60015b61150557506000610502565b9050610502565b60008173ffffffffffffffffffffffffffffffffffffffff16636daccffa6040518163ffffffff1660e01b815260040160606040518083038186803b15801561155457600080fd5b505afa925050508015611584575060408051601f3d908101601f1916820190925261158191810190612509565b60015b61159057506000610502565b829350505050610502565b60608173ffffffffffffffffffffffffffffffffffffffff16631dd746ea6040518163ffffffff1660e01b815260040160006040518083038186803b1580156115e357600080fd5b505afa92505050801561161857506040513d6000823e601f3d908101601f191682016040526116159190810190612465565b60015b6115055750604080516000815260208101909152610502565b60008173ffffffffffffffffffffffffffffffffffffffff1663b35056b86040518163ffffffff1660e01b815260040160206040518083038186803b15801561167957600080fd5b505afa9250505080156114f9575060408051601f3d908101601f191682019092526114f691810190612498565b60608173ffffffffffffffffffffffffffffffffffffffff1663f89f27ed6040518163ffffffff1660e01b815260040160006040518083038186803b1580156115e357600080fd5b60008173ffffffffffffffffffffffffffffffffffffffff1663de82cd346040518163ffffffff1660e01b815260040160206040518083038186803b1580156114c957600080fd5b60008173ffffffffffffffffffffffffffffffffffffffff1663876f303b6040518163ffffffff1660e01b815260040160206040518083038186803b1580156114c957600080fd5b60008173ffffffffffffffffffffffffffffffffffffffff166318160ddd6040518163ffffffff1660e01b815260040160206040518083038186803b1580156114c957600080fd5b60008173ffffffffffffffffffffffffffffffffffffffff1663679aefce6040518163ffffffff1660e01b815260040160206040518083038186803b1580156114c957600080fd5b6040805160028082526060808301845292839291906020830190803683370190505090508273ffffffffffffffffffffffffffffffffffffffff166363fe3b566040518163ffffffff1660e01b8152600401604080518083038186803b15801561187757600080fd5b505afa15801561188b573d6000803e3d6000fd5b505050506040513d601f19601f820116820180604052508101906118af9190612541565b826000815181106118bc57fe5b60200260200101836001815181106118d057fe5b60209081029190910101919091525292915050565b6060808a5167ffffffffffffffff8111801561190057600080fd5b5060405190808252806020026020018201604052801561192a578160200160208202803683370190505b5090506000805b8c518110156119b4578b60200151801561195e57508a818151811061195257fe5b60200260200101516000145b8061198857508b604001518015611988575089818151811061197c57fe5b60200260200101516000145b156119ac57600183828151811061199b57fe5b911515602092830291909101909101525b600101611931565b8b6060015115611a2b575060005b8b610180015151811015611a2b578881815181106119dc57fe5b602002602001015160001415611a23576001838d61018001518381518110611a0057fe5b602002602001015181518110611a1257fe5b911515602092830291909101909101525b6001016119c2565b8b60e0015115611aa2575060005b8b6101e0015151811015611aa257878181518110611a5357fe5b602002602001015160001415611a9a576001838d6101e001518381518110611a7757fe5b602002602001015181518110611a8957fe5b911515602092830291909101909101525b600101611a39565b8b610100015115611b1a575060005b8b610200015151811015611b1a57868181518110611acb57fe5b602002602001015160001415611b12576001838d61020001518381518110611aef57fe5b602002602001015181518110611b0157fe5b911515602092830291909101909101525b600101611ab1565b8b60c0015115611b92575060005b8b6101c0015151811015611b9257858181518110611b4257fe5b60200260200101515160001415611b8a576001838d6101c001518381518110611b6757fe5b602002602001015181518110611b7957fe5b911515602092830291909101909101525b600101611b28565b8b60a0015115611c0a575060005b8b6101a0015151811015611c0a57848181518110611bba57fe5b60200260200101515160001415611c02576001838d6101a001518381518110611bdf57fe5b602002602001015181518110611bf157fe5b911515602092830291909101909101525b600101611ba0565b5060005b8251811015611c4657828181518110611c2357fe5b60200260200101511515600115151415611c3e576001909101905b600101611c0e565b60608267ffffffffffffffff81118015611c5f57600080fd5b50604051908082528060200260200182016040528015611c89578160200160208202803683370190505b50905060008092505b8451831015611ce257848381518110611ca757fe5b60200260200101511515600115151415611cd75782828281518110611cc857fe5b60209081029190910101526001015b600190920191611c92565b509d9c50505050505050505050505050565b60008173ffffffffffffffffffffffffffffffffffffffff16631c0de0516040518163ffffffff1660e01b815260040160606040518083038186803b158015611d3c57600080fd5b505afa925050508015611584575060408051601f3d908101601f19168201909252611581918101906124bb565b600082601f830112611d79578081fd5b8135611d8c611d87826127b2565b61278b565b818152915060208083019084810181840286018201871015611dad57600080fd5b60005b84811015611dd5578135611dc3816127d2565b84529282019290820190600101611db0565b505050505092915050565b600082601f830112611df0578081fd5b8135611dfe611d87826127b2565b818152915060208083019084810181840286018201871015611e1f57600080fd5b60005b84811015611dd557813584529282019290820190600101611e22565b600082601f830112611e4e578081fd5b8135611e5c611d87826127b2565b818152915060208083019084810181840286018201871015611e7d57600080fd5b6000805b85811015611ea957823560028110611e97578283fd5b85529383019391830191600101611e81565b50505050505092915050565b600082601f830112611ec5578081fd5b8135611ed3611d87826127b2565b818152915060208083019084810181840286018201871015611ef457600080fd5b60005b84811015611dd5578135611f0a81612805565b84529282019290820190600101611ef7565b600082601f830112611f2c578081fd5b8151611f3a611d87826127b2565b818152915060208083019084810181840286018201871015611f5b57600080fd5b60005b84811015611dd557815184529282019290820190600101611f5e565b8035610469816127f7565b60008060408385031215611f97578182fd5b8251611fa2816127d2565b6020840151909250611fb381612805565b809150509250929050565b600060208284031215611fcf578081fd5b813567ffffffffffffffff811115611fe5578182fd5b611ff184828501611d69565b949350505050565b6000806040838503121561200b578182fd5b823567ffffffffffffffff80821115612022578384fd5b61202e86838701611d69565b93506020850135915080821115612043578283fd5b5061205085828601611e3e565b9150509250929050565b6000806040838503121561206c578182fd5b823567ffffffffffffffff80821115612083578384fd5b61208f86838701611d69565b935060208501359150808211156120a4578283fd5b5061205085828601611eb5565b600080604083850312156120c3578182fd5b823567ffffffffffffffff808211156120da578384fd5b6120e686838701611de0565b935060208501359150808211156120fb578283fd5b8185019150610220808388031215612111578384fd5b61211a8161278b565b90506121268784611f7a565b81526121358760208501611f7a565b60208201526121478760408501611f7a565b60408201526121598760608501611f7a565b606082015261216b8760808501611f7a565b608082015261217d8760a08501611f7a565b60a082015261218f8760c08501611f7a565b60c08201526121a18760e08501611f7a565b60e08201526101006121b588828601611f7a565b90820152610120838101359082015261014080840135838111156121d7578586fd5b6121e389828701611eb5565b82840152505061016080840135838111156121fc578586fd5b61220889828701611e3e565b8284015250506101808084013583811115612221578586fd5b61222d89828701611de0565b8284015250506101a08084013583811115612246578586fd5b61225289828701611de0565b8284015250506101c0808401358381111561226b578586fd5b61227789828701611de0565b8284015250506101e08084013583811115612290578586fd5b61229c89828701611de0565b82840152505061020080840135838111156122b5578586fd5b6122c189828701611de0565b8284015250508093505050509250929050565b60008082840360608112156122e7578283fd5b833567ffffffffffffffff8111156122fd578384fd5b61230986828701611de0565b9350506040601f198201121561231d578182fd5b50612328604061278b565b6020840135612336816127f7565b81526040840135612346816127f7565b6020820152919491935090915050565b60008060408385031215612368578182fd5b823567ffffffffffffffff81111561237e578283fd5b61238a85828601611de0565b95602094909401359450505050565b6000806000606084860312156123ad578081fd5b835167ffffffffffffffff808211156123c4578283fd5b818601915086601f8301126123d7578283fd5b81516123e5611d87826127b2565b80828252602080830192508086018b828387028901011115612405578788fd5b8796505b8487101561243057805161241c816127d2565b845260019690960195928101928101612409565b508901519097509350505080821115612447578283fd5b5061245486828701611f1c565b925050604084015190509250925092565b600060208284031215612476578081fd5b815167ffffffffffffffff81111561248c578182fd5b611ff184828501611f1c565b6000602082840312156124a9578081fd5b81516124b4816127f7565b9392505050565b6000806000606084860312156124cf578081fd5b83516124da816127f7565b602085015160409095015190969495509392505050565b600060208284031215612502578081fd5b5051919050565b60008060006060848603121561251d578081fd5b83519250602084015161252f816127f7565b80925050604084015190509250925092565b60008060408385031215612553578182fd5b505080516020909101519092909150565b6000815180845260208085019450848183028601828601855b858110156125a75783830389526125958383516125f0565b9885019892509084019060010161257d565b5090979650505050505050565b6000815180845260208085019450808401835b838110156125e55781511515875295820195908201906001016125c7565b509495945050505050565b6000815180845260208085019450808401835b838110156125e557815187529582019590820190600101612603565b6000602082526124b46020830184612564565b60006101408083526126468184018e612564565b9050828103602084015261265a818d6125f0565b9050828103604084015261266e818c6125f0565b90508281036060840152612682818b6125f0565b90508281036080840152612696818a612564565b905082810360a08401526126aa8189612564565b905082810360c08401526126be8188612564565b905082810360e08401526126d281876125f0565b90508281036101008401526126e781866125f0565b90508281036101208401526126fc81856125f0565b9d9c50505050505050505050505050565b6000602082526124b460208301846125b4565b60006040825261273360408301856125b4565b828103602084015261274581856125b4565b95945050505050565b6000602082526124b460208301846125f0565b90815260200190565b73ffffffffffffffffffffffffffffffffffffffff91909116815260200190565b60405181810167ffffffffffffffff811182821017156127aa57600080fd5b604052919050565b600067ffffffffffffffff8211156127c8578081fd5b5060209081020190565b73ffffffffffffffffffffffffffffffffffffffff811681146127f457600080fd5b50565b80151581146127f457600080fd5b600381106127f457600080fdfea2646970667358221220df0032dfad053b23eb1d7bf97e0f2c909a6f4f6790bc401ced15f430f499093264736f6c63430007010033",
  "linkReferences": {},
  "deployedLinkReferences": {}
}