{
  "_format": "hh-sol-artifact-1",
  "contractName": "TimelockExecutionHelper",
  "sourceName": "contracts/authorizer/TimelockExecutionHelper.sol",
  "abi": [
    {
      "inputs": [],
      "stateMutability": "nonpayable",
      "type": "constructor"
    },
    {
      "inputs": [
        {
          "internalType": "address",
          "name": "target",
          "type": "address"
        },
        {
          "internalType": "bytes",
          "name": "data",
          "type": "bytes"
        }
      ],
      "name": "execute",
      "outputs": [
        {
          "internalType": "bytes",
          "name": "",
          "type": "bytes"
        }
      ],
      "stateMutability": "nonpayable",
      "type": "function"
    },
    {
      "inputs": [],
      "name": "getAuthorizer",
      "outputs": [
        {
          "internalType": "contract IAuthorizer",
          "name": "",
          "type": "address"
        }
      ],
      "stateMutability": "view",
      "type": "function"
    }
  ],
  "bytecode": "0x60a060405234801561001057600080fd5b5060016000553360601b60805260805160601c6104b061003f600039806101c6528061026e52506104b06000f3fe608060405234801561001057600080fd5b50600436106100365760003560e01c80631cff79cd1461003b578063aaabadc514610173575b600080fd5b6100fe6004803603604081101561005157600080fd5b73ffffffffffffffffffffffffffffffffffffffff823516919081019060408101602082013564010000000081111561008957600080fd5b82018360208201111561009b57600080fd5b803590602001918460018302840111640100000000831117156100bd57600080fd5b91908080601f0160208091040260200160405190810160405280939291908181526020018383808284376000920191909152509295506101a4945050505050565b6040805160208082528351818301528351919283929083019185019080838360005b83811015610138578181015183820152602001610120565b50505050905090810190601f1680156101655780820380516001836020036101000a031916815260200191505b509250505060405180910390f35b61017b61026c565b6040805173ffffffffffffffffffffffffffffffffffffffff9092168252519081900360200190f35b60606101ae610290565b3373ffffffffffffffffffffffffffffffffffffffff7f0000000000000000000000000000000000000000000000000000000000000000161461025257604080517f08c379a000000000000000000000000000000000000000000000000000000000815260206004820152601860248201527f53454e4445525f49535f4e4f545f415554484f52495a45520000000000000000604482015290519081900360640190fd5b61025c83836102a9565b9050610266610393565b92915050565b7f000000000000000000000000000000000000000000000000000000000000000090565b6102a26002600054141561019061039a565b6002600055565b6060600060608473ffffffffffffffffffffffffffffffffffffffff16846040518082805190602001908083835b6020831061031457805182527fffffffffffffffffffffffffffffffffffffffffffffffffffffffffffffffe090920191602091820191016102d7565b6001836020036101000a0380198251168184511680821785525050505050509050019150506000604051808303816000865af19150503d8060008114610376576040519150601f19603f3d011682016040523d82523d6000602084013e61037b565b606091505b509150915061038a82826103ac565b95945050505050565b6001600055565b816103a8576103a8816103d2565b5050565b606082156103bb575080610266565b8151156103cb5781518083602001fd5b6102666101ae5b6103fc817f42414c00000000000000000000000000000000000000000000000000000000006103ff565b50565b7f08c379a000000000000000000000000000000000000000000000000000000000600090815260206004526007602452600a808404818106603090810160081b958390069590950190829004918206850160101b01602363ffffff0060e086901c160160181b0190930160c81b60445260e882901c90606490fdfea2646970667358221220ee5662c1d599e9c252d284d2b6348c9b58be9435ede9a19409fb1d0fd1c94e0464736f6c63430007010033",
  "linkReferences": {},
  "deployedLinkReferences": {}
}