{
  "_format": "hh-sol-artifact-1",
  "contractName": "TimelockAuthorizer",
  "sourceName": "contracts/authorizer/TimelockAuthorizer.sol",
  "abi": [
    {
      "inputs": [
        {
          "internalType": "address",
          "name": "initialRoot",
          "type": "address"
        },
        {
          "internalType": "address",
          "name": "nextRoot",
          "type": "address"
        },
        {
          "internalType": "contract IAuthorizerAdaptorEntrypoint",
          "name": "authorizerAdaptorEntrypoint",
          "type": "address"
        },
        {
          "internalType": "uint256",
          "name": "rootTransferDelay",
          "type": "uint256"
        }
      ],
      "stateMutability": "nonpayable",
      "type": "constructor"
    },
    {
      "anonymous": false,
      "inputs": [
        {
          "indexed": true,
          "internalType": "bytes32",
          "name": "actionId",
          "type": "bytes32"
        },
        {
          "indexed": false,
          "internalType": "uint256",
          "name": "delay",
          "type": "uint256"
        }
      ],
      "name": "ActionDelaySet",
      "type": "event"
    },
    {
      "anonymous": false,
      "inputs": [
        {
          "indexed": true,
          "internalType": "uint256",
          "name": "scheduledExecutionId",
          "type": "uint256"
        },
        {
          "indexed": true,
          "internalType": "address",
          "name": "canceler",
          "type": "address"
        }
      ],
      "name": "CancelerAdded",
      "type": "event"
    },
    {
      "anonymous": false,
      "inputs": [
        {
          "indexed": true,
          "internalType": "uint256",
          "name": "scheduledExecutionId",
          "type": "uint256"
        },
        {
          "indexed": true,
          "internalType": "address",
          "name": "canceler",
          "type": "address"
        }
      ],
      "name": "CancelerRemoved",
      "type": "event"
    },
    {
      "anonymous": false,
      "inputs": [
        {
          "indexed": true,
          "internalType": "bytes32",
          "name": "actionId",
          "type": "bytes32"
        },
        {
          "indexed": true,
          "internalType": "uint256",
          "name": "newDelay",
          "type": "uint256"
        },
        {
          "indexed": true,
          "internalType": "uint256",
          "name": "scheduledExecutionId",
          "type": "uint256"
        }
      ],
      "name": "DelayChangeScheduled",
      "type": "event"
    },
    {
      "anonymous": false,
      "inputs": [
        {
          "indexed": true,
          "internalType": "uint256",
          "name": "scheduledExecutionId",
          "type": "uint256"
        }
      ],
      "name": "ExecutionCancelled",
      "type": "event"
    },
    {
      "anonymous": false,
      "inputs": [
        {
          "indexed": true,
          "internalType": "uint256",
          "name": "scheduledExecutionId",
          "type": "uint256"
        }
      ],
      "name": "ExecutionExecuted",
      "type": "event"
    },
    {
      "anonymous": false,
      "inputs": [
        {
          "indexed": true,
          "internalType": "bytes32",
          "name": "actionId",
          "type": "bytes32"
        },
        {
          "indexed": true,
          "internalType": "uint256",
          "name": "scheduledExecutionId",
          "type": "uint256"
        }
      ],
      "name": "ExecutionScheduled",
      "type": "event"
    },
    {
      "anonymous": false,
      "inputs": [
        {
          "indexed": true,
          "internalType": "uint256",
          "name": "scheduledExecutionId",
          "type": "uint256"
        },
        {
          "indexed": true,
          "internalType": "address",
          "name": "executor",
          "type": "address"
        }
      ],
      "name": "ExecutorAdded",
      "type": "event"
    },
    {
      "anonymous": false,
      "inputs": [
        {
          "indexed": true,
          "internalType": "bytes32",
          "name": "actionId",
          "type": "bytes32"
        },
        {
          "indexed": true,
          "internalType": "uint256",
          "name": "newDelay",
          "type": "uint256"
        },
        {
          "indexed": true,
          "internalType": "uint256",
          "name": "scheduledExecutionId",
          "type": "uint256"
        }
      ],
      "name": "GrantDelayChangeScheduled",
      "type": "event"
    },
    {
      "anonymous": false,
      "inputs": [
        {
          "indexed": true,
          "internalType": "bytes32",
          "name": "actionId",
          "type": "bytes32"
        },
        {
          "indexed": false,
          "internalType": "uint256",
          "name": "delay",
          "type": "uint256"
        }
      ],
      "name": "GrantDelaySet",
      "type": "event"
    },
    {
      "anonymous": false,
      "inputs": [
        {
          "indexed": true,
          "internalType": "bytes32",
          "name": "actionId",
          "type": "bytes32"
        },
        {
          "indexed": true,
          "internalType": "address",
          "name": "account",
          "type": "address"
        },
        {
          "indexed": true,
          "internalType": "address",
          "name": "where",
          "type": "address"
        },
        {
          "indexed": false,
          "internalType": "uint256",
          "name": "scheduledExecutionId",
          "type": "uint256"
        }
      ],
      "name": "GrantPermissionScheduled",
      "type": "event"
    },
    {
      "anonymous": false,
      "inputs": [
        {
          "indexed": true,
          "internalType": "bytes32",
          "name": "actionId",
          "type": "bytes32"
        },
        {
          "indexed": true,
          "internalType": "address",
          "name": "account",
          "type": "address"
        },
        {
          "indexed": true,
          "internalType": "address",
          "name": "where",
          "type": "address"
        }
      ],
      "name": "GranterAdded",
      "type": "event"
    },
    {
      "anonymous": false,
      "inputs": [
        {
          "indexed": true,
          "internalType": "bytes32",
          "name": "actionId",
          "type": "bytes32"
        },
        {
          "indexed": true,
          "internalType": "address",
          "name": "account",
          "type": "address"
        },
        {
          "indexed": true,
          "internalType": "address",
          "name": "where",
          "type": "address"
        }
      ],
      "name": "GranterRemoved",
      "type": "event"
    },
    {
      "anonymous": false,
      "inputs": [
        {
          "indexed": true,
          "internalType": "address",
          "name": "pendingRoot",
          "type": "address"
        }
      ],
      "name": "PendingRootSet",
      "type": "event"
    },
    {
      "anonymous": false,
      "inputs": [
        {
          "indexed": true,
          "internalType": "bytes32",
          "name": "actionId",
          "type": "bytes32"
        },
        {
          "indexed": true,
          "internalType": "address",
          "name": "account",
          "type": "address"
        },
        {
          "indexed": true,
          "internalType": "address",
          "name": "where",
          "type": "address"
        }
      ],
      "name": "PermissionGranted",
      "type": "event"
    },
    {
      "anonymous": false,
      "inputs": [
        {
          "indexed": true,
          "internalType": "bytes32",
          "name": "actionId",
          "type": "bytes32"
        },
        {
          "indexed": true,
          "internalType": "address",
          "name": "account",
          "type": "address"
        },
        {
          "indexed": true,
          "internalType": "address",
          "name": "where",
          "type": "address"
        }
      ],
      "name": "PermissionRevoked",
      "type": "event"
    },
    {
      "anonymous": false,
      "inputs": [
        {
          "indexed": true,
          "internalType": "bytes32",
          "name": "actionId",
          "type": "bytes32"
        },
        {
          "indexed": true,
          "internalType": "uint256",
          "name": "newDelay",
          "type": "uint256"
        },
        {
          "indexed": true,
          "internalType": "uint256",
          "name": "scheduledExecutionId",
          "type": "uint256"
        }
      ],
      "name": "RevokeDelayChangeScheduled",
      "type": "event"
    },
    {
      "anonymous": false,
      "inputs": [
        {
          "indexed": true,
          "internalType": "bytes32",
          "name": "actionId",
          "type": "bytes32"
        },
        {
          "indexed": false,
          "internalType": "uint256",
          "name": "delay",
          "type": "uint256"
        }
      ],
      "name": "RevokeDelaySet",
      "type": "event"
    },
    {
      "anonymous": false,
      "inputs": [
        {
          "indexed": true,
          "internalType": "bytes32",
          "name": "actionId",
          "type": "bytes32"
        },
        {
          "indexed": true,
          "internalType": "address",
          "name": "account",
          "type": "address"
        },
        {
          "indexed": true,
          "internalType": "address",
          "name": "where",
          "type": "address"
        },
        {
          "indexed": false,
          "internalType": "uint256",
          "name": "scheduledExecutionId",
          "type": "uint256"
        }
      ],
      "name": "RevokePermissionScheduled",
      "type": "event"
    },
    {
      "anonymous": false,
      "inputs": [
        {
          "indexed": true,
          "internalType": "address",
          "name": "account",
          "type": "address"
        },
        {
          "indexed": true,
          "internalType": "address",
          "name": "where",
          "type": "address"
        }
      ],
      "name": "RevokerAdded",
      "type": "event"
    },
    {
      "anonymous": false,
      "inputs": [
        {
          "indexed": true,
          "internalType": "address",
          "name": "account",
          "type": "address"
        },
        {
          "indexed": true,
          "internalType": "address",
          "name": "where",
          "type": "address"
        }
      ],
      "name": "RevokerRemoved",
      "type": "event"
    },
    {
      "anonymous": false,
      "inputs": [
        {
          "indexed": true,
          "internalType": "address",
          "name": "newRoot",
          "type": "address"
        },
        {
          "indexed": true,
          "internalType": "uint256",
          "name": "scheduledExecutionId",
          "type": "uint256"
        }
      ],
      "name": "RootChangeScheduled",
      "type": "event"
    },
    {
      "anonymous": false,
      "inputs": [
        {
          "indexed": true,
          "internalType": "address",
          "name": "root",
          "type": "address"
        }
      ],
      "name": "RootSet",
      "type": "event"
    },
    {
      "inputs": [],
      "name": "EVERYWHERE",
      "outputs": [
        {
          "internalType": "address",
          "name": "",
          "type": "address"
        }
      ],
      "stateMutability": "pure",
      "type": "function"
    },
    {
      "inputs": [],
      "name": "GLOBAL_CANCELER_SCHEDULED_EXECUTION_ID",
      "outputs": [
        {
          "internalType": "uint256",
          "name": "",
          "type": "uint256"
        }
      ],
      "stateMutability": "pure",
      "type": "function"
    },
    {
      "inputs": [],
      "name": "MAX_DELAY",
      "outputs": [
        {
          "internalType": "uint256",
          "name": "",
          "type": "uint256"
        }
      ],
      "stateMutability": "pure",
      "type": "function"
    },
    {
      "inputs": [],
      "name": "MINIMUM_CHANGE_DELAY_EXECUTION_DELAY",
      "outputs": [
        {
          "internalType": "uint256",
          "name": "",
          "type": "uint256"
        }
      ],
      "stateMutability": "pure",
      "type": "function"
    },
    {
      "inputs": [
        {
          "internalType": "uint256",
          "name": "scheduledExecutionId",
          "type": "uint256"
        },
        {
          "internalType": "address",
          "name": "account",
          "type": "address"
        }
      ],
      "name": "addCanceler",
      "outputs": [],
      "stateMutability": "nonpayable",
      "type": "function"
    },
    {
      "inputs": [
        {
          "internalType": "bytes32",
          "name": "actionId",
          "type": "bytes32"
        },
        {
          "internalType": "address",
          "name": "account",
          "type": "address"
        },
        {
          "internalType": "address",
          "name": "where",
          "type": "address"
        }
      ],
      "name": "addGranter",
      "outputs": [],
      "stateMutability": "nonpayable",
      "type": "function"
    },
    {
      "inputs": [
        {
          "internalType": "address",
          "name": "account",
          "type": "address"
        },
        {
          "internalType": "address",
          "name": "where",
          "type": "address"
        }
      ],
      "name": "addRevoker",
      "outputs": [],
      "stateMutability": "nonpayable",
      "type": "function"
    },
    {
      "inputs": [
        {
          "internalType": "uint256",
          "name": "scheduledExecutionId",
          "type": "uint256"
        }
      ],
      "name": "canExecute",
      "outputs": [
        {
          "internalType": "bool",
          "name": "",
          "type": "bool"
        }
      ],
      "stateMutability": "view",
      "type": "function"
    },
    {
      "inputs": [
        {
          "internalType": "bytes32",
          "name": "actionId",
          "type": "bytes32"
        },
        {
          "internalType": "address",
          "name": "account",
          "type": "address"
        },
        {
          "internalType": "address",
          "name": "where",
          "type": "address"
        }
      ],
      "name": "canPerform",
      "outputs": [
        {
          "internalType": "bool",
          "name": "",
          "type": "bool"
        }
      ],
      "stateMutability": "view",
      "type": "function"
    },
    {
      "inputs": [
        {
          "internalType": "uint256",
          "name": "scheduledExecutionId",
          "type": "uint256"
        }
      ],
      "name": "cancel",
      "outputs": [],
      "stateMutability": "nonpayable",
      "type": "function"
    },
    {
      "inputs": [],
      "name": "claimRoot",
      "outputs": [],
      "stateMutability": "nonpayable",
      "type": "function"
    },
    {
      "inputs": [
        {
          "internalType": "uint256",
          "name": "scheduledExecutionId",
          "type": "uint256"
        }
      ],
      "name": "execute",
      "outputs": [
        {
          "internalType": "bytes",
          "name": "result",
          "type": "bytes"
        }
      ],
      "stateMutability": "nonpayable",
      "type": "function"
    },
    {
      "inputs": [
        {
          "internalType": "bytes32",
          "name": "actionId",
          "type": "bytes32"
        }
      ],
      "name": "getActionIdDelay",
      "outputs": [
        {
          "internalType": "uint256",
          "name": "",
          "type": "uint256"
        }
      ],
      "stateMutability": "view",
      "type": "function"
    },
    {
      "inputs": [
        {
          "internalType": "bytes32",
          "name": "actionId",
          "type": "bytes32"
        }
      ],
      "name": "getActionIdGrantDelay",
      "outputs": [
        {
          "internalType": "uint256",
          "name": "",
          "type": "uint256"
        }
      ],
      "stateMutability": "view",
      "type": "function"
    },
    {
      "inputs": [
        {
          "internalType": "bytes32",
          "name": "actionId",
          "type": "bytes32"
        }
      ],
      "name": "getActionIdRevokeDelay",
      "outputs": [
        {
          "internalType": "uint256",
          "name": "",
          "type": "uint256"
        }
      ],
      "stateMutability": "view",
      "type": "function"
    },
    {
      "inputs": [],
      "name": "getPendingRoot",
      "outputs": [
        {
          "internalType": "address",
          "name": "",
          "type": "address"
        }
      ],
      "stateMutability": "view",
      "type": "function"
    },
    {
      "inputs": [
        {
          "internalType": "bytes32",
          "name": "actionId",
          "type": "bytes32"
        },
        {
          "internalType": "address",
          "name": "account",
          "type": "address"
        },
        {
          "internalType": "address",
          "name": "where",
          "type": "address"
        }
      ],
      "name": "getPermissionId",
      "outputs": [
        {
          "internalType": "bytes32",
          "name": "",
          "type": "bytes32"
        }
      ],
      "stateMutability": "pure",
      "type": "function"
    },
    {
      "inputs": [],
      "name": "getRoot",
      "outputs": [
        {
          "internalType": "address",
          "name": "",
          "type": "address"
        }
      ],
      "stateMutability": "view",
      "type": "function"
    },
    {
      "inputs": [],
      "name": "getRootTransferDelay",
      "outputs": [
        {
          "internalType": "uint256",
          "name": "",
          "type": "uint256"
        }
      ],
      "stateMutability": "view",
      "type": "function"
    },
    {
      "inputs": [
        {
          "internalType": "uint256",
          "name": "scheduledExecutionId",
          "type": "uint256"
        }
      ],
      "name": "getScheduledExecution",
      "outputs": [
        {
          "components": [
            {
              "internalType": "address",
              "name": "where",
              "type": "address"
            },
            {
              "internalType": "bytes",
              "name": "data",
              "type": "bytes"
            },
            {
              "internalType": "bool",
              "name": "executed",
              "type": "bool"
            },
            {
              "internalType": "bool",
              "name": "cancelled",
              "type": "bool"
            },
            {
              "internalType": "bool",
              "name": "protected",
              "type": "bool"
            },
            {
              "internalType": "uint256",
              "name": "executableAt",
              "type": "uint256"
            }
          ],
          "internalType": "struct ITimelockAuthorizer.ScheduledExecution",
          "name": "",
          "type": "tuple"
        }
      ],
      "stateMutability": "view",
      "type": "function"
    },
    {
      "inputs": [],
      "name": "getTimelockExecutionHelper",
      "outputs": [
        {
          "internalType": "address",
          "name": "",
          "type": "address"
        }
      ],
      "stateMutability": "view",
      "type": "function"
    },
    {
      "inputs": [],
      "name": "getVault",
      "outputs": [
        {
          "internalType": "address",
          "name": "",
          "type": "address"
        }
      ],
      "stateMutability": "view",
      "type": "function"
    },
    {
      "inputs": [
        {
          "internalType": "bytes32",
          "name": "actionId",
          "type": "bytes32"
        },
        {
          "internalType": "address",
          "name": "account",
          "type": "address"
        },
        {
          "internalType": "address",
          "name": "where",
          "type": "address"
        }
      ],
      "name": "grantPermission",
      "outputs": [],
      "stateMutability": "nonpayable",
      "type": "function"
    },
    {
      "inputs": [
        {
          "internalType": "bytes32",
          "name": "actionId",
          "type": "bytes32"
        },
        {
          "internalType": "address",
          "name": "account",
          "type": "address"
        },
        {
          "internalType": "address",
          "name": "where",
          "type": "address"
        }
      ],
      "name": "hasPermission",
      "outputs": [
        {
          "internalType": "bool",
          "name": "",
          "type": "bool"
        }
      ],
      "stateMutability": "view",
      "type": "function"
    },
    {
      "inputs": [
        {
          "internalType": "uint256",
          "name": "scheduledExecutionId",
          "type": "uint256"
        },
        {
          "internalType": "address",
          "name": "account",
          "type": "address"
        }
      ],
      "name": "isCanceler",
      "outputs": [
        {
          "internalType": "bool",
          "name": "",
          "type": "bool"
        }
      ],
      "stateMutability": "view",
      "type": "function"
    },
    {
      "inputs": [
        {
          "internalType": "uint256",
          "name": "scheduledExecutionId",
          "type": "uint256"
        },
        {
          "internalType": "address",
          "name": "account",
          "type": "address"
        }
      ],
      "name": "isExecutor",
      "outputs": [
        {
          "internalType": "bool",
          "name": "",
          "type": "bool"
        }
      ],
      "stateMutability": "view",
      "type": "function"
    },
    {
      "inputs": [
        {
          "internalType": "bytes32",
          "name": "actionId",
          "type": "bytes32"
        },
        {
          "internalType": "address",
          "name": "account",
          "type": "address"
        },
        {
          "internalType": "address",
          "name": "where",
          "type": "address"
        }
      ],
      "name": "isGranter",
      "outputs": [
        {
          "internalType": "bool",
          "name": "",
          "type": "bool"
        }
      ],
      "stateMutability": "view",
      "type": "function"
    },
    {
      "inputs": [
        {
          "internalType": "address",
          "name": "account",
          "type": "address"
        }
      ],
      "name": "isPendingRoot",
      "outputs": [
        {
          "internalType": "bool",
          "name": "",
          "type": "bool"
        }
      ],
      "stateMutability": "view",
      "type": "function"
    },
    {
      "inputs": [
        {
          "internalType": "bytes32",
          "name": "actionId",
          "type": "bytes32"
        },
        {
          "internalType": "address",
          "name": "account",
          "type": "address"
        },
        {
          "internalType": "address",
          "name": "where",
          "type": "address"
        }
      ],
      "name": "isPermissionGrantedOnTarget",
      "outputs": [
        {
          "internalType": "bool",
          "name": "",
          "type": "bool"
        }
      ],
      "stateMutability": "view",
      "type": "function"
    },
    {
      "inputs": [
        {
          "internalType": "address",
          "name": "account",
          "type": "address"
        },
        {
          "internalType": "address",
          "name": "where",
          "type": "address"
        }
      ],
      "name": "isRevoker",
      "outputs": [
        {
          "internalType": "bool",
          "name": "",
          "type": "bool"
        }
      ],
      "stateMutability": "view",
      "type": "function"
    },
    {
      "inputs": [
        {
          "internalType": "address",
          "name": "account",
          "type": "address"
        }
      ],
      "name": "isRoot",
      "outputs": [
        {
          "internalType": "bool",
          "name": "",
          "type": "bool"
        }
      ],
      "stateMutability": "view",
      "type": "function"
    },
    {
      "inputs": [
        {
          "internalType": "uint256",
          "name": "scheduledExecutionId",
          "type": "uint256"
        },
        {
          "internalType": "address",
          "name": "account",
          "type": "address"
        }
      ],
      "name": "removeCanceler",
      "outputs": [],
      "stateMutability": "nonpayable",
      "type": "function"
    },
    {
      "inputs": [
        {
          "internalType": "bytes32",
          "name": "actionId",
          "type": "bytes32"
        },
        {
          "internalType": "address",
          "name": "account",
          "type": "address"
        },
        {
          "internalType": "address",
          "name": "where",
          "type": "address"
        }
      ],
      "name": "removeGranter",
      "outputs": [],
      "stateMutability": "nonpayable",
      "type": "function"
    },
    {
      "inputs": [
        {
          "internalType": "address",
          "name": "account",
          "type": "address"
        },
        {
          "internalType": "address",
          "name": "where",
          "type": "address"
        }
      ],
      "name": "removeRevoker",
      "outputs": [],
      "stateMutability": "nonpayable",
      "type": "function"
    },
    {
      "inputs": [
        {
          "internalType": "bytes32",
          "name": "actionId",
          "type": "bytes32"
        },
        {
          "internalType": "address",
          "name": "where",
          "type": "address"
        }
      ],
      "name": "renouncePermission",
      "outputs": [],
      "stateMutability": "nonpayable",
      "type": "function"
    },
    {
      "inputs": [
        {
          "internalType": "bytes32",
          "name": "actionId",
          "type": "bytes32"
        },
        {
          "internalType": "address",
          "name": "account",
          "type": "address"
        },
        {
          "internalType": "address",
          "name": "where",
          "type": "address"
        }
      ],
      "name": "revokePermission",
      "outputs": [],
      "stateMutability": "nonpayable",
      "type": "function"
    },
    {
      "inputs": [
        {
          "internalType": "address",
          "name": "where",
          "type": "address"
        },
        {
          "internalType": "bytes",
          "name": "data",
          "type": "bytes"
        },
        {
          "internalType": "address[]",
          "name": "executors",
          "type": "address[]"
        }
      ],
      "name": "schedule",
      "outputs": [
        {
          "internalType": "uint256",
          "name": "",
          "type": "uint256"
        }
      ],
      "stateMutability": "nonpayable",
      "type": "function"
    },
    {
      "inputs": [
        {
          "internalType": "bytes32",
          "name": "actionId",
          "type": "bytes32"
        },
        {
          "internalType": "uint256",
          "name": "newDelay",
          "type": "uint256"
        },
        {
          "internalType": "address[]",
          "name": "executors",
          "type": "address[]"
        }
      ],
      "name": "scheduleDelayChange",
      "outputs": [
        {
          "internalType": "uint256",
          "name": "",
          "type": "uint256"
        }
      ],
      "stateMutability": "nonpayable",
      "type": "function"
    },
    {
      "inputs": [
        {
          "internalType": "bytes32",
          "name": "actionId",
          "type": "bytes32"
        },
        {
          "internalType": "uint256",
          "name": "newDelay",
          "type": "uint256"
        },
        {
          "internalType": "address[]",
          "name": "executors",
          "type": "address[]"
        }
      ],
      "name": "scheduleGrantDelayChange",
      "outputs": [
        {
          "internalType": "uint256",
          "name": "",
          "type": "uint256"
        }
      ],
      "stateMutability": "nonpayable",
      "type": "function"
    },
    {
      "inputs": [
        {
          "internalType": "bytes32",
          "name": "actionId",
          "type": "bytes32"
        },
        {
          "internalType": "address",
          "name": "account",
          "type": "address"
        },
        {
          "internalType": "address",
          "name": "where",
          "type": "address"
        },
        {
          "internalType": "address[]",
          "name": "executors",
          "type": "address[]"
        }
      ],
      "name": "scheduleGrantPermission",
      "outputs": [
        {
          "internalType": "uint256",
          "name": "",
          "type": "uint256"
        }
      ],
      "stateMutability": "nonpayable",
      "type": "function"
    },
    {
      "inputs": [
        {
          "internalType": "bytes32",
          "name": "actionId",
          "type": "bytes32"
        },
        {
          "internalType": "uint256",
          "name": "newDelay",
          "type": "uint256"
        },
        {
          "internalType": "address[]",
          "name": "executors",
          "type": "address[]"
        }
      ],
      "name": "scheduleRevokeDelayChange",
      "outputs": [
        {
          "internalType": "uint256",
          "name": "",
          "type": "uint256"
        }
      ],
      "stateMutability": "nonpayable",
      "type": "function"
    },
    {
      "inputs": [
        {
          "internalType": "bytes32",
          "name": "actionId",
          "type": "bytes32"
        },
        {
          "internalType": "address",
          "name": "account",
          "type": "address"
        },
        {
          "internalType": "address",
          "name": "where",
          "type": "address"
        },
        {
          "internalType": "address[]",
          "name": "executors",
          "type": "address[]"
        }
      ],
      "name": "scheduleRevokePermission",
      "outputs": [
        {
          "internalType": "uint256",
          "name": "",
          "type": "uint256"
        }
      ],
      "stateMutability": "nonpayable",
      "type": "function"
    },
    {
      "inputs": [
        {
          "internalType": "address",
          "name": "newRoot",
          "type": "address"
        },
        {
          "internalType": "address[]",
          "name": "executors",
          "type": "address[]"
        }
      ],
      "name": "scheduleRootChange",
      "outputs": [
        {
          "internalType": "uint256",
          "name": "",
          "type": "uint256"
        }
      ],
      "stateMutability": "nonpayable",
      "type": "function"
    },
    {
      "inputs": [
        {
          "internalType": "bytes32",
          "name": "actionId",
          "type": "bytes32"
        },
        {
          "internalType": "uint256",
          "name": "delay",
          "type": "uint256"
        }
      ],
      "name": "setDelay",
      "outputs": [],
      "stateMutability": "nonpayable",
      "type": "function"
    },
    {
      "inputs": [
        {
          "internalType": "bytes32",
          "name": "actionId",
          "type": "bytes32"
        },
        {
          "internalType": "uint256",
          "name": "delay",
          "type": "uint256"
        }
      ],
      "name": "setGrantDelay",
      "outputs": [],
      "stateMutability": "nonpayable",
      "type": "function"
    },
    {
      "inputs": [
        {
          "internalType": "address",
          "name": "pendingRoot",
          "type": "address"
        }
      ],
      "name": "setPendingRoot",
      "outputs": [],
      "stateMutability": "nonpayable",
      "type": "function"
    },
    {
      "inputs": [
        {
          "internalType": "bytes32",
          "name": "actionId",
          "type": "bytes32"
        },
        {
          "internalType": "uint256",
          "name": "delay",
          "type": "uint256"
        }
      ],
      "name": "setRevokeDelay",
      "outputs": [],
      "stateMutability": "nonpayable",
      "type": "function"
    }
  ],
  "bytecode": "0x6101206040523480156200001257600080fd5b50604051620040213803806200402183398101604081905262000035916200025b565b8383836001600160a01b0316638d928af86040518163ffffffff1660e01b815260040160206040518083038186803b1580156200007157600080fd5b505afa15801562000086573d6000803e3d6000fd5b505050506040513d601f19601f82011682018060405250810190620000ac9190620002b4565b83620000b884620001bb565b620000c38362000203565b6001600160601b0319606083901b1660a052604051620000e3906200024d565b604051809103906000f08015801562000100573d6000803e3d6000fd5b5060601b6001600160601b03191660805260c05250506040805163e758d36b60e01b815290516001600160a01b038516925063e758d36b91600480820192602092909190829003018186803b1580156200015957600080fd5b505afa1580156200016e573d6000803e3d6000fd5b505050506040513d601f19601f82011682018060405250810190620001949190620002b4565b6001600160601b0319606091821b81166101005292901b90911660e05250620002f3915050565b600080546001600160a01b0319166001600160a01b038316908117825560405190917f39510b933a9d010f906528d6019d3f4e2450a10dc33b10887503b31ed82f111191a250565b600180546001600160a01b0319166001600160a01b0383169081179091556040517f566fe119ff450afc2580186c62762b6c1258245c8b1b6bb095e7276eb5a75b5590600090a250565b6104ef8062003b3283390190565b6000806000806080858703121562000271578384fd5b84516200027e81620002da565b60208601519094506200029181620002da565b6040860151909350620002a481620002da565b6060959095015193969295505050565b600060208284031215620002c6578081fd5b8151620002d381620002da565b9392505050565b6001600160a01b0381168114620002f057600080fd5b50565b60805160601c60a05160601c60c05160e05160601c6101005160601c6137da620003586000398061184252508061186a525080611b9f5250806116be5250806106c45280610962528061098f5280611c4b5280611eef52806121be52506137da6000f3fe608060405234801561001057600080fd5b50600436106103155760003560e01c8063863bac6b116101a7578063b3eb281d116100ee578063d00bef4d11610097578063f0bb940611610071578063f0bb94061461062f578063f6ebcbaf14610642578063fe0d94c11461065557610315565b8063d00bef4d14610601578063e2b4146b14610609578063f08455221461061c57610315565b8063c6192ee3116100c8578063c6192ee3146105c8578063c80c23e1146105db578063cc63604a146105ee57610315565b8063b3eb281d1461059a578063b99db526146105ad578063c284b6b9146105c057610315565b80639299942e11610150578063a44495d11161012a578063a44495d11461056c578063a8eae12d1461057f578063b1e31aa01461059257610315565b80639299942e1461053e57806399a7f6e2146105465780639be2a8841461055957610315565b80638cc3d072116101815780638cc3d072146105105780638d928af814610523578063902168121461052b57610315565b8063863bac6b146104d757806386ff254b146104ea5780638bd6bbc9146104fd57610315565b80633bf467971161026b5780635ca1e1651161021457806363cdbf36116101ee57806363cdbf36146104915780636badd2ab146104a457806372efb120146104c457610315565b80635ca1e1651461046e578063608dd7e41461047657806362cde1ba1461048957610315565b80634125ff90116102455780634125ff9014610440578063557a6403146104485780635b78b7801461045b57610315565b80633bf46797146104075780633e1df46d1461041a57806340e58ee51461042d57610315565b806318ef871a116102cd5780632362716d116102a75780632362716d146103ce5780632e3ed05b146103e15780633ac5d439146103f457610315565b806318ef871a146103935780631b3c85eb146103a85780632229edb4146103bb57610315565b806310d3ab2c116102fe57806310d3ab2c1461035657806314ea35e71461036b578063169f14681461037357610315565b8063044346061461031a5780630df322a614610343575b600080fd5b61032d610328366004612be4565b610675565b60405161033a9190612e9d565b60405180910390f35b61032d610351366004612a65565b6106a2565b610369610364366004612cac565b6106b9565b005b61036961077e565b610386610381366004612b01565b6107bf565b60405161033a9190612ea8565b61039b610960565b60405161033a9190612dee565b6103696103b6366004612a65565b610984565b6103696103c9366004612c07565b6109d5565b6103866103dc366004612c07565b610a8d565b6103866103ef366004612ab4565b610ac3565b610369610402366004612c07565b610bbc565b610386610415366004612bb4565b610c42565b61032d610428366004612be4565b610c54565b61036961043b366004612bb4565b610cc6565b610386610ddb565b61032d610456366004612a65565b610de3565b610386610469366004612c44565b610df7565b61039b610f4a565b610386610484366004612ccd565b610f59565b61039b611089565b61038661049f366004612ccd565b6110ad565b6104b76104b2366004612bb4565b6111dd565b60405161033a91906136b8565b6103696104d2366004612be4565b611315565b6103866104e5366004612c44565b611460565b61032d6104f8366004612c07565b611589565b61038661050b366004612bb4565b6115b6565b61036961051e366004612c07565b6115c8565b61039b6116bc565b610369610539366004612a80565b6116e0565b610386611089565b610369610554366004612be4565b611826565b61032d610567366004612c07565b611835565b61036961057a366004612a80565b6118ec565b61036961058d366004612c07565b611995565b610386611af4565b61032d6105a8366004612c07565b611afb565b6103866105bb366004612bb4565b611b8b565b610386611b9d565b61032d6105d6366004612a80565b611bc1565b6103696105e9366004612cac565b611c40565b61032d6105fc366004612bb4565b611cf0565b61039b611d69565b61032d610617366004612c07565b611d78565b61038661062a366004612ccd565b611db4565b61036961063d366004612cac565b611ee4565b610369610650366004612be4565b612059565b610668610663366004612bb4565b612088565b60405161033a9190612f0b565b60008281526002602090815260408083206001600160a01b038516845290915290205460ff165b92915050565b6001546001600160a01b038281169116145b919050565b336001600160a01b037f0000000000000000000000000000000000000000000000000000000000000000161461070a5760405162461bcd60e51b81526004016107019061345b565b60405180910390fd5b61071381612283565b61072f5760405162461bcd60e51b8152600401610701906130b4565b600082815260076020526040908190208290555182907f6922a4f4deeb55fdca50df28a72475aa87f9f1377ed93a95842ce8bc69dc01e890610772908490612ea8565b60405180910390a25050565b6001546001600160a01b03163381146107a95760405162461bcd60e51b815260040161070190613311565b6107b28161235e565b6107bc60006123be565b50565b60006001600160a01b0384163014156107ea5760405162461bcd60e51b815260040161070190612fe9565b6107f2610960565b6001600160a01b0316846001600160a01b031614156108235760405162461bcd60e51b815260040161070190612f1e565b6000846001600160a01b031663851c1bb361083d86612420565b6040518263ffffffff1660e01b81526004016108599190612ede565b60206040518083038186803b15801561087157600080fd5b505afa158015610885573d6000803e3d6000fd5b505050506040513d601f19601f820116820180604052508101906108a99190612bcc565b90506108b6813387611d78565b6108d25760405162461bcd60e51b815260040161070190613190565b6000818152600a6020526040902054806108fe5760405162461bcd60e51b8152600401610701906131c7565b600061090c8787848861252c565b905080837f26ce5ffb7ab1ce72d9ca4a3e4f906d2b99194d6c53dd9832fd7a59d0b2fc6bed60405160405180910390a36109468133610c54565b6109545761095481336127d1565b925050505b9392505050565b7f000000000000000000000000000000000000000000000000000000000000000090565b336001600160a01b037f000000000000000000000000000000000000000000000000000000000000000016146109cc5760405162461bcd60e51b81526004016107019061345b565b6107bc816123be565b6109de33610de3565b6109fa5760405162461bcd60e51b81526004016107019061326c565b610a05838383611afb565b15610a225760405162461bcd60e51b8152600401610701906130eb565b60008381526003602090815260408083206001600160a01b038087168086529184528285209086168086529352818420805460ff1916600117905590519192909186917f2d106cf4379aad979c25af765e6f7169b732d4c4660e41aa733a150c7fc0a6f791a4505050565b6000838383604051602001610aa493929190612db0565b6040516020818303038152906040528051906020012090509392505050565b6000610ace33610de3565b610aea5760405162461bcd60e51b81526004016107019061326c565b6060631b3c85eb60e01b84604051602401610b059190612dee565b60408051601f198184030181529190526020810180517bffffffffffffffffffffffffffffffffffffffffffffffffffffffff167fffffffff000000000000000000000000000000000000000000000000000000009093169290921790915290506000610b7b3083610b75611b9d565b8761252c565b905080856001600160a01b03167f7de09ff5f925ca34a396df31b30cdbdd0cd10b88833b4f7334cecc02454c1be760405160405180910390a3949350505050565b600083815260086020526040902054610bfa57610bd93382611bc1565b610bf55760405162461bcd60e51b815260040161070190613235565b610c32565b610c02610960565b6001600160a01b0316336001600160a01b031614610c325760405162461bcd60e51b8152600401610701906132da565b610c3d838383612853565b505050565b6000908152600a602052604090205490565b60008281526005602090815260408083206001600160a01b038516845290915281205460ff1680610cb7575060056000610c8c611089565b8152602080820192909252604090810160009081206001600160a01b038616825290925290205460ff165b80610959575061095982610de3565b6006548110610ce75760405162461bcd60e51b815260040161070190613537565b600060068281548110610cf657fe5b60009182526020909120600490910201600281015490915060ff1615610d2e5760405162461bcd60e51b81526004016107019061356e565b6002810154610100900460ff1615610d585760405162461bcd60e51b815260040161070190613424565b610d628233610c54565b610d7e5760405162461bcd60e51b815260040161070190613681565b6002810180547fffffffffffffffffffffffffffffffffffffffffffffffffffffffffffff00ff1661010017905560405182907f2a6bef66de603fc0ec07223576486bd905cd9bb6e05364286d9a5cd1be046ae690600090a25050565b6303c2670090565b6000546001600160a01b0390811691161490565b6000610e033384611bc1565b610e1f5760405162461bcd60e51b815260040161070190613235565b60008581526008602052604090205480610e4b5760405162461bcd60e51b81526004016107019061337f565b6060633ac5d43960e01b878787604051602401610e6a93929190612eb1565b60408051601f198184030181529190526020810180517bffffffffffffffffffffffffffffffffffffffffffffffffffffffff167fffffffff000000000000000000000000000000000000000000000000000000009093169290921790915290506000610ed93083858861252c565b9050856001600160a01b0316876001600160a01b0316897f645fdc5699106b1dffda57f54fdcca22ad57d87f0afd651edf857af3bfbd878484604051610f1f9190612ea8565b60405180910390a4610f318133610c54565b610f3f57610f3f81336127d1565b979650505050505050565b6000546001600160a01b031690565b6000610f6433610de3565b610f805760405162461bcd60e51b81526004016107019061326c565b610f88610ddb565b831115610fa75760405162461bcd60e51b815260040161070190613348565b600084815260086020526040812054610fc090856128cd565b9050606063c80c23e160e01b8686604051602401610fdf929190612ed0565b60408051601f198184030181529190526020810180517bffffffffffffffffffffffffffffffffffffffffffffffffffffffff167fffffffff00000000000000000000000000000000000000000000000000000000909316929092179091529050600061104e3083858861252c565b90508086887f2f330faf5e23fc7ff1c46f2b1a3299d86249055a5bf74a8b747ab7fb66f6dc9f60405160405180910390a49695505050505050565b7fffffffffffffffffffffffffffffffffffffffffffffffffffffffffffffffff90565b60006110b833610de3565b6110d45760405162461bcd60e51b81526004016107019061326c565b6110dc610ddb565b8311156110fb5760405162461bcd60e51b815260040161070190613348565b60008481526007602052604081205461111490856128cd565b905060606310d3ab2c60e01b8686604051602401611133929190612ed0565b60408051601f198184030181529190526020810180517bffffffffffffffffffffffffffffffffffffffffffffffffffffffff167fffffffff0000000000000000000000000000000000000000000000000000000090931692909217909152905060006111a23083858861252c565b90508086887f3d8c3ad02346a1ddf099dd26578662fb8cf85903168ebfeb1f14473fed8ee48860405160405180910390a49695505050505050565b6111e56128fd565b600682815481106111f257fe5b60009182526020918290206040805160c081018252600490930290910180546001600160a01b03168352600180820180548451601f60027fffffffffffffffffffffffffffffffffffffffffffffffffffffffffffffffff95841615610100029590950190921693909304908101879004870283018701909452838252939491938583019391929091908301828280156112cd5780601f106112a2576101008083540402835291602001916112cd565b820191906000526020600020905b8154815290600101906020018083116112b057829003601f168201915b5050509183525050600282015460ff80821615156020840152610100820481161515604084015262010000909104161515606082015260039091015460809091015292915050565b61131e33610de3565b61133a5760405162461bcd60e51b81526004016107019061326c565b61134381610de3565b156113605760405162461bcd60e51b815260040161070190612f7b565b6005600061136c611089565b8152602080820192909252604090810160009081206001600160a01b038516825290925290205460ff16156113c6576113a3611089565b82146113c15760405162461bcd60e51b815260040161070190613492565b611408565b60008281526005602090815260408083206001600160a01b038516845290915290205460ff166114085760405162461bcd60e51b8152600401610701906134c9565b60008281526005602090815260408083206001600160a01b0385168085529252808320805460ff1916905551909184917fd6b522eb4b505a0843020e304ba27d827b52c89347e6176b2f2737e6e4015c2d9190a35050565b600061146d853385611afb565b6114895760405162461bcd60e51b815260040161070190613046565b600085815260076020526040902054806114b55760405162461bcd60e51b815260040161070190613159565b6060638cc3d07260e01b8787876040516024016114d493929190612eb1565b60408051601f198184030181529190526020810180517bffffffffffffffffffffffffffffffffffffffffffffffffffffffff167fffffffff0000000000000000000000000000000000000000000000000000000090931692909217909152905060006115433083858861252c565b9050856001600160a01b0316876001600160a01b0316897f185f04ff33c89687859342776c7fdcf04d9eb9444d65192bfebab5a5ac9874a884604051610f1f9190612ea8565b60006009600061159a868686610a8d565b815260208101919091526040016000205460ff16949350505050565b60009081526007602052604090205490565b600083815260076020526040902054611607576115e6833383611afb565b6116025760405162461bcd60e51b815260040161070190613046565b61163f565b61160f610960565b6001600160a01b0316336001600160a01b03161461163f5760405162461bcd60e51b815260040161070190613500565b600061164c848484610a8d565b60008181526009602052604090205490915060ff166116b657600081815260096020526040808220805460ff19166001179055516001600160a01b03808516929086169187917fef6ee312a0062a24a46be2eba5284183a87ff848110e8d4df979bd690d9e9f6891a45b50505050565b7f000000000000000000000000000000000000000000000000000000000000000090565b6116e933610de3565b6117055760405162461bcd60e51b81526004016107019061326c565b61170f8282611bc1565b61172b5760405162461bcd60e51b8152600401610701906135a5565b61173482610de3565b156117515760405162461bcd60e51b8152600401610701906132a3565b6001600160a01b038216600090815260046020526040812090611772611089565b6001600160a01b0316815260208101919091526040016000205460ff16156117cc5761179c611089565b6001600160a01b0316816001600160a01b0316146117cc5760405162461bcd60e51b8152600401610701906131fe565b6001600160a01b03808316600081815260046020908152604080832094861680845294909152808220805460ff19169055517fb6fe3ab11eb9ab1d9f1d41c8f42a5d72d10122099ba1548e4a6d1a4d8cefec4b9190a35050565b611831823383612853565b5050565b6000336001600160a01b037f00000000000000000000000000000000000000000000000000000000000000001614156118a4577f00000000000000000000000000000000000000000000000000000000000000006001600160a01b0316836001600160a01b0316149050610959565b6000848152600a6020526040902054156118d9576118c0610960565b6001600160a01b0316836001600160a01b0316146118e4565b6118e4848484611d78565b949350505050565b6118f533610de3565b6119115760405162461bcd60e51b81526004016107019061326c565b61191b8282611bc1565b156119385760405162461bcd60e51b81526004016107019061364a565b6001600160a01b03808316600081815260046020908152604080832094861680845294909152808220805460ff19166001179055517f2b5f18afd9a7b21f41bf023b012b3d4c8a22a21b79fa425cd4494ecbe29701969190a35050565b61199e33610de3565b6119ba5760405162461bcd60e51b81526004016107019061326c565b6119c5838383611afb565b6119e15760405162461bcd60e51b8152600401610701906133b6565b6119ea82610de3565b15611a075760405162461bcd60e51b815260040161070190613613565b60008381526003602090815260408083206001600160a01b0386168452909152812090611a32611089565b6001600160a01b0316815260208101919091526040016000205460ff1615611a8c57611a5c611089565b6001600160a01b0316816001600160a01b031614611a8c5760405162461bcd60e51b815260040161070190612fb2565b60008381526003602090815260408083206001600160a01b038087168086529184528285209086168086529352818420805460ff1916905590519192909186917ff8034293d5b4ed16b867ded8f122c475bc0d1b6bd9309a606609a754e5f3adc391a4505050565b6206978090565b60008381526003602090815260408083206001600160a01b038087168552908352818420908516845290915281205460ff1680611b7c575060008481526003602090815260408083206001600160a01b0387168452909152812090611b5e611089565b6001600160a01b0316815260208101919091526040016000205460ff165b806118e457506118e483610de3565b60009081526008602052604090205490565b7f000000000000000000000000000000000000000000000000000000000000000090565b6001600160a01b03808316600090815260046020908152604080832093851683529290529081205460ff1680611c3157506001600160a01b038316600090815260046020526040812090611c13611089565b6001600160a01b0316815260208101919091526040016000205460ff165b80610959575061095983610de3565b336001600160a01b037f00000000000000000000000000000000000000000000000000000000000000001614611c885760405162461bcd60e51b81526004016107019061345b565b611c9181612283565b611cad5760405162461bcd60e51b8152600401610701906130b4565b600082815260086020526040908190208290555182907f6aeebd84e31437f28a17927609991676c31c2b84875c601373da2c194e9d234190610772908490612ea8565b6006546000908210611d145760405162461bcd60e51b815260040161070190613537565b600060068381548110611d2357fe5b60009182526020909120600490910201600281015490915060ff16158015611d5557506002810154610100900460ff16155b801561095957506003015442101592915050565b6001546001600160a01b031690565b600060096000611d89868686610a8d565b815260208101919091526040016000205460ff16806118e457506009600061159a86866103dc611089565b6000611dbf33610de3565b611ddb5760405162461bcd60e51b81526004016107019061326c565b611de3610ddb565b831115611e025760405162461bcd60e51b815260040161070190613348565b6000848152600a6020526040812054611e1b90856128cd565b9050606063f0bb940660e01b8686604051602401611e3a929190612ed0565b60408051601f198184030181529190526020810180517bffffffffffffffffffffffffffffffffffffffffffffffffffffffff167fffffffff000000000000000000000000000000000000000000000000000000009093169290921790915290506000611ea93083858861252c565b90508086887fbc72942fa810fe8985041bb36295502eddf2c163774be55e25d205958956072860405160405180910390a49695505050505050565b336001600160a01b037f00000000000000000000000000000000000000000000000000000000000000001614611f2c5760405162461bcd60e51b81526004016107019061345b565b611f346116bc565b6040517f851c1bb30000000000000000000000000000000000000000000000000000000081526001600160a01b03919091169063851c1bb390611f9b907f058a628f0000000000000000000000000000000000000000000000000000000090600401612ede565b60206040518083038186803b158015611fb357600080fd5b505afa158015611fc7573d6000803e3d6000fd5b505050506040513d601f19601f82011682018060405250810190611feb9190612bcc565b821461201657611ffa81612283565b6120165760405162461bcd60e51b8152600401610701906130b4565b6000828152600a6020526040908190208290555182907f0e182617f9e5f9ce5f761c791ec15ad52176d97f9706b5c2707ffda7b6bdf79090610772908490612ea8565b61206233610de3565b61207e5760405162461bcd60e51b81526004016107019061326c565b61183182826127d1565b60065460609082106120ac5760405162461bcd60e51b815260040161070190613537565b6000600683815481106120bb57fe5b60009182526020909120600490910201600281015490915060ff16156120f35760405162461bcd60e51b81526004016107019061356e565b6002810154610100900460ff161561211d5760405162461bcd60e51b815260040161070190613424565b80600301544210156121415760405162461bcd60e51b8152600401610701906133ed565b600281015462010000900460ff161561217a5761215e8333610675565b61217a5760405162461bcd60e51b81526004016107019061307d565b60028101805460ff1916600190811790915581546040517f1cff79cd0000000000000000000000000000000000000000000000000000000081526001600160a01b037f0000000000000000000000000000000000000000000000000000000000000000811693631cff79cd936121f99392169190860190600401612e02565b600060405180830381600087803b15801561221357600080fd5b505af1158015612227573d6000803e3d6000fd5b505050506040513d6000823e601f3d908101601f1916820160405261224f9190810190612d11565b60405190925083907f4fa5548c15e2d4a0b806eee962935acea143d79644d2340af39f4edf13b335a990600090a250919050565b60008061228e6116bc565b6040517f851c1bb30000000000000000000000000000000000000000000000000000000081526001600160a01b03919091169063851c1bb3906122f5907f058a628f0000000000000000000000000000000000000000000000000000000090600401612ede565b60206040518083038186803b15801561230d57600080fd5b505afa158015612321573d6000803e3d6000fd5b505050506040513d601f19601f820116820180604052508101906123459190612bcc565b6000908152600a60205260409020549092111592915050565b600080547fffffffffffffffffffffffff0000000000000000000000000000000000000000166001600160a01b038316908117825560405190917f39510b933a9d010f906528d6019d3f4e2450a10dc33b10887503b31ed82f111191a250565b600180547fffffffffffffffffffffffff0000000000000000000000000000000000000000166001600160a01b0383169081179091556040517f566fe119ff450afc2580186c62762b6c1258245c8b1b6bb095e7276eb5a75b5590600090a250565b6000600482511015612434575060006106b4565b60188260038151811061244357fe5b016020015183517fff0000000000000000000000000000000000000000000000000000000000000090911690911c906010908490600290811061248257fe5b016020015184517fff0000000000000000000000000000000000000000000000000000000000000090911690911c90600890859060019081106124c157fe5b016020015185517fff0000000000000000000000000000000000000000000000000000000000000090911690911c9085906000906124fb57fe5b01602001517fff00000000000000000000000000000000000000000000000000000000000000161717179050919050565b6006805482516040805160c0810182526001600160a01b03898116825260208083018a815260009484018590526060840185905294151560808401819052428a0160a085018190526001880189559790945282517ff652222313e28459528d920b65115c16c04f3efc82aaedc97be59f3f377c0d3f6004880290810180547fffffffffffffffffffffffff0000000000000000000000000000000000000000169290941691909117835594518051969796949593949293612616937ff652222313e28459528d920b65115c16c04f3efc82aaedc97be59f3f377c0d40909101929190910190612933565b50604082015160028201805460608501516080860151151562010000027fffffffffffffffffffffffffffffffffffffffffffffffffffffffffff00ffff911515610100027fffffffffffffffffffffffffffffffffffffffffffffffffffffffffffff00ff95151560ff199094169390931794909416919091171691909117905560a09091015160039091015560005b84518110156127c6576002600085815260200190815260200160002060008683815181106126d157fe5b6020908102919091018101516001600160a01b031682528101919091526040016000205460ff16156127155760405162461bcd60e51b815260040161070190613122565b600084815260026020526040812086516001929088908590811061273557fe5b60200260200101516001600160a01b03166001600160a01b0316815260200190815260200160002060006101000a81548160ff02191690831515021790555084818151811061278057fe5b60200260200101516001600160a01b0316847f2d0aa562da96ca6dd124fee5588e6f8545b0aa0b15cfd87cc231eff1ae7000e460405160405180910390a36001016126a7565b505050949350505050565b6127db8282610c54565b156127f85760405162461bcd60e51b8152600401610701906135dc565b60008281526005602090815260408083206001600160a01b0385168085529252808320805460ff1916600117905551909184917f1b55562f9a67454174f758170aba47751c0af4c1f3b7d4e0b70667f1e82066069190a35050565b6000612860848484610a8d565b60008181526009602052604090205490915060ff16156116b657600081815260096020526040808220805460ff19169055516001600160a01b03808516929086169187917f7b42e026d3b17cf41399915c285780d0f724b3464b269297aff73c0de0fe417f91a450505050565b60008282106128e3576128de611af4565b610959565b6109598284036128f1611af4565b80820390821002900390565b6040805160c08101825260008082526060602083018190529282018190529181018290526080810182905260a081019190915290565b828054600181600116156101000203166002900490600052602060002090601f016020900481019282601f1061297457805160ff19168380011785556129a1565b828001600101855582156129a1579182015b828111156129a1578251825591602001919060010190612986565b506129ad9291506129b1565b5090565b5b808211156129ad57600081556001016129b2565b80356001600160a01b038116811461069c57600080fd5b600082601f8301126129ed578081fd5b813567ffffffffffffffff811115612a03578182fd5b6020808202612a13828201613721565b83815293508184018583018287018401881015612a2f57600080fd5b600092505b84831015612a5a57612a4688826129c6565b825260019290920191908301908301612a34565b505050505092915050565b600060208284031215612a76578081fd5b61095983836129c6565b60008060408385031215612a92578081fd5b612a9c84846129c6565b9150612aab84602085016129c6565b90509250929050565b60008060408385031215612ac6578182fd5b612ad084846129c6565b9150602083013567ffffffffffffffff811115612aeb578182fd5b612af7858286016129dd565b9150509250929050565b600080600060608486031215612b15578081fd5b612b1f85856129c6565b9250602084013567ffffffffffffffff80821115612b3b578283fd5b818601915086601f830112612b4e578283fd5b8135612b61612b5c82613748565b613721565b818152886020838601011115612b75578485fd5b8160208501602083013790810160200184905293506040860135915080821115612b9d578283fd5b50612baa868287016129dd565b9150509250925092565b600060208284031215612bc5578081fd5b5035919050565b600060208284031215612bdd578081fd5b5051919050565b60008060408385031215612bf6578182fd5b82359150612aab84602085016129c6565b600080600060608486031215612c1b578283fd5b83359250612c2c85602086016129c6565b9150612c3b85604086016129c6565b90509250925092565b60008060008060808587031215612c59578081fd5b84359350612c6a86602087016129c6565b9250612c7986604087016129c6565b9150606085013567ffffffffffffffff811115612c94578182fd5b612ca0878288016129dd565b91505092959194509250565b60008060408385031215612cbe578182fd5b50508035926020909101359150565b600080600060608486031215612ce1578283fd5b8335925060208401359150604084013567ffffffffffffffff811115612d05578182fd5b612baa868287016129dd565b600060208284031215612d22578081fd5b815167ffffffffffffffff811115612d38578182fd5b8201601f81018413612d48578182fd5b8051612d56612b5c82613748565b818152856020838501011115612d6a578384fd5b612d7b826020830160208601613778565b95945050505050565b60008151808452612d9c816020860160208601613778565b601f01601f19169290920160200192915050565b9283527fffffffffffffffffffffffffffffffffffffffff000000000000000000000000606092831b81166020850152911b16603482015260480190565b6001600160a01b0391909116815260200190565b6000604082016001600160a01b03851683526020604081850152828554600180821660008114612e395760018114612e5757612e8f565b607f6002840416865260ff1983166060890152608088019350612e8f565b60028304808752612e678a61376c565b885b82811015612e855781548b820160600152908401908701612e69565b8a01606001955050505b509198975050505050505050565b901515815260200190565b90815260200190565b9283526001600160a01b03918216602084015216604082015260600190565b918252602082015260400190565b7fffffffff0000000000000000000000000000000000000000000000000000000091909116815260200190565b6000602082526109596020830184612d84565b60208082526026908201527f415454454d5054494e475f455845435554494f4e5f48454c5045525f5245454e60408201527f5452414e43590000000000000000000000000000000000000000000000000000606082015260800190565b6020808252601b908201527f43414e4e4f545f52454d4f56455f524f4f545f43414e43454c45520000000000604082015260600190565b60208082526011908201527f4752414e5445525f49535f474c4f42414c000000000000000000000000000000604082015260600190565b60208082526022908201527f43414e4e4f545f5343484544554c455f415554484f52495a45525f414354494f60408201527f4e53000000000000000000000000000000000000000000000000000000000000606082015260800190565b60208082526015908201527f53454e4445525f49535f4e4f545f4752414e5445520000000000000000000000604082015260600190565b60208082526016908201527f53454e4445525f49535f4e4f545f4558454355544f5200000000000000000000604082015260600190565b6020808252601c908201527f44454c41595f455843454544535f5345545f415554484f52495a455200000000604082015260600190565b6020808252601a908201527f4143434f554e545f49535f414c52454144595f4752414e544552000000000000604082015260600190565b60208082526013908201527f4455504c49434154455f4558454355544f525300000000000000000000000000604082015260600190565b60208082526019908201527f414354494f4e5f4841535f4e4f5f4752414e545f44454c415900000000000000604082015260600190565b6020808252601f908201527f53454e4445525f444f45535f4e4f545f484156455f5045524d495353494f4e00604082015260600190565b60208082526010908201527f44454c41595f49535f4e4f545f53455400000000000000000000000000000000604082015260600190565b60208082526011908201527f5245564f4b45525f49535f474c4f42414c000000000000000000000000000000604082015260600190565b60208082526015908201527f53454e4445525f49535f4e4f545f5245564f4b45520000000000000000000000604082015260600190565b60208082526012908201527f53454e4445525f49535f4e4f545f524f4f540000000000000000000000000000604082015260600190565b6020808252601a908201527f43414e4e4f545f52454d4f56455f524f4f545f5245564f4b4552000000000000604082015260600190565b60208082526018908201527f5245564f4b455f4d5553545f42455f5343484544554c45440000000000000000604082015260600190565b6020808252601a908201527f53454e4445525f49535f4e4f545f50454e44494e475f524f4f54000000000000604082015260600190565b6020808252600f908201527f44454c41595f544f4f5f4c415247450000000000000000000000000000000000604082015260600190565b6020808252601a908201527f414354494f4e5f4841535f4e4f5f5245564f4b455f44454c4159000000000000604082015260600190565b60208082526016908201527f4143434f554e545f49535f4e4f545f4752414e54455200000000000000000000604082015260600190565b60208082526019908201527f414354494f4e5f4e4f545f5945545f45584543555441424c4500000000000000604082015260600190565b60208082526018908201527f414354494f4e5f414c52454144595f43414e43454c4c45440000000000000000604082015260600190565b60208082526015908201527f43414e5f4f4e4c595f42455f5343484544554c45440000000000000000000000604082015260600190565b6020808252601a908201527f4143434f554e545f49535f474c4f42414c5f43414e43454c4552000000000000604082015260600190565b60208082526017908201527f4143434f554e545f49535f4e4f545f43414e43454c4552000000000000000000604082015260600190565b60208082526017908201527f4752414e545f4d5553545f42455f5343484544554c4544000000000000000000604082015260600190565b60208082526015908201527f414354494f4e5f444f45535f4e4f545f45584953540000000000000000000000604082015260600190565b60208082526017908201527f414354494f4e5f414c52454144595f4558454355544544000000000000000000604082015260600190565b60208082526016908201527f4143434f554e545f49535f4e4f545f5245564f4b455200000000000000000000604082015260600190565b6020808252601b908201527f4143434f554e545f49535f414c52454144595f43414e43454c45520000000000604082015260600190565b6020808252601a908201527f43414e4e4f545f52454d4f56455f524f4f545f4752414e544552000000000000604082015260600190565b6020808252601a908201527f4143434f554e545f49535f414c52454144595f5245564f4b4552000000000000604082015260600190565b60208082526016908201527f53454e4445525f49535f4e4f545f43414e43454c455200000000000000000000604082015260600190565b6000602082526001600160a01b038351166020830152602083015160c060408401526136e760e0840182612d84565b90506040840151151560608401526060840151151560808401526080840151151560a084015260a084015160c08401528091505092915050565b60405181810167ffffffffffffffff8111828210171561374057600080fd5b604052919050565b600067ffffffffffffffff82111561375e578081fd5b50601f01601f191660200190565b60009081526020902090565b60005b8381101561379357818101518382015260200161377b565b838111156116b6575050600091015256fea2646970667358221220c9b2cb1fd7335ee61a82c5d8b5e3469a52addc9299f28094f8243805c126ef2a64736f6c6343000701003360a060405234801561001057600080fd5b5060016000553360601b60805260805160601c6104b061003f600039806101c6528061026e52506104b06000f3fe608060405234801561001057600080fd5b50600436106100365760003560e01c80631cff79cd1461003b578063aaabadc514610173575b600080fd5b6100fe6004803603604081101561005157600080fd5b73ffffffffffffffffffffffffffffffffffffffff823516919081019060408101602082013564010000000081111561008957600080fd5b82018360208201111561009b57600080fd5b803590602001918460018302840111640100000000831117156100bd57600080fd5b91908080601f0160208091040260200160405190810160405280939291908181526020018383808284376000920191909152509295506101a4945050505050565b6040805160208082528351818301528351919283929083019185019080838360005b83811015610138578181015183820152602001610120565b50505050905090810190601f1680156101655780820380516001836020036101000a031916815260200191505b509250505060405180910390f35b61017b61026c565b6040805173ffffffffffffffffffffffffffffffffffffffff9092168252519081900360200190f35b60606101ae610290565b3373ffffffffffffffffffffffffffffffffffffffff7f0000000000000000000000000000000000000000000000000000000000000000161461025257604080517f08c379a000000000000000000000000000000000000000000000000000000000815260206004820152601860248201527f53454e4445525f49535f4e4f545f415554484f52495a45520000000000000000604482015290519081900360640190fd5b61025c83836102a9565b9050610266610393565b92915050565b7f000000000000000000000000000000000000000000000000000000000000000090565b6102a26002600054141561019061039a565b6002600055565b6060600060608473ffffffffffffffffffffffffffffffffffffffff16846040518082805190602001908083835b6020831061031457805182527fffffffffffffffffffffffffffffffffffffffffffffffffffffffffffffffe090920191602091820191016102d7565b6001836020036101000a0380198251168184511680821785525050505050509050019150506000604051808303816000865af19150503d8060008114610376576040519150601f19603f3d011682016040523d82523d6000602084013e61037b565b606091505b509150915061038a82826103ac565b95945050505050565b6001600055565b816103a8576103a8816103d2565b5050565b606082156103bb575080610266565b8151156103cb5781518083602001fd5b6102666101ae5b6103fc817f42414c00000000000000000000000000000000000000000000000000000000006103ff565b50565b7f08c379a000000000000000000000000000000000000000000000000000000000600090815260206004526007602452600a808404818106603090810160081b958390069590950190829004918206850160101b01602363ffffff0060e086901c160160181b0190930160c81b60445260e882901c90606490fdfea2646970667358221220ee5662c1d599e9c252d284d2b6348c9b58be9435ede9a19409fb1d0fd1c94e0464736f6c63430007010033",
  "linkReferences": {},
  "deployedLinkReferences": {}
}