{
  "_format": "hh-sol-artifact-1",
  "contractName": "TimelockAuthorizerMigrator",
  "sourceName": "contracts/TimelockAuthorizerMigrator.sol",
  "abi": [
    {
      "inputs": [
        {
          "internalType": "address",
          "name": "_root",
          "type": "address"
        },
        {
          "internalType": "contract IBasicAuthorizer",
          "name": "_oldAuthorizer",
          "type": "address"
        },
        {
          "internalType": "contract IAuthorizerAdaptorEntrypoint",
          "name": "_authorizerAdaptorEntrypoint",
          "type": "address"
        },
        {
          "components": [
            {
              "internalType": "address",
              "name": "grantee",
              "type": "address"
            },
            {
              "internalType": "bytes32",
              "name": "role",
              "type": "bytes32"
            },
            {
              "internalType": "address",
              "name": "target",
              "type": "address"
            }
          ],
          "internalType": "struct TimelockAuthorizerMigrator.RoleData[]",
          "name": "_rolesData",
          "type": "tuple[]"
        },
        {
          "components": [
            {
              "internalType": "address",
              "name": "grantee",
              "type": "address"
            },
            {
              "internalType": "bytes32",
              "name": "role",
              "type": "bytes32"
            },
            {
              "internalType": "address",
              "name": "target",
              "type": "address"
            }
          ],
          "internalType": "struct TimelockAuthorizerMigrator.RoleData[]",
          "name": "_grantersData",
          "type": "tuple[]"
        },
        {
          "components": [
            {
              "internalType": "address",
              "name": "grantee",
              "type": "address"
            },
            {
              "internalType": "bytes32",
              "name": "role",
              "type": "bytes32"
            },
            {
              "internalType": "address",
              "name": "target",
              "type": "address"
            }
          ],
          "internalType": "struct TimelockAuthorizerMigrator.RoleData[]",
          "name": "_revokersData",
          "type": "tuple[]"
        },
        {
          "components": [
            {
              "internalType": "bytes32",
              "name": "actionId",
              "type": "bytes32"
            },
            {
              "internalType": "uint256",
              "name": "newDelay",
              "type": "uint256"
            }
          ],
          "internalType": "struct TimelockAuthorizerMigrator.DelayData[]",
          "name": "_executeDelaysData",
          "type": "tuple[]"
        },
        {
          "components": [
            {
              "internalType": "bytes32",
              "name": "actionId",
              "type": "bytes32"
            },
            {
              "internalType": "uint256",
              "name": "newDelay",
              "type": "uint256"
            }
          ],
          "internalType": "struct TimelockAuthorizerMigrator.DelayData[]",
          "name": "_grantDelaysData",
          "type": "tuple[]"
        }
      ],
      "stateMutability": "nonpayable",
      "type": "constructor"
    },
    {
      "inputs": [],
      "name": "CHANGE_ROOT_DELAY",
      "outputs": [
        {
          "internalType": "uint256",
          "name": "",
          "type": "uint256"
        }
      ],
      "stateMutability": "view",
      "type": "function"
    },
    {
      "inputs": [],
      "name": "DEFAULT_ADMIN_ROLE",
      "outputs": [
        {
          "internalType": "bytes32",
          "name": "",
          "type": "bytes32"
        }
      ],
      "stateMutability": "view",
      "type": "function"
    },
    {
      "inputs": [],
      "name": "EVERYWHERE",
      "outputs": [
        {
          "internalType": "address",
          "name": "",
          "type": "address"
        }
      ],
      "stateMutability": "view",
      "type": "function"
    },
    {
      "inputs": [],
      "name": "GENERAL_PERMISSION_SPECIFIER",
      "outputs": [
        {
          "internalType": "bytes32",
          "name": "",
          "type": "bytes32"
        }
      ],
      "stateMutability": "view",
      "type": "function"
    },
    {
      "inputs": [],
      "name": "executeDelays",
      "outputs": [],
      "stateMutability": "nonpayable",
      "type": "function"
    },
    {
      "inputs": [],
      "name": "finalizeMigration",
      "outputs": [],
      "stateMutability": "nonpayable",
      "type": "function"
    },
    {
      "inputs": [],
      "name": "newAuthorizer",
      "outputs": [
        {
          "internalType": "contract TimelockAuthorizer",
          "name": "",
          "type": "address"
        }
      ],
      "stateMutability": "view",
      "type": "function"
    },
    {
      "inputs": [],
      "name": "oldAuthorizer",
      "outputs": [
        {
          "internalType": "contract IBasicAuthorizer",
          "name": "",
          "type": "address"
        }
      ],
      "stateMutability": "view",
      "type": "function"
    },
    {
      "inputs": [],
      "name": "root",
      "outputs": [
        {
          "internalType": "address",
          "name": "",
          "type": "address"
        }
      ],
      "stateMutability": "view",
      "type": "function"
    },
    {
      "inputs": [],
      "name": "vault",
      "outputs": [
        {
          "internalType": "contract IVault",
          "name": "",
          "type": "address"
        }
      ],
      "stateMutability": "view",
      "type": "function"
    }
  ],
  "bytecode": "0x6101006040523480156200001257600080fd5b50604051620055b1380380620055b1833981016040819052620000359162000840565b60003089886224ea006040516200004c90620006b6565b6200005b9493929190620009d2565b604051809103906000f08015801562000078573d6000803e3d6000fd5b506001600160601b0319606082811b821660e0528a901b1660c052604080516311b2515f60e31b815290519192506001600160a01b03891691638d928af891600480820192602092909190829003018186803b158015620000d857600080fd5b505afa158015620000ed573d6000803e3d6000fd5b505050506040513d601f19601f8201168201806040525081019062000113919062000980565b6001600160601b0319606091821b8116608052908a901b1660a05260005b8651811015620002955762000145620006c4565b8782815181106200015257fe5b60200260200101519050896001600160a01b0316639be2a8848260200151836000015184604001516040518463ffffffff1660e01b81526004016200019a93929190620009fc565b60206040518083038186803b158015620001b357600080fd5b505afa158015620001c8573d6000803e3d6000fd5b505050506040513d601f19601f82011682018060405250810190620001ee919062000957565b620002165760405162461bcd60e51b81526004016200020d9062000a7a565b60405180910390fd5b602081015181516040808401519051634661e83960e11b81526001600160a01b03871693638cc3d0729362000253939192909190600401620009fc565b600060405180830381600087803b1580156200026e57600080fd5b505af115801562000283573d6000803e3d6000fd5b50506001909301925062000131915050565b5060005b85518110156200035e57816001600160a01b0316632229edb4878381518110620002bf57fe5b602002602001015160200151888481518110620002d857fe5b602002602001015160000151898581518110620002f157fe5b6020026020010151604001516040518463ffffffff1660e01b81526004016200031d93929190620009fc565b600060405180830381600087803b1580156200033857600080fd5b505af11580156200034d573d6000803e3d6000fd5b505060019092019150620002999050565b5060005b84518110156200040d57816001600160a01b031663a44495d18683815181106200038857fe5b602002602001015160000151878481518110620003a157fe5b6020026020010151604001516040518363ffffffff1660e01b8152600401620003cc929190620009b8565b600060405180830381600087803b158015620003e757600080fd5b505af1158015620003fc573d6000803e3d6000fd5b505060019092019150620003629050565b506000805b84518110156200052d5762278d008582815181106200042d57fe5b60200260200101516020015111156200045a5760405162461bcd60e51b81526004016200020d9062000aa3565b826001600160a01b031663f08455228683815181106200047657fe5b6020026020010151600001518784815181106200048f57fe5b602002602001015160200151620004ac306200066060201b60201c565b6040518463ffffffff1660e01b8152600401620004cc9392919062000a1b565b602060405180830381600087803b158015620004e757600080fd5b505af1158015620004fc573d6000803e3d6000fd5b505050506040513d601f19601f820116820180604052508101906200052291906200099f565b915060010162000412565b5060005b83518110156200064c5762278d008482815181106200054c57fe5b6020026020010151602001511115620005795760405162461bcd60e51b81526004016200020d9062000aa3565b826001600160a01b03166363cdbf368583815181106200059557fe5b602002602001015160000151868481518110620005ae57fe5b602002602001015160200151620005cb306200066060201b60201c565b6040518463ffffffff1660e01b8152600401620005eb9392919062000a1b565b602060405180830381600087803b1580156200060657600080fd5b505af11580156200061b573d6000803e3d6000fd5b505050506040513d601f19601f820116820180604052508101906200064191906200099f565b915060010162000531565b506000555062000b3a975050505050505050565b6040805160018082528183019092526060916020808301908036833701905050905081816000815181106200069157fe5b60200260200101906001600160a01b031690816001600160a01b031681525050919050565b61410080620014b183390190565b604080516060810182526000808252602082018190529181019190915290565b8051620006f18162000b21565b92915050565b600082601f83011262000708578081fd5b81516200071f620007198262000b01565b62000ada565b81815291506020808301908481016040808502870183018810156200074357600080fd5b6000805b86811015620007895782848b0312156200075f578182fd5b6200076a8362000ada565b8451815285850151868201528652948401949282019260010162000747565b5050505050505092915050565b600082601f830112620007a7578081fd5b8151620007b8620007198262000b01565b8181529150602080830190848101606080850287018301881015620007dc57600080fd5b6000805b86811015620007895782848b031215620007f8578182fd5b620008038362000ada565b6200080f8b86620006e4565b815285850151868201526040620008298c828801620006e4565b9082015286529484019492820192600101620007e0565b600080600080600080600080610100898b0312156200085d578384fd5b620008698a8a620006e4565b97506200087a8a60208b01620006e4565b96506200088b8a60408b01620006e4565b60608a01519096506001600160401b0380821115620008a8578586fd5b620008b68c838d0162000796565b965060808b0151915080821115620008cc578586fd5b620008da8c838d0162000796565b955060a08b0151915080821115620008f0578485fd5b620008fe8c838d0162000796565b945060c08b015191508082111562000914578384fd5b620009228c838d01620006f7565b935060e08b015191508082111562000938578283fd5b50620009478b828c01620006f7565b9150509295985092959890939650565b60006020828403121562000969578081fd5b8151801515811462000979578182fd5b9392505050565b60006020828403121562000992578081fd5b8151620009798162000b21565b600060208284031215620009b1578081fd5b5051919050565b6001600160a01b0392831681529116602082015260400190565b6001600160a01b039485168152928416602084015292166040820152606081019190915260800190565b9283526001600160a01b03918216602084015216604082015260600190565b60006060820185835260208581850152606060408501528185518084526080860191508287019350845b8181101562000a6c5784516001600160a01b03168352938301939183019160010162000a45565b509098975050505050505050565b6020808252600f908201526e554e45585045435445445f524f4c4560881b604082015260600190565b60208082526016908201527f554e45585045435445445f4c415247455f44454c415900000000000000000000604082015260600190565b6040518181016001600160401b038111828210171562000af957600080fd5b604052919050565b60006001600160401b0382111562000b17578081fd5b5060209081020190565b6001600160a01b038116811462000b3757600080fd5b50565b60805160601c60a05160601c60c05160601c60e05160601c61090d62000ba460003980610181528061026352806102c7528061060452508061049652806106645250806102f452806106885250806103eb52806104d452806105d752806106ac525061090d6000f3fe608060405234801561001057600080fd5b50600436106100be5760003560e01c8063b78b608711610076578063ebf0c7171161005b578063ebf0c71714610120578063fbfa77cf14610128578063fc78a22814610130576100be565b8063b78b608714610110578063c6bfe9ae14610118576100be565b80637217d9d1116100a75780637217d9d1146100eb578063a0c286d814610100578063a217fddf14610108576100be565b80633c44172d146100c357806362cde1ba146100cd575b600080fd5b6100cb610138565b005b6100d5610236565b6040516100e291906107e6565b60405180910390f35b6100f361025a565b6040516100e29190610807565b6100d5610261565b6100f3610285565b6100cb61028a565b6100d5610662565b6100d5610686565b6100d56106aa565b6100f3610236565b60005b6000548111610233576040517ffe0d94c100000000000000000000000000000000000000000000000000000000815273ffffffffffffffffffffffffffffffffffffffff7f0000000000000000000000000000000000000000000000000000000000000000169063fe0d94c1906101b6908490600401610807565b600060405180830381600087803b1580156101d057600080fd5b505af11580156101e4573d6000803e3d6000fd5b505050506040513d6000823e601f3d9081017fffffffffffffffffffffffffffffffffffffffffffffffffffffffffffffffe016820160405261022a919081019061070d565b5060010161013b565b50565b7fffffffffffffffffffffffffffffffffffffffffffffffffffffffffffffffff81565b6224ea0081565b7f000000000000000000000000000000000000000000000000000000000000000081565b600081565b6040517f557a640300000000000000000000000000000000000000000000000000000000815273ffffffffffffffffffffffffffffffffffffffff7f0000000000000000000000000000000000000000000000000000000000000000169063557a64039061031c907f0000000000000000000000000000000000000000000000000000000000000000906004016107e6565b60206040518083038186803b15801561033457600080fd5b505afa158015610348573d6000803e3d6000fd5b505050506040513d601f19601f8201168201806040525081019061036c91906106ce565b6103ab576040517f08c379a00000000000000000000000000000000000000000000000000000000081526004016103a290610869565b60405180910390fd5b6040517f851c1bb300000000000000000000000000000000000000000000000000000000815260009073ffffffffffffffffffffffffffffffffffffffff7f0000000000000000000000000000000000000000000000000000000000000000169063851c1bb390610440907f058a628f000000000000000000000000000000000000000000000000000000009060040161083c565b60206040518083038186803b15801561045857600080fd5b505afa15801561046c573d6000803e3d6000fd5b505050506040513d601f19601f8201168201806040525081019061049091906106f5565b905060007f000000000000000000000000000000000000000000000000000000000000000073ffffffffffffffffffffffffffffffffffffffff16639be2a88483307f00000000000000000000000000000000000000000000000000000000000000006040518463ffffffff1660e01b815260040161051193929190610810565b60206040518083038186803b15801561052957600080fd5b505afa15801561053d573d6000803e3d6000fd5b505050506040513d601f19601f8201168201806040525081019061056191906106ce565b90508061059a576040517f08c379a00000000000000000000000000000000000000000000000000000000081526004016103a2906108a0565b6040517f058a628f00000000000000000000000000000000000000000000000000000000815273ffffffffffffffffffffffffffffffffffffffff7f0000000000000000000000000000000000000000000000000000000000000000169063058a628f9061062c907f0000000000000000000000000000000000000000000000000000000000000000906004016107e6565b600060405180830381600087803b15801561064657600080fd5b505af115801561065a573d6000803e3d6000fd5b505050505050565b7f000000000000000000000000000000000000000000000000000000000000000081565b7f000000000000000000000000000000000000000000000000000000000000000081565b7f000000000000000000000000000000000000000000000000000000000000000081565b6000602082840312156106df578081fd5b815180151581146106ee578182fd5b9392505050565b600060208284031215610706578081fd5b5051919050565b6000602080838503121561071f578182fd5b825167ffffffffffffffff80821115610736578384fd5b818501915085601f830112610749578384fd5b815181811115610757578485fd5b604051847fffffffffffffffffffffffffffffffffffffffffffffffffffffffffffffffe0601f8401168201018181108482111715610794578687fd5b60405281815283820185018810156107aa578586fd5b8592505b818310156107cb57838301850151818401860152918401916107ae565b818311156107db57858583830101525b979650505050505050565b73ffffffffffffffffffffffffffffffffffffffff91909116815260200190565b90815260200190565b92835273ffffffffffffffffffffffffffffffffffffffff918216602084015216604082015260600190565b7fffffffff0000000000000000000000000000000000000000000000000000000091909116815260200190565b60208082526014908201527f524f4f545f4e4f545f434c41494d45445f594554000000000000000000000000604082015260600190565b6020808252601e908201527f4d49475241544f525f43414e4e4f545f5345545f415554484f52495a4552000060408201526060019056fea264697066735822122013b3b203917f396e97abb81b16c6a389f6fa3bb65dfb04398605e6f675dd6a1564736f6c634300070100336101206040523480156200001257600080fd5b50604051620041003803806200410083398101604081905262000035916200025b565b8383836001600160a01b0316638d928af86040518163ffffffff1660e01b815260040160206040518083038186803b1580156200007157600080fd5b505afa15801562000086573d6000803e3d6000fd5b505050506040513d601f19601f82011682018060405250810190620000ac9190620002b4565b83620000b884620001bb565b620000c38362000203565b6001600160601b0319606083901b1660a052604051620000e3906200024d565b604051809103906000f08015801562000100573d6000803e3d6000fd5b5060601b6001600160601b03191660805260c05250506040805163e758d36b60e01b815290516001600160a01b038516925063e758d36b91600480820192602092909190829003018186803b1580156200015957600080fd5b505afa1580156200016e573d6000803e3d6000fd5b505050506040513d601f19601f82011682018060405250810190620001949190620002b4565b6001600160601b0319606091821b81166101005292901b90911660e05250620002f3915050565b600080546001600160a01b0319166001600160a01b038316908117825560405190917f39510b933a9d010f906528d6019d3f4e2450a10dc33b10887503b31ed82f111191a250565b600180546001600160a01b0319166001600160a01b0383169081179091556040517f566fe119ff450afc2580186c62762b6c1258245c8b1b6bb095e7276eb5a75b5590600090a250565b6104ef8062003c1183390190565b6000806000806080858703121562000271578384fd5b84516200027e81620002da565b60208601519094506200029181620002da565b6040860151909350620002a481620002da565b6060959095015193969295505050565b600060208284031215620002c6578081fd5b8151620002d381620002da565b9392505050565b6001600160a01b0381168114620002f057600080fd5b50565b60805160601c60a05160601c60c05160e05160601c6101005160601c6138b9620003586000398061196d525080611995525080611cca5250806117e95250806106c15280610a755280610aa25280611d76528061201a52806122e952506138b96000f3fe608060405234801561001057600080fd5b50600436106103155760003560e01c8063863bac6b116101a7578063b3eb281d116100ee578063d00bef4d11610097578063f0bb940611610071578063f0bb94061461062f578063f6ebcbaf14610642578063fe0d94c11461065557610315565b8063d00bef4d14610601578063e2b4146b14610609578063f08455221461061c57610315565b8063c6192ee3116100c8578063c6192ee3146105c8578063c80c23e1146105db578063cc63604a146105ee57610315565b8063b3eb281d1461059a578063b99db526146105ad578063c284b6b9146105c057610315565b80639299942e11610150578063a44495d11161012a578063a44495d11461056c578063a8eae12d1461057f578063b1e31aa01461059257610315565b80639299942e1461053e57806399a7f6e2146105465780639be2a8841461055957610315565b80638cc3d072116101815780638cc3d072146105105780638d928af814610523578063902168121461052b57610315565b8063863bac6b146104d757806386ff254b146104ea5780638bd6bbc9146104fd57610315565b80633bf467971161026b5780635ca1e1651161021457806363cdbf36116101ee57806363cdbf36146104915780636badd2ab146104a457806372efb120146104c457610315565b80635ca1e1651461046e578063608dd7e41461047657806362cde1ba1461048957610315565b80634125ff90116102455780634125ff9014610440578063557a6403146104485780635b78b7801461045b57610315565b80633bf46797146104075780633e1df46d1461041a57806340e58ee51461042d57610315565b806318ef871a116102cd5780632362716d116102a75780632362716d146103ce5780632e3ed05b146103e15780633ac5d439146103f457610315565b806318ef871a146103935780631b3c85eb146103a85780632229edb4146103bb57610315565b806310d3ab2c116102fe57806310d3ab2c1461035657806314ea35e71461036b578063169f14681461037357610315565b8063044346061461031a5780630df322a614610343575b600080fd5b61032d610328366004612c1a565b610675565b60405161033a9190612ed3565b60405180910390f35b61032d610351366004612a9b565b6106a2565b610369610364366004612ce2565b6106b6565b005b61036961077b565b610386610381366004612b37565b6107bc565b60405161033a9190612ede565b61039b610a73565b60405161033a9190612e24565b6103696103b6366004612a9b565b610a97565b6103696103c9366004612c3d565b610ae8565b6103866103dc366004612c3d565b610ba0565b6103866103ef366004612aea565b610bd6565b610369610402366004612c3d565b610ccf565b610386610415366004612bea565b610d55565b61032d610428366004612c1a565b610d67565b61036961043b366004612bea565b610dd9565b610386610eee565b61032d610456366004612a9b565b610ef6565b610386610469366004612c7a565b610f0a565b61039b61105d565b610386610484366004612d03565b61106c565b61039b61119c565b61038661049f366004612d03565b6111c0565b6104b76104b2366004612bea565b6112f0565b60405161033a9190613793565b6103696104d2366004612c1a565b611428565b6103866104e5366004612c7a565b611573565b61032d6104f8366004612c3d565b61169c565b61038661050b366004612bea565b6116c9565b61036961051e366004612c3d565b6116db565b61039b6117e7565b610369610539366004612ab6565b61180b565b61038661119c565b610369610554366004612c1a565b611951565b61032d610567366004612c3d565b611960565b61036961057a366004612ab6565b611a17565b61036961058d366004612c3d565b611ac0565b610386611c1f565b61032d6105a8366004612c3d565b611c26565b6103866105bb366004612bea565b611cb6565b610386611cc8565b61032d6105d6366004612ab6565b611cec565b6103696105e9366004612ce2565b611d6b565b61032d6105fc366004612bea565b611e1b565b61039b611e94565b61032d610617366004612c3d565b611ea3565b61038661062a366004612d03565b611edf565b61036961063d366004612ce2565b61200f565b610369610650366004612c1a565b612184565b610668610663366004612bea565b6121b3565b60405161033a9190612f41565b60008281526002602090815260408083206001600160a01b038516845290915290205460ff165b92915050565b6001546001600160a01b0390811691161490565b336001600160a01b037f000000000000000000000000000000000000000000000000000000000000000016146107075760405162461bcd60e51b81526004016106fe90613536565b60405180910390fd5b610710816123ae565b61072c5760405162461bcd60e51b81526004016106fe90613121565b600082815260076020526040908190208290555182907f6922a4f4deeb55fdca50df28a72475aa87f9f1377ed93a95842ce8bc69dc01e89061076f908490612ede565b60405180910390a25050565b6001546001600160a01b03163381146107a65760405162461bcd60e51b81526004016106fe906133ec565b6107af81612489565b6107b960006124e9565b50565b60006001600160a01b0384163014156107e75760405162461bcd60e51b81526004016106fe90613056565b6107ef610a73565b6001600160a01b0316846001600160a01b031614156108205760405162461bcd60e51b81526004016106fe90612f54565b6004835110156108425760405162461bcd60e51b81526004016106fe90613234565b600060188460038151811061085357fe5b016020015185517fff0000000000000000000000000000000000000000000000000000000000000090911690911c906010908690600290811061089257fe5b016020015186517fff0000000000000000000000000000000000000000000000000000000000000090911690911c90600890879060019081106108d157fe5b016020015187517fff0000000000000000000000000000000000000000000000000000000000000090911690911c90879060009061090b57fe5b602001015160f81c60f81b7effffffffffffffffffffffffffffffffffffffffffffffffffffffffffffff191617171790506000856001600160a01b031663851c1bb3836040518263ffffffff1660e01b815260040161096b9190612f14565b60206040518083038186803b15801561098357600080fd5b505afa158015610997573d6000803e3d6000fd5b505050506040513d601f19601f820116820180604052508101906109bb9190612c02565b90506109c8813388611ea3565b6109e45760405162461bcd60e51b81526004016106fe9061326b565b6000818152600a602052604090205480610a105760405162461bcd60e51b81526004016106fe906132a2565b6000610a1e8888848961254b565b905080837f26ce5ffb7ab1ce72d9ca4a3e4f906d2b99194d6c53dd9832fd7a59d0b2fc6bed60405160405180910390a3610a588133610d67565b610a6657610a6681336127f0565b93505050505b9392505050565b7f000000000000000000000000000000000000000000000000000000000000000090565b336001600160a01b037f00000000000000000000000000000000000000000000000000000000000000001614610adf5760405162461bcd60e51b81526004016106fe90613536565b6107b9816124e9565b610af133610ef6565b610b0d5760405162461bcd60e51b81526004016106fe90613347565b610b18838383611c26565b15610b355760405162461bcd60e51b81526004016106fe90613158565b60008381526003602090815260408083206001600160a01b038087168086529184528285209086168086529352818420805460ff1916600117905590519192909186917f2d106cf4379aad979c25af765e6f7169b732d4c4660e41aa733a150c7fc0a6f791a4505050565b6000838383604051602001610bb793929190612de6565b6040516020818303038152906040528051906020012090509392505050565b6000610be133610ef6565b610bfd5760405162461bcd60e51b81526004016106fe90613347565b6060631b3c85eb60e01b84604051602401610c189190612e24565b60408051601f198184030181529190526020810180517bffffffffffffffffffffffffffffffffffffffffffffffffffffffff167fffffffff000000000000000000000000000000000000000000000000000000009093169290921790915290506000610c8e3083610c88611cc8565b8761254b565b905080856001600160a01b03167f7de09ff5f925ca34a396df31b30cdbdd0cd10b88833b4f7334cecc02454c1be760405160405180910390a3949350505050565b600083815260086020526040902054610d0d57610cec3382611cec565b610d085760405162461bcd60e51b81526004016106fe90613310565b610d45565b610d15610a73565b6001600160a01b0316336001600160a01b031614610d455760405162461bcd60e51b81526004016106fe906133b5565b610d50838383612872565b505050565b6000908152600a602052604090205490565b60008281526005602090815260408083206001600160a01b038516845290915281205460ff1680610dca575060056000610d9f61119c565b8152602080820192909252604090810160009081206001600160a01b038616825290925290205460ff165b80610a6c5750610a6c82610ef6565b6006548110610dfa5760405162461bcd60e51b81526004016106fe90613612565b600060068281548110610e0957fe5b60009182526020909120600490910201600281015490915060ff1615610e415760405162461bcd60e51b81526004016106fe90613649565b6002810154610100900460ff1615610e6b5760405162461bcd60e51b81526004016106fe906134ff565b610e758233610d67565b610e915760405162461bcd60e51b81526004016106fe9061375c565b6002810180547fffffffffffffffffffffffffffffffffffffffffffffffffffffffffffff00ff1661010017905560405182907f2a6bef66de603fc0ec07223576486bd905cd9bb6e05364286d9a5cd1be046ae690600090a25050565b6303c2670090565b6000546001600160a01b0390811691161490565b6000610f163384611cec565b610f325760405162461bcd60e51b81526004016106fe90613310565b60008581526008602052604090205480610f5e5760405162461bcd60e51b81526004016106fe9061345a565b6060633ac5d43960e01b878787604051602401610f7d93929190612ee7565b60408051601f198184030181529190526020810180517bffffffffffffffffffffffffffffffffffffffffffffffffffffffff167fffffffff000000000000000000000000000000000000000000000000000000009093169290921790915290506000610fec3083858861254b565b9050856001600160a01b0316876001600160a01b0316897f645fdc5699106b1dffda57f54fdcca22ad57d87f0afd651edf857af3bfbd8784846040516110329190612ede565b60405180910390a46110448133610d67565b6110525761105281336127f0565b979650505050505050565b6000546001600160a01b031690565b600061107733610ef6565b6110935760405162461bcd60e51b81526004016106fe90613347565b61109b610eee565b8311156110ba5760405162461bcd60e51b81526004016106fe90613423565b6000848152600860205260408120546110d39085612903565b9050606063c80c23e160e01b86866040516024016110f2929190612f06565b60408051601f198184030181529190526020810180517bffffffffffffffffffffffffffffffffffffffffffffffffffffffff167fffffffff0000000000000000000000000000000000000000000000000000000090931692909217909152905060006111613083858861254b565b90508086887f2f330faf5e23fc7ff1c46f2b1a3299d86249055a5bf74a8b747ab7fb66f6dc9f60405160405180910390a49695505050505050565b7fffffffffffffffffffffffffffffffffffffffffffffffffffffffffffffffff90565b60006111cb33610ef6565b6111e75760405162461bcd60e51b81526004016106fe90613347565b6111ef610eee565b83111561120e5760405162461bcd60e51b81526004016106fe90613423565b6000848152600760205260408120546112279085612903565b905060606310d3ab2c60e01b8686604051602401611246929190612f06565b60408051601f198184030181529190526020810180517bffffffffffffffffffffffffffffffffffffffffffffffffffffffff167fffffffff0000000000000000000000000000000000000000000000000000000090931692909217909152905060006112b53083858861254b565b90508086887f3d8c3ad02346a1ddf099dd26578662fb8cf85903168ebfeb1f14473fed8ee48860405160405180910390a49695505050505050565b6112f8612933565b6006828154811061130557fe5b60009182526020918290206040805160c081018252600490930290910180546001600160a01b03168352600180820180548451601f60027fffffffffffffffffffffffffffffffffffffffffffffffffffffffffffffffff95841615610100029590950190921693909304908101879004870283018701909452838252939491938583019391929091908301828280156113e05780601f106113b5576101008083540402835291602001916113e0565b820191906000526020600020905b8154815290600101906020018083116113c357829003601f168201915b5050509183525050600282015460ff80821615156020840152610100820481161515604084015262010000909104161515606082015260039091015460809091015292915050565b61143133610ef6565b61144d5760405162461bcd60e51b81526004016106fe90613347565b61145681610ef6565b156114735760405162461bcd60e51b81526004016106fe90612fb1565b6005600061147f61119c565b8152602080820192909252604090810160009081206001600160a01b038516825290925290205460ff16156114d9576114b661119c565b82146114d45760405162461bcd60e51b81526004016106fe9061356d565b61151b565b60008281526005602090815260408083206001600160a01b038516845290915290205460ff1661151b5760405162461bcd60e51b81526004016106fe906135a4565b60008281526005602090815260408083206001600160a01b0385168085529252808320805460ff1916905551909184917fd6b522eb4b505a0843020e304ba27d827b52c89347e6176b2f2737e6e4015c2d9190a35050565b6000611580853385611c26565b61159c5760405162461bcd60e51b81526004016106fe906130b3565b600085815260076020526040902054806115c85760405162461bcd60e51b81526004016106fe906131fd565b6060638cc3d07260e01b8787876040516024016115e793929190612ee7565b60408051601f198184030181529190526020810180517bffffffffffffffffffffffffffffffffffffffffffffffffffffffff167fffffffff0000000000000000000000000000000000000000000000000000000090931692909217909152905060006116563083858861254b565b9050856001600160a01b0316876001600160a01b0316897f185f04ff33c89687859342776c7fdcf04d9eb9444d65192bfebab5a5ac9874a8846040516110329190612ede565b6000600960006116ad868686610ba0565b815260208101919091526040016000205460ff16949350505050565b60009081526007602052604090205490565b60008381526007602052604090205461171a576116f9833383611c26565b6117155760405162461bcd60e51b81526004016106fe906130b3565b611752565b611722610a73565b6001600160a01b0316336001600160a01b0316146117525760405162461bcd60e51b81526004016106fe906135db565b600061175f848484610ba0565b60008181526009602052604090205490915060ff16156117915760405162461bcd60e51b81526004016106fe9061301f565b600081815260096020526040808220805460ff19166001179055516001600160a01b03808516929086169187917fef6ee312a0062a24a46be2eba5284183a87ff848110e8d4df979bd690d9e9f6891a450505050565b7f000000000000000000000000000000000000000000000000000000000000000090565b61181433610ef6565b6118305760405162461bcd60e51b81526004016106fe90613347565b61183a8282611cec565b6118565760405162461bcd60e51b81526004016106fe90613680565b61185f82610ef6565b1561187c5760405162461bcd60e51b81526004016106fe9061337e565b6001600160a01b03821660009081526004602052604081209061189d61119c565b6001600160a01b0316815260208101919091526040016000205460ff16156118f7576118c761119c565b6001600160a01b0316816001600160a01b0316146118f75760405162461bcd60e51b81526004016106fe906132d9565b6001600160a01b03808316600081815260046020908152604080832094861680845294909152808220805460ff19169055517fb6fe3ab11eb9ab1d9f1d41c8f42a5d72d10122099ba1548e4a6d1a4d8cefec4b9190a35050565b61195c823383612872565b5050565b6000336001600160a01b037f00000000000000000000000000000000000000000000000000000000000000001614156119cf577f00000000000000000000000000000000000000000000000000000000000000006001600160a01b0316836001600160a01b0316149050610a6c565b6000848152600a602052604090205415611a04576119eb610a73565b6001600160a01b0316836001600160a01b031614611a0f565b611a0f848484611ea3565b949350505050565b611a2033610ef6565b611a3c5760405162461bcd60e51b81526004016106fe90613347565b611a468282611cec565b15611a635760405162461bcd60e51b81526004016106fe90613725565b6001600160a01b03808316600081815260046020908152604080832094861680845294909152808220805460ff19166001179055517f2b5f18afd9a7b21f41bf023b012b3d4c8a22a21b79fa425cd4494ecbe29701969190a35050565b611ac933610ef6565b611ae55760405162461bcd60e51b81526004016106fe90613347565b611af0838383611c26565b611b0c5760405162461bcd60e51b81526004016106fe90613491565b611b1582610ef6565b15611b325760405162461bcd60e51b81526004016106fe906136ee565b60008381526003602090815260408083206001600160a01b0386168452909152812090611b5d61119c565b6001600160a01b0316815260208101919091526040016000205460ff1615611bb757611b8761119c565b6001600160a01b0316816001600160a01b031614611bb75760405162461bcd60e51b81526004016106fe90612fe8565b60008381526003602090815260408083206001600160a01b038087168086529184528285209086168086529352818420805460ff1916905590519192909186917ff8034293d5b4ed16b867ded8f122c475bc0d1b6bd9309a606609a754e5f3adc391a4505050565b6206978090565b60008381526003602090815260408083206001600160a01b038087168552908352818420908516845290915281205460ff1680611ca7575060008481526003602090815260408083206001600160a01b0387168452909152812090611c8961119c565b6001600160a01b0316815260208101919091526040016000205460ff165b80611a0f5750611a0f83610ef6565b60009081526008602052604090205490565b7f000000000000000000000000000000000000000000000000000000000000000090565b6001600160a01b03808316600090815260046020908152604080832093851683529290529081205460ff1680611d5c57506001600160a01b038316600090815260046020526040812090611d3e61119c565b6001600160a01b0316815260208101919091526040016000205460ff165b80610a6c5750610a6c83610ef6565b336001600160a01b037f00000000000000000000000000000000000000000000000000000000000000001614611db35760405162461bcd60e51b81526004016106fe90613536565b611dbc816123ae565b611dd85760405162461bcd60e51b81526004016106fe90613121565b600082815260086020526040908190208290555182907f6aeebd84e31437f28a17927609991676c31c2b84875c601373da2c194e9d23419061076f908490612ede565b6006546000908210611e3f5760405162461bcd60e51b81526004016106fe90613612565b600060068381548110611e4e57fe5b60009182526020909120600490910201600281015490915060ff16158015611e8057506002810154610100900460ff16155b8015610a6c57506003015442101592915050565b6001546001600160a01b031690565b600060096000611eb4868686610ba0565b815260208101919091526040016000205460ff1680611a0f5750600960006116ad86866103dc61119c565b6000611eea33610ef6565b611f065760405162461bcd60e51b81526004016106fe90613347565b611f0e610eee565b831115611f2d5760405162461bcd60e51b81526004016106fe90613423565b6000848152600a6020526040812054611f469085612903565b9050606063f0bb940660e01b8686604051602401611f65929190612f06565b60408051601f198184030181529190526020810180517bffffffffffffffffffffffffffffffffffffffffffffffffffffffff167fffffffff000000000000000000000000000000000000000000000000000000009093169290921790915290506000611fd43083858861254b565b90508086887fbc72942fa810fe8985041bb36295502eddf2c163774be55e25d205958956072860405160405180910390a49695505050505050565b336001600160a01b037f000000000000000000000000000000000000000000000000000000000000000016146120575760405162461bcd60e51b81526004016106fe90613536565b61205f6117e7565b6040517f851c1bb30000000000000000000000000000000000000000000000000000000081526001600160a01b03919091169063851c1bb3906120c6907f058a628f0000000000000000000000000000000000000000000000000000000090600401612f14565b60206040518083038186803b1580156120de57600080fd5b505afa1580156120f2573d6000803e3d6000fd5b505050506040513d601f19601f820116820180604052508101906121169190612c02565b821461214157612125816123ae565b6121415760405162461bcd60e51b81526004016106fe90613121565b6000828152600a6020526040908190208290555182907f0e182617f9e5f9ce5f761c791ec15ad52176d97f9706b5c2707ffda7b6bdf7909061076f908490612ede565b61218d33610ef6565b6121a95760405162461bcd60e51b81526004016106fe90613347565b61195c82826127f0565b60065460609082106121d75760405162461bcd60e51b81526004016106fe90613612565b6000600683815481106121e657fe5b60009182526020909120600490910201600281015490915060ff161561221e5760405162461bcd60e51b81526004016106fe90613649565b6002810154610100900460ff16156122485760405162461bcd60e51b81526004016106fe906134ff565b806003015442101561226c5760405162461bcd60e51b81526004016106fe906134c8565b600281015462010000900460ff16156122a5576122898333610675565b6122a55760405162461bcd60e51b81526004016106fe906130ea565b60028101805460ff1916600190811790915581546040517f1cff79cd0000000000000000000000000000000000000000000000000000000081526001600160a01b037f0000000000000000000000000000000000000000000000000000000000000000811693631cff79cd936123249392169190860190600401612e38565b600060405180830381600087803b15801561233e57600080fd5b505af1158015612352573d6000803e3d6000fd5b505050506040513d6000823e601f3d908101601f1916820160405261237a9190810190612d47565b60405190925083907f4fa5548c15e2d4a0b806eee962935acea143d79644d2340af39f4edf13b335a990600090a250919050565b6000806123b96117e7565b6040517f851c1bb30000000000000000000000000000000000000000000000000000000081526001600160a01b03919091169063851c1bb390612420907f058a628f0000000000000000000000000000000000000000000000000000000090600401612f14565b60206040518083038186803b15801561243857600080fd5b505afa15801561244c573d6000803e3d6000fd5b505050506040513d601f19601f820116820180604052508101906124709190612c02565b6000908152600a60205260409020549092111592915050565b600080547fffffffffffffffffffffffff0000000000000000000000000000000000000000166001600160a01b038316908117825560405190917f39510b933a9d010f906528d6019d3f4e2450a10dc33b10887503b31ed82f111191a250565b600180547fffffffffffffffffffffffff0000000000000000000000000000000000000000166001600160a01b0383169081179091556040517f566fe119ff450afc2580186c62762b6c1258245c8b1b6bb095e7276eb5a75b5590600090a250565b6006805482516040805160c0810182526001600160a01b03898116825260208083018a815260009484018590526060840185905294151560808401819052428a0160a085018190526001880189559790945282517ff652222313e28459528d920b65115c16c04f3efc82aaedc97be59f3f377c0d3f6004880290810180547fffffffffffffffffffffffff0000000000000000000000000000000000000000169290941691909117835594518051969796949593949293612635937ff652222313e28459528d920b65115c16c04f3efc82aaedc97be59f3f377c0d40909101929190910190612969565b50604082015160028201805460608501516080860151151562010000027fffffffffffffffffffffffffffffffffffffffffffffffffffffffffff00ffff911515610100027fffffffffffffffffffffffffffffffffffffffffffffffffffffffffffff00ff95151560ff199094169390931794909416919091171691909117905560a09091015160039091015560005b84518110156127e5576002600085815260200190815260200160002060008683815181106126f057fe5b6020908102919091018101516001600160a01b031682528101919091526040016000205460ff16156127345760405162461bcd60e51b81526004016106fe906131c6565b600084815260026020526040812086516001929088908590811061275457fe5b60200260200101516001600160a01b03166001600160a01b0316815260200190815260200160002060006101000a81548160ff02191690831515021790555084818151811061279f57fe5b60200260200101516001600160a01b0316847f2d0aa562da96ca6dd124fee5588e6f8545b0aa0b15cfd87cc231eff1ae7000e460405160405180910390a36001016126c6565b505050949350505050565b6127fa8282610d67565b156128175760405162461bcd60e51b81526004016106fe906136b7565b60008281526005602090815260408083206001600160a01b0385168085529252808320805460ff1916600117905551909184917f1b55562f9a67454174f758170aba47751c0af4c1f3b7d4e0b70667f1e82066069190a35050565b600061287f848484610ba0565b60008181526009602052604090205490915060ff166128b05760405162461bcd60e51b81526004016106fe9061318f565b600081815260096020526040808220805460ff19169055516001600160a01b03808516929086169187917f7b42e026d3b17cf41399915c285780d0f724b3464b269297aff73c0de0fe417f91a450505050565b600082821061291957612914611c1f565b610a6c565b610a6c828403612927611c1f565b80820390821002900390565b6040805160c08101825260008082526060602083018190529282018190529181018290526080810182905260a081019190915290565b828054600181600116156101000203166002900490600052602060002090601f016020900481019282601f106129aa57805160ff19168380011785556129d7565b828001600101855582156129d7579182015b828111156129d75782518255916020019190600101906129bc565b506129e39291506129e7565b5090565b5b808211156129e357600081556001016129e8565b80356001600160a01b038116811461069c57600080fd5b600082601f830112612a23578081fd5b813567ffffffffffffffff811115612a39578182fd5b6020808202612a498282016137fc565b83815293508184018583018287018401881015612a6557600080fd5b600092505b84831015612a9057612a7c88826129fc565b825260019290920191908301908301612a6a565b505050505092915050565b600060208284031215612aac578081fd5b610a6c83836129fc565b60008060408385031215612ac8578081fd5b612ad284846129fc565b9150612ae184602085016129fc565b90509250929050565b60008060408385031215612afc578182fd5b612b0684846129fc565b9150602083013567ffffffffffffffff811115612b21578182fd5b612b2d85828601612a13565b9150509250929050565b600080600060608486031215612b4b578081fd5b612b5585856129fc565b9250602084013567ffffffffffffffff80821115612b71578283fd5b818601915086601f830112612b84578283fd5b8135612b97612b9282613823565b6137fc565b818152886020838601011115612bab578485fd5b8160208501602083013790810160200184905293506040860135915080821115612bd3578283fd5b50612be086828701612a13565b9150509250925092565b600060208284031215612bfb578081fd5b5035919050565b600060208284031215612c13578081fd5b5051919050565b60008060408385031215612c2c578182fd5b82359150612ae184602085016129fc565b600080600060608486031215612c51578283fd5b83359250612c6285602086016129fc565b9150612c7185604086016129fc565b90509250925092565b60008060008060808587031215612c8f578081fd5b84359350612ca086602087016129fc565b9250612caf86604087016129fc565b9150606085013567ffffffffffffffff811115612cca578182fd5b612cd687828801612a13565b91505092959194509250565b60008060408385031215612cf4578182fd5b50508035926020909101359150565b600080600060608486031215612d17578283fd5b8335925060208401359150604084013567ffffffffffffffff811115612d3b578182fd5b612be086828701612a13565b600060208284031215612d58578081fd5b815167ffffffffffffffff811115612d6e578182fd5b8201601f81018413612d7e578182fd5b8051612d8c612b9282613823565b818152856020838501011115612da0578384fd5b612db1826020830160208601613853565b95945050505050565b60008151808452612dd2816020860160208601613853565b601f01601f19169290920160200192915050565b9283527fffffffffffffffffffffffffffffffffffffffff000000000000000000000000606092831b81166020850152911b16603482015260480190565b6001600160a01b0391909116815260200190565b6000604082016001600160a01b03851683526020604081850152828554600180821660008114612e6f5760018114612e8d57612ec5565b607f6002840416865260ff1983166060890152608088019350612ec5565b60028304808752612e9d8a613847565b885b82811015612ebb5781548b820160600152908401908701612e9f565b8a01606001955050505b509198975050505050505050565b901515815260200190565b90815260200190565b9283526001600160a01b03918216602084015216604082015260600190565b918252602082015260400190565b7fffffffff0000000000000000000000000000000000000000000000000000000091909116815260200190565b600060208252610a6c6020830184612dba565b60208082526026908201527f415454454d5054494e475f455845435554494f4e5f48454c5045525f5245454e60408201527f5452414e43590000000000000000000000000000000000000000000000000000606082015260800190565b6020808252601b908201527f43414e4e4f545f52454d4f56455f524f4f545f43414e43454c45520000000000604082015260600190565b60208082526011908201527f4752414e5445525f49535f474c4f42414c000000000000000000000000000000604082015260600190565b6020808252601a908201527f5045524d495353494f4e5f414c52454144595f4752414e544544000000000000604082015260600190565b60208082526022908201527f43414e4e4f545f5343484544554c455f415554484f52495a45525f414354494f60408201527f4e53000000000000000000000000000000000000000000000000000000000000606082015260800190565b60208082526015908201527f53454e4445525f49535f4e4f545f4752414e5445520000000000000000000000604082015260600190565b60208082526016908201527f53454e4445525f49535f4e4f545f4558454355544f5200000000000000000000604082015260600190565b6020808252601c908201527f44454c41595f455843454544535f5345545f415554484f52495a455200000000604082015260600190565b6020808252601a908201527f4143434f554e545f49535f414c52454144595f4752414e544552000000000000604082015260600190565b60208082526016908201527f5045524d495353494f4e5f4e4f545f4752414e54454400000000000000000000604082015260600190565b60208082526013908201527f4455504c49434154455f4558454355544f525300000000000000000000000000604082015260600190565b60208082526019908201527f414354494f4e5f4841535f4e4f5f4752414e545f44454c415900000000000000604082015260600190565b6020808252600e908201527f444154415f544f4f5f53484f5254000000000000000000000000000000000000604082015260600190565b6020808252601f908201527f53454e4445525f444f45535f4e4f545f484156455f5045524d495353494f4e00604082015260600190565b60208082526010908201527f44454c41595f49535f4e4f545f53455400000000000000000000000000000000604082015260600190565b60208082526011908201527f5245564f4b45525f49535f474c4f42414c000000000000000000000000000000604082015260600190565b60208082526015908201527f53454e4445525f49535f4e4f545f5245564f4b45520000000000000000000000604082015260600190565b60208082526012908201527f53454e4445525f49535f4e4f545f524f4f540000000000000000000000000000604082015260600190565b6020808252601a908201527f43414e4e4f545f52454d4f56455f524f4f545f5245564f4b4552000000000000604082015260600190565b60208082526018908201527f5245564f4b455f4d5553545f42455f5343484544554c45440000000000000000604082015260600190565b6020808252601a908201527f53454e4445525f49535f4e4f545f50454e44494e475f524f4f54000000000000604082015260600190565b6020808252600f908201527f44454c41595f544f4f5f4c415247450000000000000000000000000000000000604082015260600190565b6020808252601a908201527f414354494f4e5f4841535f4e4f5f5245564f4b455f44454c4159000000000000604082015260600190565b60208082526016908201527f4143434f554e545f49535f4e4f545f4752414e54455200000000000000000000604082015260600190565b60208082526019908201527f414354494f4e5f4e4f545f5945545f45584543555441424c4500000000000000604082015260600190565b60208082526018908201527f414354494f4e5f414c52454144595f43414e43454c4c45440000000000000000604082015260600190565b60208082526015908201527f43414e5f4f4e4c595f42455f5343484544554c45440000000000000000000000604082015260600190565b6020808252601a908201527f4143434f554e545f49535f474c4f42414c5f43414e43454c4552000000000000604082015260600190565b60208082526017908201527f4143434f554e545f49535f4e4f545f43414e43454c4552000000000000000000604082015260600190565b60208082526017908201527f4752414e545f4d5553545f42455f5343484544554c4544000000000000000000604082015260600190565b60208082526015908201527f414354494f4e5f444f45535f4e4f545f45584953540000000000000000000000604082015260600190565b60208082526017908201527f414354494f4e5f414c52454144595f4558454355544544000000000000000000604082015260600190565b60208082526016908201527f4143434f554e545f49535f4e4f545f5245564f4b455200000000000000000000604082015260600190565b6020808252601b908201527f4143434f554e545f49535f414c52454144595f43414e43454c45520000000000604082015260600190565b6020808252601a908201527f43414e4e4f545f52454d4f56455f524f4f545f4752414e544552000000000000604082015260600190565b6020808252601a908201527f4143434f554e545f49535f414c52454144595f5245564f4b4552000000000000604082015260600190565b60208082526016908201527f53454e4445525f49535f4e4f545f43414e43454c455200000000000000000000604082015260600190565b6000602082526001600160a01b038351166020830152602083015160c060408401526137c260e0840182612dba565b90506040840151151560608401526060840151151560808401526080840151151560a084015260a084015160c08401528091505092915050565b60405181810167ffffffffffffffff8111828210171561381b57600080fd5b604052919050565b600067ffffffffffffffff821115613839578081fd5b50601f01601f191660200190565b60009081526020902090565b60005b8381101561386e578181015183820152602001613856565b8381111561387d576000848401525b5050505056fea26469706673582212208d7cf5271a2340c4097f709c9c56f4aac4ee31529cd374a5c06ca7b2983456bd64736f6c6343000701003360a060405234801561001057600080fd5b5060016000553360601b60805260805160601c6104b061003f600039806101c6528061026e52506104b06000f3fe608060405234801561001057600080fd5b50600436106100365760003560e01c80631cff79cd1461003b578063aaabadc514610173575b600080fd5b6100fe6004803603604081101561005157600080fd5b73ffffffffffffffffffffffffffffffffffffffff823516919081019060408101602082013564010000000081111561008957600080fd5b82018360208201111561009b57600080fd5b803590602001918460018302840111640100000000831117156100bd57600080fd5b91908080601f0160208091040260200160405190810160405280939291908181526020018383808284376000920191909152509295506101a4945050505050565b6040805160208082528351818301528351919283929083019185019080838360005b83811015610138578181015183820152602001610120565b50505050905090810190601f1680156101655780820380516001836020036101000a031916815260200191505b509250505060405180910390f35b61017b61026c565b6040805173ffffffffffffffffffffffffffffffffffffffff9092168252519081900360200190f35b60606101ae610290565b3373ffffffffffffffffffffffffffffffffffffffff7f0000000000000000000000000000000000000000000000000000000000000000161461025257604080517f08c379a000000000000000000000000000000000000000000000000000000000815260206004820152601860248201527f53454e4445525f49535f4e4f545f415554484f52495a45520000000000000000604482015290519081900360640190fd5b61025c83836102a9565b9050610266610393565b92915050565b7f000000000000000000000000000000000000000000000000000000000000000090565b6102a26002600054141561019061039a565b6002600055565b6060600060608473ffffffffffffffffffffffffffffffffffffffff16846040518082805190602001908083835b6020831061031457805182527fffffffffffffffffffffffffffffffffffffffffffffffffffffffffffffffe090920191602091820191016102d7565b6001836020036101000a0380198251168184511680821785525050505050509050019150506000604051808303816000865af19150503d8060008114610376576040519150601f19603f3d011682016040523d82523d6000602084013e61037b565b606091505b509150915061038a82826103ac565b95945050505050565b6001600055565b816103a8576103a8816103d2565b5050565b606082156103bb575080610266565b8151156103cb5781518083602001fd5b6102666101ae5b6103fc817f42414c00000000000000000000000000000000000000000000000000000000006103ff565b50565b7f08c379a000000000000000000000000000000000000000000000000000000000600090815260206004526007602452600a808404818106603090810160081b958390069590950190829004918206850160101b01602363ffffff0060e086901c160160181b0190930160c81b60445260e882901c90606490fdfea264697066735822122019fe15a667b5b8bd076c540f7a82c575bd7f2ef37c72e08de029d8974ba1b99864736f6c63430007010033",
  "linkReferences": {},
  "deployedLinkReferences": {}
}