{
  "contracts/20220322-veBAL-activation/veBALDeploymentCoordinator.sol": {
    "veBALDeploymentCoordinator": {
      "abi": [
        {
          "inputs": [
            {
              "internalType": "contract IBalancerMinter",
              "name": "balancerMinter",
              "type": "address"
            },
            {
              "internalType": "contract IAuthorizerAdaptor",
              "name": "authorizerAdaptor",
              "type": "address"
            },
            {
              "internalType": "contract IGaugeAdder",
              "name": "gaugeAdder",
              "type": "address"
            },
            {
              "internalType": "contract ILiquidityGaugeFactory",
              "name": "ethereumGaugeFactory",
              "type": "address"
            },
            {
              "internalType": "contract ILiquidityGaugeFactory",
              "name": "singleRecipientGaugeFactory",
              "type": "address"
            },
            {
              "internalType": "contract IBALTokenHolderFactory",
              "name": "balTokenHolderFactory",
              "type": "address"
            },
            {
              "internalType": "uint256",
              "name": "activationScheduledTime",
              "type": "uint256"
            },
            {
              "internalType": "uint256",
              "name": "thirdStageDelay",
              "type": "uint256"
            }
          ],
          "stateMutability": "nonpayable",
          "type": "constructor"
        },
        {
          "inputs": [],
          "name": "ARBITRUM_WEIGHT",
          "outputs": [
            {
              "internalType": "uint256",
              "name": "",
              "type": "uint256"
            }
          ],
          "stateMutability": "view",
          "type": "function"
        },
        {
          "inputs": [],
          "name": "ETHEREUM_WEIGHT",
          "outputs": [
            {
              "internalType": "uint256",
              "name": "",
              "type": "uint256"
            }
          ],
          "stateMutability": "view",
          "type": "function"
        },
        {
          "inputs": [],
          "name": "LM_COMMITTEE_WEIGHT",
          "outputs": [
            {
              "internalType": "uint256",
              "name": "",
              "type": "uint256"
            }
          ],
          "stateMutability": "view",
          "type": "function"
        },
        {
          "inputs": [],
          "name": "POLYGON_WEIGHT",
          "outputs": [
            {
              "internalType": "uint256",
              "name": "",
              "type": "uint256"
            }
          ],
          "stateMutability": "view",
          "type": "function"
        },
        {
          "inputs": [],
          "name": "VEBAL_WEIGHT",
          "outputs": [
            {
              "internalType": "uint256",
              "name": "",
              "type": "uint256"
            }
          ],
          "stateMutability": "view",
          "type": "function"
        },
        {
          "inputs": [],
          "name": "arbitrumGaugeRecipient",
          "outputs": [
            {
              "internalType": "address",
              "name": "",
              "type": "address"
            }
          ],
          "stateMutability": "view",
          "type": "function"
        },
        {
          "inputs": [],
          "name": "firstStageActivationTime",
          "outputs": [
            {
              "internalType": "uint256",
              "name": "",
              "type": "uint256"
            }
          ],
          "stateMutability": "view",
          "type": "function"
        },
        {
          "inputs": [],
          "name": "getActivationScheduledTime",
          "outputs": [
            {
              "internalType": "uint256",
              "name": "",
              "type": "uint256"
            }
          ],
          "stateMutability": "view",
          "type": "function"
        },
        {
          "inputs": [],
          "name": "getAuthorizer",
          "outputs": [
            {
              "internalType": "contract ICurrentAuthorizer",
              "name": "",
              "type": "address"
            }
          ],
          "stateMutability": "view",
          "type": "function"
        },
        {
          "inputs": [],
          "name": "getAuthorizerAdaptor",
          "outputs": [
            {
              "internalType": "contract IAuthorizerAdaptor",
              "name": "",
              "type": "address"
            }
          ],
          "stateMutability": "view",
          "type": "function"
        },
        {
          "inputs": [],
          "name": "getBalancerMinter",
          "outputs": [
            {
              "internalType": "contract IBalancerMinter",
              "name": "",
              "type": "address"
            }
          ],
          "stateMutability": "view",
          "type": "function"
        },
        {
          "inputs": [],
          "name": "getBalancerTokenAdmin",
          "outputs": [
            {
              "internalType": "contract IBalancerTokenAdmin",
              "name": "",
              "type": "address"
            }
          ],
          "stateMutability": "view",
          "type": "function"
        },
        {
          "inputs": [],
          "name": "getCurrentDeploymentStage",
          "outputs": [
            {
              "internalType": "enum veBALDeploymentCoordinator.DeploymentStage",
              "name": "",
              "type": "uint8"
            }
          ],
          "stateMutability": "view",
          "type": "function"
        },
        {
          "inputs": [],
          "name": "getGaugeController",
          "outputs": [
            {
              "internalType": "contract IGaugeController",
              "name": "",
              "type": "address"
            }
          ],
          "stateMutability": "view",
          "type": "function"
        },
        {
          "inputs": [],
          "name": "getThirdStageDelay",
          "outputs": [
            {
              "internalType": "uint256",
              "name": "",
              "type": "uint256"
            }
          ],
          "stateMutability": "view",
          "type": "function"
        },
        {
          "inputs": [],
          "name": "getVault",
          "outputs": [
            {
              "internalType": "contract IVault",
              "name": "",
              "type": "address"
            }
          ],
          "stateMutability": "view",
          "type": "function"
        },
        {
          "inputs": [],
          "name": "lmCommitteeMultisig",
          "outputs": [
            {
              "internalType": "address",
              "name": "",
              "type": "address"
            }
          ],
          "stateMutability": "view",
          "type": "function"
        },
        {
          "inputs": [],
          "name": "performFirstStage",
          "outputs": [],
          "stateMutability": "nonpayable",
          "type": "function"
        },
        {
          "inputs": [],
          "name": "performSecondStage",
          "outputs": [],
          "stateMutability": "nonpayable",
          "type": "function"
        },
        {
          "inputs": [],
          "name": "performThirdStage",
          "outputs": [],
          "stateMutability": "nonpayable",
          "type": "function"
        },
        {
          "inputs": [],
          "name": "polygonGaugeRecipient",
          "outputs": [
            {
              "internalType": "address",
              "name": "",
              "type": "address"
            }
          ],
          "stateMutability": "view",
          "type": "function"
        },
        {
          "inputs": [],
          "name": "secondStageActivationTime",
          "outputs": [
            {
              "internalType": "uint256",
              "name": "",
              "type": "uint256"
            }
          ],
          "stateMutability": "view",
          "type": "function"
        },
        {
          "inputs": [],
          "name": "thirdStageActivationTime",
          "outputs": [
            {
              "internalType": "uint256",
              "name": "",
              "type": "uint256"
            }
          ],
          "stateMutability": "view",
          "type": "function"
        },
        {
          "inputs": [],
          "name": "veBALGaugeRecipient",
          "outputs": [
            {
              "internalType": "address",
              "name": "",
              "type": "address"
            }
          ],
          "stateMutability": "view",
          "type": "function"
        }
      ],
      "evm": {
        "bytecode": {
          "linkReferences": {},
          "object": "610200604052600180546001600160a01b031990811673c38c5f97b34e175ffd35407fc91a937300e338601790915560028054821673d2eb7bd802a7ca68d9acd209bec4e664a9abdd7b90811790915560038054831682179055600480549092161790553480156200007057600080fd5b5060405162003ad138038062003ad183398181016040526101008110156200009757600080fd5b5080516020808301516040808501516060860151608087015160a088015160c089015160e090990151600160009081556008805460ff19169055865163e6dec36f60e01b81529651999a979995989497939692959394919390926001600160a01b038c169263e6dec36f92600480840193829003018186803b1580156200011d57600080fd5b505afa15801562000132573d6000803e3d6000fd5b505050506040513d60208110156200014957600080fd5b50516001600160601b0319606082901b16608052604080516311b2515f60e31b815290519192506001600160a01b03831691638d928af891600480820192602092909190829003018186803b158015620001a257600080fd5b505afa158015620001b7573d6000803e3d6000fd5b505050506040513d6020811015620001ce57600080fd5b50516001600160601b0319606091821b811660a0529089901b1660c0526040805163c003969960e01b815290516001600160a01b0383169163c0039699916004808301926020929190829003018186803b1580156200022c57600080fd5b505afa15801562000241573d6000803e3d6000fd5b505050506040513d60208110156200025857600080fd5b50516001600160601b0319606091821b811660e052908a901b166101005260408051632c6f4d6f60e11b815290516001600160a01b038b16916358de9ade916004808301926020929190829003018186803b158015620002b757600080fd5b505afa158015620002cc573d6000803e3d6000fd5b505050506040513d6020811015620002e357600080fd5b50516001600160601b0319606091821b81166101205297811b88166101405295861b8716610160525092841b851661018052921b9092166101a0526101c0526101e052505060805160601c60a05160601c60c05160601c60e05160601c6101005160601c6101205160601c6101405160601c6101605160601c6101805160601c6101a05160601c6101c0516101e0516136926200043f600039806103505280611df85250806107ae5280611dc95250806130955250806131c852508061247d52806127ac5250806117be5280612367528061244e528061256a52806126b352806128935280612914525080610b885280610cfd5280610de15280611e285280612b275280612dc252806133a45250806112f45280612a7d5250806108c852806108f75280610ed55280610f04525080612ac5525080611e6a525080610fc65280611087528061116f52806112435280612aa152506136926000f3fe608060405234801561001057600080fd5b50600436106101985760003560e01c8063761c4023116100e3578063b77984e91161008c578063e6dec36f11610066578063e6dec36f1461028e578063e758d36b14610296578063f5c458ab1461029e57610198565b8063b77984e91461025d578063dc8c9ec61461021d578063dce8b0cd1461028657610198565b80639912b3d4116100bd5780639912b3d414610245578063aaabadc51461024d578063b1e70e801461025557610198565b8063761c40231461022d578063844c7750146102355780638d928af81461023d57610198565b8063336d4dfc1161014557806342979adc1161011f57806342979adc14610215578063463d9e931461021d57806358de9ade1461022557610198565b8063336d4dfc146101fd5780633b54e68014610205578063410c2d8e1461020d57610198565b80631cdd07a4116101765780631cdd07a4146101e35780631e390389146101ed5780632bd46566146101f557610198565b80630249e6fa1461019d5780631235f8a3146101b75780631336e8d4146101db575b600080fd5b6101a56102a6565b60408051918252519081900360200190f35b6101bf6102ac565b604080516001600160a01b039092168252519081900360200190f35b6101a56102bb565b6101eb6102c7565b005b6101a561079e565b6101eb6107a4565b6101a5611dbb565b6101a5611dc7565b6101a5611deb565b6101a5611df6565b6101a5611e1a565b6101bf611e26565b6101bf611e4a565b6101bf611e59565b6101bf611e68565b6101a5611e8c565b6101bf611e92565b6101eb611f05565b610265612a72565b6040518082600381111561027557fe5b815260200191505060405180910390f35b6101bf612a7b565b6101bf612a9f565b6101bf612ac3565b6101bf612ae7565b60065481565b6002546001600160a01b031681565b67025bf6196bd1000081565b6102cf612af6565b600260085460ff1660038111156102e257fe5b1461034e57604080517f08c379a000000000000000000000000000000000000000000000000000000000815260206004820152601960248201527f4e6f7420726561647920666f7220746869726420737461676500000000000000604482015290519081900360640190fd5b7f0000000000000000000000000000000000000000000000000000000000000000600654014210156103cb576040517f08c379a00000000000000000000000000000000000000000000000000000000081526004018080602001828103825260278152602001806135826027913960400191505060405180910390fd5b60006103d5612ac3565b905060006103e1611e92565b9050806001600160a01b0316632f2ff15d836001600160a01b031663851c1bb363db1ca26060e01b6040518263ffffffff1660e01b815260040180827bffffffffffffffffffffffffffffffffffffffffffffffffffffffff1916815260200191505060206040518083038186803b15801561045c57600080fd5b505afa158015610470573d6000803e3d6000fd5b505050506040513d602081101561048657600080fd5b5051604080517fffffffff0000000000000000000000000000000000000000000000000000000060e085901b168152600481019290925230602483015251604480830192600092919082900301818387803b1580156104e457600080fd5b505af11580156104f8573d6000803e3d6000fd5b5050505061050f600067016345785d8a0000612b0f565b610522600167016345785d8a0000612b0f565b61053560026707c5850872380000612b0f565b610548600367025bf6196bd10000612b0f565b61055a600466f8b0a10e470000612b0f565b806001600160a01b031663d547741f836001600160a01b031663851c1bb363db1ca26060e01b6040518263ffffffff1660e01b815260040180827bffffffffffffffffffffffffffffffffffffffffffffffffffffffff1916815260200191505060206040518083038186803b1580156105d357600080fd5b505afa1580156105e7573d6000803e3d6000fd5b505050506040513d60208110156105fd57600080fd5b5051604080517fffffffff0000000000000000000000000000000000000000000000000000000060e085901b168152600481019290925230602483015251604480830192600092919082900301818387803b15801561065b57600080fd5b505af115801561066f573d6000803e3d6000fd5b50505050806001600160a01b031663d547741f826001600160a01b031663a217fddf6040518163ffffffff1660e01b815260040160206040518083038186803b1580156106bb57600080fd5b505afa1580156106cf573d6000803e3d6000fd5b505050506040513d60208110156106e557600080fd5b5051604080517fffffffff0000000000000000000000000000000000000000000000000000000060e085901b168152600481019290925230602483015251604480830192600092919082900301818387803b15801561074357600080fd5b505af1158015610757573d6000803e3d6000fd5b505042600755505060088054600391907fffffffffffffffffffffffffffffffffffffffffffffffffffffffffffffff00166001835b0217905550505061079c612da3565b565b60055481565b6107ac612af6565b7f000000000000000000000000000000000000000000000000000000000000000042101561083b57604080517f08c379a000000000000000000000000000000000000000000000000000000000815260206004820152601860248201527f4e6f7420726561647920666f722061637469766174696f6e0000000000000000604482015290519081900360640190fd5b600060085460ff16600381111561084e57fe5b146108ba57604080517f08c379a000000000000000000000000000000000000000000000000000000000815260206004820152601c60248201527f4669727374207374657020616c726561647920706572666f726d656400000000604482015290519081900360640190fd5b60006108c4611e92565b90507f00000000000000000000000000000000000000000000000000000000000000006001600160a01b03166391d148547f00000000000000000000000000000000000000000000000000000000000000006001600160a01b031663a217fddf6040518163ffffffff1660e01b815260040160206040518083038186803b15801561094e57600080fd5b505afa158015610962573d6000803e3d6000fd5b505050506040513d602081101561097857600080fd5b5051604080517fffffffff0000000000000000000000000000000000000000000000000000000060e085901b1681526004810192909252306024830152516044808301926020929190829003018186803b1580156109d557600080fd5b505afa1580156109e9573d6000803e3d6000fd5b505050506040513d60208110156109ff57600080fd5b5051610a6c57604080517f08c379a000000000000000000000000000000000000000000000000000000000815260206004820152600d60248201527f4e6f742042414c2061646d696e00000000000000000000000000000000000000604482015290519081900360640190fd5b604080517f9be2a884000000000000000000000000000000000000000000000000000000008152600060048201819052306024830152604482015290516001600160a01b03831691639be2a884916064808301926020929190829003018186803b158015610ad957600080fd5b505afa158015610aed573d6000803e3d6000fd5b505050506040513d6020811015610b0357600080fd5b5051610b7057604080517f08c379a000000000000000000000000000000000000000000000000000000000815260206004820152601460248201527f4e6f7420417574686f72697a65722061646d696e000000000000000000000000604482015290519081900360640190fd5b6000610b7a612ac3565b9050806001600160a01b03167f00000000000000000000000000000000000000000000000000000000000000006001600160a01b031663dfe050316040518163ffffffff1660e01b815260040160206040518083038186803b158015610bdf57600080fd5b505afa158015610bf3573d6000803e3d6000fd5b505050506040513d6020811015610c0957600080fd5b5051604080517ff851a44000000000000000000000000000000000000000000000000000000000815290516001600160a01b039092169163f851a44091600480820192602092909190829003018186803b158015610c6657600080fd5b505afa158015610c7a573d6000803e3d6000fd5b505050506040513d6020811015610c9057600080fd5b50516001600160a01b031614610cf1576040517f08c379a000000000000000000000000000000000000000000000000000000000815260040180806020018281038252602b8152602001806135a9602b913960400191505060405180910390fd5b806001600160a01b03167f00000000000000000000000000000000000000000000000000000000000000006001600160a01b031663f851a4406040518163ffffffff1660e01b815260040160206040518083038186803b158015610d5457600080fd5b505afa158015610d68573d6000803e3d6000fd5b505050506040513d6020811015610d7e57600080fd5b50516001600160a01b031614610ddf576040517f08c379a000000000000000000000000000000000000000000000000000000000815260040180806020018281038252602e8152602001806135d4602e913960400191505060405180910390fd5b7f00000000000000000000000000000000000000000000000000000000000000006001600160a01b0316639fba03a16040518163ffffffff1660e01b815260040160206040518083038186803b158015610e3857600080fd5b505afa158015610e4c573d6000803e3d6000fd5b505050506040513d6020811015610e6257600080fd5b5051600f0b15610ed357604080517f08c379a000000000000000000000000000000000000000000000000000000000815260206004820152601760248201527f476175676520747970657320616c726561647920736574000000000000000000604482015290519081900360640190fd5b7f00000000000000000000000000000000000000000000000000000000000000006001600160a01b0316632f2ff15d7f00000000000000000000000000000000000000000000000000000000000000006001600160a01b031663a217fddf6040518163ffffffff1660e01b815260040160206040518083038186803b158015610f5b57600080fd5b505afa158015610f6f573d6000803e3d6000fd5b505050506040513d6020811015610f8557600080fd5b5051604080517fffffffff0000000000000000000000000000000000000000000000000000000060e085901b16815260048101929092526001600160a01b037f000000000000000000000000000000000000000000000000000000000000000016602483015251604480830192600092919082900301818387803b15801561100c57600080fd5b505af1158015611020573d6000803e3d6000fd5b5050604080517f851c1bb30000000000000000000000000000000000000000000000000000000081527f0f15f4c000000000000000000000000000000000000000000000000000000000600482015290516001600160a01b038087169450632f2ff15d93507f0000000000000000000000000000000000000000000000000000000000000000169163851c1bb3916024808301926020929190829003018186803b1580156110cd57600080fd5b505afa1580156110e1573d6000803e3d6000fd5b505050506040513d60208110156110f757600080fd5b5051604080517fffffffff0000000000000000000000000000000000000000000000000000000060e085901b168152600481019290925230602483015251604480830192600092919082900301818387803b15801561115557600080fd5b505af1158015611169573d6000803e3d6000fd5b505050507f00000000000000000000000000000000000000000000000000000000000000006001600160a01b0316630f15f4c06040518163ffffffff1660e01b8152600401600060405180830381600087803b1580156111c857600080fd5b505af11580156111dc573d6000803e3d6000fd5b5050604080517f851c1bb30000000000000000000000000000000000000000000000000000000081527f40c10f1900000000000000000000000000000000000000000000000000000000600482015290516001600160a01b038087169450632f2ff15d93507f0000000000000000000000000000000000000000000000000000000000000000169163851c1bb3916024808301926020929190829003018186803b15801561128957600080fd5b505afa15801561129d573d6000803e3d6000fd5b505050506040513d60208110156112b357600080fd5b5051604080517fffffffff0000000000000000000000000000000000000000000000000000000060e085901b16815260048101929092526001600160a01b037f000000000000000000000000000000000000000000000000000000000000000016602483015251604480830192600092919082900301818387803b15801561133a57600080fd5b505af115801561134e573d6000803e3d6000fd5b5050604080517f851c1bb30000000000000000000000000000000000000000000000000000000081527f92d0d23200000000000000000000000000000000000000000000000000000000600482015290516001600160a01b038087169450632f2ff15d935085169163851c1bb3916024808301926020929190829003018186803b1580156113db57600080fd5b505afa1580156113ef573d6000803e3d6000fd5b505050506040513d602081101561140557600080fd5b5051604080517fffffffff0000000000000000000000000000000000000000000000000000000060e085901b168152600481019290925230602483015251604480830192600092919082900301818387803b15801561146357600080fd5b505af1158015611477573d6000803e3d6000fd5b505050506114b96040518060400160405280601a81526020017f4c6971756964697479204d696e696e6720436f6d6d6974746565000000000000815250612daa565b6114f76040518060400160405280600581526020017f766542414c000000000000000000000000000000000000000000000000000000815250612daa565b6115356040518060400160405280600881526020017f457468657265756d000000000000000000000000000000000000000000000000815250612daa565b6115736040518060400160405280600781526020017f506f6c79676f6e00000000000000000000000000000000000000000000000000815250612daa565b6115b16040518060400160405280600881526020017f417262697472756d000000000000000000000000000000000000000000000000815250612daa565b816001600160a01b031663d547741f826001600160a01b031663851c1bb36392d0d23260e01b6040518263ffffffff1660e01b815260040180827bffffffffffffffffffffffffffffffffffffffffffffffffffffffff1916815260200191505060206040518083038186803b15801561162a57600080fd5b505afa15801561163e573d6000803e3d6000fd5b505050506040513d602081101561165457600080fd5b5051604080517fffffffff0000000000000000000000000000000000000000000000000000000060e085901b168152600481019290925230602483015251604480830192600092919082900301818387803b1580156116b257600080fd5b505af11580156116c6573d6000803e3d6000fd5b5050604080517f851c1bb30000000000000000000000000000000000000000000000000000000081527f3a04f90000000000000000000000000000000000000000000000000000000000600482015290516001600160a01b038087169450632f2ff15d935085169163851c1bb3916024808301926020929190829003018186803b15801561175357600080fd5b505afa158015611767573d6000803e3d6000fd5b505050506040513d602081101561177d57600080fd5b5051604080517fffffffff0000000000000000000000000000000000000000000000000000000060e085901b16815260048101929092526001600160a01b037f000000000000000000000000000000000000000000000000000000000000000016602483015251604480830192600092919082900301818387803b15801561180457600080fd5b505af1158015611818573d6000803e3d6000fd5b5050604080517f851c1bb30000000000000000000000000000000000000000000000000000000081527f3a04f90000000000000000000000000000000000000000000000000000000000600482015290516001600160a01b038087169450632f2ff15d935085169163851c1bb3916024808301926020929190829003018186803b1580156118a557600080fd5b505afa1580156118b9573d6000803e3d6000fd5b505050506040513d60208110156118cf57600080fd5b5051604080517fffffffff0000000000000000000000000000000000000000000000000000000060e085901b168152600481019290925230602483015251604480830192600092919082900301818387803b15801561192d57600080fd5b505af1158015611941573d6000803e3d6000fd5b505050506119746000604051806060016040528060258152602001613532602591396001546001600160a01b0316613091565b6119a360016040518060600160405280602b8152602001613557602b91396002546001600160a01b0316613091565b6119d260036040518060600160405280602d8152602001613602602d91396003546001600160a01b0316613091565b611a0160046040518060600160405280602e815260200161362f602e91396004546001600160a01b0316613091565b816001600160a01b031663d547741f826001600160a01b031663851c1bb3633a04f90060e01b6040518263ffffffff1660e01b815260040180827bffffffffffffffffffffffffffffffffffffffffffffffffffffffff1916815260200191505060206040518083038186803b158015611a7a57600080fd5b505afa158015611a8e573d6000803e3d6000fd5b505050506040513d6020811015611aa457600080fd5b5051604080517fffffffff0000000000000000000000000000000000000000000000000000000060e085901b168152600481019290925230602483015251604480830192600092919082900301818387803b158015611b0257600080fd5b505af1158015611b16573d6000803e3d6000fd5b5050604080517f851c1bb30000000000000000000000000000000000000000000000000000000081527fe8de0d4d00000000000000000000000000000000000000000000000000000000600482015290516001600160a01b038087169450632f2ff15d935085169163851c1bb3916024808301926020929190829003018186803b158015611ba357600080fd5b505afa158015611bb7573d6000803e3d6000fd5b505050506040513d6020811015611bcd57600080fd5b5051600154604080517fffffffff0000000000000000000000000000000000000000000000000000000060e086901b16815260048101939093526001600160a01b03909116602483015251604480830192600092919082900301818387803b158015611c3857600080fd5b505af1158015611c4c573d6000803e3d6000fd5b5050604080517f851c1bb30000000000000000000000000000000000000000000000000000000081527f058a3a2400000000000000000000000000000000000000000000000000000000600482015290516001600160a01b038087169450632f2ff15d935085169163851c1bb3916024808301926020929190829003018186803b158015611cd957600080fd5b505afa158015611ced573d6000803e3d6000fd5b505050506040513d6020811015611d0357600080fd5b5051600154604080517fffffffff0000000000000000000000000000000000000000000000000000000060e086901b16815260048101939093526001600160a01b03909116602483015251604480830192600092919082900301818387803b158015611d6e57600080fd5b505af1158015611d82573d6000803e3d6000fd5b505042600555505060088054600191907fffffffffffffffffffffffffffffffffffffffffffffffffffffffffffffff0016828061078d565b6707c585087238000081565b7f000000000000000000000000000000000000000000000000000000000000000090565b66f8b0a10e47000081565b7f000000000000000000000000000000000000000000000000000000000000000090565b67016345785d8a000081565b7f000000000000000000000000000000000000000000000000000000000000000090565b6001546001600160a01b031681565b6004546001600160a01b031681565b7f000000000000000000000000000000000000000000000000000000000000000090565b60075481565b6000611e9c611e68565b6001600160a01b031663aaabadc56040518163ffffffff1660e01b815260040160206040518083038186803b158015611ed457600080fd5b505afa158015611ee8573d6000803e3d6000fd5b505050506040513d6020811015611efe57600080fd5b5051905090565b611f0d612af6565b600160085460ff166003811115611f2057fe5b14611f8c57604080517f08c379a000000000000000000000000000000000000000000000000000000000815260206004820152601a60248201527f4e6f7420726561647920666f72207365636f6e64207374616765000000000000604482015290519081900360640190fd5b6000611f96611e92565b9050611fa0613512565b5060408051610400810182527306df3b2bbb68adc8b0e302443692037ed9f91b42815273072f14b85add63488ddad88f855fda4a99d6ac9b602080830191909152730b09dea16768f0799065c475be02919503cb2a358284015273186084ff790c65088ba694df11758fae4943ee9e6060830152731e19cf2d73a72ef1332c882f20534b6519be027660808301527327c9f71cc31464b906e0006d4fcbc8900f48f15f60a08301527332296969ef14eb0c6d29669c550d4a044913023060c083015273350196326aeaa9b98f1903fb5e8fc2686f85318c60e0830152733e5fa9518ea95c3e533eb377c001702a9aacaa32610100830152734bd6d86debdb9f5413e631ad386c4427dc9d01b26101208301527351735bdfbfe3fc13dea8dc6502e2e95898942961610140830152735d66fff62c17d841935b60df5f07f6cf79bd0f47610160830152735f7fa48d765053f8dd85e052843e12d23e3d7bc561018083015273702605f43471183158938c1a3e5f5a359d7b31ba6101a0830152737b50775383d3d6f0215a8f290f2c9e2eebbeceb26101c0830152737edde0cb05ed19e03a9a47cd5e53fc57fde1c80c6101e0830152738f4205e1604133d1875a3e771ae7e4f2b08656396102008301527390291319f1d4ea3ad4db0dd8fe9e12baf749e8456102208301527396646936b91d6b9d7d0c47c496afbf3d6ec7b6f86102408301527396ba9025311e2f47b840a1f68ed57a3df1ea874761026083015273a02e4b3d18d4e6b8d18ac421fbc3dfff8933c40a61028083015273a6f548df93de924d73be7d25dc02554c6bd66db56102a083015273baeec99c90e3420ec6c1e7a769d2a856d2898e4d6102c083015273bf96189eee9357a95c7719f4f5047f76bde804e56102e083015273e2469f47ab58cf9cf59f9822e3c5de4950a41c4961030083015273e99481dc77691d8e2456e5f3f61c1810adfc150361032083015273ec60a5fef79a92c741cb74fdd6bfc340c0279b0161034083015273edf085f65b4f6c155e13155502ef925c9a75600361036083015273efaa1604e82e1b3af8430b90192c1b9e8197e37761038083015273f4c0dd9b82da36c07605df83c8a416f11724d88b6103a083015273f5aaf7ee8c39b651cebf5f1f50c10631e78e0ef96103c083015273feadd389a5c427952d8fdb8057d6c8ba1156cc566103e083015282517f851c1bb30000000000000000000000000000000000000000000000000000000081527f6440e973000000000000000000000000000000000000000000000000000000006004820152925191926001600160a01b0385811693632f2ff15d937f00000000000000000000000000000000000000000000000000000000000000009092169263851c1bb3926024808301939192829003018186803b1580156123ac57600080fd5b505afa1580156123c0573d6000803e3d6000fd5b505050506040513d60208110156123d657600080fd5b5051604080517fffffffff0000000000000000000000000000000000000000000000000000000060e085901b168152600481019290925230602483015251604480830192600092919082900301818387803b15801561243457600080fd5b505af1158015612448573d6000803e3d6000fd5b505050507f00000000000000000000000000000000000000000000000000000000000000006001600160a01b0316636440e9737f000000000000000000000000000000000000000000000000000000000000000060026040518363ffffffff1660e01b815260040180836001600160a01b031681526020018260048111156124cc57fe5b815260200192505050600060405180830381600087803b1580156124ef57600080fd5b505af1158015612503573d6000803e3d6000fd5b5050604080517f851c1bb30000000000000000000000000000000000000000000000000000000081527f6440e97300000000000000000000000000000000000000000000000000000000600482015290516001600160a01b03808716945063d547741f93507f0000000000000000000000000000000000000000000000000000000000000000169163851c1bb3916024808301926020929190829003018186803b1580156125b057600080fd5b505afa1580156125c4573d6000803e3d6000fd5b505050506040513d60208110156125da57600080fd5b5051604080517fffffffff0000000000000000000000000000000000000000000000000000000060e085901b168152600481019290925230602483015251604480830192600092919082900301818387803b15801561263857600080fd5b505af115801561264c573d6000803e3d6000fd5b5050604080517f851c1bb30000000000000000000000000000000000000000000000000000000081527f5e45a27300000000000000000000000000000000000000000000000000000000600482015290516001600160a01b038087169450632f2ff15d93507f0000000000000000000000000000000000000000000000000000000000000000169163851c1bb3916024808301926020929190829003018186803b1580156126f957600080fd5b505afa15801561270d573d6000803e3d6000fd5b505050506040513d602081101561272357600080fd5b5051604080517fffffffff0000000000000000000000000000000000000000000000000000000060e085901b168152600481019290925230602483015251604480830192600092919082900301818387803b15801561278157600080fd5b505af1158015612795573d6000803e3d6000fd5b506020925060009150505b818110156129025760007f00000000000000000000000000000000000000000000000000000000000000006001600160a01b0316639ed933188584602081106127e557fe5b60200201516040518263ffffffff1660e01b815260040180826001600160a01b03168152602001915050602060405180830381600087803b15801561282957600080fd5b505af115801561283d573d6000803e3d6000fd5b505050506040513d602081101561285357600080fd5b5051604080517f5e45a2730000000000000000000000000000000000000000000000000000000081526001600160a01b03808416600483015291519293507f000000000000000000000000000000000000000000000000000000000000000090911691635e45a2739160248082019260009290919082900301818387803b1580156128dd57600080fd5b505af11580156128f1573d6000803e3d6000fd5b5050600190930192506127a0915050565b50826001600160a01b031663d547741f7f00000000000000000000000000000000000000000000000000000000000000006001600160a01b031663851c1bb3635e45a27360e01b6040518263ffffffff1660e01b815260040180827bffffffffffffffffffffffffffffffffffffffffffffffffffffffff1916815260200191505060206040518083038186803b15801561299c57600080fd5b505afa1580156129b0573d6000803e3d6000fd5b505050506040513d60208110156129c657600080fd5b5051604080517fffffffff0000000000000000000000000000000000000000000000000000000060e085901b168152600481019290925230602483015251604480830192600092919082900301818387803b158015612a2457600080fd5b505af1158015612a38573d6000803e3d6000fd5b505042600655505060088054600292507fffffffffffffffffffffffffffffffffffffffffffffffffffffffffffffff001660018361078d565b60085460ff1690565b7f000000000000000000000000000000000000000000000000000000000000000090565b7f000000000000000000000000000000000000000000000000000000000000000090565b7f000000000000000000000000000000000000000000000000000000000000000090565b6003546001600160a01b031681565b612b086002600054141561019061337a565b6002600055565b612b17612ac3565b6001600160a01b0316634036176a7f00000000000000000000000000000000000000000000000000000000000000007fdb1ca26000000000000000000000000000000000000000000000000000000000856004811115612b7357fe5b856040516024018083600f0b815260200182815260200192505050604051602081830303815290604052907bffffffffffffffffffffffffffffffffffffffffffffffffffffffff19166020820180517bffffffffffffffffffffffffffffffffffffffffffffffffffffffff83818316178352505050506040518363ffffffff1660e01b815260040180836001600160a01b0316815260200180602001828103825283818151815260200191508051906020019080838360005b83811015612c46578181015183820152602001612c2e565b50505050905090810190601f168015612c735780820380516001836020036101000a031916815260200191505b509350505050600060405180830381600087803b158015612c9357600080fd5b505af1158015612ca7573d6000803e3d6000fd5b505050506040513d6000823e601f3d9081017fffffffffffffffffffffffffffffffffffffffffffffffffffffffffffffffe01682016040526020811015612cee57600080fd5b8101908080516040519392919084640100000000821115612d0e57600080fd5b908301906020820185811115612d2357600080fd5b8251640100000000811182820188101715612d3d57600080fd5b82525081516020918201929091019080838360005b83811015612d6a578181015183820152602001612d52565b50505050905090810190601f168015612d975780820380516001836020036101000a031916815260200191505b50604052505050505050565b6001600055565b612db2612ac3565b6001600160a01b0316634036176a7f00000000000000000000000000000000000000000000000000000000000000006392d0d23260e01b8460006040516024018080602001838152602001828103825284818151815260200191508051906020019080838360005b83811015612e32578181015183820152602001612e1a565b50505050905090810190601f168015612e5f5780820380516001836020036101000a031916815260200191505b50604080517fffffffffffffffffffffffffffffffffffffffffffffffffffffffffffffffe08184030181529181526020820180517bffffffffffffffffffffffffffffffffffffffffffffffffffffffff167fffffffff00000000000000000000000000000000000000000000000000000000988916178152815160e08b901b90981688526001600160a01b0389166004890190815260248901928352835160448a01528351939890975091955060649091019350915080838360005b83811015612f35578181015183820152602001612f1d565b50505050905090810190601f168015612f625780820380516001836020036101000a031916815260200191505b509350505050600060405180830381600087803b158015612f8257600080fd5b505af1158015612f96573d6000803e3d6000fd5b505050506040513d6000823e601f3d9081017fffffffffffffffffffffffffffffffffffffffffffffffffffffffffffffffe01682016040526020811015612fdd57600080fd5b8101908080516040519392919084640100000000821115612ffd57600080fd5b90830190602082018581111561301257600080fd5b825164010000000081118282018810171561302c57600080fd5b82525081516020918201929091019080838360005b83811015613059578181015183820152602001613041565b50505050905090810190601f1680156130865780820380516001836020036101000a031916815260200191505b506040525050505050565b60007f00000000000000000000000000000000000000000000000000000000000000006001600160a01b031663b6a46b3b846040518263ffffffff1660e01b81526004018080602001828103825283818151815260200191508051906020019080838360005b8381101561310f5781810151838201526020016130f7565b50505050905090810190601f16801561313c5780820380516001836020036101000a031916815260200191505b5092505050602060405180830381600087803b15801561315b57600080fd5b505af115801561316f573d6000803e3d6000fd5b505050506040513d602081101561318557600080fd5b5051604080517f9ed933180000000000000000000000000000000000000000000000000000000081526001600160a01b03808416600483015291519293506000927f000000000000000000000000000000000000000000000000000000000000000090921691639ed933189160248082019260209290919082900301818787803b15801561321257600080fd5b505af1158015613226573d6000803e3d6000fd5b505050506040513d602081101561323c57600080fd5b5051905061324a818661338c565b613252611e92565b6001600160a01b0316632f2ff15d836001600160a01b031663851c1bb363c107532960e01b6040518263ffffffff1660e01b815260040180827bffffffffffffffffffffffffffffffffffffffffffffffffffffffff1916815260200191505060206040518083038186803b1580156132ca57600080fd5b505afa1580156132de573d6000803e3d6000fd5b505050506040513d60208110156132f457600080fd5b5051604080517fffffffff0000000000000000000000000000000000000000000000000000000060e085901b16815260048101929092526001600160a01b038716602483015251604480830192600092919082900301818387803b15801561335b57600080fd5b505af115801561336f573d6000803e3d6000fd5b505050505050505050565b8161338857613388816134a5565b5050565b613394612ac3565b6001600160a01b0316634036176a7f0000000000000000000000000000000000000000000000000000000000000000633a04f90060e01b858560405160240180836001600160a01b031681526020018260048111156133ef57fe5b81526040805180830381526020928301825291820180517bffffffffffffffffffffffffffffffffffffffffffffffffffffffff167fffffffff00000000000000000000000000000000000000000000000000000000978816178152815160e08a901b90971687526001600160a01b038816600488019081526024880192835283516044890152835193979096509194506064909101925090808383600083811015612c46578181015183820152602001612c2e565b7f08c379a0000000000000000000000000000000000000000000000000000000006000908152602060045260076024526642414c23000030600a808404818106603090810160081b95839006959095019082900491820690940160101b939093010160c81b604452606490fd5b604051806104000160405280602090602082028036833750919291505056fe4c6971756964697479204d696e696e6720436f6d6d69747465652042414c20486f6c64657254656d706f7261727920766542414c204c6971756964697479204d696e696e672042414c20486f6c64657244656c61792066726f6d207365636f6e64207374616765206e6f742079657420656c6170736564566f74696e67457363726f77206e6f74206f776e656420627920417574686f72697a657241646170746f724761756765436f6e74726f6c6c6572206e6f74206f776e656420627920417574686f72697a657241646170746f7254656d706f7261727920506f6c79676f6e204c6971756964697479204d696e696e672042414c20486f6c64657254656d706f7261727920417262697472756d204c6971756964697479204d696e696e672042414c20486f6c646572a26469706673582212201070d88e6c6808262d21528a2ea07b11ecd6a9d2391e521f1d75d6f60f70925764736f6c63430007010033",
          "opcodes": "PUSH2 0x200 PUSH1 0x40 MSTORE PUSH1 0x1 DUP1 SLOAD PUSH1 0x1 PUSH1 0x1 PUSH1 0xA0 SHL SUB NOT SWAP1 DUP2 AND PUSH20 0xC38C5F97B34E175FFD35407FC91A937300E33860 OR SWAP1 SWAP2 SSTORE PUSH1 0x2 DUP1 SLOAD DUP3 AND PUSH20 0xD2EB7BD802A7CA68D9ACD209BEC4E664A9ABDD7B SWAP1 DUP2 OR SWAP1 SWAP2 SSTORE PUSH1 0x3 DUP1 SLOAD DUP4 AND DUP3 OR SWAP1 SSTORE PUSH1 0x4 DUP1 SLOAD SWAP1 SWAP3 AND OR SWAP1 SSTORE CALLVALUE DUP1 ISZERO PUSH3 0x70 JUMPI PUSH1 0x0 DUP1 REVERT JUMPDEST POP PUSH1 0x40 MLOAD PUSH3 0x3AD1 CODESIZE SUB DUP1 PUSH3 0x3AD1 DUP4 CODECOPY DUP2 DUP2 ADD PUSH1 0x40 MSTORE PUSH2 0x100 DUP2 LT ISZERO PUSH3 0x97 JUMPI PUSH1 0x0 DUP1 REVERT JUMPDEST POP DUP1 MLOAD PUSH1 0x20 DUP1 DUP4 ADD MLOAD PUSH1 0x40 DUP1 DUP6 ADD MLOAD PUSH1 0x60 DUP7 ADD MLOAD PUSH1 0x80 DUP8 ADD MLOAD PUSH1 0xA0 DUP9 ADD MLOAD PUSH1 0xC0 DUP10 ADD MLOAD PUSH1 0xE0 SWAP1 SWAP10 ADD MLOAD PUSH1 0x1 PUSH1 0x0 SWAP1 DUP2 SSTORE PUSH1 0x8 DUP1 SLOAD PUSH1 0xFF NOT AND SWAP1 SSTORE DUP7 MLOAD PUSH4 0xE6DEC36F PUSH1 0xE0 SHL DUP2 MSTORE SWAP7 MLOAD SWAP10 SWAP11 SWAP8 SWAP10 SWAP6 SWAP9 SWAP5 SWAP8 SWAP4 SWAP7 SWAP3 SWAP6 SWAP4 SWAP5 SWAP2 SWAP4 SWAP1 SWAP3 PUSH1 0x1 PUSH1 0x1 PUSH1 0xA0 SHL SUB DUP13 AND SWAP3 PUSH4 0xE6DEC36F SWAP3 PUSH1 0x4 DUP1 DUP5 ADD SWAP4 DUP3 SWAP1 SUB ADD DUP2 DUP7 DUP1 EXTCODESIZE ISZERO DUP1 ISZERO PUSH3 0x11D JUMPI PUSH1 0x0 DUP1 REVERT JUMPDEST POP GAS STATICCALL ISZERO DUP1 ISZERO PUSH3 0x132 JUMPI RETURNDATASIZE PUSH1 0x0 DUP1 RETURNDATACOPY RETURNDATASIZE PUSH1 0x0 REVERT JUMPDEST POP POP POP POP PUSH1 0x40 MLOAD RETURNDATASIZE PUSH1 0x20 DUP2 LT ISZERO PUSH3 0x149 JUMPI PUSH1 0x0 DUP1 REVERT JUMPDEST POP MLOAD PUSH1 0x1 PUSH1 0x1 PUSH1 0x60 SHL SUB NOT PUSH1 0x60 DUP3 SWAP1 SHL AND PUSH1 0x80 MSTORE PUSH1 0x40 DUP1 MLOAD PUSH4 0x11B2515F PUSH1 0xE3 SHL DUP2 MSTORE SWAP1 MLOAD SWAP2 SWAP3 POP PUSH1 0x1 PUSH1 0x1 PUSH1 0xA0 SHL SUB DUP4 AND SWAP2 PUSH4 0x8D928AF8 SWAP2 PUSH1 0x4 DUP1 DUP3 ADD SWAP3 PUSH1 0x20 SWAP3 SWAP1 SWAP2 SWAP1 DUP3 SWAP1 SUB ADD DUP2 DUP7 DUP1 EXTCODESIZE ISZERO DUP1 ISZERO PUSH3 0x1A2 JUMPI PUSH1 0x0 DUP1 REVERT JUMPDEST POP GAS STATICCALL ISZERO DUP1 ISZERO PUSH3 0x1B7 JUMPI RETURNDATASIZE PUSH1 0x0 DUP1 RETURNDATACOPY RETURNDATASIZE PUSH1 0x0 REVERT JUMPDEST POP POP POP POP PUSH1 0x40 MLOAD RETURNDATASIZE PUSH1 0x20 DUP2 LT ISZERO PUSH3 0x1CE JUMPI PUSH1 0x0 DUP1 REVERT JUMPDEST POP MLOAD PUSH1 0x1 PUSH1 0x1 PUSH1 0x60 SHL SUB NOT PUSH1 0x60 SWAP2 DUP3 SHL DUP2 AND PUSH1 0xA0 MSTORE SWAP1 DUP10 SWAP1 SHL AND PUSH1 0xC0 MSTORE PUSH1 0x40 DUP1 MLOAD PUSH4 0xC0039699 PUSH1 0xE0 SHL DUP2 MSTORE SWAP1 MLOAD PUSH1 0x1 PUSH1 0x1 PUSH1 0xA0 SHL SUB DUP4 AND SWAP2 PUSH4 0xC0039699 SWAP2 PUSH1 0x4 DUP1 DUP4 ADD SWAP3 PUSH1 0x20 SWAP3 SWAP2 SWAP1 DUP3 SWAP1 SUB ADD DUP2 DUP7 DUP1 EXTCODESIZE ISZERO DUP1 ISZERO PUSH3 0x22C JUMPI PUSH1 0x0 DUP1 REVERT JUMPDEST POP GAS STATICCALL ISZERO DUP1 ISZERO PUSH3 0x241 JUMPI RETURNDATASIZE PUSH1 0x0 DUP1 RETURNDATACOPY RETURNDATASIZE PUSH1 0x0 REVERT JUMPDEST POP POP POP POP PUSH1 0x40 MLOAD RETURNDATASIZE PUSH1 0x20 DUP2 LT ISZERO PUSH3 0x258 JUMPI PUSH1 0x0 DUP1 REVERT JUMPDEST POP MLOAD PUSH1 0x1 PUSH1 0x1 PUSH1 0x60 SHL SUB NOT PUSH1 0x60 SWAP2 DUP3 SHL DUP2 AND PUSH1 0xE0 MSTORE SWAP1 DUP11 SWAP1 SHL AND PUSH2 0x100 MSTORE PUSH1 0x40 DUP1 MLOAD PUSH4 0x2C6F4D6F PUSH1 0xE1 SHL DUP2 MSTORE SWAP1 MLOAD PUSH1 0x1 PUSH1 0x1 PUSH1 0xA0 SHL SUB DUP12 AND SWAP2 PUSH4 0x58DE9ADE SWAP2 PUSH1 0x4 DUP1 DUP4 ADD SWAP3 PUSH1 0x20 SWAP3 SWAP2 SWAP1 DUP3 SWAP1 SUB ADD DUP2 DUP7 DUP1 EXTCODESIZE ISZERO DUP1 ISZERO PUSH3 0x2B7 JUMPI PUSH1 0x0 DUP1 REVERT JUMPDEST POP GAS STATICCALL ISZERO DUP1 ISZERO PUSH3 0x2CC JUMPI RETURNDATASIZE PUSH1 0x0 DUP1 RETURNDATACOPY RETURNDATASIZE PUSH1 0x0 REVERT JUMPDEST POP POP POP POP PUSH1 0x40 MLOAD RETURNDATASIZE PUSH1 0x20 DUP2 LT ISZERO PUSH3 0x2E3 JUMPI PUSH1 0x0 DUP1 REVERT JUMPDEST POP MLOAD PUSH1 0x1 PUSH1 0x1 PUSH1 0x60 SHL SUB NOT PUSH1 0x60 SWAP2 DUP3 SHL DUP2 AND PUSH2 0x120 MSTORE SWAP8 DUP2 SHL DUP9 AND PUSH2 0x140 MSTORE SWAP6 DUP7 SHL DUP8 AND PUSH2 0x160 MSTORE POP SWAP3 DUP5 SHL DUP6 AND PUSH2 0x180 MSTORE SWAP3 SHL SWAP1 SWAP3 AND PUSH2 0x1A0 MSTORE PUSH2 0x1C0 MSTORE PUSH2 0x1E0 MSTORE POP POP PUSH1 0x80 MLOAD PUSH1 0x60 SHR PUSH1 0xA0 MLOAD PUSH1 0x60 SHR PUSH1 0xC0 MLOAD PUSH1 0x60 SHR PUSH1 0xE0 MLOAD PUSH1 0x60 SHR PUSH2 0x100 MLOAD PUSH1 0x60 SHR PUSH2 0x120 MLOAD PUSH1 0x60 SHR PUSH2 0x140 MLOAD PUSH1 0x60 SHR PUSH2 0x160 MLOAD PUSH1 0x60 SHR PUSH2 0x180 MLOAD PUSH1 0x60 SHR PUSH2 0x1A0 MLOAD PUSH1 0x60 SHR PUSH2 0x1C0 MLOAD PUSH2 0x1E0 MLOAD PUSH2 0x3692 PUSH3 0x43F PUSH1 0x0 CODECOPY DUP1 PUSH2 0x350 MSTORE DUP1 PUSH2 0x1DF8 MSTORE POP DUP1 PUSH2 0x7AE MSTORE DUP1 PUSH2 0x1DC9 MSTORE POP DUP1 PUSH2 0x3095 MSTORE POP DUP1 PUSH2 0x31C8 MSTORE POP DUP1 PUSH2 0x247D MSTORE DUP1 PUSH2 0x27AC MSTORE POP DUP1 PUSH2 0x17BE MSTORE DUP1 PUSH2 0x2367 MSTORE DUP1 PUSH2 0x244E MSTORE DUP1 PUSH2 0x256A MSTORE DUP1 PUSH2 0x26B3 MSTORE DUP1 PUSH2 0x2893 MSTORE DUP1 PUSH2 0x2914 MSTORE POP DUP1 PUSH2 0xB88 MSTORE DUP1 PUSH2 0xCFD MSTORE DUP1 PUSH2 0xDE1 MSTORE DUP1 PUSH2 0x1E28 MSTORE DUP1 PUSH2 0x2B27 MSTORE DUP1 PUSH2 0x2DC2 MSTORE DUP1 PUSH2 0x33A4 MSTORE POP DUP1 PUSH2 0x12F4 MSTORE DUP1 PUSH2 0x2A7D MSTORE POP DUP1 PUSH2 0x8C8 MSTORE DUP1 PUSH2 0x8F7 MSTORE DUP1 PUSH2 0xED5 MSTORE DUP1 PUSH2 0xF04 MSTORE POP DUP1 PUSH2 0x2AC5 MSTORE POP DUP1 PUSH2 0x1E6A MSTORE POP DUP1 PUSH2 0xFC6 MSTORE DUP1 PUSH2 0x1087 MSTORE DUP1 PUSH2 0x116F MSTORE DUP1 PUSH2 0x1243 MSTORE DUP1 PUSH2 0x2AA1 MSTORE POP PUSH2 0x3692 PUSH1 0x0 RETURN INVALID PUSH1 0x80 PUSH1 0x40 MSTORE CALLVALUE DUP1 ISZERO PUSH2 0x10 JUMPI PUSH1 0x0 DUP1 REVERT JUMPDEST POP PUSH1 0x4 CALLDATASIZE LT PUSH2 0x198 JUMPI PUSH1 0x0 CALLDATALOAD PUSH1 0xE0 SHR DUP1 PUSH4 0x761C4023 GT PUSH2 0xE3 JUMPI DUP1 PUSH4 0xB77984E9 GT PUSH2 0x8C JUMPI DUP1 PUSH4 0xE6DEC36F GT PUSH2 0x66 JUMPI DUP1 PUSH4 0xE6DEC36F EQ PUSH2 0x28E JUMPI DUP1 PUSH4 0xE758D36B EQ PUSH2 0x296 JUMPI DUP1 PUSH4 0xF5C458AB EQ PUSH2 0x29E JUMPI PUSH2 0x198 JUMP JUMPDEST DUP1 PUSH4 0xB77984E9 EQ PUSH2 0x25D JUMPI DUP1 PUSH4 0xDC8C9EC6 EQ PUSH2 0x21D JUMPI DUP1 PUSH4 0xDCE8B0CD EQ PUSH2 0x286 JUMPI PUSH2 0x198 JUMP JUMPDEST DUP1 PUSH4 0x9912B3D4 GT PUSH2 0xBD JUMPI DUP1 PUSH4 0x9912B3D4 EQ PUSH2 0x245 JUMPI DUP1 PUSH4 0xAAABADC5 EQ PUSH2 0x24D JUMPI DUP1 PUSH4 0xB1E70E80 EQ PUSH2 0x255 JUMPI PUSH2 0x198 JUMP JUMPDEST DUP1 PUSH4 0x761C4023 EQ PUSH2 0x22D JUMPI DUP1 PUSH4 0x844C7750 EQ PUSH2 0x235 JUMPI DUP1 PUSH4 0x8D928AF8 EQ PUSH2 0x23D JUMPI PUSH2 0x198 JUMP JUMPDEST DUP1 PUSH4 0x336D4DFC GT PUSH2 0x145 JUMPI DUP1 PUSH4 0x42979ADC GT PUSH2 0x11F JUMPI DUP1 PUSH4 0x42979ADC EQ PUSH2 0x215 JUMPI DUP1 PUSH4 0x463D9E93 EQ PUSH2 0x21D JUMPI DUP1 PUSH4 0x58DE9ADE EQ PUSH2 0x225 JUMPI PUSH2 0x198 JUMP JUMPDEST DUP1 PUSH4 0x336D4DFC EQ PUSH2 0x1FD JUMPI DUP1 PUSH4 0x3B54E680 EQ PUSH2 0x205 JUMPI DUP1 PUSH4 0x410C2D8E EQ PUSH2 0x20D JUMPI PUSH2 0x198 JUMP JUMPDEST DUP1 PUSH4 0x1CDD07A4 GT PUSH2 0x176 JUMPI DUP1 PUSH4 0x1CDD07A4 EQ PUSH2 0x1E3 JUMPI DUP1 PUSH4 0x1E390389 EQ PUSH2 0x1ED JUMPI DUP1 PUSH4 0x2BD46566 EQ PUSH2 0x1F5 JUMPI PUSH2 0x198 JUMP JUMPDEST DUP1 PUSH4 0x249E6FA EQ PUSH2 0x19D JUMPI DUP1 PUSH4 0x1235F8A3 EQ PUSH2 0x1B7 JUMPI DUP1 PUSH4 0x1336E8D4 EQ PUSH2 0x1DB JUMPI JUMPDEST PUSH1 0x0 DUP1 REVERT JUMPDEST PUSH2 0x1A5 PUSH2 0x2A6 JUMP JUMPDEST PUSH1 0x40 DUP1 MLOAD SWAP2 DUP3 MSTORE MLOAD SWAP1 DUP2 SWAP1 SUB PUSH1 0x20 ADD SWAP1 RETURN JUMPDEST PUSH2 0x1BF PUSH2 0x2AC JUMP JUMPDEST PUSH1 0x40 DUP1 MLOAD PUSH1 0x1 PUSH1 0x1 PUSH1 0xA0 SHL SUB SWAP1 SWAP3 AND DUP3 MSTORE MLOAD SWAP1 DUP2 SWAP1 SUB PUSH1 0x20 ADD SWAP1 RETURN JUMPDEST PUSH2 0x1A5 PUSH2 0x2BB JUMP JUMPDEST PUSH2 0x1EB PUSH2 0x2C7 JUMP JUMPDEST STOP JUMPDEST PUSH2 0x1A5 PUSH2 0x79E JUMP JUMPDEST PUSH2 0x1EB PUSH2 0x7A4 JUMP JUMPDEST PUSH2 0x1A5 PUSH2 0x1DBB JUMP JUMPDEST PUSH2 0x1A5 PUSH2 0x1DC7 JUMP JUMPDEST PUSH2 0x1A5 PUSH2 0x1DEB JUMP JUMPDEST PUSH2 0x1A5 PUSH2 0x1DF6 JUMP JUMPDEST PUSH2 0x1A5 PUSH2 0x1E1A JUMP JUMPDEST PUSH2 0x1BF PUSH2 0x1E26 JUMP JUMPDEST PUSH2 0x1BF PUSH2 0x1E4A JUMP JUMPDEST PUSH2 0x1BF PUSH2 0x1E59 JUMP JUMPDEST PUSH2 0x1BF PUSH2 0x1E68 JUMP JUMPDEST PUSH2 0x1A5 PUSH2 0x1E8C JUMP JUMPDEST PUSH2 0x1BF PUSH2 0x1E92 JUMP JUMPDEST PUSH2 0x1EB PUSH2 0x1F05 JUMP JUMPDEST PUSH2 0x265 PUSH2 0x2A72 JUMP JUMPDEST PUSH1 0x40 MLOAD DUP1 DUP3 PUSH1 0x3 DUP2 GT ISZERO PUSH2 0x275 JUMPI INVALID JUMPDEST DUP2 MSTORE PUSH1 0x20 ADD SWAP2 POP POP PUSH1 0x40 MLOAD DUP1 SWAP2 SUB SWAP1 RETURN JUMPDEST PUSH2 0x1BF PUSH2 0x2A7B JUMP JUMPDEST PUSH2 0x1BF PUSH2 0x2A9F JUMP JUMPDEST PUSH2 0x1BF PUSH2 0x2AC3 JUMP JUMPDEST PUSH2 0x1BF PUSH2 0x2AE7 JUMP JUMPDEST PUSH1 0x6 SLOAD DUP2 JUMP JUMPDEST PUSH1 0x2 SLOAD PUSH1 0x1 PUSH1 0x1 PUSH1 0xA0 SHL SUB AND DUP2 JUMP JUMPDEST PUSH8 0x25BF6196BD10000 DUP2 JUMP JUMPDEST PUSH2 0x2CF PUSH2 0x2AF6 JUMP JUMPDEST PUSH1 0x2 PUSH1 0x8 SLOAD PUSH1 0xFF AND PUSH1 0x3 DUP2 GT ISZERO PUSH2 0x2E2 JUMPI INVALID JUMPDEST EQ PUSH2 0x34E JUMPI PUSH1 0x40 DUP1 MLOAD PUSH32 0x8C379A000000000000000000000000000000000000000000000000000000000 DUP2 MSTORE PUSH1 0x20 PUSH1 0x4 DUP3 ADD MSTORE PUSH1 0x19 PUSH1 0x24 DUP3 ADD MSTORE PUSH32 0x4E6F7420726561647920666F7220746869726420737461676500000000000000 PUSH1 0x44 DUP3 ADD MSTORE SWAP1 MLOAD SWAP1 DUP2 SWAP1 SUB PUSH1 0x64 ADD SWAP1 REVERT JUMPDEST PUSH32 0x0 PUSH1 0x6 SLOAD ADD TIMESTAMP LT ISZERO PUSH2 0x3CB JUMPI PUSH1 0x40 MLOAD PUSH32 0x8C379A000000000000000000000000000000000000000000000000000000000 DUP2 MSTORE PUSH1 0x4 ADD DUP1 DUP1 PUSH1 0x20 ADD DUP3 DUP2 SUB DUP3 MSTORE PUSH1 0x27 DUP2 MSTORE PUSH1 0x20 ADD DUP1 PUSH2 0x3582 PUSH1 0x27 SWAP2 CODECOPY PUSH1 0x40 ADD SWAP2 POP POP PUSH1 0x40 MLOAD DUP1 SWAP2 SUB SWAP1 REVERT JUMPDEST PUSH1 0x0 PUSH2 0x3D5 PUSH2 0x2AC3 JUMP JUMPDEST SWAP1 POP PUSH1 0x0 PUSH2 0x3E1 PUSH2 0x1E92 JUMP JUMPDEST SWAP1 POP DUP1 PUSH1 0x1 PUSH1 0x1 PUSH1 0xA0 SHL SUB AND PUSH4 0x2F2FF15D DUP4 PUSH1 0x1 PUSH1 0x1 PUSH1 0xA0 SHL SUB AND PUSH4 0x851C1BB3 PUSH4 0xDB1CA260 PUSH1 0xE0 SHL PUSH1 0x40 MLOAD DUP3 PUSH4 0xFFFFFFFF AND PUSH1 0xE0 SHL DUP2 MSTORE PUSH1 0x4 ADD DUP1 DUP3 PUSH28 0xFFFFFFFFFFFFFFFFFFFFFFFFFFFFFFFFFFFFFFFFFFFFFFFFFFFFFFFF NOT AND DUP2 MSTORE PUSH1 0x20 ADD SWAP2 POP POP PUSH1 0x20 PUSH1 0x40 MLOAD DUP1 DUP4 SUB DUP2 DUP7 DUP1 EXTCODESIZE ISZERO DUP1 ISZERO PUSH2 0x45C JUMPI PUSH1 0x0 DUP1 REVERT JUMPDEST POP GAS STATICCALL ISZERO DUP1 ISZERO PUSH2 0x470 JUMPI RETURNDATASIZE PUSH1 0x0 DUP1 RETURNDATACOPY RETURNDATASIZE PUSH1 0x0 REVERT JUMPDEST POP POP POP POP PUSH1 0x40 MLOAD RETURNDATASIZE PUSH1 0x20 DUP2 LT ISZERO PUSH2 0x486 JUMPI PUSH1 0x0 DUP1 REVERT JUMPDEST POP MLOAD PUSH1 0x40 DUP1 MLOAD PUSH32 0xFFFFFFFF00000000000000000000000000000000000000000000000000000000 PUSH1 0xE0 DUP6 SWAP1 SHL AND DUP2 MSTORE PUSH1 0x4 DUP2 ADD SWAP3 SWAP1 SWAP3 MSTORE ADDRESS PUSH1 0x24 DUP4 ADD MSTORE MLOAD PUSH1 0x44 DUP1 DUP4 ADD SWAP3 PUSH1 0x0 SWAP3 SWAP2 SWAP1 DUP3 SWAP1 SUB ADD DUP2 DUP4 DUP8 DUP1 EXTCODESIZE ISZERO DUP1 ISZERO PUSH2 0x4E4 JUMPI PUSH1 0x0 DUP1 REVERT JUMPDEST POP GAS CALL ISZERO DUP1 ISZERO PUSH2 0x4F8 JUMPI RETURNDATASIZE PUSH1 0x0 DUP1 RETURNDATACOPY RETURNDATASIZE PUSH1 0x0 REVERT JUMPDEST POP POP POP POP PUSH2 0x50F PUSH1 0x0 PUSH8 0x16345785D8A0000 PUSH2 0x2B0F JUMP JUMPDEST PUSH2 0x522 PUSH1 0x1 PUSH8 0x16345785D8A0000 PUSH2 0x2B0F JUMP JUMPDEST PUSH2 0x535 PUSH1 0x2 PUSH8 0x7C5850872380000 PUSH2 0x2B0F JUMP JUMPDEST PUSH2 0x548 PUSH1 0x3 PUSH8 0x25BF6196BD10000 PUSH2 0x2B0F JUMP JUMPDEST PUSH2 0x55A PUSH1 0x4 PUSH7 0xF8B0A10E470000 PUSH2 0x2B0F JUMP JUMPDEST DUP1 PUSH1 0x1 PUSH1 0x1 PUSH1 0xA0 SHL SUB AND PUSH4 0xD547741F DUP4 PUSH1 0x1 PUSH1 0x1 PUSH1 0xA0 SHL SUB AND PUSH4 0x851C1BB3 PUSH4 0xDB1CA260 PUSH1 0xE0 SHL PUSH1 0x40 MLOAD DUP3 PUSH4 0xFFFFFFFF AND PUSH1 0xE0 SHL DUP2 MSTORE PUSH1 0x4 ADD DUP1 DUP3 PUSH28 0xFFFFFFFFFFFFFFFFFFFFFFFFFFFFFFFFFFFFFFFFFFFFFFFFFFFFFFFF NOT AND DUP2 MSTORE PUSH1 0x20 ADD SWAP2 POP POP PUSH1 0x20 PUSH1 0x40 MLOAD DUP1 DUP4 SUB DUP2 DUP7 DUP1 EXTCODESIZE ISZERO DUP1 ISZERO PUSH2 0x5D3 JUMPI PUSH1 0x0 DUP1 REVERT JUMPDEST POP GAS STATICCALL ISZERO DUP1 ISZERO PUSH2 0x5E7 JUMPI RETURNDATASIZE PUSH1 0x0 DUP1 RETURNDATACOPY RETURNDATASIZE PUSH1 0x0 REVERT JUMPDEST POP POP POP POP PUSH1 0x40 MLOAD RETURNDATASIZE PUSH1 0x20 DUP2 LT ISZERO PUSH2 0x5FD JUMPI PUSH1 0x0 DUP1 REVERT JUMPDEST POP MLOAD PUSH1 0x40 DUP1 MLOAD PUSH32 0xFFFFFFFF00000000000000000000000000000000000000000000000000000000 PUSH1 0xE0 DUP6 SWAP1 SHL AND DUP2 MSTORE PUSH1 0x4 DUP2 ADD SWAP3 SWAP1 SWAP3 MSTORE ADDRESS PUSH1 0x24 DUP4 ADD MSTORE MLOAD PUSH1 0x44 DUP1 DUP4 ADD SWAP3 PUSH1 0x0 SWAP3 SWAP2 SWAP1 DUP3 SWAP1 SUB ADD DUP2 DUP4 DUP8 DUP1 EXTCODESIZE ISZERO DUP1 ISZERO PUSH2 0x65B JUMPI PUSH1 0x0 DUP1 REVERT JUMPDEST POP GAS CALL ISZERO DUP1 ISZERO PUSH2 0x66F JUMPI RETURNDATASIZE PUSH1 0x0 DUP1 RETURNDATACOPY RETURNDATASIZE PUSH1 0x0 REVERT JUMPDEST POP POP POP POP DUP1 PUSH1 0x1 PUSH1 0x1 PUSH1 0xA0 SHL SUB AND PUSH4 0xD547741F DUP3 PUSH1 0x1 PUSH1 0x1 PUSH1 0xA0 SHL SUB AND PUSH4 0xA217FDDF PUSH1 0x40 MLOAD DUP2 PUSH4 0xFFFFFFFF AND PUSH1 0xE0 SHL DUP2 MSTORE PUSH1 0x4 ADD PUSH1 0x20 PUSH1 0x40 MLOAD DUP1 DUP4 SUB DUP2 DUP7 DUP1 EXTCODESIZE ISZERO DUP1 ISZERO PUSH2 0x6BB JUMPI PUSH1 0x0 DUP1 REVERT JUMPDEST POP GAS STATICCALL ISZERO DUP1 ISZERO PUSH2 0x6CF JUMPI RETURNDATASIZE PUSH1 0x0 DUP1 RETURNDATACOPY RETURNDATASIZE PUSH1 0x0 REVERT JUMPDEST POP POP POP POP PUSH1 0x40 MLOAD RETURNDATASIZE PUSH1 0x20 DUP2 LT ISZERO PUSH2 0x6E5 JUMPI PUSH1 0x0 DUP1 REVERT JUMPDEST POP MLOAD PUSH1 0x40 DUP1 MLOAD PUSH32 0xFFFFFFFF00000000000000000000000000000000000000000000000000000000 PUSH1 0xE0 DUP6 SWAP1 SHL AND DUP2 MSTORE PUSH1 0x4 DUP2 ADD SWAP3 SWAP1 SWAP3 MSTORE ADDRESS PUSH1 0x24 DUP4 ADD MSTORE MLOAD PUSH1 0x44 DUP1 DUP4 ADD SWAP3 PUSH1 0x0 SWAP3 SWAP2 SWAP1 DUP3 SWAP1 SUB ADD DUP2 DUP4 DUP8 DUP1 EXTCODESIZE ISZERO DUP1 ISZERO PUSH2 0x743 JUMPI PUSH1 0x0 DUP1 REVERT JUMPDEST POP GAS CALL ISZERO DUP1 ISZERO PUSH2 0x757 JUMPI RETURNDATASIZE PUSH1 0x0 DUP1 RETURNDATACOPY RETURNDATASIZE PUSH1 0x0 REVERT JUMPDEST POP POP TIMESTAMP PUSH1 0x7 SSTORE POP POP PUSH1 0x8 DUP1 SLOAD PUSH1 0x3 SWAP2 SWAP1 PUSH32 0xFFFFFFFFFFFFFFFFFFFFFFFFFFFFFFFFFFFFFFFFFFFFFFFFFFFFFFFFFFFFFF00 AND PUSH1 0x1 DUP4 JUMPDEST MUL OR SWAP1 SSTORE POP POP POP PUSH2 0x79C PUSH2 0x2DA3 JUMP JUMPDEST JUMP JUMPDEST PUSH1 0x5 SLOAD DUP2 JUMP JUMPDEST PUSH2 0x7AC PUSH2 0x2AF6 JUMP JUMPDEST PUSH32 0x0 TIMESTAMP LT ISZERO PUSH2 0x83B JUMPI PUSH1 0x40 DUP1 MLOAD PUSH32 0x8C379A000000000000000000000000000000000000000000000000000000000 DUP2 MSTORE PUSH1 0x20 PUSH1 0x4 DUP3 ADD MSTORE PUSH1 0x18 PUSH1 0x24 DUP3 ADD MSTORE PUSH32 0x4E6F7420726561647920666F722061637469766174696F6E0000000000000000 PUSH1 0x44 DUP3 ADD MSTORE SWAP1 MLOAD SWAP1 DUP2 SWAP1 SUB PUSH1 0x64 ADD SWAP1 REVERT JUMPDEST PUSH1 0x0 PUSH1 0x8 SLOAD PUSH1 0xFF AND PUSH1 0x3 DUP2 GT ISZERO PUSH2 0x84E JUMPI INVALID JUMPDEST EQ PUSH2 0x8BA JUMPI PUSH1 0x40 DUP1 MLOAD PUSH32 0x8C379A000000000000000000000000000000000000000000000000000000000 DUP2 MSTORE PUSH1 0x20 PUSH1 0x4 DUP3 ADD MSTORE PUSH1 0x1C PUSH1 0x24 DUP3 ADD MSTORE PUSH32 0x4669727374207374657020616C726561647920706572666F726D656400000000 PUSH1 0x44 DUP3 ADD MSTORE SWAP1 MLOAD SWAP1 DUP2 SWAP1 SUB PUSH1 0x64 ADD SWAP1 REVERT JUMPDEST PUSH1 0x0 PUSH2 0x8C4 PUSH2 0x1E92 JUMP JUMPDEST SWAP1 POP PUSH32 0x0 PUSH1 0x1 PUSH1 0x1 PUSH1 0xA0 SHL SUB AND PUSH4 0x91D14854 PUSH32 0x0 PUSH1 0x1 PUSH1 0x1 PUSH1 0xA0 SHL SUB AND PUSH4 0xA217FDDF PUSH1 0x40 MLOAD DUP2 PUSH4 0xFFFFFFFF AND PUSH1 0xE0 SHL DUP2 MSTORE PUSH1 0x4 ADD PUSH1 0x20 PUSH1 0x40 MLOAD DUP1 DUP4 SUB DUP2 DUP7 DUP1 EXTCODESIZE ISZERO DUP1 ISZERO PUSH2 0x94E JUMPI PUSH1 0x0 DUP1 REVERT JUMPDEST POP GAS STATICCALL ISZERO DUP1 ISZERO PUSH2 0x962 JUMPI RETURNDATASIZE PUSH1 0x0 DUP1 RETURNDATACOPY RETURNDATASIZE PUSH1 0x0 REVERT JUMPDEST POP POP POP POP PUSH1 0x40 MLOAD RETURNDATASIZE PUSH1 0x20 DUP2 LT ISZERO PUSH2 0x978 JUMPI PUSH1 0x0 DUP1 REVERT JUMPDEST POP MLOAD PUSH1 0x40 DUP1 MLOAD PUSH32 0xFFFFFFFF00000000000000000000000000000000000000000000000000000000 PUSH1 0xE0 DUP6 SWAP1 SHL AND DUP2 MSTORE PUSH1 0x4 DUP2 ADD SWAP3 SWAP1 SWAP3 MSTORE ADDRESS PUSH1 0x24 DUP4 ADD MSTORE MLOAD PUSH1 0x44 DUP1 DUP4 ADD SWAP3 PUSH1 0x20 SWAP3 SWAP2 SWAP1 DUP3 SWAP1 SUB ADD DUP2 DUP7 DUP1 EXTCODESIZE ISZERO DUP1 ISZERO PUSH2 0x9D5 JUMPI PUSH1 0x0 DUP1 REVERT JUMPDEST POP GAS STATICCALL ISZERO DUP1 ISZERO PUSH2 0x9E9 JUMPI RETURNDATASIZE PUSH1 0x0 DUP1 RETURNDATACOPY RETURNDATASIZE PUSH1 0x0 REVERT JUMPDEST POP POP POP POP PUSH1 0x40 MLOAD RETURNDATASIZE PUSH1 0x20 DUP2 LT ISZERO PUSH2 0x9FF JUMPI PUSH1 0x0 DUP1 REVERT JUMPDEST POP MLOAD PUSH2 0xA6C JUMPI PUSH1 0x40 DUP1 MLOAD PUSH32 0x8C379A000000000000000000000000000000000000000000000000000000000 DUP2 MSTORE PUSH1 0x20 PUSH1 0x4 DUP3 ADD MSTORE PUSH1 0xD PUSH1 0x24 DUP3 ADD MSTORE PUSH32 0x4E6F742042414C2061646D696E00000000000000000000000000000000000000 PUSH1 0x44 DUP3 ADD MSTORE SWAP1 MLOAD SWAP1 DUP2 SWAP1 SUB PUSH1 0x64 ADD SWAP1 REVERT JUMPDEST PUSH1 0x40 DUP1 MLOAD PUSH32 0x9BE2A88400000000000000000000000000000000000000000000000000000000 DUP2 MSTORE PUSH1 0x0 PUSH1 0x4 DUP3 ADD DUP2 SWAP1 MSTORE ADDRESS PUSH1 0x24 DUP4 ADD MSTORE PUSH1 0x44 DUP3 ADD MSTORE SWAP1 MLOAD PUSH1 0x1 PUSH1 0x1 PUSH1 0xA0 SHL SUB DUP4 AND SWAP2 PUSH4 0x9BE2A884 SWAP2 PUSH1 0x64 DUP1 DUP4 ADD SWAP3 PUSH1 0x20 SWAP3 SWAP2 SWAP1 DUP3 SWAP1 SUB ADD DUP2 DUP7 DUP1 EXTCODESIZE ISZERO DUP1 ISZERO PUSH2 0xAD9 JUMPI PUSH1 0x0 DUP1 REVERT JUMPDEST POP GAS STATICCALL ISZERO DUP1 ISZERO PUSH2 0xAED JUMPI RETURNDATASIZE PUSH1 0x0 DUP1 RETURNDATACOPY RETURNDATASIZE PUSH1 0x0 REVERT JUMPDEST POP POP POP POP PUSH1 0x40 MLOAD RETURNDATASIZE PUSH1 0x20 DUP2 LT ISZERO PUSH2 0xB03 JUMPI PUSH1 0x0 DUP1 REVERT JUMPDEST POP MLOAD PUSH2 0xB70 JUMPI PUSH1 0x40 DUP1 MLOAD PUSH32 0x8C379A000000000000000000000000000000000000000000000000000000000 DUP2 MSTORE PUSH1 0x20 PUSH1 0x4 DUP3 ADD MSTORE PUSH1 0x14 PUSH1 0x24 DUP3 ADD MSTORE PUSH32 0x4E6F7420417574686F72697A65722061646D696E000000000000000000000000 PUSH1 0x44 DUP3 ADD MSTORE SWAP1 MLOAD SWAP1 DUP2 SWAP1 SUB PUSH1 0x64 ADD SWAP1 REVERT JUMPDEST PUSH1 0x0 PUSH2 0xB7A PUSH2 0x2AC3 JUMP JUMPDEST SWAP1 POP DUP1 PUSH1 0x1 PUSH1 0x1 PUSH1 0xA0 SHL SUB AND PUSH32 0x0 PUSH1 0x1 PUSH1 0x1 PUSH1 0xA0 SHL SUB AND PUSH4 0xDFE05031 PUSH1 0x40 MLOAD DUP2 PUSH4 0xFFFFFFFF AND PUSH1 0xE0 SHL DUP2 MSTORE PUSH1 0x4 ADD PUSH1 0x20 PUSH1 0x40 MLOAD DUP1 DUP4 SUB DUP2 DUP7 DUP1 EXTCODESIZE ISZERO DUP1 ISZERO PUSH2 0xBDF JUMPI PUSH1 0x0 DUP1 REVERT JUMPDEST POP GAS STATICCALL ISZERO DUP1 ISZERO PUSH2 0xBF3 JUMPI RETURNDATASIZE PUSH1 0x0 DUP1 RETURNDATACOPY RETURNDATASIZE PUSH1 0x0 REVERT JUMPDEST POP POP POP POP PUSH1 0x40 MLOAD RETURNDATASIZE PUSH1 0x20 DUP2 LT ISZERO PUSH2 0xC09 JUMPI PUSH1 0x0 DUP1 REVERT JUMPDEST POP MLOAD PUSH1 0x40 DUP1 MLOAD PUSH32 0xF851A44000000000000000000000000000000000000000000000000000000000 DUP2 MSTORE SWAP1 MLOAD PUSH1 0x1 PUSH1 0x1 PUSH1 0xA0 SHL SUB SWAP1 SWAP3 AND SWAP2 PUSH4 0xF851A440 SWAP2 PUSH1 0x4 DUP1 DUP3 ADD SWAP3 PUSH1 0x20 SWAP3 SWAP1 SWAP2 SWAP1 DUP3 SWAP1 SUB ADD DUP2 DUP7 DUP1 EXTCODESIZE ISZERO DUP1 ISZERO PUSH2 0xC66 JUMPI PUSH1 0x0 DUP1 REVERT JUMPDEST POP GAS STATICCALL ISZERO DUP1 ISZERO PUSH2 0xC7A JUMPI RETURNDATASIZE PUSH1 0x0 DUP1 RETURNDATACOPY RETURNDATASIZE PUSH1 0x0 REVERT JUMPDEST POP POP POP POP PUSH1 0x40 MLOAD RETURNDATASIZE PUSH1 0x20 DUP2 LT ISZERO PUSH2 0xC90 JUMPI PUSH1 0x0 DUP1 REVERT JUMPDEST POP MLOAD PUSH1 0x1 PUSH1 0x1 PUSH1 0xA0 SHL SUB AND EQ PUSH2 0xCF1 JUMPI PUSH1 0x40 MLOAD PUSH32 0x8C379A000000000000000000000000000000000000000000000000000000000 DUP2 MSTORE PUSH1 0x4 ADD DUP1 DUP1 PUSH1 0x20 ADD DUP3 DUP2 SUB DUP3 MSTORE PUSH1 0x2B DUP2 MSTORE PUSH1 0x20 ADD DUP1 PUSH2 0x35A9 PUSH1 0x2B SWAP2 CODECOPY PUSH1 0x40 ADD SWAP2 POP POP PUSH1 0x40 MLOAD DUP1 SWAP2 SUB SWAP1 REVERT JUMPDEST DUP1 PUSH1 0x1 PUSH1 0x1 PUSH1 0xA0 SHL SUB AND PUSH32 0x0 PUSH1 0x1 PUSH1 0x1 PUSH1 0xA0 SHL SUB AND PUSH4 0xF851A440 PUSH1 0x40 MLOAD DUP2 PUSH4 0xFFFFFFFF AND PUSH1 0xE0 SHL DUP2 MSTORE PUSH1 0x4 ADD PUSH1 0x20 PUSH1 0x40 MLOAD DUP1 DUP4 SUB DUP2 DUP7 DUP1 EXTCODESIZE ISZERO DUP1 ISZERO PUSH2 0xD54 JUMPI PUSH1 0x0 DUP1 REVERT JUMPDEST POP GAS STATICCALL ISZERO DUP1 ISZERO PUSH2 0xD68 JUMPI RETURNDATASIZE PUSH1 0x0 DUP1 RETURNDATACOPY RETURNDATASIZE PUSH1 0x0 REVERT JUMPDEST POP POP POP POP PUSH1 0x40 MLOAD RETURNDATASIZE PUSH1 0x20 DUP2 LT ISZERO PUSH2 0xD7E JUMPI PUSH1 0x0 DUP1 REVERT JUMPDEST POP MLOAD PUSH1 0x1 PUSH1 0x1 PUSH1 0xA0 SHL SUB AND EQ PUSH2 0xDDF JUMPI PUSH1 0x40 MLOAD PUSH32 0x8C379A000000000000000000000000000000000000000000000000000000000 DUP2 MSTORE PUSH1 0x4 ADD DUP1 DUP1 PUSH1 0x20 ADD DUP3 DUP2 SUB DUP3 MSTORE PUSH1 0x2E DUP2 MSTORE PUSH1 0x20 ADD DUP1 PUSH2 0x35D4 PUSH1 0x2E SWAP2 CODECOPY PUSH1 0x40 ADD SWAP2 POP POP PUSH1 0x40 MLOAD DUP1 SWAP2 SUB SWAP1 REVERT JUMPDEST PUSH32 0x0 PUSH1 0x1 PUSH1 0x1 PUSH1 0xA0 SHL SUB AND PUSH4 0x9FBA03A1 PUSH1 0x40 MLOAD DUP2 PUSH4 0xFFFFFFFF AND PUSH1 0xE0 SHL DUP2 MSTORE PUSH1 0x4 ADD PUSH1 0x20 PUSH1 0x40 MLOAD DUP1 DUP4 SUB DUP2 DUP7 DUP1 EXTCODESIZE ISZERO DUP1 ISZERO PUSH2 0xE38 JUMPI PUSH1 0x0 DUP1 REVERT JUMPDEST POP GAS STATICCALL ISZERO DUP1 ISZERO PUSH2 0xE4C JUMPI RETURNDATASIZE PUSH1 0x0 DUP1 RETURNDATACOPY RETURNDATASIZE PUSH1 0x0 REVERT JUMPDEST POP POP POP POP PUSH1 0x40 MLOAD RETURNDATASIZE PUSH1 0x20 DUP2 LT ISZERO PUSH2 0xE62 JUMPI PUSH1 0x0 DUP1 REVERT JUMPDEST POP MLOAD PUSH1 0xF SIGNEXTEND ISZERO PUSH2 0xED3 JUMPI PUSH1 0x40 DUP1 MLOAD PUSH32 0x8C379A000000000000000000000000000000000000000000000000000000000 DUP2 MSTORE PUSH1 0x20 PUSH1 0x4 DUP3 ADD MSTORE PUSH1 0x17 PUSH1 0x24 DUP3 ADD MSTORE PUSH32 0x476175676520747970657320616C726561647920736574000000000000000000 PUSH1 0x44 DUP3 ADD MSTORE SWAP1 MLOAD SWAP1 DUP2 SWAP1 SUB PUSH1 0x64 ADD SWAP1 REVERT JUMPDEST PUSH32 0x0 PUSH1 0x1 PUSH1 0x1 PUSH1 0xA0 SHL SUB AND PUSH4 0x2F2FF15D PUSH32 0x0 PUSH1 0x1 PUSH1 0x1 PUSH1 0xA0 SHL SUB AND PUSH4 0xA217FDDF PUSH1 0x40 MLOAD DUP2 PUSH4 0xFFFFFFFF AND PUSH1 0xE0 SHL DUP2 MSTORE PUSH1 0x4 ADD PUSH1 0x20 PUSH1 0x40 MLOAD DUP1 DUP4 SUB DUP2 DUP7 DUP1 EXTCODESIZE ISZERO DUP1 ISZERO PUSH2 0xF5B JUMPI PUSH1 0x0 DUP1 REVERT JUMPDEST POP GAS STATICCALL ISZERO DUP1 ISZERO PUSH2 0xF6F JUMPI RETURNDATASIZE PUSH1 0x0 DUP1 RETURNDATACOPY RETURNDATASIZE PUSH1 0x0 REVERT JUMPDEST POP POP POP POP PUSH1 0x40 MLOAD RETURNDATASIZE PUSH1 0x20 DUP2 LT ISZERO PUSH2 0xF85 JUMPI PUSH1 0x0 DUP1 REVERT JUMPDEST POP MLOAD PUSH1 0x40 DUP1 MLOAD PUSH32 0xFFFFFFFF00000000000000000000000000000000000000000000000000000000 PUSH1 0xE0 DUP6 SWAP1 SHL AND DUP2 MSTORE PUSH1 0x4 DUP2 ADD SWAP3 SWAP1 SWAP3 MSTORE PUSH1 0x1 PUSH1 0x1 PUSH1 0xA0 SHL SUB PUSH32 0x0 AND PUSH1 0x24 DUP4 ADD MSTORE MLOAD PUSH1 0x44 DUP1 DUP4 ADD SWAP3 PUSH1 0x0 SWAP3 SWAP2 SWAP1 DUP3 SWAP1 SUB ADD DUP2 DUP4 DUP8 DUP1 EXTCODESIZE ISZERO DUP1 ISZERO PUSH2 0x100C JUMPI PUSH1 0x0 DUP1 REVERT JUMPDEST POP GAS CALL ISZERO DUP1 ISZERO PUSH2 0x1020 JUMPI RETURNDATASIZE PUSH1 0x0 DUP1 RETURNDATACOPY RETURNDATASIZE PUSH1 0x0 REVERT JUMPDEST POP POP PUSH1 0x40 DUP1 MLOAD PUSH32 0x851C1BB300000000000000000000000000000000000000000000000000000000 DUP2 MSTORE PUSH32 0xF15F4C000000000000000000000000000000000000000000000000000000000 PUSH1 0x4 DUP3 ADD MSTORE SWAP1 MLOAD PUSH1 0x1 PUSH1 0x1 PUSH1 0xA0 SHL SUB DUP1 DUP8 AND SWAP5 POP PUSH4 0x2F2FF15D SWAP4 POP PUSH32 0x0 AND SWAP2 PUSH4 0x851C1BB3 SWAP2 PUSH1 0x24 DUP1 DUP4 ADD SWAP3 PUSH1 0x20 SWAP3 SWAP2 SWAP1 DUP3 SWAP1 SUB ADD DUP2 DUP7 DUP1 EXTCODESIZE ISZERO DUP1 ISZERO PUSH2 0x10CD JUMPI PUSH1 0x0 DUP1 REVERT JUMPDEST POP GAS STATICCALL ISZERO DUP1 ISZERO PUSH2 0x10E1 JUMPI RETURNDATASIZE PUSH1 0x0 DUP1 RETURNDATACOPY RETURNDATASIZE PUSH1 0x0 REVERT JUMPDEST POP POP POP POP PUSH1 0x40 MLOAD RETURNDATASIZE PUSH1 0x20 DUP2 LT ISZERO PUSH2 0x10F7 JUMPI PUSH1 0x0 DUP1 REVERT JUMPDEST POP MLOAD PUSH1 0x40 DUP1 MLOAD PUSH32 0xFFFFFFFF00000000000000000000000000000000000000000000000000000000 PUSH1 0xE0 DUP6 SWAP1 SHL AND DUP2 MSTORE PUSH1 0x4 DUP2 ADD SWAP3 SWAP1 SWAP3 MSTORE ADDRESS PUSH1 0x24 DUP4 ADD MSTORE MLOAD PUSH1 0x44 DUP1 DUP4 ADD SWAP3 PUSH1 0x0 SWAP3 SWAP2 SWAP1 DUP3 SWAP1 SUB ADD DUP2 DUP4 DUP8 DUP1 EXTCODESIZE ISZERO DUP1 ISZERO PUSH2 0x1155 JUMPI PUSH1 0x0 DUP1 REVERT JUMPDEST POP GAS CALL ISZERO DUP1 ISZERO PUSH2 0x1169 JUMPI RETURNDATASIZE PUSH1 0x0 DUP1 RETURNDATACOPY RETURNDATASIZE PUSH1 0x0 REVERT JUMPDEST POP POP POP POP PUSH32 0x0 PUSH1 0x1 PUSH1 0x1 PUSH1 0xA0 SHL SUB AND PUSH4 0xF15F4C0 PUSH1 0x40 MLOAD DUP2 PUSH4 0xFFFFFFFF AND PUSH1 0xE0 SHL DUP2 MSTORE PUSH1 0x4 ADD PUSH1 0x0 PUSH1 0x40 MLOAD DUP1 DUP4 SUB DUP2 PUSH1 0x0 DUP8 DUP1 EXTCODESIZE ISZERO DUP1 ISZERO PUSH2 0x11C8 JUMPI PUSH1 0x0 DUP1 REVERT JUMPDEST POP GAS CALL ISZERO DUP1 ISZERO PUSH2 0x11DC JUMPI RETURNDATASIZE PUSH1 0x0 DUP1 RETURNDATACOPY RETURNDATASIZE PUSH1 0x0 REVERT JUMPDEST POP POP PUSH1 0x40 DUP1 MLOAD PUSH32 0x851C1BB300000000000000000000000000000000000000000000000000000000 DUP2 MSTORE PUSH32 0x40C10F1900000000000000000000000000000000000000000000000000000000 PUSH1 0x4 DUP3 ADD MSTORE SWAP1 MLOAD PUSH1 0x1 PUSH1 0x1 PUSH1 0xA0 SHL SUB DUP1 DUP8 AND SWAP5 POP PUSH4 0x2F2FF15D SWAP4 POP PUSH32 0x0 AND SWAP2 PUSH4 0x851C1BB3 SWAP2 PUSH1 0x24 DUP1 DUP4 ADD SWAP3 PUSH1 0x20 SWAP3 SWAP2 SWAP1 DUP3 SWAP1 SUB ADD DUP2 DUP7 DUP1 EXTCODESIZE ISZERO DUP1 ISZERO PUSH2 0x1289 JUMPI PUSH1 0x0 DUP1 REVERT JUMPDEST POP GAS STATICCALL ISZERO DUP1 ISZERO PUSH2 0x129D JUMPI RETURNDATASIZE PUSH1 0x0 DUP1 RETURNDATACOPY RETURNDATASIZE PUSH1 0x0 REVERT JUMPDEST POP POP POP POP PUSH1 0x40 MLOAD RETURNDATASIZE PUSH1 0x20 DUP2 LT ISZERO PUSH2 0x12B3 JUMPI PUSH1 0x0 DUP1 REVERT JUMPDEST POP MLOAD PUSH1 0x40 DUP1 MLOAD PUSH32 0xFFFFFFFF00000000000000000000000000000000000000000000000000000000 PUSH1 0xE0 DUP6 SWAP1 SHL AND DUP2 MSTORE PUSH1 0x4 DUP2 ADD SWAP3 SWAP1 SWAP3 MSTORE PUSH1 0x1 PUSH1 0x1 PUSH1 0xA0 SHL SUB PUSH32 0x0 AND PUSH1 0x24 DUP4 ADD MSTORE MLOAD PUSH1 0x44 DUP1 DUP4 ADD SWAP3 PUSH1 0x0 SWAP3 SWAP2 SWAP1 DUP3 SWAP1 SUB ADD DUP2 DUP4 DUP8 DUP1 EXTCODESIZE ISZERO DUP1 ISZERO PUSH2 0x133A JUMPI PUSH1 0x0 DUP1 REVERT JUMPDEST POP GAS CALL ISZERO DUP1 ISZERO PUSH2 0x134E JUMPI RETURNDATASIZE PUSH1 0x0 DUP1 RETURNDATACOPY RETURNDATASIZE PUSH1 0x0 REVERT JUMPDEST POP POP PUSH1 0x40 DUP1 MLOAD PUSH32 0x851C1BB300000000000000000000000000000000000000000000000000000000 DUP2 MSTORE PUSH32 0x92D0D23200000000000000000000000000000000000000000000000000000000 PUSH1 0x4 DUP3 ADD MSTORE SWAP1 MLOAD PUSH1 0x1 PUSH1 0x1 PUSH1 0xA0 SHL SUB DUP1 DUP8 AND SWAP5 POP PUSH4 0x2F2FF15D SWAP4 POP DUP6 AND SWAP2 PUSH4 0x851C1BB3 SWAP2 PUSH1 0x24 DUP1 DUP4 ADD SWAP3 PUSH1 0x20 SWAP3 SWAP2 SWAP1 DUP3 SWAP1 SUB ADD DUP2 DUP7 DUP1 EXTCODESIZE ISZERO DUP1 ISZERO PUSH2 0x13DB JUMPI PUSH1 0x0 DUP1 REVERT JUMPDEST POP GAS STATICCALL ISZERO DUP1 ISZERO PUSH2 0x13EF JUMPI RETURNDATASIZE PUSH1 0x0 DUP1 RETURNDATACOPY RETURNDATASIZE PUSH1 0x0 REVERT JUMPDEST POP POP POP POP PUSH1 0x40 MLOAD RETURNDATASIZE PUSH1 0x20 DUP2 LT ISZERO PUSH2 0x1405 JUMPI PUSH1 0x0 DUP1 REVERT JUMPDEST POP MLOAD PUSH1 0x40 DUP1 MLOAD PUSH32 0xFFFFFFFF00000000000000000000000000000000000000000000000000000000 PUSH1 0xE0 DUP6 SWAP1 SHL AND DUP2 MSTORE PUSH1 0x4 DUP2 ADD SWAP3 SWAP1 SWAP3 MSTORE ADDRESS PUSH1 0x24 DUP4 ADD MSTORE MLOAD PUSH1 0x44 DUP1 DUP4 ADD SWAP3 PUSH1 0x0 SWAP3 SWAP2 SWAP1 DUP3 SWAP1 SUB ADD DUP2 DUP4 DUP8 DUP1 EXTCODESIZE ISZERO DUP1 ISZERO PUSH2 0x1463 JUMPI PUSH1 0x0 DUP1 REVERT JUMPDEST POP GAS CALL ISZERO DUP1 ISZERO PUSH2 0x1477 JUMPI RETURNDATASIZE PUSH1 0x0 DUP1 RETURNDATACOPY RETURNDATASIZE PUSH1 0x0 REVERT JUMPDEST POP POP POP POP PUSH2 0x14B9 PUSH1 0x40 MLOAD DUP1 PUSH1 0x40 ADD PUSH1 0x40 MSTORE DUP1 PUSH1 0x1A DUP2 MSTORE PUSH1 0x20 ADD PUSH32 0x4C6971756964697479204D696E696E6720436F6D6D6974746565000000000000 DUP2 MSTORE POP PUSH2 0x2DAA JUMP JUMPDEST PUSH2 0x14F7 PUSH1 0x40 MLOAD DUP1 PUSH1 0x40 ADD PUSH1 0x40 MSTORE DUP1 PUSH1 0x5 DUP2 MSTORE PUSH1 0x20 ADD PUSH32 0x766542414C000000000000000000000000000000000000000000000000000000 DUP2 MSTORE POP PUSH2 0x2DAA JUMP JUMPDEST PUSH2 0x1535 PUSH1 0x40 MLOAD DUP1 PUSH1 0x40 ADD PUSH1 0x40 MSTORE DUP1 PUSH1 0x8 DUP2 MSTORE PUSH1 0x20 ADD PUSH32 0x457468657265756D000000000000000000000000000000000000000000000000 DUP2 MSTORE POP PUSH2 0x2DAA JUMP JUMPDEST PUSH2 0x1573 PUSH1 0x40 MLOAD DUP1 PUSH1 0x40 ADD PUSH1 0x40 MSTORE DUP1 PUSH1 0x7 DUP2 MSTORE PUSH1 0x20 ADD PUSH32 0x506F6C79676F6E00000000000000000000000000000000000000000000000000 DUP2 MSTORE POP PUSH2 0x2DAA JUMP JUMPDEST PUSH2 0x15B1 PUSH1 0x40 MLOAD DUP1 PUSH1 0x40 ADD PUSH1 0x40 MSTORE DUP1 PUSH1 0x8 DUP2 MSTORE PUSH1 0x20 ADD PUSH32 0x417262697472756D000000000000000000000000000000000000000000000000 DUP2 MSTORE POP PUSH2 0x2DAA JUMP JUMPDEST DUP2 PUSH1 0x1 PUSH1 0x1 PUSH1 0xA0 SHL SUB AND PUSH4 0xD547741F DUP3 PUSH1 0x1 PUSH1 0x1 PUSH1 0xA0 SHL SUB AND PUSH4 0x851C1BB3 PUSH4 0x92D0D232 PUSH1 0xE0 SHL PUSH1 0x40 MLOAD DUP3 PUSH4 0xFFFFFFFF AND PUSH1 0xE0 SHL DUP2 MSTORE PUSH1 0x4 ADD DUP1 DUP3 PUSH28 0xFFFFFFFFFFFFFFFFFFFFFFFFFFFFFFFFFFFFFFFFFFFFFFFFFFFFFFFF NOT AND DUP2 MSTORE PUSH1 0x20 ADD SWAP2 POP POP PUSH1 0x20 PUSH1 0x40 MLOAD DUP1 DUP4 SUB DUP2 DUP7 DUP1 EXTCODESIZE ISZERO DUP1 ISZERO PUSH2 0x162A JUMPI PUSH1 0x0 DUP1 REVERT JUMPDEST POP GAS STATICCALL ISZERO DUP1 ISZERO PUSH2 0x163E JUMPI RETURNDATASIZE PUSH1 0x0 DUP1 RETURNDATACOPY RETURNDATASIZE PUSH1 0x0 REVERT JUMPDEST POP POP POP POP PUSH1 0x40 MLOAD RETURNDATASIZE PUSH1 0x20 DUP2 LT ISZERO PUSH2 0x1654 JUMPI PUSH1 0x0 DUP1 REVERT JUMPDEST POP MLOAD PUSH1 0x40 DUP1 MLOAD PUSH32 0xFFFFFFFF00000000000000000000000000000000000000000000000000000000 PUSH1 0xE0 DUP6 SWAP1 SHL AND DUP2 MSTORE PUSH1 0x4 DUP2 ADD SWAP3 SWAP1 SWAP3 MSTORE ADDRESS PUSH1 0x24 DUP4 ADD MSTORE MLOAD PUSH1 0x44 DUP1 DUP4 ADD SWAP3 PUSH1 0x0 SWAP3 SWAP2 SWAP1 DUP3 SWAP1 SUB ADD DUP2 DUP4 DUP8 DUP1 EXTCODESIZE ISZERO DUP1 ISZERO PUSH2 0x16B2 JUMPI PUSH1 0x0 DUP1 REVERT JUMPDEST POP GAS CALL ISZERO DUP1 ISZERO PUSH2 0x16C6 JUMPI RETURNDATASIZE PUSH1 0x0 DUP1 RETURNDATACOPY RETURNDATASIZE PUSH1 0x0 REVERT JUMPDEST POP POP PUSH1 0x40 DUP1 MLOAD PUSH32 0x851C1BB300000000000000000000000000000000000000000000000000000000 DUP2 MSTORE PUSH32 0x3A04F90000000000000000000000000000000000000000000000000000000000 PUSH1 0x4 DUP3 ADD MSTORE SWAP1 MLOAD PUSH1 0x1 PUSH1 0x1 PUSH1 0xA0 SHL SUB DUP1 DUP8 AND SWAP5 POP PUSH4 0x2F2FF15D SWAP4 POP DUP6 AND SWAP2 PUSH4 0x851C1BB3 SWAP2 PUSH1 0x24 DUP1 DUP4 ADD SWAP3 PUSH1 0x20 SWAP3 SWAP2 SWAP1 DUP3 SWAP1 SUB ADD DUP2 DUP7 DUP1 EXTCODESIZE ISZERO DUP1 ISZERO PUSH2 0x1753 JUMPI PUSH1 0x0 DUP1 REVERT JUMPDEST POP GAS STATICCALL ISZERO DUP1 ISZERO PUSH2 0x1767 JUMPI RETURNDATASIZE PUSH1 0x0 DUP1 RETURNDATACOPY RETURNDATASIZE PUSH1 0x0 REVERT JUMPDEST POP POP POP POP PUSH1 0x40 MLOAD RETURNDATASIZE PUSH1 0x20 DUP2 LT ISZERO PUSH2 0x177D JUMPI PUSH1 0x0 DUP1 REVERT JUMPDEST POP MLOAD PUSH1 0x40 DUP1 MLOAD PUSH32 0xFFFFFFFF00000000000000000000000000000000000000000000000000000000 PUSH1 0xE0 DUP6 SWAP1 SHL AND DUP2 MSTORE PUSH1 0x4 DUP2 ADD SWAP3 SWAP1 SWAP3 MSTORE PUSH1 0x1 PUSH1 0x1 PUSH1 0xA0 SHL SUB PUSH32 0x0 AND PUSH1 0x24 DUP4 ADD MSTORE MLOAD PUSH1 0x44 DUP1 DUP4 ADD SWAP3 PUSH1 0x0 SWAP3 SWAP2 SWAP1 DUP3 SWAP1 SUB ADD DUP2 DUP4 DUP8 DUP1 EXTCODESIZE ISZERO DUP1 ISZERO PUSH2 0x1804 JUMPI PUSH1 0x0 DUP1 REVERT JUMPDEST POP GAS CALL ISZERO DUP1 ISZERO PUSH2 0x1818 JUMPI RETURNDATASIZE PUSH1 0x0 DUP1 RETURNDATACOPY RETURNDATASIZE PUSH1 0x0 REVERT JUMPDEST POP POP PUSH1 0x40 DUP1 MLOAD PUSH32 0x851C1BB300000000000000000000000000000000000000000000000000000000 DUP2 MSTORE PUSH32 0x3A04F90000000000000000000000000000000000000000000000000000000000 PUSH1 0x4 DUP3 ADD MSTORE SWAP1 MLOAD PUSH1 0x1 PUSH1 0x1 PUSH1 0xA0 SHL SUB DUP1 DUP8 AND SWAP5 POP PUSH4 0x2F2FF15D SWAP4 POP DUP6 AND SWAP2 PUSH4 0x851C1BB3 SWAP2 PUSH1 0x24 DUP1 DUP4 ADD SWAP3 PUSH1 0x20 SWAP3 SWAP2 SWAP1 DUP3 SWAP1 SUB ADD DUP2 DUP7 DUP1 EXTCODESIZE ISZERO DUP1 ISZERO PUSH2 0x18A5 JUMPI PUSH1 0x0 DUP1 REVERT JUMPDEST POP GAS STATICCALL ISZERO DUP1 ISZERO PUSH2 0x18B9 JUMPI RETURNDATASIZE PUSH1 0x0 DUP1 RETURNDATACOPY RETURNDATASIZE PUSH1 0x0 REVERT JUMPDEST POP POP POP POP PUSH1 0x40 MLOAD RETURNDATASIZE PUSH1 0x20 DUP2 LT ISZERO PUSH2 0x18CF JUMPI PUSH1 0x0 DUP1 REVERT JUMPDEST POP MLOAD PUSH1 0x40 DUP1 MLOAD PUSH32 0xFFFFFFFF00000000000000000000000000000000000000000000000000000000 PUSH1 0xE0 DUP6 SWAP1 SHL AND DUP2 MSTORE PUSH1 0x4 DUP2 ADD SWAP3 SWAP1 SWAP3 MSTORE ADDRESS PUSH1 0x24 DUP4 ADD MSTORE MLOAD PUSH1 0x44 DUP1 DUP4 ADD SWAP3 PUSH1 0x0 SWAP3 SWAP2 SWAP1 DUP3 SWAP1 SUB ADD DUP2 DUP4 DUP8 DUP1 EXTCODESIZE ISZERO DUP1 ISZERO PUSH2 0x192D JUMPI PUSH1 0x0 DUP1 REVERT JUMPDEST POP GAS CALL ISZERO DUP1 ISZERO PUSH2 0x1941 JUMPI RETURNDATASIZE PUSH1 0x0 DUP1 RETURNDATACOPY RETURNDATASIZE PUSH1 0x0 REVERT JUMPDEST POP POP POP POP PUSH2 0x1974 PUSH1 0x0 PUSH1 0x40 MLOAD DUP1 PUSH1 0x60 ADD PUSH1 0x40 MSTORE DUP1 PUSH1 0x25 DUP2 MSTORE PUSH1 0x20 ADD PUSH2 0x3532 PUSH1 0x25 SWAP2 CODECOPY PUSH1 0x1 SLOAD PUSH1 0x1 PUSH1 0x1 PUSH1 0xA0 SHL SUB AND PUSH2 0x3091 JUMP JUMPDEST PUSH2 0x19A3 PUSH1 0x1 PUSH1 0x40 MLOAD DUP1 PUSH1 0x60 ADD PUSH1 0x40 MSTORE DUP1 PUSH1 0x2B DUP2 MSTORE PUSH1 0x20 ADD PUSH2 0x3557 PUSH1 0x2B SWAP2 CODECOPY PUSH1 0x2 SLOAD PUSH1 0x1 PUSH1 0x1 PUSH1 0xA0 SHL SUB AND PUSH2 0x3091 JUMP JUMPDEST PUSH2 0x19D2 PUSH1 0x3 PUSH1 0x40 MLOAD DUP1 PUSH1 0x60 ADD PUSH1 0x40 MSTORE DUP1 PUSH1 0x2D DUP2 MSTORE PUSH1 0x20 ADD PUSH2 0x3602 PUSH1 0x2D SWAP2 CODECOPY PUSH1 0x3 SLOAD PUSH1 0x1 PUSH1 0x1 PUSH1 0xA0 SHL SUB AND PUSH2 0x3091 JUMP JUMPDEST PUSH2 0x1A01 PUSH1 0x4 PUSH1 0x40 MLOAD DUP1 PUSH1 0x60 ADD PUSH1 0x40 MSTORE DUP1 PUSH1 0x2E DUP2 MSTORE PUSH1 0x20 ADD PUSH2 0x362F PUSH1 0x2E SWAP2 CODECOPY PUSH1 0x4 SLOAD PUSH1 0x1 PUSH1 0x1 PUSH1 0xA0 SHL SUB AND PUSH2 0x3091 JUMP JUMPDEST DUP2 PUSH1 0x1 PUSH1 0x1 PUSH1 0xA0 SHL SUB AND PUSH4 0xD547741F DUP3 PUSH1 0x1 PUSH1 0x1 PUSH1 0xA0 SHL SUB AND PUSH4 0x851C1BB3 PUSH4 0x3A04F900 PUSH1 0xE0 SHL PUSH1 0x40 MLOAD DUP3 PUSH4 0xFFFFFFFF AND PUSH1 0xE0 SHL DUP2 MSTORE PUSH1 0x4 ADD DUP1 DUP3 PUSH28 0xFFFFFFFFFFFFFFFFFFFFFFFFFFFFFFFFFFFFFFFFFFFFFFFFFFFFFFFF NOT AND DUP2 MSTORE PUSH1 0x20 ADD SWAP2 POP POP PUSH1 0x20 PUSH1 0x40 MLOAD DUP1 DUP4 SUB DUP2 DUP7 DUP1 EXTCODESIZE ISZERO DUP1 ISZERO PUSH2 0x1A7A JUMPI PUSH1 0x0 DUP1 REVERT JUMPDEST POP GAS STATICCALL ISZERO DUP1 ISZERO PUSH2 0x1A8E JUMPI RETURNDATASIZE PUSH1 0x0 DUP1 RETURNDATACOPY RETURNDATASIZE PUSH1 0x0 REVERT JUMPDEST POP POP POP POP PUSH1 0x40 MLOAD RETURNDATASIZE PUSH1 0x20 DUP2 LT ISZERO PUSH2 0x1AA4 JUMPI PUSH1 0x0 DUP1 REVERT JUMPDEST POP MLOAD PUSH1 0x40 DUP1 MLOAD PUSH32 0xFFFFFFFF00000000000000000000000000000000000000000000000000000000 PUSH1 0xE0 DUP6 SWAP1 SHL AND DUP2 MSTORE PUSH1 0x4 DUP2 ADD SWAP3 SWAP1 SWAP3 MSTORE ADDRESS PUSH1 0x24 DUP4 ADD MSTORE MLOAD PUSH1 0x44 DUP1 DUP4 ADD SWAP3 PUSH1 0x0 SWAP3 SWAP2 SWAP1 DUP3 SWAP1 SUB ADD DUP2 DUP4 DUP8 DUP1 EXTCODESIZE ISZERO DUP1 ISZERO PUSH2 0x1B02 JUMPI PUSH1 0x0 DUP1 REVERT JUMPDEST POP GAS CALL ISZERO DUP1 ISZERO PUSH2 0x1B16 JUMPI RETURNDATASIZE PUSH1 0x0 DUP1 RETURNDATACOPY RETURNDATASIZE PUSH1 0x0 REVERT JUMPDEST POP POP PUSH1 0x40 DUP1 MLOAD PUSH32 0x851C1BB300000000000000000000000000000000000000000000000000000000 DUP2 MSTORE PUSH32 0xE8DE0D4D00000000000000000000000000000000000000000000000000000000 PUSH1 0x4 DUP3 ADD MSTORE SWAP1 MLOAD PUSH1 0x1 PUSH1 0x1 PUSH1 0xA0 SHL SUB DUP1 DUP8 AND SWAP5 POP PUSH4 0x2F2FF15D SWAP4 POP DUP6 AND SWAP2 PUSH4 0x851C1BB3 SWAP2 PUSH1 0x24 DUP1 DUP4 ADD SWAP3 PUSH1 0x20 SWAP3 SWAP2 SWAP1 DUP3 SWAP1 SUB ADD DUP2 DUP7 DUP1 EXTCODESIZE ISZERO DUP1 ISZERO PUSH2 0x1BA3 JUMPI PUSH1 0x0 DUP1 REVERT JUMPDEST POP GAS STATICCALL ISZERO DUP1 ISZERO PUSH2 0x1BB7 JUMPI RETURNDATASIZE PUSH1 0x0 DUP1 RETURNDATACOPY RETURNDATASIZE PUSH1 0x0 REVERT JUMPDEST POP POP POP POP PUSH1 0x40 MLOAD RETURNDATASIZE PUSH1 0x20 DUP2 LT ISZERO PUSH2 0x1BCD JUMPI PUSH1 0x0 DUP1 REVERT JUMPDEST POP MLOAD PUSH1 0x1 SLOAD PUSH1 0x40 DUP1 MLOAD PUSH32 0xFFFFFFFF00000000000000000000000000000000000000000000000000000000 PUSH1 0xE0 DUP7 SWAP1 SHL AND DUP2 MSTORE PUSH1 0x4 DUP2 ADD SWAP4 SWAP1 SWAP4 MSTORE PUSH1 0x1 PUSH1 0x1 PUSH1 0xA0 SHL SUB SWAP1 SWAP2 AND PUSH1 0x24 DUP4 ADD MSTORE MLOAD PUSH1 0x44 DUP1 DUP4 ADD SWAP3 PUSH1 0x0 SWAP3 SWAP2 SWAP1 DUP3 SWAP1 SUB ADD DUP2 DUP4 DUP8 DUP1 EXTCODESIZE ISZERO DUP1 ISZERO PUSH2 0x1C38 JUMPI PUSH1 0x0 DUP1 REVERT JUMPDEST POP GAS CALL ISZERO DUP1 ISZERO PUSH2 0x1C4C JUMPI RETURNDATASIZE PUSH1 0x0 DUP1 RETURNDATACOPY RETURNDATASIZE PUSH1 0x0 REVERT JUMPDEST POP POP PUSH1 0x40 DUP1 MLOAD PUSH32 0x851C1BB300000000000000000000000000000000000000000000000000000000 DUP2 MSTORE PUSH32 0x58A3A2400000000000000000000000000000000000000000000000000000000 PUSH1 0x4 DUP3 ADD MSTORE SWAP1 MLOAD PUSH1 0x1 PUSH1 0x1 PUSH1 0xA0 SHL SUB DUP1 DUP8 AND SWAP5 POP PUSH4 0x2F2FF15D SWAP4 POP DUP6 AND SWAP2 PUSH4 0x851C1BB3 SWAP2 PUSH1 0x24 DUP1 DUP4 ADD SWAP3 PUSH1 0x20 SWAP3 SWAP2 SWAP1 DUP3 SWAP1 SUB ADD DUP2 DUP7 DUP1 EXTCODESIZE ISZERO DUP1 ISZERO PUSH2 0x1CD9 JUMPI PUSH1 0x0 DUP1 REVERT JUMPDEST POP GAS STATICCALL ISZERO DUP1 ISZERO PUSH2 0x1CED JUMPI RETURNDATASIZE PUSH1 0x0 DUP1 RETURNDATACOPY RETURNDATASIZE PUSH1 0x0 REVERT JUMPDEST POP POP POP POP PUSH1 0x40 MLOAD RETURNDATASIZE PUSH1 0x20 DUP2 LT ISZERO PUSH2 0x1D03 JUMPI PUSH1 0x0 DUP1 REVERT JUMPDEST POP MLOAD PUSH1 0x1 SLOAD PUSH1 0x40 DUP1 MLOAD PUSH32 0xFFFFFFFF00000000000000000000000000000000000000000000000000000000 PUSH1 0xE0 DUP7 SWAP1 SHL AND DUP2 MSTORE PUSH1 0x4 DUP2 ADD SWAP4 SWAP1 SWAP4 MSTORE PUSH1 0x1 PUSH1 0x1 PUSH1 0xA0 SHL SUB SWAP1 SWAP2 AND PUSH1 0x24 DUP4 ADD MSTORE MLOAD PUSH1 0x44 DUP1 DUP4 ADD SWAP3 PUSH1 0x0 SWAP3 SWAP2 SWAP1 DUP3 SWAP1 SUB ADD DUP2 DUP4 DUP8 DUP1 EXTCODESIZE ISZERO DUP1 ISZERO PUSH2 0x1D6E JUMPI PUSH1 0x0 DUP1 REVERT JUMPDEST POP GAS CALL ISZERO DUP1 ISZERO PUSH2 0x1D82 JUMPI RETURNDATASIZE PUSH1 0x0 DUP1 RETURNDATACOPY RETURNDATASIZE PUSH1 0x0 REVERT JUMPDEST POP POP TIMESTAMP PUSH1 0x5 SSTORE POP POP PUSH1 0x8 DUP1 SLOAD PUSH1 0x1 SWAP2 SWAP1 PUSH32 0xFFFFFFFFFFFFFFFFFFFFFFFFFFFFFFFFFFFFFFFFFFFFFFFFFFFFFFFFFFFFFF00 AND DUP3 DUP1 PUSH2 0x78D JUMP JUMPDEST PUSH8 0x7C5850872380000 DUP2 JUMP JUMPDEST PUSH32 0x0 SWAP1 JUMP JUMPDEST PUSH7 0xF8B0A10E470000 DUP2 JUMP JUMPDEST PUSH32 0x0 SWAP1 JUMP JUMPDEST PUSH8 0x16345785D8A0000 DUP2 JUMP JUMPDEST PUSH32 0x0 SWAP1 JUMP JUMPDEST PUSH1 0x1 SLOAD PUSH1 0x1 PUSH1 0x1 PUSH1 0xA0 SHL SUB AND DUP2 JUMP JUMPDEST PUSH1 0x4 SLOAD PUSH1 0x1 PUSH1 0x1 PUSH1 0xA0 SHL SUB AND DUP2 JUMP JUMPDEST PUSH32 0x0 SWAP1 JUMP JUMPDEST PUSH1 0x7 SLOAD DUP2 JUMP JUMPDEST PUSH1 0x0 PUSH2 0x1E9C PUSH2 0x1E68 JUMP JUMPDEST PUSH1 0x1 PUSH1 0x1 PUSH1 0xA0 SHL SUB AND PUSH4 0xAAABADC5 PUSH1 0x40 MLOAD DUP2 PUSH4 0xFFFFFFFF AND PUSH1 0xE0 SHL DUP2 MSTORE PUSH1 0x4 ADD PUSH1 0x20 PUSH1 0x40 MLOAD DUP1 DUP4 SUB DUP2 DUP7 DUP1 EXTCODESIZE ISZERO DUP1 ISZERO PUSH2 0x1ED4 JUMPI PUSH1 0x0 DUP1 REVERT JUMPDEST POP GAS STATICCALL ISZERO DUP1 ISZERO PUSH2 0x1EE8 JUMPI RETURNDATASIZE PUSH1 0x0 DUP1 RETURNDATACOPY RETURNDATASIZE PUSH1 0x0 REVERT JUMPDEST POP POP POP POP PUSH1 0x40 MLOAD RETURNDATASIZE PUSH1 0x20 DUP2 LT ISZERO PUSH2 0x1EFE JUMPI PUSH1 0x0 DUP1 REVERT JUMPDEST POP MLOAD SWAP1 POP SWAP1 JUMP JUMPDEST PUSH2 0x1F0D PUSH2 0x2AF6 JUMP JUMPDEST PUSH1 0x1 PUSH1 0x8 SLOAD PUSH1 0xFF AND PUSH1 0x3 DUP2 GT ISZERO PUSH2 0x1F20 JUMPI INVALID JUMPDEST EQ PUSH2 0x1F8C JUMPI PUSH1 0x40 DUP1 MLOAD PUSH32 0x8C379A000000000000000000000000000000000000000000000000000000000 DUP2 MSTORE PUSH1 0x20 PUSH1 0x4 DUP3 ADD MSTORE PUSH1 0x1A PUSH1 0x24 DUP3 ADD MSTORE PUSH32 0x4E6F7420726561647920666F72207365636F6E64207374616765000000000000 PUSH1 0x44 DUP3 ADD MSTORE SWAP1 MLOAD SWAP1 DUP2 SWAP1 SUB PUSH1 0x64 ADD SWAP1 REVERT JUMPDEST PUSH1 0x0 PUSH2 0x1F96 PUSH2 0x1E92 JUMP JUMPDEST SWAP1 POP PUSH2 0x1FA0 PUSH2 0x3512 JUMP JUMPDEST POP PUSH1 0x40 DUP1 MLOAD PUSH2 0x400 DUP2 ADD DUP3 MSTORE PUSH20 0x6DF3B2BBB68ADC8B0E302443692037ED9F91B42 DUP2 MSTORE PUSH20 0x72F14B85ADD63488DDAD88F855FDA4A99D6AC9B PUSH1 0x20 DUP1 DUP4 ADD SWAP2 SWAP1 SWAP2 MSTORE PUSH20 0xB09DEA16768F0799065C475BE02919503CB2A35 DUP3 DUP5 ADD MSTORE PUSH20 0x186084FF790C65088BA694DF11758FAE4943EE9E PUSH1 0x60 DUP4 ADD MSTORE PUSH20 0x1E19CF2D73A72EF1332C882F20534B6519BE0276 PUSH1 0x80 DUP4 ADD MSTORE PUSH20 0x27C9F71CC31464B906E0006D4FCBC8900F48F15F PUSH1 0xA0 DUP4 ADD MSTORE PUSH20 0x32296969EF14EB0C6D29669C550D4A0449130230 PUSH1 0xC0 DUP4 ADD MSTORE PUSH20 0x350196326AEAA9B98F1903FB5E8FC2686F85318C PUSH1 0xE0 DUP4 ADD MSTORE PUSH20 0x3E5FA9518EA95C3E533EB377C001702A9AACAA32 PUSH2 0x100 DUP4 ADD MSTORE PUSH20 0x4BD6D86DEBDB9F5413E631AD386C4427DC9D01B2 PUSH2 0x120 DUP4 ADD MSTORE PUSH20 0x51735BDFBFE3FC13DEA8DC6502E2E95898942961 PUSH2 0x140 DUP4 ADD MSTORE PUSH20 0x5D66FFF62C17D841935B60DF5F07F6CF79BD0F47 PUSH2 0x160 DUP4 ADD MSTORE PUSH20 0x5F7FA48D765053F8DD85E052843E12D23E3D7BC5 PUSH2 0x180 DUP4 ADD MSTORE PUSH20 0x702605F43471183158938C1A3E5F5A359D7B31BA PUSH2 0x1A0 DUP4 ADD MSTORE PUSH20 0x7B50775383D3D6F0215A8F290F2C9E2EEBBECEB2 PUSH2 0x1C0 DUP4 ADD MSTORE PUSH20 0x7EDDE0CB05ED19E03A9A47CD5E53FC57FDE1C80C PUSH2 0x1E0 DUP4 ADD MSTORE PUSH20 0x8F4205E1604133D1875A3E771AE7E4F2B0865639 PUSH2 0x200 DUP4 ADD MSTORE PUSH20 0x90291319F1D4EA3AD4DB0DD8FE9E12BAF749E845 PUSH2 0x220 DUP4 ADD MSTORE PUSH20 0x96646936B91D6B9D7D0C47C496AFBF3D6EC7B6F8 PUSH2 0x240 DUP4 ADD MSTORE PUSH20 0x96BA9025311E2F47B840A1F68ED57A3DF1EA8747 PUSH2 0x260 DUP4 ADD MSTORE PUSH20 0xA02E4B3D18D4E6B8D18AC421FBC3DFFF8933C40A PUSH2 0x280 DUP4 ADD MSTORE PUSH20 0xA6F548DF93DE924D73BE7D25DC02554C6BD66DB5 PUSH2 0x2A0 DUP4 ADD MSTORE PUSH20 0xBAEEC99C90E3420EC6C1E7A769D2A856D2898E4D PUSH2 0x2C0 DUP4 ADD MSTORE PUSH20 0xBF96189EEE9357A95C7719F4F5047F76BDE804E5 PUSH2 0x2E0 DUP4 ADD MSTORE PUSH20 0xE2469F47AB58CF9CF59F9822E3C5DE4950A41C49 PUSH2 0x300 DUP4 ADD MSTORE PUSH20 0xE99481DC77691D8E2456E5F3F61C1810ADFC1503 PUSH2 0x320 DUP4 ADD MSTORE PUSH20 0xEC60A5FEF79A92C741CB74FDD6BFC340C0279B01 PUSH2 0x340 DUP4 ADD MSTORE PUSH20 0xEDF085F65B4F6C155E13155502EF925C9A756003 PUSH2 0x360 DUP4 ADD MSTORE PUSH20 0xEFAA1604E82E1B3AF8430B90192C1B9E8197E377 PUSH2 0x380 DUP4 ADD MSTORE PUSH20 0xF4C0DD9B82DA36C07605DF83C8A416F11724D88B PUSH2 0x3A0 DUP4 ADD MSTORE PUSH20 0xF5AAF7EE8C39B651CEBF5F1F50C10631E78E0EF9 PUSH2 0x3C0 DUP4 ADD MSTORE PUSH20 0xFEADD389A5C427952D8FDB8057D6C8BA1156CC56 PUSH2 0x3E0 DUP4 ADD MSTORE DUP3 MLOAD PUSH32 0x851C1BB300000000000000000000000000000000000000000000000000000000 DUP2 MSTORE PUSH32 0x6440E97300000000000000000000000000000000000000000000000000000000 PUSH1 0x4 DUP3 ADD MSTORE SWAP3 MLOAD SWAP2 SWAP3 PUSH1 0x1 PUSH1 0x1 PUSH1 0xA0 SHL SUB DUP6 DUP2 AND SWAP4 PUSH4 0x2F2FF15D SWAP4 PUSH32 0x0 SWAP1 SWAP3 AND SWAP3 PUSH4 0x851C1BB3 SWAP3 PUSH1 0x24 DUP1 DUP4 ADD SWAP4 SWAP2 SWAP3 DUP3 SWAP1 SUB ADD DUP2 DUP7 DUP1 EXTCODESIZE ISZERO DUP1 ISZERO PUSH2 0x23AC JUMPI PUSH1 0x0 DUP1 REVERT JUMPDEST POP GAS STATICCALL ISZERO DUP1 ISZERO PUSH2 0x23C0 JUMPI RETURNDATASIZE PUSH1 0x0 DUP1 RETURNDATACOPY RETURNDATASIZE PUSH1 0x0 REVERT JUMPDEST POP POP POP POP PUSH1 0x40 MLOAD RETURNDATASIZE PUSH1 0x20 DUP2 LT ISZERO PUSH2 0x23D6 JUMPI PUSH1 0x0 DUP1 REVERT JUMPDEST POP MLOAD PUSH1 0x40 DUP1 MLOAD PUSH32 0xFFFFFFFF00000000000000000000000000000000000000000000000000000000 PUSH1 0xE0 DUP6 SWAP1 SHL AND DUP2 MSTORE PUSH1 0x4 DUP2 ADD SWAP3 SWAP1 SWAP3 MSTORE ADDRESS PUSH1 0x24 DUP4 ADD MSTORE MLOAD PUSH1 0x44 DUP1 DUP4 ADD SWAP3 PUSH1 0x0 SWAP3 SWAP2 SWAP1 DUP3 SWAP1 SUB ADD DUP2 DUP4 DUP8 DUP1 EXTCODESIZE ISZERO DUP1 ISZERO PUSH2 0x2434 JUMPI PUSH1 0x0 DUP1 REVERT JUMPDEST POP GAS CALL ISZERO DUP1 ISZERO PUSH2 0x2448 JUMPI RETURNDATASIZE PUSH1 0x0 DUP1 RETURNDATACOPY RETURNDATASIZE PUSH1 0x0 REVERT JUMPDEST POP POP POP POP PUSH32 0x0 PUSH1 0x1 PUSH1 0x1 PUSH1 0xA0 SHL SUB AND PUSH4 0x6440E973 PUSH32 0x0 PUSH1 0x2 PUSH1 0x40 MLOAD DUP4 PUSH4 0xFFFFFFFF AND PUSH1 0xE0 SHL DUP2 MSTORE PUSH1 0x4 ADD DUP1 DUP4 PUSH1 0x1 PUSH1 0x1 PUSH1 0xA0 SHL SUB AND DUP2 MSTORE PUSH1 0x20 ADD DUP3 PUSH1 0x4 DUP2 GT ISZERO PUSH2 0x24CC JUMPI INVALID JUMPDEST DUP2 MSTORE PUSH1 0x20 ADD SWAP3 POP POP POP PUSH1 0x0 PUSH1 0x40 MLOAD DUP1 DUP4 SUB DUP2 PUSH1 0x0 DUP8 DUP1 EXTCODESIZE ISZERO DUP1 ISZERO PUSH2 0x24EF JUMPI PUSH1 0x0 DUP1 REVERT JUMPDEST POP GAS CALL ISZERO DUP1 ISZERO PUSH2 0x2503 JUMPI RETURNDATASIZE PUSH1 0x0 DUP1 RETURNDATACOPY RETURNDATASIZE PUSH1 0x0 REVERT JUMPDEST POP POP PUSH1 0x40 DUP1 MLOAD PUSH32 0x851C1BB300000000000000000000000000000000000000000000000000000000 DUP2 MSTORE PUSH32 0x6440E97300000000000000000000000000000000000000000000000000000000 PUSH1 0x4 DUP3 ADD MSTORE SWAP1 MLOAD PUSH1 0x1 PUSH1 0x1 PUSH1 0xA0 SHL SUB DUP1 DUP8 AND SWAP5 POP PUSH4 0xD547741F SWAP4 POP PUSH32 0x0 AND SWAP2 PUSH4 0x851C1BB3 SWAP2 PUSH1 0x24 DUP1 DUP4 ADD SWAP3 PUSH1 0x20 SWAP3 SWAP2 SWAP1 DUP3 SWAP1 SUB ADD DUP2 DUP7 DUP1 EXTCODESIZE ISZERO DUP1 ISZERO PUSH2 0x25B0 JUMPI PUSH1 0x0 DUP1 REVERT JUMPDEST POP GAS STATICCALL ISZERO DUP1 ISZERO PUSH2 0x25C4 JUMPI RETURNDATASIZE PUSH1 0x0 DUP1 RETURNDATACOPY RETURNDATASIZE PUSH1 0x0 REVERT JUMPDEST POP POP POP POP PUSH1 0x40 MLOAD RETURNDATASIZE PUSH1 0x20 DUP2 LT ISZERO PUSH2 0x25DA JUMPI PUSH1 0x0 DUP1 REVERT JUMPDEST POP MLOAD PUSH1 0x40 DUP1 MLOAD PUSH32 0xFFFFFFFF00000000000000000000000000000000000000000000000000000000 PUSH1 0xE0 DUP6 SWAP1 SHL AND DUP2 MSTORE PUSH1 0x4 DUP2 ADD SWAP3 SWAP1 SWAP3 MSTORE ADDRESS PUSH1 0x24 DUP4 ADD MSTORE MLOAD PUSH1 0x44 DUP1 DUP4 ADD SWAP3 PUSH1 0x0 SWAP3 SWAP2 SWAP1 DUP3 SWAP1 SUB ADD DUP2 DUP4 DUP8 DUP1 EXTCODESIZE ISZERO DUP1 ISZERO PUSH2 0x2638 JUMPI PUSH1 0x0 DUP1 REVERT JUMPDEST POP GAS CALL ISZERO DUP1 ISZERO PUSH2 0x264C JUMPI RETURNDATASIZE PUSH1 0x0 DUP1 RETURNDATACOPY RETURNDATASIZE PUSH1 0x0 REVERT JUMPDEST POP POP PUSH1 0x40 DUP1 MLOAD PUSH32 0x851C1BB300000000000000000000000000000000000000000000000000000000 DUP2 MSTORE PUSH32 0x5E45A27300000000000000000000000000000000000000000000000000000000 PUSH1 0x4 DUP3 ADD MSTORE SWAP1 MLOAD PUSH1 0x1 PUSH1 0x1 PUSH1 0xA0 SHL SUB DUP1 DUP8 AND SWAP5 POP PUSH4 0x2F2FF15D SWAP4 POP PUSH32 0x0 AND SWAP2 PUSH4 0x851C1BB3 SWAP2 PUSH1 0x24 DUP1 DUP4 ADD SWAP3 PUSH1 0x20 SWAP3 SWAP2 SWAP1 DUP3 SWAP1 SUB ADD DUP2 DUP7 DUP1 EXTCODESIZE ISZERO DUP1 ISZERO PUSH2 0x26F9 JUMPI PUSH1 0x0 DUP1 REVERT JUMPDEST POP GAS STATICCALL ISZERO DUP1 ISZERO PUSH2 0x270D JUMPI RETURNDATASIZE PUSH1 0x0 DUP1 RETURNDATACOPY RETURNDATASIZE PUSH1 0x0 REVERT JUMPDEST POP POP POP POP PUSH1 0x40 MLOAD RETURNDATASIZE PUSH1 0x20 DUP2 LT ISZERO PUSH2 0x2723 JUMPI PUSH1 0x0 DUP1 REVERT JUMPDEST POP MLOAD PUSH1 0x40 DUP1 MLOAD PUSH32 0xFFFFFFFF00000000000000000000000000000000000000000000000000000000 PUSH1 0xE0 DUP6 SWAP1 SHL AND DUP2 MSTORE PUSH1 0x4 DUP2 ADD SWAP3 SWAP1 SWAP3 MSTORE ADDRESS PUSH1 0x24 DUP4 ADD MSTORE MLOAD PUSH1 0x44 DUP1 DUP4 ADD SWAP3 PUSH1 0x0 SWAP3 SWAP2 SWAP1 DUP3 SWAP1 SUB ADD DUP2 DUP4 DUP8 DUP1 EXTCODESIZE ISZERO DUP1 ISZERO PUSH2 0x2781 JUMPI PUSH1 0x0 DUP1 REVERT JUMPDEST POP GAS CALL ISZERO DUP1 ISZERO PUSH2 0x2795 JUMPI RETURNDATASIZE PUSH1 0x0 DUP1 RETURNDATACOPY RETURNDATASIZE PUSH1 0x0 REVERT JUMPDEST POP PUSH1 0x20 SWAP3 POP PUSH1 0x0 SWAP2 POP POP JUMPDEST DUP2 DUP2 LT ISZERO PUSH2 0x2902 JUMPI PUSH1 0x0 PUSH32 0x0 PUSH1 0x1 PUSH1 0x1 PUSH1 0xA0 SHL SUB AND PUSH4 0x9ED93318 DUP6 DUP5 PUSH1 0x20 DUP2 LT PUSH2 0x27E5 JUMPI INVALID JUMPDEST PUSH1 0x20 MUL ADD MLOAD PUSH1 0x40 MLOAD DUP3 PUSH4 0xFFFFFFFF AND PUSH1 0xE0 SHL DUP2 MSTORE PUSH1 0x4 ADD DUP1 DUP3 PUSH1 0x1 PUSH1 0x1 PUSH1 0xA0 SHL SUB AND DUP2 MSTORE PUSH1 0x20 ADD SWAP2 POP POP PUSH1 0x20 PUSH1 0x40 MLOAD DUP1 DUP4 SUB DUP2 PUSH1 0x0 DUP8 DUP1 EXTCODESIZE ISZERO DUP1 ISZERO PUSH2 0x2829 JUMPI PUSH1 0x0 DUP1 REVERT JUMPDEST POP GAS CALL ISZERO DUP1 ISZERO PUSH2 0x283D JUMPI RETURNDATASIZE PUSH1 0x0 DUP1 RETURNDATACOPY RETURNDATASIZE PUSH1 0x0 REVERT JUMPDEST POP POP POP POP PUSH1 0x40 MLOAD RETURNDATASIZE PUSH1 0x20 DUP2 LT ISZERO PUSH2 0x2853 JUMPI PUSH1 0x0 DUP1 REVERT JUMPDEST POP MLOAD PUSH1 0x40 DUP1 MLOAD PUSH32 0x5E45A27300000000000000000000000000000000000000000000000000000000 DUP2 MSTORE PUSH1 0x1 PUSH1 0x1 PUSH1 0xA0 SHL SUB DUP1 DUP5 AND PUSH1 0x4 DUP4 ADD MSTORE SWAP2 MLOAD SWAP3 SWAP4 POP PUSH32 0x0 SWAP1 SWAP2 AND SWAP2 PUSH4 0x5E45A273 SWAP2 PUSH1 0x24 DUP1 DUP3 ADD SWAP3 PUSH1 0x0 SWAP3 SWAP1 SWAP2 SWAP1 DUP3 SWAP1 SUB ADD DUP2 DUP4 DUP8 DUP1 EXTCODESIZE ISZERO DUP1 ISZERO PUSH2 0x28DD JUMPI PUSH1 0x0 DUP1 REVERT JUMPDEST POP GAS CALL ISZERO DUP1 ISZERO PUSH2 0x28F1 JUMPI RETURNDATASIZE PUSH1 0x0 DUP1 RETURNDATACOPY RETURNDATASIZE PUSH1 0x0 REVERT JUMPDEST POP POP PUSH1 0x1 SWAP1 SWAP4 ADD SWAP3 POP PUSH2 0x27A0 SWAP2 POP POP JUMP JUMPDEST POP DUP3 PUSH1 0x1 PUSH1 0x1 PUSH1 0xA0 SHL SUB AND PUSH4 0xD547741F PUSH32 0x0 PUSH1 0x1 PUSH1 0x1 PUSH1 0xA0 SHL SUB AND PUSH4 0x851C1BB3 PUSH4 0x5E45A273 PUSH1 0xE0 SHL PUSH1 0x40 MLOAD DUP3 PUSH4 0xFFFFFFFF AND PUSH1 0xE0 SHL DUP2 MSTORE PUSH1 0x4 ADD DUP1 DUP3 PUSH28 0xFFFFFFFFFFFFFFFFFFFFFFFFFFFFFFFFFFFFFFFFFFFFFFFFFFFFFFFF NOT AND DUP2 MSTORE PUSH1 0x20 ADD SWAP2 POP POP PUSH1 0x20 PUSH1 0x40 MLOAD DUP1 DUP4 SUB DUP2 DUP7 DUP1 EXTCODESIZE ISZERO DUP1 ISZERO PUSH2 0x299C JUMPI PUSH1 0x0 DUP1 REVERT JUMPDEST POP GAS STATICCALL ISZERO DUP1 ISZERO PUSH2 0x29B0 JUMPI RETURNDATASIZE PUSH1 0x0 DUP1 RETURNDATACOPY RETURNDATASIZE PUSH1 0x0 REVERT JUMPDEST POP POP POP POP PUSH1 0x40 MLOAD RETURNDATASIZE PUSH1 0x20 DUP2 LT ISZERO PUSH2 0x29C6 JUMPI PUSH1 0x0 DUP1 REVERT JUMPDEST POP MLOAD PUSH1 0x40 DUP1 MLOAD PUSH32 0xFFFFFFFF00000000000000000000000000000000000000000000000000000000 PUSH1 0xE0 DUP6 SWAP1 SHL AND DUP2 MSTORE PUSH1 0x4 DUP2 ADD SWAP3 SWAP1 SWAP3 MSTORE ADDRESS PUSH1 0x24 DUP4 ADD MSTORE MLOAD PUSH1 0x44 DUP1 DUP4 ADD SWAP3 PUSH1 0x0 SWAP3 SWAP2 SWAP1 DUP3 SWAP1 SUB ADD DUP2 DUP4 DUP8 DUP1 EXTCODESIZE ISZERO DUP1 ISZERO PUSH2 0x2A24 JUMPI PUSH1 0x0 DUP1 REVERT JUMPDEST POP GAS CALL ISZERO DUP1 ISZERO PUSH2 0x2A38 JUMPI RETURNDATASIZE PUSH1 0x0 DUP1 RETURNDATACOPY RETURNDATASIZE PUSH1 0x0 REVERT JUMPDEST POP POP TIMESTAMP PUSH1 0x6 SSTORE POP POP PUSH1 0x8 DUP1 SLOAD PUSH1 0x2 SWAP3 POP PUSH32 0xFFFFFFFFFFFFFFFFFFFFFFFFFFFFFFFFFFFFFFFFFFFFFFFFFFFFFFFFFFFFFF00 AND PUSH1 0x1 DUP4 PUSH2 0x78D JUMP JUMPDEST PUSH1 0x8 SLOAD PUSH1 0xFF AND SWAP1 JUMP JUMPDEST PUSH32 0x0 SWAP1 JUMP JUMPDEST PUSH32 0x0 SWAP1 JUMP JUMPDEST PUSH32 0x0 SWAP1 JUMP JUMPDEST PUSH1 0x3 SLOAD PUSH1 0x1 PUSH1 0x1 PUSH1 0xA0 SHL SUB AND DUP2 JUMP JUMPDEST PUSH2 0x2B08 PUSH1 0x2 PUSH1 0x0 SLOAD EQ ISZERO PUSH2 0x190 PUSH2 0x337A JUMP JUMPDEST PUSH1 0x2 PUSH1 0x0 SSTORE JUMP JUMPDEST PUSH2 0x2B17 PUSH2 0x2AC3 JUMP JUMPDEST PUSH1 0x1 PUSH1 0x1 PUSH1 0xA0 SHL SUB AND PUSH4 0x4036176A PUSH32 0x0 PUSH32 0xDB1CA26000000000000000000000000000000000000000000000000000000000 DUP6 PUSH1 0x4 DUP2 GT ISZERO PUSH2 0x2B73 JUMPI INVALID JUMPDEST DUP6 PUSH1 0x40 MLOAD PUSH1 0x24 ADD DUP1 DUP4 PUSH1 0xF SIGNEXTEND DUP2 MSTORE PUSH1 0x20 ADD DUP3 DUP2 MSTORE PUSH1 0x20 ADD SWAP3 POP POP POP PUSH1 0x40 MLOAD PUSH1 0x20 DUP2 DUP4 SUB SUB DUP2 MSTORE SWAP1 PUSH1 0x40 MSTORE SWAP1 PUSH28 0xFFFFFFFFFFFFFFFFFFFFFFFFFFFFFFFFFFFFFFFFFFFFFFFFFFFFFFFF NOT AND PUSH1 0x20 DUP3 ADD DUP1 MLOAD PUSH28 0xFFFFFFFFFFFFFFFFFFFFFFFFFFFFFFFFFFFFFFFFFFFFFFFFFFFFFFFF DUP4 DUP2 DUP4 AND OR DUP4 MSTORE POP POP POP POP PUSH1 0x40 MLOAD DUP4 PUSH4 0xFFFFFFFF AND PUSH1 0xE0 SHL DUP2 MSTORE PUSH1 0x4 ADD DUP1 DUP4 PUSH1 0x1 PUSH1 0x1 PUSH1 0xA0 SHL SUB AND DUP2 MSTORE PUSH1 0x20 ADD DUP1 PUSH1 0x20 ADD DUP3 DUP2 SUB DUP3 MSTORE DUP4 DUP2 DUP2 MLOAD DUP2 MSTORE PUSH1 0x20 ADD SWAP2 POP DUP1 MLOAD SWAP1 PUSH1 0x20 ADD SWAP1 DUP1 DUP4 DUP4 PUSH1 0x0 JUMPDEST DUP4 DUP2 LT ISZERO PUSH2 0x2C46 JUMPI DUP2 DUP2 ADD MLOAD DUP4 DUP3 ADD MSTORE PUSH1 0x20 ADD PUSH2 0x2C2E JUMP JUMPDEST POP POP POP POP SWAP1 POP SWAP1 DUP2 ADD SWAP1 PUSH1 0x1F AND DUP1 ISZERO PUSH2 0x2C73 JUMPI DUP1 DUP3 SUB DUP1 MLOAD PUSH1 0x1 DUP4 PUSH1 0x20 SUB PUSH2 0x100 EXP SUB NOT AND DUP2 MSTORE PUSH1 0x20 ADD SWAP2 POP JUMPDEST POP SWAP4 POP POP POP POP PUSH1 0x0 PUSH1 0x40 MLOAD DUP1 DUP4 SUB DUP2 PUSH1 0x0 DUP8 DUP1 EXTCODESIZE ISZERO DUP1 ISZERO PUSH2 0x2C93 JUMPI PUSH1 0x0 DUP1 REVERT JUMPDEST POP GAS CALL ISZERO DUP1 ISZERO PUSH2 0x2CA7 JUMPI RETURNDATASIZE PUSH1 0x0 DUP1 RETURNDATACOPY RETURNDATASIZE PUSH1 0x0 REVERT JUMPDEST POP POP POP POP PUSH1 0x40 MLOAD RETURNDATASIZE PUSH1 0x0 DUP3 RETURNDATACOPY PUSH1 0x1F RETURNDATASIZE SWAP1 DUP2 ADD PUSH32 0xFFFFFFFFFFFFFFFFFFFFFFFFFFFFFFFFFFFFFFFFFFFFFFFFFFFFFFFFFFFFFFE0 AND DUP3 ADD PUSH1 0x40 MSTORE PUSH1 0x20 DUP2 LT ISZERO PUSH2 0x2CEE JUMPI PUSH1 0x0 DUP1 REVERT JUMPDEST DUP2 ADD SWAP1 DUP1 DUP1 MLOAD PUSH1 0x40 MLOAD SWAP4 SWAP3 SWAP2 SWAP1 DUP5 PUSH5 0x100000000 DUP3 GT ISZERO PUSH2 0x2D0E JUMPI PUSH1 0x0 DUP1 REVERT JUMPDEST SWAP1 DUP4 ADD SWAP1 PUSH1 0x20 DUP3 ADD DUP6 DUP2 GT ISZERO PUSH2 0x2D23 JUMPI PUSH1 0x0 DUP1 REVERT JUMPDEST DUP3 MLOAD PUSH5 0x100000000 DUP2 GT DUP3 DUP3 ADD DUP9 LT OR ISZERO PUSH2 0x2D3D JUMPI PUSH1 0x0 DUP1 REVERT JUMPDEST DUP3 MSTORE POP DUP2 MLOAD PUSH1 0x20 SWAP2 DUP3 ADD SWAP3 SWAP1 SWAP2 ADD SWAP1 DUP1 DUP4 DUP4 PUSH1 0x0 JUMPDEST DUP4 DUP2 LT ISZERO PUSH2 0x2D6A JUMPI DUP2 DUP2 ADD MLOAD DUP4 DUP3 ADD MSTORE PUSH1 0x20 ADD PUSH2 0x2D52 JUMP JUMPDEST POP POP POP POP SWAP1 POP SWAP1 DUP2 ADD SWAP1 PUSH1 0x1F AND DUP1 ISZERO PUSH2 0x2D97 JUMPI DUP1 DUP3 SUB DUP1 MLOAD PUSH1 0x1 DUP4 PUSH1 0x20 SUB PUSH2 0x100 EXP SUB NOT AND DUP2 MSTORE PUSH1 0x20 ADD SWAP2 POP JUMPDEST POP PUSH1 0x40 MSTORE POP POP POP POP POP POP JUMP JUMPDEST PUSH1 0x1 PUSH1 0x0 SSTORE JUMP JUMPDEST PUSH2 0x2DB2 PUSH2 0x2AC3 JUMP JUMPDEST PUSH1 0x1 PUSH1 0x1 PUSH1 0xA0 SHL SUB AND PUSH4 0x4036176A PUSH32 0x0 PUSH4 0x92D0D232 PUSH1 0xE0 SHL DUP5 PUSH1 0x0 PUSH1 0x40 MLOAD PUSH1 0x24 ADD DUP1 DUP1 PUSH1 0x20 ADD DUP4 DUP2 MSTORE PUSH1 0x20 ADD DUP3 DUP2 SUB DUP3 MSTORE DUP5 DUP2 DUP2 MLOAD DUP2 MSTORE PUSH1 0x20 ADD SWAP2 POP DUP1 MLOAD SWAP1 PUSH1 0x20 ADD SWAP1 DUP1 DUP4 DUP4 PUSH1 0x0 JUMPDEST DUP4 DUP2 LT ISZERO PUSH2 0x2E32 JUMPI DUP2 DUP2 ADD MLOAD DUP4 DUP3 ADD MSTORE PUSH1 0x20 ADD PUSH2 0x2E1A JUMP JUMPDEST POP POP POP POP SWAP1 POP SWAP1 DUP2 ADD SWAP1 PUSH1 0x1F AND DUP1 ISZERO PUSH2 0x2E5F JUMPI DUP1 DUP3 SUB DUP1 MLOAD PUSH1 0x1 DUP4 PUSH1 0x20 SUB PUSH2 0x100 EXP SUB NOT AND DUP2 MSTORE PUSH1 0x20 ADD SWAP2 POP JUMPDEST POP PUSH1 0x40 DUP1 MLOAD PUSH32 0xFFFFFFFFFFFFFFFFFFFFFFFFFFFFFFFFFFFFFFFFFFFFFFFFFFFFFFFFFFFFFFE0 DUP2 DUP5 SUB ADD DUP2 MSTORE SWAP2 DUP2 MSTORE PUSH1 0x20 DUP3 ADD DUP1 MLOAD PUSH28 0xFFFFFFFFFFFFFFFFFFFFFFFFFFFFFFFFFFFFFFFFFFFFFFFFFFFFFFFF AND PUSH32 0xFFFFFFFF00000000000000000000000000000000000000000000000000000000 SWAP9 DUP10 AND OR DUP2 MSTORE DUP2 MLOAD PUSH1 0xE0 DUP12 SWAP1 SHL SWAP1 SWAP9 AND DUP9 MSTORE PUSH1 0x1 PUSH1 0x1 PUSH1 0xA0 SHL SUB DUP10 AND PUSH1 0x4 DUP10 ADD SWAP1 DUP2 MSTORE PUSH1 0x24 DUP10 ADD SWAP3 DUP4 MSTORE DUP4 MLOAD PUSH1 0x44 DUP11 ADD MSTORE DUP4 MLOAD SWAP4 SWAP9 SWAP1 SWAP8 POP SWAP2 SWAP6 POP PUSH1 0x64 SWAP1 SWAP2 ADD SWAP4 POP SWAP2 POP DUP1 DUP4 DUP4 PUSH1 0x0 JUMPDEST DUP4 DUP2 LT ISZERO PUSH2 0x2F35 JUMPI DUP2 DUP2 ADD MLOAD DUP4 DUP3 ADD MSTORE PUSH1 0x20 ADD PUSH2 0x2F1D JUMP JUMPDEST POP POP POP POP SWAP1 POP SWAP1 DUP2 ADD SWAP1 PUSH1 0x1F AND DUP1 ISZERO PUSH2 0x2F62 JUMPI DUP1 DUP3 SUB DUP1 MLOAD PUSH1 0x1 DUP4 PUSH1 0x20 SUB PUSH2 0x100 EXP SUB NOT AND DUP2 MSTORE PUSH1 0x20 ADD SWAP2 POP JUMPDEST POP SWAP4 POP POP POP POP PUSH1 0x0 PUSH1 0x40 MLOAD DUP1 DUP4 SUB DUP2 PUSH1 0x0 DUP8 DUP1 EXTCODESIZE ISZERO DUP1 ISZERO PUSH2 0x2F82 JUMPI PUSH1 0x0 DUP1 REVERT JUMPDEST POP GAS CALL ISZERO DUP1 ISZERO PUSH2 0x2F96 JUMPI RETURNDATASIZE PUSH1 0x0 DUP1 RETURNDATACOPY RETURNDATASIZE PUSH1 0x0 REVERT JUMPDEST POP POP POP POP PUSH1 0x40 MLOAD RETURNDATASIZE PUSH1 0x0 DUP3 RETURNDATACOPY PUSH1 0x1F RETURNDATASIZE SWAP1 DUP2 ADD PUSH32 0xFFFFFFFFFFFFFFFFFFFFFFFFFFFFFFFFFFFFFFFFFFFFFFFFFFFFFFFFFFFFFFE0 AND DUP3 ADD PUSH1 0x40 MSTORE PUSH1 0x20 DUP2 LT ISZERO PUSH2 0x2FDD JUMPI PUSH1 0x0 DUP1 REVERT JUMPDEST DUP2 ADD SWAP1 DUP1 DUP1 MLOAD PUSH1 0x40 MLOAD SWAP4 SWAP3 SWAP2 SWAP1 DUP5 PUSH5 0x100000000 DUP3 GT ISZERO PUSH2 0x2FFD JUMPI PUSH1 0x0 DUP1 REVERT JUMPDEST SWAP1 DUP4 ADD SWAP1 PUSH1 0x20 DUP3 ADD DUP6 DUP2 GT ISZERO PUSH2 0x3012 JUMPI PUSH1 0x0 DUP1 REVERT JUMPDEST DUP3 MLOAD PUSH5 0x100000000 DUP2 GT DUP3 DUP3 ADD DUP9 LT OR ISZERO PUSH2 0x302C JUMPI PUSH1 0x0 DUP1 REVERT JUMPDEST DUP3 MSTORE POP DUP2 MLOAD PUSH1 0x20 SWAP2 DUP3 ADD SWAP3 SWAP1 SWAP2 ADD SWAP1 DUP1 DUP4 DUP4 PUSH1 0x0 JUMPDEST DUP4 DUP2 LT ISZERO PUSH2 0x3059 JUMPI DUP2 DUP2 ADD MLOAD DUP4 DUP3 ADD MSTORE PUSH1 0x20 ADD PUSH2 0x3041 JUMP JUMPDEST POP POP POP POP SWAP1 POP SWAP1 DUP2 ADD SWAP1 PUSH1 0x1F AND DUP1 ISZERO PUSH2 0x3086 JUMPI DUP1 DUP3 SUB DUP1 MLOAD PUSH1 0x1 DUP4 PUSH1 0x20 SUB PUSH2 0x100 EXP SUB NOT AND DUP2 MSTORE PUSH1 0x20 ADD SWAP2 POP JUMPDEST POP PUSH1 0x40 MSTORE POP POP POP POP POP JUMP JUMPDEST PUSH1 0x0 PUSH32 0x0 PUSH1 0x1 PUSH1 0x1 PUSH1 0xA0 SHL SUB AND PUSH4 0xB6A46B3B DUP5 PUSH1 0x40 MLOAD DUP3 PUSH4 0xFFFFFFFF AND PUSH1 0xE0 SHL DUP2 MSTORE PUSH1 0x4 ADD DUP1 DUP1 PUSH1 0x20 ADD DUP3 DUP2 SUB DUP3 MSTORE DUP4 DUP2 DUP2 MLOAD DUP2 MSTORE PUSH1 0x20 ADD SWAP2 POP DUP1 MLOAD SWAP1 PUSH1 0x20 ADD SWAP1 DUP1 DUP4 DUP4 PUSH1 0x0 JUMPDEST DUP4 DUP2 LT ISZERO PUSH2 0x310F JUMPI DUP2 DUP2 ADD MLOAD DUP4 DUP3 ADD MSTORE PUSH1 0x20 ADD PUSH2 0x30F7 JUMP JUMPDEST POP POP POP POP SWAP1 POP SWAP1 DUP2 ADD SWAP1 PUSH1 0x1F AND DUP1 ISZERO PUSH2 0x313C JUMPI DUP1 DUP3 SUB DUP1 MLOAD PUSH1 0x1 DUP4 PUSH1 0x20 SUB PUSH2 0x100 EXP SUB NOT AND DUP2 MSTORE PUSH1 0x20 ADD SWAP2 POP JUMPDEST POP SWAP3 POP POP POP PUSH1 0x20 PUSH1 0x40 MLOAD DUP1 DUP4 SUB DUP2 PUSH1 0x0 DUP8 DUP1 EXTCODESIZE ISZERO DUP1 ISZERO PUSH2 0x315B JUMPI PUSH1 0x0 DUP1 REVERT JUMPDEST POP GAS CALL ISZERO DUP1 ISZERO PUSH2 0x316F JUMPI RETURNDATASIZE PUSH1 0x0 DUP1 RETURNDATACOPY RETURNDATASIZE PUSH1 0x0 REVERT JUMPDEST POP POP POP POP PUSH1 0x40 MLOAD RETURNDATASIZE PUSH1 0x20 DUP2 LT ISZERO PUSH2 0x3185 JUMPI PUSH1 0x0 DUP1 REVERT JUMPDEST POP MLOAD PUSH1 0x40 DUP1 MLOAD PUSH32 0x9ED9331800000000000000000000000000000000000000000000000000000000 DUP2 MSTORE PUSH1 0x1 PUSH1 0x1 PUSH1 0xA0 SHL SUB DUP1 DUP5 AND PUSH1 0x4 DUP4 ADD MSTORE SWAP2 MLOAD SWAP3 SWAP4 POP PUSH1 0x0 SWAP3 PUSH32 0x0 SWAP1 SWAP3 AND SWAP2 PUSH4 0x9ED93318 SWAP2 PUSH1 0x24 DUP1 DUP3 ADD SWAP3 PUSH1 0x20 SWAP3 SWAP1 SWAP2 SWAP1 DUP3 SWAP1 SUB ADD DUP2 DUP8 DUP8 DUP1 EXTCODESIZE ISZERO DUP1 ISZERO PUSH2 0x3212 JUMPI PUSH1 0x0 DUP1 REVERT JUMPDEST POP GAS CALL ISZERO DUP1 ISZERO PUSH2 0x3226 JUMPI RETURNDATASIZE PUSH1 0x0 DUP1 RETURNDATACOPY RETURNDATASIZE PUSH1 0x0 REVERT JUMPDEST POP POP POP POP PUSH1 0x40 MLOAD RETURNDATASIZE PUSH1 0x20 DUP2 LT ISZERO PUSH2 0x323C JUMPI PUSH1 0x0 DUP1 REVERT JUMPDEST POP MLOAD SWAP1 POP PUSH2 0x324A DUP2 DUP7 PUSH2 0x338C JUMP JUMPDEST PUSH2 0x3252 PUSH2 0x1E92 JUMP JUMPDEST PUSH1 0x1 PUSH1 0x1 PUSH1 0xA0 SHL SUB AND PUSH4 0x2F2FF15D DUP4 PUSH1 0x1 PUSH1 0x1 PUSH1 0xA0 SHL SUB AND PUSH4 0x851C1BB3 PUSH4 0xC1075329 PUSH1 0xE0 SHL PUSH1 0x40 MLOAD DUP3 PUSH4 0xFFFFFFFF AND PUSH1 0xE0 SHL DUP2 MSTORE PUSH1 0x4 ADD DUP1 DUP3 PUSH28 0xFFFFFFFFFFFFFFFFFFFFFFFFFFFFFFFFFFFFFFFFFFFFFFFFFFFFFFFF NOT AND DUP2 MSTORE PUSH1 0x20 ADD SWAP2 POP POP PUSH1 0x20 PUSH1 0x40 MLOAD DUP1 DUP4 SUB DUP2 DUP7 DUP1 EXTCODESIZE ISZERO DUP1 ISZERO PUSH2 0x32CA JUMPI PUSH1 0x0 DUP1 REVERT JUMPDEST POP GAS STATICCALL ISZERO DUP1 ISZERO PUSH2 0x32DE JUMPI RETURNDATASIZE PUSH1 0x0 DUP1 RETURNDATACOPY RETURNDATASIZE PUSH1 0x0 REVERT JUMPDEST POP POP POP POP PUSH1 0x40 MLOAD RETURNDATASIZE PUSH1 0x20 DUP2 LT ISZERO PUSH2 0x32F4 JUMPI PUSH1 0x0 DUP1 REVERT JUMPDEST POP MLOAD PUSH1 0x40 DUP1 MLOAD PUSH32 0xFFFFFFFF00000000000000000000000000000000000000000000000000000000 PUSH1 0xE0 DUP6 SWAP1 SHL AND DUP2 MSTORE PUSH1 0x4 DUP2 ADD SWAP3 SWAP1 SWAP3 MSTORE PUSH1 0x1 PUSH1 0x1 PUSH1 0xA0 SHL SUB DUP8 AND PUSH1 0x24 DUP4 ADD MSTORE MLOAD PUSH1 0x44 DUP1 DUP4 ADD SWAP3 PUSH1 0x0 SWAP3 SWAP2 SWAP1 DUP3 SWAP1 SUB ADD DUP2 DUP4 DUP8 DUP1 EXTCODESIZE ISZERO DUP1 ISZERO PUSH2 0x335B JUMPI PUSH1 0x0 DUP1 REVERT JUMPDEST POP GAS CALL ISZERO DUP1 ISZERO PUSH2 0x336F JUMPI RETURNDATASIZE PUSH1 0x0 DUP1 RETURNDATACOPY RETURNDATASIZE PUSH1 0x0 REVERT JUMPDEST POP POP POP POP POP POP POP POP POP JUMP JUMPDEST DUP2 PUSH2 0x3388 JUMPI PUSH2 0x3388 DUP2 PUSH2 0x34A5 JUMP JUMPDEST POP POP JUMP JUMPDEST PUSH2 0x3394 PUSH2 0x2AC3 JUMP JUMPDEST PUSH1 0x1 PUSH1 0x1 PUSH1 0xA0 SHL SUB AND PUSH4 0x4036176A PUSH32 0x0 PUSH4 0x3A04F900 PUSH1 0xE0 SHL DUP6 DUP6 PUSH1 0x40 MLOAD PUSH1 0x24 ADD DUP1 DUP4 PUSH1 0x1 PUSH1 0x1 PUSH1 0xA0 SHL SUB AND DUP2 MSTORE PUSH1 0x20 ADD DUP3 PUSH1 0x4 DUP2 GT ISZERO PUSH2 0x33EF JUMPI INVALID JUMPDEST DUP2 MSTORE PUSH1 0x40 DUP1 MLOAD DUP1 DUP4 SUB DUP2 MSTORE PUSH1 0x20 SWAP3 DUP4 ADD DUP3 MSTORE SWAP2 DUP3 ADD DUP1 MLOAD PUSH28 0xFFFFFFFFFFFFFFFFFFFFFFFFFFFFFFFFFFFFFFFFFFFFFFFFFFFFFFFF AND PUSH32 0xFFFFFFFF00000000000000000000000000000000000000000000000000000000 SWAP8 DUP9 AND OR DUP2 MSTORE DUP2 MLOAD PUSH1 0xE0 DUP11 SWAP1 SHL SWAP1 SWAP8 AND DUP8 MSTORE PUSH1 0x1 PUSH1 0x1 PUSH1 0xA0 SHL SUB DUP9 AND PUSH1 0x4 DUP9 ADD SWAP1 DUP2 MSTORE PUSH1 0x24 DUP9 ADD SWAP3 DUP4 MSTORE DUP4 MLOAD PUSH1 0x44 DUP10 ADD MSTORE DUP4 MLOAD SWAP4 SWAP8 SWAP1 SWAP7 POP SWAP2 SWAP5 POP PUSH1 0x64 SWAP1 SWAP2 ADD SWAP3 POP SWAP1 DUP1 DUP4 DUP4 PUSH1 0x0 DUP4 DUP2 LT ISZERO PUSH2 0x2C46 JUMPI DUP2 DUP2 ADD MLOAD DUP4 DUP3 ADD MSTORE PUSH1 0x20 ADD PUSH2 0x2C2E JUMP JUMPDEST PUSH32 0x8C379A000000000000000000000000000000000000000000000000000000000 PUSH1 0x0 SWAP1 DUP2 MSTORE PUSH1 0x20 PUSH1 0x4 MSTORE PUSH1 0x7 PUSH1 0x24 MSTORE PUSH7 0x42414C23000030 PUSH1 0xA DUP1 DUP5 DIV DUP2 DUP2 MOD PUSH1 0x30 SWAP1 DUP2 ADD PUSH1 0x8 SHL SWAP6 DUP4 SWAP1 MOD SWAP6 SWAP1 SWAP6 ADD SWAP1 DUP3 SWAP1 DIV SWAP2 DUP3 MOD SWAP1 SWAP5 ADD PUSH1 0x10 SHL SWAP4 SWAP1 SWAP4 ADD ADD PUSH1 0xC8 SHL PUSH1 0x44 MSTORE PUSH1 0x64 SWAP1 REVERT JUMPDEST PUSH1 0x40 MLOAD DUP1 PUSH2 0x400 ADD PUSH1 0x40 MSTORE DUP1 PUSH1 0x20 SWAP1 PUSH1 0x20 DUP3 MUL DUP1 CALLDATASIZE DUP4 CALLDATACOPY POP SWAP2 SWAP3 SWAP2 POP POP JUMP INVALID 0x4C PUSH10 0x71756964697479204D69 PUSH15 0x696E6720436F6D6D69747465652042 COINBASE 0x4C KECCAK256 0x48 PUSH16 0x6C64657254656D706F72617279207665 TIMESTAMP COINBASE 0x4C KECCAK256 0x4C PUSH10 0x71756964697479204D69 PUSH15 0x696E672042414C20486F6C64657244 PUSH6 0x6C6179206672 PUSH16 0x6D207365636F6E64207374616765206E PUSH16 0x742079657420656C6170736564566F74 PUSH10 0x6E67457363726F77206E PUSH16 0x74206F776E656420627920417574686F PUSH19 0x697A657241646170746F724761756765436F6E PUSH21 0x726F6C6C6572206E6F74206F776E65642062792041 PUSH22 0x74686F72697A657241646170746F7254656D706F7261 PUSH19 0x7920506F6C79676F6E204C6971756964697479 KECCAK256 0x4D PUSH10 0x6E696E672042414C2048 PUSH16 0x6C64657254656D706F72617279204172 PUSH3 0x697472 PUSH22 0x6D204C6971756964697479204D696E696E672042414C KECCAK256 0x48 PUSH16 0x6C646572A26469706673582212201070 0xD8 DUP15 PUSH13 0x6808262D21528A2EA07B11ECD6 0xA9 0xD2 CODECOPY 0x1E MSTORE 0x1F SAR PUSH22 0xD6F60F70925764736F6C634300070100330000000000 "
        },
        "methodIdentifiers": {
          "ARBITRUM_WEIGHT()": "410c2d8e",
          "ETHEREUM_WEIGHT()": "336d4dfc",
          "LM_COMMITTEE_WEIGHT()": "dc8c9ec6",
          "POLYGON_WEIGHT()": "1336e8d4",
          "VEBAL_WEIGHT()": "463d9e93",
          "arbitrumGaugeRecipient()": "844c7750",
          "firstStageActivationTime()": "1e390389",
          "getActivationScheduledTime()": "3b54e680",
          "getAuthorizer()": "aaabadc5",
          "getAuthorizerAdaptor()": "e758d36b",
          "getBalancerMinter()": "dce8b0cd",
          "getBalancerTokenAdmin()": "e6dec36f",
          "getCurrentDeploymentStage()": "b77984e9",
          "getGaugeController()": "58de9ade",
          "getThirdStageDelay()": "42979adc",
          "getVault()": "8d928af8",
          "lmCommitteeMultisig()": "761c4023",
          "performFirstStage()": "2bd46566",
          "performSecondStage()": "b1e70e80",
          "performThirdStage()": "1cdd07a4",
          "polygonGaugeRecipient()": "f5c458ab",
          "secondStageActivationTime()": "0249e6fa",
          "thirdStageActivationTime()": "9912b3d4",
          "veBALGaugeRecipient()": "1235f8a3"
        }
      }
    }
  }
}