{
  "contracts/20220415-veBAL-L2/veBALL2GaugeSetupCoordinator.sol": {
    "veBALL2GaugeSetupCoordinator": {
      "abi": [
        {
          "inputs": [
            {
              "internalType": "contract IAuthorizerAdaptor",
              "name": "authorizerAdaptor",
              "type": "address"
            },
            {
              "internalType": "contract IVotingEscrow",
              "name": "votingEscrow",
              "type": "address"
            },
            {
              "internalType": "contract IGaugeAdder",
              "name": "gaugeAdder",
              "type": "address"
            },
            {
              "internalType": "contract ILiquidityGaugeFactory",
              "name": "ethereumGaugeFactory",
              "type": "address"
            },
            {
              "internalType": "contract ISingleRecipientGaugeFactory",
              "name": "polygonGaugeFactory",
              "type": "address"
            },
            {
              "internalType": "contract ISingleRecipientGaugeFactory",
              "name": "arbitrumGaugeFactory",
              "type": "address"
            }
          ],
          "stateMutability": "nonpayable",
          "type": "constructor"
        },
        {
          "inputs": [],
          "name": "GAUGE_CHECKPOINTER_MULTISIG",
          "outputs": [
            {
              "internalType": "address",
              "name": "",
              "type": "address"
            }
          ],
          "stateMutability": "view",
          "type": "function"
        },
        {
          "inputs": [],
          "name": "firstStageActivationTime",
          "outputs": [
            {
              "internalType": "uint256",
              "name": "",
              "type": "uint256"
            }
          ],
          "stateMutability": "view",
          "type": "function"
        },
        {
          "inputs": [],
          "name": "getAuthorizer",
          "outputs": [
            {
              "internalType": "contract ICurrentAuthorizer",
              "name": "",
              "type": "address"
            }
          ],
          "stateMutability": "view",
          "type": "function"
        },
        {
          "inputs": [],
          "name": "getAuthorizerAdaptor",
          "outputs": [
            {
              "internalType": "contract IAuthorizerAdaptor",
              "name": "",
              "type": "address"
            }
          ],
          "stateMutability": "view",
          "type": "function"
        },
        {
          "inputs": [],
          "name": "getCurrentDeploymentStage",
          "outputs": [
            {
              "internalType": "enum veBALL2GaugeSetupCoordinator.DeploymentStage",
              "name": "",
              "type": "uint8"
            }
          ],
          "stateMutability": "view",
          "type": "function"
        },
        {
          "inputs": [],
          "name": "getVault",
          "outputs": [
            {
              "internalType": "contract IVault",
              "name": "",
              "type": "address"
            }
          ],
          "stateMutability": "view",
          "type": "function"
        },
        {
          "inputs": [],
          "name": "performFirstStage",
          "outputs": [],
          "stateMutability": "nonpayable",
          "type": "function"
        },
        {
          "inputs": [],
          "name": "performSecondStage",
          "outputs": [],
          "stateMutability": "nonpayable",
          "type": "function"
        },
        {
          "inputs": [],
          "name": "secondStageActivationTime",
          "outputs": [
            {
              "internalType": "uint256",
              "name": "",
              "type": "uint256"
            }
          ],
          "stateMutability": "view",
          "type": "function"
        }
      ],
      "evm": {
        "bytecode": {
          "linkReferences": {},
          "object": "6101a06040527f02f35da6a02017154367bc4d47bb6c7d06c7533b000000000000000000000000610180523480156200003757600080fd5b506040516200238838038062002388833981810160405260c08110156200005d57600080fd5b5080516020808301516040808501516060860151608087015160a090970151600160009081556003805460ff1916905584516311b2515f60e31b81529451979895979396929594919390926001600160a01b038a1692638d928af89260048083019392829003018186803b158015620000d557600080fd5b505afa158015620000ea573d6000803e3d6000fd5b505050506040513d60208110156200010157600080fd5b50516001600160601b0319606082811b821660805289811b821660a05288901b1660c05260408051632c6f4d6f60e11b815290519192506001600160a01b038716916358de9ade91600480820192602092909190829003018186803b1580156200016a57600080fd5b505afa1580156200017f573d6000803e3d6000fd5b505050506040513d60208110156200019657600080fd5b50516001600160601b0319606091821b811660e05295811b86166101005293841b8516610120525090821b831661014052901b1661016052505060805160601c60a05160601c60c05160601c60e05160601c6101005160601c6101205160601c6101405160601c6101605160601c6101805160601c6120fe6200028a600039806103595280610809525080610fcb52806111905250806117b05280611975525050806109515280610a645280610dad5280610e8b5280610f8f52806111c952806115925280611670528061177452806119a452505050806106a152806107525280611b0a52508061037d52506120fe6000f3fe608060405234801561001057600080fd5b50600436106100a35760003560e01c80638d928af811610076578063b1e70e801161005b578063b1e70e8014610115578063b77984e91461011d578063e758d36b14610146576100a3565b80638d928af814610105578063aaabadc51461010d576100a3565b80630249e6fa146100a85780631e390389146100c25780632bd46566146100ca5780637e55ac37146100d4575b600080fd5b6100b061014e565b60408051918252519081900360200190f35b6100b0610154565b6100d261015a565b005b6100dc610357565b6040805173ffffffffffffffffffffffffffffffffffffffff9092168252519081900360200190f35b6100dc61037b565b6100dc61039f565b6100d261041f565b610125610696565b6040518082600281111561013557fe5b815260200191505060405180910390f35b6100dc61069f565b60025481565b60015481565b6101626106c3565b600060035460ff16600281111561017557fe5b146101e157604080517f08c379a000000000000000000000000000000000000000000000000000000000815260206004820152601c60248201527f4669727374207374657020616c726561647920706572666f726d656400000000604482015290519081900360640190fd5b60006101eb61039f565b604080517f9be2a8840000000000000000000000000000000000000000000000000000000081526000600482018190523060248301526044820152905191925073ffffffffffffffffffffffffffffffffffffffff831691639be2a88491606480820192602092909190829003018186803b15801561026957600080fd5b505afa15801561027d573d6000803e3d6000fd5b505050506040513d602081101561029357600080fd5b505161030057604080517f08c379a000000000000000000000000000000000000000000000000000000000815260206004820152601460248201527f4e6f7420417574686f72697a65722061646d696e000000000000000000000000604482015290519081900360640190fd5b6103086106dc565b61031061087b565b610318610bb2565b426001908155600380547fffffffffffffffffffffffffffffffffffffffffffffffffffffffffffffff001682805b021790555050610355611309565b565b7f000000000000000000000000000000000000000000000000000000000000000081565b7f000000000000000000000000000000000000000000000000000000000000000090565b60006103a961037b565b73ffffffffffffffffffffffffffffffffffffffff1663aaabadc56040518163ffffffff1660e01b815260040160206040518083038186803b1580156103ee57600080fd5b505afa158015610402573d6000803e3d6000fd5b505050506040513d602081101561041857600080fd5b5051905090565b6104276106c3565b600160035460ff16600281111561043a57fe5b146104a657604080517f08c379a000000000000000000000000000000000000000000000000000000000815260206004820152601a60248201527f4e6f7420726561647920666f72207365636f6e64207374616765000000000000604482015290519081900360640190fd5b60006104b061039f565b604080517f9be2a8840000000000000000000000000000000000000000000000000000000081526000600482018190523060248301526044820152905191925073ffffffffffffffffffffffffffffffffffffffff831691639be2a88491606480820192602092909190829003018186803b15801561052e57600080fd5b505afa158015610542573d6000803e3d6000fd5b505050506040513d602081101561055857600080fd5b50516105c557604080517f08c379a000000000000000000000000000000000000000000000000000000000815260206004820152601460248201527f4e6f7420417574686f72697a65722061646d696e000000000000000000000000604482015290519081900360640190fd5b6105cd611310565b6105d5611a50565b604080517fd547741f000000000000000000000000000000000000000000000000000000008152600060048201819052306024830152915173ffffffffffffffffffffffffffffffffffffffff84169263d547741f926044808201939182900301818387803b15801561064757600080fd5b505af115801561065b573d6000803e3d6000fd5b50504260029081556003805491935091507fffffffffffffffffffffffffffffffffffffffffffffffffffffffffffffff0016600183610347565b60035460ff1690565b7f000000000000000000000000000000000000000000000000000000000000000090565b6106d560026000541415610190611c3c565b6002600055565b60006106e661039f565b604080517f851c1bb30000000000000000000000000000000000000000000000000000000081527fc2c4c5c1000000000000000000000000000000000000000000000000000000006004820152905191925060009173ffffffffffffffffffffffffffffffffffffffff7f0000000000000000000000000000000000000000000000000000000000000000169163851c1bb3916024808301926020929190829003018186803b15801561079857600080fd5b505afa1580156107ac573d6000803e3d6000fd5b505050506040513d60208110156107c257600080fd5b5051604080517f2f2ff15d0000000000000000000000000000000000000000000000000000000081526004810183905273ffffffffffffffffffffffffffffffffffffffff7f000000000000000000000000000000000000000000000000000000000000000081166024830152915192935090841691632f2ff15d9160448082019260009290919082900301818387803b15801561085f57600080fd5b505af1158015610873573d6000803e3d6000fd5b505050505050565b61088361204e565b506040805160608101825273a57453737849a4029325dfab3f6034656644e104815273a6468eca7633246dcb24e5599681767d27d1f978602082015273158772f59fe0d3b75805fc11139b46cbc89f70e59181019190915260006108e561039f565b604080517f851c1bb30000000000000000000000000000000000000000000000000000000081527f5e45a273000000000000000000000000000000000000000000000000000000006004820152905191925060009173ffffffffffffffffffffffffffffffffffffffff7f0000000000000000000000000000000000000000000000000000000000000000169163851c1bb3916024808301926020929190829003018186803b15801561099757600080fd5b505afa1580156109ab573d6000803e3d6000fd5b505050506040513d60208110156109c157600080fd5b5051604080517f2f2ff15d00000000000000000000000000000000000000000000000000000000815260048101839052306024820152905191925073ffffffffffffffffffffffffffffffffffffffff841691632f2ff15d9160448082019260009290919082900301818387803b158015610a3b57600080fd5b505af1158015610a4f573d6000803e3d6000fd5b506003925060009150505b81811015610b1f577f000000000000000000000000000000000000000000000000000000000000000073ffffffffffffffffffffffffffffffffffffffff16635e45a273868360038110610aaa57fe5b60200201516040518263ffffffff1660e01b8152600401808273ffffffffffffffffffffffffffffffffffffffff168152602001915050600060405180830381600087803b158015610afb57600080fd5b505af1158015610b0f573d6000803e3d6000fd5b505060019092019150610a5a9050565b50604080517fd547741f00000000000000000000000000000000000000000000000000000000815260048101849052306024820152905173ffffffffffffffffffffffffffffffffffffffff85169163d547741f91604480830192600092919082900301818387803b158015610b9457600080fd5b505af1158015610ba8573d6000803e3d6000fd5b5050505050505050565b610bba61206c565b50604080516101c08101825273d84d832f47c22cf5413ae4fe2bd9d220fe6e3dc68152737b50775383d3d6f0215a8f290f2c9e2eebbeceb26020820152737c1028bcde7ca03ecf6daaa9cbfa06e931913ead9181019190915273a57eabc36a47dae5f11051c8339385cf95e7723560608201527337a6fc079cad790e556baedda879358e076ef1b3608082015273b556a02642a0f7be8c79932efbc915f6e048514760a0820152734b1137789ff06406a72bace67cd15cf6786844cc60c082015273bd65449babf09be544d68fc7ccf0cebe298fb21460e0820152732246211e715b6567a8f7138180ef61a79678ef4661010082015273f2bbfa122d41ffcf7056441578d108e3c40a7e9961012082015273f081862bf62c24e3c708bdbeda24abe6b55e42f76101408201527328cc04dcd85c4b40c6dad463c628e98728ae949661016082015273dc467db6abda75e62f4809f3a4934ae3aca1c38061018082015273d5cd8328d93bf4bef9824fd288f32c8f0da1c5516101a08201526000610d4161039f565b604080517f851c1bb30000000000000000000000000000000000000000000000000000000081527f6440e973000000000000000000000000000000000000000000000000000000006004820152905191925060009173ffffffffffffffffffffffffffffffffffffffff7f0000000000000000000000000000000000000000000000000000000000000000169163851c1bb3916024808301926020929190829003018186803b158015610df357600080fd5b505afa158015610e07573d6000803e3d6000fd5b505050506040513d6020811015610e1d57600080fd5b5051604080517f851c1bb30000000000000000000000000000000000000000000000000000000081527fbf2972d5000000000000000000000000000000000000000000000000000000006004820152905191925060009173ffffffffffffffffffffffffffffffffffffffff7f0000000000000000000000000000000000000000000000000000000000000000169163851c1bb3916024808301926020929190829003018186803b158015610ed157600080fd5b505afa158015610ee5573d6000803e3d6000fd5b505050506040513d6020811015610efb57600080fd5b5051604080517f2f2ff15d00000000000000000000000000000000000000000000000000000000815260048101859052306024820152905191925073ffffffffffffffffffffffffffffffffffffffff851691632f2ff15d9160448082019260009290919082900301818387803b158015610f7557600080fd5b505af1158015610f89573d6000803e3d6000fd5b505050507f000000000000000000000000000000000000000000000000000000000000000073ffffffffffffffffffffffffffffffffffffffff16636440e9737f000000000000000000000000000000000000000000000000000000000000000060046040518363ffffffff1660e01b8152600401808373ffffffffffffffffffffffffffffffffffffffff16815260200182600481111561102757fe5b815260200192505050600060405180830381600087803b15801561104a57600080fd5b505af115801561105e573d6000803e3d6000fd5b5050604080517fd547741f00000000000000000000000000000000000000000000000000000000815260048101869052306024820152905173ffffffffffffffffffffffffffffffffffffffff8716935063d547741f9250604480830192600092919082900301818387803b1580156110d657600080fd5b505af11580156110ea573d6000803e3d6000fd5b5050604080517f2f2ff15d00000000000000000000000000000000000000000000000000000000815260048101859052306024820152905173ffffffffffffffffffffffffffffffffffffffff87169350632f2ff15d9250604480830192600092919082900301818387803b15801561116257600080fd5b505af1158015611176573d6000803e3d6000fd5b50600e925060009150505b818110156112755760006111c57f00000000000000000000000000000000000000000000000000000000000000008884600e81106111bb57fe5b6020020151611c4e565b90507f000000000000000000000000000000000000000000000000000000000000000073ffffffffffffffffffffffffffffffffffffffff1663bf2972d5826040518263ffffffff1660e01b8152600401808273ffffffffffffffffffffffffffffffffffffffff168152602001915050600060405180830381600087803b15801561125057600080fd5b505af1158015611264573d6000803e3d6000fd5b505060019093019250611181915050565b50604080517fd547741f00000000000000000000000000000000000000000000000000000000815260048101849052306024820152905173ffffffffffffffffffffffffffffffffffffffff86169163d547741f91604480830192600092919082900301818387803b1580156112ea57600080fd5b505af11580156112fe573d6000803e3d6000fd5b505050505050505050565b6001600055565b61131861208b565b506040805161026081018252730fc855f77ce75bb6a5d650d0c4cc92e460c03e258152734b878e9727b9e91fdae37cdd85949f436722018760208201527366750473ce1decba4ef2576a47fd5ff7bf07c4e291810191909152732ac595007563df473449005883f1f2ba3036ebef6060820152733b4d173601f8b36024cd49f7c5859d263385af34608082015273de2f58c43cb222725a96236272c7749e4abf1a2560a08201527373cf9c065bfb9abf76d94787324cfc4f751ac09760c0820152732845e95d2a4efcd14cf5d77b9ba732788b96267f60e082015273b061f502d84f00d1b26568888a8f741cbe352c2361010082015273d65f35e750d5ffb63a3b6c7b4e5d4afe4ca5550d6101208201527325a526adb6925a9f40141567c06430d368232fee610140820152730fd7e9171b4dc9d89e157c2cc9a424cd9c40a03461016082015273bc9f244cf5a774785e726a9157afe3725d93249b610180820152732ccc518b7b6177c2d44771d6b249f85a5a0cc1d46101a08201527364afdb69c22971b2ed289020f78a47e070cfadba6101c0820152736f4d27730d5253148d82283e3ad93eae9264daa36101e0820152736812162860fac498fb6f03339d39d23b5a264152610200820152735ea9c37a3ecf0c82900fbbfd064fe29a427c41ab61022082015273a95e0b91a3f522dde42d5b6a4e430e0bfad0f2f5610240820152600061152661039f565b604080517f851c1bb30000000000000000000000000000000000000000000000000000000081527f6440e973000000000000000000000000000000000000000000000000000000006004820152905191925060009173ffffffffffffffffffffffffffffffffffffffff7f0000000000000000000000000000000000000000000000000000000000000000169163851c1bb3916024808301926020929190829003018186803b1580156115d857600080fd5b505afa1580156115ec573d6000803e3d6000fd5b505050506040513d602081101561160257600080fd5b5051604080517f851c1bb30000000000000000000000000000000000000000000000000000000081527ff87fcfa2000000000000000000000000000000000000000000000000000000006004820152905191925060009173ffffffffffffffffffffffffffffffffffffffff7f0000000000000000000000000000000000000000000000000000000000000000169163851c1bb3916024808301926020929190829003018186803b1580156116b657600080fd5b505afa1580156116ca573d6000803e3d6000fd5b505050506040513d60208110156116e057600080fd5b5051604080517f2f2ff15d00000000000000000000000000000000000000000000000000000000815260048101859052306024820152905191925073ffffffffffffffffffffffffffffffffffffffff851691632f2ff15d9160448082019260009290919082900301818387803b15801561175a57600080fd5b505af115801561176e573d6000803e3d6000fd5b505050507f000000000000000000000000000000000000000000000000000000000000000073ffffffffffffffffffffffffffffffffffffffff16636440e9737f000000000000000000000000000000000000000000000000000000000000000060036040518363ffffffff1660e01b8152600401808373ffffffffffffffffffffffffffffffffffffffff16815260200182600481111561180c57fe5b815260200192505050600060405180830381600087803b15801561182f57600080fd5b505af1158015611843573d6000803e3d6000fd5b5050604080517fd547741f00000000000000000000000000000000000000000000000000000000815260048101869052306024820152905173ffffffffffffffffffffffffffffffffffffffff8716935063d547741f9250604480830192600092919082900301818387803b1580156118bb57600080fd5b505af11580156118cf573d6000803e3d6000fd5b5050604080517f2f2ff15d00000000000000000000000000000000000000000000000000000000815260048101859052306024820152905173ffffffffffffffffffffffffffffffffffffffff87169350632f2ff15d9250604480830192600092919082900301818387803b15801561194757600080fd5b505af115801561195b573d6000803e3d6000fd5b506013925060009150505b818110156112755760006119a07f00000000000000000000000000000000000000000000000000000000000000008884601381106111bb57fe5b90507f000000000000000000000000000000000000000000000000000000000000000073ffffffffffffffffffffffffffffffffffffffff1663f87fcfa2826040518263ffffffff1660e01b8152600401808273ffffffffffffffffffffffffffffffffffffffff168152602001915050600060405180830381600087803b158015611a2b57600080fd5b505af1158015611a3f573d6000803e3d6000fd5b505060019093019250611966915050565b611a586120aa565b5060408051808201909152739fb8312cedfb9b35364ff06311b429a2f4cdf4228152733f829a8303455cb36b7bcf3d1bdc18d5f6946aea60208201526000611a9e61039f565b604080517f851c1bb30000000000000000000000000000000000000000000000000000000081527fab8f0945000000000000000000000000000000000000000000000000000000006004820152905191925060009173ffffffffffffffffffffffffffffffffffffffff7f0000000000000000000000000000000000000000000000000000000000000000169163851c1bb3916024808301926020929190829003018186803b158015611b5057600080fd5b505afa158015611b64573d6000803e3d6000fd5b505050506040513d6020811015611b7a57600080fd5b5051604080517f2f2ff15d00000000000000000000000000000000000000000000000000000000815260048101839052306024820152905191925073ffffffffffffffffffffffffffffffffffffffff841691632f2ff15d9160448082019260009290919082900301818387803b158015611bf457600080fd5b505af1158015611c08573d6000803e3d6000fd5b506002925060009150505b81811015610b1f57611c34858260028110611c2a57fe5b6020020151611d9e565b600101611c13565b81611c4a57611c4a81611fe1565b5050565b60008273ffffffffffffffffffffffffffffffffffffffff16637d5d0d10836040518263ffffffff1660e01b8152600401808273ffffffffffffffffffffffffffffffffffffffff16815260200191505060206040518083038186803b158015611cb757600080fd5b505afa158015611ccb573d6000803e3d6000fd5b505050506040513d6020811015611ce157600080fd5b5051905073ffffffffffffffffffffffffffffffffffffffff8116611d98578273ffffffffffffffffffffffffffffffffffffffff16639ed93318836040518263ffffffff1660e01b8152600401808273ffffffffffffffffffffffffffffffffffffffff168152602001915050602060405180830381600087803b158015611d6957600080fd5b505af1158015611d7d573d6000803e3d6000fd5b505050506040513d6020811015611d9357600080fd5b505190505b92915050565b611da661069f565b604080516004808252602480830184526020830180517bffffffffffffffffffffffffffffffffffffffffffffffffffffffff167fab8f09450000000000000000000000000000000000000000000000000000000017815284517f4036176a00000000000000000000000000000000000000000000000000000000815273ffffffffffffffffffffffffffffffffffffffff8881169482019485529281019586528451604482015284519690921695634036176a9588959493909260649091019180838360005b83811015611e85578181015183820152602001611e6d565b50505050905090810190601f168015611eb25780820380516001836020036101000a031916815260200191505b509350505050600060405180830381600087803b158015611ed257600080fd5b505af1158015611ee6573d6000803e3d6000fd5b505050506040513d6000823e601f3d9081017fffffffffffffffffffffffffffffffffffffffffffffffffffffffffffffffe01682016040526020811015611f2d57600080fd5b8101908080516040519392919084640100000000821115611f4d57600080fd5b908301906020820185811115611f6257600080fd5b8251640100000000811182820188101715611f7c57600080fd5b82525081516020918201929091019080838360005b83811015611fa9578181015183820152602001611f91565b50505050905090810190601f168015611fd65780820380516001836020036101000a031916815260200191505b506040525050505050565b7f08c379a0000000000000000000000000000000000000000000000000000000006000908152602060045260076024526642414c23000030600a808404818106603090810160081b95839006959095019082900491820690940160101b939093010160c81b604452606490fd5b60405180606001604052806003906020820280368337509192915050565b604051806101c00160405280600e906020820280368337509192915050565b6040518061026001604052806013906020820280368337509192915050565b6040518060400160405280600290602082028036833750919291505056fea2646970667358221220ed163f27c2aa4db24d78308d3fbe1a54148ff461f33ba264ba9f905ad166aa9e64736f6c63430007010033",
          "opcodes": "PUSH2 0x1A0 PUSH1 0x40 MSTORE PUSH32 0x2F35DA6A02017154367BC4D47BB6C7D06C7533B000000000000000000000000 PUSH2 0x180 MSTORE CALLVALUE DUP1 ISZERO PUSH3 0x37 JUMPI PUSH1 0x0 DUP1 REVERT JUMPDEST POP PUSH1 0x40 MLOAD PUSH3 0x2388 CODESIZE SUB DUP1 PUSH3 0x2388 DUP4 CODECOPY DUP2 DUP2 ADD PUSH1 0x40 MSTORE PUSH1 0xC0 DUP2 LT ISZERO PUSH3 0x5D JUMPI PUSH1 0x0 DUP1 REVERT JUMPDEST POP DUP1 MLOAD PUSH1 0x20 DUP1 DUP4 ADD MLOAD PUSH1 0x40 DUP1 DUP6 ADD MLOAD PUSH1 0x60 DUP7 ADD MLOAD PUSH1 0x80 DUP8 ADD MLOAD PUSH1 0xA0 SWAP1 SWAP8 ADD MLOAD PUSH1 0x1 PUSH1 0x0 SWAP1 DUP2 SSTORE PUSH1 0x3 DUP1 SLOAD PUSH1 0xFF NOT AND SWAP1 SSTORE DUP5 MLOAD PUSH4 0x11B2515F PUSH1 0xE3 SHL DUP2 MSTORE SWAP5 MLOAD SWAP8 SWAP9 SWAP6 SWAP8 SWAP4 SWAP7 SWAP3 SWAP6 SWAP5 SWAP2 SWAP4 SWAP1 SWAP3 PUSH1 0x1 PUSH1 0x1 PUSH1 0xA0 SHL SUB DUP11 AND SWAP3 PUSH4 0x8D928AF8 SWAP3 PUSH1 0x4 DUP1 DUP4 ADD SWAP4 SWAP3 DUP3 SWAP1 SUB ADD DUP2 DUP7 DUP1 EXTCODESIZE ISZERO DUP1 ISZERO PUSH3 0xD5 JUMPI PUSH1 0x0 DUP1 REVERT JUMPDEST POP GAS STATICCALL ISZERO DUP1 ISZERO PUSH3 0xEA JUMPI RETURNDATASIZE PUSH1 0x0 DUP1 RETURNDATACOPY RETURNDATASIZE PUSH1 0x0 REVERT JUMPDEST POP POP POP POP PUSH1 0x40 MLOAD RETURNDATASIZE PUSH1 0x20 DUP2 LT ISZERO PUSH3 0x101 JUMPI PUSH1 0x0 DUP1 REVERT JUMPDEST POP MLOAD PUSH1 0x1 PUSH1 0x1 PUSH1 0x60 SHL SUB NOT PUSH1 0x60 DUP3 DUP2 SHL DUP3 AND PUSH1 0x80 MSTORE DUP10 DUP2 SHL DUP3 AND PUSH1 0xA0 MSTORE DUP9 SWAP1 SHL AND PUSH1 0xC0 MSTORE PUSH1 0x40 DUP1 MLOAD PUSH4 0x2C6F4D6F PUSH1 0xE1 SHL DUP2 MSTORE SWAP1 MLOAD SWAP2 SWAP3 POP PUSH1 0x1 PUSH1 0x1 PUSH1 0xA0 SHL SUB DUP8 AND SWAP2 PUSH4 0x58DE9ADE SWAP2 PUSH1 0x4 DUP1 DUP3 ADD SWAP3 PUSH1 0x20 SWAP3 SWAP1 SWAP2 SWAP1 DUP3 SWAP1 SUB ADD DUP2 DUP7 DUP1 EXTCODESIZE ISZERO DUP1 ISZERO PUSH3 0x16A JUMPI PUSH1 0x0 DUP1 REVERT JUMPDEST POP GAS STATICCALL ISZERO DUP1 ISZERO PUSH3 0x17F JUMPI RETURNDATASIZE PUSH1 0x0 DUP1 RETURNDATACOPY RETURNDATASIZE PUSH1 0x0 REVERT JUMPDEST POP POP POP POP PUSH1 0x40 MLOAD RETURNDATASIZE PUSH1 0x20 DUP2 LT ISZERO PUSH3 0x196 JUMPI PUSH1 0x0 DUP1 REVERT JUMPDEST POP MLOAD PUSH1 0x1 PUSH1 0x1 PUSH1 0x60 SHL SUB NOT PUSH1 0x60 SWAP2 DUP3 SHL DUP2 AND PUSH1 0xE0 MSTORE SWAP6 DUP2 SHL DUP7 AND PUSH2 0x100 MSTORE SWAP4 DUP5 SHL DUP6 AND PUSH2 0x120 MSTORE POP SWAP1 DUP3 SHL DUP4 AND PUSH2 0x140 MSTORE SWAP1 SHL AND PUSH2 0x160 MSTORE POP POP PUSH1 0x80 MLOAD PUSH1 0x60 SHR PUSH1 0xA0 MLOAD PUSH1 0x60 SHR PUSH1 0xC0 MLOAD PUSH1 0x60 SHR PUSH1 0xE0 MLOAD PUSH1 0x60 SHR PUSH2 0x100 MLOAD PUSH1 0x60 SHR PUSH2 0x120 MLOAD PUSH1 0x60 SHR PUSH2 0x140 MLOAD PUSH1 0x60 SHR PUSH2 0x160 MLOAD PUSH1 0x60 SHR PUSH2 0x180 MLOAD PUSH1 0x60 SHR PUSH2 0x20FE PUSH3 0x28A PUSH1 0x0 CODECOPY DUP1 PUSH2 0x359 MSTORE DUP1 PUSH2 0x809 MSTORE POP DUP1 PUSH2 0xFCB MSTORE DUP1 PUSH2 0x1190 MSTORE POP DUP1 PUSH2 0x17B0 MSTORE DUP1 PUSH2 0x1975 MSTORE POP POP DUP1 PUSH2 0x951 MSTORE DUP1 PUSH2 0xA64 MSTORE DUP1 PUSH2 0xDAD MSTORE DUP1 PUSH2 0xE8B MSTORE DUP1 PUSH2 0xF8F MSTORE DUP1 PUSH2 0x11C9 MSTORE DUP1 PUSH2 0x1592 MSTORE DUP1 PUSH2 0x1670 MSTORE DUP1 PUSH2 0x1774 MSTORE DUP1 PUSH2 0x19A4 MSTORE POP POP POP DUP1 PUSH2 0x6A1 MSTORE DUP1 PUSH2 0x752 MSTORE DUP1 PUSH2 0x1B0A MSTORE POP DUP1 PUSH2 0x37D MSTORE POP PUSH2 0x20FE PUSH1 0x0 RETURN INVALID PUSH1 0x80 PUSH1 0x40 MSTORE CALLVALUE DUP1 ISZERO PUSH2 0x10 JUMPI PUSH1 0x0 DUP1 REVERT JUMPDEST POP PUSH1 0x4 CALLDATASIZE LT PUSH2 0xA3 JUMPI PUSH1 0x0 CALLDATALOAD PUSH1 0xE0 SHR DUP1 PUSH4 0x8D928AF8 GT PUSH2 0x76 JUMPI DUP1 PUSH4 0xB1E70E80 GT PUSH2 0x5B JUMPI DUP1 PUSH4 0xB1E70E80 EQ PUSH2 0x115 JUMPI DUP1 PUSH4 0xB77984E9 EQ PUSH2 0x11D JUMPI DUP1 PUSH4 0xE758D36B EQ PUSH2 0x146 JUMPI PUSH2 0xA3 JUMP JUMPDEST DUP1 PUSH4 0x8D928AF8 EQ PUSH2 0x105 JUMPI DUP1 PUSH4 0xAAABADC5 EQ PUSH2 0x10D JUMPI PUSH2 0xA3 JUMP JUMPDEST DUP1 PUSH4 0x249E6FA EQ PUSH2 0xA8 JUMPI DUP1 PUSH4 0x1E390389 EQ PUSH2 0xC2 JUMPI DUP1 PUSH4 0x2BD46566 EQ PUSH2 0xCA JUMPI DUP1 PUSH4 0x7E55AC37 EQ PUSH2 0xD4 JUMPI JUMPDEST PUSH1 0x0 DUP1 REVERT JUMPDEST PUSH2 0xB0 PUSH2 0x14E JUMP JUMPDEST PUSH1 0x40 DUP1 MLOAD SWAP2 DUP3 MSTORE MLOAD SWAP1 DUP2 SWAP1 SUB PUSH1 0x20 ADD SWAP1 RETURN JUMPDEST PUSH2 0xB0 PUSH2 0x154 JUMP JUMPDEST PUSH2 0xD2 PUSH2 0x15A JUMP JUMPDEST STOP JUMPDEST PUSH2 0xDC PUSH2 0x357 JUMP JUMPDEST PUSH1 0x40 DUP1 MLOAD PUSH20 0xFFFFFFFFFFFFFFFFFFFFFFFFFFFFFFFFFFFFFFFF SWAP1 SWAP3 AND DUP3 MSTORE MLOAD SWAP1 DUP2 SWAP1 SUB PUSH1 0x20 ADD SWAP1 RETURN JUMPDEST PUSH2 0xDC PUSH2 0x37B JUMP JUMPDEST PUSH2 0xDC PUSH2 0x39F JUMP JUMPDEST PUSH2 0xD2 PUSH2 0x41F JUMP JUMPDEST PUSH2 0x125 PUSH2 0x696 JUMP JUMPDEST PUSH1 0x40 MLOAD DUP1 DUP3 PUSH1 0x2 DUP2 GT ISZERO PUSH2 0x135 JUMPI INVALID JUMPDEST DUP2 MSTORE PUSH1 0x20 ADD SWAP2 POP POP PUSH1 0x40 MLOAD DUP1 SWAP2 SUB SWAP1 RETURN JUMPDEST PUSH2 0xDC PUSH2 0x69F JUMP JUMPDEST PUSH1 0x2 SLOAD DUP2 JUMP JUMPDEST PUSH1 0x1 SLOAD DUP2 JUMP JUMPDEST PUSH2 0x162 PUSH2 0x6C3 JUMP JUMPDEST PUSH1 0x0 PUSH1 0x3 SLOAD PUSH1 0xFF AND PUSH1 0x2 DUP2 GT ISZERO PUSH2 0x175 JUMPI INVALID JUMPDEST EQ PUSH2 0x1E1 JUMPI PUSH1 0x40 DUP1 MLOAD PUSH32 0x8C379A000000000000000000000000000000000000000000000000000000000 DUP2 MSTORE PUSH1 0x20 PUSH1 0x4 DUP3 ADD MSTORE PUSH1 0x1C PUSH1 0x24 DUP3 ADD MSTORE PUSH32 0x4669727374207374657020616C726561647920706572666F726D656400000000 PUSH1 0x44 DUP3 ADD MSTORE SWAP1 MLOAD SWAP1 DUP2 SWAP1 SUB PUSH1 0x64 ADD SWAP1 REVERT JUMPDEST PUSH1 0x0 PUSH2 0x1EB PUSH2 0x39F JUMP JUMPDEST PUSH1 0x40 DUP1 MLOAD PUSH32 0x9BE2A88400000000000000000000000000000000000000000000000000000000 DUP2 MSTORE PUSH1 0x0 PUSH1 0x4 DUP3 ADD DUP2 SWAP1 MSTORE ADDRESS PUSH1 0x24 DUP4 ADD MSTORE PUSH1 0x44 DUP3 ADD MSTORE SWAP1 MLOAD SWAP2 SWAP3 POP PUSH20 0xFFFFFFFFFFFFFFFFFFFFFFFFFFFFFFFFFFFFFFFF DUP4 AND SWAP2 PUSH4 0x9BE2A884 SWAP2 PUSH1 0x64 DUP1 DUP3 ADD SWAP3 PUSH1 0x20 SWAP3 SWAP1 SWAP2 SWAP1 DUP3 SWAP1 SUB ADD DUP2 DUP7 DUP1 EXTCODESIZE ISZERO DUP1 ISZERO PUSH2 0x269 JUMPI PUSH1 0x0 DUP1 REVERT JUMPDEST POP GAS STATICCALL ISZERO DUP1 ISZERO PUSH2 0x27D JUMPI RETURNDATASIZE PUSH1 0x0 DUP1 RETURNDATACOPY RETURNDATASIZE PUSH1 0x0 REVERT JUMPDEST POP POP POP POP PUSH1 0x40 MLOAD RETURNDATASIZE PUSH1 0x20 DUP2 LT ISZERO PUSH2 0x293 JUMPI PUSH1 0x0 DUP1 REVERT JUMPDEST POP MLOAD PUSH2 0x300 JUMPI PUSH1 0x40 DUP1 MLOAD PUSH32 0x8C379A000000000000000000000000000000000000000000000000000000000 DUP2 MSTORE PUSH1 0x20 PUSH1 0x4 DUP3 ADD MSTORE PUSH1 0x14 PUSH1 0x24 DUP3 ADD MSTORE PUSH32 0x4E6F7420417574686F72697A65722061646D696E000000000000000000000000 PUSH1 0x44 DUP3 ADD MSTORE SWAP1 MLOAD SWAP1 DUP2 SWAP1 SUB PUSH1 0x64 ADD SWAP1 REVERT JUMPDEST PUSH2 0x308 PUSH2 0x6DC JUMP JUMPDEST PUSH2 0x310 PUSH2 0x87B JUMP JUMPDEST PUSH2 0x318 PUSH2 0xBB2 JUMP JUMPDEST TIMESTAMP PUSH1 0x1 SWAP1 DUP2 SSTORE PUSH1 0x3 DUP1 SLOAD PUSH32 0xFFFFFFFFFFFFFFFFFFFFFFFFFFFFFFFFFFFFFFFFFFFFFFFFFFFFFFFFFFFFFF00 AND DUP3 DUP1 JUMPDEST MUL OR SWAP1 SSTORE POP POP PUSH2 0x355 PUSH2 0x1309 JUMP JUMPDEST JUMP JUMPDEST PUSH32 0x0 DUP2 JUMP JUMPDEST PUSH32 0x0 SWAP1 JUMP JUMPDEST PUSH1 0x0 PUSH2 0x3A9 PUSH2 0x37B JUMP JUMPDEST PUSH20 0xFFFFFFFFFFFFFFFFFFFFFFFFFFFFFFFFFFFFFFFF AND PUSH4 0xAAABADC5 PUSH1 0x40 MLOAD DUP2 PUSH4 0xFFFFFFFF AND PUSH1 0xE0 SHL DUP2 MSTORE PUSH1 0x4 ADD PUSH1 0x20 PUSH1 0x40 MLOAD DUP1 DUP4 SUB DUP2 DUP7 DUP1 EXTCODESIZE ISZERO DUP1 ISZERO PUSH2 0x3EE JUMPI PUSH1 0x0 DUP1 REVERT JUMPDEST POP GAS STATICCALL ISZERO DUP1 ISZERO PUSH2 0x402 JUMPI RETURNDATASIZE PUSH1 0x0 DUP1 RETURNDATACOPY RETURNDATASIZE PUSH1 0x0 REVERT JUMPDEST POP POP POP POP PUSH1 0x40 MLOAD RETURNDATASIZE PUSH1 0x20 DUP2 LT ISZERO PUSH2 0x418 JUMPI PUSH1 0x0 DUP1 REVERT JUMPDEST POP MLOAD SWAP1 POP SWAP1 JUMP JUMPDEST PUSH2 0x427 PUSH2 0x6C3 JUMP JUMPDEST PUSH1 0x1 PUSH1 0x3 SLOAD PUSH1 0xFF AND PUSH1 0x2 DUP2 GT ISZERO PUSH2 0x43A JUMPI INVALID JUMPDEST EQ PUSH2 0x4A6 JUMPI PUSH1 0x40 DUP1 MLOAD PUSH32 0x8C379A000000000000000000000000000000000000000000000000000000000 DUP2 MSTORE PUSH1 0x20 PUSH1 0x4 DUP3 ADD MSTORE PUSH1 0x1A PUSH1 0x24 DUP3 ADD MSTORE PUSH32 0x4E6F7420726561647920666F72207365636F6E64207374616765000000000000 PUSH1 0x44 DUP3 ADD MSTORE SWAP1 MLOAD SWAP1 DUP2 SWAP1 SUB PUSH1 0x64 ADD SWAP1 REVERT JUMPDEST PUSH1 0x0 PUSH2 0x4B0 PUSH2 0x39F JUMP JUMPDEST PUSH1 0x40 DUP1 MLOAD PUSH32 0x9BE2A88400000000000000000000000000000000000000000000000000000000 DUP2 MSTORE PUSH1 0x0 PUSH1 0x4 DUP3 ADD DUP2 SWAP1 MSTORE ADDRESS PUSH1 0x24 DUP4 ADD MSTORE PUSH1 0x44 DUP3 ADD MSTORE SWAP1 MLOAD SWAP2 SWAP3 POP PUSH20 0xFFFFFFFFFFFFFFFFFFFFFFFFFFFFFFFFFFFFFFFF DUP4 AND SWAP2 PUSH4 0x9BE2A884 SWAP2 PUSH1 0x64 DUP1 DUP3 ADD SWAP3 PUSH1 0x20 SWAP3 SWAP1 SWAP2 SWAP1 DUP3 SWAP1 SUB ADD DUP2 DUP7 DUP1 EXTCODESIZE ISZERO DUP1 ISZERO PUSH2 0x52E JUMPI PUSH1 0x0 DUP1 REVERT JUMPDEST POP GAS STATICCALL ISZERO DUP1 ISZERO PUSH2 0x542 JUMPI RETURNDATASIZE PUSH1 0x0 DUP1 RETURNDATACOPY RETURNDATASIZE PUSH1 0x0 REVERT JUMPDEST POP POP POP POP PUSH1 0x40 MLOAD RETURNDATASIZE PUSH1 0x20 DUP2 LT ISZERO PUSH2 0x558 JUMPI PUSH1 0x0 DUP1 REVERT JUMPDEST POP MLOAD PUSH2 0x5C5 JUMPI PUSH1 0x40 DUP1 MLOAD PUSH32 0x8C379A000000000000000000000000000000000000000000000000000000000 DUP2 MSTORE PUSH1 0x20 PUSH1 0x4 DUP3 ADD MSTORE PUSH1 0x14 PUSH1 0x24 DUP3 ADD MSTORE PUSH32 0x4E6F7420417574686F72697A65722061646D696E000000000000000000000000 PUSH1 0x44 DUP3 ADD MSTORE SWAP1 MLOAD SWAP1 DUP2 SWAP1 SUB PUSH1 0x64 ADD SWAP1 REVERT JUMPDEST PUSH2 0x5CD PUSH2 0x1310 JUMP JUMPDEST PUSH2 0x5D5 PUSH2 0x1A50 JUMP JUMPDEST PUSH1 0x40 DUP1 MLOAD PUSH32 0xD547741F00000000000000000000000000000000000000000000000000000000 DUP2 MSTORE PUSH1 0x0 PUSH1 0x4 DUP3 ADD DUP2 SWAP1 MSTORE ADDRESS PUSH1 0x24 DUP4 ADD MSTORE SWAP2 MLOAD PUSH20 0xFFFFFFFFFFFFFFFFFFFFFFFFFFFFFFFFFFFFFFFF DUP5 AND SWAP3 PUSH4 0xD547741F SWAP3 PUSH1 0x44 DUP1 DUP3 ADD SWAP4 SWAP2 DUP3 SWAP1 SUB ADD DUP2 DUP4 DUP8 DUP1 EXTCODESIZE ISZERO DUP1 ISZERO PUSH2 0x647 JUMPI PUSH1 0x0 DUP1 REVERT JUMPDEST POP GAS CALL ISZERO DUP1 ISZERO PUSH2 0x65B JUMPI RETURNDATASIZE PUSH1 0x0 DUP1 RETURNDATACOPY RETURNDATASIZE PUSH1 0x0 REVERT JUMPDEST POP POP TIMESTAMP PUSH1 0x2 SWAP1 DUP2 SSTORE PUSH1 0x3 DUP1 SLOAD SWAP2 SWAP4 POP SWAP2 POP PUSH32 0xFFFFFFFFFFFFFFFFFFFFFFFFFFFFFFFFFFFFFFFFFFFFFFFFFFFFFFFFFFFFFF00 AND PUSH1 0x1 DUP4 PUSH2 0x347 JUMP JUMPDEST PUSH1 0x3 SLOAD PUSH1 0xFF AND SWAP1 JUMP JUMPDEST PUSH32 0x0 SWAP1 JUMP JUMPDEST PUSH2 0x6D5 PUSH1 0x2 PUSH1 0x0 SLOAD EQ ISZERO PUSH2 0x190 PUSH2 0x1C3C JUMP JUMPDEST PUSH1 0x2 PUSH1 0x0 SSTORE JUMP JUMPDEST PUSH1 0x0 PUSH2 0x6E6 PUSH2 0x39F JUMP JUMPDEST PUSH1 0x40 DUP1 MLOAD PUSH32 0x851C1BB300000000000000000000000000000000000000000000000000000000 DUP2 MSTORE PUSH32 0xC2C4C5C100000000000000000000000000000000000000000000000000000000 PUSH1 0x4 DUP3 ADD MSTORE SWAP1 MLOAD SWAP2 SWAP3 POP PUSH1 0x0 SWAP2 PUSH20 0xFFFFFFFFFFFFFFFFFFFFFFFFFFFFFFFFFFFFFFFF PUSH32 0x0 AND SWAP2 PUSH4 0x851C1BB3 SWAP2 PUSH1 0x24 DUP1 DUP4 ADD SWAP3 PUSH1 0x20 SWAP3 SWAP2 SWAP1 DUP3 SWAP1 SUB ADD DUP2 DUP7 DUP1 EXTCODESIZE ISZERO DUP1 ISZERO PUSH2 0x798 JUMPI PUSH1 0x0 DUP1 REVERT JUMPDEST POP GAS STATICCALL ISZERO DUP1 ISZERO PUSH2 0x7AC JUMPI RETURNDATASIZE PUSH1 0x0 DUP1 RETURNDATACOPY RETURNDATASIZE PUSH1 0x0 REVERT JUMPDEST POP POP POP POP PUSH1 0x40 MLOAD RETURNDATASIZE PUSH1 0x20 DUP2 LT ISZERO PUSH2 0x7C2 JUMPI PUSH1 0x0 DUP1 REVERT JUMPDEST POP MLOAD PUSH1 0x40 DUP1 MLOAD PUSH32 0x2F2FF15D00000000000000000000000000000000000000000000000000000000 DUP2 MSTORE PUSH1 0x4 DUP2 ADD DUP4 SWAP1 MSTORE PUSH20 0xFFFFFFFFFFFFFFFFFFFFFFFFFFFFFFFFFFFFFFFF PUSH32 0x0 DUP2 AND PUSH1 0x24 DUP4 ADD MSTORE SWAP2 MLOAD SWAP3 SWAP4 POP SWAP1 DUP5 AND SWAP2 PUSH4 0x2F2FF15D SWAP2 PUSH1 0x44 DUP1 DUP3 ADD SWAP3 PUSH1 0x0 SWAP3 SWAP1 SWAP2 SWAP1 DUP3 SWAP1 SUB ADD DUP2 DUP4 DUP8 DUP1 EXTCODESIZE ISZERO DUP1 ISZERO PUSH2 0x85F JUMPI PUSH1 0x0 DUP1 REVERT JUMPDEST POP GAS CALL ISZERO DUP1 ISZERO PUSH2 0x873 JUMPI RETURNDATASIZE PUSH1 0x0 DUP1 RETURNDATACOPY RETURNDATASIZE PUSH1 0x0 REVERT JUMPDEST POP POP POP POP POP POP JUMP JUMPDEST PUSH2 0x883 PUSH2 0x204E JUMP JUMPDEST POP PUSH1 0x40 DUP1 MLOAD PUSH1 0x60 DUP2 ADD DUP3 MSTORE PUSH20 0xA57453737849A4029325DFAB3F6034656644E104 DUP2 MSTORE PUSH20 0xA6468ECA7633246DCB24E5599681767D27D1F978 PUSH1 0x20 DUP3 ADD MSTORE PUSH20 0x158772F59FE0D3B75805FC11139B46CBC89F70E5 SWAP2 DUP2 ADD SWAP2 SWAP1 SWAP2 MSTORE PUSH1 0x0 PUSH2 0x8E5 PUSH2 0x39F JUMP JUMPDEST PUSH1 0x40 DUP1 MLOAD PUSH32 0x851C1BB300000000000000000000000000000000000000000000000000000000 DUP2 MSTORE PUSH32 0x5E45A27300000000000000000000000000000000000000000000000000000000 PUSH1 0x4 DUP3 ADD MSTORE SWAP1 MLOAD SWAP2 SWAP3 POP PUSH1 0x0 SWAP2 PUSH20 0xFFFFFFFFFFFFFFFFFFFFFFFFFFFFFFFFFFFFFFFF PUSH32 0x0 AND SWAP2 PUSH4 0x851C1BB3 SWAP2 PUSH1 0x24 DUP1 DUP4 ADD SWAP3 PUSH1 0x20 SWAP3 SWAP2 SWAP1 DUP3 SWAP1 SUB ADD DUP2 DUP7 DUP1 EXTCODESIZE ISZERO DUP1 ISZERO PUSH2 0x997 JUMPI PUSH1 0x0 DUP1 REVERT JUMPDEST POP GAS STATICCALL ISZERO DUP1 ISZERO PUSH2 0x9AB JUMPI RETURNDATASIZE PUSH1 0x0 DUP1 RETURNDATACOPY RETURNDATASIZE PUSH1 0x0 REVERT JUMPDEST POP POP POP POP PUSH1 0x40 MLOAD RETURNDATASIZE PUSH1 0x20 DUP2 LT ISZERO PUSH2 0x9C1 JUMPI PUSH1 0x0 DUP1 REVERT JUMPDEST POP MLOAD PUSH1 0x40 DUP1 MLOAD PUSH32 0x2F2FF15D00000000000000000000000000000000000000000000000000000000 DUP2 MSTORE PUSH1 0x4 DUP2 ADD DUP4 SWAP1 MSTORE ADDRESS PUSH1 0x24 DUP3 ADD MSTORE SWAP1 MLOAD SWAP2 SWAP3 POP PUSH20 0xFFFFFFFFFFFFFFFFFFFFFFFFFFFFFFFFFFFFFFFF DUP5 AND SWAP2 PUSH4 0x2F2FF15D SWAP2 PUSH1 0x44 DUP1 DUP3 ADD SWAP3 PUSH1 0x0 SWAP3 SWAP1 SWAP2 SWAP1 DUP3 SWAP1 SUB ADD DUP2 DUP4 DUP8 DUP1 EXTCODESIZE ISZERO DUP1 ISZERO PUSH2 0xA3B JUMPI PUSH1 0x0 DUP1 REVERT JUMPDEST POP GAS CALL ISZERO DUP1 ISZERO PUSH2 0xA4F JUMPI RETURNDATASIZE PUSH1 0x0 DUP1 RETURNDATACOPY RETURNDATASIZE PUSH1 0x0 REVERT JUMPDEST POP PUSH1 0x3 SWAP3 POP PUSH1 0x0 SWAP2 POP POP JUMPDEST DUP2 DUP2 LT ISZERO PUSH2 0xB1F JUMPI PUSH32 0x0 PUSH20 0xFFFFFFFFFFFFFFFFFFFFFFFFFFFFFFFFFFFFFFFF AND PUSH4 0x5E45A273 DUP7 DUP4 PUSH1 0x3 DUP2 LT PUSH2 0xAAA JUMPI INVALID JUMPDEST PUSH1 0x20 MUL ADD MLOAD PUSH1 0x40 MLOAD DUP3 PUSH4 0xFFFFFFFF AND PUSH1 0xE0 SHL DUP2 MSTORE PUSH1 0x4 ADD DUP1 DUP3 PUSH20 0xFFFFFFFFFFFFFFFFFFFFFFFFFFFFFFFFFFFFFFFF AND DUP2 MSTORE PUSH1 0x20 ADD SWAP2 POP POP PUSH1 0x0 PUSH1 0x40 MLOAD DUP1 DUP4 SUB DUP2 PUSH1 0x0 DUP8 DUP1 EXTCODESIZE ISZERO DUP1 ISZERO PUSH2 0xAFB JUMPI PUSH1 0x0 DUP1 REVERT JUMPDEST POP GAS CALL ISZERO DUP1 ISZERO PUSH2 0xB0F JUMPI RETURNDATASIZE PUSH1 0x0 DUP1 RETURNDATACOPY RETURNDATASIZE PUSH1 0x0 REVERT JUMPDEST POP POP PUSH1 0x1 SWAP1 SWAP3 ADD SWAP2 POP PUSH2 0xA5A SWAP1 POP JUMP JUMPDEST POP PUSH1 0x40 DUP1 MLOAD PUSH32 0xD547741F00000000000000000000000000000000000000000000000000000000 DUP2 MSTORE PUSH1 0x4 DUP2 ADD DUP5 SWAP1 MSTORE ADDRESS PUSH1 0x24 DUP3 ADD MSTORE SWAP1 MLOAD PUSH20 0xFFFFFFFFFFFFFFFFFFFFFFFFFFFFFFFFFFFFFFFF DUP6 AND SWAP2 PUSH4 0xD547741F SWAP2 PUSH1 0x44 DUP1 DUP4 ADD SWAP3 PUSH1 0x0 SWAP3 SWAP2 SWAP1 DUP3 SWAP1 SUB ADD DUP2 DUP4 DUP8 DUP1 EXTCODESIZE ISZERO DUP1 ISZERO PUSH2 0xB94 JUMPI PUSH1 0x0 DUP1 REVERT JUMPDEST POP GAS CALL ISZERO DUP1 ISZERO PUSH2 0xBA8 JUMPI RETURNDATASIZE PUSH1 0x0 DUP1 RETURNDATACOPY RETURNDATASIZE PUSH1 0x0 REVERT JUMPDEST POP POP POP POP POP POP POP POP JUMP JUMPDEST PUSH2 0xBBA PUSH2 0x206C JUMP JUMPDEST POP PUSH1 0x40 DUP1 MLOAD PUSH2 0x1C0 DUP2 ADD DUP3 MSTORE PUSH20 0xD84D832F47C22CF5413AE4FE2BD9D220FE6E3DC6 DUP2 MSTORE PUSH20 0x7B50775383D3D6F0215A8F290F2C9E2EEBBECEB2 PUSH1 0x20 DUP3 ADD MSTORE PUSH20 0x7C1028BCDE7CA03ECF6DAAA9CBFA06E931913EAD SWAP2 DUP2 ADD SWAP2 SWAP1 SWAP2 MSTORE PUSH20 0xA57EABC36A47DAE5F11051C8339385CF95E77235 PUSH1 0x60 DUP3 ADD MSTORE PUSH20 0x37A6FC079CAD790E556BAEDDA879358E076EF1B3 PUSH1 0x80 DUP3 ADD MSTORE PUSH20 0xB556A02642A0F7BE8C79932EFBC915F6E0485147 PUSH1 0xA0 DUP3 ADD MSTORE PUSH20 0x4B1137789FF06406A72BACE67CD15CF6786844CC PUSH1 0xC0 DUP3 ADD MSTORE PUSH20 0xBD65449BABF09BE544D68FC7CCF0CEBE298FB214 PUSH1 0xE0 DUP3 ADD MSTORE PUSH20 0x2246211E715B6567A8F7138180EF61A79678EF46 PUSH2 0x100 DUP3 ADD MSTORE PUSH20 0xF2BBFA122D41FFCF7056441578D108E3C40A7E99 PUSH2 0x120 DUP3 ADD MSTORE PUSH20 0xF081862BF62C24E3C708BDBEDA24ABE6B55E42F7 PUSH2 0x140 DUP3 ADD MSTORE PUSH20 0x28CC04DCD85C4B40C6DAD463C628E98728AE9496 PUSH2 0x160 DUP3 ADD MSTORE PUSH20 0xDC467DB6ABDA75E62F4809F3A4934AE3ACA1C380 PUSH2 0x180 DUP3 ADD MSTORE PUSH20 0xD5CD8328D93BF4BEF9824FD288F32C8F0DA1C551 PUSH2 0x1A0 DUP3 ADD MSTORE PUSH1 0x0 PUSH2 0xD41 PUSH2 0x39F JUMP JUMPDEST PUSH1 0x40 DUP1 MLOAD PUSH32 0x851C1BB300000000000000000000000000000000000000000000000000000000 DUP2 MSTORE PUSH32 0x6440E97300000000000000000000000000000000000000000000000000000000 PUSH1 0x4 DUP3 ADD MSTORE SWAP1 MLOAD SWAP2 SWAP3 POP PUSH1 0x0 SWAP2 PUSH20 0xFFFFFFFFFFFFFFFFFFFFFFFFFFFFFFFFFFFFFFFF PUSH32 0x0 AND SWAP2 PUSH4 0x851C1BB3 SWAP2 PUSH1 0x24 DUP1 DUP4 ADD SWAP3 PUSH1 0x20 SWAP3 SWAP2 SWAP1 DUP3 SWAP1 SUB ADD DUP2 DUP7 DUP1 EXTCODESIZE ISZERO DUP1 ISZERO PUSH2 0xDF3 JUMPI PUSH1 0x0 DUP1 REVERT JUMPDEST POP GAS STATICCALL ISZERO DUP1 ISZERO PUSH2 0xE07 JUMPI RETURNDATASIZE PUSH1 0x0 DUP1 RETURNDATACOPY RETURNDATASIZE PUSH1 0x0 REVERT JUMPDEST POP POP POP POP PUSH1 0x40 MLOAD RETURNDATASIZE PUSH1 0x20 DUP2 LT ISZERO PUSH2 0xE1D JUMPI PUSH1 0x0 DUP1 REVERT JUMPDEST POP MLOAD PUSH1 0x40 DUP1 MLOAD PUSH32 0x851C1BB300000000000000000000000000000000000000000000000000000000 DUP2 MSTORE PUSH32 0xBF2972D500000000000000000000000000000000000000000000000000000000 PUSH1 0x4 DUP3 ADD MSTORE SWAP1 MLOAD SWAP2 SWAP3 POP PUSH1 0x0 SWAP2 PUSH20 0xFFFFFFFFFFFFFFFFFFFFFFFFFFFFFFFFFFFFFFFF PUSH32 0x0 AND SWAP2 PUSH4 0x851C1BB3 SWAP2 PUSH1 0x24 DUP1 DUP4 ADD SWAP3 PUSH1 0x20 SWAP3 SWAP2 SWAP1 DUP3 SWAP1 SUB ADD DUP2 DUP7 DUP1 EXTCODESIZE ISZERO DUP1 ISZERO PUSH2 0xED1 JUMPI PUSH1 0x0 DUP1 REVERT JUMPDEST POP GAS STATICCALL ISZERO DUP1 ISZERO PUSH2 0xEE5 JUMPI RETURNDATASIZE PUSH1 0x0 DUP1 RETURNDATACOPY RETURNDATASIZE PUSH1 0x0 REVERT JUMPDEST POP POP POP POP PUSH1 0x40 MLOAD RETURNDATASIZE PUSH1 0x20 DUP2 LT ISZERO PUSH2 0xEFB JUMPI PUSH1 0x0 DUP1 REVERT JUMPDEST POP MLOAD PUSH1 0x40 DUP1 MLOAD PUSH32 0x2F2FF15D00000000000000000000000000000000000000000000000000000000 DUP2 MSTORE PUSH1 0x4 DUP2 ADD DUP6 SWAP1 MSTORE ADDRESS PUSH1 0x24 DUP3 ADD MSTORE SWAP1 MLOAD SWAP2 SWAP3 POP PUSH20 0xFFFFFFFFFFFFFFFFFFFFFFFFFFFFFFFFFFFFFFFF DUP6 AND SWAP2 PUSH4 0x2F2FF15D SWAP2 PUSH1 0x44 DUP1 DUP3 ADD SWAP3 PUSH1 0x0 SWAP3 SWAP1 SWAP2 SWAP1 DUP3 SWAP1 SUB ADD DUP2 DUP4 DUP8 DUP1 EXTCODESIZE ISZERO DUP1 ISZERO PUSH2 0xF75 JUMPI PUSH1 0x0 DUP1 REVERT JUMPDEST POP GAS CALL ISZERO DUP1 ISZERO PUSH2 0xF89 JUMPI RETURNDATASIZE PUSH1 0x0 DUP1 RETURNDATACOPY RETURNDATASIZE PUSH1 0x0 REVERT JUMPDEST POP POP POP POP PUSH32 0x0 PUSH20 0xFFFFFFFFFFFFFFFFFFFFFFFFFFFFFFFFFFFFFFFF AND PUSH4 0x6440E973 PUSH32 0x0 PUSH1 0x4 PUSH1 0x40 MLOAD DUP4 PUSH4 0xFFFFFFFF AND PUSH1 0xE0 SHL DUP2 MSTORE PUSH1 0x4 ADD DUP1 DUP4 PUSH20 0xFFFFFFFFFFFFFFFFFFFFFFFFFFFFFFFFFFFFFFFF AND DUP2 MSTORE PUSH1 0x20 ADD DUP3 PUSH1 0x4 DUP2 GT ISZERO PUSH2 0x1027 JUMPI INVALID JUMPDEST DUP2 MSTORE PUSH1 0x20 ADD SWAP3 POP POP POP PUSH1 0x0 PUSH1 0x40 MLOAD DUP1 DUP4 SUB DUP2 PUSH1 0x0 DUP8 DUP1 EXTCODESIZE ISZERO DUP1 ISZERO PUSH2 0x104A JUMPI PUSH1 0x0 DUP1 REVERT JUMPDEST POP GAS CALL ISZERO DUP1 ISZERO PUSH2 0x105E JUMPI RETURNDATASIZE PUSH1 0x0 DUP1 RETURNDATACOPY RETURNDATASIZE PUSH1 0x0 REVERT JUMPDEST POP POP PUSH1 0x40 DUP1 MLOAD PUSH32 0xD547741F00000000000000000000000000000000000000000000000000000000 DUP2 MSTORE PUSH1 0x4 DUP2 ADD DUP7 SWAP1 MSTORE ADDRESS PUSH1 0x24 DUP3 ADD MSTORE SWAP1 MLOAD PUSH20 0xFFFFFFFFFFFFFFFFFFFFFFFFFFFFFFFFFFFFFFFF DUP8 AND SWAP4 POP PUSH4 0xD547741F SWAP3 POP PUSH1 0x44 DUP1 DUP4 ADD SWAP3 PUSH1 0x0 SWAP3 SWAP2 SWAP1 DUP3 SWAP1 SUB ADD DUP2 DUP4 DUP8 DUP1 EXTCODESIZE ISZERO DUP1 ISZERO PUSH2 0x10D6 JUMPI PUSH1 0x0 DUP1 REVERT JUMPDEST POP GAS CALL ISZERO DUP1 ISZERO PUSH2 0x10EA JUMPI RETURNDATASIZE PUSH1 0x0 DUP1 RETURNDATACOPY RETURNDATASIZE PUSH1 0x0 REVERT JUMPDEST POP POP PUSH1 0x40 DUP1 MLOAD PUSH32 0x2F2FF15D00000000000000000000000000000000000000000000000000000000 DUP2 MSTORE PUSH1 0x4 DUP2 ADD DUP6 SWAP1 MSTORE ADDRESS PUSH1 0x24 DUP3 ADD MSTORE SWAP1 MLOAD PUSH20 0xFFFFFFFFFFFFFFFFFFFFFFFFFFFFFFFFFFFFFFFF DUP8 AND SWAP4 POP PUSH4 0x2F2FF15D SWAP3 POP PUSH1 0x44 DUP1 DUP4 ADD SWAP3 PUSH1 0x0 SWAP3 SWAP2 SWAP1 DUP3 SWAP1 SUB ADD DUP2 DUP4 DUP8 DUP1 EXTCODESIZE ISZERO DUP1 ISZERO PUSH2 0x1162 JUMPI PUSH1 0x0 DUP1 REVERT JUMPDEST POP GAS CALL ISZERO DUP1 ISZERO PUSH2 0x1176 JUMPI RETURNDATASIZE PUSH1 0x0 DUP1 RETURNDATACOPY RETURNDATASIZE PUSH1 0x0 REVERT JUMPDEST POP PUSH1 0xE SWAP3 POP PUSH1 0x0 SWAP2 POP POP JUMPDEST DUP2 DUP2 LT ISZERO PUSH2 0x1275 JUMPI PUSH1 0x0 PUSH2 0x11C5 PUSH32 0x0 DUP9 DUP5 PUSH1 0xE DUP2 LT PUSH2 0x11BB JUMPI INVALID JUMPDEST PUSH1 0x20 MUL ADD MLOAD PUSH2 0x1C4E JUMP JUMPDEST SWAP1 POP PUSH32 0x0 PUSH20 0xFFFFFFFFFFFFFFFFFFFFFFFFFFFFFFFFFFFFFFFF AND PUSH4 0xBF2972D5 DUP3 PUSH1 0x40 MLOAD DUP3 PUSH4 0xFFFFFFFF AND PUSH1 0xE0 SHL DUP2 MSTORE PUSH1 0x4 ADD DUP1 DUP3 PUSH20 0xFFFFFFFFFFFFFFFFFFFFFFFFFFFFFFFFFFFFFFFF AND DUP2 MSTORE PUSH1 0x20 ADD SWAP2 POP POP PUSH1 0x0 PUSH1 0x40 MLOAD DUP1 DUP4 SUB DUP2 PUSH1 0x0 DUP8 DUP1 EXTCODESIZE ISZERO DUP1 ISZERO PUSH2 0x1250 JUMPI PUSH1 0x0 DUP1 REVERT JUMPDEST POP GAS CALL ISZERO DUP1 ISZERO PUSH2 0x1264 JUMPI RETURNDATASIZE PUSH1 0x0 DUP1 RETURNDATACOPY RETURNDATASIZE PUSH1 0x0 REVERT JUMPDEST POP POP PUSH1 0x1 SWAP1 SWAP4 ADD SWAP3 POP PUSH2 0x1181 SWAP2 POP POP JUMP JUMPDEST POP PUSH1 0x40 DUP1 MLOAD PUSH32 0xD547741F00000000000000000000000000000000000000000000000000000000 DUP2 MSTORE PUSH1 0x4 DUP2 ADD DUP5 SWAP1 MSTORE ADDRESS PUSH1 0x24 DUP3 ADD MSTORE SWAP1 MLOAD PUSH20 0xFFFFFFFFFFFFFFFFFFFFFFFFFFFFFFFFFFFFFFFF DUP7 AND SWAP2 PUSH4 0xD547741F SWAP2 PUSH1 0x44 DUP1 DUP4 ADD SWAP3 PUSH1 0x0 SWAP3 SWAP2 SWAP1 DUP3 SWAP1 SUB ADD DUP2 DUP4 DUP8 DUP1 EXTCODESIZE ISZERO DUP1 ISZERO PUSH2 0x12EA JUMPI PUSH1 0x0 DUP1 REVERT JUMPDEST POP GAS CALL ISZERO DUP1 ISZERO PUSH2 0x12FE JUMPI RETURNDATASIZE PUSH1 0x0 DUP1 RETURNDATACOPY RETURNDATASIZE PUSH1 0x0 REVERT JUMPDEST POP POP POP POP POP POP POP POP POP JUMP JUMPDEST PUSH1 0x1 PUSH1 0x0 SSTORE JUMP JUMPDEST PUSH2 0x1318 PUSH2 0x208B JUMP JUMPDEST POP PUSH1 0x40 DUP1 MLOAD PUSH2 0x260 DUP2 ADD DUP3 MSTORE PUSH20 0xFC855F77CE75BB6A5D650D0C4CC92E460C03E25 DUP2 MSTORE PUSH20 0x4B878E9727B9E91FDAE37CDD85949F4367220187 PUSH1 0x20 DUP3 ADD MSTORE PUSH20 0x66750473CE1DECBA4EF2576A47FD5FF7BF07C4E2 SWAP2 DUP2 ADD SWAP2 SWAP1 SWAP2 MSTORE PUSH20 0x2AC595007563DF473449005883F1F2BA3036EBEF PUSH1 0x60 DUP3 ADD MSTORE PUSH20 0x3B4D173601F8B36024CD49F7C5859D263385AF34 PUSH1 0x80 DUP3 ADD MSTORE PUSH20 0xDE2F58C43CB222725A96236272C7749E4ABF1A25 PUSH1 0xA0 DUP3 ADD MSTORE PUSH20 0x73CF9C065BFB9ABF76D94787324CFC4F751AC097 PUSH1 0xC0 DUP3 ADD MSTORE PUSH20 0x2845E95D2A4EFCD14CF5D77B9BA732788B96267F PUSH1 0xE0 DUP3 ADD MSTORE PUSH20 0xB061F502D84F00D1B26568888A8F741CBE352C23 PUSH2 0x100 DUP3 ADD MSTORE PUSH20 0xD65F35E750D5FFB63A3B6C7B4E5D4AFE4CA5550D PUSH2 0x120 DUP3 ADD MSTORE PUSH20 0x25A526ADB6925A9F40141567C06430D368232FEE PUSH2 0x140 DUP3 ADD MSTORE PUSH20 0xFD7E9171B4DC9D89E157C2CC9A424CD9C40A034 PUSH2 0x160 DUP3 ADD MSTORE PUSH20 0xBC9F244CF5A774785E726A9157AFE3725D93249B PUSH2 0x180 DUP3 ADD MSTORE PUSH20 0x2CCC518B7B6177C2D44771D6B249F85A5A0CC1D4 PUSH2 0x1A0 DUP3 ADD MSTORE PUSH20 0x64AFDB69C22971B2ED289020F78A47E070CFADBA PUSH2 0x1C0 DUP3 ADD MSTORE PUSH20 0x6F4D27730D5253148D82283E3AD93EAE9264DAA3 PUSH2 0x1E0 DUP3 ADD MSTORE PUSH20 0x6812162860FAC498FB6F03339D39D23B5A264152 PUSH2 0x200 DUP3 ADD MSTORE PUSH20 0x5EA9C37A3ECF0C82900FBBFD064FE29A427C41AB PUSH2 0x220 DUP3 ADD MSTORE PUSH20 0xA95E0B91A3F522DDE42D5B6A4E430E0BFAD0F2F5 PUSH2 0x240 DUP3 ADD MSTORE PUSH1 0x0 PUSH2 0x1526 PUSH2 0x39F JUMP JUMPDEST PUSH1 0x40 DUP1 MLOAD PUSH32 0x851C1BB300000000000000000000000000000000000000000000000000000000 DUP2 MSTORE PUSH32 0x6440E97300000000000000000000000000000000000000000000000000000000 PUSH1 0x4 DUP3 ADD MSTORE SWAP1 MLOAD SWAP2 SWAP3 POP PUSH1 0x0 SWAP2 PUSH20 0xFFFFFFFFFFFFFFFFFFFFFFFFFFFFFFFFFFFFFFFF PUSH32 0x0 AND SWAP2 PUSH4 0x851C1BB3 SWAP2 PUSH1 0x24 DUP1 DUP4 ADD SWAP3 PUSH1 0x20 SWAP3 SWAP2 SWAP1 DUP3 SWAP1 SUB ADD DUP2 DUP7 DUP1 EXTCODESIZE ISZERO DUP1 ISZERO PUSH2 0x15D8 JUMPI PUSH1 0x0 DUP1 REVERT JUMPDEST POP GAS STATICCALL ISZERO DUP1 ISZERO PUSH2 0x15EC JUMPI RETURNDATASIZE PUSH1 0x0 DUP1 RETURNDATACOPY RETURNDATASIZE PUSH1 0x0 REVERT JUMPDEST POP POP POP POP PUSH1 0x40 MLOAD RETURNDATASIZE PUSH1 0x20 DUP2 LT ISZERO PUSH2 0x1602 JUMPI PUSH1 0x0 DUP1 REVERT JUMPDEST POP MLOAD PUSH1 0x40 DUP1 MLOAD PUSH32 0x851C1BB300000000000000000000000000000000000000000000000000000000 DUP2 MSTORE PUSH32 0xF87FCFA200000000000000000000000000000000000000000000000000000000 PUSH1 0x4 DUP3 ADD MSTORE SWAP1 MLOAD SWAP2 SWAP3 POP PUSH1 0x0 SWAP2 PUSH20 0xFFFFFFFFFFFFFFFFFFFFFFFFFFFFFFFFFFFFFFFF PUSH32 0x0 AND SWAP2 PUSH4 0x851C1BB3 SWAP2 PUSH1 0x24 DUP1 DUP4 ADD SWAP3 PUSH1 0x20 SWAP3 SWAP2 SWAP1 DUP3 SWAP1 SUB ADD DUP2 DUP7 DUP1 EXTCODESIZE ISZERO DUP1 ISZERO PUSH2 0x16B6 JUMPI PUSH1 0x0 DUP1 REVERT JUMPDEST POP GAS STATICCALL ISZERO DUP1 ISZERO PUSH2 0x16CA JUMPI RETURNDATASIZE PUSH1 0x0 DUP1 RETURNDATACOPY RETURNDATASIZE PUSH1 0x0 REVERT JUMPDEST POP POP POP POP PUSH1 0x40 MLOAD RETURNDATASIZE PUSH1 0x20 DUP2 LT ISZERO PUSH2 0x16E0 JUMPI PUSH1 0x0 DUP1 REVERT JUMPDEST POP MLOAD PUSH1 0x40 DUP1 MLOAD PUSH32 0x2F2FF15D00000000000000000000000000000000000000000000000000000000 DUP2 MSTORE PUSH1 0x4 DUP2 ADD DUP6 SWAP1 MSTORE ADDRESS PUSH1 0x24 DUP3 ADD MSTORE SWAP1 MLOAD SWAP2 SWAP3 POP PUSH20 0xFFFFFFFFFFFFFFFFFFFFFFFFFFFFFFFFFFFFFFFF DUP6 AND SWAP2 PUSH4 0x2F2FF15D SWAP2 PUSH1 0x44 DUP1 DUP3 ADD SWAP3 PUSH1 0x0 SWAP3 SWAP1 SWAP2 SWAP1 DUP3 SWAP1 SUB ADD DUP2 DUP4 DUP8 DUP1 EXTCODESIZE ISZERO DUP1 ISZERO PUSH2 0x175A JUMPI PUSH1 0x0 DUP1 REVERT JUMPDEST POP GAS CALL ISZERO DUP1 ISZERO PUSH2 0x176E JUMPI RETURNDATASIZE PUSH1 0x0 DUP1 RETURNDATACOPY RETURNDATASIZE PUSH1 0x0 REVERT JUMPDEST POP POP POP POP PUSH32 0x0 PUSH20 0xFFFFFFFFFFFFFFFFFFFFFFFFFFFFFFFFFFFFFFFF AND PUSH4 0x6440E973 PUSH32 0x0 PUSH1 0x3 PUSH1 0x40 MLOAD DUP4 PUSH4 0xFFFFFFFF AND PUSH1 0xE0 SHL DUP2 MSTORE PUSH1 0x4 ADD DUP1 DUP4 PUSH20 0xFFFFFFFFFFFFFFFFFFFFFFFFFFFFFFFFFFFFFFFF AND DUP2 MSTORE PUSH1 0x20 ADD DUP3 PUSH1 0x4 DUP2 GT ISZERO PUSH2 0x180C JUMPI INVALID JUMPDEST DUP2 MSTORE PUSH1 0x20 ADD SWAP3 POP POP POP PUSH1 0x0 PUSH1 0x40 MLOAD DUP1 DUP4 SUB DUP2 PUSH1 0x0 DUP8 DUP1 EXTCODESIZE ISZERO DUP1 ISZERO PUSH2 0x182F JUMPI PUSH1 0x0 DUP1 REVERT JUMPDEST POP GAS CALL ISZERO DUP1 ISZERO PUSH2 0x1843 JUMPI RETURNDATASIZE PUSH1 0x0 DUP1 RETURNDATACOPY RETURNDATASIZE PUSH1 0x0 REVERT JUMPDEST POP POP PUSH1 0x40 DUP1 MLOAD PUSH32 0xD547741F00000000000000000000000000000000000000000000000000000000 DUP2 MSTORE PUSH1 0x4 DUP2 ADD DUP7 SWAP1 MSTORE ADDRESS PUSH1 0x24 DUP3 ADD MSTORE SWAP1 MLOAD PUSH20 0xFFFFFFFFFFFFFFFFFFFFFFFFFFFFFFFFFFFFFFFF DUP8 AND SWAP4 POP PUSH4 0xD547741F SWAP3 POP PUSH1 0x44 DUP1 DUP4 ADD SWAP3 PUSH1 0x0 SWAP3 SWAP2 SWAP1 DUP3 SWAP1 SUB ADD DUP2 DUP4 DUP8 DUP1 EXTCODESIZE ISZERO DUP1 ISZERO PUSH2 0x18BB JUMPI PUSH1 0x0 DUP1 REVERT JUMPDEST POP GAS CALL ISZERO DUP1 ISZERO PUSH2 0x18CF JUMPI RETURNDATASIZE PUSH1 0x0 DUP1 RETURNDATACOPY RETURNDATASIZE PUSH1 0x0 REVERT JUMPDEST POP POP PUSH1 0x40 DUP1 MLOAD PUSH32 0x2F2FF15D00000000000000000000000000000000000000000000000000000000 DUP2 MSTORE PUSH1 0x4 DUP2 ADD DUP6 SWAP1 MSTORE ADDRESS PUSH1 0x24 DUP3 ADD MSTORE SWAP1 MLOAD PUSH20 0xFFFFFFFFFFFFFFFFFFFFFFFFFFFFFFFFFFFFFFFF DUP8 AND SWAP4 POP PUSH4 0x2F2FF15D SWAP3 POP PUSH1 0x44 DUP1 DUP4 ADD SWAP3 PUSH1 0x0 SWAP3 SWAP2 SWAP1 DUP3 SWAP1 SUB ADD DUP2 DUP4 DUP8 DUP1 EXTCODESIZE ISZERO DUP1 ISZERO PUSH2 0x1947 JUMPI PUSH1 0x0 DUP1 REVERT JUMPDEST POP GAS CALL ISZERO DUP1 ISZERO PUSH2 0x195B JUMPI RETURNDATASIZE PUSH1 0x0 DUP1 RETURNDATACOPY RETURNDATASIZE PUSH1 0x0 REVERT JUMPDEST POP PUSH1 0x13 SWAP3 POP PUSH1 0x0 SWAP2 POP POP JUMPDEST DUP2 DUP2 LT ISZERO PUSH2 0x1275 JUMPI PUSH1 0x0 PUSH2 0x19A0 PUSH32 0x0 DUP9 DUP5 PUSH1 0x13 DUP2 LT PUSH2 0x11BB JUMPI INVALID JUMPDEST SWAP1 POP PUSH32 0x0 PUSH20 0xFFFFFFFFFFFFFFFFFFFFFFFFFFFFFFFFFFFFFFFF AND PUSH4 0xF87FCFA2 DUP3 PUSH1 0x40 MLOAD DUP3 PUSH4 0xFFFFFFFF AND PUSH1 0xE0 SHL DUP2 MSTORE PUSH1 0x4 ADD DUP1 DUP3 PUSH20 0xFFFFFFFFFFFFFFFFFFFFFFFFFFFFFFFFFFFFFFFF AND DUP2 MSTORE PUSH1 0x20 ADD SWAP2 POP POP PUSH1 0x0 PUSH1 0x40 MLOAD DUP1 DUP4 SUB DUP2 PUSH1 0x0 DUP8 DUP1 EXTCODESIZE ISZERO DUP1 ISZERO PUSH2 0x1A2B JUMPI PUSH1 0x0 DUP1 REVERT JUMPDEST POP GAS CALL ISZERO DUP1 ISZERO PUSH2 0x1A3F JUMPI RETURNDATASIZE PUSH1 0x0 DUP1 RETURNDATACOPY RETURNDATASIZE PUSH1 0x0 REVERT JUMPDEST POP POP PUSH1 0x1 SWAP1 SWAP4 ADD SWAP3 POP PUSH2 0x1966 SWAP2 POP POP JUMP JUMPDEST PUSH2 0x1A58 PUSH2 0x20AA JUMP JUMPDEST POP PUSH1 0x40 DUP1 MLOAD DUP1 DUP3 ADD SWAP1 SWAP2 MSTORE PUSH20 0x9FB8312CEDFB9B35364FF06311B429A2F4CDF422 DUP2 MSTORE PUSH20 0x3F829A8303455CB36B7BCF3D1BDC18D5F6946AEA PUSH1 0x20 DUP3 ADD MSTORE PUSH1 0x0 PUSH2 0x1A9E PUSH2 0x39F JUMP JUMPDEST PUSH1 0x40 DUP1 MLOAD PUSH32 0x851C1BB300000000000000000000000000000000000000000000000000000000 DUP2 MSTORE PUSH32 0xAB8F094500000000000000000000000000000000000000000000000000000000 PUSH1 0x4 DUP3 ADD MSTORE SWAP1 MLOAD SWAP2 SWAP3 POP PUSH1 0x0 SWAP2 PUSH20 0xFFFFFFFFFFFFFFFFFFFFFFFFFFFFFFFFFFFFFFFF PUSH32 0x0 AND SWAP2 PUSH4 0x851C1BB3 SWAP2 PUSH1 0x24 DUP1 DUP4 ADD SWAP3 PUSH1 0x20 SWAP3 SWAP2 SWAP1 DUP3 SWAP1 SUB ADD DUP2 DUP7 DUP1 EXTCODESIZE ISZERO DUP1 ISZERO PUSH2 0x1B50 JUMPI PUSH1 0x0 DUP1 REVERT JUMPDEST POP GAS STATICCALL ISZERO DUP1 ISZERO PUSH2 0x1B64 JUMPI RETURNDATASIZE PUSH1 0x0 DUP1 RETURNDATACOPY RETURNDATASIZE PUSH1 0x0 REVERT JUMPDEST POP POP POP POP PUSH1 0x40 MLOAD RETURNDATASIZE PUSH1 0x20 DUP2 LT ISZERO PUSH2 0x1B7A JUMPI PUSH1 0x0 DUP1 REVERT JUMPDEST POP MLOAD PUSH1 0x40 DUP1 MLOAD PUSH32 0x2F2FF15D00000000000000000000000000000000000000000000000000000000 DUP2 MSTORE PUSH1 0x4 DUP2 ADD DUP4 SWAP1 MSTORE ADDRESS PUSH1 0x24 DUP3 ADD MSTORE SWAP1 MLOAD SWAP2 SWAP3 POP PUSH20 0xFFFFFFFFFFFFFFFFFFFFFFFFFFFFFFFFFFFFFFFF DUP5 AND SWAP2 PUSH4 0x2F2FF15D SWAP2 PUSH1 0x44 DUP1 DUP3 ADD SWAP3 PUSH1 0x0 SWAP3 SWAP1 SWAP2 SWAP1 DUP3 SWAP1 SUB ADD DUP2 DUP4 DUP8 DUP1 EXTCODESIZE ISZERO DUP1 ISZERO PUSH2 0x1BF4 JUMPI PUSH1 0x0 DUP1 REVERT JUMPDEST POP GAS CALL ISZERO DUP1 ISZERO PUSH2 0x1C08 JUMPI RETURNDATASIZE PUSH1 0x0 DUP1 RETURNDATACOPY RETURNDATASIZE PUSH1 0x0 REVERT JUMPDEST POP PUSH1 0x2 SWAP3 POP PUSH1 0x0 SWAP2 POP POP JUMPDEST DUP2 DUP2 LT ISZERO PUSH2 0xB1F JUMPI PUSH2 0x1C34 DUP6 DUP3 PUSH1 0x2 DUP2 LT PUSH2 0x1C2A JUMPI INVALID JUMPDEST PUSH1 0x20 MUL ADD MLOAD PUSH2 0x1D9E JUMP JUMPDEST PUSH1 0x1 ADD PUSH2 0x1C13 JUMP JUMPDEST DUP2 PUSH2 0x1C4A JUMPI PUSH2 0x1C4A DUP2 PUSH2 0x1FE1 JUMP JUMPDEST POP POP JUMP JUMPDEST PUSH1 0x0 DUP3 PUSH20 0xFFFFFFFFFFFFFFFFFFFFFFFFFFFFFFFFFFFFFFFF AND PUSH4 0x7D5D0D10 DUP4 PUSH1 0x40 MLOAD DUP3 PUSH4 0xFFFFFFFF AND PUSH1 0xE0 SHL DUP2 MSTORE PUSH1 0x4 ADD DUP1 DUP3 PUSH20 0xFFFFFFFFFFFFFFFFFFFFFFFFFFFFFFFFFFFFFFFF AND DUP2 MSTORE PUSH1 0x20 ADD SWAP2 POP POP PUSH1 0x20 PUSH1 0x40 MLOAD DUP1 DUP4 SUB DUP2 DUP7 DUP1 EXTCODESIZE ISZERO DUP1 ISZERO PUSH2 0x1CB7 JUMPI PUSH1 0x0 DUP1 REVERT JUMPDEST POP GAS STATICCALL ISZERO DUP1 ISZERO PUSH2 0x1CCB JUMPI RETURNDATASIZE PUSH1 0x0 DUP1 RETURNDATACOPY RETURNDATASIZE PUSH1 0x0 REVERT JUMPDEST POP POP POP POP PUSH1 0x40 MLOAD RETURNDATASIZE PUSH1 0x20 DUP2 LT ISZERO PUSH2 0x1CE1 JUMPI PUSH1 0x0 DUP1 REVERT JUMPDEST POP MLOAD SWAP1 POP PUSH20 0xFFFFFFFFFFFFFFFFFFFFFFFFFFFFFFFFFFFFFFFF DUP2 AND PUSH2 0x1D98 JUMPI DUP3 PUSH20 0xFFFFFFFFFFFFFFFFFFFFFFFFFFFFFFFFFFFFFFFF AND PUSH4 0x9ED93318 DUP4 PUSH1 0x40 MLOAD DUP3 PUSH4 0xFFFFFFFF AND PUSH1 0xE0 SHL DUP2 MSTORE PUSH1 0x4 ADD DUP1 DUP3 PUSH20 0xFFFFFFFFFFFFFFFFFFFFFFFFFFFFFFFFFFFFFFFF AND DUP2 MSTORE PUSH1 0x20 ADD SWAP2 POP POP PUSH1 0x20 PUSH1 0x40 MLOAD DUP1 DUP4 SUB DUP2 PUSH1 0x0 DUP8 DUP1 EXTCODESIZE ISZERO DUP1 ISZERO PUSH2 0x1D69 JUMPI PUSH1 0x0 DUP1 REVERT JUMPDEST POP GAS CALL ISZERO DUP1 ISZERO PUSH2 0x1D7D JUMPI RETURNDATASIZE PUSH1 0x0 DUP1 RETURNDATACOPY RETURNDATASIZE PUSH1 0x0 REVERT JUMPDEST POP POP POP POP PUSH1 0x40 MLOAD RETURNDATASIZE PUSH1 0x20 DUP2 LT ISZERO PUSH2 0x1D93 JUMPI PUSH1 0x0 DUP1 REVERT JUMPDEST POP MLOAD SWAP1 POP JUMPDEST SWAP3 SWAP2 POP POP JUMP JUMPDEST PUSH2 0x1DA6 PUSH2 0x69F JUMP JUMPDEST PUSH1 0x40 DUP1 MLOAD PUSH1 0x4 DUP1 DUP3 MSTORE PUSH1 0x24 DUP1 DUP4 ADD DUP5 MSTORE PUSH1 0x20 DUP4 ADD DUP1 MLOAD PUSH28 0xFFFFFFFFFFFFFFFFFFFFFFFFFFFFFFFFFFFFFFFFFFFFFFFFFFFFFFFF AND PUSH32 0xAB8F094500000000000000000000000000000000000000000000000000000000 OR DUP2 MSTORE DUP5 MLOAD PUSH32 0x4036176A00000000000000000000000000000000000000000000000000000000 DUP2 MSTORE PUSH20 0xFFFFFFFFFFFFFFFFFFFFFFFFFFFFFFFFFFFFFFFF DUP9 DUP2 AND SWAP5 DUP3 ADD SWAP5 DUP6 MSTORE SWAP3 DUP2 ADD SWAP6 DUP7 MSTORE DUP5 MLOAD PUSH1 0x44 DUP3 ADD MSTORE DUP5 MLOAD SWAP7 SWAP1 SWAP3 AND SWAP6 PUSH4 0x4036176A SWAP6 DUP9 SWAP6 SWAP5 SWAP4 SWAP1 SWAP3 PUSH1 0x64 SWAP1 SWAP2 ADD SWAP2 DUP1 DUP4 DUP4 PUSH1 0x0 JUMPDEST DUP4 DUP2 LT ISZERO PUSH2 0x1E85 JUMPI DUP2 DUP2 ADD MLOAD DUP4 DUP3 ADD MSTORE PUSH1 0x20 ADD PUSH2 0x1E6D JUMP JUMPDEST POP POP POP POP SWAP1 POP SWAP1 DUP2 ADD SWAP1 PUSH1 0x1F AND DUP1 ISZERO PUSH2 0x1EB2 JUMPI DUP1 DUP3 SUB DUP1 MLOAD PUSH1 0x1 DUP4 PUSH1 0x20 SUB PUSH2 0x100 EXP SUB NOT AND DUP2 MSTORE PUSH1 0x20 ADD SWAP2 POP JUMPDEST POP SWAP4 POP POP POP POP PUSH1 0x0 PUSH1 0x40 MLOAD DUP1 DUP4 SUB DUP2 PUSH1 0x0 DUP8 DUP1 EXTCODESIZE ISZERO DUP1 ISZERO PUSH2 0x1ED2 JUMPI PUSH1 0x0 DUP1 REVERT JUMPDEST POP GAS CALL ISZERO DUP1 ISZERO PUSH2 0x1EE6 JUMPI RETURNDATASIZE PUSH1 0x0 DUP1 RETURNDATACOPY RETURNDATASIZE PUSH1 0x0 REVERT JUMPDEST POP POP POP POP PUSH1 0x40 MLOAD RETURNDATASIZE PUSH1 0x0 DUP3 RETURNDATACOPY PUSH1 0x1F RETURNDATASIZE SWAP1 DUP2 ADD PUSH32 0xFFFFFFFFFFFFFFFFFFFFFFFFFFFFFFFFFFFFFFFFFFFFFFFFFFFFFFFFFFFFFFE0 AND DUP3 ADD PUSH1 0x40 MSTORE PUSH1 0x20 DUP2 LT ISZERO PUSH2 0x1F2D JUMPI PUSH1 0x0 DUP1 REVERT JUMPDEST DUP2 ADD SWAP1 DUP1 DUP1 MLOAD PUSH1 0x40 MLOAD SWAP4 SWAP3 SWAP2 SWAP1 DUP5 PUSH5 0x100000000 DUP3 GT ISZERO PUSH2 0x1F4D JUMPI PUSH1 0x0 DUP1 REVERT JUMPDEST SWAP1 DUP4 ADD SWAP1 PUSH1 0x20 DUP3 ADD DUP6 DUP2 GT ISZERO PUSH2 0x1F62 JUMPI PUSH1 0x0 DUP1 REVERT JUMPDEST DUP3 MLOAD PUSH5 0x100000000 DUP2 GT DUP3 DUP3 ADD DUP9 LT OR ISZERO PUSH2 0x1F7C JUMPI PUSH1 0x0 DUP1 REVERT JUMPDEST DUP3 MSTORE POP DUP2 MLOAD PUSH1 0x20 SWAP2 DUP3 ADD SWAP3 SWAP1 SWAP2 ADD SWAP1 DUP1 DUP4 DUP4 PUSH1 0x0 JUMPDEST DUP4 DUP2 LT ISZERO PUSH2 0x1FA9 JUMPI DUP2 DUP2 ADD MLOAD DUP4 DUP3 ADD MSTORE PUSH1 0x20 ADD PUSH2 0x1F91 JUMP JUMPDEST POP POP POP POP SWAP1 POP SWAP1 DUP2 ADD SWAP1 PUSH1 0x1F AND DUP1 ISZERO PUSH2 0x1FD6 JUMPI DUP1 DUP3 SUB DUP1 MLOAD PUSH1 0x1 DUP4 PUSH1 0x20 SUB PUSH2 0x100 EXP SUB NOT AND DUP2 MSTORE PUSH1 0x20 ADD SWAP2 POP JUMPDEST POP PUSH1 0x40 MSTORE POP POP POP POP POP JUMP JUMPDEST PUSH32 0x8C379A000000000000000000000000000000000000000000000000000000000 PUSH1 0x0 SWAP1 DUP2 MSTORE PUSH1 0x20 PUSH1 0x4 MSTORE PUSH1 0x7 PUSH1 0x24 MSTORE PUSH7 0x42414C23000030 PUSH1 0xA DUP1 DUP5 DIV DUP2 DUP2 MOD PUSH1 0x30 SWAP1 DUP2 ADD PUSH1 0x8 SHL SWAP6 DUP4 SWAP1 MOD SWAP6 SWAP1 SWAP6 ADD SWAP1 DUP3 SWAP1 DIV SWAP2 DUP3 MOD SWAP1 SWAP5 ADD PUSH1 0x10 SHL SWAP4 SWAP1 SWAP4 ADD ADD PUSH1 0xC8 SHL PUSH1 0x44 MSTORE PUSH1 0x64 SWAP1 REVERT JUMPDEST PUSH1 0x40 MLOAD DUP1 PUSH1 0x60 ADD PUSH1 0x40 MSTORE DUP1 PUSH1 0x3 SWAP1 PUSH1 0x20 DUP3 MUL DUP1 CALLDATASIZE DUP4 CALLDATACOPY POP SWAP2 SWAP3 SWAP2 POP POP JUMP JUMPDEST PUSH1 0x40 MLOAD DUP1 PUSH2 0x1C0 ADD PUSH1 0x40 MSTORE DUP1 PUSH1 0xE SWAP1 PUSH1 0x20 DUP3 MUL DUP1 CALLDATASIZE DUP4 CALLDATACOPY POP SWAP2 SWAP3 SWAP2 POP POP JUMP JUMPDEST PUSH1 0x40 MLOAD DUP1 PUSH2 0x260 ADD PUSH1 0x40 MSTORE DUP1 PUSH1 0x13 SWAP1 PUSH1 0x20 DUP3 MUL DUP1 CALLDATASIZE DUP4 CALLDATACOPY POP SWAP2 SWAP3 SWAP2 POP POP JUMP JUMPDEST PUSH1 0x40 MLOAD DUP1 PUSH1 0x40 ADD PUSH1 0x40 MSTORE DUP1 PUSH1 0x2 SWAP1 PUSH1 0x20 DUP3 MUL DUP1 CALLDATASIZE DUP4 CALLDATACOPY POP SWAP2 SWAP3 SWAP2 POP POP JUMP INVALID LOG2 PUSH5 0x6970667358 0x22 SLT KECCAK256 0xED AND EXTCODEHASH 0x27 0xC2 0xAA 0x4D 0xB2 0x4D PUSH25 0x308D3FBE1A54148FF461F33BA264BA9F905AD166AA9E64736F PUSH13 0x63430007010033000000000000 "
        },
        "methodIdentifiers": {
          "GAUGE_CHECKPOINTER_MULTISIG()": "7e55ac37",
          "firstStageActivationTime()": "1e390389",
          "getAuthorizer()": "aaabadc5",
          "getAuthorizerAdaptor()": "e758d36b",
          "getCurrentDeploymentStage()": "b77984e9",
          "getVault()": "8d928af8",
          "performFirstStage()": "2bd46566",
          "performSecondStage()": "b1e70e80",
          "secondStageActivationTime()": "0249e6fa"
        }
      }
    }
  }
}