{
  "address": "0xdFCeA9088c8A88A76FF74892C1457C17dfeef9C1",
  "abi": [
    {
      "inputs": [
        {
          "internalType": "address",
          "name": "minter",
          "type": "address"
        }
      ],
      "stateMutability": "nonpayable",
      "type": "constructor"
    },
    {
      "anonymous": false,
      "inputs": [
        {
          "indexed": true,
          "internalType": "address",
          "name": "owner",
          "type": "address"
        },
        {
          "indexed": true,
          "internalType": "address",
          "name": "spender",
          "type": "address"
        },
        {
          "indexed": false,
          "internalType": "uint256",
          "name": "value",
          "type": "uint256"
        }
      ],
      "name": "Approval",
      "type": "event"
    },
    {
      "anonymous": false,
      "inputs": [
        {
          "indexed": true,
          "internalType": "address",
          "name": "dst",
          "type": "address"
        },
        {
          "indexed": false,
          "internalType": "uint256",
          "name": "wad",
          "type": "uint256"
        }
      ],
      "name": "Deposit",
      "type": "event"
    },
    {
      "anonymous": false,
      "inputs": [
        {
          "indexed": true,
          "internalType": "bytes32",
          "name": "role",
          "type": "bytes32"
        },
        {
          "indexed": true,
          "internalType": "bytes32",
          "name": "previousAdminRole",
          "type": "bytes32"
        },
        {
          "indexed": true,
          "internalType": "bytes32",
          "name": "newAdminRole",
          "type": "bytes32"
        }
      ],
      "name": "RoleAdminChanged",
      "type": "event"
    },
    {
      "anonymous": false,
      "inputs": [
        {
          "indexed": true,
          "internalType": "bytes32",
          "name": "role",
          "type": "bytes32"
        },
        {
          "indexed": true,
          "internalType": "address",
          "name": "account",
          "type": "address"
        },
        {
          "indexed": true,
          "internalType": "address",
          "name": "sender",
          "type": "address"
        }
      ],
      "name": "RoleGranted",
      "type": "event"
    },
    {
      "anonymous": false,
      "inputs": [
        {
          "indexed": true,
          "internalType": "bytes32",
          "name": "role",
          "type": "bytes32"
        },
        {
          "indexed": true,
          "internalType": "address",
          "name": "account",
          "type": "address"
        },
        {
          "indexed": true,
          "internalType": "address",
          "name": "sender",
          "type": "address"
        }
      ],
      "name": "RoleRevoked",
      "type": "event"
    },
    {
      "anonymous": false,
      "inputs": [
        {
          "indexed": true,
          "internalType": "address",
          "name": "from",
          "type": "address"
        },
        {
          "indexed": true,
          "internalType": "address",
          "name": "to",
          "type": "address"
        },
        {
          "indexed": false,
          "internalType": "uint256",
          "name": "value",
          "type": "uint256"
        }
      ],
      "name": "Transfer",
      "type": "event"
    },
    {
      "anonymous": false,
      "inputs": [
        {
          "indexed": true,
          "internalType": "address",
          "name": "src",
          "type": "address"
        },
        {
          "indexed": false,
          "internalType": "uint256",
          "name": "wad",
          "type": "uint256"
        }
      ],
      "name": "Withdrawal",
      "type": "event"
    },
    {
      "inputs": [],
      "name": "DEFAULT_ADMIN_ROLE",
      "outputs": [
        {
          "internalType": "bytes32",
          "name": "",
          "type": "bytes32"
        }
      ],
      "stateMutability": "view",
      "type": "function"
    },
    {
      "inputs": [],
      "name": "MINTER_ROLE",
      "outputs": [
        {
          "internalType": "bytes32",
          "name": "",
          "type": "bytes32"
        }
      ],
      "stateMutability": "view",
      "type": "function"
    },
    {
      "inputs": [
        {
          "internalType": "address",
          "name": "",
          "type": "address"
        },
        {
          "internalType": "address",
          "name": "",
          "type": "address"
        }
      ],
      "name": "allowance",
      "outputs": [
        {
          "internalType": "uint256",
          "name": "",
          "type": "uint256"
        }
      ],
      "stateMutability": "view",
      "type": "function"
    },
    {
      "inputs": [
        {
          "internalType": "address",
          "name": "guy",
          "type": "address"
        },
        {
          "internalType": "uint256",
          "name": "wad",
          "type": "uint256"
        }
      ],
      "name": "approve",
      "outputs": [
        {
          "internalType": "bool",
          "name": "",
          "type": "bool"
        }
      ],
      "stateMutability": "nonpayable",
      "type": "function"
    },
    {
      "inputs": [
        {
          "internalType": "address",
          "name": "",
          "type": "address"
        }
      ],
      "name": "balanceOf",
      "outputs": [
        {
          "internalType": "uint256",
          "name": "",
          "type": "uint256"
        }
      ],
      "stateMutability": "view",
      "type": "function"
    },
    {
      "inputs": [],
      "name": "decimals",
      "outputs": [
        {
          "internalType": "uint8",
          "name": "",
          "type": "uint8"
        }
      ],
      "stateMutability": "view",
      "type": "function"
    },
    {
      "inputs": [],
      "name": "deposit",
      "outputs": [],
      "stateMutability": "payable",
      "type": "function"
    },
    {
      "inputs": [
        {
          "internalType": "bytes32",
          "name": "role",
          "type": "bytes32"
        }
      ],
      "name": "getRoleAdmin",
      "outputs": [
        {
          "internalType": "bytes32",
          "name": "",
          "type": "bytes32"
        }
      ],
      "stateMutability": "view",
      "type": "function"
    },
    {
      "inputs": [
        {
          "internalType": "bytes32",
          "name": "role",
          "type": "bytes32"
        },
        {
          "internalType": "uint256",
          "name": "index",
          "type": "uint256"
        }
      ],
      "name": "getRoleMember",
      "outputs": [
        {
          "internalType": "address",
          "name": "",
          "type": "address"
        }
      ],
      "stateMutability": "view",
      "type": "function"
    },
    {
      "inputs": [
        {
          "internalType": "bytes32",
          "name": "role",
          "type": "bytes32"
        }
      ],
      "name": "getRoleMemberCount",
      "outputs": [
        {
          "internalType": "uint256",
          "name": "",
          "type": "uint256"
        }
      ],
      "stateMutability": "view",
      "type": "function"
    },
    {
      "inputs": [
        {
          "internalType": "bytes32",
          "name": "role",
          "type": "bytes32"
        },
        {
          "internalType": "address",
          "name": "account",
          "type": "address"
        }
      ],
      "name": "grantRole",
      "outputs": [],
      "stateMutability": "nonpayable",
      "type": "function"
    },
    {
      "inputs": [
        {
          "internalType": "bytes32",
          "name": "role",
          "type": "bytes32"
        },
        {
          "internalType": "address",
          "name": "account",
          "type": "address"
        }
      ],
      "name": "hasRole",
      "outputs": [
        {
          "internalType": "bool",
          "name": "",
          "type": "bool"
        }
      ],
      "stateMutability": "view",
      "type": "function"
    },
    {
      "inputs": [
        {
          "internalType": "address",
          "name": "destinatary",
          "type": "address"
        },
        {
          "internalType": "uint256",
          "name": "amount",
          "type": "uint256"
        }
      ],
      "name": "mint",
      "outputs": [],
      "stateMutability": "nonpayable",
      "type": "function"
    },
    {
      "inputs": [],
      "name": "name",
      "outputs": [
        {
          "internalType": "string",
          "name": "",
          "type": "string"
        }
      ],
      "stateMutability": "view",
      "type": "function"
    },
    {
      "inputs": [
        {
          "internalType": "bytes32",
          "name": "role",
          "type": "bytes32"
        },
        {
          "internalType": "address",
          "name": "account",
          "type": "address"
        }
      ],
      "name": "renounceRole",
      "outputs": [],
      "stateMutability": "nonpayable",
      "type": "function"
    },
    {
      "inputs": [
        {
          "internalType": "bytes32",
          "name": "role",
          "type": "bytes32"
        },
        {
          "internalType": "address",
          "name": "account",
          "type": "address"
        }
      ],
      "name": "revokeRole",
      "outputs": [],
      "stateMutability": "nonpayable",
      "type": "function"
    },
    {
      "inputs": [],
      "name": "symbol",
      "outputs": [
        {
          "internalType": "string",
          "name": "",
          "type": "string"
        }
      ],
      "stateMutability": "view",
      "type": "function"
    },
    {
      "inputs": [],
      "name": "totalSupply",
      "outputs": [
        {
          "internalType": "uint256",
          "name": "",
          "type": "uint256"
        }
      ],
      "stateMutability": "view",
      "type": "function"
    },
    {
      "inputs": [
        {
          "internalType": "address",
          "name": "dst",
          "type": "address"
        },
        {
          "internalType": "uint256",
          "name": "wad",
          "type": "uint256"
        }
      ],
      "name": "transfer",
      "outputs": [
        {
          "internalType": "bool",
          "name": "",
          "type": "bool"
        }
      ],
      "stateMutability": "nonpayable",
      "type": "function"
    },
    {
      "inputs": [
        {
          "internalType": "address",
          "name": "src",
          "type": "address"
        },
        {
          "internalType": "address",
          "name": "dst",
          "type": "address"
        },
        {
          "internalType": "uint256",
          "name": "wad",
          "type": "uint256"
        }
      ],
      "name": "transferFrom",
      "outputs": [
        {
          "internalType": "bool",
          "name": "",
          "type": "bool"
        }
      ],
      "stateMutability": "nonpayable",
      "type": "function"
    },
    {
      "inputs": [
        {
          "internalType": "uint256",
          "name": "wad",
          "type": "uint256"
        }
      ],
      "name": "withdraw",
      "outputs": [],
      "stateMutability": "nonpayable",
      "type": "function"
    },
    {
      "stateMutability": "payable",
      "type": "receive"
    }
  ],
  "transactionHash": "0x82d37832f495225198334ecce2a8dd281584d1ea00b3dde99e73faae86a8ae42",
  "args": [
    "0x697A71353A4BC1eb1356763018a229c27a3fbA0C"
  ],
  "solcInputHash": "f5b81e535e1f92763f2377f41bc125ac",
  "bytecode": "0x60c0604052600d60808190526c2bb930b83832b21022ba3432b960991b60a0908152620000309160019190620001e2565b50604080518082019091526004808252630ae8aa8960e31b60209092019182526200005e91600291620001e2565b506003805460ff191660121790553480156200007957600080fd5b506040516200141738038062001417833981810160405260208110156200009f57600080fd5b5051620000ae600082620000e1565b620000da7f9f2df0fed2c77648de5860a4cc508cd0818c85b8b8a1ab4ceeef8d981c8956a682620000e1565b506200027e565b620000ed8282620000f1565b5050565b6000828152602081815260409091206200011691839062000d9162000158821b17901c565b15620000ed5760405133906001600160a01b0383169084907f2f8788117e7eff1d82e926ec794901d17c78024a50270940304540a733656f0d90600090a45050565b6000620001668383620001c1565b620001b757508154600180820184556000848152602080822090930180546001600160a01b0319166001600160a01b03861690811790915585549082528286019093526040902091909155620001bb565b5060005b92915050565b6001600160a01b031660009081526001919091016020526040902054151590565b828054600181600116156101000203166002900490600052602060002090601f016020900481019282601f106200022557805160ff191683800117855562000255565b8280016001018555821562000255579182015b828111156200025557825182559160200191906001019062000238565b506200026392915062000267565b5090565b5b8082111562000263576000815560010162000268565b611189806200028e6000396000f3fe60806040526004361061016e5760003560e01c806370a08231116100cb578063a9059cbb1161007f578063d539139311610059578063d5391393146105af578063d547741f146105c4578063dd62ed3e1461060a5761017d565b8063a9059cbb14610537578063ca15c8731461057d578063d0e30db0146105a75761017d565b806391d14854116100b057806391d14854146104c757806395d89b411461050d578063a217fddf146105225761017d565b806370a082311461042e5780639010d07c1461046e5761017d565b80632e1a7d4d11610122578063313ce56711610107578063313ce5671461037757806336568abe146103a257806340c10f19146103e85761017d565b80632e1a7d4d146103075780632f2ff15d146103315761017d565b806318160ddd1161015357806318160ddd1461026657806323b872dd1461028d578063248a9ca3146102dd5761017d565b806306fdde0314610182578063095ea7b31461020c5761017d565b3661017d5761017b610652565b005b600080fd5b34801561018e57600080fd5b506101976106a1565b6040805160208082528351818301528351919283929083019185019080838360005b838110156101d15781810151838201526020016101b9565b50505050905090810190601f1680156101fe5780820380516001836020036101000a031916815260200191505b509250505060405180910390f35b34801561021857600080fd5b506102526004803603604081101561022f57600080fd5b5073ffffffffffffffffffffffffffffffffffffffff813516906020013561072e565b604080519115158252519081900360200190f35b34801561027257600080fd5b5061027b6107a2565b60408051918252519081900360200190f35b34801561029957600080fd5b50610252600480360360608110156102b057600080fd5b5073ffffffffffffffffffffffffffffffffffffffff8135811691602081013590911690604001356107a6565b3480156102e957600080fd5b5061027b6004803603602081101561030057600080fd5b50356109ec565b34801561031357600080fd5b5061017b6004803603602081101561032a57600080fd5b5035610a01565b34801561033d57600080fd5b5061017b6004803603604081101561035457600080fd5b508035906020013573ffffffffffffffffffffffffffffffffffffffff16610af8565b34801561038357600080fd5b5061038c610b2e565b6040805160ff9092168252519081900360200190f35b3480156103ae57600080fd5b5061017b600480360360408110156103c557600080fd5b508035906020013573ffffffffffffffffffffffffffffffffffffffff16610b37565b3480156103f457600080fd5b5061017b6004803603604081101561040b57600080fd5b5073ffffffffffffffffffffffffffffffffffffffff8135169060200135610b65565b34801561043a57600080fd5b5061027b6004803603602081101561045157600080fd5b503573ffffffffffffffffffffffffffffffffffffffff16610c5e565b34801561047a57600080fd5b5061049e6004803603604081101561049157600080fd5b5080359060200135610c70565b6040805173ffffffffffffffffffffffffffffffffffffffff9092168252519081900360200190f35b3480156104d357600080fd5b50610252600480360360408110156104ea57600080fd5b508035906020013573ffffffffffffffffffffffffffffffffffffffff16610c8f565b34801561051957600080fd5b50610197610ca7565b34801561052e57600080fd5b5061027b610cff565b34801561054357600080fd5b506102526004803603604081101561055a57600080fd5b5073ffffffffffffffffffffffffffffffffffffffff8135169060200135610d04565b34801561058957600080fd5b5061027b600480360360208110156105a057600080fd5b5035610d11565b61017b610652565b3480156105bb57600080fd5b5061027b610d28565b3480156105d057600080fd5b5061017b600480360360408110156105e757600080fd5b508035906020013573ffffffffffffffffffffffffffffffffffffffff16610d4c565b34801561061657600080fd5b5061027b6004803603604081101561062d57600080fd5b5073ffffffffffffffffffffffffffffffffffffffff81358116916020013516610d74565b33600081815260046020908152604091829020805434908101909155825190815291517fe1fffcc4923d04b559f4d29a8bfc6cda04eb5b0d3c460751c2402c5c5cc9109c9281900390910190a2565b60018054604080516020600284861615610100026000190190941693909304601f810184900484028201840190925281815292918301828280156107265780601f106106fb57610100808354040283529160200191610726565b820191906000526020600020905b81548152906001019060200180831161070957829003601f168201915b505050505081565b33600081815260056020908152604080832073ffffffffffffffffffffffffffffffffffffffff8716808552908352818420869055815186815291519394909390927f8c5be1e5ebec7d5bd14f71427d1e84f3dd0314c0f7b2291e5b200ac8c7c3b925928290030190a35060015b92915050565b4790565b73ffffffffffffffffffffffffffffffffffffffff831660009081526004602052604081205482111561083a57604080517f08c379a000000000000000000000000000000000000000000000000000000000815260206004820152601460248201527f494e53554646494349454e545f42414c414e4345000000000000000000000000604482015290519081900360640190fd5b73ffffffffffffffffffffffffffffffffffffffff84163314801590610892575073ffffffffffffffffffffffffffffffffffffffff8416600090815260056020908152604080832033845290915290205460001914155b1561096e5773ffffffffffffffffffffffffffffffffffffffff8416600090815260056020908152604080832033845290915290205482111561093657604080517f08c379a000000000000000000000000000000000000000000000000000000000815260206004820152601660248201527f494e53554646494349454e545f414c4c4f57414e434500000000000000000000604482015290519081900360640190fd5b73ffffffffffffffffffffffffffffffffffffffff841660009081526005602090815260408083203384529091529020805483900390555b73ffffffffffffffffffffffffffffffffffffffff808516600081815260046020908152604080832080548890039055938716808352918490208054870190558351868152935191937fddf252ad1be2c89b69c2b068fc378daa952ba7f163c4a11628f55a4df523b3ef929081900390910190a35060019392505050565b60009081526020819052604090206002015490565b33600090815260046020526040902054811115610a7f57604080517f08c379a000000000000000000000000000000000000000000000000000000000815260206004820152601460248201527f494e53554646494349454e545f42414c414e4345000000000000000000000000604482015290519081900360640190fd5b33600081815260046020526040808220805485900390555183156108fc0291849190818181858888f19350505050158015610abe573d6000803e3d6000fd5b5060408051828152905133917f7fcf532c15f0a6db0bd6d0e038bea71d30d808c7d98cb3bf7268a95bf5081b65919081900360200190a250565b600082815260208190526040902060020154610b2090610b189033610c8f565b6101a6610e19565b610b2a8282610e27565b5050565b60035460ff1681565b610b5b73ffffffffffffffffffffffffffffffffffffffff821633146101a8610e19565b610b2a8282610e8d565b610b8f7f9f2df0fed2c77648de5860a4cc508cd0818c85b8b8a1ab4ceeef8d981c8956a633610c8f565b610bfa57604080517f08c379a000000000000000000000000000000000000000000000000000000000815260206004820152600a60248201527f4e4f545f4d494e54455200000000000000000000000000000000000000000000604482015290519081900360640190fd5b73ffffffffffffffffffffffffffffffffffffffff8216600081815260046020908152604091829020805485019055815184815291517fe1fffcc4923d04b559f4d29a8bfc6cda04eb5b0d3c460751c2402c5c5cc9109c9281900390910190a25050565b60046020526000908152604090205481565b6000828152602081905260408120610c889083610ef3565b9392505050565b6000828152602081905260408120610c889083610f0f565b6002805460408051602060018416156101000260001901909316849004601f810184900484028201840190925281815292918301828280156107265780601f106106fb57610100808354040283529160200191610726565b600081565b6000610c883384846107a6565b600081815260208190526040812061079c90610f3d565b7f9f2df0fed2c77648de5860a4cc508cd0818c85b8b8a1ab4ceeef8d981c8956a681565b600082815260208190526040902060020154610b5b90610d6c9033610c8f565b6101a7610e19565b600560209081526000928352604080842090915290825290205481565b6000610d9d8383610f0f565b610e1157508154600180820184556000848152602080822090930180547fffffffffffffffffffffffff00000000000000000000000000000000000000001673ffffffffffffffffffffffffffffffffffffffff86169081179091558554908252828601909352604090209190915561079c565b50600061079c565b81610b2a57610b2a81610f41565b6000828152602081905260409020610e3f9082610d91565b15610b2a57604051339073ffffffffffffffffffffffffffffffffffffffff83169084907f2f8788117e7eff1d82e926ec794901d17c78024a50270940304540a733656f0d90600090a45050565b6000828152602081905260409020610ea59082610fae565b15610b2a57604051339073ffffffffffffffffffffffffffffffffffffffff83169084907ff6391f5c32d9c69d2a47ea670b442974b53935d1edc7fd64eb21e047a839171b90600090a45050565b8154600090610f059083106064610e19565b610c888383611119565b73ffffffffffffffffffffffffffffffffffffffff1660009081526001919091016020526040902054151590565b5490565b7f08c379a0000000000000000000000000000000000000000000000000000000006000908152602060045260076024526642414c23000030600a808404818106603090810160081b95839006959095019082900491820690940160101b939093010160c81b604452606490fd5b73ffffffffffffffffffffffffffffffffffffffff81166000908152600183016020526040812054801561110f5783546000198083019190810190600090879083908110610ff857fe5b600091825260209091200154875473ffffffffffffffffffffffffffffffffffffffff9091169150819088908590811061102e57fe5b600091825260208083209190910180547fffffffffffffffffffffffff00000000000000000000000000000000000000001673ffffffffffffffffffffffffffffffffffffffff94851617905591831681526001898101909252604090209084019055865487908061109c57fe5b60008281526020808220830160001990810180547fffffffffffffffffffffffff000000000000000000000000000000000000000016905590920190925573ffffffffffffffffffffffffffffffffffffffff8816825260018981019091526040822091909155945061079c9350505050565b600091505061079c565b600082600001828154811061112a57fe5b60009182526020909120015473ffffffffffffffffffffffffffffffffffffffff16939250505056fea26469706673582212207bc6ad7d9918842035ef89567fb4f665f048831fbd722948b6a89ac104263ddc64736f6c63430007010033",
  "devdoc": {
    "kind": "dev",
    "methods": {
      "getRoleAdmin(bytes32)": {
        "details": "Returns the admin role that controls `role`. See {grantRole} and {revokeRole}. To change a role's admin, use {_setRoleAdmin}."
      },
      "getRoleMember(bytes32,uint256)": {
        "details": "Returns one of the accounts that have `role`. `index` must be a value between 0 and {getRoleMemberCount}, non-inclusive. Role bearers are not sorted in any particular way, and their ordering may change at any point. WARNING: When using {getRoleMember} and {getRoleMemberCount}, make sure you perform all queries on the same block. See the following https://forum.openzeppelin.com/t/iterating-over-elements-on-enumerableset-in-openzeppelin-contracts/2296[forum post] for more information."
      },
      "getRoleMemberCount(bytes32)": {
        "details": "Returns the number of accounts that have `role`. Can be used together with {getRoleMember} to enumerate all bearers of a role."
      },
      "grantRole(bytes32,address)": {
        "details": "Grants `role` to `account`. If `account` had not been already granted `role`, emits a {RoleGranted} event. Requirements: - the caller must have ``role``'s admin role."
      },
      "hasRole(bytes32,address)": {
        "details": "Returns `true` if `account` has been granted `role`."
      },
      "renounceRole(bytes32,address)": {
        "details": "Revokes `role` from the calling account. Roles are often managed via {grantRole} and {revokeRole}: this function's purpose is to provide a mechanism for accounts to lose their privileges if they are compromised (such as when a trusted device is misplaced). If the calling account had been granted `role`, emits a {RoleRevoked} event. Requirements: - the caller must be `account`."
      },
      "revokeRole(bytes32,address)": {
        "details": "Revokes `role` from `account`. If `account` had already been granted `role`, emits a {RoleRevoked} event. Requirements: - the caller must have ``role``'s admin role."
      },
      "totalSupply()": {
        "details": "Returns the amount of tokens in existence."
      }
    },
    "stateVariables": {
      "allowance": {
        "details": "Returns the remaining number of tokens that `spender` will be allowed to spend on behalf of `owner` through {transferFrom}. This is zero by default. This value changes when {approve} or {transferFrom} are called."
      },
      "balanceOf": {
        "details": "Returns the amount of tokens owned by `account`."
      }
    },
    "version": 1
  },
  "userdoc": {
    "kind": "user",
    "methods": {},
    "version": 1
  },
  "storageLayout": {
    "storage": [
      {
        "astId": 3267,
        "contract": "contracts/test/WETH.sol:WETH",
        "label": "_roles",
        "offset": 0,
        "slot": "0",
        "type": "t_mapping(t_bytes32,t_struct(RoleData)3263_storage)"
      },
      {
        "astId": 15638,
        "contract": "contracts/test/WETH.sol:WETH",
        "label": "name",
        "offset": 0,
        "slot": "1",
        "type": "t_string_storage"
      },
      {
        "astId": 15641,
        "contract": "contracts/test/WETH.sol:WETH",
        "label": "symbol",
        "offset": 0,
        "slot": "2",
        "type": "t_string_storage"
      },
      {
        "astId": 15644,
        "contract": "contracts/test/WETH.sol:WETH",
        "label": "decimals",
        "offset": 0,
        "slot": "3",
        "type": "t_uint8"
      },
      {
        "astId": 15661,
        "contract": "contracts/test/WETH.sol:WETH",
        "label": "balanceOf",
        "offset": 0,
        "slot": "4",
        "type": "t_mapping(t_address,t_uint256)"
      },
      {
        "astId": 15668,
        "contract": "contracts/test/WETH.sol:WETH",
        "label": "allowance",
        "offset": 0,
        "slot": "5",
        "type": "t_mapping(t_address,t_mapping(t_address,t_uint256))"
      }
    ],
    "types": {
      "t_address": {
        "encoding": "inplace",
        "label": "address",
        "numberOfBytes": "20"
      },
      "t_array(t_address)dyn_storage": {
        "base": "t_address",
        "encoding": "dynamic_array",
        "label": "address[]",
        "numberOfBytes": "32"
      },
      "t_bytes32": {
        "encoding": "inplace",
        "label": "bytes32",
        "numberOfBytes": "32"
      },
      "t_mapping(t_address,t_mapping(t_address,t_uint256))": {
        "encoding": "mapping",
        "key": "t_address",
        "label": "mapping(address => mapping(address => uint256))",
        "numberOfBytes": "32",
        "value": "t_mapping(t_address,t_uint256)"
      },
      "t_mapping(t_address,t_uint256)": {
        "encoding": "mapping",
        "key": "t_address",
        "label": "mapping(address => uint256)",
        "numberOfBytes": "32",
        "value": "t_uint256"
      },
      "t_mapping(t_bytes32,t_struct(RoleData)3263_storage)": {
        "encoding": "mapping",
        "key": "t_bytes32",
        "label": "mapping(bytes32 => struct AccessControl.RoleData)",
        "numberOfBytes": "32",
        "value": "t_struct(RoleData)3263_storage"
      },
      "t_string_storage": {
        "encoding": "bytes",
        "label": "string",
        "numberOfBytes": "32"
      },
      "t_struct(AddressSet)4722_storage": {
        "encoding": "inplace",
        "label": "struct EnumerableSet.AddressSet",
        "members": [
          {
            "astId": 4717,
            "contract": "contracts/test/WETH.sol:WETH",
            "label": "_values",
            "offset": 0,
            "slot": "0",
            "type": "t_array(t_address)dyn_storage"
          },
          {
            "astId": 4721,
            "contract": "contracts/test/WETH.sol:WETH",
            "label": "_indexes",
            "offset": 0,
            "slot": "1",
            "type": "t_mapping(t_address,t_uint256)"
          }
        ],
        "numberOfBytes": "64"
      },
      "t_struct(RoleData)3263_storage": {
        "encoding": "inplace",
        "label": "struct AccessControl.RoleData",
        "members": [
          {
            "astId": 3260,
            "contract": "contracts/test/WETH.sol:WETH",
            "label": "members",
            "offset": 0,
            "slot": "0",
            "type": "t_struct(AddressSet)4722_storage"
          },
          {
            "astId": 3262,
            "contract": "contracts/test/WETH.sol:WETH",
            "label": "adminRole",
            "offset": 0,
            "slot": "2",
            "type": "t_bytes32"
          }
        ],
        "numberOfBytes": "96"
      },
      "t_uint256": {
        "encoding": "inplace",
        "label": "uint256",
        "numberOfBytes": "32"
      },
      "t_uint8": {
        "encoding": "inplace",
        "label": "uint8",
        "numberOfBytes": "1"
      }
    }
  }
}