{
  "_format": "hh-sol-artifact-1",
  "contractName": "WeightedPool2TokensFactory",
  "sourceName": "contracts/pools/weighted/WeightedPool2TokensFactory.sol",
  "abi": [
    {
      "inputs": [
        {
          "internalType": "contract IVault",
          "name": "vault",
          "type": "address"
        }
      ],
      "stateMutability": "nonpayable",
      "type": "constructor"
    },
    {
      "anonymous": false,
      "inputs": [
        {
          "indexed": true,
          "internalType": "address",
          "name": "pool",
          "type": "address"
        }
      ],
      "name": "PoolCreated",
      "type": "event"
    },
    {
      "inputs": [
        {
          "internalType": "string",
          "name": "name",
          "type": "string"
        },
        {
          "internalType": "string",
          "name": "symbol",
          "type": "string"
        },
        {
          "internalType": "contract IERC20[]",
          "name": "tokens",
          "type": "address[]"
        },
        {
          "internalType": "uint256[]",
          "name": "weights",
          "type": "uint256[]"
        },
        {
          "internalType": "uint256",
          "name": "swapFeePercentage",
          "type": "uint256"
        },
        {
          "internalType": "bool",
          "name": "oracleEnabled",
          "type": "bool"
        },
        {
          "internalType": "address",
          "name": "owner",
          "type": "address"
        }
      ],
      "name": "create",
      "outputs": [
        {
          "internalType": "address",
          "name": "",
          "type": "address"
        }
      ],
      "stateMutability": "nonpayable",
      "type": "function"
    },
    {
      "inputs": [],
      "name": "getPauseConfiguration",
      "outputs": [
        {
          "internalType": "uint256",
          "name": "pauseWindowDuration",
          "type": "uint256"
        },
        {
          "internalType": "uint256",
          "name": "bufferPeriodDuration",
          "type": "uint256"
        }
      ],
      "stateMutability": "view",
      "type": "function"
    },
    {
      "inputs": [],
      "name": "getVault",
      "outputs": [
        {
          "internalType": "contract IVault",
          "name": "",
          "type": "address"
        }
      ],
      "stateMutability": "view",
      "type": "function"
    },
    {
      "inputs": [
        {
          "internalType": "address",
          "name": "pool",
          "type": "address"
        }
      ],
      "name": "isPoolFromFactory",
      "outputs": [
        {
          "internalType": "bool",
          "name": "",
          "type": "bool"
        }
      ],
      "stateMutability": "view",
      "type": "function"
    }
  ],
  "bytecode": "0x60c060405234801561001057600080fd5b50604051615fe1380380615fe183398101604081905261002f9161004d565b60601b6001600160601b0319166080526276a700420160a05261007b565b60006020828403121561005e578081fd5b81516001600160a01b0381168114610074578182fd5b9392505050565b60805160601c60a051615f3b6100a660003980610221528061024b5250806102a75250615f3b6000f3fe60806040523480156200001157600080fd5b5060043610620000525760003560e01c80631596019b14620000575780632da47c4014620000865780636634b75314620000a05780638d928af814620000c6575b600080fd5b6200006e6200006836600462000548565b620000d0565b6040516200007d91906200068f565b60405180910390f35b620000906200021b565b6040516200007d929190620007a2565b620000b7620000b136600462000522565b62000287565b6040516200007d9190620006a3565b6200006e620002a5565b6000806000620000df6200021b565b91509150620000ed62000315565b60405180610180016040528062000103620002a5565b6001600160a01b031681526020018c81526020018b81526020018a6000815181106200012b57fe5b60200260200101516001600160a01b031681526020018a6001815181106200014f57fe5b60200260200101516001600160a01b03168152602001896000815181106200017357fe5b60200260200101518152602001896001815181106200018e57fe5b602002602001015181526020018881526020018481526020018381526020018715158152602001866001600160a01b03168152509050600081604051620001d5906200039c565b620001e19190620006ae565b604051809103906000f080158015620001fe573d6000803e3d6000fd5b5090506200020c81620002c9565b9b9a5050505050505050505050565b600080427f00000000000000000000000000000000000000000000000000000000000000008110156200027957807f000000000000000000000000000000000000000000000000000000000000000003925062278d00915062000282565b60009250600091505b509091565b6001600160a01b031660009081526020819052604090205460ff1690565b7f000000000000000000000000000000000000000000000000000000000000000090565b6001600160a01b038116600081815260208190526040808220805460ff19166001179055517f83a48fbcfc991335314e74d0496aab6a1987e992ddc85dddbcc4d6dd6ef2e9fc9190a250565b60405180610180016040528060006001600160a01b03168152602001606081526020016060815260200160006001600160a01b0316815260200160006001600160a01b03168152602001600081526020016000815260200160008152602001600081526020016000815260200160001515815260200160006001600160a01b031681525090565b6156f3806200081383390190565b8035620003b781620007f9565b92915050565b600082601f830112620003ce578081fd5b8135620003e5620003df82620007d8565b620007b0565b8181529150602080830190848101818402860182018710156200040757600080fd5b60005b84811015620004335781356200042081620007f9565b845292820192908201906001016200040a565b505050505092915050565b600082601f8301126200044f578081fd5b813562000460620003df82620007d8565b8181529150602080830190848101818402860182018710156200048257600080fd5b60005b84811015620004335781358452928201929082019060010162000485565b80358015158114620003b757600080fd5b600082601f830112620004c5578081fd5b813567ffffffffffffffff811115620004dc578182fd5b620004f1601f8201601f1916602001620007b0565b91508082528360208285010111156200050957600080fd5b8060208401602084013760009082016020015292915050565b60006020828403121562000534578081fd5b81356200054181620007f9565b9392505050565b600080600080600080600060e0888a03121562000563578283fd5b873567ffffffffffffffff808211156200057b578485fd5b620005898b838c01620004b4565b985060208a01359150808211156200059f578485fd5b620005ad8b838c01620004b4565b975060408a0135915080821115620005c3578485fd5b620005d18b838c01620003bd565b965060608a0135915080821115620005e7578485fd5b50620005f68a828b016200043e565b945050608088013592506200060f8960a08a01620004a3565b9150620006208960c08a01620003aa565b905092959891949750929550565b6001600160a01b03169052565b15159052565b60008151808452815b8181101562000668576020818501810151868301820152016200064a565b818111156200067a5782602083870101525b50601f01601f19169290920160200192915050565b6001600160a01b0391909116815260200190565b901515815260200190565b600060208252620006c46020830184516200062e565b6020830151610180806040850152620006e26101a085018362000641565b91506040850151601f1985840301606086015262000701838262000641565b92505060608501516200071860808601826200062e565b5060808501516200072d60a08601826200062e565b5060a085015160c085015260c085015160e085015260e085015161010081818701528087015191505061012081818701528087015191505061014081818701528087015191505061016062000785818701836200063b565b860151905062000798858301826200062e565b5090949350505050565b918252602082015260400190565b60405181810167ffffffffffffffff81118282101715620007d057600080fd5b604052919050565b600067ffffffffffffffff821115620007ef578081fd5b5060209081020190565b6001600160a01b03811681146200080f57600080fd5b5056fe6102a06040527f6e71edae12b1b97f4d1f60370fef10105fa2faae0126114a169c64845d6126c9610120523480156200003757600080fd5b50604051620056f3380380620056f38339810160408190526200005a916200080c565b61010081810151610120830151602080850151604080870151815180830190925260018252603160f81b8285019081526101608901513360805260601b6001600160601b03191660a052835194840194852060c052915190912060e0527f8b73c3c69bb8fe3d512ecc4cf759cc79239f7b179b0ffacaa9a75d522b39400f909552805193949293909291620000f391600391906200069f565b508051620001099060049060208401906200069f565b50620001219150506276a7008311156101946200040a565b6200013562278d008211156101956200040a565b4290910161014081815291016101605281015162000153906200041f565b60e081015162000163906200047b565b80516040516309b2760f60e01b81526000916001600160a01b0316906309b2760f90620001969060029060040162000a12565b602060405180830381600087803b158015620001b157600080fd5b505af1158015620001c6573d6000803e3d6000fd5b505050506040513d601f19601f82011682018060405250810190620001ec9190620007f3565b6040805160028082526060808301845293945090916020830190803683370190505090508260600151816000815181106200022357fe5b60200260200101906001600160a01b031690816001600160a01b0316815250508260800151816001815181106200025657fe5b6001600160a01b0392831660209182029290920101528351166366a9c7d283836002604051908082528060200260200182016040528015620002a2578160200160208202803683370190505b506040518463ffffffff1660e01b8152600401620002c39392919062000976565b600060405180830381600087803b158015620002de57600080fd5b505af1158015620002f3573d6000803e3d6000fd5b505084516001600160601b0319606091821b8116610180526101a08690528187018051831b82166101c052608088015190921b166101e052516200033a92509050620004f9565b6102605260808301516200034e90620004f9565b6102805260a08301516200036f90662386f26fc10000111561012e6200040a565b62000391662386f26fc100008460c00151101561012e6200040a60201b60201c565b6000620003b58460c001518560a001516200059b60201b620011c61790919060201c565b9050620003cf670de0b6b3a764000082146101346200040a565b60a0840180516102005260c085018051610220525190511015620003f5576001620003f8565b60005b60ff16610240525062000a6392505050565b816200041b576200041b81620005b8565b5050565b6200043b816008546200060b60201b620011d81790919060201c565b6008556040517f3e350b41e86a8e10f804ade6d35340d620be35569cc75ac943e8bb14ab80ead190620004709083906200096b565b60405180910390a150565b6200049064e8d4a5100082101560cb6200040a565b620004a867016345785d8a000082111560ca6200040a565b620004c4816008546200062a60201b620011e61790919060201c565b6008556040517fa9ba3ffe0b6c366b81232caab38605a0699ad5398d6cce76f91ee809e322dafc906200047090839062000a27565b600080826001600160a01b031663313ce5676040518163ffffffff1660e01b815260040160206040518083038186803b1580156200053657600080fd5b505afa1580156200054b573d6000803e3d6000fd5b505050506040513d601f19601f8201168201806040525081019062000571919062000948565b60ff1690506000620005906012836200064960201b620011f41760201c565b600a0a949350505050565b6000828201620005af84821015836200040a565b90505b92915050565b62461bcd60e51b6000908152602060045260076024526642414c23000030600a808404818106603090810160081b95839006959095019082900491820690940160101b939093010160c81b604452606490fd5b6000620005af826055856200066160201b6200120a179092919060201c565b6000620005af826056856200068a60201b62001231179092919060201c565b60006200065b8383111560016200040a565b50900390565b60006001821b1984168284620006795760006200067c565b60015b60ff16901b17949350505050565b6001600160401b03811b1992909216911b1790565b828054600181600116156101000203166002900490600052602060002090601f016020900481019282601f10620006e257805160ff191683800117855562000712565b8280016001018555821562000712579182015b8281111562000712578251825591602001919060010190620006f5565b506200072092915062000724565b5090565b5b8082111562000720576000815560010162000725565b80516001600160a01b0381168114620005b257600080fd5b80518015158114620005b257600080fd5b600082601f83011262000775578081fd5b81516001600160401b038111156200078b578182fd5b6020620007a1601f8301601f1916820162000a30565b92508183528481838601011115620007b857600080fd5b60005b82811015620007d8578481018201518482018301528101620007bb565b82811115620007ea5760008284860101525b50505092915050565b60006020828403121562000805578081fd5b5051919050565b6000602082840312156200081e578081fd5b81516001600160401b038082111562000835578283fd5b81840191506101808083870312156200084c578384fd5b620008578162000a30565b90506200086586846200073b565b815260208301518281111562000879578485fd5b620008878782860162000764565b6020830152506040830151828111156200089f578485fd5b620008ad8782860162000764565b604083015250620008c286606085016200073b565b6060820152620008d686608085016200073b565b608082015260a0838101519082015260c0808401519082015260e08084015190820152610100808401519082015261012080840151908201526101409150620009228683850162000753565b82820152610160915062000939868385016200073b565b91810191909152949350505050565b6000602082840312156200095a578081fd5b815160ff81168114620005af578182fd5b901515815260200190565b60006060820185835260206060818501528186518084526080860191508288019350845b81811015620009c257620009af855162000a57565b835293830193918301916001016200099a565b505084810360408601528551808252908201925081860190845b8181101562000a0457620009f1835162000a57565b85529383019391830191600101620009dc565b509298975050505050505050565b602081016003831062000a2157fe5b91905290565b90815260200190565b6040518181016001600160401b038111828210171562000a4f57600080fd5b604052919050565b6001600160a01b031690565b60805160a05160601c60c05160e051610100516101205161014051610160516101805160601c6101a0516101c05160601c6101e05160601c6102005161022051610240516102605161028051614bb862000b3b60003980611d12525080611d395250806129e25280612a165280612a52525080611d665280611e02525080611d8d5280611de05280611e3052505080610c6a525080610808525080610bb852508061139d525080611379525080610f205250806116a55250806116e75250806116c6525080610b94525080610b1f5250614bb86000f3fe608060405234801561001057600080fd5b50600436106102485760003560e01c806374f3b0091161013b578063aaabadc5116100b8578063d5c096c41161007c578063d5c096c4146104e1578063d73dd623146104f4578063dd62ed3e14610507578063f89f27ed1461051a578063ffd088eb1461052257610248565b8063aaabadc5146104a3578063b10be739146104ab578063b48b5b40146104be578063c0ff1a15146104c6578063d505accf146104ce57610248565b80638d928af8116100ff5780638d928af81461046557806395d89b411461046d5780639b02cdde146104755780639d2c110c1461047d578063a9059cbb1461049057610248565b806374f3b009146103f65780637ecebe0014610417578063851c1bb31461042a57806387ec68171461043d578063893d20e81461045057610248565b806338e9922e116101c957806360d1507c1161018d57806360d1507c1461038257806366188463146103a8578063679aefce146103bb5780636b843239146103c357806370a08231146103e357610248565b806338e9922e1461032457806338fff2d0146103375780634a6b0b151461033f57806355c67628146103595780636028bfd41461036157610248565b80631dccd830116102105780631dccd830146102cc57806323b872dd146102ec578063292c914a146102ff578063313ce567146103075780633644e5151461031c57610248565b806306fdde031461024d578063095ea7b31461026b57806316c38b3c1461028b57806318160ddd146102a05780631c0de051146102b5575b600080fd5b61025561052a565b6040516102629190614a93565b60405180910390f35b61027e61027936600461423b565b6105c0565b6040516102629190614970565b61029e6102993660046144a9565b6105d7565b005b6102a86105eb565b6040516102629190614993565b6102bd6105f1565b6040516102629392919061497b565b6102df6102da3660046143ef565b61061a565b6040516102629190614938565b61027e6102fa366004614186565b610722565b61029e6107a5565b61030f6107d9565b6040516102629190614aff565b6102a86107de565b61029e61033236600461484b565b6107ed565b6102a8610806565b61034761082a565b60405161026296959493929190614a69565b6102a8610885565b61037461036f3660046144e1565b610892565b604051610262929190614ae6565b61039561039036600461484b565b6108c3565b6040516102629796959493929190614a39565b61027e6103b636600461423b565b61090c565b6102a8610966565b6103d66103d1366004614331565b61098b565b60405161026291906148f4565b6102a86103f1366004614132565b610a3c565b6104096104043660046144e1565b610a5b565b60405161026292919061494b565b6102a8610425366004614132565b610b00565b6102a86104383660046145dd565b610b1b565b61037461044b3660046144e1565b610b6d565b610458610b92565b60405161026291906148e0565b610458610bb6565b610255610bda565b6102a8610c3b565b6102a861048b366004614750565b610c41565b61027e61049e36600461423b565b610df0565b610458610dfd565b6102a86104b9366004614734565b610e07565b6102a8610e29565b6102a8610e2f565b61029e6104dc3660046141c6565b610eeb565b6104096104ef3660046144e1565b611034565b61027e61050236600461423b565b611154565b6102a861051536600461414e565b61118a565b6102df6111b5565b6102a86111bf565b60038054604080516020601f60026000196101006001881615020190951694909404938401819004810282018101909252828152606093909290918301828280156105b65780601f1061058b576101008083540402835291602001916105b6565b820191906000526020600020905b81548152906001019060200180831161059957829003601f168201915b5050505050905090565b60006105cd338484611246565b5060015b92915050565b6105df6112ae565b6105e8816112dc565b50565b60025490565b60008060006105fe61135a565b159250610609611377565b915061061361139b565b9050909192565b606081516001600160401b038111801561063357600080fd5b5060405190808252806020026020018201604052801561065d578160200160208202803683370190505b509050600061066d6008546113bf565b9050610677613ffe565b60005b845181101561071a5784818151811061068f57fe5b602002602001015191506106ad82602001516000141561013c6113cc565b60006106c883600001518585602001518660400151016113de565b905060006106df84600001518686604001516113de565b90506106f98460200151838303816106f357fe5b05611524565b86848151811061070557fe5b6020908102919091010152505060010161067a565b505050919050565b6001600160a01b038316600081815260016020908152604080832033808552925282205491926107609114806107585750838210155b6101976113cc565b61076b858585611537565b336001600160a01b0386161480159061078657506000198114155b15610798576107988533858403611246565b60019150505b9392505050565b6107ad611606565b6107b56112ae565b6107bf6001611619565b60006107c96105eb565b11156107d7576107d7611659565b565b601290565b60006107e86116a1565b905090565b6107f56112ae565b6107fd611606565b6105e88161173e565b7f000000000000000000000000000000000000000000000000000000000000000090565b60008060008060008060006008549050610843816117a7565b965061084e816117b3565b9550610859816117c0565b9450610864816113bf565b935061086f816117cd565b925061087a816117da565b915050909192939495565b60006107e86008546117da565b600060606108a2865160026117e7565b6108b7898989898989896117f46118ae61192c565b97509795505050505050565b60008060008060008060006108de610400891061013b6113cc565b60006108e989611a4b565b90506108f481611a5d565b959f949e50929c50909a509850965090945092505050565b3360009081526001602090815260408083206001600160a01b03861684529091528120548083106109485761094333856000611246565b61095c565b61095c338561095784876111f4565b611246565b5060019392505050565b60006107e86109736105eb565b61098561097e610e2f565b6002611ac0565b90611ae4565b606081516001600160401b03811180156109a457600080fd5b506040519080825280602002602001820160405280156109ce578160200160208202803683370190505b50905060006109de6008546113bf565b90506109e8614020565b60005b845181101561071a57848181518110610a0057fe5b60200260200101519150610a1d82600001518484602001516113de565b848281518110610a2957fe5b60209081029190910101526001016109eb565b6001600160a01b0381166000908152602081905260409020545b919050565b60608088610a85610a6a610bb6565b6001600160a01b0316336001600160a01b03161460cd6113cc565b610a9a610a90610806565b82146101f46113cc565b610aa387611b35565b6000606080610ab78d8d8d8d8d8d8d6117f4565b925092509250610ac78c84611b97565b610ad0826118ae565b610ad9816118ae565b610ae161135a565b15610aee57610aee611659565b909c909b509950505050505050505050565b6001600160a01b031660009081526005602052604090205490565b60007f000000000000000000000000000000000000000000000000000000000000000082604051602001610b5092919061489d565b604051602081830303815290604052805190602001209050919050565b60006060610b7d865160026117e7565b6108b789898989898989611c2a611cab61192c565b7f000000000000000000000000000000000000000000000000000000000000000090565b7f000000000000000000000000000000000000000000000000000000000000000090565b60048054604080516020601f60026000196101006001881615020190951694909404938401819004810282018101909252828152606093909290918301828280156105b65780601f1061058b576101008083540402835291602001916105b6565b60095490565b6000610c4b611606565b8360800151610c5b610a6a610bb6565b610c66610a90610806565b60007f00000000000000000000000000000000000000000000000000000000000000006001600160a01b031686602001516001600160a01b03161490506000610cae82611d09565b90506000610cbc8315611d09565b90506000610cc984611d5d565b90506000610cd78515611d5d565b9050610ce38985611db1565b9850610cef8884611db1565b9750610d188a60a0015186610d045789610d06565b8a5b87610d11578b610d13565b8a5b611dbd565b60008a516001811115610d2757fe5b1415610d95576000610d45610d3a610885565b60608d015190611ec3565b9050610d67610d61828d606001516111f490919063ffffffff16565b86611db1565b60608c01526000610d7b8c8c8c8787611f07565b9050610d878186611f26565b985050505050505050610de8565b610da38a6060015184611db1565b60608b01526000610db78b8b8b8686611f32565b9050610dc38186611f45565b9050610ddf610dd8610dd3610885565b611f51565b8290611f77565b97505050505050505b509392505050565b60006105cd338484611537565b60006107e8611fb9565b600080610e1e83610e196008546113bf565b612033565b905061079e81611524565b61040090565b60006060610e3b610bb6565b6001600160a01b031663f94d4668610e51610806565b6040518263ffffffff1660e01b8152600401610e6d9190614993565b60006040518083038186803b158015610e8557600080fd5b505afa158015610e99573d6000803e3d6000fd5b505050506040513d6000823e601f3d908101601f19168201604052610ec19190810190614266565b50915050610ece81611b35565b6060610ed861206a565b9050610ee481836120d8565b9250505090565b610ef98442111560d16113cc565b6001600160a01b0387166000908152600560209081526040808320549051909291610f50917f0000000000000000000000000000000000000000000000000000000000000000918c918c918c9188918d91016149bb565b6040516020818303038152906040528051906020012090506000610f738261214a565b9050600060018288888860405160008152602001604052604051610f9a9493929190614a1b565b6020604051602081039080840390855afa158015610fbc573d6000803e3d6000fd5b5050604051601f1901519150610ffe90506001600160a01b03821615801590610ff657508b6001600160a01b0316826001600160a01b0316145b6101f86113cc565b6001600160a01b038b1660009081526005602052604090206001850190556110278b8b8b611246565b5050505050505050505050565b60608088611043610a6a610bb6565b61104e610a90610806565b611056611606565b60006110606105eb565b6110d0576110708b8b8b88612166565b94509050611085620f424082101560cc6113cc565b6110936000620f42406121ef565b6110a289620f424083036121ef565b6110ab84611cab565b604080516002808252606082018352909160208301908036833701905050925061113e565b6110d988611b35565b61110c87896000815181106110ea57fe5b60200260200101518a6001815181106110ff57fe5b6020026020010151611dbd565b61111b8b8b8b8b8b8b8b611c2a565b9095509350905061112c89826121ef565b61113584611cab565b61113e836118ae565b611146611659565b505097509795505050505050565b3360008181526001602090815260408083206001600160a01b038716845290915281205490916105cd91859061095790866111c6565b6001600160a01b03918216600090815260016020908152604080832093909416825291909152205490565b60606107e861206a565b6201de2090565b600082820161079e84821015836113cc565b600061079e8383605561120a565b600061079e83836056611231565b60006112048383111560016113cc565b50900390565b60006001821b1984168284611220576000611223565b60015b60ff16901b17949350505050565b6001600160401b03811b1992909216911b1790565b6001600160a01b0380841660008181526001602090815260408083209487168084529490915290819020849055517f8c5be1e5ebec7d5bd14f71427d1e84f3dd0314c0f7b2291e5b200ac8c7c3b925906112a1908590614993565b60405180910390a3505050565b60006112c56000356001600160e01b031916610b1b565b90506105e86112d48233612285565b6101916113cc565b80156112fc576112f76112ed611377565b42106101936113cc565b611311565b61131161130761139b565b42106101a96113cc565b6006805460ff19168215151790556040517f9e3a5e37224532dea67b89face185703738a228a6e8a23dee546960180d3be649061134f908390614970565b60405180910390a150565b600061136461139b565b4211806107e857505060065460ff161590565b7f000000000000000000000000000000000000000000000000000000000000000090565b7f000000000000000000000000000000000000000000000000000000000000000090565b60006105d182604b612375565b816113da576113da8161237d565b5050565b60006113ef824210156101386113cc565b4282900360006113fe85611a4b565b9050600061140b826123d0565b905061141c600082116101396113cc565b8281116114485780830380611431848a6123dc565b0261143c848a612420565b0194505050505061079e565b600061145387612464565b9050600061146082611a4b565b9050600061146d826123d0565b905061147e600082116101396113cc565b61148d8682111561013a6113cc565b505060008061149c8684612471565b9150915060006114ab836123d0565b6114b4836123d0565b039050801561150c5760006114c9848d612420565b6114d3848e612420565b03905060006114e1856123d0565b8903905082818302816114f057fe5b056114fb868f612420565b01995050505050505050505061079e565b611516838c612420565b97505050505050505061079e565b60006105d1655af3107a40008302612524565b6001600160a01b03831660009081526020819052604090205461155f828210156101966113cc565b6115766001600160a01b03841615156101996113cc565b6001600160a01b038085166000908152602081905260408082208585039055918516815220546115a690836111c6565b6001600160a01b0380851660008181526020819052604090819020939093559151908616907fddf252ad1be2c89b69c2b068fc378daa952ba7f163c4a11628f55a4df523b3ef906115f8908690614993565b60405180910390a350505050565b6107d761161161135a565b6101926113cc565b60085461162690826111d8565b6008556040517f3e350b41e86a8e10f804ade6d35340d620be35569cc75ac943e8bb14ab80ead19061134f908390614970565b600854611665816117cd565b156105e85761167f611678600954612901565b8290612945565b905061169b61169461168f6105eb565b612901565b8290612952565b60085550565b60007f00000000000000000000000000000000000000000000000000000000000000007f00000000000000000000000000000000000000000000000000000000000000007f000000000000000000000000000000000000000000000000000000000000000061170e612960565b306040516020016117239594939291906149ef565b60405160208183030381529060405280519060200120905090565b61175164e8d4a5100082101560cb6113cc565b61176767016345785d8a000082111560ca6113cc565b60085461177490826111e6565b6008556040517fa9ba3ffe0b6c366b81232caab38605a0699ad5398d6cce76f91ee809e322dafc9061134f908390614993565b60006105d18282612964565b60006105d1826016612964565b60006105d182602c61298b565b60006105d1826055612995565b60006105d182605661299f565b6113da81831460676113cc565b6000606080606061180361206a565b905061180d61135a565b156118555761182387896000815181106110ea57fe5b600061182f828a6120d8565b90506118408983600954848b6129ac565b925061184f89846111f4612a90565b50611876565b60408051600280825260608201835290916020830190803683370190505091505b611881888287612b22565b909450925061189388846111f4612a90565b61189d81896120d8565b600955509750975097945050505050565b6118d5816000815181106118be57fe5b60200260200101516118d06001611d09565b612b8f565b816000815181106118e257fe5b602002602001018181525050611910816001815181106118fe57fe5b60200260200101516118d06000611d09565b8160018151811061191d57fe5b60200260200101818152505050565b3330146119ea576000306001600160a01b03166000366040516119509291906148b5565b6000604051808303816000865af19150503d806000811461198d576040519150601f19603f3d011682016040523d82523d6000602084013e611992565b606091505b5050905080600081146119a157fe5b60046000803e6000516001600160e01b0319166343adbafb60e01b81146119cc573d6000803e3d6000fd5b506020600460003e604060205260243d03602460403e601c3d016000f35b6119f386611b35565b60006060611a0a8b8b8b8b8b8b8b8b63ffffffff16565b5091509150611a1c818463ffffffff16565b8051601f1982018390526343adbafb603f1983015260200260231982016044820181fd5b505050505050505050565b60009081526007602052604090205490565b6000806000806000806000611a7188612baf565b9650611a7c88612bbc565b9550611a8788612bc9565b9450611a9288612bd6565b9350611a9d88612be3565b9250611aa888612bf0565b9150611ab3886123d0565b9050919395979092949650565b600082820261079e841580611add575083858381611ada57fe5b04145b60036113cc565b6000611af382151560046113cc565b82611b00575060006105d1565b670de0b6b3a764000083810290611b2390858381611b1a57fe5b041460056113cc565b828181611b2c57fe5b049150506105d1565b611b5c81600081518110611b4557fe5b6020026020010151611b576001611d09565b611ac0565b81600081518110611b6957fe5b60200260200101818152505061191081600181518110611b8557fe5b6020026020010151611b576000611d09565b6001600160a01b038216600090815260208190526040902054611bbf828210156101966113cc565b6001600160a01b03831660009081526020819052604090208282039055600254611be990836111f4565b6002556040516000906001600160a01b038516907fddf252ad1be2c89b69c2b068fc378daa952ba7f163c4a11628f55a4df523b3ef906112a1908690614993565b60006060806060611c3961206a565b90506000611c47828a6120d8565b90506060611c5a8a84600954858c6129ac565b9050611c698a826111f4612a90565b60006060611c788c868b612bfd565b91509150611c898c826111c6612a90565b611c93858d6120d8565b600955909e909d50909b509950505050505050505050565b611cd281600081518110611cbb57fe5b6020026020010151611ccd6001611d09565b612c57565b81600081518110611cdf57fe5b60200260200101818152505061191081600181518110611cfb57fe5b6020026020010151611ccd60005b600081611d36577f00000000000000000000000000000000000000000000000000000000000000006105d1565b507f0000000000000000000000000000000000000000000000000000000000000000919050565b600081611d8a577f00000000000000000000000000000000000000000000000000000000000000006105d1565b507f0000000000000000000000000000000000000000000000000000000000000000919050565b600061079e8383611ac0565b600854611dc9816117cd565b8015611dd457508343115b15611ebd576000611e277f0000000000000000000000000000000000000000000000000000000000000000857f000000000000000000000000000000000000000000000000000000000000000086612c8a565b90506000611e5e7f000000000000000000000000000000000000000000000000000000000000000086611e59866117b3565b612cbf565b90506000611e6b846113bf565b90506000611e78856117c0565b90506000611e9182848787611e8c8b6117a7565b612cdb565b9050808314611a4057611ea48682612d32565b9550611eb08642612d40565b6008819055955050505050505b50505050565b6000828202611edd841580611add575083858381611ada57fe5b80611eec5760009150506105d1565b670de0b6b3a764000060001982015b046001019150506105d1565b6000611f1a858486858a60600151612d4e565b90505b95945050505050565b600061079e8383612b8f565b6000611f1a858486858a60600151612dc9565b600061079e8383612c57565b6000670de0b6b3a76400008210611f695760006105d1565b50670de0b6b3a76400000390565b6000611f8682151560046113cc565b82611f93575060006105d1565b670de0b6b3a764000083810290611fad90858381611b1a57fe5b826001820381611efb57fe5b6000611fc3610bb6565b6001600160a01b031663aaabadc56040518163ffffffff1660e01b815260040160206040518083038186803b158015611ffb57600080fd5b505afa15801561200f573d6000803e3d6000fd5b505050506040513d601f19601f820116820180604052508101906107e89190614605565b60008061203f83611a4b565b9050612058600061204f836123d0565b116101396113cc565b61206281856123dc565b949350505050565b6040805160028082526060808301845292839291906020830190803683370190505090506120986001611d5d565b816000815181106120a557fe5b6020026020010181815250506120bb6000611d5d565b816001815181106120c857fe5b6020908102919091010152905090565b670de0b6b3a764000060005b835181101561213a576121306121298583815181106120ff57fe5b602002602001015185848151811061211357fe5b6020026020010151612e3f90919063ffffffff16565b8390612e8e565b91506001016120e4565b506105d1600082116101376113cc565b60006121546116a1565b82604051602001610b509291906148c5565b60006060600061217584612eba565b9050612190600082600281111561218857fe5b1460ce6113cc565b606061219b85612ed0565b90506121a9815160026117e7565b6121b281611b35565b60606121bc61206a565b905060006121ca82846120d8565b905060006121d9826002611ac0565b6009929092555099919850909650505050505050565b6001600160a01b03821660009081526020819052604090205461221290826111c6565b6001600160a01b03831660009081526020819052604090205560025461223890826111c6565b6002556040516001600160a01b038316906000907fddf252ad1be2c89b69c2b068fc378daa952ba7f163c4a11628f55a4df523b3ef90612279908590614993565b60405180910390a35050565b600073ba1ba1ba1ba1ba1ba1ba1ba1ba1ba1ba1ba1ba1b6122a4610b92565b6001600160a01b0316141580156122bf57506122bf83612ee6565b156122e7576122cc610b92565b6001600160a01b0316336001600160a01b03161490506105d1565b6122ef611fb9565b6001600160a01b0316639be2a8848484306040518463ffffffff1660e01b815260040161231e9392919061499c565b60206040518083038186803b15801561233657600080fd5b505afa15801561234a573d6000803e3d6000fd5b505050506040513d601f19601f8201168201806040525081019061236e91906144c5565b90506105d1565b1c6103ff1690565b62461bcd60e51b6000908152602060045260076024526642414c23000030600a808404818106603090810160081b95839006959095019082900491820690940160101b939093010160c81b604452606490fd5b60006105d1828261298b565b6000808260028111156123eb57fe5b14156123fa5761236e83612baf565b600182600281111561240857fe5b14156124175761236e83612bc9565b61236e83612be3565b60008082600281111561242f57fe5b141561243e5761236e83612bbc565b600182600281111561244c57fe5b141561245b5761236e83612bd6565b61236e83612bf0565b60006105d1826001612f00565b600080806103ff8180805b8385116124e857600285850104612493818a612f00565b935061249e84611a4b565b92506124a9836123d0565b9150898210156124be578060010195506124e2565b898211156124d1576001810394506124e2565b82839750975050505050505061251d565b5061247c565b888110612506576125006124fb84612f11565b611a4b565b82612513565b816125136124fb85612464565b9650965050505050505b9250929050565b6000612553680238fd42c5cf03ffff19831215801561254c575068070c1cc73b00c800008313155b60096113cc565b60008212156125865761256882600003612524565b6a0c097ce7bc90715b34b9f160241b8161257e57fe5b059050610a56565b60006806f05b59d3b200000083126125c657506806f05b59d3b1ffffff1990910190770195e54c5dd42177f53a27172fa9ec6302628270000000006125fc565b6803782dace9d900000083126125f857506803782dace9d8ffffff19909101906b1425982cf597cd205cef73806125fc565b5060015b6064929092029168056bc75e2d6310000068ad78ebc5ac62000000841261264c5768ad78ebc5ac61ffffff199093019268056bc75e2d631000006e01855144814a7ff805980ff008400082020590505b6856bc75e2d6310000008412612688576856bc75e2d630ffffff199093019268056bc75e2d631000006b02df0ab5a80a22c61ab5a70082020590505b682b5e3af16b1880000084126126c257682b5e3af16b187fffff199093019268056bc75e2d63100000693f1fce3da636ea5cf85082020590505b6815af1d78b58c40000084126126fc576815af1d78b58c3fffff199093019268056bc75e2d63100000690127fa27722cc06cc5e282020590505b680ad78ebc5ac6200000841261273557680ad78ebc5ac61fffff199093019268056bc75e2d6310000068280e60114edb805d0382020590505b68056bc75e2d63100000841261276e5768056bc75e2d630fffff199093019268056bc75e2d63100000680ebc5fb4174612111082020590505b6802b5e3af16b188000084126127a7576802b5e3af16b187ffff199093019268056bc75e2d631000006808f00f760a4b2db55d82020590505b68015af1d78b58c4000084126127e05768015af1d78b58c3ffff199093019268056bc75e2d631000006806f5f177578893793782020590505b68056bc75e2d631000008481019085906002908280020505918201919050600368056bc75e2d631000008783020505918201919050600468056bc75e2d631000008783020505918201919050600568056bc75e2d631000008783020505918201919050600668056bc75e2d631000008783020505918201919050600768056bc75e2d631000008783020505918201919050600868056bc75e2d631000008783020505918201919050600968056bc75e2d631000008783020505918201919050600a68056bc75e2d631000008783020505918201919050600b68056bc75e2d631000008783020505918201919050600c68056bc75e2d631000008783020505918201919050606468056bc75e2d63100000848402058502059695505050505050565b60008061290d83612f1e565b9050655af3107a40006000821361292c57652d79883d20008203612936565b652d79883d200082015b8161293d57fe5b059392505050565b600061079e838383612f7a565b600061079e83836016612f7a565b4690565b600082821c623fffff16621fffff811361297e5780612062565b623fffff19179392505050565b1c637fffffff1690565b1c60019081161490565b1c6001600160401b031690565b604080516002808252606080830184529283929190602083019080368337019050509050826129dc579050611f1d565b612a4f877f000000000000000000000000000000000000000000000000000000000000000081518110612a0b57fe5b6020026020010151877f000000000000000000000000000000000000000000000000000000000000000081518110612a3f57fe5b6020026020010151878787612f91565b817f000000000000000000000000000000000000000000000000000000000000000081518110612a7b57fe5b60209081029190910101529695505050505050565b612ac683600081518110612aa057fe5b602002602001015183600081518110612ab557fe5b60200260200101518363ffffffff16565b83600081518110612ad357fe5b602002602001018181525050612b0483600181518110612aef57fe5b602002602001015183600181518110612ab557fe5b83600181518110612b1157fe5b602002602001018181525050505050565b600060606000612b3184612eba565b90506000816002811115612b4157fe5b1415612b5c57612b52868686613009565b9250925050612b87565b6001816002811115612b6a57fe5b1415612b7a57612b5286856130b9565b612b528686866130eb565b505b935093915050565b6000612b9e82151560046113cc565b818381612ba757fe5b049392505050565b60006105d18260ea612964565b60006105d18260b5613157565b60006105d182609f612964565b60006105d182606a613157565b60006105d1826054612964565b60006105d182601f613157565b600060606000612c0c84612eba565b90506001816002811115612c1c57fe5b1415612c2d57612b5286868661318a565b6002816002811115612c3b57fe5b1415612c4c57612b528686866131e0565b612b8561013661237d565b6000612c6682151560046113cc565b82612c73575060006105d1565b816001840381612c7f57fe5b0460010190506105d1565b600080612caa612c9a8486611f77565b612ca48789611f77565b90611f77565b9050612cb581612901565b9695505050505050565b600080612ccf61168f8587611f77565b92909203949350505050565b600080612cf785858542612cee8b611a4b565b93929190613263565b9050607842889003101580612d0c5786612d15565b612d1587612464565b600081815260076020526040902092909255509695505050505050565b600061079e8383604b6132b5565b600061079e8383602c6132c5565b6000612d70612d6587670429d069189e0000612e8e565b8311156101306113cc565b6000612d7c87846111c6565b90506000612d8a8883611f77565b90506000612d988887611ae4565b90506000612da683836132d7565b9050612dbb612db482611f51565b8990612e8e565b9a9950505050505050505050565b6000612deb612de085670429d069189e0000612e8e565b8311156101316113cc565b6000612e01612dfa86856111f4565b8690611f77565b90506000612e0f8588611f77565b90506000612e1d83836132d7565b90506000612e3382670de0b6b3a76400006111f4565b9050612dbb8a82611ec3565b600080612e4c8484613303565b90506000612e66612e5f83612710611ec3565b60016111c6565b905080821015612e7b576000925050506105d1565b612e8582826111f4565b925050506105d1565b6000828202612ea8841580611add575083858381611ada57fe5b670de0b6b3a764000090049392505050565b6000818060200190518101906105d19190614621565b60608180602001905181019061079e91906146e6565b6000612ef8631c74c91760e11b610b1b565b909114919050565b60006104008383015b069392505050565b60006105d1826001613404565b6000612f2e6000831360646113cc565b670c7d713b49da000082138015612f4c5750670f43fc2c04ee000082125b15612f6a57670de0b6b3a7640000612f6383613413565b8161257e57fe5b612f7382613531565b9050610a56565b623fffff828116821b90821b198416179392505050565b6000838311612fa257506000611f1d565b6000612fae8585611f77565b90506000612fc4670de0b6b3a764000088611ae4565b9050612fd8826709b6e64a8ec600006138d0565b91506000612fe683836132d7565b90506000612ffd612ff683611f51565b8b90612e8e565b9050612dbb8187612e8e565b60006060613015611606565b600080613021856138e7565b915091506130336002821060646113cc565b604080516002808252606080830184529260208301908036833701905050905061309488838151811061306257fe5b602002602001015188848151811061307657fe5b6020026020010151856130876105eb565b61308f610885565b613909565b8183815181106130a057fe5b6020908102919091010152919791965090945050505050565b6000606060006130c8846139c0565b905060606130de86836130d96105eb565b6139d6565b9196919550909350505050565b600060606130f7611606565b6060600061310485613a87565b91509150613114825160026117e7565b61311d82611b35565b600061313a88888561312d6105eb565b613135610885565b613a9f565b905061314a8282111560cf6113cc565b9791965090945050505050565b600082821c661fffffffffffff16660fffffffffffff81136131795780612062565b661fffffffffffff19179392505050565b6000606080600061319a85613a87565b915091506131aa825160026117e7565b6131b382611b35565b60006131d08888856131c36105eb565b6131cb610885565b613cca565b905061314a8282101560d06113cc565b600060606000806131f0856138e7565b915091506132026002821060646113cc565b604080516002808252606080830184529260208301908036833701905050905061309488838151811061323157fe5b602002602001015188848151811061324557fe5b6020026020010151856132566105eb565b61325e610885565b613eda565b60008061326f876123d0565b83039050600081870261328189612bbc565b01905060008287026132928a612bd6565b01905060008387026132a38b612bf0565b019050612dbb89848a858b868c613f7c565b6103ff811b1992909216911b1790565b637fffffff811b1992909216911b1790565b6000806132e48484613303565b905060006132f7612e5f83612710611ec3565b9050611f1d82826111c6565b6000816133195750670de0b6b3a76400006105d1565b82613326575060006105d1565b613337600160ff1b841060066113cc565b8261335d770bce5086492111aea88f4bb1ca6bcf584181ea8059f76532841060076113cc565b826000670c7d713b49da00008313801561337e5750670f43fc2c04ee000083125b156133b557600061338e84613413565b9050670de0b6b3a764000080820784020583670de0b6b3a7640000830502019150506133c3565b816133bf84613531565b0290505b670de0b6b3a764000090056133fb680238fd42c5cf03ffff1982128015906133f4575068070c1cc73b00c800008213155b60086113cc565b612cb581612524565b60006104008284038101612f09565b670de0b6b3a7640000026000806a0c097ce7bc90715b34b9f160241b808401906ec097ce7bc90715b34b9f0fffffffff198501028161344e57fe5b05905060006a0c097ce7bc90715b34b9f160241b82800205905081806a0c097ce7bc90715b34b9f160241b81840205915060038205016a0c097ce7bc90715b34b9f160241b82840205915060058205016a0c097ce7bc90715b34b9f160241b82840205915060078205016a0c097ce7bc90715b34b9f160241b82840205915060098205016a0c097ce7bc90715b34b9f160241b828402059150600b8205016a0c097ce7bc90715b34b9f160241b828402059150600d8205016a0c097ce7bc90715b34b9f160241b828402059150600f826002919005919091010295945050505050565b6000670de0b6b3a764000082121561356d57613563826a0c097ce7bc90715b34b9f160241b8161355d57fe5b05613531565b6000039050610a56565b60007e1600ef3172e58d2e933ec884fde10064c63b5372d805e203c000000000000083126135be57770195e54c5dd42177f53a27172fa9ec630262827000000000830592506806f05b59d3b2000000015b73011798004d755d3c8bc8e03204cf44619e00000083126135f6576b1425982cf597cd205cef7380830592506803782dace9d9000000015b606492830292026e01855144814a7ff805980ff0084000831261363e576e01855144814a7ff805980ff008400068056bc75e2d63100000840205925068ad78ebc5ac62000000015b6b02df0ab5a80a22c61ab5a7008312613679576b02df0ab5a80a22c61ab5a70068056bc75e2d6310000084020592506856bc75e2d631000000015b693f1fce3da636ea5cf85083126136b057693f1fce3da636ea5cf85068056bc75e2d631000008402059250682b5e3af16b18800000015b690127fa27722cc06cc5e283126136e757690127fa27722cc06cc5e268056bc75e2d6310000084020592506815af1d78b58c400000015b68280e60114edb805d03831261371c5768280e60114edb805d0368056bc75e2d631000008402059250680ad78ebc5ac6200000015b680ebc5fb41746121110831261374757680ebc5fb4174612111068056bc75e2d631000009384020592015b6808f00f760a4b2db55d831261377c576808f00f760a4b2db55d68056bc75e2d6310000084020592506802b5e3af16b1880000015b6806f5f177578893793783126137b1576806f5f177578893793768056bc75e2d63100000840205925068015af1d78b58c40000015b6806248f33704b28660383126137e5576806248f33704b28660368056bc75e2d63100000840205925067ad78ebc5ac620000015b6805c548670b9510e7ac8312613819576805c548670b9510e7ac68056bc75e2d6310000084020592506756bc75e2d6310000015b600068056bc75e2d63100000840168056bc75e2d63100000808603028161383c57fe5b059050600068056bc75e2d63100000828002059050818068056bc75e2d63100000818402059150600382050168056bc75e2d63100000828402059150600582050168056bc75e2d63100000828402059150600782050168056bc75e2d63100000828402059150600982050168056bc75e2d63100000828402059150600b820501600202606485820105979650505050505050565b6000818310156138e0578161079e565b5090919050565b600080828060200190518101906138fe91906146b0565b909590945092505050565b60008061391a84612ca481886111f4565b90506139336709b6e64a8ec600008210156101326113cc565b600061395161394a670de0b6b3a764000089611ae4565b83906132d7565b9050600061396861396183611f51565b8a90612e8e565b9050600061397589611f51565b905060006139838383611ec3565b9050600061399184836111f4565b90506139b06139a96139a28a611f51565b8490612e8e565b82906111c6565b9c9b505050505050505050505050565b60008180602001905181019061079e9190614683565b606060006139e48484611ae4565b9050606085516001600160401b03811180156139ff57600080fd5b50604051908082528060200260200182016040528015613a29578160200160208202803683370190505b50905060005b8651811015613a7d57613a5e83888381518110613a4857fe5b6020026020010151612e8e90919063ffffffff16565b828281518110613a6a57fe5b6020908102919091010152600101613a2f565b5095945050505050565b60606000828060200190518101906138fe919061463d565b6000606084516001600160401b0381118015613aba57600080fd5b50604051908082528060200260200182016040528015613ae4578160200160208202803683370190505b5090506000805b8851811015613ba957613b44898281518110613b0357fe5b6020026020010151612ca4898481518110613b1a57fe5b60200260200101518c8581518110613b2e57fe5b60200260200101516111f490919063ffffffff16565b838281518110613b5057fe5b602002602001018181525050613b9f613b98898381518110613b6e57fe5b6020026020010151858481518110613b8257fe5b6020026020010151611ec390919063ffffffff16565b83906111c6565b9150600101613aeb565b50670de0b6b3a764000060005b8951811015613ca9576000848281518110613bcd57fe5b6020026020010151841115613c2b576000613bf6613bea86611f51565b8d8581518110613a4857fe5b90506000613c0a828c8681518110613b2e57fe5b9050613c22613b98613c1b8b611f51565b8390611f77565b92505050613c42565b888281518110613c3757fe5b602002602001015190505b6000613c6b8c8481518110613c5357fe5b6020026020010151610985848f8781518110613b2e57fe5b9050613c9d613c968c8581518110613c7f57fe5b602002602001015183612e3f90919063ffffffff16565b8590612e8e565b93505050600101613bb6565b50613cbd613cb682611f51565b8790611ec3565b9998505050505050505050565b6000606084516001600160401b0381118015613ce557600080fd5b50604051908082528060200260200182016040528015613d0f578160200160208202803683370190505b5090506000805b8851811015613db757613d6f898281518110613d2e57fe5b6020026020010151610985898481518110613d4557fe5b60200260200101518c8581518110613d5957fe5b60200260200101516111c690919063ffffffff16565b838281518110613d7b57fe5b602002602001018181525050613dad613b98898381518110613d9957fe5b6020026020010151858481518110613a4857fe5b9150600101613d16565b50670de0b6b3a764000060005b8951811015613e9857600083858381518110613ddc57fe5b60200260200101511115613e38576000613e01613bea86670de0b6b3a76400006111f4565b90506000613e15828c8681518110613b2e57fe5b9050613e2f613b98612129670de0b6b3a76400008c6111f4565b92505050613e4f565b888281518110613e4457fe5b602002602001015190505b6000613e788c8481518110613e6057fe5b6020026020010151610985848f8781518110613d5957fe5b9050613e8c613c968c8581518110613c7f57fe5b93505050600101613dc4565b50670de0b6b3a76400008110613ece57613ec4613ebd82670de0b6b3a76400006111f4565b8790612e8e565b9350505050611f1d565b60009350505050611f1d565b600080613eeb84612ca481886111c6565b9050613f046729a2241af62c00008211156101336113cc565b6000613f1b61394a670de0b6b3a764000089611f77565b90506000613f3b613f3483670de0b6b3a76400006111f4565b8a90611ec3565b90506000613f4889611f51565b90506000613f568383611ec3565b90506000613f6484836111f4565b90506139b06139a9613f758a611f51565b8490611f77565b6000613f888282613fdc565b613f9384601f613fe0565b613f9e866054613ff1565b613fa988606a613fe0565b613fb48a609f613ff1565b613fbf8c60b5613fe0565b613fca8e60ea613ff1565b17171717171798975050505050505050565b1b90565b661fffffffffffff91909116901b90565b623fffff91909116901b90565b6040805160608101909152806000815260200160008152602001600081525090565b604080518082019091526000808252602082015290565b80356105d181614b52565b600082601f830112614052578081fd5b815161406561406082614b33565b614b0d565b81815291506020808301908481018184028601820187101561408657600080fd5b60005b848110156140a557815184529282019290820190600101614089565b505050505092915050565b600082601f8301126140c0578081fd5b81356001600160401b038111156140d5578182fd5b6140e8601f8201601f1916602001614b0d565b91508082528360208285010111156140ff57600080fd5b8060208401602084013760009082016020015292915050565b8035600281106105d157600080fd5b80356105d181614b75565b600060208284031215614143578081fd5b813561079e81614b52565b60008060408385031215614160578081fd5b823561416b81614b52565b9150602083013561417b81614b52565b809150509250929050565b60008060006060848603121561419a578081fd5b83356141a581614b52565b925060208401356141b581614b52565b929592945050506040919091013590565b600080600080600080600060e0888a0312156141e0578485fd5b87356141eb81614b52565b965060208801356141fb81614b52565b95506040880135945060608801359350608088013560ff8116811461421e578384fd5b9699959850939692959460a0840135945060c09093013592915050565b6000806040838503121561424d578182fd5b823561425881614b52565b946020939093013593505050565b60008060006060848603121561427a578081fd5b83516001600160401b0380821115614290578283fd5b818601915086601f8301126142a3578283fd5b81516142b161406082614b33565b80828252602080830192508086018b8283870289010111156142d1578788fd5b8796505b848710156142fc5780516142e881614b52565b8452600196909601959281019281016142d5565b508901519097509350505080821115614313578283fd5b5061432086828701614042565b925050604084015190509250925092565b60006020808385031215614343578182fd5b82356001600160401b03811115614358578283fd5b8301601f81018513614368578283fd5b803561437661406082614b33565b818152838101908385016040808502860187018a1015614394578788fd5b8795505b848610156143e15780828b0312156143ae578788fd5b6143b781614b0d565b6143c18b84614127565b815282880135888201528452600195909501949286019290810190614398565b509098975050505050505050565b60006020808385031215614401578182fd5b82356001600160401b03811115614416578283fd5b8301601f81018513614426578283fd5b803561443461406082614b33565b818152838101908385016060808502860187018a1015614452578788fd5b8795505b848610156143e15780828b03121561446c578788fd5b61447581614b0d565b61447f8b84614127565b81528288013588820152604080840135908201528452600195909501949286019290810190614456565b6000602082840312156144ba578081fd5b813561079e81614b67565b6000602082840312156144d6578081fd5b815161079e81614b67565b600080600080600080600060e0888a0312156144fb578081fd5b8735965060208089013561450e81614b52565b9650604089013561451e81614b52565b955060608901356001600160401b0380821115614539578384fd5b818b0191508b601f83011261454c578384fd5b813561455a61406082614b33565b8082825285820191508585018f878886028801011115614578578788fd5b8795505b8386101561459a57803583526001959095019491860191860161457c565b509850505060808b0135955060a08b0135945060c08b01359250808311156145c0578384fd5b50506145ce8a828b016140b0565b91505092959891949750929550565b6000602082840312156145ee578081fd5b81356001600160e01b03198116811461079e578182fd5b600060208284031215614616578081fd5b815161079e81614b52565b600060208284031215614632578081fd5b815161079e81614b75565b600080600060608486031215614651578081fd5b835161465c81614b75565b60208501519093506001600160401b03811115614677578182fd5b61432086828701614042565b60008060408385031215614695578182fd5b82516146a081614b75565b6020939093015192949293505050565b6000806000606084860312156146c4578081fd5b83516146cf81614b75565b602085015160409095015190969495509392505050565b600080604083850312156146f8578182fd5b825161470381614b75565b60208401519092506001600160401b0381111561471e578182fd5b61472a85828601614042565b9150509250929050565b600060208284031215614745578081fd5b813561079e81614b75565b600080600060608486031215614764578081fd5b83356001600160401b038082111561477a578283fd5b8186019150610120808389031215614790578384fd5b61479981614b0d565b90506147a58884614118565b81526147b48860208501614037565b60208201526147c68860408501614037565b6040820152606083013560608201526080830135608082015260a083013560a08201526147f68860c08501614037565b60c08201526148088860e08501614037565b60e08201526101008084013583811115614820578586fd5b61482c8a8287016140b0565b9183019190915250976020870135975060409096013595945050505050565b60006020828403121561485c578081fd5b5035919050565b6000815180845260208085019450808401835b8381101561489257815187529582019590820190600101614876565b509495945050505050565b9182526001600160e01b031916602082015260240190565b6000828483379101908152919050565b61190160f01b81526002810192909252602282015260420190565b6001600160a01b0391909116815260200190565b6020808252825182820181905260009190848201906040850190845b8181101561492c57835183529284019291840191600101614910565b50909695505050505050565b60006020825261079e6020830184614863565b60006040825261495e6040830185614863565b8281036020840152611f1d8185614863565b901515815260200190565b92151583526020830191909152604082015260600190565b90815260200190565b9283526001600160a01b03918216602084015216604082015260600190565b9586526001600160a01b0394851660208701529290931660408501526060840152608083019190915260a082015260c00190565b9485526020850193909352604084019190915260608301526001600160a01b0316608082015260a00190565b93845260ff9290921660208401526040830152606082015260800190565b968752602087019590955260408601939093526060850191909152608084015260a083015260c082015260e00190565b9586526020860194909452604085019290925260608401521515608083015260a082015260c00190565b6000602080835283518082850152825b81811015614abf57858101830151858201604001528201614aa3565b81811115614ad05783604083870101525b50601f01601f1916929092016040019392505050565b6000838252604060208301526120626040830184614863565b60ff91909116815260200190565b6040518181016001600160401b0381118282101715614b2b57600080fd5b604052919050565b60006001600160401b03821115614b48578081fd5b5060209081020190565b6001600160a01b03811681146105e857600080fd5b80151581146105e857600080fd5b600381106105e857600080fdfea26469706673582212201dbf8d364d926088a19c5f3f5d0ca0ab72cf3eda8f3f78dda45ab2619de4b6d664736f6c63430007010033a264697066735822122062c63a2c3089490a939fe9f20e0e99ef310f04a393c33a92c66f45a3b2cea18064736f6c63430007010033",
  "linkReferences": {},
  "deployedLinkReferences": {}
}