{
  "_format": "hh-sol-artifact-1",
  "contractName": "PolygonRootGauge",
  "sourceName": "contracts/gauges/polygon/PolygonRootGauge.sol",
  "abi": [
    {
      "inputs": [
        {
          "internalType": "contract IBalancerMinter",
          "name": "minter",
          "type": "address"
        },
        {
          "internalType": "contract IPolygonRootChainManager",
          "name": "polygonRootChainManager",
          "type": "address"
        },
        {
          "internalType": "address",
          "name": "polygonERC20Predicate",
          "type": "address"
        }
      ],
      "stateMutability": "nonpayable",
      "type": "constructor"
    },
    {
      "anonymous": false,
      "inputs": [
        {
          "indexed": true,
          "internalType": "uint256",
          "name": "periodTime",
          "type": "uint256"
        },
        {
          "indexed": false,
          "internalType": "uint256",
          "name": "periodEmissions",
          "type": "uint256"
        }
      ],
      "name": "Checkpoint",
      "type": "event"
    },
    {
      "anonymous": false,
      "inputs": [
        {
          "indexed": false,
          "internalType": "uint256",
          "name": "new_relative_weight_cap",
          "type": "uint256"
        }
      ],
      "name": "RelativeWeightCapChanged",
      "type": "event"
    },
    {
      "inputs": [],
      "name": "MAX_RELATIVE_WEIGHT_CAP",
      "outputs": [
        {
          "internalType": "uint256",
          "name": "",
          "type": "uint256"
        }
      ],
      "stateMutability": "view",
      "type": "function"
    },
    {
      "inputs": [],
      "name": "checkpoint",
      "outputs": [
        {
          "internalType": "bool",
          "name": "",
          "type": "bool"
        }
      ],
      "stateMutability": "payable",
      "type": "function"
    },
    {
      "inputs": [
        {
          "internalType": "uint256",
          "name": "time",
          "type": "uint256"
        }
      ],
      "name": "getCappedRelativeWeight",
      "outputs": [
        {
          "internalType": "uint256",
          "name": "",
          "type": "uint256"
        }
      ],
      "stateMutability": "view",
      "type": "function"
    },
    {
      "inputs": [],
      "name": "getPolygonBridge",
      "outputs": [
        {
          "internalType": "contract IPolygonRootChainManager",
          "name": "",
          "type": "address"
        }
      ],
      "stateMutability": "view",
      "type": "function"
    },
    {
      "inputs": [],
      "name": "getPolygonERC20Predicate",
      "outputs": [
        {
          "internalType": "address",
          "name": "",
          "type": "address"
        }
      ],
      "stateMutability": "view",
      "type": "function"
    },
    {
      "inputs": [],
      "name": "getRecipient",
      "outputs": [
        {
          "internalType": "address",
          "name": "",
          "type": "address"
        }
      ],
      "stateMutability": "view",
      "type": "function"
    },
    {
      "inputs": [],
      "name": "getRelativeWeightCap",
      "outputs": [
        {
          "internalType": "uint256",
          "name": "",
          "type": "uint256"
        }
      ],
      "stateMutability": "view",
      "type": "function"
    },
    {
      "inputs": [
        {
          "internalType": "address",
          "name": "recipient",
          "type": "address"
        },
        {
          "internalType": "uint256",
          "name": "relativeWeightCap",
          "type": "uint256"
        }
      ],
      "name": "initialize",
      "outputs": [],
      "stateMutability": "nonpayable",
      "type": "function"
    },
    {
      "inputs": [
        {
          "internalType": "address",
          "name": "user",
          "type": "address"
        }
      ],
      "name": "integrate_fraction",
      "outputs": [
        {
          "internalType": "uint256",
          "name": "",
          "type": "uint256"
        }
      ],
      "stateMutability": "view",
      "type": "function"
    },
    {
      "inputs": [],
      "name": "is_killed",
      "outputs": [
        {
          "internalType": "bool",
          "name": "",
          "type": "bool"
        }
      ],
      "stateMutability": "view",
      "type": "function"
    },
    {
      "inputs": [],
      "name": "killGauge",
      "outputs": [],
      "stateMutability": "nonpayable",
      "type": "function"
    },
    {
      "inputs": [
        {
          "internalType": "uint256",
          "name": "relativeWeightCap",
          "type": "uint256"
        }
      ],
      "name": "setRelativeWeightCap",
      "outputs": [],
      "stateMutability": "nonpayable",
      "type": "function"
    },
    {
      "inputs": [],
      "name": "unkillGauge",
      "outputs": [],
      "stateMutability": "nonpayable",
      "type": "function"
    },
    {
      "inputs": [
        {
          "internalType": "address",
          "name": "",
          "type": "address"
        }
      ],
      "name": "user_checkpoint",
      "outputs": [
        {
          "internalType": "bool",
          "name": "",
          "type": "bool"
        }
      ],
      "stateMutability": "pure",
      "type": "function"
    }
  ],
  "bytecode": "0x6101c06040523480156200001257600080fd5b506040516200166b3803806200166b833981810160405260608110156200003857600080fd5b50805160208083015160409384015160016000908155855163e6dec36f60e01b81529551949592949193869391926001600160a01b0385169263e6dec36f926004808301939192829003018186803b1580156200009457600080fd5b505afa158015620000a9573d6000803e3d6000fd5b505050506040513d6020811015620000c057600080fd5b50516040805163c003969960e01b815290519192506000916001600160a01b0384169163c0039699916004808301926020929190829003018186803b1580156200010957600080fd5b505afa1580156200011e573d6000803e3d6000fd5b505050506040513d60208110156200013557600080fd5b505160408051632c6f4d6f60e11b815290519192506000916001600160a01b038616916358de9ade916004808301926020929190829003018186803b1580156200017e57600080fd5b505afa15801562000193573d6000803e3d6000fd5b505050506040513d6020811015620001aa57600080fd5b50516001600160601b0319606084811b821660805285811b821660a05286811b821660c05282901b1660e052604080516303e1469160e61b815290519192506001600160a01b0383169163f851a44091600480820192602092909190829003018186803b1580156200021b57600080fd5b505afa15801562000230573d6000803e3d6000fd5b505050506040513d60208110156200024757600080fd5b505160601b6001600160601b0319166101005260408051635c3dab0b60e11b815290516001600160a01b0385169163b87b5616916004808301926020929190829003018186803b1580156200029b57600080fd5b505afa158015620002b0573d6000803e3d6000fd5b505050506040513d6020811015620002c757600080fd5b505161012052604080516321609bbf60e01b815290516001600160a01b038516916321609bbf916004808301926020929190829003018186803b1580156200030e57600080fd5b505afa15801562000323573d6000803e3d6000fd5b505050506040513d60208110156200033a57600080fd5b505161014052604080516303f7d6c760e51b815290516001600160a01b03851691637efad8e0916004808301926020929190829003018186803b1580156200038157600080fd5b505afa15801562000396573d6000803e3d6000fd5b505050506040513d6020811015620003ad57600080fd5b505161016052505060001960025550506001600160601b0319606092831b811661018052911b166101a0525060805160601c60a05160601c60c05160601c60e05160601c6101005160601c6101205161014051610160516101805160601c6101a05160601c6111de6200048d60003980610b4a5280610ca2525080610b265280610de0525080610833525080610812525080610795528061087f5250806103a3528061055f528061063a5280610a6e5250806104425280610723525080610975525080610f175280611014525080610c665280610da552506111de6000f3fe6080604052600436106100dd5760003560e01c80639f8676711161007f578063cd6dc68711610059578063cd6dc68714610278578063d34fb267146102be578063fe022cc9146102d3578063fe33859e146102e8576100dd565b80639f86767114610246578063ab8f09451461025b578063c2c4c5c114610270576100dd565b80631b88094d116100bb5780631b88094d1461018a5780634b820093146101c857806383f5c39b1461021c5780639c868ac014610231576100dd565b806309400707146100e257806310d3eb041461013457806314e956f514610160575b600080fd5b3480156100ee57600080fd5b506101226004803603602081101561010557600080fd5b503573ffffffffffffffffffffffffffffffffffffffff166102fd565b60408051918252519081900360200190f35b34801561014057600080fd5b5061015e6004803603602081101561015757600080fd5b503561038b565b005b34801561016c57600080fd5b506101226004803603602081101561018357600080fd5b503561043b565b34801561019657600080fd5b5061019f610509565b6040805173ffffffffffffffffffffffffffffffffffffffff9092168252519081900360200190f35b3480156101d457600080fd5b50610208600480360360208110156101eb57600080fd5b503573ffffffffffffffffffffffffffffffffffffffff16610526565b604080519115158252519081900360200190f35b34801561022857600080fd5b5061012261052c565b34801561023d57600080fd5b50610208610532565b34801561025257600080fd5b5061012261053b565b34801561026757600080fd5b5061015e610547565b610208610618565b34801561028457600080fd5b5061015e6004803603604081101561029b57600080fd5b5073ffffffffffffffffffffffffffffffffffffffff8135169060200135610a05565b3480156102ca57600080fd5b5061015e610a56565b3480156102df57600080fd5b5061019f610b24565b3480156102f457600080fd5b5061019f610b48565b600073ffffffffffffffffffffffffffffffffffffffff8216301461038357604080517f08c379a000000000000000000000000000000000000000000000000000000000815260206004820152601e60248201527f47617567652063616e206f6e6c79206d696e7420666f7220697473656c660000604482015290519081900360640190fd5b505060045490565b3373ffffffffffffffffffffffffffffffffffffffff7f0000000000000000000000000000000000000000000000000000000000000000161461042f57604080517f08c379a000000000000000000000000000000000000000000000000000000000815260206004820152601260248201527f53454e4445525f4e4f545f414c4c4f5745440000000000000000000000000000604482015290519081900360640190fd5b61043881610b6c565b50565b60006105037f000000000000000000000000000000000000000000000000000000000000000073ffffffffffffffffffffffffffffffffffffffff1663d3078c9430856040518363ffffffff1660e01b8152600401808373ffffffffffffffffffffffffffffffffffffffff1681526020018281526020019250505060206040518083038186803b1580156104cf57600080fd5b505afa1580156104e3573d6000803e3d6000fd5b505050506040513d60208110156104f957600080fd5b5051600654610c08565b92915050565b60075473ffffffffffffffffffffffffffffffffffffffff165b90565b50600190565b60065490565b60055460ff1690565b670de0b6b3a764000081565b3373ffffffffffffffffffffffffffffffffffffffff7f000000000000000000000000000000000000000000000000000000000000000016146105eb57604080517f08c379a000000000000000000000000000000000000000000000000000000000815260206004820152601260248201527f53454e4445525f4e4f545f414c4c4f5745440000000000000000000000000000604482015290519081900360640190fd5b600580547fffffffffffffffffffffffffffffffffffffffffffffffffffffffffffffff00166001179055565b6000610622610c20565b3373ffffffffffffffffffffffffffffffffffffffff7f000000000000000000000000000000000000000000000000000000000000000016146106c657604080517f08c379a000000000000000000000000000000000000000000000000000000000815260206004820152601260248201527f53454e4445525f4e4f545f414c4c4f5745440000000000000000000000000000604482015290519081900360640190fd5b60025460006106d3610c39565b9050808210156109f757604080517f615e5237000000000000000000000000000000000000000000000000000000008152306004820152905173ffffffffffffffffffffffffffffffffffffffff7f0000000000000000000000000000000000000000000000000000000000000000169163615e523791602480830192600092919082900301818387803b15801561076a57600080fd5b505af115801561077e573d6000803e3d6000fd5b5050600180546003549590910194909250600091507f000000000000000000000000000000000000000000000000000000000000000001845b8560ff0181101561090a57848111156107cf5761090a565b62093a8081026000806107e18361043b565b90508285101580156107f757508262093a800185105b156108b057828503670de0b6b3a764000082890282020492507f00000000000000000000000000000000000000000000000000000000000000007f000000000000000000000000000000000000000000000000000000000000000089028161085b57fe5b04975062093a80819003670de0b6b3a7640000838a02820260018b905560038990557f000000000000000000000000000000000000000000000000000000000000000090980197049390930192506108c59050565b670de0b6b3a764000062093a80828902020491505b60408051838152905184917f21d81d5d656869e8ce3ba8d65526a2f0dbbcd3d36f5f9999eb7c84360e45eced919081900360200190a2509390930192506001016107b7565b5060028490556004805483019055811580159061092a575060055460ff16155b156109f357604080517f6a627842000000000000000000000000000000000000000000000000000000008152306004820152905173ffffffffffffffffffffffffffffffffffffffff7f00000000000000000000000000000000000000000000000000000000000000001691636a6278429160248083019260209291908290030181600087803b1580156109bd57600080fd5b505af11580156109d1573d6000803e3d6000fd5b505050506040513d60208110156109e757600080fd5b506109f3905082610c64565b5050505b600192505050610523610e9d565b610a0e81610ea4565b50600780547fffffffffffffffffffffffff00000000000000000000000000000000000000001673ffffffffffffffffffffffffffffffffffffffff92909216919091179055565b3373ffffffffffffffffffffffffffffffffffffffff7f00000000000000000000000000000000000000000000000000000000000000001614610afa57604080517f08c379a000000000000000000000000000000000000000000000000000000000815260206004820152601260248201527f53454e4445525f4e4f545f414c4c4f5745440000000000000000000000000000604482015290519081900360640190fd5b600580547fffffffffffffffffffffffffffffffffffffffffffffffffffffffffffffff00169055565b7f000000000000000000000000000000000000000000000000000000000000000090565b7f000000000000000000000000000000000000000000000000000000000000000090565b670de0b6b3a7640000811115610bcd576040517f08c379a00000000000000000000000000000000000000000000000000000000081526004018080602001828103825260348152602001806111516034913960400191505060405180910390fd5b60068190556040805182815290517f13e45870490f54cea50d245930d12102c72b502641ef6850d0b15a8c92decfb29181900360200190a150565b6000818310610c175781610c19565b825b9392505050565b610c32600260005414156101906110b6565b6002600055565b7fffffffffffffffffffffffffffffffffffffffffffffffffffffffffffffffff62093a8042040190565b7f000000000000000000000000000000000000000000000000000000000000000073ffffffffffffffffffffffffffffffffffffffff1663095ea7b37f0000000000000000000000000000000000000000000000000000000000000000836040518363ffffffff1660e01b8152600401808373ffffffffffffffffffffffffffffffffffffffff16815260200182815260200192505050602060405180830381600087803b158015610d1557600080fd5b505af1158015610d29573d6000803e3d6000fd5b505050506040513d6020811015610d3f57600080fd5b5050600754604080516020808201859052825180830382018152828401938490527fe3dec8fb0000000000000000000000000000000000000000000000000000000090935273ffffffffffffffffffffffffffffffffffffffff938416604483018181527f00000000000000000000000000000000000000000000000000000000000000008087166064860152606060848601908152865160a487015286517f00000000000000000000000000000000000000000000000000000000000000009098169763e3dec8fb9794969295919260c4019185019080838360005b83811015610e34578181015183820152602001610e1c565b50505050905090810190601f168015610e615780820380516001836020036101000a031916815260200191505b50945050505050600060405180830381600087803b158015610e8257600080fd5b505af1158015610e96573d6000803e3d6000fd5b5050505050565b6001600055565b60025415610f1357604080517f08c379a000000000000000000000000000000000000000000000000000000000815260206004820152601360248201527f416c726561647920696e697469616c697a656400000000000000000000000000604482015290519081900360640190fd5b60007f000000000000000000000000000000000000000000000000000000000000000073ffffffffffffffffffffffffffffffffffffffff16632c4e722e6040518163ffffffff1660e01b815260040160206040518083038186803b158015610f7b57600080fd5b505afa158015610f8f573d6000803e3d6000fd5b505050506040513d6020811015610fa557600080fd5b5051905080610fff576040517f08c379a00000000000000000000000000000000000000000000000000000000081526004018080602001828103825260248152602001806111856024913960400191505060405180910390fd5b600181905561100c610c39565b6002819055507f000000000000000000000000000000000000000000000000000000000000000073ffffffffffffffffffffffffffffffffffffffff1663a228bced6040518163ffffffff1660e01b8152600401602060405180830381600087803b15801561107a57600080fd5b505af115801561108e573d6000803e3d6000fd5b505050506040513d60208110156110a457600080fd5b50516003556110b282610b6c565b5050565b816110b2577f08c379a000000000000000000000000000000000000000000000000000000000600090815260206004526007602452600a808304818106603090810160081b83860601918390049283060160101b016642414c230000300160c81b6044526110b2918391610438917f42414c0000000000000000000000000000000000000000000000000000000000906242414c90606490fdfe52656c61746976652077656967687420636170206578636565647320616c6c6f776564206162736f6c757465206d6178696d756d42616c616e636572546f6b656e41646d696e206e6f742079657420616374697661746564a26469706673582212206ad35df5d7e0be9e2afe95eae3d417fdd8cfe136e0b275abda752f660a95125d64736f6c63430007010033",
  "linkReferences": {},
  "deployedLinkReferences": {}
}