{
  "address": "0x2A09150563ad58ea57B5296A524FDeb9F5e26cF9",
  "abi": [
    {
      "inputs": [
        {
          "internalType": "contract IVault",
          "name": "_vault",
          "type": "address"
        }
      ],
      "stateMutability": "nonpayable",
      "type": "constructor"
    },
    {
      "anonymous": false,
      "inputs": [
        {
          "indexed": true,
          "internalType": "address",
          "name": "controller",
          "type": "address"
        }
      ],
      "name": "ControllerCreated",
      "type": "event"
    },
    {
      "inputs": [
        {
          "internalType": "address",
          "name": "strategy",
          "type": "address"
        },
        {
          "internalType": "enum IVault.StrategyType",
          "name": "strategyType",
          "type": "uint8"
        },
        {
          "internalType": "uint256",
          "name": "initialBPT",
          "type": "uint256"
        },
        {
          "internalType": "address[]",
          "name": "tokens",
          "type": "address[]"
        },
        {
          "internalType": "uint128[]",
          "name": "amounts",
          "type": "uint128[]"
        },
        {
          "internalType": "address",
          "name": "owner",
          "type": "address"
        },
        {
          "internalType": "bytes32",
          "name": "salt",
          "type": "bytes32"
        }
      ],
      "name": "create",
      "outputs": [
        {
          "internalType": "address",
          "name": "",
          "type": "address"
        }
      ],
      "stateMutability": "nonpayable",
      "type": "function"
    },
    {
      "inputs": [],
      "name": "vault",
      "outputs": [
        {
          "internalType": "contract IVault",
          "name": "",
          "type": "address"
        }
      ],
      "stateMutability": "view",
      "type": "function"
    }
  ],
  "transactionHash": "0xebab670b2e25f0ee6fcdec147ac1398565333617f950200a45b963e3868be511",
  "args": [
    "0x001b6571f9CB4143b448918a9BFEaA52c6E438C3"
  ],
  "solcInputHash": "3e804a6ebb2a0687601f7f7a7d02e133",
  "bytecode": "0x60a060405234801561001057600080fd5b506040516135d33803806135d383398101604081905261002f91610044565b60601b6001600160601b031916608052610072565b600060208284031215610055578081fd5b81516001600160a01b038116811461006b578182fd5b9392505050565b60805160601c61353b6100986000398060ad528061018c528061021a525061353b6000f3fe60806040523480156200001157600080fd5b50600436106200003a5760003560e01c80639dfa2ede146200003f578063fbfa77cf146200006e575b600080fd5b6200005662000050366004620004b3565b62000078565b604051620000659190620006b1565b60405180910390f35b620000566200018a565b6000806200011860405180602001620000919062000400565b601f1982820381018352601f909101166040819052620000e2907f0000000000000000000000000000000000000000000000000000000000000000908d908d908d908d908d903390602001620006c5565b60408051601f198184030181529082905262000102929160200162000698565b60405160208183030381529060405284620001ae565b60405163f2fde38b60e01b81529091506001600160a01b0382169063f2fde38b9062000149908790600401620006b1565b600060405180830381600087803b1580156200016457600080fd5b505af115801562000179573d6000803e3d6000fd5b50929b9a5050505050505050505050565b7f000000000000000000000000000000000000000000000000000000000000000081565b600080620001c4838580519060200120620002f1565b9050620001da816001600160a01b031662000307565b15620002035760405162461bcd60e51b8152600401620001fa90620007d9565b60405180910390fd5b60405163eb1192c360e01b81526001600160a01b037f0000000000000000000000000000000000000000000000000000000000000000169063eb1192c39062000251908490600401620006b1565b600060405180830381600087803b1580156200026c57600080fd5b505af115801562000281573d6000803e3d6000fd5b505050506000620002956000858762000344565b9050816001600160a01b0316816001600160a01b031614620002b357fe5b6040516001600160a01b038216907f61a1525f83a9a659cdc1dfd5ba0a75b20537f5127a4abcebba133b6440e431ff90600090a29150505b92915050565b600062000300838330620003bf565b9392505050565b6000813f7fc5d2460186f7233c927e7db2dcc703c0e500b653ca82273b7bfad8045d85a4708181148015906200033c57508115155b949350505050565b600080844710156200036a5760405162461bcd60e51b8152600401620001fa9062000808565b82516200038b5760405162461bcd60e51b8152600401620001fa9062000771565b8383516020850187f590506001600160a01b0381166200033c5760405162461bcd60e51b8152600401620001fa90620007a6565b60008060ff60f81b838686604051602001620003df949392919062000664565b60408051808303601f19018152919052805160209091012095945050505050565b612c6580620008a183390190565b80356001600160a01b0381168114620002eb57600080fd5b600082601f83011262000437578081fd5b81356200044e620004488262000866565b6200083f565b8181529150602080830190848101818402860182018710156200047057600080fd5b6000805b85811015620004a75782356001600160801b038116811462000494578283fd5b8552938301939183019160010162000474565b50505050505092915050565b600080600080600080600060e0888a031215620004ce578283fd5b620004da89896200040e565b9650602088013560028110620004ee578384fd5b95506040880135945060608801356001600160401b038082111562000511578485fd5b818a0191508a601f83011262000525578485fd5b813562000536620004488262000866565b80828252602082019150602085018e6020808602880101111562000558578889fd5b8895505b838610156200058757620005718f826200040e565b835260019590950194602092830192016200055c565b509750505060808a0135915080821115620005a0578485fd5b50620005af8a828b0162000426565b935050620005c18960a08a016200040e565b915060c0880135905092959891949750929550565b6001600160a01b03169052565b6000815180845260208085019450808401835b838110156200061d5781516001600160801b031687529582019590820190600101620005f6565b509495945050505050565b60008151815b818110156200064a57602081850181015186830152016200062e565b81811115620006595782828601525b509290920192915050565b6001600160f81b031994909416845260609290921b6001600160601b03191660018401526015830152603582015260550190565b60006200033c620006aa838662000628565b8462000628565b6001600160a01b0391909116815260200190565b600060e0820160018060a01b03808b1684526020818b1681860152620006eb8a62000892565b604085018a90526060850189905260e060808601528751928390528088019261010086019250845b818110156200073b5762000728855162000886565b8452938201939282019260010162000713565b50505083810360a0850152620007528187620005e3565b925050506200076560c0830184620005d6565b98975050505050505050565b6020808252818101527f437265617465323a2062797465636f6465206c656e677468206973207a65726f604082015260600190565b602080825260199082015278437265617465323a204661696c6564206f6e206465706c6f7960381b604082015260600190565b60208082526015908201527414d85b1d0818d85b9b9bdd081899481c995d5cd959605a1b604082015260600190565b6020808252601d908201527f437265617465323a20696e73756666696369656e742062616c616e6365000000604082015260600190565b6040518181016001600160401b03811182821017156200085e57600080fd5b604052919050565b60006001600160401b038211156200087c578081fd5b5060209081020190565b6001600160a01b031690565b600281106200089d57fe5b5056fe610100604052601360c08190527f42616c616e63657220506f6f6c20546f6b656e0000000000000000000000000060e090815262000041916003919062000724565b506040805180820190915260038082526210941560ea1b60209092019182526200006e9160049162000724565b506005805460ff191660121790553480156200008957600080fd5b5060405162002c6538038062002c65833981810160405260e0811015620000af57600080fd5b8151602083015160408085015160608601516080870180519351959794969295919491939282019284640100000000821115620000eb57600080fd5b9083019060208201858111156200010157600080fd5b82518660208202830111640100000000821117156200011f57600080fd5b82525081516020918201928201910280838360005b838110156200014e57818101518382015260200162000134565b50505050905001604052602001805160405193929190846401000000008211156200017857600080fd5b9083019060208201858111156200018e57600080fd5b8251866020820283011164010000000082111715620001ac57600080fd5b82525081516020918201928201910280838360005b83811015620001db578181015183820152602001620001c1565b50505050905001604052602001805190602001909291905050508686868686868660016006819055506000876001600160a01b03166381158ad988886040518363ffffffff1660e01b815260040180836001600160a01b031681526020018260018111156200024657fe5b815260200192505050602060405180830381600087803b1580156200026a57600080fd5b505af11580156200027f573d6000803e3d6000fd5b505050506040513d60208110156200029657600080fd5b5051604051630ab0e98b60e11b8152600481018281526001600160a01b03858116602484015260a060448401908152885160a48501528851949550908c1693631561d31693869388938b938b93849392916064820191608481019160c4909101906020898101910280838360005b838110156200031e57818101518382015260200162000304565b50505050905001848103835286818151815260200191508051906020019060200280838360005b838110156200035f57818101518382015260200162000345565b50505050905001848103825285818151815260200191508051906020019060200280838360005b83811015620003a057818101518382015260200162000386565b5050505090500198505050505050505050600060405180830381600087803b158015620003cc57600080fd5b505af1158015620003e1573d6000803e3d6000fd5b50505050620003f6856200048a60201b60201c565b62000402828662000498565b60609790971b6001600160601b03191660805250505060a09390935250600091506200042f9050620004a8565b600780546001600160a01b0319166001600160a01b038316908117909155604051919250906000907f8be0079c531659141344cd1fd0a4f28419497f9722a3daafe3b4186f6b6457e0908290a35050505050505050620007c0565b6200049581620004ac565b50565b620004a482826200052d565b5050565b3390565b3060009081526020818152604090912054620004d391839062001d256200053a821b17901c565b30600090815260208181526040909120919091556002546200050091839062001d256200053a821b17901c565b600255604080518281529051309160009160008051602062002c458339815191529181900360200190a350565b620004a43083836200059c565b60008282018381101562000595576040805162461bcd60e51b815260206004820152601b60248201527f536166654d6174683a206164646974696f6e206f766572666c6f770000000000604482015290519081900360640190fd5b9392505050565b604080518082018252601481527f4552525f494e53554646494349454e545f42414c0000000000000000000000006020808301919091526001600160a01b0386166000908152808252929092205462000602929091849162001d8462000689821b17901c565b6001600160a01b0380851660009081526020818152604080832094909455918516815291909120546200064091839062001d256200053a821b17901c565b6001600160a01b0380841660008181526020818152604091829020949094558051858152905191939287169260008051602062002c4583398151915292918290030190a3505050565b600081848411156200071c5760405162461bcd60e51b81526004018080602001828103825283818151815260200191508051906020019080838360005b83811015620006e0578181015183820152602001620006c6565b50505050905090810190601f1680156200070e5780820380516001836020036101000a031916815260200191505b509250505060405180910390fd5b505050900390565b828054600181600116156101000203166002900490600052602060002090601f016020900481019282601f106200076757805160ff191683800117855562000797565b8280016001018555821562000797579182015b82811115620007975782518255916020019190600101906200077a565b50620007a5929150620007a9565b5090565b5b80821115620007a55760008155600101620007aa565b60805160601c60a05161240462000841600039806106e752806108365280610be35280610edf5280611062528061122652806114185280611567528061190b5280611af75250806106b852806108075280610c2d528061103352806111f752806113e9528061153852806118dc5280611ac85280611d0352506124046000f3fe608060405234801561001057600080fd5b50600436106101075760003560e01c806306fdde031461010c578063095ea7b314610189578063127cdc42146101c957806318160ddd1461025157806323b872dd1461026b578063313ce567146102a15780633e0dc34e146102bf57806366188463146102c75780636cec9973146102f357806370a0823114610319578063715018a61461033f5780638da5cb5b1461034757806392cf4a661461036b57806395d89b4114610399578063a9059cbb146103a1578063b5db9b8b146103cd578063c8e2832514610453578063d73dd62314610488578063dd62ed3e146104b4578063f2fde38b146104e2578063fbfa77cf14610508575b600080fd5b610114610510565b6040805160208082528351818301528351919283929083019185019080838360005b8381101561014e578181015183820152602001610136565b50505050905090810190601f16801561017b5780820380516001836020036101000a031916815260200191505b509250505060405180910390f35b6101b56004803603604081101561019f57600080fd5b506001600160a01b0381351690602001356105a6565b604080519115158252519081900360200190f35b61024f600480360360808110156101df57600080fd5b81359190810190604081016020820135600160201b81111561020057600080fd5b82018360208201111561021257600080fd5b803590602001918460208302840111600160201b8311171561023357600080fd5b91935091508035151590602001356001600160a01b03166105fa565b005b610259610d74565b60408051918252519081900360200190f35b6101b56004803603606081101561028157600080fd5b506001600160a01b03813581169160208101359091169060400135610d7a565b6102a9610ed4565b6040805160ff9092168252519081900360200190f35b610259610edd565b6101b5600480360360408110156102dd57600080fd5b506001600160a01b038135169060200135610f01565b61024f6004803603602081101561030957600080fd5b50356001600160a01b0316610fd9565b6102596004803603602081101561032f57600080fd5b50356001600160a01b03166110e3565b61024f6110fe565b61034f61118e565b604080516001600160a01b039092168252519081900360200190f35b61024f6004803603604081101561038157600080fd5b506001600160a01b038135811691602001351661119d565b6101146112b9565b6101b5600480360360408110156103b757600080fd5b506001600160a01b03813516906020013561131a565b61024f600480360360808110156103e357600080fd5b81359190810190604081016020820135600160201b81111561040457600080fd5b82018360208201111561041657600080fd5b803590602001918460208302840111600160201b8311171561043757600080fd5b91935091508035151590602001356001600160a01b0316611330565b61024f6004803603604081101561046957600080fd5b5080356001600160a01b031690602001356001600160801b0316611a6e565b6101b56004803603604081101561049e57600080fd5b506001600160a01b038135169060200135611b6e565b610259600480360360408110156104ca57600080fd5b506001600160a01b0381358116916020013516611bef565b61024f600480360360208110156104f857600080fd5b50356001600160a01b0316611c1a565b61034f611d01565b60038054604080516020601f600260001961010060018816150201909516949094049384018190048102820181019092528281526060939092909183018282801561059c5780601f106105715761010080835404028352916020019161059c565b820191906000526020600020905b81548152906001019060200180831161057f57829003601f168201915b5050505050905090565b3360008181526001602090815260408083206001600160a01b038716808552908352818420869055815186815291519394909390926000805160206123af833981519152928290030190a350600192915050565b60026006541415610640576040805162461bcd60e51b815260206004820152601f60248201526000805160206122c0833981519152604482015290519081900360640190fd5b6002600655600061064f610d74565b905060006106656106608884611e1b565b611f2e565b90506001600160801b0381166106b4576040805162461bcd60e51b815260206004820152600f60248201526e08aa4a4be9a82a890be82a0a0a49eb608b1b604482015290519081900360640190fd5b60607f00000000000000000000000000000000000000000000000000000000000000006001600160a01b031663f94d46687f00000000000000000000000000000000000000000000000000000000000000006040518263ffffffff1660e01b81526004018082815260200191505060006040518083038186803b15801561073a57600080fd5b505afa15801561074e573d6000803e3d6000fd5b505050506040513d6000823e601f3d908101601f19168201604052602081101561077757600080fd5b8101908080516040519392919084600160201b82111561079657600080fd5b9083019060208201858111156107ab57600080fd5b82518660208202830111600160201b821117156107c757600080fd5b82525081516020918201928201910280838360005b838110156107f45781810151838201526020016107dc565b50505050905001604052505050905060607f00000000000000000000000000000000000000000000000000000000000000006001600160a01b031663fe8f2cb27f0000000000000000000000000000000000000000000000000000000000000000846040518363ffffffff1660e01b81526004018083815260200180602001828103825283818151815260200191508051906020019060200280838360005b838110156108ab578181015183820152602001610893565b50505050905001935050505060006040518083038186803b1580156108cf57600080fd5b505afa1580156108e3573d6000803e3d6000fd5b505050506040513d6000823e601f3d908101601f19168201604052602081101561090c57600080fd5b8101908080516040519392919084600160201b82111561092b57600080fd5b90830190602082018581111561094057600080fd5b82518660208202830111600160201b8211171561095c57600080fd5b82525081516020918201928201910280838360005b83811015610989578181015183820152602001610971565b505050509050016040525050509050815188889050146109da5760405162461bcd60e51b815260040180806020018281038252602281526020018061232d6022913960400191505060405180910390fd5b606082516001600160401b03811180156109f357600080fd5b50604051908082528060200260200182016040528015610a1d578160200160208202803683370190505b509050606083516001600160401b0381118015610a3957600080fd5b50604051908082528060200260200182016040528015610a63578160200160208202803683370190505b50905060005b8451811015610bd357610aa186858381518110610a8257fe5b60200260200101516001600160801b0316611f7690919063ffffffff16565b838281518110610aad57fe5b60200260200101906001600160801b031690816001600160801b0316815250508a8a82818110610ad957fe5b905060200201356001600160801b03166001600160801b0316838281518110610afe57fe5b60200260200101516001600160801b03161115610b51576040805162461bcd60e51b815260206004820152600c60248201526b22a9292fa624a6a4aa2fa4a760a11b604482015290519081900360640190fd5b8815610b9c57828181518110610b6357fe5b6020026020010151828281518110610b7757fe5b60200260200101906001600160801b031690816001600160801b031681525050610bcb565b6000828281518110610baa57fe5b60200260200101906001600160801b031690816001600160801b0316815250505b600101610a69565b50604051630ab0e98b60e11b81527f000000000000000000000000000000000000000000000000000000000000000060048201818152336024840181905260a060448501908152885160a486015288516001600160a01b037f00000000000000000000000000000000000000000000000000000000000000001695631561d31695948b938a938a936064810191608482019160c401906020808a01910280838360005b83811015610c8e578181015183820152602001610c76565b50505050905001848103835286818151815260200191508051906020019060200280838360005b83811015610ccd578181015183820152602001610cb5565b50505050905001848103825285818151815260200191508051906020019060200280838360005b83811015610d0c578181015183820152602001610cf4565b5050505090500198505050505050505050600060405180830381600087803b158015610d3757600080fd5b505af1158015610d4b573d6000803e3d6000fd5b50505050610d588b61207a565b610d62878c612086565b50506001600655505050505050505050565b60025490565b6000336001600160a01b0385161480610db657506001600160a01b03841660009081526001602090815260408083203384529091529020548211155b610dff576040805162461bcd60e51b815260206004820152601560248201527422a9292fa12a27a5a2a72fa120a22fa1a0a62622a960591b604482015290519081900360640190fd5b610e0a848484612094565b336001600160a01b03851614801590610e4857506001600160a01b038416600090815260016020908152604080832033845290915290205460001914155b15610eca576001600160a01b0384166000908152600160209081526040808320338452909152902054610e7b908361215c565b6001600160a01b03858116600090815260016020908152604080832033808552908352928190208590558051948552519287169391926000805160206123af8339815191529281900390910190a35b5060019392505050565b60055460ff1690565b7f000000000000000000000000000000000000000000000000000000000000000081565b3360009081526001602090815260408083206001600160a01b038616845290915281205480831115610f56573360009081526001602090815260408083206001600160a01b0388168452909152812055610f85565b610f60818461215c565b3360009081526001602090815260408083206001600160a01b03891684529091529020555b3360008181526001602090815260408083206001600160a01b0389168085529083529281902054815190815290519293926000805160206123af833981519152929181900390910190a35060019392505050565b610fe161219e565b6007546001600160a01b03908116911614611031576040805162461bcd60e51b8152602060048201819052602482015260008051602061234f833981519152604482015290519081900360640190fd5b7f00000000000000000000000000000000000000000000000000000000000000006001600160a01b031663bb141ca37f0000000000000000000000000000000000000000000000000000000000000000836040518363ffffffff1660e01b815260040180838152602001826001600160a01b0316815260200192505050600060405180830381600087803b1580156110c857600080fd5b505af11580156110dc573d6000803e3d6000fd5b5050505050565b6001600160a01b031660009081526020819052604090205490565b61110661219e565b6007546001600160a01b03908116911614611156576040805162461bcd60e51b8152602060048201819052602482015260008051602061234f833981519152604482015290519081900360640190fd5b6007546040516000916001600160a01b03169060008051602061236f833981519152908390a3600780546001600160a01b0319169055565b6007546001600160a01b031690565b6111a561219e565b6007546001600160a01b039081169116146111f5576040805162461bcd60e51b8152602060048201819052602482015260008051602061234f833981519152604482015290519081900360640190fd5b7f00000000000000000000000000000000000000000000000000000000000000006001600160a01b0316636feec2297f000000000000000000000000000000000000000000000000000000000000000084846040518463ffffffff1660e01b815260040180848152602001836001600160a01b03168152602001826001600160a01b031681526020019350505050600060405180830381600087803b15801561129d57600080fd5b505af11580156112b1573d6000803e3d6000fd5b505050505050565b60048054604080516020601f600260001961010060018816150201909516949094049384018190048102820181019092528281526060939092909183018282801561059c5780601f106105715761010080835404028352916020019161059c565b6000611327338484612094565b50600192915050565b60026006541415611376576040805162461bcd60e51b815260206004820152601f60248201526000805160206122c0833981519152604482015290519081900360640190fd5b60026006556000611385610d74565b905060006113966106608884611e1b565b90506001600160801b0381166113e5576040805162461bcd60e51b815260206004820152600f60248201526e08aa4a4be9a82a890be82a0a0a49eb608b1b604482015290519081900360640190fd5b60607f00000000000000000000000000000000000000000000000000000000000000006001600160a01b031663f94d46687f00000000000000000000000000000000000000000000000000000000000000006040518263ffffffff1660e01b81526004018082815260200191505060006040518083038186803b15801561146b57600080fd5b505afa15801561147f573d6000803e3d6000fd5b505050506040513d6000823e601f3d908101601f1916820160405260208110156114a857600080fd5b8101908080516040519392919084600160201b8211156114c757600080fd5b9083019060208201858111156114dc57600080fd5b82518660208202830111600160201b821117156114f857600080fd5b82525081516020918201928201910280838360005b8381101561152557818101518382015260200161150d565b50505050905001604052505050905060607f00000000000000000000000000000000000000000000000000000000000000006001600160a01b031663fe8f2cb27f0000000000000000000000000000000000000000000000000000000000000000846040518363ffffffff1660e01b81526004018083815260200180602001828103825283818151815260200191508051906020019060200280838360005b838110156115dc5781810151838201526020016115c4565b50505050905001935050505060006040518083038186803b15801561160057600080fd5b505afa158015611614573d6000803e3d6000fd5b505050506040513d6000823e601f3d908101601f19168201604052602081101561163d57600080fd5b8101908080516040519392919084600160201b82111561165c57600080fd5b90830190602082018581111561167157600080fd5b82518660208202830111600160201b8211171561168d57600080fd5b82525081516020918201928201910280838360005b838110156116ba5781810151838201526020016116a2565b5050505090500160405250505090508151888890501461170b5760405162461bcd60e51b815260040180806020018281038252602281526020018061232d6022913960400191505060405180910390fd5b606082516001600160401b038111801561172457600080fd5b5060405190808252806020026020018201604052801561174e578160200160208202803683370190505b509050606083516001600160401b038111801561176a57600080fd5b50604051908082528060200260200182016040528015611794578160200160208202803683370190505b50905060005b84518110156118d9576117b386858381518110610a8257fe5b8382815181106117bf57fe5b60200260200101906001600160801b031690816001600160801b0316815250508a8a828181106117eb57fe5b905060200201358382815181106117fe57fe5b60200260200101516001600160801b03161015611857576040805162461bcd60e51b815260206004820152601260248201527109c9ea8408ab092a8929c8e408a9c9eaa8e960731b604482015290519081900360640190fd5b88156118a25782818151811061186957fe5b602002602001015182828151811061187d57fe5b60200260200101906001600160801b031690816001600160801b0316815250506118d1565b60008282815181106118b057fe5b60200260200101906001600160801b031690816001600160801b0316815250505b60010161179a565b507f00000000000000000000000000000000000000000000000000000000000000006001600160a01b031663d4c173e07f0000000000000000000000000000000000000000000000000000000000000000898786866040518663ffffffff1660e01b815260040180868152602001856001600160a01b03168152602001806020018060200180602001848103845287818151815260200191508051906020019060200280838360005b8381101561199a578181015183820152602001611982565b50505050905001848103835286818151815260200191508051906020019060200280838360005b838110156119d95781810151838201526020016119c1565b50505050905001848103825285818151815260200191508051906020019060200280838360005b83811015611a18578181015183820152602001611a00565b5050505090500198505050505050505050600060405180830381600087803b158015611a4357600080fd5b505af1158015611a57573d6000803e3d6000fd5b50505050611a65338c6121a2565b610d628b6121ac565b611a7661219e565b6007546001600160a01b03908116911614611ac6576040805162461bcd60e51b8152602060048201819052602482015260008051602061234f833981519152604482015290519081900360640190fd5b7f00000000000000000000000000000000000000000000000000000000000000006001600160a01b03166339fc9fde7f000000000000000000000000000000000000000000000000000000000000000084846040518463ffffffff1660e01b815260040180848152602001836001600160a01b03168152602001826001600160801b031681526020019350505050600060405180830381600087803b15801561129d57600080fd5b3360009081526001602090815260408083206001600160a01b0386168452909152812054611b9c9083611d25565b3360008181526001602090815260408083206001600160a01b0389168085529083529281902085905580519485525191936000805160206123af833981519152929081900390910190a350600192915050565b6001600160a01b03918216600090815260016020908152604080832093909416825291909152205490565b611c2261219e565b6007546001600160a01b03908116911614611c72576040805162461bcd60e51b8152602060048201819052602482015260008051602061234f833981519152604482015290519081900360640190fd5b6001600160a01b038116611cb75760405162461bcd60e51b81526004018080602001828103825260268152602001806122e06026913960400191505060405180910390fd5b6007546040516001600160a01b0380841692169060008051602061236f83398151915290600090a3600780546001600160a01b0319166001600160a01b0392909216919091179055565b7f000000000000000000000000000000000000000000000000000000000000000081565b600082820183811015611d7d576040805162461bcd60e51b815260206004820152601b60248201527a536166654d6174683a206164646974696f6e206f766572666c6f7760281b604482015290519081900360640190fd5b9392505050565b60008184841115611e135760405162461bcd60e51b81526004018080602001828103825283818151815260200191508051906020019080838360005b83811015611dd8578181015183820152602001611dc0565b50505050905090810190601f168015611e055780820380516001836020036101000a031916815260200191505b509250505060405180910390fd5b505050900390565b600081611e5e576040805162461bcd60e51b815260206004820152600c60248201526b4552525f4449565f5a45524f60a01b604482015290519081900360640190fd5b670de0b6b3a76400008302831580611e865750670de0b6b3a7640000848281611e8357fe5b04145b611eca576040805162461bcd60e51b815260206004820152601060248201526f11549497d1125597d25395115493905360821b604482015290519081900360640190fd5b60028304810181811015611f18576040805162461bcd60e51b815260206004820152601060248201526f11549497d1125597d25395115493905360821b604482015290519081900360640190fd5b6000848281611f2357fe5b049695505050505050565b6000600160801b8210611f725760405162461bcd60e51b81526004018080602001828103825260278152602001806123066027913960400191505060405180910390fd5b5090565b60008282026001600160801b0384161580611fbd5750826001600160801b0316846001600160801b0316826001600160801b031681611fb157fe5b046001600160801b0316145b612001576040805162461bcd60e51b815260206004820152601060248201526f4552525f4d554c5f4f564552464c4f5760801b604482015290519081900360640190fd5b6706f05b59d3b2000081016001600160801b038083169082161015612060576040805162461bcd60e51b815260206004820152601060248201526f4552525f4d554c5f4f564552464c4f5760801b604482015290519081900360640190fd5b6000670de0b6b3a76400006001600160801b038316611f23565b612083816121b5565b50565b6120908282612218565b5050565b604080518082018252601481527311549497d25394d551919250d251539517d0905360621b6020808301919091526001600160a01b03861660009081529081905291909120546120e5918390611d84565b6001600160a01b0380851660009081526020819052604080822093909355908416815220546121149082611d25565b6001600160a01b0380841660008181526020818152604091829020949094558051858152905191939287169260008051602061238f83398151915292918290030190a3505050565b6000611d7d83836040518060400160405280601e81526020017f536166654d6174683a207375627472616374696f6e206f766572666c6f770000815250611d84565b3390565b6120908282612223565b6120838161222e565b306000908152602081905260409020546121cf9082611d25565b306000908152602081905260409020556002546121ec9082611d25565b600255604080518281529051309160009160008051602061238f8339815191529181900360200190a350565b612090308383612094565b612090823083612094565b604080518082018252601481527311549497d25394d551919250d251539517d0905360621b602080830191909152306000908152908190529190912054612276918390611d84565b30600090815260208190526040902055600254612293908261215c565b600255604080518281529051600091309160008051602061238f8339815191529181900360200190a35056fe5265656e7472616e637947756172643a207265656e7472616e742063616c6c004f776e61626c653a206e6577206f776e657220697320746865207a65726f206164647265737353616665436173743a2076616c756520646f65736e27742066697420696e203132382062697473546f6b656e7320616e6420616d6f756e7473206c656e677468206d69736d617463684f776e61626c653a2063616c6c6572206973206e6f7420746865206f776e65728be0079c531659141344cd1fd0a4f28419497f9722a3daafe3b4186f6b6457e0ddf252ad1be2c89b69c2b068fc378daa952ba7f163c4a11628f55a4df523b3ef8c5be1e5ebec7d5bd14f71427d1e84f3dd0314c0f7b2291e5b200ac8c7c3b925a264697066735822122068094000033c7725a217acda2907ce7f4938a9a743c83f794cf2d000b2e3ec1e64736f6c63430007010033ddf252ad1be2c89b69c2b068fc378daa952ba7f163c4a11628f55a4df523b3efa2646970667358221220f18acae41ba4f5dc025fe5af809e4fe75f2c841272b2dd651b740b516dffb83d64736f6c63430007010033",
  "devdoc": {
    "kind": "dev",
    "methods": {},
    "version": 1
  },
  "userdoc": {
    "kind": "user",
    "methods": {},
    "version": 1
  },
  "storageLayout": {
    "storage": [],
    "types": null
  }
}